{
  "contractName": "The_Ohara_Protocol",
  "abi": [
    {
      "inputs": [],
      "stateMutability": "nonpayable",
      "type": "constructor"
    },
    {
      "anonymous": false,
      "inputs": [
        {
          "indexed": true,
          "internalType": "address",
          "name": "account",
          "type": "address"
        },
        {
          "indexed": true,
          "internalType": "address",
          "name": "operator",
          "type": "address"
        },
        {
          "indexed": false,
          "internalType": "bool",
          "name": "approved",
          "type": "bool"
        }
      ],
      "name": "ApprovalForAll",
      "type": "event"
    },
    {
      "anonymous": false,
      "inputs": [
        {
          "indexed": false,
          "internalType": "uint8",
          "name": "version",
          "type": "uint8"
        }
      ],
      "name": "Initialized",
      "type": "event"
    },
    {
      "anonymous": false,
      "inputs": [
        {
          "indexed": false,
          "internalType": "address",
          "name": "account",
          "type": "address"
        }
      ],
      "name": "Paused",
      "type": "event"
    },
    {
      "anonymous": false,
      "inputs": [
        {
          "indexed": true,
          "internalType": "bytes32",
          "name": "role",
          "type": "bytes32"
        },
        {
          "indexed": true,
          "internalType": "bytes32",
          "name": "previousAdminRole",
          "type": "bytes32"
        },
        {
          "indexed": true,
          "internalType": "bytes32",
          "name": "newAdminRole",
          "type": "bytes32"
        }
      ],
      "name": "RoleAdminChanged",
      "type": "event"
    },
    {
      "anonymous": false,
      "inputs": [
        {
          "indexed": true,
          "internalType": "bytes32",
          "name": "role",
          "type": "bytes32"
        },
        {
          "indexed": true,
          "internalType": "address",
          "name": "account",
          "type": "address"
        },
        {
          "indexed": true,
          "internalType": "address",
          "name": "sender",
          "type": "address"
        }
      ],
      "name": "RoleGranted",
      "type": "event"
    },
    {
      "anonymous": false,
      "inputs": [
        {
          "indexed": true,
          "internalType": "bytes32",
          "name": "role",
          "type": "bytes32"
        },
        {
          "indexed": true,
          "internalType": "address",
          "name": "account",
          "type": "address"
        },
        {
          "indexed": true,
          "internalType": "address",
          "name": "sender",
          "type": "address"
        }
      ],
      "name": "RoleRevoked",
      "type": "event"
    },
    {
      "anonymous": false,
      "inputs": [
        {
          "indexed": true,
          "internalType": "address",
          "name": "operator",
          "type": "address"
        },
        {
          "indexed": true,
          "internalType": "address",
          "name": "from",
          "type": "address"
        },
        {
          "indexed": true,
          "internalType": "address",
          "name": "to",
          "type": "address"
        },
        {
          "indexed": false,
          "internalType": "uint256[]",
          "name": "ids",
          "type": "uint256[]"
        },
        {
          "indexed": false,
          "internalType": "uint256[]",
          "name": "values",
          "type": "uint256[]"
        }
      ],
      "name": "TransferBatch",
      "type": "event"
    },
    {
      "anonymous": false,
      "inputs": [
        {
          "indexed": true,
          "internalType": "address",
          "name": "operator",
          "type": "address"
        },
        {
          "indexed": true,
          "internalType": "address",
          "name": "from",
          "type": "address"
        },
        {
          "indexed": true,
          "internalType": "address",
          "name": "to",
          "type": "address"
        },
        {
          "indexed": false,
          "internalType": "uint256",
          "name": "id",
          "type": "uint256"
        },
        {
          "indexed": false,
          "internalType": "uint256",
          "name": "value",
          "type": "uint256"
        }
      ],
      "name": "TransferSingle",
      "type": "event"
    },
    {
      "anonymous": false,
      "inputs": [
        {
          "indexed": false,
          "internalType": "string",
          "name": "value",
          "type": "string"
        },
        {
          "indexed": true,
          "internalType": "uint256",
          "name": "id",
          "type": "uint256"
        }
      ],
      "name": "URI",
      "type": "event"
    },
    {
      "anonymous": false,
      "inputs": [
        {
          "indexed": false,
          "internalType": "address",
          "name": "account",
          "type": "address"
        }
      ],
      "name": "Unpaused",
      "type": "event"
    },
    {
      "inputs": [],
      "name": "DEFAULT_ADMIN_ROLE",
      "outputs": [
        {
          "internalType": "bytes32",
          "name": "",
          "type": "bytes32"
        }
      ],
      "stateMutability": "view",
      "type": "function",
      "constant": true
    },
    {
      "inputs": [
        {
          "internalType": "address",
          "name": "account",
          "type": "address"
        },
        {
          "internalType": "uint256",
          "name": "id",
          "type": "uint256"
        }
      ],
      "name": "balanceOf",
      "outputs": [
        {
          "internalType": "uint256",
          "name": "",
          "type": "uint256"
        }
      ],
      "stateMutability": "view",
      "type": "function",
      "constant": true
    },
    {
      "inputs": [
        {
          "internalType": "address[]",
          "name": "accounts",
          "type": "address[]"
        },
        {
          "internalType": "uint256[]",
          "name": "ids",
          "type": "uint256[]"
        }
      ],
      "name": "balanceOfBatch",
      "outputs": [
        {
          "internalType": "uint256[]",
          "name": "",
          "type": "uint256[]"
        }
      ],
      "stateMutability": "view",
      "type": "function",
      "constant": true
    },
    {
      "inputs": [
        {
          "internalType": "address",
          "name": "account",
          "type": "address"
        },
        {
          "internalType": "uint256",
          "name": "id",
          "type": "uint256"
        },
        {
          "internalType": "uint256",
          "name": "value",
          "type": "uint256"
        }
      ],
      "name": "burn",
      "outputs": [],
      "stateMutability": "nonpayable",
      "type": "function"
    },
    {
      "inputs": [
        {
          "internalType": "address",
          "name": "account",
          "type": "address"
        },
        {
          "internalType": "uint256[]",
          "name": "ids",
          "type": "uint256[]"
        },
        {
          "internalType": "uint256[]",
          "name": "values",
          "type": "uint256[]"
        }
      ],
      "name": "burnBatch",
      "outputs": [],
      "stateMutability": "nonpayable",
      "type": "function"
    },
    {
      "inputs": [],
      "name": "currentId",
      "outputs": [
        {
          "internalType": "uint256",
          "name": "",
          "type": "uint256"
        }
      ],
      "stateMutability": "view",
      "type": "function",
      "constant": true
    },
    {
      "inputs": [
        {
          "internalType": "uint256",
          "name": "id",
          "type": "uint256"
        }
      ],
      "name": "exists",
      "outputs": [
        {
          "internalType": "bool",
          "name": "",
          "type": "bool"
        }
      ],
      "stateMutability": "view",
      "type": "function",
      "constant": true
    },
    {
      "inputs": [
        {
          "internalType": "bytes32",
          "name": "role",
          "type": "bytes32"
        }
      ],
      "name": "getRoleAdmin",
      "outputs": [
        {
          "internalType": "bytes32",
          "name": "",
          "type": "bytes32"
        }
      ],
      "stateMutability": "view",
      "type": "function",
      "constant": true
    },
    {
      "inputs": [
        {
          "internalType": "bytes32",
          "name": "role",
          "type": "bytes32"
        },
        {
          "internalType": "address",
          "name": "account",
          "type": "address"
        }
      ],
      "name": "grantRole",
      "outputs": [],
      "stateMutability": "nonpayable",
      "type": "function"
    },
    {
      "inputs": [
        {
          "internalType": "bytes32",
          "name": "role",
          "type": "bytes32"
        },
        {
          "internalType": "address",
          "name": "account",
          "type": "address"
        }
      ],
      "name": "hasRole",
      "outputs": [
        {
          "internalType": "bool",
          "name": "",
          "type": "bool"
        }
      ],
      "stateMutability": "view",
      "type": "function",
      "constant": true
    },
    {
      "inputs": [
        {
          "internalType": "uint256",
          "name": "",
          "type": "uint256"
        }
      ],
      "name": "idToPublisher",
      "outputs": [
        {
          "internalType": "bytes32",
          "name": "",
          "type": "bytes32"
        }
      ],
      "stateMutability": "view",
      "type": "function",
      "constant": true
    },
    {
      "inputs": [
        {
          "internalType": "address",
          "name": "account",
          "type": "address"
        },
        {
          "internalType": "address",
          "name": "operator",
          "type": "address"
        }
      ],
      "name": "isApprovedForAll",
      "outputs": [
        {
          "internalType": "bool",
          "name": "",
          "type": "bool"
        }
      ],
      "stateMutability": "view",
      "type": "function",
      "constant": true
    },
    {
      "inputs": [],
      "name": "paused",
      "outputs": [
        {
          "internalType": "bool",
          "name": "",
          "type": "bool"
        }
      ],
      "stateMutability": "view",
      "type": "function",
      "constant": true
    },
    {
      "inputs": [
        {
          "internalType": "string",
          "name": "",
          "type": "string"
        }
      ],
      "name": "publisherHasMember",
      "outputs": [
        {
          "internalType": "bool",
          "name": "",
          "type": "bool"
        }
      ],
      "stateMutability": "view",
      "type": "function",
      "constant": true
    },
    {
      "inputs": [
        {
          "internalType": "bytes32",
          "name": "role",
          "type": "bytes32"
        },
        {
          "internalType": "address",
          "name": "account",
          "type": "address"
        }
      ],
      "name": "renounceRole",
      "outputs": [],
      "stateMutability": "nonpayable",
      "type": "function"
    },
    {
      "inputs": [
        {
          "internalType": "bytes32",
          "name": "role",
          "type": "bytes32"
        },
        {
          "internalType": "address",
          "name": "account",
          "type": "address"
        }
      ],
      "name": "revokeRole",
      "outputs": [],
      "stateMutability": "nonpayable",
      "type": "function"
    },
    {
      "inputs": [
        {
          "internalType": "address",
          "name": "from",
          "type": "address"
        },
        {
          "internalType": "address",
          "name": "to",
          "type": "address"
        },
        {
          "internalType": "uint256[]",
          "name": "ids",
          "type": "uint256[]"
        },
        {
          "internalType": "uint256[]",
          "name": "amounts",
          "type": "uint256[]"
        },
        {
          "internalType": "bytes",
          "name": "data",
          "type": "bytes"
        }
      ],
      "name": "safeBatchTransferFrom",
      "outputs": [],
      "stateMutability": "nonpayable",
      "type": "function"
    },
    {
      "inputs": [
        {
          "internalType": "address",
          "name": "from",
          "type": "address"
        },
        {
          "internalType": "address",
          "name": "to",
          "type": "address"
        },
        {
          "internalType": "uint256",
          "name": "id",
          "type": "uint256"
        },
        {
          "internalType": "uint256",
          "name": "amount",
          "type": "uint256"
        },
        {
          "internalType": "bytes",
          "name": "data",
          "type": "bytes"
        }
      ],
      "name": "safeTransferFrom",
      "outputs": [],
      "stateMutability": "nonpayable",
      "type": "function"
    },
    {
      "inputs": [
        {
          "internalType": "address",
          "name": "operator",
          "type": "address"
        },
        {
          "internalType": "bool",
          "name": "approved",
          "type": "bool"
        }
      ],
      "name": "setApprovalForAll",
      "outputs": [],
      "stateMutability": "nonpayable",
      "type": "function"
    },
    {
      "inputs": [
        {
          "internalType": "uint256",
          "name": "id",
          "type": "uint256"
        }
      ],
      "name": "totalSupply",
      "outputs": [
        {
          "internalType": "uint256",
          "name": "",
          "type": "uint256"
        }
      ],
      "stateMutability": "view",
      "type": "function",
      "constant": true
    },
    {
      "inputs": [
        {
          "internalType": "uint256",
          "name": "",
          "type": "uint256"
        }
      ],
      "name": "uri",
      "outputs": [
        {
          "internalType": "string",
          "name": "",
          "type": "string"
        }
      ],
      "stateMutability": "view",
      "type": "function",
      "constant": true
    },
    {
      "inputs": [],
      "name": "initialize",
      "outputs": [],
      "stateMutability": "nonpayable",
      "type": "function"
    },
    {
      "inputs": [
        {
          "internalType": "string",
          "name": "newuri",
          "type": "string"
        }
      ],
      "name": "setURI",
      "outputs": [],
      "stateMutability": "nonpayable",
      "type": "function"
    },
    {
      "inputs": [
        {
          "internalType": "string",
          "name": "publisher",
          "type": "string"
        },
        {
          "internalType": "address",
          "name": "account",
          "type": "address"
        }
      ],
      "name": "grantPublisher",
      "outputs": [],
      "stateMutability": "nonpayable",
      "type": "function"
    },
    {
      "inputs": [
        {
          "internalType": "uint256",
          "name": "id",
          "type": "uint256"
        },
        {
          "internalType": "string",
          "name": "publisher",
          "type": "string"
        }
      ],
      "name": "setIdToPublisher",
      "outputs": [],
      "stateMutability": "nonpayable",
      "type": "function"
    },
    {
      "inputs": [
        {
          "internalType": "string",
          "name": "publisher",
          "type": "string"
        },
        {
          "internalType": "address",
          "name": "account",
          "type": "address"
        }
      ],
      "name": "revokePublisher",
      "outputs": [],
      "stateMutability": "nonpayable",
      "type": "function"
    },
    {
      "inputs": [],
      "name": "pause",
      "outputs": [],
      "stateMutability": "nonpayable",
      "type": "function"
    },
    {
      "inputs": [],
      "name": "unpause",
      "outputs": [],
      "stateMutability": "nonpayable",
      "type": "function"
    },
    {
      "inputs": [
        {
          "internalType": "address",
          "name": "account",
          "type": "address"
        },
        {
          "internalType": "uint256",
          "name": "id",
          "type": "uint256"
        },
        {
          "internalType": "uint256",
          "name": "amount",
          "type": "uint256"
        },
        {
          "internalType": "bytes",
          "name": "data",
          "type": "bytes"
        }
      ],
      "name": "mint",
      "outputs": [],
      "stateMutability": "nonpayable",
      "type": "function"
    },
    {
      "inputs": [
        {
          "internalType": "address",
          "name": "to",
          "type": "address"
        },
        {
          "internalType": "uint256[]",
          "name": "ids",
          "type": "uint256[]"
        },
        {
          "internalType": "uint256[]",
          "name": "amounts",
          "type": "uint256[]"
        },
        {
          "internalType": "bytes",
          "name": "data",
          "type": "bytes"
        }
      ],
      "name": "mintBatch",
      "outputs": [],
      "stateMutability": "nonpayable",
      "type": "function"
    },
    {
      "inputs": [
        {
          "internalType": "bytes4",
          "name": "interfaceId",
          "type": "bytes4"
        }
      ],
      "name": "supportsInterface",
      "outputs": [
        {
          "internalType": "bool",
          "name": "",
          "type": "bool"
        }
      ],
      "stateMutability": "view",
      "type": "function",
      "constant": true
    }
  ],
  "bytecode": "0x60806040523480156200001157600080fd5b506200001c62000022565b620000e3565b600054610100900460ff16156200008f5760405162461bcd60e51b815260206004820152602760248201527f496e697469616c697a61626c653a20636f6e747261637420697320696e697469604482015266616c697a696e6760c81b606482015260840160405180910390fd5b60005460ff90811614620000e1576000805460ff191660ff9081179091556040519081527f7f26b83ff96e1f2b6a682f133852f6798a09c465da95921460cefb38474024989060200160405180910390a15b565b612db980620000f36000396000f3fe608060405234801561001057600080fd5b50600436106101e45760003560e01c80635c975abb1161010f578063a22cb465116100a2578063e00dd16111610071578063e00dd1611461044d578063e985e9c514610457578063f242432a14610493578063f5298aca146104a657600080fd5b8063a22cb465146103d7578063bd85b039146103ea578063d547741f1461040b578063dc84996e1461041e57600080fd5b80638129fc1c116100de5780638129fc1c146103ac5780638456cb59146103b457806391d14854146103bc578063a217fddf146103cf57600080fd5b80635c975abb1461035a57806368aae9ab146103655780636b20c45414610386578063731133e91461039957600080fd5b8063248a9ca3116101875780633f4ba83a116101565780633f4ba83a146102fc5780634e1273f4146103045780634f558e791461032457806352509e971461034757600080fd5b8063248a9ca3146102a05780632eb2c2d6146102c35780632f2ff15d146102d657806336568abe146102e957600080fd5b806302fe5305116101c357806302fe5305146102475780630e89341c1461025a5780631286c46d1461027a5780631f7fdffa1461028d57600080fd5b8062fdd58e146101e957806301ad63bd1461020f57806301ffc9a714610224575b600080fd5b6101fc6101f7366004611ff3565b6104b9565b6040519081526020015b60405180910390f35b61022261021d3660046120d2565b610554565b005b61023761023236600461212e565b610630565b6040519015158152602001610206565b61022261025536600461214b565b61063b565b61026d610268366004612187565b610653565b60405161020691906121f0565b610222610288366004612203565b6106e7565b61022261029b3660046122e4565b610721565b6101fc6102ae366004612187565b60009081526097602052604090206001015490565b6102226102d136600461237c565b610788565b6102226102e4366004612425565b6107cd565b6102226102f7366004612425565b6107f2565b61022261086c565b610317610312366004612448565b610882565b6040516102069190612543565b610237610332366004612187565b600090815261012d6020526040902054151590565b610222610355366004612203565b6109ab565b60c95460ff16610237565b6101fc610373366004612187565b61015f6020526000908152604090205481565b610222610394366004612556565b610a45565b6102226103a73660046125c9565b610a88565b610222610aff565b610222610c4a565b6102376103ca366004612425565b610c5d565b6101fc600081565b6102226103e536600461261d565b610c88565b6101fc6103f8366004612187565b600090815261012d602052604090205490565b610222610419366004612425565b610c93565b61023761042c36600461214b565b80516020818301810180516101608252928201919093012091525460ff1681565b6101fc6101615481565b610237610465366004612659565b6001600160a01b03918216600090815260666020908152604080832093909416825291909152205460ff1690565b6102226104a1366004612683565b610cb8565b6102226104b43660046126e7565b610cfd565b60006001600160a01b0383166105295760405162461bcd60e51b815260206004820152602a60248201527f455243313135353a2061646472657373207a65726f206973206e6f742061207660448201526930b634b21037bbb732b960b11b60648201526084015b60405180910390fd5b5060008181526065602090815260408083206001600160a01b03861684529091529020545b92915050565b600082815261015f602052604090205461056d81610d40565b610161548311156105cc5760405162461bcd60e51b815260206004820152602360248201527f526571756573742069642067726561746572207468616e2063757272656e742060448201526234b21760e91b6064820152608401610520565b6000826040516020016105df91906121f0565b60405160208183030381529060405280519060200120905061016154840361061857610161805490600061061283612730565b91905055505b600093845261015f6020526040909320929092555050565b600061054e82610d4a565b600061064681610d40565b61064f82610d6f565b5050565b60606067805461066290612749565b80601f016020809104026020016040519081016040528092919081815260200182805461068e90612749565b80156106db5780601f106106b0576101008083540402835291602001916106db565b820191906000526020600020905b8154815290600101906020018083116106be57829003601f168201915b50505050509050919050565b6000826040516020016106fa91906121f0565b60405160208183030381529060405280519060200120905061071c8183610c93565b505050565b8260005b81518110156107745761076461015f600084848151811061074857610748612783565b6020026020010151815260200190815260200160002054610d40565b61076d81612730565b9050610725565b5061078185858585610d7b565b5050505050565b6001600160a01b0385163314806107a457506107a48533610465565b6107c05760405162461bcd60e51b815260040161052090612799565b6107818585858585610ed6565b6000828152609760205260409020600101546107e881610d40565b61071c8383611083565b6001600160a01b03811633146108625760405162461bcd60e51b815260206004820152602f60248201527f416363657373436f6e74726f6c3a2063616e206f6e6c792072656e6f756e636560448201526e103937b632b9903337b91039b2b63360891b6064820152608401610520565b61064f8282611109565b600061087781610d40565b61087f611170565b50565b606081518351146108e75760405162461bcd60e51b815260206004820152602960248201527f455243313135353a206163636f756e747320616e6420696473206c656e677468604482015268040dad2e6dac2e8c6d60bb1b6064820152608401610520565b600083516001600160401b038111156109025761090261201d565b60405190808252806020026020018201604052801561092b578160200160208202803683370190505b50905060005b84518110156109a35761097685828151811061094f5761094f612783565b602002602001015185838151811061096957610969612783565b60200260200101516104b9565b82828151811061098857610988612783565b602090810291909101015261099c81612730565b9050610931565b509392505050565b6000826040516020016109be91906121f0565b6040516020818303038152906040528051906020012090506109e081836107cd565b610160836040516109f191906127e7565b9081526040519081900360200190205460ff1661071c57600161016084604051610a1b91906127e7565b908152604051908190036020019020805491151560ff1990921691909117905561071c81806111c2565b6001600160a01b038316331480610a615750610a618333610465565b610a7d5760405162461bcd60e51b815260040161052090612799565b61071c83838361120d565b600083815261015f6020526040902054610aa181610d40565b610161548410610af35760405162461bcd60e51b815260206004820152601b60248201527f52657175657374656420696420646f65736e27742065786973742e00000000006044820152606401610520565b610781858585856113ad565b600054610100900460ff1615808015610b1f5750600054600160ff909116105b80610b395750303b158015610b39575060005460ff166001145b610b9c5760405162461bcd60e51b815260206004820152602e60248201527f496e697469616c697a61626c653a20636f6e747261637420697320616c72656160448201526d191e481a5b9a5d1a585b1a5e995960921b6064820152608401610520565b6000805460ff191660011790558015610bbf576000805461ff0019166101001790555b610bd760405180602001604052806000815250611498565b610bdf6114c8565b610be76114f1565b610bef6114c8565b610bf76114c8565b610c02600033611083565b801561087f576000805461ff0019169055604051600181527f7f26b83ff96e1f2b6a682f133852f6798a09c465da95921460cefb38474024989060200160405180910390a150565b6000610c5581610d40565b61087f611520565b60009182526097602090815260408084206001600160a01b0393909316845291905290205460ff1690565b61064f33838361155d565b600082815260976020526040902060010154610cae81610d40565b61071c8383611109565b6001600160a01b038516331480610cd45750610cd48533610465565b610cf05760405162461bcd60e51b815260040161052090612799565b610781858585858561163d565b6001600160a01b038316331480610d195750610d198333610465565b610d355760405162461bcd60e51b815260040161052090612799565b61071c838383611779565b61087f8133611895565b60006001600160e01b03198216637965db0b60e01b148061054e575061054e826118ee565b606761064f8282612849565b6001600160a01b038416610da15760405162461bcd60e51b815260040161052090612908565b8151835114610dc25760405162461bcd60e51b815260040161052090612949565b33610dd28160008787878761193e565b60005b8451811015610e6e57838181518110610df057610df0612783565b602002602001015160656000878481518110610e0e57610e0e612783565b602002602001015181526020019081526020016000206000886001600160a01b03166001600160a01b031681526020019081526020016000206000828254610e569190612991565b90915550819050610e6681612730565b915050610dd5565b50846001600160a01b031660006001600160a01b0316826001600160a01b03167f4a39dc06d4c0dbc64b70af90fd698a233a518aa5d07e595d983b8c0526c8f7fb8787604051610ebf9291906129a4565b60405180910390a461078181600087878787611954565b8151835114610ef75760405162461bcd60e51b815260040161052090612949565b6001600160a01b038416610f1d5760405162461bcd60e51b8152600401610520906129d2565b33610f2c81878787878761193e565b60005b8451811015611015576000858281518110610f4c57610f4c612783565b602002602001015190506000858381518110610f6a57610f6a612783565b60209081029190910181015160008481526065835260408082206001600160a01b038e168352909352919091205490915081811015610fbb5760405162461bcd60e51b815260040161052090612a17565b60008381526065602090815260408083206001600160a01b038e8116855292528083208585039055908b16825281208054849290610ffa908490612991565b925050819055505050508061100e90612730565b9050610f2f565b50846001600160a01b0316866001600160a01b0316826001600160a01b03167f4a39dc06d4c0dbc64b70af90fd698a233a518aa5d07e595d983b8c0526c8f7fb87876040516110659291906129a4565b60405180910390a461107b818787878787611954565b505050505050565b61108d8282610c5d565b61064f5760008281526097602090815260408083206001600160a01b03851684529091529020805460ff191660011790556110c53390565b6001600160a01b0316816001600160a01b0316837f2f8788117e7eff1d82e926ec794901d17c78024a50270940304540a733656f0d60405160405180910390a45050565b6111138282610c5d565b1561064f5760008281526097602090815260408083206001600160a01b0385168085529252808320805460ff1916905551339285917ff6391f5c32d9c69d2a47ea670b442974b53935d1edc7fd64eb21e047a839171b9190a45050565b611178611aaf565b60c9805460ff191690557f5db9ee0a495bf2e6ff9c91a7834c1ba4fdd244a5e8aa4e537bd38aeae4b073aa335b6040516001600160a01b03909116815260200160405180910390a1565b600082815260976020526040808220600101805490849055905190918391839186917fbd79b86ffe0ab8e8776151514217cd7cacd52c909f66475c3af44e129f0b00ff9190a4505050565b6001600160a01b0383166112335760405162461bcd60e51b815260040161052090612a61565b80518251146112545760405162461bcd60e51b815260040161052090612949565b60003390506112778185600086866040518060200160405280600081525061193e565b60005b835181101561133f57600084828151811061129757611297612783565b6020026020010151905060008483815181106112b5576112b5612783565b60209081029190910181015160008481526065835260408082206001600160a01b038c1683529093529190912054909150818110156113065760405162461bcd60e51b815260040161052090612aa4565b60009283526065602090815260408085206001600160a01b038b168652909152909220910390558061133781612730565b91505061127a565b5060006001600160a01b0316846001600160a01b0316826001600160a01b03167f4a39dc06d4c0dbc64b70af90fd698a233a518aa5d07e595d983b8c0526c8f7fb86866040516113909291906129a4565b60405180910390a460408051602081019091526000905250505050565b6001600160a01b0384166113d35760405162461bcd60e51b815260040161052090612908565b3360006113df85611af8565b905060006113ec85611af8565b90506113fd8360008985858961193e565b60008681526065602090815260408083206001600160a01b038b1684529091528120805487929061142f908490612991565b909155505060408051878152602081018790526001600160a01b03808a1692600092918716917fc3d58168c5ae7397731d063d5bbf3d657854427343f4c083240f7aacaa2d0f62910160405180910390a461148f83600089898989611b43565b50505050505050565b600054610100900460ff166114bf5760405162461bcd60e51b815260040161052090612ae8565b61087f81611bfe565b600054610100900460ff166114ef5760405162461bcd60e51b815260040161052090612ae8565b565b600054610100900460ff166115185760405162461bcd60e51b815260040161052090612ae8565b6114ef611c2e565b611528611c61565b60c9805460ff191660011790557f62e78cea01bee320cd4e420270b5ea74000d11b0c9f74754ebdbfc544b05a2586111a53390565b816001600160a01b0316836001600160a01b0316036115d05760405162461bcd60e51b815260206004820152602960248201527f455243313135353a2073657474696e6720617070726f76616c20737461747573604482015268103337b91039b2b63360b91b6064820152608401610520565b6001600160a01b03838116600081815260666020908152604080832094871680845294825291829020805460ff191686151590811790915591519182527f17307eab39ab6107e8899845ad3d59bd9653f200f220920489ca2b5937696c31910160405180910390a3505050565b6001600160a01b0384166116635760405162461bcd60e51b8152600401610520906129d2565b33600061166f85611af8565b9050600061167c85611af8565b905061168c83898985858961193e565b60008681526065602090815260408083206001600160a01b038c168452909152902054858110156116cf5760405162461bcd60e51b815260040161052090612a17565b60008781526065602090815260408083206001600160a01b038d8116855292528083208985039055908a1682528120805488929061170e908490612991565b909155505060408051888152602081018890526001600160a01b03808b16928c821692918816917fc3d58168c5ae7397731d063d5bbf3d657854427343f4c083240f7aacaa2d0f62910160405180910390a461176e848a8a8a8a8a611b43565b505050505050505050565b6001600160a01b03831661179f5760405162461bcd60e51b815260040161052090612a61565b3360006117ab84611af8565b905060006117b884611af8565b90506117d88387600085856040518060200160405280600081525061193e565b60008581526065602090815260408083206001600160a01b038a1684529091529020548481101561181b5760405162461bcd60e51b815260040161052090612aa4565b60008681526065602090815260408083206001600160a01b038b81168086529184528285208a8703905582518b81529384018a90529092908816917fc3d58168c5ae7397731d063d5bbf3d657854427343f4c083240f7aacaa2d0f62910160405180910390a460408051602081019091526000905261148f565b61189f8282610c5d565b61064f576118ac81611ca7565b6118b7836020611cb9565b6040516020016118c8929190612b33565b60408051601f198184030181529082905262461bcd60e51b8252610520916004016121f0565b60006001600160e01b03198216636cdb3d1360e11b148061191f57506001600160e01b031982166303a24d0760e21b145b8061054e57506301ffc9a760e01b6001600160e01b031983161461054e565b611946611c61565b61107b868686868686611e5b565b6001600160a01b0384163b1561107b5760405163bc197c8160e01b81526001600160a01b0385169063bc197c81906119989089908990889088908890600401612ba8565b6020604051808303816000875af19250505080156119d3575060408051601f3d908101601f191682019092526119d091810190612c06565b60015b611a7f576119df612c23565b806308c379a003611a1857506119f3612c3f565b806119fe5750611a1a565b8060405162461bcd60e51b815260040161052091906121f0565b505b60405162461bcd60e51b815260206004820152603460248201527f455243313135353a207472616e7366657220746f206e6f6e2d455243313135356044820152732932b1b2b4bb32b91034b6b83632b6b2b73a32b960611b6064820152608401610520565b6001600160e01b0319811663bc197c8160e01b1461148f5760405162461bcd60e51b815260040161052090612cc8565b60c95460ff166114ef5760405162461bcd60e51b815260206004820152601460248201527314185d5cd8589b194e881b9bdd081c185d5cd95960621b6044820152606401610520565b60408051600180825281830190925260609160009190602080830190803683370190505090508281600081518110611b3257611b32612783565b602090810291909101015292915050565b6001600160a01b0384163b1561107b5760405163f23a6e6160e01b81526001600160a01b0385169063f23a6e6190611b879089908990889088908890600401612d10565b6020604051808303816000875af1925050508015611bc2575060408051601f3d908101601f19168201909252611bbf91810190612c06565b60015b611bce576119df612c23565b6001600160e01b0319811663f23a6e6160e01b1461148f5760405162461bcd60e51b815260040161052090612cc8565b600054610100900460ff16611c255760405162461bcd60e51b815260040161052090612ae8565b61087f81610d6f565b600054610100900460ff16611c555760405162461bcd60e51b815260040161052090612ae8565b60c9805460ff19169055565b60c95460ff16156114ef5760405162461bcd60e51b815260206004820152601060248201526f14185d5cd8589b194e881c185d5cd95960821b6044820152606401610520565b606061054e6001600160a01b03831660145b60606000611cc8836002612d55565b611cd3906002612991565b6001600160401b03811115611cea57611cea61201d565b6040519080825280601f01601f191660200182016040528015611d14576020820181803683370190505b509050600360fc1b81600081518110611d2f57611d2f612783565b60200101906001600160f81b031916908160001a905350600f60fb1b81600181518110611d5e57611d5e612783565b60200101906001600160f81b031916908160001a9053506000611d82846002612d55565b611d8d906001612991565b90505b6001811115611e05576f181899199a1a9b1b9c1cb0b131b232b360811b85600f1660108110611dc157611dc1612783565b1a60f81b828281518110611dd757611dd7612783565b60200101906001600160f81b031916908160001a90535060049490941c93611dfe81612d6c565b9050611d90565b508315611e545760405162461bcd60e51b815260206004820181905260248201527f537472696e67733a20686578206c656e67746820696e73756666696369656e746044820152606401610520565b9392505050565b6001600160a01b038516611ee35760005b8351811015611ee157828181518110611e8757611e87612783565b602002602001015161012d6000868481518110611ea657611ea6612783565b602002602001015181526020019081526020016000206000828254611ecb9190612991565b90915550611eda905081612730565b9050611e6c565b505b6001600160a01b03841661107b5760005b835181101561148f576000848281518110611f1157611f11612783565b602002602001015190506000848381518110611f2f57611f2f612783565b60200260200101519050600061012d600084815260200190815260200160002054905081811015611fb35760405162461bcd60e51b815260206004820152602860248201527f455243313135353a206275726e20616d6f756e74206578636565647320746f74604482015267616c537570706c7960c01b6064820152608401610520565b600092835261012d602052604090922091039055611fd081612730565b9050611ef4565b80356001600160a01b0381168114611fee57600080fd5b919050565b6000806040838503121561200657600080fd5b61200f83611fd7565b946020939093013593505050565b634e487b7160e01b600052604160045260246000fd5b601f8201601f191681016001600160401b03811182821017156120585761205861201d565b6040525050565b600082601f83011261207057600080fd5b81356001600160401b038111156120895761208961201d565b6040516120a0601f8301601f191660200182612033565b8181528460208386010111156120b557600080fd5b816020850160208301376000918101602001919091529392505050565b600080604083850312156120e557600080fd5b8235915060208301356001600160401b0381111561210257600080fd5b61210e8582860161205f565b9150509250929050565b6001600160e01b03198116811461087f57600080fd5b60006020828403121561214057600080fd5b8135611e5481612118565b60006020828403121561215d57600080fd5b81356001600160401b0381111561217357600080fd5b61217f8482850161205f565b949350505050565b60006020828403121561219957600080fd5b5035919050565b60005b838110156121bb5781810151838201526020016121a3565b50506000910152565b600081518084526121dc8160208601602086016121a0565b601f01601f19169290920160200192915050565b602081526000611e5460208301846121c4565b6000806040838503121561221657600080fd5b82356001600160401b0381111561222c57600080fd5b6122388582860161205f565b92505061224760208401611fd7565b90509250929050565b60006001600160401b038211156122695761226961201d565b5060051b60200190565b600082601f83011261228457600080fd5b8135602061229182612250565b60405161229e8282612033565b83815260059390931b85018201928281019150868411156122be57600080fd5b8286015b848110156122d957803583529183019183016122c2565b509695505050505050565b600080600080608085870312156122fa57600080fd5b61230385611fd7565b935060208501356001600160401b038082111561231f57600080fd5b61232b88838901612273565b9450604087013591508082111561234157600080fd5b61234d88838901612273565b9350606087013591508082111561236357600080fd5b506123708782880161205f565b91505092959194509250565b600080600080600060a0868803121561239457600080fd5b61239d86611fd7565b94506123ab60208701611fd7565b935060408601356001600160401b03808211156123c757600080fd5b6123d389838a01612273565b945060608801359150808211156123e957600080fd5b6123f589838a01612273565b9350608088013591508082111561240b57600080fd5b506124188882890161205f565b9150509295509295909350565b6000806040838503121561243857600080fd5b8235915061224760208401611fd7565b6000806040838503121561245b57600080fd5b82356001600160401b038082111561247257600080fd5b818501915085601f83011261248657600080fd5b8135602061249382612250565b6040516124a08282612033565b83815260059390931b85018201928281019150898411156124c057600080fd5b948201945b838610156124e5576124d686611fd7565b825294820194908201906124c5565b965050860135925050808211156124fb57600080fd5b5061210e85828601612273565b600081518084526020808501945080840160005b838110156125385781518752958201959082019060010161251c565b509495945050505050565b602081526000611e546020830184612508565b60008060006060848603121561256b57600080fd5b61257484611fd7565b925060208401356001600160401b038082111561259057600080fd5b61259c87838801612273565b935060408601359150808211156125b257600080fd5b506125bf86828701612273565b9150509250925092565b600080600080608085870312156125df57600080fd5b6125e885611fd7565b9350602085013592506040850135915060608501356001600160401b0381111561261157600080fd5b6123708782880161205f565b6000806040838503121561263057600080fd5b61263983611fd7565b91506020830135801515811461264e57600080fd5b809150509250929050565b6000806040838503121561266c57600080fd5b61267583611fd7565b915061224760208401611fd7565b600080600080600060a0868803121561269b57600080fd5b6126a486611fd7565b94506126b260208701611fd7565b9350604086013592506060860135915060808601356001600160401b038111156126db57600080fd5b6124188882890161205f565b6000806000606084860312156126fc57600080fd5b61270584611fd7565b95602085013595506040909401359392505050565b634e487b7160e01b600052601160045260246000fd5b6000600182016127425761274261271a565b5060010190565b600181811c9082168061275d57607f821691505b60208210810361277d57634e487b7160e01b600052602260045260246000fd5b50919050565b634e487b7160e01b600052603260045260246000fd5b6020808252602e908201527f455243313135353a2063616c6c6572206973206e6f7420746f6b656e206f776e60408201526d195c881bdc88185c1c1c9bdd995960921b606082015260800190565b600082516127f98184602087016121a0565b9190910192915050565b601f82111561071c57600081815260208120601f850160051c8101602086101561282a5750805b601f850160051c820191505b8181101561107b57828155600101612836565b81516001600160401b038111156128625761286261201d565b612876816128708454612749565b84612803565b602080601f8311600181146128ab57600084156128935750858301515b600019600386901b1c1916600185901b17855561107b565b600085815260208120601f198616915b828110156128da578886015182559484019460019091019084016128bb565b50858210156128f85787850151600019600388901b60f8161c191681555b5050505050600190811b01905550565b60208082526021908201527f455243313135353a206d696e7420746f20746865207a65726f206164647265736040820152607360f81b606082015260800190565b60208082526028908201527f455243313135353a2069647320616e6420616d6f756e7473206c656e677468206040820152670dad2e6dac2e8c6d60c31b606082015260800190565b8082018082111561054e5761054e61271a565b6040815260006129b76040830185612508565b82810360208401526129c98185612508565b95945050505050565b60208082526025908201527f455243313135353a207472616e7366657220746f20746865207a65726f206164604082015264647265737360d81b606082015260800190565b6020808252602a908201527f455243313135353a20696e73756666696369656e742062616c616e636520666f60408201526939103a3930b739b332b960b11b606082015260800190565b60208082526023908201527f455243313135353a206275726e2066726f6d20746865207a65726f206164647260408201526265737360e81b606082015260800190565b60208082526024908201527f455243313135353a206275726e20616d6f756e7420657863656564732062616c604082015263616e636560e01b606082015260800190565b6020808252602b908201527f496e697469616c697a61626c653a20636f6e7472616374206973206e6f74206960408201526a6e697469616c697a696e6760a81b606082015260800190565b7f416363657373436f6e74726f6c3a206163636f756e7420000000000000000000815260008351612b6b8160178501602088016121a0565b7001034b99036b4b9b9b4b733903937b6329607d1b6017918401918201528351612b9c8160288401602088016121a0565b01602801949350505050565b6001600160a01b0386811682528516602082015260a060408201819052600090612bd490830186612508565b8281036060840152612be68186612508565b90508281036080840152612bfa81856121c4565b98975050505050505050565b600060208284031215612c1857600080fd5b8151611e5481612118565b600060033d1115612c3c5760046000803e5060005160e01c5b90565b600060443d1015612c4d5790565b6040516003193d81016004833e81513d6001600160401b038160248401118184111715612c7c57505050505090565b8285019150815181811115612c945750505050505090565b843d8701016020828501011115612cae5750505050505090565b612cbd60208286010187612033565b509095945050505050565b60208082526028908201527f455243313135353a204552433131353552656365697665722072656a656374656040820152676420746f6b656e7360c01b606082015260800190565b6001600160a01b03868116825285166020820152604081018490526060810183905260a060808201819052600090612d4a908301846121c4565b979650505050505050565b808202811582820484141761054e5761054e61271a565b600081612d7b57612d7b61271a565b50600019019056fea26469706673582212207aa2b12b391c911165463a3fd77781793deb2651cd800ddc0b6b963bbba779fb64736f6c63430008130033",
  "immutableReferences": {},
  "source": "// SPDX-License-Identifier: MIT\r\npragma solidity ^0.8.9;\r\n\r\nimport \"../node_modules/@openzeppelin/contracts-upgradeable/token/ERC1155/ERC1155Upgradeable.sol\";\r\nimport \"../node_modules/@openzeppelin/contracts-upgradeable/access/AccessControlUpgradeable.sol\";\r\nimport \"../node_modules/@openzeppelin/contracts-upgradeable/security/PausableUpgradeable.sol\";\r\nimport \"../node_modules/@openzeppelin/contracts-upgradeable/token/ERC1155/extensions/ERC1155BurnableUpgradeable.sol\";\r\nimport \"../node_modules/@openzeppelin/contracts-upgradeable/token/ERC1155/extensions/ERC1155SupplyUpgradeable.sol\";\r\nimport \"../node_modules/@openzeppelin/contracts-upgradeable/proxy/utils/Initializable.sol\";\r\n\r\n/// @custom:security-contact dodo920306@gmail.com\r\ncontract The_Ohara_Protocol is Initializable, ERC1155Upgradeable, AccessControlUpgradeable, PausableUpgradeable, ERC1155BurnableUpgradeable, ERC1155SupplyUpgradeable {\r\n    mapping (uint256 => bytes32) public idToPublisher; // Anyone can check which publisher an id belongs to.\r\n    mapping (string => bool) public publisherHasMember;\r\n    uint256 public currentId;\r\n\r\n    /// @custom:oz-upgrades-unsafe-allow constructor\r\n    constructor() {\r\n        _disableInitializers();\r\n    }\r\n\r\n    // There's no onlyPublisherSingle, for that it basically equals to onlyRole modifier from AccessControl. \r\n    modifier onlyPublisherBatch(uint256[] memory ids) {\r\n        for (uint256 i = 0; i < ids.length; ++i) {\r\n            _checkRole(idToPublisher[ids[i]]);\r\n        }\r\n        _;\r\n    }\r\n\r\n    function initialize() initializer public {\r\n        __ERC1155_init(\"\");\r\n        __AccessControl_init();\r\n        __Pausable_init();\r\n        __ERC1155Burnable_init();\r\n        __ERC1155Supply_init();\r\n\r\n        _grantRole(DEFAULT_ADMIN_ROLE, msg.sender);\r\n    }\r\n\r\n    function setURI(string memory newuri) public onlyRole(DEFAULT_ADMIN_ROLE) {\r\n        _setURI(newuri);\r\n    }\r\n\r\n    /**\r\n     * @dev The publisher who wants to claim an account belongs to them must use this function\r\n     * with the magic string that represents themselves.\r\n     * \r\n     * The function will uses keccak256 solidity function to hash this string, but before that, it must be represented as bytes32.\r\n     * The type conversion from \"string memory\" to \"bytes32\" isn't allowed, so we uses abi.encode() here.\r\n     * See https://ethereum.stackexchange.com/questions/119583/when-to-use-abi-encode-abi-encodepacked-or-abi-encodewithsignature-in-solidity\r\n     * for the reason of this selection.\r\n     * \r\n     * After that, we use grantRole() function from AccessControl,\r\n     * the reason we don't directly use _grantRole() here is because the onlyRole(getRoleAdmin(role)) should also be passed in this operation,\r\n     * and since grantRole() has that modifier originally, the current function doesn't require any modifier yet,\r\n     * and there's no need to be afraid that anyone hash others' magic string and directly call grantRole() because there's no way he/she can be the admin.\r\n     * \r\n     * If it's the first member to be added in the publisher,\r\n     * the msg.sender must be DEFAULT_ADMIN_ROLE to pass onlyRole(getRoleAdmin(role)) for that there's no way to set admin to others.\r\n     * If so, then the function would call _setRoleAdmin() to release the admin power to the publisher itself,\r\n     * indicating that from this point on, only the publisher can manage which accounts can act on its behalf.\r\n     * \r\n     * The only risk would be that a hacker steal one private key from DEFAULT_ADMIN_ROLE,\r\n     * in that case, the worse he/she can do is grant his/her accounts the publisher role that \"hasn't been registered yet\",\r\n     * for that the admins of the publishers already in the protocol can only be themselves.\r\n     * If so, then the publishers register in the future cannot use the same magic string as the hacker granted himself/herself even if they want.\r\n     * (Basically, it's the same idea as \"This username has already been used. Please try another.\",\r\n     * so the power of DEFAULT_ADMIN_ROLE is basically just register publishers and ids.)\r\n     */\r\n    function grantPublisher(string memory publisher, address account) public virtual {\r\n        bytes32 role = keccak256(abi.encode(publisher));\r\n        grantRole(role, account);\r\n\r\n        if (!publisherHasMember[publisher]){\r\n            publisherHasMember[publisher] = true;\r\n            _setRoleAdmin(role, role);\r\n        }\r\n    }\r\n\r\n    /**\r\n     * @dev See the comment of grantPublisher() above for more info about the string publisher and the bytes32 role.\r\n     * Only the old publisher could set the publisher of an id to a new one.\r\n     * Since the default publisher of the id is 0x00, the first publisher of the id must be set by the DEFAULT_ADMIN_ROLE.\r\n     */\r\n    function setIdToPublisher(uint256 id, string memory publisher)\r\n        public\r\n        onlyRole(idToPublisher[id])\r\n    {\r\n        require(id <= currentId, \"Request id greater than current id.\");\r\n        bytes32 role = keccak256(abi.encode(publisher));\r\n        if(id == currentId) currentId++;\r\n        idToPublisher[id] = role;\r\n    }\r\n\r\n    /**\r\n     * @dev See the comment of grantPublisher() above for more info about the string publisher and the bytes32 role.\r\n     * The reason we don't directly call _revokeRole() and the this function is safe is the same reason grantPublisher() doesn't call _grantRole().\r\n     * Use this function to kick someone including msg.sender himself/herself out of the publisher.\r\n     * The function also can only be called by the publisher itself.\r\n     */\r\n    function revokePublisher(string memory publisher, address account) public virtual {\r\n        bytes32 role = keccak256(abi.encode(publisher));\r\n        revokeRole(role, account);\r\n    }\r\n\r\n\r\n    function pause() public onlyRole(DEFAULT_ADMIN_ROLE) {\r\n        _pause();\r\n    }\r\n\r\n    function unpause() public onlyRole(DEFAULT_ADMIN_ROLE) {\r\n        _unpause();\r\n    }\r\n\r\n    // The publisher of the id would have power to mint the id to whoever they want.\r\n    function mint(address account, uint256 id, uint256 amount, bytes memory data)\r\n        public\r\n        onlyRole(idToPublisher[id])\r\n    {\r\n        require(id < currentId, \"Requested id doesn't exist.\");\r\n        _mint(account, id, amount, data);\r\n    }\r\n\r\n    function mintBatch(address to, uint256[] memory ids, uint256[] memory amounts, bytes memory data)\r\n        public\r\n        onlyPublisherBatch(ids)\r\n    {\r\n        _mintBatch(to, ids, amounts, data);\r\n    }\r\n\r\n    function _beforeTokenTransfer(address operator, address from, address to, uint256[] memory ids, uint256[] memory amounts, bytes memory data)\r\n        internal\r\n        whenNotPaused\r\n        override(ERC1155Upgradeable, ERC1155SupplyUpgradeable)\r\n    {\r\n        super._beforeTokenTransfer(operator, from, to, ids, amounts, data);\r\n    }\r\n\r\n    // The following functions are overrides required by Solidity.\r\n\r\n    function supportsInterface(bytes4 interfaceId)\r\n        public\r\n        view\r\n        override(ERC1155Upgradeable, AccessControlUpgradeable)\r\n        returns (bool)\r\n    {\r\n        return super.supportsInterface(interfaceId);\r\n    }\r\n}",
  "sourcePath": "/home/ubuntu/ohara/contracts/The_Ohara_Protocol.sol",
  "compiler": {
    "name": "solc",
    "version": "0.8.19+commit.7dd6d404.Emscripten.clang"
  },
  "schemaVersion": "3.4.14",
  "updatedAt": "2023-06-27T16:38:08.084Z",
  "networkType": "ethereum",
  "devdoc": {
    "custom:security-contact": "dodo920306@gmail.com",
    "events": {
      "ApprovalForAll(address,address,bool)": {
        "details": "Emitted when `account` grants or revokes permission to `operator` to transfer their tokens, according to `approved`."
      },
      "Initialized(uint8)": {
        "details": "Triggered when the contract has been initialized or reinitialized."
      },
      "Paused(address)": {
        "details": "Emitted when the pause is triggered by `account`."
      },
      "RoleAdminChanged(bytes32,bytes32,bytes32)": {
        "details": "Emitted when `newAdminRole` is set as ``role``'s admin role, replacing `previousAdminRole` `DEFAULT_ADMIN_ROLE` is the starting admin for all roles, despite {RoleAdminChanged} not being emitted signaling this. _Available since v3.1._"
      },
      "RoleGranted(bytes32,address,address)": {
        "details": "Emitted when `account` is granted `role`. `sender` is the account that originated the contract call, an admin role bearer except when using {AccessControl-_setupRole}."
      },
      "RoleRevoked(bytes32,address,address)": {
        "details": "Emitted when `account` is revoked `role`. `sender` is the account that originated the contract call:   - if using `revokeRole`, it is the admin role bearer   - if using `renounceRole`, it is the role bearer (i.e. `account`)"
      },
      "TransferBatch(address,address,address,uint256[],uint256[])": {
        "details": "Equivalent to multiple {TransferSingle} events, where `operator`, `from` and `to` are the same for all transfers."
      },
      "TransferSingle(address,address,address,uint256,uint256)": {
        "details": "Emitted when `value` tokens of token type `id` are transferred from `from` to `to` by `operator`."
      },
      "URI(string,uint256)": {
        "details": "Emitted when the URI for token type `id` changes to `value`, if it is a non-programmatic URI. If an {URI} event was emitted for `id`, the standard https://eips.ethereum.org/EIPS/eip-1155#metadata-extensions[guarantees] that `value` will equal the value returned by {IERC1155MetadataURI-uri}."
      },
      "Unpaused(address)": {
        "details": "Emitted when the pause is lifted by `account`."
      }
    },
    "kind": "dev",
    "methods": {
      "balanceOf(address,uint256)": {
        "details": "See {IERC1155-balanceOf}. Requirements: - `account` cannot be the zero address."
      },
      "balanceOfBatch(address[],uint256[])": {
        "details": "See {IERC1155-balanceOfBatch}. Requirements: - `accounts` and `ids` must have the same length."
      },
      "constructor": {
        "custom:oz-upgrades-unsafe-allow": "constructor"
      },
      "exists(uint256)": {
        "details": "Indicates whether any token exist with a given id, or not."
      },
      "getRoleAdmin(bytes32)": {
        "details": "Returns the admin role that controls `role`. See {grantRole} and {revokeRole}. To change a role's admin, use {_setRoleAdmin}."
      },
      "grantPublisher(string,address)": {
        "details": "The publisher who wants to claim an account belongs to them must use this function with the magic string that represents themselves.  The function will uses keccak256 solidity function to hash this string, but before that, it must be represented as bytes32. The type conversion from \"string memory\" to \"bytes32\" isn't allowed, so we uses abi.encode() here. See https://ethereum.stackexchange.com/questions/119583/when-to-use-abi-encode-abi-encodepacked-or-abi-encodewithsignature-in-solidity for the reason of this selection.  After that, we use grantRole() function from AccessControl, the reason we don't directly use _grantRole() here is because the onlyRole(getRoleAdmin(role)) should also be passed in this operation, and since grantRole() has that modifier originally, the current function doesn't require any modifier yet, and there's no need to be afraid that anyone hash others' magic string and directly call grantRole() because there's no way he/she can be the admin.  If it's the first member to be added in the publisher, the msg.sender must be DEFAULT_ADMIN_ROLE to pass onlyRole(getRoleAdmin(role)) for that there's no way to set admin to others. If so, then the function would call _setRoleAdmin() to release the admin power to the publisher itself, indicating that from this point on, only the publisher can manage which accounts can act on its behalf.  The only risk would be that a hacker steal one private key from DEFAULT_ADMIN_ROLE, in that case, the worse he/she can do is grant his/her accounts the publisher role that \"hasn't been registered yet\", for that the admins of the publishers already in the protocol can only be themselves. If so, then the publishers register in the future cannot use the same magic string as the hacker granted himself/herself even if they want. (Basically, it's the same idea as \"This username has already been used. Please try another.\", so the power of DEFAULT_ADMIN_ROLE is basically just register publishers and ids.)"
      },
      "grantRole(bytes32,address)": {
        "details": "Grants `role` to `account`. If `account` had not been already granted `role`, emits a {RoleGranted} event. Requirements: - the caller must have ``role``'s admin role. May emit a {RoleGranted} event."
      },
      "hasRole(bytes32,address)": {
        "details": "Returns `true` if `account` has been granted `role`."
      },
      "isApprovedForAll(address,address)": {
        "details": "See {IERC1155-isApprovedForAll}."
      },
      "paused()": {
        "details": "Returns true if the contract is paused, and false otherwise."
      },
      "renounceRole(bytes32,address)": {
        "details": "Revokes `role` from the calling account. Roles are often managed via {grantRole} and {revokeRole}: this function's purpose is to provide a mechanism for accounts to lose their privileges if they are compromised (such as when a trusted device is misplaced). If the calling account had been revoked `role`, emits a {RoleRevoked} event. Requirements: - the caller must be `account`. May emit a {RoleRevoked} event."
      },
      "revokePublisher(string,address)": {
        "details": "See the comment of grantPublisher() above for more info about the string publisher and the bytes32 role. The reason we don't directly call _revokeRole() and the this function is safe is the same reason grantPublisher() doesn't call _grantRole(). Use this function to kick someone including msg.sender himself/herself out of the publisher. The function also can only be called by the publisher itself."
      },
      "revokeRole(bytes32,address)": {
        "details": "Revokes `role` from `account`. If `account` had been granted `role`, emits a {RoleRevoked} event. Requirements: - the caller must have ``role``'s admin role. May emit a {RoleRevoked} event."
      },
      "safeBatchTransferFrom(address,address,uint256[],uint256[],bytes)": {
        "details": "See {IERC1155-safeBatchTransferFrom}."
      },
      "safeTransferFrom(address,address,uint256,uint256,bytes)": {
        "details": "See {IERC1155-safeTransferFrom}."
      },
      "setApprovalForAll(address,bool)": {
        "details": "See {IERC1155-setApprovalForAll}."
      },
      "setIdToPublisher(uint256,string)": {
        "details": "See the comment of grantPublisher() above for more info about the string publisher and the bytes32 role. Only the old publisher could set the publisher of an id to a new one. Since the default publisher of the id is 0x00, the first publisher of the id must be set by the DEFAULT_ADMIN_ROLE."
      },
      "totalSupply(uint256)": {
        "details": "Total amount of tokens in with a given id."
      },
      "uri(uint256)": {
        "details": "See {IERC1155MetadataURI-uri}. This implementation returns the same URI for *all* token types. It relies on the token type ID substitution mechanism https://eips.ethereum.org/EIPS/eip-1155#metadata[defined in the EIP]. Clients calling this function must replace the `\\{id\\}` substring with the actual token type ID."
      }
    },
    "version": 1
  },
  "userdoc": {
    "kind": "user",
    "methods": {},
    "version": 1
  }
}