{
  "contractName": "Ohara_Protocol",
  "abi": [
    {
      "inputs": [],
      "stateMutability": "nonpayable",
      "type": "constructor"
    },
    {
      "anonymous": false,
      "inputs": [
        {
          "indexed": true,
          "internalType": "address",
          "name": "account",
          "type": "address"
        },
        {
          "indexed": true,
          "internalType": "address",
          "name": "operator",
          "type": "address"
        },
        {
          "indexed": false,
          "internalType": "bool",
          "name": "approved",
          "type": "bool"
        }
      ],
      "name": "ApprovalForAll",
      "type": "event"
    },
    {
      "anonymous": false,
      "inputs": [
        {
          "indexed": true,
          "internalType": "uint256",
          "name": "id",
          "type": "uint256"
        },
        {
          "indexed": true,
          "internalType": "uint256",
          "name": "amount",
          "type": "uint256"
        },
        {
          "indexed": true,
          "internalType": "uint256",
          "name": "price",
          "type": "uint256"
        },
        {
          "indexed": false,
          "internalType": "address",
          "name": "seller",
          "type": "address"
        }
      ],
      "name": "EBookListed",
      "type": "event"
    },
    {
      "anonymous": false,
      "inputs": [
        {
          "indexed": false,
          "internalType": "uint8",
          "name": "version",
          "type": "uint8"
        }
      ],
      "name": "Initialized",
      "type": "event"
    },
    {
      "anonymous": false,
      "inputs": [
        {
          "indexed": true,
          "internalType": "uint256",
          "name": "id",
          "type": "uint256"
        },
        {
          "indexed": true,
          "internalType": "address",
          "name": "seller",
          "type": "address"
        },
        {
          "indexed": true,
          "internalType": "uint256",
          "name": "removeAmount",
          "type": "uint256"
        }
      ],
      "name": "ListingCancelled",
      "type": "event"
    },
    {
      "anonymous": false,
      "inputs": [
        {
          "indexed": false,
          "internalType": "address",
          "name": "account",
          "type": "address"
        }
      ],
      "name": "Paused",
      "type": "event"
    },
    {
      "anonymous": false,
      "inputs": [
        {
          "indexed": true,
          "internalType": "uint256",
          "name": "id",
          "type": "uint256"
        },
        {
          "indexed": true,
          "internalType": "uint256",
          "name": "originalPrice",
          "type": "uint256"
        },
        {
          "indexed": true,
          "internalType": "uint256",
          "name": "currentPrice",
          "type": "uint256"
        },
        {
          "indexed": false,
          "internalType": "address",
          "name": "seller",
          "type": "address"
        }
      ],
      "name": "PriceModified",
      "type": "event"
    },
    {
      "anonymous": false,
      "inputs": [
        {
          "indexed": true,
          "internalType": "bytes32",
          "name": "role",
          "type": "bytes32"
        },
        {
          "indexed": true,
          "internalType": "bytes32",
          "name": "previousAdminRole",
          "type": "bytes32"
        },
        {
          "indexed": true,
          "internalType": "bytes32",
          "name": "newAdminRole",
          "type": "bytes32"
        }
      ],
      "name": "RoleAdminChanged",
      "type": "event"
    },
    {
      "anonymous": false,
      "inputs": [
        {
          "indexed": true,
          "internalType": "bytes32",
          "name": "role",
          "type": "bytes32"
        },
        {
          "indexed": true,
          "internalType": "address",
          "name": "account",
          "type": "address"
        },
        {
          "indexed": true,
          "internalType": "address",
          "name": "sender",
          "type": "address"
        }
      ],
      "name": "RoleGranted",
      "type": "event"
    },
    {
      "anonymous": false,
      "inputs": [
        {
          "indexed": true,
          "internalType": "bytes32",
          "name": "role",
          "type": "bytes32"
        },
        {
          "indexed": true,
          "internalType": "address",
          "name": "account",
          "type": "address"
        },
        {
          "indexed": true,
          "internalType": "address",
          "name": "sender",
          "type": "address"
        }
      ],
      "name": "RoleRevoked",
      "type": "event"
    },
    {
      "anonymous": false,
      "inputs": [
        {
          "indexed": true,
          "internalType": "uint256",
          "name": "id",
          "type": "uint256"
        },
        {
          "indexed": true,
          "internalType": "address",
          "name": "seller",
          "type": "address"
        },
        {
          "indexed": false,
          "internalType": "address",
          "name": "buyer",
          "type": "address"
        },
        {
          "indexed": true,
          "internalType": "uint256",
          "name": "amount",
          "type": "uint256"
        }
      ],
      "name": "TransactionMade",
      "type": "event"
    },
    {
      "anonymous": false,
      "inputs": [
        {
          "indexed": true,
          "internalType": "address",
          "name": "operator",
          "type": "address"
        },
        {
          "indexed": true,
          "internalType": "address",
          "name": "from",
          "type": "address"
        },
        {
          "indexed": true,
          "internalType": "address",
          "name": "to",
          "type": "address"
        },
        {
          "indexed": false,
          "internalType": "uint256[]",
          "name": "ids",
          "type": "uint256[]"
        },
        {
          "indexed": false,
          "internalType": "uint256[]",
          "name": "values",
          "type": "uint256[]"
        }
      ],
      "name": "TransferBatch",
      "type": "event"
    },
    {
      "anonymous": false,
      "inputs": [
        {
          "indexed": true,
          "internalType": "address",
          "name": "operator",
          "type": "address"
        },
        {
          "indexed": true,
          "internalType": "address",
          "name": "from",
          "type": "address"
        },
        {
          "indexed": true,
          "internalType": "address",
          "name": "to",
          "type": "address"
        },
        {
          "indexed": false,
          "internalType": "uint256",
          "name": "id",
          "type": "uint256"
        },
        {
          "indexed": false,
          "internalType": "uint256",
          "name": "value",
          "type": "uint256"
        }
      ],
      "name": "TransferSingle",
      "type": "event"
    },
    {
      "anonymous": false,
      "inputs": [
        {
          "indexed": false,
          "internalType": "string",
          "name": "value",
          "type": "string"
        },
        {
          "indexed": true,
          "internalType": "uint256",
          "name": "id",
          "type": "uint256"
        }
      ],
      "name": "URI",
      "type": "event"
    },
    {
      "anonymous": false,
      "inputs": [
        {
          "indexed": false,
          "internalType": "address",
          "name": "account",
          "type": "address"
        }
      ],
      "name": "Unpaused",
      "type": "event"
    },
    {
      "inputs": [],
      "name": "DEFAULT_ADMIN_ROLE",
      "outputs": [
        {
          "internalType": "bytes32",
          "name": "",
          "type": "bytes32"
        }
      ],
      "stateMutability": "view",
      "type": "function",
      "constant": true
    },
    {
      "inputs": [
        {
          "internalType": "address",
          "name": "account",
          "type": "address"
        },
        {
          "internalType": "uint256",
          "name": "id",
          "type": "uint256"
        }
      ],
      "name": "balanceOf",
      "outputs": [
        {
          "internalType": "uint256",
          "name": "",
          "type": "uint256"
        }
      ],
      "stateMutability": "view",
      "type": "function",
      "constant": true
    },
    {
      "inputs": [
        {
          "internalType": "address[]",
          "name": "accounts",
          "type": "address[]"
        },
        {
          "internalType": "uint256[]",
          "name": "ids",
          "type": "uint256[]"
        }
      ],
      "name": "balanceOfBatch",
      "outputs": [
        {
          "internalType": "uint256[]",
          "name": "",
          "type": "uint256[]"
        }
      ],
      "stateMutability": "view",
      "type": "function",
      "constant": true
    },
    {
      "inputs": [
        {
          "internalType": "address",
          "name": "account",
          "type": "address"
        },
        {
          "internalType": "uint256",
          "name": "id",
          "type": "uint256"
        },
        {
          "internalType": "uint256",
          "name": "value",
          "type": "uint256"
        }
      ],
      "name": "burn",
      "outputs": [],
      "stateMutability": "nonpayable",
      "type": "function"
    },
    {
      "inputs": [
        {
          "internalType": "address",
          "name": "account",
          "type": "address"
        },
        {
          "internalType": "uint256[]",
          "name": "ids",
          "type": "uint256[]"
        },
        {
          "internalType": "uint256[]",
          "name": "values",
          "type": "uint256[]"
        }
      ],
      "name": "burnBatch",
      "outputs": [],
      "stateMutability": "nonpayable",
      "type": "function"
    },
    {
      "inputs": [],
      "name": "currentId",
      "outputs": [
        {
          "internalType": "uint256",
          "name": "",
          "type": "uint256"
        }
      ],
      "stateMutability": "view",
      "type": "function",
      "constant": true
    },
    {
      "inputs": [
        {
          "internalType": "uint256",
          "name": "id",
          "type": "uint256"
        }
      ],
      "name": "exists",
      "outputs": [
        {
          "internalType": "bool",
          "name": "",
          "type": "bool"
        }
      ],
      "stateMutability": "view",
      "type": "function",
      "constant": true
    },
    {
      "inputs": [
        {
          "internalType": "bytes32",
          "name": "role",
          "type": "bytes32"
        }
      ],
      "name": "getRoleAdmin",
      "outputs": [
        {
          "internalType": "bytes32",
          "name": "",
          "type": "bytes32"
        }
      ],
      "stateMutability": "view",
      "type": "function",
      "constant": true
    },
    {
      "inputs": [],
      "name": "gnosisSafeAddress",
      "outputs": [
        {
          "internalType": "address payable",
          "name": "",
          "type": "address"
        }
      ],
      "stateMutability": "view",
      "type": "function",
      "constant": true
    },
    {
      "inputs": [
        {
          "internalType": "bytes32",
          "name": "role",
          "type": "bytes32"
        },
        {
          "internalType": "address",
          "name": "account",
          "type": "address"
        }
      ],
      "name": "grantRole",
      "outputs": [],
      "stateMutability": "nonpayable",
      "type": "function"
    },
    {
      "inputs": [
        {
          "internalType": "bytes32",
          "name": "role",
          "type": "bytes32"
        },
        {
          "internalType": "address",
          "name": "account",
          "type": "address"
        }
      ],
      "name": "hasRole",
      "outputs": [
        {
          "internalType": "bool",
          "name": "",
          "type": "bool"
        }
      ],
      "stateMutability": "view",
      "type": "function",
      "constant": true
    },
    {
      "inputs": [
        {
          "internalType": "uint256",
          "name": "",
          "type": "uint256"
        }
      ],
      "name": "idToDetail",
      "outputs": [
        {
          "internalType": "bytes32",
          "name": "publisher",
          "type": "bytes32"
        },
        {
          "internalType": "uint16",
          "name": "revenueFeeRates",
          "type": "uint16"
        },
        {
          "internalType": "address",
          "name": "revenueReceiver",
          "type": "address"
        },
        {
          "internalType": "uint256",
          "name": "totalAmount",
          "type": "uint256"
        }
      ],
      "stateMutability": "view",
      "type": "function",
      "constant": true
    },
    {
      "inputs": [
        {
          "internalType": "uint256",
          "name": "",
          "type": "uint256"
        },
        {
          "internalType": "address",
          "name": "",
          "type": "address"
        }
      ],
      "name": "idToListings",
      "outputs": [
        {
          "internalType": "uint256",
          "name": "price",
          "type": "uint256"
        },
        {
          "internalType": "uint256",
          "name": "listedBalance",
          "type": "uint256"
        }
      ],
      "stateMutability": "view",
      "type": "function",
      "constant": true
    },
    {
      "inputs": [
        {
          "internalType": "uint256",
          "name": "",
          "type": "uint256"
        }
      ],
      "name": "idToMetadataUrl",
      "outputs": [
        {
          "internalType": "string",
          "name": "",
          "type": "string"
        }
      ],
      "stateMutability": "view",
      "type": "function",
      "constant": true
    },
    {
      "inputs": [
        {
          "internalType": "address",
          "name": "account",
          "type": "address"
        },
        {
          "internalType": "address",
          "name": "operator",
          "type": "address"
        }
      ],
      "name": "isApprovedForAll",
      "outputs": [
        {
          "internalType": "bool",
          "name": "",
          "type": "bool"
        }
      ],
      "stateMutability": "view",
      "type": "function",
      "constant": true
    },
    {
      "inputs": [],
      "name": "marketFeeRate",
      "outputs": [
        {
          "internalType": "uint16",
          "name": "",
          "type": "uint16"
        }
      ],
      "stateMutability": "view",
      "type": "function",
      "constant": true
    },
    {
      "inputs": [],
      "name": "paused",
      "outputs": [
        {
          "internalType": "bool",
          "name": "",
          "type": "bool"
        }
      ],
      "stateMutability": "view",
      "type": "function",
      "constant": true
    },
    {
      "inputs": [
        {
          "internalType": "bytes32",
          "name": "role",
          "type": "bytes32"
        },
        {
          "internalType": "address",
          "name": "account",
          "type": "address"
        }
      ],
      "name": "renounceRole",
      "outputs": [],
      "stateMutability": "nonpayable",
      "type": "function"
    },
    {
      "inputs": [
        {
          "internalType": "bytes32",
          "name": "role",
          "type": "bytes32"
        },
        {
          "internalType": "address",
          "name": "account",
          "type": "address"
        }
      ],
      "name": "revokeRole",
      "outputs": [],
      "stateMutability": "nonpayable",
      "type": "function"
    },
    {
      "inputs": [
        {
          "internalType": "address",
          "name": "operator",
          "type": "address"
        },
        {
          "internalType": "bool",
          "name": "approved",
          "type": "bool"
        }
      ],
      "name": "setApprovalForAll",
      "outputs": [],
      "stateMutability": "nonpayable",
      "type": "function"
    },
    {
      "inputs": [
        {
          "internalType": "uint256",
          "name": "id",
          "type": "uint256"
        }
      ],
      "name": "totalSupply",
      "outputs": [
        {
          "internalType": "uint256",
          "name": "",
          "type": "uint256"
        }
      ],
      "stateMutability": "view",
      "type": "function",
      "constant": true
    },
    {
      "inputs": [
        {
          "internalType": "uint256",
          "name": "",
          "type": "uint256"
        }
      ],
      "name": "uri",
      "outputs": [
        {
          "internalType": "string",
          "name": "",
          "type": "string"
        }
      ],
      "stateMutability": "view",
      "type": "function",
      "constant": true
    },
    {
      "inputs": [
        {
          "internalType": "address",
          "name": "",
          "type": "address"
        },
        {
          "internalType": "uint256",
          "name": "",
          "type": "uint256"
        }
      ],
      "name": "userToBookKeySecret",
      "outputs": [
        {
          "internalType": "string",
          "name": "",
          "type": "string"
        }
      ],
      "stateMutability": "view",
      "type": "function",
      "constant": true
    },
    {
      "stateMutability": "payable",
      "type": "receive",
      "payable": true
    },
    {
      "inputs": [
        {
          "internalType": "address payable",
          "name": "_gnosisSafeAddr",
          "type": "address"
        },
        {
          "internalType": "uint16",
          "name": "_marketFeeRate",
          "type": "uint16"
        }
      ],
      "name": "initialize",
      "outputs": [],
      "stateMutability": "nonpayable",
      "type": "function"
    },
    {
      "inputs": [
        {
          "internalType": "string",
          "name": "newuri",
          "type": "string"
        }
      ],
      "name": "setURI",
      "outputs": [],
      "stateMutability": "nonpayable",
      "type": "function"
    },
    {
      "inputs": [
        {
          "internalType": "string",
          "name": "publisher",
          "type": "string"
        },
        {
          "internalType": "address",
          "name": "account",
          "type": "address"
        }
      ],
      "name": "grantPublisher",
      "outputs": [],
      "stateMutability": "nonpayable",
      "type": "function"
    },
    {
      "inputs": [
        {
          "internalType": "string",
          "name": "publisher",
          "type": "string"
        },
        {
          "internalType": "uint16",
          "name": "revenueRate",
          "type": "uint16"
        },
        {
          "internalType": "address",
          "name": "revenueReceiver",
          "type": "address"
        },
        {
          "internalType": "uint256",
          "name": "amount",
          "type": "uint256"
        }
      ],
      "name": "setIdToDetail",
      "outputs": [],
      "stateMutability": "nonpayable",
      "type": "function"
    },
    {
      "inputs": [
        {
          "internalType": "string",
          "name": "publisher",
          "type": "string"
        },
        {
          "internalType": "address",
          "name": "account",
          "type": "address"
        }
      ],
      "name": "revokePublisher",
      "outputs": [],
      "stateMutability": "nonpayable",
      "type": "function"
    },
    {
      "inputs": [],
      "name": "pause",
      "outputs": [],
      "stateMutability": "nonpayable",
      "type": "function"
    },
    {
      "inputs": [],
      "name": "unpause",
      "outputs": [],
      "stateMutability": "nonpayable",
      "type": "function"
    },
    {
      "inputs": [
        {
          "internalType": "address",
          "name": "to",
          "type": "address"
        },
        {
          "internalType": "uint256",
          "name": "id",
          "type": "uint256"
        },
        {
          "internalType": "uint256",
          "name": "amount",
          "type": "uint256"
        },
        {
          "internalType": "bytes",
          "name": "data",
          "type": "bytes"
        }
      ],
      "name": "mint",
      "outputs": [],
      "stateMutability": "nonpayable",
      "type": "function"
    },
    {
      "inputs": [
        {
          "internalType": "address",
          "name": "to",
          "type": "address"
        },
        {
          "internalType": "uint256[]",
          "name": "ids",
          "type": "uint256[]"
        },
        {
          "internalType": "uint256[]",
          "name": "amounts",
          "type": "uint256[]"
        },
        {
          "internalType": "bytes",
          "name": "data",
          "type": "bytes"
        }
      ],
      "name": "mintBatch",
      "outputs": [],
      "stateMutability": "nonpayable",
      "type": "function"
    },
    {
      "inputs": [
        {
          "internalType": "address",
          "name": "from",
          "type": "address"
        },
        {
          "internalType": "address",
          "name": "to",
          "type": "address"
        },
        {
          "internalType": "uint256",
          "name": "id",
          "type": "uint256"
        },
        {
          "internalType": "uint256",
          "name": "amount",
          "type": "uint256"
        },
        {
          "internalType": "bytes",
          "name": "data",
          "type": "bytes"
        }
      ],
      "name": "safeTransferFrom",
      "outputs": [],
      "stateMutability": "nonpayable",
      "type": "function"
    },
    {
      "inputs": [
        {
          "internalType": "address",
          "name": "from",
          "type": "address"
        },
        {
          "internalType": "address",
          "name": "to",
          "type": "address"
        },
        {
          "internalType": "uint256[]",
          "name": "ids",
          "type": "uint256[]"
        },
        {
          "internalType": "uint256[]",
          "name": "amounts",
          "type": "uint256[]"
        },
        {
          "internalType": "bytes",
          "name": "data",
          "type": "bytes"
        }
      ],
      "name": "safeBatchTransferFrom",
      "outputs": [],
      "stateMutability": "nonpayable",
      "type": "function"
    },
    {
      "inputs": [
        {
          "internalType": "uint256",
          "name": "id",
          "type": "uint256"
        },
        {
          "internalType": "string",
          "name": "newMetadataUrl",
          "type": "string"
        }
      ],
      "name": "changeMetadataUrl",
      "outputs": [],
      "stateMutability": "nonpayable",
      "type": "function"
    },
    {
      "inputs": [
        {
          "internalType": "address",
          "name": "user",
          "type": "address"
        },
        {
          "internalType": "uint256",
          "name": "id",
          "type": "uint256"
        },
        {
          "internalType": "string",
          "name": "key",
          "type": "string"
        }
      ],
      "name": "changeBookKeySecret",
      "outputs": [],
      "stateMutability": "nonpayable",
      "type": "function"
    },
    {
      "inputs": [
        {
          "internalType": "uint256",
          "name": "id",
          "type": "uint256"
        },
        {
          "internalType": "uint256",
          "name": "price",
          "type": "uint256"
        },
        {
          "internalType": "uint256",
          "name": "amount",
          "type": "uint256"
        }
      ],
      "name": "listEBook",
      "outputs": [],
      "stateMutability": "nonpayable",
      "type": "function"
    },
    {
      "inputs": [
        {
          "internalType": "uint256",
          "name": "id",
          "type": "uint256"
        },
        {
          "internalType": "uint256",
          "name": "price",
          "type": "uint256"
        }
      ],
      "name": "modifyPrice",
      "outputs": [],
      "stateMutability": "nonpayable",
      "type": "function"
    },
    {
      "inputs": [
        {
          "internalType": "uint256",
          "name": "id",
          "type": "uint256"
        },
        {
          "internalType": "uint256",
          "name": "amount",
          "type": "uint256"
        }
      ],
      "name": "cancelListing",
      "outputs": [],
      "stateMutability": "nonpayable",
      "type": "function"
    },
    {
      "inputs": [
        {
          "internalType": "uint256",
          "name": "id",
          "type": "uint256"
        },
        {
          "internalType": "address payable",
          "name": "seller",
          "type": "address"
        },
        {
          "internalType": "uint256",
          "name": "amount",
          "type": "uint256"
        }
      ],
      "name": "purchaseEBook",
      "outputs": [],
      "stateMutability": "payable",
      "type": "function",
      "payable": true
    },
    {
      "inputs": [
        {
          "internalType": "bytes4",
          "name": "interfaceId",
          "type": "bytes4"
        }
      ],
      "name": "supportsInterface",
      "outputs": [
        {
          "internalType": "bool",
          "name": "",
          "type": "bool"
        }
      ],
      "stateMutability": "view",
      "type": "function",
      "constant": true
    }
  ],
  "bytecode": "0x60806040523480156200001157600080fd5b506200001c62000022565b620000e3565b600054610100900460ff16156200008f5760405162461bcd60e51b815260206004820152602760248201527f496e697469616c697a61626c653a20636f6e747261637420697320696e697469604482015266616c697a696e6760c81b606482015260840160405180910390fd5b60005460ff90811614620000e1576000805460ff191660ff9081179091556040519081527f7f26b83ff96e1f2b6a682f133852f6798a09c465da95921460cefb38474024989060200160405180910390a15b565b6143ad80620000f36000396000f3fe6080604052600436106102495760003560e01c80636b20c45411610139578063c7434d0b116100b6578063e1176dc31161007a578063e1176dc3146107ab578063e6a339d4146107cb578063e985e9c5146107eb578063f242432a14610834578063f39e69a414610854578063f5298aca1461087457600080fd5b8063c7434d0b146106c6578063d4a5cd10146106ff578063d547741f14610754578063dc422d4b14610774578063e00dd1611461079457600080fd5b8063a22cb465116100fd578063a22cb465146105b4578063baec1599146105d4578063bd85b039146105f4578063bf3dea1414610622578063c0ab83e9146106a657600080fd5b80636b20c4541461052a578063731133e91461054a5780638456cb591461056a57806391d148541461057f578063a217fddf1461059f57600080fd5b80632f2ff15d116101c75780634f558e791161018b5780634f558e791461046c57806352509e971461049c578063554fa278146104bc5780635c975abb146104dc5780635d2af488146104f457600080fd5b80632f2ff15d146103d757806336568abe146103f75780633f4ba83a1461041757806344d416801461042c5780634e1273f41461043f57600080fd5b80631b4676871161020e5780631b467687146103275780631f7fdffa14610347578063248a9ca31461036757806326769cc6146103975780632eb2c2d6146103b757600080fd5b8062fdd58e1461025557806301ffc9a71461028857806302fe5305146102b85780630e89341c146102da5780631286c46d1461030757600080fd5b3661025057005b600080fd5b34801561026157600080fd5b506102756102703660046131b2565b610894565b6040519081526020015b60405180910390f35b34801561029457600080fd5b506102a86102a33660046131f4565b61092f565b604051901515815260200161027f565b3480156102c457600080fd5b506102d86102d33660046132c6565b61093a565b005b3480156102e657600080fd5b506102fa6102f5366004613302565b61095a565b60405161027f919061336b565b34801561031357600080fd5b506102d861032236600461337e565b6109ee565b34801561033357600080fd5b506102d86103423660046133cf565b610a30565b34801561035357600080fd5b506102d8610362366004613485565b610b20565b34801561037357600080fd5b50610275610382366004613302565b60009081526097602052604090206001015490565b3480156103a357600080fd5b506102d86103b2366004613567565b610cdc565b3480156103c357600080fd5b506102d86103d23660046135c2565b610d16565b3480156103e357600080fd5b506102d86103f236600461366f565b610e06565b34801561040357600080fd5b506102d861041236600461366f565b610e2b565b34801561042357600080fd5b506102d8610ea5565b6102d861043a366004613694565b610ebb565b34801561044b57600080fd5b5061045f61045a3660046136cc565b6112e6565b60405161027f91906137d3565b34801561047857600080fd5b506102a8610487366004613302565b600090815261012d6020526040902054151590565b3480156104a857600080fd5b506102d86104b736600461337e565b611402565b3480156104c857600080fd5b506102d86104d73660046137e6565b61145f565b3480156104e857600080fd5b5060c95460ff166102a8565b34801561050057600080fd5b5061015f5461051790600160a01b900461ffff1681565b60405161ffff909116815260200161027f565b34801561053657600080fd5b506102d8610545366004613831565b61148b565b34801561055657600080fd5b506102d86105653660046138a6565b6114ce565b34801561057657600080fd5b506102d86115d5565b34801561058b57600080fd5b506102a861059a36600461366f565b6115e8565b3480156105ab57600080fd5b50610275600081565b3480156105c057600080fd5b506102d86105cf3660046138fc565b611613565b3480156105e057600080fd5b506102d86105ef366004613946565b61161e565b34801561060057600080fd5b5061027561060f366004613302565b600090815261012d602052604090205490565b34801561062e57600080fd5b5061067561063d366004613302565b61016260205260009081526040902080546001820154600290920154909161ffff811691620100009091046001600160a01b03169084565b6040805194855261ffff90931660208501526001600160a01b0390911691830191909152606082015260800161027f565b3480156106b257600080fd5b506102fa6106c1366004613302565b6117d5565b3480156106d257600080fd5b5061015f546106e7906001600160a01b031681565b6040516001600160a01b03909116815260200161027f565b34801561070b57600080fd5b5061073f61071a36600461366f565b6101616020908152600092835260408084209091529082529020805460019091015482565b6040805192835260208301919091520161027f565b34801561076057600080fd5b506102d861076f36600461366f565b611870565b34801561078057600080fd5b506102d861078f3660046133cf565b611895565b3480156107a057600080fd5b506102756101605481565b3480156107b757600080fd5b506102fa6107c63660046131b2565b611995565b3480156107d757600080fd5b506102d86107e63660046139ad565b6119ba565b3480156107f757600080fd5b506102a86108063660046139d9565b6001600160a01b03918216600090815260666020908152604080832093909416825291909152205460ff1690565b34801561084057600080fd5b506102d861084f366004613a07565b611be1565b34801561086057600080fd5b506102d861086f366004613a6f565b611cca565b34801561088057600080fd5b506102d861088f366004613aa4565b611e41565b60006001600160a01b0383166109045760405162461bcd60e51b815260206004820152602a60248201527f455243313135353a2061646472657373207a65726f206973206e6f742061207660448201526930b634b21037bbb732b960b11b60648201526084015b60405180910390fd5b5060008181526065602090815260408083206001600160a01b03861684529091529020545b92915050565b600061092982611e84565b610942611ea9565b600061094d81611ef1565b61095682611efb565b5050565b60606067805461096990613ad9565b80601f016020809104026020016040519081016040528092919081815260200182805461099590613ad9565b80156109e25780601f106109b7576101008083540402835291602001916109e2565b820191906000526020600020905b8154815290600101906020018083116109c557829003601f168201915b50505050509050919050565b6109f6611ea9565b600082604051602001610a09919061336b565b604051602081830303815290604052805190602001209050610a2b8183611870565b505050565b610a38611ea9565b3380610a785760405162461bcd60e51b815260206004820152600f60248201526e496e76616c6964206164647265737360881b60448201526064016108fb565b82336000828152610161602090815260408083206001600160a01b0385168452909152902060010154610abd5760405162461bcd60e51b81526004016108fb90613b13565b6000858152610161602090815260408083203380855290835292819020805490889055815193845290519092879284928a927f521934962a350db7197351921a18540ef5f06d51ffae99577389997996cc601892908290030190a4505050505050565b610b28611ea9565b8260005b8151811015610b805761016054828281518110610b4b57610b4b613b48565b602002602001015110610b705760405162461bcd60e51b81526004016108fb90613b5e565b610b7981613bb8565b9050610b2c565b508360005b8151811015610bd757610bc76101626000848481518110610ba857610ba8613b48565b6020026020010151815260200190815260200160002060000154611ef1565b610bd081613bb8565b9050610b85565b5060005b8551811015610cc7576101626000878381518110610bfb57610bfb613b48565b6020026020010151815260200190815260200160002060020154858281518110610c2757610c27613b48565b6020026020010151610c5f888481518110610c4457610c44613b48565b6020026020010151600090815261012d602052604090205490565b610c699190613bd1565b1115610cb75760405162461bcd60e51b815260206004820152601d60248201527f455243313135353a204d696e7420616d6f756e7420657863656564732e00000060448201526064016108fb565b610cc081613bb8565b9050610bdb565b50610cd486868686611f07565b505050505050565b6000610ce781611ef1565b6001600160a01b0385166000908152610164602090815260408083208784529091529020610cd4838583613c2a565b84838360005b8251811015610dee57818181518110610d3757610d37613b48565b60200260200101516101616000858481518110610d5657610d56613b48565b602002602001015181526020019081526020016000206000866001600160a01b03166001600160a01b0316815260200190815260200160002060010154610db686868581518110610da957610da9613b48565b6020026020010151610894565b610dc09190613ce9565b1015610dde5760405162461bcd60e51b81526004016108fb90613cfc565b610de781613bb8565b9050610d1c565b50610dfc8888888888612062565b5050505050505050565b600082815260976020526040902060010154610e2181611ef1565b610a2b83836120a7565b6001600160a01b0381163314610e9b5760405162461bcd60e51b815260206004820152602f60248201527f416363657373436f6e74726f6c3a2063616e206f6e6c792072656e6f756e636560448201526e103937b632b9903337b91039b2b63360891b60648201526084016108fb565b610956828261212d565b6000610eb081611ef1565b610eb8612194565b50565b610ec3611ea9565b8060008111610ee45760405162461bcd60e51b81526004016108fb90613d4e565b6000848152610161602090815260408083206001600160a01b038716845290915290206001015484908490610f2b5760405162461bcd60e51b81526004016108fb90613b13565b6000868152610161602090815260408083206001600160a01b0389168452909152902060010154841115610f715760405162461bcd60e51b81526004016108fb90613d7c565b6000868152610161602090815260408083206001600160a01b0389168452909152812054610fa0908690613dbe565b600088815261016260205260408120600101549192509061271090610fc99061ffff1684613dbe565b610fd39190613dd5565b61015f5490915060009061271090610ff690600160a01b900461ffff1685613dbe565b6110009190613dd5565b905060008161100f8486613bd1565b6110199190613bd1565b9050803410156110605760405162461bcd60e51b815260206004820152601260248201527124b739bab33334b1b4b2b73a1022ba3432b960711b60448201526064016108fb565b600061107e8a338d8c604051806020016040528060008152506121e6565b6040516001600160a01b038b16908690600081818185875af1925050503d80600081146110c7576040519150601f19603f3d011682016040523d82523d6000602084013e6110cc565b606091505b505061015f546040519192506001600160a01b0316908490600081818185875af1925050503d806000811461111d576040519150601f19603f3d011682016040523d82523d6000602084013e611122565b606091505b505060008c815261016260205260408082206001015490519293503392620100009091046001600160a01b0316918291889181818185875af1925050503d806000811461118b576040519150601f19603f3d011682016040523d82523d6000602084013e611190565b606091505b50909350600090506111a28534613ce9565b1115611203576001600160a01b0382166111bc8534613ce9565b604051600081818185875af1925050503d80600081146111f8576040519150601f19603f3d011682016040523d82523d6000602084013e6111fd565b606091505b50909350505b826112435760405162461bcd60e51b815260206004820152601060248201526f2a3930b739b332b9103330b4b632b21760811b60448201526064016108fb565b8a61016160008f815260200190815260200160002060008e6001600160a01b03166001600160a01b03168152602001908152602001600020600101600082825461128d9190613ce9565b90915550506040516001600160a01b0383811682528c91908e16908f907ff6a481d9b8653cca229a5f91f90f04ef416916c2f6b30a5f542070c835d2df809060200160405180910390a450505050505050505050505050565b6060815183511461134b5760405162461bcd60e51b815260206004820152602960248201527f455243313135353a206163636f756e747320616e6420696473206c656e677468604482015268040dad2e6dac2e8c6d60bb1b60648201526084016108fb565b600083516001600160401b0381111561136657611366613211565b60405190808252806020026020018201604052801561138f578160200160208202803683370190505b50905060005b84518110156113fa576113cd8582815181106113b3576113b3613b48565b6020026020010151858381518110610da957610da9613b48565b8282815181106113df576113df613b48565b60209081029190910101526113f381613bb8565b9050611395565b509392505050565b61140a611ea9565b60008260405160200161141d919061336b565b60405160208183030381529060405280519060200120905061143f8183610e06565b600081815260976020526040902060010154610a2b57610a2b8182612322565b600061146a81611ef1565b600084815261016360205260409020611484838583613c2a565b5050505050565b6001600160a01b0383163314806114a757506114a78333610806565b6114c35760405162461bcd60e51b81526004016108fb90613df7565b610a2b83838361236d565b6114d6611ea9565b6114df8361250d565b60005b8151811015611536576101605482828151811061150157611501613b48565b6020026020010151106115265760405162461bcd60e51b81526004016108fb90613b5e565b61152f81613bb8565b90506114e2565b506000848152610162602052604090205461155081611ef1565b6000858152610162602090815260408083206002015461012d9092529091205461157b908690613bd1565b11156115c95760405162461bcd60e51b815260206004820152601d60248201527f455243313135353a204d696e7420616d6f756e7420657863656564732e00000060448201526064016108fb565b610cd486868686612558565b60006115e081611ef1565b610eb8612643565b60009182526097602090815260408084206001600160a01b0393909316845291905290205460ff1690565b610956338383612680565b611626611ea9565b80600081116116475760405162461bcd60e51b81526004016108fb90613d4e565b600061165281611ef1565b61015f546127109061166f90600160a01b900461ffff1687613e45565b61ffff1611156116fb5760405162461bcd60e51b815260206004820152604b60248201527f455243313135353a205468652073756d206f66206d61726b657446656552617460448201527f6520616e6420726576656e7565526174652073686f756c64206e6f742065786360648201526a656564203130302e30302560a81b608482015260a4016108fb565b60008660405160200161170e919061336b565b60405160208183030381529060405280519060200120905060405180608001604052808281526020018761ffff168152602001866001600160a01b03168152602001858152506101626000610160600081548092919061176d90613bb8565b90915550815260208082019290925260409081016000208351815591830151600183018054928501516001600160a01b031662010000026001600160b01b031990931661ffff9092169190911791909117905560609091015160029091015550505050505050565b61016360205260009081526040902080546117ef90613ad9565b80601f016020809104026020016040519081016040528092919081815260200182805461181b90613ad9565b80156118685780601f1061183d57610100808354040283529160200191611868565b820191906000526020600020905b81548152906001019060200180831161184b57829003601f168201915b505050505081565b60008281526097602052604090206001015461188b81611ef1565b610a2b838361212d565b61189d611ea9565b80600081116118be5760405162461bcd60e51b81526004016108fb90613d4e565b82336000828152610161602090815260408083206001600160a01b03851684529091529020600101546119035760405162461bcd60e51b81526004016108fb90613b13565b6000858152610161602090815260408083203384529091529020600101548411156119405760405162461bcd60e51b81526004016108fb90613d7c565b6000858152610161602090815260408083203380855292528083206001018054889003905551869288917fffadd0f4e7d64abb82ef3d770cd739a881c221c0b5b162238659e6567216abe29190a45050505050565b610164602090815260009283526040808420909152908252902080546117ef90613ad9565b6119c2611ea9565b6119cb8361250d565b60005b8151811015611a2257610160548282815181106119ed576119ed613b48565b602002602001015110611a125760405162461bcd60e51b81526004016108fb90613b5e565b611a1b81613bb8565b90506119ce565b503380611a635760405162461bcd60e51b815260206004820152600f60248201526e496e76616c6964206164647265737360881b60448201526064016108fb565b8260008111611a845760405162461bcd60e51b81526004016108fb90613d4e565b33611a8e8761250d565b611a978661250d565b60005b8251811015611b5f57818181518110611ab557611ab5613b48565b60200260200101516101616000858481518110611ad457611ad4613b48565b602002602001015181526020019081526020016000206000866001600160a01b03166001600160a01b0316815260200190815260200160002060010154611b2786868581518110610da957610da9613b48565b611b319190613ce9565b1015611b4f5760405162461bcd60e51b81526004016108fb90613cfc565b611b5881613bb8565b9050611a9a565b5060008981526101616020908152604080832033845290915281208981556001018054899290611b90908490613bd1565b90915550889050878a7f2fc0ffd013b5d05f874bd9a06a8bb6dbfe037efcb406e32eca22ed05e1ed381d336040516001600160a01b03909116815260200160405180910390a4505050505050505050565b84611beb8461250d565b611bf48461250d565b60005b8251811015611cbc57818181518110611c1257611c12613b48565b60200260200101516101616000858481518110611c3157611c31613b48565b602002602001015181526020019081526020016000206000866001600160a01b03166001600160a01b0316815260200190815260200160002060010154611c8486868581518110610da957610da9613b48565b611c8e9190613ce9565b1015611cac5760405162461bcd60e51b81526004016108fb90613cfc565b611cb581613bb8565b9050611bf7565b50610dfc8888888888612760565b600054610100900460ff1615808015611cea5750600054600160ff909116105b80611d045750303b158015611d04575060005460ff166001145b611d675760405162461bcd60e51b815260206004820152602e60248201527f496e697469616c697a61626c653a20636f6e747261637420697320616c72656160448201526d191e481a5b9a5d1a585b1a5e995960921b60648201526084016108fb565b6000805460ff191660011790558015611d8a576000805461ff0019166101001790555b611da2604051806020016040528060008152506127a5565b611daa6127d5565b611db26127fc565b611dba6127d5565b611dc26127d5565b611dcd6000336120a7565b61015f805461ffff8416600160a01b026001600160b01b03199091166001600160a01b038616171790558015610a2b576000805461ff0019169055604051600181527f7f26b83ff96e1f2b6a682f133852f6798a09c465da95921460cefb38474024989060200160405180910390a1505050565b6001600160a01b038316331480611e5d5750611e5d8333610806565b611e795760405162461bcd60e51b81526004016108fb90613df7565b610a2b83838361282b565b60006001600160e01b03198216637965db0b60e01b1480610929575061092982612947565b60c95460ff1615611eef5760405162461bcd60e51b815260206004820152601060248201526f14185d5cd8589b194e881c185d5cd95960821b60448201526064016108fb565b565b610eb88133612997565b60676109568282613e67565b6001600160a01b038416611f2d5760405162461bcd60e51b81526004016108fb90613f26565b8151835114611f4e5760405162461bcd60e51b81526004016108fb90613f67565b33611f5e816000878787876129f0565b60005b8451811015611ffa57838181518110611f7c57611f7c613b48565b602002602001015160656000878481518110611f9a57611f9a613b48565b602002602001015181526020019081526020016000206000886001600160a01b03166001600160a01b031681526020019081526020016000206000828254611fe29190613bd1565b90915550819050611ff281613bb8565b915050611f61565b50846001600160a01b031660006001600160a01b0316826001600160a01b03167f4a39dc06d4c0dbc64b70af90fd698a233a518aa5d07e595d983b8c0526c8f7fb878760405161204b929190613faf565b60405180910390a461148481600087878787612a06565b6001600160a01b03851633148061207e575061207e8533610806565b61209a5760405162461bcd60e51b81526004016108fb90613df7565b6114848585858585612b61565b6120b182826115e8565b6109565760008281526097602090815260408083206001600160a01b03851684529091529020805460ff191660011790556120e93390565b6001600160a01b0316816001600160a01b0316837f2f8788117e7eff1d82e926ec794901d17c78024a50270940304540a733656f0d60405160405180910390a45050565b61213782826115e8565b156109565760008281526097602090815260408083206001600160a01b0385168085529252808320805460ff1916905551339285917ff6391f5c32d9c69d2a47ea670b442974b53935d1edc7fd64eb21e047a839171b9190a45050565b61219c612d06565b60c9805460ff191690557f5db9ee0a495bf2e6ff9c91a7834c1ba4fdd244a5e8aa4e537bd38aeae4b073aa335b6040516001600160a01b03909116815260200160405180910390a1565b6001600160a01b03841661220c5760405162461bcd60e51b81526004016108fb90613fdd565b3360006122188561250d565b905060006122258561250d565b90506122358389898585896129f0565b60008681526065602090815260408083206001600160a01b038c168452909152902054858110156122785760405162461bcd60e51b81526004016108fb90614022565b60008781526065602090815260408083206001600160a01b038d8116855292528083208985039055908a168252812080548892906122b7908490613bd1565b909155505060408051888152602081018890526001600160a01b03808b16928c821692918816917fc3d58168c5ae7397731d063d5bbf3d657854427343f4c083240f7aacaa2d0f62910160405180910390a4612317848a8a8a8a8a612d4f565b505050505050505050565b600082815260976020526040808220600101805490849055905190918391839186917fbd79b86ffe0ab8e8776151514217cd7cacd52c909f66475c3af44e129f0b00ff9190a4505050565b6001600160a01b0383166123935760405162461bcd60e51b81526004016108fb9061406c565b80518251146123b45760405162461bcd60e51b81526004016108fb90613f67565b60003390506123d7818560008686604051806020016040528060008152506129f0565b60005b835181101561249f5760008482815181106123f7576123f7613b48565b60200260200101519050600084838151811061241557612415613b48565b60209081029190910181015160008481526065835260408082206001600160a01b038c1683529093529190912054909150818110156124665760405162461bcd60e51b81526004016108fb906140af565b60009283526065602090815260408085206001600160a01b038b168652909152909220910390558061249781613bb8565b9150506123da565b5060006001600160a01b0316846001600160a01b0316826001600160a01b03167f4a39dc06d4c0dbc64b70af90fd698a233a518aa5d07e595d983b8c0526c8f7fb86866040516124f0929190613faf565b60405180910390a460408051602081019091526000905250505050565b6040805160018082528183019092526060916000919060208083019080368337019050509050828160008151811061254757612547613b48565b602090810291909101015292915050565b6001600160a01b03841661257e5760405162461bcd60e51b81526004016108fb90613f26565b33600061258a8561250d565b905060006125978561250d565b90506125a8836000898585896129f0565b60008681526065602090815260408083206001600160a01b038b168452909152812080548792906125da908490613bd1565b909155505060408051878152602081018790526001600160a01b03808a1692600092918716917fc3d58168c5ae7397731d063d5bbf3d657854427343f4c083240f7aacaa2d0f62910160405180910390a461263a83600089898989612d4f565b50505050505050565b61264b611ea9565b60c9805460ff191660011790557f62e78cea01bee320cd4e420270b5ea74000d11b0c9f74754ebdbfc544b05a2586121c93390565b816001600160a01b0316836001600160a01b0316036126f35760405162461bcd60e51b815260206004820152602960248201527f455243313135353a2073657474696e6720617070726f76616c20737461747573604482015268103337b91039b2b63360b91b60648201526084016108fb565b6001600160a01b03838116600081815260666020908152604080832094871680845294825291829020805460ff191686151590811790915591519182527f17307eab39ab6107e8899845ad3d59bd9653f200f220920489ca2b5937696c31910160405180910390a3505050565b6001600160a01b03851633148061277c575061277c8533610806565b6127985760405162461bcd60e51b81526004016108fb90613df7565b61148485858585856121e6565b600054610100900460ff166127cc5760405162461bcd60e51b81526004016108fb906140f3565b610eb881612e0a565b600054610100900460ff16611eef5760405162461bcd60e51b81526004016108fb906140f3565b600054610100900460ff166128235760405162461bcd60e51b81526004016108fb906140f3565b611eef612e3a565b6001600160a01b0383166128515760405162461bcd60e51b81526004016108fb9061406c565b33600061285d8461250d565b9050600061286a8461250d565b905061288a838760008585604051806020016040528060008152506129f0565b60008581526065602090815260408083206001600160a01b038a168452909152902054848110156128cd5760405162461bcd60e51b81526004016108fb906140af565b60008681526065602090815260408083206001600160a01b038b81168086529184528285208a8703905582518b81529384018a90529092908816917fc3d58168c5ae7397731d063d5bbf3d657854427343f4c083240f7aacaa2d0f62910160405180910390a460408051602081019091526000905261263a565b60006001600160e01b03198216636cdb3d1360e11b148061297857506001600160e01b031982166303a24d0760e21b145b8061092957506301ffc9a760e01b6001600160e01b0319831614610929565b6129a182826115e8565b610956576129ae81612e6d565b6129b9836020612e7f565b6040516020016129ca92919061413e565b60408051601f198184030181529082905262461bcd60e51b82526108fb9160040161336b565b6129f8611ea9565b610cd4868686868686613021565b6001600160a01b0384163b15610cd45760405163bc197c8160e01b81526001600160a01b0385169063bc197c8190612a4a90899089908890889088906004016141b3565b6020604051808303816000875af1925050508015612a85575060408051601f3d908101601f19168201909252612a8291810190614211565b60015b612b3157612a9161422e565b806308c379a003612aca5750612aa561424a565b80612ab05750612acc565b8060405162461bcd60e51b81526004016108fb919061336b565b505b60405162461bcd60e51b815260206004820152603460248201527f455243313135353a207472616e7366657220746f206e6f6e2d455243313135356044820152732932b1b2b4bb32b91034b6b83632b6b2b73a32b960611b60648201526084016108fb565b6001600160e01b0319811663bc197c8160e01b1461263a5760405162461bcd60e51b81526004016108fb906142d3565b8151835114612b825760405162461bcd60e51b81526004016108fb90613f67565b6001600160a01b038416612ba85760405162461bcd60e51b81526004016108fb90613fdd565b33612bb78187878787876129f0565b60005b8451811015612ca0576000858281518110612bd757612bd7613b48565b602002602001015190506000858381518110612bf557612bf5613b48565b60209081029190910181015160008481526065835260408082206001600160a01b038e168352909352919091205490915081811015612c465760405162461bcd60e51b81526004016108fb90614022565b60008381526065602090815260408083206001600160a01b038e8116855292528083208585039055908b16825281208054849290612c85908490613bd1565b9250508190555050505080612c9990613bb8565b9050612bba565b50846001600160a01b0316866001600160a01b0316826001600160a01b03167f4a39dc06d4c0dbc64b70af90fd698a233a518aa5d07e595d983b8c0526c8f7fb8787604051612cf0929190613faf565b60405180910390a4610cd4818787878787612a06565b60c95460ff16611eef5760405162461bcd60e51b815260206004820152601460248201527314185d5cd8589b194e881b9bdd081c185d5cd95960621b60448201526064016108fb565b6001600160a01b0384163b15610cd45760405163f23a6e6160e01b81526001600160a01b0385169063f23a6e6190612d93908990899088908890889060040161431b565b6020604051808303816000875af1925050508015612dce575060408051601f3d908101601f19168201909252612dcb91810190614211565b60015b612dda57612a9161422e565b6001600160e01b0319811663f23a6e6160e01b1461263a5760405162461bcd60e51b81526004016108fb906142d3565b600054610100900460ff16612e315760405162461bcd60e51b81526004016108fb906140f3565b610eb881611efb565b600054610100900460ff16612e615760405162461bcd60e51b81526004016108fb906140f3565b60c9805460ff19169055565b60606109296001600160a01b03831660145b60606000612e8e836002613dbe565b612e99906002613bd1565b6001600160401b03811115612eb057612eb0613211565b6040519080825280601f01601f191660200182016040528015612eda576020820181803683370190505b509050600360fc1b81600081518110612ef557612ef5613b48565b60200101906001600160f81b031916908160001a905350600f60fb1b81600181518110612f2457612f24613b48565b60200101906001600160f81b031916908160001a9053506000612f48846002613dbe565b612f53906001613bd1565b90505b6001811115612fcb576f181899199a1a9b1b9c1cb0b131b232b360811b85600f1660108110612f8757612f87613b48565b1a60f81b828281518110612f9d57612f9d613b48565b60200101906001600160f81b031916908160001a90535060049490941c93612fc481614360565b9050612f56565b50831561301a5760405162461bcd60e51b815260206004820181905260248201527f537472696e67733a20686578206c656e67746820696e73756666696369656e7460448201526064016108fb565b9392505050565b6001600160a01b0385166130a95760005b83518110156130a75782818151811061304d5761304d613b48565b602002602001015161012d600086848151811061306c5761306c613b48565b6020026020010151815260200190815260200160002060008282546130919190613bd1565b909155506130a0905081613bb8565b9050613032565b505b6001600160a01b038416610cd45760005b835181101561263a5760008482815181106130d7576130d7613b48565b6020026020010151905060008483815181106130f5576130f5613b48565b60200260200101519050600061012d6000848152602001908152602001600020549050818110156131795760405162461bcd60e51b815260206004820152602860248201527f455243313135353a206275726e20616d6f756e74206578636565647320746f74604482015267616c537570706c7960c01b60648201526084016108fb565b600092835261012d60205260409092209103905561319681613bb8565b90506130ba565b6001600160a01b0381168114610eb857600080fd5b600080604083850312156131c557600080fd5b82356131d08161319d565b946020939093013593505050565b6001600160e01b031981168114610eb857600080fd5b60006020828403121561320657600080fd5b813561301a816131de565b634e487b7160e01b600052604160045260246000fd5b601f8201601f191681016001600160401b038111828210171561324c5761324c613211565b6040525050565b600082601f83011261326457600080fd5b81356001600160401b0381111561327d5761327d613211565b604051613294601f8301601f191660200182613227565b8181528460208386010111156132a957600080fd5b816020850160208301376000918101602001919091529392505050565b6000602082840312156132d857600080fd5b81356001600160401b038111156132ee57600080fd5b6132fa84828501613253565b949350505050565b60006020828403121561331457600080fd5b5035919050565b60005b8381101561333657818101518382015260200161331e565b50506000910152565b6000815180845261335781602086016020860161331b565b601f01601f19169290920160200192915050565b60208152600061301a602083018461333f565b6000806040838503121561339157600080fd5b82356001600160401b038111156133a757600080fd5b6133b385828601613253565b92505060208301356133c48161319d565b809150509250929050565b600080604083850312156133e257600080fd5b50508035926020909101359150565b60006001600160401b0382111561340a5761340a613211565b5060051b60200190565b600082601f83011261342557600080fd5b81356020613432826133f1565b60405161343f8282613227565b83815260059390931b850182019282810191508684111561345f57600080fd5b8286015b8481101561347a5780358352918301918301613463565b509695505050505050565b6000806000806080858703121561349b57600080fd5b84356134a68161319d565b935060208501356001600160401b03808211156134c257600080fd5b6134ce88838901613414565b945060408701359150808211156134e457600080fd5b6134f088838901613414565b9350606087013591508082111561350657600080fd5b5061351387828801613253565b91505092959194509250565b60008083601f84011261353157600080fd5b5081356001600160401b0381111561354857600080fd5b60208301915083602082850101111561356057600080fd5b9250929050565b6000806000806060858703121561357d57600080fd5b84356135888161319d565b93506020850135925060408501356001600160401b038111156135aa57600080fd5b6135b68782880161351f565b95989497509550505050565b600080600080600060a086880312156135da57600080fd5b85356135e58161319d565b945060208601356135f58161319d565b935060408601356001600160401b038082111561361157600080fd5b61361d89838a01613414565b9450606088013591508082111561363357600080fd5b61363f89838a01613414565b9350608088013591508082111561365557600080fd5b5061366288828901613253565b9150509295509295909350565b6000806040838503121561368257600080fd5b8235915060208301356133c48161319d565b6000806000606084860312156136a957600080fd5b8335925060208401356136bb8161319d565b929592945050506040919091013590565b600080604083850312156136df57600080fd5b82356001600160401b03808211156136f657600080fd5b818501915085601f83011261370a57600080fd5b81356020613717826133f1565b6040516137248282613227565b83815260059390931b850182019282810191508984111561374457600080fd5b948201945b8386101561376b57853561375c8161319d565b82529482019490820190613749565b9650508601359250508082111561378157600080fd5b5061378e85828601613414565b9150509250929050565b600081518084526020808501945080840160005b838110156137c8578151875295820195908201906001016137ac565b509495945050505050565b60208152600061301a6020830184613798565b6000806000604084860312156137fb57600080fd5b8335925060208401356001600160401b0381111561381857600080fd5b6138248682870161351f565b9497909650939450505050565b60008060006060848603121561384657600080fd5b83356138518161319d565b925060208401356001600160401b038082111561386d57600080fd5b61387987838801613414565b9350604086013591508082111561388f57600080fd5b5061389c86828701613414565b9150509250925092565b600080600080608085870312156138bc57600080fd5b84356138c78161319d565b9350602085013592506040850135915060608501356001600160401b038111156138f057600080fd5b61351387828801613253565b6000806040838503121561390f57600080fd5b823561391a8161319d565b9150602083013580151581146133c457600080fd5b803561ffff8116811461394157600080fd5b919050565b6000806000806080858703121561395c57600080fd5b84356001600160401b0381111561397257600080fd5b61397e87828801613253565b94505061398d6020860161392f565b9250604085013561399d8161319d565b9396929550929360600135925050565b6000806000606084860312156139c257600080fd5b505081359360208301359350604090920135919050565b600080604083850312156139ec57600080fd5b82356139f78161319d565b915060208301356133c48161319d565b600080600080600060a08688031215613a1f57600080fd5b8535613a2a8161319d565b94506020860135613a3a8161319d565b9350604086013592506060860135915060808601356001600160401b03811115613a6357600080fd5b61366288828901613253565b60008060408385031215613a8257600080fd5b8235613a8d8161319d565b9150613a9b6020840161392f565b90509250929050565b600080600060608486031215613ab957600080fd5b8335613ac48161319d565b95602085013595506040909401359392505050565b600181811c90821680613aed57607f821691505b602082108103613b0d57634e487b7160e01b600052602260045260246000fd5b50919050565b6020808252818101527f452d426f6f6b206973206e6f74206c6973746564206f7220736f6c64206f7574604082015260600190565b634e487b7160e01b600052603260045260246000fd5b60208082526024908201527f455243313135353a2052657175657374656420696420646f65736e277420657860408201526334b9ba1760e11b606082015260800190565b634e487b7160e01b600052601160045260246000fd5b600060018201613bca57613bca613ba2565b5060010190565b8082018082111561092957610929613ba2565b601f821115610a2b57600081815260208120601f850160051c81016020861015613c0b5750805b601f850160051c820191505b81811015610cd457828155600101613c17565b6001600160401b03831115613c4157613c41613211565b613c5583613c4f8354613ad9565b83613be4565b6000601f841160018114613c895760008515613c715750838201355b600019600387901b1c1916600186901b178355611484565b600083815260209020601f19861690835b82811015613cba5786850135825560209485019460019092019101613c9a565b5086821015613cd75760001960f88860031b161c19848701351681555b505060018560011b0183555050505050565b8181038181111561092957610929613ba2565b60208082526032908201527f455243313135353a20496e73756666696369656e742062616c616e636520746f604082015271081d1c985b9cd9995c88185b99081b1a5cdd60721b606082015260800190565b602080825260149082015273125b9d985b1a59081c1c9a58d94bd85b5bdd5b9d60621b604082015260600190565b60208082526022908201527f455243313135353a20457863656564656420616d6f756e7420746f20756e6c696040820152611cdd60f21b606082015260800190565b808202811582820484141761092957610929613ba2565b600082613df257634e487b7160e01b600052601260045260246000fd5b500490565b6020808252602e908201527f455243313135353a2063616c6c6572206973206e6f7420746f6b656e206f776e60408201526d195c881bdc88185c1c1c9bdd995960921b606082015260800190565b61ffff818116838216019080821115613e6057613e60613ba2565b5092915050565b81516001600160401b03811115613e8057613e80613211565b613e9481613e8e8454613ad9565b84613be4565b602080601f831160018114613ec95760008415613eb15750858301515b600019600386901b1c1916600185901b178555610cd4565b600085815260208120601f198616915b82811015613ef857888601518255948401946001909101908401613ed9565b5085821015613f165787850151600019600388901b60f8161c191681555b5050505050600190811b01905550565b60208082526021908201527f455243313135353a206d696e7420746f20746865207a65726f206164647265736040820152607360f81b606082015260800190565b60208082526028908201527f455243313135353a2069647320616e6420616d6f756e7473206c656e677468206040820152670dad2e6dac2e8c6d60c31b606082015260800190565b604081526000613fc26040830185613798565b8281036020840152613fd48185613798565b95945050505050565b60208082526025908201527f455243313135353a207472616e7366657220746f20746865207a65726f206164604082015264647265737360d81b606082015260800190565b6020808252602a908201527f455243313135353a20696e73756666696369656e742062616c616e636520666f60408201526939103a3930b739b332b960b11b606082015260800190565b60208082526023908201527f455243313135353a206275726e2066726f6d20746865207a65726f206164647260408201526265737360e81b606082015260800190565b60208082526024908201527f455243313135353a206275726e20616d6f756e7420657863656564732062616c604082015263616e636560e01b606082015260800190565b6020808252602b908201527f496e697469616c697a61626c653a20636f6e7472616374206973206e6f74206960408201526a6e697469616c697a696e6760a81b606082015260800190565b7f416363657373436f6e74726f6c3a206163636f756e742000000000000000000081526000835161417681601785016020880161331b565b7001034b99036b4b9b9b4b733903937b6329607d1b60179184019182015283516141a781602884016020880161331b565b01602801949350505050565b6001600160a01b0386811682528516602082015260a0604082018190526000906141df90830186613798565b82810360608401526141f18186613798565b90508281036080840152614205818561333f565b98975050505050505050565b60006020828403121561422357600080fd5b815161301a816131de565b600060033d11156142475760046000803e5060005160e01c5b90565b600060443d10156142585790565b6040516003193d81016004833e81513d6001600160401b03816024840111818411171561428757505050505090565b828501915081518181111561429f5750505050505090565b843d87010160208285010111156142b95750505050505090565b6142c860208286010187613227565b509095945050505050565b60208082526028908201527f455243313135353a204552433131353552656365697665722072656a656374656040820152676420746f6b656e7360c01b606082015260800190565b6001600160a01b03868116825285166020820152604081018490526060810183905260a0608082018190526000906143559083018461333f565b979650505050505050565b60008161436f5761436f613ba2565b50600019019056fea2646970667358221220592135fc291a15d9c0b0c18e04a5660f02701f890982523fdb7393f2b662644464736f6c63430008130033",
  "immutableReferences": {},
  "source": "// SPDX-License-Identifier: MIT\npragma solidity ^0.8.7;\n\nimport \"../node_modules/@openzeppelin/contracts-upgradeable/token/ERC1155/ERC1155Upgradeable.sol\";\nimport \"../node_modules/@openzeppelin/contracts-upgradeable/access/AccessControlUpgradeable.sol\";\nimport \"../node_modules/@openzeppelin/contracts-upgradeable/security/PausableUpgradeable.sol\";\nimport \"../node_modules/@openzeppelin/contracts-upgradeable/token/ERC1155/extensions/ERC1155BurnableUpgradeable.sol\";\nimport \"../node_modules/@openzeppelin/contracts-upgradeable/token/ERC1155/extensions/ERC1155SupplyUpgradeable.sol\";\nimport \"../node_modules/@openzeppelin/contracts-upgradeable/proxy/utils/Initializable.sol\";\n\n/// @custom:security-contact dodo920306@gmail.com\ncontract Ohara_Protocol is Initializable, ERC1155Upgradeable, AccessControlUpgradeable, PausableUpgradeable, ERC1155BurnableUpgradeable, ERC1155SupplyUpgradeable {\n    address payable public gnosisSafeAddress; // The address of Ohara Protocol.\n    uint16 public marketFeeRate; // The transaction fee got by Ohara Protocol every tx.\n    uint256 public currentId; // Current Id of book that can be published.\n\n    struct Listing {\n        uint256 price; // \n        uint256 listedBalance; // \n    }\n\n    struct Detail {\n        bytes32 publisher;\n        uint16 revenueFeeRates;\n        address revenueReceiver;\n        uint256 totalAmount;\n    }\n    \n    mapping (uint256 => mapping (address => Listing)) public idToListings; // id => seller => Listing\n    mapping (uint256 => Detail) public idToDetail; // id => Detail\n\n    mapping (uint256 => string) public idToMetadataUrl;\n    mapping (address => mapping (uint256 => string)) public userToBookKeySecret;\n\n    event EBookListed(uint256 indexed id, uint256 indexed amount, uint256 indexed price, address seller);\n    event PriceModified(uint256 indexed id, uint256 indexed originalPrice, uint256 indexed currentPrice, address seller);\n    event ListingCancelled(uint256 indexed id, address indexed seller, uint256 indexed removeAmount);\n    event TransactionMade(uint256 indexed id, address indexed seller, address buyer, uint256 indexed amount);\n\n    modifier isIdExisted(uint256[] memory ids) {\n        for (uint256 i = 0; i < ids.length; ++i) {\n            require(ids[i] < currentId, \"ERC1155: Requested id doesn't exist.\");\n        }\n        _;\n    }\n\n    modifier isAmountValid(uint256 amount) {\n        require(amount > 0, \"Invalid price/amount\");\n        _;\n    }\n\n    modifier isAddressValid(address addr) {\n        require(addr != address(0), \"Invalid address\");\n        _;\n    }\n\n    modifier isEBookAvailable(uint256 id, address seller) {\n        require(idToListings[id][seller].listedBalance > 0, \"E-Book is not listed or sold out\");\n        _;\n    }\n\n    // There's no onlyPublisherSingle, for that it basically equals to onlyRole modifier from AccessControl. \n    modifier onlyPublisherBatch(uint256[] memory ids) {\n        for (uint256 i = 0; i < ids.length; ++i) {\n            _checkRole(idToDetail[ids[i]].publisher);\n        }\n        _;\n    }\n\n    modifier isBalanceValid(address from, uint256[] memory ids, uint256[] memory amounts) {\n        for (uint256 i = 0 ; i < ids.length ; ++i) { // \n            require(balanceOf(from, ids[i]) - idToListings[ids[i]][from].listedBalance >= amounts[i], \"ERC1155: Insufficient balance to transfer and list\");\n        }\n        _;\n    }\n\n    /// @custom:oz-upgrades-unsafe-allow constructor\n    constructor() {\n        _disableInitializers();\n    }\n\n    function initialize(address payable _gnosisSafeAddr, uint16 _marketFeeRate) initializer public {\n        __ERC1155_init(\"\");\n        __AccessControl_init();\n        __Pausable_init();\n        __ERC1155Burnable_init();\n        __ERC1155Supply_init();\n\n        _grantRole(DEFAULT_ADMIN_ROLE, _msgSender());\n        gnosisSafeAddress = _gnosisSafeAddr;\n        marketFeeRate = _marketFeeRate;\n    }\n\n    // Tim: added whenNotPaused\n    function setURI(string memory newuri) public whenNotPaused onlyRole(DEFAULT_ADMIN_ROLE) {\n        _setURI(newuri);\n    }\n\n    /**\n     * @dev The publisher who wants to claim an account belongs to them must use this function\n     * with the magic string that represents themselves.\n     * \n     * The function will uses keccak256 solidity function to hash this string, but before that, it must be represented as bytes32.\n     * The type conversion from \"string memory\" to \"bytes32\" isn't allowed, so we use abi.encode() here.\n     * See https://ethereum.stackexchange.com/questions/119583/when-to-use-abi-encode-abi-encodepacked-or-abi-encodewithsignature-in-solidity\n     * for the reason of this selection.\n     * \n     * After that, we use grantRole() function from AccessControl,\n     * the reason we don't directly use _grantRole() here is because the onlyRole(getRoleAdmin(role)) should also be passed in this operation,\n     * and since grantRole() has that modifier originally, the current function doesn't require any modifier yet,\n     * and there's no need to be afraid that anyone hash others' magic string and directly call grantRole() because there's no way he/she can be the admin.\n     * \n     * If it's the first member to be added in the publisher,\n     * the _msgSender() must be DEFAULT_ADMIN_ROLE to pass onlyRole(getRoleAdmin(role)) for that there's no way to set admin to others.\n     * If so, then the function would call _setRoleAdmin() to release the admin power to the publisher itself,\n     * indicating that from this point on, only the publisher can manage which accounts can act on its behalf.\n     * \n     * The only risk would be that a hacker steal one private key from DEFAULT_ADMIN_ROLE,\n     * in that case, the worse he/she can do is grant his/her accounts the publisher role that \"hasn't been registered yet\",\n     * for that the admins of the publishers already in the protocol can only be themselves.\n     * If so, then the publishers register in the future cannot use the same magic string as the hacker granted himself/herself even if they want.\n     * (Basically, it's the same idea as \"This username has already been used. Please try another.\",\n     * so the power of DEFAULT_ADMIN_ROLE is basically just register publishers and ids.)\n     *\n     */\n    // Tim: added whenNotPaused\n    function grantPublisher(string memory publisher, address account) public virtual whenNotPaused {\n        bytes32 role = keccak256(abi.encode(publisher));\n        grantRole(role, account);\n\n        if (getRoleAdmin(role) == DEFAULT_ADMIN_ROLE) _setRoleAdmin(role, role);\n    }\n\n    /**\n     * @dev See the comment of grantPublisher() above for more info about the string publisher and the bytes32 role.\n     * This function is called when publishing books for transfering idToDetail[currentId].\n     */\n    // Tim: added whenNotPaused\n    function setIdToDetail(string memory publisher, uint16 revenueRate, address revenueReceiver, uint256 amount)\n        public\n        whenNotPaused\n        isAmountValid(amount)\n        onlyRole(DEFAULT_ADMIN_ROLE)\n    {\n        require(revenueRate + marketFeeRate <= 10000, \"ERC1155: The sum of marketFeeRate and revenueRate should not exceed 100.00%\");\n        bytes32 role = keccak256(abi.encode(publisher));\n        idToDetail[currentId++] = Detail({\n            publisher: role,\n            revenueFeeRates: revenueRate,\n            revenueReceiver: revenueReceiver,\n            totalAmount: amount\n        });\n    }\n\n    /**\n     * @dev See the comment of grantPublisher() above for more info about the string publisher and the bytes32 role.\n     * The reason we don't directly call _revokeRole() and the this function is safe is the same reason grantPublisher() doesn't call _grantRole().\n     * Use this function to kick someone including _msgSender() himself/herself out of the publisher.\n     * The function also can only be called by the publisher itself.\n     */\n    // Tim: added whenNotPaused\n    function revokePublisher(string memory publisher, address account) public virtual whenNotPaused {\n        bytes32 role = keccak256(abi.encode(publisher));\n        revokeRole(role, account);\n    }\n\n    // Tim: added two functions to call hasRole() & getRoleAdmin(), not sure if thye're needed\n    // Kirin: They are not needed because they are just imported with AccessControlUpgradeable.\n\n    function pause() public onlyRole(DEFAULT_ADMIN_ROLE) {\n        _pause();\n    }\n\n    function unpause() public onlyRole(DEFAULT_ADMIN_ROLE) {\n        _unpause();\n    }\n\n    // The publisher of the id would have power to mint the id to whoever they want.\n    function mint(address to, uint256 id, uint256 amount, bytes memory data)\n        public\n        whenNotPaused\n        isIdExisted(_asSingletonArray(id))\n        onlyRole(idToDetail[id].publisher)\n    {\n        require(totalSupply(id) + amount <= idToDetail[id].totalAmount, \"ERC1155: Mint amount exceeds.\");\n        _mint(to, id, amount, data);\n    }\n\n    function mintBatch(address to, uint256[] memory ids, uint256[] memory amounts, bytes memory data)\n        public\n        whenNotPaused\n        isIdExisted(ids)\n        onlyPublisherBatch(ids)\n    {\n        for (uint256 i = 0 ; i < ids.length ; ++i) {\n            require(totalSupply(ids[i]) + amounts[i] <= idToDetail[ids[i]].totalAmount, \"ERC1155: Mint amount exceeds.\");\n        }\n        _mintBatch(to, ids, amounts, data);\n    }\n\n    function safeTransferFrom(address from, address to, uint256 id, uint256 amount, bytes memory data) public isBalanceValid(from, _asSingletonArray(id), _asSingletonArray(amount)) override(ERC1155Upgradeable) {\n        super.safeTransferFrom(from, to, id, amount, data);\n    }\n\n    function safeBatchTransferFrom(address from, address to, uint256[] memory ids, uint256[] memory amounts, bytes memory data) public isBalanceValid(from, ids, amounts) override(ERC1155Upgradeable) {\n        super.safeBatchTransferFrom(from, to, ids, amounts, data);\n    }\n\n    function _beforeTokenTransfer(address operator, address from, address to, uint256[] memory ids, uint256[] memory amounts, bytes memory data)\n        internal\n        whenNotPaused\n        override(ERC1155Upgradeable, ERC1155SupplyUpgradeable)\n    {\n        super._beforeTokenTransfer(operator, from, to, ids, amounts, data);\n    }\n\n    function changeMetadataUrl(uint256 id, string calldata newMetadataUrl) public onlyRole(DEFAULT_ADMIN_ROLE) {\n        idToMetadataUrl[id] = newMetadataUrl;\n    }\n\n    function changeBookKeySecret(address user, uint256 id, string calldata key) public onlyRole(DEFAULT_ADMIN_ROLE) {\n        userToBookKeySecret[user][id] = key;\n    }\n\n    // ----------------------- Market functions -----------------------\n    // Tim: \n    function listEBook(uint256 id, uint256 price, uint256 amount) public virtual whenNotPaused isIdExisted(_asSingletonArray(id)) isAddressValid(_msgSender()) isAmountValid(amount) isBalanceValid(_msgSender(), _asSingletonArray(id), _asSingletonArray(amount)) {\n        idToListings[id][_msgSender()].price = price;\n\n        idToListings[id][_msgSender()].listedBalance += amount;\n\n        emit EBookListed(id, amount, price, _msgSender());\n    }\n\n    // Tim: \n    function modifyPrice(uint256 id, uint256 price) public virtual whenNotPaused isAddressValid(_msgSender()) isEBookAvailable(id, _msgSender()) {\n        uint256 originalPrice = idToListings[id][_msgSender()].price;\n        idToListings[id][_msgSender()].price = price;\n\n        emit PriceModified (id, originalPrice, price, _msgSender());\n    }\n\n    // Tim: \n    function cancelListing(uint256 id, uint256 amount) public virtual whenNotPaused isAmountValid(amount) isEBookAvailable(id, _msgSender()) {\n        require(idToListings[id][_msgSender()].listedBalance >= amount, \"ERC1155: Exceeded amount to unlist\"); //  >= \n\n        unchecked {\n            idToListings[id][_msgSender()].listedBalance -= amount;\n        }\n\n        emit ListingCancelled(id, _msgSender(), amount);\n    }\n\n    // Tim: \n    function purchaseEBook(uint256 id, address payable seller, uint256 amount) public payable virtual whenNotPaused isAmountValid(amount) isEBookAvailable(id, seller) {\n        require(idToListings[id][seller].listedBalance >= amount, \"ERC1155: Exceeded amount to unlist\"); //  >= \n\n        // \n        uint256 price = idToListings[id][seller].price * amount; // \n\n        uint256 revenueFee = price * idToDetail[id].revenueFeeRates / 10000; //  =  *  / 10000\n        uint256 marketFee = price * marketFeeRate / 10000; //  =  *  / 10000\n\n        uint256 total = price + revenueFee + marketFee; //  =  +  + \n        require(msg.value >= total, \"Insufficient Ether\");\n\n        // \n        bool sent;\n        _safeTransferFrom(seller, _msgSender(), id, amount, \"\"); // \n        \n        (sent, ) = seller.call{value: price}(\"\"); // \n\n        (sent, ) = gnosisSafeAddress.call{value: marketFee}(\"\"); // \n\n        address payable buyer = payable(_msgSender());\n        address payable revenueReceiver = payable(idToDetail[id].revenueReceiver);\n        (sent, ) = revenueReceiver.call{value: revenueFee}(\"\"); // \n\n        if (msg.value - total > 0) (sent, ) = buyer.call{value: msg.value - total}(\"\"); //  ETH \n\n        require(sent, \"Transfer failed.\");\n        // \n        idToListings[id][seller].listedBalance -= amount;\n\n        emit TransactionMade(id, seller, buyer, amount);\n    }\n\n    receive() external payable {\n        \n    }\n\n    function supportsInterface(bytes4 interfaceId)\n        public\n        view\n        override(ERC1155Upgradeable, AccessControlUpgradeable)\n        returns (bool)\n    {\n        return super.supportsInterface(interfaceId);\n    }\n}",
  "sourcePath": "/home/ubuntu/ohara/contracts/Ohara_Protocol.sol",
  "compiler": {
    "name": "solc",
    "version": "0.8.19+commit.7dd6d404.Emscripten.clang"
  },
  "schemaVersion": "3.4.14",
  "updatedAt": "2023-07-09T12:13:32.518Z",
  "networkType": "ethereum",
  "devdoc": {
    "custom:security-contact": "dodo920306@gmail.com",
    "events": {
      "ApprovalForAll(address,address,bool)": {
        "details": "Emitted when `account` grants or revokes permission to `operator` to transfer their tokens, according to `approved`."
      },
      "Initialized(uint8)": {
        "details": "Triggered when the contract has been initialized or reinitialized."
      },
      "Paused(address)": {
        "details": "Emitted when the pause is triggered by `account`."
      },
      "RoleAdminChanged(bytes32,bytes32,bytes32)": {
        "details": "Emitted when `newAdminRole` is set as ``role``'s admin role, replacing `previousAdminRole` `DEFAULT_ADMIN_ROLE` is the starting admin for all roles, despite {RoleAdminChanged} not being emitted signaling this. _Available since v3.1._"
      },
      "RoleGranted(bytes32,address,address)": {
        "details": "Emitted when `account` is granted `role`. `sender` is the account that originated the contract call, an admin role bearer except when using {AccessControl-_setupRole}."
      },
      "RoleRevoked(bytes32,address,address)": {
        "details": "Emitted when `account` is revoked `role`. `sender` is the account that originated the contract call:   - if using `revokeRole`, it is the admin role bearer   - if using `renounceRole`, it is the role bearer (i.e. `account`)"
      },
      "TransferBatch(address,address,address,uint256[],uint256[])": {
        "details": "Equivalent to multiple {TransferSingle} events, where `operator`, `from` and `to` are the same for all transfers."
      },
      "TransferSingle(address,address,address,uint256,uint256)": {
        "details": "Emitted when `value` tokens of token type `id` are transferred from `from` to `to` by `operator`."
      },
      "URI(string,uint256)": {
        "details": "Emitted when the URI for token type `id` changes to `value`, if it is a non-programmatic URI. If an {URI} event was emitted for `id`, the standard https://eips.ethereum.org/EIPS/eip-1155#metadata-extensions[guarantees] that `value` will equal the value returned by {IERC1155MetadataURI-uri}."
      },
      "Unpaused(address)": {
        "details": "Emitted when the pause is lifted by `account`."
      }
    },
    "kind": "dev",
    "methods": {
      "balanceOf(address,uint256)": {
        "details": "See {IERC1155-balanceOf}. Requirements: - `account` cannot be the zero address."
      },
      "balanceOfBatch(address[],uint256[])": {
        "details": "See {IERC1155-balanceOfBatch}. Requirements: - `accounts` and `ids` must have the same length."
      },
      "constructor": {
        "custom:oz-upgrades-unsafe-allow": "constructor"
      },
      "exists(uint256)": {
        "details": "Indicates whether any token exist with a given id, or not."
      },
      "getRoleAdmin(bytes32)": {
        "details": "Returns the admin role that controls `role`. See {grantRole} and {revokeRole}. To change a role's admin, use {_setRoleAdmin}."
      },
      "grantPublisher(string,address)": {
        "details": "The publisher who wants to claim an account belongs to them must use this function with the magic string that represents themselves.  The function will uses keccak256 solidity function to hash this string, but before that, it must be represented as bytes32. The type conversion from \"string memory\" to \"bytes32\" isn't allowed, so we use abi.encode() here. See https://ethereum.stackexchange.com/questions/119583/when-to-use-abi-encode-abi-encodepacked-or-abi-encodewithsignature-in-solidity for the reason of this selection.  After that, we use grantRole() function from AccessControl, the reason we don't directly use _grantRole() here is because the onlyRole(getRoleAdmin(role)) should also be passed in this operation, and since grantRole() has that modifier originally, the current function doesn't require any modifier yet, and there's no need to be afraid that anyone hash others' magic string and directly call grantRole() because there's no way he/she can be the admin.  If it's the first member to be added in the publisher, the _msgSender() must be DEFAULT_ADMIN_ROLE to pass onlyRole(getRoleAdmin(role)) for that there's no way to set admin to others. If so, then the function would call _setRoleAdmin() to release the admin power to the publisher itself, indicating that from this point on, only the publisher can manage which accounts can act on its behalf.  The only risk would be that a hacker steal one private key from DEFAULT_ADMIN_ROLE, in that case, the worse he/she can do is grant his/her accounts the publisher role that \"hasn't been registered yet\", for that the admins of the publishers already in the protocol can only be themselves. If so, then the publishers register in the future cannot use the same magic string as the hacker granted himself/herself even if they want. (Basically, it's the same idea as \"This username has already been used. Please try another.\", so the power of DEFAULT_ADMIN_ROLE is basically just register publishers and ids.)"
      },
      "grantRole(bytes32,address)": {
        "details": "Grants `role` to `account`. If `account` had not been already granted `role`, emits a {RoleGranted} event. Requirements: - the caller must have ``role``'s admin role. May emit a {RoleGranted} event."
      },
      "hasRole(bytes32,address)": {
        "details": "Returns `true` if `account` has been granted `role`."
      },
      "isApprovedForAll(address,address)": {
        "details": "See {IERC1155-isApprovedForAll}."
      },
      "paused()": {
        "details": "Returns true if the contract is paused, and false otherwise."
      },
      "renounceRole(bytes32,address)": {
        "details": "Revokes `role` from the calling account. Roles are often managed via {grantRole} and {revokeRole}: this function's purpose is to provide a mechanism for accounts to lose their privileges if they are compromised (such as when a trusted device is misplaced). If the calling account had been revoked `role`, emits a {RoleRevoked} event. Requirements: - the caller must be `account`. May emit a {RoleRevoked} event."
      },
      "revokePublisher(string,address)": {
        "details": "See the comment of grantPublisher() above for more info about the string publisher and the bytes32 role. The reason we don't directly call _revokeRole() and the this function is safe is the same reason grantPublisher() doesn't call _grantRole(). Use this function to kick someone including _msgSender() himself/herself out of the publisher. The function also can only be called by the publisher itself."
      },
      "revokeRole(bytes32,address)": {
        "details": "Revokes `role` from `account`. If `account` had been granted `role`, emits a {RoleRevoked} event. Requirements: - the caller must have ``role``'s admin role. May emit a {RoleRevoked} event."
      },
      "safeBatchTransferFrom(address,address,uint256[],uint256[],bytes)": {
        "details": "See {IERC1155-safeBatchTransferFrom}."
      },
      "safeTransferFrom(address,address,uint256,uint256,bytes)": {
        "details": "See {IERC1155-safeTransferFrom}."
      },
      "setApprovalForAll(address,bool)": {
        "details": "See {IERC1155-setApprovalForAll}."
      },
      "setIdToDetail(string,uint16,address,uint256)": {
        "details": "See the comment of grantPublisher() above for more info about the string publisher and the bytes32 role. This function is called when publishing books for transfering idToDetail[currentId]."
      },
      "totalSupply(uint256)": {
        "details": "Total amount of tokens in with a given id."
      },
      "uri(uint256)": {
        "details": "See {IERC1155MetadataURI-uri}. This implementation returns the same URI for *all* token types. It relies on the token type ID substitution mechanism https://eips.ethereum.org/EIPS/eip-1155#metadata[defined in the EIP]. Clients calling this function must replace the `\\{id\\}` substring with the actual token type ID."
      }
    },
    "version": 1
  },
  "userdoc": {
    "kind": "user",
    "methods": {},
    "version": 1
  }
}