{
	"data": {
		"bytecode": {
			"linkReferences": {},
			"object": "60806040526cadc04c56bf30ac9d3c0aaf14dc61016160006101000a81548173ffffffffffffffffffffffffffffffffffffffff021916908373ffffffffffffffffffffffffffffffffffffffff16021790555061016160009054906101000a900473ffffffffffffffffffffffffffffffffffffffff1661016260006101000a81548173ffffffffffffffffffffffffffffffffffffffff021916908373ffffffffffffffffffffffffffffffffffffffff160217905550348015620000c557600080fd5b50620000d6620000dc60201b60201c565b62000287565b600060019054906101000a900460ff16156200012f576040517f08c379a000000000000000000000000000000000000000000000000000000000815260040162000126906200022a565b60405180910390fd5b60ff801660008054906101000a900460ff1660ff161015620001a15760ff6000806101000a81548160ff021916908360ff1602179055507f7f26b83ff96e1f2b6a682f133852f6798a09c465da95921460cefb384740249860ff6040516200019891906200026a565b60405180910390a15b565b600082825260208201905092915050565b7f496e697469616c697a61626c653a20636f6e747261637420697320696e69746960008201527f616c697a696e6700000000000000000000000000000000000000000000000000602082015250565b600062000212602783620001a3565b91506200021f82620001b4565b604082019050919050565b60006020820190508181036000830152620002458162000203565b9050919050565b600060ff82169050919050565b62000264816200024c565b82525050565b600060208201905062000281600083018462000259565b92915050565b61918680620002976000396000f3fe6080604052600436106102875760003560e01c80636543908f1161015a578063a22cb465116100c1578063dfd3cb731161007a578063dfd3cb7314610a5a578063e0e0a2c514610a97578063e985e9c514610ad4578063ef7992bb14610b11578063f242432a14610b3c578063f5298aca14610b6557610287565b8063a22cb4651461092e578063b3a34c4c14610957578063bd85b03914610987578063bdc55bc6146109c4578063ca36fc91146109f4578063d547741f14610a3157610287565b80637d551b23116101135780637d551b231461082b5780638129fc1c146108685780638456cb591461087f5780638c52e8571461089657806391d14854146108c6578063a217fddf1461090357610287565b80636543908f146106f6578063672a41a1146107365780636b20c454146107735780636c9cd0971461079c5780636fcfcb66146107d9578063731133e91461080257610287565b8063248a9ca3116101fe5780634e1273f4116101b75780634e1273f4146105ba5780634f558e79146105f757806350863e8a1461063457806352509e97146106655780635a9807be1461068e5780635c975abb146106cb57610287565b8063248a9ca3146104ba5780632eb2c2d6146104f75780632f2ff15d1461052057806336568abe146105495780633c1dadd9146105725780633f4ba83a146105a357610287565b80630b8a295a116102505780630b8a295a146103955780630e89341c146103d2578063127217d61461040f5780631286c46d14610438578063192c9ef2146104615780631f7fdffa1461049157610287565b8062fdd58e1461028c57806301ad63bd146102c957806301ffc9a7146102f257806302fe53051461032f5780630807a3bd14610358575b600080fd5b34801561029857600080fd5b506102b360048036038101906102ae9190614522565b610b8e565b6040516102c09190614571565b60405180910390f35b3480156102d557600080fd5b506102f060048036038101906102eb91906146d2565b610ba2565b005b3480156102fe57600080fd5b5061031960048036038101906103149190614786565b610c12565b60405161032691906147ce565b60405180910390f35b34801561033b57600080fd5b50610356600480360381019061035191906147e9565b610c24565b005b34801561036457600080fd5b5061037f600480360381019061037a9190614832565b610c46565b60405161038c91906148e7565b60405180910390f35b3480156103a157600080fd5b506103bc60048036038101906103b79190614832565b610c81565b6040516103c991906147ce565b60405180910390f35b3480156103de57600080fd5b506103f960048036038101906103f49190614832565b610c93565b60405161040691906148e7565b60405180910390f35b34801561041b57600080fd5b50610436600480360381019061043191906149aa565b610d27565b005b34801561044457600080fd5b5061045f600480360381019061045a9190614a41565b610d3b565b005b61047b60048036038101906104769190614b53565b610d7d565b6040516104889190614dfc565b60405180910390f35b34801561049d57600080fd5b506104b860048036038101906104b39190614ee1565b610e33565b005b3480156104c657600080fd5b506104e160048036038101906104dc9190614fc8565b610e9c565b6040516104ee9190615004565b60405180910390f35b34801561050357600080fd5b5061051e6004803603810190610519919061501f565b610ebc565b005b34801561052c57600080fd5b50610547600480360381019061054291906150ee565b610f5d565b005b34801561055557600080fd5b50610570600480360381019061056b91906150ee565b610f7e565b005b61058c60048036038101906105879190615184565b611001565b60405161059a92919061531e565b60405180910390f35b3480156105af57600080fd5b506105b86110cb565b005b3480156105c657600080fd5b506105e160048036038101906105dc9190615418565b6110e3565b6040516105ee919061553f565b60405180910390f35b34801561060357600080fd5b5061061e60048036038101906106199190614832565b6110f7565b60405161062b91906147ce565b60405180910390f35b61064e6004803603810190610649919061560d565b61110b565b60405161065c92919061531e565b60405180910390f35b34801561067157600080fd5b5061068c60048036038101906106879190614a41565b6111de565b005b34801561069a57600080fd5b506106b560048036038101906106b09190614832565b611294565b6040516106c29190614571565b60405180910390f35b3480156106d757600080fd5b506106e06112a6565b6040516106ed91906147ce565b60405180910390f35b34801561070257600080fd5b5061071d60048036038101906107189190614fc8565b6112bd565b60405161072d9493929190615731565b60405180910390f35b34801561074257600080fd5b5061075d600480360381019061075891906147e9565b611377565b60405161076a9190615004565b60405180910390f35b34801561077f57600080fd5b5061079a60048036038101906107959190615776565b6113af565b005b3480156107a857600080fd5b506107c360048036038101906107be9190614a41565b6113bf565b6040516107d091906147ce565b60405180910390f35b3480156107e557600080fd5b5061080060048036038101906107fb919061501f565b6113f9565b005b34801561080e57600080fd5b5061082960048036038101906108249190615801565b61140d565b005b34801561083757600080fd5b50610852600480360381019061084d9190615884565b61143e565b60405161085f91906147ce565b60405180910390f35b34801561087457600080fd5b5061087d6114e9565b005b34801561088b57600080fd5b50610894611664565b005b6108b060048036038101906108ab91906158f5565b61167c565b6040516108bd91906147ce565b60405180910390f35b3480156108d257600080fd5b506108ed60048036038101906108e891906150ee565b611730565b6040516108fa91906147ce565b60405180910390f35b34801561090f57600080fd5b5061091861179b565b6040516109259190615004565b60405180910390f35b34801561093a57600080fd5b50610955600480360381019061095091906159c5565b6117a2565b005b610971600480360381019061096c9190615f03565b6117b0565b60405161097e91906147ce565b60405180910390f35b34801561099357600080fd5b506109ae60048036038101906109a99190614832565b61185b565b6040516109bb9190614571565b60405180910390f35b6109de60048036038101906109d99190615f5f565b611879565b6040516109eb9190614dfc565b60405180910390f35b348015610a0057600080fd5b50610a1b6004803603810190610a169190616048565b611938565b604051610a289190615004565b60405180910390f35b348015610a3d57600080fd5b50610a586004803603810190610a5391906150ee565b6119de565b005b348015610a6657600080fd5b50610a816004803603810190610a7c91906160e7565b6119ff565b604051610a8e91906147ce565b60405180910390f35b348015610aa357600080fd5b50610abe6004803603810190610ab99190616134565b611aaa565b604051610acb9190614571565b60405180910390f35b348015610ae057600080fd5b50610afb6004803603810190610af69190616161565b611b50565b604051610b0891906147ce565b60405180910390f35b348015610b1d57600080fd5b50610b26611b64565b604051610b339190614571565b60405180910390f35b348015610b4857600080fd5b50610b636004803603810190610b5e91906149aa565b611bff565b005b348015610b7157600080fd5b50610b8c6004803603810190610b8791906161a1565b611ca0565b005b6000610b9a8383611cb0565b905092915050565b610baa611d79565b61015f600083815260200190815260200160002054610bc881611dc3565b600082604051602001610bdb91906148e7565b6040516020818303038152906040528051906020012090508061015f60008681526020019081526020016000208190555050505050565b6000610c1d82611dd7565b9050919050565b610c2c611d79565b6000801b610c3981611dc3565b610c4282611e51565b5050565b6060610c5182610c93565b610c5a83611e6b565b604051602001610c6b929190616256565b6040516020818303038152906040529050919050565b6000610c8c826110f7565b9050919050565b606060678054610ca2906162b8565b80601f0160208091040260200160405190810160405280929190818152602001828054610cce906162b8565b8015610d1b5780601f10610cf057610100808354040283529160200191610d1b565b820191906000526020600020905b815481529060010190602001808311610cfe57829003601f168201915b50505050509050919050565b610d348585858585611bff565b5050505050565b610d43611d79565b600082604051602001610d5691906148e7565b604051602081830303815290604052805190602001209050610d7881836119de565b505050565b606061016260009054906101000a900473ffffffffffffffffffffffffffffffffffffffff1673ffffffffffffffffffffffffffffffffffffffff1663a8174404868686866040518563ffffffff1660e01b8152600401610de19493929190616cdf565b6000604051808303816000875af1158015610e00573d6000803e3d6000fd5b505050506040513d6000823e3d601f19601f82011682018060405250810190610e299190616f36565b9050949350505050565b8260005b8151811015610e8857610e7761015f6000848481518110610e5b57610e5a616f7f565b5b6020026020010151815260200190815260200160002054611dc3565b80610e8190616fdd565b9050610e37565b50610e9585858585611f39565b5050505050565b600060976000838152602001908152602001600020600101549050919050565b610ec4612166565b73ffffffffffffffffffffffffffffffffffffffff168573ffffffffffffffffffffffffffffffffffffffff161480610f0a5750610f0985610f04612166565b611b50565b5b610f49576040517f08c379a0000000000000000000000000000000000000000000000000000000008152600401610f4090617097565b60405180910390fd5b610f56858585858561216e565b5050505050565b610f6682610e9c565b610f6f81611dc3565b610f798383612492565b505050565b610f86612166565b73ffffffffffffffffffffffffffffffffffffffff168173ffffffffffffffffffffffffffffffffffffffff1614610ff3576040517f08c379a0000000000000000000000000000000000000000000000000000000008152600401610fea90617129565b60405180910390fd5b610ffd8282612573565b5050565b60608061016260009054906101000a900473ffffffffffffffffffffffffffffffffffffffff1673ffffffffffffffffffffffffffffffffffffffff1663ed98a5748b8b8b8b8b8b8b8b6040518963ffffffff1660e01b815260040161106e9897969594939291906171fd565b6000604051808303816000875af115801561108d573d6000803e3d6000fd5b505050506040513d6000823e3d601f19601f820116820180604052508101906110b69190617343565b80925081935050509850989650505050505050565b6000801b6110d881611dc3565b6110e0612655565b50565b60606110ef83836126b8565b905092915050565b6000806111038361185b565b119050919050565b60608061016260009054906101000a900473ffffffffffffffffffffffffffffffffffffffff1673ffffffffffffffffffffffffffffffffffffffff166387201b418e8e8e8e8e8e8e8e8e8e8e6040518c63ffffffff1660e01b815260040161117e9b9a99989796959493929190617890565b6000604051808303816000875af115801561119d573d6000803e3d6000fd5b505050506040513d6000823e3d601f19601f820116820180604052508101906111c69190617343565b80925081935050509b509b9950505050505050505050565b6111e6611d79565b6000826040516020016111f991906148e7565b60405160208183030381529060405280519060200120905061121b8183610f5d565b6101608360405161122c9190617923565b908152602001604051809103902060009054906101000a900460ff1661128f5760016101608460405161125f9190617923565b908152602001604051809103902060006101000a81548160ff02191690831515021790555061128e81826127d1565b5b505050565b600061129f8261185b565b9050919050565b600060c960009054906101000a900460ff16905090565b60008060008061016260009054906101000a900473ffffffffffffffffffffffffffffffffffffffff1673ffffffffffffffffffffffffffffffffffffffff166346423aa7866040518263ffffffff1660e01b815260040161131f9190615004565b608060405180830381865afa15801561133c573d6000803e3d6000fd5b505050506040513d601f19601f82011682018060405250810190611360919061793a565b809450819550829650839750505050509193509193565b60006113a88260405160200161138d91906148e7565b60405160208183030381529060405280519060200120610e9c565b9050919050565b6113ba83838361282d565b505050565b60006113f1836040516020016113d591906148e7565b6040516020818303038152906040528051906020012083611730565b905092915050565b6114068585858585610ebc565b5050505050565b61015f60008481526020019081526020016000205461142b81611dc3565b611437858585856128ca565b5050505050565b600061016260009054906101000a900473ffffffffffffffffffffffffffffffffffffffff1673ffffffffffffffffffffffffffffffffffffffff16638814773284846040518363ffffffff1660e01b815260040161149e9291906179a1565b6020604051808303816000875af11580156114bd573d6000803e3d6000fd5b505050506040513d601f19601f820116820180604052508101906114e191906179c5565b905092915050565b60008060019054906101000a900460ff1615905080801561151a5750600160008054906101000a900460ff1660ff16105b80611547575061152930612a7b565b1580156115465750600160008054906101000a900460ff1660ff16145b5b611586576040517f08c379a000000000000000000000000000000000000000000000000000000000815260040161157d90617a64565b60405180910390fd5b60016000806101000a81548160ff021916908360ff16021790555080156115c3576001600060016101000a81548160ff0219169083151502179055505b6115db60405180602001604052806000815250612a9e565b6115e3612af9565b6115eb612b4a565b6115f3612ba3565b6115fb612bf4565b6116086000801b33612492565b80156116615760008060016101000a81548160ff0219169083151502179055507f7f26b83ff96e1f2b6a682f133852f6798a09c465da95921460cefb384740249860016040516116589190617ad6565b60405180910390a15b50565b6000801b61167181611dc3565b611679612c45565b50565b600061016260009054906101000a900473ffffffffffffffffffffffffffffffffffffffff1673ffffffffffffffffffffffffffffffffffffffff1663e7acab2487878787876040518663ffffffff1660e01b81526004016116e2959493929190617ba1565b6020604051808303816000875af1158015611701573d6000803e3d6000fd5b505050506040513d601f19601f8201168201806040525081019061172591906179c5565b905095945050505050565b60006097600084815260200190815260200160002060000160008373ffffffffffffffffffffffffffffffffffffffff1673ffffffffffffffffffffffffffffffffffffffff16815260200190815260200160002060009054906101000a900460ff16905092915050565b6000801b81565b6117ac8282612ca8565b5050565b600061016260009054906101000a900473ffffffffffffffffffffffffffffffffffffffff1673ffffffffffffffffffffffffffffffffffffffff1663b3a34c4c84846040518363ffffffff1660e01b8152600401611810929190617f93565b6020604051808303816000875af115801561182f573d6000803e3d6000fd5b505050506040513d601f19601f8201168201806040525081019061185391906179c5565b905092915050565b600061012d6000838152602001908152602001600020549050919050565b606061016260009054906101000a900473ffffffffffffffffffffffffffffffffffffffff1673ffffffffffffffffffffffffffffffffffffffff1663f2d12b12898989898989896040518863ffffffff1660e01b81526004016118e39796959493929190617fc3565b6000604051808303816000875af1158015611902573d6000803e3d6000fd5b505050506040513d6000823e3d601f19601f8201168201806040525081019061192b9190616f36565b9050979650505050505050565b600061016260009054906101000a900473ffffffffffffffffffffffffffffffffffffffff1673ffffffffffffffffffffffffffffffffffffffff166379df72bd836040518263ffffffff1660e01b81526004016119969190618175565b602060405180830381865afa1580156119b3573d6000803e3d6000fd5b505050506040513d601f19601f820116820180604052508101906119d79190618197565b9050919050565b6119e782610e9c565b6119f081611dc3565b6119fa8383612573565b505050565b600061016260009054906101000a900473ffffffffffffffffffffffffffffffffffffffff1673ffffffffffffffffffffffffffffffffffffffff1663fd9f1e1084846040518363ffffffff1660e01b8152600401611a5f9291906183ef565b6020604051808303816000875af1158015611a7e573d6000803e3d6000fd5b505050506040513d601f19601f82011682018060405250810190611aa291906179c5565b905092915050565b600061016260009054906101000a900473ffffffffffffffffffffffffffffffffffffffff1673ffffffffffffffffffffffffffffffffffffffff1663f07ec373836040518263ffffffff1660e01b8152600401611b089190618413565b602060405180830381865afa158015611b25573d6000803e3d6000fd5b505050506040513d601f19601f82011682018060405250810190611b49919061842e565b9050919050565b6000611b5c8383612cbe565b905092915050565b600061016260009054906101000a900473ffffffffffffffffffffffffffffffffffffffff1673ffffffffffffffffffffffffffffffffffffffff16635b34b9666040518163ffffffff1660e01b81526004016020604051808303816000875af1158015611bd6573d6000803e3d6000fd5b505050506040513d601f19601f82011682018060405250810190611bfa919061842e565b905090565b611c07612166565b73ffffffffffffffffffffffffffffffffffffffff168573ffffffffffffffffffffffffffffffffffffffff161480611c4d5750611c4c85611c47612166565b611b50565b5b611c8c576040517f08c379a0000000000000000000000000000000000000000000000000000000008152600401611c8390617097565b60405180910390fd5b611c998585858585612d52565b5050505050565b611cab838383612ff0565b505050565b60008073ffffffffffffffffffffffffffffffffffffffff168373ffffffffffffffffffffffffffffffffffffffff1603611d20576040517f08c379a0000000000000000000000000000000000000000000000000000000008152600401611d17906184cd565b60405180910390fd5b6065600083815260200190815260200160002060008473ffffffffffffffffffffffffffffffffffffffff1673ffffffffffffffffffffffffffffffffffffffff16815260200190815260200160002054905092915050565b611d816112a6565b15611dc1576040517f08c379a0000000000000000000000000000000000000000000000000000000008152600401611db890618539565b60405180910390fd5b565b611dd481611dcf612166565b61308d565b50565b60007f7965db0b000000000000000000000000000000000000000000000000000000007bffffffffffffffffffffffffffffffffffffffffffffffffffffffff1916827bffffffffffffffffffffffffffffffffffffffffffffffffffffffff19161480611e4a5750611e4982613112565b5b9050919050565b8060679080519060200190611e679291906143d7565b5050565b606060006001611e7a846131f4565b01905060008167ffffffffffffffff811115611e9957611e986145a7565b5b6040519080825280601f01601f191660200182016040528015611ecb5781602001600182028036833780820191505090505b509050600082602001820190505b600115611f2e578080600190039150507f3031323334353637383961626364656600000000000000000000000000000000600a86061a8153600a8581611f2257611f21618559565b5b04945060008503611ed9575b819350505050919050565b600073ffffffffffffffffffffffffffffffffffffffff168473ffffffffffffffffffffffffffffffffffffffff1603611fa8576040517f08c379a0000000000000000000000000000000000000000000000000000000008152600401611f9f906185fa565b60405180910390fd5b8151835114611fec576040517f08c379a0000000000000000000000000000000000000000000000000000000008152600401611fe39061868c565b60405180910390fd5b6000611ff6612166565b905061200781600087878787613347565b60005b84518110156120c15783818151811061202657612025616f7f565b5b60200260200101516065600087848151811061204557612044616f7f565b5b6020026020010151815260200190815260200160002060008873ffffffffffffffffffffffffffffffffffffffff1673ffffffffffffffffffffffffffffffffffffffff16815260200190815260200160002060008282546120a791906186ac565b9250508190555080806120b990616fdd565b91505061200a565b508473ffffffffffffffffffffffffffffffffffffffff16600073ffffffffffffffffffffffffffffffffffffffff168273ffffffffffffffffffffffffffffffffffffffff167f4a39dc06d4c0dbc64b70af90fd698a233a518aa5d07e595d983b8c0526c8f7fb8787604051612139929190618702565b60405180910390a461215081600087878787613365565b61215f8160008787878761336d565b5050505050565b600033905090565b81518351146121b2576040517f08c379a00000000000000000000000000000000000000000000000000000000081526004016121a99061868c565b60405180910390fd5b600073ffffffffffffffffffffffffffffffffffffffff168473ffffffffffffffffffffffffffffffffffffffff1603612221576040517f08c379a0000000000000000000000000000000000000000000000000000000008152600401612218906187ab565b60405180910390fd5b600061222b612166565b905061223b818787878787613347565b60005b84518110156123ef57600085828151811061225c5761225b616f7f565b5b60200260200101519050600085838151811061227b5761227a616f7f565b5b6020026020010151905060006065600084815260200190815260200160002060008b73ffffffffffffffffffffffffffffffffffffffff1673ffffffffffffffffffffffffffffffffffffffff1681526020019081526020016000205490508181101561231d576040517f08c379a00000000000000000000000000000000000000000000000000000000081526004016123149061883d565b60405180910390fd5b8181036065600085815260200190815260200160002060008c73ffffffffffffffffffffffffffffffffffffffff1673ffffffffffffffffffffffffffffffffffffffff16815260200190815260200160002081905550816065600085815260200190815260200160002060008b73ffffffffffffffffffffffffffffffffffffffff1673ffffffffffffffffffffffffffffffffffffffff16815260200190815260200160002060008282546123d491906186ac565b92505081905550505050806123e890616fdd565b905061223e565b508473ffffffffffffffffffffffffffffffffffffffff168673ffffffffffffffffffffffffffffffffffffffff168273ffffffffffffffffffffffffffffffffffffffff167f4a39dc06d4c0dbc64b70af90fd698a233a518aa5d07e595d983b8c0526c8f7fb8787604051612466929190618702565b60405180910390a461247c818787878787613365565b61248a81878787878761336d565b505050505050565b61249c8282611730565b61256f5760016097600084815260200190815260200160002060000160008373ffffffffffffffffffffffffffffffffffffffff1673ffffffffffffffffffffffffffffffffffffffff16815260200190815260200160002060006101000a81548160ff021916908315150217905550612514612166565b73ffffffffffffffffffffffffffffffffffffffff168173ffffffffffffffffffffffffffffffffffffffff16837f2f8788117e7eff1d82e926ec794901d17c78024a50270940304540a733656f0d60405160405180910390a45b5050565b61257d8282611730565b156126515760006097600084815260200190815260200160002060000160008373ffffffffffffffffffffffffffffffffffffffff1673ffffffffffffffffffffffffffffffffffffffff16815260200190815260200160002060006101000a81548160ff0219169083151502179055506125f6612166565b73ffffffffffffffffffffffffffffffffffffffff168173ffffffffffffffffffffffffffffffffffffffff16837ff6391f5c32d9c69d2a47ea670b442974b53935d1edc7fd64eb21e047a839171b60405160405180910390a45b5050565b61265d613544565b600060c960006101000a81548160ff0219169083151502179055507f5db9ee0a495bf2e6ff9c91a7834c1ba4fdd244a5e8aa4e537bd38aeae4b073aa6126a1612166565b6040516126ae9190618413565b60405180910390a1565b606081518351146126fe576040517f08c379a00000000000000000000000000000000000000000000000000000000081526004016126f5906188cf565b60405180910390fd5b6000835167ffffffffffffffff81111561271b5761271a6145a7565b5b6040519080825280602002602001820160405280156127495781602001602082028036833780820191505090505b50905060005b84518110156127c65761279685828151811061276e5761276d616f7f565b5b602002602001015185838151811061278957612788616f7f565b5b6020026020010151610b8e565b8282815181106127a9576127a8616f7f565b5b602002602001018181525050806127bf90616fdd565b905061274f565b508091505092915050565b60006127dc83610e9c565b90508160976000858152602001908152602001600020600101819055508181847fbd79b86ffe0ab8e8776151514217cd7cacd52c909f66475c3af44e129f0b00ff60405160405180910390a4505050565b612835612166565b73ffffffffffffffffffffffffffffffffffffffff168373ffffffffffffffffffffffffffffffffffffffff16148061287b575061287a83612875612166565b611b50565b5b6128ba576040517f08c379a00000000000000000000000000000000000000000000000000000000081526004016128b190617097565b60405180910390fd5b6128c583838361358d565b505050565b600073ffffffffffffffffffffffffffffffffffffffff168473ffffffffffffffffffffffffffffffffffffffff1603612939576040517f08c379a0000000000000000000000000000000000000000000000000000000008152600401612930906185fa565b60405180910390fd5b6000612943612166565b905060006129508561385d565b9050600061295d8561385d565b905061296e83600089858589613347565b846065600088815260200190815260200160002060008973ffffffffffffffffffffffffffffffffffffffff1673ffffffffffffffffffffffffffffffffffffffff16815260200190815260200160002060008282546129ce91906186ac565b925050819055508673ffffffffffffffffffffffffffffffffffffffff16600073ffffffffffffffffffffffffffffffffffffffff168473ffffffffffffffffffffffffffffffffffffffff167fc3d58168c5ae7397731d063d5bbf3d657854427343f4c083240f7aacaa2d0f628989604051612a4c9291906188ef565b60405180910390a4612a6383600089858589613365565b612a72836000898989896138d7565b50505050505050565b6000808273ffffffffffffffffffffffffffffffffffffffff163b119050919050565b600060019054906101000a900460ff16612aed576040517f08c379a0000000000000000000000000000000000000000000000000000000008152600401612ae49061898a565b60405180910390fd5b612af681613aae565b50565b600060019054906101000a900460ff16612b48576040517f08c379a0000000000000000000000000000000000000000000000000000000008152600401612b3f9061898a565b60405180910390fd5b565b600060019054906101000a900460ff16612b99576040517f08c379a0000000000000000000000000000000000000000000000000000000008152600401612b909061898a565b60405180910390fd5b612ba1613b09565b565b600060019054906101000a900460ff16612bf2576040517f08c379a0000000000000000000000000000000000000000000000000000000008152600401612be99061898a565b60405180910390fd5b565b600060019054906101000a900460ff16612c43576040517f08c379a0000000000000000000000000000000000000000000000000000000008152600401612c3a9061898a565b60405180910390fd5b565b612c4d611d79565b600160c960006101000a81548160ff0219169083151502179055507f62e78cea01bee320cd4e420270b5ea74000d11b0c9f74754ebdbfc544b05a258612c91612166565b604051612c9e9190618413565b60405180910390a1565b612cba612cb3612166565b8383613b75565b5050565b6000606660008473ffffffffffffffffffffffffffffffffffffffff1673ffffffffffffffffffffffffffffffffffffffff16815260200190815260200160002060008373ffffffffffffffffffffffffffffffffffffffff1673ffffffffffffffffffffffffffffffffffffffff16815260200190815260200160002060009054906101000a900460ff16905092915050565b600073ffffffffffffffffffffffffffffffffffffffff168473ffffffffffffffffffffffffffffffffffffffff1603612dc1576040517f08c379a0000000000000000000000000000000000000000000000000000000008152600401612db8906187ab565b60405180910390fd5b6000612dcb612166565b90506000612dd88561385d565b90506000612de58561385d565b9050612df5838989858589613347565b60006065600088815260200190815260200160002060008a73ffffffffffffffffffffffffffffffffffffffff1673ffffffffffffffffffffffffffffffffffffffff16815260200190815260200160002054905085811015612e8d576040517f08c379a0000000000000000000000000000000000000000000000000000000008152600401612e849061883d565b60405180910390fd5b8581036065600089815260200190815260200160002060008b73ffffffffffffffffffffffffffffffffffffffff1673ffffffffffffffffffffffffffffffffffffffff16815260200190815260200160002081905550856065600089815260200190815260200160002060008a73ffffffffffffffffffffffffffffffffffffffff1673ffffffffffffffffffffffffffffffffffffffff1681526020019081526020016000206000828254612f4491906186ac565b925050819055508773ffffffffffffffffffffffffffffffffffffffff168973ffffffffffffffffffffffffffffffffffffffff168573ffffffffffffffffffffffffffffffffffffffff167fc3d58168c5ae7397731d063d5bbf3d657854427343f4c083240f7aacaa2d0f628a8a604051612fc19291906188ef565b60405180910390a4612fd7848a8a86868a613365565b612fe5848a8a8a8a8a6138d7565b505050505050505050565b612ff8612166565b73ffffffffffffffffffffffffffffffffffffffff168373ffffffffffffffffffffffffffffffffffffffff16148061303e575061303d83613038612166565b611b50565b5b61307d576040517f08c379a000000000000000000000000000000000000000000000000000000000815260040161307490617097565b60405180910390fd5b613088838383613ce1565b505050565b6130978282611730565b61310e576130a481613f29565b6130b28360001c6020613f56565b6040516020016130c3929190618a42565b6040516020818303038152906040526040517f08c379a000000000000000000000000000000000000000000000000000000000815260040161310591906148e7565b60405180910390fd5b5050565b60007fd9b67a26000000000000000000000000000000000000000000000000000000007bffffffffffffffffffffffffffffffffffffffffffffffffffffffff1916827bffffffffffffffffffffffffffffffffffffffffffffffffffffffff191614806131dd57507f0e89341c000000000000000000000000000000000000000000000000000000007bffffffffffffffffffffffffffffffffffffffffffffffffffffffff1916827bffffffffffffffffffffffffffffffffffffffffffffffffffffffff1916145b806131ed57506131ec82614192565b5b9050919050565b600080600090507a184f03e93ff9f4daa797ed6e38ed64bf6a1f0100000000000000008310613252577a184f03e93ff9f4daa797ed6e38ed64bf6a1f010000000000000000838161324857613247618559565b5b0492506040810190505b6d04ee2d6d415b85acef8100000000831061328f576d04ee2d6d415b85acef8100000000838161328557613284618559565b5b0492506020810190505b662386f26fc1000083106132be57662386f26fc1000083816132b4576132b3618559565b5b0492506010810190505b6305f5e10083106132e7576305f5e10083816132dd576132dc618559565b5b0492506008810190505b612710831061330c57612710838161330257613301618559565b5b0492506004810190505b6064831061332f576064838161332557613324618559565b5b0492506002810190505b600a831061333e576001810190505b80915050919050565b61334f611d79565b61335d8686868686866141fc565b505050505050565b505050505050565b61338c8473ffffffffffffffffffffffffffffffffffffffff16612a7b565b1561353c578373ffffffffffffffffffffffffffffffffffffffff1663bc197c8187878686866040518663ffffffff1660e01b81526004016133d2959493929190618ac6565b6020604051808303816000875af192505050801561340e57506040513d601f19601f8201168201806040525081019061340b9190618b43565b60015b6134b35761341a618b7d565b806308c379a003613476575061342e618b9f565b806134395750613478565b806040517f08c379a000000000000000000000000000000000000000000000000000000000815260040161346d91906148e7565b60405180910390fd5b505b6040517f08c379a00000000000000000000000000000000000000000000000000000000081526004016134aa90618ca1565b60405180910390fd5b63bc197c8160e01b7bffffffffffffffffffffffffffffffffffffffffffffffffffffffff1916817bffffffffffffffffffffffffffffffffffffffffffffffffffffffff19161461353a576040517f08c379a000000000000000000000000000000000000000000000000000000000815260040161353190618d33565b60405180910390fd5b505b505050505050565b61354c6112a6565b61358b576040517f08c379a000000000000000000000000000000000000000000000000000000000815260040161358290618d9f565b60405180910390fd5b565b600073ffffffffffffffffffffffffffffffffffffffff168373ffffffffffffffffffffffffffffffffffffffff16036135fc576040517f08c379a00000000000000000000000000000000000000000000000000000000081526004016135f390618e31565b60405180910390fd5b8051825114613640576040517f08c379a00000000000000000000000000000000000000000000000000000000081526004016136379061868c565b60405180910390fd5b600061364a612166565b905061366a81856000868660405180602001604052806000815250613347565b60005b83518110156137b957600084828151811061368b5761368a616f7f565b5b6020026020010151905060008483815181106136aa576136a9616f7f565b5b6020026020010151905060006065600084815260200190815260200160002060008973ffffffffffffffffffffffffffffffffffffffff1673ffffffffffffffffffffffffffffffffffffffff1681526020019081526020016000205490508181101561374c576040517f08c379a000000000000000000000000000000000000000000000000000000000815260040161374390618ec3565b60405180910390fd5b8181036065600085815260200190815260200160002060008a73ffffffffffffffffffffffffffffffffffffffff1673ffffffffffffffffffffffffffffffffffffffff1681526020019081526020016000208190555050505080806137b190616fdd565b91505061366d565b50600073ffffffffffffffffffffffffffffffffffffffff168473ffffffffffffffffffffffffffffffffffffffff168273ffffffffffffffffffffffffffffffffffffffff167f4a39dc06d4c0dbc64b70af90fd698a233a518aa5d07e595d983b8c0526c8f7fb8686604051613831929190618702565b60405180910390a461385781856000868660405180602001604052806000815250613365565b50505050565b60606000600167ffffffffffffffff81111561387c5761387b6145a7565b5b6040519080825280602002602001820160405280156138aa5781602001602082028036833780820191505090505b50905082816000815181106138c2576138c1616f7f565b5b60200260200101818152505080915050919050565b6138f68473ffffffffffffffffffffffffffffffffffffffff16612a7b565b15613aa6578373ffffffffffffffffffffffffffffffffffffffff1663f23a6e6187878686866040518663ffffffff1660e01b815260040161393c959493929190618ee3565b6020604051808303816000875af192505050801561397857506040513d601f19601f820116820180604052508101906139759190618b43565b60015b613a1d57613984618b7d565b806308c379a0036139e05750613998618b9f565b806139a357506139e2565b806040517f08c379a00000000000000000000000000000000000000000000000000000000081526004016139d791906148e7565b60405180910390fd5b505b6040517f08c379a0000000000000000000000000000000000000000000000000000000008152600401613a1490618ca1565b60405180910390fd5b63f23a6e6160e01b7bffffffffffffffffffffffffffffffffffffffffffffffffffffffff1916817bffffffffffffffffffffffffffffffffffffffffffffffffffffffff191614613aa4576040517f08c379a0000000000000000000000000000000000000000000000000000000008152600401613a9b90618d33565b60405180910390fd5b505b505050505050565b600060019054906101000a900460ff16613afd576040517f08c379a0000000000000000000000000000000000000000000000000000000008152600401613af49061898a565b60405180910390fd5b613b0681611e51565b50565b600060019054906101000a900460ff16613b58576040517f08c379a0000000000000000000000000000000000000000000000000000000008152600401613b4f9061898a565b60405180910390fd5b600060c960006101000a81548160ff021916908315150217905550565b8173ffffffffffffffffffffffffffffffffffffffff168373ffffffffffffffffffffffffffffffffffffffff1603613be3576040517f08c379a0000000000000000000000000000000000000000000000000000000008152600401613bda90618faf565b60405180910390fd5b80606660008573ffffffffffffffffffffffffffffffffffffffff1673ffffffffffffffffffffffffffffffffffffffff16815260200190815260200160002060008473ffffffffffffffffffffffffffffffffffffffff1673ffffffffffffffffffffffffffffffffffffffff16815260200190815260200160002060006101000a81548160ff0219169083151502179055508173ffffffffffffffffffffffffffffffffffffffff168373ffffffffffffffffffffffffffffffffffffffff167f17307eab39ab6107e8899845ad3d59bd9653f200f220920489ca2b5937696c3183604051613cd491906147ce565b60405180910390a3505050565b600073ffffffffffffffffffffffffffffffffffffffff168373ffffffffffffffffffffffffffffffffffffffff1603613d50576040517f08c379a0000000000000000000000000000000000000000000000000000000008152600401613d4790618e31565b60405180910390fd5b6000613d5a612166565b90506000613d678461385d565b90506000613d748461385d565b9050613d9483876000858560405180602001604052806000815250613347565b60006065600087815260200190815260200160002060008873ffffffffffffffffffffffffffffffffffffffff1673ffffffffffffffffffffffffffffffffffffffff16815260200190815260200160002054905084811015613e2c576040517f08c379a0000000000000000000000000000000000000000000000000000000008152600401613e2390618ec3565b60405180910390fd5b8481036065600088815260200190815260200160002060008973ffffffffffffffffffffffffffffffffffffffff1673ffffffffffffffffffffffffffffffffffffffff16815260200190815260200160002081905550600073ffffffffffffffffffffffffffffffffffffffff168773ffffffffffffffffffffffffffffffffffffffff168573ffffffffffffffffffffffffffffffffffffffff167fc3d58168c5ae7397731d063d5bbf3d657854427343f4c083240f7aacaa2d0f628989604051613efa9291906188ef565b60405180910390a4613f2084886000868660405180602001604052806000815250613365565b50505050505050565b6060613f4f8273ffffffffffffffffffffffffffffffffffffffff16601460ff16613f56565b9050919050565b606060006002836002613f699190618fcf565b613f7391906186ac565b67ffffffffffffffff811115613f8c57613f8b6145a7565b5b6040519080825280601f01601f191660200182016040528015613fbe5781602001600182028036833780820191505090505b5090507f300000000000000000000000000000000000000000000000000000000000000081600081518110613ff657613ff5616f7f565b5b60200101907effffffffffffffffffffffffffffffffffffffffffffffffffffffffffffff1916908160001a9053507f78000000000000000000000000000000000000000000000000000000000000008160018151811061405a57614059616f7f565b5b60200101907effffffffffffffffffffffffffffffffffffffffffffffffffffffffffffff1916908160001a9053506000600184600261409a9190618fcf565b6140a491906186ac565b90505b6001811115614144577f3031323334353637383961626364656600000000000000000000000000000000600f8616601081106140e6576140e5616f7f565b5b1a60f81b8282815181106140fd576140fc616f7f565b5b60200101907effffffffffffffffffffffffffffffffffffffffffffffffffffffffffffff1916908160001a905350600485901c94508061413d90619029565b90506140a7565b5060008414614188576040517f08c379a000000000000000000000000000000000000000000000000000000000815260040161417f9061909e565b60405180910390fd5b8091505092915050565b60007f01ffc9a7000000000000000000000000000000000000000000000000000000007bffffffffffffffffffffffffffffffffffffffffffffffffffffffff1916827bffffffffffffffffffffffffffffffffffffffffffffffffffffffff1916149050919050565b61420a8686868686866143cf565b600073ffffffffffffffffffffffffffffffffffffffff168573ffffffffffffffffffffffffffffffffffffffff16036142bc5760005b83518110156142ba5782818151811061425d5761425c616f7f565b5b602002602001015161012d600086848151811061427d5761427c616f7f565b5b6020026020010151815260200190815260200160002060008282546142a291906186ac565b92505081905550806142b390616fdd565b9050614241565b505b600073ffffffffffffffffffffffffffffffffffffffff168473ffffffffffffffffffffffffffffffffffffffff16036143c75760005b83518110156143c557600084828151811061431157614310616f7f565b5b6020026020010151905060008483815181106143305761432f616f7f565b5b60200260200101519050600061012d600084815260200190815260200160002054905081811015614396576040517f08c379a000000000000000000000000000000000000000000000000000000000815260040161438d90619130565b60405180910390fd5b81810361012d600085815260200190815260200160002081905550505050806143be90616fdd565b90506142f3565b505b505050505050565b505050505050565b8280546143e3906162b8565b90600052602060002090601f016020900481019282614405576000855561444c565b82601f1061441e57805160ff191683800117855561444c565b8280016001018555821561444c579182015b8281111561444b578251825591602001919060010190614430565b5b509050614459919061445d565b5090565b5b8082111561447657600081600090555060010161445e565b5090565b6000604051905090565b600080fd5b600080fd5b600073ffffffffffffffffffffffffffffffffffffffff82169050919050565b60006144b98261448e565b9050919050565b6144c9816144ae565b81146144d457600080fd5b50565b6000813590506144e6816144c0565b92915050565b6000819050919050565b6144ff816144ec565b811461450a57600080fd5b50565b60008135905061451c816144f6565b92915050565b6000806040838503121561453957614538614484565b5b6000614547858286016144d7565b92505060206145588582860161450d565b9150509250929050565b61456b816144ec565b82525050565b60006020820190506145866000830184614562565b92915050565b600080fd5b600080fd5b6000601f19601f8301169050919050565b7f4e487b7100000000000000000000000000000000000000000000000000000000600052604160045260246000fd5b6145df82614596565b810181811067ffffffffffffffff821117156145fe576145fd6145a7565b5b80604052505050565b600061461161447a565b905061461d82826145d6565b919050565b600067ffffffffffffffff82111561463d5761463c6145a7565b5b61464682614596565b9050602081019050919050565b82818337600083830152505050565b600061467561467084614622565b614607565b90508281526020810184848401111561469157614690614591565b5b61469c848285614653565b509392505050565b600082601f8301126146b9576146b861458c565b5b81356146c9848260208601614662565b91505092915050565b600080604083850312156146e9576146e8614484565b5b60006146f78582860161450d565b925050602083013567ffffffffffffffff81111561471857614717614489565b5b614724858286016146a4565b9150509250929050565b60007fffffffff0000000000000000000000000000000000000000000000000000000082169050919050565b6147638161472e565b811461476e57600080fd5b50565b6000813590506147808161475a565b92915050565b60006020828403121561479c5761479b614484565b5b60006147aa84828501614771565b91505092915050565b60008115159050919050565b6147c8816147b3565b82525050565b60006020820190506147e360008301846147bf565b92915050565b6000602082840312156147ff576147fe614484565b5b600082013567ffffffffffffffff81111561481d5761481c614489565b5b614829848285016146a4565b91505092915050565b60006020828403121561484857614847614484565b5b60006148568482850161450d565b91505092915050565b600081519050919050565b600082825260208201905092915050565b60005b8381101561489957808201518184015260208101905061487e565b838111156148a8576000848401525b50505050565b60006148b98261485f565b6148c3818561486a565b93506148d381856020860161487b565b6148dc81614596565b840191505092915050565b6000602082019050818103600083015261490181846148ae565b905092915050565b600067ffffffffffffffff821115614924576149236145a7565b5b61492d82614596565b9050602081019050919050565b600061494d61494884614909565b614607565b90508281526020810184848401111561496957614968614591565b5b614974848285614653565b509392505050565b600082601f8301126149915761499061458c565b5b81356149a184826020860161493a565b91505092915050565b600080600080600060a086880312156149c6576149c5614484565b5b60006149d4888289016144d7565b95505060206149e5888289016144d7565b94505060406149f68882890161450d565b9350506060614a078882890161450d565b925050608086013567ffffffffffffffff811115614a2857614a27614489565b5b614a348882890161497c565b9150509295509295909350565b60008060408385031215614a5857614a57614484565b5b600083013567ffffffffffffffff811115614a7657614a75614489565b5b614a82858286016146a4565b9250506020614a93858286016144d7565b9150509250929050565b600080fd5b600080fd5b60008083601f840112614abd57614abc61458c565b5b8235905067ffffffffffffffff811115614ada57614ad9614a9d565b5b602083019150836020820283011115614af657614af5614aa2565b5b9250929050565b60008083601f840112614b1357614b1261458c565b5b8235905067ffffffffffffffff811115614b3057614b2f614a9d565b5b602083019150836020820283011115614b4c57614b4b614aa2565b5b9250929050565b60008060008060408587031215614b6d57614b6c614484565b5b600085013567ffffffffffffffff811115614b8b57614b8a614489565b5b614b9787828801614aa7565b9450945050602085013567ffffffffffffffff811115614bba57614bb9614489565b5b614bc687828801614afd565b925092505092959194509250565b600081519050919050565b600082825260208201905092915050565b6000819050602082019050919050565b7f4e487b7100000000000000000000000000000000000000000000000000000000600052602160045260246000fd5b60068110614c4057614c3f614c00565b5b50565b6000819050614c5182614c2f565b919050565b6000614c6182614c43565b9050919050565b614c7181614c56565b82525050565b614c80816144ae565b82525050565b614c8f816144ec565b82525050565b6000614ca08261448e565b9050919050565b614cb081614c95565b82525050565b60a082016000820151614ccc6000850182614c68565b506020820151614cdf6020850182614c77565b506040820151614cf26040850182614c86565b506060820151614d056060850182614c86565b506080820151614d186080850182614ca7565b50505050565b6000819050919050565b614d3181614d1e565b82525050565b60e082016000820151614d4d6000850182614cb6565b506020820151614d6060a0850182614c77565b506040820151614d7360c0850182614d28565b50505050565b6000614d858383614d37565b60e08301905092915050565b6000602082019050919050565b6000614da982614bd4565b614db38185614bdf565b9350614dbe83614bf0565b8060005b83811015614def578151614dd68882614d79565b9750614de183614d91565b925050600181019050614dc2565b5085935050505092915050565b60006020820190508181036000830152614e168184614d9e565b905092915050565b600067ffffffffffffffff821115614e3957614e386145a7565b5b602082029050602081019050919050565b6000614e5d614e5884614e1e565b614607565b90508083825260208201905060208402830185811115614e8057614e7f614aa2565b5b835b81811015614ea95780614e95888261450d565b845260208401935050602081019050614e82565b5050509392505050565b600082601f830112614ec857614ec761458c565b5b8135614ed8848260208601614e4a565b91505092915050565b60008060008060808587031215614efb57614efa614484565b5b6000614f09878288016144d7565b945050602085013567ffffffffffffffff811115614f2a57614f29614489565b5b614f3687828801614eb3565b935050604085013567ffffffffffffffff811115614f5757614f56614489565b5b614f6387828801614eb3565b925050606085013567ffffffffffffffff811115614f8457614f83614489565b5b614f908782880161497c565b91505092959194509250565b614fa581614d1e565b8114614fb057600080fd5b50565b600081359050614fc281614f9c565b92915050565b600060208284031215614fde57614fdd614484565b5b6000614fec84828501614fb3565b91505092915050565b614ffe81614d1e565b82525050565b60006020820190506150196000830184614ff5565b92915050565b600080600080600060a0868803121561503b5761503a614484565b5b6000615049888289016144d7565b955050602061505a888289016144d7565b945050604086013567ffffffffffffffff81111561507b5761507a614489565b5b61508788828901614eb3565b935050606086013567ffffffffffffffff8111156150a8576150a7614489565b5b6150b488828901614eb3565b925050608086013567ffffffffffffffff8111156150d5576150d4614489565b5b6150e18882890161497c565b9150509295509295909350565b6000806040838503121561510557615104614484565b5b600061511385828601614fb3565b9250506020615124858286016144d7565b9150509250929050565b60008083601f8401126151445761514361458c565b5b8235905067ffffffffffffffff81111561516157615160614a9d565b5b60208301915083602082028301111561517d5761517c614aa2565b5b9250929050565b60008060008060008060008060a0898b0312156151a4576151a3614484565b5b600089013567ffffffffffffffff8111156151c2576151c1614489565b5b6151ce8b828c01614aa7565b9850985050602089013567ffffffffffffffff8111156151f1576151f0614489565b5b6151fd8b828c0161512e565b9650965050604089013567ffffffffffffffff8111156152205761521f614489565b5b61522c8b828c0161512e565b9450945050606061523f8b828c01614fb3565b92505060806152508b828c0161450d565b9150509295985092959890939650565b600081519050919050565b600082825260208201905092915050565b6000819050602082019050919050565b615295816147b3565b82525050565b60006152a7838361528c565b60208301905092915050565b6000602082019050919050565b60006152cb82615260565b6152d5818561526b565b93506152e08361527c565b8060005b838110156153115781516152f8888261529b565b9750615303836152b3565b9250506001810190506152e4565b5085935050505092915050565b6000604082019050818103600083015261533881856152c0565b9050818103602083015261534c8184614d9e565b90509392505050565b600067ffffffffffffffff8211156153705761536f6145a7565b5b602082029050602081019050919050565b600061539461538f84615355565b614607565b905080838252602082019050602084028301858111156153b7576153b6614aa2565b5b835b818110156153e057806153cc88826144d7565b8452602084019350506020810190506153b9565b5050509392505050565b600082601f8301126153ff576153fe61458c565b5b813561540f848260208601615381565b91505092915050565b6000806040838503121561542f5761542e614484565b5b600083013567ffffffffffffffff81111561544d5761544c614489565b5b615459858286016153ea565b925050602083013567ffffffffffffffff81111561547a57615479614489565b5b61548685828601614eb3565b9150509250929050565b600081519050919050565b600082825260208201905092915050565b6000819050602082019050919050565b60006154c88383614c86565b60208301905092915050565b6000602082019050919050565b60006154ec82615490565b6154f6818561549b565b9350615501836154ac565b8060005b8381101561553257815161551988826154bc565b9750615524836154d4565b925050600181019050615505565b5085935050505092915050565b6000602082019050818103600083015261555981846154e1565b905092915050565b60008083601f8401126155775761557661458c565b5b8235905067ffffffffffffffff81111561559457615593614a9d565b5b6020830191508360208202830111156155b0576155af614aa2565b5b9250929050565b60008083601f8401126155cd576155cc61458c565b5b8235905067ffffffffffffffff8111156155ea576155e9614a9d565b5b60208301915083602082028301111561560657615605614aa2565b5b9250929050565b600080600080600080600080600080600060e08c8e03121561563257615631614484565b5b60008c013567ffffffffffffffff8111156156505761564f614489565b5b61565c8e828f01615561565b9b509b505060208c013567ffffffffffffffff81111561567f5761567e614489565b5b61568b8e828f016155b7565b995099505060408c013567ffffffffffffffff8111156156ae576156ad614489565b5b6156ba8e828f0161512e565b975097505060608c013567ffffffffffffffff8111156156dd576156dc614489565b5b6156e98e828f0161512e565b955095505060806156fc8e828f01614fb3565b93505060a061570d8e828f016144d7565b92505060c061571e8e828f0161450d565b9150509295989b509295989b9093969950565b600060808201905061574660008301876147bf565b61575360208301866147bf565b6157606040830185614562565b61576d6060830184614562565b95945050505050565b60008060006060848603121561578f5761578e614484565b5b600061579d868287016144d7565b935050602084013567ffffffffffffffff8111156157be576157bd614489565b5b6157ca86828701614eb3565b925050604084013567ffffffffffffffff8111156157eb576157ea614489565b5b6157f786828701614eb3565b9150509250925092565b6000806000806080858703121561581b5761581a614484565b5b6000615829878288016144d7565b945050602061583a8782880161450d565b935050604061584b8782880161450d565b925050606085013567ffffffffffffffff81111561586c5761586b614489565b5b6158788782880161497c565b91505092959194509250565b6000806020838503121561589b5761589a614484565b5b600083013567ffffffffffffffff8111156158b9576158b8614489565b5b6158c585828601614aa7565b92509250509250929050565b600080fd5b600060a082840312156158ec576158eb6158d1565b5b81905092915050565b60008060008060006080868803121561591157615910614484565b5b600086013567ffffffffffffffff81111561592f5761592e614489565b5b61593b888289016158d6565b955050602086013567ffffffffffffffff81111561595c5761595b614489565b5b615968888289016155b7565b9450945050604061597b88828901614fb3565b925050606061598c888289016144d7565b9150509295509295909350565b6159a2816147b3565b81146159ad57600080fd5b50565b6000813590506159bf81615999565b92915050565b600080604083850312156159dc576159db614484565b5b60006159ea858286016144d7565b92505060206159fb858286016159b0565b9150509250929050565b600080fd5b600080fd5b600067ffffffffffffffff821115615a2a57615a296145a7565b5b602082029050602081019050919050565b60068110615a4857600080fd5b50565b600081359050615a5a81615a3b565b92915050565b600060a08284031215615a7657615a75615a05565b5b615a8060a0614607565b90506000615a9084828501615a4b565b6000830152506020615aa4848285016144d7565b6020830152506040615ab88482850161450d565b6040830152506060615acc8482850161450d565b6060830152506080615ae08482850161450d565b60808301525092915050565b6000615aff615afa84615a0f565b614607565b90508083825260208201905060a08402830185811115615b2257615b21614aa2565b5b835b81811015615b4b5780615b378882615a60565b84526020840193505060a081019050615b24565b5050509392505050565b600082601f830112615b6a57615b6961458c565b5b8135615b7a848260208601615aec565b91505092915050565b600067ffffffffffffffff821115615b9e57615b9d6145a7565b5b602082029050602081019050919050565b615bb881614c95565b8114615bc357600080fd5b50565b600081359050615bd581615baf565b92915050565b600060c08284031215615bf157615bf0615a05565b5b615bfb60c0614607565b90506000615c0b84828501615a4b565b6000830152506020615c1f848285016144d7565b6020830152506040615c338482850161450d565b6040830152506060615c478482850161450d565b6060830152506080615c5b8482850161450d565b60808301525060a0615c6f84828501615bc6565b60a08301525092915050565b6000615c8e615c8984615b83565b614607565b90508083825260208201905060c08402830185811115615cb157615cb0614aa2565b5b835b81811015615cda5780615cc68882615bdb565b84526020840193505060c081019050615cb3565b5050509392505050565b600082601f830112615cf957615cf861458c565b5b8135615d09848260208601615c7b565b91505092915050565b60058110615d1f57600080fd5b50565b600081359050615d3181615d12565b92915050565b60006101608284031215615d4e57615d4d615a05565b5b615d59610160614607565b90506000615d69848285016144d7565b6000830152506020615d7d848285016144d7565b602083015250604082013567ffffffffffffffff811115615da157615da0615a0a565b5b615dad84828501615b55565b604083015250606082013567ffffffffffffffff811115615dd157615dd0615a0a565b5b615ddd84828501615ce4565b6060830152506080615df184828501615d22565b60808301525060a0615e058482850161450d565b60a08301525060c0615e198482850161450d565b60c08301525060e0615e2d84828501614fb3565b60e083015250610100615e428482850161450d565b61010083015250610120615e5884828501614fb3565b61012083015250610140615e6e8482850161450d565b6101408301525092915050565b600060408284031215615e9157615e90615a05565b5b615e9b6040614607565b9050600082013567ffffffffffffffff811115615ebb57615eba615a0a565b5b615ec784828501615d37565b600083015250602082013567ffffffffffffffff811115615eeb57615eea615a0a565b5b615ef78482850161497c565b60208301525092915050565b60008060408385031215615f1a57615f19614484565b5b600083013567ffffffffffffffff811115615f3857615f37614489565b5b615f4485828601615e7b565b9250506020615f5585828601614fb3565b9150509250929050565b60008060008060008060006080888a031215615f7e57615f7d614484565b5b600088013567ffffffffffffffff811115615f9c57615f9b614489565b5b615fa88a828b01615561565b9750975050602088013567ffffffffffffffff811115615fcb57615fca614489565b5b615fd78a828b016155b7565b9550955050604088013567ffffffffffffffff811115615ffa57615ff9614489565b5b6160068a828b01614afd565b935093505060606160198a828b016144d7565b91505092959891949750929550565b6000610160828403121561603f5761603e6158d1565b5b81905092915050565b60006020828403121561605e5761605d614484565b5b600082013567ffffffffffffffff81111561607c5761607b614489565b5b61608884828501616028565b91505092915050565b60008083601f8401126160a7576160a661458c565b5b8235905067ffffffffffffffff8111156160c4576160c3614a9d565b5b6020830191508360208202830111156160e0576160df614aa2565b5b9250929050565b600080602083850312156160fe576160fd614484565b5b600083013567ffffffffffffffff81111561611c5761611b614489565b5b61612885828601616091565b92509250509250929050565b60006020828403121561614a57616149614484565b5b6000616158848285016144d7565b91505092915050565b6000806040838503121561617857616177614484565b5b6000616186858286016144d7565b9250506020616197858286016144d7565b9150509250929050565b6000806000606084860312156161ba576161b9614484565b5b60006161c8868287016144d7565b93505060206161d98682870161450d565b92505060406161ea8682870161450d565b9150509250925092565b600081905092915050565b600061620a8261485f565b61621481856161f4565b935061622481856020860161487b565b80840191505092915050565b7f2f00000000000000000000000000000000000000000000000000000000000000815250565b600061626282856161ff565b915061626d82616230565b60018201915061627d82846161ff565b91508190509392505050565b7f4e487b7100000000000000000000000000000000000000000000000000000000600052602260045260246000fd5b600060028204905060018216806162d057607f821691505b6020821081036162e3576162e2616289565b5b50919050565b600082825260208201905092915050565b6000819050919050565b600080fd5b6000823560016101600383360303811261632657616325616304565b5b82810191505092915050565b600061634160208401846144d7565b905092915050565b600080fd5b600080fd5b600080833560016020038436030381126163705761636f616304565b5b83810192508235915060208301925067ffffffffffffffff82111561639857616397616349565b5b60a0820236038413156163ae576163ad61634e565b5b509250929050565b600082825260208201905092915050565b6000819050919050565b60006163e06020840184615a4b565b905092915050565b60006163f7602084018461450d565b905092915050565b60a0820161641060008301836163d1565b61641d6000850182614c68565b5061642b6020830183616332565b6164386020850182614c77565b5061644660408301836163e8565b6164536040850182614c86565b5061646160608301836163e8565b61646e6060850182614c86565b5061647c60808301836163e8565b6164896080850182614c86565b50505050565b600061649b83836163ff565b60a08301905092915050565b600082905092915050565b600060a082019050919050565b60006164cb83856163b6565b93506164d6826163c7565b8060005b8581101561650f576164ec82846164a7565b6164f6888261648f565b9750616501836164b2565b9250506001810190506164da565b5085925050509392505050565b6000808335600160200384360303811261653957616538616304565b5b83810192508235915060208301925067ffffffffffffffff82111561656157616560616349565b5b60c0820236038413156165775761657661634e565b5b509250929050565b600082825260208201905092915050565b6000819050919050565b60006165a96020840184615bc6565b905092915050565b60c082016165c260008301836163d1565b6165cf6000850182614c68565b506165dd6020830183616332565b6165ea6020850182614c77565b506165f860408301836163e8565b6166056040850182614c86565b5061661360608301836163e8565b6166206060850182614c86565b5061662e60808301836163e8565b61663b6080850182614c86565b5061664960a083018361659a565b61665660a0850182614ca7565b50505050565b600061666883836165b1565b60c08301905092915050565b600082905092915050565b600060c082019050919050565b6000616698838561657f565b93506166a382616590565b8060005b858110156166dc576166b98284616674565b6166c3888261665c565b97506166ce8361667f565b9250506001810190506166a7565b5085925050509392505050565b60006166f86020840184615d22565b905092915050565b6005811061671157616710614c00565b5b50565b600081905061672282616700565b919050565b600061673282616714565b9050919050565b61674281616727565b82525050565b60006167576020840184614fb3565b905092915050565b600061016083016167736000840184616332565b6167806000860182614c77565b5061678e6020840184616332565b61679b6020860182614c77565b506167a96040840184616353565b85830360408701526167bc8382846164bf565b925050506167cd606084018461651c565b85830360608701526167e083828461668c565b925050506167f160808401846166e9565b6167fe6080860182616739565b5061680c60a08401846163e8565b61681960a0860182614c86565b5061682760c08401846163e8565b61683460c0860182614c86565b5061684260e0840184616748565b61684f60e0860182614d28565b5061685e6101008401846163e8565b61686c610100860182614c86565b5061687b610120840184616748565b616889610120860182614d28565b506168986101408401846163e8565b6168a6610140860182614c86565b508091505092915050565b600080833560016020038436030381126168ce576168cd616304565b5b83810192508235915060208301925067ffffffffffffffff8211156168f6576168f5616349565b5b60018202360384131561690c5761690b61634e565b5b509250929050565b600082825260208201905092915050565b60006169318385616914565b935061693e838584614653565b61694783614596565b840190509392505050565b6000604083016169656000840184616309565b8482036000860152616977828261675f565b91505061698760208401846168b1565b858303602087015261699a838284616925565b925050508091505092915050565b60006169b48383616952565b905092915050565b6000823560016040038336030381126169d8576169d7616304565b5b82810191505092915050565b6000602082019050919050565b60006169fd83856162e9565b935083602084028501616a0f846162fa565b8060005b87811015616a53578484038952616a2a82846169bc565b616a3485826169a8565b9450616a3f836169e4565b925060208a01995050600181019050616a13565b50829750879450505050509392505050565b600082825260208201905092915050565b6000819050919050565b60008083356001602003843603038112616a9d57616a9c616304565b5b83810192508235915060208301925067ffffffffffffffff821115616ac557616ac4616349565b5b604082023603841315616adb57616ada61634e565b5b509250929050565b600082825260208201905092915050565b6000819050919050565b60408201616b0f60008301836163e8565b616b1c6000850182614c86565b50616b2a60208301836163e8565b616b376020850182614c86565b50505050565b6000616b498383616afe565b60408301905092915050565b600082905092915050565b6000604082019050919050565b6000616b798385616ae3565b9350616b8482616af4565b8060005b85811015616bbd57616b9a8284616b55565b616ba48882616b3d565b9750616baf83616b60565b925050600181019050616b88565b5085925050509392505050565b600060408301616bdd6000840184616a80565b8583036000870152616bf0838284616b6d565b92505050616c016020840184616a80565b8583036020870152616c14838284616b6d565b925050508091505092915050565b6000616c2e8383616bca565b905092915050565b600082356001604003833603038112616c5257616c51616304565b5b82810191505092915050565b6000602082019050919050565b6000616c778385616a65565b935083602084028501616c8984616a76565b8060005b87811015616ccd578484038952616ca48284616c36565b616cae8582616c22565b9450616cb983616c5e565b925060208a01995050600181019050616c8d565b50829750879450505050509392505050565b60006040820190508181036000830152616cfa8186886169f1565b90508181036020830152616d0f818486616c6b565b905095945050505050565b600067ffffffffffffffff821115616d3557616d346145a7565b5b602082029050602081019050919050565b600081519050616d5581615a3b565b92915050565b600081519050616d6a816144c0565b92915050565b600081519050616d7f816144f6565b92915050565b600081519050616d9481615baf565b92915050565b600060a08284031215616db057616daf615a05565b5b616dba60a0614607565b90506000616dca84828501616d46565b6000830152506020616dde84828501616d5b565b6020830152506040616df284828501616d70565b6040830152506060616e0684828501616d70565b6060830152506080616e1a84828501616d85565b60808301525092915050565b600081519050616e3581614f9c565b92915050565b600060e08284031215616e5157616e50615a05565b5b616e5b6060614607565b90506000616e6b84828501616d9a565b60008301525060a0616e7f84828501616d5b565b60208301525060c0616e9384828501616e26565b60408301525092915050565b6000616eb2616ead84616d1a565b614607565b90508083825260208201905060e08402830185811115616ed557616ed4614aa2565b5b835b81811015616efe5780616eea8882616e3b565b84526020840193505060e081019050616ed7565b5050509392505050565b600082601f830112616f1d57616f1c61458c565b5b8151616f2d848260208601616e9f565b91505092915050565b600060208284031215616f4c57616f4b614484565b5b600082015167ffffffffffffffff811115616f6a57616f69614489565b5b616f7684828501616f08565b91505092915050565b7f4e487b7100000000000000000000000000000000000000000000000000000000600052603260045260246000fd5b7f4e487b7100000000000000000000000000000000000000000000000000000000600052601160045260246000fd5b6000616fe8826144ec565b91507fffffffffffffffffffffffffffffffffffffffffffffffffffffffffffffffff820361701a57617019616fae565b5b600182019050919050565b7f455243313135353a2063616c6c6572206973206e6f7420746f6b656e206f776e60008201527f6572206f7220617070726f766564000000000000000000000000000000000000602082015250565b6000617081602e8361486a565b915061708c82617025565b604082019050919050565b600060208201905081810360008301526170b081617074565b9050919050565b7f416363657373436f6e74726f6c3a2063616e206f6e6c792072656e6f756e636560008201527f20726f6c657320666f722073656c660000000000000000000000000000000000602082015250565b6000617113602f8361486a565b915061711e826170b7565b604082019050919050565b6000602082019050818103600083015261714281617106565b9050919050565b600082825260208201905092915050565b6000819050919050565b6000617171848484616b6d565b90509392505050565b6000602082019050919050565b60006171938385617149565b9350836020840285016171a58461715a565b8060005b878110156171eb5784840389526171c08284616a80565b6171cb868284617164565b95506171d68461717a565b935060208b019a5050506001810190506171a9565b50829750879450505050509392505050565b600060a0820190508181036000830152617218818a8c6169f1565b9050818103602083015261722d81888a617187565b90508181036040830152617242818688617187565b90506172516060830185614ff5565b61725e6080830184614562565b9998505050505050505050565b600067ffffffffffffffff821115617286576172856145a7565b5b602082029050602081019050919050565b6000815190506172a681615999565b92915050565b60006172bf6172ba8461726b565b614607565b905080838252602082019050602084028301858111156172e2576172e1614aa2565b5b835b8181101561730b57806172f78882617297565b8452602084019350506020810190506172e4565b5050509392505050565b600082601f83011261732a5761732961458c565b5b815161733a8482602086016172ac565b91505092915050565b6000806040838503121561735a57617359614484565b5b600083015167ffffffffffffffff81111561737857617377614489565b5b61738485828601617315565b925050602083015167ffffffffffffffff8111156173a5576173a4614489565b5b6173b185828601616f08565b9150509250929050565b600082825260208201905092915050565b6000819050919050565b60006effffffffffffffffffffffffffffff82169050919050565b6173fa816173d6565b811461740557600080fd5b50565b600081359050617417816173f1565b92915050565b600061742c6020840184617408565b905092915050565b61743d816173d6565b82525050565b600060a083016174566000840184616309565b8482036000860152617468828261675f565b915050617478602084018461741d565b6174856020860182617434565b50617493604084018461741d565b6174a06040860182617434565b506174ae60608401846168b1565b85830360608701526174c1838284616925565b925050506174d260808401846168b1565b85830360808701526174e5838284616925565b925050508091505092915050565b60006174ff8383617443565b905092915050565b60008235600160a00383360303811261752357617522616304565b5b82810191505092915050565b6000602082019050919050565b600061754883856173bb565b93508360208402850161755a846173cc565b8060005b8781101561759e5784840389526175758284617507565b61757f85826174f3565b945061758a8361752f565b925060208a0199505060018101905061755e565b50829750879450505050509392505050565b600082825260208201905092915050565b6000819050919050565b600281106175d857600080fd5b50565b6000813590506175ea816175cb565b92915050565b60006175ff60208401846175db565b905092915050565b6002811061761857617617614c00565b5b50565b600081905061762982617607565b919050565b60006176398261761b565b9050919050565b6176498161762e565b82525050565b6000808335600160200384360303811261766c5761766b616304565b5b83810192508235915060208301925067ffffffffffffffff82111561769457617693616349565b5b6020820236038413156176aa576176a961634e565b5b509250929050565b600082825260208201905092915050565b600080fd5b60006176d483856176b2565b93507f07ffffffffffffffffffffffffffffffffffffffffffffffffffffffffffffff831115617707576177066176c3565b5b602083029250617718838584614653565b82840190509392505050565b600060a0830161773760008401846163e8565b6177446000860182614c86565b5061775260208401846175f0565b61775f6020860182617640565b5061776d60408401846163e8565b61777a6040860182614c86565b5061778860608401846163e8565b6177956060860182614c86565b506177a3608084018461764f565b85830360808701526177b68382846176c8565b925050508091505092915050565b60006177d08383617724565b905092915050565b60008235600160a0038336030381126177f4576177f3616304565b5b82810191505092915050565b6000602082019050919050565b600061781983856175b0565b93508360208402850161782b846175c1565b8060005b8781101561786f57848403895261784682846177d8565b61785085826177c4565b945061785b83617800565b925060208a0199505060018101905061782f565b50829750879450505050509392505050565b61788a816144ae565b82525050565b600060e08201905081810360008301526178ab818d8f61753c565b905081810360208301526178c0818b8d61780d565b905081810360408301526178d581898b617187565b905081810360608301526178ea818789617187565b90506178f96080830186614ff5565b61790660a0830185617881565b61791360c0830184614562565b9c9b505050505050505050505050565b600061792f82846161ff565b915081905092915050565b6000806000806080858703121561795457617953614484565b5b600061796287828801617297565b945050602061797387828801617297565b935050604061798487828801616d70565b925050606061799587828801616d70565b91505092959194509250565b600060208201905081810360008301526179bc8184866169f1565b90509392505050565b6000602082840312156179db576179da614484565b5b60006179e984828501617297565b91505092915050565b7f496e697469616c697a61626c653a20636f6e747261637420697320616c72656160008201527f647920696e697469616c697a6564000000000000000000000000000000000000602082015250565b6000617a4e602e8361486a565b9150617a59826179f2565b604082019050919050565b60006020820190508181036000830152617a7d81617a41565b9050919050565b6000819050919050565b600060ff82169050919050565b6000819050919050565b6000617ac0617abb617ab684617a84565b617a9b565b617a8e565b9050919050565b617ad081617aa5565b82525050565b6000602082019050617aeb6000830184617ac7565b92915050565b600060a08301617b046000840184616309565b8482036000860152617b16828261675f565b915050617b26602084018461741d565b617b336020860182617434565b50617b41604084018461741d565b617b4e6040860182617434565b50617b5c60608401846168b1565b8583036060870152617b6f838284616925565b92505050617b8060808401846168b1565b8583036080870152617b93838284616925565b925050508091505092915050565b60006080820190508181036000830152617bbb8188617af1565b90508181036020830152617bd081868861780d565b9050617bdf6040830185614ff5565b617bec6060830184617881565b9695505050505050565b600081519050919050565b6000819050602082019050919050565b60a082016000820151617c276000850182614c68565b506020820151617c3a6020850182614c77565b506040820151617c4d6040850182614c86565b506060820151617c606060850182614c86565b506080820151617c736080850182614c86565b50505050565b6000617c858383617c11565b60a08301905092915050565b6000602082019050919050565b6000617ca982617bf6565b617cb381856163b6565b9350617cbe83617c01565b8060005b83811015617cef578151617cd68882617c79565b9750617ce183617c91565b925050600181019050617cc2565b5085935050505092915050565b600081519050919050565b6000819050602082019050919050565b60c082016000820151617d2d6000850182614c68565b506020820151617d406020850182614c77565b506040820151617d536040850182614c86565b506060820151617d666060850182614c86565b506080820151617d796080850182614c86565b5060a0820151617d8c60a0850182614ca7565b50505050565b6000617d9e8383617d17565b60c08301905092915050565b6000602082019050919050565b6000617dc282617cfc565b617dcc818561657f565b9350617dd783617d07565b8060005b83811015617e08578151617def8882617d92565b9750617dfa83617daa565b925050600181019050617ddb565b5085935050505092915050565b600061016083016000830151617e2e6000860182614c77565b506020830151617e416020860182614c77565b5060408301518482036040860152617e598282617c9e565b91505060608301518482036060860152617e738282617db7565b9150506080830151617e886080860182616739565b5060a0830151617e9b60a0860182614c86565b5060c0830151617eae60c0860182614c86565b5060e0830151617ec160e0860182614d28565b50610100830151617ed6610100860182614c86565b50610120830151617eeb610120860182614d28565b50610140830151617f00610140860182614c86565b508091505092915050565b600081519050919050565b6000617f2182617f0b565b617f2b8185616914565b9350617f3b81856020860161487b565b617f4481614596565b840191505092915050565b60006040830160008301518482036000860152617f6c8282617e15565b91505060208301518482036020860152617f868282617f16565b9150508091505092915050565b60006040820190508181036000830152617fad8185617f4f565b9050617fbc6020830184614ff5565b9392505050565b60006080820190508181036000830152617fde81898b61753c565b90508181036020830152617ff381878961780d565b90508181036040830152618008818587616c6b565b90506180176060830184617881565b98975050505050505050565b600061016083016180376000840184616332565b6180446000860182614c77565b506180526020840184616332565b61805f6020860182614c77565b5061806d6040840184616353565b85830360408701526180808382846164bf565b92505050618091606084018461651c565b85830360608701526180a483828461668c565b925050506180b560808401846166e9565b6180c26080860182616739565b506180d060a08401846163e8565b6180dd60a0860182614c86565b506180eb60c08401846163e8565b6180f860c0860182614c86565b5061810660e0840184616748565b61811360e0860182614d28565b506181226101008401846163e8565b618130610100860182614c86565b5061813f610120840184616748565b61814d610120860182614d28565b5061815c6101408401846163e8565b61816a610140860182614c86565b508091505092915050565b6000602082019050818103600083015261818f8184618023565b905092915050565b6000602082840312156181ad576181ac614484565b5b60006181bb84828501616e26565b91505092915050565b600082825260208201905092915050565b6000819050919050565b600061016083016181f36000840184616332565b6182006000860182614c77565b5061820e6020840184616332565b61821b6020860182614c77565b506182296040840184616353565b858303604087015261823c8382846164bf565b9250505061824d606084018461651c565b858303606087015261826083828461668c565b9250505061827160808401846166e9565b61827e6080860182616739565b5061828c60a08401846163e8565b61829960a0860182614c86565b506182a760c08401846163e8565b6182b460c0860182614c86565b506182c260e0840184616748565b6182cf60e0860182614d28565b506182de6101008401846163e8565b6182ec610100860182614c86565b506182fb610120840184616748565b618309610120860182614d28565b506183186101408401846163e8565b618326610140860182614c86565b508091505092915050565b600061833d83836181df565b905092915050565b6000823560016101600383360303811261836257618361616304565b5b82810191505092915050565b6000602082019050919050565b600061838783856181c4565b935083602084028501618399846181d5565b8060005b878110156183dd5784840389526183b48284618345565b6183be8582618331565b94506183c98361836e565b925060208a0199505060018101905061839d565b50829750879450505050509392505050565b6000602082019050818103600083015261840a81848661837b565b90509392505050565b60006020820190506184286000830184617881565b92915050565b60006020828403121561844457618443614484565b5b600061845284828501616d70565b91505092915050565b7f455243313135353a2061646472657373207a65726f206973206e6f742061207660008201527f616c6964206f776e657200000000000000000000000000000000000000000000602082015250565b60006184b7602a8361486a565b91506184c28261845b565b604082019050919050565b600060208201905081810360008301526184e6816184aa565b9050919050565b7f5061757361626c653a2070617573656400000000000000000000000000000000600082015250565b600061852360108361486a565b915061852e826184ed565b602082019050919050565b6000602082019050818103600083015261855281618516565b9050919050565b7f4e487b7100000000000000000000000000000000000000000000000000000000600052601260045260246000fd5b7f455243313135353a206d696e7420746f20746865207a65726f2061646472657360008201527f7300000000000000000000000000000000000000000000000000000000000000602082015250565b60006185e460218361486a565b91506185ef82618588565b604082019050919050565b60006020820190508181036000830152618613816185d7565b9050919050565b7f455243313135353a2069647320616e6420616d6f756e7473206c656e6774682060008201527f6d69736d61746368000000000000000000000000000000000000000000000000602082015250565b600061867660288361486a565b91506186818261861a565b604082019050919050565b600060208201905081810360008301526186a581618669565b9050919050565b60006186b7826144ec565b91506186c2836144ec565b9250827fffffffffffffffffffffffffffffffffffffffffffffffffffffffffffffffff038211156186f7576186f6616fae565b5b828201905092915050565b6000604082019050818103600083015261871c81856154e1565b9050818103602083015261873081846154e1565b90509392505050565b7f455243313135353a207472616e7366657220746f20746865207a65726f20616460008201527f6472657373000000000000000000000000000000000000000000000000000000602082015250565b600061879560258361486a565b91506187a082618739565b604082019050919050565b600060208201905081810360008301526187c481618788565b9050919050565b7f455243313135353a20696e73756666696369656e742062616c616e636520666f60008201527f72207472616e7366657200000000000000000000000000000000000000000000602082015250565b6000618827602a8361486a565b9150618832826187cb565b604082019050919050565b600060208201905081810360008301526188568161881a565b9050919050565b7f455243313135353a206163636f756e747320616e6420696473206c656e67746860008201527f206d69736d617463680000000000000000000000000000000000000000000000602082015250565b60006188b960298361486a565b91506188c48261885d565b604082019050919050565b600060208201905081810360008301526188e8816188ac565b9050919050565b60006040820190506189046000830185614562565b6189116020830184614562565b9392505050565b7f496e697469616c697a61626c653a20636f6e7472616374206973206e6f74206960008201527f6e697469616c697a696e67000000000000000000000000000000000000000000602082015250565b6000618974602b8361486a565b915061897f82618918565b604082019050919050565b600060208201905081810360008301526189a381618967565b9050919050565b7f416363657373436f6e74726f6c3a206163636f756e7420000000000000000000600082015250565b60006189e06017836161f4565b91506189eb826189aa565b601782019050919050565b7f206973206d697373696e6720726f6c6520000000000000000000000000000000600082015250565b6000618a2c6011836161f4565b9150618a37826189f6565b601182019050919050565b6000618a4d826189d3565b9150618a5982856161ff565b9150618a6482618a1f565b9150618a7082846161ff565b91508190509392505050565b600082825260208201905092915050565b6000618a9882617f0b565b618aa28185618a7c565b9350618ab281856020860161487b565b618abb81614596565b840191505092915050565b600060a082019050618adb6000830188617881565b618ae86020830187617881565b8181036040830152618afa81866154e1565b90508181036060830152618b0e81856154e1565b90508181036080830152618b228184618a8d565b90509695505050505050565b600081519050618b3d8161475a565b92915050565b600060208284031215618b5957618b58614484565b5b6000618b6784828501618b2e565b91505092915050565b60008160e01c9050919050565b600060033d1115618b9c5760046000803e618b99600051618b70565b90505b90565b600060443d10618c2c57618bb161447a565b60043d036004823e80513d602482011167ffffffffffffffff82111715618bd9575050618c2c565b808201805167ffffffffffffffff811115618bf75750505050618c2c565b80602083010160043d038501811115618c14575050505050618c2c565b618c23826020018501866145d6565b82955050505050505b90565b7f455243313135353a207472616e7366657220746f206e6f6e2d4552433131353560008201527f526563656976657220696d706c656d656e746572000000000000000000000000602082015250565b6000618c8b60348361486a565b9150618c9682618c2f565b604082019050919050565b60006020820190508181036000830152618cba81618c7e565b9050919050565b7f455243313135353a204552433131353552656365697665722072656a6563746560008201527f6420746f6b656e73000000000000000000000000000000000000000000000000602082015250565b6000618d1d60288361486a565b9150618d2882618cc1565b604082019050919050565b60006020820190508181036000830152618d4c81618d10565b9050919050565b7f5061757361626c653a206e6f7420706175736564000000000000000000000000600082015250565b6000618d8960148361486a565b9150618d9482618d53565b602082019050919050565b60006020820190508181036000830152618db881618d7c565b9050919050565b7f455243313135353a206275726e2066726f6d20746865207a65726f206164647260008201527f6573730000000000000000000000000000000000000000000000000000000000602082015250565b6000618e1b60238361486a565b9150618e2682618dbf565b604082019050919050565b60006020820190508181036000830152618e4a81618e0e565b9050919050565b7f455243313135353a206275726e20616d6f756e7420657863656564732062616c60008201527f616e636500000000000000000000000000000000000000000000000000000000602082015250565b6000618ead60248361486a565b9150618eb882618e51565b604082019050919050565b60006020820190508181036000830152618edc81618ea0565b9050919050565b600060a082019050618ef86000830188617881565b618f056020830187617881565b618f126040830186614562565b618f1f6060830185614562565b8181036080830152618f318184618a8d565b90509695505050505050565b7f455243313135353a2073657474696e6720617070726f76616c2073746174757360008201527f20666f722073656c660000000000000000000000000000000000000000000000602082015250565b6000618f9960298361486a565b9150618fa482618f3d565b604082019050919050565b60006020820190508181036000830152618fc881618f8c565b9050919050565b6000618fda826144ec565b9150618fe5836144ec565b9250817fffffffffffffffffffffffffffffffffffffffffffffffffffffffffffffffff048311821515161561901e5761901d616fae565b5b828202905092915050565b6000619034826144ec565b91506000820361904757619046616fae565b5b600182039050919050565b7f537472696e67733a20686578206c656e67746820696e73756666696369656e74600082015250565b600061908860208361486a565b915061909382619052565b602082019050919050565b600060208201905081810360008301526190b78161907b565b9050919050565b7f455243313135353a206275726e20616d6f756e74206578636565647320746f7460008201527f616c537570706c79000000000000000000000000000000000000000000000000602082015250565b600061911a60288361486a565b9150619125826190be565b604082019050919050565b600060208201905081810360008301526191498161910d565b905091905056fea264697066735822122029f249c9eb476538c63858c8845e3ab5c3c67bc9e16ef09eb39e07f15575978d64736f6c634300080d0033",
			"opcodes": "PUSH1 0x80 PUSH1 0x40 MSTORE PUSH13 0xADC04C56BF30AC9D3C0AAF14DC PUSH2 0x161 PUSH1 0x0 PUSH2 0x100 EXP DUP2 SLOAD DUP2 PUSH20 0xFFFFFFFFFFFFFFFFFFFFFFFFFFFFFFFFFFFFFFFF MUL NOT AND SWAP1 DUP4 PUSH20 0xFFFFFFFFFFFFFFFFFFFFFFFFFFFFFFFFFFFFFFFF AND MUL OR SWAP1 SSTORE POP PUSH2 0x161 PUSH1 0x0 SWAP1 SLOAD SWAP1 PUSH2 0x100 EXP SWAP1 DIV PUSH20 0xFFFFFFFFFFFFFFFFFFFFFFFFFFFFFFFFFFFFFFFF AND PUSH2 0x162 PUSH1 0x0 PUSH2 0x100 EXP DUP2 SLOAD DUP2 PUSH20 0xFFFFFFFFFFFFFFFFFFFFFFFFFFFFFFFFFFFFFFFF MUL NOT AND SWAP1 DUP4 PUSH20 0xFFFFFFFFFFFFFFFFFFFFFFFFFFFFFFFFFFFFFFFF AND MUL OR SWAP1 SSTORE POP CALLVALUE DUP1 ISZERO PUSH3 0xC5 JUMPI PUSH1 0x0 DUP1 REVERT JUMPDEST POP PUSH3 0xD6 PUSH3 0xDC PUSH1 0x20 SHL PUSH1 0x20 SHR JUMP JUMPDEST PUSH3 0x287 JUMP JUMPDEST PUSH1 0x0 PUSH1 0x1 SWAP1 SLOAD SWAP1 PUSH2 0x100 EXP SWAP1 DIV PUSH1 0xFF AND ISZERO PUSH3 0x12F JUMPI PUSH1 0x40 MLOAD PUSH32 0x8C379A000000000000000000000000000000000000000000000000000000000 DUP2 MSTORE PUSH1 0x4 ADD PUSH3 0x126 SWAP1 PUSH3 0x22A JUMP JUMPDEST PUSH1 0x40 MLOAD DUP1 SWAP2 SUB SWAP1 REVERT JUMPDEST PUSH1 0xFF DUP1 AND PUSH1 0x0 DUP1 SLOAD SWAP1 PUSH2 0x100 EXP SWAP1 DIV PUSH1 0xFF AND PUSH1 0xFF AND LT ISZERO PUSH3 0x1A1 JUMPI PUSH1 0xFF PUSH1 0x0 DUP1 PUSH2 0x100 EXP DUP2 SLOAD DUP2 PUSH1 0xFF MUL NOT AND SWAP1 DUP4 PUSH1 0xFF AND MUL OR SWAP1 SSTORE POP PUSH32 0x7F26B83FF96E1F2B6A682F133852F6798A09C465DA95921460CEFB3847402498 PUSH1 0xFF PUSH1 0x40 MLOAD PUSH3 0x198 SWAP2 SWAP1 PUSH3 0x26A JUMP JUMPDEST PUSH1 0x40 MLOAD DUP1 SWAP2 SUB SWAP1 LOG1 JUMPDEST JUMP JUMPDEST PUSH1 0x0 DUP3 DUP3 MSTORE PUSH1 0x20 DUP3 ADD SWAP1 POP SWAP3 SWAP2 POP POP JUMP JUMPDEST PUSH32 0x496E697469616C697A61626C653A20636F6E747261637420697320696E697469 PUSH1 0x0 DUP3 ADD MSTORE PUSH32 0x616C697A696E6700000000000000000000000000000000000000000000000000 PUSH1 0x20 DUP3 ADD MSTORE POP JUMP JUMPDEST PUSH1 0x0 PUSH3 0x212 PUSH1 0x27 DUP4 PUSH3 0x1A3 JUMP JUMPDEST SWAP2 POP PUSH3 0x21F DUP3 PUSH3 0x1B4 JUMP JUMPDEST PUSH1 0x40 DUP3 ADD SWAP1 POP SWAP2 SWAP1 POP JUMP JUMPDEST PUSH1 0x0 PUSH1 0x20 DUP3 ADD SWAP1 POP DUP2 DUP2 SUB PUSH1 0x0 DUP4 ADD MSTORE PUSH3 0x245 DUP2 PUSH3 0x203 JUMP JUMPDEST SWAP1 POP SWAP2 SWAP1 POP JUMP JUMPDEST PUSH1 0x0 PUSH1 0xFF DUP3 AND SWAP1 POP SWAP2 SWAP1 POP JUMP JUMPDEST PUSH3 0x264 DUP2 PUSH3 0x24C JUMP JUMPDEST DUP3 MSTORE POP POP JUMP JUMPDEST PUSH1 0x0 PUSH1 0x20 DUP3 ADD SWAP1 POP PUSH3 0x281 PUSH1 0x0 DUP4 ADD DUP5 PUSH3 0x259 JUMP JUMPDEST SWAP3 SWAP2 POP POP JUMP JUMPDEST PUSH2 0x9186 DUP1 PUSH3 0x297 PUSH1 0x0 CODECOPY PUSH1 0x0 RETURN INVALID PUSH1 0x80 PUSH1 0x40 MSTORE PUSH1 0x4 CALLDATASIZE LT PUSH2 0x287 JUMPI PUSH1 0x0 CALLDATALOAD PUSH1 0xE0 SHR DUP1 PUSH4 0x6543908F GT PUSH2 0x15A JUMPI DUP1 PUSH4 0xA22CB465 GT PUSH2 0xC1 JUMPI DUP1 PUSH4 0xDFD3CB73 GT PUSH2 0x7A JUMPI DUP1 PUSH4 0xDFD3CB73 EQ PUSH2 0xA5A JUMPI DUP1 PUSH4 0xE0E0A2C5 EQ PUSH2 0xA97 JUMPI DUP1 PUSH4 0xE985E9C5 EQ PUSH2 0xAD4 JUMPI DUP1 PUSH4 0xEF7992BB EQ PUSH2 0xB11 JUMPI DUP1 PUSH4 0xF242432A EQ PUSH2 0xB3C JUMPI DUP1 PUSH4 0xF5298ACA EQ PUSH2 0xB65 JUMPI PUSH2 0x287 JUMP JUMPDEST DUP1 PUSH4 0xA22CB465 EQ PUSH2 0x92E JUMPI DUP1 PUSH4 0xB3A34C4C EQ PUSH2 0x957 JUMPI DUP1 PUSH4 0xBD85B039 EQ PUSH2 0x987 JUMPI DUP1 PUSH4 0xBDC55BC6 EQ PUSH2 0x9C4 JUMPI DUP1 PUSH4 0xCA36FC91 EQ PUSH2 0x9F4 JUMPI DUP1 PUSH4 0xD547741F EQ PUSH2 0xA31 JUMPI PUSH2 0x287 JUMP JUMPDEST DUP1 PUSH4 0x7D551B23 GT PUSH2 0x113 JUMPI DUP1 PUSH4 0x7D551B23 EQ PUSH2 0x82B JUMPI DUP1 PUSH4 0x8129FC1C EQ PUSH2 0x868 JUMPI DUP1 PUSH4 0x8456CB59 EQ PUSH2 0x87F JUMPI DUP1 PUSH4 0x8C52E857 EQ PUSH2 0x896 JUMPI DUP1 PUSH4 0x91D14854 EQ PUSH2 0x8C6 JUMPI DUP1 PUSH4 0xA217FDDF EQ PUSH2 0x903 JUMPI PUSH2 0x287 JUMP JUMPDEST DUP1 PUSH4 0x6543908F EQ PUSH2 0x6F6 JUMPI DUP1 PUSH4 0x672A41A1 EQ PUSH2 0x736 JUMPI DUP1 PUSH4 0x6B20C454 EQ PUSH2 0x773 JUMPI DUP1 PUSH4 0x6C9CD097 EQ PUSH2 0x79C JUMPI DUP1 PUSH4 0x6FCFCB66 EQ PUSH2 0x7D9 JUMPI DUP1 PUSH4 0x731133E9 EQ PUSH2 0x802 JUMPI PUSH2 0x287 JUMP JUMPDEST DUP1 PUSH4 0x248A9CA3 GT PUSH2 0x1FE JUMPI DUP1 PUSH4 0x4E1273F4 GT PUSH2 0x1B7 JUMPI DUP1 PUSH4 0x4E1273F4 EQ PUSH2 0x5BA JUMPI DUP1 PUSH4 0x4F558E79 EQ PUSH2 0x5F7 JUMPI DUP1 PUSH4 0x50863E8A EQ PUSH2 0x634 JUMPI DUP1 PUSH4 0x52509E97 EQ PUSH2 0x665 JUMPI DUP1 PUSH4 0x5A9807BE EQ PUSH2 0x68E JUMPI DUP1 PUSH4 0x5C975ABB EQ PUSH2 0x6CB JUMPI PUSH2 0x287 JUMP JUMPDEST DUP1 PUSH4 0x248A9CA3 EQ PUSH2 0x4BA JUMPI DUP1 PUSH4 0x2EB2C2D6 EQ PUSH2 0x4F7 JUMPI DUP1 PUSH4 0x2F2FF15D EQ PUSH2 0x520 JUMPI DUP1 PUSH4 0x36568ABE EQ PUSH2 0x549 JUMPI DUP1 PUSH4 0x3C1DADD9 EQ PUSH2 0x572 JUMPI DUP1 PUSH4 0x3F4BA83A EQ PUSH2 0x5A3 JUMPI PUSH2 0x287 JUMP JUMPDEST DUP1 PUSH4 0xB8A295A GT PUSH2 0x250 JUMPI DUP1 PUSH4 0xB8A295A EQ PUSH2 0x395 JUMPI DUP1 PUSH4 0xE89341C EQ PUSH2 0x3D2 JUMPI DUP1 PUSH4 0x127217D6 EQ PUSH2 0x40F JUMPI DUP1 PUSH4 0x1286C46D EQ PUSH2 0x438 JUMPI DUP1 PUSH4 0x192C9EF2 EQ PUSH2 0x461 JUMPI DUP1 PUSH4 0x1F7FDFFA EQ PUSH2 0x491 JUMPI PUSH2 0x287 JUMP JUMPDEST DUP1 PUSH3 0xFDD58E EQ PUSH2 0x28C JUMPI DUP1 PUSH4 0x1AD63BD EQ PUSH2 0x2C9 JUMPI DUP1 PUSH4 0x1FFC9A7 EQ PUSH2 0x2F2 JUMPI DUP1 PUSH4 0x2FE5305 EQ PUSH2 0x32F JUMPI DUP1 PUSH4 0x807A3BD EQ PUSH2 0x358 JUMPI JUMPDEST PUSH1 0x0 DUP1 REVERT JUMPDEST CALLVALUE DUP1 ISZERO PUSH2 0x298 JUMPI PUSH1 0x0 DUP1 REVERT JUMPDEST POP PUSH2 0x2B3 PUSH1 0x4 DUP1 CALLDATASIZE SUB DUP2 ADD SWAP1 PUSH2 0x2AE SWAP2 SWAP1 PUSH2 0x4522 JUMP JUMPDEST PUSH2 0xB8E JUMP JUMPDEST PUSH1 0x40 MLOAD PUSH2 0x2C0 SWAP2 SWAP1 PUSH2 0x4571 JUMP JUMPDEST PUSH1 0x40 MLOAD DUP1 SWAP2 SUB SWAP1 RETURN JUMPDEST CALLVALUE DUP1 ISZERO PUSH2 0x2D5 JUMPI PUSH1 0x0 DUP1 REVERT JUMPDEST POP PUSH2 0x2F0 PUSH1 0x4 DUP1 CALLDATASIZE SUB DUP2 ADD SWAP1 PUSH2 0x2EB SWAP2 SWAP1 PUSH2 0x46D2 JUMP JUMPDEST PUSH2 0xBA2 JUMP JUMPDEST STOP JUMPDEST CALLVALUE DUP1 ISZERO PUSH2 0x2FE JUMPI PUSH1 0x0 DUP1 REVERT JUMPDEST POP PUSH2 0x319 PUSH1 0x4 DUP1 CALLDATASIZE SUB DUP2 ADD SWAP1 PUSH2 0x314 SWAP2 SWAP1 PUSH2 0x4786 JUMP JUMPDEST PUSH2 0xC12 JUMP JUMPDEST PUSH1 0x40 MLOAD PUSH2 0x326 SWAP2 SWAP1 PUSH2 0x47CE JUMP JUMPDEST PUSH1 0x40 MLOAD DUP1 SWAP2 SUB SWAP1 RETURN JUMPDEST CALLVALUE DUP1 ISZERO PUSH2 0x33B JUMPI PUSH1 0x0 DUP1 REVERT JUMPDEST POP PUSH2 0x356 PUSH1 0x4 DUP1 CALLDATASIZE SUB DUP2 ADD SWAP1 PUSH2 0x351 SWAP2 SWAP1 PUSH2 0x47E9 JUMP JUMPDEST PUSH2 0xC24 JUMP JUMPDEST STOP JUMPDEST CALLVALUE DUP1 ISZERO PUSH2 0x364 JUMPI PUSH1 0x0 DUP1 REVERT JUMPDEST POP PUSH2 0x37F PUSH1 0x4 DUP1 CALLDATASIZE SUB DUP2 ADD SWAP1 PUSH2 0x37A SWAP2 SWAP1 PUSH2 0x4832 JUMP JUMPDEST PUSH2 0xC46 JUMP JUMPDEST PUSH1 0x40 MLOAD PUSH2 0x38C SWAP2 SWAP1 PUSH2 0x48E7 JUMP JUMPDEST PUSH1 0x40 MLOAD DUP1 SWAP2 SUB SWAP1 RETURN JUMPDEST CALLVALUE DUP1 ISZERO PUSH2 0x3A1 JUMPI PUSH1 0x0 DUP1 REVERT JUMPDEST POP PUSH2 0x3BC PUSH1 0x4 DUP1 CALLDATASIZE SUB DUP2 ADD SWAP1 PUSH2 0x3B7 SWAP2 SWAP1 PUSH2 0x4832 JUMP JUMPDEST PUSH2 0xC81 JUMP JUMPDEST PUSH1 0x40 MLOAD PUSH2 0x3C9 SWAP2 SWAP1 PUSH2 0x47CE JUMP JUMPDEST PUSH1 0x40 MLOAD DUP1 SWAP2 SUB SWAP1 RETURN JUMPDEST CALLVALUE DUP1 ISZERO PUSH2 0x3DE JUMPI PUSH1 0x0 DUP1 REVERT JUMPDEST POP PUSH2 0x3F9 PUSH1 0x4 DUP1 CALLDATASIZE SUB DUP2 ADD SWAP1 PUSH2 0x3F4 SWAP2 SWAP1 PUSH2 0x4832 JUMP JUMPDEST PUSH2 0xC93 JUMP JUMPDEST PUSH1 0x40 MLOAD PUSH2 0x406 SWAP2 SWAP1 PUSH2 0x48E7 JUMP JUMPDEST PUSH1 0x40 MLOAD DUP1 SWAP2 SUB SWAP1 RETURN JUMPDEST CALLVALUE DUP1 ISZERO PUSH2 0x41B JUMPI PUSH1 0x0 DUP1 REVERT JUMPDEST POP PUSH2 0x436 PUSH1 0x4 DUP1 CALLDATASIZE SUB DUP2 ADD SWAP1 PUSH2 0x431 SWAP2 SWAP1 PUSH2 0x49AA JUMP JUMPDEST PUSH2 0xD27 JUMP JUMPDEST STOP JUMPDEST CALLVALUE DUP1 ISZERO PUSH2 0x444 JUMPI PUSH1 0x0 DUP1 REVERT JUMPDEST POP PUSH2 0x45F PUSH1 0x4 DUP1 CALLDATASIZE SUB DUP2 ADD SWAP1 PUSH2 0x45A SWAP2 SWAP1 PUSH2 0x4A41 JUMP JUMPDEST PUSH2 0xD3B JUMP JUMPDEST STOP JUMPDEST PUSH2 0x47B PUSH1 0x4 DUP1 CALLDATASIZE SUB DUP2 ADD SWAP1 PUSH2 0x476 SWAP2 SWAP1 PUSH2 0x4B53 JUMP JUMPDEST PUSH2 0xD7D JUMP JUMPDEST PUSH1 0x40 MLOAD PUSH2 0x488 SWAP2 SWAP1 PUSH2 0x4DFC JUMP JUMPDEST PUSH1 0x40 MLOAD DUP1 SWAP2 SUB SWAP1 RETURN JUMPDEST CALLVALUE DUP1 ISZERO PUSH2 0x49D JUMPI PUSH1 0x0 DUP1 REVERT JUMPDEST POP PUSH2 0x4B8 PUSH1 0x4 DUP1 CALLDATASIZE SUB DUP2 ADD SWAP1 PUSH2 0x4B3 SWAP2 SWAP1 PUSH2 0x4EE1 JUMP JUMPDEST PUSH2 0xE33 JUMP JUMPDEST STOP JUMPDEST CALLVALUE DUP1 ISZERO PUSH2 0x4C6 JUMPI PUSH1 0x0 DUP1 REVERT JUMPDEST POP PUSH2 0x4E1 PUSH1 0x4 DUP1 CALLDATASIZE SUB DUP2 ADD SWAP1 PUSH2 0x4DC SWAP2 SWAP1 PUSH2 0x4FC8 JUMP JUMPDEST PUSH2 0xE9C JUMP JUMPDEST PUSH1 0x40 MLOAD PUSH2 0x4EE SWAP2 SWAP1 PUSH2 0x5004 JUMP JUMPDEST PUSH1 0x40 MLOAD DUP1 SWAP2 SUB SWAP1 RETURN JUMPDEST CALLVALUE DUP1 ISZERO PUSH2 0x503 JUMPI PUSH1 0x0 DUP1 REVERT JUMPDEST POP PUSH2 0x51E PUSH1 0x4 DUP1 CALLDATASIZE SUB DUP2 ADD SWAP1 PUSH2 0x519 SWAP2 SWAP1 PUSH2 0x501F JUMP JUMPDEST PUSH2 0xEBC JUMP JUMPDEST STOP JUMPDEST CALLVALUE DUP1 ISZERO PUSH2 0x52C JUMPI PUSH1 0x0 DUP1 REVERT JUMPDEST POP PUSH2 0x547 PUSH1 0x4 DUP1 CALLDATASIZE SUB DUP2 ADD SWAP1 PUSH2 0x542 SWAP2 SWAP1 PUSH2 0x50EE JUMP JUMPDEST PUSH2 0xF5D JUMP JUMPDEST STOP JUMPDEST CALLVALUE DUP1 ISZERO PUSH2 0x555 JUMPI PUSH1 0x0 DUP1 REVERT JUMPDEST POP PUSH2 0x570 PUSH1 0x4 DUP1 CALLDATASIZE SUB DUP2 ADD SWAP1 PUSH2 0x56B SWAP2 SWAP1 PUSH2 0x50EE JUMP JUMPDEST PUSH2 0xF7E JUMP JUMPDEST STOP JUMPDEST PUSH2 0x58C PUSH1 0x4 DUP1 CALLDATASIZE SUB DUP2 ADD SWAP1 PUSH2 0x587 SWAP2 SWAP1 PUSH2 0x5184 JUMP JUMPDEST PUSH2 0x1001 JUMP JUMPDEST PUSH1 0x40 MLOAD PUSH2 0x59A SWAP3 SWAP2 SWAP1 PUSH2 0x531E JUMP JUMPDEST PUSH1 0x40 MLOAD DUP1 SWAP2 SUB SWAP1 RETURN JUMPDEST CALLVALUE DUP1 ISZERO PUSH2 0x5AF JUMPI PUSH1 0x0 DUP1 REVERT JUMPDEST POP PUSH2 0x5B8 PUSH2 0x10CB JUMP JUMPDEST STOP JUMPDEST CALLVALUE DUP1 ISZERO PUSH2 0x5C6 JUMPI PUSH1 0x0 DUP1 REVERT JUMPDEST POP PUSH2 0x5E1 PUSH1 0x4 DUP1 CALLDATASIZE SUB DUP2 ADD SWAP1 PUSH2 0x5DC SWAP2 SWAP1 PUSH2 0x5418 JUMP JUMPDEST PUSH2 0x10E3 JUMP JUMPDEST PUSH1 0x40 MLOAD PUSH2 0x5EE SWAP2 SWAP1 PUSH2 0x553F JUMP JUMPDEST PUSH1 0x40 MLOAD DUP1 SWAP2 SUB SWAP1 RETURN JUMPDEST CALLVALUE DUP1 ISZERO PUSH2 0x603 JUMPI PUSH1 0x0 DUP1 REVERT JUMPDEST POP PUSH2 0x61E PUSH1 0x4 DUP1 CALLDATASIZE SUB DUP2 ADD SWAP1 PUSH2 0x619 SWAP2 SWAP1 PUSH2 0x4832 JUMP JUMPDEST PUSH2 0x10F7 JUMP JUMPDEST PUSH1 0x40 MLOAD PUSH2 0x62B SWAP2 SWAP1 PUSH2 0x47CE JUMP JUMPDEST PUSH1 0x40 MLOAD DUP1 SWAP2 SUB SWAP1 RETURN JUMPDEST PUSH2 0x64E PUSH1 0x4 DUP1 CALLDATASIZE SUB DUP2 ADD SWAP1 PUSH2 0x649 SWAP2 SWAP1 PUSH2 0x560D JUMP JUMPDEST PUSH2 0x110B JUMP JUMPDEST PUSH1 0x40 MLOAD PUSH2 0x65C SWAP3 SWAP2 SWAP1 PUSH2 0x531E JUMP JUMPDEST PUSH1 0x40 MLOAD DUP1 SWAP2 SUB SWAP1 RETURN JUMPDEST CALLVALUE DUP1 ISZERO PUSH2 0x671 JUMPI PUSH1 0x0 DUP1 REVERT JUMPDEST POP PUSH2 0x68C PUSH1 0x4 DUP1 CALLDATASIZE SUB DUP2 ADD SWAP1 PUSH2 0x687 SWAP2 SWAP1 PUSH2 0x4A41 JUMP JUMPDEST PUSH2 0x11DE JUMP JUMPDEST STOP JUMPDEST CALLVALUE DUP1 ISZERO PUSH2 0x69A JUMPI PUSH1 0x0 DUP1 REVERT JUMPDEST POP PUSH2 0x6B5 PUSH1 0x4 DUP1 CALLDATASIZE SUB DUP2 ADD SWAP1 PUSH2 0x6B0 SWAP2 SWAP1 PUSH2 0x4832 JUMP JUMPDEST PUSH2 0x1294 JUMP JUMPDEST PUSH1 0x40 MLOAD PUSH2 0x6C2 SWAP2 SWAP1 PUSH2 0x4571 JUMP JUMPDEST PUSH1 0x40 MLOAD DUP1 SWAP2 SUB SWAP1 RETURN JUMPDEST CALLVALUE DUP1 ISZERO PUSH2 0x6D7 JUMPI PUSH1 0x0 DUP1 REVERT JUMPDEST POP PUSH2 0x6E0 PUSH2 0x12A6 JUMP JUMPDEST PUSH1 0x40 MLOAD PUSH2 0x6ED SWAP2 SWAP1 PUSH2 0x47CE JUMP JUMPDEST PUSH1 0x40 MLOAD DUP1 SWAP2 SUB SWAP1 RETURN JUMPDEST CALLVALUE DUP1 ISZERO PUSH2 0x702 JUMPI PUSH1 0x0 DUP1 REVERT JUMPDEST POP PUSH2 0x71D PUSH1 0x4 DUP1 CALLDATASIZE SUB DUP2 ADD SWAP1 PUSH2 0x718 SWAP2 SWAP1 PUSH2 0x4FC8 JUMP JUMPDEST PUSH2 0x12BD JUMP JUMPDEST PUSH1 0x40 MLOAD PUSH2 0x72D SWAP5 SWAP4 SWAP3 SWAP2 SWAP1 PUSH2 0x5731 JUMP JUMPDEST PUSH1 0x40 MLOAD DUP1 SWAP2 SUB SWAP1 RETURN JUMPDEST CALLVALUE DUP1 ISZERO PUSH2 0x742 JUMPI PUSH1 0x0 DUP1 REVERT JUMPDEST POP PUSH2 0x75D PUSH1 0x4 DUP1 CALLDATASIZE SUB DUP2 ADD SWAP1 PUSH2 0x758 SWAP2 SWAP1 PUSH2 0x47E9 JUMP JUMPDEST PUSH2 0x1377 JUMP JUMPDEST PUSH1 0x40 MLOAD PUSH2 0x76A SWAP2 SWAP1 PUSH2 0x5004 JUMP JUMPDEST PUSH1 0x40 MLOAD DUP1 SWAP2 SUB SWAP1 RETURN JUMPDEST CALLVALUE DUP1 ISZERO PUSH2 0x77F JUMPI PUSH1 0x0 DUP1 REVERT JUMPDEST POP PUSH2 0x79A PUSH1 0x4 DUP1 CALLDATASIZE SUB DUP2 ADD SWAP1 PUSH2 0x795 SWAP2 SWAP1 PUSH2 0x5776 JUMP JUMPDEST PUSH2 0x13AF JUMP JUMPDEST STOP JUMPDEST CALLVALUE DUP1 ISZERO PUSH2 0x7A8 JUMPI PUSH1 0x0 DUP1 REVERT JUMPDEST POP PUSH2 0x7C3 PUSH1 0x4 DUP1 CALLDATASIZE SUB DUP2 ADD SWAP1 PUSH2 0x7BE SWAP2 SWAP1 PUSH2 0x4A41 JUMP JUMPDEST PUSH2 0x13BF JUMP JUMPDEST PUSH1 0x40 MLOAD PUSH2 0x7D0 SWAP2 SWAP1 PUSH2 0x47CE JUMP JUMPDEST PUSH1 0x40 MLOAD DUP1 SWAP2 SUB SWAP1 RETURN JUMPDEST CALLVALUE DUP1 ISZERO PUSH2 0x7E5 JUMPI PUSH1 0x0 DUP1 REVERT JUMPDEST POP PUSH2 0x800 PUSH1 0x4 DUP1 CALLDATASIZE SUB DUP2 ADD SWAP1 PUSH2 0x7FB SWAP2 SWAP1 PUSH2 0x501F JUMP JUMPDEST PUSH2 0x13F9 JUMP JUMPDEST STOP JUMPDEST CALLVALUE DUP1 ISZERO PUSH2 0x80E JUMPI PUSH1 0x0 DUP1 REVERT JUMPDEST POP PUSH2 0x829 PUSH1 0x4 DUP1 CALLDATASIZE SUB DUP2 ADD SWAP1 PUSH2 0x824 SWAP2 SWAP1 PUSH2 0x5801 JUMP JUMPDEST PUSH2 0x140D JUMP JUMPDEST STOP JUMPDEST CALLVALUE DUP1 ISZERO PUSH2 0x837 JUMPI PUSH1 0x0 DUP1 REVERT JUMPDEST POP PUSH2 0x852 PUSH1 0x4 DUP1 CALLDATASIZE SUB DUP2 ADD SWAP1 PUSH2 0x84D SWAP2 SWAP1 PUSH2 0x5884 JUMP JUMPDEST PUSH2 0x143E JUMP JUMPDEST PUSH1 0x40 MLOAD PUSH2 0x85F SWAP2 SWAP1 PUSH2 0x47CE JUMP JUMPDEST PUSH1 0x40 MLOAD DUP1 SWAP2 SUB SWAP1 RETURN JUMPDEST CALLVALUE DUP1 ISZERO PUSH2 0x874 JUMPI PUSH1 0x0 DUP1 REVERT JUMPDEST POP PUSH2 0x87D PUSH2 0x14E9 JUMP JUMPDEST STOP JUMPDEST CALLVALUE DUP1 ISZERO PUSH2 0x88B JUMPI PUSH1 0x0 DUP1 REVERT JUMPDEST POP PUSH2 0x894 PUSH2 0x1664 JUMP JUMPDEST STOP JUMPDEST PUSH2 0x8B0 PUSH1 0x4 DUP1 CALLDATASIZE SUB DUP2 ADD SWAP1 PUSH2 0x8AB SWAP2 SWAP1 PUSH2 0x58F5 JUMP JUMPDEST PUSH2 0x167C JUMP JUMPDEST PUSH1 0x40 MLOAD PUSH2 0x8BD SWAP2 SWAP1 PUSH2 0x47CE JUMP JUMPDEST PUSH1 0x40 MLOAD DUP1 SWAP2 SUB SWAP1 RETURN JUMPDEST CALLVALUE DUP1 ISZERO PUSH2 0x8D2 JUMPI PUSH1 0x0 DUP1 REVERT JUMPDEST POP PUSH2 0x8ED PUSH1 0x4 DUP1 CALLDATASIZE SUB DUP2 ADD SWAP1 PUSH2 0x8E8 SWAP2 SWAP1 PUSH2 0x50EE JUMP JUMPDEST PUSH2 0x1730 JUMP JUMPDEST PUSH1 0x40 MLOAD PUSH2 0x8FA SWAP2 SWAP1 PUSH2 0x47CE JUMP JUMPDEST PUSH1 0x40 MLOAD DUP1 SWAP2 SUB SWAP1 RETURN JUMPDEST CALLVALUE DUP1 ISZERO PUSH2 0x90F JUMPI PUSH1 0x0 DUP1 REVERT JUMPDEST POP PUSH2 0x918 PUSH2 0x179B JUMP JUMPDEST PUSH1 0x40 MLOAD PUSH2 0x925 SWAP2 SWAP1 PUSH2 0x5004 JUMP JUMPDEST PUSH1 0x40 MLOAD DUP1 SWAP2 SUB SWAP1 RETURN JUMPDEST CALLVALUE DUP1 ISZERO PUSH2 0x93A JUMPI PUSH1 0x0 DUP1 REVERT JUMPDEST POP PUSH2 0x955 PUSH1 0x4 DUP1 CALLDATASIZE SUB DUP2 ADD SWAP1 PUSH2 0x950 SWAP2 SWAP1 PUSH2 0x59C5 JUMP JUMPDEST PUSH2 0x17A2 JUMP JUMPDEST STOP JUMPDEST PUSH2 0x971 PUSH1 0x4 DUP1 CALLDATASIZE SUB DUP2 ADD SWAP1 PUSH2 0x96C SWAP2 SWAP1 PUSH2 0x5F03 JUMP JUMPDEST PUSH2 0x17B0 JUMP JUMPDEST PUSH1 0x40 MLOAD PUSH2 0x97E SWAP2 SWAP1 PUSH2 0x47CE JUMP JUMPDEST PUSH1 0x40 MLOAD DUP1 SWAP2 SUB SWAP1 RETURN JUMPDEST CALLVALUE DUP1 ISZERO PUSH2 0x993 JUMPI PUSH1 0x0 DUP1 REVERT JUMPDEST POP PUSH2 0x9AE PUSH1 0x4 DUP1 CALLDATASIZE SUB DUP2 ADD SWAP1 PUSH2 0x9A9 SWAP2 SWAP1 PUSH2 0x4832 JUMP JUMPDEST PUSH2 0x185B JUMP JUMPDEST PUSH1 0x40 MLOAD PUSH2 0x9BB SWAP2 SWAP1 PUSH2 0x4571 JUMP JUMPDEST PUSH1 0x40 MLOAD DUP1 SWAP2 SUB SWAP1 RETURN JUMPDEST PUSH2 0x9DE PUSH1 0x4 DUP1 CALLDATASIZE SUB DUP2 ADD SWAP1 PUSH2 0x9D9 SWAP2 SWAP1 PUSH2 0x5F5F JUMP JUMPDEST PUSH2 0x1879 JUMP JUMPDEST PUSH1 0x40 MLOAD PUSH2 0x9EB SWAP2 SWAP1 PUSH2 0x4DFC JUMP JUMPDEST PUSH1 0x40 MLOAD DUP1 SWAP2 SUB SWAP1 RETURN JUMPDEST CALLVALUE DUP1 ISZERO PUSH2 0xA00 JUMPI PUSH1 0x0 DUP1 REVERT JUMPDEST POP PUSH2 0xA1B PUSH1 0x4 DUP1 CALLDATASIZE SUB DUP2 ADD SWAP1 PUSH2 0xA16 SWAP2 SWAP1 PUSH2 0x6048 JUMP JUMPDEST PUSH2 0x1938 JUMP JUMPDEST PUSH1 0x40 MLOAD PUSH2 0xA28 SWAP2 SWAP1 PUSH2 0x5004 JUMP JUMPDEST PUSH1 0x40 MLOAD DUP1 SWAP2 SUB SWAP1 RETURN JUMPDEST CALLVALUE DUP1 ISZERO PUSH2 0xA3D JUMPI PUSH1 0x0 DUP1 REVERT JUMPDEST POP PUSH2 0xA58 PUSH1 0x4 DUP1 CALLDATASIZE SUB DUP2 ADD SWAP1 PUSH2 0xA53 SWAP2 SWAP1 PUSH2 0x50EE JUMP JUMPDEST PUSH2 0x19DE JUMP JUMPDEST STOP JUMPDEST CALLVALUE DUP1 ISZERO PUSH2 0xA66 JUMPI PUSH1 0x0 DUP1 REVERT JUMPDEST POP PUSH2 0xA81 PUSH1 0x4 DUP1 CALLDATASIZE SUB DUP2 ADD SWAP1 PUSH2 0xA7C SWAP2 SWAP1 PUSH2 0x60E7 JUMP JUMPDEST PUSH2 0x19FF JUMP JUMPDEST PUSH1 0x40 MLOAD PUSH2 0xA8E SWAP2 SWAP1 PUSH2 0x47CE JUMP JUMPDEST PUSH1 0x40 MLOAD DUP1 SWAP2 SUB SWAP1 RETURN JUMPDEST CALLVALUE DUP1 ISZERO PUSH2 0xAA3 JUMPI PUSH1 0x0 DUP1 REVERT JUMPDEST POP PUSH2 0xABE PUSH1 0x4 DUP1 CALLDATASIZE SUB DUP2 ADD SWAP1 PUSH2 0xAB9 SWAP2 SWAP1 PUSH2 0x6134 JUMP JUMPDEST PUSH2 0x1AAA JUMP JUMPDEST PUSH1 0x40 MLOAD PUSH2 0xACB SWAP2 SWAP1 PUSH2 0x4571 JUMP JUMPDEST PUSH1 0x40 MLOAD DUP1 SWAP2 SUB SWAP1 RETURN JUMPDEST CALLVALUE DUP1 ISZERO PUSH2 0xAE0 JUMPI PUSH1 0x0 DUP1 REVERT JUMPDEST POP PUSH2 0xAFB PUSH1 0x4 DUP1 CALLDATASIZE SUB DUP2 ADD SWAP1 PUSH2 0xAF6 SWAP2 SWAP1 PUSH2 0x6161 JUMP JUMPDEST PUSH2 0x1B50 JUMP JUMPDEST PUSH1 0x40 MLOAD PUSH2 0xB08 SWAP2 SWAP1 PUSH2 0x47CE JUMP JUMPDEST PUSH1 0x40 MLOAD DUP1 SWAP2 SUB SWAP1 RETURN JUMPDEST CALLVALUE DUP1 ISZERO PUSH2 0xB1D JUMPI PUSH1 0x0 DUP1 REVERT JUMPDEST POP PUSH2 0xB26 PUSH2 0x1B64 JUMP JUMPDEST PUSH1 0x40 MLOAD PUSH2 0xB33 SWAP2 SWAP1 PUSH2 0x4571 JUMP JUMPDEST PUSH1 0x40 MLOAD DUP1 SWAP2 SUB SWAP1 RETURN JUMPDEST CALLVALUE DUP1 ISZERO PUSH2 0xB48 JUMPI PUSH1 0x0 DUP1 REVERT JUMPDEST POP PUSH2 0xB63 PUSH1 0x4 DUP1 CALLDATASIZE SUB DUP2 ADD SWAP1 PUSH2 0xB5E SWAP2 SWAP1 PUSH2 0x49AA JUMP JUMPDEST PUSH2 0x1BFF JUMP JUMPDEST STOP JUMPDEST CALLVALUE DUP1 ISZERO PUSH2 0xB71 JUMPI PUSH1 0x0 DUP1 REVERT JUMPDEST POP PUSH2 0xB8C PUSH1 0x4 DUP1 CALLDATASIZE SUB DUP2 ADD SWAP1 PUSH2 0xB87 SWAP2 SWAP1 PUSH2 0x61A1 JUMP JUMPDEST PUSH2 0x1CA0 JUMP JUMPDEST STOP JUMPDEST PUSH1 0x0 PUSH2 0xB9A DUP4 DUP4 PUSH2 0x1CB0 JUMP JUMPDEST SWAP1 POP SWAP3 SWAP2 POP POP JUMP JUMPDEST PUSH2 0xBAA PUSH2 0x1D79 JUMP JUMPDEST PUSH2 0x15F PUSH1 0x0 DUP4 DUP2 MSTORE PUSH1 0x20 ADD SWAP1 DUP2 MSTORE PUSH1 0x20 ADD PUSH1 0x0 KECCAK256 SLOAD PUSH2 0xBC8 DUP2 PUSH2 0x1DC3 JUMP JUMPDEST PUSH1 0x0 DUP3 PUSH1 0x40 MLOAD PUSH1 0x20 ADD PUSH2 0xBDB SWAP2 SWAP1 PUSH2 0x48E7 JUMP JUMPDEST PUSH1 0x40 MLOAD PUSH1 0x20 DUP2 DUP4 SUB SUB DUP2 MSTORE SWAP1 PUSH1 0x40 MSTORE DUP1 MLOAD SWAP1 PUSH1 0x20 ADD KECCAK256 SWAP1 POP DUP1 PUSH2 0x15F PUSH1 0x0 DUP7 DUP2 MSTORE PUSH1 0x20 ADD SWAP1 DUP2 MSTORE PUSH1 0x20 ADD PUSH1 0x0 KECCAK256 DUP2 SWAP1 SSTORE POP POP POP POP POP JUMP JUMPDEST PUSH1 0x0 PUSH2 0xC1D DUP3 PUSH2 0x1DD7 JUMP JUMPDEST SWAP1 POP SWAP2 SWAP1 POP JUMP JUMPDEST PUSH2 0xC2C PUSH2 0x1D79 JUMP JUMPDEST PUSH1 0x0 DUP1 SHL PUSH2 0xC39 DUP2 PUSH2 0x1DC3 JUMP JUMPDEST PUSH2 0xC42 DUP3 PUSH2 0x1E51 JUMP JUMPDEST POP POP JUMP JUMPDEST PUSH1 0x60 PUSH2 0xC51 DUP3 PUSH2 0xC93 JUMP JUMPDEST PUSH2 0xC5A DUP4 PUSH2 0x1E6B JUMP JUMPDEST PUSH1 0x40 MLOAD PUSH1 0x20 ADD PUSH2 0xC6B SWAP3 SWAP2 SWAP1 PUSH2 0x6256 JUMP JUMPDEST PUSH1 0x40 MLOAD PUSH1 0x20 DUP2 DUP4 SUB SUB DUP2 MSTORE SWAP1 PUSH1 0x40 MSTORE SWAP1 POP SWAP2 SWAP1 POP JUMP JUMPDEST PUSH1 0x0 PUSH2 0xC8C DUP3 PUSH2 0x10F7 JUMP JUMPDEST SWAP1 POP SWAP2 SWAP1 POP JUMP JUMPDEST PUSH1 0x60 PUSH1 0x67 DUP1 SLOAD PUSH2 0xCA2 SWAP1 PUSH2 0x62B8 JUMP JUMPDEST DUP1 PUSH1 0x1F ADD PUSH1 0x20 DUP1 SWAP2 DIV MUL PUSH1 0x20 ADD PUSH1 0x40 MLOAD SWAP1 DUP2 ADD PUSH1 0x40 MSTORE DUP1 SWAP3 SWAP2 SWAP1 DUP2 DUP2 MSTORE PUSH1 0x20 ADD DUP3 DUP1 SLOAD PUSH2 0xCCE SWAP1 PUSH2 0x62B8 JUMP JUMPDEST DUP1 ISZERO PUSH2 0xD1B JUMPI DUP1 PUSH1 0x1F LT PUSH2 0xCF0 JUMPI PUSH2 0x100 DUP1 DUP4 SLOAD DIV MUL DUP4 MSTORE SWAP2 PUSH1 0x20 ADD SWAP2 PUSH2 0xD1B JUMP JUMPDEST DUP3 ADD SWAP2 SWAP1 PUSH1 0x0 MSTORE PUSH1 0x20 PUSH1 0x0 KECCAK256 SWAP1 JUMPDEST DUP2 SLOAD DUP2 MSTORE SWAP1 PUSH1 0x1 ADD SWAP1 PUSH1 0x20 ADD DUP1 DUP4 GT PUSH2 0xCFE JUMPI DUP3 SWAP1 SUB PUSH1 0x1F AND DUP3 ADD SWAP2 JUMPDEST POP POP POP POP POP SWAP1 POP SWAP2 SWAP1 POP JUMP JUMPDEST PUSH2 0xD34 DUP6 DUP6 DUP6 DUP6 DUP6 PUSH2 0x1BFF JUMP JUMPDEST POP POP POP POP POP JUMP JUMPDEST PUSH2 0xD43 PUSH2 0x1D79 JUMP JUMPDEST PUSH1 0x0 DUP3 PUSH1 0x40 MLOAD PUSH1 0x20 ADD PUSH2 0xD56 SWAP2 SWAP1 PUSH2 0x48E7 JUMP JUMPDEST PUSH1 0x40 MLOAD PUSH1 0x20 DUP2 DUP4 SUB SUB DUP2 MSTORE SWAP1 PUSH1 0x40 MSTORE DUP1 MLOAD SWAP1 PUSH1 0x20 ADD KECCAK256 SWAP1 POP PUSH2 0xD78 DUP2 DUP4 PUSH2 0x19DE JUMP JUMPDEST POP POP POP JUMP JUMPDEST PUSH1 0x60 PUSH2 0x162 PUSH1 0x0 SWAP1 SLOAD SWAP1 PUSH2 0x100 EXP SWAP1 DIV PUSH20 0xFFFFFFFFFFFFFFFFFFFFFFFFFFFFFFFFFFFFFFFF AND PUSH20 0xFFFFFFFFFFFFFFFFFFFFFFFFFFFFFFFFFFFFFFFF AND PUSH4 0xA8174404 DUP7 DUP7 DUP7 DUP7 PUSH1 0x40 MLOAD DUP6 PUSH4 0xFFFFFFFF AND PUSH1 0xE0 SHL DUP2 MSTORE PUSH1 0x4 ADD PUSH2 0xDE1 SWAP5 SWAP4 SWAP3 SWAP2 SWAP1 PUSH2 0x6CDF JUMP JUMPDEST PUSH1 0x0 PUSH1 0x40 MLOAD DUP1 DUP4 SUB DUP2 PUSH1 0x0 DUP8 GAS CALL ISZERO DUP1 ISZERO PUSH2 0xE00 JUMPI RETURNDATASIZE PUSH1 0x0 DUP1 RETURNDATACOPY RETURNDATASIZE PUSH1 0x0 REVERT JUMPDEST POP POP POP POP PUSH1 0x40 MLOAD RETURNDATASIZE PUSH1 0x0 DUP3 RETURNDATACOPY RETURNDATASIZE PUSH1 0x1F NOT PUSH1 0x1F DUP3 ADD AND DUP3 ADD DUP1 PUSH1 0x40 MSTORE POP DUP2 ADD SWAP1 PUSH2 0xE29 SWAP2 SWAP1 PUSH2 0x6F36 JUMP JUMPDEST SWAP1 POP SWAP5 SWAP4 POP POP POP POP JUMP JUMPDEST DUP3 PUSH1 0x0 JUMPDEST DUP2 MLOAD DUP2 LT ISZERO PUSH2 0xE88 JUMPI PUSH2 0xE77 PUSH2 0x15F PUSH1 0x0 DUP5 DUP5 DUP2 MLOAD DUP2 LT PUSH2 0xE5B JUMPI PUSH2 0xE5A PUSH2 0x6F7F JUMP JUMPDEST JUMPDEST PUSH1 0x20 MUL PUSH1 0x20 ADD ADD MLOAD DUP2 MSTORE PUSH1 0x20 ADD SWAP1 DUP2 MSTORE PUSH1 0x20 ADD PUSH1 0x0 KECCAK256 SLOAD PUSH2 0x1DC3 JUMP JUMPDEST DUP1 PUSH2 0xE81 SWAP1 PUSH2 0x6FDD JUMP JUMPDEST SWAP1 POP PUSH2 0xE37 JUMP JUMPDEST POP PUSH2 0xE95 DUP6 DUP6 DUP6 DUP6 PUSH2 0x1F39 JUMP JUMPDEST POP POP POP POP POP JUMP JUMPDEST PUSH1 0x0 PUSH1 0x97 PUSH1 0x0 DUP4 DUP2 MSTORE PUSH1 0x20 ADD SWAP1 DUP2 MSTORE PUSH1 0x20 ADD PUSH1 0x0 KECCAK256 PUSH1 0x1 ADD SLOAD SWAP1 POP SWAP2 SWAP1 POP JUMP JUMPDEST PUSH2 0xEC4 PUSH2 0x2166 JUMP JUMPDEST PUSH20 0xFFFFFFFFFFFFFFFFFFFFFFFFFFFFFFFFFFFFFFFF AND DUP6 PUSH20 0xFFFFFFFFFFFFFFFFFFFFFFFFFFFFFFFFFFFFFFFF AND EQ DUP1 PUSH2 0xF0A JUMPI POP PUSH2 0xF09 DUP6 PUSH2 0xF04 PUSH2 0x2166 JUMP JUMPDEST PUSH2 0x1B50 JUMP JUMPDEST JUMPDEST PUSH2 0xF49 JUMPI PUSH1 0x40 MLOAD PUSH32 0x8C379A000000000000000000000000000000000000000000000000000000000 DUP2 MSTORE PUSH1 0x4 ADD PUSH2 0xF40 SWAP1 PUSH2 0x7097 JUMP JUMPDEST PUSH1 0x40 MLOAD DUP1 SWAP2 SUB SWAP1 REVERT JUMPDEST PUSH2 0xF56 DUP6 DUP6 DUP6 DUP6 DUP6 PUSH2 0x216E JUMP JUMPDEST POP POP POP POP POP JUMP JUMPDEST PUSH2 0xF66 DUP3 PUSH2 0xE9C JUMP JUMPDEST PUSH2 0xF6F DUP2 PUSH2 0x1DC3 JUMP JUMPDEST PUSH2 0xF79 DUP4 DUP4 PUSH2 0x2492 JUMP JUMPDEST POP POP POP JUMP JUMPDEST PUSH2 0xF86 PUSH2 0x2166 JUMP JUMPDEST PUSH20 0xFFFFFFFFFFFFFFFFFFFFFFFFFFFFFFFFFFFFFFFF AND DUP2 PUSH20 0xFFFFFFFFFFFFFFFFFFFFFFFFFFFFFFFFFFFFFFFF AND EQ PUSH2 0xFF3 JUMPI PUSH1 0x40 MLOAD PUSH32 0x8C379A000000000000000000000000000000000000000000000000000000000 DUP2 MSTORE PUSH1 0x4 ADD PUSH2 0xFEA SWAP1 PUSH2 0x7129 JUMP JUMPDEST PUSH1 0x40 MLOAD DUP1 SWAP2 SUB SWAP1 REVERT JUMPDEST PUSH2 0xFFD DUP3 DUP3 PUSH2 0x2573 JUMP JUMPDEST POP POP JUMP JUMPDEST PUSH1 0x60 DUP1 PUSH2 0x162 PUSH1 0x0 SWAP1 SLOAD SWAP1 PUSH2 0x100 EXP SWAP1 DIV PUSH20 0xFFFFFFFFFFFFFFFFFFFFFFFFFFFFFFFFFFFFFFFF AND PUSH20 0xFFFFFFFFFFFFFFFFFFFFFFFFFFFFFFFFFFFFFFFF AND PUSH4 0xED98A574 DUP12 DUP12 DUP12 DUP12 DUP12 DUP12 DUP12 DUP12 PUSH1 0x40 MLOAD DUP10 PUSH4 0xFFFFFFFF AND PUSH1 0xE0 SHL DUP2 MSTORE PUSH1 0x4 ADD PUSH2 0x106E SWAP9 SWAP8 SWAP7 SWAP6 SWAP5 SWAP4 SWAP3 SWAP2 SWAP1 PUSH2 0x71FD JUMP JUMPDEST PUSH1 0x0 PUSH1 0x40 MLOAD DUP1 DUP4 SUB DUP2 PUSH1 0x0 DUP8 GAS CALL ISZERO DUP1 ISZERO PUSH2 0x108D JUMPI RETURNDATASIZE PUSH1 0x0 DUP1 RETURNDATACOPY RETURNDATASIZE PUSH1 0x0 REVERT JUMPDEST POP POP POP POP PUSH1 0x40 MLOAD RETURNDATASIZE PUSH1 0x0 DUP3 RETURNDATACOPY RETURNDATASIZE PUSH1 0x1F NOT PUSH1 0x1F DUP3 ADD AND DUP3 ADD DUP1 PUSH1 0x40 MSTORE POP DUP2 ADD SWAP1 PUSH2 0x10B6 SWAP2 SWAP1 PUSH2 0x7343 JUMP JUMPDEST DUP1 SWAP3 POP DUP2 SWAP4 POP POP POP SWAP9 POP SWAP9 SWAP7 POP POP POP POP POP POP POP JUMP JUMPDEST PUSH1 0x0 DUP1 SHL PUSH2 0x10D8 DUP2 PUSH2 0x1DC3 JUMP JUMPDEST PUSH2 0x10E0 PUSH2 0x2655 JUMP JUMPDEST POP JUMP JUMPDEST PUSH1 0x60 PUSH2 0x10EF DUP4 DUP4 PUSH2 0x26B8 JUMP JUMPDEST SWAP1 POP SWAP3 SWAP2 POP POP JUMP JUMPDEST PUSH1 0x0 DUP1 PUSH2 0x1103 DUP4 PUSH2 0x185B JUMP JUMPDEST GT SWAP1 POP SWAP2 SWAP1 POP JUMP JUMPDEST PUSH1 0x60 DUP1 PUSH2 0x162 PUSH1 0x0 SWAP1 SLOAD SWAP1 PUSH2 0x100 EXP SWAP1 DIV PUSH20 0xFFFFFFFFFFFFFFFFFFFFFFFFFFFFFFFFFFFFFFFF AND PUSH20 0xFFFFFFFFFFFFFFFFFFFFFFFFFFFFFFFFFFFFFFFF AND PUSH4 0x87201B41 DUP15 DUP15 DUP15 DUP15 DUP15 DUP15 DUP15 DUP15 DUP15 DUP15 DUP15 PUSH1 0x40 MLOAD DUP13 PUSH4 0xFFFFFFFF AND PUSH1 0xE0 SHL DUP2 MSTORE PUSH1 0x4 ADD PUSH2 0x117E SWAP12 SWAP11 SWAP10 SWAP9 SWAP8 SWAP7 SWAP6 SWAP5 SWAP4 SWAP3 SWAP2 SWAP1 PUSH2 0x7890 JUMP JUMPDEST PUSH1 0x0 PUSH1 0x40 MLOAD DUP1 DUP4 SUB DUP2 PUSH1 0x0 DUP8 GAS CALL ISZERO DUP1 ISZERO PUSH2 0x119D JUMPI RETURNDATASIZE PUSH1 0x0 DUP1 RETURNDATACOPY RETURNDATASIZE PUSH1 0x0 REVERT JUMPDEST POP POP POP POP PUSH1 0x40 MLOAD RETURNDATASIZE PUSH1 0x0 DUP3 RETURNDATACOPY RETURNDATASIZE PUSH1 0x1F NOT PUSH1 0x1F DUP3 ADD AND DUP3 ADD DUP1 PUSH1 0x40 MSTORE POP DUP2 ADD SWAP1 PUSH2 0x11C6 SWAP2 SWAP1 PUSH2 0x7343 JUMP JUMPDEST DUP1 SWAP3 POP DUP2 SWAP4 POP POP POP SWAP12 POP SWAP12 SWAP10 POP POP POP POP POP POP POP POP POP POP JUMP JUMPDEST PUSH2 0x11E6 PUSH2 0x1D79 JUMP JUMPDEST PUSH1 0x0 DUP3 PUSH1 0x40 MLOAD PUSH1 0x20 ADD PUSH2 0x11F9 SWAP2 SWAP1 PUSH2 0x48E7 JUMP JUMPDEST PUSH1 0x40 MLOAD PUSH1 0x20 DUP2 DUP4 SUB SUB DUP2 MSTORE SWAP1 PUSH1 0x40 MSTORE DUP1 MLOAD SWAP1 PUSH1 0x20 ADD KECCAK256 SWAP1 POP PUSH2 0x121B DUP2 DUP4 PUSH2 0xF5D JUMP JUMPDEST PUSH2 0x160 DUP4 PUSH1 0x40 MLOAD PUSH2 0x122C SWAP2 SWAP1 PUSH2 0x7923 JUMP JUMPDEST SWAP1 DUP2 MSTORE PUSH1 0x20 ADD PUSH1 0x40 MLOAD DUP1 SWAP2 SUB SWAP1 KECCAK256 PUSH1 0x0 SWAP1 SLOAD SWAP1 PUSH2 0x100 EXP SWAP1 DIV PUSH1 0xFF AND PUSH2 0x128F JUMPI PUSH1 0x1 PUSH2 0x160 DUP5 PUSH1 0x40 MLOAD PUSH2 0x125F SWAP2 SWAP1 PUSH2 0x7923 JUMP JUMPDEST SWAP1 DUP2 MSTORE PUSH1 0x20 ADD PUSH1 0x40 MLOAD DUP1 SWAP2 SUB SWAP1 KECCAK256 PUSH1 0x0 PUSH2 0x100 EXP DUP2 SLOAD DUP2 PUSH1 0xFF MUL NOT AND SWAP1 DUP4 ISZERO ISZERO MUL OR SWAP1 SSTORE POP PUSH2 0x128E DUP2 DUP3 PUSH2 0x27D1 JUMP JUMPDEST JUMPDEST POP POP POP JUMP JUMPDEST PUSH1 0x0 PUSH2 0x129F DUP3 PUSH2 0x185B JUMP JUMPDEST SWAP1 POP SWAP2 SWAP1 POP JUMP JUMPDEST PUSH1 0x0 PUSH1 0xC9 PUSH1 0x0 SWAP1 SLOAD SWAP1 PUSH2 0x100 EXP SWAP1 DIV PUSH1 0xFF AND SWAP1 POP SWAP1 JUMP JUMPDEST PUSH1 0x0 DUP1 PUSH1 0x0 DUP1 PUSH2 0x162 PUSH1 0x0 SWAP1 SLOAD SWAP1 PUSH2 0x100 EXP SWAP1 DIV PUSH20 0xFFFFFFFFFFFFFFFFFFFFFFFFFFFFFFFFFFFFFFFF AND PUSH20 0xFFFFFFFFFFFFFFFFFFFFFFFFFFFFFFFFFFFFFFFF AND PUSH4 0x46423AA7 DUP7 PUSH1 0x40 MLOAD DUP3 PUSH4 0xFFFFFFFF AND PUSH1 0xE0 SHL DUP2 MSTORE PUSH1 0x4 ADD PUSH2 0x131F SWAP2 SWAP1 PUSH2 0x5004 JUMP JUMPDEST PUSH1 0x80 PUSH1 0x40 MLOAD DUP1 DUP4 SUB DUP2 DUP7 GAS STATICCALL ISZERO DUP1 ISZERO PUSH2 0x133C JUMPI RETURNDATASIZE PUSH1 0x0 DUP1 RETURNDATACOPY RETURNDATASIZE PUSH1 0x0 REVERT JUMPDEST POP POP POP POP PUSH1 0x40 MLOAD RETURNDATASIZE PUSH1 0x1F NOT PUSH1 0x1F DUP3 ADD AND DUP3 ADD DUP1 PUSH1 0x40 MSTORE POP DUP2 ADD SWAP1 PUSH2 0x1360 SWAP2 SWAP1 PUSH2 0x793A JUMP JUMPDEST DUP1 SWAP5 POP DUP2 SWAP6 POP DUP3 SWAP7 POP DUP4 SWAP8 POP POP POP POP POP SWAP2 SWAP4 POP SWAP2 SWAP4 JUMP JUMPDEST PUSH1 0x0 PUSH2 0x13A8 DUP3 PUSH1 0x40 MLOAD PUSH1 0x20 ADD PUSH2 0x138D SWAP2 SWAP1 PUSH2 0x48E7 JUMP JUMPDEST PUSH1 0x40 MLOAD PUSH1 0x20 DUP2 DUP4 SUB SUB DUP2 MSTORE SWAP1 PUSH1 0x40 MSTORE DUP1 MLOAD SWAP1 PUSH1 0x20 ADD KECCAK256 PUSH2 0xE9C JUMP JUMPDEST SWAP1 POP SWAP2 SWAP1 POP JUMP JUMPDEST PUSH2 0x13BA DUP4 DUP4 DUP4 PUSH2 0x282D JUMP JUMPDEST POP POP POP JUMP JUMPDEST PUSH1 0x0 PUSH2 0x13F1 DUP4 PUSH1 0x40 MLOAD PUSH1 0x20 ADD PUSH2 0x13D5 SWAP2 SWAP1 PUSH2 0x48E7 JUMP JUMPDEST PUSH1 0x40 MLOAD PUSH1 0x20 DUP2 DUP4 SUB SUB DUP2 MSTORE SWAP1 PUSH1 0x40 MSTORE DUP1 MLOAD SWAP1 PUSH1 0x20 ADD KECCAK256 DUP4 PUSH2 0x1730 JUMP JUMPDEST SWAP1 POP SWAP3 SWAP2 POP POP JUMP JUMPDEST PUSH2 0x1406 DUP6 DUP6 DUP6 DUP6 DUP6 PUSH2 0xEBC JUMP JUMPDEST POP POP POP POP POP JUMP JUMPDEST PUSH2 0x15F PUSH1 0x0 DUP5 DUP2 MSTORE PUSH1 0x20 ADD SWAP1 DUP2 MSTORE PUSH1 0x20 ADD PUSH1 0x0 KECCAK256 SLOAD PUSH2 0x142B DUP2 PUSH2 0x1DC3 JUMP JUMPDEST PUSH2 0x1437 DUP6 DUP6 DUP6 DUP6 PUSH2 0x28CA JUMP JUMPDEST POP POP POP POP POP JUMP JUMPDEST PUSH1 0x0 PUSH2 0x162 PUSH1 0x0 SWAP1 SLOAD SWAP1 PUSH2 0x100 EXP SWAP1 DIV PUSH20 0xFFFFFFFFFFFFFFFFFFFFFFFFFFFFFFFFFFFFFFFF AND PUSH20 0xFFFFFFFFFFFFFFFFFFFFFFFFFFFFFFFFFFFFFFFF AND PUSH4 0x88147732 DUP5 DUP5 PUSH1 0x40 MLOAD DUP4 PUSH4 0xFFFFFFFF AND PUSH1 0xE0 SHL DUP2 MSTORE PUSH1 0x4 ADD PUSH2 0x149E SWAP3 SWAP2 SWAP1 PUSH2 0x79A1 JUMP JUMPDEST PUSH1 0x20 PUSH1 0x40 MLOAD DUP1 DUP4 SUB DUP2 PUSH1 0x0 DUP8 GAS CALL ISZERO DUP1 ISZERO PUSH2 0x14BD JUMPI RETURNDATASIZE PUSH1 0x0 DUP1 RETURNDATACOPY RETURNDATASIZE PUSH1 0x0 REVERT JUMPDEST POP POP POP POP PUSH1 0x40 MLOAD RETURNDATASIZE PUSH1 0x1F NOT PUSH1 0x1F DUP3 ADD AND DUP3 ADD DUP1 PUSH1 0x40 MSTORE POP DUP2 ADD SWAP1 PUSH2 0x14E1 SWAP2 SWAP1 PUSH2 0x79C5 JUMP JUMPDEST SWAP1 POP SWAP3 SWAP2 POP POP JUMP JUMPDEST PUSH1 0x0 DUP1 PUSH1 0x1 SWAP1 SLOAD SWAP1 PUSH2 0x100 EXP SWAP1 DIV PUSH1 0xFF AND ISZERO SWAP1 POP DUP1 DUP1 ISZERO PUSH2 0x151A JUMPI POP PUSH1 0x1 PUSH1 0x0 DUP1 SLOAD SWAP1 PUSH2 0x100 EXP SWAP1 DIV PUSH1 0xFF AND PUSH1 0xFF AND LT JUMPDEST DUP1 PUSH2 0x1547 JUMPI POP PUSH2 0x1529 ADDRESS PUSH2 0x2A7B JUMP JUMPDEST ISZERO DUP1 ISZERO PUSH2 0x1546 JUMPI POP PUSH1 0x1 PUSH1 0x0 DUP1 SLOAD SWAP1 PUSH2 0x100 EXP SWAP1 DIV PUSH1 0xFF AND PUSH1 0xFF AND EQ JUMPDEST JUMPDEST PUSH2 0x1586 JUMPI PUSH1 0x40 MLOAD PUSH32 0x8C379A000000000000000000000000000000000000000000000000000000000 DUP2 MSTORE PUSH1 0x4 ADD PUSH2 0x157D SWAP1 PUSH2 0x7A64 JUMP JUMPDEST PUSH1 0x40 MLOAD DUP1 SWAP2 SUB SWAP1 REVERT JUMPDEST PUSH1 0x1 PUSH1 0x0 DUP1 PUSH2 0x100 EXP DUP2 SLOAD DUP2 PUSH1 0xFF MUL NOT AND SWAP1 DUP4 PUSH1 0xFF AND MUL OR SWAP1 SSTORE POP DUP1 ISZERO PUSH2 0x15C3 JUMPI PUSH1 0x1 PUSH1 0x0 PUSH1 0x1 PUSH2 0x100 EXP DUP2 SLOAD DUP2 PUSH1 0xFF MUL NOT AND SWAP1 DUP4 ISZERO ISZERO MUL OR SWAP1 SSTORE POP JUMPDEST PUSH2 0x15DB PUSH1 0x40 MLOAD DUP1 PUSH1 0x20 ADD PUSH1 0x40 MSTORE DUP1 PUSH1 0x0 DUP2 MSTORE POP PUSH2 0x2A9E JUMP JUMPDEST PUSH2 0x15E3 PUSH2 0x2AF9 JUMP JUMPDEST PUSH2 0x15EB PUSH2 0x2B4A JUMP JUMPDEST PUSH2 0x15F3 PUSH2 0x2BA3 JUMP JUMPDEST PUSH2 0x15FB PUSH2 0x2BF4 JUMP JUMPDEST PUSH2 0x1608 PUSH1 0x0 DUP1 SHL CALLER PUSH2 0x2492 JUMP JUMPDEST DUP1 ISZERO PUSH2 0x1661 JUMPI PUSH1 0x0 DUP1 PUSH1 0x1 PUSH2 0x100 EXP DUP2 SLOAD DUP2 PUSH1 0xFF MUL NOT AND SWAP1 DUP4 ISZERO ISZERO MUL OR SWAP1 SSTORE POP PUSH32 0x7F26B83FF96E1F2B6A682F133852F6798A09C465DA95921460CEFB3847402498 PUSH1 0x1 PUSH1 0x40 MLOAD PUSH2 0x1658 SWAP2 SWAP1 PUSH2 0x7AD6 JUMP JUMPDEST PUSH1 0x40 MLOAD DUP1 SWAP2 SUB SWAP1 LOG1 JUMPDEST POP JUMP JUMPDEST PUSH1 0x0 DUP1 SHL PUSH2 0x1671 DUP2 PUSH2 0x1DC3 JUMP JUMPDEST PUSH2 0x1679 PUSH2 0x2C45 JUMP JUMPDEST POP JUMP JUMPDEST PUSH1 0x0 PUSH2 0x162 PUSH1 0x0 SWAP1 SLOAD SWAP1 PUSH2 0x100 EXP SWAP1 DIV PUSH20 0xFFFFFFFFFFFFFFFFFFFFFFFFFFFFFFFFFFFFFFFF AND PUSH20 0xFFFFFFFFFFFFFFFFFFFFFFFFFFFFFFFFFFFFFFFF AND PUSH4 0xE7ACAB24 DUP8 DUP8 DUP8 DUP8 DUP8 PUSH1 0x40 MLOAD DUP7 PUSH4 0xFFFFFFFF AND PUSH1 0xE0 SHL DUP2 MSTORE PUSH1 0x4 ADD PUSH2 0x16E2 SWAP6 SWAP5 SWAP4 SWAP3 SWAP2 SWAP1 PUSH2 0x7BA1 JUMP JUMPDEST PUSH1 0x20 PUSH1 0x40 MLOAD DUP1 DUP4 SUB DUP2 PUSH1 0x0 DUP8 GAS CALL ISZERO DUP1 ISZERO PUSH2 0x1701 JUMPI RETURNDATASIZE PUSH1 0x0 DUP1 RETURNDATACOPY RETURNDATASIZE PUSH1 0x0 REVERT JUMPDEST POP POP POP POP PUSH1 0x40 MLOAD RETURNDATASIZE PUSH1 0x1F NOT PUSH1 0x1F DUP3 ADD AND DUP3 ADD DUP1 PUSH1 0x40 MSTORE POP DUP2 ADD SWAP1 PUSH2 0x1725 SWAP2 SWAP1 PUSH2 0x79C5 JUMP JUMPDEST SWAP1 POP SWAP6 SWAP5 POP POP POP POP POP JUMP JUMPDEST PUSH1 0x0 PUSH1 0x97 PUSH1 0x0 DUP5 DUP2 MSTORE PUSH1 0x20 ADD SWAP1 DUP2 MSTORE PUSH1 0x20 ADD PUSH1 0x0 KECCAK256 PUSH1 0x0 ADD PUSH1 0x0 DUP4 PUSH20 0xFFFFFFFFFFFFFFFFFFFFFFFFFFFFFFFFFFFFFFFF AND PUSH20 0xFFFFFFFFFFFFFFFFFFFFFFFFFFFFFFFFFFFFFFFF AND DUP2 MSTORE PUSH1 0x20 ADD SWAP1 DUP2 MSTORE PUSH1 0x20 ADD PUSH1 0x0 KECCAK256 PUSH1 0x0 SWAP1 SLOAD SWAP1 PUSH2 0x100 EXP SWAP1 DIV PUSH1 0xFF AND SWAP1 POP SWAP3 SWAP2 POP POP JUMP JUMPDEST PUSH1 0x0 DUP1 SHL DUP2 JUMP JUMPDEST PUSH2 0x17AC DUP3 DUP3 PUSH2 0x2CA8 JUMP JUMPDEST POP POP JUMP JUMPDEST PUSH1 0x0 PUSH2 0x162 PUSH1 0x0 SWAP1 SLOAD SWAP1 PUSH2 0x100 EXP SWAP1 DIV PUSH20 0xFFFFFFFFFFFFFFFFFFFFFFFFFFFFFFFFFFFFFFFF AND PUSH20 0xFFFFFFFFFFFFFFFFFFFFFFFFFFFFFFFFFFFFFFFF AND PUSH4 0xB3A34C4C DUP5 DUP5 PUSH1 0x40 MLOAD DUP4 PUSH4 0xFFFFFFFF AND PUSH1 0xE0 SHL DUP2 MSTORE PUSH1 0x4 ADD PUSH2 0x1810 SWAP3 SWAP2 SWAP1 PUSH2 0x7F93 JUMP JUMPDEST PUSH1 0x20 PUSH1 0x40 MLOAD DUP1 DUP4 SUB DUP2 PUSH1 0x0 DUP8 GAS CALL ISZERO DUP1 ISZERO PUSH2 0x182F JUMPI RETURNDATASIZE PUSH1 0x0 DUP1 RETURNDATACOPY RETURNDATASIZE PUSH1 0x0 REVERT JUMPDEST POP POP POP POP PUSH1 0x40 MLOAD RETURNDATASIZE PUSH1 0x1F NOT PUSH1 0x1F DUP3 ADD AND DUP3 ADD DUP1 PUSH1 0x40 MSTORE POP DUP2 ADD SWAP1 PUSH2 0x1853 SWAP2 SWAP1 PUSH2 0x79C5 JUMP JUMPDEST SWAP1 POP SWAP3 SWAP2 POP POP JUMP JUMPDEST PUSH1 0x0 PUSH2 0x12D PUSH1 0x0 DUP4 DUP2 MSTORE PUSH1 0x20 ADD SWAP1 DUP2 MSTORE PUSH1 0x20 ADD PUSH1 0x0 KECCAK256 SLOAD SWAP1 POP SWAP2 SWAP1 POP JUMP JUMPDEST PUSH1 0x60 PUSH2 0x162 PUSH1 0x0 SWAP1 SLOAD SWAP1 PUSH2 0x100 EXP SWAP1 DIV PUSH20 0xFFFFFFFFFFFFFFFFFFFFFFFFFFFFFFFFFFFFFFFF AND PUSH20 0xFFFFFFFFFFFFFFFFFFFFFFFFFFFFFFFFFFFFFFFF AND PUSH4 0xF2D12B12 DUP10 DUP10 DUP10 DUP10 DUP10 DUP10 DUP10 PUSH1 0x40 MLOAD DUP9 PUSH4 0xFFFFFFFF AND PUSH1 0xE0 SHL DUP2 MSTORE PUSH1 0x4 ADD PUSH2 0x18E3 SWAP8 SWAP7 SWAP6 SWAP5 SWAP4 SWAP3 SWAP2 SWAP1 PUSH2 0x7FC3 JUMP JUMPDEST PUSH1 0x0 PUSH1 0x40 MLOAD DUP1 DUP4 SUB DUP2 PUSH1 0x0 DUP8 GAS CALL ISZERO DUP1 ISZERO PUSH2 0x1902 JUMPI RETURNDATASIZE PUSH1 0x0 DUP1 RETURNDATACOPY RETURNDATASIZE PUSH1 0x0 REVERT JUMPDEST POP POP POP POP PUSH1 0x40 MLOAD RETURNDATASIZE PUSH1 0x0 DUP3 RETURNDATACOPY RETURNDATASIZE PUSH1 0x1F NOT PUSH1 0x1F DUP3 ADD AND DUP3 ADD DUP1 PUSH1 0x40 MSTORE POP DUP2 ADD SWAP1 PUSH2 0x192B SWAP2 SWAP1 PUSH2 0x6F36 JUMP JUMPDEST SWAP1 POP SWAP8 SWAP7 POP POP POP POP POP POP POP JUMP JUMPDEST PUSH1 0x0 PUSH2 0x162 PUSH1 0x0 SWAP1 SLOAD SWAP1 PUSH2 0x100 EXP SWAP1 DIV PUSH20 0xFFFFFFFFFFFFFFFFFFFFFFFFFFFFFFFFFFFFFFFF AND PUSH20 0xFFFFFFFFFFFFFFFFFFFFFFFFFFFFFFFFFFFFFFFF AND PUSH4 0x79DF72BD DUP4 PUSH1 0x40 MLOAD DUP3 PUSH4 0xFFFFFFFF AND PUSH1 0xE0 SHL DUP2 MSTORE PUSH1 0x4 ADD PUSH2 0x1996 SWAP2 SWAP1 PUSH2 0x8175 JUMP JUMPDEST PUSH1 0x20 PUSH1 0x40 MLOAD DUP1 DUP4 SUB DUP2 DUP7 GAS STATICCALL ISZERO DUP1 ISZERO PUSH2 0x19B3 JUMPI RETURNDATASIZE PUSH1 0x0 DUP1 RETURNDATACOPY RETURNDATASIZE PUSH1 0x0 REVERT JUMPDEST POP POP POP POP PUSH1 0x40 MLOAD RETURNDATASIZE PUSH1 0x1F NOT PUSH1 0x1F DUP3 ADD AND DUP3 ADD DUP1 PUSH1 0x40 MSTORE POP DUP2 ADD SWAP1 PUSH2 0x19D7 SWAP2 SWAP1 PUSH2 0x8197 JUMP JUMPDEST SWAP1 POP SWAP2 SWAP1 POP JUMP JUMPDEST PUSH2 0x19E7 DUP3 PUSH2 0xE9C JUMP JUMPDEST PUSH2 0x19F0 DUP2 PUSH2 0x1DC3 JUMP JUMPDEST PUSH2 0x19FA DUP4 DUP4 PUSH2 0x2573 JUMP JUMPDEST POP POP POP JUMP JUMPDEST PUSH1 0x0 PUSH2 0x162 PUSH1 0x0 SWAP1 SLOAD SWAP1 PUSH2 0x100 EXP SWAP1 DIV PUSH20 0xFFFFFFFFFFFFFFFFFFFFFFFFFFFFFFFFFFFFFFFF AND PUSH20 0xFFFFFFFFFFFFFFFFFFFFFFFFFFFFFFFFFFFFFFFF AND PUSH4 0xFD9F1E10 DUP5 DUP5 PUSH1 0x40 MLOAD DUP4 PUSH4 0xFFFFFFFF AND PUSH1 0xE0 SHL DUP2 MSTORE PUSH1 0x4 ADD PUSH2 0x1A5F SWAP3 SWAP2 SWAP1 PUSH2 0x83EF JUMP JUMPDEST PUSH1 0x20 PUSH1 0x40 MLOAD DUP1 DUP4 SUB DUP2 PUSH1 0x0 DUP8 GAS CALL ISZERO DUP1 ISZERO PUSH2 0x1A7E JUMPI RETURNDATASIZE PUSH1 0x0 DUP1 RETURNDATACOPY RETURNDATASIZE PUSH1 0x0 REVERT JUMPDEST POP POP POP POP PUSH1 0x40 MLOAD RETURNDATASIZE PUSH1 0x1F NOT PUSH1 0x1F DUP3 ADD AND DUP3 ADD DUP1 PUSH1 0x40 MSTORE POP DUP2 ADD SWAP1 PUSH2 0x1AA2 SWAP2 SWAP1 PUSH2 0x79C5 JUMP JUMPDEST SWAP1 POP SWAP3 SWAP2 POP POP JUMP JUMPDEST PUSH1 0x0 PUSH2 0x162 PUSH1 0x0 SWAP1 SLOAD SWAP1 PUSH2 0x100 EXP SWAP1 DIV PUSH20 0xFFFFFFFFFFFFFFFFFFFFFFFFFFFFFFFFFFFFFFFF AND PUSH20 0xFFFFFFFFFFFFFFFFFFFFFFFFFFFFFFFFFFFFFFFF AND PUSH4 0xF07EC373 DUP4 PUSH1 0x40 MLOAD DUP3 PUSH4 0xFFFFFFFF AND PUSH1 0xE0 SHL DUP2 MSTORE PUSH1 0x4 ADD PUSH2 0x1B08 SWAP2 SWAP1 PUSH2 0x8413 JUMP JUMPDEST PUSH1 0x20 PUSH1 0x40 MLOAD DUP1 DUP4 SUB DUP2 DUP7 GAS STATICCALL ISZERO DUP1 ISZERO PUSH2 0x1B25 JUMPI RETURNDATASIZE PUSH1 0x0 DUP1 RETURNDATACOPY RETURNDATASIZE PUSH1 0x0 REVERT JUMPDEST POP POP POP POP PUSH1 0x40 MLOAD RETURNDATASIZE PUSH1 0x1F NOT PUSH1 0x1F DUP3 ADD AND DUP3 ADD DUP1 PUSH1 0x40 MSTORE POP DUP2 ADD SWAP1 PUSH2 0x1B49 SWAP2 SWAP1 PUSH2 0x842E JUMP JUMPDEST SWAP1 POP SWAP2 SWAP1 POP JUMP JUMPDEST PUSH1 0x0 PUSH2 0x1B5C DUP4 DUP4 PUSH2 0x2CBE JUMP JUMPDEST SWAP1 POP SWAP3 SWAP2 POP POP JUMP JUMPDEST PUSH1 0x0 PUSH2 0x162 PUSH1 0x0 SWAP1 SLOAD SWAP1 PUSH2 0x100 EXP SWAP1 DIV PUSH20 0xFFFFFFFFFFFFFFFFFFFFFFFFFFFFFFFFFFFFFFFF AND PUSH20 0xFFFFFFFFFFFFFFFFFFFFFFFFFFFFFFFFFFFFFFFF AND PUSH4 0x5B34B966 PUSH1 0x40 MLOAD DUP2 PUSH4 0xFFFFFFFF AND PUSH1 0xE0 SHL DUP2 MSTORE PUSH1 0x4 ADD PUSH1 0x20 PUSH1 0x40 MLOAD DUP1 DUP4 SUB DUP2 PUSH1 0x0 DUP8 GAS CALL ISZERO DUP1 ISZERO PUSH2 0x1BD6 JUMPI RETURNDATASIZE PUSH1 0x0 DUP1 RETURNDATACOPY RETURNDATASIZE PUSH1 0x0 REVERT JUMPDEST POP POP POP POP PUSH1 0x40 MLOAD RETURNDATASIZE PUSH1 0x1F NOT PUSH1 0x1F DUP3 ADD AND DUP3 ADD DUP1 PUSH1 0x40 MSTORE POP DUP2 ADD SWAP1 PUSH2 0x1BFA SWAP2 SWAP1 PUSH2 0x842E JUMP JUMPDEST SWAP1 POP SWAP1 JUMP JUMPDEST PUSH2 0x1C07 PUSH2 0x2166 JUMP JUMPDEST PUSH20 0xFFFFFFFFFFFFFFFFFFFFFFFFFFFFFFFFFFFFFFFF AND DUP6 PUSH20 0xFFFFFFFFFFFFFFFFFFFFFFFFFFFFFFFFFFFFFFFF AND EQ DUP1 PUSH2 0x1C4D JUMPI POP PUSH2 0x1C4C DUP6 PUSH2 0x1C47 PUSH2 0x2166 JUMP JUMPDEST PUSH2 0x1B50 JUMP JUMPDEST JUMPDEST PUSH2 0x1C8C JUMPI PUSH1 0x40 MLOAD PUSH32 0x8C379A000000000000000000000000000000000000000000000000000000000 DUP2 MSTORE PUSH1 0x4 ADD PUSH2 0x1C83 SWAP1 PUSH2 0x7097 JUMP JUMPDEST PUSH1 0x40 MLOAD DUP1 SWAP2 SUB SWAP1 REVERT JUMPDEST PUSH2 0x1C99 DUP6 DUP6 DUP6 DUP6 DUP6 PUSH2 0x2D52 JUMP JUMPDEST POP POP POP POP POP JUMP JUMPDEST PUSH2 0x1CAB DUP4 DUP4 DUP4 PUSH2 0x2FF0 JUMP JUMPDEST POP POP POP JUMP JUMPDEST PUSH1 0x0 DUP1 PUSH20 0xFFFFFFFFFFFFFFFFFFFFFFFFFFFFFFFFFFFFFFFF AND DUP4 PUSH20 0xFFFFFFFFFFFFFFFFFFFFFFFFFFFFFFFFFFFFFFFF AND SUB PUSH2 0x1D20 JUMPI PUSH1 0x40 MLOAD PUSH32 0x8C379A000000000000000000000000000000000000000000000000000000000 DUP2 MSTORE PUSH1 0x4 ADD PUSH2 0x1D17 SWAP1 PUSH2 0x84CD JUMP JUMPDEST PUSH1 0x40 MLOAD DUP1 SWAP2 SUB SWAP1 REVERT JUMPDEST PUSH1 0x65 PUSH1 0x0 DUP4 DUP2 MSTORE PUSH1 0x20 ADD SWAP1 DUP2 MSTORE PUSH1 0x20 ADD PUSH1 0x0 KECCAK256 PUSH1 0x0 DUP5 PUSH20 0xFFFFFFFFFFFFFFFFFFFFFFFFFFFFFFFFFFFFFFFF AND PUSH20 0xFFFFFFFFFFFFFFFFFFFFFFFFFFFFFFFFFFFFFFFF AND DUP2 MSTORE PUSH1 0x20 ADD SWAP1 DUP2 MSTORE PUSH1 0x20 ADD PUSH1 0x0 KECCAK256 SLOAD SWAP1 POP SWAP3 SWAP2 POP POP JUMP JUMPDEST PUSH2 0x1D81 PUSH2 0x12A6 JUMP JUMPDEST ISZERO PUSH2 0x1DC1 JUMPI PUSH1 0x40 MLOAD PUSH32 0x8C379A000000000000000000000000000000000000000000000000000000000 DUP2 MSTORE PUSH1 0x4 ADD PUSH2 0x1DB8 SWAP1 PUSH2 0x8539 JUMP JUMPDEST PUSH1 0x40 MLOAD DUP1 SWAP2 SUB SWAP1 REVERT JUMPDEST JUMP JUMPDEST PUSH2 0x1DD4 DUP2 PUSH2 0x1DCF PUSH2 0x2166 JUMP JUMPDEST PUSH2 0x308D JUMP JUMPDEST POP JUMP JUMPDEST PUSH1 0x0 PUSH32 0x7965DB0B00000000000000000000000000000000000000000000000000000000 PUSH28 0xFFFFFFFFFFFFFFFFFFFFFFFFFFFFFFFFFFFFFFFFFFFFFFFFFFFFFFFF NOT AND DUP3 PUSH28 0xFFFFFFFFFFFFFFFFFFFFFFFFFFFFFFFFFFFFFFFFFFFFFFFFFFFFFFFF NOT AND EQ DUP1 PUSH2 0x1E4A JUMPI POP PUSH2 0x1E49 DUP3 PUSH2 0x3112 JUMP JUMPDEST JUMPDEST SWAP1 POP SWAP2 SWAP1 POP JUMP JUMPDEST DUP1 PUSH1 0x67 SWAP1 DUP1 MLOAD SWAP1 PUSH1 0x20 ADD SWAP1 PUSH2 0x1E67 SWAP3 SWAP2 SWAP1 PUSH2 0x43D7 JUMP JUMPDEST POP POP JUMP JUMPDEST PUSH1 0x60 PUSH1 0x0 PUSH1 0x1 PUSH2 0x1E7A DUP5 PUSH2 0x31F4 JUMP JUMPDEST ADD SWAP1 POP PUSH1 0x0 DUP2 PUSH8 0xFFFFFFFFFFFFFFFF DUP2 GT ISZERO PUSH2 0x1E99 JUMPI PUSH2 0x1E98 PUSH2 0x45A7 JUMP JUMPDEST JUMPDEST PUSH1 0x40 MLOAD SWAP1 DUP1 DUP3 MSTORE DUP1 PUSH1 0x1F ADD PUSH1 0x1F NOT AND PUSH1 0x20 ADD DUP3 ADD PUSH1 0x40 MSTORE DUP1 ISZERO PUSH2 0x1ECB JUMPI DUP2 PUSH1 0x20 ADD PUSH1 0x1 DUP3 MUL DUP1 CALLDATASIZE DUP4 CALLDATACOPY DUP1 DUP3 ADD SWAP2 POP POP SWAP1 POP JUMPDEST POP SWAP1 POP PUSH1 0x0 DUP3 PUSH1 0x20 ADD DUP3 ADD SWAP1 POP JUMPDEST PUSH1 0x1 ISZERO PUSH2 0x1F2E JUMPI DUP1 DUP1 PUSH1 0x1 SWAP1 SUB SWAP2 POP POP PUSH32 0x3031323334353637383961626364656600000000000000000000000000000000 PUSH1 0xA DUP7 MOD BYTE DUP2 MSTORE8 PUSH1 0xA DUP6 DUP2 PUSH2 0x1F22 JUMPI PUSH2 0x1F21 PUSH2 0x8559 JUMP JUMPDEST JUMPDEST DIV SWAP5 POP PUSH1 0x0 DUP6 SUB PUSH2 0x1ED9 JUMPI JUMPDEST DUP2 SWAP4 POP POP POP POP SWAP2 SWAP1 POP JUMP JUMPDEST PUSH1 0x0 PUSH20 0xFFFFFFFFFFFFFFFFFFFFFFFFFFFFFFFFFFFFFFFF AND DUP5 PUSH20 0xFFFFFFFFFFFFFFFFFFFFFFFFFFFFFFFFFFFFFFFF AND SUB PUSH2 0x1FA8 JUMPI PUSH1 0x40 MLOAD PUSH32 0x8C379A000000000000000000000000000000000000000000000000000000000 DUP2 MSTORE PUSH1 0x4 ADD PUSH2 0x1F9F SWAP1 PUSH2 0x85FA JUMP JUMPDEST PUSH1 0x40 MLOAD DUP1 SWAP2 SUB SWAP1 REVERT JUMPDEST DUP2 MLOAD DUP4 MLOAD EQ PUSH2 0x1FEC JUMPI PUSH1 0x40 MLOAD PUSH32 0x8C379A000000000000000000000000000000000000000000000000000000000 DUP2 MSTORE PUSH1 0x4 ADD PUSH2 0x1FE3 SWAP1 PUSH2 0x868C JUMP JUMPDEST PUSH1 0x40 MLOAD DUP1 SWAP2 SUB SWAP1 REVERT JUMPDEST PUSH1 0x0 PUSH2 0x1FF6 PUSH2 0x2166 JUMP JUMPDEST SWAP1 POP PUSH2 0x2007 DUP2 PUSH1 0x0 DUP8 DUP8 DUP8 DUP8 PUSH2 0x3347 JUMP JUMPDEST PUSH1 0x0 JUMPDEST DUP5 MLOAD DUP2 LT ISZERO PUSH2 0x20C1 JUMPI DUP4 DUP2 DUP2 MLOAD DUP2 LT PUSH2 0x2026 JUMPI PUSH2 0x2025 PUSH2 0x6F7F JUMP JUMPDEST JUMPDEST PUSH1 0x20 MUL PUSH1 0x20 ADD ADD MLOAD PUSH1 0x65 PUSH1 0x0 DUP8 DUP5 DUP2 MLOAD DUP2 LT PUSH2 0x2045 JUMPI PUSH2 0x2044 PUSH2 0x6F7F JUMP JUMPDEST JUMPDEST PUSH1 0x20 MUL PUSH1 0x20 ADD ADD MLOAD DUP2 MSTORE PUSH1 0x20 ADD SWAP1 DUP2 MSTORE PUSH1 0x20 ADD PUSH1 0x0 KECCAK256 PUSH1 0x0 DUP9 PUSH20 0xFFFFFFFFFFFFFFFFFFFFFFFFFFFFFFFFFFFFFFFF AND PUSH20 0xFFFFFFFFFFFFFFFFFFFFFFFFFFFFFFFFFFFFFFFF AND DUP2 MSTORE PUSH1 0x20 ADD SWAP1 DUP2 MSTORE PUSH1 0x20 ADD PUSH1 0x0 KECCAK256 PUSH1 0x0 DUP3 DUP3 SLOAD PUSH2 0x20A7 SWAP2 SWAP1 PUSH2 0x86AC JUMP JUMPDEST SWAP3 POP POP DUP2 SWAP1 SSTORE POP DUP1 DUP1 PUSH2 0x20B9 SWAP1 PUSH2 0x6FDD JUMP JUMPDEST SWAP2 POP POP PUSH2 0x200A JUMP JUMPDEST POP DUP5 PUSH20 0xFFFFFFFFFFFFFFFFFFFFFFFFFFFFFFFFFFFFFFFF AND PUSH1 0x0 PUSH20 0xFFFFFFFFFFFFFFFFFFFFFFFFFFFFFFFFFFFFFFFF AND DUP3 PUSH20 0xFFFFFFFFFFFFFFFFFFFFFFFFFFFFFFFFFFFFFFFF AND PUSH32 0x4A39DC06D4C0DBC64B70AF90FD698A233A518AA5D07E595D983B8C0526C8F7FB DUP8 DUP8 PUSH1 0x40 MLOAD PUSH2 0x2139 SWAP3 SWAP2 SWAP1 PUSH2 0x8702 JUMP JUMPDEST PUSH1 0x40 MLOAD DUP1 SWAP2 SUB SWAP1 LOG4 PUSH2 0x2150 DUP2 PUSH1 0x0 DUP8 DUP8 DUP8 DUP8 PUSH2 0x3365 JUMP JUMPDEST PUSH2 0x215F DUP2 PUSH1 0x0 DUP8 DUP8 DUP8 DUP8 PUSH2 0x336D JUMP JUMPDEST POP POP POP POP POP JUMP JUMPDEST PUSH1 0x0 CALLER SWAP1 POP SWAP1 JUMP JUMPDEST DUP2 MLOAD DUP4 MLOAD EQ PUSH2 0x21B2 JUMPI PUSH1 0x40 MLOAD PUSH32 0x8C379A000000000000000000000000000000000000000000000000000000000 DUP2 MSTORE PUSH1 0x4 ADD PUSH2 0x21A9 SWAP1 PUSH2 0x868C JUMP JUMPDEST PUSH1 0x40 MLOAD DUP1 SWAP2 SUB SWAP1 REVERT JUMPDEST PUSH1 0x0 PUSH20 0xFFFFFFFFFFFFFFFFFFFFFFFFFFFFFFFFFFFFFFFF AND DUP5 PUSH20 0xFFFFFFFFFFFFFFFFFFFFFFFFFFFFFFFFFFFFFFFF AND SUB PUSH2 0x2221 JUMPI PUSH1 0x40 MLOAD PUSH32 0x8C379A000000000000000000000000000000000000000000000000000000000 DUP2 MSTORE PUSH1 0x4 ADD PUSH2 0x2218 SWAP1 PUSH2 0x87AB JUMP JUMPDEST PUSH1 0x40 MLOAD DUP1 SWAP2 SUB SWAP1 REVERT JUMPDEST PUSH1 0x0 PUSH2 0x222B PUSH2 0x2166 JUMP JUMPDEST SWAP1 POP PUSH2 0x223B DUP2 DUP8 DUP8 DUP8 DUP8 DUP8 PUSH2 0x3347 JUMP JUMPDEST PUSH1 0x0 JUMPDEST DUP5 MLOAD DUP2 LT ISZERO PUSH2 0x23EF JUMPI PUSH1 0x0 DUP6 DUP3 DUP2 MLOAD DUP2 LT PUSH2 0x225C JUMPI PUSH2 0x225B PUSH2 0x6F7F JUMP JUMPDEST JUMPDEST PUSH1 0x20 MUL PUSH1 0x20 ADD ADD MLOAD SWAP1 POP PUSH1 0x0 DUP6 DUP4 DUP2 MLOAD DUP2 LT PUSH2 0x227B JUMPI PUSH2 0x227A PUSH2 0x6F7F JUMP JUMPDEST JUMPDEST PUSH1 0x20 MUL PUSH1 0x20 ADD ADD MLOAD SWAP1 POP PUSH1 0x0 PUSH1 0x65 PUSH1 0x0 DUP5 DUP2 MSTORE PUSH1 0x20 ADD SWAP1 DUP2 MSTORE PUSH1 0x20 ADD PUSH1 0x0 KECCAK256 PUSH1 0x0 DUP12 PUSH20 0xFFFFFFFFFFFFFFFFFFFFFFFFFFFFFFFFFFFFFFFF AND PUSH20 0xFFFFFFFFFFFFFFFFFFFFFFFFFFFFFFFFFFFFFFFF AND DUP2 MSTORE PUSH1 0x20 ADD SWAP1 DUP2 MSTORE PUSH1 0x20 ADD PUSH1 0x0 KECCAK256 SLOAD SWAP1 POP DUP2 DUP2 LT ISZERO PUSH2 0x231D JUMPI PUSH1 0x40 MLOAD PUSH32 0x8C379A000000000000000000000000000000000000000000000000000000000 DUP2 MSTORE PUSH1 0x4 ADD PUSH2 0x2314 SWAP1 PUSH2 0x883D JUMP JUMPDEST PUSH1 0x40 MLOAD DUP1 SWAP2 SUB SWAP1 REVERT JUMPDEST DUP2 DUP2 SUB PUSH1 0x65 PUSH1 0x0 DUP6 DUP2 MSTORE PUSH1 0x20 ADD SWAP1 DUP2 MSTORE PUSH1 0x20 ADD PUSH1 0x0 KECCAK256 PUSH1 0x0 DUP13 PUSH20 0xFFFFFFFFFFFFFFFFFFFFFFFFFFFFFFFFFFFFFFFF AND PUSH20 0xFFFFFFFFFFFFFFFFFFFFFFFFFFFFFFFFFFFFFFFF AND DUP2 MSTORE PUSH1 0x20 ADD SWAP1 DUP2 MSTORE PUSH1 0x20 ADD PUSH1 0x0 KECCAK256 DUP2 SWAP1 SSTORE POP DUP2 PUSH1 0x65 PUSH1 0x0 DUP6 DUP2 MSTORE PUSH1 0x20 ADD SWAP1 DUP2 MSTORE PUSH1 0x20 ADD PUSH1 0x0 KECCAK256 PUSH1 0x0 DUP12 PUSH20 0xFFFFFFFFFFFFFFFFFFFFFFFFFFFFFFFFFFFFFFFF AND PUSH20 0xFFFFFFFFFFFFFFFFFFFFFFFFFFFFFFFFFFFFFFFF AND DUP2 MSTORE PUSH1 0x20 ADD SWAP1 DUP2 MSTORE PUSH1 0x20 ADD PUSH1 0x0 KECCAK256 PUSH1 0x0 DUP3 DUP3 SLOAD PUSH2 0x23D4 SWAP2 SWAP1 PUSH2 0x86AC JUMP JUMPDEST SWAP3 POP POP DUP2 SWAP1 SSTORE POP POP POP POP DUP1 PUSH2 0x23E8 SWAP1 PUSH2 0x6FDD JUMP JUMPDEST SWAP1 POP PUSH2 0x223E JUMP JUMPDEST POP DUP5 PUSH20 0xFFFFFFFFFFFFFFFFFFFFFFFFFFFFFFFFFFFFFFFF AND DUP7 PUSH20 0xFFFFFFFFFFFFFFFFFFFFFFFFFFFFFFFFFFFFFFFF AND DUP3 PUSH20 0xFFFFFFFFFFFFFFFFFFFFFFFFFFFFFFFFFFFFFFFF AND PUSH32 0x4A39DC06D4C0DBC64B70AF90FD698A233A518AA5D07E595D983B8C0526C8F7FB DUP8 DUP8 PUSH1 0x40 MLOAD PUSH2 0x2466 SWAP3 SWAP2 SWAP1 PUSH2 0x8702 JUMP JUMPDEST PUSH1 0x40 MLOAD DUP1 SWAP2 SUB SWAP1 LOG4 PUSH2 0x247C DUP2 DUP8 DUP8 DUP8 DUP8 DUP8 PUSH2 0x3365 JUMP JUMPDEST PUSH2 0x248A DUP2 DUP8 DUP8 DUP8 DUP8 DUP8 PUSH2 0x336D JUMP JUMPDEST POP POP POP POP POP POP JUMP JUMPDEST PUSH2 0x249C DUP3 DUP3 PUSH2 0x1730 JUMP JUMPDEST PUSH2 0x256F JUMPI PUSH1 0x1 PUSH1 0x97 PUSH1 0x0 DUP5 DUP2 MSTORE PUSH1 0x20 ADD SWAP1 DUP2 MSTORE PUSH1 0x20 ADD PUSH1 0x0 KECCAK256 PUSH1 0x0 ADD PUSH1 0x0 DUP4 PUSH20 0xFFFFFFFFFFFFFFFFFFFFFFFFFFFFFFFFFFFFFFFF AND PUSH20 0xFFFFFFFFFFFFFFFFFFFFFFFFFFFFFFFFFFFFFFFF AND DUP2 MSTORE PUSH1 0x20 ADD SWAP1 DUP2 MSTORE PUSH1 0x20 ADD PUSH1 0x0 KECCAK256 PUSH1 0x0 PUSH2 0x100 EXP DUP2 SLOAD DUP2 PUSH1 0xFF MUL NOT AND SWAP1 DUP4 ISZERO ISZERO MUL OR SWAP1 SSTORE POP PUSH2 0x2514 PUSH2 0x2166 JUMP JUMPDEST PUSH20 0xFFFFFFFFFFFFFFFFFFFFFFFFFFFFFFFFFFFFFFFF AND DUP2 PUSH20 0xFFFFFFFFFFFFFFFFFFFFFFFFFFFFFFFFFFFFFFFF AND DUP4 PUSH32 0x2F8788117E7EFF1D82E926EC794901D17C78024A50270940304540A733656F0D PUSH1 0x40 MLOAD PUSH1 0x40 MLOAD DUP1 SWAP2 SUB SWAP1 LOG4 JUMPDEST POP POP JUMP JUMPDEST PUSH2 0x257D DUP3 DUP3 PUSH2 0x1730 JUMP JUMPDEST ISZERO PUSH2 0x2651 JUMPI PUSH1 0x0 PUSH1 0x97 PUSH1 0x0 DUP5 DUP2 MSTORE PUSH1 0x20 ADD SWAP1 DUP2 MSTORE PUSH1 0x20 ADD PUSH1 0x0 KECCAK256 PUSH1 0x0 ADD PUSH1 0x0 DUP4 PUSH20 0xFFFFFFFFFFFFFFFFFFFFFFFFFFFFFFFFFFFFFFFF AND PUSH20 0xFFFFFFFFFFFFFFFFFFFFFFFFFFFFFFFFFFFFFFFF AND DUP2 MSTORE PUSH1 0x20 ADD SWAP1 DUP2 MSTORE PUSH1 0x20 ADD PUSH1 0x0 KECCAK256 PUSH1 0x0 PUSH2 0x100 EXP DUP2 SLOAD DUP2 PUSH1 0xFF MUL NOT AND SWAP1 DUP4 ISZERO ISZERO MUL OR SWAP1 SSTORE POP PUSH2 0x25F6 PUSH2 0x2166 JUMP JUMPDEST PUSH20 0xFFFFFFFFFFFFFFFFFFFFFFFFFFFFFFFFFFFFFFFF AND DUP2 PUSH20 0xFFFFFFFFFFFFFFFFFFFFFFFFFFFFFFFFFFFFFFFF AND DUP4 PUSH32 0xF6391F5C32D9C69D2A47EA670B442974B53935D1EDC7FD64EB21E047A839171B PUSH1 0x40 MLOAD PUSH1 0x40 MLOAD DUP1 SWAP2 SUB SWAP1 LOG4 JUMPDEST POP POP JUMP JUMPDEST PUSH2 0x265D PUSH2 0x3544 JUMP JUMPDEST PUSH1 0x0 PUSH1 0xC9 PUSH1 0x0 PUSH2 0x100 EXP DUP2 SLOAD DUP2 PUSH1 0xFF MUL NOT AND SWAP1 DUP4 ISZERO ISZERO MUL OR SWAP1 SSTORE POP PUSH32 0x5DB9EE0A495BF2E6FF9C91A7834C1BA4FDD244A5E8AA4E537BD38AEAE4B073AA PUSH2 0x26A1 PUSH2 0x2166 JUMP JUMPDEST PUSH1 0x40 MLOAD PUSH2 0x26AE SWAP2 SWAP1 PUSH2 0x8413 JUMP JUMPDEST PUSH1 0x40 MLOAD DUP1 SWAP2 SUB SWAP1 LOG1 JUMP JUMPDEST PUSH1 0x60 DUP2 MLOAD DUP4 MLOAD EQ PUSH2 0x26FE JUMPI PUSH1 0x40 MLOAD PUSH32 0x8C379A000000000000000000000000000000000000000000000000000000000 DUP2 MSTORE PUSH1 0x4 ADD PUSH2 0x26F5 SWAP1 PUSH2 0x88CF JUMP JUMPDEST PUSH1 0x40 MLOAD DUP1 SWAP2 SUB SWAP1 REVERT JUMPDEST PUSH1 0x0 DUP4 MLOAD PUSH8 0xFFFFFFFFFFFFFFFF DUP2 GT ISZERO PUSH2 0x271B JUMPI PUSH2 0x271A PUSH2 0x45A7 JUMP JUMPDEST JUMPDEST PUSH1 0x40 MLOAD SWAP1 DUP1 DUP3 MSTORE DUP1 PUSH1 0x20 MUL PUSH1 0x20 ADD DUP3 ADD PUSH1 0x40 MSTORE DUP1 ISZERO PUSH2 0x2749 JUMPI DUP2 PUSH1 0x20 ADD PUSH1 0x20 DUP3 MUL DUP1 CALLDATASIZE DUP4 CALLDATACOPY DUP1 DUP3 ADD SWAP2 POP POP SWAP1 POP JUMPDEST POP SWAP1 POP PUSH1 0x0 JUMPDEST DUP5 MLOAD DUP2 LT ISZERO PUSH2 0x27C6 JUMPI PUSH2 0x2796 DUP6 DUP3 DUP2 MLOAD DUP2 LT PUSH2 0x276E JUMPI PUSH2 0x276D PUSH2 0x6F7F JUMP JUMPDEST JUMPDEST PUSH1 0x20 MUL PUSH1 0x20 ADD ADD MLOAD DUP6 DUP4 DUP2 MLOAD DUP2 LT PUSH2 0x2789 JUMPI PUSH2 0x2788 PUSH2 0x6F7F JUMP JUMPDEST JUMPDEST PUSH1 0x20 MUL PUSH1 0x20 ADD ADD MLOAD PUSH2 0xB8E JUMP JUMPDEST DUP3 DUP3 DUP2 MLOAD DUP2 LT PUSH2 0x27A9 JUMPI PUSH2 0x27A8 PUSH2 0x6F7F JUMP JUMPDEST JUMPDEST PUSH1 0x20 MUL PUSH1 0x20 ADD ADD DUP2 DUP2 MSTORE POP POP DUP1 PUSH2 0x27BF SWAP1 PUSH2 0x6FDD JUMP JUMPDEST SWAP1 POP PUSH2 0x274F JUMP JUMPDEST POP DUP1 SWAP2 POP POP SWAP3 SWAP2 POP POP JUMP JUMPDEST PUSH1 0x0 PUSH2 0x27DC DUP4 PUSH2 0xE9C JUMP JUMPDEST SWAP1 POP DUP2 PUSH1 0x97 PUSH1 0x0 DUP6 DUP2 MSTORE PUSH1 0x20 ADD SWAP1 DUP2 MSTORE PUSH1 0x20 ADD PUSH1 0x0 KECCAK256 PUSH1 0x1 ADD DUP2 SWAP1 SSTORE POP DUP2 DUP2 DUP5 PUSH32 0xBD79B86FFE0AB8E8776151514217CD7CACD52C909F66475C3AF44E129F0B00FF PUSH1 0x40 MLOAD PUSH1 0x40 MLOAD DUP1 SWAP2 SUB SWAP1 LOG4 POP POP POP JUMP JUMPDEST PUSH2 0x2835 PUSH2 0x2166 JUMP JUMPDEST PUSH20 0xFFFFFFFFFFFFFFFFFFFFFFFFFFFFFFFFFFFFFFFF AND DUP4 PUSH20 0xFFFFFFFFFFFFFFFFFFFFFFFFFFFFFFFFFFFFFFFF AND EQ DUP1 PUSH2 0x287B JUMPI POP PUSH2 0x287A DUP4 PUSH2 0x2875 PUSH2 0x2166 JUMP JUMPDEST PUSH2 0x1B50 JUMP JUMPDEST JUMPDEST PUSH2 0x28BA JUMPI PUSH1 0x40 MLOAD PUSH32 0x8C379A000000000000000000000000000000000000000000000000000000000 DUP2 MSTORE PUSH1 0x4 ADD PUSH2 0x28B1 SWAP1 PUSH2 0x7097 JUMP JUMPDEST PUSH1 0x40 MLOAD DUP1 SWAP2 SUB SWAP1 REVERT JUMPDEST PUSH2 0x28C5 DUP4 DUP4 DUP4 PUSH2 0x358D JUMP JUMPDEST POP POP POP JUMP JUMPDEST PUSH1 0x0 PUSH20 0xFFFFFFFFFFFFFFFFFFFFFFFFFFFFFFFFFFFFFFFF AND DUP5 PUSH20 0xFFFFFFFFFFFFFFFFFFFFFFFFFFFFFFFFFFFFFFFF AND SUB PUSH2 0x2939 JUMPI PUSH1 0x40 MLOAD PUSH32 0x8C379A000000000000000000000000000000000000000000000000000000000 DUP2 MSTORE PUSH1 0x4 ADD PUSH2 0x2930 SWAP1 PUSH2 0x85FA JUMP JUMPDEST PUSH1 0x40 MLOAD DUP1 SWAP2 SUB SWAP1 REVERT JUMPDEST PUSH1 0x0 PUSH2 0x2943 PUSH2 0x2166 JUMP JUMPDEST SWAP1 POP PUSH1 0x0 PUSH2 0x2950 DUP6 PUSH2 0x385D JUMP JUMPDEST SWAP1 POP PUSH1 0x0 PUSH2 0x295D DUP6 PUSH2 0x385D JUMP JUMPDEST SWAP1 POP PUSH2 0x296E DUP4 PUSH1 0x0 DUP10 DUP6 DUP6 DUP10 PUSH2 0x3347 JUMP JUMPDEST DUP5 PUSH1 0x65 PUSH1 0x0 DUP9 DUP2 MSTORE PUSH1 0x20 ADD SWAP1 DUP2 MSTORE PUSH1 0x20 ADD PUSH1 0x0 KECCAK256 PUSH1 0x0 DUP10 PUSH20 0xFFFFFFFFFFFFFFFFFFFFFFFFFFFFFFFFFFFFFFFF AND PUSH20 0xFFFFFFFFFFFFFFFFFFFFFFFFFFFFFFFFFFFFFFFF AND DUP2 MSTORE PUSH1 0x20 ADD SWAP1 DUP2 MSTORE PUSH1 0x20 ADD PUSH1 0x0 KECCAK256 PUSH1 0x0 DUP3 DUP3 SLOAD PUSH2 0x29CE SWAP2 SWAP1 PUSH2 0x86AC JUMP JUMPDEST SWAP3 POP POP DUP2 SWAP1 SSTORE POP DUP7 PUSH20 0xFFFFFFFFFFFFFFFFFFFFFFFFFFFFFFFFFFFFFFFF AND PUSH1 0x0 PUSH20 0xFFFFFFFFFFFFFFFFFFFFFFFFFFFFFFFFFFFFFFFF AND DUP5 PUSH20 0xFFFFFFFFFFFFFFFFFFFFFFFFFFFFFFFFFFFFFFFF AND PUSH32 0xC3D58168C5AE7397731D063D5BBF3D657854427343F4C083240F7AACAA2D0F62 DUP10 DUP10 PUSH1 0x40 MLOAD PUSH2 0x2A4C SWAP3 SWAP2 SWAP1 PUSH2 0x88EF JUMP JUMPDEST PUSH1 0x40 MLOAD DUP1 SWAP2 SUB SWAP1 LOG4 PUSH2 0x2A63 DUP4 PUSH1 0x0 DUP10 DUP6 DUP6 DUP10 PUSH2 0x3365 JUMP JUMPDEST PUSH2 0x2A72 DUP4 PUSH1 0x0 DUP10 DUP10 DUP10 DUP10 PUSH2 0x38D7 JUMP JUMPDEST POP POP POP POP POP POP POP JUMP JUMPDEST PUSH1 0x0 DUP1 DUP3 PUSH20 0xFFFFFFFFFFFFFFFFFFFFFFFFFFFFFFFFFFFFFFFF AND EXTCODESIZE GT SWAP1 POP SWAP2 SWAP1 POP JUMP JUMPDEST PUSH1 0x0 PUSH1 0x1 SWAP1 SLOAD SWAP1 PUSH2 0x100 EXP SWAP1 DIV PUSH1 0xFF AND PUSH2 0x2AED JUMPI PUSH1 0x40 MLOAD PUSH32 0x8C379A000000000000000000000000000000000000000000000000000000000 DUP2 MSTORE PUSH1 0x4 ADD PUSH2 0x2AE4 SWAP1 PUSH2 0x898A JUMP JUMPDEST PUSH1 0x40 MLOAD DUP1 SWAP2 SUB SWAP1 REVERT JUMPDEST PUSH2 0x2AF6 DUP2 PUSH2 0x3AAE JUMP JUMPDEST POP JUMP JUMPDEST PUSH1 0x0 PUSH1 0x1 SWAP1 SLOAD SWAP1 PUSH2 0x100 EXP SWAP1 DIV PUSH1 0xFF AND PUSH2 0x2B48 JUMPI PUSH1 0x40 MLOAD PUSH32 0x8C379A000000000000000000000000000000000000000000000000000000000 DUP2 MSTORE PUSH1 0x4 ADD PUSH2 0x2B3F SWAP1 PUSH2 0x898A JUMP JUMPDEST PUSH1 0x40 MLOAD DUP1 SWAP2 SUB SWAP1 REVERT JUMPDEST JUMP JUMPDEST PUSH1 0x0 PUSH1 0x1 SWAP1 SLOAD SWAP1 PUSH2 0x100 EXP SWAP1 DIV PUSH1 0xFF AND PUSH2 0x2B99 JUMPI PUSH1 0x40 MLOAD PUSH32 0x8C379A000000000000000000000000000000000000000000000000000000000 DUP2 MSTORE PUSH1 0x4 ADD PUSH2 0x2B90 SWAP1 PUSH2 0x898A JUMP JUMPDEST PUSH1 0x40 MLOAD DUP1 SWAP2 SUB SWAP1 REVERT JUMPDEST PUSH2 0x2BA1 PUSH2 0x3B09 JUMP JUMPDEST JUMP JUMPDEST PUSH1 0x0 PUSH1 0x1 SWAP1 SLOAD SWAP1 PUSH2 0x100 EXP SWAP1 DIV PUSH1 0xFF AND PUSH2 0x2BF2 JUMPI PUSH1 0x40 MLOAD PUSH32 0x8C379A000000000000000000000000000000000000000000000000000000000 DUP2 MSTORE PUSH1 0x4 ADD PUSH2 0x2BE9 SWAP1 PUSH2 0x898A JUMP JUMPDEST PUSH1 0x40 MLOAD DUP1 SWAP2 SUB SWAP1 REVERT JUMPDEST JUMP JUMPDEST PUSH1 0x0 PUSH1 0x1 SWAP1 SLOAD SWAP1 PUSH2 0x100 EXP SWAP1 DIV PUSH1 0xFF AND PUSH2 0x2C43 JUMPI PUSH1 0x40 MLOAD PUSH32 0x8C379A000000000000000000000000000000000000000000000000000000000 DUP2 MSTORE PUSH1 0x4 ADD PUSH2 0x2C3A SWAP1 PUSH2 0x898A JUMP JUMPDEST PUSH1 0x40 MLOAD DUP1 SWAP2 SUB SWAP1 REVERT JUMPDEST JUMP JUMPDEST PUSH2 0x2C4D PUSH2 0x1D79 JUMP JUMPDEST PUSH1 0x1 PUSH1 0xC9 PUSH1 0x0 PUSH2 0x100 EXP DUP2 SLOAD DUP2 PUSH1 0xFF MUL NOT AND SWAP1 DUP4 ISZERO ISZERO MUL OR SWAP1 SSTORE POP PUSH32 0x62E78CEA01BEE320CD4E420270B5EA74000D11B0C9F74754EBDBFC544B05A258 PUSH2 0x2C91 PUSH2 0x2166 JUMP JUMPDEST PUSH1 0x40 MLOAD PUSH2 0x2C9E SWAP2 SWAP1 PUSH2 0x8413 JUMP JUMPDEST PUSH1 0x40 MLOAD DUP1 SWAP2 SUB SWAP1 LOG1 JUMP JUMPDEST PUSH2 0x2CBA PUSH2 0x2CB3 PUSH2 0x2166 JUMP JUMPDEST DUP4 DUP4 PUSH2 0x3B75 JUMP JUMPDEST POP POP JUMP JUMPDEST PUSH1 0x0 PUSH1 0x66 PUSH1 0x0 DUP5 PUSH20 0xFFFFFFFFFFFFFFFFFFFFFFFFFFFFFFFFFFFFFFFF AND PUSH20 0xFFFFFFFFFFFFFFFFFFFFFFFFFFFFFFFFFFFFFFFF AND DUP2 MSTORE PUSH1 0x20 ADD SWAP1 DUP2 MSTORE PUSH1 0x20 ADD PUSH1 0x0 KECCAK256 PUSH1 0x0 DUP4 PUSH20 0xFFFFFFFFFFFFFFFFFFFFFFFFFFFFFFFFFFFFFFFF AND PUSH20 0xFFFFFFFFFFFFFFFFFFFFFFFFFFFFFFFFFFFFFFFF AND DUP2 MSTORE PUSH1 0x20 ADD SWAP1 DUP2 MSTORE PUSH1 0x20 ADD PUSH1 0x0 KECCAK256 PUSH1 0x0 SWAP1 SLOAD SWAP1 PUSH2 0x100 EXP SWAP1 DIV PUSH1 0xFF AND SWAP1 POP SWAP3 SWAP2 POP POP JUMP JUMPDEST PUSH1 0x0 PUSH20 0xFFFFFFFFFFFFFFFFFFFFFFFFFFFFFFFFFFFFFFFF AND DUP5 PUSH20 0xFFFFFFFFFFFFFFFFFFFFFFFFFFFFFFFFFFFFFFFF AND SUB PUSH2 0x2DC1 JUMPI PUSH1 0x40 MLOAD PUSH32 0x8C379A000000000000000000000000000000000000000000000000000000000 DUP2 MSTORE PUSH1 0x4 ADD PUSH2 0x2DB8 SWAP1 PUSH2 0x87AB JUMP JUMPDEST PUSH1 0x40 MLOAD DUP1 SWAP2 SUB SWAP1 REVERT JUMPDEST PUSH1 0x0 PUSH2 0x2DCB PUSH2 0x2166 JUMP JUMPDEST SWAP1 POP PUSH1 0x0 PUSH2 0x2DD8 DUP6 PUSH2 0x385D JUMP JUMPDEST SWAP1 POP PUSH1 0x0 PUSH2 0x2DE5 DUP6 PUSH2 0x385D JUMP JUMPDEST SWAP1 POP PUSH2 0x2DF5 DUP4 DUP10 DUP10 DUP6 DUP6 DUP10 PUSH2 0x3347 JUMP JUMPDEST PUSH1 0x0 PUSH1 0x65 PUSH1 0x0 DUP9 DUP2 MSTORE PUSH1 0x20 ADD SWAP1 DUP2 MSTORE PUSH1 0x20 ADD PUSH1 0x0 KECCAK256 PUSH1 0x0 DUP11 PUSH20 0xFFFFFFFFFFFFFFFFFFFFFFFFFFFFFFFFFFFFFFFF AND PUSH20 0xFFFFFFFFFFFFFFFFFFFFFFFFFFFFFFFFFFFFFFFF AND DUP2 MSTORE PUSH1 0x20 ADD SWAP1 DUP2 MSTORE PUSH1 0x20 ADD PUSH1 0x0 KECCAK256 SLOAD SWAP1 POP DUP6 DUP2 LT ISZERO PUSH2 0x2E8D JUMPI PUSH1 0x40 MLOAD PUSH32 0x8C379A000000000000000000000000000000000000000000000000000000000 DUP2 MSTORE PUSH1 0x4 ADD PUSH2 0x2E84 SWAP1 PUSH2 0x883D JUMP JUMPDEST PUSH1 0x40 MLOAD DUP1 SWAP2 SUB SWAP1 REVERT JUMPDEST DUP6 DUP2 SUB PUSH1 0x65 PUSH1 0x0 DUP10 DUP2 MSTORE PUSH1 0x20 ADD SWAP1 DUP2 MSTORE PUSH1 0x20 ADD PUSH1 0x0 KECCAK256 PUSH1 0x0 DUP12 PUSH20 0xFFFFFFFFFFFFFFFFFFFFFFFFFFFFFFFFFFFFFFFF AND PUSH20 0xFFFFFFFFFFFFFFFFFFFFFFFFFFFFFFFFFFFFFFFF AND DUP2 MSTORE PUSH1 0x20 ADD SWAP1 DUP2 MSTORE PUSH1 0x20 ADD PUSH1 0x0 KECCAK256 DUP2 SWAP1 SSTORE POP DUP6 PUSH1 0x65 PUSH1 0x0 DUP10 DUP2 MSTORE PUSH1 0x20 ADD SWAP1 DUP2 MSTORE PUSH1 0x20 ADD PUSH1 0x0 KECCAK256 PUSH1 0x0 DUP11 PUSH20 0xFFFFFFFFFFFFFFFFFFFFFFFFFFFFFFFFFFFFFFFF AND PUSH20 0xFFFFFFFFFFFFFFFFFFFFFFFFFFFFFFFFFFFFFFFF AND DUP2 MSTORE PUSH1 0x20 ADD SWAP1 DUP2 MSTORE PUSH1 0x20 ADD PUSH1 0x0 KECCAK256 PUSH1 0x0 DUP3 DUP3 SLOAD PUSH2 0x2F44 SWAP2 SWAP1 PUSH2 0x86AC JUMP JUMPDEST SWAP3 POP POP DUP2 SWAP1 SSTORE POP DUP8 PUSH20 0xFFFFFFFFFFFFFFFFFFFFFFFFFFFFFFFFFFFFFFFF AND DUP10 PUSH20 0xFFFFFFFFFFFFFFFFFFFFFFFFFFFFFFFFFFFFFFFF AND DUP6 PUSH20 0xFFFFFFFFFFFFFFFFFFFFFFFFFFFFFFFFFFFFFFFF AND PUSH32 0xC3D58168C5AE7397731D063D5BBF3D657854427343F4C083240F7AACAA2D0F62 DUP11 DUP11 PUSH1 0x40 MLOAD PUSH2 0x2FC1 SWAP3 SWAP2 SWAP1 PUSH2 0x88EF JUMP JUMPDEST PUSH1 0x40 MLOAD DUP1 SWAP2 SUB SWAP1 LOG4 PUSH2 0x2FD7 DUP5 DUP11 DUP11 DUP7 DUP7 DUP11 PUSH2 0x3365 JUMP JUMPDEST PUSH2 0x2FE5 DUP5 DUP11 DUP11 DUP11 DUP11 DUP11 PUSH2 0x38D7 JUMP JUMPDEST POP POP POP POP POP POP POP POP POP JUMP JUMPDEST PUSH2 0x2FF8 PUSH2 0x2166 JUMP JUMPDEST PUSH20 0xFFFFFFFFFFFFFFFFFFFFFFFFFFFFFFFFFFFFFFFF AND DUP4 PUSH20 0xFFFFFFFFFFFFFFFFFFFFFFFFFFFFFFFFFFFFFFFF AND EQ DUP1 PUSH2 0x303E JUMPI POP PUSH2 0x303D DUP4 PUSH2 0x3038 PUSH2 0x2166 JUMP JUMPDEST PUSH2 0x1B50 JUMP JUMPDEST JUMPDEST PUSH2 0x307D JUMPI PUSH1 0x40 MLOAD PUSH32 0x8C379A000000000000000000000000000000000000000000000000000000000 DUP2 MSTORE PUSH1 0x4 ADD PUSH2 0x3074 SWAP1 PUSH2 0x7097 JUMP JUMPDEST PUSH1 0x40 MLOAD DUP1 SWAP2 SUB SWAP1 REVERT JUMPDEST PUSH2 0x3088 DUP4 DUP4 DUP4 PUSH2 0x3CE1 JUMP JUMPDEST POP POP POP JUMP JUMPDEST PUSH2 0x3097 DUP3 DUP3 PUSH2 0x1730 JUMP JUMPDEST PUSH2 0x310E JUMPI PUSH2 0x30A4 DUP2 PUSH2 0x3F29 JUMP JUMPDEST PUSH2 0x30B2 DUP4 PUSH1 0x0 SHR PUSH1 0x20 PUSH2 0x3F56 JUMP JUMPDEST PUSH1 0x40 MLOAD PUSH1 0x20 ADD PUSH2 0x30C3 SWAP3 SWAP2 SWAP1 PUSH2 0x8A42 JUMP JUMPDEST PUSH1 0x40 MLOAD PUSH1 0x20 DUP2 DUP4 SUB SUB DUP2 MSTORE SWAP1 PUSH1 0x40 MSTORE PUSH1 0x40 MLOAD PUSH32 0x8C379A000000000000000000000000000000000000000000000000000000000 DUP2 MSTORE PUSH1 0x4 ADD PUSH2 0x3105 SWAP2 SWAP1 PUSH2 0x48E7 JUMP JUMPDEST PUSH1 0x40 MLOAD DUP1 SWAP2 SUB SWAP1 REVERT JUMPDEST POP POP JUMP JUMPDEST PUSH1 0x0 PUSH32 0xD9B67A2600000000000000000000000000000000000000000000000000000000 PUSH28 0xFFFFFFFFFFFFFFFFFFFFFFFFFFFFFFFFFFFFFFFFFFFFFFFFFFFFFFFF NOT AND DUP3 PUSH28 0xFFFFFFFFFFFFFFFFFFFFFFFFFFFFFFFFFFFFFFFFFFFFFFFFFFFFFFFF NOT AND EQ DUP1 PUSH2 0x31DD JUMPI POP PUSH32 0xE89341C00000000000000000000000000000000000000000000000000000000 PUSH28 0xFFFFFFFFFFFFFFFFFFFFFFFFFFFFFFFFFFFFFFFFFFFFFFFFFFFFFFFF NOT AND DUP3 PUSH28 0xFFFFFFFFFFFFFFFFFFFFFFFFFFFFFFFFFFFFFFFFFFFFFFFFFFFFFFFF NOT AND EQ JUMPDEST DUP1 PUSH2 0x31ED JUMPI POP PUSH2 0x31EC DUP3 PUSH2 0x4192 JUMP JUMPDEST JUMPDEST SWAP1 POP SWAP2 SWAP1 POP JUMP JUMPDEST PUSH1 0x0 DUP1 PUSH1 0x0 SWAP1 POP PUSH27 0x184F03E93FF9F4DAA797ED6E38ED64BF6A1F010000000000000000 DUP4 LT PUSH2 0x3252 JUMPI PUSH27 0x184F03E93FF9F4DAA797ED6E38ED64BF6A1F010000000000000000 DUP4 DUP2 PUSH2 0x3248 JUMPI PUSH2 0x3247 PUSH2 0x8559 JUMP JUMPDEST JUMPDEST DIV SWAP3 POP PUSH1 0x40 DUP2 ADD SWAP1 POP JUMPDEST PUSH14 0x4EE2D6D415B85ACEF8100000000 DUP4 LT PUSH2 0x328F JUMPI PUSH14 0x4EE2D6D415B85ACEF8100000000 DUP4 DUP2 PUSH2 0x3285 JUMPI PUSH2 0x3284 PUSH2 0x8559 JUMP JUMPDEST JUMPDEST DIV SWAP3 POP PUSH1 0x20 DUP2 ADD SWAP1 POP JUMPDEST PUSH7 0x2386F26FC10000 DUP4 LT PUSH2 0x32BE JUMPI PUSH7 0x2386F26FC10000 DUP4 DUP2 PUSH2 0x32B4 JUMPI PUSH2 0x32B3 PUSH2 0x8559 JUMP JUMPDEST JUMPDEST DIV SWAP3 POP PUSH1 0x10 DUP2 ADD SWAP1 POP JUMPDEST PUSH4 0x5F5E100 DUP4 LT PUSH2 0x32E7 JUMPI PUSH4 0x5F5E100 DUP4 DUP2 PUSH2 0x32DD JUMPI PUSH2 0x32DC PUSH2 0x8559 JUMP JUMPDEST JUMPDEST DIV SWAP3 POP PUSH1 0x8 DUP2 ADD SWAP1 POP JUMPDEST PUSH2 0x2710 DUP4 LT PUSH2 0x330C JUMPI PUSH2 0x2710 DUP4 DUP2 PUSH2 0x3302 JUMPI PUSH2 0x3301 PUSH2 0x8559 JUMP JUMPDEST JUMPDEST DIV SWAP3 POP PUSH1 0x4 DUP2 ADD SWAP1 POP JUMPDEST PUSH1 0x64 DUP4 LT PUSH2 0x332F JUMPI PUSH1 0x64 DUP4 DUP2 PUSH2 0x3325 JUMPI PUSH2 0x3324 PUSH2 0x8559 JUMP JUMPDEST JUMPDEST DIV SWAP3 POP PUSH1 0x2 DUP2 ADD SWAP1 POP JUMPDEST PUSH1 0xA DUP4 LT PUSH2 0x333E JUMPI PUSH1 0x1 DUP2 ADD SWAP1 POP JUMPDEST DUP1 SWAP2 POP POP SWAP2 SWAP1 POP JUMP JUMPDEST PUSH2 0x334F PUSH2 0x1D79 JUMP JUMPDEST PUSH2 0x335D DUP7 DUP7 DUP7 DUP7 DUP7 DUP7 PUSH2 0x41FC JUMP JUMPDEST POP POP POP POP POP POP JUMP JUMPDEST POP POP POP POP POP POP JUMP JUMPDEST PUSH2 0x338C DUP5 PUSH20 0xFFFFFFFFFFFFFFFFFFFFFFFFFFFFFFFFFFFFFFFF AND PUSH2 0x2A7B JUMP JUMPDEST ISZERO PUSH2 0x353C JUMPI DUP4 PUSH20 0xFFFFFFFFFFFFFFFFFFFFFFFFFFFFFFFFFFFFFFFF AND PUSH4 0xBC197C81 DUP8 DUP8 DUP7 DUP7 DUP7 PUSH1 0x40 MLOAD DUP7 PUSH4 0xFFFFFFFF AND PUSH1 0xE0 SHL DUP2 MSTORE PUSH1 0x4 ADD PUSH2 0x33D2 SWAP6 SWAP5 SWAP4 SWAP3 SWAP2 SWAP1 PUSH2 0x8AC6 JUMP JUMPDEST PUSH1 0x20 PUSH1 0x40 MLOAD DUP1 DUP4 SUB DUP2 PUSH1 0x0 DUP8 GAS CALL SWAP3 POP POP POP DUP1 ISZERO PUSH2 0x340E JUMPI POP PUSH1 0x40 MLOAD RETURNDATASIZE PUSH1 0x1F NOT PUSH1 0x1F DUP3 ADD AND DUP3 ADD DUP1 PUSH1 0x40 MSTORE POP DUP2 ADD SWAP1 PUSH2 0x340B SWAP2 SWAP1 PUSH2 0x8B43 JUMP JUMPDEST PUSH1 0x1 JUMPDEST PUSH2 0x34B3 JUMPI PUSH2 0x341A PUSH2 0x8B7D JUMP JUMPDEST DUP1 PUSH4 0x8C379A0 SUB PUSH2 0x3476 JUMPI POP PUSH2 0x342E PUSH2 0x8B9F JUMP JUMPDEST DUP1 PUSH2 0x3439 JUMPI POP PUSH2 0x3478 JUMP JUMPDEST DUP1 PUSH1 0x40 MLOAD PUSH32 0x8C379A000000000000000000000000000000000000000000000000000000000 DUP2 MSTORE PUSH1 0x4 ADD PUSH2 0x346D SWAP2 SWAP1 PUSH2 0x48E7 JUMP JUMPDEST PUSH1 0x40 MLOAD DUP1 SWAP2 SUB SWAP1 REVERT JUMPDEST POP JUMPDEST PUSH1 0x40 MLOAD PUSH32 0x8C379A000000000000000000000000000000000000000000000000000000000 DUP2 MSTORE PUSH1 0x4 ADD PUSH2 0x34AA SWAP1 PUSH2 0x8CA1 JUMP JUMPDEST PUSH1 0x40 MLOAD DUP1 SWAP2 SUB SWAP1 REVERT JUMPDEST PUSH4 0xBC197C81 PUSH1 0xE0 SHL PUSH28 0xFFFFFFFFFFFFFFFFFFFFFFFFFFFFFFFFFFFFFFFFFFFFFFFFFFFFFFFF NOT AND DUP2 PUSH28 0xFFFFFFFFFFFFFFFFFFFFFFFFFFFFFFFFFFFFFFFFFFFFFFFFFFFFFFFF NOT AND EQ PUSH2 0x353A JUMPI PUSH1 0x40 MLOAD PUSH32 0x8C379A000000000000000000000000000000000000000000000000000000000 DUP2 MSTORE PUSH1 0x4 ADD PUSH2 0x3531 SWAP1 PUSH2 0x8D33 JUMP JUMPDEST PUSH1 0x40 MLOAD DUP1 SWAP2 SUB SWAP1 REVERT JUMPDEST POP JUMPDEST POP POP POP POP POP POP JUMP JUMPDEST PUSH2 0x354C PUSH2 0x12A6 JUMP JUMPDEST PUSH2 0x358B JUMPI PUSH1 0x40 MLOAD PUSH32 0x8C379A000000000000000000000000000000000000000000000000000000000 DUP2 MSTORE PUSH1 0x4 ADD PUSH2 0x3582 SWAP1 PUSH2 0x8D9F JUMP JUMPDEST PUSH1 0x40 MLOAD DUP1 SWAP2 SUB SWAP1 REVERT JUMPDEST JUMP JUMPDEST PUSH1 0x0 PUSH20 0xFFFFFFFFFFFFFFFFFFFFFFFFFFFFFFFFFFFFFFFF AND DUP4 PUSH20 0xFFFFFFFFFFFFFFFFFFFFFFFFFFFFFFFFFFFFFFFF AND SUB PUSH2 0x35FC JUMPI PUSH1 0x40 MLOAD PUSH32 0x8C379A000000000000000000000000000000000000000000000000000000000 DUP2 MSTORE PUSH1 0x4 ADD PUSH2 0x35F3 SWAP1 PUSH2 0x8E31 JUMP JUMPDEST PUSH1 0x40 MLOAD DUP1 SWAP2 SUB SWAP1 REVERT JUMPDEST DUP1 MLOAD DUP3 MLOAD EQ PUSH2 0x3640 JUMPI PUSH1 0x40 MLOAD PUSH32 0x8C379A000000000000000000000000000000000000000000000000000000000 DUP2 MSTORE PUSH1 0x4 ADD PUSH2 0x3637 SWAP1 PUSH2 0x868C JUMP JUMPDEST PUSH1 0x40 MLOAD DUP1 SWAP2 SUB SWAP1 REVERT JUMPDEST PUSH1 0x0 PUSH2 0x364A PUSH2 0x2166 JUMP JUMPDEST SWAP1 POP PUSH2 0x366A DUP2 DUP6 PUSH1 0x0 DUP7 DUP7 PUSH1 0x40 MLOAD DUP1 PUSH1 0x20 ADD PUSH1 0x40 MSTORE DUP1 PUSH1 0x0 DUP2 MSTORE POP PUSH2 0x3347 JUMP JUMPDEST PUSH1 0x0 JUMPDEST DUP4 MLOAD DUP2 LT ISZERO PUSH2 0x37B9 JUMPI PUSH1 0x0 DUP5 DUP3 DUP2 MLOAD DUP2 LT PUSH2 0x368B JUMPI PUSH2 0x368A PUSH2 0x6F7F JUMP JUMPDEST JUMPDEST PUSH1 0x20 MUL PUSH1 0x20 ADD ADD MLOAD SWAP1 POP PUSH1 0x0 DUP5 DUP4 DUP2 MLOAD DUP2 LT PUSH2 0x36AA JUMPI PUSH2 0x36A9 PUSH2 0x6F7F JUMP JUMPDEST JUMPDEST PUSH1 0x20 MUL PUSH1 0x20 ADD ADD MLOAD SWAP1 POP PUSH1 0x0 PUSH1 0x65 PUSH1 0x0 DUP5 DUP2 MSTORE PUSH1 0x20 ADD SWAP1 DUP2 MSTORE PUSH1 0x20 ADD PUSH1 0x0 KECCAK256 PUSH1 0x0 DUP10 PUSH20 0xFFFFFFFFFFFFFFFFFFFFFFFFFFFFFFFFFFFFFFFF AND PUSH20 0xFFFFFFFFFFFFFFFFFFFFFFFFFFFFFFFFFFFFFFFF AND DUP2 MSTORE PUSH1 0x20 ADD SWAP1 DUP2 MSTORE PUSH1 0x20 ADD PUSH1 0x0 KECCAK256 SLOAD SWAP1 POP DUP2 DUP2 LT ISZERO PUSH2 0x374C JUMPI PUSH1 0x40 MLOAD PUSH32 0x8C379A000000000000000000000000000000000000000000000000000000000 DUP2 MSTORE PUSH1 0x4 ADD PUSH2 0x3743 SWAP1 PUSH2 0x8EC3 JUMP JUMPDEST PUSH1 0x40 MLOAD DUP1 SWAP2 SUB SWAP1 REVERT JUMPDEST DUP2 DUP2 SUB PUSH1 0x65 PUSH1 0x0 DUP6 DUP2 MSTORE PUSH1 0x20 ADD SWAP1 DUP2 MSTORE PUSH1 0x20 ADD PUSH1 0x0 KECCAK256 PUSH1 0x0 DUP11 PUSH20 0xFFFFFFFFFFFFFFFFFFFFFFFFFFFFFFFFFFFFFFFF AND PUSH20 0xFFFFFFFFFFFFFFFFFFFFFFFFFFFFFFFFFFFFFFFF AND DUP2 MSTORE PUSH1 0x20 ADD SWAP1 DUP2 MSTORE PUSH1 0x20 ADD PUSH1 0x0 KECCAK256 DUP2 SWAP1 SSTORE POP POP POP POP DUP1 DUP1 PUSH2 0x37B1 SWAP1 PUSH2 0x6FDD JUMP JUMPDEST SWAP2 POP POP PUSH2 0x366D JUMP JUMPDEST POP PUSH1 0x0 PUSH20 0xFFFFFFFFFFFFFFFFFFFFFFFFFFFFFFFFFFFFFFFF AND DUP5 PUSH20 0xFFFFFFFFFFFFFFFFFFFFFFFFFFFFFFFFFFFFFFFF AND DUP3 PUSH20 0xFFFFFFFFFFFFFFFFFFFFFFFFFFFFFFFFFFFFFFFF AND PUSH32 0x4A39DC06D4C0DBC64B70AF90FD698A233A518AA5D07E595D983B8C0526C8F7FB DUP7 DUP7 PUSH1 0x40 MLOAD PUSH2 0x3831 SWAP3 SWAP2 SWAP1 PUSH2 0x8702 JUMP JUMPDEST PUSH1 0x40 MLOAD DUP1 SWAP2 SUB SWAP1 LOG4 PUSH2 0x3857 DUP2 DUP6 PUSH1 0x0 DUP7 DUP7 PUSH1 0x40 MLOAD DUP1 PUSH1 0x20 ADD PUSH1 0x40 MSTORE DUP1 PUSH1 0x0 DUP2 MSTORE POP PUSH2 0x3365 JUMP JUMPDEST POP POP POP POP JUMP JUMPDEST PUSH1 0x60 PUSH1 0x0 PUSH1 0x1 PUSH8 0xFFFFFFFFFFFFFFFF DUP2 GT ISZERO PUSH2 0x387C JUMPI PUSH2 0x387B PUSH2 0x45A7 JUMP JUMPDEST JUMPDEST PUSH1 0x40 MLOAD SWAP1 DUP1 DUP3 MSTORE DUP1 PUSH1 0x20 MUL PUSH1 0x20 ADD DUP3 ADD PUSH1 0x40 MSTORE DUP1 ISZERO PUSH2 0x38AA JUMPI DUP2 PUSH1 0x20 ADD PUSH1 0x20 DUP3 MUL DUP1 CALLDATASIZE DUP4 CALLDATACOPY DUP1 DUP3 ADD SWAP2 POP POP SWAP1 POP JUMPDEST POP SWAP1 POP DUP3 DUP2 PUSH1 0x0 DUP2 MLOAD DUP2 LT PUSH2 0x38C2 JUMPI PUSH2 0x38C1 PUSH2 0x6F7F JUMP JUMPDEST JUMPDEST PUSH1 0x20 MUL PUSH1 0x20 ADD ADD DUP2 DUP2 MSTORE POP POP DUP1 SWAP2 POP POP SWAP2 SWAP1 POP JUMP JUMPDEST PUSH2 0x38F6 DUP5 PUSH20 0xFFFFFFFFFFFFFFFFFFFFFFFFFFFFFFFFFFFFFFFF AND PUSH2 0x2A7B JUMP JUMPDEST ISZERO PUSH2 0x3AA6 JUMPI DUP4 PUSH20 0xFFFFFFFFFFFFFFFFFFFFFFFFFFFFFFFFFFFFFFFF AND PUSH4 0xF23A6E61 DUP8 DUP8 DUP7 DUP7 DUP7 PUSH1 0x40 MLOAD DUP7 PUSH4 0xFFFFFFFF AND PUSH1 0xE0 SHL DUP2 MSTORE PUSH1 0x4 ADD PUSH2 0x393C SWAP6 SWAP5 SWAP4 SWAP3 SWAP2 SWAP1 PUSH2 0x8EE3 JUMP JUMPDEST PUSH1 0x20 PUSH1 0x40 MLOAD DUP1 DUP4 SUB DUP2 PUSH1 0x0 DUP8 GAS CALL SWAP3 POP POP POP DUP1 ISZERO PUSH2 0x3978 JUMPI POP PUSH1 0x40 MLOAD RETURNDATASIZE PUSH1 0x1F NOT PUSH1 0x1F DUP3 ADD AND DUP3 ADD DUP1 PUSH1 0x40 MSTORE POP DUP2 ADD SWAP1 PUSH2 0x3975 SWAP2 SWAP1 PUSH2 0x8B43 JUMP JUMPDEST PUSH1 0x1 JUMPDEST PUSH2 0x3A1D JUMPI PUSH2 0x3984 PUSH2 0x8B7D JUMP JUMPDEST DUP1 PUSH4 0x8C379A0 SUB PUSH2 0x39E0 JUMPI POP PUSH2 0x3998 PUSH2 0x8B9F JUMP JUMPDEST DUP1 PUSH2 0x39A3 JUMPI POP PUSH2 0x39E2 JUMP JUMPDEST DUP1 PUSH1 0x40 MLOAD PUSH32 0x8C379A000000000000000000000000000000000000000000000000000000000 DUP2 MSTORE PUSH1 0x4 ADD PUSH2 0x39D7 SWAP2 SWAP1 PUSH2 0x48E7 JUMP JUMPDEST PUSH1 0x40 MLOAD DUP1 SWAP2 SUB SWAP1 REVERT JUMPDEST POP JUMPDEST PUSH1 0x40 MLOAD PUSH32 0x8C379A000000000000000000000000000000000000000000000000000000000 DUP2 MSTORE PUSH1 0x4 ADD PUSH2 0x3A14 SWAP1 PUSH2 0x8CA1 JUMP JUMPDEST PUSH1 0x40 MLOAD DUP1 SWAP2 SUB SWAP1 REVERT JUMPDEST PUSH4 0xF23A6E61 PUSH1 0xE0 SHL PUSH28 0xFFFFFFFFFFFFFFFFFFFFFFFFFFFFFFFFFFFFFFFFFFFFFFFFFFFFFFFF NOT AND DUP2 PUSH28 0xFFFFFFFFFFFFFFFFFFFFFFFFFFFFFFFFFFFFFFFFFFFFFFFFFFFFFFFF NOT AND EQ PUSH2 0x3AA4 JUMPI PUSH1 0x40 MLOAD PUSH32 0x8C379A000000000000000000000000000000000000000000000000000000000 DUP2 MSTORE PUSH1 0x4 ADD PUSH2 0x3A9B SWAP1 PUSH2 0x8D33 JUMP JUMPDEST PUSH1 0x40 MLOAD DUP1 SWAP2 SUB SWAP1 REVERT JUMPDEST POP JUMPDEST POP POP POP POP POP POP JUMP JUMPDEST PUSH1 0x0 PUSH1 0x1 SWAP1 SLOAD SWAP1 PUSH2 0x100 EXP SWAP1 DIV PUSH1 0xFF AND PUSH2 0x3AFD JUMPI PUSH1 0x40 MLOAD PUSH32 0x8C379A000000000000000000000000000000000000000000000000000000000 DUP2 MSTORE PUSH1 0x4 ADD PUSH2 0x3AF4 SWAP1 PUSH2 0x898A JUMP JUMPDEST PUSH1 0x40 MLOAD DUP1 SWAP2 SUB SWAP1 REVERT JUMPDEST PUSH2 0x3B06 DUP2 PUSH2 0x1E51 JUMP JUMPDEST POP JUMP JUMPDEST PUSH1 0x0 PUSH1 0x1 SWAP1 SLOAD SWAP1 PUSH2 0x100 EXP SWAP1 DIV PUSH1 0xFF AND PUSH2 0x3B58 JUMPI PUSH1 0x40 MLOAD PUSH32 0x8C379A000000000000000000000000000000000000000000000000000000000 DUP2 MSTORE PUSH1 0x4 ADD PUSH2 0x3B4F SWAP1 PUSH2 0x898A JUMP JUMPDEST PUSH1 0x40 MLOAD DUP1 SWAP2 SUB SWAP1 REVERT JUMPDEST PUSH1 0x0 PUSH1 0xC9 PUSH1 0x0 PUSH2 0x100 EXP DUP2 SLOAD DUP2 PUSH1 0xFF MUL NOT AND SWAP1 DUP4 ISZERO ISZERO MUL OR SWAP1 SSTORE POP JUMP JUMPDEST DUP2 PUSH20 0xFFFFFFFFFFFFFFFFFFFFFFFFFFFFFFFFFFFFFFFF AND DUP4 PUSH20 0xFFFFFFFFFFFFFFFFFFFFFFFFFFFFFFFFFFFFFFFF AND SUB PUSH2 0x3BE3 JUMPI PUSH1 0x40 MLOAD PUSH32 0x8C379A000000000000000000000000000000000000000000000000000000000 DUP2 MSTORE PUSH1 0x4 ADD PUSH2 0x3BDA SWAP1 PUSH2 0x8FAF JUMP JUMPDEST PUSH1 0x40 MLOAD DUP1 SWAP2 SUB SWAP1 REVERT JUMPDEST DUP1 PUSH1 0x66 PUSH1 0x0 DUP6 PUSH20 0xFFFFFFFFFFFFFFFFFFFFFFFFFFFFFFFFFFFFFFFF AND PUSH20 0xFFFFFFFFFFFFFFFFFFFFFFFFFFFFFFFFFFFFFFFF AND DUP2 MSTORE PUSH1 0x20 ADD SWAP1 DUP2 MSTORE PUSH1 0x20 ADD PUSH1 0x0 KECCAK256 PUSH1 0x0 DUP5 PUSH20 0xFFFFFFFFFFFFFFFFFFFFFFFFFFFFFFFFFFFFFFFF AND PUSH20 0xFFFFFFFFFFFFFFFFFFFFFFFFFFFFFFFFFFFFFFFF AND DUP2 MSTORE PUSH1 0x20 ADD SWAP1 DUP2 MSTORE PUSH1 0x20 ADD PUSH1 0x0 KECCAK256 PUSH1 0x0 PUSH2 0x100 EXP DUP2 SLOAD DUP2 PUSH1 0xFF MUL NOT AND SWAP1 DUP4 ISZERO ISZERO MUL OR SWAP1 SSTORE POP DUP2 PUSH20 0xFFFFFFFFFFFFFFFFFFFFFFFFFFFFFFFFFFFFFFFF AND DUP4 PUSH20 0xFFFFFFFFFFFFFFFFFFFFFFFFFFFFFFFFFFFFFFFF AND PUSH32 0x17307EAB39AB6107E8899845AD3D59BD9653F200F220920489CA2B5937696C31 DUP4 PUSH1 0x40 MLOAD PUSH2 0x3CD4 SWAP2 SWAP1 PUSH2 0x47CE JUMP JUMPDEST PUSH1 0x40 MLOAD DUP1 SWAP2 SUB SWAP1 LOG3 POP POP POP JUMP JUMPDEST PUSH1 0x0 PUSH20 0xFFFFFFFFFFFFFFFFFFFFFFFFFFFFFFFFFFFFFFFF AND DUP4 PUSH20 0xFFFFFFFFFFFFFFFFFFFFFFFFFFFFFFFFFFFFFFFF AND SUB PUSH2 0x3D50 JUMPI PUSH1 0x40 MLOAD PUSH32 0x8C379A000000000000000000000000000000000000000000000000000000000 DUP2 MSTORE PUSH1 0x4 ADD PUSH2 0x3D47 SWAP1 PUSH2 0x8E31 JUMP JUMPDEST PUSH1 0x40 MLOAD DUP1 SWAP2 SUB SWAP1 REVERT JUMPDEST PUSH1 0x0 PUSH2 0x3D5A PUSH2 0x2166 JUMP JUMPDEST SWAP1 POP PUSH1 0x0 PUSH2 0x3D67 DUP5 PUSH2 0x385D JUMP JUMPDEST SWAP1 POP PUSH1 0x0 PUSH2 0x3D74 DUP5 PUSH2 0x385D JUMP JUMPDEST SWAP1 POP PUSH2 0x3D94 DUP4 DUP8 PUSH1 0x0 DUP6 DUP6 PUSH1 0x40 MLOAD DUP1 PUSH1 0x20 ADD PUSH1 0x40 MSTORE DUP1 PUSH1 0x0 DUP2 MSTORE POP PUSH2 0x3347 JUMP JUMPDEST PUSH1 0x0 PUSH1 0x65 PUSH1 0x0 DUP8 DUP2 MSTORE PUSH1 0x20 ADD SWAP1 DUP2 MSTORE PUSH1 0x20 ADD PUSH1 0x0 KECCAK256 PUSH1 0x0 DUP9 PUSH20 0xFFFFFFFFFFFFFFFFFFFFFFFFFFFFFFFFFFFFFFFF AND PUSH20 0xFFFFFFFFFFFFFFFFFFFFFFFFFFFFFFFFFFFFFFFF AND DUP2 MSTORE PUSH1 0x20 ADD SWAP1 DUP2 MSTORE PUSH1 0x20 ADD PUSH1 0x0 KECCAK256 SLOAD SWAP1 POP DUP5 DUP2 LT ISZERO PUSH2 0x3E2C JUMPI PUSH1 0x40 MLOAD PUSH32 0x8C379A000000000000000000000000000000000000000000000000000000000 DUP2 MSTORE PUSH1 0x4 ADD PUSH2 0x3E23 SWAP1 PUSH2 0x8EC3 JUMP JUMPDEST PUSH1 0x40 MLOAD DUP1 SWAP2 SUB SWAP1 REVERT JUMPDEST DUP5 DUP2 SUB PUSH1 0x65 PUSH1 0x0 DUP9 DUP2 MSTORE PUSH1 0x20 ADD SWAP1 DUP2 MSTORE PUSH1 0x20 ADD PUSH1 0x0 KECCAK256 PUSH1 0x0 DUP10 PUSH20 0xFFFFFFFFFFFFFFFFFFFFFFFFFFFFFFFFFFFFFFFF AND PUSH20 0xFFFFFFFFFFFFFFFFFFFFFFFFFFFFFFFFFFFFFFFF AND DUP2 MSTORE PUSH1 0x20 ADD SWAP1 DUP2 MSTORE PUSH1 0x20 ADD PUSH1 0x0 KECCAK256 DUP2 SWAP1 SSTORE POP PUSH1 0x0 PUSH20 0xFFFFFFFFFFFFFFFFFFFFFFFFFFFFFFFFFFFFFFFF AND DUP8 PUSH20 0xFFFFFFFFFFFFFFFFFFFFFFFFFFFFFFFFFFFFFFFF AND DUP6 PUSH20 0xFFFFFFFFFFFFFFFFFFFFFFFFFFFFFFFFFFFFFFFF AND PUSH32 0xC3D58168C5AE7397731D063D5BBF3D657854427343F4C083240F7AACAA2D0F62 DUP10 DUP10 PUSH1 0x40 MLOAD PUSH2 0x3EFA SWAP3 SWAP2 SWAP1 PUSH2 0x88EF JUMP JUMPDEST PUSH1 0x40 MLOAD DUP1 SWAP2 SUB SWAP1 LOG4 PUSH2 0x3F20 DUP5 DUP9 PUSH1 0x0 DUP7 DUP7 PUSH1 0x40 MLOAD DUP1 PUSH1 0x20 ADD PUSH1 0x40 MSTORE DUP1 PUSH1 0x0 DUP2 MSTORE POP PUSH2 0x3365 JUMP JUMPDEST POP POP POP POP POP POP POP JUMP JUMPDEST PUSH1 0x60 PUSH2 0x3F4F DUP3 PUSH20 0xFFFFFFFFFFFFFFFFFFFFFFFFFFFFFFFFFFFFFFFF AND PUSH1 0x14 PUSH1 0xFF AND PUSH2 0x3F56 JUMP JUMPDEST SWAP1 POP SWAP2 SWAP1 POP JUMP JUMPDEST PUSH1 0x60 PUSH1 0x0 PUSH1 0x2 DUP4 PUSH1 0x2 PUSH2 0x3F69 SWAP2 SWAP1 PUSH2 0x8FCF JUMP JUMPDEST PUSH2 0x3F73 SWAP2 SWAP1 PUSH2 0x86AC JUMP JUMPDEST PUSH8 0xFFFFFFFFFFFFFFFF DUP2 GT ISZERO PUSH2 0x3F8C JUMPI PUSH2 0x3F8B PUSH2 0x45A7 JUMP JUMPDEST JUMPDEST PUSH1 0x40 MLOAD SWAP1 DUP1 DUP3 MSTORE DUP1 PUSH1 0x1F ADD PUSH1 0x1F NOT AND PUSH1 0x20 ADD DUP3 ADD PUSH1 0x40 MSTORE DUP1 ISZERO PUSH2 0x3FBE JUMPI DUP2 PUSH1 0x20 ADD PUSH1 0x1 DUP3 MUL DUP1 CALLDATASIZE DUP4 CALLDATACOPY DUP1 DUP3 ADD SWAP2 POP POP SWAP1 POP JUMPDEST POP SWAP1 POP PUSH32 0x3000000000000000000000000000000000000000000000000000000000000000 DUP2 PUSH1 0x0 DUP2 MLOAD DUP2 LT PUSH2 0x3FF6 JUMPI PUSH2 0x3FF5 PUSH2 0x6F7F JUMP JUMPDEST JUMPDEST PUSH1 0x20 ADD ADD SWAP1 PUSH31 0xFFFFFFFFFFFFFFFFFFFFFFFFFFFFFFFFFFFFFFFFFFFFFFFFFFFFFFFFFFFFFF NOT AND SWAP1 DUP2 PUSH1 0x0 BYTE SWAP1 MSTORE8 POP PUSH32 0x7800000000000000000000000000000000000000000000000000000000000000 DUP2 PUSH1 0x1 DUP2 MLOAD DUP2 LT PUSH2 0x405A JUMPI PUSH2 0x4059 PUSH2 0x6F7F JUMP JUMPDEST JUMPDEST PUSH1 0x20 ADD ADD SWAP1 PUSH31 0xFFFFFFFFFFFFFFFFFFFFFFFFFFFFFFFFFFFFFFFFFFFFFFFFFFFFFFFFFFFFFF NOT AND SWAP1 DUP2 PUSH1 0x0 BYTE SWAP1 MSTORE8 POP PUSH1 0x0 PUSH1 0x1 DUP5 PUSH1 0x2 PUSH2 0x409A SWAP2 SWAP1 PUSH2 0x8FCF JUMP JUMPDEST PUSH2 0x40A4 SWAP2 SWAP1 PUSH2 0x86AC JUMP JUMPDEST SWAP1 POP JUMPDEST PUSH1 0x1 DUP2 GT ISZERO PUSH2 0x4144 JUMPI PUSH32 0x3031323334353637383961626364656600000000000000000000000000000000 PUSH1 0xF DUP7 AND PUSH1 0x10 DUP2 LT PUSH2 0x40E6 JUMPI PUSH2 0x40E5 PUSH2 0x6F7F JUMP JUMPDEST JUMPDEST BYTE PUSH1 0xF8 SHL DUP3 DUP3 DUP2 MLOAD DUP2 LT PUSH2 0x40FD JUMPI PUSH2 0x40FC PUSH2 0x6F7F JUMP JUMPDEST JUMPDEST PUSH1 0x20 ADD ADD SWAP1 PUSH31 0xFFFFFFFFFFFFFFFFFFFFFFFFFFFFFFFFFFFFFFFFFFFFFFFFFFFFFFFFFFFFFF NOT AND SWAP1 DUP2 PUSH1 0x0 BYTE SWAP1 MSTORE8 POP PUSH1 0x4 DUP6 SWAP1 SHR SWAP5 POP DUP1 PUSH2 0x413D SWAP1 PUSH2 0x9029 JUMP JUMPDEST SWAP1 POP PUSH2 0x40A7 JUMP JUMPDEST POP PUSH1 0x0 DUP5 EQ PUSH2 0x4188 JUMPI PUSH1 0x40 MLOAD PUSH32 0x8C379A000000000000000000000000000000000000000000000000000000000 DUP2 MSTORE PUSH1 0x4 ADD PUSH2 0x417F SWAP1 PUSH2 0x909E JUMP JUMPDEST PUSH1 0x40 MLOAD DUP1 SWAP2 SUB SWAP1 REVERT JUMPDEST DUP1 SWAP2 POP POP SWAP3 SWAP2 POP POP JUMP JUMPDEST PUSH1 0x0 PUSH32 0x1FFC9A700000000000000000000000000000000000000000000000000000000 PUSH28 0xFFFFFFFFFFFFFFFFFFFFFFFFFFFFFFFFFFFFFFFFFFFFFFFFFFFFFFFF NOT AND DUP3 PUSH28 0xFFFFFFFFFFFFFFFFFFFFFFFFFFFFFFFFFFFFFFFFFFFFFFFFFFFFFFFF NOT AND EQ SWAP1 POP SWAP2 SWAP1 POP JUMP JUMPDEST PUSH2 0x420A DUP7 DUP7 DUP7 DUP7 DUP7 DUP7 PUSH2 0x43CF JUMP JUMPDEST PUSH1 0x0 PUSH20 0xFFFFFFFFFFFFFFFFFFFFFFFFFFFFFFFFFFFFFFFF AND DUP6 PUSH20 0xFFFFFFFFFFFFFFFFFFFFFFFFFFFFFFFFFFFFFFFF AND SUB PUSH2 0x42BC JUMPI PUSH1 0x0 JUMPDEST DUP4 MLOAD DUP2 LT ISZERO PUSH2 0x42BA JUMPI DUP3 DUP2 DUP2 MLOAD DUP2 LT PUSH2 0x425D JUMPI PUSH2 0x425C PUSH2 0x6F7F JUMP JUMPDEST JUMPDEST PUSH1 0x20 MUL PUSH1 0x20 ADD ADD MLOAD PUSH2 0x12D PUSH1 0x0 DUP7 DUP5 DUP2 MLOAD DUP2 LT PUSH2 0x427D JUMPI PUSH2 0x427C PUSH2 0x6F7F JUMP JUMPDEST JUMPDEST PUSH1 0x20 MUL PUSH1 0x20 ADD ADD MLOAD DUP2 MSTORE PUSH1 0x20 ADD SWAP1 DUP2 MSTORE PUSH1 0x20 ADD PUSH1 0x0 KECCAK256 PUSH1 0x0 DUP3 DUP3 SLOAD PUSH2 0x42A2 SWAP2 SWAP1 PUSH2 0x86AC JUMP JUMPDEST SWAP3 POP POP DUP2 SWAP1 SSTORE POP DUP1 PUSH2 0x42B3 SWAP1 PUSH2 0x6FDD JUMP JUMPDEST SWAP1 POP PUSH2 0x4241 JUMP JUMPDEST POP JUMPDEST PUSH1 0x0 PUSH20 0xFFFFFFFFFFFFFFFFFFFFFFFFFFFFFFFFFFFFFFFF AND DUP5 PUSH20 0xFFFFFFFFFFFFFFFFFFFFFFFFFFFFFFFFFFFFFFFF AND SUB PUSH2 0x43C7 JUMPI PUSH1 0x0 JUMPDEST DUP4 MLOAD DUP2 LT ISZERO PUSH2 0x43C5 JUMPI PUSH1 0x0 DUP5 DUP3 DUP2 MLOAD DUP2 LT PUSH2 0x4311 JUMPI PUSH2 0x4310 PUSH2 0x6F7F JUMP JUMPDEST JUMPDEST PUSH1 0x20 MUL PUSH1 0x20 ADD ADD MLOAD SWAP1 POP PUSH1 0x0 DUP5 DUP4 DUP2 MLOAD DUP2 LT PUSH2 0x4330 JUMPI PUSH2 0x432F PUSH2 0x6F7F JUMP JUMPDEST JUMPDEST PUSH1 0x20 MUL PUSH1 0x20 ADD ADD MLOAD SWAP1 POP PUSH1 0x0 PUSH2 0x12D PUSH1 0x0 DUP5 DUP2 MSTORE PUSH1 0x20 ADD SWAP1 DUP2 MSTORE PUSH1 0x20 ADD PUSH1 0x0 KECCAK256 SLOAD SWAP1 POP DUP2 DUP2 LT ISZERO PUSH2 0x4396 JUMPI PUSH1 0x40 MLOAD PUSH32 0x8C379A000000000000000000000000000000000000000000000000000000000 DUP2 MSTORE PUSH1 0x4 ADD PUSH2 0x438D SWAP1 PUSH2 0x9130 JUMP JUMPDEST PUSH1 0x40 MLOAD DUP1 SWAP2 SUB SWAP1 REVERT JUMPDEST DUP2 DUP2 SUB PUSH2 0x12D PUSH1 0x0 DUP6 DUP2 MSTORE PUSH1 0x20 ADD SWAP1 DUP2 MSTORE PUSH1 0x20 ADD PUSH1 0x0 KECCAK256 DUP2 SWAP1 SSTORE POP POP POP POP DUP1 PUSH2 0x43BE SWAP1 PUSH2 0x6FDD JUMP JUMPDEST SWAP1 POP PUSH2 0x42F3 JUMP JUMPDEST POP JUMPDEST POP POP POP POP POP POP JUMP JUMPDEST POP POP POP POP POP POP JUMP JUMPDEST DUP3 DUP1 SLOAD PUSH2 0x43E3 SWAP1 PUSH2 0x62B8 JUMP JUMPDEST SWAP1 PUSH1 0x0 MSTORE PUSH1 0x20 PUSH1 0x0 KECCAK256 SWAP1 PUSH1 0x1F ADD PUSH1 0x20 SWAP1 DIV DUP2 ADD SWAP3 DUP3 PUSH2 0x4405 JUMPI PUSH1 0x0 DUP6 SSTORE PUSH2 0x444C JUMP JUMPDEST DUP3 PUSH1 0x1F LT PUSH2 0x441E JUMPI DUP1 MLOAD PUSH1 0xFF NOT AND DUP4 DUP1 ADD OR DUP6 SSTORE PUSH2 0x444C JUMP JUMPDEST DUP3 DUP1 ADD PUSH1 0x1 ADD DUP6 SSTORE DUP3 ISZERO PUSH2 0x444C JUMPI SWAP2 DUP3 ADD JUMPDEST DUP3 DUP2 GT ISZERO PUSH2 0x444B JUMPI DUP3 MLOAD DUP3 SSTORE SWAP2 PUSH1 0x20 ADD SWAP2 SWAP1 PUSH1 0x1 ADD SWAP1 PUSH2 0x4430 JUMP JUMPDEST JUMPDEST POP SWAP1 POP PUSH2 0x4459 SWAP2 SWAP1 PUSH2 0x445D JUMP JUMPDEST POP SWAP1 JUMP JUMPDEST JUMPDEST DUP1 DUP3 GT ISZERO PUSH2 0x4476 JUMPI PUSH1 0x0 DUP2 PUSH1 0x0 SWAP1 SSTORE POP PUSH1 0x1 ADD PUSH2 0x445E JUMP JUMPDEST POP SWAP1 JUMP JUMPDEST PUSH1 0x0 PUSH1 0x40 MLOAD SWAP1 POP SWAP1 JUMP JUMPDEST PUSH1 0x0 DUP1 REVERT JUMPDEST PUSH1 0x0 DUP1 REVERT JUMPDEST PUSH1 0x0 PUSH20 0xFFFFFFFFFFFFFFFFFFFFFFFFFFFFFFFFFFFFFFFF DUP3 AND SWAP1 POP SWAP2 SWAP1 POP JUMP JUMPDEST PUSH1 0x0 PUSH2 0x44B9 DUP3 PUSH2 0x448E JUMP JUMPDEST SWAP1 POP SWAP2 SWAP1 POP JUMP JUMPDEST PUSH2 0x44C9 DUP2 PUSH2 0x44AE JUMP JUMPDEST DUP2 EQ PUSH2 0x44D4 JUMPI PUSH1 0x0 DUP1 REVERT JUMPDEST POP JUMP JUMPDEST PUSH1 0x0 DUP2 CALLDATALOAD SWAP1 POP PUSH2 0x44E6 DUP2 PUSH2 0x44C0 JUMP JUMPDEST SWAP3 SWAP2 POP POP JUMP JUMPDEST PUSH1 0x0 DUP2 SWAP1 POP SWAP2 SWAP1 POP JUMP JUMPDEST PUSH2 0x44FF DUP2 PUSH2 0x44EC JUMP JUMPDEST DUP2 EQ PUSH2 0x450A JUMPI PUSH1 0x0 DUP1 REVERT JUMPDEST POP JUMP JUMPDEST PUSH1 0x0 DUP2 CALLDATALOAD SWAP1 POP PUSH2 0x451C DUP2 PUSH2 0x44F6 JUMP JUMPDEST SWAP3 SWAP2 POP POP JUMP JUMPDEST PUSH1 0x0 DUP1 PUSH1 0x40 DUP4 DUP6 SUB SLT ISZERO PUSH2 0x4539 JUMPI PUSH2 0x4538 PUSH2 0x4484 JUMP JUMPDEST JUMPDEST PUSH1 0x0 PUSH2 0x4547 DUP6 DUP3 DUP7 ADD PUSH2 0x44D7 JUMP JUMPDEST SWAP3 POP POP PUSH1 0x20 PUSH2 0x4558 DUP6 DUP3 DUP7 ADD PUSH2 0x450D JUMP JUMPDEST SWAP2 POP POP SWAP3 POP SWAP3 SWAP1 POP JUMP JUMPDEST PUSH2 0x456B DUP2 PUSH2 0x44EC JUMP JUMPDEST DUP3 MSTORE POP POP JUMP JUMPDEST PUSH1 0x0 PUSH1 0x20 DUP3 ADD SWAP1 POP PUSH2 0x4586 PUSH1 0x0 DUP4 ADD DUP5 PUSH2 0x4562 JUMP JUMPDEST SWAP3 SWAP2 POP POP JUMP JUMPDEST PUSH1 0x0 DUP1 REVERT JUMPDEST PUSH1 0x0 DUP1 REVERT JUMPDEST PUSH1 0x0 PUSH1 0x1F NOT PUSH1 0x1F DUP4 ADD AND SWAP1 POP SWAP2 SWAP1 POP JUMP JUMPDEST PUSH32 0x4E487B7100000000000000000000000000000000000000000000000000000000 PUSH1 0x0 MSTORE PUSH1 0x41 PUSH1 0x4 MSTORE PUSH1 0x24 PUSH1 0x0 REVERT JUMPDEST PUSH2 0x45DF DUP3 PUSH2 0x4596 JUMP JUMPDEST DUP2 ADD DUP2 DUP2 LT PUSH8 0xFFFFFFFFFFFFFFFF DUP3 GT OR ISZERO PUSH2 0x45FE JUMPI PUSH2 0x45FD PUSH2 0x45A7 JUMP JUMPDEST JUMPDEST DUP1 PUSH1 0x40 MSTORE POP POP POP JUMP JUMPDEST PUSH1 0x0 PUSH2 0x4611 PUSH2 0x447A JUMP JUMPDEST SWAP1 POP PUSH2 0x461D DUP3 DUP3 PUSH2 0x45D6 JUMP JUMPDEST SWAP2 SWAP1 POP JUMP JUMPDEST PUSH1 0x0 PUSH8 0xFFFFFFFFFFFFFFFF DUP3 GT ISZERO PUSH2 0x463D JUMPI PUSH2 0x463C PUSH2 0x45A7 JUMP JUMPDEST JUMPDEST PUSH2 0x4646 DUP3 PUSH2 0x4596 JUMP JUMPDEST SWAP1 POP PUSH1 0x20 DUP2 ADD SWAP1 POP SWAP2 SWAP1 POP JUMP JUMPDEST DUP3 DUP2 DUP4 CALLDATACOPY PUSH1 0x0 DUP4 DUP4 ADD MSTORE POP POP POP JUMP JUMPDEST PUSH1 0x0 PUSH2 0x4675 PUSH2 0x4670 DUP5 PUSH2 0x4622 JUMP JUMPDEST PUSH2 0x4607 JUMP JUMPDEST SWAP1 POP DUP3 DUP2 MSTORE PUSH1 0x20 DUP2 ADD DUP5 DUP5 DUP5 ADD GT ISZERO PUSH2 0x4691 JUMPI PUSH2 0x4690 PUSH2 0x4591 JUMP JUMPDEST JUMPDEST PUSH2 0x469C DUP5 DUP3 DUP6 PUSH2 0x4653 JUMP JUMPDEST POP SWAP4 SWAP3 POP POP POP JUMP JUMPDEST PUSH1 0x0 DUP3 PUSH1 0x1F DUP4 ADD SLT PUSH2 0x46B9 JUMPI PUSH2 0x46B8 PUSH2 0x458C JUMP JUMPDEST JUMPDEST DUP2 CALLDATALOAD PUSH2 0x46C9 DUP5 DUP3 PUSH1 0x20 DUP7 ADD PUSH2 0x4662 JUMP JUMPDEST SWAP2 POP POP SWAP3 SWAP2 POP POP JUMP JUMPDEST PUSH1 0x0 DUP1 PUSH1 0x40 DUP4 DUP6 SUB SLT ISZERO PUSH2 0x46E9 JUMPI PUSH2 0x46E8 PUSH2 0x4484 JUMP JUMPDEST JUMPDEST PUSH1 0x0 PUSH2 0x46F7 DUP6 DUP3 DUP7 ADD PUSH2 0x450D JUMP JUMPDEST SWAP3 POP POP PUSH1 0x20 DUP4 ADD CALLDATALOAD PUSH8 0xFFFFFFFFFFFFFFFF DUP2 GT ISZERO PUSH2 0x4718 JUMPI PUSH2 0x4717 PUSH2 0x4489 JUMP JUMPDEST JUMPDEST PUSH2 0x4724 DUP6 DUP3 DUP7 ADD PUSH2 0x46A4 JUMP JUMPDEST SWAP2 POP POP SWAP3 POP SWAP3 SWAP1 POP JUMP JUMPDEST PUSH1 0x0 PUSH32 0xFFFFFFFF00000000000000000000000000000000000000000000000000000000 DUP3 AND SWAP1 POP SWAP2 SWAP1 POP JUMP JUMPDEST PUSH2 0x4763 DUP2 PUSH2 0x472E JUMP JUMPDEST DUP2 EQ PUSH2 0x476E JUMPI PUSH1 0x0 DUP1 REVERT JUMPDEST POP JUMP JUMPDEST PUSH1 0x0 DUP2 CALLDATALOAD SWAP1 POP PUSH2 0x4780 DUP2 PUSH2 0x475A JUMP JUMPDEST SWAP3 SWAP2 POP POP JUMP JUMPDEST PUSH1 0x0 PUSH1 0x20 DUP3 DUP5 SUB SLT ISZERO PUSH2 0x479C JUMPI PUSH2 0x479B PUSH2 0x4484 JUMP JUMPDEST JUMPDEST PUSH1 0x0 PUSH2 0x47AA DUP5 DUP3 DUP6 ADD PUSH2 0x4771 JUMP JUMPDEST SWAP2 POP POP SWAP3 SWAP2 POP POP JUMP JUMPDEST PUSH1 0x0 DUP2 ISZERO ISZERO SWAP1 POP SWAP2 SWAP1 POP JUMP JUMPDEST PUSH2 0x47C8 DUP2 PUSH2 0x47B3 JUMP JUMPDEST DUP3 MSTORE POP POP JUMP JUMPDEST PUSH1 0x0 PUSH1 0x20 DUP3 ADD SWAP1 POP PUSH2 0x47E3 PUSH1 0x0 DUP4 ADD DUP5 PUSH2 0x47BF JUMP JUMPDEST SWAP3 SWAP2 POP POP JUMP JUMPDEST PUSH1 0x0 PUSH1 0x20 DUP3 DUP5 SUB SLT ISZERO PUSH2 0x47FF JUMPI PUSH2 0x47FE PUSH2 0x4484 JUMP JUMPDEST JUMPDEST PUSH1 0x0 DUP3 ADD CALLDATALOAD PUSH8 0xFFFFFFFFFFFFFFFF DUP2 GT ISZERO PUSH2 0x481D JUMPI PUSH2 0x481C PUSH2 0x4489 JUMP JUMPDEST JUMPDEST PUSH2 0x4829 DUP5 DUP3 DUP6 ADD PUSH2 0x46A4 JUMP JUMPDEST SWAP2 POP POP SWAP3 SWAP2 POP POP JUMP JUMPDEST PUSH1 0x0 PUSH1 0x20 DUP3 DUP5 SUB SLT ISZERO PUSH2 0x4848 JUMPI PUSH2 0x4847 PUSH2 0x4484 JUMP JUMPDEST JUMPDEST PUSH1 0x0 PUSH2 0x4856 DUP5 DUP3 DUP6 ADD PUSH2 0x450D JUMP JUMPDEST SWAP2 POP POP SWAP3 SWAP2 POP POP JUMP JUMPDEST PUSH1 0x0 DUP2 MLOAD SWAP1 POP SWAP2 SWAP1 POP JUMP JUMPDEST PUSH1 0x0 DUP3 DUP3 MSTORE PUSH1 0x20 DUP3 ADD SWAP1 POP SWAP3 SWAP2 POP POP JUMP JUMPDEST PUSH1 0x0 JUMPDEST DUP4 DUP2 LT ISZERO PUSH2 0x4899 JUMPI DUP1 DUP3 ADD MLOAD DUP2 DUP5 ADD MSTORE PUSH1 0x20 DUP2 ADD SWAP1 POP PUSH2 0x487E JUMP JUMPDEST DUP4 DUP2 GT ISZERO PUSH2 0x48A8 JUMPI PUSH1 0x0 DUP5 DUP5 ADD MSTORE JUMPDEST POP POP POP POP JUMP JUMPDEST PUSH1 0x0 PUSH2 0x48B9 DUP3 PUSH2 0x485F JUMP JUMPDEST PUSH2 0x48C3 DUP2 DUP6 PUSH2 0x486A JUMP JUMPDEST SWAP4 POP PUSH2 0x48D3 DUP2 DUP6 PUSH1 0x20 DUP7 ADD PUSH2 0x487B JUMP JUMPDEST PUSH2 0x48DC DUP2 PUSH2 0x4596 JUMP JUMPDEST DUP5 ADD SWAP2 POP POP SWAP3 SWAP2 POP POP JUMP JUMPDEST PUSH1 0x0 PUSH1 0x20 DUP3 ADD SWAP1 POP DUP2 DUP2 SUB PUSH1 0x0 DUP4 ADD MSTORE PUSH2 0x4901 DUP2 DUP5 PUSH2 0x48AE JUMP JUMPDEST SWAP1 POP SWAP3 SWAP2 POP POP JUMP JUMPDEST PUSH1 0x0 PUSH8 0xFFFFFFFFFFFFFFFF DUP3 GT ISZERO PUSH2 0x4924 JUMPI PUSH2 0x4923 PUSH2 0x45A7 JUMP JUMPDEST JUMPDEST PUSH2 0x492D DUP3 PUSH2 0x4596 JUMP JUMPDEST SWAP1 POP PUSH1 0x20 DUP2 ADD SWAP1 POP SWAP2 SWAP1 POP JUMP JUMPDEST PUSH1 0x0 PUSH2 0x494D PUSH2 0x4948 DUP5 PUSH2 0x4909 JUMP JUMPDEST PUSH2 0x4607 JUMP JUMPDEST SWAP1 POP DUP3 DUP2 MSTORE PUSH1 0x20 DUP2 ADD DUP5 DUP5 DUP5 ADD GT ISZERO PUSH2 0x4969 JUMPI PUSH2 0x4968 PUSH2 0x4591 JUMP JUMPDEST JUMPDEST PUSH2 0x4974 DUP5 DUP3 DUP6 PUSH2 0x4653 JUMP JUMPDEST POP SWAP4 SWAP3 POP POP POP JUMP JUMPDEST PUSH1 0x0 DUP3 PUSH1 0x1F DUP4 ADD SLT PUSH2 0x4991 JUMPI PUSH2 0x4990 PUSH2 0x458C JUMP JUMPDEST JUMPDEST DUP2 CALLDATALOAD PUSH2 0x49A1 DUP5 DUP3 PUSH1 0x20 DUP7 ADD PUSH2 0x493A JUMP JUMPDEST SWAP2 POP POP SWAP3 SWAP2 POP POP JUMP JUMPDEST PUSH1 0x0 DUP1 PUSH1 0x0 DUP1 PUSH1 0x0 PUSH1 0xA0 DUP7 DUP9 SUB SLT ISZERO PUSH2 0x49C6 JUMPI PUSH2 0x49C5 PUSH2 0x4484 JUMP JUMPDEST JUMPDEST PUSH1 0x0 PUSH2 0x49D4 DUP9 DUP3 DUP10 ADD PUSH2 0x44D7 JUMP JUMPDEST SWAP6 POP POP PUSH1 0x20 PUSH2 0x49E5 DUP9 DUP3 DUP10 ADD PUSH2 0x44D7 JUMP JUMPDEST SWAP5 POP POP PUSH1 0x40 PUSH2 0x49F6 DUP9 DUP3 DUP10 ADD PUSH2 0x450D JUMP JUMPDEST SWAP4 POP POP PUSH1 0x60 PUSH2 0x4A07 DUP9 DUP3 DUP10 ADD PUSH2 0x450D JUMP JUMPDEST SWAP3 POP POP PUSH1 0x80 DUP7 ADD CALLDATALOAD PUSH8 0xFFFFFFFFFFFFFFFF DUP2 GT ISZERO PUSH2 0x4A28 JUMPI PUSH2 0x4A27 PUSH2 0x4489 JUMP JUMPDEST JUMPDEST PUSH2 0x4A34 DUP9 DUP3 DUP10 ADD PUSH2 0x497C JUMP JUMPDEST SWAP2 POP POP SWAP3 SWAP6 POP SWAP3 SWAP6 SWAP1 SWAP4 POP JUMP JUMPDEST PUSH1 0x0 DUP1 PUSH1 0x40 DUP4 DUP6 SUB SLT ISZERO PUSH2 0x4A58 JUMPI PUSH2 0x4A57 PUSH2 0x4484 JUMP JUMPDEST JUMPDEST PUSH1 0x0 DUP4 ADD CALLDATALOAD PUSH8 0xFFFFFFFFFFFFFFFF DUP2 GT ISZERO PUSH2 0x4A76 JUMPI PUSH2 0x4A75 PUSH2 0x4489 JUMP JUMPDEST JUMPDEST PUSH2 0x4A82 DUP6 DUP3 DUP7 ADD PUSH2 0x46A4 JUMP JUMPDEST SWAP3 POP POP PUSH1 0x20 PUSH2 0x4A93 DUP6 DUP3 DUP7 ADD PUSH2 0x44D7 JUMP JUMPDEST SWAP2 POP POP SWAP3 POP SWAP3 SWAP1 POP JUMP JUMPDEST PUSH1 0x0 DUP1 REVERT JUMPDEST PUSH1 0x0 DUP1 REVERT JUMPDEST PUSH1 0x0 DUP1 DUP4 PUSH1 0x1F DUP5 ADD SLT PUSH2 0x4ABD JUMPI PUSH2 0x4ABC PUSH2 0x458C JUMP JUMPDEST JUMPDEST DUP3 CALLDATALOAD SWAP1 POP PUSH8 0xFFFFFFFFFFFFFFFF DUP2 GT ISZERO PUSH2 0x4ADA JUMPI PUSH2 0x4AD9 PUSH2 0x4A9D JUMP JUMPDEST JUMPDEST PUSH1 0x20 DUP4 ADD SWAP2 POP DUP4 PUSH1 0x20 DUP3 MUL DUP4 ADD GT ISZERO PUSH2 0x4AF6 JUMPI PUSH2 0x4AF5 PUSH2 0x4AA2 JUMP JUMPDEST JUMPDEST SWAP3 POP SWAP3 SWAP1 POP JUMP JUMPDEST PUSH1 0x0 DUP1 DUP4 PUSH1 0x1F DUP5 ADD SLT PUSH2 0x4B13 JUMPI PUSH2 0x4B12 PUSH2 0x458C JUMP JUMPDEST JUMPDEST DUP3 CALLDATALOAD SWAP1 POP PUSH8 0xFFFFFFFFFFFFFFFF DUP2 GT ISZERO PUSH2 0x4B30 JUMPI PUSH2 0x4B2F PUSH2 0x4A9D JUMP JUMPDEST JUMPDEST PUSH1 0x20 DUP4 ADD SWAP2 POP DUP4 PUSH1 0x20 DUP3 MUL DUP4 ADD GT ISZERO PUSH2 0x4B4C JUMPI PUSH2 0x4B4B PUSH2 0x4AA2 JUMP JUMPDEST JUMPDEST SWAP3 POP SWAP3 SWAP1 POP JUMP JUMPDEST PUSH1 0x0 DUP1 PUSH1 0x0 DUP1 PUSH1 0x40 DUP6 DUP8 SUB SLT ISZERO PUSH2 0x4B6D JUMPI PUSH2 0x4B6C PUSH2 0x4484 JUMP JUMPDEST JUMPDEST PUSH1 0x0 DUP6 ADD CALLDATALOAD PUSH8 0xFFFFFFFFFFFFFFFF DUP2 GT ISZERO PUSH2 0x4B8B JUMPI PUSH2 0x4B8A PUSH2 0x4489 JUMP JUMPDEST JUMPDEST PUSH2 0x4B97 DUP8 DUP3 DUP9 ADD PUSH2 0x4AA7 JUMP JUMPDEST SWAP5 POP SWAP5 POP POP PUSH1 0x20 DUP6 ADD CALLDATALOAD PUSH8 0xFFFFFFFFFFFFFFFF DUP2 GT ISZERO PUSH2 0x4BBA JUMPI PUSH2 0x4BB9 PUSH2 0x4489 JUMP JUMPDEST JUMPDEST PUSH2 0x4BC6 DUP8 DUP3 DUP9 ADD PUSH2 0x4AFD JUMP JUMPDEST SWAP3 POP SWAP3 POP POP SWAP3 SWAP6 SWAP2 SWAP5 POP SWAP3 POP JUMP JUMPDEST PUSH1 0x0 DUP2 MLOAD SWAP1 POP SWAP2 SWAP1 POP JUMP JUMPDEST PUSH1 0x0 DUP3 DUP3 MSTORE PUSH1 0x20 DUP3 ADD SWAP1 POP SWAP3 SWAP2 POP POP JUMP JUMPDEST PUSH1 0x0 DUP2 SWAP1 POP PUSH1 0x20 DUP3 ADD SWAP1 POP SWAP2 SWAP1 POP JUMP JUMPDEST PUSH32 0x4E487B7100000000000000000000000000000000000000000000000000000000 PUSH1 0x0 MSTORE PUSH1 0x21 PUSH1 0x4 MSTORE PUSH1 0x24 PUSH1 0x0 REVERT JUMPDEST PUSH1 0x6 DUP2 LT PUSH2 0x4C40 JUMPI PUSH2 0x4C3F PUSH2 0x4C00 JUMP JUMPDEST JUMPDEST POP JUMP JUMPDEST PUSH1 0x0 DUP2 SWAP1 POP PUSH2 0x4C51 DUP3 PUSH2 0x4C2F JUMP JUMPDEST SWAP2 SWAP1 POP JUMP JUMPDEST PUSH1 0x0 PUSH2 0x4C61 DUP3 PUSH2 0x4C43 JUMP JUMPDEST SWAP1 POP SWAP2 SWAP1 POP JUMP JUMPDEST PUSH2 0x4C71 DUP2 PUSH2 0x4C56 JUMP JUMPDEST DUP3 MSTORE POP POP JUMP JUMPDEST PUSH2 0x4C80 DUP2 PUSH2 0x44AE JUMP JUMPDEST DUP3 MSTORE POP POP JUMP JUMPDEST PUSH2 0x4C8F DUP2 PUSH2 0x44EC JUMP JUMPDEST DUP3 MSTORE POP POP JUMP JUMPDEST PUSH1 0x0 PUSH2 0x4CA0 DUP3 PUSH2 0x448E JUMP JUMPDEST SWAP1 POP SWAP2 SWAP1 POP JUMP JUMPDEST PUSH2 0x4CB0 DUP2 PUSH2 0x4C95 JUMP JUMPDEST DUP3 MSTORE POP POP JUMP JUMPDEST PUSH1 0xA0 DUP3 ADD PUSH1 0x0 DUP3 ADD MLOAD PUSH2 0x4CCC PUSH1 0x0 DUP6 ADD DUP3 PUSH2 0x4C68 JUMP JUMPDEST POP PUSH1 0x20 DUP3 ADD MLOAD PUSH2 0x4CDF PUSH1 0x20 DUP6 ADD DUP3 PUSH2 0x4C77 JUMP JUMPDEST POP PUSH1 0x40 DUP3 ADD MLOAD PUSH2 0x4CF2 PUSH1 0x40 DUP6 ADD DUP3 PUSH2 0x4C86 JUMP JUMPDEST POP PUSH1 0x60 DUP3 ADD MLOAD PUSH2 0x4D05 PUSH1 0x60 DUP6 ADD DUP3 PUSH2 0x4C86 JUMP JUMPDEST POP PUSH1 0x80 DUP3 ADD MLOAD PUSH2 0x4D18 PUSH1 0x80 DUP6 ADD DUP3 PUSH2 0x4CA7 JUMP JUMPDEST POP POP POP POP JUMP JUMPDEST PUSH1 0x0 DUP2 SWAP1 POP SWAP2 SWAP1 POP JUMP JUMPDEST PUSH2 0x4D31 DUP2 PUSH2 0x4D1E JUMP JUMPDEST DUP3 MSTORE POP POP JUMP JUMPDEST PUSH1 0xE0 DUP3 ADD PUSH1 0x0 DUP3 ADD MLOAD PUSH2 0x4D4D PUSH1 0x0 DUP6 ADD DUP3 PUSH2 0x4CB6 JUMP JUMPDEST POP PUSH1 0x20 DUP3 ADD MLOAD PUSH2 0x4D60 PUSH1 0xA0 DUP6 ADD DUP3 PUSH2 0x4C77 JUMP JUMPDEST POP PUSH1 0x40 DUP3 ADD MLOAD PUSH2 0x4D73 PUSH1 0xC0 DUP6 ADD DUP3 PUSH2 0x4D28 JUMP JUMPDEST POP POP POP POP JUMP JUMPDEST PUSH1 0x0 PUSH2 0x4D85 DUP4 DUP4 PUSH2 0x4D37 JUMP JUMPDEST PUSH1 0xE0 DUP4 ADD SWAP1 POP SWAP3 SWAP2 POP POP JUMP JUMPDEST PUSH1 0x0 PUSH1 0x20 DUP3 ADD SWAP1 POP SWAP2 SWAP1 POP JUMP JUMPDEST PUSH1 0x0 PUSH2 0x4DA9 DUP3 PUSH2 0x4BD4 JUMP JUMPDEST PUSH2 0x4DB3 DUP2 DUP6 PUSH2 0x4BDF JUMP JUMPDEST SWAP4 POP PUSH2 0x4DBE DUP4 PUSH2 0x4BF0 JUMP JUMPDEST DUP1 PUSH1 0x0 JUMPDEST DUP4 DUP2 LT ISZERO PUSH2 0x4DEF JUMPI DUP2 MLOAD PUSH2 0x4DD6 DUP9 DUP3 PUSH2 0x4D79 JUMP JUMPDEST SWAP8 POP PUSH2 0x4DE1 DUP4 PUSH2 0x4D91 JUMP JUMPDEST SWAP3 POP POP PUSH1 0x1 DUP2 ADD SWAP1 POP PUSH2 0x4DC2 JUMP JUMPDEST POP DUP6 SWAP4 POP POP POP POP SWAP3 SWAP2 POP POP JUMP JUMPDEST PUSH1 0x0 PUSH1 0x20 DUP3 ADD SWAP1 POP DUP2 DUP2 SUB PUSH1 0x0 DUP4 ADD MSTORE PUSH2 0x4E16 DUP2 DUP5 PUSH2 0x4D9E JUMP JUMPDEST SWAP1 POP SWAP3 SWAP2 POP POP JUMP JUMPDEST PUSH1 0x0 PUSH8 0xFFFFFFFFFFFFFFFF DUP3 GT ISZERO PUSH2 0x4E39 JUMPI PUSH2 0x4E38 PUSH2 0x45A7 JUMP JUMPDEST JUMPDEST PUSH1 0x20 DUP3 MUL SWAP1 POP PUSH1 0x20 DUP2 ADD SWAP1 POP SWAP2 SWAP1 POP JUMP JUMPDEST PUSH1 0x0 PUSH2 0x4E5D PUSH2 0x4E58 DUP5 PUSH2 0x4E1E JUMP JUMPDEST PUSH2 0x4607 JUMP JUMPDEST SWAP1 POP DUP1 DUP4 DUP3 MSTORE PUSH1 0x20 DUP3 ADD SWAP1 POP PUSH1 0x20 DUP5 MUL DUP4 ADD DUP6 DUP2 GT ISZERO PUSH2 0x4E80 JUMPI PUSH2 0x4E7F PUSH2 0x4AA2 JUMP JUMPDEST JUMPDEST DUP4 JUMPDEST DUP2 DUP2 LT ISZERO PUSH2 0x4EA9 JUMPI DUP1 PUSH2 0x4E95 DUP9 DUP3 PUSH2 0x450D JUMP JUMPDEST DUP5 MSTORE PUSH1 0x20 DUP5 ADD SWAP4 POP POP PUSH1 0x20 DUP2 ADD SWAP1 POP PUSH2 0x4E82 JUMP JUMPDEST POP POP POP SWAP4 SWAP3 POP POP POP JUMP JUMPDEST PUSH1 0x0 DUP3 PUSH1 0x1F DUP4 ADD SLT PUSH2 0x4EC8 JUMPI PUSH2 0x4EC7 PUSH2 0x458C JUMP JUMPDEST JUMPDEST DUP2 CALLDATALOAD PUSH2 0x4ED8 DUP5 DUP3 PUSH1 0x20 DUP7 ADD PUSH2 0x4E4A JUMP JUMPDEST SWAP2 POP POP SWAP3 SWAP2 POP POP JUMP JUMPDEST PUSH1 0x0 DUP1 PUSH1 0x0 DUP1 PUSH1 0x80 DUP6 DUP8 SUB SLT ISZERO PUSH2 0x4EFB JUMPI PUSH2 0x4EFA PUSH2 0x4484 JUMP JUMPDEST JUMPDEST PUSH1 0x0 PUSH2 0x4F09 DUP8 DUP3 DUP9 ADD PUSH2 0x44D7 JUMP JUMPDEST SWAP5 POP POP PUSH1 0x20 DUP6 ADD CALLDATALOAD PUSH8 0xFFFFFFFFFFFFFFFF DUP2 GT ISZERO PUSH2 0x4F2A JUMPI PUSH2 0x4F29 PUSH2 0x4489 JUMP JUMPDEST JUMPDEST PUSH2 0x4F36 DUP8 DUP3 DUP9 ADD PUSH2 0x4EB3 JUMP JUMPDEST SWAP4 POP POP PUSH1 0x40 DUP6 ADD CALLDATALOAD PUSH8 0xFFFFFFFFFFFFFFFF DUP2 GT ISZERO PUSH2 0x4F57 JUMPI PUSH2 0x4F56 PUSH2 0x4489 JUMP JUMPDEST JUMPDEST PUSH2 0x4F63 DUP8 DUP3 DUP9 ADD PUSH2 0x4EB3 JUMP JUMPDEST SWAP3 POP POP PUSH1 0x60 DUP6 ADD CALLDATALOAD PUSH8 0xFFFFFFFFFFFFFFFF DUP2 GT ISZERO PUSH2 0x4F84 JUMPI PUSH2 0x4F83 PUSH2 0x4489 JUMP JUMPDEST JUMPDEST PUSH2 0x4F90 DUP8 DUP3 DUP9 ADD PUSH2 0x497C JUMP JUMPDEST SWAP2 POP POP SWAP3 SWAP6 SWAP2 SWAP5 POP SWAP3 POP JUMP JUMPDEST PUSH2 0x4FA5 DUP2 PUSH2 0x4D1E JUMP JUMPDEST DUP2 EQ PUSH2 0x4FB0 JUMPI PUSH1 0x0 DUP1 REVERT JUMPDEST POP JUMP JUMPDEST PUSH1 0x0 DUP2 CALLDATALOAD SWAP1 POP PUSH2 0x4FC2 DUP2 PUSH2 0x4F9C JUMP JUMPDEST SWAP3 SWAP2 POP POP JUMP JUMPDEST PUSH1 0x0 PUSH1 0x20 DUP3 DUP5 SUB SLT ISZERO PUSH2 0x4FDE JUMPI PUSH2 0x4FDD PUSH2 0x4484 JUMP JUMPDEST JUMPDEST PUSH1 0x0 PUSH2 0x4FEC DUP5 DUP3 DUP6 ADD PUSH2 0x4FB3 JUMP JUMPDEST SWAP2 POP POP SWAP3 SWAP2 POP POP JUMP JUMPDEST PUSH2 0x4FFE DUP2 PUSH2 0x4D1E JUMP JUMPDEST DUP3 MSTORE POP POP JUMP JUMPDEST PUSH1 0x0 PUSH1 0x20 DUP3 ADD SWAP1 POP PUSH2 0x5019 PUSH1 0x0 DUP4 ADD DUP5 PUSH2 0x4FF5 JUMP JUMPDEST SWAP3 SWAP2 POP POP JUMP JUMPDEST PUSH1 0x0 DUP1 PUSH1 0x0 DUP1 PUSH1 0x0 PUSH1 0xA0 DUP7 DUP9 SUB SLT ISZERO PUSH2 0x503B JUMPI PUSH2 0x503A PUSH2 0x4484 JUMP JUMPDEST JUMPDEST PUSH1 0x0 PUSH2 0x5049 DUP9 DUP3 DUP10 ADD PUSH2 0x44D7 JUMP JUMPDEST SWAP6 POP POP PUSH1 0x20 PUSH2 0x505A DUP9 DUP3 DUP10 ADD PUSH2 0x44D7 JUMP JUMPDEST SWAP5 POP POP PUSH1 0x40 DUP7 ADD CALLDATALOAD PUSH8 0xFFFFFFFFFFFFFFFF DUP2 GT ISZERO PUSH2 0x507B JUMPI PUSH2 0x507A PUSH2 0x4489 JUMP JUMPDEST JUMPDEST PUSH2 0x5087 DUP9 DUP3 DUP10 ADD PUSH2 0x4EB3 JUMP JUMPDEST SWAP4 POP POP PUSH1 0x60 DUP7 ADD CALLDATALOAD PUSH8 0xFFFFFFFFFFFFFFFF DUP2 GT ISZERO PUSH2 0x50A8 JUMPI PUSH2 0x50A7 PUSH2 0x4489 JUMP JUMPDEST JUMPDEST PUSH2 0x50B4 DUP9 DUP3 DUP10 ADD PUSH2 0x4EB3 JUMP JUMPDEST SWAP3 POP POP PUSH1 0x80 DUP7 ADD CALLDATALOAD PUSH8 0xFFFFFFFFFFFFFFFF DUP2 GT ISZERO PUSH2 0x50D5 JUMPI PUSH2 0x50D4 PUSH2 0x4489 JUMP JUMPDEST JUMPDEST PUSH2 0x50E1 DUP9 DUP3 DUP10 ADD PUSH2 0x497C JUMP JUMPDEST SWAP2 POP POP SWAP3 SWAP6 POP SWAP3 SWAP6 SWAP1 SWAP4 POP JUMP JUMPDEST PUSH1 0x0 DUP1 PUSH1 0x40 DUP4 DUP6 SUB SLT ISZERO PUSH2 0x5105 JUMPI PUSH2 0x5104 PUSH2 0x4484 JUMP JUMPDEST JUMPDEST PUSH1 0x0 PUSH2 0x5113 DUP6 DUP3 DUP7 ADD PUSH2 0x4FB3 JUMP JUMPDEST SWAP3 POP POP PUSH1 0x20 PUSH2 0x5124 DUP6 DUP3 DUP7 ADD PUSH2 0x44D7 JUMP JUMPDEST SWAP2 POP POP SWAP3 POP SWAP3 SWAP1 POP JUMP JUMPDEST PUSH1 0x0 DUP1 DUP4 PUSH1 0x1F DUP5 ADD SLT PUSH2 0x5144 JUMPI PUSH2 0x5143 PUSH2 0x458C JUMP JUMPDEST JUMPDEST DUP3 CALLDATALOAD SWAP1 POP PUSH8 0xFFFFFFFFFFFFFFFF DUP2 GT ISZERO PUSH2 0x5161 JUMPI PUSH2 0x5160 PUSH2 0x4A9D JUMP JUMPDEST JUMPDEST PUSH1 0x20 DUP4 ADD SWAP2 POP DUP4 PUSH1 0x20 DUP3 MUL DUP4 ADD GT ISZERO PUSH2 0x517D JUMPI PUSH2 0x517C PUSH2 0x4AA2 JUMP JUMPDEST JUMPDEST SWAP3 POP SWAP3 SWAP1 POP JUMP JUMPDEST PUSH1 0x0 DUP1 PUSH1 0x0 DUP1 PUSH1 0x0 DUP1 PUSH1 0x0 DUP1 PUSH1 0xA0 DUP10 DUP12 SUB SLT ISZERO PUSH2 0x51A4 JUMPI PUSH2 0x51A3 PUSH2 0x4484 JUMP JUMPDEST JUMPDEST PUSH1 0x0 DUP10 ADD CALLDATALOAD PUSH8 0xFFFFFFFFFFFFFFFF DUP2 GT ISZERO PUSH2 0x51C2 JUMPI PUSH2 0x51C1 PUSH2 0x4489 JUMP JUMPDEST JUMPDEST PUSH2 0x51CE DUP12 DUP3 DUP13 ADD PUSH2 0x4AA7 JUMP JUMPDEST SWAP9 POP SWAP9 POP POP PUSH1 0x20 DUP10 ADD CALLDATALOAD PUSH8 0xFFFFFFFFFFFFFFFF DUP2 GT ISZERO PUSH2 0x51F1 JUMPI PUSH2 0x51F0 PUSH2 0x4489 JUMP JUMPDEST JUMPDEST PUSH2 0x51FD DUP12 DUP3 DUP13 ADD PUSH2 0x512E JUMP JUMPDEST SWAP7 POP SWAP7 POP POP PUSH1 0x40 DUP10 ADD CALLDATALOAD PUSH8 0xFFFFFFFFFFFFFFFF DUP2 GT ISZERO PUSH2 0x5220 JUMPI PUSH2 0x521F PUSH2 0x4489 JUMP JUMPDEST JUMPDEST PUSH2 0x522C DUP12 DUP3 DUP13 ADD PUSH2 0x512E JUMP JUMPDEST SWAP5 POP SWAP5 POP POP PUSH1 0x60 PUSH2 0x523F DUP12 DUP3 DUP13 ADD PUSH2 0x4FB3 JUMP JUMPDEST SWAP3 POP POP PUSH1 0x80 PUSH2 0x5250 DUP12 DUP3 DUP13 ADD PUSH2 0x450D JUMP JUMPDEST SWAP2 POP POP SWAP3 SWAP6 SWAP9 POP SWAP3 SWAP6 SWAP9 SWAP1 SWAP4 SWAP7 POP JUMP JUMPDEST PUSH1 0x0 DUP2 MLOAD SWAP1 POP SWAP2 SWAP1 POP JUMP JUMPDEST PUSH1 0x0 DUP3 DUP3 MSTORE PUSH1 0x20 DUP3 ADD SWAP1 POP SWAP3 SWAP2 POP POP JUMP JUMPDEST PUSH1 0x0 DUP2 SWAP1 POP PUSH1 0x20 DUP3 ADD SWAP1 POP SWAP2 SWAP1 POP JUMP JUMPDEST PUSH2 0x5295 DUP2 PUSH2 0x47B3 JUMP JUMPDEST DUP3 MSTORE POP POP JUMP JUMPDEST PUSH1 0x0 PUSH2 0x52A7 DUP4 DUP4 PUSH2 0x528C JUMP JUMPDEST PUSH1 0x20 DUP4 ADD SWAP1 POP SWAP3 SWAP2 POP POP JUMP JUMPDEST PUSH1 0x0 PUSH1 0x20 DUP3 ADD SWAP1 POP SWAP2 SWAP1 POP JUMP JUMPDEST PUSH1 0x0 PUSH2 0x52CB DUP3 PUSH2 0x5260 JUMP JUMPDEST PUSH2 0x52D5 DUP2 DUP6 PUSH2 0x526B JUMP JUMPDEST SWAP4 POP PUSH2 0x52E0 DUP4 PUSH2 0x527C JUMP JUMPDEST DUP1 PUSH1 0x0 JUMPDEST DUP4 DUP2 LT ISZERO PUSH2 0x5311 JUMPI DUP2 MLOAD PUSH2 0x52F8 DUP9 DUP3 PUSH2 0x529B JUMP JUMPDEST SWAP8 POP PUSH2 0x5303 DUP4 PUSH2 0x52B3 JUMP JUMPDEST SWAP3 POP POP PUSH1 0x1 DUP2 ADD SWAP1 POP PUSH2 0x52E4 JUMP JUMPDEST POP DUP6 SWAP4 POP POP POP POP SWAP3 SWAP2 POP POP JUMP JUMPDEST PUSH1 0x0 PUSH1 0x40 DUP3 ADD SWAP1 POP DUP2 DUP2 SUB PUSH1 0x0 DUP4 ADD MSTORE PUSH2 0x5338 DUP2 DUP6 PUSH2 0x52C0 JUMP JUMPDEST SWAP1 POP DUP2 DUP2 SUB PUSH1 0x20 DUP4 ADD MSTORE PUSH2 0x534C DUP2 DUP5 PUSH2 0x4D9E JUMP JUMPDEST SWAP1 POP SWAP4 SWAP3 POP POP POP JUMP JUMPDEST PUSH1 0x0 PUSH8 0xFFFFFFFFFFFFFFFF DUP3 GT ISZERO PUSH2 0x5370 JUMPI PUSH2 0x536F PUSH2 0x45A7 JUMP JUMPDEST JUMPDEST PUSH1 0x20 DUP3 MUL SWAP1 POP PUSH1 0x20 DUP2 ADD SWAP1 POP SWAP2 SWAP1 POP JUMP JUMPDEST PUSH1 0x0 PUSH2 0x5394 PUSH2 0x538F DUP5 PUSH2 0x5355 JUMP JUMPDEST PUSH2 0x4607 JUMP JUMPDEST SWAP1 POP DUP1 DUP4 DUP3 MSTORE PUSH1 0x20 DUP3 ADD SWAP1 POP PUSH1 0x20 DUP5 MUL DUP4 ADD DUP6 DUP2 GT ISZERO PUSH2 0x53B7 JUMPI PUSH2 0x53B6 PUSH2 0x4AA2 JUMP JUMPDEST JUMPDEST DUP4 JUMPDEST DUP2 DUP2 LT ISZERO PUSH2 0x53E0 JUMPI DUP1 PUSH2 0x53CC DUP9 DUP3 PUSH2 0x44D7 JUMP JUMPDEST DUP5 MSTORE PUSH1 0x20 DUP5 ADD SWAP4 POP POP PUSH1 0x20 DUP2 ADD SWAP1 POP PUSH2 0x53B9 JUMP JUMPDEST POP POP POP SWAP4 SWAP3 POP POP POP JUMP JUMPDEST PUSH1 0x0 DUP3 PUSH1 0x1F DUP4 ADD SLT PUSH2 0x53FF JUMPI PUSH2 0x53FE PUSH2 0x458C JUMP JUMPDEST JUMPDEST DUP2 CALLDATALOAD PUSH2 0x540F DUP5 DUP3 PUSH1 0x20 DUP7 ADD PUSH2 0x5381 JUMP JUMPDEST SWAP2 POP POP SWAP3 SWAP2 POP POP JUMP JUMPDEST PUSH1 0x0 DUP1 PUSH1 0x40 DUP4 DUP6 SUB SLT ISZERO PUSH2 0x542F JUMPI PUSH2 0x542E PUSH2 0x4484 JUMP JUMPDEST JUMPDEST PUSH1 0x0 DUP4 ADD CALLDATALOAD PUSH8 0xFFFFFFFFFFFFFFFF DUP2 GT ISZERO PUSH2 0x544D JUMPI PUSH2 0x544C PUSH2 0x4489 JUMP JUMPDEST JUMPDEST PUSH2 0x5459 DUP6 DUP3 DUP7 ADD PUSH2 0x53EA JUMP JUMPDEST SWAP3 POP POP PUSH1 0x20 DUP4 ADD CALLDATALOAD PUSH8 0xFFFFFFFFFFFFFFFF DUP2 GT ISZERO PUSH2 0x547A JUMPI PUSH2 0x5479 PUSH2 0x4489 JUMP JUMPDEST JUMPDEST PUSH2 0x5486 DUP6 DUP3 DUP7 ADD PUSH2 0x4EB3 JUMP JUMPDEST SWAP2 POP POP SWAP3 POP SWAP3 SWAP1 POP JUMP JUMPDEST PUSH1 0x0 DUP2 MLOAD SWAP1 POP SWAP2 SWAP1 POP JUMP JUMPDEST PUSH1 0x0 DUP3 DUP3 MSTORE PUSH1 0x20 DUP3 ADD SWAP1 POP SWAP3 SWAP2 POP POP JUMP JUMPDEST PUSH1 0x0 DUP2 SWAP1 POP PUSH1 0x20 DUP3 ADD SWAP1 POP SWAP2 SWAP1 POP JUMP JUMPDEST PUSH1 0x0 PUSH2 0x54C8 DUP4 DUP4 PUSH2 0x4C86 JUMP JUMPDEST PUSH1 0x20 DUP4 ADD SWAP1 POP SWAP3 SWAP2 POP POP JUMP JUMPDEST PUSH1 0x0 PUSH1 0x20 DUP3 ADD SWAP1 POP SWAP2 SWAP1 POP JUMP JUMPDEST PUSH1 0x0 PUSH2 0x54EC DUP3 PUSH2 0x5490 JUMP JUMPDEST PUSH2 0x54F6 DUP2 DUP6 PUSH2 0x549B JUMP JUMPDEST SWAP4 POP PUSH2 0x5501 DUP4 PUSH2 0x54AC JUMP JUMPDEST DUP1 PUSH1 0x0 JUMPDEST DUP4 DUP2 LT ISZERO PUSH2 0x5532 JUMPI DUP2 MLOAD PUSH2 0x5519 DUP9 DUP3 PUSH2 0x54BC JUMP JUMPDEST SWAP8 POP PUSH2 0x5524 DUP4 PUSH2 0x54D4 JUMP JUMPDEST SWAP3 POP POP PUSH1 0x1 DUP2 ADD SWAP1 POP PUSH2 0x5505 JUMP JUMPDEST POP DUP6 SWAP4 POP POP POP POP SWAP3 SWAP2 POP POP JUMP JUMPDEST PUSH1 0x0 PUSH1 0x20 DUP3 ADD SWAP1 POP DUP2 DUP2 SUB PUSH1 0x0 DUP4 ADD MSTORE PUSH2 0x5559 DUP2 DUP5 PUSH2 0x54E1 JUMP JUMPDEST SWAP1 POP SWAP3 SWAP2 POP POP JUMP JUMPDEST PUSH1 0x0 DUP1 DUP4 PUSH1 0x1F DUP5 ADD SLT PUSH2 0x5577 JUMPI PUSH2 0x5576 PUSH2 0x458C JUMP JUMPDEST JUMPDEST DUP3 CALLDATALOAD SWAP1 POP PUSH8 0xFFFFFFFFFFFFFFFF DUP2 GT ISZERO PUSH2 0x5594 JUMPI PUSH2 0x5593 PUSH2 0x4A9D JUMP JUMPDEST JUMPDEST PUSH1 0x20 DUP4 ADD SWAP2 POP DUP4 PUSH1 0x20 DUP3 MUL DUP4 ADD GT ISZERO PUSH2 0x55B0 JUMPI PUSH2 0x55AF PUSH2 0x4AA2 JUMP JUMPDEST JUMPDEST SWAP3 POP SWAP3 SWAP1 POP JUMP JUMPDEST PUSH1 0x0 DUP1 DUP4 PUSH1 0x1F DUP5 ADD SLT PUSH2 0x55CD JUMPI PUSH2 0x55CC PUSH2 0x458C JUMP JUMPDEST JUMPDEST DUP3 CALLDATALOAD SWAP1 POP PUSH8 0xFFFFFFFFFFFFFFFF DUP2 GT ISZERO PUSH2 0x55EA JUMPI PUSH2 0x55E9 PUSH2 0x4A9D JUMP JUMPDEST JUMPDEST PUSH1 0x20 DUP4 ADD SWAP2 POP DUP4 PUSH1 0x20 DUP3 MUL DUP4 ADD GT ISZERO PUSH2 0x5606 JUMPI PUSH2 0x5605 PUSH2 0x4AA2 JUMP JUMPDEST JUMPDEST SWAP3 POP SWAP3 SWAP1 POP JUMP JUMPDEST PUSH1 0x0 DUP1 PUSH1 0x0 DUP1 PUSH1 0x0 DUP1 PUSH1 0x0 DUP1 PUSH1 0x0 DUP1 PUSH1 0x0 PUSH1 0xE0 DUP13 DUP15 SUB SLT ISZERO PUSH2 0x5632 JUMPI PUSH2 0x5631 PUSH2 0x4484 JUMP JUMPDEST JUMPDEST PUSH1 0x0 DUP13 ADD CALLDATALOAD PUSH8 0xFFFFFFFFFFFFFFFF DUP2 GT ISZERO PUSH2 0x5650 JUMPI PUSH2 0x564F PUSH2 0x4489 JUMP JUMPDEST JUMPDEST PUSH2 0x565C DUP15 DUP3 DUP16 ADD PUSH2 0x5561 JUMP JUMPDEST SWAP12 POP SWAP12 POP POP PUSH1 0x20 DUP13 ADD CALLDATALOAD PUSH8 0xFFFFFFFFFFFFFFFF DUP2 GT ISZERO PUSH2 0x567F JUMPI PUSH2 0x567E PUSH2 0x4489 JUMP JUMPDEST JUMPDEST PUSH2 0x568B DUP15 DUP3 DUP16 ADD PUSH2 0x55B7 JUMP JUMPDEST SWAP10 POP SWAP10 POP POP PUSH1 0x40 DUP13 ADD CALLDATALOAD PUSH8 0xFFFFFFFFFFFFFFFF DUP2 GT ISZERO PUSH2 0x56AE JUMPI PUSH2 0x56AD PUSH2 0x4489 JUMP JUMPDEST JUMPDEST PUSH2 0x56BA DUP15 DUP3 DUP16 ADD PUSH2 0x512E JUMP JUMPDEST SWAP8 POP SWAP8 POP POP PUSH1 0x60 DUP13 ADD CALLDATALOAD PUSH8 0xFFFFFFFFFFFFFFFF DUP2 GT ISZERO PUSH2 0x56DD JUMPI PUSH2 0x56DC PUSH2 0x4489 JUMP JUMPDEST JUMPDEST PUSH2 0x56E9 DUP15 DUP3 DUP16 ADD PUSH2 0x512E JUMP JUMPDEST SWAP6 POP SWAP6 POP POP PUSH1 0x80 PUSH2 0x56FC DUP15 DUP3 DUP16 ADD PUSH2 0x4FB3 JUMP JUMPDEST SWAP4 POP POP PUSH1 0xA0 PUSH2 0x570D DUP15 DUP3 DUP16 ADD PUSH2 0x44D7 JUMP JUMPDEST SWAP3 POP POP PUSH1 0xC0 PUSH2 0x571E DUP15 DUP3 DUP16 ADD PUSH2 0x450D JUMP JUMPDEST SWAP2 POP POP SWAP3 SWAP6 SWAP9 SWAP12 POP SWAP3 SWAP6 SWAP9 SWAP12 SWAP1 SWAP4 SWAP7 SWAP10 POP JUMP JUMPDEST PUSH1 0x0 PUSH1 0x80 DUP3 ADD SWAP1 POP PUSH2 0x5746 PUSH1 0x0 DUP4 ADD DUP8 PUSH2 0x47BF JUMP JUMPDEST PUSH2 0x5753 PUSH1 0x20 DUP4 ADD DUP7 PUSH2 0x47BF JUMP JUMPDEST PUSH2 0x5760 PUSH1 0x40 DUP4 ADD DUP6 PUSH2 0x4562 JUMP JUMPDEST PUSH2 0x576D PUSH1 0x60 DUP4 ADD DUP5 PUSH2 0x4562 JUMP JUMPDEST SWAP6 SWAP5 POP POP POP POP POP JUMP JUMPDEST PUSH1 0x0 DUP1 PUSH1 0x0 PUSH1 0x60 DUP5 DUP7 SUB SLT ISZERO PUSH2 0x578F JUMPI PUSH2 0x578E PUSH2 0x4484 JUMP JUMPDEST JUMPDEST PUSH1 0x0 PUSH2 0x579D DUP7 DUP3 DUP8 ADD PUSH2 0x44D7 JUMP JUMPDEST SWAP4 POP POP PUSH1 0x20 DUP5 ADD CALLDATALOAD PUSH8 0xFFFFFFFFFFFFFFFF DUP2 GT ISZERO PUSH2 0x57BE JUMPI PUSH2 0x57BD PUSH2 0x4489 JUMP JUMPDEST JUMPDEST PUSH2 0x57CA DUP7 DUP3 DUP8 ADD PUSH2 0x4EB3 JUMP JUMPDEST SWAP3 POP POP PUSH1 0x40 DUP5 ADD CALLDATALOAD PUSH8 0xFFFFFFFFFFFFFFFF DUP2 GT ISZERO PUSH2 0x57EB JUMPI PUSH2 0x57EA PUSH2 0x4489 JUMP JUMPDEST JUMPDEST PUSH2 0x57F7 DUP7 DUP3 DUP8 ADD PUSH2 0x4EB3 JUMP JUMPDEST SWAP2 POP POP SWAP3 POP SWAP3 POP SWAP3 JUMP JUMPDEST PUSH1 0x0 DUP1 PUSH1 0x0 DUP1 PUSH1 0x80 DUP6 DUP8 SUB SLT ISZERO PUSH2 0x581B JUMPI PUSH2 0x581A PUSH2 0x4484 JUMP JUMPDEST JUMPDEST PUSH1 0x0 PUSH2 0x5829 DUP8 DUP3 DUP9 ADD PUSH2 0x44D7 JUMP JUMPDEST SWAP5 POP POP PUSH1 0x20 PUSH2 0x583A DUP8 DUP3 DUP9 ADD PUSH2 0x450D JUMP JUMPDEST SWAP4 POP POP PUSH1 0x40 PUSH2 0x584B DUP8 DUP3 DUP9 ADD PUSH2 0x450D JUMP JUMPDEST SWAP3 POP POP PUSH1 0x60 DUP6 ADD CALLDATALOAD PUSH8 0xFFFFFFFFFFFFFFFF DUP2 GT ISZERO PUSH2 0x586C JUMPI PUSH2 0x586B PUSH2 0x4489 JUMP JUMPDEST JUMPDEST PUSH2 0x5878 DUP8 DUP3 DUP9 ADD PUSH2 0x497C JUMP JUMPDEST SWAP2 POP POP SWAP3 SWAP6 SWAP2 SWAP5 POP SWAP3 POP JUMP JUMPDEST PUSH1 0x0 DUP1 PUSH1 0x20 DUP4 DUP6 SUB SLT ISZERO PUSH2 0x589B JUMPI PUSH2 0x589A PUSH2 0x4484 JUMP JUMPDEST JUMPDEST PUSH1 0x0 DUP4 ADD CALLDATALOAD PUSH8 0xFFFFFFFFFFFFFFFF DUP2 GT ISZERO PUSH2 0x58B9 JUMPI PUSH2 0x58B8 PUSH2 0x4489 JUMP JUMPDEST JUMPDEST PUSH2 0x58C5 DUP6 DUP3 DUP7 ADD PUSH2 0x4AA7 JUMP JUMPDEST SWAP3 POP SWAP3 POP POP SWAP3 POP SWAP3 SWAP1 POP JUMP JUMPDEST PUSH1 0x0 DUP1 REVERT JUMPDEST PUSH1 0x0 PUSH1 0xA0 DUP3 DUP5 SUB SLT ISZERO PUSH2 0x58EC JUMPI PUSH2 0x58EB PUSH2 0x58D1 JUMP JUMPDEST JUMPDEST DUP2 SWAP1 POP SWAP3 SWAP2 POP POP JUMP JUMPDEST PUSH1 0x0 DUP1 PUSH1 0x0 DUP1 PUSH1 0x0 PUSH1 0x80 DUP7 DUP9 SUB SLT ISZERO PUSH2 0x5911 JUMPI PUSH2 0x5910 PUSH2 0x4484 JUMP JUMPDEST JUMPDEST PUSH1 0x0 DUP7 ADD CALLDATALOAD PUSH8 0xFFFFFFFFFFFFFFFF DUP2 GT ISZERO PUSH2 0x592F JUMPI PUSH2 0x592E PUSH2 0x4489 JUMP JUMPDEST JUMPDEST PUSH2 0x593B DUP9 DUP3 DUP10 ADD PUSH2 0x58D6 JUMP JUMPDEST SWAP6 POP POP PUSH1 0x20 DUP7 ADD CALLDATALOAD PUSH8 0xFFFFFFFFFFFFFFFF DUP2 GT ISZERO PUSH2 0x595C JUMPI PUSH2 0x595B PUSH2 0x4489 JUMP JUMPDEST JUMPDEST PUSH2 0x5968 DUP9 DUP3 DUP10 ADD PUSH2 0x55B7 JUMP JUMPDEST SWAP5 POP SWAP5 POP POP PUSH1 0x40 PUSH2 0x597B DUP9 DUP3 DUP10 ADD PUSH2 0x4FB3 JUMP JUMPDEST SWAP3 POP POP PUSH1 0x60 PUSH2 0x598C DUP9 DUP3 DUP10 ADD PUSH2 0x44D7 JUMP JUMPDEST SWAP2 POP POP SWAP3 SWAP6 POP SWAP3 SWAP6 SWAP1 SWAP4 POP JUMP JUMPDEST PUSH2 0x59A2 DUP2 PUSH2 0x47B3 JUMP JUMPDEST DUP2 EQ PUSH2 0x59AD JUMPI PUSH1 0x0 DUP1 REVERT JUMPDEST POP JUMP JUMPDEST PUSH1 0x0 DUP2 CALLDATALOAD SWAP1 POP PUSH2 0x59BF DUP2 PUSH2 0x5999 JUMP JUMPDEST SWAP3 SWAP2 POP POP JUMP JUMPDEST PUSH1 0x0 DUP1 PUSH1 0x40 DUP4 DUP6 SUB SLT ISZERO PUSH2 0x59DC JUMPI PUSH2 0x59DB PUSH2 0x4484 JUMP JUMPDEST JUMPDEST PUSH1 0x0 PUSH2 0x59EA DUP6 DUP3 DUP7 ADD PUSH2 0x44D7 JUMP JUMPDEST SWAP3 POP POP PUSH1 0x20 PUSH2 0x59FB DUP6 DUP3 DUP7 ADD PUSH2 0x59B0 JUMP JUMPDEST SWAP2 POP POP SWAP3 POP SWAP3 SWAP1 POP JUMP JUMPDEST PUSH1 0x0 DUP1 REVERT JUMPDEST PUSH1 0x0 DUP1 REVERT JUMPDEST PUSH1 0x0 PUSH8 0xFFFFFFFFFFFFFFFF DUP3 GT ISZERO PUSH2 0x5A2A JUMPI PUSH2 0x5A29 PUSH2 0x45A7 JUMP JUMPDEST JUMPDEST PUSH1 0x20 DUP3 MUL SWAP1 POP PUSH1 0x20 DUP2 ADD SWAP1 POP SWAP2 SWAP1 POP JUMP JUMPDEST PUSH1 0x6 DUP2 LT PUSH2 0x5A48 JUMPI PUSH1 0x0 DUP1 REVERT JUMPDEST POP JUMP JUMPDEST PUSH1 0x0 DUP2 CALLDATALOAD SWAP1 POP PUSH2 0x5A5A DUP2 PUSH2 0x5A3B JUMP JUMPDEST SWAP3 SWAP2 POP POP JUMP JUMPDEST PUSH1 0x0 PUSH1 0xA0 DUP3 DUP5 SUB SLT ISZERO PUSH2 0x5A76 JUMPI PUSH2 0x5A75 PUSH2 0x5A05 JUMP JUMPDEST JUMPDEST PUSH2 0x5A80 PUSH1 0xA0 PUSH2 0x4607 JUMP JUMPDEST SWAP1 POP PUSH1 0x0 PUSH2 0x5A90 DUP5 DUP3 DUP6 ADD PUSH2 0x5A4B JUMP JUMPDEST PUSH1 0x0 DUP4 ADD MSTORE POP PUSH1 0x20 PUSH2 0x5AA4 DUP5 DUP3 DUP6 ADD PUSH2 0x44D7 JUMP JUMPDEST PUSH1 0x20 DUP4 ADD MSTORE POP PUSH1 0x40 PUSH2 0x5AB8 DUP5 DUP3 DUP6 ADD PUSH2 0x450D JUMP JUMPDEST PUSH1 0x40 DUP4 ADD MSTORE POP PUSH1 0x60 PUSH2 0x5ACC DUP5 DUP3 DUP6 ADD PUSH2 0x450D JUMP JUMPDEST PUSH1 0x60 DUP4 ADD MSTORE POP PUSH1 0x80 PUSH2 0x5AE0 DUP5 DUP3 DUP6 ADD PUSH2 0x450D JUMP JUMPDEST PUSH1 0x80 DUP4 ADD MSTORE POP SWAP3 SWAP2 POP POP JUMP JUMPDEST PUSH1 0x0 PUSH2 0x5AFF PUSH2 0x5AFA DUP5 PUSH2 0x5A0F JUMP JUMPDEST PUSH2 0x4607 JUMP JUMPDEST SWAP1 POP DUP1 DUP4 DUP3 MSTORE PUSH1 0x20 DUP3 ADD SWAP1 POP PUSH1 0xA0 DUP5 MUL DUP4 ADD DUP6 DUP2 GT ISZERO PUSH2 0x5B22 JUMPI PUSH2 0x5B21 PUSH2 0x4AA2 JUMP JUMPDEST JUMPDEST DUP4 JUMPDEST DUP2 DUP2 LT ISZERO PUSH2 0x5B4B JUMPI DUP1 PUSH2 0x5B37 DUP9 DUP3 PUSH2 0x5A60 JUMP JUMPDEST DUP5 MSTORE PUSH1 0x20 DUP5 ADD SWAP4 POP POP PUSH1 0xA0 DUP2 ADD SWAP1 POP PUSH2 0x5B24 JUMP JUMPDEST POP POP POP SWAP4 SWAP3 POP POP POP JUMP JUMPDEST PUSH1 0x0 DUP3 PUSH1 0x1F DUP4 ADD SLT PUSH2 0x5B6A JUMPI PUSH2 0x5B69 PUSH2 0x458C JUMP JUMPDEST JUMPDEST DUP2 CALLDATALOAD PUSH2 0x5B7A DUP5 DUP3 PUSH1 0x20 DUP7 ADD PUSH2 0x5AEC JUMP JUMPDEST SWAP2 POP POP SWAP3 SWAP2 POP POP JUMP JUMPDEST PUSH1 0x0 PUSH8 0xFFFFFFFFFFFFFFFF DUP3 GT ISZERO PUSH2 0x5B9E JUMPI PUSH2 0x5B9D PUSH2 0x45A7 JUMP JUMPDEST JUMPDEST PUSH1 0x20 DUP3 MUL SWAP1 POP PUSH1 0x20 DUP2 ADD SWAP1 POP SWAP2 SWAP1 POP JUMP JUMPDEST PUSH2 0x5BB8 DUP2 PUSH2 0x4C95 JUMP JUMPDEST DUP2 EQ PUSH2 0x5BC3 JUMPI PUSH1 0x0 DUP1 REVERT JUMPDEST POP JUMP JUMPDEST PUSH1 0x0 DUP2 CALLDATALOAD SWAP1 POP PUSH2 0x5BD5 DUP2 PUSH2 0x5BAF JUMP JUMPDEST SWAP3 SWAP2 POP POP JUMP JUMPDEST PUSH1 0x0 PUSH1 0xC0 DUP3 DUP5 SUB SLT ISZERO PUSH2 0x5BF1 JUMPI PUSH2 0x5BF0 PUSH2 0x5A05 JUMP JUMPDEST JUMPDEST PUSH2 0x5BFB PUSH1 0xC0 PUSH2 0x4607 JUMP JUMPDEST SWAP1 POP PUSH1 0x0 PUSH2 0x5C0B DUP5 DUP3 DUP6 ADD PUSH2 0x5A4B JUMP JUMPDEST PUSH1 0x0 DUP4 ADD MSTORE POP PUSH1 0x20 PUSH2 0x5C1F DUP5 DUP3 DUP6 ADD PUSH2 0x44D7 JUMP JUMPDEST PUSH1 0x20 DUP4 ADD MSTORE POP PUSH1 0x40 PUSH2 0x5C33 DUP5 DUP3 DUP6 ADD PUSH2 0x450D JUMP JUMPDEST PUSH1 0x40 DUP4 ADD MSTORE POP PUSH1 0x60 PUSH2 0x5C47 DUP5 DUP3 DUP6 ADD PUSH2 0x450D JUMP JUMPDEST PUSH1 0x60 DUP4 ADD MSTORE POP PUSH1 0x80 PUSH2 0x5C5B DUP5 DUP3 DUP6 ADD PUSH2 0x450D JUMP JUMPDEST PUSH1 0x80 DUP4 ADD MSTORE POP PUSH1 0xA0 PUSH2 0x5C6F DUP5 DUP3 DUP6 ADD PUSH2 0x5BC6 JUMP JUMPDEST PUSH1 0xA0 DUP4 ADD MSTORE POP SWAP3 SWAP2 POP POP JUMP JUMPDEST PUSH1 0x0 PUSH2 0x5C8E PUSH2 0x5C89 DUP5 PUSH2 0x5B83 JUMP JUMPDEST PUSH2 0x4607 JUMP JUMPDEST SWAP1 POP DUP1 DUP4 DUP3 MSTORE PUSH1 0x20 DUP3 ADD SWAP1 POP PUSH1 0xC0 DUP5 MUL DUP4 ADD DUP6 DUP2 GT ISZERO PUSH2 0x5CB1 JUMPI PUSH2 0x5CB0 PUSH2 0x4AA2 JUMP JUMPDEST JUMPDEST DUP4 JUMPDEST DUP2 DUP2 LT ISZERO PUSH2 0x5CDA JUMPI DUP1 PUSH2 0x5CC6 DUP9 DUP3 PUSH2 0x5BDB JUMP JUMPDEST DUP5 MSTORE PUSH1 0x20 DUP5 ADD SWAP4 POP POP PUSH1 0xC0 DUP2 ADD SWAP1 POP PUSH2 0x5CB3 JUMP JUMPDEST POP POP POP SWAP4 SWAP3 POP POP POP JUMP JUMPDEST PUSH1 0x0 DUP3 PUSH1 0x1F DUP4 ADD SLT PUSH2 0x5CF9 JUMPI PUSH2 0x5CF8 PUSH2 0x458C JUMP JUMPDEST JUMPDEST DUP2 CALLDATALOAD PUSH2 0x5D09 DUP5 DUP3 PUSH1 0x20 DUP7 ADD PUSH2 0x5C7B JUMP JUMPDEST SWAP2 POP POP SWAP3 SWAP2 POP POP JUMP JUMPDEST PUSH1 0x5 DUP2 LT PUSH2 0x5D1F JUMPI PUSH1 0x0 DUP1 REVERT JUMPDEST POP JUMP JUMPDEST PUSH1 0x0 DUP2 CALLDATALOAD SWAP1 POP PUSH2 0x5D31 DUP2 PUSH2 0x5D12 JUMP JUMPDEST SWAP3 SWAP2 POP POP JUMP JUMPDEST PUSH1 0x0 PUSH2 0x160 DUP3 DUP5 SUB SLT ISZERO PUSH2 0x5D4E JUMPI PUSH2 0x5D4D PUSH2 0x5A05 JUMP JUMPDEST JUMPDEST PUSH2 0x5D59 PUSH2 0x160 PUSH2 0x4607 JUMP JUMPDEST SWAP1 POP PUSH1 0x0 PUSH2 0x5D69 DUP5 DUP3 DUP6 ADD PUSH2 0x44D7 JUMP JUMPDEST PUSH1 0x0 DUP4 ADD MSTORE POP PUSH1 0x20 PUSH2 0x5D7D DUP5 DUP3 DUP6 ADD PUSH2 0x44D7 JUMP JUMPDEST PUSH1 0x20 DUP4 ADD MSTORE POP PUSH1 0x40 DUP3 ADD CALLDATALOAD PUSH8 0xFFFFFFFFFFFFFFFF DUP2 GT ISZERO PUSH2 0x5DA1 JUMPI PUSH2 0x5DA0 PUSH2 0x5A0A JUMP JUMPDEST JUMPDEST PUSH2 0x5DAD DUP5 DUP3 DUP6 ADD PUSH2 0x5B55 JUMP JUMPDEST PUSH1 0x40 DUP4 ADD MSTORE POP PUSH1 0x60 DUP3 ADD CALLDATALOAD PUSH8 0xFFFFFFFFFFFFFFFF DUP2 GT ISZERO PUSH2 0x5DD1 JUMPI PUSH2 0x5DD0 PUSH2 0x5A0A JUMP JUMPDEST JUMPDEST PUSH2 0x5DDD DUP5 DUP3 DUP6 ADD PUSH2 0x5CE4 JUMP JUMPDEST PUSH1 0x60 DUP4 ADD MSTORE POP PUSH1 0x80 PUSH2 0x5DF1 DUP5 DUP3 DUP6 ADD PUSH2 0x5D22 JUMP JUMPDEST PUSH1 0x80 DUP4 ADD MSTORE POP PUSH1 0xA0 PUSH2 0x5E05 DUP5 DUP3 DUP6 ADD PUSH2 0x450D JUMP JUMPDEST PUSH1 0xA0 DUP4 ADD MSTORE POP PUSH1 0xC0 PUSH2 0x5E19 DUP5 DUP3 DUP6 ADD PUSH2 0x450D JUMP JUMPDEST PUSH1 0xC0 DUP4 ADD MSTORE POP PUSH1 0xE0 PUSH2 0x5E2D DUP5 DUP3 DUP6 ADD PUSH2 0x4FB3 JUMP JUMPDEST PUSH1 0xE0 DUP4 ADD MSTORE POP PUSH2 0x100 PUSH2 0x5E42 DUP5 DUP3 DUP6 ADD PUSH2 0x450D JUMP JUMPDEST PUSH2 0x100 DUP4 ADD MSTORE POP PUSH2 0x120 PUSH2 0x5E58 DUP5 DUP3 DUP6 ADD PUSH2 0x4FB3 JUMP JUMPDEST PUSH2 0x120 DUP4 ADD MSTORE POP PUSH2 0x140 PUSH2 0x5E6E DUP5 DUP3 DUP6 ADD PUSH2 0x450D JUMP JUMPDEST PUSH2 0x140 DUP4 ADD MSTORE POP SWAP3 SWAP2 POP POP JUMP JUMPDEST PUSH1 0x0 PUSH1 0x40 DUP3 DUP5 SUB SLT ISZERO PUSH2 0x5E91 JUMPI PUSH2 0x5E90 PUSH2 0x5A05 JUMP JUMPDEST JUMPDEST PUSH2 0x5E9B PUSH1 0x40 PUSH2 0x4607 JUMP JUMPDEST SWAP1 POP PUSH1 0x0 DUP3 ADD CALLDATALOAD PUSH8 0xFFFFFFFFFFFFFFFF DUP2 GT ISZERO PUSH2 0x5EBB JUMPI PUSH2 0x5EBA PUSH2 0x5A0A JUMP JUMPDEST JUMPDEST PUSH2 0x5EC7 DUP5 DUP3 DUP6 ADD PUSH2 0x5D37 JUMP JUMPDEST PUSH1 0x0 DUP4 ADD MSTORE POP PUSH1 0x20 DUP3 ADD CALLDATALOAD PUSH8 0xFFFFFFFFFFFFFFFF DUP2 GT ISZERO PUSH2 0x5EEB JUMPI PUSH2 0x5EEA PUSH2 0x5A0A JUMP JUMPDEST JUMPDEST PUSH2 0x5EF7 DUP5 DUP3 DUP6 ADD PUSH2 0x497C JUMP JUMPDEST PUSH1 0x20 DUP4 ADD MSTORE POP SWAP3 SWAP2 POP POP JUMP JUMPDEST PUSH1 0x0 DUP1 PUSH1 0x40 DUP4 DUP6 SUB SLT ISZERO PUSH2 0x5F1A JUMPI PUSH2 0x5F19 PUSH2 0x4484 JUMP JUMPDEST JUMPDEST PUSH1 0x0 DUP4 ADD CALLDATALOAD PUSH8 0xFFFFFFFFFFFFFFFF DUP2 GT ISZERO PUSH2 0x5F38 JUMPI PUSH2 0x5F37 PUSH2 0x4489 JUMP JUMPDEST JUMPDEST PUSH2 0x5F44 DUP6 DUP3 DUP7 ADD PUSH2 0x5E7B JUMP JUMPDEST SWAP3 POP POP PUSH1 0x20 PUSH2 0x5F55 DUP6 DUP3 DUP7 ADD PUSH2 0x4FB3 JUMP JUMPDEST SWAP2 POP POP SWAP3 POP SWAP3 SWAP1 POP JUMP JUMPDEST PUSH1 0x0 DUP1 PUSH1 0x0 DUP1 PUSH1 0x0 DUP1 PUSH1 0x0 PUSH1 0x80 DUP9 DUP11 SUB SLT ISZERO PUSH2 0x5F7E JUMPI PUSH2 0x5F7D PUSH2 0x4484 JUMP JUMPDEST JUMPDEST PUSH1 0x0 DUP9 ADD CALLDATALOAD PUSH8 0xFFFFFFFFFFFFFFFF DUP2 GT ISZERO PUSH2 0x5F9C JUMPI PUSH2 0x5F9B PUSH2 0x4489 JUMP JUMPDEST JUMPDEST PUSH2 0x5FA8 DUP11 DUP3 DUP12 ADD PUSH2 0x5561 JUMP JUMPDEST SWAP8 POP SWAP8 POP POP PUSH1 0x20 DUP9 ADD CALLDATALOAD PUSH8 0xFFFFFFFFFFFFFFFF DUP2 GT ISZERO PUSH2 0x5FCB JUMPI PUSH2 0x5FCA PUSH2 0x4489 JUMP JUMPDEST JUMPDEST PUSH2 0x5FD7 DUP11 DUP3 DUP12 ADD PUSH2 0x55B7 JUMP JUMPDEST SWAP6 POP SWAP6 POP POP PUSH1 0x40 DUP9 ADD CALLDATALOAD PUSH8 0xFFFFFFFFFFFFFFFF DUP2 GT ISZERO PUSH2 0x5FFA JUMPI PUSH2 0x5FF9 PUSH2 0x4489 JUMP JUMPDEST JUMPDEST PUSH2 0x6006 DUP11 DUP3 DUP12 ADD PUSH2 0x4AFD JUMP JUMPDEST SWAP4 POP SWAP4 POP POP PUSH1 0x60 PUSH2 0x6019 DUP11 DUP3 DUP12 ADD PUSH2 0x44D7 JUMP JUMPDEST SWAP2 POP POP SWAP3 SWAP6 SWAP9 SWAP2 SWAP5 SWAP8 POP SWAP3 SWAP6 POP JUMP JUMPDEST PUSH1 0x0 PUSH2 0x160 DUP3 DUP5 SUB SLT ISZERO PUSH2 0x603F JUMPI PUSH2 0x603E PUSH2 0x58D1 JUMP JUMPDEST JUMPDEST DUP2 SWAP1 POP SWAP3 SWAP2 POP POP JUMP JUMPDEST PUSH1 0x0 PUSH1 0x20 DUP3 DUP5 SUB SLT ISZERO PUSH2 0x605E JUMPI PUSH2 0x605D PUSH2 0x4484 JUMP JUMPDEST JUMPDEST PUSH1 0x0 DUP3 ADD CALLDATALOAD PUSH8 0xFFFFFFFFFFFFFFFF DUP2 GT ISZERO PUSH2 0x607C JUMPI PUSH2 0x607B PUSH2 0x4489 JUMP JUMPDEST JUMPDEST PUSH2 0x6088 DUP5 DUP3 DUP6 ADD PUSH2 0x6028 JUMP JUMPDEST SWAP2 POP POP SWAP3 SWAP2 POP POP JUMP JUMPDEST PUSH1 0x0 DUP1 DUP4 PUSH1 0x1F DUP5 ADD SLT PUSH2 0x60A7 JUMPI PUSH2 0x60A6 PUSH2 0x458C JUMP JUMPDEST JUMPDEST DUP3 CALLDATALOAD SWAP1 POP PUSH8 0xFFFFFFFFFFFFFFFF DUP2 GT ISZERO PUSH2 0x60C4 JUMPI PUSH2 0x60C3 PUSH2 0x4A9D JUMP JUMPDEST JUMPDEST PUSH1 0x20 DUP4 ADD SWAP2 POP DUP4 PUSH1 0x20 DUP3 MUL DUP4 ADD GT ISZERO PUSH2 0x60E0 JUMPI PUSH2 0x60DF PUSH2 0x4AA2 JUMP JUMPDEST JUMPDEST SWAP3 POP SWAP3 SWAP1 POP JUMP JUMPDEST PUSH1 0x0 DUP1 PUSH1 0x20 DUP4 DUP6 SUB SLT ISZERO PUSH2 0x60FE JUMPI PUSH2 0x60FD PUSH2 0x4484 JUMP JUMPDEST JUMPDEST PUSH1 0x0 DUP4 ADD CALLDATALOAD PUSH8 0xFFFFFFFFFFFFFFFF DUP2 GT ISZERO PUSH2 0x611C JUMPI PUSH2 0x611B PUSH2 0x4489 JUMP JUMPDEST JUMPDEST PUSH2 0x6128 DUP6 DUP3 DUP7 ADD PUSH2 0x6091 JUMP JUMPDEST SWAP3 POP SWAP3 POP POP SWAP3 POP SWAP3 SWAP1 POP JUMP JUMPDEST PUSH1 0x0 PUSH1 0x20 DUP3 DUP5 SUB SLT ISZERO PUSH2 0x614A JUMPI PUSH2 0x6149 PUSH2 0x4484 JUMP JUMPDEST JUMPDEST PUSH1 0x0 PUSH2 0x6158 DUP5 DUP3 DUP6 ADD PUSH2 0x44D7 JUMP JUMPDEST SWAP2 POP POP SWAP3 SWAP2 POP POP JUMP JUMPDEST PUSH1 0x0 DUP1 PUSH1 0x40 DUP4 DUP6 SUB SLT ISZERO PUSH2 0x6178 JUMPI PUSH2 0x6177 PUSH2 0x4484 JUMP JUMPDEST JUMPDEST PUSH1 0x0 PUSH2 0x6186 DUP6 DUP3 DUP7 ADD PUSH2 0x44D7 JUMP JUMPDEST SWAP3 POP POP PUSH1 0x20 PUSH2 0x6197 DUP6 DUP3 DUP7 ADD PUSH2 0x44D7 JUMP JUMPDEST SWAP2 POP POP SWAP3 POP SWAP3 SWAP1 POP JUMP JUMPDEST PUSH1 0x0 DUP1 PUSH1 0x0 PUSH1 0x60 DUP5 DUP7 SUB SLT ISZERO PUSH2 0x61BA JUMPI PUSH2 0x61B9 PUSH2 0x4484 JUMP JUMPDEST JUMPDEST PUSH1 0x0 PUSH2 0x61C8 DUP7 DUP3 DUP8 ADD PUSH2 0x44D7 JUMP JUMPDEST SWAP4 POP POP PUSH1 0x20 PUSH2 0x61D9 DUP7 DUP3 DUP8 ADD PUSH2 0x450D JUMP JUMPDEST SWAP3 POP POP PUSH1 0x40 PUSH2 0x61EA DUP7 DUP3 DUP8 ADD PUSH2 0x450D JUMP JUMPDEST SWAP2 POP POP SWAP3 POP SWAP3 POP SWAP3 JUMP JUMPDEST PUSH1 0x0 DUP2 SWAP1 POP SWAP3 SWAP2 POP POP JUMP JUMPDEST PUSH1 0x0 PUSH2 0x620A DUP3 PUSH2 0x485F JUMP JUMPDEST PUSH2 0x6214 DUP2 DUP6 PUSH2 0x61F4 JUMP JUMPDEST SWAP4 POP PUSH2 0x6224 DUP2 DUP6 PUSH1 0x20 DUP7 ADD PUSH2 0x487B JUMP JUMPDEST DUP1 DUP5 ADD SWAP2 POP POP SWAP3 SWAP2 POP POP JUMP JUMPDEST PUSH32 0x2F00000000000000000000000000000000000000000000000000000000000000 DUP2 MSTORE POP JUMP JUMPDEST PUSH1 0x0 PUSH2 0x6262 DUP3 DUP6 PUSH2 0x61FF JUMP JUMPDEST SWAP2 POP PUSH2 0x626D DUP3 PUSH2 0x6230 JUMP JUMPDEST PUSH1 0x1 DUP3 ADD SWAP2 POP PUSH2 0x627D DUP3 DUP5 PUSH2 0x61FF JUMP JUMPDEST SWAP2 POP DUP2 SWAP1 POP SWAP4 SWAP3 POP POP POP JUMP JUMPDEST PUSH32 0x4E487B7100000000000000000000000000000000000000000000000000000000 PUSH1 0x0 MSTORE PUSH1 0x22 PUSH1 0x4 MSTORE PUSH1 0x24 PUSH1 0x0 REVERT JUMPDEST PUSH1 0x0 PUSH1 0x2 DUP3 DIV SWAP1 POP PUSH1 0x1 DUP3 AND DUP1 PUSH2 0x62D0 JUMPI PUSH1 0x7F DUP3 AND SWAP2 POP JUMPDEST PUSH1 0x20 DUP3 LT DUP2 SUB PUSH2 0x62E3 JUMPI PUSH2 0x62E2 PUSH2 0x6289 JUMP JUMPDEST JUMPDEST POP SWAP2 SWAP1 POP JUMP JUMPDEST PUSH1 0x0 DUP3 DUP3 MSTORE PUSH1 0x20 DUP3 ADD SWAP1 POP SWAP3 SWAP2 POP POP JUMP JUMPDEST PUSH1 0x0 DUP2 SWAP1 POP SWAP2 SWAP1 POP JUMP JUMPDEST PUSH1 0x0 DUP1 REVERT JUMPDEST PUSH1 0x0 DUP3 CALLDATALOAD PUSH1 0x1 PUSH2 0x160 SUB DUP4 CALLDATASIZE SUB SUB DUP2 SLT PUSH2 0x6326 JUMPI PUSH2 0x6325 PUSH2 0x6304 JUMP JUMPDEST JUMPDEST DUP3 DUP2 ADD SWAP2 POP POP SWAP3 SWAP2 POP POP JUMP JUMPDEST PUSH1 0x0 PUSH2 0x6341 PUSH1 0x20 DUP5 ADD DUP5 PUSH2 0x44D7 JUMP JUMPDEST SWAP1 POP SWAP3 SWAP2 POP POP JUMP JUMPDEST PUSH1 0x0 DUP1 REVERT JUMPDEST PUSH1 0x0 DUP1 REVERT JUMPDEST PUSH1 0x0 DUP1 DUP4 CALLDATALOAD PUSH1 0x1 PUSH1 0x20 SUB DUP5 CALLDATASIZE SUB SUB DUP2 SLT PUSH2 0x6370 JUMPI PUSH2 0x636F PUSH2 0x6304 JUMP JUMPDEST JUMPDEST DUP4 DUP2 ADD SWAP3 POP DUP3 CALLDATALOAD SWAP2 POP PUSH1 0x20 DUP4 ADD SWAP3 POP PUSH8 0xFFFFFFFFFFFFFFFF DUP3 GT ISZERO PUSH2 0x6398 JUMPI PUSH2 0x6397 PUSH2 0x6349 JUMP JUMPDEST JUMPDEST PUSH1 0xA0 DUP3 MUL CALLDATASIZE SUB DUP5 SGT ISZERO PUSH2 0x63AE JUMPI PUSH2 0x63AD PUSH2 0x634E JUMP JUMPDEST JUMPDEST POP SWAP3 POP SWAP3 SWAP1 POP JUMP JUMPDEST PUSH1 0x0 DUP3 DUP3 MSTORE PUSH1 0x20 DUP3 ADD SWAP1 POP SWAP3 SWAP2 POP POP JUMP JUMPDEST PUSH1 0x0 DUP2 SWAP1 POP SWAP2 SWAP1 POP JUMP JUMPDEST PUSH1 0x0 PUSH2 0x63E0 PUSH1 0x20 DUP5 ADD DUP5 PUSH2 0x5A4B JUMP JUMPDEST SWAP1 POP SWAP3 SWAP2 POP POP JUMP JUMPDEST PUSH1 0x0 PUSH2 0x63F7 PUSH1 0x20 DUP5 ADD DUP5 PUSH2 0x450D JUMP JUMPDEST SWAP1 POP SWAP3 SWAP2 POP POP JUMP JUMPDEST PUSH1 0xA0 DUP3 ADD PUSH2 0x6410 PUSH1 0x0 DUP4 ADD DUP4 PUSH2 0x63D1 JUMP JUMPDEST PUSH2 0x641D PUSH1 0x0 DUP6 ADD DUP3 PUSH2 0x4C68 JUMP JUMPDEST POP PUSH2 0x642B PUSH1 0x20 DUP4 ADD DUP4 PUSH2 0x6332 JUMP JUMPDEST PUSH2 0x6438 PUSH1 0x20 DUP6 ADD DUP3 PUSH2 0x4C77 JUMP JUMPDEST POP PUSH2 0x6446 PUSH1 0x40 DUP4 ADD DUP4 PUSH2 0x63E8 JUMP JUMPDEST PUSH2 0x6453 PUSH1 0x40 DUP6 ADD DUP3 PUSH2 0x4C86 JUMP JUMPDEST POP PUSH2 0x6461 PUSH1 0x60 DUP4 ADD DUP4 PUSH2 0x63E8 JUMP JUMPDEST PUSH2 0x646E PUSH1 0x60 DUP6 ADD DUP3 PUSH2 0x4C86 JUMP JUMPDEST POP PUSH2 0x647C PUSH1 0x80 DUP4 ADD DUP4 PUSH2 0x63E8 JUMP JUMPDEST PUSH2 0x6489 PUSH1 0x80 DUP6 ADD DUP3 PUSH2 0x4C86 JUMP JUMPDEST POP POP POP POP JUMP JUMPDEST PUSH1 0x0 PUSH2 0x649B DUP4 DUP4 PUSH2 0x63FF JUMP JUMPDEST PUSH1 0xA0 DUP4 ADD SWAP1 POP SWAP3 SWAP2 POP POP JUMP JUMPDEST PUSH1 0x0 DUP3 SWAP1 POP SWAP3 SWAP2 POP POP JUMP JUMPDEST PUSH1 0x0 PUSH1 0xA0 DUP3 ADD SWAP1 POP SWAP2 SWAP1 POP JUMP JUMPDEST PUSH1 0x0 PUSH2 0x64CB DUP4 DUP6 PUSH2 0x63B6 JUMP JUMPDEST SWAP4 POP PUSH2 0x64D6 DUP3 PUSH2 0x63C7 JUMP JUMPDEST DUP1 PUSH1 0x0 JUMPDEST DUP6 DUP2 LT ISZERO PUSH2 0x650F JUMPI PUSH2 0x64EC DUP3 DUP5 PUSH2 0x64A7 JUMP JUMPDEST PUSH2 0x64F6 DUP9 DUP3 PUSH2 0x648F JUMP JUMPDEST SWAP8 POP PUSH2 0x6501 DUP4 PUSH2 0x64B2 JUMP JUMPDEST SWAP3 POP POP PUSH1 0x1 DUP2 ADD SWAP1 POP PUSH2 0x64DA JUMP JUMPDEST POP DUP6 SWAP3 POP POP POP SWAP4 SWAP3 POP POP POP JUMP JUMPDEST PUSH1 0x0 DUP1 DUP4 CALLDATALOAD PUSH1 0x1 PUSH1 0x20 SUB DUP5 CALLDATASIZE SUB SUB DUP2 SLT PUSH2 0x6539 JUMPI PUSH2 0x6538 PUSH2 0x6304 JUMP JUMPDEST JUMPDEST DUP4 DUP2 ADD SWAP3 POP DUP3 CALLDATALOAD SWAP2 POP PUSH1 0x20 DUP4 ADD SWAP3 POP PUSH8 0xFFFFFFFFFFFFFFFF DUP3 GT ISZERO PUSH2 0x6561 JUMPI PUSH2 0x6560 PUSH2 0x6349 JUMP JUMPDEST JUMPDEST PUSH1 0xC0 DUP3 MUL CALLDATASIZE SUB DUP5 SGT ISZERO PUSH2 0x6577 JUMPI PUSH2 0x6576 PUSH2 0x634E JUMP JUMPDEST JUMPDEST POP SWAP3 POP SWAP3 SWAP1 POP JUMP JUMPDEST PUSH1 0x0 DUP3 DUP3 MSTORE PUSH1 0x20 DUP3 ADD SWAP1 POP SWAP3 SWAP2 POP POP JUMP JUMPDEST PUSH1 0x0 DUP2 SWAP1 POP SWAP2 SWAP1 POP JUMP JUMPDEST PUSH1 0x0 PUSH2 0x65A9 PUSH1 0x20 DUP5 ADD DUP5 PUSH2 0x5BC6 JUMP JUMPDEST SWAP1 POP SWAP3 SWAP2 POP POP JUMP JUMPDEST PUSH1 0xC0 DUP3 ADD PUSH2 0x65C2 PUSH1 0x0 DUP4 ADD DUP4 PUSH2 0x63D1 JUMP JUMPDEST PUSH2 0x65CF PUSH1 0x0 DUP6 ADD DUP3 PUSH2 0x4C68 JUMP JUMPDEST POP PUSH2 0x65DD PUSH1 0x20 DUP4 ADD DUP4 PUSH2 0x6332 JUMP JUMPDEST PUSH2 0x65EA PUSH1 0x20 DUP6 ADD DUP3 PUSH2 0x4C77 JUMP JUMPDEST POP PUSH2 0x65F8 PUSH1 0x40 DUP4 ADD DUP4 PUSH2 0x63E8 JUMP JUMPDEST PUSH2 0x6605 PUSH1 0x40 DUP6 ADD DUP3 PUSH2 0x4C86 JUMP JUMPDEST POP PUSH2 0x6613 PUSH1 0x60 DUP4 ADD DUP4 PUSH2 0x63E8 JUMP JUMPDEST PUSH2 0x6620 PUSH1 0x60 DUP6 ADD DUP3 PUSH2 0x4C86 JUMP JUMPDEST POP PUSH2 0x662E PUSH1 0x80 DUP4 ADD DUP4 PUSH2 0x63E8 JUMP JUMPDEST PUSH2 0x663B PUSH1 0x80 DUP6 ADD DUP3 PUSH2 0x4C86 JUMP JUMPDEST POP PUSH2 0x6649 PUSH1 0xA0 DUP4 ADD DUP4 PUSH2 0x659A JUMP JUMPDEST PUSH2 0x6656 PUSH1 0xA0 DUP6 ADD DUP3 PUSH2 0x4CA7 JUMP JUMPDEST POP POP POP POP JUMP JUMPDEST PUSH1 0x0 PUSH2 0x6668 DUP4 DUP4 PUSH2 0x65B1 JUMP JUMPDEST PUSH1 0xC0 DUP4 ADD SWAP1 POP SWAP3 SWAP2 POP POP JUMP JUMPDEST PUSH1 0x0 DUP3 SWAP1 POP SWAP3 SWAP2 POP POP JUMP JUMPDEST PUSH1 0x0 PUSH1 0xC0 DUP3 ADD SWAP1 POP SWAP2 SWAP1 POP JUMP JUMPDEST PUSH1 0x0 PUSH2 0x6698 DUP4 DUP6 PUSH2 0x657F JUMP JUMPDEST SWAP4 POP PUSH2 0x66A3 DUP3 PUSH2 0x6590 JUMP JUMPDEST DUP1 PUSH1 0x0 JUMPDEST DUP6 DUP2 LT ISZERO PUSH2 0x66DC JUMPI PUSH2 0x66B9 DUP3 DUP5 PUSH2 0x6674 JUMP JUMPDEST PUSH2 0x66C3 DUP9 DUP3 PUSH2 0x665C JUMP JUMPDEST SWAP8 POP PUSH2 0x66CE DUP4 PUSH2 0x667F JUMP JUMPDEST SWAP3 POP POP PUSH1 0x1 DUP2 ADD SWAP1 POP PUSH2 0x66A7 JUMP JUMPDEST POP DUP6 SWAP3 POP POP POP SWAP4 SWAP3 POP POP POP JUMP JUMPDEST PUSH1 0x0 PUSH2 0x66F8 PUSH1 0x20 DUP5 ADD DUP5 PUSH2 0x5D22 JUMP JUMPDEST SWAP1 POP SWAP3 SWAP2 POP POP JUMP JUMPDEST PUSH1 0x5 DUP2 LT PUSH2 0x6711 JUMPI PUSH2 0x6710 PUSH2 0x4C00 JUMP JUMPDEST JUMPDEST POP JUMP JUMPDEST PUSH1 0x0 DUP2 SWAP1 POP PUSH2 0x6722 DUP3 PUSH2 0x6700 JUMP JUMPDEST SWAP2 SWAP1 POP JUMP JUMPDEST PUSH1 0x0 PUSH2 0x6732 DUP3 PUSH2 0x6714 JUMP JUMPDEST SWAP1 POP SWAP2 SWAP1 POP JUMP JUMPDEST PUSH2 0x6742 DUP2 PUSH2 0x6727 JUMP JUMPDEST DUP3 MSTORE POP POP JUMP JUMPDEST PUSH1 0x0 PUSH2 0x6757 PUSH1 0x20 DUP5 ADD DUP5 PUSH2 0x4FB3 JUMP JUMPDEST SWAP1 POP SWAP3 SWAP2 POP POP JUMP JUMPDEST PUSH1 0x0 PUSH2 0x160 DUP4 ADD PUSH2 0x6773 PUSH1 0x0 DUP5 ADD DUP5 PUSH2 0x6332 JUMP JUMPDEST PUSH2 0x6780 PUSH1 0x0 DUP7 ADD DUP3 PUSH2 0x4C77 JUMP JUMPDEST POP PUSH2 0x678E PUSH1 0x20 DUP5 ADD DUP5 PUSH2 0x6332 JUMP JUMPDEST PUSH2 0x679B PUSH1 0x20 DUP7 ADD DUP3 PUSH2 0x4C77 JUMP JUMPDEST POP PUSH2 0x67A9 PUSH1 0x40 DUP5 ADD DUP5 PUSH2 0x6353 JUMP JUMPDEST DUP6 DUP4 SUB PUSH1 0x40 DUP8 ADD MSTORE PUSH2 0x67BC DUP4 DUP3 DUP5 PUSH2 0x64BF JUMP JUMPDEST SWAP3 POP POP POP PUSH2 0x67CD PUSH1 0x60 DUP5 ADD DUP5 PUSH2 0x651C JUMP JUMPDEST DUP6 DUP4 SUB PUSH1 0x60 DUP8 ADD MSTORE PUSH2 0x67E0 DUP4 DUP3 DUP5 PUSH2 0x668C JUMP JUMPDEST SWAP3 POP POP POP PUSH2 0x67F1 PUSH1 0x80 DUP5 ADD DUP5 PUSH2 0x66E9 JUMP JUMPDEST PUSH2 0x67FE PUSH1 0x80 DUP7 ADD DUP3 PUSH2 0x6739 JUMP JUMPDEST POP PUSH2 0x680C PUSH1 0xA0 DUP5 ADD DUP5 PUSH2 0x63E8 JUMP JUMPDEST PUSH2 0x6819 PUSH1 0xA0 DUP7 ADD DUP3 PUSH2 0x4C86 JUMP JUMPDEST POP PUSH2 0x6827 PUSH1 0xC0 DUP5 ADD DUP5 PUSH2 0x63E8 JUMP JUMPDEST PUSH2 0x6834 PUSH1 0xC0 DUP7 ADD DUP3 PUSH2 0x4C86 JUMP JUMPDEST POP PUSH2 0x6842 PUSH1 0xE0 DUP5 ADD DUP5 PUSH2 0x6748 JUMP JUMPDEST PUSH2 0x684F PUSH1 0xE0 DUP7 ADD DUP3 PUSH2 0x4D28 JUMP JUMPDEST POP PUSH2 0x685E PUSH2 0x100 DUP5 ADD DUP5 PUSH2 0x63E8 JUMP JUMPDEST PUSH2 0x686C PUSH2 0x100 DUP7 ADD DUP3 PUSH2 0x4C86 JUMP JUMPDEST POP PUSH2 0x687B PUSH2 0x120 DUP5 ADD DUP5 PUSH2 0x6748 JUMP JUMPDEST PUSH2 0x6889 PUSH2 0x120 DUP7 ADD DUP3 PUSH2 0x4D28 JUMP JUMPDEST POP PUSH2 0x6898 PUSH2 0x140 DUP5 ADD DUP5 PUSH2 0x63E8 JUMP JUMPDEST PUSH2 0x68A6 PUSH2 0x140 DUP7 ADD DUP3 PUSH2 0x4C86 JUMP JUMPDEST POP DUP1 SWAP2 POP POP SWAP3 SWAP2 POP POP JUMP JUMPDEST PUSH1 0x0 DUP1 DUP4 CALLDATALOAD PUSH1 0x1 PUSH1 0x20 SUB DUP5 CALLDATASIZE SUB SUB DUP2 SLT PUSH2 0x68CE JUMPI PUSH2 0x68CD PUSH2 0x6304 JUMP JUMPDEST JUMPDEST DUP4 DUP2 ADD SWAP3 POP DUP3 CALLDATALOAD SWAP2 POP PUSH1 0x20 DUP4 ADD SWAP3 POP PUSH8 0xFFFFFFFFFFFFFFFF DUP3 GT ISZERO PUSH2 0x68F6 JUMPI PUSH2 0x68F5 PUSH2 0x6349 JUMP JUMPDEST JUMPDEST PUSH1 0x1 DUP3 MUL CALLDATASIZE SUB DUP5 SGT ISZERO PUSH2 0x690C JUMPI PUSH2 0x690B PUSH2 0x634E JUMP JUMPDEST JUMPDEST POP SWAP3 POP SWAP3 SWAP1 POP JUMP JUMPDEST PUSH1 0x0 DUP3 DUP3 MSTORE PUSH1 0x20 DUP3 ADD SWAP1 POP SWAP3 SWAP2 POP POP JUMP JUMPDEST PUSH1 0x0 PUSH2 0x6931 DUP4 DUP6 PUSH2 0x6914 JUMP JUMPDEST SWAP4 POP PUSH2 0x693E DUP4 DUP6 DUP5 PUSH2 0x4653 JUMP JUMPDEST PUSH2 0x6947 DUP4 PUSH2 0x4596 JUMP JUMPDEST DUP5 ADD SWAP1 POP SWAP4 SWAP3 POP POP POP JUMP JUMPDEST PUSH1 0x0 PUSH1 0x40 DUP4 ADD PUSH2 0x6965 PUSH1 0x0 DUP5 ADD DUP5 PUSH2 0x6309 JUMP JUMPDEST DUP5 DUP3 SUB PUSH1 0x0 DUP7 ADD MSTORE PUSH2 0x6977 DUP3 DUP3 PUSH2 0x675F JUMP JUMPDEST SWAP2 POP POP PUSH2 0x6987 PUSH1 0x20 DUP5 ADD DUP5 PUSH2 0x68B1 JUMP JUMPDEST DUP6 DUP4 SUB PUSH1 0x20 DUP8 ADD MSTORE PUSH2 0x699A DUP4 DUP3 DUP5 PUSH2 0x6925 JUMP JUMPDEST SWAP3 POP POP POP DUP1 SWAP2 POP POP SWAP3 SWAP2 POP POP JUMP JUMPDEST PUSH1 0x0 PUSH2 0x69B4 DUP4 DUP4 PUSH2 0x6952 JUMP JUMPDEST SWAP1 POP SWAP3 SWAP2 POP POP JUMP JUMPDEST PUSH1 0x0 DUP3 CALLDATALOAD PUSH1 0x1 PUSH1 0x40 SUB DUP4 CALLDATASIZE SUB SUB DUP2 SLT PUSH2 0x69D8 JUMPI PUSH2 0x69D7 PUSH2 0x6304 JUMP JUMPDEST JUMPDEST DUP3 DUP2 ADD SWAP2 POP POP SWAP3 SWAP2 POP POP JUMP JUMPDEST PUSH1 0x0 PUSH1 0x20 DUP3 ADD SWAP1 POP SWAP2 SWAP1 POP JUMP JUMPDEST PUSH1 0x0 PUSH2 0x69FD DUP4 DUP6 PUSH2 0x62E9 JUMP JUMPDEST SWAP4 POP DUP4 PUSH1 0x20 DUP5 MUL DUP6 ADD PUSH2 0x6A0F DUP5 PUSH2 0x62FA JUMP JUMPDEST DUP1 PUSH1 0x0 JUMPDEST DUP8 DUP2 LT ISZERO PUSH2 0x6A53 JUMPI DUP5 DUP5 SUB DUP10 MSTORE PUSH2 0x6A2A DUP3 DUP5 PUSH2 0x69BC JUMP JUMPDEST PUSH2 0x6A34 DUP6 DUP3 PUSH2 0x69A8 JUMP JUMPDEST SWAP5 POP PUSH2 0x6A3F DUP4 PUSH2 0x69E4 JUMP JUMPDEST SWAP3 POP PUSH1 0x20 DUP11 ADD SWAP10 POP POP PUSH1 0x1 DUP2 ADD SWAP1 POP PUSH2 0x6A13 JUMP JUMPDEST POP DUP3 SWAP8 POP DUP8 SWAP5 POP POP POP POP POP SWAP4 SWAP3 POP POP POP JUMP JUMPDEST PUSH1 0x0 DUP3 DUP3 MSTORE PUSH1 0x20 DUP3 ADD SWAP1 POP SWAP3 SWAP2 POP POP JUMP JUMPDEST PUSH1 0x0 DUP2 SWAP1 POP SWAP2 SWAP1 POP JUMP JUMPDEST PUSH1 0x0 DUP1 DUP4 CALLDATALOAD PUSH1 0x1 PUSH1 0x20 SUB DUP5 CALLDATASIZE SUB SUB DUP2 SLT PUSH2 0x6A9D JUMPI PUSH2 0x6A9C PUSH2 0x6304 JUMP JUMPDEST JUMPDEST DUP4 DUP2 ADD SWAP3 POP DUP3 CALLDATALOAD SWAP2 POP PUSH1 0x20 DUP4 ADD SWAP3 POP PUSH8 0xFFFFFFFFFFFFFFFF DUP3 GT ISZERO PUSH2 0x6AC5 JUMPI PUSH2 0x6AC4 PUSH2 0x6349 JUMP JUMPDEST JUMPDEST PUSH1 0x40 DUP3 MUL CALLDATASIZE SUB DUP5 SGT ISZERO PUSH2 0x6ADB JUMPI PUSH2 0x6ADA PUSH2 0x634E JUMP JUMPDEST JUMPDEST POP SWAP3 POP SWAP3 SWAP1 POP JUMP JUMPDEST PUSH1 0x0 DUP3 DUP3 MSTORE PUSH1 0x20 DUP3 ADD SWAP1 POP SWAP3 SWAP2 POP POP JUMP JUMPDEST PUSH1 0x0 DUP2 SWAP1 POP SWAP2 SWAP1 POP JUMP JUMPDEST PUSH1 0x40 DUP3 ADD PUSH2 0x6B0F PUSH1 0x0 DUP4 ADD DUP4 PUSH2 0x63E8 JUMP JUMPDEST PUSH2 0x6B1C PUSH1 0x0 DUP6 ADD DUP3 PUSH2 0x4C86 JUMP JUMPDEST POP PUSH2 0x6B2A PUSH1 0x20 DUP4 ADD DUP4 PUSH2 0x63E8 JUMP JUMPDEST PUSH2 0x6B37 PUSH1 0x20 DUP6 ADD DUP3 PUSH2 0x4C86 JUMP JUMPDEST POP POP POP POP JUMP JUMPDEST PUSH1 0x0 PUSH2 0x6B49 DUP4 DUP4 PUSH2 0x6AFE JUMP JUMPDEST PUSH1 0x40 DUP4 ADD SWAP1 POP SWAP3 SWAP2 POP POP JUMP JUMPDEST PUSH1 0x0 DUP3 SWAP1 POP SWAP3 SWAP2 POP POP JUMP JUMPDEST PUSH1 0x0 PUSH1 0x40 DUP3 ADD SWAP1 POP SWAP2 SWAP1 POP JUMP JUMPDEST PUSH1 0x0 PUSH2 0x6B79 DUP4 DUP6 PUSH2 0x6AE3 JUMP JUMPDEST SWAP4 POP PUSH2 0x6B84 DUP3 PUSH2 0x6AF4 JUMP JUMPDEST DUP1 PUSH1 0x0 JUMPDEST DUP6 DUP2 LT ISZERO PUSH2 0x6BBD JUMPI PUSH2 0x6B9A DUP3 DUP5 PUSH2 0x6B55 JUMP JUMPDEST PUSH2 0x6BA4 DUP9 DUP3 PUSH2 0x6B3D JUMP JUMPDEST SWAP8 POP PUSH2 0x6BAF DUP4 PUSH2 0x6B60 JUMP JUMPDEST SWAP3 POP POP PUSH1 0x1 DUP2 ADD SWAP1 POP PUSH2 0x6B88 JUMP JUMPDEST POP DUP6 SWAP3 POP POP POP SWAP4 SWAP3 POP POP POP JUMP JUMPDEST PUSH1 0x0 PUSH1 0x40 DUP4 ADD PUSH2 0x6BDD PUSH1 0x0 DUP5 ADD DUP5 PUSH2 0x6A80 JUMP JUMPDEST DUP6 DUP4 SUB PUSH1 0x0 DUP8 ADD MSTORE PUSH2 0x6BF0 DUP4 DUP3 DUP5 PUSH2 0x6B6D JUMP JUMPDEST SWAP3 POP POP POP PUSH2 0x6C01 PUSH1 0x20 DUP5 ADD DUP5 PUSH2 0x6A80 JUMP JUMPDEST DUP6 DUP4 SUB PUSH1 0x20 DUP8 ADD MSTORE PUSH2 0x6C14 DUP4 DUP3 DUP5 PUSH2 0x6B6D JUMP JUMPDEST SWAP3 POP POP POP DUP1 SWAP2 POP POP SWAP3 SWAP2 POP POP JUMP JUMPDEST PUSH1 0x0 PUSH2 0x6C2E DUP4 DUP4 PUSH2 0x6BCA JUMP JUMPDEST SWAP1 POP SWAP3 SWAP2 POP POP JUMP JUMPDEST PUSH1 0x0 DUP3 CALLDATALOAD PUSH1 0x1 PUSH1 0x40 SUB DUP4 CALLDATASIZE SUB SUB DUP2 SLT PUSH2 0x6C52 JUMPI PUSH2 0x6C51 PUSH2 0x6304 JUMP JUMPDEST JUMPDEST DUP3 DUP2 ADD SWAP2 POP POP SWAP3 SWAP2 POP POP JUMP JUMPDEST PUSH1 0x0 PUSH1 0x20 DUP3 ADD SWAP1 POP SWAP2 SWAP1 POP JUMP JUMPDEST PUSH1 0x0 PUSH2 0x6C77 DUP4 DUP6 PUSH2 0x6A65 JUMP JUMPDEST SWAP4 POP DUP4 PUSH1 0x20 DUP5 MUL DUP6 ADD PUSH2 0x6C89 DUP5 PUSH2 0x6A76 JUMP JUMPDEST DUP1 PUSH1 0x0 JUMPDEST DUP8 DUP2 LT ISZERO PUSH2 0x6CCD JUMPI DUP5 DUP5 SUB DUP10 MSTORE PUSH2 0x6CA4 DUP3 DUP5 PUSH2 0x6C36 JUMP JUMPDEST PUSH2 0x6CAE DUP6 DUP3 PUSH2 0x6C22 JUMP JUMPDEST SWAP5 POP PUSH2 0x6CB9 DUP4 PUSH2 0x6C5E JUMP JUMPDEST SWAP3 POP PUSH1 0x20 DUP11 ADD SWAP10 POP POP PUSH1 0x1 DUP2 ADD SWAP1 POP PUSH2 0x6C8D JUMP JUMPDEST POP DUP3 SWAP8 POP DUP8 SWAP5 POP POP POP POP POP SWAP4 SWAP3 POP POP POP JUMP JUMPDEST PUSH1 0x0 PUSH1 0x40 DUP3 ADD SWAP1 POP DUP2 DUP2 SUB PUSH1 0x0 DUP4 ADD MSTORE PUSH2 0x6CFA DUP2 DUP7 DUP9 PUSH2 0x69F1 JUMP JUMPDEST SWAP1 POP DUP2 DUP2 SUB PUSH1 0x20 DUP4 ADD MSTORE PUSH2 0x6D0F DUP2 DUP5 DUP7 PUSH2 0x6C6B JUMP JUMPDEST SWAP1 POP SWAP6 SWAP5 POP POP POP POP POP JUMP JUMPDEST PUSH1 0x0 PUSH8 0xFFFFFFFFFFFFFFFF DUP3 GT ISZERO PUSH2 0x6D35 JUMPI PUSH2 0x6D34 PUSH2 0x45A7 JUMP JUMPDEST JUMPDEST PUSH1 0x20 DUP3 MUL SWAP1 POP PUSH1 0x20 DUP2 ADD SWAP1 POP SWAP2 SWAP1 POP JUMP JUMPDEST PUSH1 0x0 DUP2 MLOAD SWAP1 POP PUSH2 0x6D55 DUP2 PUSH2 0x5A3B JUMP JUMPDEST SWAP3 SWAP2 POP POP JUMP JUMPDEST PUSH1 0x0 DUP2 MLOAD SWAP1 POP PUSH2 0x6D6A DUP2 PUSH2 0x44C0 JUMP JUMPDEST SWAP3 SWAP2 POP POP JUMP JUMPDEST PUSH1 0x0 DUP2 MLOAD SWAP1 POP PUSH2 0x6D7F DUP2 PUSH2 0x44F6 JUMP JUMPDEST SWAP3 SWAP2 POP POP JUMP JUMPDEST PUSH1 0x0 DUP2 MLOAD SWAP1 POP PUSH2 0x6D94 DUP2 PUSH2 0x5BAF JUMP JUMPDEST SWAP3 SWAP2 POP POP JUMP JUMPDEST PUSH1 0x0 PUSH1 0xA0 DUP3 DUP5 SUB SLT ISZERO PUSH2 0x6DB0 JUMPI PUSH2 0x6DAF PUSH2 0x5A05 JUMP JUMPDEST JUMPDEST PUSH2 0x6DBA PUSH1 0xA0 PUSH2 0x4607 JUMP JUMPDEST SWAP1 POP PUSH1 0x0 PUSH2 0x6DCA DUP5 DUP3 DUP6 ADD PUSH2 0x6D46 JUMP JUMPDEST PUSH1 0x0 DUP4 ADD MSTORE POP PUSH1 0x20 PUSH2 0x6DDE DUP5 DUP3 DUP6 ADD PUSH2 0x6D5B JUMP JUMPDEST PUSH1 0x20 DUP4 ADD MSTORE POP PUSH1 0x40 PUSH2 0x6DF2 DUP5 DUP3 DUP6 ADD PUSH2 0x6D70 JUMP JUMPDEST PUSH1 0x40 DUP4 ADD MSTORE POP PUSH1 0x60 PUSH2 0x6E06 DUP5 DUP3 DUP6 ADD PUSH2 0x6D70 JUMP JUMPDEST PUSH1 0x60 DUP4 ADD MSTORE POP PUSH1 0x80 PUSH2 0x6E1A DUP5 DUP3 DUP6 ADD PUSH2 0x6D85 JUMP JUMPDEST PUSH1 0x80 DUP4 ADD MSTORE POP SWAP3 SWAP2 POP POP JUMP JUMPDEST PUSH1 0x0 DUP2 MLOAD SWAP1 POP PUSH2 0x6E35 DUP2 PUSH2 0x4F9C JUMP JUMPDEST SWAP3 SWAP2 POP POP JUMP JUMPDEST PUSH1 0x0 PUSH1 0xE0 DUP3 DUP5 SUB SLT ISZERO PUSH2 0x6E51 JUMPI PUSH2 0x6E50 PUSH2 0x5A05 JUMP JUMPDEST JUMPDEST PUSH2 0x6E5B PUSH1 0x60 PUSH2 0x4607 JUMP JUMPDEST SWAP1 POP PUSH1 0x0 PUSH2 0x6E6B DUP5 DUP3 DUP6 ADD PUSH2 0x6D9A JUMP JUMPDEST PUSH1 0x0 DUP4 ADD MSTORE POP PUSH1 0xA0 PUSH2 0x6E7F DUP5 DUP3 DUP6 ADD PUSH2 0x6D5B JUMP JUMPDEST PUSH1 0x20 DUP4 ADD MSTORE POP PUSH1 0xC0 PUSH2 0x6E93 DUP5 DUP3 DUP6 ADD PUSH2 0x6E26 JUMP JUMPDEST PUSH1 0x40 DUP4 ADD MSTORE POP SWAP3 SWAP2 POP POP JUMP JUMPDEST PUSH1 0x0 PUSH2 0x6EB2 PUSH2 0x6EAD DUP5 PUSH2 0x6D1A JUMP JUMPDEST PUSH2 0x4607 JUMP JUMPDEST SWAP1 POP DUP1 DUP4 DUP3 MSTORE PUSH1 0x20 DUP3 ADD SWAP1 POP PUSH1 0xE0 DUP5 MUL DUP4 ADD DUP6 DUP2 GT ISZERO PUSH2 0x6ED5 JUMPI PUSH2 0x6ED4 PUSH2 0x4AA2 JUMP JUMPDEST JUMPDEST DUP4 JUMPDEST DUP2 DUP2 LT ISZERO PUSH2 0x6EFE JUMPI DUP1 PUSH2 0x6EEA DUP9 DUP3 PUSH2 0x6E3B JUMP JUMPDEST DUP5 MSTORE PUSH1 0x20 DUP5 ADD SWAP4 POP POP PUSH1 0xE0 DUP2 ADD SWAP1 POP PUSH2 0x6ED7 JUMP JUMPDEST POP POP POP SWAP4 SWAP3 POP POP POP JUMP JUMPDEST PUSH1 0x0 DUP3 PUSH1 0x1F DUP4 ADD SLT PUSH2 0x6F1D JUMPI PUSH2 0x6F1C PUSH2 0x458C JUMP JUMPDEST JUMPDEST DUP2 MLOAD PUSH2 0x6F2D DUP5 DUP3 PUSH1 0x20 DUP7 ADD PUSH2 0x6E9F JUMP JUMPDEST SWAP2 POP POP SWAP3 SWAP2 POP POP JUMP JUMPDEST PUSH1 0x0 PUSH1 0x20 DUP3 DUP5 SUB SLT ISZERO PUSH2 0x6F4C JUMPI PUSH2 0x6F4B PUSH2 0x4484 JUMP JUMPDEST JUMPDEST PUSH1 0x0 DUP3 ADD MLOAD PUSH8 0xFFFFFFFFFFFFFFFF DUP2 GT ISZERO PUSH2 0x6F6A JUMPI PUSH2 0x6F69 PUSH2 0x4489 JUMP JUMPDEST JUMPDEST PUSH2 0x6F76 DUP5 DUP3 DUP6 ADD PUSH2 0x6F08 JUMP JUMPDEST SWAP2 POP POP SWAP3 SWAP2 POP POP JUMP JUMPDEST PUSH32 0x4E487B7100000000000000000000000000000000000000000000000000000000 PUSH1 0x0 MSTORE PUSH1 0x32 PUSH1 0x4 MSTORE PUSH1 0x24 PUSH1 0x0 REVERT JUMPDEST PUSH32 0x4E487B7100000000000000000000000000000000000000000000000000000000 PUSH1 0x0 MSTORE PUSH1 0x11 PUSH1 0x4 MSTORE PUSH1 0x24 PUSH1 0x0 REVERT JUMPDEST PUSH1 0x0 PUSH2 0x6FE8 DUP3 PUSH2 0x44EC JUMP JUMPDEST SWAP2 POP PUSH32 0xFFFFFFFFFFFFFFFFFFFFFFFFFFFFFFFFFFFFFFFFFFFFFFFFFFFFFFFFFFFFFFFF DUP3 SUB PUSH2 0x701A JUMPI PUSH2 0x7019 PUSH2 0x6FAE JUMP JUMPDEST JUMPDEST PUSH1 0x1 DUP3 ADD SWAP1 POP SWAP2 SWAP1 POP JUMP JUMPDEST PUSH32 0x455243313135353A2063616C6C6572206973206E6F7420746F6B656E206F776E PUSH1 0x0 DUP3 ADD MSTORE PUSH32 0x6572206F7220617070726F766564000000000000000000000000000000000000 PUSH1 0x20 DUP3 ADD MSTORE POP JUMP JUMPDEST PUSH1 0x0 PUSH2 0x7081 PUSH1 0x2E DUP4 PUSH2 0x486A JUMP JUMPDEST SWAP2 POP PUSH2 0x708C DUP3 PUSH2 0x7025 JUMP JUMPDEST PUSH1 0x40 DUP3 ADD SWAP1 POP SWAP2 SWAP1 POP JUMP JUMPDEST PUSH1 0x0 PUSH1 0x20 DUP3 ADD SWAP1 POP DUP2 DUP2 SUB PUSH1 0x0 DUP4 ADD MSTORE PUSH2 0x70B0 DUP2 PUSH2 0x7074 JUMP JUMPDEST SWAP1 POP SWAP2 SWAP1 POP JUMP JUMPDEST PUSH32 0x416363657373436F6E74726F6C3A2063616E206F6E6C792072656E6F756E6365 PUSH1 0x0 DUP3 ADD MSTORE PUSH32 0x20726F6C657320666F722073656C660000000000000000000000000000000000 PUSH1 0x20 DUP3 ADD MSTORE POP JUMP JUMPDEST PUSH1 0x0 PUSH2 0x7113 PUSH1 0x2F DUP4 PUSH2 0x486A JUMP JUMPDEST SWAP2 POP PUSH2 0x711E DUP3 PUSH2 0x70B7 JUMP JUMPDEST PUSH1 0x40 DUP3 ADD SWAP1 POP SWAP2 SWAP1 POP JUMP JUMPDEST PUSH1 0x0 PUSH1 0x20 DUP3 ADD SWAP1 POP DUP2 DUP2 SUB PUSH1 0x0 DUP4 ADD MSTORE PUSH2 0x7142 DUP2 PUSH2 0x7106 JUMP JUMPDEST SWAP1 POP SWAP2 SWAP1 POP JUMP JUMPDEST PUSH1 0x0 DUP3 DUP3 MSTORE PUSH1 0x20 DUP3 ADD SWAP1 POP SWAP3 SWAP2 POP POP JUMP JUMPDEST PUSH1 0x0 DUP2 SWAP1 POP SWAP2 SWAP1 POP JUMP JUMPDEST PUSH1 0x0 PUSH2 0x7171 DUP5 DUP5 DUP5 PUSH2 0x6B6D JUMP JUMPDEST SWAP1 POP SWAP4 SWAP3 POP POP POP JUMP JUMPDEST PUSH1 0x0 PUSH1 0x20 DUP3 ADD SWAP1 POP SWAP2 SWAP1 POP JUMP JUMPDEST PUSH1 0x0 PUSH2 0x7193 DUP4 DUP6 PUSH2 0x7149 JUMP JUMPDEST SWAP4 POP DUP4 PUSH1 0x20 DUP5 MUL DUP6 ADD PUSH2 0x71A5 DUP5 PUSH2 0x715A JUMP JUMPDEST DUP1 PUSH1 0x0 JUMPDEST DUP8 DUP2 LT ISZERO PUSH2 0x71EB JUMPI DUP5 DUP5 SUB DUP10 MSTORE PUSH2 0x71C0 DUP3 DUP5 PUSH2 0x6A80 JUMP JUMPDEST PUSH2 0x71CB DUP7 DUP3 DUP5 PUSH2 0x7164 JUMP JUMPDEST SWAP6 POP PUSH2 0x71D6 DUP5 PUSH2 0x717A JUMP JUMPDEST SWAP4 POP PUSH1 0x20 DUP12 ADD SWAP11 POP POP POP PUSH1 0x1 DUP2 ADD SWAP1 POP PUSH2 0x71A9 JUMP JUMPDEST POP DUP3 SWAP8 POP DUP8 SWAP5 POP POP POP POP POP SWAP4 SWAP3 POP POP POP JUMP JUMPDEST PUSH1 0x0 PUSH1 0xA0 DUP3 ADD SWAP1 POP DUP2 DUP2 SUB PUSH1 0x0 DUP4 ADD MSTORE PUSH2 0x7218 DUP2 DUP11 DUP13 PUSH2 0x69F1 JUMP JUMPDEST SWAP1 POP DUP2 DUP2 SUB PUSH1 0x20 DUP4 ADD MSTORE PUSH2 0x722D DUP2 DUP9 DUP11 PUSH2 0x7187 JUMP JUMPDEST SWAP1 POP DUP2 DUP2 SUB PUSH1 0x40 DUP4 ADD MSTORE PUSH2 0x7242 DUP2 DUP7 DUP9 PUSH2 0x7187 JUMP JUMPDEST SWAP1 POP PUSH2 0x7251 PUSH1 0x60 DUP4 ADD DUP6 PUSH2 0x4FF5 JUMP JUMPDEST PUSH2 0x725E PUSH1 0x80 DUP4 ADD DUP5 PUSH2 0x4562 JUMP JUMPDEST SWAP10 SWAP9 POP POP POP POP POP POP POP POP POP JUMP JUMPDEST PUSH1 0x0 PUSH8 0xFFFFFFFFFFFFFFFF DUP3 GT ISZERO PUSH2 0x7286 JUMPI PUSH2 0x7285 PUSH2 0x45A7 JUMP JUMPDEST JUMPDEST PUSH1 0x20 DUP3 MUL SWAP1 POP PUSH1 0x20 DUP2 ADD SWAP1 POP SWAP2 SWAP1 POP JUMP JUMPDEST PUSH1 0x0 DUP2 MLOAD SWAP1 POP PUSH2 0x72A6 DUP2 PUSH2 0x5999 JUMP JUMPDEST SWAP3 SWAP2 POP POP JUMP JUMPDEST PUSH1 0x0 PUSH2 0x72BF PUSH2 0x72BA DUP5 PUSH2 0x726B JUMP JUMPDEST PUSH2 0x4607 JUMP JUMPDEST SWAP1 POP DUP1 DUP4 DUP3 MSTORE PUSH1 0x20 DUP3 ADD SWAP1 POP PUSH1 0x20 DUP5 MUL DUP4 ADD DUP6 DUP2 GT ISZERO PUSH2 0x72E2 JUMPI PUSH2 0x72E1 PUSH2 0x4AA2 JUMP JUMPDEST JUMPDEST DUP4 JUMPDEST DUP2 DUP2 LT ISZERO PUSH2 0x730B JUMPI DUP1 PUSH2 0x72F7 DUP9 DUP3 PUSH2 0x7297 JUMP JUMPDEST DUP5 MSTORE PUSH1 0x20 DUP5 ADD SWAP4 POP POP PUSH1 0x20 DUP2 ADD SWAP1 POP PUSH2 0x72E4 JUMP JUMPDEST POP POP POP SWAP4 SWAP3 POP POP POP JUMP JUMPDEST PUSH1 0x0 DUP3 PUSH1 0x1F DUP4 ADD SLT PUSH2 0x732A JUMPI PUSH2 0x7329 PUSH2 0x458C JUMP JUMPDEST JUMPDEST DUP2 MLOAD PUSH2 0x733A DUP5 DUP3 PUSH1 0x20 DUP7 ADD PUSH2 0x72AC JUMP JUMPDEST SWAP2 POP POP SWAP3 SWAP2 POP POP JUMP JUMPDEST PUSH1 0x0 DUP1 PUSH1 0x40 DUP4 DUP6 SUB SLT ISZERO PUSH2 0x735A JUMPI PUSH2 0x7359 PUSH2 0x4484 JUMP JUMPDEST JUMPDEST PUSH1 0x0 DUP4 ADD MLOAD PUSH8 0xFFFFFFFFFFFFFFFF DUP2 GT ISZERO PUSH2 0x7378 JUMPI PUSH2 0x7377 PUSH2 0x4489 JUMP JUMPDEST JUMPDEST PUSH2 0x7384 DUP6 DUP3 DUP7 ADD PUSH2 0x7315 JUMP JUMPDEST SWAP3 POP POP PUSH1 0x20 DUP4 ADD MLOAD PUSH8 0xFFFFFFFFFFFFFFFF DUP2 GT ISZERO PUSH2 0x73A5 JUMPI PUSH2 0x73A4 PUSH2 0x4489 JUMP JUMPDEST JUMPDEST PUSH2 0x73B1 DUP6 DUP3 DUP7 ADD PUSH2 0x6F08 JUMP JUMPDEST SWAP2 POP POP SWAP3 POP SWAP3 SWAP1 POP JUMP JUMPDEST PUSH1 0x0 DUP3 DUP3 MSTORE PUSH1 0x20 DUP3 ADD SWAP1 POP SWAP3 SWAP2 POP POP JUMP JUMPDEST PUSH1 0x0 DUP2 SWAP1 POP SWAP2 SWAP1 POP JUMP JUMPDEST PUSH1 0x0 PUSH15 0xFFFFFFFFFFFFFFFFFFFFFFFFFFFFFF DUP3 AND SWAP1 POP SWAP2 SWAP1 POP JUMP JUMPDEST PUSH2 0x73FA DUP2 PUSH2 0x73D6 JUMP JUMPDEST DUP2 EQ PUSH2 0x7405 JUMPI PUSH1 0x0 DUP1 REVERT JUMPDEST POP JUMP JUMPDEST PUSH1 0x0 DUP2 CALLDATALOAD SWAP1 POP PUSH2 0x7417 DUP2 PUSH2 0x73F1 JUMP JUMPDEST SWAP3 SWAP2 POP POP JUMP JUMPDEST PUSH1 0x0 PUSH2 0x742C PUSH1 0x20 DUP5 ADD DUP5 PUSH2 0x7408 JUMP JUMPDEST SWAP1 POP SWAP3 SWAP2 POP POP JUMP JUMPDEST PUSH2 0x743D DUP2 PUSH2 0x73D6 JUMP JUMPDEST DUP3 MSTORE POP POP JUMP JUMPDEST PUSH1 0x0 PUSH1 0xA0 DUP4 ADD PUSH2 0x7456 PUSH1 0x0 DUP5 ADD DUP5 PUSH2 0x6309 JUMP JUMPDEST DUP5 DUP3 SUB PUSH1 0x0 DUP7 ADD MSTORE PUSH2 0x7468 DUP3 DUP3 PUSH2 0x675F JUMP JUMPDEST SWAP2 POP POP PUSH2 0x7478 PUSH1 0x20 DUP5 ADD DUP5 PUSH2 0x741D JUMP JUMPDEST PUSH2 0x7485 PUSH1 0x20 DUP7 ADD DUP3 PUSH2 0x7434 JUMP JUMPDEST POP PUSH2 0x7493 PUSH1 0x40 DUP5 ADD DUP5 PUSH2 0x741D JUMP JUMPDEST PUSH2 0x74A0 PUSH1 0x40 DUP7 ADD DUP3 PUSH2 0x7434 JUMP JUMPDEST POP PUSH2 0x74AE PUSH1 0x60 DUP5 ADD DUP5 PUSH2 0x68B1 JUMP JUMPDEST DUP6 DUP4 SUB PUSH1 0x60 DUP8 ADD MSTORE PUSH2 0x74C1 DUP4 DUP3 DUP5 PUSH2 0x6925 JUMP JUMPDEST SWAP3 POP POP POP PUSH2 0x74D2 PUSH1 0x80 DUP5 ADD DUP5 PUSH2 0x68B1 JUMP JUMPDEST DUP6 DUP4 SUB PUSH1 0x80 DUP8 ADD MSTORE PUSH2 0x74E5 DUP4 DUP3 DUP5 PUSH2 0x6925 JUMP JUMPDEST SWAP3 POP POP POP DUP1 SWAP2 POP POP SWAP3 SWAP2 POP POP JUMP JUMPDEST PUSH1 0x0 PUSH2 0x74FF DUP4 DUP4 PUSH2 0x7443 JUMP JUMPDEST SWAP1 POP SWAP3 SWAP2 POP POP JUMP JUMPDEST PUSH1 0x0 DUP3 CALLDATALOAD PUSH1 0x1 PUSH1 0xA0 SUB DUP4 CALLDATASIZE SUB SUB DUP2 SLT PUSH2 0x7523 JUMPI PUSH2 0x7522 PUSH2 0x6304 JUMP JUMPDEST JUMPDEST DUP3 DUP2 ADD SWAP2 POP POP SWAP3 SWAP2 POP POP JUMP JUMPDEST PUSH1 0x0 PUSH1 0x20 DUP3 ADD SWAP1 POP SWAP2 SWAP1 POP JUMP JUMPDEST PUSH1 0x0 PUSH2 0x7548 DUP4 DUP6 PUSH2 0x73BB JUMP JUMPDEST SWAP4 POP DUP4 PUSH1 0x20 DUP5 MUL DUP6 ADD PUSH2 0x755A DUP5 PUSH2 0x73CC JUMP JUMPDEST DUP1 PUSH1 0x0 JUMPDEST DUP8 DUP2 LT ISZERO PUSH2 0x759E JUMPI DUP5 DUP5 SUB DUP10 MSTORE PUSH2 0x7575 DUP3 DUP5 PUSH2 0x7507 JUMP JUMPDEST PUSH2 0x757F DUP6 DUP3 PUSH2 0x74F3 JUMP JUMPDEST SWAP5 POP PUSH2 0x758A DUP4 PUSH2 0x752F JUMP JUMPDEST SWAP3 POP PUSH1 0x20 DUP11 ADD SWAP10 POP POP PUSH1 0x1 DUP2 ADD SWAP1 POP PUSH2 0x755E JUMP JUMPDEST POP DUP3 SWAP8 POP DUP8 SWAP5 POP POP POP POP POP SWAP4 SWAP3 POP POP POP JUMP JUMPDEST PUSH1 0x0 DUP3 DUP3 MSTORE PUSH1 0x20 DUP3 ADD SWAP1 POP SWAP3 SWAP2 POP POP JUMP JUMPDEST PUSH1 0x0 DUP2 SWAP1 POP SWAP2 SWAP1 POP JUMP JUMPDEST PUSH1 0x2 DUP2 LT PUSH2 0x75D8 JUMPI PUSH1 0x0 DUP1 REVERT JUMPDEST POP JUMP JUMPDEST PUSH1 0x0 DUP2 CALLDATALOAD SWAP1 POP PUSH2 0x75EA DUP2 PUSH2 0x75CB JUMP JUMPDEST SWAP3 SWAP2 POP POP JUMP JUMPDEST PUSH1 0x0 PUSH2 0x75FF PUSH1 0x20 DUP5 ADD DUP5 PUSH2 0x75DB JUMP JUMPDEST SWAP1 POP SWAP3 SWAP2 POP POP JUMP JUMPDEST PUSH1 0x2 DUP2 LT PUSH2 0x7618 JUMPI PUSH2 0x7617 PUSH2 0x4C00 JUMP JUMPDEST JUMPDEST POP JUMP JUMPDEST PUSH1 0x0 DUP2 SWAP1 POP PUSH2 0x7629 DUP3 PUSH2 0x7607 JUMP JUMPDEST SWAP2 SWAP1 POP JUMP JUMPDEST PUSH1 0x0 PUSH2 0x7639 DUP3 PUSH2 0x761B JUMP JUMPDEST SWAP1 POP SWAP2 SWAP1 POP JUMP JUMPDEST PUSH2 0x7649 DUP2 PUSH2 0x762E JUMP JUMPDEST DUP3 MSTORE POP POP JUMP JUMPDEST PUSH1 0x0 DUP1 DUP4 CALLDATALOAD PUSH1 0x1 PUSH1 0x20 SUB DUP5 CALLDATASIZE SUB SUB DUP2 SLT PUSH2 0x766C JUMPI PUSH2 0x766B PUSH2 0x6304 JUMP JUMPDEST JUMPDEST DUP4 DUP2 ADD SWAP3 POP DUP3 CALLDATALOAD SWAP2 POP PUSH1 0x20 DUP4 ADD SWAP3 POP PUSH8 0xFFFFFFFFFFFFFFFF DUP3 GT ISZERO PUSH2 0x7694 JUMPI PUSH2 0x7693 PUSH2 0x6349 JUMP JUMPDEST JUMPDEST PUSH1 0x20 DUP3 MUL CALLDATASIZE SUB DUP5 SGT ISZERO PUSH2 0x76AA JUMPI PUSH2 0x76A9 PUSH2 0x634E JUMP JUMPDEST JUMPDEST POP SWAP3 POP SWAP3 SWAP1 POP JUMP JUMPDEST PUSH1 0x0 DUP3 DUP3 MSTORE PUSH1 0x20 DUP3 ADD SWAP1 POP SWAP3 SWAP2 POP POP JUMP JUMPDEST PUSH1 0x0 DUP1 REVERT JUMPDEST PUSH1 0x0 PUSH2 0x76D4 DUP4 DUP6 PUSH2 0x76B2 JUMP JUMPDEST SWAP4 POP PUSH32 0x7FFFFFFFFFFFFFFFFFFFFFFFFFFFFFFFFFFFFFFFFFFFFFFFFFFFFFFFFFFFFFF DUP4 GT ISZERO PUSH2 0x7707 JUMPI PUSH2 0x7706 PUSH2 0x76C3 JUMP JUMPDEST JUMPDEST PUSH1 0x20 DUP4 MUL SWAP3 POP PUSH2 0x7718 DUP4 DUP6 DUP5 PUSH2 0x4653 JUMP JUMPDEST DUP3 DUP5 ADD SWAP1 POP SWAP4 SWAP3 POP POP POP JUMP JUMPDEST PUSH1 0x0 PUSH1 0xA0 DUP4 ADD PUSH2 0x7737 PUSH1 0x0 DUP5 ADD DUP5 PUSH2 0x63E8 JUMP JUMPDEST PUSH2 0x7744 PUSH1 0x0 DUP7 ADD DUP3 PUSH2 0x4C86 JUMP JUMPDEST POP PUSH2 0x7752 PUSH1 0x20 DUP5 ADD DUP5 PUSH2 0x75F0 JUMP JUMPDEST PUSH2 0x775F PUSH1 0x20 DUP7 ADD DUP3 PUSH2 0x7640 JUMP JUMPDEST POP PUSH2 0x776D PUSH1 0x40 DUP5 ADD DUP5 PUSH2 0x63E8 JUMP JUMPDEST PUSH2 0x777A PUSH1 0x40 DUP7 ADD DUP3 PUSH2 0x4C86 JUMP JUMPDEST POP PUSH2 0x7788 PUSH1 0x60 DUP5 ADD DUP5 PUSH2 0x63E8 JUMP JUMPDEST PUSH2 0x7795 PUSH1 0x60 DUP7 ADD DUP3 PUSH2 0x4C86 JUMP JUMPDEST POP PUSH2 0x77A3 PUSH1 0x80 DUP5 ADD DUP5 PUSH2 0x764F JUMP JUMPDEST DUP6 DUP4 SUB PUSH1 0x80 DUP8 ADD MSTORE PUSH2 0x77B6 DUP4 DUP3 DUP5 PUSH2 0x76C8 JUMP JUMPDEST SWAP3 POP POP POP DUP1 SWAP2 POP POP SWAP3 SWAP2 POP POP JUMP JUMPDEST PUSH1 0x0 PUSH2 0x77D0 DUP4 DUP4 PUSH2 0x7724 JUMP JUMPDEST SWAP1 POP SWAP3 SWAP2 POP POP JUMP JUMPDEST PUSH1 0x0 DUP3 CALLDATALOAD PUSH1 0x1 PUSH1 0xA0 SUB DUP4 CALLDATASIZE SUB SUB DUP2 SLT PUSH2 0x77F4 JUMPI PUSH2 0x77F3 PUSH2 0x6304 JUMP JUMPDEST JUMPDEST DUP3 DUP2 ADD SWAP2 POP POP SWAP3 SWAP2 POP POP JUMP JUMPDEST PUSH1 0x0 PUSH1 0x20 DUP3 ADD SWAP1 POP SWAP2 SWAP1 POP JUMP JUMPDEST PUSH1 0x0 PUSH2 0x7819 DUP4 DUP6 PUSH2 0x75B0 JUMP JUMPDEST SWAP4 POP DUP4 PUSH1 0x20 DUP5 MUL DUP6 ADD PUSH2 0x782B DUP5 PUSH2 0x75C1 JUMP JUMPDEST DUP1 PUSH1 0x0 JUMPDEST DUP8 DUP2 LT ISZERO PUSH2 0x786F JUMPI DUP5 DUP5 SUB DUP10 MSTORE PUSH2 0x7846 DUP3 DUP5 PUSH2 0x77D8 JUMP JUMPDEST PUSH2 0x7850 DUP6 DUP3 PUSH2 0x77C4 JUMP JUMPDEST SWAP5 POP PUSH2 0x785B DUP4 PUSH2 0x7800 JUMP JUMPDEST SWAP3 POP PUSH1 0x20 DUP11 ADD SWAP10 POP POP PUSH1 0x1 DUP2 ADD SWAP1 POP PUSH2 0x782F JUMP JUMPDEST POP DUP3 SWAP8 POP DUP8 SWAP5 POP POP POP POP POP SWAP4 SWAP3 POP POP POP JUMP JUMPDEST PUSH2 0x788A DUP2 PUSH2 0x44AE JUMP JUMPDEST DUP3 MSTORE POP POP JUMP JUMPDEST PUSH1 0x0 PUSH1 0xE0 DUP3 ADD SWAP1 POP DUP2 DUP2 SUB PUSH1 0x0 DUP4 ADD MSTORE PUSH2 0x78AB DUP2 DUP14 DUP16 PUSH2 0x753C JUMP JUMPDEST SWAP1 POP DUP2 DUP2 SUB PUSH1 0x20 DUP4 ADD MSTORE PUSH2 0x78C0 DUP2 DUP12 DUP14 PUSH2 0x780D JUMP JUMPDEST SWAP1 POP DUP2 DUP2 SUB PUSH1 0x40 DUP4 ADD MSTORE PUSH2 0x78D5 DUP2 DUP10 DUP12 PUSH2 0x7187 JUMP JUMPDEST SWAP1 POP DUP2 DUP2 SUB PUSH1 0x60 DUP4 ADD MSTORE PUSH2 0x78EA DUP2 DUP8 DUP10 PUSH2 0x7187 JUMP JUMPDEST SWAP1 POP PUSH2 0x78F9 PUSH1 0x80 DUP4 ADD DUP7 PUSH2 0x4FF5 JUMP JUMPDEST PUSH2 0x7906 PUSH1 0xA0 DUP4 ADD DUP6 PUSH2 0x7881 JUMP JUMPDEST PUSH2 0x7913 PUSH1 0xC0 DUP4 ADD DUP5 PUSH2 0x4562 JUMP JUMPDEST SWAP13 SWAP12 POP POP POP POP POP POP POP POP POP POP POP POP JUMP JUMPDEST PUSH1 0x0 PUSH2 0x792F DUP3 DUP5 PUSH2 0x61FF JUMP JUMPDEST SWAP2 POP DUP2 SWAP1 POP SWAP3 SWAP2 POP POP JUMP JUMPDEST PUSH1 0x0 DUP1 PUSH1 0x0 DUP1 PUSH1 0x80 DUP6 DUP8 SUB SLT ISZERO PUSH2 0x7954 JUMPI PUSH2 0x7953 PUSH2 0x4484 JUMP JUMPDEST JUMPDEST PUSH1 0x0 PUSH2 0x7962 DUP8 DUP3 DUP9 ADD PUSH2 0x7297 JUMP JUMPDEST SWAP5 POP POP PUSH1 0x20 PUSH2 0x7973 DUP8 DUP3 DUP9 ADD PUSH2 0x7297 JUMP JUMPDEST SWAP4 POP POP PUSH1 0x40 PUSH2 0x7984 DUP8 DUP3 DUP9 ADD PUSH2 0x6D70 JUMP JUMPDEST SWAP3 POP POP PUSH1 0x60 PUSH2 0x7995 DUP8 DUP3 DUP9 ADD PUSH2 0x6D70 JUMP JUMPDEST SWAP2 POP POP SWAP3 SWAP6 SWAP2 SWAP5 POP SWAP3 POP JUMP JUMPDEST PUSH1 0x0 PUSH1 0x20 DUP3 ADD SWAP1 POP DUP2 DUP2 SUB PUSH1 0x0 DUP4 ADD MSTORE PUSH2 0x79BC DUP2 DUP5 DUP7 PUSH2 0x69F1 JUMP JUMPDEST SWAP1 POP SWAP4 SWAP3 POP POP POP JUMP JUMPDEST PUSH1 0x0 PUSH1 0x20 DUP3 DUP5 SUB SLT ISZERO PUSH2 0x79DB JUMPI PUSH2 0x79DA PUSH2 0x4484 JUMP JUMPDEST JUMPDEST PUSH1 0x0 PUSH2 0x79E9 DUP5 DUP3 DUP6 ADD PUSH2 0x7297 JUMP JUMPDEST SWAP2 POP POP SWAP3 SWAP2 POP POP JUMP JUMPDEST PUSH32 0x496E697469616C697A61626C653A20636F6E747261637420697320616C726561 PUSH1 0x0 DUP3 ADD MSTORE PUSH32 0x647920696E697469616C697A6564000000000000000000000000000000000000 PUSH1 0x20 DUP3 ADD MSTORE POP JUMP JUMPDEST PUSH1 0x0 PUSH2 0x7A4E PUSH1 0x2E DUP4 PUSH2 0x486A JUMP JUMPDEST SWAP2 POP PUSH2 0x7A59 DUP3 PUSH2 0x79F2 JUMP JUMPDEST PUSH1 0x40 DUP3 ADD SWAP1 POP SWAP2 SWAP1 POP JUMP JUMPDEST PUSH1 0x0 PUSH1 0x20 DUP3 ADD SWAP1 POP DUP2 DUP2 SUB PUSH1 0x0 DUP4 ADD MSTORE PUSH2 0x7A7D DUP2 PUSH2 0x7A41 JUMP JUMPDEST SWAP1 POP SWAP2 SWAP1 POP JUMP JUMPDEST PUSH1 0x0 DUP2 SWAP1 POP SWAP2 SWAP1 POP JUMP JUMPDEST PUSH1 0x0 PUSH1 0xFF DUP3 AND SWAP1 POP SWAP2 SWAP1 POP JUMP JUMPDEST PUSH1 0x0 DUP2 SWAP1 POP SWAP2 SWAP1 POP JUMP JUMPDEST PUSH1 0x0 PUSH2 0x7AC0 PUSH2 0x7ABB PUSH2 0x7AB6 DUP5 PUSH2 0x7A84 JUMP JUMPDEST PUSH2 0x7A9B JUMP JUMPDEST PUSH2 0x7A8E JUMP JUMPDEST SWAP1 POP SWAP2 SWAP1 POP JUMP JUMPDEST PUSH2 0x7AD0 DUP2 PUSH2 0x7AA5 JUMP JUMPDEST DUP3 MSTORE POP POP JUMP JUMPDEST PUSH1 0x0 PUSH1 0x20 DUP3 ADD SWAP1 POP PUSH2 0x7AEB PUSH1 0x0 DUP4 ADD DUP5 PUSH2 0x7AC7 JUMP JUMPDEST SWAP3 SWAP2 POP POP JUMP JUMPDEST PUSH1 0x0 PUSH1 0xA0 DUP4 ADD PUSH2 0x7B04 PUSH1 0x0 DUP5 ADD DUP5 PUSH2 0x6309 JUMP JUMPDEST DUP5 DUP3 SUB PUSH1 0x0 DUP7 ADD MSTORE PUSH2 0x7B16 DUP3 DUP3 PUSH2 0x675F JUMP JUMPDEST SWAP2 POP POP PUSH2 0x7B26 PUSH1 0x20 DUP5 ADD DUP5 PUSH2 0x741D JUMP JUMPDEST PUSH2 0x7B33 PUSH1 0x20 DUP7 ADD DUP3 PUSH2 0x7434 JUMP JUMPDEST POP PUSH2 0x7B41 PUSH1 0x40 DUP5 ADD DUP5 PUSH2 0x741D JUMP JUMPDEST PUSH2 0x7B4E PUSH1 0x40 DUP7 ADD DUP3 PUSH2 0x7434 JUMP JUMPDEST POP PUSH2 0x7B5C PUSH1 0x60 DUP5 ADD DUP5 PUSH2 0x68B1 JUMP JUMPDEST DUP6 DUP4 SUB PUSH1 0x60 DUP8 ADD MSTORE PUSH2 0x7B6F DUP4 DUP3 DUP5 PUSH2 0x6925 JUMP JUMPDEST SWAP3 POP POP POP PUSH2 0x7B80 PUSH1 0x80 DUP5 ADD DUP5 PUSH2 0x68B1 JUMP JUMPDEST DUP6 DUP4 SUB PUSH1 0x80 DUP8 ADD MSTORE PUSH2 0x7B93 DUP4 DUP3 DUP5 PUSH2 0x6925 JUMP JUMPDEST SWAP3 POP POP POP DUP1 SWAP2 POP POP SWAP3 SWAP2 POP POP JUMP JUMPDEST PUSH1 0x0 PUSH1 0x80 DUP3 ADD SWAP1 POP DUP2 DUP2 SUB PUSH1 0x0 DUP4 ADD MSTORE PUSH2 0x7BBB DUP2 DUP9 PUSH2 0x7AF1 JUMP JUMPDEST SWAP1 POP DUP2 DUP2 SUB PUSH1 0x20 DUP4 ADD MSTORE PUSH2 0x7BD0 DUP2 DUP7 DUP9 PUSH2 0x780D JUMP JUMPDEST SWAP1 POP PUSH2 0x7BDF PUSH1 0x40 DUP4 ADD DUP6 PUSH2 0x4FF5 JUMP JUMPDEST PUSH2 0x7BEC PUSH1 0x60 DUP4 ADD DUP5 PUSH2 0x7881 JUMP JUMPDEST SWAP7 SWAP6 POP POP POP POP POP POP JUMP JUMPDEST PUSH1 0x0 DUP2 MLOAD SWAP1 POP SWAP2 SWAP1 POP JUMP JUMPDEST PUSH1 0x0 DUP2 SWAP1 POP PUSH1 0x20 DUP3 ADD SWAP1 POP SWAP2 SWAP1 POP JUMP JUMPDEST PUSH1 0xA0 DUP3 ADD PUSH1 0x0 DUP3 ADD MLOAD PUSH2 0x7C27 PUSH1 0x0 DUP6 ADD DUP3 PUSH2 0x4C68 JUMP JUMPDEST POP PUSH1 0x20 DUP3 ADD MLOAD PUSH2 0x7C3A PUSH1 0x20 DUP6 ADD DUP3 PUSH2 0x4C77 JUMP JUMPDEST POP PUSH1 0x40 DUP3 ADD MLOAD PUSH2 0x7C4D PUSH1 0x40 DUP6 ADD DUP3 PUSH2 0x4C86 JUMP JUMPDEST POP PUSH1 0x60 DUP3 ADD MLOAD PUSH2 0x7C60 PUSH1 0x60 DUP6 ADD DUP3 PUSH2 0x4C86 JUMP JUMPDEST POP PUSH1 0x80 DUP3 ADD MLOAD PUSH2 0x7C73 PUSH1 0x80 DUP6 ADD DUP3 PUSH2 0x4C86 JUMP JUMPDEST POP POP POP POP JUMP JUMPDEST PUSH1 0x0 PUSH2 0x7C85 DUP4 DUP4 PUSH2 0x7C11 JUMP JUMPDEST PUSH1 0xA0 DUP4 ADD SWAP1 POP SWAP3 SWAP2 POP POP JUMP JUMPDEST PUSH1 0x0 PUSH1 0x20 DUP3 ADD SWAP1 POP SWAP2 SWAP1 POP JUMP JUMPDEST PUSH1 0x0 PUSH2 0x7CA9 DUP3 PUSH2 0x7BF6 JUMP JUMPDEST PUSH2 0x7CB3 DUP2 DUP6 PUSH2 0x63B6 JUMP JUMPDEST SWAP4 POP PUSH2 0x7CBE DUP4 PUSH2 0x7C01 JUMP JUMPDEST DUP1 PUSH1 0x0 JUMPDEST DUP4 DUP2 LT ISZERO PUSH2 0x7CEF JUMPI DUP2 MLOAD PUSH2 0x7CD6 DUP9 DUP3 PUSH2 0x7C79 JUMP JUMPDEST SWAP8 POP PUSH2 0x7CE1 DUP4 PUSH2 0x7C91 JUMP JUMPDEST SWAP3 POP POP PUSH1 0x1 DUP2 ADD SWAP1 POP PUSH2 0x7CC2 JUMP JUMPDEST POP DUP6 SWAP4 POP POP POP POP SWAP3 SWAP2 POP POP JUMP JUMPDEST PUSH1 0x0 DUP2 MLOAD SWAP1 POP SWAP2 SWAP1 POP JUMP JUMPDEST PUSH1 0x0 DUP2 SWAP1 POP PUSH1 0x20 DUP3 ADD SWAP1 POP SWAP2 SWAP1 POP JUMP JUMPDEST PUSH1 0xC0 DUP3 ADD PUSH1 0x0 DUP3 ADD MLOAD PUSH2 0x7D2D PUSH1 0x0 DUP6 ADD DUP3 PUSH2 0x4C68 JUMP JUMPDEST POP PUSH1 0x20 DUP3 ADD MLOAD PUSH2 0x7D40 PUSH1 0x20 DUP6 ADD DUP3 PUSH2 0x4C77 JUMP JUMPDEST POP PUSH1 0x40 DUP3 ADD MLOAD PUSH2 0x7D53 PUSH1 0x40 DUP6 ADD DUP3 PUSH2 0x4C86 JUMP JUMPDEST POP PUSH1 0x60 DUP3 ADD MLOAD PUSH2 0x7D66 PUSH1 0x60 DUP6 ADD DUP3 PUSH2 0x4C86 JUMP JUMPDEST POP PUSH1 0x80 DUP3 ADD MLOAD PUSH2 0x7D79 PUSH1 0x80 DUP6 ADD DUP3 PUSH2 0x4C86 JUMP JUMPDEST POP PUSH1 0xA0 DUP3 ADD MLOAD PUSH2 0x7D8C PUSH1 0xA0 DUP6 ADD DUP3 PUSH2 0x4CA7 JUMP JUMPDEST POP POP POP POP JUMP JUMPDEST PUSH1 0x0 PUSH2 0x7D9E DUP4 DUP4 PUSH2 0x7D17 JUMP JUMPDEST PUSH1 0xC0 DUP4 ADD SWAP1 POP SWAP3 SWAP2 POP POP JUMP JUMPDEST PUSH1 0x0 PUSH1 0x20 DUP3 ADD SWAP1 POP SWAP2 SWAP1 POP JUMP JUMPDEST PUSH1 0x0 PUSH2 0x7DC2 DUP3 PUSH2 0x7CFC JUMP JUMPDEST PUSH2 0x7DCC DUP2 DUP6 PUSH2 0x657F JUMP JUMPDEST SWAP4 POP PUSH2 0x7DD7 DUP4 PUSH2 0x7D07 JUMP JUMPDEST DUP1 PUSH1 0x0 JUMPDEST DUP4 DUP2 LT ISZERO PUSH2 0x7E08 JUMPI DUP2 MLOAD PUSH2 0x7DEF DUP9 DUP3 PUSH2 0x7D92 JUMP JUMPDEST SWAP8 POP PUSH2 0x7DFA DUP4 PUSH2 0x7DAA JUMP JUMPDEST SWAP3 POP POP PUSH1 0x1 DUP2 ADD SWAP1 POP PUSH2 0x7DDB JUMP JUMPDEST POP DUP6 SWAP4 POP POP POP POP SWAP3 SWAP2 POP POP JUMP JUMPDEST PUSH1 0x0 PUSH2 0x160 DUP4 ADD PUSH1 0x0 DUP4 ADD MLOAD PUSH2 0x7E2E PUSH1 0x0 DUP7 ADD DUP3 PUSH2 0x4C77 JUMP JUMPDEST POP PUSH1 0x20 DUP4 ADD MLOAD PUSH2 0x7E41 PUSH1 0x20 DUP7 ADD DUP3 PUSH2 0x4C77 JUMP JUMPDEST POP PUSH1 0x40 DUP4 ADD MLOAD DUP5 DUP3 SUB PUSH1 0x40 DUP7 ADD MSTORE PUSH2 0x7E59 DUP3 DUP3 PUSH2 0x7C9E JUMP JUMPDEST SWAP2 POP POP PUSH1 0x60 DUP4 ADD MLOAD DUP5 DUP3 SUB PUSH1 0x60 DUP7 ADD MSTORE PUSH2 0x7E73 DUP3 DUP3 PUSH2 0x7DB7 JUMP JUMPDEST SWAP2 POP POP PUSH1 0x80 DUP4 ADD MLOAD PUSH2 0x7E88 PUSH1 0x80 DUP7 ADD DUP3 PUSH2 0x6739 JUMP JUMPDEST POP PUSH1 0xA0 DUP4 ADD MLOAD PUSH2 0x7E9B PUSH1 0xA0 DUP7 ADD DUP3 PUSH2 0x4C86 JUMP JUMPDEST POP PUSH1 0xC0 DUP4 ADD MLOAD PUSH2 0x7EAE PUSH1 0xC0 DUP7 ADD DUP3 PUSH2 0x4C86 JUMP JUMPDEST POP PUSH1 0xE0 DUP4 ADD MLOAD PUSH2 0x7EC1 PUSH1 0xE0 DUP7 ADD DUP3 PUSH2 0x4D28 JUMP JUMPDEST POP PUSH2 0x100 DUP4 ADD MLOAD PUSH2 0x7ED6 PUSH2 0x100 DUP7 ADD DUP3 PUSH2 0x4C86 JUMP JUMPDEST POP PUSH2 0x120 DUP4 ADD MLOAD PUSH2 0x7EEB PUSH2 0x120 DUP7 ADD DUP3 PUSH2 0x4D28 JUMP JUMPDEST POP PUSH2 0x140 DUP4 ADD MLOAD PUSH2 0x7F00 PUSH2 0x140 DUP7 ADD DUP3 PUSH2 0x4C86 JUMP JUMPDEST POP DUP1 SWAP2 POP POP SWAP3 SWAP2 POP POP JUMP JUMPDEST PUSH1 0x0 DUP2 MLOAD SWAP1 POP SWAP2 SWAP1 POP JUMP JUMPDEST PUSH1 0x0 PUSH2 0x7F21 DUP3 PUSH2 0x7F0B JUMP JUMPDEST PUSH2 0x7F2B DUP2 DUP6 PUSH2 0x6914 JUMP JUMPDEST SWAP4 POP PUSH2 0x7F3B DUP2 DUP6 PUSH1 0x20 DUP7 ADD PUSH2 0x487B JUMP JUMPDEST PUSH2 0x7F44 DUP2 PUSH2 0x4596 JUMP JUMPDEST DUP5 ADD SWAP2 POP POP SWAP3 SWAP2 POP POP JUMP JUMPDEST PUSH1 0x0 PUSH1 0x40 DUP4 ADD PUSH1 0x0 DUP4 ADD MLOAD DUP5 DUP3 SUB PUSH1 0x0 DUP7 ADD MSTORE PUSH2 0x7F6C DUP3 DUP3 PUSH2 0x7E15 JUMP JUMPDEST SWAP2 POP POP PUSH1 0x20 DUP4 ADD MLOAD DUP5 DUP3 SUB PUSH1 0x20 DUP7 ADD MSTORE PUSH2 0x7F86 DUP3 DUP3 PUSH2 0x7F16 JUMP JUMPDEST SWAP2 POP POP DUP1 SWAP2 POP POP SWAP3 SWAP2 POP POP JUMP JUMPDEST PUSH1 0x0 PUSH1 0x40 DUP3 ADD SWAP1 POP DUP2 DUP2 SUB PUSH1 0x0 DUP4 ADD MSTORE PUSH2 0x7FAD DUP2 DUP6 PUSH2 0x7F4F JUMP JUMPDEST SWAP1 POP PUSH2 0x7FBC PUSH1 0x20 DUP4 ADD DUP5 PUSH2 0x4FF5 JUMP JUMPDEST SWAP4 SWAP3 POP POP POP JUMP JUMPDEST PUSH1 0x0 PUSH1 0x80 DUP3 ADD SWAP1 POP DUP2 DUP2 SUB PUSH1 0x0 DUP4 ADD MSTORE PUSH2 0x7FDE DUP2 DUP10 DUP12 PUSH2 0x753C JUMP JUMPDEST SWAP1 POP DUP2 DUP2 SUB PUSH1 0x20 DUP4 ADD MSTORE PUSH2 0x7FF3 DUP2 DUP8 DUP10 PUSH2 0x780D JUMP JUMPDEST SWAP1 POP DUP2 DUP2 SUB PUSH1 0x40 DUP4 ADD MSTORE PUSH2 0x8008 DUP2 DUP6 DUP8 PUSH2 0x6C6B JUMP JUMPDEST SWAP1 POP PUSH2 0x8017 PUSH1 0x60 DUP4 ADD DUP5 PUSH2 0x7881 JUMP JUMPDEST SWAP9 SWAP8 POP POP POP POP POP POP POP POP JUMP JUMPDEST PUSH1 0x0 PUSH2 0x160 DUP4 ADD PUSH2 0x8037 PUSH1 0x0 DUP5 ADD DUP5 PUSH2 0x6332 JUMP JUMPDEST PUSH2 0x8044 PUSH1 0x0 DUP7 ADD DUP3 PUSH2 0x4C77 JUMP JUMPDEST POP PUSH2 0x8052 PUSH1 0x20 DUP5 ADD DUP5 PUSH2 0x6332 JUMP JUMPDEST PUSH2 0x805F PUSH1 0x20 DUP7 ADD DUP3 PUSH2 0x4C77 JUMP JUMPDEST POP PUSH2 0x806D PUSH1 0x40 DUP5 ADD DUP5 PUSH2 0x6353 JUMP JUMPDEST DUP6 DUP4 SUB PUSH1 0x40 DUP8 ADD MSTORE PUSH2 0x8080 DUP4 DUP3 DUP5 PUSH2 0x64BF JUMP JUMPDEST SWAP3 POP POP POP PUSH2 0x8091 PUSH1 0x60 DUP5 ADD DUP5 PUSH2 0x651C JUMP JUMPDEST DUP6 DUP4 SUB PUSH1 0x60 DUP8 ADD MSTORE PUSH2 0x80A4 DUP4 DUP3 DUP5 PUSH2 0x668C JUMP JUMPDEST SWAP3 POP POP POP PUSH2 0x80B5 PUSH1 0x80 DUP5 ADD DUP5 PUSH2 0x66E9 JUMP JUMPDEST PUSH2 0x80C2 PUSH1 0x80 DUP7 ADD DUP3 PUSH2 0x6739 JUMP JUMPDEST POP PUSH2 0x80D0 PUSH1 0xA0 DUP5 ADD DUP5 PUSH2 0x63E8 JUMP JUMPDEST PUSH2 0x80DD PUSH1 0xA0 DUP7 ADD DUP3 PUSH2 0x4C86 JUMP JUMPDEST POP PUSH2 0x80EB PUSH1 0xC0 DUP5 ADD DUP5 PUSH2 0x63E8 JUMP JUMPDEST PUSH2 0x80F8 PUSH1 0xC0 DUP7 ADD DUP3 PUSH2 0x4C86 JUMP JUMPDEST POP PUSH2 0x8106 PUSH1 0xE0 DUP5 ADD DUP5 PUSH2 0x6748 JUMP JUMPDEST PUSH2 0x8113 PUSH1 0xE0 DUP7 ADD DUP3 PUSH2 0x4D28 JUMP JUMPDEST POP PUSH2 0x8122 PUSH2 0x100 DUP5 ADD DUP5 PUSH2 0x63E8 JUMP JUMPDEST PUSH2 0x8130 PUSH2 0x100 DUP7 ADD DUP3 PUSH2 0x4C86 JUMP JUMPDEST POP PUSH2 0x813F PUSH2 0x120 DUP5 ADD DUP5 PUSH2 0x6748 JUMP JUMPDEST PUSH2 0x814D PUSH2 0x120 DUP7 ADD DUP3 PUSH2 0x4D28 JUMP JUMPDEST POP PUSH2 0x815C PUSH2 0x140 DUP5 ADD DUP5 PUSH2 0x63E8 JUMP JUMPDEST PUSH2 0x816A PUSH2 0x140 DUP7 ADD DUP3 PUSH2 0x4C86 JUMP JUMPDEST POP DUP1 SWAP2 POP POP SWAP3 SWAP2 POP POP JUMP JUMPDEST PUSH1 0x0 PUSH1 0x20 DUP3 ADD SWAP1 POP DUP2 DUP2 SUB PUSH1 0x0 DUP4 ADD MSTORE PUSH2 0x818F DUP2 DUP5 PUSH2 0x8023 JUMP JUMPDEST SWAP1 POP SWAP3 SWAP2 POP POP JUMP JUMPDEST PUSH1 0x0 PUSH1 0x20 DUP3 DUP5 SUB SLT ISZERO PUSH2 0x81AD JUMPI PUSH2 0x81AC PUSH2 0x4484 JUMP JUMPDEST JUMPDEST PUSH1 0x0 PUSH2 0x81BB DUP5 DUP3 DUP6 ADD PUSH2 0x6E26 JUMP JUMPDEST SWAP2 POP POP SWAP3 SWAP2 POP POP JUMP JUMPDEST PUSH1 0x0 DUP3 DUP3 MSTORE PUSH1 0x20 DUP3 ADD SWAP1 POP SWAP3 SWAP2 POP POP JUMP JUMPDEST PUSH1 0x0 DUP2 SWAP1 POP SWAP2 SWAP1 POP JUMP JUMPDEST PUSH1 0x0 PUSH2 0x160 DUP4 ADD PUSH2 0x81F3 PUSH1 0x0 DUP5 ADD DUP5 PUSH2 0x6332 JUMP JUMPDEST PUSH2 0x8200 PUSH1 0x0 DUP7 ADD DUP3 PUSH2 0x4C77 JUMP JUMPDEST POP PUSH2 0x820E PUSH1 0x20 DUP5 ADD DUP5 PUSH2 0x6332 JUMP JUMPDEST PUSH2 0x821B PUSH1 0x20 DUP7 ADD DUP3 PUSH2 0x4C77 JUMP JUMPDEST POP PUSH2 0x8229 PUSH1 0x40 DUP5 ADD DUP5 PUSH2 0x6353 JUMP JUMPDEST DUP6 DUP4 SUB PUSH1 0x40 DUP8 ADD MSTORE PUSH2 0x823C DUP4 DUP3 DUP5 PUSH2 0x64BF JUMP JUMPDEST SWAP3 POP POP POP PUSH2 0x824D PUSH1 0x60 DUP5 ADD DUP5 PUSH2 0x651C JUMP JUMPDEST DUP6 DUP4 SUB PUSH1 0x60 DUP8 ADD MSTORE PUSH2 0x8260 DUP4 DUP3 DUP5 PUSH2 0x668C JUMP JUMPDEST SWAP3 POP POP POP PUSH2 0x8271 PUSH1 0x80 DUP5 ADD DUP5 PUSH2 0x66E9 JUMP JUMPDEST PUSH2 0x827E PUSH1 0x80 DUP7 ADD DUP3 PUSH2 0x6739 JUMP JUMPDEST POP PUSH2 0x828C PUSH1 0xA0 DUP5 ADD DUP5 PUSH2 0x63E8 JUMP JUMPDEST PUSH2 0x8299 PUSH1 0xA0 DUP7 ADD DUP3 PUSH2 0x4C86 JUMP JUMPDEST POP PUSH2 0x82A7 PUSH1 0xC0 DUP5 ADD DUP5 PUSH2 0x63E8 JUMP JUMPDEST PUSH2 0x82B4 PUSH1 0xC0 DUP7 ADD DUP3 PUSH2 0x4C86 JUMP JUMPDEST POP PUSH2 0x82C2 PUSH1 0xE0 DUP5 ADD DUP5 PUSH2 0x6748 JUMP JUMPDEST PUSH2 0x82CF PUSH1 0xE0 DUP7 ADD DUP3 PUSH2 0x4D28 JUMP JUMPDEST POP PUSH2 0x82DE PUSH2 0x100 DUP5 ADD DUP5 PUSH2 0x63E8 JUMP JUMPDEST PUSH2 0x82EC PUSH2 0x100 DUP7 ADD DUP3 PUSH2 0x4C86 JUMP JUMPDEST POP PUSH2 0x82FB PUSH2 0x120 DUP5 ADD DUP5 PUSH2 0x6748 JUMP JUMPDEST PUSH2 0x8309 PUSH2 0x120 DUP7 ADD DUP3 PUSH2 0x4D28 JUMP JUMPDEST POP PUSH2 0x8318 PUSH2 0x140 DUP5 ADD DUP5 PUSH2 0x63E8 JUMP JUMPDEST PUSH2 0x8326 PUSH2 0x140 DUP7 ADD DUP3 PUSH2 0x4C86 JUMP JUMPDEST POP DUP1 SWAP2 POP POP SWAP3 SWAP2 POP POP JUMP JUMPDEST PUSH1 0x0 PUSH2 0x833D DUP4 DUP4 PUSH2 0x81DF JUMP JUMPDEST SWAP1 POP SWAP3 SWAP2 POP POP JUMP JUMPDEST PUSH1 0x0 DUP3 CALLDATALOAD PUSH1 0x1 PUSH2 0x160 SUB DUP4 CALLDATASIZE SUB SUB DUP2 SLT PUSH2 0x8362 JUMPI PUSH2 0x8361 PUSH2 0x6304 JUMP JUMPDEST JUMPDEST DUP3 DUP2 ADD SWAP2 POP POP SWAP3 SWAP2 POP POP JUMP JUMPDEST PUSH1 0x0 PUSH1 0x20 DUP3 ADD SWAP1 POP SWAP2 SWAP1 POP JUMP JUMPDEST PUSH1 0x0 PUSH2 0x8387 DUP4 DUP6 PUSH2 0x81C4 JUMP JUMPDEST SWAP4 POP DUP4 PUSH1 0x20 DUP5 MUL DUP6 ADD PUSH2 0x8399 DUP5 PUSH2 0x81D5 JUMP JUMPDEST DUP1 PUSH1 0x0 JUMPDEST DUP8 DUP2 LT ISZERO PUSH2 0x83DD JUMPI DUP5 DUP5 SUB DUP10 MSTORE PUSH2 0x83B4 DUP3 DUP5 PUSH2 0x8345 JUMP JUMPDEST PUSH2 0x83BE DUP6 DUP3 PUSH2 0x8331 JUMP JUMPDEST SWAP5 POP PUSH2 0x83C9 DUP4 PUSH2 0x836E JUMP JUMPDEST SWAP3 POP PUSH1 0x20 DUP11 ADD SWAP10 POP POP PUSH1 0x1 DUP2 ADD SWAP1 POP PUSH2 0x839D JUMP JUMPDEST POP DUP3 SWAP8 POP DUP8 SWAP5 POP POP POP POP POP SWAP4 SWAP3 POP POP POP JUMP JUMPDEST PUSH1 0x0 PUSH1 0x20 DUP3 ADD SWAP1 POP DUP2 DUP2 SUB PUSH1 0x0 DUP4 ADD MSTORE PUSH2 0x840A DUP2 DUP5 DUP7 PUSH2 0x837B JUMP JUMPDEST SWAP1 POP SWAP4 SWAP3 POP POP POP JUMP JUMPDEST PUSH1 0x0 PUSH1 0x20 DUP3 ADD SWAP1 POP PUSH2 0x8428 PUSH1 0x0 DUP4 ADD DUP5 PUSH2 0x7881 JUMP JUMPDEST SWAP3 SWAP2 POP POP JUMP JUMPDEST PUSH1 0x0 PUSH1 0x20 DUP3 DUP5 SUB SLT ISZERO PUSH2 0x8444 JUMPI PUSH2 0x8443 PUSH2 0x4484 JUMP JUMPDEST JUMPDEST PUSH1 0x0 PUSH2 0x8452 DUP5 DUP3 DUP6 ADD PUSH2 0x6D70 JUMP JUMPDEST SWAP2 POP POP SWAP3 SWAP2 POP POP JUMP JUMPDEST PUSH32 0x455243313135353A2061646472657373207A65726F206973206E6F7420612076 PUSH1 0x0 DUP3 ADD MSTORE PUSH32 0x616C6964206F776E657200000000000000000000000000000000000000000000 PUSH1 0x20 DUP3 ADD MSTORE POP JUMP JUMPDEST PUSH1 0x0 PUSH2 0x84B7 PUSH1 0x2A DUP4 PUSH2 0x486A JUMP JUMPDEST SWAP2 POP PUSH2 0x84C2 DUP3 PUSH2 0x845B JUMP JUMPDEST PUSH1 0x40 DUP3 ADD SWAP1 POP SWAP2 SWAP1 POP JUMP JUMPDEST PUSH1 0x0 PUSH1 0x20 DUP3 ADD SWAP1 POP DUP2 DUP2 SUB PUSH1 0x0 DUP4 ADD MSTORE PUSH2 0x84E6 DUP2 PUSH2 0x84AA JUMP JUMPDEST SWAP1 POP SWAP2 SWAP1 POP JUMP JUMPDEST PUSH32 0x5061757361626C653A2070617573656400000000000000000000000000000000 PUSH1 0x0 DUP3 ADD MSTORE POP JUMP JUMPDEST PUSH1 0x0 PUSH2 0x8523 PUSH1 0x10 DUP4 PUSH2 0x486A JUMP JUMPDEST SWAP2 POP PUSH2 0x852E DUP3 PUSH2 0x84ED JUMP JUMPDEST PUSH1 0x20 DUP3 ADD SWAP1 POP SWAP2 SWAP1 POP JUMP JUMPDEST PUSH1 0x0 PUSH1 0x20 DUP3 ADD SWAP1 POP DUP2 DUP2 SUB PUSH1 0x0 DUP4 ADD MSTORE PUSH2 0x8552 DUP2 PUSH2 0x8516 JUMP JUMPDEST SWAP1 POP SWAP2 SWAP1 POP JUMP JUMPDEST PUSH32 0x4E487B7100000000000000000000000000000000000000000000000000000000 PUSH1 0x0 MSTORE PUSH1 0x12 PUSH1 0x4 MSTORE PUSH1 0x24 PUSH1 0x0 REVERT JUMPDEST PUSH32 0x455243313135353A206D696E7420746F20746865207A65726F20616464726573 PUSH1 0x0 DUP3 ADD MSTORE PUSH32 0x7300000000000000000000000000000000000000000000000000000000000000 PUSH1 0x20 DUP3 ADD MSTORE POP JUMP JUMPDEST PUSH1 0x0 PUSH2 0x85E4 PUSH1 0x21 DUP4 PUSH2 0x486A JUMP JUMPDEST SWAP2 POP PUSH2 0x85EF DUP3 PUSH2 0x8588 JUMP JUMPDEST PUSH1 0x40 DUP3 ADD SWAP1 POP SWAP2 SWAP1 POP JUMP JUMPDEST PUSH1 0x0 PUSH1 0x20 DUP3 ADD SWAP1 POP DUP2 DUP2 SUB PUSH1 0x0 DUP4 ADD MSTORE PUSH2 0x8613 DUP2 PUSH2 0x85D7 JUMP JUMPDEST SWAP1 POP SWAP2 SWAP1 POP JUMP JUMPDEST PUSH32 0x455243313135353A2069647320616E6420616D6F756E7473206C656E67746820 PUSH1 0x0 DUP3 ADD MSTORE PUSH32 0x6D69736D61746368000000000000000000000000000000000000000000000000 PUSH1 0x20 DUP3 ADD MSTORE POP JUMP JUMPDEST PUSH1 0x0 PUSH2 0x8676 PUSH1 0x28 DUP4 PUSH2 0x486A JUMP JUMPDEST SWAP2 POP PUSH2 0x8681 DUP3 PUSH2 0x861A JUMP JUMPDEST PUSH1 0x40 DUP3 ADD SWAP1 POP SWAP2 SWAP1 POP JUMP JUMPDEST PUSH1 0x0 PUSH1 0x20 DUP3 ADD SWAP1 POP DUP2 DUP2 SUB PUSH1 0x0 DUP4 ADD MSTORE PUSH2 0x86A5 DUP2 PUSH2 0x8669 JUMP JUMPDEST SWAP1 POP SWAP2 SWAP1 POP JUMP JUMPDEST PUSH1 0x0 PUSH2 0x86B7 DUP3 PUSH2 0x44EC JUMP JUMPDEST SWAP2 POP PUSH2 0x86C2 DUP4 PUSH2 0x44EC JUMP JUMPDEST SWAP3 POP DUP3 PUSH32 0xFFFFFFFFFFFFFFFFFFFFFFFFFFFFFFFFFFFFFFFFFFFFFFFFFFFFFFFFFFFFFFFF SUB DUP3 GT ISZERO PUSH2 0x86F7 JUMPI PUSH2 0x86F6 PUSH2 0x6FAE JUMP JUMPDEST JUMPDEST DUP3 DUP3 ADD SWAP1 POP SWAP3 SWAP2 POP POP JUMP JUMPDEST PUSH1 0x0 PUSH1 0x40 DUP3 ADD SWAP1 POP DUP2 DUP2 SUB PUSH1 0x0 DUP4 ADD MSTORE PUSH2 0x871C DUP2 DUP6 PUSH2 0x54E1 JUMP JUMPDEST SWAP1 POP DUP2 DUP2 SUB PUSH1 0x20 DUP4 ADD MSTORE PUSH2 0x8730 DUP2 DUP5 PUSH2 0x54E1 JUMP JUMPDEST SWAP1 POP SWAP4 SWAP3 POP POP POP JUMP JUMPDEST PUSH32 0x455243313135353A207472616E7366657220746F20746865207A65726F206164 PUSH1 0x0 DUP3 ADD MSTORE PUSH32 0x6472657373000000000000000000000000000000000000000000000000000000 PUSH1 0x20 DUP3 ADD MSTORE POP JUMP JUMPDEST PUSH1 0x0 PUSH2 0x8795 PUSH1 0x25 DUP4 PUSH2 0x486A JUMP JUMPDEST SWAP2 POP PUSH2 0x87A0 DUP3 PUSH2 0x8739 JUMP JUMPDEST PUSH1 0x40 DUP3 ADD SWAP1 POP SWAP2 SWAP1 POP JUMP JUMPDEST PUSH1 0x0 PUSH1 0x20 DUP3 ADD SWAP1 POP DUP2 DUP2 SUB PUSH1 0x0 DUP4 ADD MSTORE PUSH2 0x87C4 DUP2 PUSH2 0x8788 JUMP JUMPDEST SWAP1 POP SWAP2 SWAP1 POP JUMP JUMPDEST PUSH32 0x455243313135353A20696E73756666696369656E742062616C616E636520666F PUSH1 0x0 DUP3 ADD MSTORE PUSH32 0x72207472616E7366657200000000000000000000000000000000000000000000 PUSH1 0x20 DUP3 ADD MSTORE POP JUMP JUMPDEST PUSH1 0x0 PUSH2 0x8827 PUSH1 0x2A DUP4 PUSH2 0x486A JUMP JUMPDEST SWAP2 POP PUSH2 0x8832 DUP3 PUSH2 0x87CB JUMP JUMPDEST PUSH1 0x40 DUP3 ADD SWAP1 POP SWAP2 SWAP1 POP JUMP JUMPDEST PUSH1 0x0 PUSH1 0x20 DUP3 ADD SWAP1 POP DUP2 DUP2 SUB PUSH1 0x0 DUP4 ADD MSTORE PUSH2 0x8856 DUP2 PUSH2 0x881A JUMP JUMPDEST SWAP1 POP SWAP2 SWAP1 POP JUMP JUMPDEST PUSH32 0x455243313135353A206163636F756E747320616E6420696473206C656E677468 PUSH1 0x0 DUP3 ADD MSTORE PUSH32 0x206D69736D617463680000000000000000000000000000000000000000000000 PUSH1 0x20 DUP3 ADD MSTORE POP JUMP JUMPDEST PUSH1 0x0 PUSH2 0x88B9 PUSH1 0x29 DUP4 PUSH2 0x486A JUMP JUMPDEST SWAP2 POP PUSH2 0x88C4 DUP3 PUSH2 0x885D JUMP JUMPDEST PUSH1 0x40 DUP3 ADD SWAP1 POP SWAP2 SWAP1 POP JUMP JUMPDEST PUSH1 0x0 PUSH1 0x20 DUP3 ADD SWAP1 POP DUP2 DUP2 SUB PUSH1 0x0 DUP4 ADD MSTORE PUSH2 0x88E8 DUP2 PUSH2 0x88AC JUMP JUMPDEST SWAP1 POP SWAP2 SWAP1 POP JUMP JUMPDEST PUSH1 0x0 PUSH1 0x40 DUP3 ADD SWAP1 POP PUSH2 0x8904 PUSH1 0x0 DUP4 ADD DUP6 PUSH2 0x4562 JUMP JUMPDEST PUSH2 0x8911 PUSH1 0x20 DUP4 ADD DUP5 PUSH2 0x4562 JUMP JUMPDEST SWAP4 SWAP3 POP POP POP JUMP JUMPDEST PUSH32 0x496E697469616C697A61626C653A20636F6E7472616374206973206E6F742069 PUSH1 0x0 DUP3 ADD MSTORE PUSH32 0x6E697469616C697A696E67000000000000000000000000000000000000000000 PUSH1 0x20 DUP3 ADD MSTORE POP JUMP JUMPDEST PUSH1 0x0 PUSH2 0x8974 PUSH1 0x2B DUP4 PUSH2 0x486A JUMP JUMPDEST SWAP2 POP PUSH2 0x897F DUP3 PUSH2 0x8918 JUMP JUMPDEST PUSH1 0x40 DUP3 ADD SWAP1 POP SWAP2 SWAP1 POP JUMP JUMPDEST PUSH1 0x0 PUSH1 0x20 DUP3 ADD SWAP1 POP DUP2 DUP2 SUB PUSH1 0x0 DUP4 ADD MSTORE PUSH2 0x89A3 DUP2 PUSH2 0x8967 JUMP JUMPDEST SWAP1 POP SWAP2 SWAP1 POP JUMP JUMPDEST PUSH32 0x416363657373436F6E74726F6C3A206163636F756E7420000000000000000000 PUSH1 0x0 DUP3 ADD MSTORE POP JUMP JUMPDEST PUSH1 0x0 PUSH2 0x89E0 PUSH1 0x17 DUP4 PUSH2 0x61F4 JUMP JUMPDEST SWAP2 POP PUSH2 0x89EB DUP3 PUSH2 0x89AA JUMP JUMPDEST PUSH1 0x17 DUP3 ADD SWAP1 POP SWAP2 SWAP1 POP JUMP JUMPDEST PUSH32 0x206973206D697373696E6720726F6C6520000000000000000000000000000000 PUSH1 0x0 DUP3 ADD MSTORE POP JUMP JUMPDEST PUSH1 0x0 PUSH2 0x8A2C PUSH1 0x11 DUP4 PUSH2 0x61F4 JUMP JUMPDEST SWAP2 POP PUSH2 0x8A37 DUP3 PUSH2 0x89F6 JUMP JUMPDEST PUSH1 0x11 DUP3 ADD SWAP1 POP SWAP2 SWAP1 POP JUMP JUMPDEST PUSH1 0x0 PUSH2 0x8A4D DUP3 PUSH2 0x89D3 JUMP JUMPDEST SWAP2 POP PUSH2 0x8A59 DUP3 DUP6 PUSH2 0x61FF JUMP JUMPDEST SWAP2 POP PUSH2 0x8A64 DUP3 PUSH2 0x8A1F JUMP JUMPDEST SWAP2 POP PUSH2 0x8A70 DUP3 DUP5 PUSH2 0x61FF JUMP JUMPDEST SWAP2 POP DUP2 SWAP1 POP SWAP4 SWAP3 POP POP POP JUMP JUMPDEST PUSH1 0x0 DUP3 DUP3 MSTORE PUSH1 0x20 DUP3 ADD SWAP1 POP SWAP3 SWAP2 POP POP JUMP JUMPDEST PUSH1 0x0 PUSH2 0x8A98 DUP3 PUSH2 0x7F0B JUMP JUMPDEST PUSH2 0x8AA2 DUP2 DUP6 PUSH2 0x8A7C JUMP JUMPDEST SWAP4 POP PUSH2 0x8AB2 DUP2 DUP6 PUSH1 0x20 DUP7 ADD PUSH2 0x487B JUMP JUMPDEST PUSH2 0x8ABB DUP2 PUSH2 0x4596 JUMP JUMPDEST DUP5 ADD SWAP2 POP POP SWAP3 SWAP2 POP POP JUMP JUMPDEST PUSH1 0x0 PUSH1 0xA0 DUP3 ADD SWAP1 POP PUSH2 0x8ADB PUSH1 0x0 DUP4 ADD DUP9 PUSH2 0x7881 JUMP JUMPDEST PUSH2 0x8AE8 PUSH1 0x20 DUP4 ADD DUP8 PUSH2 0x7881 JUMP JUMPDEST DUP2 DUP2 SUB PUSH1 0x40 DUP4 ADD MSTORE PUSH2 0x8AFA DUP2 DUP7 PUSH2 0x54E1 JUMP JUMPDEST SWAP1 POP DUP2 DUP2 SUB PUSH1 0x60 DUP4 ADD MSTORE PUSH2 0x8B0E DUP2 DUP6 PUSH2 0x54E1 JUMP JUMPDEST SWAP1 POP DUP2 DUP2 SUB PUSH1 0x80 DUP4 ADD MSTORE PUSH2 0x8B22 DUP2 DUP5 PUSH2 0x8A8D JUMP JUMPDEST SWAP1 POP SWAP7 SWAP6 POP POP POP POP POP POP JUMP JUMPDEST PUSH1 0x0 DUP2 MLOAD SWAP1 POP PUSH2 0x8B3D DUP2 PUSH2 0x475A JUMP JUMPDEST SWAP3 SWAP2 POP POP JUMP JUMPDEST PUSH1 0x0 PUSH1 0x20 DUP3 DUP5 SUB SLT ISZERO PUSH2 0x8B59 JUMPI PUSH2 0x8B58 PUSH2 0x4484 JUMP JUMPDEST JUMPDEST PUSH1 0x0 PUSH2 0x8B67 DUP5 DUP3 DUP6 ADD PUSH2 0x8B2E JUMP JUMPDEST SWAP2 POP POP SWAP3 SWAP2 POP POP JUMP JUMPDEST PUSH1 0x0 DUP2 PUSH1 0xE0 SHR SWAP1 POP SWAP2 SWAP1 POP JUMP JUMPDEST PUSH1 0x0 PUSH1 0x3 RETURNDATASIZE GT ISZERO PUSH2 0x8B9C JUMPI PUSH1 0x4 PUSH1 0x0 DUP1 RETURNDATACOPY PUSH2 0x8B99 PUSH1 0x0 MLOAD PUSH2 0x8B70 JUMP JUMPDEST SWAP1 POP JUMPDEST SWAP1 JUMP JUMPDEST PUSH1 0x0 PUSH1 0x44 RETURNDATASIZE LT PUSH2 0x8C2C JUMPI PUSH2 0x8BB1 PUSH2 0x447A JUMP JUMPDEST PUSH1 0x4 RETURNDATASIZE SUB PUSH1 0x4 DUP3 RETURNDATACOPY DUP1 MLOAD RETURNDATASIZE PUSH1 0x24 DUP3 ADD GT PUSH8 0xFFFFFFFFFFFFFFFF DUP3 GT OR ISZERO PUSH2 0x8BD9 JUMPI POP POP PUSH2 0x8C2C JUMP JUMPDEST DUP1 DUP3 ADD DUP1 MLOAD PUSH8 0xFFFFFFFFFFFFFFFF DUP2 GT ISZERO PUSH2 0x8BF7 JUMPI POP POP POP POP PUSH2 0x8C2C JUMP JUMPDEST DUP1 PUSH1 0x20 DUP4 ADD ADD PUSH1 0x4 RETURNDATASIZE SUB DUP6 ADD DUP2 GT ISZERO PUSH2 0x8C14 JUMPI POP POP POP POP POP PUSH2 0x8C2C JUMP JUMPDEST PUSH2 0x8C23 DUP3 PUSH1 0x20 ADD DUP6 ADD DUP7 PUSH2 0x45D6 JUMP JUMPDEST DUP3 SWAP6 POP POP POP POP POP POP JUMPDEST SWAP1 JUMP JUMPDEST PUSH32 0x455243313135353A207472616E7366657220746F206E6F6E2D45524331313535 PUSH1 0x0 DUP3 ADD MSTORE PUSH32 0x526563656976657220696D706C656D656E746572000000000000000000000000 PUSH1 0x20 DUP3 ADD MSTORE POP JUMP JUMPDEST PUSH1 0x0 PUSH2 0x8C8B PUSH1 0x34 DUP4 PUSH2 0x486A JUMP JUMPDEST SWAP2 POP PUSH2 0x8C96 DUP3 PUSH2 0x8C2F JUMP JUMPDEST PUSH1 0x40 DUP3 ADD SWAP1 POP SWAP2 SWAP1 POP JUMP JUMPDEST PUSH1 0x0 PUSH1 0x20 DUP3 ADD SWAP1 POP DUP2 DUP2 SUB PUSH1 0x0 DUP4 ADD MSTORE PUSH2 0x8CBA DUP2 PUSH2 0x8C7E JUMP JUMPDEST SWAP1 POP SWAP2 SWAP1 POP JUMP JUMPDEST PUSH32 0x455243313135353A204552433131353552656365697665722072656A65637465 PUSH1 0x0 DUP3 ADD MSTORE PUSH32 0x6420746F6B656E73000000000000000000000000000000000000000000000000 PUSH1 0x20 DUP3 ADD MSTORE POP JUMP JUMPDEST PUSH1 0x0 PUSH2 0x8D1D PUSH1 0x28 DUP4 PUSH2 0x486A JUMP JUMPDEST SWAP2 POP PUSH2 0x8D28 DUP3 PUSH2 0x8CC1 JUMP JUMPDEST PUSH1 0x40 DUP3 ADD SWAP1 POP SWAP2 SWAP1 POP JUMP JUMPDEST PUSH1 0x0 PUSH1 0x20 DUP3 ADD SWAP1 POP DUP2 DUP2 SUB PUSH1 0x0 DUP4 ADD MSTORE PUSH2 0x8D4C DUP2 PUSH2 0x8D10 JUMP JUMPDEST SWAP1 POP SWAP2 SWAP1 POP JUMP JUMPDEST PUSH32 0x5061757361626C653A206E6F7420706175736564000000000000000000000000 PUSH1 0x0 DUP3 ADD MSTORE POP JUMP JUMPDEST PUSH1 0x0 PUSH2 0x8D89 PUSH1 0x14 DUP4 PUSH2 0x486A JUMP JUMPDEST SWAP2 POP PUSH2 0x8D94 DUP3 PUSH2 0x8D53 JUMP JUMPDEST PUSH1 0x20 DUP3 ADD SWAP1 POP SWAP2 SWAP1 POP JUMP JUMPDEST PUSH1 0x0 PUSH1 0x20 DUP3 ADD SWAP1 POP DUP2 DUP2 SUB PUSH1 0x0 DUP4 ADD MSTORE PUSH2 0x8DB8 DUP2 PUSH2 0x8D7C JUMP JUMPDEST SWAP1 POP SWAP2 SWAP1 POP JUMP JUMPDEST PUSH32 0x455243313135353A206275726E2066726F6D20746865207A65726F2061646472 PUSH1 0x0 DUP3 ADD MSTORE PUSH32 0x6573730000000000000000000000000000000000000000000000000000000000 PUSH1 0x20 DUP3 ADD MSTORE POP JUMP JUMPDEST PUSH1 0x0 PUSH2 0x8E1B PUSH1 0x23 DUP4 PUSH2 0x486A JUMP JUMPDEST SWAP2 POP PUSH2 0x8E26 DUP3 PUSH2 0x8DBF JUMP JUMPDEST PUSH1 0x40 DUP3 ADD SWAP1 POP SWAP2 SWAP1 POP JUMP JUMPDEST PUSH1 0x0 PUSH1 0x20 DUP3 ADD SWAP1 POP DUP2 DUP2 SUB PUSH1 0x0 DUP4 ADD MSTORE PUSH2 0x8E4A DUP2 PUSH2 0x8E0E JUMP JUMPDEST SWAP1 POP SWAP2 SWAP1 POP JUMP JUMPDEST PUSH32 0x455243313135353A206275726E20616D6F756E7420657863656564732062616C PUSH1 0x0 DUP3 ADD MSTORE PUSH32 0x616E636500000000000000000000000000000000000000000000000000000000 PUSH1 0x20 DUP3 ADD MSTORE POP JUMP JUMPDEST PUSH1 0x0 PUSH2 0x8EAD PUSH1 0x24 DUP4 PUSH2 0x486A JUMP JUMPDEST SWAP2 POP PUSH2 0x8EB8 DUP3 PUSH2 0x8E51 JUMP JUMPDEST PUSH1 0x40 DUP3 ADD SWAP1 POP SWAP2 SWAP1 POP JUMP JUMPDEST PUSH1 0x0 PUSH1 0x20 DUP3 ADD SWAP1 POP DUP2 DUP2 SUB PUSH1 0x0 DUP4 ADD MSTORE PUSH2 0x8EDC DUP2 PUSH2 0x8EA0 JUMP JUMPDEST SWAP1 POP SWAP2 SWAP1 POP JUMP JUMPDEST PUSH1 0x0 PUSH1 0xA0 DUP3 ADD SWAP1 POP PUSH2 0x8EF8 PUSH1 0x0 DUP4 ADD DUP9 PUSH2 0x7881 JUMP JUMPDEST PUSH2 0x8F05 PUSH1 0x20 DUP4 ADD DUP8 PUSH2 0x7881 JUMP JUMPDEST PUSH2 0x8F12 PUSH1 0x40 DUP4 ADD DUP7 PUSH2 0x4562 JUMP JUMPDEST PUSH2 0x8F1F PUSH1 0x60 DUP4 ADD DUP6 PUSH2 0x4562 JUMP JUMPDEST DUP2 DUP2 SUB PUSH1 0x80 DUP4 ADD MSTORE PUSH2 0x8F31 DUP2 DUP5 PUSH2 0x8A8D JUMP JUMPDEST SWAP1 POP SWAP7 SWAP6 POP POP POP POP POP POP JUMP JUMPDEST PUSH32 0x455243313135353A2073657474696E6720617070726F76616C20737461747573 PUSH1 0x0 DUP3 ADD MSTORE PUSH32 0x20666F722073656C660000000000000000000000000000000000000000000000 PUSH1 0x20 DUP3 ADD MSTORE POP JUMP JUMPDEST PUSH1 0x0 PUSH2 0x8F99 PUSH1 0x29 DUP4 PUSH2 0x486A JUMP JUMPDEST SWAP2 POP PUSH2 0x8FA4 DUP3 PUSH2 0x8F3D JUMP JUMPDEST PUSH1 0x40 DUP3 ADD SWAP1 POP SWAP2 SWAP1 POP JUMP JUMPDEST PUSH1 0x0 PUSH1 0x20 DUP3 ADD SWAP1 POP DUP2 DUP2 SUB PUSH1 0x0 DUP4 ADD MSTORE PUSH2 0x8FC8 DUP2 PUSH2 0x8F8C JUMP JUMPDEST SWAP1 POP SWAP2 SWAP1 POP JUMP JUMPDEST PUSH1 0x0 PUSH2 0x8FDA DUP3 PUSH2 0x44EC JUMP JUMPDEST SWAP2 POP PUSH2 0x8FE5 DUP4 PUSH2 0x44EC JUMP JUMPDEST SWAP3 POP DUP2 PUSH32 0xFFFFFFFFFFFFFFFFFFFFFFFFFFFFFFFFFFFFFFFFFFFFFFFFFFFFFFFFFFFFFFFF DIV DUP4 GT DUP3 ISZERO ISZERO AND ISZERO PUSH2 0x901E JUMPI PUSH2 0x901D PUSH2 0x6FAE JUMP JUMPDEST JUMPDEST DUP3 DUP3 MUL SWAP1 POP SWAP3 SWAP2 POP POP JUMP JUMPDEST PUSH1 0x0 PUSH2 0x9034 DUP3 PUSH2 0x44EC JUMP JUMPDEST SWAP2 POP PUSH1 0x0 DUP3 SUB PUSH2 0x9047 JUMPI PUSH2 0x9046 PUSH2 0x6FAE JUMP JUMPDEST JUMPDEST PUSH1 0x1 DUP3 SUB SWAP1 POP SWAP2 SWAP1 POP JUMP JUMPDEST PUSH32 0x537472696E67733A20686578206C656E67746820696E73756666696369656E74 PUSH1 0x0 DUP3 ADD MSTORE POP JUMP JUMPDEST PUSH1 0x0 PUSH2 0x9088 PUSH1 0x20 DUP4 PUSH2 0x486A JUMP JUMPDEST SWAP2 POP PUSH2 0x9093 DUP3 PUSH2 0x9052 JUMP JUMPDEST PUSH1 0x20 DUP3 ADD SWAP1 POP SWAP2 SWAP1 POP JUMP JUMPDEST PUSH1 0x0 PUSH1 0x20 DUP3 ADD SWAP1 POP DUP2 DUP2 SUB PUSH1 0x0 DUP4 ADD MSTORE PUSH2 0x90B7 DUP2 PUSH2 0x907B JUMP JUMPDEST SWAP1 POP SWAP2 SWAP1 POP JUMP JUMPDEST PUSH32 0x455243313135353A206275726E20616D6F756E74206578636565647320746F74 PUSH1 0x0 DUP3 ADD MSTORE PUSH32 0x616C537570706C79000000000000000000000000000000000000000000000000 PUSH1 0x20 DUP3 ADD MSTORE POP JUMP JUMPDEST PUSH1 0x0 PUSH2 0x911A PUSH1 0x28 DUP4 PUSH2 0x486A JUMP JUMPDEST SWAP2 POP PUSH2 0x9125 DUP3 PUSH2 0x90BE JUMP JUMPDEST PUSH1 0x40 DUP3 ADD SWAP1 POP SWAP2 SWAP1 POP JUMP JUMPDEST PUSH1 0x0 PUSH1 0x20 DUP3 ADD SWAP1 POP DUP2 DUP2 SUB PUSH1 0x0 DUP4 ADD MSTORE PUSH2 0x9149 DUP2 PUSH2 0x910D JUMP JUMPDEST SWAP1 POP SWAP2 SWAP1 POP JUMP INVALID LOG2 PUSH5 0x6970667358 0x22 SLT KECCAK256 0x29 CALLCODE 0x49 0xC9 0xEB SELFBALANCE PUSH6 0x38C63858C884 0x5E GASPRICE 0xB5 0xC3 0xC6 PUSH28 0xC9E16EF09EB39E07F15575978D64736F6C634300080D003300000000 "
		},
		"gasEstimates": {
			"creation": {
				"codeDepositCost": "7450800",
				"executionCost": "infinite",
				"totalCost": "infinite"
			},
			"external": {
				"DEFAULT_ADMIN_ROLE()": "490",
				"allCancel((address,address,(uint8,address,uint256,uint256,uint256)[],(uint8,address,uint256,uint256,uint256,address)[],uint8,uint256,uint256,bytes32,uint256,bytes32,uint256)[])": "infinite",
				"balanceOf(address,uint256)": "infinite",
				"balanceOfBatch(address[],uint256[])": "infinite",
				"burn(address,uint256,uint256)": "infinite",
				"burnBatch(address,uint256[],uint256[])": "infinite",
				"callFulfillAdvancedOrder(((address,address,(uint8,address,uint256,uint256,uint256)[],(uint8,address,uint256,uint256,uint256,address)[],uint8,uint256,uint256,bytes32,uint256,bytes32,uint256),uint120,uint120,bytes,bytes),(uint256,uint8,uint256,uint256,bytes32[])[],bytes32,address)": "infinite",
				"callFulfillAvailableAdvancedOrders(((address,address,(uint8,address,uint256,uint256,uint256)[],(uint8,address,uint256,uint256,uint256,address)[],uint8,uint256,uint256,bytes32,uint256,bytes32,uint256),uint120,uint120,bytes,bytes)[],(uint256,uint8,uint256,uint256,bytes32[])[],(uint256,uint256)[][],(uint256,uint256)[][],bytes32,address,uint256)": "infinite",
				"callFulfillAvailableOrders(((address,address,(uint8,address,uint256,uint256,uint256)[],(uint8,address,uint256,uint256,uint256,address)[],uint8,uint256,uint256,bytes32,uint256,bytes32,uint256),bytes)[],(uint256,uint256)[][],(uint256,uint256)[][],bytes32,uint256)": "infinite",
				"callGetCounter(address)": "infinite",
				"callGetOrderHash((address,address,(uint8,address,uint256,uint256,uint256)[],(uint8,address,uint256,uint256,uint256,address)[],uint8,uint256,uint256,bytes32,uint256,bytes32,uint256))": "infinite",
				"callGetOrderStatus(bytes32)": "infinite",
				"callIncrementCounter()": "infinite",
				"callMatchAdvancedOrders(((address,address,(uint8,address,uint256,uint256,uint256)[],(uint8,address,uint256,uint256,uint256,address)[],uint8,uint256,uint256,bytes32,uint256,bytes32,uint256),uint120,uint120,bytes,bytes)[],(uint256,uint8,uint256,uint256,bytes32[])[],((uint256,uint256)[],(uint256,uint256)[])[],address)": "infinite",
				"callMatchOrders(((address,address,(uint8,address,uint256,uint256,uint256)[],(uint8,address,uint256,uint256,uint256,address)[],uint8,uint256,uint256,bytes32,uint256,bytes32,uint256),bytes)[],((uint256,uint256)[],(uint256,uint256)[])[])": "infinite",
				"callValidate(((address,address,(uint8,address,uint256,uint256,uint256)[],(uint8,address,uint256,uint256,uint256,address)[],uint8,uint256,uint256,bytes32,uint256,bytes32,uint256),bytes)[])": "infinite",
				"exists(uint256)": "2902",
				"fulfillOrder(((address,address,(uint8,address,uint256,uint256,uint256)[],(uint8,address,uint256,uint256,uint256,address)[],uint8,uint256,uint256,bytes32,uint256,bytes32,uint256),bytes),bytes32)": "infinite",
				"getIdSupply(uint256)": "infinite",
				"getRoleAdmin(bytes32)": "infinite",
				"getRoleAdmin(string)": "infinite",
				"getURIOfId(uint256)": "infinite",
				"grantPublisher(string,address)": "infinite",
				"grantRole(bytes32,address)": "infinite",
				"hasRole(bytes32,address)": "3273",
				"hasRole(string,address)": "infinite",
				"idExists(uint256)": "2924",
				"initialize()": "infinite",
				"isApprovedForAll(address,address)": "infinite",
				"mint(address,uint256,uint256,bytes)": "infinite",
				"mintBatch(address,uint256[],uint256[],bytes)": "infinite",
				"pause()": "infinite",
				"paused()": "2634",
				"renounceRole(bytes32,address)": "infinite",
				"revokePublisher(string,address)": "infinite",
				"revokeRole(bytes32,address)": "infinite",
				"safeBatchTransferFrom(address,address,uint256[],uint256[],bytes)": "infinite",
				"safeTransferFrom(address,address,uint256,uint256,bytes)": "infinite",
				"setApprovalForAll(address,bool)": "infinite",
				"setIdToPublisher(uint256,string)": "infinite",
				"setURI(string)": "infinite",
				"supportsInterface(bytes4)": "996",
				"totalSupply(uint256)": "infinite",
				"transfer(address,address,uint256,uint256,bytes)": "infinite",
				"transferBatch(address,address,uint256[],uint256[],bytes)": "infinite",
				"unpause()": "infinite",
				"uri(uint256)": "infinite"
			},
			"internal": {
				"_beforeTokenTransfer(address,address,address,uint256[] memory,uint256[] memory,bytes memory)": "infinite"
			}
		},
		"methodIdentifiers": {
			"DEFAULT_ADMIN_ROLE()": "a217fddf",
			"allCancel((address,address,(uint8,address,uint256,uint256,uint256)[],(uint8,address,uint256,uint256,uint256,address)[],uint8,uint256,uint256,bytes32,uint256,bytes32,uint256)[])": "dfd3cb73",
			"balanceOf(address,uint256)": "00fdd58e",
			"balanceOfBatch(address[],uint256[])": "4e1273f4",
			"burn(address,uint256,uint256)": "f5298aca",
			"burnBatch(address,uint256[],uint256[])": "6b20c454",
			"callFulfillAdvancedOrder(((address,address,(uint8,address,uint256,uint256,uint256)[],(uint8,address,uint256,uint256,uint256,address)[],uint8,uint256,uint256,bytes32,uint256,bytes32,uint256),uint120,uint120,bytes,bytes),(uint256,uint8,uint256,uint256,bytes32[])[],bytes32,address)": "8c52e857",
			"callFulfillAvailableAdvancedOrders(((address,address,(uint8,address,uint256,uint256,uint256)[],(uint8,address,uint256,uint256,uint256,address)[],uint8,uint256,uint256,bytes32,uint256,bytes32,uint256),uint120,uint120,bytes,bytes)[],(uint256,uint8,uint256,uint256,bytes32[])[],(uint256,uint256)[][],(uint256,uint256)[][],bytes32,address,uint256)": "50863e8a",
			"callFulfillAvailableOrders(((address,address,(uint8,address,uint256,uint256,uint256)[],(uint8,address,uint256,uint256,uint256,address)[],uint8,uint256,uint256,bytes32,uint256,bytes32,uint256),bytes)[],(uint256,uint256)[][],(uint256,uint256)[][],bytes32,uint256)": "3c1dadd9",
			"callGetCounter(address)": "e0e0a2c5",
			"callGetOrderHash((address,address,(uint8,address,uint256,uint256,uint256)[],(uint8,address,uint256,uint256,uint256,address)[],uint8,uint256,uint256,bytes32,uint256,bytes32,uint256))": "ca36fc91",
			"callGetOrderStatus(bytes32)": "6543908f",
			"callIncrementCounter()": "ef7992bb",
			"callMatchAdvancedOrders(((address,address,(uint8,address,uint256,uint256,uint256)[],(uint8,address,uint256,uint256,uint256,address)[],uint8,uint256,uint256,bytes32,uint256,bytes32,uint256),uint120,uint120,bytes,bytes)[],(uint256,uint8,uint256,uint256,bytes32[])[],((uint256,uint256)[],(uint256,uint256)[])[],address)": "bdc55bc6",
			"callMatchOrders(((address,address,(uint8,address,uint256,uint256,uint256)[],(uint8,address,uint256,uint256,uint256,address)[],uint8,uint256,uint256,bytes32,uint256,bytes32,uint256),bytes)[],((uint256,uint256)[],(uint256,uint256)[])[])": "192c9ef2",
			"callValidate(((address,address,(uint8,address,uint256,uint256,uint256)[],(uint8,address,uint256,uint256,uint256,address)[],uint8,uint256,uint256,bytes32,uint256,bytes32,uint256),bytes)[])": "7d551b23",
			"exists(uint256)": "4f558e79",
			"fulfillOrder(((address,address,(uint8,address,uint256,uint256,uint256)[],(uint8,address,uint256,uint256,uint256,address)[],uint8,uint256,uint256,bytes32,uint256,bytes32,uint256),bytes),bytes32)": "b3a34c4c",
			"getIdSupply(uint256)": "5a9807be",
			"getRoleAdmin(bytes32)": "248a9ca3",
			"getRoleAdmin(string)": "672a41a1",
			"getURIOfId(uint256)": "0807a3bd",
			"grantPublisher(string,address)": "52509e97",
			"grantRole(bytes32,address)": "2f2ff15d",
			"hasRole(bytes32,address)": "91d14854",
			"hasRole(string,address)": "6c9cd097",
			"idExists(uint256)": "0b8a295a",
			"initialize()": "8129fc1c",
			"isApprovedForAll(address,address)": "e985e9c5",
			"mint(address,uint256,uint256,bytes)": "731133e9",
			"mintBatch(address,uint256[],uint256[],bytes)": "1f7fdffa",
			"pause()": "8456cb59",
			"paused()": "5c975abb",
			"renounceRole(bytes32,address)": "36568abe",
			"revokePublisher(string,address)": "1286c46d",
			"revokeRole(bytes32,address)": "d547741f",
			"safeBatchTransferFrom(address,address,uint256[],uint256[],bytes)": "2eb2c2d6",
			"safeTransferFrom(address,address,uint256,uint256,bytes)": "f242432a",
			"setApprovalForAll(address,bool)": "a22cb465",
			"setIdToPublisher(uint256,string)": "01ad63bd",
			"setURI(string)": "02fe5305",
			"supportsInterface(bytes4)": "01ffc9a7",
			"totalSupply(uint256)": "bd85b039",
			"transfer(address,address,uint256,uint256,bytes)": "127217d6",
			"transferBatch(address,address,uint256[],uint256[],bytes)": "6fcfcb66",
			"unpause()": "3f4ba83a",
			"uri(uint256)": "0e89341c"
		}
	},
	"abi": [
		{
			"inputs": [],
			"stateMutability": "nonpayable",
			"type": "constructor"
		},
		{
			"anonymous": false,
			"inputs": [
				{
					"indexed": true,
					"internalType": "address",
					"name": "account",
					"type": "address"
				},
				{
					"indexed": true,
					"internalType": "address",
					"name": "operator",
					"type": "address"
				},
				{
					"indexed": false,
					"internalType": "bool",
					"name": "approved",
					"type": "bool"
				}
			],
			"name": "ApprovalForAll",
			"type": "event"
		},
		{
			"anonymous": false,
			"inputs": [
				{
					"indexed": false,
					"internalType": "uint8",
					"name": "version",
					"type": "uint8"
				}
			],
			"name": "Initialized",
			"type": "event"
		},
		{
			"anonymous": false,
			"inputs": [
				{
					"indexed": false,
					"internalType": "address",
					"name": "account",
					"type": "address"
				}
			],
			"name": "Paused",
			"type": "event"
		},
		{
			"anonymous": false,
			"inputs": [
				{
					"indexed": true,
					"internalType": "bytes32",
					"name": "role",
					"type": "bytes32"
				},
				{
					"indexed": true,
					"internalType": "bytes32",
					"name": "previousAdminRole",
					"type": "bytes32"
				},
				{
					"indexed": true,
					"internalType": "bytes32",
					"name": "newAdminRole",
					"type": "bytes32"
				}
			],
			"name": "RoleAdminChanged",
			"type": "event"
		},
		{
			"anonymous": false,
			"inputs": [
				{
					"indexed": true,
					"internalType": "bytes32",
					"name": "role",
					"type": "bytes32"
				},
				{
					"indexed": true,
					"internalType": "address",
					"name": "account",
					"type": "address"
				},
				{
					"indexed": true,
					"internalType": "address",
					"name": "sender",
					"type": "address"
				}
			],
			"name": "RoleGranted",
			"type": "event"
		},
		{
			"anonymous": false,
			"inputs": [
				{
					"indexed": true,
					"internalType": "bytes32",
					"name": "role",
					"type": "bytes32"
				},
				{
					"indexed": true,
					"internalType": "address",
					"name": "account",
					"type": "address"
				},
				{
					"indexed": true,
					"internalType": "address",
					"name": "sender",
					"type": "address"
				}
			],
			"name": "RoleRevoked",
			"type": "event"
		},
		{
			"anonymous": false,
			"inputs": [
				{
					"indexed": true,
					"internalType": "address",
					"name": "operator",
					"type": "address"
				},
				{
					"indexed": true,
					"internalType": "address",
					"name": "from",
					"type": "address"
				},
				{
					"indexed": true,
					"internalType": "address",
					"name": "to",
					"type": "address"
				},
				{
					"indexed": false,
					"internalType": "uint256[]",
					"name": "ids",
					"type": "uint256[]"
				},
				{
					"indexed": false,
					"internalType": "uint256[]",
					"name": "values",
					"type": "uint256[]"
				}
			],
			"name": "TransferBatch",
			"type": "event"
		},
		{
			"anonymous": false,
			"inputs": [
				{
					"indexed": true,
					"internalType": "address",
					"name": "operator",
					"type": "address"
				},
				{
					"indexed": true,
					"internalType": "address",
					"name": "from",
					"type": "address"
				},
				{
					"indexed": true,
					"internalType": "address",
					"name": "to",
					"type": "address"
				},
				{
					"indexed": false,
					"internalType": "uint256",
					"name": "id",
					"type": "uint256"
				},
				{
					"indexed": false,
					"internalType": "uint256",
					"name": "value",
					"type": "uint256"
				}
			],
			"name": "TransferSingle",
			"type": "event"
		},
		{
			"anonymous": false,
			"inputs": [
				{
					"indexed": false,
					"internalType": "string",
					"name": "value",
					"type": "string"
				},
				{
					"indexed": true,
					"internalType": "uint256",
					"name": "id",
					"type": "uint256"
				}
			],
			"name": "URI",
			"type": "event"
		},
		{
			"anonymous": false,
			"inputs": [
				{
					"indexed": false,
					"internalType": "address",
					"name": "account",
					"type": "address"
				}
			],
			"name": "Unpaused",
			"type": "event"
		},
		{
			"inputs": [],
			"name": "DEFAULT_ADMIN_ROLE",
			"outputs": [
				{
					"internalType": "bytes32",
					"name": "",
					"type": "bytes32"
				}
			],
			"stateMutability": "view",
			"type": "function"
		},
		{
			"inputs": [
				{
					"components": [
						{
							"internalType": "address",
							"name": "offerer",
							"type": "address"
						},
						{
							"internalType": "address",
							"name": "zone",
							"type": "address"
						},
						{
							"components": [
								{
									"internalType": "enum ItemType",
									"name": "itemType",
									"type": "uint8"
								},
								{
									"internalType": "address",
									"name": "token",
									"type": "address"
								},
								{
									"internalType": "uint256",
									"name": "identifierOrCriteria",
									"type": "uint256"
								},
								{
									"internalType": "uint256",
									"name": "startAmount",
									"type": "uint256"
								},
								{
									"internalType": "uint256",
									"name": "endAmount",
									"type": "uint256"
								}
							],
							"internalType": "struct OfferItem[]",
							"name": "offer",
							"type": "tuple[]"
						},
						{
							"components": [
								{
									"internalType": "enum ItemType",
									"name": "itemType",
									"type": "uint8"
								},
								{
									"internalType": "address",
									"name": "token",
									"type": "address"
								},
								{
									"internalType": "uint256",
									"name": "identifierOrCriteria",
									"type": "uint256"
								},
								{
									"internalType": "uint256",
									"name": "startAmount",
									"type": "uint256"
								},
								{
									"internalType": "uint256",
									"name": "endAmount",
									"type": "uint256"
								},
								{
									"internalType": "address payable",
									"name": "recipient",
									"type": "address"
								}
							],
							"internalType": "struct ConsiderationItem[]",
							"name": "consideration",
							"type": "tuple[]"
						},
						{
							"internalType": "enum OrderType",
							"name": "orderType",
							"type": "uint8"
						},
						{
							"internalType": "uint256",
							"name": "startTime",
							"type": "uint256"
						},
						{
							"internalType": "uint256",
							"name": "endTime",
							"type": "uint256"
						},
						{
							"internalType": "bytes32",
							"name": "zoneHash",
							"type": "bytes32"
						},
						{
							"internalType": "uint256",
							"name": "salt",
							"type": "uint256"
						},
						{
							"internalType": "bytes32",
							"name": "conduitKey",
							"type": "bytes32"
						},
						{
							"internalType": "uint256",
							"name": "counter",
							"type": "uint256"
						}
					],
					"internalType": "struct OrderComponents[]",
					"name": "orders",
					"type": "tuple[]"
				}
			],
			"name": "allCancel",
			"outputs": [
				{
					"internalType": "bool",
					"name": "cancelled",
					"type": "bool"
				}
			],
			"stateMutability": "nonpayable",
			"type": "function"
		},
		{
			"inputs": [
				{
					"internalType": "address",
					"name": "account",
					"type": "address"
				},
				{
					"internalType": "uint256",
					"name": "id",
					"type": "uint256"
				}
			],
			"name": "balanceOf",
			"outputs": [
				{
					"internalType": "uint256",
					"name": "balance",
					"type": "uint256"
				}
			],
			"stateMutability": "view",
			"type": "function"
		},
		{
			"inputs": [
				{
					"internalType": "address[]",
					"name": "accounts",
					"type": "address[]"
				},
				{
					"internalType": "uint256[]",
					"name": "ids",
					"type": "uint256[]"
				}
			],
			"name": "balanceOfBatch",
			"outputs": [
				{
					"internalType": "uint256[]",
					"name": "",
					"type": "uint256[]"
				}
			],
			"stateMutability": "view",
			"type": "function"
		},
		{
			"inputs": [
				{
					"internalType": "address",
					"name": "from",
					"type": "address"
				},
				{
					"internalType": "uint256",
					"name": "id",
					"type": "uint256"
				},
				{
					"internalType": "uint256",
					"name": "amount",
					"type": "uint256"
				}
			],
			"name": "burn",
			"outputs": [],
			"stateMutability": "nonpayable",
			"type": "function"
		},
		{
			"inputs": [
				{
					"internalType": "address",
					"name": "account",
					"type": "address"
				},
				{
					"internalType": "uint256[]",
					"name": "ids",
					"type": "uint256[]"
				},
				{
					"internalType": "uint256[]",
					"name": "amounts",
					"type": "uint256[]"
				}
			],
			"name": "burnBatch",
			"outputs": [],
			"stateMutability": "nonpayable",
			"type": "function"
		},
		{
			"inputs": [
				{
					"components": [
						{
							"components": [
								{
									"internalType": "address",
									"name": "offerer",
									"type": "address"
								},
								{
									"internalType": "address",
									"name": "zone",
									"type": "address"
								},
								{
									"components": [
										{
											"internalType": "enum ItemType",
											"name": "itemType",
											"type": "uint8"
										},
										{
											"internalType": "address",
											"name": "token",
											"type": "address"
										},
										{
											"internalType": "uint256",
											"name": "identifierOrCriteria",
											"type": "uint256"
										},
										{
											"internalType": "uint256",
											"name": "startAmount",
											"type": "uint256"
										},
										{
											"internalType": "uint256",
											"name": "endAmount",
											"type": "uint256"
										}
									],
									"internalType": "struct OfferItem[]",
									"name": "offer",
									"type": "tuple[]"
								},
								{
									"components": [
										{
											"internalType": "enum ItemType",
											"name": "itemType",
											"type": "uint8"
										},
										{
											"internalType": "address",
											"name": "token",
											"type": "address"
										},
										{
											"internalType": "uint256",
											"name": "identifierOrCriteria",
											"type": "uint256"
										},
										{
											"internalType": "uint256",
											"name": "startAmount",
											"type": "uint256"
										},
										{
											"internalType": "uint256",
											"name": "endAmount",
											"type": "uint256"
										},
										{
											"internalType": "address payable",
											"name": "recipient",
											"type": "address"
										}
									],
									"internalType": "struct ConsiderationItem[]",
									"name": "consideration",
									"type": "tuple[]"
								},
								{
									"internalType": "enum OrderType",
									"name": "orderType",
									"type": "uint8"
								},
								{
									"internalType": "uint256",
									"name": "startTime",
									"type": "uint256"
								},
								{
									"internalType": "uint256",
									"name": "endTime",
									"type": "uint256"
								},
								{
									"internalType": "bytes32",
									"name": "zoneHash",
									"type": "bytes32"
								},
								{
									"internalType": "uint256",
									"name": "salt",
									"type": "uint256"
								},
								{
									"internalType": "bytes32",
									"name": "conduitKey",
									"type": "bytes32"
								},
								{
									"internalType": "uint256",
									"name": "totalOriginalConsiderationItems",
									"type": "uint256"
								}
							],
							"internalType": "struct OrderParameters",
							"name": "parameters",
							"type": "tuple"
						},
						{
							"internalType": "uint120",
							"name": "numerator",
							"type": "uint120"
						},
						{
							"internalType": "uint120",
							"name": "denominator",
							"type": "uint120"
						},
						{
							"internalType": "bytes",
							"name": "signature",
							"type": "bytes"
						},
						{
							"internalType": "bytes",
							"name": "extraData",
							"type": "bytes"
						}
					],
					"internalType": "struct AdvancedOrder",
					"name": "advancedOrder",
					"type": "tuple"
				},
				{
					"components": [
						{
							"internalType": "uint256",
							"name": "orderIndex",
							"type": "uint256"
						},
						{
							"internalType": "enum Side",
							"name": "side",
							"type": "uint8"
						},
						{
							"internalType": "uint256",
							"name": "index",
							"type": "uint256"
						},
						{
							"internalType": "uint256",
							"name": "identifier",
							"type": "uint256"
						},
						{
							"internalType": "bytes32[]",
							"name": "criteriaProof",
							"type": "bytes32[]"
						}
					],
					"internalType": "struct CriteriaResolver[]",
					"name": "criteriaResolvers",
					"type": "tuple[]"
				},
				{
					"internalType": "bytes32",
					"name": "fulfillerConduitKey",
					"type": "bytes32"
				},
				{
					"internalType": "address",
					"name": "recipient",
					"type": "address"
				}
			],
			"name": "callFulfillAdvancedOrder",
			"outputs": [
				{
					"internalType": "bool",
					"name": "fulfilled",
					"type": "bool"
				}
			],
			"stateMutability": "payable",
			"type": "function"
		},
		{
			"inputs": [
				{
					"components": [
						{
							"components": [
								{
									"internalType": "address",
									"name": "offerer",
									"type": "address"
								},
								{
									"internalType": "address",
									"name": "zone",
									"type": "address"
								},
								{
									"components": [
										{
											"internalType": "enum ItemType",
											"name": "itemType",
											"type": "uint8"
										},
										{
											"internalType": "address",
											"name": "token",
											"type": "address"
										},
										{
											"internalType": "uint256",
											"name": "identifierOrCriteria",
											"type": "uint256"
										},
										{
											"internalType": "uint256",
											"name": "startAmount",
											"type": "uint256"
										},
										{
											"internalType": "uint256",
											"name": "endAmount",
											"type": "uint256"
										}
									],
									"internalType": "struct OfferItem[]",
									"name": "offer",
									"type": "tuple[]"
								},
								{
									"components": [
										{
											"internalType": "enum ItemType",
											"name": "itemType",
											"type": "uint8"
										},
										{
											"internalType": "address",
											"name": "token",
											"type": "address"
										},
										{
											"internalType": "uint256",
											"name": "identifierOrCriteria",
											"type": "uint256"
										},
										{
											"internalType": "uint256",
											"name": "startAmount",
											"type": "uint256"
										},
										{
											"internalType": "uint256",
											"name": "endAmount",
											"type": "uint256"
										},
										{
											"internalType": "address payable",
											"name": "recipient",
											"type": "address"
										}
									],
									"internalType": "struct ConsiderationItem[]",
									"name": "consideration",
									"type": "tuple[]"
								},
								{
									"internalType": "enum OrderType",
									"name": "orderType",
									"type": "uint8"
								},
								{
									"internalType": "uint256",
									"name": "startTime",
									"type": "uint256"
								},
								{
									"internalType": "uint256",
									"name": "endTime",
									"type": "uint256"
								},
								{
									"internalType": "bytes32",
									"name": "zoneHash",
									"type": "bytes32"
								},
								{
									"internalType": "uint256",
									"name": "salt",
									"type": "uint256"
								},
								{
									"internalType": "bytes32",
									"name": "conduitKey",
									"type": "bytes32"
								},
								{
									"internalType": "uint256",
									"name": "totalOriginalConsiderationItems",
									"type": "uint256"
								}
							],
							"internalType": "struct OrderParameters",
							"name": "parameters",
							"type": "tuple"
						},
						{
							"internalType": "uint120",
							"name": "numerator",
							"type": "uint120"
						},
						{
							"internalType": "uint120",
							"name": "denominator",
							"type": "uint120"
						},
						{
							"internalType": "bytes",
							"name": "signature",
							"type": "bytes"
						},
						{
							"internalType": "bytes",
							"name": "extraData",
							"type": "bytes"
						}
					],
					"internalType": "struct AdvancedOrder[]",
					"name": "advancedOrders",
					"type": "tuple[]"
				},
				{
					"components": [
						{
							"internalType": "uint256",
							"name": "orderIndex",
							"type": "uint256"
						},
						{
							"internalType": "enum Side",
							"name": "side",
							"type": "uint8"
						},
						{
							"internalType": "uint256",
							"name": "index",
							"type": "uint256"
						},
						{
							"internalType": "uint256",
							"name": "identifier",
							"type": "uint256"
						},
						{
							"internalType": "bytes32[]",
							"name": "criteriaProof",
							"type": "bytes32[]"
						}
					],
					"internalType": "struct CriteriaResolver[]",
					"name": "criteriaResolvers",
					"type": "tuple[]"
				},
				{
					"components": [
						{
							"internalType": "uint256",
							"name": "orderIndex",
							"type": "uint256"
						},
						{
							"internalType": "uint256",
							"name": "itemIndex",
							"type": "uint256"
						}
					],
					"internalType": "struct FulfillmentComponent[][]",
					"name": "offerFulfillments",
					"type": "tuple[][]"
				},
				{
					"components": [
						{
							"internalType": "uint256",
							"name": "orderIndex",
							"type": "uint256"
						},
						{
							"internalType": "uint256",
							"name": "itemIndex",
							"type": "uint256"
						}
					],
					"internalType": "struct FulfillmentComponent[][]",
					"name": "considerationFulfillments",
					"type": "tuple[][]"
				},
				{
					"internalType": "bytes32",
					"name": "fulfillerConduitKey",
					"type": "bytes32"
				},
				{
					"internalType": "address",
					"name": "recipient",
					"type": "address"
				},
				{
					"internalType": "uint256",
					"name": "maximumFulfilled",
					"type": "uint256"
				}
			],
			"name": "callFulfillAvailableAdvancedOrders",
			"outputs": [
				{
					"internalType": "bool[]",
					"name": "availableOrders",
					"type": "bool[]"
				},
				{
					"components": [
						{
							"components": [
								{
									"internalType": "enum ItemType",
									"name": "itemType",
									"type": "uint8"
								},
								{
									"internalType": "address",
									"name": "token",
									"type": "address"
								},
								{
									"internalType": "uint256",
									"name": "identifier",
									"type": "uint256"
								},
								{
									"internalType": "uint256",
									"name": "amount",
									"type": "uint256"
								},
								{
									"internalType": "address payable",
									"name": "recipient",
									"type": "address"
								}
							],
							"internalType": "struct ReceivedItem",
							"name": "item",
							"type": "tuple"
						},
						{
							"internalType": "address",
							"name": "offerer",
							"type": "address"
						},
						{
							"internalType": "bytes32",
							"name": "conduitKey",
							"type": "bytes32"
						}
					],
					"internalType": "struct Execution[]",
					"name": "executions",
					"type": "tuple[]"
				}
			],
			"stateMutability": "payable",
			"type": "function"
		},
		{
			"inputs": [
				{
					"components": [
						{
							"components": [
								{
									"internalType": "address",
									"name": "offerer",
									"type": "address"
								},
								{
									"internalType": "address",
									"name": "zone",
									"type": "address"
								},
								{
									"components": [
										{
											"internalType": "enum ItemType",
											"name": "itemType",
											"type": "uint8"
										},
										{
											"internalType": "address",
											"name": "token",
											"type": "address"
										},
										{
											"internalType": "uint256",
											"name": "identifierOrCriteria",
											"type": "uint256"
										},
										{
											"internalType": "uint256",
											"name": "startAmount",
											"type": "uint256"
										},
										{
											"internalType": "uint256",
											"name": "endAmount",
											"type": "uint256"
										}
									],
									"internalType": "struct OfferItem[]",
									"name": "offer",
									"type": "tuple[]"
								},
								{
									"components": [
										{
											"internalType": "enum ItemType",
											"name": "itemType",
											"type": "uint8"
										},
										{
											"internalType": "address",
											"name": "token",
											"type": "address"
										},
										{
											"internalType": "uint256",
											"name": "identifierOrCriteria",
											"type": "uint256"
										},
										{
											"internalType": "uint256",
											"name": "startAmount",
											"type": "uint256"
										},
										{
											"internalType": "uint256",
											"name": "endAmount",
											"type": "uint256"
										},
										{
											"internalType": "address payable",
											"name": "recipient",
											"type": "address"
										}
									],
									"internalType": "struct ConsiderationItem[]",
									"name": "consideration",
									"type": "tuple[]"
								},
								{
									"internalType": "enum OrderType",
									"name": "orderType",
									"type": "uint8"
								},
								{
									"internalType": "uint256",
									"name": "startTime",
									"type": "uint256"
								},
								{
									"internalType": "uint256",
									"name": "endTime",
									"type": "uint256"
								},
								{
									"internalType": "bytes32",
									"name": "zoneHash",
									"type": "bytes32"
								},
								{
									"internalType": "uint256",
									"name": "salt",
									"type": "uint256"
								},
								{
									"internalType": "bytes32",
									"name": "conduitKey",
									"type": "bytes32"
								},
								{
									"internalType": "uint256",
									"name": "totalOriginalConsiderationItems",
									"type": "uint256"
								}
							],
							"internalType": "struct OrderParameters",
							"name": "parameters",
							"type": "tuple"
						},
						{
							"internalType": "bytes",
							"name": "signature",
							"type": "bytes"
						}
					],
					"internalType": "struct Order[]",
					"name": "orders",
					"type": "tuple[]"
				},
				{
					"components": [
						{
							"internalType": "uint256",
							"name": "orderIndex",
							"type": "uint256"
						},
						{
							"internalType": "uint256",
							"name": "itemIndex",
							"type": "uint256"
						}
					],
					"internalType": "struct FulfillmentComponent[][]",
					"name": "offerFulfillments",
					"type": "tuple[][]"
				},
				{
					"components": [
						{
							"internalType": "uint256",
							"name": "orderIndex",
							"type": "uint256"
						},
						{
							"internalType": "uint256",
							"name": "itemIndex",
							"type": "uint256"
						}
					],
					"internalType": "struct FulfillmentComponent[][]",
					"name": "considerationFulfillments",
					"type": "tuple[][]"
				},
				{
					"internalType": "bytes32",
					"name": "fulfillerConduitKey",
					"type": "bytes32"
				},
				{
					"internalType": "uint256",
					"name": "maximumFulfilled",
					"type": "uint256"
				}
			],
			"name": "callFulfillAvailableOrders",
			"outputs": [
				{
					"internalType": "bool[]",
					"name": "availableOrders",
					"type": "bool[]"
				},
				{
					"components": [
						{
							"components": [
								{
									"internalType": "enum ItemType",
									"name": "itemType",
									"type": "uint8"
								},
								{
									"internalType": "address",
									"name": "token",
									"type": "address"
								},
								{
									"internalType": "uint256",
									"name": "identifier",
									"type": "uint256"
								},
								{
									"internalType": "uint256",
									"name": "amount",
									"type": "uint256"
								},
								{
									"internalType": "address payable",
									"name": "recipient",
									"type": "address"
								}
							],
							"internalType": "struct ReceivedItem",
							"name": "item",
							"type": "tuple"
						},
						{
							"internalType": "address",
							"name": "offerer",
							"type": "address"
						},
						{
							"internalType": "bytes32",
							"name": "conduitKey",
							"type": "bytes32"
						}
					],
					"internalType": "struct Execution[]",
					"name": "executions",
					"type": "tuple[]"
				}
			],
			"stateMutability": "payable",
			"type": "function"
		},
		{
			"inputs": [
				{
					"internalType": "address",
					"name": "offerer",
					"type": "address"
				}
			],
			"name": "callGetCounter",
			"outputs": [
				{
					"internalType": "uint256",
					"name": "counter",
					"type": "uint256"
				}
			],
			"stateMutability": "view",
			"type": "function"
		},
		{
			"inputs": [
				{
					"components": [
						{
							"internalType": "address",
							"name": "offerer",
							"type": "address"
						},
						{
							"internalType": "address",
							"name": "zone",
							"type": "address"
						},
						{
							"components": [
								{
									"internalType": "enum ItemType",
									"name": "itemType",
									"type": "uint8"
								},
								{
									"internalType": "address",
									"name": "token",
									"type": "address"
								},
								{
									"internalType": "uint256",
									"name": "identifierOrCriteria",
									"type": "uint256"
								},
								{
									"internalType": "uint256",
									"name": "startAmount",
									"type": "uint256"
								},
								{
									"internalType": "uint256",
									"name": "endAmount",
									"type": "uint256"
								}
							],
							"internalType": "struct OfferItem[]",
							"name": "offer",
							"type": "tuple[]"
						},
						{
							"components": [
								{
									"internalType": "enum ItemType",
									"name": "itemType",
									"type": "uint8"
								},
								{
									"internalType": "address",
									"name": "token",
									"type": "address"
								},
								{
									"internalType": "uint256",
									"name": "identifierOrCriteria",
									"type": "uint256"
								},
								{
									"internalType": "uint256",
									"name": "startAmount",
									"type": "uint256"
								},
								{
									"internalType": "uint256",
									"name": "endAmount",
									"type": "uint256"
								},
								{
									"internalType": "address payable",
									"name": "recipient",
									"type": "address"
								}
							],
							"internalType": "struct ConsiderationItem[]",
							"name": "consideration",
							"type": "tuple[]"
						},
						{
							"internalType": "enum OrderType",
							"name": "orderType",
							"type": "uint8"
						},
						{
							"internalType": "uint256",
							"name": "startTime",
							"type": "uint256"
						},
						{
							"internalType": "uint256",
							"name": "endTime",
							"type": "uint256"
						},
						{
							"internalType": "bytes32",
							"name": "zoneHash",
							"type": "bytes32"
						},
						{
							"internalType": "uint256",
							"name": "salt",
							"type": "uint256"
						},
						{
							"internalType": "bytes32",
							"name": "conduitKey",
							"type": "bytes32"
						},
						{
							"internalType": "uint256",
							"name": "counter",
							"type": "uint256"
						}
					],
					"internalType": "struct OrderComponents",
					"name": "order",
					"type": "tuple"
				}
			],
			"name": "callGetOrderHash",
			"outputs": [
				{
					"internalType": "bytes32",
					"name": "orderHash",
					"type": "bytes32"
				}
			],
			"stateMutability": "view",
			"type": "function"
		},
		{
			"inputs": [
				{
					"internalType": "bytes32",
					"name": "orderHash",
					"type": "bytes32"
				}
			],
			"name": "callGetOrderStatus",
			"outputs": [
				{
					"internalType": "bool",
					"name": "isValidated",
					"type": "bool"
				},
				{
					"internalType": "bool",
					"name": "isCancelled",
					"type": "bool"
				},
				{
					"internalType": "uint256",
					"name": "totalFilled",
					"type": "uint256"
				},
				{
					"internalType": "uint256",
					"name": "totalSize",
					"type": "uint256"
				}
			],
			"stateMutability": "view",
			"type": "function"
		},
		{
			"inputs": [],
			"name": "callIncrementCounter",
			"outputs": [
				{
					"internalType": "uint256",
					"name": "newCounter",
					"type": "uint256"
				}
			],
			"stateMutability": "nonpayable",
			"type": "function"
		},
		{
			"inputs": [
				{
					"components": [
						{
							"components": [
								{
									"internalType": "address",
									"name": "offerer",
									"type": "address"
								},
								{
									"internalType": "address",
									"name": "zone",
									"type": "address"
								},
								{
									"components": [
										{
											"internalType": "enum ItemType",
											"name": "itemType",
											"type": "uint8"
										},
										{
											"internalType": "address",
											"name": "token",
											"type": "address"
										},
										{
											"internalType": "uint256",
											"name": "identifierOrCriteria",
											"type": "uint256"
										},
										{
											"internalType": "uint256",
											"name": "startAmount",
											"type": "uint256"
										},
										{
											"internalType": "uint256",
											"name": "endAmount",
											"type": "uint256"
										}
									],
									"internalType": "struct OfferItem[]",
									"name": "offer",
									"type": "tuple[]"
								},
								{
									"components": [
										{
											"internalType": "enum ItemType",
											"name": "itemType",
											"type": "uint8"
										},
										{
											"internalType": "address",
											"name": "token",
											"type": "address"
										},
										{
											"internalType": "uint256",
											"name": "identifierOrCriteria",
											"type": "uint256"
										},
										{
											"internalType": "uint256",
											"name": "startAmount",
											"type": "uint256"
										},
										{
											"internalType": "uint256",
											"name": "endAmount",
											"type": "uint256"
										},
										{
											"internalType": "address payable",
											"name": "recipient",
											"type": "address"
										}
									],
									"internalType": "struct ConsiderationItem[]",
									"name": "consideration",
									"type": "tuple[]"
								},
								{
									"internalType": "enum OrderType",
									"name": "orderType",
									"type": "uint8"
								},
								{
									"internalType": "uint256",
									"name": "startTime",
									"type": "uint256"
								},
								{
									"internalType": "uint256",
									"name": "endTime",
									"type": "uint256"
								},
								{
									"internalType": "bytes32",
									"name": "zoneHash",
									"type": "bytes32"
								},
								{
									"internalType": "uint256",
									"name": "salt",
									"type": "uint256"
								},
								{
									"internalType": "bytes32",
									"name": "conduitKey",
									"type": "bytes32"
								},
								{
									"internalType": "uint256",
									"name": "totalOriginalConsiderationItems",
									"type": "uint256"
								}
							],
							"internalType": "struct OrderParameters",
							"name": "parameters",
							"type": "tuple"
						},
						{
							"internalType": "uint120",
							"name": "numerator",
							"type": "uint120"
						},
						{
							"internalType": "uint120",
							"name": "denominator",
							"type": "uint120"
						},
						{
							"internalType": "bytes",
							"name": "signature",
							"type": "bytes"
						},
						{
							"internalType": "bytes",
							"name": "extraData",
							"type": "bytes"
						}
					],
					"internalType": "struct AdvancedOrder[]",
					"name": "orders",
					"type": "tuple[]"
				},
				{
					"components": [
						{
							"internalType": "uint256",
							"name": "orderIndex",
							"type": "uint256"
						},
						{
							"internalType": "enum Side",
							"name": "side",
							"type": "uint8"
						},
						{
							"internalType": "uint256",
							"name": "index",
							"type": "uint256"
						},
						{
							"internalType": "uint256",
							"name": "identifier",
							"type": "uint256"
						},
						{
							"internalType": "bytes32[]",
							"name": "criteriaProof",
							"type": "bytes32[]"
						}
					],
					"internalType": "struct CriteriaResolver[]",
					"name": "criteriaResolvers",
					"type": "tuple[]"
				},
				{
					"components": [
						{
							"components": [
								{
									"internalType": "uint256",
									"name": "orderIndex",
									"type": "uint256"
								},
								{
									"internalType": "uint256",
									"name": "itemIndex",
									"type": "uint256"
								}
							],
							"internalType": "struct FulfillmentComponent[]",
							"name": "offerComponents",
							"type": "tuple[]"
						},
						{
							"components": [
								{
									"internalType": "uint256",
									"name": "orderIndex",
									"type": "uint256"
								},
								{
									"internalType": "uint256",
									"name": "itemIndex",
									"type": "uint256"
								}
							],
							"internalType": "struct FulfillmentComponent[]",
							"name": "considerationComponents",
							"type": "tuple[]"
						}
					],
					"internalType": "struct Fulfillment[]",
					"name": "fulfillments",
					"type": "tuple[]"
				},
				{
					"internalType": "address",
					"name": "recipient",
					"type": "address"
				}
			],
			"name": "callMatchAdvancedOrders",
			"outputs": [
				{
					"components": [
						{
							"components": [
								{
									"internalType": "enum ItemType",
									"name": "itemType",
									"type": "uint8"
								},
								{
									"internalType": "address",
									"name": "token",
									"type": "address"
								},
								{
									"internalType": "uint256",
									"name": "identifier",
									"type": "uint256"
								},
								{
									"internalType": "uint256",
									"name": "amount",
									"type": "uint256"
								},
								{
									"internalType": "address payable",
									"name": "recipient",
									"type": "address"
								}
							],
							"internalType": "struct ReceivedItem",
							"name": "item",
							"type": "tuple"
						},
						{
							"internalType": "address",
							"name": "offerer",
							"type": "address"
						},
						{
							"internalType": "bytes32",
							"name": "conduitKey",
							"type": "bytes32"
						}
					],
					"internalType": "struct Execution[]",
					"name": "executions",
					"type": "tuple[]"
				}
			],
			"stateMutability": "payable",
			"type": "function"
		},
		{
			"inputs": [
				{
					"components": [
						{
							"components": [
								{
									"internalType": "address",
									"name": "offerer",
									"type": "address"
								},
								{
									"internalType": "address",
									"name": "zone",
									"type": "address"
								},
								{
									"components": [
										{
											"internalType": "enum ItemType",
											"name": "itemType",
											"type": "uint8"
										},
										{
											"internalType": "address",
											"name": "token",
											"type": "address"
										},
										{
											"internalType": "uint256",
											"name": "identifierOrCriteria",
											"type": "uint256"
										},
										{
											"internalType": "uint256",
											"name": "startAmount",
											"type": "uint256"
										},
										{
											"internalType": "uint256",
											"name": "endAmount",
											"type": "uint256"
										}
									],
									"internalType": "struct OfferItem[]",
									"name": "offer",
									"type": "tuple[]"
								},
								{
									"components": [
										{
											"internalType": "enum ItemType",
											"name": "itemType",
											"type": "uint8"
										},
										{
											"internalType": "address",
											"name": "token",
											"type": "address"
										},
										{
											"internalType": "uint256",
											"name": "identifierOrCriteria",
											"type": "uint256"
										},
										{
											"internalType": "uint256",
											"name": "startAmount",
											"type": "uint256"
										},
										{
											"internalType": "uint256",
											"name": "endAmount",
											"type": "uint256"
										},
										{
											"internalType": "address payable",
											"name": "recipient",
											"type": "address"
										}
									],
									"internalType": "struct ConsiderationItem[]",
									"name": "consideration",
									"type": "tuple[]"
								},
								{
									"internalType": "enum OrderType",
									"name": "orderType",
									"type": "uint8"
								},
								{
									"internalType": "uint256",
									"name": "startTime",
									"type": "uint256"
								},
								{
									"internalType": "uint256",
									"name": "endTime",
									"type": "uint256"
								},
								{
									"internalType": "bytes32",
									"name": "zoneHash",
									"type": "bytes32"
								},
								{
									"internalType": "uint256",
									"name": "salt",
									"type": "uint256"
								},
								{
									"internalType": "bytes32",
									"name": "conduitKey",
									"type": "bytes32"
								},
								{
									"internalType": "uint256",
									"name": "totalOriginalConsiderationItems",
									"type": "uint256"
								}
							],
							"internalType": "struct OrderParameters",
							"name": "parameters",
							"type": "tuple"
						},
						{
							"internalType": "bytes",
							"name": "signature",
							"type": "bytes"
						}
					],
					"internalType": "struct Order[]",
					"name": "orders",
					"type": "tuple[]"
				},
				{
					"components": [
						{
							"components": [
								{
									"internalType": "uint256",
									"name": "orderIndex",
									"type": "uint256"
								},
								{
									"internalType": "uint256",
									"name": "itemIndex",
									"type": "uint256"
								}
							],
							"internalType": "struct FulfillmentComponent[]",
							"name": "offerComponents",
							"type": "tuple[]"
						},
						{
							"components": [
								{
									"internalType": "uint256",
									"name": "orderIndex",
									"type": "uint256"
								},
								{
									"internalType": "uint256",
									"name": "itemIndex",
									"type": "uint256"
								}
							],
							"internalType": "struct FulfillmentComponent[]",
							"name": "considerationComponents",
							"type": "tuple[]"
						}
					],
					"internalType": "struct Fulfillment[]",
					"name": "fulfillments",
					"type": "tuple[]"
				}
			],
			"name": "callMatchOrders",
			"outputs": [
				{
					"components": [
						{
							"components": [
								{
									"internalType": "enum ItemType",
									"name": "itemType",
									"type": "uint8"
								},
								{
									"internalType": "address",
									"name": "token",
									"type": "address"
								},
								{
									"internalType": "uint256",
									"name": "identifier",
									"type": "uint256"
								},
								{
									"internalType": "uint256",
									"name": "amount",
									"type": "uint256"
								},
								{
									"internalType": "address payable",
									"name": "recipient",
									"type": "address"
								}
							],
							"internalType": "struct ReceivedItem",
							"name": "item",
							"type": "tuple"
						},
						{
							"internalType": "address",
							"name": "offerer",
							"type": "address"
						},
						{
							"internalType": "bytes32",
							"name": "conduitKey",
							"type": "bytes32"
						}
					],
					"internalType": "struct Execution[]",
					"name": "executions",
					"type": "tuple[]"
				}
			],
			"stateMutability": "payable",
			"type": "function"
		},
		{
			"inputs": [
				{
					"components": [
						{
							"components": [
								{
									"internalType": "address",
									"name": "offerer",
									"type": "address"
								},
								{
									"internalType": "address",
									"name": "zone",
									"type": "address"
								},
								{
									"components": [
										{
											"internalType": "enum ItemType",
											"name": "itemType",
											"type": "uint8"
										},
										{
											"internalType": "address",
											"name": "token",
											"type": "address"
										},
										{
											"internalType": "uint256",
											"name": "identifierOrCriteria",
											"type": "uint256"
										},
										{
											"internalType": "uint256",
											"name": "startAmount",
											"type": "uint256"
										},
										{
											"internalType": "uint256",
											"name": "endAmount",
											"type": "uint256"
										}
									],
									"internalType": "struct OfferItem[]",
									"name": "offer",
									"type": "tuple[]"
								},
								{
									"components": [
										{
											"internalType": "enum ItemType",
											"name": "itemType",
											"type": "uint8"
										},
										{
											"internalType": "address",
											"name": "token",
											"type": "address"
										},
										{
											"internalType": "uint256",
											"name": "identifierOrCriteria",
											"type": "uint256"
										},
										{
											"internalType": "uint256",
											"name": "startAmount",
											"type": "uint256"
										},
										{
											"internalType": "uint256",
											"name": "endAmount",
											"type": "uint256"
										},
										{
											"internalType": "address payable",
											"name": "recipient",
											"type": "address"
										}
									],
									"internalType": "struct ConsiderationItem[]",
									"name": "consideration",
									"type": "tuple[]"
								},
								{
									"internalType": "enum OrderType",
									"name": "orderType",
									"type": "uint8"
								},
								{
									"internalType": "uint256",
									"name": "startTime",
									"type": "uint256"
								},
								{
									"internalType": "uint256",
									"name": "endTime",
									"type": "uint256"
								},
								{
									"internalType": "bytes32",
									"name": "zoneHash",
									"type": "bytes32"
								},
								{
									"internalType": "uint256",
									"name": "salt",
									"type": "uint256"
								},
								{
									"internalType": "bytes32",
									"name": "conduitKey",
									"type": "bytes32"
								},
								{
									"internalType": "uint256",
									"name": "totalOriginalConsiderationItems",
									"type": "uint256"
								}
							],
							"internalType": "struct OrderParameters",
							"name": "parameters",
							"type": "tuple"
						},
						{
							"internalType": "bytes",
							"name": "signature",
							"type": "bytes"
						}
					],
					"internalType": "struct Order[]",
					"name": "orders",
					"type": "tuple[]"
				}
			],
			"name": "callValidate",
			"outputs": [
				{
					"internalType": "bool",
					"name": "validated",
					"type": "bool"
				}
			],
			"stateMutability": "nonpayable",
			"type": "function"
		},
		{
			"inputs": [
				{
					"internalType": "uint256",
					"name": "id",
					"type": "uint256"
				}
			],
			"name": "exists",
			"outputs": [
				{
					"internalType": "bool",
					"name": "",
					"type": "bool"
				}
			],
			"stateMutability": "view",
			"type": "function"
		},
		{
			"inputs": [
				{
					"components": [
						{
							"components": [
								{
									"internalType": "address",
									"name": "offerer",
									"type": "address"
								},
								{
									"internalType": "address",
									"name": "zone",
									"type": "address"
								},
								{
									"components": [
										{
											"internalType": "enum ItemType",
											"name": "itemType",
											"type": "uint8"
										},
										{
											"internalType": "address",
											"name": "token",
											"type": "address"
										},
										{
											"internalType": "uint256",
											"name": "identifierOrCriteria",
											"type": "uint256"
										},
										{
											"internalType": "uint256",
											"name": "startAmount",
											"type": "uint256"
										},
										{
											"internalType": "uint256",
											"name": "endAmount",
											"type": "uint256"
										}
									],
									"internalType": "struct OfferItem[]",
									"name": "offer",
									"type": "tuple[]"
								},
								{
									"components": [
										{
											"internalType": "enum ItemType",
											"name": "itemType",
											"type": "uint8"
										},
										{
											"internalType": "address",
											"name": "token",
											"type": "address"
										},
										{
											"internalType": "uint256",
											"name": "identifierOrCriteria",
											"type": "uint256"
										},
										{
											"internalType": "uint256",
											"name": "startAmount",
											"type": "uint256"
										},
										{
											"internalType": "uint256",
											"name": "endAmount",
											"type": "uint256"
										},
										{
											"internalType": "address payable",
											"name": "recipient",
											"type": "address"
										}
									],
									"internalType": "struct ConsiderationItem[]",
									"name": "consideration",
									"type": "tuple[]"
								},
								{
									"internalType": "enum OrderType",
									"name": "orderType",
									"type": "uint8"
								},
								{
									"internalType": "uint256",
									"name": "startTime",
									"type": "uint256"
								},
								{
									"internalType": "uint256",
									"name": "endTime",
									"type": "uint256"
								},
								{
									"internalType": "bytes32",
									"name": "zoneHash",
									"type": "bytes32"
								},
								{
									"internalType": "uint256",
									"name": "salt",
									"type": "uint256"
								},
								{
									"internalType": "bytes32",
									"name": "conduitKey",
									"type": "bytes32"
								},
								{
									"internalType": "uint256",
									"name": "totalOriginalConsiderationItems",
									"type": "uint256"
								}
							],
							"internalType": "struct OrderParameters",
							"name": "parameters",
							"type": "tuple"
						},
						{
							"internalType": "bytes",
							"name": "signature",
							"type": "bytes"
						}
					],
					"internalType": "struct Order",
					"name": "order",
					"type": "tuple"
				},
				{
					"internalType": "bytes32",
					"name": "fulfillerConduitKey",
					"type": "bytes32"
				}
			],
			"name": "fulfillOrder",
			"outputs": [
				{
					"internalType": "bool",
					"name": "fulfilled",
					"type": "bool"
				}
			],
			"stateMutability": "payable",
			"type": "function"
		},
		{
			"inputs": [
				{
					"internalType": "uint256",
					"name": "id",
					"type": "uint256"
				}
			],
			"name": "getIdSupply",
			"outputs": [
				{
					"internalType": "uint256",
					"name": "",
					"type": "uint256"
				}
			],
			"stateMutability": "view",
			"type": "function"
		},
		{
			"inputs": [
				{
					"internalType": "bytes32",
					"name": "role",
					"type": "bytes32"
				}
			],
			"name": "getRoleAdmin",
			"outputs": [
				{
					"internalType": "bytes32",
					"name": "",
					"type": "bytes32"
				}
			],
			"stateMutability": "view",
			"type": "function"
		},
		{
			"inputs": [
				{
					"internalType": "string",
					"name": "role",
					"type": "string"
				}
			],
			"name": "getRoleAdmin",
			"outputs": [
				{
					"internalType": "bytes32",
					"name": "",
					"type": "bytes32"
				}
			],
			"stateMutability": "view",
			"type": "function"
		},
		{
			"inputs": [
				{
					"internalType": "uint256",
					"name": "id",
					"type": "uint256"
				}
			],
			"name": "getURIOfId",
			"outputs": [
				{
					"internalType": "string",
					"name": "",
					"type": "string"
				}
			],
			"stateMutability": "view",
			"type": "function"
		},
		{
			"inputs": [
				{
					"internalType": "string",
					"name": "publisher",
					"type": "string"
				},
				{
					"internalType": "address",
					"name": "account",
					"type": "address"
				}
			],
			"name": "grantPublisher",
			"outputs": [],
			"stateMutability": "nonpayable",
			"type": "function"
		},
		{
			"inputs": [
				{
					"internalType": "bytes32",
					"name": "role",
					"type": "bytes32"
				},
				{
					"internalType": "address",
					"name": "account",
					"type": "address"
				}
			],
			"name": "grantRole",
			"outputs": [],
			"stateMutability": "nonpayable",
			"type": "function"
		},
		{
			"inputs": [
				{
					"internalType": "string",
					"name": "role",
					"type": "string"
				},
				{
					"internalType": "address",
					"name": "account",
					"type": "address"
				}
			],
			"name": "hasRole",
			"outputs": [
				{
					"internalType": "bool",
					"name": "",
					"type": "bool"
				}
			],
			"stateMutability": "view",
			"type": "function"
		},
		{
			"inputs": [
				{
					"internalType": "bytes32",
					"name": "role",
					"type": "bytes32"
				},
				{
					"internalType": "address",
					"name": "account",
					"type": "address"
				}
			],
			"name": "hasRole",
			"outputs": [
				{
					"internalType": "bool",
					"name": "",
					"type": "bool"
				}
			],
			"stateMutability": "view",
			"type": "function"
		},
		{
			"inputs": [
				{
					"internalType": "uint256",
					"name": "id",
					"type": "uint256"
				}
			],
			"name": "idExists",
			"outputs": [
				{
					"internalType": "bool",
					"name": "",
					"type": "bool"
				}
			],
			"stateMutability": "view",
			"type": "function"
		},
		{
			"inputs": [],
			"name": "initialize",
			"outputs": [],
			"stateMutability": "nonpayable",
			"type": "function"
		},
		{
			"inputs": [
				{
					"internalType": "address",
					"name": "account",
					"type": "address"
				},
				{
					"internalType": "address",
					"name": "operator",
					"type": "address"
				}
			],
			"name": "isApprovedForAll",
			"outputs": [
				{
					"internalType": "bool",
					"name": "",
					"type": "bool"
				}
			],
			"stateMutability": "view",
			"type": "function"
		},
		{
			"inputs": [
				{
					"internalType": "address",
					"name": "account",
					"type": "address"
				},
				{
					"internalType": "uint256",
					"name": "id",
					"type": "uint256"
				},
				{
					"internalType": "uint256",
					"name": "amount",
					"type": "uint256"
				},
				{
					"internalType": "bytes",
					"name": "data",
					"type": "bytes"
				}
			],
			"name": "mint",
			"outputs": [],
			"stateMutability": "nonpayable",
			"type": "function"
		},
		{
			"inputs": [
				{
					"internalType": "address",
					"name": "to",
					"type": "address"
				},
				{
					"internalType": "uint256[]",
					"name": "ids",
					"type": "uint256[]"
				},
				{
					"internalType": "uint256[]",
					"name": "amounts",
					"type": "uint256[]"
				},
				{
					"internalType": "bytes",
					"name": "data",
					"type": "bytes"
				}
			],
			"name": "mintBatch",
			"outputs": [],
			"stateMutability": "nonpayable",
			"type": "function"
		},
		{
			"inputs": [],
			"name": "pause",
			"outputs": [],
			"stateMutability": "nonpayable",
			"type": "function"
		},
		{
			"inputs": [],
			"name": "paused",
			"outputs": [
				{
					"internalType": "bool",
					"name": "",
					"type": "bool"
				}
			],
			"stateMutability": "view",
			"type": "function"
		},
		{
			"inputs": [
				{
					"internalType": "bytes32",
					"name": "role",
					"type": "bytes32"
				},
				{
					"internalType": "address",
					"name": "account",
					"type": "address"
				}
			],
			"name": "renounceRole",
			"outputs": [],
			"stateMutability": "nonpayable",
			"type": "function"
		},
		{
			"inputs": [
				{
					"internalType": "string",
					"name": "publisher",
					"type": "string"
				},
				{
					"internalType": "address",
					"name": "account",
					"type": "address"
				}
			],
			"name": "revokePublisher",
			"outputs": [],
			"stateMutability": "nonpayable",
			"type": "function"
		},
		{
			"inputs": [
				{
					"internalType": "bytes32",
					"name": "role",
					"type": "bytes32"
				},
				{
					"internalType": "address",
					"name": "account",
					"type": "address"
				}
			],
			"name": "revokeRole",
			"outputs": [],
			"stateMutability": "nonpayable",
			"type": "function"
		},
		{
			"inputs": [
				{
					"internalType": "address",
					"name": "from",
					"type": "address"
				},
				{
					"internalType": "address",
					"name": "to",
					"type": "address"
				},
				{
					"internalType": "uint256[]",
					"name": "ids",
					"type": "uint256[]"
				},
				{
					"internalType": "uint256[]",
					"name": "amounts",
					"type": "uint256[]"
				},
				{
					"internalType": "bytes",
					"name": "data",
					"type": "bytes"
				}
			],
			"name": "safeBatchTransferFrom",
			"outputs": [],
			"stateMutability": "nonpayable",
			"type": "function"
		},
		{
			"inputs": [
				{
					"internalType": "address",
					"name": "from",
					"type": "address"
				},
				{
					"internalType": "address",
					"name": "to",
					"type": "address"
				},
				{
					"internalType": "uint256",
					"name": "id",
					"type": "uint256"
				},
				{
					"internalType": "uint256",
					"name": "amount",
					"type": "uint256"
				},
				{
					"internalType": "bytes",
					"name": "data",
					"type": "bytes"
				}
			],
			"name": "safeTransferFrom",
			"outputs": [],
			"stateMutability": "nonpayable",
			"type": "function"
		},
		{
			"inputs": [
				{
					"internalType": "address",
					"name": "operator",
					"type": "address"
				},
				{
					"internalType": "bool",
					"name": "approved",
					"type": "bool"
				}
			],
			"name": "setApprovalForAll",
			"outputs": [],
			"stateMutability": "nonpayable",
			"type": "function"
		},
		{
			"inputs": [
				{
					"internalType": "uint256",
					"name": "id",
					"type": "uint256"
				},
				{
					"internalType": "string",
					"name": "publisher",
					"type": "string"
				}
			],
			"name": "setIdToPublisher",
			"outputs": [],
			"stateMutability": "nonpayable",
			"type": "function"
		},
		{
			"inputs": [
				{
					"internalType": "string",
					"name": "newuri",
					"type": "string"
				}
			],
			"name": "setURI",
			"outputs": [],
			"stateMutability": "nonpayable",
			"type": "function"
		},
		{
			"inputs": [
				{
					"internalType": "bytes4",
					"name": "interfaceId",
					"type": "bytes4"
				}
			],
			"name": "supportsInterface",
			"outputs": [
				{
					"internalType": "bool",
					"name": "",
					"type": "bool"
				}
			],
			"stateMutability": "view",
			"type": "function"
		},
		{
			"inputs": [
				{
					"internalType": "uint256",
					"name": "id",
					"type": "uint256"
				}
			],
			"name": "totalSupply",
			"outputs": [
				{
					"internalType": "uint256",
					"name": "",
					"type": "uint256"
				}
			],
			"stateMutability": "view",
			"type": "function"
		},
		{
			"inputs": [
				{
					"internalType": "address",
					"name": "from",
					"type": "address"
				},
				{
					"internalType": "address",
					"name": "to",
					"type": "address"
				},
				{
					"internalType": "uint256",
					"name": "id",
					"type": "uint256"
				},
				{
					"internalType": "uint256",
					"name": "amount",
					"type": "uint256"
				},
				{
					"internalType": "bytes",
					"name": "data",
					"type": "bytes"
				}
			],
			"name": "transfer",
			"outputs": [],
			"stateMutability": "nonpayable",
			"type": "function"
		},
		{
			"inputs": [
				{
					"internalType": "address",
					"name": "from",
					"type": "address"
				},
				{
					"internalType": "address",
					"name": "to",
					"type": "address"
				},
				{
					"internalType": "uint256[]",
					"name": "ids",
					"type": "uint256[]"
				},
				{
					"internalType": "uint256[]",
					"name": "amounts",
					"type": "uint256[]"
				},
				{
					"internalType": "bytes",
					"name": "data",
					"type": "bytes"
				}
			],
			"name": "transferBatch",
			"outputs": [],
			"stateMutability": "nonpayable",
			"type": "function"
		},
		{
			"inputs": [],
			"name": "unpause",
			"outputs": [],
			"stateMutability": "nonpayable",
			"type": "function"
		},
		{
			"inputs": [
				{
					"internalType": "uint256",
					"name": "",
					"type": "uint256"
				}
			],
			"name": "uri",
			"outputs": [
				{
					"internalType": "string",
					"name": "",
					"type": "string"
				}
			],
			"stateMutability": "view",
			"type": "function"
		}
	]
}