{
	"data": {
		"bytecode": {
			"linkReferences": {},
			"object": "60806040523480156200001157600080fd5b50620000226200002860201b60201c565b620001d3565b600060019054906101000a900460ff16156200007b576040517f08c379a0000000000000000000000000000000000000000000000000000000008152600401620000729062000176565b60405180910390fd5b60ff801660008054906101000a900460ff1660ff161015620000ed5760ff6000806101000a81548160ff021916908360ff1602179055507f7f26b83ff96e1f2b6a682f133852f6798a09c465da95921460cefb384740249860ff604051620000e49190620001b6565b60405180910390a15b565b600082825260208201905092915050565b7f496e697469616c697a61626c653a20636f6e747261637420697320696e69746960008201527f616c697a696e6700000000000000000000000000000000000000000000000000602082015250565b60006200015e602783620000ef565b91506200016b8262000100565b604082019050919050565b6000602082019050818103600083015262000191816200014f565b9050919050565b600060ff82169050919050565b620001b08162000198565b82525050565b6000602082019050620001cd6000830184620001a5565b92915050565b61936b80620001e36000396000f3fe6080604052600436106102875760003560e01c80636543908f1161015a578063b3a34c4c116100c1578063dfd3cb731161007a578063dfd3cb7314610a6c578063e0e0a2c514610aa9578063e985e9c514610ae6578063ef7992bb14610b23578063f242432a14610b4e578063f5298aca14610b7757610287565b8063b3a34c4c14610940578063bd85b03914610970578063bdc55bc6146109ad578063c4d66de8146109dd578063ca36fc9114610a06578063d547741f14610a4357610287565b80637d551b23116101135780637d551b231461082b5780638456cb59146108685780638c52e8571461087f57806391d14854146108af578063a217fddf146108ec578063a22cb4651461091757610287565b80636543908f146106f6578063672a41a1146107365780636b20c454146107735780636c9cd0971461079c5780636fcfcb66146107d9578063731133e91461080257610287565b8063248a9ca3116101fe5780634e1273f4116101b75780634e1273f4146105ba5780634f558e79146105f757806350863e8a1461063457806352509e97146106655780635a9807be1461068e5780635c975abb146106cb57610287565b8063248a9ca3146104ba5780632eb2c2d6146104f75780632f2ff15d1461052057806336568abe146105495780633c1dadd9146105725780633f4ba83a146105a357610287565b80630b8a295a116102505780630b8a295a146103955780630e89341c146103d2578063127217d61461040f5780631286c46d14610438578063192c9ef2146104615780631f7fdffa1461049157610287565b8062fdd58e1461028c57806301ad63bd146102c957806301ffc9a7146102f257806302fe53051461032f5780630807a3bd14610358575b600080fd5b34801561029857600080fd5b506102b360048036038101906102ae91906144cd565b610ba0565b6040516102c0919061451c565b60405180910390f35b3480156102d557600080fd5b506102f060048036038101906102eb919061467d565b610bb4565b005b3480156102fe57600080fd5b5061031960048036038101906103149190614731565b610c24565b6040516103269190614779565b60405180910390f35b34801561033b57600080fd5b5061035660048036038101906103519190614794565b610c36565b005b34801561036457600080fd5b5061037f600480360381019061037a91906147dd565b610c58565b60405161038c9190614889565b60405180910390f35b3480156103a157600080fd5b506103bc60048036038101906103b791906147dd565b610c93565b6040516103c99190614779565b60405180910390f35b3480156103de57600080fd5b506103f960048036038101906103f491906147dd565b610ca5565b6040516104069190614889565b60405180910390f35b34801561041b57600080fd5b506104366004803603810190610431919061494c565b610d39565b005b34801561044457600080fd5b5061045f600480360381019061045a91906149e3565b610d4d565b005b61047b60048036038101906104769190614af5565b610d8f565b6040516104889190614d9e565b60405180910390f35b34801561049d57600080fd5b506104b860048036038101906104b39190614e83565b610e45565b005b3480156104c657600080fd5b506104e160048036038101906104dc9190614f6a565b610eae565b6040516104ee9190614fa6565b60405180910390f35b34801561050357600080fd5b5061051e60048036038101906105199190614fc1565b610ece565b005b34801561052c57600080fd5b5061054760048036038101906105429190615090565b610f6f565b005b34801561055557600080fd5b50610570600480360381019061056b9190615090565b610f90565b005b61058c60048036038101906105879190615126565b611013565b60405161059a9291906152c0565b60405180910390f35b3480156105af57600080fd5b506105b86110dd565b005b3480156105c657600080fd5b506105e160048036038101906105dc91906153ba565b6110f5565b6040516105ee91906154e1565b60405180910390f35b34801561060357600080fd5b5061061e600480360381019061061991906147dd565b611109565b60405161062b9190614779565b60405180910390f35b61064e600480360381019061064991906155af565b61111d565b60405161065c9291906152c0565b60405180910390f35b34801561067157600080fd5b5061068c600480360381019061068791906149e3565b6111f0565b005b34801561069a57600080fd5b506106b560048036038101906106b091906147dd565b6112a6565b6040516106c2919061451c565b60405180910390f35b3480156106d757600080fd5b506106e06112b8565b6040516106ed9190614779565b60405180910390f35b34801561070257600080fd5b5061071d60048036038101906107189190614f6a565b6112cf565b60405161072d94939291906156d3565b60405180910390f35b34801561074257600080fd5b5061075d60048036038101906107589190614794565b611389565b60405161076a9190614fa6565b60405180910390f35b34801561077f57600080fd5b5061079a60048036038101906107959190615718565b6113c1565b005b3480156107a857600080fd5b506107c360048036038101906107be91906149e3565b6113d1565b6040516107d09190614779565b60405180910390f35b3480156107e557600080fd5b5061080060048036038101906107fb9190614fc1565b61140b565b005b34801561080e57600080fd5b50610829600480360381019061082491906157a3565b61141f565b005b34801561083757600080fd5b50610852600480360381019061084d9190615826565b611450565b60405161085f9190614779565b60405180910390f35b34801561087457600080fd5b5061087d6114fb565b005b61089960048036038101906108949190615897565b611513565b6040516108a69190614779565b60405180910390f35b3480156108bb57600080fd5b506108d660048036038101906108d19190615090565b6115c7565b6040516108e39190614779565b60405180910390f35b3480156108f857600080fd5b50610901611632565b60405161090e9190614fa6565b60405180910390f35b34801561092357600080fd5b5061093e60048036038101906109399190615967565b611639565b005b61095a60048036038101906109559190615ea5565b611647565b6040516109679190614779565b60405180910390f35b34801561097c57600080fd5b50610997600480360381019061099291906147dd565b6116f2565b6040516109a4919061451c565b60405180910390f35b6109c760048036038101906109c29190615f01565b611710565b6040516109d49190614d9e565b60405180910390f35b3480156109e957600080fd5b50610a0460048036038101906109ff9190615fca565b6117cf565b005b348015610a1257600080fd5b50610a2d6004803603810190610a289190616017565b61198d565b604051610a3a9190614fa6565b60405180910390f35b348015610a4f57600080fd5b50610a6a6004803603810190610a659190615090565b611a33565b005b348015610a7857600080fd5b50610a936004803603810190610a8e91906160b6565b611a54565b604051610aa09190614779565b60405180910390f35b348015610ab557600080fd5b50610ad06004803603810190610acb9190615fca565b611aff565b604051610add919061451c565b60405180910390f35b348015610af257600080fd5b50610b0d6004803603810190610b089190616103565b611ba5565b604051610b1a9190614779565b60405180910390f35b348015610b2f57600080fd5b50610b38611bb9565b604051610b45919061451c565b60405180910390f35b348015610b5a57600080fd5b50610b756004803603810190610b70919061494c565b611c54565b005b348015610b8357600080fd5b50610b9e6004803603810190610b999190616143565b611cf5565b005b6000610bac8383611d05565b905092915050565b610bbc611dce565b61015f600083815260200190815260200160002054610bda81611e18565b600082604051602001610bed9190614889565b6040516020818303038152906040528051906020012090508061015f60008681526020019081526020016000208190555050505050565b6000610c2f82611e2c565b9050919050565b610c3e611dce565b6000801b610c4b81611e18565b610c5482611ea6565b5050565b6060610c6382610ca5565b610c6c83611eb9565b604051602001610c7d9291906161f8565b6040516020818303038152906040529050919050565b6000610c9e82611109565b9050919050565b606060678054610cb49061625a565b80601f0160208091040260200160405190810160405280929190818152602001828054610ce09061625a565b8015610d2d5780601f10610d0257610100808354040283529160200191610d2d565b820191906000526020600020905b815481529060010190602001808311610d1057829003601f168201915b50505050509050919050565b610d468585858585611c54565b5050505050565b610d55611dce565b600082604051602001610d689190614889565b604051602081830303815290604052805190602001209050610d8a8183611a33565b505050565b606061016160009054906101000a900473ffffffffffffffffffffffffffffffffffffffff1673ffffffffffffffffffffffffffffffffffffffff1663a8174404868686866040518563ffffffff1660e01b8152600401610df39493929190616c81565b6000604051808303816000875af1158015610e12573d6000803e3d6000fd5b505050506040513d6000823e3d601f19601f82011682018060405250810190610e3b9190616ed8565b9050949350505050565b8260005b8151811015610e9a57610e8961015f6000848481518110610e6d57610e6c616f21565b5b6020026020010151815260200190815260200160002054611e18565b80610e9390616f7f565b9050610e49565b50610ea785858585611f87565b5050505050565b600060976000838152602001908152602001600020600101549050919050565b610ed66121b4565b73ffffffffffffffffffffffffffffffffffffffff168573ffffffffffffffffffffffffffffffffffffffff161480610f1c5750610f1b85610f166121b4565b611ba5565b5b610f5b576040517f08c379a0000000000000000000000000000000000000000000000000000000008152600401610f5290617039565b60405180910390fd5b610f6885858585856121bc565b5050505050565b610f7882610eae565b610f8181611e18565b610f8b83836124e0565b505050565b610f986121b4565b73ffffffffffffffffffffffffffffffffffffffff168173ffffffffffffffffffffffffffffffffffffffff1614611005576040517f08c379a0000000000000000000000000000000000000000000000000000000008152600401610ffc906170cb565b60405180910390fd5b61100f82826125c1565b5050565b60608061016160009054906101000a900473ffffffffffffffffffffffffffffffffffffffff1673ffffffffffffffffffffffffffffffffffffffff1663ed98a5748b8b8b8b8b8b8b8b6040518963ffffffff1660e01b815260040161108098979695949392919061719f565b6000604051808303816000875af115801561109f573d6000803e3d6000fd5b505050506040513d6000823e3d601f19601f820116820180604052508101906110c891906172e5565b80925081935050509850989650505050505050565b6000801b6110ea81611e18565b6110f26126a3565b50565b60606111018383612706565b905092915050565b600080611115836116f2565b119050919050565b60608061016160009054906101000a900473ffffffffffffffffffffffffffffffffffffffff1673ffffffffffffffffffffffffffffffffffffffff166387201b418e8e8e8e8e8e8e8e8e8e8e6040518c63ffffffff1660e01b81526004016111909b9a9998979695949392919061783b565b6000604051808303816000875af11580156111af573d6000803e3d6000fd5b505050506040513d6000823e3d601f19601f820116820180604052508101906111d891906172e5565b80925081935050509b509b9950505050505050505050565b6111f8611dce565b60008260405160200161120b9190614889565b60405160208183030381529060405280519060200120905061122d8183610f6f565b6101608360405161123e91906178ce565b908152602001604051809103902060009054906101000a900460ff166112a15760016101608460405161127191906178ce565b908152602001604051809103902060006101000a81548160ff0219169083151502179055506112a0818261281f565b5b505050565b60006112b1826116f2565b9050919050565b600060c960009054906101000a900460ff16905090565b60008060008061016160009054906101000a900473ffffffffffffffffffffffffffffffffffffffff1673ffffffffffffffffffffffffffffffffffffffff166346423aa7866040518263ffffffff1660e01b81526004016113319190614fa6565b608060405180830381865afa15801561134e573d6000803e3d6000fd5b505050506040513d601f19601f8201168201806040525081019061137291906178e5565b809450819550829650839750505050509193509193565b60006113ba8260405160200161139f9190614889565b60405160208183030381529060405280519060200120610eae565b9050919050565b6113cc83838361287b565b505050565b6000611403836040516020016113e79190614889565b60405160208183030381529060405280519060200120836115c7565b905092915050565b6114188585858585610ece565b5050505050565b61015f60008481526020019081526020016000205461143d81611e18565b61144985858585612918565b5050505050565b600061016160009054906101000a900473ffffffffffffffffffffffffffffffffffffffff1673ffffffffffffffffffffffffffffffffffffffff16638814773284846040518363ffffffff1660e01b81526004016114b092919061794c565b6020604051808303816000875af11580156114cf573d6000803e3d6000fd5b505050506040513d601f19601f820116820180604052508101906114f39190617970565b905092915050565b6000801b61150881611e18565b611510612ac9565b50565b600061016160009054906101000a900473ffffffffffffffffffffffffffffffffffffffff1673ffffffffffffffffffffffffffffffffffffffff1663e7acab2487878787876040518663ffffffff1660e01b8152600401611579959493929190617a4d565b6020604051808303816000875af1158015611598573d6000803e3d6000fd5b505050506040513d601f19601f820116820180604052508101906115bc9190617970565b905095945050505050565b60006097600084815260200190815260200160002060000160008373ffffffffffffffffffffffffffffffffffffffff1673ffffffffffffffffffffffffffffffffffffffff16815260200190815260200160002060009054906101000a900460ff16905092915050565b6000801b81565b6116438282612b2c565b5050565b600061016160009054906101000a900473ffffffffffffffffffffffffffffffffffffffff1673ffffffffffffffffffffffffffffffffffffffff1663b3a34c4c84846040518363ffffffff1660e01b81526004016116a7929190617e3f565b6020604051808303816000875af11580156116c6573d6000803e3d6000fd5b505050506040513d601f19601f820116820180604052508101906116ea9190617970565b905092915050565b600061012d6000838152602001908152602001600020549050919050565b606061016160009054906101000a900473ffffffffffffffffffffffffffffffffffffffff1673ffffffffffffffffffffffffffffffffffffffff1663f2d12b12898989898989896040518863ffffffff1660e01b815260040161177a9796959493929190617e6f565b6000604051808303816000875af1158015611799573d6000803e3d6000fd5b505050506040513d6000823e3d601f19601f820116820180604052508101906117c29190616ed8565b9050979650505050505050565b60008060019054906101000a900460ff161590508080156118005750600160008054906101000a900460ff1660ff16105b8061182d575061180f30612b42565b15801561182c5750600160008054906101000a900460ff1660ff16145b5b61186c576040517f08c379a000000000000000000000000000000000000000000000000000000000815260040161186390617f41565b60405180910390fd5b60016000806101000a81548160ff021916908360ff16021790555080156118a9576001600060016101000a81548160ff0219169083151502179055505b6118c160405180602001604052806000815250612b65565b6118c9612bc0565b6118d1612c11565b6118d9612c6a565b6118e1612cbb565b6118ee6000801b336124e0565b8161016160006101000a81548173ffffffffffffffffffffffffffffffffffffffff021916908373ffffffffffffffffffffffffffffffffffffffff16021790555080156119895760008060016101000a81548160ff0219169083151502179055507f7f26b83ff96e1f2b6a682f133852f6798a09c465da95921460cefb384740249860016040516119809190617fb3565b60405180910390a15b5050565b600061016160009054906101000a900473ffffffffffffffffffffffffffffffffffffffff1673ffffffffffffffffffffffffffffffffffffffff166379df72bd836040518263ffffffff1660e01b81526004016119eb9190618120565b602060405180830381865afa158015611a08573d6000803e3d6000fd5b505050506040513d601f19601f82011682018060405250810190611a2c9190618142565b9050919050565b611a3c82610eae565b611a4581611e18565b611a4f83836125c1565b505050565b600061016160009054906101000a900473ffffffffffffffffffffffffffffffffffffffff1673ffffffffffffffffffffffffffffffffffffffff1663fd9f1e1084846040518363ffffffff1660e01b8152600401611ab492919061839a565b6020604051808303816000875af1158015611ad3573d6000803e3d6000fd5b505050506040513d601f19601f82011682018060405250810190611af79190617970565b905092915050565b600061016160009054906101000a900473ffffffffffffffffffffffffffffffffffffffff1673ffffffffffffffffffffffffffffffffffffffff1663f07ec373836040518263ffffffff1660e01b8152600401611b5d91906183be565b602060405180830381865afa158015611b7a573d6000803e3d6000fd5b505050506040513d601f19601f82011682018060405250810190611b9e91906183d9565b9050919050565b6000611bb18383612d0c565b905092915050565b600061016160009054906101000a900473ffffffffffffffffffffffffffffffffffffffff1673ffffffffffffffffffffffffffffffffffffffff16635b34b9666040518163ffffffff1660e01b81526004016020604051808303816000875af1158015611c2b573d6000803e3d6000fd5b505050506040513d601f19601f82011682018060405250810190611c4f91906183d9565b905090565b611c5c6121b4565b73ffffffffffffffffffffffffffffffffffffffff168573ffffffffffffffffffffffffffffffffffffffff161480611ca25750611ca185611c9c6121b4565b611ba5565b5b611ce1576040517f08c379a0000000000000000000000000000000000000000000000000000000008152600401611cd890617039565b60405180910390fd5b611cee8585858585612da0565b5050505050565b611d0083838361303e565b505050565b60008073ffffffffffffffffffffffffffffffffffffffff168373ffffffffffffffffffffffffffffffffffffffff1603611d75576040517f08c379a0000000000000000000000000000000000000000000000000000000008152600401611d6c90618478565b60405180910390fd5b6065600083815260200190815260200160002060008473ffffffffffffffffffffffffffffffffffffffff1673ffffffffffffffffffffffffffffffffffffffff16815260200190815260200160002054905092915050565b611dd66112b8565b15611e16576040517f08c379a0000000000000000000000000000000000000000000000000000000008152600401611e0d906184e4565b60405180910390fd5b565b611e2981611e246121b4565b6130db565b50565b60007f7965db0b000000000000000000000000000000000000000000000000000000007bffffffffffffffffffffffffffffffffffffffffffffffffffffffff1916827bffffffffffffffffffffffffffffffffffffffffffffffffffffffff19161480611e9f5750611e9e82613160565b5b9050919050565b8060679081611eb591906186a6565b5050565b606060006001611ec884613242565b01905060008167ffffffffffffffff811115611ee757611ee6614552565b5b6040519080825280601f01601f191660200182016040528015611f195781602001600182028036833780820191505090505b509050600082602001820190505b600115611f7c578080600190039150507f3031323334353637383961626364656600000000000000000000000000000000600a86061a8153600a8581611f7057611f6f618778565b5b04945060008503611f27575b819350505050919050565b600073ffffffffffffffffffffffffffffffffffffffff168473ffffffffffffffffffffffffffffffffffffffff1603611ff6576040517f08c379a0000000000000000000000000000000000000000000000000000000008152600401611fed90618819565b60405180910390fd5b815183511461203a576040517f08c379a0000000000000000000000000000000000000000000000000000000008152600401612031906188ab565b60405180910390fd5b60006120446121b4565b905061205581600087878787613395565b60005b845181101561210f5783818151811061207457612073616f21565b5b60200260200101516065600087848151811061209357612092616f21565b5b6020026020010151815260200190815260200160002060008873ffffffffffffffffffffffffffffffffffffffff1673ffffffffffffffffffffffffffffffffffffffff16815260200190815260200160002060008282546120f591906188cb565b92505081905550808061210790616f7f565b915050612058565b508473ffffffffffffffffffffffffffffffffffffffff16600073ffffffffffffffffffffffffffffffffffffffff168273ffffffffffffffffffffffffffffffffffffffff167f4a39dc06d4c0dbc64b70af90fd698a233a518aa5d07e595d983b8c0526c8f7fb87876040516121879291906188ff565b60405180910390a461219e816000878787876133b3565b6121ad816000878787876133bb565b5050505050565b600033905090565b8151835114612200576040517f08c379a00000000000000000000000000000000000000000000000000000000081526004016121f7906188ab565b60405180910390fd5b600073ffffffffffffffffffffffffffffffffffffffff168473ffffffffffffffffffffffffffffffffffffffff160361226f576040517f08c379a0000000000000000000000000000000000000000000000000000000008152600401612266906189a8565b60405180910390fd5b60006122796121b4565b9050612289818787878787613395565b60005b845181101561243d5760008582815181106122aa576122a9616f21565b5b6020026020010151905060008583815181106122c9576122c8616f21565b5b6020026020010151905060006065600084815260200190815260200160002060008b73ffffffffffffffffffffffffffffffffffffffff1673ffffffffffffffffffffffffffffffffffffffff1681526020019081526020016000205490508181101561236b576040517f08c379a000000000000000000000000000000000000000000000000000000000815260040161236290618a3a565b60405180910390fd5b8181036065600085815260200190815260200160002060008c73ffffffffffffffffffffffffffffffffffffffff1673ffffffffffffffffffffffffffffffffffffffff16815260200190815260200160002081905550816065600085815260200190815260200160002060008b73ffffffffffffffffffffffffffffffffffffffff1673ffffffffffffffffffffffffffffffffffffffff168152602001908152602001600020600082825461242291906188cb565b925050819055505050508061243690616f7f565b905061228c565b508473ffffffffffffffffffffffffffffffffffffffff168673ffffffffffffffffffffffffffffffffffffffff168273ffffffffffffffffffffffffffffffffffffffff167f4a39dc06d4c0dbc64b70af90fd698a233a518aa5d07e595d983b8c0526c8f7fb87876040516124b49291906188ff565b60405180910390a46124ca8187878787876133b3565b6124d88187878787876133bb565b505050505050565b6124ea82826115c7565b6125bd5760016097600084815260200190815260200160002060000160008373ffffffffffffffffffffffffffffffffffffffff1673ffffffffffffffffffffffffffffffffffffffff16815260200190815260200160002060006101000a81548160ff0219169083151502179055506125626121b4565b73ffffffffffffffffffffffffffffffffffffffff168173ffffffffffffffffffffffffffffffffffffffff16837f2f8788117e7eff1d82e926ec794901d17c78024a50270940304540a733656f0d60405160405180910390a45b5050565b6125cb82826115c7565b1561269f5760006097600084815260200190815260200160002060000160008373ffffffffffffffffffffffffffffffffffffffff1673ffffffffffffffffffffffffffffffffffffffff16815260200190815260200160002060006101000a81548160ff0219169083151502179055506126446121b4565b73ffffffffffffffffffffffffffffffffffffffff168173ffffffffffffffffffffffffffffffffffffffff16837ff6391f5c32d9c69d2a47ea670b442974b53935d1edc7fd64eb21e047a839171b60405160405180910390a45b5050565b6126ab613592565b600060c960006101000a81548160ff0219169083151502179055507f5db9ee0a495bf2e6ff9c91a7834c1ba4fdd244a5e8aa4e537bd38aeae4b073aa6126ef6121b4565b6040516126fc91906183be565b60405180910390a1565b6060815183511461274c576040517f08c379a000000000000000000000000000000000000000000000000000000000815260040161274390618acc565b60405180910390fd5b6000835167ffffffffffffffff81111561276957612768614552565b5b6040519080825280602002602001820160405280156127975781602001602082028036833780820191505090505b50905060005b8451811015612814576127e48582815181106127bc576127bb616f21565b5b60200260200101518583815181106127d7576127d6616f21565b5b6020026020010151610ba0565b8282815181106127f7576127f6616f21565b5b6020026020010181815250508061280d90616f7f565b905061279d565b508091505092915050565b600061282a83610eae565b90508160976000858152602001908152602001600020600101819055508181847fbd79b86ffe0ab8e8776151514217cd7cacd52c909f66475c3af44e129f0b00ff60405160405180910390a4505050565b6128836121b4565b73ffffffffffffffffffffffffffffffffffffffff168373ffffffffffffffffffffffffffffffffffffffff1614806128c957506128c8836128c36121b4565b611ba5565b5b612908576040517f08c379a00000000000000000000000000000000000000000000000000000000081526004016128ff90617039565b60405180910390fd5b6129138383836135db565b505050565b600073ffffffffffffffffffffffffffffffffffffffff168473ffffffffffffffffffffffffffffffffffffffff1603612987576040517f08c379a000000000000000000000000000000000000000000000000000000000815260040161297e90618819565b60405180910390fd5b60006129916121b4565b9050600061299e856138ab565b905060006129ab856138ab565b90506129bc83600089858589613395565b846065600088815260200190815260200160002060008973ffffffffffffffffffffffffffffffffffffffff1673ffffffffffffffffffffffffffffffffffffffff1681526020019081526020016000206000828254612a1c91906188cb565b925050819055508673ffffffffffffffffffffffffffffffffffffffff16600073ffffffffffffffffffffffffffffffffffffffff168473ffffffffffffffffffffffffffffffffffffffff167fc3d58168c5ae7397731d063d5bbf3d657854427343f4c083240f7aacaa2d0f628989604051612a9a929190618aec565b60405180910390a4612ab1836000898585896133b3565b612ac083600089898989613925565b50505050505050565b612ad1611dce565b600160c960006101000a81548160ff0219169083151502179055507f62e78cea01bee320cd4e420270b5ea74000d11b0c9f74754ebdbfc544b05a258612b156121b4565b604051612b2291906183be565b60405180910390a1565b612b3e612b376121b4565b8383613afc565b5050565b6000808273ffffffffffffffffffffffffffffffffffffffff163b119050919050565b600060019054906101000a900460ff16612bb4576040517f08c379a0000000000000000000000000000000000000000000000000000000008152600401612bab90618b87565b60405180910390fd5b612bbd81613c68565b50565b600060019054906101000a900460ff16612c0f576040517f08c379a0000000000000000000000000000000000000000000000000000000008152600401612c0690618b87565b60405180910390fd5b565b600060019054906101000a900460ff16612c60576040517f08c379a0000000000000000000000000000000000000000000000000000000008152600401612c5790618b87565b60405180910390fd5b612c68613cc3565b565b600060019054906101000a900460ff16612cb9576040517f08c379a0000000000000000000000000000000000000000000000000000000008152600401612cb090618b87565b60405180910390fd5b565b600060019054906101000a900460ff16612d0a576040517f08c379a0000000000000000000000000000000000000000000000000000000008152600401612d0190618b87565b60405180910390fd5b565b6000606660008473ffffffffffffffffffffffffffffffffffffffff1673ffffffffffffffffffffffffffffffffffffffff16815260200190815260200160002060008373ffffffffffffffffffffffffffffffffffffffff1673ffffffffffffffffffffffffffffffffffffffff16815260200190815260200160002060009054906101000a900460ff16905092915050565b600073ffffffffffffffffffffffffffffffffffffffff168473ffffffffffffffffffffffffffffffffffffffff1603612e0f576040517f08c379a0000000000000000000000000000000000000000000000000000000008152600401612e06906189a8565b60405180910390fd5b6000612e196121b4565b90506000612e26856138ab565b90506000612e33856138ab565b9050612e43838989858589613395565b60006065600088815260200190815260200160002060008a73ffffffffffffffffffffffffffffffffffffffff1673ffffffffffffffffffffffffffffffffffffffff16815260200190815260200160002054905085811015612edb576040517f08c379a0000000000000000000000000000000000000000000000000000000008152600401612ed290618a3a565b60405180910390fd5b8581036065600089815260200190815260200160002060008b73ffffffffffffffffffffffffffffffffffffffff1673ffffffffffffffffffffffffffffffffffffffff16815260200190815260200160002081905550856065600089815260200190815260200160002060008a73ffffffffffffffffffffffffffffffffffffffff1673ffffffffffffffffffffffffffffffffffffffff1681526020019081526020016000206000828254612f9291906188cb565b925050819055508773ffffffffffffffffffffffffffffffffffffffff168973ffffffffffffffffffffffffffffffffffffffff168573ffffffffffffffffffffffffffffffffffffffff167fc3d58168c5ae7397731d063d5bbf3d657854427343f4c083240f7aacaa2d0f628a8a60405161300f929190618aec565b60405180910390a4613025848a8a86868a6133b3565b613033848a8a8a8a8a613925565b505050505050505050565b6130466121b4565b73ffffffffffffffffffffffffffffffffffffffff168373ffffffffffffffffffffffffffffffffffffffff16148061308c575061308b836130866121b4565b611ba5565b5b6130cb576040517f08c379a00000000000000000000000000000000000000000000000000000000081526004016130c290617039565b60405180910390fd5b6130d6838383613d2f565b505050565b6130e582826115c7565b61315c576130f281613f77565b6131008360001c6020613fa4565b604051602001613111929190618c3f565b6040516020818303038152906040526040517f08c379a00000000000000000000000000000000000000000000000000000000081526004016131539190614889565b60405180910390fd5b5050565b60007fd9b67a26000000000000000000000000000000000000000000000000000000007bffffffffffffffffffffffffffffffffffffffffffffffffffffffff1916827bffffffffffffffffffffffffffffffffffffffffffffffffffffffff1916148061322b57507f0e89341c000000000000000000000000000000000000000000000000000000007bffffffffffffffffffffffffffffffffffffffffffffffffffffffff1916827bffffffffffffffffffffffffffffffffffffffffffffffffffffffff1916145b8061323b575061323a826141e0565b5b9050919050565b600080600090507a184f03e93ff9f4daa797ed6e38ed64bf6a1f01000000000000000083106132a0577a184f03e93ff9f4daa797ed6e38ed64bf6a1f010000000000000000838161329657613295618778565b5b0492506040810190505b6d04ee2d6d415b85acef810000000083106132dd576d04ee2d6d415b85acef810000000083816132d3576132d2618778565b5b0492506020810190505b662386f26fc10000831061330c57662386f26fc10000838161330257613301618778565b5b0492506010810190505b6305f5e1008310613335576305f5e100838161332b5761332a618778565b5b0492506008810190505b612710831061335a5761271083816133505761334f618778565b5b0492506004810190505b6064831061337d576064838161337357613372618778565b5b0492506002810190505b600a831061338c576001810190505b80915050919050565b61339d611dce565b6133ab86868686868661424a565b505050505050565b505050505050565b6133da8473ffffffffffffffffffffffffffffffffffffffff16612b42565b1561358a578373ffffffffffffffffffffffffffffffffffffffff1663bc197c8187878686866040518663ffffffff1660e01b8152600401613420959493929190618cc3565b6020604051808303816000875af192505050801561345c57506040513d601f19601f820116820180604052508101906134599190618d40565b60015b61350157613468618d7a565b806308c379a0036134c4575061347c618d9c565b8061348757506134c6565b806040517f08c379a00000000000000000000000000000000000000000000000000000000081526004016134bb9190614889565b60405180910390fd5b505b6040517f08c379a00000000000000000000000000000000000000000000000000000000081526004016134f890618e9e565b60405180910390fd5b63bc197c8160e01b7bffffffffffffffffffffffffffffffffffffffffffffffffffffffff1916817bffffffffffffffffffffffffffffffffffffffffffffffffffffffff191614613588576040517f08c379a000000000000000000000000000000000000000000000000000000000815260040161357f90618f30565b60405180910390fd5b505b505050505050565b61359a6112b8565b6135d9576040517f08c379a00000000000000000000000000000000000000000000000000000000081526004016135d090618f9c565b60405180910390fd5b565b600073ffffffffffffffffffffffffffffffffffffffff168373ffffffffffffffffffffffffffffffffffffffff160361364a576040517f08c379a00000000000000000000000000000000000000000000000000000000081526004016136419061902e565b60405180910390fd5b805182511461368e576040517f08c379a0000000000000000000000000000000000000000000000000000000008152600401613685906188ab565b60405180910390fd5b60006136986121b4565b90506136b881856000868660405180602001604052806000815250613395565b60005b83518110156138075760008482815181106136d9576136d8616f21565b5b6020026020010151905060008483815181106136f8576136f7616f21565b5b6020026020010151905060006065600084815260200190815260200160002060008973ffffffffffffffffffffffffffffffffffffffff1673ffffffffffffffffffffffffffffffffffffffff1681526020019081526020016000205490508181101561379a576040517f08c379a0000000000000000000000000000000000000000000000000000000008152600401613791906190c0565b60405180910390fd5b8181036065600085815260200190815260200160002060008a73ffffffffffffffffffffffffffffffffffffffff1673ffffffffffffffffffffffffffffffffffffffff1681526020019081526020016000208190555050505080806137ff90616f7f565b9150506136bb565b50600073ffffffffffffffffffffffffffffffffffffffff168473ffffffffffffffffffffffffffffffffffffffff168273ffffffffffffffffffffffffffffffffffffffff167f4a39dc06d4c0dbc64b70af90fd698a233a518aa5d07e595d983b8c0526c8f7fb868660405161387f9291906188ff565b60405180910390a46138a5818560008686604051806020016040528060008152506133b3565b50505050565b60606000600167ffffffffffffffff8111156138ca576138c9614552565b5b6040519080825280602002602001820160405280156138f85781602001602082028036833780820191505090505b50905082816000815181106139105761390f616f21565b5b60200260200101818152505080915050919050565b6139448473ffffffffffffffffffffffffffffffffffffffff16612b42565b15613af4578373ffffffffffffffffffffffffffffffffffffffff1663f23a6e6187878686866040518663ffffffff1660e01b815260040161398a9594939291906190e0565b6020604051808303816000875af19250505080156139c657506040513d601f19601f820116820180604052508101906139c39190618d40565b60015b613a6b576139d2618d7a565b806308c379a003613a2e57506139e6618d9c565b806139f15750613a30565b806040517f08c379a0000000000000000000000000000000000000000000000000000000008152600401613a259190614889565b60405180910390fd5b505b6040517f08c379a0000000000000000000000000000000000000000000000000000000008152600401613a6290618e9e565b60405180910390fd5b63f23a6e6160e01b7bffffffffffffffffffffffffffffffffffffffffffffffffffffffff1916817bffffffffffffffffffffffffffffffffffffffffffffffffffffffff191614613af2576040517f08c379a0000000000000000000000000000000000000000000000000000000008152600401613ae990618f30565b60405180910390fd5b505b505050505050565b8173ffffffffffffffffffffffffffffffffffffffff168373ffffffffffffffffffffffffffffffffffffffff1603613b6a576040517f08c379a0000000000000000000000000000000000000000000000000000000008152600401613b61906191ac565b60405180910390fd5b80606660008573ffffffffffffffffffffffffffffffffffffffff1673ffffffffffffffffffffffffffffffffffffffff16815260200190815260200160002060008473ffffffffffffffffffffffffffffffffffffffff1673ffffffffffffffffffffffffffffffffffffffff16815260200190815260200160002060006101000a81548160ff0219169083151502179055508173ffffffffffffffffffffffffffffffffffffffff168373ffffffffffffffffffffffffffffffffffffffff167f17307eab39ab6107e8899845ad3d59bd9653f200f220920489ca2b5937696c3183604051613c5b9190614779565b60405180910390a3505050565b600060019054906101000a900460ff16613cb7576040517f08c379a0000000000000000000000000000000000000000000000000000000008152600401613cae90618b87565b60405180910390fd5b613cc081611ea6565b50565b600060019054906101000a900460ff16613d12576040517f08c379a0000000000000000000000000000000000000000000000000000000008152600401613d0990618b87565b60405180910390fd5b600060c960006101000a81548160ff021916908315150217905550565b600073ffffffffffffffffffffffffffffffffffffffff168373ffffffffffffffffffffffffffffffffffffffff1603613d9e576040517f08c379a0000000000000000000000000000000000000000000000000000000008152600401613d959061902e565b60405180910390fd5b6000613da86121b4565b90506000613db5846138ab565b90506000613dc2846138ab565b9050613de283876000858560405180602001604052806000815250613395565b60006065600087815260200190815260200160002060008873ffffffffffffffffffffffffffffffffffffffff1673ffffffffffffffffffffffffffffffffffffffff16815260200190815260200160002054905084811015613e7a576040517f08c379a0000000000000000000000000000000000000000000000000000000008152600401613e71906190c0565b60405180910390fd5b8481036065600088815260200190815260200160002060008973ffffffffffffffffffffffffffffffffffffffff1673ffffffffffffffffffffffffffffffffffffffff16815260200190815260200160002081905550600073ffffffffffffffffffffffffffffffffffffffff168773ffffffffffffffffffffffffffffffffffffffff168573ffffffffffffffffffffffffffffffffffffffff167fc3d58168c5ae7397731d063d5bbf3d657854427343f4c083240f7aacaa2d0f628989604051613f48929190618aec565b60405180910390a4613f6e848860008686604051806020016040528060008152506133b3565b50505050505050565b6060613f9d8273ffffffffffffffffffffffffffffffffffffffff16601460ff16613fa4565b9050919050565b606060006002836002613fb791906191cc565b613fc191906188cb565b67ffffffffffffffff811115613fda57613fd9614552565b5b6040519080825280601f01601f19166020018201604052801561400c5781602001600182028036833780820191505090505b5090507f30000000000000000000000000000000000000000000000000000000000000008160008151811061404457614043616f21565b5b60200101907effffffffffffffffffffffffffffffffffffffffffffffffffffffffffffff1916908160001a9053507f7800000000000000000000000000000000000000000000000000000000000000816001815181106140a8576140a7616f21565b5b60200101907effffffffffffffffffffffffffffffffffffffffffffffffffffffffffffff1916908160001a905350600060018460026140e891906191cc565b6140f291906188cb565b90505b6001811115614192577f3031323334353637383961626364656600000000000000000000000000000000600f86166010811061413457614133616f21565b5b1a60f81b82828151811061414b5761414a616f21565b5b60200101907effffffffffffffffffffffffffffffffffffffffffffffffffffffffffffff1916908160001a905350600485901c94508061418b9061920e565b90506140f5565b50600084146141d6576040517f08c379a00000000000000000000000000000000000000000000000000000000081526004016141cd90619283565b60405180910390fd5b8091505092915050565b60007f01ffc9a7000000000000000000000000000000000000000000000000000000007bffffffffffffffffffffffffffffffffffffffffffffffffffffffff1916827bffffffffffffffffffffffffffffffffffffffffffffffffffffffff1916149050919050565b61425886868686868661441d565b600073ffffffffffffffffffffffffffffffffffffffff168573ffffffffffffffffffffffffffffffffffffffff160361430a5760005b8351811015614308578281815181106142ab576142aa616f21565b5b602002602001015161012d60008684815181106142cb576142ca616f21565b5b6020026020010151815260200190815260200160002060008282546142f091906188cb565b925050819055508061430190616f7f565b905061428f565b505b600073ffffffffffffffffffffffffffffffffffffffff168473ffffffffffffffffffffffffffffffffffffffff16036144155760005b835181101561441357600084828151811061435f5761435e616f21565b5b60200260200101519050600084838151811061437e5761437d616f21565b5b60200260200101519050600061012d6000848152602001908152602001600020549050818110156143e4576040517f08c379a00000000000000000000000000000000000000000000000000000000081526004016143db90619315565b60405180910390fd5b81810361012d6000858152602001908152602001600020819055505050508061440c90616f7f565b9050614341565b505b505050505050565b505050505050565b6000604051905090565b600080fd5b600080fd5b600073ffffffffffffffffffffffffffffffffffffffff82169050919050565b600061446482614439565b9050919050565b61447481614459565b811461447f57600080fd5b50565b6000813590506144918161446b565b92915050565b6000819050919050565b6144aa81614497565b81146144b557600080fd5b50565b6000813590506144c7816144a1565b92915050565b600080604083850312156144e4576144e361442f565b5b60006144f285828601614482565b9250506020614503858286016144b8565b9150509250929050565b61451681614497565b82525050565b6000602082019050614531600083018461450d565b92915050565b600080fd5b600080fd5b6000601f19601f8301169050919050565b7f4e487b7100000000000000000000000000000000000000000000000000000000600052604160045260246000fd5b61458a82614541565b810181811067ffffffffffffffff821117156145a9576145a8614552565b5b80604052505050565b60006145bc614425565b90506145c88282614581565b919050565b600067ffffffffffffffff8211156145e8576145e7614552565b5b6145f182614541565b9050602081019050919050565b82818337600083830152505050565b600061462061461b846145cd565b6145b2565b90508281526020810184848401111561463c5761463b61453c565b5b6146478482856145fe565b509392505050565b600082601f83011261466457614663614537565b5b813561467484826020860161460d565b91505092915050565b600080604083850312156146945761469361442f565b5b60006146a2858286016144b8565b925050602083013567ffffffffffffffff8111156146c3576146c2614434565b5b6146cf8582860161464f565b9150509250929050565b60007fffffffff0000000000000000000000000000000000000000000000000000000082169050919050565b61470e816146d9565b811461471957600080fd5b50565b60008135905061472b81614705565b92915050565b6000602082840312156147475761474661442f565b5b60006147558482850161471c565b91505092915050565b60008115159050919050565b6147738161475e565b82525050565b600060208201905061478e600083018461476a565b92915050565b6000602082840312156147aa576147a961442f565b5b600082013567ffffffffffffffff8111156147c8576147c7614434565b5b6147d48482850161464f565b91505092915050565b6000602082840312156147f3576147f261442f565b5b6000614801848285016144b8565b91505092915050565b600081519050919050565b600082825260208201905092915050565b60005b83811015614844578082015181840152602081019050614829565b60008484015250505050565b600061485b8261480a565b6148658185614815565b9350614875818560208601614826565b61487e81614541565b840191505092915050565b600060208201905081810360008301526148a38184614850565b905092915050565b600067ffffffffffffffff8211156148c6576148c5614552565b5b6148cf82614541565b9050602081019050919050565b60006148ef6148ea846148ab565b6145b2565b90508281526020810184848401111561490b5761490a61453c565b5b6149168482856145fe565b509392505050565b600082601f83011261493357614932614537565b5b81356149438482602086016148dc565b91505092915050565b600080600080600060a086880312156149685761496761442f565b5b600061497688828901614482565b955050602061498788828901614482565b9450506040614998888289016144b8565b93505060606149a9888289016144b8565b925050608086013567ffffffffffffffff8111156149ca576149c9614434565b5b6149d68882890161491e565b9150509295509295909350565b600080604083850312156149fa576149f961442f565b5b600083013567ffffffffffffffff811115614a1857614a17614434565b5b614a248582860161464f565b9250506020614a3585828601614482565b9150509250929050565b600080fd5b600080fd5b60008083601f840112614a5f57614a5e614537565b5b8235905067ffffffffffffffff811115614a7c57614a7b614a3f565b5b602083019150836020820283011115614a9857614a97614a44565b5b9250929050565b60008083601f840112614ab557614ab4614537565b5b8235905067ffffffffffffffff811115614ad257614ad1614a3f565b5b602083019150836020820283011115614aee57614aed614a44565b5b9250929050565b60008060008060408587031215614b0f57614b0e61442f565b5b600085013567ffffffffffffffff811115614b2d57614b2c614434565b5b614b3987828801614a49565b9450945050602085013567ffffffffffffffff811115614b5c57614b5b614434565b5b614b6887828801614a9f565b925092505092959194509250565b600081519050919050565b600082825260208201905092915050565b6000819050602082019050919050565b7f4e487b7100000000000000000000000000000000000000000000000000000000600052602160045260246000fd5b60068110614be257614be1614ba2565b5b50565b6000819050614bf382614bd1565b919050565b6000614c0382614be5565b9050919050565b614c1381614bf8565b82525050565b614c2281614459565b82525050565b614c3181614497565b82525050565b6000614c4282614439565b9050919050565b614c5281614c37565b82525050565b60a082016000820151614c6e6000850182614c0a565b506020820151614c816020850182614c19565b506040820151614c946040850182614c28565b506060820151614ca76060850182614c28565b506080820151614cba6080850182614c49565b50505050565b6000819050919050565b614cd381614cc0565b82525050565b60e082016000820151614cef6000850182614c58565b506020820151614d0260a0850182614c19565b506040820151614d1560c0850182614cca565b50505050565b6000614d278383614cd9565b60e08301905092915050565b6000602082019050919050565b6000614d4b82614b76565b614d558185614b81565b9350614d6083614b92565b8060005b83811015614d91578151614d788882614d1b565b9750614d8383614d33565b925050600181019050614d64565b5085935050505092915050565b60006020820190508181036000830152614db88184614d40565b905092915050565b600067ffffffffffffffff821115614ddb57614dda614552565b5b602082029050602081019050919050565b6000614dff614dfa84614dc0565b6145b2565b90508083825260208201905060208402830185811115614e2257614e21614a44565b5b835b81811015614e4b5780614e3788826144b8565b845260208401935050602081019050614e24565b5050509392505050565b600082601f830112614e6a57614e69614537565b5b8135614e7a848260208601614dec565b91505092915050565b60008060008060808587031215614e9d57614e9c61442f565b5b6000614eab87828801614482565b945050602085013567ffffffffffffffff811115614ecc57614ecb614434565b5b614ed887828801614e55565b935050604085013567ffffffffffffffff811115614ef957614ef8614434565b5b614f0587828801614e55565b925050606085013567ffffffffffffffff811115614f2657614f25614434565b5b614f328782880161491e565b91505092959194509250565b614f4781614cc0565b8114614f5257600080fd5b50565b600081359050614f6481614f3e565b92915050565b600060208284031215614f8057614f7f61442f565b5b6000614f8e84828501614f55565b91505092915050565b614fa081614cc0565b82525050565b6000602082019050614fbb6000830184614f97565b92915050565b600080600080600060a08688031215614fdd57614fdc61442f565b5b6000614feb88828901614482565b9550506020614ffc88828901614482565b945050604086013567ffffffffffffffff81111561501d5761501c614434565b5b61502988828901614e55565b935050606086013567ffffffffffffffff81111561504a57615049614434565b5b61505688828901614e55565b925050608086013567ffffffffffffffff81111561507757615076614434565b5b6150838882890161491e565b9150509295509295909350565b600080604083850312156150a7576150a661442f565b5b60006150b585828601614f55565b92505060206150c685828601614482565b9150509250929050565b60008083601f8401126150e6576150e5614537565b5b8235905067ffffffffffffffff81111561510357615102614a3f565b5b60208301915083602082028301111561511f5761511e614a44565b5b9250929050565b60008060008060008060008060a0898b0312156151465761514561442f565b5b600089013567ffffffffffffffff81111561516457615163614434565b5b6151708b828c01614a49565b9850985050602089013567ffffffffffffffff81111561519357615192614434565b5b61519f8b828c016150d0565b9650965050604089013567ffffffffffffffff8111156151c2576151c1614434565b5b6151ce8b828c016150d0565b945094505060606151e18b828c01614f55565b92505060806151f28b828c016144b8565b9150509295985092959890939650565b600081519050919050565b600082825260208201905092915050565b6000819050602082019050919050565b6152378161475e565b82525050565b6000615249838361522e565b60208301905092915050565b6000602082019050919050565b600061526d82615202565b615277818561520d565b93506152828361521e565b8060005b838110156152b357815161529a888261523d565b97506152a583615255565b925050600181019050615286565b5085935050505092915050565b600060408201905081810360008301526152da8185615262565b905081810360208301526152ee8184614d40565b90509392505050565b600067ffffffffffffffff82111561531257615311614552565b5b602082029050602081019050919050565b6000615336615331846152f7565b6145b2565b9050808382526020820190506020840283018581111561535957615358614a44565b5b835b81811015615382578061536e8882614482565b84526020840193505060208101905061535b565b5050509392505050565b600082601f8301126153a1576153a0614537565b5b81356153b1848260208601615323565b91505092915050565b600080604083850312156153d1576153d061442f565b5b600083013567ffffffffffffffff8111156153ef576153ee614434565b5b6153fb8582860161538c565b925050602083013567ffffffffffffffff81111561541c5761541b614434565b5b61542885828601614e55565b9150509250929050565b600081519050919050565b600082825260208201905092915050565b6000819050602082019050919050565b600061546a8383614c28565b60208301905092915050565b6000602082019050919050565b600061548e82615432565b615498818561543d565b93506154a38361544e565b8060005b838110156154d45781516154bb888261545e565b97506154c683615476565b9250506001810190506154a7565b5085935050505092915050565b600060208201905081810360008301526154fb8184615483565b905092915050565b60008083601f84011261551957615518614537565b5b8235905067ffffffffffffffff81111561553657615535614a3f565b5b60208301915083602082028301111561555257615551614a44565b5b9250929050565b60008083601f84011261556f5761556e614537565b5b8235905067ffffffffffffffff81111561558c5761558b614a3f565b5b6020830191508360208202830111156155a8576155a7614a44565b5b9250929050565b600080600080600080600080600080600060e08c8e0312156155d4576155d361442f565b5b60008c013567ffffffffffffffff8111156155f2576155f1614434565b5b6155fe8e828f01615503565b9b509b505060208c013567ffffffffffffffff81111561562157615620614434565b5b61562d8e828f01615559565b995099505060408c013567ffffffffffffffff8111156156505761564f614434565b5b61565c8e828f016150d0565b975097505060608c013567ffffffffffffffff81111561567f5761567e614434565b5b61568b8e828f016150d0565b9550955050608061569e8e828f01614f55565b93505060a06156af8e828f01614482565b92505060c06156c08e828f016144b8565b9150509295989b509295989b9093969950565b60006080820190506156e8600083018761476a565b6156f5602083018661476a565b615702604083018561450d565b61570f606083018461450d565b95945050505050565b6000806000606084860312156157315761573061442f565b5b600061573f86828701614482565b935050602084013567ffffffffffffffff8111156157605761575f614434565b5b61576c86828701614e55565b925050604084013567ffffffffffffffff81111561578d5761578c614434565b5b61579986828701614e55565b9150509250925092565b600080600080608085870312156157bd576157bc61442f565b5b60006157cb87828801614482565b94505060206157dc878288016144b8565b93505060406157ed878288016144b8565b925050606085013567ffffffffffffffff81111561580e5761580d614434565b5b61581a8782880161491e565b91505092959194509250565b6000806020838503121561583d5761583c61442f565b5b600083013567ffffffffffffffff81111561585b5761585a614434565b5b61586785828601614a49565b92509250509250929050565b600080fd5b600060a0828403121561588e5761588d615873565b5b81905092915050565b6000806000806000608086880312156158b3576158b261442f565b5b600086013567ffffffffffffffff8111156158d1576158d0614434565b5b6158dd88828901615878565b955050602086013567ffffffffffffffff8111156158fe576158fd614434565b5b61590a88828901615559565b9450945050604061591d88828901614f55565b925050606061592e88828901614482565b9150509295509295909350565b6159448161475e565b811461594f57600080fd5b50565b6000813590506159618161593b565b92915050565b6000806040838503121561597e5761597d61442f565b5b600061598c85828601614482565b925050602061599d85828601615952565b9150509250929050565b600080fd5b600080fd5b600067ffffffffffffffff8211156159cc576159cb614552565b5b602082029050602081019050919050565b600681106159ea57600080fd5b50565b6000813590506159fc816159dd565b92915050565b600060a08284031215615a1857615a176159a7565b5b615a2260a06145b2565b90506000615a32848285016159ed565b6000830152506020615a4684828501614482565b6020830152506040615a5a848285016144b8565b6040830152506060615a6e848285016144b8565b6060830152506080615a82848285016144b8565b60808301525092915050565b6000615aa1615a9c846159b1565b6145b2565b90508083825260208201905060a08402830185811115615ac457615ac3614a44565b5b835b81811015615aed5780615ad98882615a02565b84526020840193505060a081019050615ac6565b5050509392505050565b600082601f830112615b0c57615b0b614537565b5b8135615b1c848260208601615a8e565b91505092915050565b600067ffffffffffffffff821115615b4057615b3f614552565b5b602082029050602081019050919050565b615b5a81614c37565b8114615b6557600080fd5b50565b600081359050615b7781615b51565b92915050565b600060c08284031215615b9357615b926159a7565b5b615b9d60c06145b2565b90506000615bad848285016159ed565b6000830152506020615bc184828501614482565b6020830152506040615bd5848285016144b8565b6040830152506060615be9848285016144b8565b6060830152506080615bfd848285016144b8565b60808301525060a0615c1184828501615b68565b60a08301525092915050565b6000615c30615c2b84615b25565b6145b2565b90508083825260208201905060c08402830185811115615c5357615c52614a44565b5b835b81811015615c7c5780615c688882615b7d565b84526020840193505060c081019050615c55565b5050509392505050565b600082601f830112615c9b57615c9a614537565b5b8135615cab848260208601615c1d565b91505092915050565b60058110615cc157600080fd5b50565b600081359050615cd381615cb4565b92915050565b60006101608284031215615cf057615cef6159a7565b5b615cfb6101606145b2565b90506000615d0b84828501614482565b6000830152506020615d1f84828501614482565b602083015250604082013567ffffffffffffffff811115615d4357615d426159ac565b5b615d4f84828501615af7565b604083015250606082013567ffffffffffffffff811115615d7357615d726159ac565b5b615d7f84828501615c86565b6060830152506080615d9384828501615cc4565b60808301525060a0615da7848285016144b8565b60a08301525060c0615dbb848285016144b8565b60c08301525060e0615dcf84828501614f55565b60e083015250610100615de4848285016144b8565b61010083015250610120615dfa84828501614f55565b61012083015250610140615e10848285016144b8565b6101408301525092915050565b600060408284031215615e3357615e326159a7565b5b615e3d60406145b2565b9050600082013567ffffffffffffffff811115615e5d57615e5c6159ac565b5b615e6984828501615cd9565b600083015250602082013567ffffffffffffffff811115615e8d57615e8c6159ac565b5b615e998482850161491e565b60208301525092915050565b60008060408385031215615ebc57615ebb61442f565b5b600083013567ffffffffffffffff811115615eda57615ed9614434565b5b615ee685828601615e1d565b9250506020615ef785828601614f55565b9150509250929050565b60008060008060008060006080888a031215615f2057615f1f61442f565b5b600088013567ffffffffffffffff811115615f3e57615f3d614434565b5b615f4a8a828b01615503565b9750975050602088013567ffffffffffffffff811115615f6d57615f6c614434565b5b615f798a828b01615559565b9550955050604088013567ffffffffffffffff811115615f9c57615f9b614434565b5b615fa88a828b01614a9f565b93509350506060615fbb8a828b01614482565b91505092959891949750929550565b600060208284031215615fe057615fdf61442f565b5b6000615fee84828501614482565b91505092915050565b6000610160828403121561600e5761600d615873565b5b81905092915050565b60006020828403121561602d5761602c61442f565b5b600082013567ffffffffffffffff81111561604b5761604a614434565b5b61605784828501615ff7565b91505092915050565b60008083601f84011261607657616075614537565b5b8235905067ffffffffffffffff81111561609357616092614a3f565b5b6020830191508360208202830111156160af576160ae614a44565b5b9250929050565b600080602083850312156160cd576160cc61442f565b5b600083013567ffffffffffffffff8111156160eb576160ea614434565b5b6160f785828601616060565b92509250509250929050565b6000806040838503121561611a5761611961442f565b5b600061612885828601614482565b925050602061613985828601614482565b9150509250929050565b60008060006060848603121561615c5761615b61442f565b5b600061616a86828701614482565b935050602061617b868287016144b8565b925050604061618c868287016144b8565b9150509250925092565b600081905092915050565b60006161ac8261480a565b6161b68185616196565b93506161c6818560208601614826565b80840191505092915050565b7f2f00000000000000000000000000000000000000000000000000000000000000815250565b600061620482856161a1565b915061620f826161d2565b60018201915061621f82846161a1565b91508190509392505050565b7f4e487b7100000000000000000000000000000000000000000000000000000000600052602260045260246000fd5b6000600282049050600182168061627257607f821691505b6020821081036162855761628461622b565b5b50919050565b600082825260208201905092915050565b6000819050919050565b600080fd5b600082356001610160038336030381126162c8576162c76162a6565b5b82810191505092915050565b60006162e36020840184614482565b905092915050565b600080fd5b600080fd5b60008083356001602003843603038112616312576163116162a6565b5b83810192508235915060208301925067ffffffffffffffff82111561633a576163396162eb565b5b60a0820236038313156163505761634f6162f0565b5b509250929050565b600082825260208201905092915050565b6000819050919050565b600061638260208401846159ed565b905092915050565b600061639960208401846144b8565b905092915050565b60a082016163b26000830183616373565b6163bf6000850182614c0a565b506163cd60208301836162d4565b6163da6020850182614c19565b506163e8604083018361638a565b6163f56040850182614c28565b50616403606083018361638a565b6164106060850182614c28565b5061641e608083018361638a565b61642b6080850182614c28565b50505050565b600061643d83836163a1565b60a08301905092915050565b600082905092915050565b600060a082019050919050565b600061646d8385616358565b935061647882616369565b8060005b858110156164b15761648e8284616449565b6164988882616431565b97506164a383616454565b92505060018101905061647c565b5085925050509392505050565b600080833560016020038436030381126164db576164da6162a6565b5b83810192508235915060208301925067ffffffffffffffff821115616503576165026162eb565b5b60c082023603831315616519576165186162f0565b5b509250929050565b600082825260208201905092915050565b6000819050919050565b600061654b6020840184615b68565b905092915050565b60c082016165646000830183616373565b6165716000850182614c0a565b5061657f60208301836162d4565b61658c6020850182614c19565b5061659a604083018361638a565b6165a76040850182614c28565b506165b5606083018361638a565b6165c26060850182614c28565b506165d0608083018361638a565b6165dd6080850182614c28565b506165eb60a083018361653c565b6165f860a0850182614c49565b50505050565b600061660a8383616553565b60c08301905092915050565b600082905092915050565b600060c082019050919050565b600061663a8385616521565b935061664582616532565b8060005b8581101561667e5761665b8284616616565b61666588826165fe565b975061667083616621565b925050600181019050616649565b5085925050509392505050565b600061669a6020840184615cc4565b905092915050565b600581106166b3576166b2614ba2565b5b50565b60008190506166c4826166a2565b919050565b60006166d4826166b6565b9050919050565b6166e4816166c9565b82525050565b60006166f96020840184614f55565b905092915050565b6000610160830161671560008401846162d4565b6167226000860182614c19565b5061673060208401846162d4565b61673d6020860182614c19565b5061674b60408401846162f5565b858303604087015261675e838284616461565b9250505061676f60608401846164be565b858303606087015261678283828461662e565b92505050616793608084018461668b565b6167a060808601826166db565b506167ae60a084018461638a565b6167bb60a0860182614c28565b506167c960c084018461638a565b6167d660c0860182614c28565b506167e460e08401846166ea565b6167f160e0860182614cca565b5061680061010084018461638a565b61680e610100860182614c28565b5061681d6101208401846166ea565b61682b610120860182614cca565b5061683a61014084018461638a565b616848610140860182614c28565b508091505092915050565b600080833560016020038436030381126168705761686f6162a6565b5b83810192508235915060208301925067ffffffffffffffff821115616898576168976162eb565b5b6001820236038313156168ae576168ad6162f0565b5b509250929050565b600082825260208201905092915050565b60006168d383856168b6565b93506168e08385846145fe565b6168e983614541565b840190509392505050565b60006040830161690760008401846162ab565b84820360008601526169198282616701565b9150506169296020840184616853565b858303602087015261693c8382846168c7565b925050508091505092915050565b600061695683836168f4565b905092915050565b60008235600160400383360303811261697a576169796162a6565b5b82810191505092915050565b6000602082019050919050565b600061699f838561628b565b9350836020840285016169b18461629c565b8060005b878110156169f55784840389526169cc828461695e565b6169d6858261694a565b94506169e183616986565b925060208a019950506001810190506169b5565b50829750879450505050509392505050565b600082825260208201905092915050565b6000819050919050565b60008083356001602003843603038112616a3f57616a3e6162a6565b5b83810192508235915060208301925067ffffffffffffffff821115616a6757616a666162eb565b5b604082023603831315616a7d57616a7c6162f0565b5b509250929050565b600082825260208201905092915050565b6000819050919050565b60408201616ab1600083018361638a565b616abe6000850182614c28565b50616acc602083018361638a565b616ad96020850182614c28565b50505050565b6000616aeb8383616aa0565b60408301905092915050565b600082905092915050565b6000604082019050919050565b6000616b1b8385616a85565b9350616b2682616a96565b8060005b85811015616b5f57616b3c8284616af7565b616b468882616adf565b9750616b5183616b02565b925050600181019050616b2a565b5085925050509392505050565b600060408301616b7f6000840184616a22565b8583036000870152616b92838284616b0f565b92505050616ba36020840184616a22565b8583036020870152616bb6838284616b0f565b925050508091505092915050565b6000616bd08383616b6c565b905092915050565b600082356001604003833603038112616bf457616bf36162a6565b5b82810191505092915050565b6000602082019050919050565b6000616c198385616a07565b935083602084028501616c2b84616a18565b8060005b87811015616c6f578484038952616c468284616bd8565b616c508582616bc4565b9450616c5b83616c00565b925060208a01995050600181019050616c2f565b50829750879450505050509392505050565b60006040820190508181036000830152616c9c818688616993565b90508181036020830152616cb1818486616c0d565b905095945050505050565b600067ffffffffffffffff821115616cd757616cd6614552565b5b602082029050602081019050919050565b600081519050616cf7816159dd565b92915050565b600081519050616d0c8161446b565b92915050565b600081519050616d21816144a1565b92915050565b600081519050616d3681615b51565b92915050565b600060a08284031215616d5257616d516159a7565b5b616d5c60a06145b2565b90506000616d6c84828501616ce8565b6000830152506020616d8084828501616cfd565b6020830152506040616d9484828501616d12565b6040830152506060616da884828501616d12565b6060830152506080616dbc84828501616d27565b60808301525092915050565b600081519050616dd781614f3e565b92915050565b600060e08284031215616df357616df26159a7565b5b616dfd60606145b2565b90506000616e0d84828501616d3c565b60008301525060a0616e2184828501616cfd565b60208301525060c0616e3584828501616dc8565b60408301525092915050565b6000616e54616e4f84616cbc565b6145b2565b90508083825260208201905060e08402830185811115616e7757616e76614a44565b5b835b81811015616ea05780616e8c8882616ddd565b84526020840193505060e081019050616e79565b5050509392505050565b600082601f830112616ebf57616ebe614537565b5b8151616ecf848260208601616e41565b91505092915050565b600060208284031215616eee57616eed61442f565b5b600082015167ffffffffffffffff811115616f0c57616f0b614434565b5b616f1884828501616eaa565b91505092915050565b7f4e487b7100000000000000000000000000000000000000000000000000000000600052603260045260246000fd5b7f4e487b7100000000000000000000000000000000000000000000000000000000600052601160045260246000fd5b6000616f8a82614497565b91507fffffffffffffffffffffffffffffffffffffffffffffffffffffffffffffffff8203616fbc57616fbb616f50565b5b600182019050919050565b7f455243313135353a2063616c6c6572206973206e6f7420746f6b656e206f776e60008201527f6572206f7220617070726f766564000000000000000000000000000000000000602082015250565b6000617023602e83614815565b915061702e82616fc7565b604082019050919050565b6000602082019050818103600083015261705281617016565b9050919050565b7f416363657373436f6e74726f6c3a2063616e206f6e6c792072656e6f756e636560008201527f20726f6c657320666f722073656c660000000000000000000000000000000000602082015250565b60006170b5602f83614815565b91506170c082617059565b604082019050919050565b600060208201905081810360008301526170e4816170a8565b9050919050565b600082825260208201905092915050565b6000819050919050565b6000617113848484616b0f565b90509392505050565b6000602082019050919050565b600061713583856170eb565b935083602084028501617147846170fc565b8060005b8781101561718d5784840389526171628284616a22565b61716d868284617106565b95506171788461711c565b935060208b019a50505060018101905061714b565b50829750879450505050509392505050565b600060a08201905081810360008301526171ba818a8c616993565b905081810360208301526171cf81888a617129565b905081810360408301526171e4818688617129565b90506171f36060830185614f97565b617200608083018461450d565b9998505050505050505050565b600067ffffffffffffffff82111561722857617227614552565b5b602082029050602081019050919050565b6000815190506172488161593b565b92915050565b600061726161725c8461720d565b6145b2565b9050808382526020820190506020840283018581111561728457617283614a44565b5b835b818110156172ad57806172998882617239565b845260208401935050602081019050617286565b5050509392505050565b600082601f8301126172cc576172cb614537565b5b81516172dc84826020860161724e565b91505092915050565b600080604083850312156172fc576172fb61442f565b5b600083015167ffffffffffffffff81111561731a57617319614434565b5b617326858286016172b7565b925050602083015167ffffffffffffffff81111561734757617346614434565b5b61735385828601616eaa565b9150509250929050565b600082825260208201905092915050565b6000819050919050565b60006effffffffffffffffffffffffffffff82169050919050565b61739c81617378565b81146173a757600080fd5b50565b6000813590506173b981617393565b92915050565b60006173ce60208401846173aa565b905092915050565b6173df81617378565b82525050565b600060a083016173f860008401846162ab565b848203600086015261740a8282616701565b91505061741a60208401846173bf565b61742760208601826173d6565b5061743560408401846173bf565b61744260408601826173d6565b506174506060840184616853565b85830360608701526174638382846168c7565b925050506174746080840184616853565b85830360808701526174878382846168c7565b925050508091505092915050565b60006174a183836173e5565b905092915050565b60008235600160a0038336030381126174c5576174c46162a6565b5b82810191505092915050565b6000602082019050919050565b60006174ea838561735d565b9350836020840285016174fc8461736e565b8060005b8781101561754057848403895261751782846174a9565b6175218582617495565b945061752c836174d1565b925060208a01995050600181019050617500565b50829750879450505050509392505050565b600082825260208201905092915050565b6000819050919050565b6002811061757a57600080fd5b50565b60008135905061758c8161756d565b92915050565b60006175a1602084018461757d565b905092915050565b600281106175ba576175b9614ba2565b5b50565b60008190506175cb826175a9565b919050565b60006175db826175bd565b9050919050565b6175eb816175d0565b82525050565b6000808335600160200384360303811261760e5761760d6162a6565b5b83810192508235915060208301925067ffffffffffffffff821115617636576176356162eb565b5b60208202360383131561764c5761764b6162f0565b5b509250929050565b600082825260208201905092915050565b600080fd5b82818337505050565b600061767f8385617654565b93507f07ffffffffffffffffffffffffffffffffffffffffffffffffffffffffffffff8311156176b2576176b1617665565b5b6020830292506176c383858461766a565b82840190509392505050565b600060a083016176e2600084018461638a565b6176ef6000860182614c28565b506176fd6020840184617592565b61770a60208601826175e2565b50617718604084018461638a565b6177256040860182614c28565b50617733606084018461638a565b6177406060860182614c28565b5061774e60808401846175f1565b8583036080870152617761838284617673565b925050508091505092915050565b600061777b83836176cf565b905092915050565b60008235600160a00383360303811261779f5761779e6162a6565b5b82810191505092915050565b6000602082019050919050565b60006177c48385617552565b9350836020840285016177d684617563565b8060005b8781101561781a5784840389526177f18284617783565b6177fb858261776f565b9450617806836177ab565b925060208a019950506001810190506177da565b50829750879450505050509392505050565b61783581614459565b82525050565b600060e0820190508181036000830152617856818d8f6174de565b9050818103602083015261786b818b8d6177b8565b9050818103604083015261788081898b617129565b90508181036060830152617895818789617129565b90506178a46080830186614f97565b6178b160a083018561782c565b6178be60c083018461450d565b9c9b505050505050505050505050565b60006178da82846161a1565b915081905092915050565b600080600080608085870312156178ff576178fe61442f565b5b600061790d87828801617239565b945050602061791e87828801617239565b935050604061792f87828801616d12565b925050606061794087828801616d12565b91505092959194509250565b60006020820190508181036000830152617967818486616993565b90509392505050565b6000602082840312156179865761798561442f565b5b600061799484828501617239565b91505092915050565b600060a083016179b060008401846162ab565b84820360008601526179c28282616701565b9150506179d260208401846173bf565b6179df60208601826173d6565b506179ed60408401846173bf565b6179fa60408601826173d6565b50617a086060840184616853565b8583036060870152617a1b8382846168c7565b92505050617a2c6080840184616853565b8583036080870152617a3f8382846168c7565b925050508091505092915050565b60006080820190508181036000830152617a67818861799d565b90508181036020830152617a7c8186886177b8565b9050617a8b6040830185614f97565b617a98606083018461782c565b9695505050505050565b600081519050919050565b6000819050602082019050919050565b60a082016000820151617ad36000850182614c0a565b506020820151617ae66020850182614c19565b506040820151617af96040850182614c28565b506060820151617b0c6060850182614c28565b506080820151617b1f6080850182614c28565b50505050565b6000617b318383617abd565b60a08301905092915050565b6000602082019050919050565b6000617b5582617aa2565b617b5f8185616358565b9350617b6a83617aad565b8060005b83811015617b9b578151617b828882617b25565b9750617b8d83617b3d565b925050600181019050617b6e565b5085935050505092915050565b600081519050919050565b6000819050602082019050919050565b60c082016000820151617bd96000850182614c0a565b506020820151617bec6020850182614c19565b506040820151617bff6040850182614c28565b506060820151617c126060850182614c28565b506080820151617c256080850182614c28565b5060a0820151617c3860a0850182614c49565b50505050565b6000617c4a8383617bc3565b60c08301905092915050565b6000602082019050919050565b6000617c6e82617ba8565b617c788185616521565b9350617c8383617bb3565b8060005b83811015617cb4578151617c9b8882617c3e565b9750617ca683617c56565b925050600181019050617c87565b5085935050505092915050565b600061016083016000830151617cda6000860182614c19565b506020830151617ced6020860182614c19565b5060408301518482036040860152617d058282617b4a565b91505060608301518482036060860152617d1f8282617c63565b9150506080830151617d3460808601826166db565b5060a0830151617d4760a0860182614c28565b5060c0830151617d5a60c0860182614c28565b5060e0830151617d6d60e0860182614cca565b50610100830151617d82610100860182614c28565b50610120830151617d97610120860182614cca565b50610140830151617dac610140860182614c28565b508091505092915050565b600081519050919050565b6000617dcd82617db7565b617dd781856168b6565b9350617de7818560208601614826565b617df081614541565b840191505092915050565b60006040830160008301518482036000860152617e188282617cc1565b91505060208301518482036020860152617e328282617dc2565b9150508091505092915050565b60006040820190508181036000830152617e598185617dfb565b9050617e686020830184614f97565b9392505050565b60006080820190508181036000830152617e8a81898b6174de565b90508181036020830152617e9f8187896177b8565b90508181036040830152617eb4818587616c0d565b9050617ec3606083018461782c565b98975050505050505050565b7f496e697469616c697a61626c653a20636f6e747261637420697320616c72656160008201527f647920696e697469616c697a6564000000000000000000000000000000000000602082015250565b6000617f2b602e83614815565b9150617f3682617ecf565b604082019050919050565b60006020820190508181036000830152617f5a81617f1e565b9050919050565b6000819050919050565b600060ff82169050919050565b6000819050919050565b6000617f9d617f98617f9384617f61565b617f78565b617f6b565b9050919050565b617fad81617f82565b82525050565b6000602082019050617fc86000830184617fa4565b92915050565b60006101608301617fe260008401846162d4565b617fef6000860182614c19565b50617ffd60208401846162d4565b61800a6020860182614c19565b5061801860408401846162f5565b858303604087015261802b838284616461565b9250505061803c60608401846164be565b858303606087015261804f83828461662e565b92505050618060608084018461668b565b61806d60808601826166db565b5061807b60a084018461638a565b61808860a0860182614c28565b5061809660c084018461638a565b6180a360c0860182614c28565b506180b160e08401846166ea565b6180be60e0860182614cca565b506180cd61010084018461638a565b6180db610100860182614c28565b506180ea6101208401846166ea565b6180f8610120860182614cca565b5061810761014084018461638a565b618115610140860182614c28565b508091505092915050565b6000602082019050818103600083015261813a8184617fce565b905092915050565b6000602082840312156181585761815761442f565b5b600061816684828501616dc8565b91505092915050565b600082825260208201905092915050565b6000819050919050565b6000610160830161819e60008401846162d4565b6181ab6000860182614c19565b506181b960208401846162d4565b6181c66020860182614c19565b506181d460408401846162f5565b85830360408701526181e7838284616461565b925050506181f860608401846164be565b858303606087015261820b83828461662e565b9250505061821c608084018461668b565b61822960808601826166db565b5061823760a084018461638a565b61824460a0860182614c28565b5061825260c084018461638a565b61825f60c0860182614c28565b5061826d60e08401846166ea565b61827a60e0860182614cca565b5061828961010084018461638a565b618297610100860182614c28565b506182a66101208401846166ea565b6182b4610120860182614cca565b506182c361014084018461638a565b6182d1610140860182614c28565b508091505092915050565b60006182e8838361818a565b905092915050565b6000823560016101600383360303811261830d5761830c6162a6565b5b82810191505092915050565b6000602082019050919050565b6000618332838561816f565b93508360208402850161834484618180565b8060005b8781101561838857848403895261835f82846182f0565b61836985826182dc565b945061837483618319565b925060208a01995050600181019050618348565b50829750879450505050509392505050565b600060208201905081810360008301526183b5818486618326565b90509392505050565b60006020820190506183d3600083018461782c565b92915050565b6000602082840312156183ef576183ee61442f565b5b60006183fd84828501616d12565b91505092915050565b7f455243313135353a2061646472657373207a65726f206973206e6f742061207660008201527f616c6964206f776e657200000000000000000000000000000000000000000000602082015250565b6000618462602a83614815565b915061846d82618406565b604082019050919050565b6000602082019050818103600083015261849181618455565b9050919050565b7f5061757361626c653a2070617573656400000000000000000000000000000000600082015250565b60006184ce601083614815565b91506184d982618498565b602082019050919050565b600060208201905081810360008301526184fd816184c1565b9050919050565b60008190508160005260206000209050919050565b60006020601f8301049050919050565b600082821b905092915050565b6000600883026185667fffffffffffffffffffffffffffffffffffffffffffffffffffffffffffffffff82618529565b6185708683618529565b95508019841693508086168417925050509392505050565b60006185a361859e61859984614497565b617f78565b614497565b9050919050565b6000819050919050565b6185bd83618588565b6185d16185c9826185aa565b848454618536565b825550505050565b600090565b6185e66185d9565b6185f18184846185b4565b505050565b5b818110156186155761860a6000826185de565b6001810190506185f7565b5050565b601f82111561865a5761862b81618504565b61863484618519565b81016020851015618643578190505b61865761864f85618519565b8301826185f6565b50505b505050565b600082821c905092915050565b600061867d6000198460080261865f565b1980831691505092915050565b6000618696838361866c565b9150826002028217905092915050565b6186af8261480a565b67ffffffffffffffff8111156186c8576186c7614552565b5b6186d2825461625a565b6186dd828285618619565b600060209050601f83116001811461871057600084156186fe578287015190505b618708858261868a565b865550618770565b601f19841661871e86618504565b60005b8281101561874657848901518255600182019150602085019450602081019050618721565b86831015618763578489015161875f601f89168261866c565b8355505b6001600288020188555050505b505050505050565b7f4e487b7100000000000000000000000000000000000000000000000000000000600052601260045260246000fd5b7f455243313135353a206d696e7420746f20746865207a65726f2061646472657360008201527f7300000000000000000000000000000000000000000000000000000000000000602082015250565b6000618803602183614815565b915061880e826187a7565b604082019050919050565b60006020820190508181036000830152618832816187f6565b9050919050565b7f455243313135353a2069647320616e6420616d6f756e7473206c656e6774682060008201527f6d69736d61746368000000000000000000000000000000000000000000000000602082015250565b6000618895602883614815565b91506188a082618839565b604082019050919050565b600060208201905081810360008301526188c481618888565b9050919050565b60006188d682614497565b91506188e183614497565b92508282019050808211156188f9576188f8616f50565b5b92915050565b600060408201905081810360008301526189198185615483565b9050818103602083015261892d8184615483565b90509392505050565b7f455243313135353a207472616e7366657220746f20746865207a65726f20616460008201527f6472657373000000000000000000000000000000000000000000000000000000602082015250565b6000618992602583614815565b915061899d82618936565b604082019050919050565b600060208201905081810360008301526189c181618985565b9050919050565b7f455243313135353a20696e73756666696369656e742062616c616e636520666f60008201527f72207472616e7366657200000000000000000000000000000000000000000000602082015250565b6000618a24602a83614815565b9150618a2f826189c8565b604082019050919050565b60006020820190508181036000830152618a5381618a17565b9050919050565b7f455243313135353a206163636f756e747320616e6420696473206c656e67746860008201527f206d69736d617463680000000000000000000000000000000000000000000000602082015250565b6000618ab6602983614815565b9150618ac182618a5a565b604082019050919050565b60006020820190508181036000830152618ae581618aa9565b9050919050565b6000604082019050618b01600083018561450d565b618b0e602083018461450d565b9392505050565b7f496e697469616c697a61626c653a20636f6e7472616374206973206e6f74206960008201527f6e697469616c697a696e67000000000000000000000000000000000000000000602082015250565b6000618b71602b83614815565b9150618b7c82618b15565b604082019050919050565b60006020820190508181036000830152618ba081618b64565b9050919050565b7f416363657373436f6e74726f6c3a206163636f756e7420000000000000000000600082015250565b6000618bdd601783616196565b9150618be882618ba7565b601782019050919050565b7f206973206d697373696e6720726f6c6520000000000000000000000000000000600082015250565b6000618c29601183616196565b9150618c3482618bf3565b601182019050919050565b6000618c4a82618bd0565b9150618c5682856161a1565b9150618c6182618c1c565b9150618c6d82846161a1565b91508190509392505050565b600082825260208201905092915050565b6000618c9582617db7565b618c9f8185618c79565b9350618caf818560208601614826565b618cb881614541565b840191505092915050565b600060a082019050618cd8600083018861782c565b618ce5602083018761782c565b8181036040830152618cf78186615483565b90508181036060830152618d0b8185615483565b90508181036080830152618d1f8184618c8a565b90509695505050505050565b600081519050618d3a81614705565b92915050565b600060208284031215618d5657618d5561442f565b5b6000618d6484828501618d2b565b91505092915050565b60008160e01c9050919050565b600060033d1115618d995760046000803e618d96600051618d6d565b90505b90565b600060443d10618e2957618dae614425565b60043d036004823e80513d602482011167ffffffffffffffff82111715618dd6575050618e29565b808201805167ffffffffffffffff811115618df45750505050618e29565b80602083010160043d038501811115618e11575050505050618e29565b618e2082602001850186614581565b82955050505050505b90565b7f455243313135353a207472616e7366657220746f206e6f6e2d4552433131353560008201527f526563656976657220696d706c656d656e746572000000000000000000000000602082015250565b6000618e88603483614815565b9150618e9382618e2c565b604082019050919050565b60006020820190508181036000830152618eb781618e7b565b9050919050565b7f455243313135353a204552433131353552656365697665722072656a6563746560008201527f6420746f6b656e73000000000000000000000000000000000000000000000000602082015250565b6000618f1a602883614815565b9150618f2582618ebe565b604082019050919050565b60006020820190508181036000830152618f4981618f0d565b9050919050565b7f5061757361626c653a206e6f7420706175736564000000000000000000000000600082015250565b6000618f86601483614815565b9150618f9182618f50565b602082019050919050565b60006020820190508181036000830152618fb581618f79565b9050919050565b7f455243313135353a206275726e2066726f6d20746865207a65726f206164647260008201527f6573730000000000000000000000000000000000000000000000000000000000602082015250565b6000619018602383614815565b915061902382618fbc565b604082019050919050565b600060208201905081810360008301526190478161900b565b9050919050565b7f455243313135353a206275726e20616d6f756e7420657863656564732062616c60008201527f616e636500000000000000000000000000000000000000000000000000000000602082015250565b60006190aa602483614815565b91506190b58261904e565b604082019050919050565b600060208201905081810360008301526190d98161909d565b9050919050565b600060a0820190506190f5600083018861782c565b619102602083018761782c565b61910f604083018661450d565b61911c606083018561450d565b818103608083015261912e8184618c8a565b90509695505050505050565b7f455243313135353a2073657474696e6720617070726f76616c2073746174757360008201527f20666f722073656c660000000000000000000000000000000000000000000000602082015250565b6000619196602983614815565b91506191a18261913a565b604082019050919050565b600060208201905081810360008301526191c581619189565b9050919050565b60006191d782614497565b91506191e283614497565b92508282026191f081614497565b9150828204841483151761920757619206616f50565b5b5092915050565b600061921982614497565b91506000820361922c5761922b616f50565b5b600182039050919050565b7f537472696e67733a20686578206c656e67746820696e73756666696369656e74600082015250565b600061926d602083614815565b915061927882619237565b602082019050919050565b6000602082019050818103600083015261929c81619260565b9050919050565b7f455243313135353a206275726e20616d6f756e74206578636565647320746f7460008201527f616c537570706c79000000000000000000000000000000000000000000000000602082015250565b60006192ff602883614815565b915061930a826192a3565b604082019050919050565b6000602082019050818103600083015261932e816192f2565b905091905056fea264697066735822122059be12834ba6c6f3daa2f61fba5409920b5f4a3e4d5db2b54ed69df2b497525664736f6c63430008120033",
			"opcodes": "PUSH1 0x80 PUSH1 0x40 MSTORE CALLVALUE DUP1 ISZERO PUSH3 0x11 JUMPI PUSH1 0x0 DUP1 REVERT JUMPDEST POP PUSH3 0x22 PUSH3 0x28 PUSH1 0x20 SHL PUSH1 0x20 SHR JUMP JUMPDEST PUSH3 0x1D3 JUMP JUMPDEST PUSH1 0x0 PUSH1 0x1 SWAP1 SLOAD SWAP1 PUSH2 0x100 EXP SWAP1 DIV PUSH1 0xFF AND ISZERO PUSH3 0x7B JUMPI PUSH1 0x40 MLOAD PUSH32 0x8C379A000000000000000000000000000000000000000000000000000000000 DUP2 MSTORE PUSH1 0x4 ADD PUSH3 0x72 SWAP1 PUSH3 0x176 JUMP JUMPDEST PUSH1 0x40 MLOAD DUP1 SWAP2 SUB SWAP1 REVERT JUMPDEST PUSH1 0xFF DUP1 AND PUSH1 0x0 DUP1 SLOAD SWAP1 PUSH2 0x100 EXP SWAP1 DIV PUSH1 0xFF AND PUSH1 0xFF AND LT ISZERO PUSH3 0xED JUMPI PUSH1 0xFF PUSH1 0x0 DUP1 PUSH2 0x100 EXP DUP2 SLOAD DUP2 PUSH1 0xFF MUL NOT AND SWAP1 DUP4 PUSH1 0xFF AND MUL OR SWAP1 SSTORE POP PUSH32 0x7F26B83FF96E1F2B6A682F133852F6798A09C465DA95921460CEFB3847402498 PUSH1 0xFF PUSH1 0x40 MLOAD PUSH3 0xE4 SWAP2 SWAP1 PUSH3 0x1B6 JUMP JUMPDEST PUSH1 0x40 MLOAD DUP1 SWAP2 SUB SWAP1 LOG1 JUMPDEST JUMP JUMPDEST PUSH1 0x0 DUP3 DUP3 MSTORE PUSH1 0x20 DUP3 ADD SWAP1 POP SWAP3 SWAP2 POP POP JUMP JUMPDEST PUSH32 0x496E697469616C697A61626C653A20636F6E747261637420697320696E697469 PUSH1 0x0 DUP3 ADD MSTORE PUSH32 0x616C697A696E6700000000000000000000000000000000000000000000000000 PUSH1 0x20 DUP3 ADD MSTORE POP JUMP JUMPDEST PUSH1 0x0 PUSH3 0x15E PUSH1 0x27 DUP4 PUSH3 0xEF JUMP JUMPDEST SWAP2 POP PUSH3 0x16B DUP3 PUSH3 0x100 JUMP JUMPDEST PUSH1 0x40 DUP3 ADD SWAP1 POP SWAP2 SWAP1 POP JUMP JUMPDEST PUSH1 0x0 PUSH1 0x20 DUP3 ADD SWAP1 POP DUP2 DUP2 SUB PUSH1 0x0 DUP4 ADD MSTORE PUSH3 0x191 DUP2 PUSH3 0x14F JUMP JUMPDEST SWAP1 POP SWAP2 SWAP1 POP JUMP JUMPDEST PUSH1 0x0 PUSH1 0xFF DUP3 AND SWAP1 POP SWAP2 SWAP1 POP JUMP JUMPDEST PUSH3 0x1B0 DUP2 PUSH3 0x198 JUMP JUMPDEST DUP3 MSTORE POP POP JUMP JUMPDEST PUSH1 0x0 PUSH1 0x20 DUP3 ADD SWAP1 POP PUSH3 0x1CD PUSH1 0x0 DUP4 ADD DUP5 PUSH3 0x1A5 JUMP JUMPDEST SWAP3 SWAP2 POP POP JUMP JUMPDEST PUSH2 0x936B DUP1 PUSH3 0x1E3 PUSH1 0x0 CODECOPY PUSH1 0x0 RETURN INVALID PUSH1 0x80 PUSH1 0x40 MSTORE PUSH1 0x4 CALLDATASIZE LT PUSH2 0x287 JUMPI PUSH1 0x0 CALLDATALOAD PUSH1 0xE0 SHR DUP1 PUSH4 0x6543908F GT PUSH2 0x15A JUMPI DUP1 PUSH4 0xB3A34C4C GT PUSH2 0xC1 JUMPI DUP1 PUSH4 0xDFD3CB73 GT PUSH2 0x7A JUMPI DUP1 PUSH4 0xDFD3CB73 EQ PUSH2 0xA6C JUMPI DUP1 PUSH4 0xE0E0A2C5 EQ PUSH2 0xAA9 JUMPI DUP1 PUSH4 0xE985E9C5 EQ PUSH2 0xAE6 JUMPI DUP1 PUSH4 0xEF7992BB EQ PUSH2 0xB23 JUMPI DUP1 PUSH4 0xF242432A EQ PUSH2 0xB4E JUMPI DUP1 PUSH4 0xF5298ACA EQ PUSH2 0xB77 JUMPI PUSH2 0x287 JUMP JUMPDEST DUP1 PUSH4 0xB3A34C4C EQ PUSH2 0x940 JUMPI DUP1 PUSH4 0xBD85B039 EQ PUSH2 0x970 JUMPI DUP1 PUSH4 0xBDC55BC6 EQ PUSH2 0x9AD JUMPI DUP1 PUSH4 0xC4D66DE8 EQ PUSH2 0x9DD JUMPI DUP1 PUSH4 0xCA36FC91 EQ PUSH2 0xA06 JUMPI DUP1 PUSH4 0xD547741F EQ PUSH2 0xA43 JUMPI PUSH2 0x287 JUMP JUMPDEST DUP1 PUSH4 0x7D551B23 GT PUSH2 0x113 JUMPI DUP1 PUSH4 0x7D551B23 EQ PUSH2 0x82B JUMPI DUP1 PUSH4 0x8456CB59 EQ PUSH2 0x868 JUMPI DUP1 PUSH4 0x8C52E857 EQ PUSH2 0x87F JUMPI DUP1 PUSH4 0x91D14854 EQ PUSH2 0x8AF JUMPI DUP1 PUSH4 0xA217FDDF EQ PUSH2 0x8EC JUMPI DUP1 PUSH4 0xA22CB465 EQ PUSH2 0x917 JUMPI PUSH2 0x287 JUMP JUMPDEST DUP1 PUSH4 0x6543908F EQ PUSH2 0x6F6 JUMPI DUP1 PUSH4 0x672A41A1 EQ PUSH2 0x736 JUMPI DUP1 PUSH4 0x6B20C454 EQ PUSH2 0x773 JUMPI DUP1 PUSH4 0x6C9CD097 EQ PUSH2 0x79C JUMPI DUP1 PUSH4 0x6FCFCB66 EQ PUSH2 0x7D9 JUMPI DUP1 PUSH4 0x731133E9 EQ PUSH2 0x802 JUMPI PUSH2 0x287 JUMP JUMPDEST DUP1 PUSH4 0x248A9CA3 GT PUSH2 0x1FE JUMPI DUP1 PUSH4 0x4E1273F4 GT PUSH2 0x1B7 JUMPI DUP1 PUSH4 0x4E1273F4 EQ PUSH2 0x5BA JUMPI DUP1 PUSH4 0x4F558E79 EQ PUSH2 0x5F7 JUMPI DUP1 PUSH4 0x50863E8A EQ PUSH2 0x634 JUMPI DUP1 PUSH4 0x52509E97 EQ PUSH2 0x665 JUMPI DUP1 PUSH4 0x5A9807BE EQ PUSH2 0x68E JUMPI DUP1 PUSH4 0x5C975ABB EQ PUSH2 0x6CB JUMPI PUSH2 0x287 JUMP JUMPDEST DUP1 PUSH4 0x248A9CA3 EQ PUSH2 0x4BA JUMPI DUP1 PUSH4 0x2EB2C2D6 EQ PUSH2 0x4F7 JUMPI DUP1 PUSH4 0x2F2FF15D EQ PUSH2 0x520 JUMPI DUP1 PUSH4 0x36568ABE EQ PUSH2 0x549 JUMPI DUP1 PUSH4 0x3C1DADD9 EQ PUSH2 0x572 JUMPI DUP1 PUSH4 0x3F4BA83A EQ PUSH2 0x5A3 JUMPI PUSH2 0x287 JUMP JUMPDEST DUP1 PUSH4 0xB8A295A GT PUSH2 0x250 JUMPI DUP1 PUSH4 0xB8A295A EQ PUSH2 0x395 JUMPI DUP1 PUSH4 0xE89341C EQ PUSH2 0x3D2 JUMPI DUP1 PUSH4 0x127217D6 EQ PUSH2 0x40F JUMPI DUP1 PUSH4 0x1286C46D EQ PUSH2 0x438 JUMPI DUP1 PUSH4 0x192C9EF2 EQ PUSH2 0x461 JUMPI DUP1 PUSH4 0x1F7FDFFA EQ PUSH2 0x491 JUMPI PUSH2 0x287 JUMP JUMPDEST DUP1 PUSH3 0xFDD58E EQ PUSH2 0x28C JUMPI DUP1 PUSH4 0x1AD63BD EQ PUSH2 0x2C9 JUMPI DUP1 PUSH4 0x1FFC9A7 EQ PUSH2 0x2F2 JUMPI DUP1 PUSH4 0x2FE5305 EQ PUSH2 0x32F JUMPI DUP1 PUSH4 0x807A3BD EQ PUSH2 0x358 JUMPI JUMPDEST PUSH1 0x0 DUP1 REVERT JUMPDEST CALLVALUE DUP1 ISZERO PUSH2 0x298 JUMPI PUSH1 0x0 DUP1 REVERT JUMPDEST POP PUSH2 0x2B3 PUSH1 0x4 DUP1 CALLDATASIZE SUB DUP2 ADD SWAP1 PUSH2 0x2AE SWAP2 SWAP1 PUSH2 0x44CD JUMP JUMPDEST PUSH2 0xBA0 JUMP JUMPDEST PUSH1 0x40 MLOAD PUSH2 0x2C0 SWAP2 SWAP1 PUSH2 0x451C JUMP JUMPDEST PUSH1 0x40 MLOAD DUP1 SWAP2 SUB SWAP1 RETURN JUMPDEST CALLVALUE DUP1 ISZERO PUSH2 0x2D5 JUMPI PUSH1 0x0 DUP1 REVERT JUMPDEST POP PUSH2 0x2F0 PUSH1 0x4 DUP1 CALLDATASIZE SUB DUP2 ADD SWAP1 PUSH2 0x2EB SWAP2 SWAP1 PUSH2 0x467D JUMP JUMPDEST PUSH2 0xBB4 JUMP JUMPDEST STOP JUMPDEST CALLVALUE DUP1 ISZERO PUSH2 0x2FE JUMPI PUSH1 0x0 DUP1 REVERT JUMPDEST POP PUSH2 0x319 PUSH1 0x4 DUP1 CALLDATASIZE SUB DUP2 ADD SWAP1 PUSH2 0x314 SWAP2 SWAP1 PUSH2 0x4731 JUMP JUMPDEST PUSH2 0xC24 JUMP JUMPDEST PUSH1 0x40 MLOAD PUSH2 0x326 SWAP2 SWAP1 PUSH2 0x4779 JUMP JUMPDEST PUSH1 0x40 MLOAD DUP1 SWAP2 SUB SWAP1 RETURN JUMPDEST CALLVALUE DUP1 ISZERO PUSH2 0x33B JUMPI PUSH1 0x0 DUP1 REVERT JUMPDEST POP PUSH2 0x356 PUSH1 0x4 DUP1 CALLDATASIZE SUB DUP2 ADD SWAP1 PUSH2 0x351 SWAP2 SWAP1 PUSH2 0x4794 JUMP JUMPDEST PUSH2 0xC36 JUMP JUMPDEST STOP JUMPDEST CALLVALUE DUP1 ISZERO PUSH2 0x364 JUMPI PUSH1 0x0 DUP1 REVERT JUMPDEST POP PUSH2 0x37F PUSH1 0x4 DUP1 CALLDATASIZE SUB DUP2 ADD SWAP1 PUSH2 0x37A SWAP2 SWAP1 PUSH2 0x47DD JUMP JUMPDEST PUSH2 0xC58 JUMP JUMPDEST PUSH1 0x40 MLOAD PUSH2 0x38C SWAP2 SWAP1 PUSH2 0x4889 JUMP JUMPDEST PUSH1 0x40 MLOAD DUP1 SWAP2 SUB SWAP1 RETURN JUMPDEST CALLVALUE DUP1 ISZERO PUSH2 0x3A1 JUMPI PUSH1 0x0 DUP1 REVERT JUMPDEST POP PUSH2 0x3BC PUSH1 0x4 DUP1 CALLDATASIZE SUB DUP2 ADD SWAP1 PUSH2 0x3B7 SWAP2 SWAP1 PUSH2 0x47DD JUMP JUMPDEST PUSH2 0xC93 JUMP JUMPDEST PUSH1 0x40 MLOAD PUSH2 0x3C9 SWAP2 SWAP1 PUSH2 0x4779 JUMP JUMPDEST PUSH1 0x40 MLOAD DUP1 SWAP2 SUB SWAP1 RETURN JUMPDEST CALLVALUE DUP1 ISZERO PUSH2 0x3DE JUMPI PUSH1 0x0 DUP1 REVERT JUMPDEST POP PUSH2 0x3F9 PUSH1 0x4 DUP1 CALLDATASIZE SUB DUP2 ADD SWAP1 PUSH2 0x3F4 SWAP2 SWAP1 PUSH2 0x47DD JUMP JUMPDEST PUSH2 0xCA5 JUMP JUMPDEST PUSH1 0x40 MLOAD PUSH2 0x406 SWAP2 SWAP1 PUSH2 0x4889 JUMP JUMPDEST PUSH1 0x40 MLOAD DUP1 SWAP2 SUB SWAP1 RETURN JUMPDEST CALLVALUE DUP1 ISZERO PUSH2 0x41B JUMPI PUSH1 0x0 DUP1 REVERT JUMPDEST POP PUSH2 0x436 PUSH1 0x4 DUP1 CALLDATASIZE SUB DUP2 ADD SWAP1 PUSH2 0x431 SWAP2 SWAP1 PUSH2 0x494C JUMP JUMPDEST PUSH2 0xD39 JUMP JUMPDEST STOP JUMPDEST CALLVALUE DUP1 ISZERO PUSH2 0x444 JUMPI PUSH1 0x0 DUP1 REVERT JUMPDEST POP PUSH2 0x45F PUSH1 0x4 DUP1 CALLDATASIZE SUB DUP2 ADD SWAP1 PUSH2 0x45A SWAP2 SWAP1 PUSH2 0x49E3 JUMP JUMPDEST PUSH2 0xD4D JUMP JUMPDEST STOP JUMPDEST PUSH2 0x47B PUSH1 0x4 DUP1 CALLDATASIZE SUB DUP2 ADD SWAP1 PUSH2 0x476 SWAP2 SWAP1 PUSH2 0x4AF5 JUMP JUMPDEST PUSH2 0xD8F JUMP JUMPDEST PUSH1 0x40 MLOAD PUSH2 0x488 SWAP2 SWAP1 PUSH2 0x4D9E JUMP JUMPDEST PUSH1 0x40 MLOAD DUP1 SWAP2 SUB SWAP1 RETURN JUMPDEST CALLVALUE DUP1 ISZERO PUSH2 0x49D JUMPI PUSH1 0x0 DUP1 REVERT JUMPDEST POP PUSH2 0x4B8 PUSH1 0x4 DUP1 CALLDATASIZE SUB DUP2 ADD SWAP1 PUSH2 0x4B3 SWAP2 SWAP1 PUSH2 0x4E83 JUMP JUMPDEST PUSH2 0xE45 JUMP JUMPDEST STOP JUMPDEST CALLVALUE DUP1 ISZERO PUSH2 0x4C6 JUMPI PUSH1 0x0 DUP1 REVERT JUMPDEST POP PUSH2 0x4E1 PUSH1 0x4 DUP1 CALLDATASIZE SUB DUP2 ADD SWAP1 PUSH2 0x4DC SWAP2 SWAP1 PUSH2 0x4F6A JUMP JUMPDEST PUSH2 0xEAE JUMP JUMPDEST PUSH1 0x40 MLOAD PUSH2 0x4EE SWAP2 SWAP1 PUSH2 0x4FA6 JUMP JUMPDEST PUSH1 0x40 MLOAD DUP1 SWAP2 SUB SWAP1 RETURN JUMPDEST CALLVALUE DUP1 ISZERO PUSH2 0x503 JUMPI PUSH1 0x0 DUP1 REVERT JUMPDEST POP PUSH2 0x51E PUSH1 0x4 DUP1 CALLDATASIZE SUB DUP2 ADD SWAP1 PUSH2 0x519 SWAP2 SWAP1 PUSH2 0x4FC1 JUMP JUMPDEST PUSH2 0xECE JUMP JUMPDEST STOP JUMPDEST CALLVALUE DUP1 ISZERO PUSH2 0x52C JUMPI PUSH1 0x0 DUP1 REVERT JUMPDEST POP PUSH2 0x547 PUSH1 0x4 DUP1 CALLDATASIZE SUB DUP2 ADD SWAP1 PUSH2 0x542 SWAP2 SWAP1 PUSH2 0x5090 JUMP JUMPDEST PUSH2 0xF6F JUMP JUMPDEST STOP JUMPDEST CALLVALUE DUP1 ISZERO PUSH2 0x555 JUMPI PUSH1 0x0 DUP1 REVERT JUMPDEST POP PUSH2 0x570 PUSH1 0x4 DUP1 CALLDATASIZE SUB DUP2 ADD SWAP1 PUSH2 0x56B SWAP2 SWAP1 PUSH2 0x5090 JUMP JUMPDEST PUSH2 0xF90 JUMP JUMPDEST STOP JUMPDEST PUSH2 0x58C PUSH1 0x4 DUP1 CALLDATASIZE SUB DUP2 ADD SWAP1 PUSH2 0x587 SWAP2 SWAP1 PUSH2 0x5126 JUMP JUMPDEST PUSH2 0x1013 JUMP JUMPDEST PUSH1 0x40 MLOAD PUSH2 0x59A SWAP3 SWAP2 SWAP1 PUSH2 0x52C0 JUMP JUMPDEST PUSH1 0x40 MLOAD DUP1 SWAP2 SUB SWAP1 RETURN JUMPDEST CALLVALUE DUP1 ISZERO PUSH2 0x5AF JUMPI PUSH1 0x0 DUP1 REVERT JUMPDEST POP PUSH2 0x5B8 PUSH2 0x10DD JUMP JUMPDEST STOP JUMPDEST CALLVALUE DUP1 ISZERO PUSH2 0x5C6 JUMPI PUSH1 0x0 DUP1 REVERT JUMPDEST POP PUSH2 0x5E1 PUSH1 0x4 DUP1 CALLDATASIZE SUB DUP2 ADD SWAP1 PUSH2 0x5DC SWAP2 SWAP1 PUSH2 0x53BA JUMP JUMPDEST PUSH2 0x10F5 JUMP JUMPDEST PUSH1 0x40 MLOAD PUSH2 0x5EE SWAP2 SWAP1 PUSH2 0x54E1 JUMP JUMPDEST PUSH1 0x40 MLOAD DUP1 SWAP2 SUB SWAP1 RETURN JUMPDEST CALLVALUE DUP1 ISZERO PUSH2 0x603 JUMPI PUSH1 0x0 DUP1 REVERT JUMPDEST POP PUSH2 0x61E PUSH1 0x4 DUP1 CALLDATASIZE SUB DUP2 ADD SWAP1 PUSH2 0x619 SWAP2 SWAP1 PUSH2 0x47DD JUMP JUMPDEST PUSH2 0x1109 JUMP JUMPDEST PUSH1 0x40 MLOAD PUSH2 0x62B SWAP2 SWAP1 PUSH2 0x4779 JUMP JUMPDEST PUSH1 0x40 MLOAD DUP1 SWAP2 SUB SWAP1 RETURN JUMPDEST PUSH2 0x64E PUSH1 0x4 DUP1 CALLDATASIZE SUB DUP2 ADD SWAP1 PUSH2 0x649 SWAP2 SWAP1 PUSH2 0x55AF JUMP JUMPDEST PUSH2 0x111D JUMP JUMPDEST PUSH1 0x40 MLOAD PUSH2 0x65C SWAP3 SWAP2 SWAP1 PUSH2 0x52C0 JUMP JUMPDEST PUSH1 0x40 MLOAD DUP1 SWAP2 SUB SWAP1 RETURN JUMPDEST CALLVALUE DUP1 ISZERO PUSH2 0x671 JUMPI PUSH1 0x0 DUP1 REVERT JUMPDEST POP PUSH2 0x68C PUSH1 0x4 DUP1 CALLDATASIZE SUB DUP2 ADD SWAP1 PUSH2 0x687 SWAP2 SWAP1 PUSH2 0x49E3 JUMP JUMPDEST PUSH2 0x11F0 JUMP JUMPDEST STOP JUMPDEST CALLVALUE DUP1 ISZERO PUSH2 0x69A JUMPI PUSH1 0x0 DUP1 REVERT JUMPDEST POP PUSH2 0x6B5 PUSH1 0x4 DUP1 CALLDATASIZE SUB DUP2 ADD SWAP1 PUSH2 0x6B0 SWAP2 SWAP1 PUSH2 0x47DD JUMP JUMPDEST PUSH2 0x12A6 JUMP JUMPDEST PUSH1 0x40 MLOAD PUSH2 0x6C2 SWAP2 SWAP1 PUSH2 0x451C JUMP JUMPDEST PUSH1 0x40 MLOAD DUP1 SWAP2 SUB SWAP1 RETURN JUMPDEST CALLVALUE DUP1 ISZERO PUSH2 0x6D7 JUMPI PUSH1 0x0 DUP1 REVERT JUMPDEST POP PUSH2 0x6E0 PUSH2 0x12B8 JUMP JUMPDEST PUSH1 0x40 MLOAD PUSH2 0x6ED SWAP2 SWAP1 PUSH2 0x4779 JUMP JUMPDEST PUSH1 0x40 MLOAD DUP1 SWAP2 SUB SWAP1 RETURN JUMPDEST CALLVALUE DUP1 ISZERO PUSH2 0x702 JUMPI PUSH1 0x0 DUP1 REVERT JUMPDEST POP PUSH2 0x71D PUSH1 0x4 DUP1 CALLDATASIZE SUB DUP2 ADD SWAP1 PUSH2 0x718 SWAP2 SWAP1 PUSH2 0x4F6A JUMP JUMPDEST PUSH2 0x12CF JUMP JUMPDEST PUSH1 0x40 MLOAD PUSH2 0x72D SWAP5 SWAP4 SWAP3 SWAP2 SWAP1 PUSH2 0x56D3 JUMP JUMPDEST PUSH1 0x40 MLOAD DUP1 SWAP2 SUB SWAP1 RETURN JUMPDEST CALLVALUE DUP1 ISZERO PUSH2 0x742 JUMPI PUSH1 0x0 DUP1 REVERT JUMPDEST POP PUSH2 0x75D PUSH1 0x4 DUP1 CALLDATASIZE SUB DUP2 ADD SWAP1 PUSH2 0x758 SWAP2 SWAP1 PUSH2 0x4794 JUMP JUMPDEST PUSH2 0x1389 JUMP JUMPDEST PUSH1 0x40 MLOAD PUSH2 0x76A SWAP2 SWAP1 PUSH2 0x4FA6 JUMP JUMPDEST PUSH1 0x40 MLOAD DUP1 SWAP2 SUB SWAP1 RETURN JUMPDEST CALLVALUE DUP1 ISZERO PUSH2 0x77F JUMPI PUSH1 0x0 DUP1 REVERT JUMPDEST POP PUSH2 0x79A PUSH1 0x4 DUP1 CALLDATASIZE SUB DUP2 ADD SWAP1 PUSH2 0x795 SWAP2 SWAP1 PUSH2 0x5718 JUMP JUMPDEST PUSH2 0x13C1 JUMP JUMPDEST STOP JUMPDEST CALLVALUE DUP1 ISZERO PUSH2 0x7A8 JUMPI PUSH1 0x0 DUP1 REVERT JUMPDEST POP PUSH2 0x7C3 PUSH1 0x4 DUP1 CALLDATASIZE SUB DUP2 ADD SWAP1 PUSH2 0x7BE SWAP2 SWAP1 PUSH2 0x49E3 JUMP JUMPDEST PUSH2 0x13D1 JUMP JUMPDEST PUSH1 0x40 MLOAD PUSH2 0x7D0 SWAP2 SWAP1 PUSH2 0x4779 JUMP JUMPDEST PUSH1 0x40 MLOAD DUP1 SWAP2 SUB SWAP1 RETURN JUMPDEST CALLVALUE DUP1 ISZERO PUSH2 0x7E5 JUMPI PUSH1 0x0 DUP1 REVERT JUMPDEST POP PUSH2 0x800 PUSH1 0x4 DUP1 CALLDATASIZE SUB DUP2 ADD SWAP1 PUSH2 0x7FB SWAP2 SWAP1 PUSH2 0x4FC1 JUMP JUMPDEST PUSH2 0x140B JUMP JUMPDEST STOP JUMPDEST CALLVALUE DUP1 ISZERO PUSH2 0x80E JUMPI PUSH1 0x0 DUP1 REVERT JUMPDEST POP PUSH2 0x829 PUSH1 0x4 DUP1 CALLDATASIZE SUB DUP2 ADD SWAP1 PUSH2 0x824 SWAP2 SWAP1 PUSH2 0x57A3 JUMP JUMPDEST PUSH2 0x141F JUMP JUMPDEST STOP JUMPDEST CALLVALUE DUP1 ISZERO PUSH2 0x837 JUMPI PUSH1 0x0 DUP1 REVERT JUMPDEST POP PUSH2 0x852 PUSH1 0x4 DUP1 CALLDATASIZE SUB DUP2 ADD SWAP1 PUSH2 0x84D SWAP2 SWAP1 PUSH2 0x5826 JUMP JUMPDEST PUSH2 0x1450 JUMP JUMPDEST PUSH1 0x40 MLOAD PUSH2 0x85F SWAP2 SWAP1 PUSH2 0x4779 JUMP JUMPDEST PUSH1 0x40 MLOAD DUP1 SWAP2 SUB SWAP1 RETURN JUMPDEST CALLVALUE DUP1 ISZERO PUSH2 0x874 JUMPI PUSH1 0x0 DUP1 REVERT JUMPDEST POP PUSH2 0x87D PUSH2 0x14FB JUMP JUMPDEST STOP JUMPDEST PUSH2 0x899 PUSH1 0x4 DUP1 CALLDATASIZE SUB DUP2 ADD SWAP1 PUSH2 0x894 SWAP2 SWAP1 PUSH2 0x5897 JUMP JUMPDEST PUSH2 0x1513 JUMP JUMPDEST PUSH1 0x40 MLOAD PUSH2 0x8A6 SWAP2 SWAP1 PUSH2 0x4779 JUMP JUMPDEST PUSH1 0x40 MLOAD DUP1 SWAP2 SUB SWAP1 RETURN JUMPDEST CALLVALUE DUP1 ISZERO PUSH2 0x8BB JUMPI PUSH1 0x0 DUP1 REVERT JUMPDEST POP PUSH2 0x8D6 PUSH1 0x4 DUP1 CALLDATASIZE SUB DUP2 ADD SWAP1 PUSH2 0x8D1 SWAP2 SWAP1 PUSH2 0x5090 JUMP JUMPDEST PUSH2 0x15C7 JUMP JUMPDEST PUSH1 0x40 MLOAD PUSH2 0x8E3 SWAP2 SWAP1 PUSH2 0x4779 JUMP JUMPDEST PUSH1 0x40 MLOAD DUP1 SWAP2 SUB SWAP1 RETURN JUMPDEST CALLVALUE DUP1 ISZERO PUSH2 0x8F8 JUMPI PUSH1 0x0 DUP1 REVERT JUMPDEST POP PUSH2 0x901 PUSH2 0x1632 JUMP JUMPDEST PUSH1 0x40 MLOAD PUSH2 0x90E SWAP2 SWAP1 PUSH2 0x4FA6 JUMP JUMPDEST PUSH1 0x40 MLOAD DUP1 SWAP2 SUB SWAP1 RETURN JUMPDEST CALLVALUE DUP1 ISZERO PUSH2 0x923 JUMPI PUSH1 0x0 DUP1 REVERT JUMPDEST POP PUSH2 0x93E PUSH1 0x4 DUP1 CALLDATASIZE SUB DUP2 ADD SWAP1 PUSH2 0x939 SWAP2 SWAP1 PUSH2 0x5967 JUMP JUMPDEST PUSH2 0x1639 JUMP JUMPDEST STOP JUMPDEST PUSH2 0x95A PUSH1 0x4 DUP1 CALLDATASIZE SUB DUP2 ADD SWAP1 PUSH2 0x955 SWAP2 SWAP1 PUSH2 0x5EA5 JUMP JUMPDEST PUSH2 0x1647 JUMP JUMPDEST PUSH1 0x40 MLOAD PUSH2 0x967 SWAP2 SWAP1 PUSH2 0x4779 JUMP JUMPDEST PUSH1 0x40 MLOAD DUP1 SWAP2 SUB SWAP1 RETURN JUMPDEST CALLVALUE DUP1 ISZERO PUSH2 0x97C JUMPI PUSH1 0x0 DUP1 REVERT JUMPDEST POP PUSH2 0x997 PUSH1 0x4 DUP1 CALLDATASIZE SUB DUP2 ADD SWAP1 PUSH2 0x992 SWAP2 SWAP1 PUSH2 0x47DD JUMP JUMPDEST PUSH2 0x16F2 JUMP JUMPDEST PUSH1 0x40 MLOAD PUSH2 0x9A4 SWAP2 SWAP1 PUSH2 0x451C JUMP JUMPDEST PUSH1 0x40 MLOAD DUP1 SWAP2 SUB SWAP1 RETURN JUMPDEST PUSH2 0x9C7 PUSH1 0x4 DUP1 CALLDATASIZE SUB DUP2 ADD SWAP1 PUSH2 0x9C2 SWAP2 SWAP1 PUSH2 0x5F01 JUMP JUMPDEST PUSH2 0x1710 JUMP JUMPDEST PUSH1 0x40 MLOAD PUSH2 0x9D4 SWAP2 SWAP1 PUSH2 0x4D9E JUMP JUMPDEST PUSH1 0x40 MLOAD DUP1 SWAP2 SUB SWAP1 RETURN JUMPDEST CALLVALUE DUP1 ISZERO PUSH2 0x9E9 JUMPI PUSH1 0x0 DUP1 REVERT JUMPDEST POP PUSH2 0xA04 PUSH1 0x4 DUP1 CALLDATASIZE SUB DUP2 ADD SWAP1 PUSH2 0x9FF SWAP2 SWAP1 PUSH2 0x5FCA JUMP JUMPDEST PUSH2 0x17CF JUMP JUMPDEST STOP JUMPDEST CALLVALUE DUP1 ISZERO PUSH2 0xA12 JUMPI PUSH1 0x0 DUP1 REVERT JUMPDEST POP PUSH2 0xA2D PUSH1 0x4 DUP1 CALLDATASIZE SUB DUP2 ADD SWAP1 PUSH2 0xA28 SWAP2 SWAP1 PUSH2 0x6017 JUMP JUMPDEST PUSH2 0x198D JUMP JUMPDEST PUSH1 0x40 MLOAD PUSH2 0xA3A SWAP2 SWAP1 PUSH2 0x4FA6 JUMP JUMPDEST PUSH1 0x40 MLOAD DUP1 SWAP2 SUB SWAP1 RETURN JUMPDEST CALLVALUE DUP1 ISZERO PUSH2 0xA4F JUMPI PUSH1 0x0 DUP1 REVERT JUMPDEST POP PUSH2 0xA6A PUSH1 0x4 DUP1 CALLDATASIZE SUB DUP2 ADD SWAP1 PUSH2 0xA65 SWAP2 SWAP1 PUSH2 0x5090 JUMP JUMPDEST PUSH2 0x1A33 JUMP JUMPDEST STOP JUMPDEST CALLVALUE DUP1 ISZERO PUSH2 0xA78 JUMPI PUSH1 0x0 DUP1 REVERT JUMPDEST POP PUSH2 0xA93 PUSH1 0x4 DUP1 CALLDATASIZE SUB DUP2 ADD SWAP1 PUSH2 0xA8E SWAP2 SWAP1 PUSH2 0x60B6 JUMP JUMPDEST PUSH2 0x1A54 JUMP JUMPDEST PUSH1 0x40 MLOAD PUSH2 0xAA0 SWAP2 SWAP1 PUSH2 0x4779 JUMP JUMPDEST PUSH1 0x40 MLOAD DUP1 SWAP2 SUB SWAP1 RETURN JUMPDEST CALLVALUE DUP1 ISZERO PUSH2 0xAB5 JUMPI PUSH1 0x0 DUP1 REVERT JUMPDEST POP PUSH2 0xAD0 PUSH1 0x4 DUP1 CALLDATASIZE SUB DUP2 ADD SWAP1 PUSH2 0xACB SWAP2 SWAP1 PUSH2 0x5FCA JUMP JUMPDEST PUSH2 0x1AFF JUMP JUMPDEST PUSH1 0x40 MLOAD PUSH2 0xADD SWAP2 SWAP1 PUSH2 0x451C JUMP JUMPDEST PUSH1 0x40 MLOAD DUP1 SWAP2 SUB SWAP1 RETURN JUMPDEST CALLVALUE DUP1 ISZERO PUSH2 0xAF2 JUMPI PUSH1 0x0 DUP1 REVERT JUMPDEST POP PUSH2 0xB0D PUSH1 0x4 DUP1 CALLDATASIZE SUB DUP2 ADD SWAP1 PUSH2 0xB08 SWAP2 SWAP1 PUSH2 0x6103 JUMP JUMPDEST PUSH2 0x1BA5 JUMP JUMPDEST PUSH1 0x40 MLOAD PUSH2 0xB1A SWAP2 SWAP1 PUSH2 0x4779 JUMP JUMPDEST PUSH1 0x40 MLOAD DUP1 SWAP2 SUB SWAP1 RETURN JUMPDEST CALLVALUE DUP1 ISZERO PUSH2 0xB2F JUMPI PUSH1 0x0 DUP1 REVERT JUMPDEST POP PUSH2 0xB38 PUSH2 0x1BB9 JUMP JUMPDEST PUSH1 0x40 MLOAD PUSH2 0xB45 SWAP2 SWAP1 PUSH2 0x451C JUMP JUMPDEST PUSH1 0x40 MLOAD DUP1 SWAP2 SUB SWAP1 RETURN JUMPDEST CALLVALUE DUP1 ISZERO PUSH2 0xB5A JUMPI PUSH1 0x0 DUP1 REVERT JUMPDEST POP PUSH2 0xB75 PUSH1 0x4 DUP1 CALLDATASIZE SUB DUP2 ADD SWAP1 PUSH2 0xB70 SWAP2 SWAP1 PUSH2 0x494C JUMP JUMPDEST PUSH2 0x1C54 JUMP JUMPDEST STOP JUMPDEST CALLVALUE DUP1 ISZERO PUSH2 0xB83 JUMPI PUSH1 0x0 DUP1 REVERT JUMPDEST POP PUSH2 0xB9E PUSH1 0x4 DUP1 CALLDATASIZE SUB DUP2 ADD SWAP1 PUSH2 0xB99 SWAP2 SWAP1 PUSH2 0x6143 JUMP JUMPDEST PUSH2 0x1CF5 JUMP JUMPDEST STOP JUMPDEST PUSH1 0x0 PUSH2 0xBAC DUP4 DUP4 PUSH2 0x1D05 JUMP JUMPDEST SWAP1 POP SWAP3 SWAP2 POP POP JUMP JUMPDEST PUSH2 0xBBC PUSH2 0x1DCE JUMP JUMPDEST PUSH2 0x15F PUSH1 0x0 DUP4 DUP2 MSTORE PUSH1 0x20 ADD SWAP1 DUP2 MSTORE PUSH1 0x20 ADD PUSH1 0x0 KECCAK256 SLOAD PUSH2 0xBDA DUP2 PUSH2 0x1E18 JUMP JUMPDEST PUSH1 0x0 DUP3 PUSH1 0x40 MLOAD PUSH1 0x20 ADD PUSH2 0xBED SWAP2 SWAP1 PUSH2 0x4889 JUMP JUMPDEST PUSH1 0x40 MLOAD PUSH1 0x20 DUP2 DUP4 SUB SUB DUP2 MSTORE SWAP1 PUSH1 0x40 MSTORE DUP1 MLOAD SWAP1 PUSH1 0x20 ADD KECCAK256 SWAP1 POP DUP1 PUSH2 0x15F PUSH1 0x0 DUP7 DUP2 MSTORE PUSH1 0x20 ADD SWAP1 DUP2 MSTORE PUSH1 0x20 ADD PUSH1 0x0 KECCAK256 DUP2 SWAP1 SSTORE POP POP POP POP POP JUMP JUMPDEST PUSH1 0x0 PUSH2 0xC2F DUP3 PUSH2 0x1E2C JUMP JUMPDEST SWAP1 POP SWAP2 SWAP1 POP JUMP JUMPDEST PUSH2 0xC3E PUSH2 0x1DCE JUMP JUMPDEST PUSH1 0x0 DUP1 SHL PUSH2 0xC4B DUP2 PUSH2 0x1E18 JUMP JUMPDEST PUSH2 0xC54 DUP3 PUSH2 0x1EA6 JUMP JUMPDEST POP POP JUMP JUMPDEST PUSH1 0x60 PUSH2 0xC63 DUP3 PUSH2 0xCA5 JUMP JUMPDEST PUSH2 0xC6C DUP4 PUSH2 0x1EB9 JUMP JUMPDEST PUSH1 0x40 MLOAD PUSH1 0x20 ADD PUSH2 0xC7D SWAP3 SWAP2 SWAP1 PUSH2 0x61F8 JUMP JUMPDEST PUSH1 0x40 MLOAD PUSH1 0x20 DUP2 DUP4 SUB SUB DUP2 MSTORE SWAP1 PUSH1 0x40 MSTORE SWAP1 POP SWAP2 SWAP1 POP JUMP JUMPDEST PUSH1 0x0 PUSH2 0xC9E DUP3 PUSH2 0x1109 JUMP JUMPDEST SWAP1 POP SWAP2 SWAP1 POP JUMP JUMPDEST PUSH1 0x60 PUSH1 0x67 DUP1 SLOAD PUSH2 0xCB4 SWAP1 PUSH2 0x625A JUMP JUMPDEST DUP1 PUSH1 0x1F ADD PUSH1 0x20 DUP1 SWAP2 DIV MUL PUSH1 0x20 ADD PUSH1 0x40 MLOAD SWAP1 DUP2 ADD PUSH1 0x40 MSTORE DUP1 SWAP3 SWAP2 SWAP1 DUP2 DUP2 MSTORE PUSH1 0x20 ADD DUP3 DUP1 SLOAD PUSH2 0xCE0 SWAP1 PUSH2 0x625A JUMP JUMPDEST DUP1 ISZERO PUSH2 0xD2D JUMPI DUP1 PUSH1 0x1F LT PUSH2 0xD02 JUMPI PUSH2 0x100 DUP1 DUP4 SLOAD DIV MUL DUP4 MSTORE SWAP2 PUSH1 0x20 ADD SWAP2 PUSH2 0xD2D JUMP JUMPDEST DUP3 ADD SWAP2 SWAP1 PUSH1 0x0 MSTORE PUSH1 0x20 PUSH1 0x0 KECCAK256 SWAP1 JUMPDEST DUP2 SLOAD DUP2 MSTORE SWAP1 PUSH1 0x1 ADD SWAP1 PUSH1 0x20 ADD DUP1 DUP4 GT PUSH2 0xD10 JUMPI DUP3 SWAP1 SUB PUSH1 0x1F AND DUP3 ADD SWAP2 JUMPDEST POP POP POP POP POP SWAP1 POP SWAP2 SWAP1 POP JUMP JUMPDEST PUSH2 0xD46 DUP6 DUP6 DUP6 DUP6 DUP6 PUSH2 0x1C54 JUMP JUMPDEST POP POP POP POP POP JUMP JUMPDEST PUSH2 0xD55 PUSH2 0x1DCE JUMP JUMPDEST PUSH1 0x0 DUP3 PUSH1 0x40 MLOAD PUSH1 0x20 ADD PUSH2 0xD68 SWAP2 SWAP1 PUSH2 0x4889 JUMP JUMPDEST PUSH1 0x40 MLOAD PUSH1 0x20 DUP2 DUP4 SUB SUB DUP2 MSTORE SWAP1 PUSH1 0x40 MSTORE DUP1 MLOAD SWAP1 PUSH1 0x20 ADD KECCAK256 SWAP1 POP PUSH2 0xD8A DUP2 DUP4 PUSH2 0x1A33 JUMP JUMPDEST POP POP POP JUMP JUMPDEST PUSH1 0x60 PUSH2 0x161 PUSH1 0x0 SWAP1 SLOAD SWAP1 PUSH2 0x100 EXP SWAP1 DIV PUSH20 0xFFFFFFFFFFFFFFFFFFFFFFFFFFFFFFFFFFFFFFFF AND PUSH20 0xFFFFFFFFFFFFFFFFFFFFFFFFFFFFFFFFFFFFFFFF AND PUSH4 0xA8174404 DUP7 DUP7 DUP7 DUP7 PUSH1 0x40 MLOAD DUP6 PUSH4 0xFFFFFFFF AND PUSH1 0xE0 SHL DUP2 MSTORE PUSH1 0x4 ADD PUSH2 0xDF3 SWAP5 SWAP4 SWAP3 SWAP2 SWAP1 PUSH2 0x6C81 JUMP JUMPDEST PUSH1 0x0 PUSH1 0x40 MLOAD DUP1 DUP4 SUB DUP2 PUSH1 0x0 DUP8 GAS CALL ISZERO DUP1 ISZERO PUSH2 0xE12 JUMPI RETURNDATASIZE PUSH1 0x0 DUP1 RETURNDATACOPY RETURNDATASIZE PUSH1 0x0 REVERT JUMPDEST POP POP POP POP PUSH1 0x40 MLOAD RETURNDATASIZE PUSH1 0x0 DUP3 RETURNDATACOPY RETURNDATASIZE PUSH1 0x1F NOT PUSH1 0x1F DUP3 ADD AND DUP3 ADD DUP1 PUSH1 0x40 MSTORE POP DUP2 ADD SWAP1 PUSH2 0xE3B SWAP2 SWAP1 PUSH2 0x6ED8 JUMP JUMPDEST SWAP1 POP SWAP5 SWAP4 POP POP POP POP JUMP JUMPDEST DUP3 PUSH1 0x0 JUMPDEST DUP2 MLOAD DUP2 LT ISZERO PUSH2 0xE9A JUMPI PUSH2 0xE89 PUSH2 0x15F PUSH1 0x0 DUP5 DUP5 DUP2 MLOAD DUP2 LT PUSH2 0xE6D JUMPI PUSH2 0xE6C PUSH2 0x6F21 JUMP JUMPDEST JUMPDEST PUSH1 0x20 MUL PUSH1 0x20 ADD ADD MLOAD DUP2 MSTORE PUSH1 0x20 ADD SWAP1 DUP2 MSTORE PUSH1 0x20 ADD PUSH1 0x0 KECCAK256 SLOAD PUSH2 0x1E18 JUMP JUMPDEST DUP1 PUSH2 0xE93 SWAP1 PUSH2 0x6F7F JUMP JUMPDEST SWAP1 POP PUSH2 0xE49 JUMP JUMPDEST POP PUSH2 0xEA7 DUP6 DUP6 DUP6 DUP6 PUSH2 0x1F87 JUMP JUMPDEST POP POP POP POP POP JUMP JUMPDEST PUSH1 0x0 PUSH1 0x97 PUSH1 0x0 DUP4 DUP2 MSTORE PUSH1 0x20 ADD SWAP1 DUP2 MSTORE PUSH1 0x20 ADD PUSH1 0x0 KECCAK256 PUSH1 0x1 ADD SLOAD SWAP1 POP SWAP2 SWAP1 POP JUMP JUMPDEST PUSH2 0xED6 PUSH2 0x21B4 JUMP JUMPDEST PUSH20 0xFFFFFFFFFFFFFFFFFFFFFFFFFFFFFFFFFFFFFFFF AND DUP6 PUSH20 0xFFFFFFFFFFFFFFFFFFFFFFFFFFFFFFFFFFFFFFFF AND EQ DUP1 PUSH2 0xF1C JUMPI POP PUSH2 0xF1B DUP6 PUSH2 0xF16 PUSH2 0x21B4 JUMP JUMPDEST PUSH2 0x1BA5 JUMP JUMPDEST JUMPDEST PUSH2 0xF5B JUMPI PUSH1 0x40 MLOAD PUSH32 0x8C379A000000000000000000000000000000000000000000000000000000000 DUP2 MSTORE PUSH1 0x4 ADD PUSH2 0xF52 SWAP1 PUSH2 0x7039 JUMP JUMPDEST PUSH1 0x40 MLOAD DUP1 SWAP2 SUB SWAP1 REVERT JUMPDEST PUSH2 0xF68 DUP6 DUP6 DUP6 DUP6 DUP6 PUSH2 0x21BC JUMP JUMPDEST POP POP POP POP POP JUMP JUMPDEST PUSH2 0xF78 DUP3 PUSH2 0xEAE JUMP JUMPDEST PUSH2 0xF81 DUP2 PUSH2 0x1E18 JUMP JUMPDEST PUSH2 0xF8B DUP4 DUP4 PUSH2 0x24E0 JUMP JUMPDEST POP POP POP JUMP JUMPDEST PUSH2 0xF98 PUSH2 0x21B4 JUMP JUMPDEST PUSH20 0xFFFFFFFFFFFFFFFFFFFFFFFFFFFFFFFFFFFFFFFF AND DUP2 PUSH20 0xFFFFFFFFFFFFFFFFFFFFFFFFFFFFFFFFFFFFFFFF AND EQ PUSH2 0x1005 JUMPI PUSH1 0x40 MLOAD PUSH32 0x8C379A000000000000000000000000000000000000000000000000000000000 DUP2 MSTORE PUSH1 0x4 ADD PUSH2 0xFFC SWAP1 PUSH2 0x70CB JUMP JUMPDEST PUSH1 0x40 MLOAD DUP1 SWAP2 SUB SWAP1 REVERT JUMPDEST PUSH2 0x100F DUP3 DUP3 PUSH2 0x25C1 JUMP JUMPDEST POP POP JUMP JUMPDEST PUSH1 0x60 DUP1 PUSH2 0x161 PUSH1 0x0 SWAP1 SLOAD SWAP1 PUSH2 0x100 EXP SWAP1 DIV PUSH20 0xFFFFFFFFFFFFFFFFFFFFFFFFFFFFFFFFFFFFFFFF AND PUSH20 0xFFFFFFFFFFFFFFFFFFFFFFFFFFFFFFFFFFFFFFFF AND PUSH4 0xED98A574 DUP12 DUP12 DUP12 DUP12 DUP12 DUP12 DUP12 DUP12 PUSH1 0x40 MLOAD DUP10 PUSH4 0xFFFFFFFF AND PUSH1 0xE0 SHL DUP2 MSTORE PUSH1 0x4 ADD PUSH2 0x1080 SWAP9 SWAP8 SWAP7 SWAP6 SWAP5 SWAP4 SWAP3 SWAP2 SWAP1 PUSH2 0x719F JUMP JUMPDEST PUSH1 0x0 PUSH1 0x40 MLOAD DUP1 DUP4 SUB DUP2 PUSH1 0x0 DUP8 GAS CALL ISZERO DUP1 ISZERO PUSH2 0x109F JUMPI RETURNDATASIZE PUSH1 0x0 DUP1 RETURNDATACOPY RETURNDATASIZE PUSH1 0x0 REVERT JUMPDEST POP POP POP POP PUSH1 0x40 MLOAD RETURNDATASIZE PUSH1 0x0 DUP3 RETURNDATACOPY RETURNDATASIZE PUSH1 0x1F NOT PUSH1 0x1F DUP3 ADD AND DUP3 ADD DUP1 PUSH1 0x40 MSTORE POP DUP2 ADD SWAP1 PUSH2 0x10C8 SWAP2 SWAP1 PUSH2 0x72E5 JUMP JUMPDEST DUP1 SWAP3 POP DUP2 SWAP4 POP POP POP SWAP9 POP SWAP9 SWAP7 POP POP POP POP POP POP POP JUMP JUMPDEST PUSH1 0x0 DUP1 SHL PUSH2 0x10EA DUP2 PUSH2 0x1E18 JUMP JUMPDEST PUSH2 0x10F2 PUSH2 0x26A3 JUMP JUMPDEST POP JUMP JUMPDEST PUSH1 0x60 PUSH2 0x1101 DUP4 DUP4 PUSH2 0x2706 JUMP JUMPDEST SWAP1 POP SWAP3 SWAP2 POP POP JUMP JUMPDEST PUSH1 0x0 DUP1 PUSH2 0x1115 DUP4 PUSH2 0x16F2 JUMP JUMPDEST GT SWAP1 POP SWAP2 SWAP1 POP JUMP JUMPDEST PUSH1 0x60 DUP1 PUSH2 0x161 PUSH1 0x0 SWAP1 SLOAD SWAP1 PUSH2 0x100 EXP SWAP1 DIV PUSH20 0xFFFFFFFFFFFFFFFFFFFFFFFFFFFFFFFFFFFFFFFF AND PUSH20 0xFFFFFFFFFFFFFFFFFFFFFFFFFFFFFFFFFFFFFFFF AND PUSH4 0x87201B41 DUP15 DUP15 DUP15 DUP15 DUP15 DUP15 DUP15 DUP15 DUP15 DUP15 DUP15 PUSH1 0x40 MLOAD DUP13 PUSH4 0xFFFFFFFF AND PUSH1 0xE0 SHL DUP2 MSTORE PUSH1 0x4 ADD PUSH2 0x1190 SWAP12 SWAP11 SWAP10 SWAP9 SWAP8 SWAP7 SWAP6 SWAP5 SWAP4 SWAP3 SWAP2 SWAP1 PUSH2 0x783B JUMP JUMPDEST PUSH1 0x0 PUSH1 0x40 MLOAD DUP1 DUP4 SUB DUP2 PUSH1 0x0 DUP8 GAS CALL ISZERO DUP1 ISZERO PUSH2 0x11AF JUMPI RETURNDATASIZE PUSH1 0x0 DUP1 RETURNDATACOPY RETURNDATASIZE PUSH1 0x0 REVERT JUMPDEST POP POP POP POP PUSH1 0x40 MLOAD RETURNDATASIZE PUSH1 0x0 DUP3 RETURNDATACOPY RETURNDATASIZE PUSH1 0x1F NOT PUSH1 0x1F DUP3 ADD AND DUP3 ADD DUP1 PUSH1 0x40 MSTORE POP DUP2 ADD SWAP1 PUSH2 0x11D8 SWAP2 SWAP1 PUSH2 0x72E5 JUMP JUMPDEST DUP1 SWAP3 POP DUP2 SWAP4 POP POP POP SWAP12 POP SWAP12 SWAP10 POP POP POP POP POP POP POP POP POP POP JUMP JUMPDEST PUSH2 0x11F8 PUSH2 0x1DCE JUMP JUMPDEST PUSH1 0x0 DUP3 PUSH1 0x40 MLOAD PUSH1 0x20 ADD PUSH2 0x120B SWAP2 SWAP1 PUSH2 0x4889 JUMP JUMPDEST PUSH1 0x40 MLOAD PUSH1 0x20 DUP2 DUP4 SUB SUB DUP2 MSTORE SWAP1 PUSH1 0x40 MSTORE DUP1 MLOAD SWAP1 PUSH1 0x20 ADD KECCAK256 SWAP1 POP PUSH2 0x122D DUP2 DUP4 PUSH2 0xF6F JUMP JUMPDEST PUSH2 0x160 DUP4 PUSH1 0x40 MLOAD PUSH2 0x123E SWAP2 SWAP1 PUSH2 0x78CE JUMP JUMPDEST SWAP1 DUP2 MSTORE PUSH1 0x20 ADD PUSH1 0x40 MLOAD DUP1 SWAP2 SUB SWAP1 KECCAK256 PUSH1 0x0 SWAP1 SLOAD SWAP1 PUSH2 0x100 EXP SWAP1 DIV PUSH1 0xFF AND PUSH2 0x12A1 JUMPI PUSH1 0x1 PUSH2 0x160 DUP5 PUSH1 0x40 MLOAD PUSH2 0x1271 SWAP2 SWAP1 PUSH2 0x78CE JUMP JUMPDEST SWAP1 DUP2 MSTORE PUSH1 0x20 ADD PUSH1 0x40 MLOAD DUP1 SWAP2 SUB SWAP1 KECCAK256 PUSH1 0x0 PUSH2 0x100 EXP DUP2 SLOAD DUP2 PUSH1 0xFF MUL NOT AND SWAP1 DUP4 ISZERO ISZERO MUL OR SWAP1 SSTORE POP PUSH2 0x12A0 DUP2 DUP3 PUSH2 0x281F JUMP JUMPDEST JUMPDEST POP POP POP JUMP JUMPDEST PUSH1 0x0 PUSH2 0x12B1 DUP3 PUSH2 0x16F2 JUMP JUMPDEST SWAP1 POP SWAP2 SWAP1 POP JUMP JUMPDEST PUSH1 0x0 PUSH1 0xC9 PUSH1 0x0 SWAP1 SLOAD SWAP1 PUSH2 0x100 EXP SWAP1 DIV PUSH1 0xFF AND SWAP1 POP SWAP1 JUMP JUMPDEST PUSH1 0x0 DUP1 PUSH1 0x0 DUP1 PUSH2 0x161 PUSH1 0x0 SWAP1 SLOAD SWAP1 PUSH2 0x100 EXP SWAP1 DIV PUSH20 0xFFFFFFFFFFFFFFFFFFFFFFFFFFFFFFFFFFFFFFFF AND PUSH20 0xFFFFFFFFFFFFFFFFFFFFFFFFFFFFFFFFFFFFFFFF AND PUSH4 0x46423AA7 DUP7 PUSH1 0x40 MLOAD DUP3 PUSH4 0xFFFFFFFF AND PUSH1 0xE0 SHL DUP2 MSTORE PUSH1 0x4 ADD PUSH2 0x1331 SWAP2 SWAP1 PUSH2 0x4FA6 JUMP JUMPDEST PUSH1 0x80 PUSH1 0x40 MLOAD DUP1 DUP4 SUB DUP2 DUP7 GAS STATICCALL ISZERO DUP1 ISZERO PUSH2 0x134E JUMPI RETURNDATASIZE PUSH1 0x0 DUP1 RETURNDATACOPY RETURNDATASIZE PUSH1 0x0 REVERT JUMPDEST POP POP POP POP PUSH1 0x40 MLOAD RETURNDATASIZE PUSH1 0x1F NOT PUSH1 0x1F DUP3 ADD AND DUP3 ADD DUP1 PUSH1 0x40 MSTORE POP DUP2 ADD SWAP1 PUSH2 0x1372 SWAP2 SWAP1 PUSH2 0x78E5 JUMP JUMPDEST DUP1 SWAP5 POP DUP2 SWAP6 POP DUP3 SWAP7 POP DUP4 SWAP8 POP POP POP POP POP SWAP2 SWAP4 POP SWAP2 SWAP4 JUMP JUMPDEST PUSH1 0x0 PUSH2 0x13BA DUP3 PUSH1 0x40 MLOAD PUSH1 0x20 ADD PUSH2 0x139F SWAP2 SWAP1 PUSH2 0x4889 JUMP JUMPDEST PUSH1 0x40 MLOAD PUSH1 0x20 DUP2 DUP4 SUB SUB DUP2 MSTORE SWAP1 PUSH1 0x40 MSTORE DUP1 MLOAD SWAP1 PUSH1 0x20 ADD KECCAK256 PUSH2 0xEAE JUMP JUMPDEST SWAP1 POP SWAP2 SWAP1 POP JUMP JUMPDEST PUSH2 0x13CC DUP4 DUP4 DUP4 PUSH2 0x287B JUMP JUMPDEST POP POP POP JUMP JUMPDEST PUSH1 0x0 PUSH2 0x1403 DUP4 PUSH1 0x40 MLOAD PUSH1 0x20 ADD PUSH2 0x13E7 SWAP2 SWAP1 PUSH2 0x4889 JUMP JUMPDEST PUSH1 0x40 MLOAD PUSH1 0x20 DUP2 DUP4 SUB SUB DUP2 MSTORE SWAP1 PUSH1 0x40 MSTORE DUP1 MLOAD SWAP1 PUSH1 0x20 ADD KECCAK256 DUP4 PUSH2 0x15C7 JUMP JUMPDEST SWAP1 POP SWAP3 SWAP2 POP POP JUMP JUMPDEST PUSH2 0x1418 DUP6 DUP6 DUP6 DUP6 DUP6 PUSH2 0xECE JUMP JUMPDEST POP POP POP POP POP JUMP JUMPDEST PUSH2 0x15F PUSH1 0x0 DUP5 DUP2 MSTORE PUSH1 0x20 ADD SWAP1 DUP2 MSTORE PUSH1 0x20 ADD PUSH1 0x0 KECCAK256 SLOAD PUSH2 0x143D DUP2 PUSH2 0x1E18 JUMP JUMPDEST PUSH2 0x1449 DUP6 DUP6 DUP6 DUP6 PUSH2 0x2918 JUMP JUMPDEST POP POP POP POP POP JUMP JUMPDEST PUSH1 0x0 PUSH2 0x161 PUSH1 0x0 SWAP1 SLOAD SWAP1 PUSH2 0x100 EXP SWAP1 DIV PUSH20 0xFFFFFFFFFFFFFFFFFFFFFFFFFFFFFFFFFFFFFFFF AND PUSH20 0xFFFFFFFFFFFFFFFFFFFFFFFFFFFFFFFFFFFFFFFF AND PUSH4 0x88147732 DUP5 DUP5 PUSH1 0x40 MLOAD DUP4 PUSH4 0xFFFFFFFF AND PUSH1 0xE0 SHL DUP2 MSTORE PUSH1 0x4 ADD PUSH2 0x14B0 SWAP3 SWAP2 SWAP1 PUSH2 0x794C JUMP JUMPDEST PUSH1 0x20 PUSH1 0x40 MLOAD DUP1 DUP4 SUB DUP2 PUSH1 0x0 DUP8 GAS CALL ISZERO DUP1 ISZERO PUSH2 0x14CF JUMPI RETURNDATASIZE PUSH1 0x0 DUP1 RETURNDATACOPY RETURNDATASIZE PUSH1 0x0 REVERT JUMPDEST POP POP POP POP PUSH1 0x40 MLOAD RETURNDATASIZE PUSH1 0x1F NOT PUSH1 0x1F DUP3 ADD AND DUP3 ADD DUP1 PUSH1 0x40 MSTORE POP DUP2 ADD SWAP1 PUSH2 0x14F3 SWAP2 SWAP1 PUSH2 0x7970 JUMP JUMPDEST SWAP1 POP SWAP3 SWAP2 POP POP JUMP JUMPDEST PUSH1 0x0 DUP1 SHL PUSH2 0x1508 DUP2 PUSH2 0x1E18 JUMP JUMPDEST PUSH2 0x1510 PUSH2 0x2AC9 JUMP JUMPDEST POP JUMP JUMPDEST PUSH1 0x0 PUSH2 0x161 PUSH1 0x0 SWAP1 SLOAD SWAP1 PUSH2 0x100 EXP SWAP1 DIV PUSH20 0xFFFFFFFFFFFFFFFFFFFFFFFFFFFFFFFFFFFFFFFF AND PUSH20 0xFFFFFFFFFFFFFFFFFFFFFFFFFFFFFFFFFFFFFFFF AND PUSH4 0xE7ACAB24 DUP8 DUP8 DUP8 DUP8 DUP8 PUSH1 0x40 MLOAD DUP7 PUSH4 0xFFFFFFFF AND PUSH1 0xE0 SHL DUP2 MSTORE PUSH1 0x4 ADD PUSH2 0x1579 SWAP6 SWAP5 SWAP4 SWAP3 SWAP2 SWAP1 PUSH2 0x7A4D JUMP JUMPDEST PUSH1 0x20 PUSH1 0x40 MLOAD DUP1 DUP4 SUB DUP2 PUSH1 0x0 DUP8 GAS CALL ISZERO DUP1 ISZERO PUSH2 0x1598 JUMPI RETURNDATASIZE PUSH1 0x0 DUP1 RETURNDATACOPY RETURNDATASIZE PUSH1 0x0 REVERT JUMPDEST POP POP POP POP PUSH1 0x40 MLOAD RETURNDATASIZE PUSH1 0x1F NOT PUSH1 0x1F DUP3 ADD AND DUP3 ADD DUP1 PUSH1 0x40 MSTORE POP DUP2 ADD SWAP1 PUSH2 0x15BC SWAP2 SWAP1 PUSH2 0x7970 JUMP JUMPDEST SWAP1 POP SWAP6 SWAP5 POP POP POP POP POP JUMP JUMPDEST PUSH1 0x0 PUSH1 0x97 PUSH1 0x0 DUP5 DUP2 MSTORE PUSH1 0x20 ADD SWAP1 DUP2 MSTORE PUSH1 0x20 ADD PUSH1 0x0 KECCAK256 PUSH1 0x0 ADD PUSH1 0x0 DUP4 PUSH20 0xFFFFFFFFFFFFFFFFFFFFFFFFFFFFFFFFFFFFFFFF AND PUSH20 0xFFFFFFFFFFFFFFFFFFFFFFFFFFFFFFFFFFFFFFFF AND DUP2 MSTORE PUSH1 0x20 ADD SWAP1 DUP2 MSTORE PUSH1 0x20 ADD PUSH1 0x0 KECCAK256 PUSH1 0x0 SWAP1 SLOAD SWAP1 PUSH2 0x100 EXP SWAP1 DIV PUSH1 0xFF AND SWAP1 POP SWAP3 SWAP2 POP POP JUMP JUMPDEST PUSH1 0x0 DUP1 SHL DUP2 JUMP JUMPDEST PUSH2 0x1643 DUP3 DUP3 PUSH2 0x2B2C JUMP JUMPDEST POP POP JUMP JUMPDEST PUSH1 0x0 PUSH2 0x161 PUSH1 0x0 SWAP1 SLOAD SWAP1 PUSH2 0x100 EXP SWAP1 DIV PUSH20 0xFFFFFFFFFFFFFFFFFFFFFFFFFFFFFFFFFFFFFFFF AND PUSH20 0xFFFFFFFFFFFFFFFFFFFFFFFFFFFFFFFFFFFFFFFF AND PUSH4 0xB3A34C4C DUP5 DUP5 PUSH1 0x40 MLOAD DUP4 PUSH4 0xFFFFFFFF AND PUSH1 0xE0 SHL DUP2 MSTORE PUSH1 0x4 ADD PUSH2 0x16A7 SWAP3 SWAP2 SWAP1 PUSH2 0x7E3F JUMP JUMPDEST PUSH1 0x20 PUSH1 0x40 MLOAD DUP1 DUP4 SUB DUP2 PUSH1 0x0 DUP8 GAS CALL ISZERO DUP1 ISZERO PUSH2 0x16C6 JUMPI RETURNDATASIZE PUSH1 0x0 DUP1 RETURNDATACOPY RETURNDATASIZE PUSH1 0x0 REVERT JUMPDEST POP POP POP POP PUSH1 0x40 MLOAD RETURNDATASIZE PUSH1 0x1F NOT PUSH1 0x1F DUP3 ADD AND DUP3 ADD DUP1 PUSH1 0x40 MSTORE POP DUP2 ADD SWAP1 PUSH2 0x16EA SWAP2 SWAP1 PUSH2 0x7970 JUMP JUMPDEST SWAP1 POP SWAP3 SWAP2 POP POP JUMP JUMPDEST PUSH1 0x0 PUSH2 0x12D PUSH1 0x0 DUP4 DUP2 MSTORE PUSH1 0x20 ADD SWAP1 DUP2 MSTORE PUSH1 0x20 ADD PUSH1 0x0 KECCAK256 SLOAD SWAP1 POP SWAP2 SWAP1 POP JUMP JUMPDEST PUSH1 0x60 PUSH2 0x161 PUSH1 0x0 SWAP1 SLOAD SWAP1 PUSH2 0x100 EXP SWAP1 DIV PUSH20 0xFFFFFFFFFFFFFFFFFFFFFFFFFFFFFFFFFFFFFFFF AND PUSH20 0xFFFFFFFFFFFFFFFFFFFFFFFFFFFFFFFFFFFFFFFF AND PUSH4 0xF2D12B12 DUP10 DUP10 DUP10 DUP10 DUP10 DUP10 DUP10 PUSH1 0x40 MLOAD DUP9 PUSH4 0xFFFFFFFF AND PUSH1 0xE0 SHL DUP2 MSTORE PUSH1 0x4 ADD PUSH2 0x177A SWAP8 SWAP7 SWAP6 SWAP5 SWAP4 SWAP3 SWAP2 SWAP1 PUSH2 0x7E6F JUMP JUMPDEST PUSH1 0x0 PUSH1 0x40 MLOAD DUP1 DUP4 SUB DUP2 PUSH1 0x0 DUP8 GAS CALL ISZERO DUP1 ISZERO PUSH2 0x1799 JUMPI RETURNDATASIZE PUSH1 0x0 DUP1 RETURNDATACOPY RETURNDATASIZE PUSH1 0x0 REVERT JUMPDEST POP POP POP POP PUSH1 0x40 MLOAD RETURNDATASIZE PUSH1 0x0 DUP3 RETURNDATACOPY RETURNDATASIZE PUSH1 0x1F NOT PUSH1 0x1F DUP3 ADD AND DUP3 ADD DUP1 PUSH1 0x40 MSTORE POP DUP2 ADD SWAP1 PUSH2 0x17C2 SWAP2 SWAP1 PUSH2 0x6ED8 JUMP JUMPDEST SWAP1 POP SWAP8 SWAP7 POP POP POP POP POP POP POP JUMP JUMPDEST PUSH1 0x0 DUP1 PUSH1 0x1 SWAP1 SLOAD SWAP1 PUSH2 0x100 EXP SWAP1 DIV PUSH1 0xFF AND ISZERO SWAP1 POP DUP1 DUP1 ISZERO PUSH2 0x1800 JUMPI POP PUSH1 0x1 PUSH1 0x0 DUP1 SLOAD SWAP1 PUSH2 0x100 EXP SWAP1 DIV PUSH1 0xFF AND PUSH1 0xFF AND LT JUMPDEST DUP1 PUSH2 0x182D JUMPI POP PUSH2 0x180F ADDRESS PUSH2 0x2B42 JUMP JUMPDEST ISZERO DUP1 ISZERO PUSH2 0x182C JUMPI POP PUSH1 0x1 PUSH1 0x0 DUP1 SLOAD SWAP1 PUSH2 0x100 EXP SWAP1 DIV PUSH1 0xFF AND PUSH1 0xFF AND EQ JUMPDEST JUMPDEST PUSH2 0x186C JUMPI PUSH1 0x40 MLOAD PUSH32 0x8C379A000000000000000000000000000000000000000000000000000000000 DUP2 MSTORE PUSH1 0x4 ADD PUSH2 0x1863 SWAP1 PUSH2 0x7F41 JUMP JUMPDEST PUSH1 0x40 MLOAD DUP1 SWAP2 SUB SWAP1 REVERT JUMPDEST PUSH1 0x1 PUSH1 0x0 DUP1 PUSH2 0x100 EXP DUP2 SLOAD DUP2 PUSH1 0xFF MUL NOT AND SWAP1 DUP4 PUSH1 0xFF AND MUL OR SWAP1 SSTORE POP DUP1 ISZERO PUSH2 0x18A9 JUMPI PUSH1 0x1 PUSH1 0x0 PUSH1 0x1 PUSH2 0x100 EXP DUP2 SLOAD DUP2 PUSH1 0xFF MUL NOT AND SWAP1 DUP4 ISZERO ISZERO MUL OR SWAP1 SSTORE POP JUMPDEST PUSH2 0x18C1 PUSH1 0x40 MLOAD DUP1 PUSH1 0x20 ADD PUSH1 0x40 MSTORE DUP1 PUSH1 0x0 DUP2 MSTORE POP PUSH2 0x2B65 JUMP JUMPDEST PUSH2 0x18C9 PUSH2 0x2BC0 JUMP JUMPDEST PUSH2 0x18D1 PUSH2 0x2C11 JUMP JUMPDEST PUSH2 0x18D9 PUSH2 0x2C6A JUMP JUMPDEST PUSH2 0x18E1 PUSH2 0x2CBB JUMP JUMPDEST PUSH2 0x18EE PUSH1 0x0 DUP1 SHL CALLER PUSH2 0x24E0 JUMP JUMPDEST DUP2 PUSH2 0x161 PUSH1 0x0 PUSH2 0x100 EXP DUP2 SLOAD DUP2 PUSH20 0xFFFFFFFFFFFFFFFFFFFFFFFFFFFFFFFFFFFFFFFF MUL NOT AND SWAP1 DUP4 PUSH20 0xFFFFFFFFFFFFFFFFFFFFFFFFFFFFFFFFFFFFFFFF AND MUL OR SWAP1 SSTORE POP DUP1 ISZERO PUSH2 0x1989 JUMPI PUSH1 0x0 DUP1 PUSH1 0x1 PUSH2 0x100 EXP DUP2 SLOAD DUP2 PUSH1 0xFF MUL NOT AND SWAP1 DUP4 ISZERO ISZERO MUL OR SWAP1 SSTORE POP PUSH32 0x7F26B83FF96E1F2B6A682F133852F6798A09C465DA95921460CEFB3847402498 PUSH1 0x1 PUSH1 0x40 MLOAD PUSH2 0x1980 SWAP2 SWAP1 PUSH2 0x7FB3 JUMP JUMPDEST PUSH1 0x40 MLOAD DUP1 SWAP2 SUB SWAP1 LOG1 JUMPDEST POP POP JUMP JUMPDEST PUSH1 0x0 PUSH2 0x161 PUSH1 0x0 SWAP1 SLOAD SWAP1 PUSH2 0x100 EXP SWAP1 DIV PUSH20 0xFFFFFFFFFFFFFFFFFFFFFFFFFFFFFFFFFFFFFFFF AND PUSH20 0xFFFFFFFFFFFFFFFFFFFFFFFFFFFFFFFFFFFFFFFF AND PUSH4 0x79DF72BD DUP4 PUSH1 0x40 MLOAD DUP3 PUSH4 0xFFFFFFFF AND PUSH1 0xE0 SHL DUP2 MSTORE PUSH1 0x4 ADD PUSH2 0x19EB SWAP2 SWAP1 PUSH2 0x8120 JUMP JUMPDEST PUSH1 0x20 PUSH1 0x40 MLOAD DUP1 DUP4 SUB DUP2 DUP7 GAS STATICCALL ISZERO DUP1 ISZERO PUSH2 0x1A08 JUMPI RETURNDATASIZE PUSH1 0x0 DUP1 RETURNDATACOPY RETURNDATASIZE PUSH1 0x0 REVERT JUMPDEST POP POP POP POP PUSH1 0x40 MLOAD RETURNDATASIZE PUSH1 0x1F NOT PUSH1 0x1F DUP3 ADD AND DUP3 ADD DUP1 PUSH1 0x40 MSTORE POP DUP2 ADD SWAP1 PUSH2 0x1A2C SWAP2 SWAP1 PUSH2 0x8142 JUMP JUMPDEST SWAP1 POP SWAP2 SWAP1 POP JUMP JUMPDEST PUSH2 0x1A3C DUP3 PUSH2 0xEAE JUMP JUMPDEST PUSH2 0x1A45 DUP2 PUSH2 0x1E18 JUMP JUMPDEST PUSH2 0x1A4F DUP4 DUP4 PUSH2 0x25C1 JUMP JUMPDEST POP POP POP JUMP JUMPDEST PUSH1 0x0 PUSH2 0x161 PUSH1 0x0 SWAP1 SLOAD SWAP1 PUSH2 0x100 EXP SWAP1 DIV PUSH20 0xFFFFFFFFFFFFFFFFFFFFFFFFFFFFFFFFFFFFFFFF AND PUSH20 0xFFFFFFFFFFFFFFFFFFFFFFFFFFFFFFFFFFFFFFFF AND PUSH4 0xFD9F1E10 DUP5 DUP5 PUSH1 0x40 MLOAD DUP4 PUSH4 0xFFFFFFFF AND PUSH1 0xE0 SHL DUP2 MSTORE PUSH1 0x4 ADD PUSH2 0x1AB4 SWAP3 SWAP2 SWAP1 PUSH2 0x839A JUMP JUMPDEST PUSH1 0x20 PUSH1 0x40 MLOAD DUP1 DUP4 SUB DUP2 PUSH1 0x0 DUP8 GAS CALL ISZERO DUP1 ISZERO PUSH2 0x1AD3 JUMPI RETURNDATASIZE PUSH1 0x0 DUP1 RETURNDATACOPY RETURNDATASIZE PUSH1 0x0 REVERT JUMPDEST POP POP POP POP PUSH1 0x40 MLOAD RETURNDATASIZE PUSH1 0x1F NOT PUSH1 0x1F DUP3 ADD AND DUP3 ADD DUP1 PUSH1 0x40 MSTORE POP DUP2 ADD SWAP1 PUSH2 0x1AF7 SWAP2 SWAP1 PUSH2 0x7970 JUMP JUMPDEST SWAP1 POP SWAP3 SWAP2 POP POP JUMP JUMPDEST PUSH1 0x0 PUSH2 0x161 PUSH1 0x0 SWAP1 SLOAD SWAP1 PUSH2 0x100 EXP SWAP1 DIV PUSH20 0xFFFFFFFFFFFFFFFFFFFFFFFFFFFFFFFFFFFFFFFF AND PUSH20 0xFFFFFFFFFFFFFFFFFFFFFFFFFFFFFFFFFFFFFFFF AND PUSH4 0xF07EC373 DUP4 PUSH1 0x40 MLOAD DUP3 PUSH4 0xFFFFFFFF AND PUSH1 0xE0 SHL DUP2 MSTORE PUSH1 0x4 ADD PUSH2 0x1B5D SWAP2 SWAP1 PUSH2 0x83BE JUMP JUMPDEST PUSH1 0x20 PUSH1 0x40 MLOAD DUP1 DUP4 SUB DUP2 DUP7 GAS STATICCALL ISZERO DUP1 ISZERO PUSH2 0x1B7A JUMPI RETURNDATASIZE PUSH1 0x0 DUP1 RETURNDATACOPY RETURNDATASIZE PUSH1 0x0 REVERT JUMPDEST POP POP POP POP PUSH1 0x40 MLOAD RETURNDATASIZE PUSH1 0x1F NOT PUSH1 0x1F DUP3 ADD AND DUP3 ADD DUP1 PUSH1 0x40 MSTORE POP DUP2 ADD SWAP1 PUSH2 0x1B9E SWAP2 SWAP1 PUSH2 0x83D9 JUMP JUMPDEST SWAP1 POP SWAP2 SWAP1 POP JUMP JUMPDEST PUSH1 0x0 PUSH2 0x1BB1 DUP4 DUP4 PUSH2 0x2D0C JUMP JUMPDEST SWAP1 POP SWAP3 SWAP2 POP POP JUMP JUMPDEST PUSH1 0x0 PUSH2 0x161 PUSH1 0x0 SWAP1 SLOAD SWAP1 PUSH2 0x100 EXP SWAP1 DIV PUSH20 0xFFFFFFFFFFFFFFFFFFFFFFFFFFFFFFFFFFFFFFFF AND PUSH20 0xFFFFFFFFFFFFFFFFFFFFFFFFFFFFFFFFFFFFFFFF AND PUSH4 0x5B34B966 PUSH1 0x40 MLOAD DUP2 PUSH4 0xFFFFFFFF AND PUSH1 0xE0 SHL DUP2 MSTORE PUSH1 0x4 ADD PUSH1 0x20 PUSH1 0x40 MLOAD DUP1 DUP4 SUB DUP2 PUSH1 0x0 DUP8 GAS CALL ISZERO DUP1 ISZERO PUSH2 0x1C2B JUMPI RETURNDATASIZE PUSH1 0x0 DUP1 RETURNDATACOPY RETURNDATASIZE PUSH1 0x0 REVERT JUMPDEST POP POP POP POP PUSH1 0x40 MLOAD RETURNDATASIZE PUSH1 0x1F NOT PUSH1 0x1F DUP3 ADD AND DUP3 ADD DUP1 PUSH1 0x40 MSTORE POP DUP2 ADD SWAP1 PUSH2 0x1C4F SWAP2 SWAP1 PUSH2 0x83D9 JUMP JUMPDEST SWAP1 POP SWAP1 JUMP JUMPDEST PUSH2 0x1C5C PUSH2 0x21B4 JUMP JUMPDEST PUSH20 0xFFFFFFFFFFFFFFFFFFFFFFFFFFFFFFFFFFFFFFFF AND DUP6 PUSH20 0xFFFFFFFFFFFFFFFFFFFFFFFFFFFFFFFFFFFFFFFF AND EQ DUP1 PUSH2 0x1CA2 JUMPI POP PUSH2 0x1CA1 DUP6 PUSH2 0x1C9C PUSH2 0x21B4 JUMP JUMPDEST PUSH2 0x1BA5 JUMP JUMPDEST JUMPDEST PUSH2 0x1CE1 JUMPI PUSH1 0x40 MLOAD PUSH32 0x8C379A000000000000000000000000000000000000000000000000000000000 DUP2 MSTORE PUSH1 0x4 ADD PUSH2 0x1CD8 SWAP1 PUSH2 0x7039 JUMP JUMPDEST PUSH1 0x40 MLOAD DUP1 SWAP2 SUB SWAP1 REVERT JUMPDEST PUSH2 0x1CEE DUP6 DUP6 DUP6 DUP6 DUP6 PUSH2 0x2DA0 JUMP JUMPDEST POP POP POP POP POP JUMP JUMPDEST PUSH2 0x1D00 DUP4 DUP4 DUP4 PUSH2 0x303E JUMP JUMPDEST POP POP POP JUMP JUMPDEST PUSH1 0x0 DUP1 PUSH20 0xFFFFFFFFFFFFFFFFFFFFFFFFFFFFFFFFFFFFFFFF AND DUP4 PUSH20 0xFFFFFFFFFFFFFFFFFFFFFFFFFFFFFFFFFFFFFFFF AND SUB PUSH2 0x1D75 JUMPI PUSH1 0x40 MLOAD PUSH32 0x8C379A000000000000000000000000000000000000000000000000000000000 DUP2 MSTORE PUSH1 0x4 ADD PUSH2 0x1D6C SWAP1 PUSH2 0x8478 JUMP JUMPDEST PUSH1 0x40 MLOAD DUP1 SWAP2 SUB SWAP1 REVERT JUMPDEST PUSH1 0x65 PUSH1 0x0 DUP4 DUP2 MSTORE PUSH1 0x20 ADD SWAP1 DUP2 MSTORE PUSH1 0x20 ADD PUSH1 0x0 KECCAK256 PUSH1 0x0 DUP5 PUSH20 0xFFFFFFFFFFFFFFFFFFFFFFFFFFFFFFFFFFFFFFFF AND PUSH20 0xFFFFFFFFFFFFFFFFFFFFFFFFFFFFFFFFFFFFFFFF AND DUP2 MSTORE PUSH1 0x20 ADD SWAP1 DUP2 MSTORE PUSH1 0x20 ADD PUSH1 0x0 KECCAK256 SLOAD SWAP1 POP SWAP3 SWAP2 POP POP JUMP JUMPDEST PUSH2 0x1DD6 PUSH2 0x12B8 JUMP JUMPDEST ISZERO PUSH2 0x1E16 JUMPI PUSH1 0x40 MLOAD PUSH32 0x8C379A000000000000000000000000000000000000000000000000000000000 DUP2 MSTORE PUSH1 0x4 ADD PUSH2 0x1E0D SWAP1 PUSH2 0x84E4 JUMP JUMPDEST PUSH1 0x40 MLOAD DUP1 SWAP2 SUB SWAP1 REVERT JUMPDEST JUMP JUMPDEST PUSH2 0x1E29 DUP2 PUSH2 0x1E24 PUSH2 0x21B4 JUMP JUMPDEST PUSH2 0x30DB JUMP JUMPDEST POP JUMP JUMPDEST PUSH1 0x0 PUSH32 0x7965DB0B00000000000000000000000000000000000000000000000000000000 PUSH28 0xFFFFFFFFFFFFFFFFFFFFFFFFFFFFFFFFFFFFFFFFFFFFFFFFFFFFFFFF NOT AND DUP3 PUSH28 0xFFFFFFFFFFFFFFFFFFFFFFFFFFFFFFFFFFFFFFFFFFFFFFFFFFFFFFFF NOT AND EQ DUP1 PUSH2 0x1E9F JUMPI POP PUSH2 0x1E9E DUP3 PUSH2 0x3160 JUMP JUMPDEST JUMPDEST SWAP1 POP SWAP2 SWAP1 POP JUMP JUMPDEST DUP1 PUSH1 0x67 SWAP1 DUP2 PUSH2 0x1EB5 SWAP2 SWAP1 PUSH2 0x86A6 JUMP JUMPDEST POP POP JUMP JUMPDEST PUSH1 0x60 PUSH1 0x0 PUSH1 0x1 PUSH2 0x1EC8 DUP5 PUSH2 0x3242 JUMP JUMPDEST ADD SWAP1 POP PUSH1 0x0 DUP2 PUSH8 0xFFFFFFFFFFFFFFFF DUP2 GT ISZERO PUSH2 0x1EE7 JUMPI PUSH2 0x1EE6 PUSH2 0x4552 JUMP JUMPDEST JUMPDEST PUSH1 0x40 MLOAD SWAP1 DUP1 DUP3 MSTORE DUP1 PUSH1 0x1F ADD PUSH1 0x1F NOT AND PUSH1 0x20 ADD DUP3 ADD PUSH1 0x40 MSTORE DUP1 ISZERO PUSH2 0x1F19 JUMPI DUP2 PUSH1 0x20 ADD PUSH1 0x1 DUP3 MUL DUP1 CALLDATASIZE DUP4 CALLDATACOPY DUP1 DUP3 ADD SWAP2 POP POP SWAP1 POP JUMPDEST POP SWAP1 POP PUSH1 0x0 DUP3 PUSH1 0x20 ADD DUP3 ADD SWAP1 POP JUMPDEST PUSH1 0x1 ISZERO PUSH2 0x1F7C JUMPI DUP1 DUP1 PUSH1 0x1 SWAP1 SUB SWAP2 POP POP PUSH32 0x3031323334353637383961626364656600000000000000000000000000000000 PUSH1 0xA DUP7 MOD BYTE DUP2 MSTORE8 PUSH1 0xA DUP6 DUP2 PUSH2 0x1F70 JUMPI PUSH2 0x1F6F PUSH2 0x8778 JUMP JUMPDEST JUMPDEST DIV SWAP5 POP PUSH1 0x0 DUP6 SUB PUSH2 0x1F27 JUMPI JUMPDEST DUP2 SWAP4 POP POP POP POP SWAP2 SWAP1 POP JUMP JUMPDEST PUSH1 0x0 PUSH20 0xFFFFFFFFFFFFFFFFFFFFFFFFFFFFFFFFFFFFFFFF AND DUP5 PUSH20 0xFFFFFFFFFFFFFFFFFFFFFFFFFFFFFFFFFFFFFFFF AND SUB PUSH2 0x1FF6 JUMPI PUSH1 0x40 MLOAD PUSH32 0x8C379A000000000000000000000000000000000000000000000000000000000 DUP2 MSTORE PUSH1 0x4 ADD PUSH2 0x1FED SWAP1 PUSH2 0x8819 JUMP JUMPDEST PUSH1 0x40 MLOAD DUP1 SWAP2 SUB SWAP1 REVERT JUMPDEST DUP2 MLOAD DUP4 MLOAD EQ PUSH2 0x203A JUMPI PUSH1 0x40 MLOAD PUSH32 0x8C379A000000000000000000000000000000000000000000000000000000000 DUP2 MSTORE PUSH1 0x4 ADD PUSH2 0x2031 SWAP1 PUSH2 0x88AB JUMP JUMPDEST PUSH1 0x40 MLOAD DUP1 SWAP2 SUB SWAP1 REVERT JUMPDEST PUSH1 0x0 PUSH2 0x2044 PUSH2 0x21B4 JUMP JUMPDEST SWAP1 POP PUSH2 0x2055 DUP2 PUSH1 0x0 DUP8 DUP8 DUP8 DUP8 PUSH2 0x3395 JUMP JUMPDEST PUSH1 0x0 JUMPDEST DUP5 MLOAD DUP2 LT ISZERO PUSH2 0x210F JUMPI DUP4 DUP2 DUP2 MLOAD DUP2 LT PUSH2 0x2074 JUMPI PUSH2 0x2073 PUSH2 0x6F21 JUMP JUMPDEST JUMPDEST PUSH1 0x20 MUL PUSH1 0x20 ADD ADD MLOAD PUSH1 0x65 PUSH1 0x0 DUP8 DUP5 DUP2 MLOAD DUP2 LT PUSH2 0x2093 JUMPI PUSH2 0x2092 PUSH2 0x6F21 JUMP JUMPDEST JUMPDEST PUSH1 0x20 MUL PUSH1 0x20 ADD ADD MLOAD DUP2 MSTORE PUSH1 0x20 ADD SWAP1 DUP2 MSTORE PUSH1 0x20 ADD PUSH1 0x0 KECCAK256 PUSH1 0x0 DUP9 PUSH20 0xFFFFFFFFFFFFFFFFFFFFFFFFFFFFFFFFFFFFFFFF AND PUSH20 0xFFFFFFFFFFFFFFFFFFFFFFFFFFFFFFFFFFFFFFFF AND DUP2 MSTORE PUSH1 0x20 ADD SWAP1 DUP2 MSTORE PUSH1 0x20 ADD PUSH1 0x0 KECCAK256 PUSH1 0x0 DUP3 DUP3 SLOAD PUSH2 0x20F5 SWAP2 SWAP1 PUSH2 0x88CB JUMP JUMPDEST SWAP3 POP POP DUP2 SWAP1 SSTORE POP DUP1 DUP1 PUSH2 0x2107 SWAP1 PUSH2 0x6F7F JUMP JUMPDEST SWAP2 POP POP PUSH2 0x2058 JUMP JUMPDEST POP DUP5 PUSH20 0xFFFFFFFFFFFFFFFFFFFFFFFFFFFFFFFFFFFFFFFF AND PUSH1 0x0 PUSH20 0xFFFFFFFFFFFFFFFFFFFFFFFFFFFFFFFFFFFFFFFF AND DUP3 PUSH20 0xFFFFFFFFFFFFFFFFFFFFFFFFFFFFFFFFFFFFFFFF AND PUSH32 0x4A39DC06D4C0DBC64B70AF90FD698A233A518AA5D07E595D983B8C0526C8F7FB DUP8 DUP8 PUSH1 0x40 MLOAD PUSH2 0x2187 SWAP3 SWAP2 SWAP1 PUSH2 0x88FF JUMP JUMPDEST PUSH1 0x40 MLOAD DUP1 SWAP2 SUB SWAP1 LOG4 PUSH2 0x219E DUP2 PUSH1 0x0 DUP8 DUP8 DUP8 DUP8 PUSH2 0x33B3 JUMP JUMPDEST PUSH2 0x21AD DUP2 PUSH1 0x0 DUP8 DUP8 DUP8 DUP8 PUSH2 0x33BB JUMP JUMPDEST POP POP POP POP POP JUMP JUMPDEST PUSH1 0x0 CALLER SWAP1 POP SWAP1 JUMP JUMPDEST DUP2 MLOAD DUP4 MLOAD EQ PUSH2 0x2200 JUMPI PUSH1 0x40 MLOAD PUSH32 0x8C379A000000000000000000000000000000000000000000000000000000000 DUP2 MSTORE PUSH1 0x4 ADD PUSH2 0x21F7 SWAP1 PUSH2 0x88AB JUMP JUMPDEST PUSH1 0x40 MLOAD DUP1 SWAP2 SUB SWAP1 REVERT JUMPDEST PUSH1 0x0 PUSH20 0xFFFFFFFFFFFFFFFFFFFFFFFFFFFFFFFFFFFFFFFF AND DUP5 PUSH20 0xFFFFFFFFFFFFFFFFFFFFFFFFFFFFFFFFFFFFFFFF AND SUB PUSH2 0x226F JUMPI PUSH1 0x40 MLOAD PUSH32 0x8C379A000000000000000000000000000000000000000000000000000000000 DUP2 MSTORE PUSH1 0x4 ADD PUSH2 0x2266 SWAP1 PUSH2 0x89A8 JUMP JUMPDEST PUSH1 0x40 MLOAD DUP1 SWAP2 SUB SWAP1 REVERT JUMPDEST PUSH1 0x0 PUSH2 0x2279 PUSH2 0x21B4 JUMP JUMPDEST SWAP1 POP PUSH2 0x2289 DUP2 DUP8 DUP8 DUP8 DUP8 DUP8 PUSH2 0x3395 JUMP JUMPDEST PUSH1 0x0 JUMPDEST DUP5 MLOAD DUP2 LT ISZERO PUSH2 0x243D JUMPI PUSH1 0x0 DUP6 DUP3 DUP2 MLOAD DUP2 LT PUSH2 0x22AA JUMPI PUSH2 0x22A9 PUSH2 0x6F21 JUMP JUMPDEST JUMPDEST PUSH1 0x20 MUL PUSH1 0x20 ADD ADD MLOAD SWAP1 POP PUSH1 0x0 DUP6 DUP4 DUP2 MLOAD DUP2 LT PUSH2 0x22C9 JUMPI PUSH2 0x22C8 PUSH2 0x6F21 JUMP JUMPDEST JUMPDEST PUSH1 0x20 MUL PUSH1 0x20 ADD ADD MLOAD SWAP1 POP PUSH1 0x0 PUSH1 0x65 PUSH1 0x0 DUP5 DUP2 MSTORE PUSH1 0x20 ADD SWAP1 DUP2 MSTORE PUSH1 0x20 ADD PUSH1 0x0 KECCAK256 PUSH1 0x0 DUP12 PUSH20 0xFFFFFFFFFFFFFFFFFFFFFFFFFFFFFFFFFFFFFFFF AND PUSH20 0xFFFFFFFFFFFFFFFFFFFFFFFFFFFFFFFFFFFFFFFF AND DUP2 MSTORE PUSH1 0x20 ADD SWAP1 DUP2 MSTORE PUSH1 0x20 ADD PUSH1 0x0 KECCAK256 SLOAD SWAP1 POP DUP2 DUP2 LT ISZERO PUSH2 0x236B JUMPI PUSH1 0x40 MLOAD PUSH32 0x8C379A000000000000000000000000000000000000000000000000000000000 DUP2 MSTORE PUSH1 0x4 ADD PUSH2 0x2362 SWAP1 PUSH2 0x8A3A JUMP JUMPDEST PUSH1 0x40 MLOAD DUP1 SWAP2 SUB SWAP1 REVERT JUMPDEST DUP2 DUP2 SUB PUSH1 0x65 PUSH1 0x0 DUP6 DUP2 MSTORE PUSH1 0x20 ADD SWAP1 DUP2 MSTORE PUSH1 0x20 ADD PUSH1 0x0 KECCAK256 PUSH1 0x0 DUP13 PUSH20 0xFFFFFFFFFFFFFFFFFFFFFFFFFFFFFFFFFFFFFFFF AND PUSH20 0xFFFFFFFFFFFFFFFFFFFFFFFFFFFFFFFFFFFFFFFF AND DUP2 MSTORE PUSH1 0x20 ADD SWAP1 DUP2 MSTORE PUSH1 0x20 ADD PUSH1 0x0 KECCAK256 DUP2 SWAP1 SSTORE POP DUP2 PUSH1 0x65 PUSH1 0x0 DUP6 DUP2 MSTORE PUSH1 0x20 ADD SWAP1 DUP2 MSTORE PUSH1 0x20 ADD PUSH1 0x0 KECCAK256 PUSH1 0x0 DUP12 PUSH20 0xFFFFFFFFFFFFFFFFFFFFFFFFFFFFFFFFFFFFFFFF AND PUSH20 0xFFFFFFFFFFFFFFFFFFFFFFFFFFFFFFFFFFFFFFFF AND DUP2 MSTORE PUSH1 0x20 ADD SWAP1 DUP2 MSTORE PUSH1 0x20 ADD PUSH1 0x0 KECCAK256 PUSH1 0x0 DUP3 DUP3 SLOAD PUSH2 0x2422 SWAP2 SWAP1 PUSH2 0x88CB JUMP JUMPDEST SWAP3 POP POP DUP2 SWAP1 SSTORE POP POP POP POP DUP1 PUSH2 0x2436 SWAP1 PUSH2 0x6F7F JUMP JUMPDEST SWAP1 POP PUSH2 0x228C JUMP JUMPDEST POP DUP5 PUSH20 0xFFFFFFFFFFFFFFFFFFFFFFFFFFFFFFFFFFFFFFFF AND DUP7 PUSH20 0xFFFFFFFFFFFFFFFFFFFFFFFFFFFFFFFFFFFFFFFF AND DUP3 PUSH20 0xFFFFFFFFFFFFFFFFFFFFFFFFFFFFFFFFFFFFFFFF AND PUSH32 0x4A39DC06D4C0DBC64B70AF90FD698A233A518AA5D07E595D983B8C0526C8F7FB DUP8 DUP8 PUSH1 0x40 MLOAD PUSH2 0x24B4 SWAP3 SWAP2 SWAP1 PUSH2 0x88FF JUMP JUMPDEST PUSH1 0x40 MLOAD DUP1 SWAP2 SUB SWAP1 LOG4 PUSH2 0x24CA DUP2 DUP8 DUP8 DUP8 DUP8 DUP8 PUSH2 0x33B3 JUMP JUMPDEST PUSH2 0x24D8 DUP2 DUP8 DUP8 DUP8 DUP8 DUP8 PUSH2 0x33BB JUMP JUMPDEST POP POP POP POP POP POP JUMP JUMPDEST PUSH2 0x24EA DUP3 DUP3 PUSH2 0x15C7 JUMP JUMPDEST PUSH2 0x25BD JUMPI PUSH1 0x1 PUSH1 0x97 PUSH1 0x0 DUP5 DUP2 MSTORE PUSH1 0x20 ADD SWAP1 DUP2 MSTORE PUSH1 0x20 ADD PUSH1 0x0 KECCAK256 PUSH1 0x0 ADD PUSH1 0x0 DUP4 PUSH20 0xFFFFFFFFFFFFFFFFFFFFFFFFFFFFFFFFFFFFFFFF AND PUSH20 0xFFFFFFFFFFFFFFFFFFFFFFFFFFFFFFFFFFFFFFFF AND DUP2 MSTORE PUSH1 0x20 ADD SWAP1 DUP2 MSTORE PUSH1 0x20 ADD PUSH1 0x0 KECCAK256 PUSH1 0x0 PUSH2 0x100 EXP DUP2 SLOAD DUP2 PUSH1 0xFF MUL NOT AND SWAP1 DUP4 ISZERO ISZERO MUL OR SWAP1 SSTORE POP PUSH2 0x2562 PUSH2 0x21B4 JUMP JUMPDEST PUSH20 0xFFFFFFFFFFFFFFFFFFFFFFFFFFFFFFFFFFFFFFFF AND DUP2 PUSH20 0xFFFFFFFFFFFFFFFFFFFFFFFFFFFFFFFFFFFFFFFF AND DUP4 PUSH32 0x2F8788117E7EFF1D82E926EC794901D17C78024A50270940304540A733656F0D PUSH1 0x40 MLOAD PUSH1 0x40 MLOAD DUP1 SWAP2 SUB SWAP1 LOG4 JUMPDEST POP POP JUMP JUMPDEST PUSH2 0x25CB DUP3 DUP3 PUSH2 0x15C7 JUMP JUMPDEST ISZERO PUSH2 0x269F JUMPI PUSH1 0x0 PUSH1 0x97 PUSH1 0x0 DUP5 DUP2 MSTORE PUSH1 0x20 ADD SWAP1 DUP2 MSTORE PUSH1 0x20 ADD PUSH1 0x0 KECCAK256 PUSH1 0x0 ADD PUSH1 0x0 DUP4 PUSH20 0xFFFFFFFFFFFFFFFFFFFFFFFFFFFFFFFFFFFFFFFF AND PUSH20 0xFFFFFFFFFFFFFFFFFFFFFFFFFFFFFFFFFFFFFFFF AND DUP2 MSTORE PUSH1 0x20 ADD SWAP1 DUP2 MSTORE PUSH1 0x20 ADD PUSH1 0x0 KECCAK256 PUSH1 0x0 PUSH2 0x100 EXP DUP2 SLOAD DUP2 PUSH1 0xFF MUL NOT AND SWAP1 DUP4 ISZERO ISZERO MUL OR SWAP1 SSTORE POP PUSH2 0x2644 PUSH2 0x21B4 JUMP JUMPDEST PUSH20 0xFFFFFFFFFFFFFFFFFFFFFFFFFFFFFFFFFFFFFFFF AND DUP2 PUSH20 0xFFFFFFFFFFFFFFFFFFFFFFFFFFFFFFFFFFFFFFFF AND DUP4 PUSH32 0xF6391F5C32D9C69D2A47EA670B442974B53935D1EDC7FD64EB21E047A839171B PUSH1 0x40 MLOAD PUSH1 0x40 MLOAD DUP1 SWAP2 SUB SWAP1 LOG4 JUMPDEST POP POP JUMP JUMPDEST PUSH2 0x26AB PUSH2 0x3592 JUMP JUMPDEST PUSH1 0x0 PUSH1 0xC9 PUSH1 0x0 PUSH2 0x100 EXP DUP2 SLOAD DUP2 PUSH1 0xFF MUL NOT AND SWAP1 DUP4 ISZERO ISZERO MUL OR SWAP1 SSTORE POP PUSH32 0x5DB9EE0A495BF2E6FF9C91A7834C1BA4FDD244A5E8AA4E537BD38AEAE4B073AA PUSH2 0x26EF PUSH2 0x21B4 JUMP JUMPDEST PUSH1 0x40 MLOAD PUSH2 0x26FC SWAP2 SWAP1 PUSH2 0x83BE JUMP JUMPDEST PUSH1 0x40 MLOAD DUP1 SWAP2 SUB SWAP1 LOG1 JUMP JUMPDEST PUSH1 0x60 DUP2 MLOAD DUP4 MLOAD EQ PUSH2 0x274C JUMPI PUSH1 0x40 MLOAD PUSH32 0x8C379A000000000000000000000000000000000000000000000000000000000 DUP2 MSTORE PUSH1 0x4 ADD PUSH2 0x2743 SWAP1 PUSH2 0x8ACC JUMP JUMPDEST PUSH1 0x40 MLOAD DUP1 SWAP2 SUB SWAP1 REVERT JUMPDEST PUSH1 0x0 DUP4 MLOAD PUSH8 0xFFFFFFFFFFFFFFFF DUP2 GT ISZERO PUSH2 0x2769 JUMPI PUSH2 0x2768 PUSH2 0x4552 JUMP JUMPDEST JUMPDEST PUSH1 0x40 MLOAD SWAP1 DUP1 DUP3 MSTORE DUP1 PUSH1 0x20 MUL PUSH1 0x20 ADD DUP3 ADD PUSH1 0x40 MSTORE DUP1 ISZERO PUSH2 0x2797 JUMPI DUP2 PUSH1 0x20 ADD PUSH1 0x20 DUP3 MUL DUP1 CALLDATASIZE DUP4 CALLDATACOPY DUP1 DUP3 ADD SWAP2 POP POP SWAP1 POP JUMPDEST POP SWAP1 POP PUSH1 0x0 JUMPDEST DUP5 MLOAD DUP2 LT ISZERO PUSH2 0x2814 JUMPI PUSH2 0x27E4 DUP6 DUP3 DUP2 MLOAD DUP2 LT PUSH2 0x27BC JUMPI PUSH2 0x27BB PUSH2 0x6F21 JUMP JUMPDEST JUMPDEST PUSH1 0x20 MUL PUSH1 0x20 ADD ADD MLOAD DUP6 DUP4 DUP2 MLOAD DUP2 LT PUSH2 0x27D7 JUMPI PUSH2 0x27D6 PUSH2 0x6F21 JUMP JUMPDEST JUMPDEST PUSH1 0x20 MUL PUSH1 0x20 ADD ADD MLOAD PUSH2 0xBA0 JUMP JUMPDEST DUP3 DUP3 DUP2 MLOAD DUP2 LT PUSH2 0x27F7 JUMPI PUSH2 0x27F6 PUSH2 0x6F21 JUMP JUMPDEST JUMPDEST PUSH1 0x20 MUL PUSH1 0x20 ADD ADD DUP2 DUP2 MSTORE POP POP DUP1 PUSH2 0x280D SWAP1 PUSH2 0x6F7F JUMP JUMPDEST SWAP1 POP PUSH2 0x279D JUMP JUMPDEST POP DUP1 SWAP2 POP POP SWAP3 SWAP2 POP POP JUMP JUMPDEST PUSH1 0x0 PUSH2 0x282A DUP4 PUSH2 0xEAE JUMP JUMPDEST SWAP1 POP DUP2 PUSH1 0x97 PUSH1 0x0 DUP6 DUP2 MSTORE PUSH1 0x20 ADD SWAP1 DUP2 MSTORE PUSH1 0x20 ADD PUSH1 0x0 KECCAK256 PUSH1 0x1 ADD DUP2 SWAP1 SSTORE POP DUP2 DUP2 DUP5 PUSH32 0xBD79B86FFE0AB8E8776151514217CD7CACD52C909F66475C3AF44E129F0B00FF PUSH1 0x40 MLOAD PUSH1 0x40 MLOAD DUP1 SWAP2 SUB SWAP1 LOG4 POP POP POP JUMP JUMPDEST PUSH2 0x2883 PUSH2 0x21B4 JUMP JUMPDEST PUSH20 0xFFFFFFFFFFFFFFFFFFFFFFFFFFFFFFFFFFFFFFFF AND DUP4 PUSH20 0xFFFFFFFFFFFFFFFFFFFFFFFFFFFFFFFFFFFFFFFF AND EQ DUP1 PUSH2 0x28C9 JUMPI POP PUSH2 0x28C8 DUP4 PUSH2 0x28C3 PUSH2 0x21B4 JUMP JUMPDEST PUSH2 0x1BA5 JUMP JUMPDEST JUMPDEST PUSH2 0x2908 JUMPI PUSH1 0x40 MLOAD PUSH32 0x8C379A000000000000000000000000000000000000000000000000000000000 DUP2 MSTORE PUSH1 0x4 ADD PUSH2 0x28FF SWAP1 PUSH2 0x7039 JUMP JUMPDEST PUSH1 0x40 MLOAD DUP1 SWAP2 SUB SWAP1 REVERT JUMPDEST PUSH2 0x2913 DUP4 DUP4 DUP4 PUSH2 0x35DB JUMP JUMPDEST POP POP POP JUMP JUMPDEST PUSH1 0x0 PUSH20 0xFFFFFFFFFFFFFFFFFFFFFFFFFFFFFFFFFFFFFFFF AND DUP5 PUSH20 0xFFFFFFFFFFFFFFFFFFFFFFFFFFFFFFFFFFFFFFFF AND SUB PUSH2 0x2987 JUMPI PUSH1 0x40 MLOAD PUSH32 0x8C379A000000000000000000000000000000000000000000000000000000000 DUP2 MSTORE PUSH1 0x4 ADD PUSH2 0x297E SWAP1 PUSH2 0x8819 JUMP JUMPDEST PUSH1 0x40 MLOAD DUP1 SWAP2 SUB SWAP1 REVERT JUMPDEST PUSH1 0x0 PUSH2 0x2991 PUSH2 0x21B4 JUMP JUMPDEST SWAP1 POP PUSH1 0x0 PUSH2 0x299E DUP6 PUSH2 0x38AB JUMP JUMPDEST SWAP1 POP PUSH1 0x0 PUSH2 0x29AB DUP6 PUSH2 0x38AB JUMP JUMPDEST SWAP1 POP PUSH2 0x29BC DUP4 PUSH1 0x0 DUP10 DUP6 DUP6 DUP10 PUSH2 0x3395 JUMP JUMPDEST DUP5 PUSH1 0x65 PUSH1 0x0 DUP9 DUP2 MSTORE PUSH1 0x20 ADD SWAP1 DUP2 MSTORE PUSH1 0x20 ADD PUSH1 0x0 KECCAK256 PUSH1 0x0 DUP10 PUSH20 0xFFFFFFFFFFFFFFFFFFFFFFFFFFFFFFFFFFFFFFFF AND PUSH20 0xFFFFFFFFFFFFFFFFFFFFFFFFFFFFFFFFFFFFFFFF AND DUP2 MSTORE PUSH1 0x20 ADD SWAP1 DUP2 MSTORE PUSH1 0x20 ADD PUSH1 0x0 KECCAK256 PUSH1 0x0 DUP3 DUP3 SLOAD PUSH2 0x2A1C SWAP2 SWAP1 PUSH2 0x88CB JUMP JUMPDEST SWAP3 POP POP DUP2 SWAP1 SSTORE POP DUP7 PUSH20 0xFFFFFFFFFFFFFFFFFFFFFFFFFFFFFFFFFFFFFFFF AND PUSH1 0x0 PUSH20 0xFFFFFFFFFFFFFFFFFFFFFFFFFFFFFFFFFFFFFFFF AND DUP5 PUSH20 0xFFFFFFFFFFFFFFFFFFFFFFFFFFFFFFFFFFFFFFFF AND PUSH32 0xC3D58168C5AE7397731D063D5BBF3D657854427343F4C083240F7AACAA2D0F62 DUP10 DUP10 PUSH1 0x40 MLOAD PUSH2 0x2A9A SWAP3 SWAP2 SWAP1 PUSH2 0x8AEC JUMP JUMPDEST PUSH1 0x40 MLOAD DUP1 SWAP2 SUB SWAP1 LOG4 PUSH2 0x2AB1 DUP4 PUSH1 0x0 DUP10 DUP6 DUP6 DUP10 PUSH2 0x33B3 JUMP JUMPDEST PUSH2 0x2AC0 DUP4 PUSH1 0x0 DUP10 DUP10 DUP10 DUP10 PUSH2 0x3925 JUMP JUMPDEST POP POP POP POP POP POP POP JUMP JUMPDEST PUSH2 0x2AD1 PUSH2 0x1DCE JUMP JUMPDEST PUSH1 0x1 PUSH1 0xC9 PUSH1 0x0 PUSH2 0x100 EXP DUP2 SLOAD DUP2 PUSH1 0xFF MUL NOT AND SWAP1 DUP4 ISZERO ISZERO MUL OR SWAP1 SSTORE POP PUSH32 0x62E78CEA01BEE320CD4E420270B5EA74000D11B0C9F74754EBDBFC544B05A258 PUSH2 0x2B15 PUSH2 0x21B4 JUMP JUMPDEST PUSH1 0x40 MLOAD PUSH2 0x2B22 SWAP2 SWAP1 PUSH2 0x83BE JUMP JUMPDEST PUSH1 0x40 MLOAD DUP1 SWAP2 SUB SWAP1 LOG1 JUMP JUMPDEST PUSH2 0x2B3E PUSH2 0x2B37 PUSH2 0x21B4 JUMP JUMPDEST DUP4 DUP4 PUSH2 0x3AFC JUMP JUMPDEST POP POP JUMP JUMPDEST PUSH1 0x0 DUP1 DUP3 PUSH20 0xFFFFFFFFFFFFFFFFFFFFFFFFFFFFFFFFFFFFFFFF AND EXTCODESIZE GT SWAP1 POP SWAP2 SWAP1 POP JUMP JUMPDEST PUSH1 0x0 PUSH1 0x1 SWAP1 SLOAD SWAP1 PUSH2 0x100 EXP SWAP1 DIV PUSH1 0xFF AND PUSH2 0x2BB4 JUMPI PUSH1 0x40 MLOAD PUSH32 0x8C379A000000000000000000000000000000000000000000000000000000000 DUP2 MSTORE PUSH1 0x4 ADD PUSH2 0x2BAB SWAP1 PUSH2 0x8B87 JUMP JUMPDEST PUSH1 0x40 MLOAD DUP1 SWAP2 SUB SWAP1 REVERT JUMPDEST PUSH2 0x2BBD DUP2 PUSH2 0x3C68 JUMP JUMPDEST POP JUMP JUMPDEST PUSH1 0x0 PUSH1 0x1 SWAP1 SLOAD SWAP1 PUSH2 0x100 EXP SWAP1 DIV PUSH1 0xFF AND PUSH2 0x2C0F JUMPI PUSH1 0x40 MLOAD PUSH32 0x8C379A000000000000000000000000000000000000000000000000000000000 DUP2 MSTORE PUSH1 0x4 ADD PUSH2 0x2C06 SWAP1 PUSH2 0x8B87 JUMP JUMPDEST PUSH1 0x40 MLOAD DUP1 SWAP2 SUB SWAP1 REVERT JUMPDEST JUMP JUMPDEST PUSH1 0x0 PUSH1 0x1 SWAP1 SLOAD SWAP1 PUSH2 0x100 EXP SWAP1 DIV PUSH1 0xFF AND PUSH2 0x2C60 JUMPI PUSH1 0x40 MLOAD PUSH32 0x8C379A000000000000000000000000000000000000000000000000000000000 DUP2 MSTORE PUSH1 0x4 ADD PUSH2 0x2C57 SWAP1 PUSH2 0x8B87 JUMP JUMPDEST PUSH1 0x40 MLOAD DUP1 SWAP2 SUB SWAP1 REVERT JUMPDEST PUSH2 0x2C68 PUSH2 0x3CC3 JUMP JUMPDEST JUMP JUMPDEST PUSH1 0x0 PUSH1 0x1 SWAP1 SLOAD SWAP1 PUSH2 0x100 EXP SWAP1 DIV PUSH1 0xFF AND PUSH2 0x2CB9 JUMPI PUSH1 0x40 MLOAD PUSH32 0x8C379A000000000000000000000000000000000000000000000000000000000 DUP2 MSTORE PUSH1 0x4 ADD PUSH2 0x2CB0 SWAP1 PUSH2 0x8B87 JUMP JUMPDEST PUSH1 0x40 MLOAD DUP1 SWAP2 SUB SWAP1 REVERT JUMPDEST JUMP JUMPDEST PUSH1 0x0 PUSH1 0x1 SWAP1 SLOAD SWAP1 PUSH2 0x100 EXP SWAP1 DIV PUSH1 0xFF AND PUSH2 0x2D0A JUMPI PUSH1 0x40 MLOAD PUSH32 0x8C379A000000000000000000000000000000000000000000000000000000000 DUP2 MSTORE PUSH1 0x4 ADD PUSH2 0x2D01 SWAP1 PUSH2 0x8B87 JUMP JUMPDEST PUSH1 0x40 MLOAD DUP1 SWAP2 SUB SWAP1 REVERT JUMPDEST JUMP JUMPDEST PUSH1 0x0 PUSH1 0x66 PUSH1 0x0 DUP5 PUSH20 0xFFFFFFFFFFFFFFFFFFFFFFFFFFFFFFFFFFFFFFFF AND PUSH20 0xFFFFFFFFFFFFFFFFFFFFFFFFFFFFFFFFFFFFFFFF AND DUP2 MSTORE PUSH1 0x20 ADD SWAP1 DUP2 MSTORE PUSH1 0x20 ADD PUSH1 0x0 KECCAK256 PUSH1 0x0 DUP4 PUSH20 0xFFFFFFFFFFFFFFFFFFFFFFFFFFFFFFFFFFFFFFFF AND PUSH20 0xFFFFFFFFFFFFFFFFFFFFFFFFFFFFFFFFFFFFFFFF AND DUP2 MSTORE PUSH1 0x20 ADD SWAP1 DUP2 MSTORE PUSH1 0x20 ADD PUSH1 0x0 KECCAK256 PUSH1 0x0 SWAP1 SLOAD SWAP1 PUSH2 0x100 EXP SWAP1 DIV PUSH1 0xFF AND SWAP1 POP SWAP3 SWAP2 POP POP JUMP JUMPDEST PUSH1 0x0 PUSH20 0xFFFFFFFFFFFFFFFFFFFFFFFFFFFFFFFFFFFFFFFF AND DUP5 PUSH20 0xFFFFFFFFFFFFFFFFFFFFFFFFFFFFFFFFFFFFFFFF AND SUB PUSH2 0x2E0F JUMPI PUSH1 0x40 MLOAD PUSH32 0x8C379A000000000000000000000000000000000000000000000000000000000 DUP2 MSTORE PUSH1 0x4 ADD PUSH2 0x2E06 SWAP1 PUSH2 0x89A8 JUMP JUMPDEST PUSH1 0x40 MLOAD DUP1 SWAP2 SUB SWAP1 REVERT JUMPDEST PUSH1 0x0 PUSH2 0x2E19 PUSH2 0x21B4 JUMP JUMPDEST SWAP1 POP PUSH1 0x0 PUSH2 0x2E26 DUP6 PUSH2 0x38AB JUMP JUMPDEST SWAP1 POP PUSH1 0x0 PUSH2 0x2E33 DUP6 PUSH2 0x38AB JUMP JUMPDEST SWAP1 POP PUSH2 0x2E43 DUP4 DUP10 DUP10 DUP6 DUP6 DUP10 PUSH2 0x3395 JUMP JUMPDEST PUSH1 0x0 PUSH1 0x65 PUSH1 0x0 DUP9 DUP2 MSTORE PUSH1 0x20 ADD SWAP1 DUP2 MSTORE PUSH1 0x20 ADD PUSH1 0x0 KECCAK256 PUSH1 0x0 DUP11 PUSH20 0xFFFFFFFFFFFFFFFFFFFFFFFFFFFFFFFFFFFFFFFF AND PUSH20 0xFFFFFFFFFFFFFFFFFFFFFFFFFFFFFFFFFFFFFFFF AND DUP2 MSTORE PUSH1 0x20 ADD SWAP1 DUP2 MSTORE PUSH1 0x20 ADD PUSH1 0x0 KECCAK256 SLOAD SWAP1 POP DUP6 DUP2 LT ISZERO PUSH2 0x2EDB JUMPI PUSH1 0x40 MLOAD PUSH32 0x8C379A000000000000000000000000000000000000000000000000000000000 DUP2 MSTORE PUSH1 0x4 ADD PUSH2 0x2ED2 SWAP1 PUSH2 0x8A3A JUMP JUMPDEST PUSH1 0x40 MLOAD DUP1 SWAP2 SUB SWAP1 REVERT JUMPDEST DUP6 DUP2 SUB PUSH1 0x65 PUSH1 0x0 DUP10 DUP2 MSTORE PUSH1 0x20 ADD SWAP1 DUP2 MSTORE PUSH1 0x20 ADD PUSH1 0x0 KECCAK256 PUSH1 0x0 DUP12 PUSH20 0xFFFFFFFFFFFFFFFFFFFFFFFFFFFFFFFFFFFFFFFF AND PUSH20 0xFFFFFFFFFFFFFFFFFFFFFFFFFFFFFFFFFFFFFFFF AND DUP2 MSTORE PUSH1 0x20 ADD SWAP1 DUP2 MSTORE PUSH1 0x20 ADD PUSH1 0x0 KECCAK256 DUP2 SWAP1 SSTORE POP DUP6 PUSH1 0x65 PUSH1 0x0 DUP10 DUP2 MSTORE PUSH1 0x20 ADD SWAP1 DUP2 MSTORE PUSH1 0x20 ADD PUSH1 0x0 KECCAK256 PUSH1 0x0 DUP11 PUSH20 0xFFFFFFFFFFFFFFFFFFFFFFFFFFFFFFFFFFFFFFFF AND PUSH20 0xFFFFFFFFFFFFFFFFFFFFFFFFFFFFFFFFFFFFFFFF AND DUP2 MSTORE PUSH1 0x20 ADD SWAP1 DUP2 MSTORE PUSH1 0x20 ADD PUSH1 0x0 KECCAK256 PUSH1 0x0 DUP3 DUP3 SLOAD PUSH2 0x2F92 SWAP2 SWAP1 PUSH2 0x88CB JUMP JUMPDEST SWAP3 POP POP DUP2 SWAP1 SSTORE POP DUP8 PUSH20 0xFFFFFFFFFFFFFFFFFFFFFFFFFFFFFFFFFFFFFFFF AND DUP10 PUSH20 0xFFFFFFFFFFFFFFFFFFFFFFFFFFFFFFFFFFFFFFFF AND DUP6 PUSH20 0xFFFFFFFFFFFFFFFFFFFFFFFFFFFFFFFFFFFFFFFF AND PUSH32 0xC3D58168C5AE7397731D063D5BBF3D657854427343F4C083240F7AACAA2D0F62 DUP11 DUP11 PUSH1 0x40 MLOAD PUSH2 0x300F SWAP3 SWAP2 SWAP1 PUSH2 0x8AEC JUMP JUMPDEST PUSH1 0x40 MLOAD DUP1 SWAP2 SUB SWAP1 LOG4 PUSH2 0x3025 DUP5 DUP11 DUP11 DUP7 DUP7 DUP11 PUSH2 0x33B3 JUMP JUMPDEST PUSH2 0x3033 DUP5 DUP11 DUP11 DUP11 DUP11 DUP11 PUSH2 0x3925 JUMP JUMPDEST POP POP POP POP POP POP POP POP POP JUMP JUMPDEST PUSH2 0x3046 PUSH2 0x21B4 JUMP JUMPDEST PUSH20 0xFFFFFFFFFFFFFFFFFFFFFFFFFFFFFFFFFFFFFFFF AND DUP4 PUSH20 0xFFFFFFFFFFFFFFFFFFFFFFFFFFFFFFFFFFFFFFFF AND EQ DUP1 PUSH2 0x308C JUMPI POP PUSH2 0x308B DUP4 PUSH2 0x3086 PUSH2 0x21B4 JUMP JUMPDEST PUSH2 0x1BA5 JUMP JUMPDEST JUMPDEST PUSH2 0x30CB JUMPI PUSH1 0x40 MLOAD PUSH32 0x8C379A000000000000000000000000000000000000000000000000000000000 DUP2 MSTORE PUSH1 0x4 ADD PUSH2 0x30C2 SWAP1 PUSH2 0x7039 JUMP JUMPDEST PUSH1 0x40 MLOAD DUP1 SWAP2 SUB SWAP1 REVERT JUMPDEST PUSH2 0x30D6 DUP4 DUP4 DUP4 PUSH2 0x3D2F JUMP JUMPDEST POP POP POP JUMP JUMPDEST PUSH2 0x30E5 DUP3 DUP3 PUSH2 0x15C7 JUMP JUMPDEST PUSH2 0x315C JUMPI PUSH2 0x30F2 DUP2 PUSH2 0x3F77 JUMP JUMPDEST PUSH2 0x3100 DUP4 PUSH1 0x0 SHR PUSH1 0x20 PUSH2 0x3FA4 JUMP JUMPDEST PUSH1 0x40 MLOAD PUSH1 0x20 ADD PUSH2 0x3111 SWAP3 SWAP2 SWAP1 PUSH2 0x8C3F JUMP JUMPDEST PUSH1 0x40 MLOAD PUSH1 0x20 DUP2 DUP4 SUB SUB DUP2 MSTORE SWAP1 PUSH1 0x40 MSTORE PUSH1 0x40 MLOAD PUSH32 0x8C379A000000000000000000000000000000000000000000000000000000000 DUP2 MSTORE PUSH1 0x4 ADD PUSH2 0x3153 SWAP2 SWAP1 PUSH2 0x4889 JUMP JUMPDEST PUSH1 0x40 MLOAD DUP1 SWAP2 SUB SWAP1 REVERT JUMPDEST POP POP JUMP JUMPDEST PUSH1 0x0 PUSH32 0xD9B67A2600000000000000000000000000000000000000000000000000000000 PUSH28 0xFFFFFFFFFFFFFFFFFFFFFFFFFFFFFFFFFFFFFFFFFFFFFFFFFFFFFFFF NOT AND DUP3 PUSH28 0xFFFFFFFFFFFFFFFFFFFFFFFFFFFFFFFFFFFFFFFFFFFFFFFFFFFFFFFF NOT AND EQ DUP1 PUSH2 0x322B JUMPI POP PUSH32 0xE89341C00000000000000000000000000000000000000000000000000000000 PUSH28 0xFFFFFFFFFFFFFFFFFFFFFFFFFFFFFFFFFFFFFFFFFFFFFFFFFFFFFFFF NOT AND DUP3 PUSH28 0xFFFFFFFFFFFFFFFFFFFFFFFFFFFFFFFFFFFFFFFFFFFFFFFFFFFFFFFF NOT AND EQ JUMPDEST DUP1 PUSH2 0x323B JUMPI POP PUSH2 0x323A DUP3 PUSH2 0x41E0 JUMP JUMPDEST JUMPDEST SWAP1 POP SWAP2 SWAP1 POP JUMP JUMPDEST PUSH1 0x0 DUP1 PUSH1 0x0 SWAP1 POP PUSH27 0x184F03E93FF9F4DAA797ED6E38ED64BF6A1F010000000000000000 DUP4 LT PUSH2 0x32A0 JUMPI PUSH27 0x184F03E93FF9F4DAA797ED6E38ED64BF6A1F010000000000000000 DUP4 DUP2 PUSH2 0x3296 JUMPI PUSH2 0x3295 PUSH2 0x8778 JUMP JUMPDEST JUMPDEST DIV SWAP3 POP PUSH1 0x40 DUP2 ADD SWAP1 POP JUMPDEST PUSH14 0x4EE2D6D415B85ACEF8100000000 DUP4 LT PUSH2 0x32DD JUMPI PUSH14 0x4EE2D6D415B85ACEF8100000000 DUP4 DUP2 PUSH2 0x32D3 JUMPI PUSH2 0x32D2 PUSH2 0x8778 JUMP JUMPDEST JUMPDEST DIV SWAP3 POP PUSH1 0x20 DUP2 ADD SWAP1 POP JUMPDEST PUSH7 0x2386F26FC10000 DUP4 LT PUSH2 0x330C JUMPI PUSH7 0x2386F26FC10000 DUP4 DUP2 PUSH2 0x3302 JUMPI PUSH2 0x3301 PUSH2 0x8778 JUMP JUMPDEST JUMPDEST DIV SWAP3 POP PUSH1 0x10 DUP2 ADD SWAP1 POP JUMPDEST PUSH4 0x5F5E100 DUP4 LT PUSH2 0x3335 JUMPI PUSH4 0x5F5E100 DUP4 DUP2 PUSH2 0x332B JUMPI PUSH2 0x332A PUSH2 0x8778 JUMP JUMPDEST JUMPDEST DIV SWAP3 POP PUSH1 0x8 DUP2 ADD SWAP1 POP JUMPDEST PUSH2 0x2710 DUP4 LT PUSH2 0x335A JUMPI PUSH2 0x2710 DUP4 DUP2 PUSH2 0x3350 JUMPI PUSH2 0x334F PUSH2 0x8778 JUMP JUMPDEST JUMPDEST DIV SWAP3 POP PUSH1 0x4 DUP2 ADD SWAP1 POP JUMPDEST PUSH1 0x64 DUP4 LT PUSH2 0x337D JUMPI PUSH1 0x64 DUP4 DUP2 PUSH2 0x3373 JUMPI PUSH2 0x3372 PUSH2 0x8778 JUMP JUMPDEST JUMPDEST DIV SWAP3 POP PUSH1 0x2 DUP2 ADD SWAP1 POP JUMPDEST PUSH1 0xA DUP4 LT PUSH2 0x338C JUMPI PUSH1 0x1 DUP2 ADD SWAP1 POP JUMPDEST DUP1 SWAP2 POP POP SWAP2 SWAP1 POP JUMP JUMPDEST PUSH2 0x339D PUSH2 0x1DCE JUMP JUMPDEST PUSH2 0x33AB DUP7 DUP7 DUP7 DUP7 DUP7 DUP7 PUSH2 0x424A JUMP JUMPDEST POP POP POP POP POP POP JUMP JUMPDEST POP POP POP POP POP POP JUMP JUMPDEST PUSH2 0x33DA DUP5 PUSH20 0xFFFFFFFFFFFFFFFFFFFFFFFFFFFFFFFFFFFFFFFF AND PUSH2 0x2B42 JUMP JUMPDEST ISZERO PUSH2 0x358A JUMPI DUP4 PUSH20 0xFFFFFFFFFFFFFFFFFFFFFFFFFFFFFFFFFFFFFFFF AND PUSH4 0xBC197C81 DUP8 DUP8 DUP7 DUP7 DUP7 PUSH1 0x40 MLOAD DUP7 PUSH4 0xFFFFFFFF AND PUSH1 0xE0 SHL DUP2 MSTORE PUSH1 0x4 ADD PUSH2 0x3420 SWAP6 SWAP5 SWAP4 SWAP3 SWAP2 SWAP1 PUSH2 0x8CC3 JUMP JUMPDEST PUSH1 0x20 PUSH1 0x40 MLOAD DUP1 DUP4 SUB DUP2 PUSH1 0x0 DUP8 GAS CALL SWAP3 POP POP POP DUP1 ISZERO PUSH2 0x345C JUMPI POP PUSH1 0x40 MLOAD RETURNDATASIZE PUSH1 0x1F NOT PUSH1 0x1F DUP3 ADD AND DUP3 ADD DUP1 PUSH1 0x40 MSTORE POP DUP2 ADD SWAP1 PUSH2 0x3459 SWAP2 SWAP1 PUSH2 0x8D40 JUMP JUMPDEST PUSH1 0x1 JUMPDEST PUSH2 0x3501 JUMPI PUSH2 0x3468 PUSH2 0x8D7A JUMP JUMPDEST DUP1 PUSH4 0x8C379A0 SUB PUSH2 0x34C4 JUMPI POP PUSH2 0x347C PUSH2 0x8D9C JUMP JUMPDEST DUP1 PUSH2 0x3487 JUMPI POP PUSH2 0x34C6 JUMP JUMPDEST DUP1 PUSH1 0x40 MLOAD PUSH32 0x8C379A000000000000000000000000000000000000000000000000000000000 DUP2 MSTORE PUSH1 0x4 ADD PUSH2 0x34BB SWAP2 SWAP1 PUSH2 0x4889 JUMP JUMPDEST PUSH1 0x40 MLOAD DUP1 SWAP2 SUB SWAP1 REVERT JUMPDEST POP JUMPDEST PUSH1 0x40 MLOAD PUSH32 0x8C379A000000000000000000000000000000000000000000000000000000000 DUP2 MSTORE PUSH1 0x4 ADD PUSH2 0x34F8 SWAP1 PUSH2 0x8E9E JUMP JUMPDEST PUSH1 0x40 MLOAD DUP1 SWAP2 SUB SWAP1 REVERT JUMPDEST PUSH4 0xBC197C81 PUSH1 0xE0 SHL PUSH28 0xFFFFFFFFFFFFFFFFFFFFFFFFFFFFFFFFFFFFFFFFFFFFFFFFFFFFFFFF NOT AND DUP2 PUSH28 0xFFFFFFFFFFFFFFFFFFFFFFFFFFFFFFFFFFFFFFFFFFFFFFFFFFFFFFFF NOT AND EQ PUSH2 0x3588 JUMPI PUSH1 0x40 MLOAD PUSH32 0x8C379A000000000000000000000000000000000000000000000000000000000 DUP2 MSTORE PUSH1 0x4 ADD PUSH2 0x357F SWAP1 PUSH2 0x8F30 JUMP JUMPDEST PUSH1 0x40 MLOAD DUP1 SWAP2 SUB SWAP1 REVERT JUMPDEST POP JUMPDEST POP POP POP POP POP POP JUMP JUMPDEST PUSH2 0x359A PUSH2 0x12B8 JUMP JUMPDEST PUSH2 0x35D9 JUMPI PUSH1 0x40 MLOAD PUSH32 0x8C379A000000000000000000000000000000000000000000000000000000000 DUP2 MSTORE PUSH1 0x4 ADD PUSH2 0x35D0 SWAP1 PUSH2 0x8F9C JUMP JUMPDEST PUSH1 0x40 MLOAD DUP1 SWAP2 SUB SWAP1 REVERT JUMPDEST JUMP JUMPDEST PUSH1 0x0 PUSH20 0xFFFFFFFFFFFFFFFFFFFFFFFFFFFFFFFFFFFFFFFF AND DUP4 PUSH20 0xFFFFFFFFFFFFFFFFFFFFFFFFFFFFFFFFFFFFFFFF AND SUB PUSH2 0x364A JUMPI PUSH1 0x40 MLOAD PUSH32 0x8C379A000000000000000000000000000000000000000000000000000000000 DUP2 MSTORE PUSH1 0x4 ADD PUSH2 0x3641 SWAP1 PUSH2 0x902E JUMP JUMPDEST PUSH1 0x40 MLOAD DUP1 SWAP2 SUB SWAP1 REVERT JUMPDEST DUP1 MLOAD DUP3 MLOAD EQ PUSH2 0x368E JUMPI PUSH1 0x40 MLOAD PUSH32 0x8C379A000000000000000000000000000000000000000000000000000000000 DUP2 MSTORE PUSH1 0x4 ADD PUSH2 0x3685 SWAP1 PUSH2 0x88AB JUMP JUMPDEST PUSH1 0x40 MLOAD DUP1 SWAP2 SUB SWAP1 REVERT JUMPDEST PUSH1 0x0 PUSH2 0x3698 PUSH2 0x21B4 JUMP JUMPDEST SWAP1 POP PUSH2 0x36B8 DUP2 DUP6 PUSH1 0x0 DUP7 DUP7 PUSH1 0x40 MLOAD DUP1 PUSH1 0x20 ADD PUSH1 0x40 MSTORE DUP1 PUSH1 0x0 DUP2 MSTORE POP PUSH2 0x3395 JUMP JUMPDEST PUSH1 0x0 JUMPDEST DUP4 MLOAD DUP2 LT ISZERO PUSH2 0x3807 JUMPI PUSH1 0x0 DUP5 DUP3 DUP2 MLOAD DUP2 LT PUSH2 0x36D9 JUMPI PUSH2 0x36D8 PUSH2 0x6F21 JUMP JUMPDEST JUMPDEST PUSH1 0x20 MUL PUSH1 0x20 ADD ADD MLOAD SWAP1 POP PUSH1 0x0 DUP5 DUP4 DUP2 MLOAD DUP2 LT PUSH2 0x36F8 JUMPI PUSH2 0x36F7 PUSH2 0x6F21 JUMP JUMPDEST JUMPDEST PUSH1 0x20 MUL PUSH1 0x20 ADD ADD MLOAD SWAP1 POP PUSH1 0x0 PUSH1 0x65 PUSH1 0x0 DUP5 DUP2 MSTORE PUSH1 0x20 ADD SWAP1 DUP2 MSTORE PUSH1 0x20 ADD PUSH1 0x0 KECCAK256 PUSH1 0x0 DUP10 PUSH20 0xFFFFFFFFFFFFFFFFFFFFFFFFFFFFFFFFFFFFFFFF AND PUSH20 0xFFFFFFFFFFFFFFFFFFFFFFFFFFFFFFFFFFFFFFFF AND DUP2 MSTORE PUSH1 0x20 ADD SWAP1 DUP2 MSTORE PUSH1 0x20 ADD PUSH1 0x0 KECCAK256 SLOAD SWAP1 POP DUP2 DUP2 LT ISZERO PUSH2 0x379A JUMPI PUSH1 0x40 MLOAD PUSH32 0x8C379A000000000000000000000000000000000000000000000000000000000 DUP2 MSTORE PUSH1 0x4 ADD PUSH2 0x3791 SWAP1 PUSH2 0x90C0 JUMP JUMPDEST PUSH1 0x40 MLOAD DUP1 SWAP2 SUB SWAP1 REVERT JUMPDEST DUP2 DUP2 SUB PUSH1 0x65 PUSH1 0x0 DUP6 DUP2 MSTORE PUSH1 0x20 ADD SWAP1 DUP2 MSTORE PUSH1 0x20 ADD PUSH1 0x0 KECCAK256 PUSH1 0x0 DUP11 PUSH20 0xFFFFFFFFFFFFFFFFFFFFFFFFFFFFFFFFFFFFFFFF AND PUSH20 0xFFFFFFFFFFFFFFFFFFFFFFFFFFFFFFFFFFFFFFFF AND DUP2 MSTORE PUSH1 0x20 ADD SWAP1 DUP2 MSTORE PUSH1 0x20 ADD PUSH1 0x0 KECCAK256 DUP2 SWAP1 SSTORE POP POP POP POP DUP1 DUP1 PUSH2 0x37FF SWAP1 PUSH2 0x6F7F JUMP JUMPDEST SWAP2 POP POP PUSH2 0x36BB JUMP JUMPDEST POP PUSH1 0x0 PUSH20 0xFFFFFFFFFFFFFFFFFFFFFFFFFFFFFFFFFFFFFFFF AND DUP5 PUSH20 0xFFFFFFFFFFFFFFFFFFFFFFFFFFFFFFFFFFFFFFFF AND DUP3 PUSH20 0xFFFFFFFFFFFFFFFFFFFFFFFFFFFFFFFFFFFFFFFF AND PUSH32 0x4A39DC06D4C0DBC64B70AF90FD698A233A518AA5D07E595D983B8C0526C8F7FB DUP7 DUP7 PUSH1 0x40 MLOAD PUSH2 0x387F SWAP3 SWAP2 SWAP1 PUSH2 0x88FF JUMP JUMPDEST PUSH1 0x40 MLOAD DUP1 SWAP2 SUB SWAP1 LOG4 PUSH2 0x38A5 DUP2 DUP6 PUSH1 0x0 DUP7 DUP7 PUSH1 0x40 MLOAD DUP1 PUSH1 0x20 ADD PUSH1 0x40 MSTORE DUP1 PUSH1 0x0 DUP2 MSTORE POP PUSH2 0x33B3 JUMP JUMPDEST POP POP POP POP JUMP JUMPDEST PUSH1 0x60 PUSH1 0x0 PUSH1 0x1 PUSH8 0xFFFFFFFFFFFFFFFF DUP2 GT ISZERO PUSH2 0x38CA JUMPI PUSH2 0x38C9 PUSH2 0x4552 JUMP JUMPDEST JUMPDEST PUSH1 0x40 MLOAD SWAP1 DUP1 DUP3 MSTORE DUP1 PUSH1 0x20 MUL PUSH1 0x20 ADD DUP3 ADD PUSH1 0x40 MSTORE DUP1 ISZERO PUSH2 0x38F8 JUMPI DUP2 PUSH1 0x20 ADD PUSH1 0x20 DUP3 MUL DUP1 CALLDATASIZE DUP4 CALLDATACOPY DUP1 DUP3 ADD SWAP2 POP POP SWAP1 POP JUMPDEST POP SWAP1 POP DUP3 DUP2 PUSH1 0x0 DUP2 MLOAD DUP2 LT PUSH2 0x3910 JUMPI PUSH2 0x390F PUSH2 0x6F21 JUMP JUMPDEST JUMPDEST PUSH1 0x20 MUL PUSH1 0x20 ADD ADD DUP2 DUP2 MSTORE POP POP DUP1 SWAP2 POP POP SWAP2 SWAP1 POP JUMP JUMPDEST PUSH2 0x3944 DUP5 PUSH20 0xFFFFFFFFFFFFFFFFFFFFFFFFFFFFFFFFFFFFFFFF AND PUSH2 0x2B42 JUMP JUMPDEST ISZERO PUSH2 0x3AF4 JUMPI DUP4 PUSH20 0xFFFFFFFFFFFFFFFFFFFFFFFFFFFFFFFFFFFFFFFF AND PUSH4 0xF23A6E61 DUP8 DUP8 DUP7 DUP7 DUP7 PUSH1 0x40 MLOAD DUP7 PUSH4 0xFFFFFFFF AND PUSH1 0xE0 SHL DUP2 MSTORE PUSH1 0x4 ADD PUSH2 0x398A SWAP6 SWAP5 SWAP4 SWAP3 SWAP2 SWAP1 PUSH2 0x90E0 JUMP JUMPDEST PUSH1 0x20 PUSH1 0x40 MLOAD DUP1 DUP4 SUB DUP2 PUSH1 0x0 DUP8 GAS CALL SWAP3 POP POP POP DUP1 ISZERO PUSH2 0x39C6 JUMPI POP PUSH1 0x40 MLOAD RETURNDATASIZE PUSH1 0x1F NOT PUSH1 0x1F DUP3 ADD AND DUP3 ADD DUP1 PUSH1 0x40 MSTORE POP DUP2 ADD SWAP1 PUSH2 0x39C3 SWAP2 SWAP1 PUSH2 0x8D40 JUMP JUMPDEST PUSH1 0x1 JUMPDEST PUSH2 0x3A6B JUMPI PUSH2 0x39D2 PUSH2 0x8D7A JUMP JUMPDEST DUP1 PUSH4 0x8C379A0 SUB PUSH2 0x3A2E JUMPI POP PUSH2 0x39E6 PUSH2 0x8D9C JUMP JUMPDEST DUP1 PUSH2 0x39F1 JUMPI POP PUSH2 0x3A30 JUMP JUMPDEST DUP1 PUSH1 0x40 MLOAD PUSH32 0x8C379A000000000000000000000000000000000000000000000000000000000 DUP2 MSTORE PUSH1 0x4 ADD PUSH2 0x3A25 SWAP2 SWAP1 PUSH2 0x4889 JUMP JUMPDEST PUSH1 0x40 MLOAD DUP1 SWAP2 SUB SWAP1 REVERT JUMPDEST POP JUMPDEST PUSH1 0x40 MLOAD PUSH32 0x8C379A000000000000000000000000000000000000000000000000000000000 DUP2 MSTORE PUSH1 0x4 ADD PUSH2 0x3A62 SWAP1 PUSH2 0x8E9E JUMP JUMPDEST PUSH1 0x40 MLOAD DUP1 SWAP2 SUB SWAP1 REVERT JUMPDEST PUSH4 0xF23A6E61 PUSH1 0xE0 SHL PUSH28 0xFFFFFFFFFFFFFFFFFFFFFFFFFFFFFFFFFFFFFFFFFFFFFFFFFFFFFFFF NOT AND DUP2 PUSH28 0xFFFFFFFFFFFFFFFFFFFFFFFFFFFFFFFFFFFFFFFFFFFFFFFFFFFFFFFF NOT AND EQ PUSH2 0x3AF2 JUMPI PUSH1 0x40 MLOAD PUSH32 0x8C379A000000000000000000000000000000000000000000000000000000000 DUP2 MSTORE PUSH1 0x4 ADD PUSH2 0x3AE9 SWAP1 PUSH2 0x8F30 JUMP JUMPDEST PUSH1 0x40 MLOAD DUP1 SWAP2 SUB SWAP1 REVERT JUMPDEST POP JUMPDEST POP POP POP POP POP POP JUMP JUMPDEST DUP2 PUSH20 0xFFFFFFFFFFFFFFFFFFFFFFFFFFFFFFFFFFFFFFFF AND DUP4 PUSH20 0xFFFFFFFFFFFFFFFFFFFFFFFFFFFFFFFFFFFFFFFF AND SUB PUSH2 0x3B6A JUMPI PUSH1 0x40 MLOAD PUSH32 0x8C379A000000000000000000000000000000000000000000000000000000000 DUP2 MSTORE PUSH1 0x4 ADD PUSH2 0x3B61 SWAP1 PUSH2 0x91AC JUMP JUMPDEST PUSH1 0x40 MLOAD DUP1 SWAP2 SUB SWAP1 REVERT JUMPDEST DUP1 PUSH1 0x66 PUSH1 0x0 DUP6 PUSH20 0xFFFFFFFFFFFFFFFFFFFFFFFFFFFFFFFFFFFFFFFF AND PUSH20 0xFFFFFFFFFFFFFFFFFFFFFFFFFFFFFFFFFFFFFFFF AND DUP2 MSTORE PUSH1 0x20 ADD SWAP1 DUP2 MSTORE PUSH1 0x20 ADD PUSH1 0x0 KECCAK256 PUSH1 0x0 DUP5 PUSH20 0xFFFFFFFFFFFFFFFFFFFFFFFFFFFFFFFFFFFFFFFF AND PUSH20 0xFFFFFFFFFFFFFFFFFFFFFFFFFFFFFFFFFFFFFFFF AND DUP2 MSTORE PUSH1 0x20 ADD SWAP1 DUP2 MSTORE PUSH1 0x20 ADD PUSH1 0x0 KECCAK256 PUSH1 0x0 PUSH2 0x100 EXP DUP2 SLOAD DUP2 PUSH1 0xFF MUL NOT AND SWAP1 DUP4 ISZERO ISZERO MUL OR SWAP1 SSTORE POP DUP2 PUSH20 0xFFFFFFFFFFFFFFFFFFFFFFFFFFFFFFFFFFFFFFFF AND DUP4 PUSH20 0xFFFFFFFFFFFFFFFFFFFFFFFFFFFFFFFFFFFFFFFF AND PUSH32 0x17307EAB39AB6107E8899845AD3D59BD9653F200F220920489CA2B5937696C31 DUP4 PUSH1 0x40 MLOAD PUSH2 0x3C5B SWAP2 SWAP1 PUSH2 0x4779 JUMP JUMPDEST PUSH1 0x40 MLOAD DUP1 SWAP2 SUB SWAP1 LOG3 POP POP POP JUMP JUMPDEST PUSH1 0x0 PUSH1 0x1 SWAP1 SLOAD SWAP1 PUSH2 0x100 EXP SWAP1 DIV PUSH1 0xFF AND PUSH2 0x3CB7 JUMPI PUSH1 0x40 MLOAD PUSH32 0x8C379A000000000000000000000000000000000000000000000000000000000 DUP2 MSTORE PUSH1 0x4 ADD PUSH2 0x3CAE SWAP1 PUSH2 0x8B87 JUMP JUMPDEST PUSH1 0x40 MLOAD DUP1 SWAP2 SUB SWAP1 REVERT JUMPDEST PUSH2 0x3CC0 DUP2 PUSH2 0x1EA6 JUMP JUMPDEST POP JUMP JUMPDEST PUSH1 0x0 PUSH1 0x1 SWAP1 SLOAD SWAP1 PUSH2 0x100 EXP SWAP1 DIV PUSH1 0xFF AND PUSH2 0x3D12 JUMPI PUSH1 0x40 MLOAD PUSH32 0x8C379A000000000000000000000000000000000000000000000000000000000 DUP2 MSTORE PUSH1 0x4 ADD PUSH2 0x3D09 SWAP1 PUSH2 0x8B87 JUMP JUMPDEST PUSH1 0x40 MLOAD DUP1 SWAP2 SUB SWAP1 REVERT JUMPDEST PUSH1 0x0 PUSH1 0xC9 PUSH1 0x0 PUSH2 0x100 EXP DUP2 SLOAD DUP2 PUSH1 0xFF MUL NOT AND SWAP1 DUP4 ISZERO ISZERO MUL OR SWAP1 SSTORE POP JUMP JUMPDEST PUSH1 0x0 PUSH20 0xFFFFFFFFFFFFFFFFFFFFFFFFFFFFFFFFFFFFFFFF AND DUP4 PUSH20 0xFFFFFFFFFFFFFFFFFFFFFFFFFFFFFFFFFFFFFFFF AND SUB PUSH2 0x3D9E JUMPI PUSH1 0x40 MLOAD PUSH32 0x8C379A000000000000000000000000000000000000000000000000000000000 DUP2 MSTORE PUSH1 0x4 ADD PUSH2 0x3D95 SWAP1 PUSH2 0x902E JUMP JUMPDEST PUSH1 0x40 MLOAD DUP1 SWAP2 SUB SWAP1 REVERT JUMPDEST PUSH1 0x0 PUSH2 0x3DA8 PUSH2 0x21B4 JUMP JUMPDEST SWAP1 POP PUSH1 0x0 PUSH2 0x3DB5 DUP5 PUSH2 0x38AB JUMP JUMPDEST SWAP1 POP PUSH1 0x0 PUSH2 0x3DC2 DUP5 PUSH2 0x38AB JUMP JUMPDEST SWAP1 POP PUSH2 0x3DE2 DUP4 DUP8 PUSH1 0x0 DUP6 DUP6 PUSH1 0x40 MLOAD DUP1 PUSH1 0x20 ADD PUSH1 0x40 MSTORE DUP1 PUSH1 0x0 DUP2 MSTORE POP PUSH2 0x3395 JUMP JUMPDEST PUSH1 0x0 PUSH1 0x65 PUSH1 0x0 DUP8 DUP2 MSTORE PUSH1 0x20 ADD SWAP1 DUP2 MSTORE PUSH1 0x20 ADD PUSH1 0x0 KECCAK256 PUSH1 0x0 DUP9 PUSH20 0xFFFFFFFFFFFFFFFFFFFFFFFFFFFFFFFFFFFFFFFF AND PUSH20 0xFFFFFFFFFFFFFFFFFFFFFFFFFFFFFFFFFFFFFFFF AND DUP2 MSTORE PUSH1 0x20 ADD SWAP1 DUP2 MSTORE PUSH1 0x20 ADD PUSH1 0x0 KECCAK256 SLOAD SWAP1 POP DUP5 DUP2 LT ISZERO PUSH2 0x3E7A JUMPI PUSH1 0x40 MLOAD PUSH32 0x8C379A000000000000000000000000000000000000000000000000000000000 DUP2 MSTORE PUSH1 0x4 ADD PUSH2 0x3E71 SWAP1 PUSH2 0x90C0 JUMP JUMPDEST PUSH1 0x40 MLOAD DUP1 SWAP2 SUB SWAP1 REVERT JUMPDEST DUP5 DUP2 SUB PUSH1 0x65 PUSH1 0x0 DUP9 DUP2 MSTORE PUSH1 0x20 ADD SWAP1 DUP2 MSTORE PUSH1 0x20 ADD PUSH1 0x0 KECCAK256 PUSH1 0x0 DUP10 PUSH20 0xFFFFFFFFFFFFFFFFFFFFFFFFFFFFFFFFFFFFFFFF AND PUSH20 0xFFFFFFFFFFFFFFFFFFFFFFFFFFFFFFFFFFFFFFFF AND DUP2 MSTORE PUSH1 0x20 ADD SWAP1 DUP2 MSTORE PUSH1 0x20 ADD PUSH1 0x0 KECCAK256 DUP2 SWAP1 SSTORE POP PUSH1 0x0 PUSH20 0xFFFFFFFFFFFFFFFFFFFFFFFFFFFFFFFFFFFFFFFF AND DUP8 PUSH20 0xFFFFFFFFFFFFFFFFFFFFFFFFFFFFFFFFFFFFFFFF AND DUP6 PUSH20 0xFFFFFFFFFFFFFFFFFFFFFFFFFFFFFFFFFFFFFFFF AND PUSH32 0xC3D58168C5AE7397731D063D5BBF3D657854427343F4C083240F7AACAA2D0F62 DUP10 DUP10 PUSH1 0x40 MLOAD PUSH2 0x3F48 SWAP3 SWAP2 SWAP1 PUSH2 0x8AEC JUMP JUMPDEST PUSH1 0x40 MLOAD DUP1 SWAP2 SUB SWAP1 LOG4 PUSH2 0x3F6E DUP5 DUP9 PUSH1 0x0 DUP7 DUP7 PUSH1 0x40 MLOAD DUP1 PUSH1 0x20 ADD PUSH1 0x40 MSTORE DUP1 PUSH1 0x0 DUP2 MSTORE POP PUSH2 0x33B3 JUMP JUMPDEST POP POP POP POP POP POP POP JUMP JUMPDEST PUSH1 0x60 PUSH2 0x3F9D DUP3 PUSH20 0xFFFFFFFFFFFFFFFFFFFFFFFFFFFFFFFFFFFFFFFF AND PUSH1 0x14 PUSH1 0xFF AND PUSH2 0x3FA4 JUMP JUMPDEST SWAP1 POP SWAP2 SWAP1 POP JUMP JUMPDEST PUSH1 0x60 PUSH1 0x0 PUSH1 0x2 DUP4 PUSH1 0x2 PUSH2 0x3FB7 SWAP2 SWAP1 PUSH2 0x91CC JUMP JUMPDEST PUSH2 0x3FC1 SWAP2 SWAP1 PUSH2 0x88CB JUMP JUMPDEST PUSH8 0xFFFFFFFFFFFFFFFF DUP2 GT ISZERO PUSH2 0x3FDA JUMPI PUSH2 0x3FD9 PUSH2 0x4552 JUMP JUMPDEST JUMPDEST PUSH1 0x40 MLOAD SWAP1 DUP1 DUP3 MSTORE DUP1 PUSH1 0x1F ADD PUSH1 0x1F NOT AND PUSH1 0x20 ADD DUP3 ADD PUSH1 0x40 MSTORE DUP1 ISZERO PUSH2 0x400C JUMPI DUP2 PUSH1 0x20 ADD PUSH1 0x1 DUP3 MUL DUP1 CALLDATASIZE DUP4 CALLDATACOPY DUP1 DUP3 ADD SWAP2 POP POP SWAP1 POP JUMPDEST POP SWAP1 POP PUSH32 0x3000000000000000000000000000000000000000000000000000000000000000 DUP2 PUSH1 0x0 DUP2 MLOAD DUP2 LT PUSH2 0x4044 JUMPI PUSH2 0x4043 PUSH2 0x6F21 JUMP JUMPDEST JUMPDEST PUSH1 0x20 ADD ADD SWAP1 PUSH31 0xFFFFFFFFFFFFFFFFFFFFFFFFFFFFFFFFFFFFFFFFFFFFFFFFFFFFFFFFFFFFFF NOT AND SWAP1 DUP2 PUSH1 0x0 BYTE SWAP1 MSTORE8 POP PUSH32 0x7800000000000000000000000000000000000000000000000000000000000000 DUP2 PUSH1 0x1 DUP2 MLOAD DUP2 LT PUSH2 0x40A8 JUMPI PUSH2 0x40A7 PUSH2 0x6F21 JUMP JUMPDEST JUMPDEST PUSH1 0x20 ADD ADD SWAP1 PUSH31 0xFFFFFFFFFFFFFFFFFFFFFFFFFFFFFFFFFFFFFFFFFFFFFFFFFFFFFFFFFFFFFF NOT AND SWAP1 DUP2 PUSH1 0x0 BYTE SWAP1 MSTORE8 POP PUSH1 0x0 PUSH1 0x1 DUP5 PUSH1 0x2 PUSH2 0x40E8 SWAP2 SWAP1 PUSH2 0x91CC JUMP JUMPDEST PUSH2 0x40F2 SWAP2 SWAP1 PUSH2 0x88CB JUMP JUMPDEST SWAP1 POP JUMPDEST PUSH1 0x1 DUP2 GT ISZERO PUSH2 0x4192 JUMPI PUSH32 0x3031323334353637383961626364656600000000000000000000000000000000 PUSH1 0xF DUP7 AND PUSH1 0x10 DUP2 LT PUSH2 0x4134 JUMPI PUSH2 0x4133 PUSH2 0x6F21 JUMP JUMPDEST JUMPDEST BYTE PUSH1 0xF8 SHL DUP3 DUP3 DUP2 MLOAD DUP2 LT PUSH2 0x414B JUMPI PUSH2 0x414A PUSH2 0x6F21 JUMP JUMPDEST JUMPDEST PUSH1 0x20 ADD ADD SWAP1 PUSH31 0xFFFFFFFFFFFFFFFFFFFFFFFFFFFFFFFFFFFFFFFFFFFFFFFFFFFFFFFFFFFFFF NOT AND SWAP1 DUP2 PUSH1 0x0 BYTE SWAP1 MSTORE8 POP PUSH1 0x4 DUP6 SWAP1 SHR SWAP5 POP DUP1 PUSH2 0x418B SWAP1 PUSH2 0x920E JUMP JUMPDEST SWAP1 POP PUSH2 0x40F5 JUMP JUMPDEST POP PUSH1 0x0 DUP5 EQ PUSH2 0x41D6 JUMPI PUSH1 0x40 MLOAD PUSH32 0x8C379A000000000000000000000000000000000000000000000000000000000 DUP2 MSTORE PUSH1 0x4 ADD PUSH2 0x41CD SWAP1 PUSH2 0x9283 JUMP JUMPDEST PUSH1 0x40 MLOAD DUP1 SWAP2 SUB SWAP1 REVERT JUMPDEST DUP1 SWAP2 POP POP SWAP3 SWAP2 POP POP JUMP JUMPDEST PUSH1 0x0 PUSH32 0x1FFC9A700000000000000000000000000000000000000000000000000000000 PUSH28 0xFFFFFFFFFFFFFFFFFFFFFFFFFFFFFFFFFFFFFFFFFFFFFFFFFFFFFFFF NOT AND DUP3 PUSH28 0xFFFFFFFFFFFFFFFFFFFFFFFFFFFFFFFFFFFFFFFFFFFFFFFFFFFFFFFF NOT AND EQ SWAP1 POP SWAP2 SWAP1 POP JUMP JUMPDEST PUSH2 0x4258 DUP7 DUP7 DUP7 DUP7 DUP7 DUP7 PUSH2 0x441D JUMP JUMPDEST PUSH1 0x0 PUSH20 0xFFFFFFFFFFFFFFFFFFFFFFFFFFFFFFFFFFFFFFFF AND DUP6 PUSH20 0xFFFFFFFFFFFFFFFFFFFFFFFFFFFFFFFFFFFFFFFF AND SUB PUSH2 0x430A JUMPI PUSH1 0x0 JUMPDEST DUP4 MLOAD DUP2 LT ISZERO PUSH2 0x4308 JUMPI DUP3 DUP2 DUP2 MLOAD DUP2 LT PUSH2 0x42AB JUMPI PUSH2 0x42AA PUSH2 0x6F21 JUMP JUMPDEST JUMPDEST PUSH1 0x20 MUL PUSH1 0x20 ADD ADD MLOAD PUSH2 0x12D PUSH1 0x0 DUP7 DUP5 DUP2 MLOAD DUP2 LT PUSH2 0x42CB JUMPI PUSH2 0x42CA PUSH2 0x6F21 JUMP JUMPDEST JUMPDEST PUSH1 0x20 MUL PUSH1 0x20 ADD ADD MLOAD DUP2 MSTORE PUSH1 0x20 ADD SWAP1 DUP2 MSTORE PUSH1 0x20 ADD PUSH1 0x0 KECCAK256 PUSH1 0x0 DUP3 DUP3 SLOAD PUSH2 0x42F0 SWAP2 SWAP1 PUSH2 0x88CB JUMP JUMPDEST SWAP3 POP POP DUP2 SWAP1 SSTORE POP DUP1 PUSH2 0x4301 SWAP1 PUSH2 0x6F7F JUMP JUMPDEST SWAP1 POP PUSH2 0x428F JUMP JUMPDEST POP JUMPDEST PUSH1 0x0 PUSH20 0xFFFFFFFFFFFFFFFFFFFFFFFFFFFFFFFFFFFFFFFF AND DUP5 PUSH20 0xFFFFFFFFFFFFFFFFFFFFFFFFFFFFFFFFFFFFFFFF AND SUB PUSH2 0x4415 JUMPI PUSH1 0x0 JUMPDEST DUP4 MLOAD DUP2 LT ISZERO PUSH2 0x4413 JUMPI PUSH1 0x0 DUP5 DUP3 DUP2 MLOAD DUP2 LT PUSH2 0x435F JUMPI PUSH2 0x435E PUSH2 0x6F21 JUMP JUMPDEST JUMPDEST PUSH1 0x20 MUL PUSH1 0x20 ADD ADD MLOAD SWAP1 POP PUSH1 0x0 DUP5 DUP4 DUP2 MLOAD DUP2 LT PUSH2 0x437E JUMPI PUSH2 0x437D PUSH2 0x6F21 JUMP JUMPDEST JUMPDEST PUSH1 0x20 MUL PUSH1 0x20 ADD ADD MLOAD SWAP1 POP PUSH1 0x0 PUSH2 0x12D PUSH1 0x0 DUP5 DUP2 MSTORE PUSH1 0x20 ADD SWAP1 DUP2 MSTORE PUSH1 0x20 ADD PUSH1 0x0 KECCAK256 SLOAD SWAP1 POP DUP2 DUP2 LT ISZERO PUSH2 0x43E4 JUMPI PUSH1 0x40 MLOAD PUSH32 0x8C379A000000000000000000000000000000000000000000000000000000000 DUP2 MSTORE PUSH1 0x4 ADD PUSH2 0x43DB SWAP1 PUSH2 0x9315 JUMP JUMPDEST PUSH1 0x40 MLOAD DUP1 SWAP2 SUB SWAP1 REVERT JUMPDEST DUP2 DUP2 SUB PUSH2 0x12D PUSH1 0x0 DUP6 DUP2 MSTORE PUSH1 0x20 ADD SWAP1 DUP2 MSTORE PUSH1 0x20 ADD PUSH1 0x0 KECCAK256 DUP2 SWAP1 SSTORE POP POP POP POP DUP1 PUSH2 0x440C SWAP1 PUSH2 0x6F7F JUMP JUMPDEST SWAP1 POP PUSH2 0x4341 JUMP JUMPDEST POP JUMPDEST POP POP POP POP POP POP JUMP JUMPDEST POP POP POP POP POP POP JUMP JUMPDEST PUSH1 0x0 PUSH1 0x40 MLOAD SWAP1 POP SWAP1 JUMP JUMPDEST PUSH1 0x0 DUP1 REVERT JUMPDEST PUSH1 0x0 DUP1 REVERT JUMPDEST PUSH1 0x0 PUSH20 0xFFFFFFFFFFFFFFFFFFFFFFFFFFFFFFFFFFFFFFFF DUP3 AND SWAP1 POP SWAP2 SWAP1 POP JUMP JUMPDEST PUSH1 0x0 PUSH2 0x4464 DUP3 PUSH2 0x4439 JUMP JUMPDEST SWAP1 POP SWAP2 SWAP1 POP JUMP JUMPDEST PUSH2 0x4474 DUP2 PUSH2 0x4459 JUMP JUMPDEST DUP2 EQ PUSH2 0x447F JUMPI PUSH1 0x0 DUP1 REVERT JUMPDEST POP JUMP JUMPDEST PUSH1 0x0 DUP2 CALLDATALOAD SWAP1 POP PUSH2 0x4491 DUP2 PUSH2 0x446B JUMP JUMPDEST SWAP3 SWAP2 POP POP JUMP JUMPDEST PUSH1 0x0 DUP2 SWAP1 POP SWAP2 SWAP1 POP JUMP JUMPDEST PUSH2 0x44AA DUP2 PUSH2 0x4497 JUMP JUMPDEST DUP2 EQ PUSH2 0x44B5 JUMPI PUSH1 0x0 DUP1 REVERT JUMPDEST POP JUMP JUMPDEST PUSH1 0x0 DUP2 CALLDATALOAD SWAP1 POP PUSH2 0x44C7 DUP2 PUSH2 0x44A1 JUMP JUMPDEST SWAP3 SWAP2 POP POP JUMP JUMPDEST PUSH1 0x0 DUP1 PUSH1 0x40 DUP4 DUP6 SUB SLT ISZERO PUSH2 0x44E4 JUMPI PUSH2 0x44E3 PUSH2 0x442F JUMP JUMPDEST JUMPDEST PUSH1 0x0 PUSH2 0x44F2 DUP6 DUP3 DUP7 ADD PUSH2 0x4482 JUMP JUMPDEST SWAP3 POP POP PUSH1 0x20 PUSH2 0x4503 DUP6 DUP3 DUP7 ADD PUSH2 0x44B8 JUMP JUMPDEST SWAP2 POP POP SWAP3 POP SWAP3 SWAP1 POP JUMP JUMPDEST PUSH2 0x4516 DUP2 PUSH2 0x4497 JUMP JUMPDEST DUP3 MSTORE POP POP JUMP JUMPDEST PUSH1 0x0 PUSH1 0x20 DUP3 ADD SWAP1 POP PUSH2 0x4531 PUSH1 0x0 DUP4 ADD DUP5 PUSH2 0x450D JUMP JUMPDEST SWAP3 SWAP2 POP POP JUMP JUMPDEST PUSH1 0x0 DUP1 REVERT JUMPDEST PUSH1 0x0 DUP1 REVERT JUMPDEST PUSH1 0x0 PUSH1 0x1F NOT PUSH1 0x1F DUP4 ADD AND SWAP1 POP SWAP2 SWAP1 POP JUMP JUMPDEST PUSH32 0x4E487B7100000000000000000000000000000000000000000000000000000000 PUSH1 0x0 MSTORE PUSH1 0x41 PUSH1 0x4 MSTORE PUSH1 0x24 PUSH1 0x0 REVERT JUMPDEST PUSH2 0x458A DUP3 PUSH2 0x4541 JUMP JUMPDEST DUP2 ADD DUP2 DUP2 LT PUSH8 0xFFFFFFFFFFFFFFFF DUP3 GT OR ISZERO PUSH2 0x45A9 JUMPI PUSH2 0x45A8 PUSH2 0x4552 JUMP JUMPDEST JUMPDEST DUP1 PUSH1 0x40 MSTORE POP POP POP JUMP JUMPDEST PUSH1 0x0 PUSH2 0x45BC PUSH2 0x4425 JUMP JUMPDEST SWAP1 POP PUSH2 0x45C8 DUP3 DUP3 PUSH2 0x4581 JUMP JUMPDEST SWAP2 SWAP1 POP JUMP JUMPDEST PUSH1 0x0 PUSH8 0xFFFFFFFFFFFFFFFF DUP3 GT ISZERO PUSH2 0x45E8 JUMPI PUSH2 0x45E7 PUSH2 0x4552 JUMP JUMPDEST JUMPDEST PUSH2 0x45F1 DUP3 PUSH2 0x4541 JUMP JUMPDEST SWAP1 POP PUSH1 0x20 DUP2 ADD SWAP1 POP SWAP2 SWAP1 POP JUMP JUMPDEST DUP3 DUP2 DUP4 CALLDATACOPY PUSH1 0x0 DUP4 DUP4 ADD MSTORE POP POP POP JUMP JUMPDEST PUSH1 0x0 PUSH2 0x4620 PUSH2 0x461B DUP5 PUSH2 0x45CD JUMP JUMPDEST PUSH2 0x45B2 JUMP JUMPDEST SWAP1 POP DUP3 DUP2 MSTORE PUSH1 0x20 DUP2 ADD DUP5 DUP5 DUP5 ADD GT ISZERO PUSH2 0x463C JUMPI PUSH2 0x463B PUSH2 0x453C JUMP JUMPDEST JUMPDEST PUSH2 0x4647 DUP5 DUP3 DUP6 PUSH2 0x45FE JUMP JUMPDEST POP SWAP4 SWAP3 POP POP POP JUMP JUMPDEST PUSH1 0x0 DUP3 PUSH1 0x1F DUP4 ADD SLT PUSH2 0x4664 JUMPI PUSH2 0x4663 PUSH2 0x4537 JUMP JUMPDEST JUMPDEST DUP2 CALLDATALOAD PUSH2 0x4674 DUP5 DUP3 PUSH1 0x20 DUP7 ADD PUSH2 0x460D JUMP JUMPDEST SWAP2 POP POP SWAP3 SWAP2 POP POP JUMP JUMPDEST PUSH1 0x0 DUP1 PUSH1 0x40 DUP4 DUP6 SUB SLT ISZERO PUSH2 0x4694 JUMPI PUSH2 0x4693 PUSH2 0x442F JUMP JUMPDEST JUMPDEST PUSH1 0x0 PUSH2 0x46A2 DUP6 DUP3 DUP7 ADD PUSH2 0x44B8 JUMP JUMPDEST SWAP3 POP POP PUSH1 0x20 DUP4 ADD CALLDATALOAD PUSH8 0xFFFFFFFFFFFFFFFF DUP2 GT ISZERO PUSH2 0x46C3 JUMPI PUSH2 0x46C2 PUSH2 0x4434 JUMP JUMPDEST JUMPDEST PUSH2 0x46CF DUP6 DUP3 DUP7 ADD PUSH2 0x464F JUMP JUMPDEST SWAP2 POP POP SWAP3 POP SWAP3 SWAP1 POP JUMP JUMPDEST PUSH1 0x0 PUSH32 0xFFFFFFFF00000000000000000000000000000000000000000000000000000000 DUP3 AND SWAP1 POP SWAP2 SWAP1 POP JUMP JUMPDEST PUSH2 0x470E DUP2 PUSH2 0x46D9 JUMP JUMPDEST DUP2 EQ PUSH2 0x4719 JUMPI PUSH1 0x0 DUP1 REVERT JUMPDEST POP JUMP JUMPDEST PUSH1 0x0 DUP2 CALLDATALOAD SWAP1 POP PUSH2 0x472B DUP2 PUSH2 0x4705 JUMP JUMPDEST SWAP3 SWAP2 POP POP JUMP JUMPDEST PUSH1 0x0 PUSH1 0x20 DUP3 DUP5 SUB SLT ISZERO PUSH2 0x4747 JUMPI PUSH2 0x4746 PUSH2 0x442F JUMP JUMPDEST JUMPDEST PUSH1 0x0 PUSH2 0x4755 DUP5 DUP3 DUP6 ADD PUSH2 0x471C JUMP JUMPDEST SWAP2 POP POP SWAP3 SWAP2 POP POP JUMP JUMPDEST PUSH1 0x0 DUP2 ISZERO ISZERO SWAP1 POP SWAP2 SWAP1 POP JUMP JUMPDEST PUSH2 0x4773 DUP2 PUSH2 0x475E JUMP JUMPDEST DUP3 MSTORE POP POP JUMP JUMPDEST PUSH1 0x0 PUSH1 0x20 DUP3 ADD SWAP1 POP PUSH2 0x478E PUSH1 0x0 DUP4 ADD DUP5 PUSH2 0x476A JUMP JUMPDEST SWAP3 SWAP2 POP POP JUMP JUMPDEST PUSH1 0x0 PUSH1 0x20 DUP3 DUP5 SUB SLT ISZERO PUSH2 0x47AA JUMPI PUSH2 0x47A9 PUSH2 0x442F JUMP JUMPDEST JUMPDEST PUSH1 0x0 DUP3 ADD CALLDATALOAD PUSH8 0xFFFFFFFFFFFFFFFF DUP2 GT ISZERO PUSH2 0x47C8 JUMPI PUSH2 0x47C7 PUSH2 0x4434 JUMP JUMPDEST JUMPDEST PUSH2 0x47D4 DUP5 DUP3 DUP6 ADD PUSH2 0x464F JUMP JUMPDEST SWAP2 POP POP SWAP3 SWAP2 POP POP JUMP JUMPDEST PUSH1 0x0 PUSH1 0x20 DUP3 DUP5 SUB SLT ISZERO PUSH2 0x47F3 JUMPI PUSH2 0x47F2 PUSH2 0x442F JUMP JUMPDEST JUMPDEST PUSH1 0x0 PUSH2 0x4801 DUP5 DUP3 DUP6 ADD PUSH2 0x44B8 JUMP JUMPDEST SWAP2 POP POP SWAP3 SWAP2 POP POP JUMP JUMPDEST PUSH1 0x0 DUP2 MLOAD SWAP1 POP SWAP2 SWAP1 POP JUMP JUMPDEST PUSH1 0x0 DUP3 DUP3 MSTORE PUSH1 0x20 DUP3 ADD SWAP1 POP SWAP3 SWAP2 POP POP JUMP JUMPDEST PUSH1 0x0 JUMPDEST DUP4 DUP2 LT ISZERO PUSH2 0x4844 JUMPI DUP1 DUP3 ADD MLOAD DUP2 DUP5 ADD MSTORE PUSH1 0x20 DUP2 ADD SWAP1 POP PUSH2 0x4829 JUMP JUMPDEST PUSH1 0x0 DUP5 DUP5 ADD MSTORE POP POP POP POP JUMP JUMPDEST PUSH1 0x0 PUSH2 0x485B DUP3 PUSH2 0x480A JUMP JUMPDEST PUSH2 0x4865 DUP2 DUP6 PUSH2 0x4815 JUMP JUMPDEST SWAP4 POP PUSH2 0x4875 DUP2 DUP6 PUSH1 0x20 DUP7 ADD PUSH2 0x4826 JUMP JUMPDEST PUSH2 0x487E DUP2 PUSH2 0x4541 JUMP JUMPDEST DUP5 ADD SWAP2 POP POP SWAP3 SWAP2 POP POP JUMP JUMPDEST PUSH1 0x0 PUSH1 0x20 DUP3 ADD SWAP1 POP DUP2 DUP2 SUB PUSH1 0x0 DUP4 ADD MSTORE PUSH2 0x48A3 DUP2 DUP5 PUSH2 0x4850 JUMP JUMPDEST SWAP1 POP SWAP3 SWAP2 POP POP JUMP JUMPDEST PUSH1 0x0 PUSH8 0xFFFFFFFFFFFFFFFF DUP3 GT ISZERO PUSH2 0x48C6 JUMPI PUSH2 0x48C5 PUSH2 0x4552 JUMP JUMPDEST JUMPDEST PUSH2 0x48CF DUP3 PUSH2 0x4541 JUMP JUMPDEST SWAP1 POP PUSH1 0x20 DUP2 ADD SWAP1 POP SWAP2 SWAP1 POP JUMP JUMPDEST PUSH1 0x0 PUSH2 0x48EF PUSH2 0x48EA DUP5 PUSH2 0x48AB JUMP JUMPDEST PUSH2 0x45B2 JUMP JUMPDEST SWAP1 POP DUP3 DUP2 MSTORE PUSH1 0x20 DUP2 ADD DUP5 DUP5 DUP5 ADD GT ISZERO PUSH2 0x490B JUMPI PUSH2 0x490A PUSH2 0x453C JUMP JUMPDEST JUMPDEST PUSH2 0x4916 DUP5 DUP3 DUP6 PUSH2 0x45FE JUMP JUMPDEST POP SWAP4 SWAP3 POP POP POP JUMP JUMPDEST PUSH1 0x0 DUP3 PUSH1 0x1F DUP4 ADD SLT PUSH2 0x4933 JUMPI PUSH2 0x4932 PUSH2 0x4537 JUMP JUMPDEST JUMPDEST DUP2 CALLDATALOAD PUSH2 0x4943 DUP5 DUP3 PUSH1 0x20 DUP7 ADD PUSH2 0x48DC JUMP JUMPDEST SWAP2 POP POP SWAP3 SWAP2 POP POP JUMP JUMPDEST PUSH1 0x0 DUP1 PUSH1 0x0 DUP1 PUSH1 0x0 PUSH1 0xA0 DUP7 DUP9 SUB SLT ISZERO PUSH2 0x4968 JUMPI PUSH2 0x4967 PUSH2 0x442F JUMP JUMPDEST JUMPDEST PUSH1 0x0 PUSH2 0x4976 DUP9 DUP3 DUP10 ADD PUSH2 0x4482 JUMP JUMPDEST SWAP6 POP POP PUSH1 0x20 PUSH2 0x4987 DUP9 DUP3 DUP10 ADD PUSH2 0x4482 JUMP JUMPDEST SWAP5 POP POP PUSH1 0x40 PUSH2 0x4998 DUP9 DUP3 DUP10 ADD PUSH2 0x44B8 JUMP JUMPDEST SWAP4 POP POP PUSH1 0x60 PUSH2 0x49A9 DUP9 DUP3 DUP10 ADD PUSH2 0x44B8 JUMP JUMPDEST SWAP3 POP POP PUSH1 0x80 DUP7 ADD CALLDATALOAD PUSH8 0xFFFFFFFFFFFFFFFF DUP2 GT ISZERO PUSH2 0x49CA JUMPI PUSH2 0x49C9 PUSH2 0x4434 JUMP JUMPDEST JUMPDEST PUSH2 0x49D6 DUP9 DUP3 DUP10 ADD PUSH2 0x491E JUMP JUMPDEST SWAP2 POP POP SWAP3 SWAP6 POP SWAP3 SWAP6 SWAP1 SWAP4 POP JUMP JUMPDEST PUSH1 0x0 DUP1 PUSH1 0x40 DUP4 DUP6 SUB SLT ISZERO PUSH2 0x49FA JUMPI PUSH2 0x49F9 PUSH2 0x442F JUMP JUMPDEST JUMPDEST PUSH1 0x0 DUP4 ADD CALLDATALOAD PUSH8 0xFFFFFFFFFFFFFFFF DUP2 GT ISZERO PUSH2 0x4A18 JUMPI PUSH2 0x4A17 PUSH2 0x4434 JUMP JUMPDEST JUMPDEST PUSH2 0x4A24 DUP6 DUP3 DUP7 ADD PUSH2 0x464F JUMP JUMPDEST SWAP3 POP POP PUSH1 0x20 PUSH2 0x4A35 DUP6 DUP3 DUP7 ADD PUSH2 0x4482 JUMP JUMPDEST SWAP2 POP POP SWAP3 POP SWAP3 SWAP1 POP JUMP JUMPDEST PUSH1 0x0 DUP1 REVERT JUMPDEST PUSH1 0x0 DUP1 REVERT JUMPDEST PUSH1 0x0 DUP1 DUP4 PUSH1 0x1F DUP5 ADD SLT PUSH2 0x4A5F JUMPI PUSH2 0x4A5E PUSH2 0x4537 JUMP JUMPDEST JUMPDEST DUP3 CALLDATALOAD SWAP1 POP PUSH8 0xFFFFFFFFFFFFFFFF DUP2 GT ISZERO PUSH2 0x4A7C JUMPI PUSH2 0x4A7B PUSH2 0x4A3F JUMP JUMPDEST JUMPDEST PUSH1 0x20 DUP4 ADD SWAP2 POP DUP4 PUSH1 0x20 DUP3 MUL DUP4 ADD GT ISZERO PUSH2 0x4A98 JUMPI PUSH2 0x4A97 PUSH2 0x4A44 JUMP JUMPDEST JUMPDEST SWAP3 POP SWAP3 SWAP1 POP JUMP JUMPDEST PUSH1 0x0 DUP1 DUP4 PUSH1 0x1F DUP5 ADD SLT PUSH2 0x4AB5 JUMPI PUSH2 0x4AB4 PUSH2 0x4537 JUMP JUMPDEST JUMPDEST DUP3 CALLDATALOAD SWAP1 POP PUSH8 0xFFFFFFFFFFFFFFFF DUP2 GT ISZERO PUSH2 0x4AD2 JUMPI PUSH2 0x4AD1 PUSH2 0x4A3F JUMP JUMPDEST JUMPDEST PUSH1 0x20 DUP4 ADD SWAP2 POP DUP4 PUSH1 0x20 DUP3 MUL DUP4 ADD GT ISZERO PUSH2 0x4AEE JUMPI PUSH2 0x4AED PUSH2 0x4A44 JUMP JUMPDEST JUMPDEST SWAP3 POP SWAP3 SWAP1 POP JUMP JUMPDEST PUSH1 0x0 DUP1 PUSH1 0x0 DUP1 PUSH1 0x40 DUP6 DUP8 SUB SLT ISZERO PUSH2 0x4B0F JUMPI PUSH2 0x4B0E PUSH2 0x442F JUMP JUMPDEST JUMPDEST PUSH1 0x0 DUP6 ADD CALLDATALOAD PUSH8 0xFFFFFFFFFFFFFFFF DUP2 GT ISZERO PUSH2 0x4B2D JUMPI PUSH2 0x4B2C PUSH2 0x4434 JUMP JUMPDEST JUMPDEST PUSH2 0x4B39 DUP8 DUP3 DUP9 ADD PUSH2 0x4A49 JUMP JUMPDEST SWAP5 POP SWAP5 POP POP PUSH1 0x20 DUP6 ADD CALLDATALOAD PUSH8 0xFFFFFFFFFFFFFFFF DUP2 GT ISZERO PUSH2 0x4B5C JUMPI PUSH2 0x4B5B PUSH2 0x4434 JUMP JUMPDEST JUMPDEST PUSH2 0x4B68 DUP8 DUP3 DUP9 ADD PUSH2 0x4A9F JUMP JUMPDEST SWAP3 POP SWAP3 POP POP SWAP3 SWAP6 SWAP2 SWAP5 POP SWAP3 POP JUMP JUMPDEST PUSH1 0x0 DUP2 MLOAD SWAP1 POP SWAP2 SWAP1 POP JUMP JUMPDEST PUSH1 0x0 DUP3 DUP3 MSTORE PUSH1 0x20 DUP3 ADD SWAP1 POP SWAP3 SWAP2 POP POP JUMP JUMPDEST PUSH1 0x0 DUP2 SWAP1 POP PUSH1 0x20 DUP3 ADD SWAP1 POP SWAP2 SWAP1 POP JUMP JUMPDEST PUSH32 0x4E487B7100000000000000000000000000000000000000000000000000000000 PUSH1 0x0 MSTORE PUSH1 0x21 PUSH1 0x4 MSTORE PUSH1 0x24 PUSH1 0x0 REVERT JUMPDEST PUSH1 0x6 DUP2 LT PUSH2 0x4BE2 JUMPI PUSH2 0x4BE1 PUSH2 0x4BA2 JUMP JUMPDEST JUMPDEST POP JUMP JUMPDEST PUSH1 0x0 DUP2 SWAP1 POP PUSH2 0x4BF3 DUP3 PUSH2 0x4BD1 JUMP JUMPDEST SWAP2 SWAP1 POP JUMP JUMPDEST PUSH1 0x0 PUSH2 0x4C03 DUP3 PUSH2 0x4BE5 JUMP JUMPDEST SWAP1 POP SWAP2 SWAP1 POP JUMP JUMPDEST PUSH2 0x4C13 DUP2 PUSH2 0x4BF8 JUMP JUMPDEST DUP3 MSTORE POP POP JUMP JUMPDEST PUSH2 0x4C22 DUP2 PUSH2 0x4459 JUMP JUMPDEST DUP3 MSTORE POP POP JUMP JUMPDEST PUSH2 0x4C31 DUP2 PUSH2 0x4497 JUMP JUMPDEST DUP3 MSTORE POP POP JUMP JUMPDEST PUSH1 0x0 PUSH2 0x4C42 DUP3 PUSH2 0x4439 JUMP JUMPDEST SWAP1 POP SWAP2 SWAP1 POP JUMP JUMPDEST PUSH2 0x4C52 DUP2 PUSH2 0x4C37 JUMP JUMPDEST DUP3 MSTORE POP POP JUMP JUMPDEST PUSH1 0xA0 DUP3 ADD PUSH1 0x0 DUP3 ADD MLOAD PUSH2 0x4C6E PUSH1 0x0 DUP6 ADD DUP3 PUSH2 0x4C0A JUMP JUMPDEST POP PUSH1 0x20 DUP3 ADD MLOAD PUSH2 0x4C81 PUSH1 0x20 DUP6 ADD DUP3 PUSH2 0x4C19 JUMP JUMPDEST POP PUSH1 0x40 DUP3 ADD MLOAD PUSH2 0x4C94 PUSH1 0x40 DUP6 ADD DUP3 PUSH2 0x4C28 JUMP JUMPDEST POP PUSH1 0x60 DUP3 ADD MLOAD PUSH2 0x4CA7 PUSH1 0x60 DUP6 ADD DUP3 PUSH2 0x4C28 JUMP JUMPDEST POP PUSH1 0x80 DUP3 ADD MLOAD PUSH2 0x4CBA PUSH1 0x80 DUP6 ADD DUP3 PUSH2 0x4C49 JUMP JUMPDEST POP POP POP POP JUMP JUMPDEST PUSH1 0x0 DUP2 SWAP1 POP SWAP2 SWAP1 POP JUMP JUMPDEST PUSH2 0x4CD3 DUP2 PUSH2 0x4CC0 JUMP JUMPDEST DUP3 MSTORE POP POP JUMP JUMPDEST PUSH1 0xE0 DUP3 ADD PUSH1 0x0 DUP3 ADD MLOAD PUSH2 0x4CEF PUSH1 0x0 DUP6 ADD DUP3 PUSH2 0x4C58 JUMP JUMPDEST POP PUSH1 0x20 DUP3 ADD MLOAD PUSH2 0x4D02 PUSH1 0xA0 DUP6 ADD DUP3 PUSH2 0x4C19 JUMP JUMPDEST POP PUSH1 0x40 DUP3 ADD MLOAD PUSH2 0x4D15 PUSH1 0xC0 DUP6 ADD DUP3 PUSH2 0x4CCA JUMP JUMPDEST POP POP POP POP JUMP JUMPDEST PUSH1 0x0 PUSH2 0x4D27 DUP4 DUP4 PUSH2 0x4CD9 JUMP JUMPDEST PUSH1 0xE0 DUP4 ADD SWAP1 POP SWAP3 SWAP2 POP POP JUMP JUMPDEST PUSH1 0x0 PUSH1 0x20 DUP3 ADD SWAP1 POP SWAP2 SWAP1 POP JUMP JUMPDEST PUSH1 0x0 PUSH2 0x4D4B DUP3 PUSH2 0x4B76 JUMP JUMPDEST PUSH2 0x4D55 DUP2 DUP6 PUSH2 0x4B81 JUMP JUMPDEST SWAP4 POP PUSH2 0x4D60 DUP4 PUSH2 0x4B92 JUMP JUMPDEST DUP1 PUSH1 0x0 JUMPDEST DUP4 DUP2 LT ISZERO PUSH2 0x4D91 JUMPI DUP2 MLOAD PUSH2 0x4D78 DUP9 DUP3 PUSH2 0x4D1B JUMP JUMPDEST SWAP8 POP PUSH2 0x4D83 DUP4 PUSH2 0x4D33 JUMP JUMPDEST SWAP3 POP POP PUSH1 0x1 DUP2 ADD SWAP1 POP PUSH2 0x4D64 JUMP JUMPDEST POP DUP6 SWAP4 POP POP POP POP SWAP3 SWAP2 POP POP JUMP JUMPDEST PUSH1 0x0 PUSH1 0x20 DUP3 ADD SWAP1 POP DUP2 DUP2 SUB PUSH1 0x0 DUP4 ADD MSTORE PUSH2 0x4DB8 DUP2 DUP5 PUSH2 0x4D40 JUMP JUMPDEST SWAP1 POP SWAP3 SWAP2 POP POP JUMP JUMPDEST PUSH1 0x0 PUSH8 0xFFFFFFFFFFFFFFFF DUP3 GT ISZERO PUSH2 0x4DDB JUMPI PUSH2 0x4DDA PUSH2 0x4552 JUMP JUMPDEST JUMPDEST PUSH1 0x20 DUP3 MUL SWAP1 POP PUSH1 0x20 DUP2 ADD SWAP1 POP SWAP2 SWAP1 POP JUMP JUMPDEST PUSH1 0x0 PUSH2 0x4DFF PUSH2 0x4DFA DUP5 PUSH2 0x4DC0 JUMP JUMPDEST PUSH2 0x45B2 JUMP JUMPDEST SWAP1 POP DUP1 DUP4 DUP3 MSTORE PUSH1 0x20 DUP3 ADD SWAP1 POP PUSH1 0x20 DUP5 MUL DUP4 ADD DUP6 DUP2 GT ISZERO PUSH2 0x4E22 JUMPI PUSH2 0x4E21 PUSH2 0x4A44 JUMP JUMPDEST JUMPDEST DUP4 JUMPDEST DUP2 DUP2 LT ISZERO PUSH2 0x4E4B JUMPI DUP1 PUSH2 0x4E37 DUP9 DUP3 PUSH2 0x44B8 JUMP JUMPDEST DUP5 MSTORE PUSH1 0x20 DUP5 ADD SWAP4 POP POP PUSH1 0x20 DUP2 ADD SWAP1 POP PUSH2 0x4E24 JUMP JUMPDEST POP POP POP SWAP4 SWAP3 POP POP POP JUMP JUMPDEST PUSH1 0x0 DUP3 PUSH1 0x1F DUP4 ADD SLT PUSH2 0x4E6A JUMPI PUSH2 0x4E69 PUSH2 0x4537 JUMP JUMPDEST JUMPDEST DUP2 CALLDATALOAD PUSH2 0x4E7A DUP5 DUP3 PUSH1 0x20 DUP7 ADD PUSH2 0x4DEC JUMP JUMPDEST SWAP2 POP POP SWAP3 SWAP2 POP POP JUMP JUMPDEST PUSH1 0x0 DUP1 PUSH1 0x0 DUP1 PUSH1 0x80 DUP6 DUP8 SUB SLT ISZERO PUSH2 0x4E9D JUMPI PUSH2 0x4E9C PUSH2 0x442F JUMP JUMPDEST JUMPDEST PUSH1 0x0 PUSH2 0x4EAB DUP8 DUP3 DUP9 ADD PUSH2 0x4482 JUMP JUMPDEST SWAP5 POP POP PUSH1 0x20 DUP6 ADD CALLDATALOAD PUSH8 0xFFFFFFFFFFFFFFFF DUP2 GT ISZERO PUSH2 0x4ECC JUMPI PUSH2 0x4ECB PUSH2 0x4434 JUMP JUMPDEST JUMPDEST PUSH2 0x4ED8 DUP8 DUP3 DUP9 ADD PUSH2 0x4E55 JUMP JUMPDEST SWAP4 POP POP PUSH1 0x40 DUP6 ADD CALLDATALOAD PUSH8 0xFFFFFFFFFFFFFFFF DUP2 GT ISZERO PUSH2 0x4EF9 JUMPI PUSH2 0x4EF8 PUSH2 0x4434 JUMP JUMPDEST JUMPDEST PUSH2 0x4F05 DUP8 DUP3 DUP9 ADD PUSH2 0x4E55 JUMP JUMPDEST SWAP3 POP POP PUSH1 0x60 DUP6 ADD CALLDATALOAD PUSH8 0xFFFFFFFFFFFFFFFF DUP2 GT ISZERO PUSH2 0x4F26 JUMPI PUSH2 0x4F25 PUSH2 0x4434 JUMP JUMPDEST JUMPDEST PUSH2 0x4F32 DUP8 DUP3 DUP9 ADD PUSH2 0x491E JUMP JUMPDEST SWAP2 POP POP SWAP3 SWAP6 SWAP2 SWAP5 POP SWAP3 POP JUMP JUMPDEST PUSH2 0x4F47 DUP2 PUSH2 0x4CC0 JUMP JUMPDEST DUP2 EQ PUSH2 0x4F52 JUMPI PUSH1 0x0 DUP1 REVERT JUMPDEST POP JUMP JUMPDEST PUSH1 0x0 DUP2 CALLDATALOAD SWAP1 POP PUSH2 0x4F64 DUP2 PUSH2 0x4F3E JUMP JUMPDEST SWAP3 SWAP2 POP POP JUMP JUMPDEST PUSH1 0x0 PUSH1 0x20 DUP3 DUP5 SUB SLT ISZERO PUSH2 0x4F80 JUMPI PUSH2 0x4F7F PUSH2 0x442F JUMP JUMPDEST JUMPDEST PUSH1 0x0 PUSH2 0x4F8E DUP5 DUP3 DUP6 ADD PUSH2 0x4F55 JUMP JUMPDEST SWAP2 POP POP SWAP3 SWAP2 POP POP JUMP JUMPDEST PUSH2 0x4FA0 DUP2 PUSH2 0x4CC0 JUMP JUMPDEST DUP3 MSTORE POP POP JUMP JUMPDEST PUSH1 0x0 PUSH1 0x20 DUP3 ADD SWAP1 POP PUSH2 0x4FBB PUSH1 0x0 DUP4 ADD DUP5 PUSH2 0x4F97 JUMP JUMPDEST SWAP3 SWAP2 POP POP JUMP JUMPDEST PUSH1 0x0 DUP1 PUSH1 0x0 DUP1 PUSH1 0x0 PUSH1 0xA0 DUP7 DUP9 SUB SLT ISZERO PUSH2 0x4FDD JUMPI PUSH2 0x4FDC PUSH2 0x442F JUMP JUMPDEST JUMPDEST PUSH1 0x0 PUSH2 0x4FEB DUP9 DUP3 DUP10 ADD PUSH2 0x4482 JUMP JUMPDEST SWAP6 POP POP PUSH1 0x20 PUSH2 0x4FFC DUP9 DUP3 DUP10 ADD PUSH2 0x4482 JUMP JUMPDEST SWAP5 POP POP PUSH1 0x40 DUP7 ADD CALLDATALOAD PUSH8 0xFFFFFFFFFFFFFFFF DUP2 GT ISZERO PUSH2 0x501D JUMPI PUSH2 0x501C PUSH2 0x4434 JUMP JUMPDEST JUMPDEST PUSH2 0x5029 DUP9 DUP3 DUP10 ADD PUSH2 0x4E55 JUMP JUMPDEST SWAP4 POP POP PUSH1 0x60 DUP7 ADD CALLDATALOAD PUSH8 0xFFFFFFFFFFFFFFFF DUP2 GT ISZERO PUSH2 0x504A JUMPI PUSH2 0x5049 PUSH2 0x4434 JUMP JUMPDEST JUMPDEST PUSH2 0x5056 DUP9 DUP3 DUP10 ADD PUSH2 0x4E55 JUMP JUMPDEST SWAP3 POP POP PUSH1 0x80 DUP7 ADD CALLDATALOAD PUSH8 0xFFFFFFFFFFFFFFFF DUP2 GT ISZERO PUSH2 0x5077 JUMPI PUSH2 0x5076 PUSH2 0x4434 JUMP JUMPDEST JUMPDEST PUSH2 0x5083 DUP9 DUP3 DUP10 ADD PUSH2 0x491E JUMP JUMPDEST SWAP2 POP POP SWAP3 SWAP6 POP SWAP3 SWAP6 SWAP1 SWAP4 POP JUMP JUMPDEST PUSH1 0x0 DUP1 PUSH1 0x40 DUP4 DUP6 SUB SLT ISZERO PUSH2 0x50A7 JUMPI PUSH2 0x50A6 PUSH2 0x442F JUMP JUMPDEST JUMPDEST PUSH1 0x0 PUSH2 0x50B5 DUP6 DUP3 DUP7 ADD PUSH2 0x4F55 JUMP JUMPDEST SWAP3 POP POP PUSH1 0x20 PUSH2 0x50C6 DUP6 DUP3 DUP7 ADD PUSH2 0x4482 JUMP JUMPDEST SWAP2 POP POP SWAP3 POP SWAP3 SWAP1 POP JUMP JUMPDEST PUSH1 0x0 DUP1 DUP4 PUSH1 0x1F DUP5 ADD SLT PUSH2 0x50E6 JUMPI PUSH2 0x50E5 PUSH2 0x4537 JUMP JUMPDEST JUMPDEST DUP3 CALLDATALOAD SWAP1 POP PUSH8 0xFFFFFFFFFFFFFFFF DUP2 GT ISZERO PUSH2 0x5103 JUMPI PUSH2 0x5102 PUSH2 0x4A3F JUMP JUMPDEST JUMPDEST PUSH1 0x20 DUP4 ADD SWAP2 POP DUP4 PUSH1 0x20 DUP3 MUL DUP4 ADD GT ISZERO PUSH2 0x511F JUMPI PUSH2 0x511E PUSH2 0x4A44 JUMP JUMPDEST JUMPDEST SWAP3 POP SWAP3 SWAP1 POP JUMP JUMPDEST PUSH1 0x0 DUP1 PUSH1 0x0 DUP1 PUSH1 0x0 DUP1 PUSH1 0x0 DUP1 PUSH1 0xA0 DUP10 DUP12 SUB SLT ISZERO PUSH2 0x5146 JUMPI PUSH2 0x5145 PUSH2 0x442F JUMP JUMPDEST JUMPDEST PUSH1 0x0 DUP10 ADD CALLDATALOAD PUSH8 0xFFFFFFFFFFFFFFFF DUP2 GT ISZERO PUSH2 0x5164 JUMPI PUSH2 0x5163 PUSH2 0x4434 JUMP JUMPDEST JUMPDEST PUSH2 0x5170 DUP12 DUP3 DUP13 ADD PUSH2 0x4A49 JUMP JUMPDEST SWAP9 POP SWAP9 POP POP PUSH1 0x20 DUP10 ADD CALLDATALOAD PUSH8 0xFFFFFFFFFFFFFFFF DUP2 GT ISZERO PUSH2 0x5193 JUMPI PUSH2 0x5192 PUSH2 0x4434 JUMP JUMPDEST JUMPDEST PUSH2 0x519F DUP12 DUP3 DUP13 ADD PUSH2 0x50D0 JUMP JUMPDEST SWAP7 POP SWAP7 POP POP PUSH1 0x40 DUP10 ADD CALLDATALOAD PUSH8 0xFFFFFFFFFFFFFFFF DUP2 GT ISZERO PUSH2 0x51C2 JUMPI PUSH2 0x51C1 PUSH2 0x4434 JUMP JUMPDEST JUMPDEST PUSH2 0x51CE DUP12 DUP3 DUP13 ADD PUSH2 0x50D0 JUMP JUMPDEST SWAP5 POP SWAP5 POP POP PUSH1 0x60 PUSH2 0x51E1 DUP12 DUP3 DUP13 ADD PUSH2 0x4F55 JUMP JUMPDEST SWAP3 POP POP PUSH1 0x80 PUSH2 0x51F2 DUP12 DUP3 DUP13 ADD PUSH2 0x44B8 JUMP JUMPDEST SWAP2 POP POP SWAP3 SWAP6 SWAP9 POP SWAP3 SWAP6 SWAP9 SWAP1 SWAP4 SWAP7 POP JUMP JUMPDEST PUSH1 0x0 DUP2 MLOAD SWAP1 POP SWAP2 SWAP1 POP JUMP JUMPDEST PUSH1 0x0 DUP3 DUP3 MSTORE PUSH1 0x20 DUP3 ADD SWAP1 POP SWAP3 SWAP2 POP POP JUMP JUMPDEST PUSH1 0x0 DUP2 SWAP1 POP PUSH1 0x20 DUP3 ADD SWAP1 POP SWAP2 SWAP1 POP JUMP JUMPDEST PUSH2 0x5237 DUP2 PUSH2 0x475E JUMP JUMPDEST DUP3 MSTORE POP POP JUMP JUMPDEST PUSH1 0x0 PUSH2 0x5249 DUP4 DUP4 PUSH2 0x522E JUMP JUMPDEST PUSH1 0x20 DUP4 ADD SWAP1 POP SWAP3 SWAP2 POP POP JUMP JUMPDEST PUSH1 0x0 PUSH1 0x20 DUP3 ADD SWAP1 POP SWAP2 SWAP1 POP JUMP JUMPDEST PUSH1 0x0 PUSH2 0x526D DUP3 PUSH2 0x5202 JUMP JUMPDEST PUSH2 0x5277 DUP2 DUP6 PUSH2 0x520D JUMP JUMPDEST SWAP4 POP PUSH2 0x5282 DUP4 PUSH2 0x521E JUMP JUMPDEST DUP1 PUSH1 0x0 JUMPDEST DUP4 DUP2 LT ISZERO PUSH2 0x52B3 JUMPI DUP2 MLOAD PUSH2 0x529A DUP9 DUP3 PUSH2 0x523D JUMP JUMPDEST SWAP8 POP PUSH2 0x52A5 DUP4 PUSH2 0x5255 JUMP JUMPDEST SWAP3 POP POP PUSH1 0x1 DUP2 ADD SWAP1 POP PUSH2 0x5286 JUMP JUMPDEST POP DUP6 SWAP4 POP POP POP POP SWAP3 SWAP2 POP POP JUMP JUMPDEST PUSH1 0x0 PUSH1 0x40 DUP3 ADD SWAP1 POP DUP2 DUP2 SUB PUSH1 0x0 DUP4 ADD MSTORE PUSH2 0x52DA DUP2 DUP6 PUSH2 0x5262 JUMP JUMPDEST SWAP1 POP DUP2 DUP2 SUB PUSH1 0x20 DUP4 ADD MSTORE PUSH2 0x52EE DUP2 DUP5 PUSH2 0x4D40 JUMP JUMPDEST SWAP1 POP SWAP4 SWAP3 POP POP POP JUMP JUMPDEST PUSH1 0x0 PUSH8 0xFFFFFFFFFFFFFFFF DUP3 GT ISZERO PUSH2 0x5312 JUMPI PUSH2 0x5311 PUSH2 0x4552 JUMP JUMPDEST JUMPDEST PUSH1 0x20 DUP3 MUL SWAP1 POP PUSH1 0x20 DUP2 ADD SWAP1 POP SWAP2 SWAP1 POP JUMP JUMPDEST PUSH1 0x0 PUSH2 0x5336 PUSH2 0x5331 DUP5 PUSH2 0x52F7 JUMP JUMPDEST PUSH2 0x45B2 JUMP JUMPDEST SWAP1 POP DUP1 DUP4 DUP3 MSTORE PUSH1 0x20 DUP3 ADD SWAP1 POP PUSH1 0x20 DUP5 MUL DUP4 ADD DUP6 DUP2 GT ISZERO PUSH2 0x5359 JUMPI PUSH2 0x5358 PUSH2 0x4A44 JUMP JUMPDEST JUMPDEST DUP4 JUMPDEST DUP2 DUP2 LT ISZERO PUSH2 0x5382 JUMPI DUP1 PUSH2 0x536E DUP9 DUP3 PUSH2 0x4482 JUMP JUMPDEST DUP5 MSTORE PUSH1 0x20 DUP5 ADD SWAP4 POP POP PUSH1 0x20 DUP2 ADD SWAP1 POP PUSH2 0x535B JUMP JUMPDEST POP POP POP SWAP4 SWAP3 POP POP POP JUMP JUMPDEST PUSH1 0x0 DUP3 PUSH1 0x1F DUP4 ADD SLT PUSH2 0x53A1 JUMPI PUSH2 0x53A0 PUSH2 0x4537 JUMP JUMPDEST JUMPDEST DUP2 CALLDATALOAD PUSH2 0x53B1 DUP5 DUP3 PUSH1 0x20 DUP7 ADD PUSH2 0x5323 JUMP JUMPDEST SWAP2 POP POP SWAP3 SWAP2 POP POP JUMP JUMPDEST PUSH1 0x0 DUP1 PUSH1 0x40 DUP4 DUP6 SUB SLT ISZERO PUSH2 0x53D1 JUMPI PUSH2 0x53D0 PUSH2 0x442F JUMP JUMPDEST JUMPDEST PUSH1 0x0 DUP4 ADD CALLDATALOAD PUSH8 0xFFFFFFFFFFFFFFFF DUP2 GT ISZERO PUSH2 0x53EF JUMPI PUSH2 0x53EE PUSH2 0x4434 JUMP JUMPDEST JUMPDEST PUSH2 0x53FB DUP6 DUP3 DUP7 ADD PUSH2 0x538C JUMP JUMPDEST SWAP3 POP POP PUSH1 0x20 DUP4 ADD CALLDATALOAD PUSH8 0xFFFFFFFFFFFFFFFF DUP2 GT ISZERO PUSH2 0x541C JUMPI PUSH2 0x541B PUSH2 0x4434 JUMP JUMPDEST JUMPDEST PUSH2 0x5428 DUP6 DUP3 DUP7 ADD PUSH2 0x4E55 JUMP JUMPDEST SWAP2 POP POP SWAP3 POP SWAP3 SWAP1 POP JUMP JUMPDEST PUSH1 0x0 DUP2 MLOAD SWAP1 POP SWAP2 SWAP1 POP JUMP JUMPDEST PUSH1 0x0 DUP3 DUP3 MSTORE PUSH1 0x20 DUP3 ADD SWAP1 POP SWAP3 SWAP2 POP POP JUMP JUMPDEST PUSH1 0x0 DUP2 SWAP1 POP PUSH1 0x20 DUP3 ADD SWAP1 POP SWAP2 SWAP1 POP JUMP JUMPDEST PUSH1 0x0 PUSH2 0x546A DUP4 DUP4 PUSH2 0x4C28 JUMP JUMPDEST PUSH1 0x20 DUP4 ADD SWAP1 POP SWAP3 SWAP2 POP POP JUMP JUMPDEST PUSH1 0x0 PUSH1 0x20 DUP3 ADD SWAP1 POP SWAP2 SWAP1 POP JUMP JUMPDEST PUSH1 0x0 PUSH2 0x548E DUP3 PUSH2 0x5432 JUMP JUMPDEST PUSH2 0x5498 DUP2 DUP6 PUSH2 0x543D JUMP JUMPDEST SWAP4 POP PUSH2 0x54A3 DUP4 PUSH2 0x544E JUMP JUMPDEST DUP1 PUSH1 0x0 JUMPDEST DUP4 DUP2 LT ISZERO PUSH2 0x54D4 JUMPI DUP2 MLOAD PUSH2 0x54BB DUP9 DUP3 PUSH2 0x545E JUMP JUMPDEST SWAP8 POP PUSH2 0x54C6 DUP4 PUSH2 0x5476 JUMP JUMPDEST SWAP3 POP POP PUSH1 0x1 DUP2 ADD SWAP1 POP PUSH2 0x54A7 JUMP JUMPDEST POP DUP6 SWAP4 POP POP POP POP SWAP3 SWAP2 POP POP JUMP JUMPDEST PUSH1 0x0 PUSH1 0x20 DUP3 ADD SWAP1 POP DUP2 DUP2 SUB PUSH1 0x0 DUP4 ADD MSTORE PUSH2 0x54FB DUP2 DUP5 PUSH2 0x5483 JUMP JUMPDEST SWAP1 POP SWAP3 SWAP2 POP POP JUMP JUMPDEST PUSH1 0x0 DUP1 DUP4 PUSH1 0x1F DUP5 ADD SLT PUSH2 0x5519 JUMPI PUSH2 0x5518 PUSH2 0x4537 JUMP JUMPDEST JUMPDEST DUP3 CALLDATALOAD SWAP1 POP PUSH8 0xFFFFFFFFFFFFFFFF DUP2 GT ISZERO PUSH2 0x5536 JUMPI PUSH2 0x5535 PUSH2 0x4A3F JUMP JUMPDEST JUMPDEST PUSH1 0x20 DUP4 ADD SWAP2 POP DUP4 PUSH1 0x20 DUP3 MUL DUP4 ADD GT ISZERO PUSH2 0x5552 JUMPI PUSH2 0x5551 PUSH2 0x4A44 JUMP JUMPDEST JUMPDEST SWAP3 POP SWAP3 SWAP1 POP JUMP JUMPDEST PUSH1 0x0 DUP1 DUP4 PUSH1 0x1F DUP5 ADD SLT PUSH2 0x556F JUMPI PUSH2 0x556E PUSH2 0x4537 JUMP JUMPDEST JUMPDEST DUP3 CALLDATALOAD SWAP1 POP PUSH8 0xFFFFFFFFFFFFFFFF DUP2 GT ISZERO PUSH2 0x558C JUMPI PUSH2 0x558B PUSH2 0x4A3F JUMP JUMPDEST JUMPDEST PUSH1 0x20 DUP4 ADD SWAP2 POP DUP4 PUSH1 0x20 DUP3 MUL DUP4 ADD GT ISZERO PUSH2 0x55A8 JUMPI PUSH2 0x55A7 PUSH2 0x4A44 JUMP JUMPDEST JUMPDEST SWAP3 POP SWAP3 SWAP1 POP JUMP JUMPDEST PUSH1 0x0 DUP1 PUSH1 0x0 DUP1 PUSH1 0x0 DUP1 PUSH1 0x0 DUP1 PUSH1 0x0 DUP1 PUSH1 0x0 PUSH1 0xE0 DUP13 DUP15 SUB SLT ISZERO PUSH2 0x55D4 JUMPI PUSH2 0x55D3 PUSH2 0x442F JUMP JUMPDEST JUMPDEST PUSH1 0x0 DUP13 ADD CALLDATALOAD PUSH8 0xFFFFFFFFFFFFFFFF DUP2 GT ISZERO PUSH2 0x55F2 JUMPI PUSH2 0x55F1 PUSH2 0x4434 JUMP JUMPDEST JUMPDEST PUSH2 0x55FE DUP15 DUP3 DUP16 ADD PUSH2 0x5503 JUMP JUMPDEST SWAP12 POP SWAP12 POP POP PUSH1 0x20 DUP13 ADD CALLDATALOAD PUSH8 0xFFFFFFFFFFFFFFFF DUP2 GT ISZERO PUSH2 0x5621 JUMPI PUSH2 0x5620 PUSH2 0x4434 JUMP JUMPDEST JUMPDEST PUSH2 0x562D DUP15 DUP3 DUP16 ADD PUSH2 0x5559 JUMP JUMPDEST SWAP10 POP SWAP10 POP POP PUSH1 0x40 DUP13 ADD CALLDATALOAD PUSH8 0xFFFFFFFFFFFFFFFF DUP2 GT ISZERO PUSH2 0x5650 JUMPI PUSH2 0x564F PUSH2 0x4434 JUMP JUMPDEST JUMPDEST PUSH2 0x565C DUP15 DUP3 DUP16 ADD PUSH2 0x50D0 JUMP JUMPDEST SWAP8 POP SWAP8 POP POP PUSH1 0x60 DUP13 ADD CALLDATALOAD PUSH8 0xFFFFFFFFFFFFFFFF DUP2 GT ISZERO PUSH2 0x567F JUMPI PUSH2 0x567E PUSH2 0x4434 JUMP JUMPDEST JUMPDEST PUSH2 0x568B DUP15 DUP3 DUP16 ADD PUSH2 0x50D0 JUMP JUMPDEST SWAP6 POP SWAP6 POP POP PUSH1 0x80 PUSH2 0x569E DUP15 DUP3 DUP16 ADD PUSH2 0x4F55 JUMP JUMPDEST SWAP4 POP POP PUSH1 0xA0 PUSH2 0x56AF DUP15 DUP3 DUP16 ADD PUSH2 0x4482 JUMP JUMPDEST SWAP3 POP POP PUSH1 0xC0 PUSH2 0x56C0 DUP15 DUP3 DUP16 ADD PUSH2 0x44B8 JUMP JUMPDEST SWAP2 POP POP SWAP3 SWAP6 SWAP9 SWAP12 POP SWAP3 SWAP6 SWAP9 SWAP12 SWAP1 SWAP4 SWAP7 SWAP10 POP JUMP JUMPDEST PUSH1 0x0 PUSH1 0x80 DUP3 ADD SWAP1 POP PUSH2 0x56E8 PUSH1 0x0 DUP4 ADD DUP8 PUSH2 0x476A JUMP JUMPDEST PUSH2 0x56F5 PUSH1 0x20 DUP4 ADD DUP7 PUSH2 0x476A JUMP JUMPDEST PUSH2 0x5702 PUSH1 0x40 DUP4 ADD DUP6 PUSH2 0x450D JUMP JUMPDEST PUSH2 0x570F PUSH1 0x60 DUP4 ADD DUP5 PUSH2 0x450D JUMP JUMPDEST SWAP6 SWAP5 POP POP POP POP POP JUMP JUMPDEST PUSH1 0x0 DUP1 PUSH1 0x0 PUSH1 0x60 DUP5 DUP7 SUB SLT ISZERO PUSH2 0x5731 JUMPI PUSH2 0x5730 PUSH2 0x442F JUMP JUMPDEST JUMPDEST PUSH1 0x0 PUSH2 0x573F DUP7 DUP3 DUP8 ADD PUSH2 0x4482 JUMP JUMPDEST SWAP4 POP POP PUSH1 0x20 DUP5 ADD CALLDATALOAD PUSH8 0xFFFFFFFFFFFFFFFF DUP2 GT ISZERO PUSH2 0x5760 JUMPI PUSH2 0x575F PUSH2 0x4434 JUMP JUMPDEST JUMPDEST PUSH2 0x576C DUP7 DUP3 DUP8 ADD PUSH2 0x4E55 JUMP JUMPDEST SWAP3 POP POP PUSH1 0x40 DUP5 ADD CALLDATALOAD PUSH8 0xFFFFFFFFFFFFFFFF DUP2 GT ISZERO PUSH2 0x578D JUMPI PUSH2 0x578C PUSH2 0x4434 JUMP JUMPDEST JUMPDEST PUSH2 0x5799 DUP7 DUP3 DUP8 ADD PUSH2 0x4E55 JUMP JUMPDEST SWAP2 POP POP SWAP3 POP SWAP3 POP SWAP3 JUMP JUMPDEST PUSH1 0x0 DUP1 PUSH1 0x0 DUP1 PUSH1 0x80 DUP6 DUP8 SUB SLT ISZERO PUSH2 0x57BD JUMPI PUSH2 0x57BC PUSH2 0x442F JUMP JUMPDEST JUMPDEST PUSH1 0x0 PUSH2 0x57CB DUP8 DUP3 DUP9 ADD PUSH2 0x4482 JUMP JUMPDEST SWAP5 POP POP PUSH1 0x20 PUSH2 0x57DC DUP8 DUP3 DUP9 ADD PUSH2 0x44B8 JUMP JUMPDEST SWAP4 POP POP PUSH1 0x40 PUSH2 0x57ED DUP8 DUP3 DUP9 ADD PUSH2 0x44B8 JUMP JUMPDEST SWAP3 POP POP PUSH1 0x60 DUP6 ADD CALLDATALOAD PUSH8 0xFFFFFFFFFFFFFFFF DUP2 GT ISZERO PUSH2 0x580E JUMPI PUSH2 0x580D PUSH2 0x4434 JUMP JUMPDEST JUMPDEST PUSH2 0x581A DUP8 DUP3 DUP9 ADD PUSH2 0x491E JUMP JUMPDEST SWAP2 POP POP SWAP3 SWAP6 SWAP2 SWAP5 POP SWAP3 POP JUMP JUMPDEST PUSH1 0x0 DUP1 PUSH1 0x20 DUP4 DUP6 SUB SLT ISZERO PUSH2 0x583D JUMPI PUSH2 0x583C PUSH2 0x442F JUMP JUMPDEST JUMPDEST PUSH1 0x0 DUP4 ADD CALLDATALOAD PUSH8 0xFFFFFFFFFFFFFFFF DUP2 GT ISZERO PUSH2 0x585B JUMPI PUSH2 0x585A PUSH2 0x4434 JUMP JUMPDEST JUMPDEST PUSH2 0x5867 DUP6 DUP3 DUP7 ADD PUSH2 0x4A49 JUMP JUMPDEST SWAP3 POP SWAP3 POP POP SWAP3 POP SWAP3 SWAP1 POP JUMP JUMPDEST PUSH1 0x0 DUP1 REVERT JUMPDEST PUSH1 0x0 PUSH1 0xA0 DUP3 DUP5 SUB SLT ISZERO PUSH2 0x588E JUMPI PUSH2 0x588D PUSH2 0x5873 JUMP JUMPDEST JUMPDEST DUP2 SWAP1 POP SWAP3 SWAP2 POP POP JUMP JUMPDEST PUSH1 0x0 DUP1 PUSH1 0x0 DUP1 PUSH1 0x0 PUSH1 0x80 DUP7 DUP9 SUB SLT ISZERO PUSH2 0x58B3 JUMPI PUSH2 0x58B2 PUSH2 0x442F JUMP JUMPDEST JUMPDEST PUSH1 0x0 DUP7 ADD CALLDATALOAD PUSH8 0xFFFFFFFFFFFFFFFF DUP2 GT ISZERO PUSH2 0x58D1 JUMPI PUSH2 0x58D0 PUSH2 0x4434 JUMP JUMPDEST JUMPDEST PUSH2 0x58DD DUP9 DUP3 DUP10 ADD PUSH2 0x5878 JUMP JUMPDEST SWAP6 POP POP PUSH1 0x20 DUP7 ADD CALLDATALOAD PUSH8 0xFFFFFFFFFFFFFFFF DUP2 GT ISZERO PUSH2 0x58FE JUMPI PUSH2 0x58FD PUSH2 0x4434 JUMP JUMPDEST JUMPDEST PUSH2 0x590A DUP9 DUP3 DUP10 ADD PUSH2 0x5559 JUMP JUMPDEST SWAP5 POP SWAP5 POP POP PUSH1 0x40 PUSH2 0x591D DUP9 DUP3 DUP10 ADD PUSH2 0x4F55 JUMP JUMPDEST SWAP3 POP POP PUSH1 0x60 PUSH2 0x592E DUP9 DUP3 DUP10 ADD PUSH2 0x4482 JUMP JUMPDEST SWAP2 POP POP SWAP3 SWAP6 POP SWAP3 SWAP6 SWAP1 SWAP4 POP JUMP JUMPDEST PUSH2 0x5944 DUP2 PUSH2 0x475E JUMP JUMPDEST DUP2 EQ PUSH2 0x594F JUMPI PUSH1 0x0 DUP1 REVERT JUMPDEST POP JUMP JUMPDEST PUSH1 0x0 DUP2 CALLDATALOAD SWAP1 POP PUSH2 0x5961 DUP2 PUSH2 0x593B JUMP JUMPDEST SWAP3 SWAP2 POP POP JUMP JUMPDEST PUSH1 0x0 DUP1 PUSH1 0x40 DUP4 DUP6 SUB SLT ISZERO PUSH2 0x597E JUMPI PUSH2 0x597D PUSH2 0x442F JUMP JUMPDEST JUMPDEST PUSH1 0x0 PUSH2 0x598C DUP6 DUP3 DUP7 ADD PUSH2 0x4482 JUMP JUMPDEST SWAP3 POP POP PUSH1 0x20 PUSH2 0x599D DUP6 DUP3 DUP7 ADD PUSH2 0x5952 JUMP JUMPDEST SWAP2 POP POP SWAP3 POP SWAP3 SWAP1 POP JUMP JUMPDEST PUSH1 0x0 DUP1 REVERT JUMPDEST PUSH1 0x0 DUP1 REVERT JUMPDEST PUSH1 0x0 PUSH8 0xFFFFFFFFFFFFFFFF DUP3 GT ISZERO PUSH2 0x59CC JUMPI PUSH2 0x59CB PUSH2 0x4552 JUMP JUMPDEST JUMPDEST PUSH1 0x20 DUP3 MUL SWAP1 POP PUSH1 0x20 DUP2 ADD SWAP1 POP SWAP2 SWAP1 POP JUMP JUMPDEST PUSH1 0x6 DUP2 LT PUSH2 0x59EA JUMPI PUSH1 0x0 DUP1 REVERT JUMPDEST POP JUMP JUMPDEST PUSH1 0x0 DUP2 CALLDATALOAD SWAP1 POP PUSH2 0x59FC DUP2 PUSH2 0x59DD JUMP JUMPDEST SWAP3 SWAP2 POP POP JUMP JUMPDEST PUSH1 0x0 PUSH1 0xA0 DUP3 DUP5 SUB SLT ISZERO PUSH2 0x5A18 JUMPI PUSH2 0x5A17 PUSH2 0x59A7 JUMP JUMPDEST JUMPDEST PUSH2 0x5A22 PUSH1 0xA0 PUSH2 0x45B2 JUMP JUMPDEST SWAP1 POP PUSH1 0x0 PUSH2 0x5A32 DUP5 DUP3 DUP6 ADD PUSH2 0x59ED JUMP JUMPDEST PUSH1 0x0 DUP4 ADD MSTORE POP PUSH1 0x20 PUSH2 0x5A46 DUP5 DUP3 DUP6 ADD PUSH2 0x4482 JUMP JUMPDEST PUSH1 0x20 DUP4 ADD MSTORE POP PUSH1 0x40 PUSH2 0x5A5A DUP5 DUP3 DUP6 ADD PUSH2 0x44B8 JUMP JUMPDEST PUSH1 0x40 DUP4 ADD MSTORE POP PUSH1 0x60 PUSH2 0x5A6E DUP5 DUP3 DUP6 ADD PUSH2 0x44B8 JUMP JUMPDEST PUSH1 0x60 DUP4 ADD MSTORE POP PUSH1 0x80 PUSH2 0x5A82 DUP5 DUP3 DUP6 ADD PUSH2 0x44B8 JUMP JUMPDEST PUSH1 0x80 DUP4 ADD MSTORE POP SWAP3 SWAP2 POP POP JUMP JUMPDEST PUSH1 0x0 PUSH2 0x5AA1 PUSH2 0x5A9C DUP5 PUSH2 0x59B1 JUMP JUMPDEST PUSH2 0x45B2 JUMP JUMPDEST SWAP1 POP DUP1 DUP4 DUP3 MSTORE PUSH1 0x20 DUP3 ADD SWAP1 POP PUSH1 0xA0 DUP5 MUL DUP4 ADD DUP6 DUP2 GT ISZERO PUSH2 0x5AC4 JUMPI PUSH2 0x5AC3 PUSH2 0x4A44 JUMP JUMPDEST JUMPDEST DUP4 JUMPDEST DUP2 DUP2 LT ISZERO PUSH2 0x5AED JUMPI DUP1 PUSH2 0x5AD9 DUP9 DUP3 PUSH2 0x5A02 JUMP JUMPDEST DUP5 MSTORE PUSH1 0x20 DUP5 ADD SWAP4 POP POP PUSH1 0xA0 DUP2 ADD SWAP1 POP PUSH2 0x5AC6 JUMP JUMPDEST POP POP POP SWAP4 SWAP3 POP POP POP JUMP JUMPDEST PUSH1 0x0 DUP3 PUSH1 0x1F DUP4 ADD SLT PUSH2 0x5B0C JUMPI PUSH2 0x5B0B PUSH2 0x4537 JUMP JUMPDEST JUMPDEST DUP2 CALLDATALOAD PUSH2 0x5B1C DUP5 DUP3 PUSH1 0x20 DUP7 ADD PUSH2 0x5A8E JUMP JUMPDEST SWAP2 POP POP SWAP3 SWAP2 POP POP JUMP JUMPDEST PUSH1 0x0 PUSH8 0xFFFFFFFFFFFFFFFF DUP3 GT ISZERO PUSH2 0x5B40 JUMPI PUSH2 0x5B3F PUSH2 0x4552 JUMP JUMPDEST JUMPDEST PUSH1 0x20 DUP3 MUL SWAP1 POP PUSH1 0x20 DUP2 ADD SWAP1 POP SWAP2 SWAP1 POP JUMP JUMPDEST PUSH2 0x5B5A DUP2 PUSH2 0x4C37 JUMP JUMPDEST DUP2 EQ PUSH2 0x5B65 JUMPI PUSH1 0x0 DUP1 REVERT JUMPDEST POP JUMP JUMPDEST PUSH1 0x0 DUP2 CALLDATALOAD SWAP1 POP PUSH2 0x5B77 DUP2 PUSH2 0x5B51 JUMP JUMPDEST SWAP3 SWAP2 POP POP JUMP JUMPDEST PUSH1 0x0 PUSH1 0xC0 DUP3 DUP5 SUB SLT ISZERO PUSH2 0x5B93 JUMPI PUSH2 0x5B92 PUSH2 0x59A7 JUMP JUMPDEST JUMPDEST PUSH2 0x5B9D PUSH1 0xC0 PUSH2 0x45B2 JUMP JUMPDEST SWAP1 POP PUSH1 0x0 PUSH2 0x5BAD DUP5 DUP3 DUP6 ADD PUSH2 0x59ED JUMP JUMPDEST PUSH1 0x0 DUP4 ADD MSTORE POP PUSH1 0x20 PUSH2 0x5BC1 DUP5 DUP3 DUP6 ADD PUSH2 0x4482 JUMP JUMPDEST PUSH1 0x20 DUP4 ADD MSTORE POP PUSH1 0x40 PUSH2 0x5BD5 DUP5 DUP3 DUP6 ADD PUSH2 0x44B8 JUMP JUMPDEST PUSH1 0x40 DUP4 ADD MSTORE POP PUSH1 0x60 PUSH2 0x5BE9 DUP5 DUP3 DUP6 ADD PUSH2 0x44B8 JUMP JUMPDEST PUSH1 0x60 DUP4 ADD MSTORE POP PUSH1 0x80 PUSH2 0x5BFD DUP5 DUP3 DUP6 ADD PUSH2 0x44B8 JUMP JUMPDEST PUSH1 0x80 DUP4 ADD MSTORE POP PUSH1 0xA0 PUSH2 0x5C11 DUP5 DUP3 DUP6 ADD PUSH2 0x5B68 JUMP JUMPDEST PUSH1 0xA0 DUP4 ADD MSTORE POP SWAP3 SWAP2 POP POP JUMP JUMPDEST PUSH1 0x0 PUSH2 0x5C30 PUSH2 0x5C2B DUP5 PUSH2 0x5B25 JUMP JUMPDEST PUSH2 0x45B2 JUMP JUMPDEST SWAP1 POP DUP1 DUP4 DUP3 MSTORE PUSH1 0x20 DUP3 ADD SWAP1 POP PUSH1 0xC0 DUP5 MUL DUP4 ADD DUP6 DUP2 GT ISZERO PUSH2 0x5C53 JUMPI PUSH2 0x5C52 PUSH2 0x4A44 JUMP JUMPDEST JUMPDEST DUP4 JUMPDEST DUP2 DUP2 LT ISZERO PUSH2 0x5C7C JUMPI DUP1 PUSH2 0x5C68 DUP9 DUP3 PUSH2 0x5B7D JUMP JUMPDEST DUP5 MSTORE PUSH1 0x20 DUP5 ADD SWAP4 POP POP PUSH1 0xC0 DUP2 ADD SWAP1 POP PUSH2 0x5C55 JUMP JUMPDEST POP POP POP SWAP4 SWAP3 POP POP POP JUMP JUMPDEST PUSH1 0x0 DUP3 PUSH1 0x1F DUP4 ADD SLT PUSH2 0x5C9B JUMPI PUSH2 0x5C9A PUSH2 0x4537 JUMP JUMPDEST JUMPDEST DUP2 CALLDATALOAD PUSH2 0x5CAB DUP5 DUP3 PUSH1 0x20 DUP7 ADD PUSH2 0x5C1D JUMP JUMPDEST SWAP2 POP POP SWAP3 SWAP2 POP POP JUMP JUMPDEST PUSH1 0x5 DUP2 LT PUSH2 0x5CC1 JUMPI PUSH1 0x0 DUP1 REVERT JUMPDEST POP JUMP JUMPDEST PUSH1 0x0 DUP2 CALLDATALOAD SWAP1 POP PUSH2 0x5CD3 DUP2 PUSH2 0x5CB4 JUMP JUMPDEST SWAP3 SWAP2 POP POP JUMP JUMPDEST PUSH1 0x0 PUSH2 0x160 DUP3 DUP5 SUB SLT ISZERO PUSH2 0x5CF0 JUMPI PUSH2 0x5CEF PUSH2 0x59A7 JUMP JUMPDEST JUMPDEST PUSH2 0x5CFB PUSH2 0x160 PUSH2 0x45B2 JUMP JUMPDEST SWAP1 POP PUSH1 0x0 PUSH2 0x5D0B DUP5 DUP3 DUP6 ADD PUSH2 0x4482 JUMP JUMPDEST PUSH1 0x0 DUP4 ADD MSTORE POP PUSH1 0x20 PUSH2 0x5D1F DUP5 DUP3 DUP6 ADD PUSH2 0x4482 JUMP JUMPDEST PUSH1 0x20 DUP4 ADD MSTORE POP PUSH1 0x40 DUP3 ADD CALLDATALOAD PUSH8 0xFFFFFFFFFFFFFFFF DUP2 GT ISZERO PUSH2 0x5D43 JUMPI PUSH2 0x5D42 PUSH2 0x59AC JUMP JUMPDEST JUMPDEST PUSH2 0x5D4F DUP5 DUP3 DUP6 ADD PUSH2 0x5AF7 JUMP JUMPDEST PUSH1 0x40 DUP4 ADD MSTORE POP PUSH1 0x60 DUP3 ADD CALLDATALOAD PUSH8 0xFFFFFFFFFFFFFFFF DUP2 GT ISZERO PUSH2 0x5D73 JUMPI PUSH2 0x5D72 PUSH2 0x59AC JUMP JUMPDEST JUMPDEST PUSH2 0x5D7F DUP5 DUP3 DUP6 ADD PUSH2 0x5C86 JUMP JUMPDEST PUSH1 0x60 DUP4 ADD MSTORE POP PUSH1 0x80 PUSH2 0x5D93 DUP5 DUP3 DUP6 ADD PUSH2 0x5CC4 JUMP JUMPDEST PUSH1 0x80 DUP4 ADD MSTORE POP PUSH1 0xA0 PUSH2 0x5DA7 DUP5 DUP3 DUP6 ADD PUSH2 0x44B8 JUMP JUMPDEST PUSH1 0xA0 DUP4 ADD MSTORE POP PUSH1 0xC0 PUSH2 0x5DBB DUP5 DUP3 DUP6 ADD PUSH2 0x44B8 JUMP JUMPDEST PUSH1 0xC0 DUP4 ADD MSTORE POP PUSH1 0xE0 PUSH2 0x5DCF DUP5 DUP3 DUP6 ADD PUSH2 0x4F55 JUMP JUMPDEST PUSH1 0xE0 DUP4 ADD MSTORE POP PUSH2 0x100 PUSH2 0x5DE4 DUP5 DUP3 DUP6 ADD PUSH2 0x44B8 JUMP JUMPDEST PUSH2 0x100 DUP4 ADD MSTORE POP PUSH2 0x120 PUSH2 0x5DFA DUP5 DUP3 DUP6 ADD PUSH2 0x4F55 JUMP JUMPDEST PUSH2 0x120 DUP4 ADD MSTORE POP PUSH2 0x140 PUSH2 0x5E10 DUP5 DUP3 DUP6 ADD PUSH2 0x44B8 JUMP JUMPDEST PUSH2 0x140 DUP4 ADD MSTORE POP SWAP3 SWAP2 POP POP JUMP JUMPDEST PUSH1 0x0 PUSH1 0x40 DUP3 DUP5 SUB SLT ISZERO PUSH2 0x5E33 JUMPI PUSH2 0x5E32 PUSH2 0x59A7 JUMP JUMPDEST JUMPDEST PUSH2 0x5E3D PUSH1 0x40 PUSH2 0x45B2 JUMP JUMPDEST SWAP1 POP PUSH1 0x0 DUP3 ADD CALLDATALOAD PUSH8 0xFFFFFFFFFFFFFFFF DUP2 GT ISZERO PUSH2 0x5E5D JUMPI PUSH2 0x5E5C PUSH2 0x59AC JUMP JUMPDEST JUMPDEST PUSH2 0x5E69 DUP5 DUP3 DUP6 ADD PUSH2 0x5CD9 JUMP JUMPDEST PUSH1 0x0 DUP4 ADD MSTORE POP PUSH1 0x20 DUP3 ADD CALLDATALOAD PUSH8 0xFFFFFFFFFFFFFFFF DUP2 GT ISZERO PUSH2 0x5E8D JUMPI PUSH2 0x5E8C PUSH2 0x59AC JUMP JUMPDEST JUMPDEST PUSH2 0x5E99 DUP5 DUP3 DUP6 ADD PUSH2 0x491E JUMP JUMPDEST PUSH1 0x20 DUP4 ADD MSTORE POP SWAP3 SWAP2 POP POP JUMP JUMPDEST PUSH1 0x0 DUP1 PUSH1 0x40 DUP4 DUP6 SUB SLT ISZERO PUSH2 0x5EBC JUMPI PUSH2 0x5EBB PUSH2 0x442F JUMP JUMPDEST JUMPDEST PUSH1 0x0 DUP4 ADD CALLDATALOAD PUSH8 0xFFFFFFFFFFFFFFFF DUP2 GT ISZERO PUSH2 0x5EDA JUMPI PUSH2 0x5ED9 PUSH2 0x4434 JUMP JUMPDEST JUMPDEST PUSH2 0x5EE6 DUP6 DUP3 DUP7 ADD PUSH2 0x5E1D JUMP JUMPDEST SWAP3 POP POP PUSH1 0x20 PUSH2 0x5EF7 DUP6 DUP3 DUP7 ADD PUSH2 0x4F55 JUMP JUMPDEST SWAP2 POP POP SWAP3 POP SWAP3 SWAP1 POP JUMP JUMPDEST PUSH1 0x0 DUP1 PUSH1 0x0 DUP1 PUSH1 0x0 DUP1 PUSH1 0x0 PUSH1 0x80 DUP9 DUP11 SUB SLT ISZERO PUSH2 0x5F20 JUMPI PUSH2 0x5F1F PUSH2 0x442F JUMP JUMPDEST JUMPDEST PUSH1 0x0 DUP9 ADD CALLDATALOAD PUSH8 0xFFFFFFFFFFFFFFFF DUP2 GT ISZERO PUSH2 0x5F3E JUMPI PUSH2 0x5F3D PUSH2 0x4434 JUMP JUMPDEST JUMPDEST PUSH2 0x5F4A DUP11 DUP3 DUP12 ADD PUSH2 0x5503 JUMP JUMPDEST SWAP8 POP SWAP8 POP POP PUSH1 0x20 DUP9 ADD CALLDATALOAD PUSH8 0xFFFFFFFFFFFFFFFF DUP2 GT ISZERO PUSH2 0x5F6D JUMPI PUSH2 0x5F6C PUSH2 0x4434 JUMP JUMPDEST JUMPDEST PUSH2 0x5F79 DUP11 DUP3 DUP12 ADD PUSH2 0x5559 JUMP JUMPDEST SWAP6 POP SWAP6 POP POP PUSH1 0x40 DUP9 ADD CALLDATALOAD PUSH8 0xFFFFFFFFFFFFFFFF DUP2 GT ISZERO PUSH2 0x5F9C JUMPI PUSH2 0x5F9B PUSH2 0x4434 JUMP JUMPDEST JUMPDEST PUSH2 0x5FA8 DUP11 DUP3 DUP12 ADD PUSH2 0x4A9F JUMP JUMPDEST SWAP4 POP SWAP4 POP POP PUSH1 0x60 PUSH2 0x5FBB DUP11 DUP3 DUP12 ADD PUSH2 0x4482 JUMP JUMPDEST SWAP2 POP POP SWAP3 SWAP6 SWAP9 SWAP2 SWAP5 SWAP8 POP SWAP3 SWAP6 POP JUMP JUMPDEST PUSH1 0x0 PUSH1 0x20 DUP3 DUP5 SUB SLT ISZERO PUSH2 0x5FE0 JUMPI PUSH2 0x5FDF PUSH2 0x442F JUMP JUMPDEST JUMPDEST PUSH1 0x0 PUSH2 0x5FEE DUP5 DUP3 DUP6 ADD PUSH2 0x4482 JUMP JUMPDEST SWAP2 POP POP SWAP3 SWAP2 POP POP JUMP JUMPDEST PUSH1 0x0 PUSH2 0x160 DUP3 DUP5 SUB SLT ISZERO PUSH2 0x600E JUMPI PUSH2 0x600D PUSH2 0x5873 JUMP JUMPDEST JUMPDEST DUP2 SWAP1 POP SWAP3 SWAP2 POP POP JUMP JUMPDEST PUSH1 0x0 PUSH1 0x20 DUP3 DUP5 SUB SLT ISZERO PUSH2 0x602D JUMPI PUSH2 0x602C PUSH2 0x442F JUMP JUMPDEST JUMPDEST PUSH1 0x0 DUP3 ADD CALLDATALOAD PUSH8 0xFFFFFFFFFFFFFFFF DUP2 GT ISZERO PUSH2 0x604B JUMPI PUSH2 0x604A PUSH2 0x4434 JUMP JUMPDEST JUMPDEST PUSH2 0x6057 DUP5 DUP3 DUP6 ADD PUSH2 0x5FF7 JUMP JUMPDEST SWAP2 POP POP SWAP3 SWAP2 POP POP JUMP JUMPDEST PUSH1 0x0 DUP1 DUP4 PUSH1 0x1F DUP5 ADD SLT PUSH2 0x6076 JUMPI PUSH2 0x6075 PUSH2 0x4537 JUMP JUMPDEST JUMPDEST DUP3 CALLDATALOAD SWAP1 POP PUSH8 0xFFFFFFFFFFFFFFFF DUP2 GT ISZERO PUSH2 0x6093 JUMPI PUSH2 0x6092 PUSH2 0x4A3F JUMP JUMPDEST JUMPDEST PUSH1 0x20 DUP4 ADD SWAP2 POP DUP4 PUSH1 0x20 DUP3 MUL DUP4 ADD GT ISZERO PUSH2 0x60AF JUMPI PUSH2 0x60AE PUSH2 0x4A44 JUMP JUMPDEST JUMPDEST SWAP3 POP SWAP3 SWAP1 POP JUMP JUMPDEST PUSH1 0x0 DUP1 PUSH1 0x20 DUP4 DUP6 SUB SLT ISZERO PUSH2 0x60CD JUMPI PUSH2 0x60CC PUSH2 0x442F JUMP JUMPDEST JUMPDEST PUSH1 0x0 DUP4 ADD CALLDATALOAD PUSH8 0xFFFFFFFFFFFFFFFF DUP2 GT ISZERO PUSH2 0x60EB JUMPI PUSH2 0x60EA PUSH2 0x4434 JUMP JUMPDEST JUMPDEST PUSH2 0x60F7 DUP6 DUP3 DUP7 ADD PUSH2 0x6060 JUMP JUMPDEST SWAP3 POP SWAP3 POP POP SWAP3 POP SWAP3 SWAP1 POP JUMP JUMPDEST PUSH1 0x0 DUP1 PUSH1 0x40 DUP4 DUP6 SUB SLT ISZERO PUSH2 0x611A JUMPI PUSH2 0x6119 PUSH2 0x442F JUMP JUMPDEST JUMPDEST PUSH1 0x0 PUSH2 0x6128 DUP6 DUP3 DUP7 ADD PUSH2 0x4482 JUMP JUMPDEST SWAP3 POP POP PUSH1 0x20 PUSH2 0x6139 DUP6 DUP3 DUP7 ADD PUSH2 0x4482 JUMP JUMPDEST SWAP2 POP POP SWAP3 POP SWAP3 SWAP1 POP JUMP JUMPDEST PUSH1 0x0 DUP1 PUSH1 0x0 PUSH1 0x60 DUP5 DUP7 SUB SLT ISZERO PUSH2 0x615C JUMPI PUSH2 0x615B PUSH2 0x442F JUMP JUMPDEST JUMPDEST PUSH1 0x0 PUSH2 0x616A DUP7 DUP3 DUP8 ADD PUSH2 0x4482 JUMP JUMPDEST SWAP4 POP POP PUSH1 0x20 PUSH2 0x617B DUP7 DUP3 DUP8 ADD PUSH2 0x44B8 JUMP JUMPDEST SWAP3 POP POP PUSH1 0x40 PUSH2 0x618C DUP7 DUP3 DUP8 ADD PUSH2 0x44B8 JUMP JUMPDEST SWAP2 POP POP SWAP3 POP SWAP3 POP SWAP3 JUMP JUMPDEST PUSH1 0x0 DUP2 SWAP1 POP SWAP3 SWAP2 POP POP JUMP JUMPDEST PUSH1 0x0 PUSH2 0x61AC DUP3 PUSH2 0x480A JUMP JUMPDEST PUSH2 0x61B6 DUP2 DUP6 PUSH2 0x6196 JUMP JUMPDEST SWAP4 POP PUSH2 0x61C6 DUP2 DUP6 PUSH1 0x20 DUP7 ADD PUSH2 0x4826 JUMP JUMPDEST DUP1 DUP5 ADD SWAP2 POP POP SWAP3 SWAP2 POP POP JUMP JUMPDEST PUSH32 0x2F00000000000000000000000000000000000000000000000000000000000000 DUP2 MSTORE POP JUMP JUMPDEST PUSH1 0x0 PUSH2 0x6204 DUP3 DUP6 PUSH2 0x61A1 JUMP JUMPDEST SWAP2 POP PUSH2 0x620F DUP3 PUSH2 0x61D2 JUMP JUMPDEST PUSH1 0x1 DUP3 ADD SWAP2 POP PUSH2 0x621F DUP3 DUP5 PUSH2 0x61A1 JUMP JUMPDEST SWAP2 POP DUP2 SWAP1 POP SWAP4 SWAP3 POP POP POP JUMP JUMPDEST PUSH32 0x4E487B7100000000000000000000000000000000000000000000000000000000 PUSH1 0x0 MSTORE PUSH1 0x22 PUSH1 0x4 MSTORE PUSH1 0x24 PUSH1 0x0 REVERT JUMPDEST PUSH1 0x0 PUSH1 0x2 DUP3 DIV SWAP1 POP PUSH1 0x1 DUP3 AND DUP1 PUSH2 0x6272 JUMPI PUSH1 0x7F DUP3 AND SWAP2 POP JUMPDEST PUSH1 0x20 DUP3 LT DUP2 SUB PUSH2 0x6285 JUMPI PUSH2 0x6284 PUSH2 0x622B JUMP JUMPDEST JUMPDEST POP SWAP2 SWAP1 POP JUMP JUMPDEST PUSH1 0x0 DUP3 DUP3 MSTORE PUSH1 0x20 DUP3 ADD SWAP1 POP SWAP3 SWAP2 POP POP JUMP JUMPDEST PUSH1 0x0 DUP2 SWAP1 POP SWAP2 SWAP1 POP JUMP JUMPDEST PUSH1 0x0 DUP1 REVERT JUMPDEST PUSH1 0x0 DUP3 CALLDATALOAD PUSH1 0x1 PUSH2 0x160 SUB DUP4 CALLDATASIZE SUB SUB DUP2 SLT PUSH2 0x62C8 JUMPI PUSH2 0x62C7 PUSH2 0x62A6 JUMP JUMPDEST JUMPDEST DUP3 DUP2 ADD SWAP2 POP POP SWAP3 SWAP2 POP POP JUMP JUMPDEST PUSH1 0x0 PUSH2 0x62E3 PUSH1 0x20 DUP5 ADD DUP5 PUSH2 0x4482 JUMP JUMPDEST SWAP1 POP SWAP3 SWAP2 POP POP JUMP JUMPDEST PUSH1 0x0 DUP1 REVERT JUMPDEST PUSH1 0x0 DUP1 REVERT JUMPDEST PUSH1 0x0 DUP1 DUP4 CALLDATALOAD PUSH1 0x1 PUSH1 0x20 SUB DUP5 CALLDATASIZE SUB SUB DUP2 SLT PUSH2 0x6312 JUMPI PUSH2 0x6311 PUSH2 0x62A6 JUMP JUMPDEST JUMPDEST DUP4 DUP2 ADD SWAP3 POP DUP3 CALLDATALOAD SWAP2 POP PUSH1 0x20 DUP4 ADD SWAP3 POP PUSH8 0xFFFFFFFFFFFFFFFF DUP3 GT ISZERO PUSH2 0x633A JUMPI PUSH2 0x6339 PUSH2 0x62EB JUMP JUMPDEST JUMPDEST PUSH1 0xA0 DUP3 MUL CALLDATASIZE SUB DUP4 SGT ISZERO PUSH2 0x6350 JUMPI PUSH2 0x634F PUSH2 0x62F0 JUMP JUMPDEST JUMPDEST POP SWAP3 POP SWAP3 SWAP1 POP JUMP JUMPDEST PUSH1 0x0 DUP3 DUP3 MSTORE PUSH1 0x20 DUP3 ADD SWAP1 POP SWAP3 SWAP2 POP POP JUMP JUMPDEST PUSH1 0x0 DUP2 SWAP1 POP SWAP2 SWAP1 POP JUMP JUMPDEST PUSH1 0x0 PUSH2 0x6382 PUSH1 0x20 DUP5 ADD DUP5 PUSH2 0x59ED JUMP JUMPDEST SWAP1 POP SWAP3 SWAP2 POP POP JUMP JUMPDEST PUSH1 0x0 PUSH2 0x6399 PUSH1 0x20 DUP5 ADD DUP5 PUSH2 0x44B8 JUMP JUMPDEST SWAP1 POP SWAP3 SWAP2 POP POP JUMP JUMPDEST PUSH1 0xA0 DUP3 ADD PUSH2 0x63B2 PUSH1 0x0 DUP4 ADD DUP4 PUSH2 0x6373 JUMP JUMPDEST PUSH2 0x63BF PUSH1 0x0 DUP6 ADD DUP3 PUSH2 0x4C0A JUMP JUMPDEST POP PUSH2 0x63CD PUSH1 0x20 DUP4 ADD DUP4 PUSH2 0x62D4 JUMP JUMPDEST PUSH2 0x63DA PUSH1 0x20 DUP6 ADD DUP3 PUSH2 0x4C19 JUMP JUMPDEST POP PUSH2 0x63E8 PUSH1 0x40 DUP4 ADD DUP4 PUSH2 0x638A JUMP JUMPDEST PUSH2 0x63F5 PUSH1 0x40 DUP6 ADD DUP3 PUSH2 0x4C28 JUMP JUMPDEST POP PUSH2 0x6403 PUSH1 0x60 DUP4 ADD DUP4 PUSH2 0x638A JUMP JUMPDEST PUSH2 0x6410 PUSH1 0x60 DUP6 ADD DUP3 PUSH2 0x4C28 JUMP JUMPDEST POP PUSH2 0x641E PUSH1 0x80 DUP4 ADD DUP4 PUSH2 0x638A JUMP JUMPDEST PUSH2 0x642B PUSH1 0x80 DUP6 ADD DUP3 PUSH2 0x4C28 JUMP JUMPDEST POP POP POP POP JUMP JUMPDEST PUSH1 0x0 PUSH2 0x643D DUP4 DUP4 PUSH2 0x63A1 JUMP JUMPDEST PUSH1 0xA0 DUP4 ADD SWAP1 POP SWAP3 SWAP2 POP POP JUMP JUMPDEST PUSH1 0x0 DUP3 SWAP1 POP SWAP3 SWAP2 POP POP JUMP JUMPDEST PUSH1 0x0 PUSH1 0xA0 DUP3 ADD SWAP1 POP SWAP2 SWAP1 POP JUMP JUMPDEST PUSH1 0x0 PUSH2 0x646D DUP4 DUP6 PUSH2 0x6358 JUMP JUMPDEST SWAP4 POP PUSH2 0x6478 DUP3 PUSH2 0x6369 JUMP JUMPDEST DUP1 PUSH1 0x0 JUMPDEST DUP6 DUP2 LT ISZERO PUSH2 0x64B1 JUMPI PUSH2 0x648E DUP3 DUP5 PUSH2 0x6449 JUMP JUMPDEST PUSH2 0x6498 DUP9 DUP3 PUSH2 0x6431 JUMP JUMPDEST SWAP8 POP PUSH2 0x64A3 DUP4 PUSH2 0x6454 JUMP JUMPDEST SWAP3 POP POP PUSH1 0x1 DUP2 ADD SWAP1 POP PUSH2 0x647C JUMP JUMPDEST POP DUP6 SWAP3 POP POP POP SWAP4 SWAP3 POP POP POP JUMP JUMPDEST PUSH1 0x0 DUP1 DUP4 CALLDATALOAD PUSH1 0x1 PUSH1 0x20 SUB DUP5 CALLDATASIZE SUB SUB DUP2 SLT PUSH2 0x64DB JUMPI PUSH2 0x64DA PUSH2 0x62A6 JUMP JUMPDEST JUMPDEST DUP4 DUP2 ADD SWAP3 POP DUP3 CALLDATALOAD SWAP2 POP PUSH1 0x20 DUP4 ADD SWAP3 POP PUSH8 0xFFFFFFFFFFFFFFFF DUP3 GT ISZERO PUSH2 0x6503 JUMPI PUSH2 0x6502 PUSH2 0x62EB JUMP JUMPDEST JUMPDEST PUSH1 0xC0 DUP3 MUL CALLDATASIZE SUB DUP4 SGT ISZERO PUSH2 0x6519 JUMPI PUSH2 0x6518 PUSH2 0x62F0 JUMP JUMPDEST JUMPDEST POP SWAP3 POP SWAP3 SWAP1 POP JUMP JUMPDEST PUSH1 0x0 DUP3 DUP3 MSTORE PUSH1 0x20 DUP3 ADD SWAP1 POP SWAP3 SWAP2 POP POP JUMP JUMPDEST PUSH1 0x0 DUP2 SWAP1 POP SWAP2 SWAP1 POP JUMP JUMPDEST PUSH1 0x0 PUSH2 0x654B PUSH1 0x20 DUP5 ADD DUP5 PUSH2 0x5B68 JUMP JUMPDEST SWAP1 POP SWAP3 SWAP2 POP POP JUMP JUMPDEST PUSH1 0xC0 DUP3 ADD PUSH2 0x6564 PUSH1 0x0 DUP4 ADD DUP4 PUSH2 0x6373 JUMP JUMPDEST PUSH2 0x6571 PUSH1 0x0 DUP6 ADD DUP3 PUSH2 0x4C0A JUMP JUMPDEST POP PUSH2 0x657F PUSH1 0x20 DUP4 ADD DUP4 PUSH2 0x62D4 JUMP JUMPDEST PUSH2 0x658C PUSH1 0x20 DUP6 ADD DUP3 PUSH2 0x4C19 JUMP JUMPDEST POP PUSH2 0x659A PUSH1 0x40 DUP4 ADD DUP4 PUSH2 0x638A JUMP JUMPDEST PUSH2 0x65A7 PUSH1 0x40 DUP6 ADD DUP3 PUSH2 0x4C28 JUMP JUMPDEST POP PUSH2 0x65B5 PUSH1 0x60 DUP4 ADD DUP4 PUSH2 0x638A JUMP JUMPDEST PUSH2 0x65C2 PUSH1 0x60 DUP6 ADD DUP3 PUSH2 0x4C28 JUMP JUMPDEST POP PUSH2 0x65D0 PUSH1 0x80 DUP4 ADD DUP4 PUSH2 0x638A JUMP JUMPDEST PUSH2 0x65DD PUSH1 0x80 DUP6 ADD DUP3 PUSH2 0x4C28 JUMP JUMPDEST POP PUSH2 0x65EB PUSH1 0xA0 DUP4 ADD DUP4 PUSH2 0x653C JUMP JUMPDEST PUSH2 0x65F8 PUSH1 0xA0 DUP6 ADD DUP3 PUSH2 0x4C49 JUMP JUMPDEST POP POP POP POP JUMP JUMPDEST PUSH1 0x0 PUSH2 0x660A DUP4 DUP4 PUSH2 0x6553 JUMP JUMPDEST PUSH1 0xC0 DUP4 ADD SWAP1 POP SWAP3 SWAP2 POP POP JUMP JUMPDEST PUSH1 0x0 DUP3 SWAP1 POP SWAP3 SWAP2 POP POP JUMP JUMPDEST PUSH1 0x0 PUSH1 0xC0 DUP3 ADD SWAP1 POP SWAP2 SWAP1 POP JUMP JUMPDEST PUSH1 0x0 PUSH2 0x663A DUP4 DUP6 PUSH2 0x6521 JUMP JUMPDEST SWAP4 POP PUSH2 0x6645 DUP3 PUSH2 0x6532 JUMP JUMPDEST DUP1 PUSH1 0x0 JUMPDEST DUP6 DUP2 LT ISZERO PUSH2 0x667E JUMPI PUSH2 0x665B DUP3 DUP5 PUSH2 0x6616 JUMP JUMPDEST PUSH2 0x6665 DUP9 DUP3 PUSH2 0x65FE JUMP JUMPDEST SWAP8 POP PUSH2 0x6670 DUP4 PUSH2 0x6621 JUMP JUMPDEST SWAP3 POP POP PUSH1 0x1 DUP2 ADD SWAP1 POP PUSH2 0x6649 JUMP JUMPDEST POP DUP6 SWAP3 POP POP POP SWAP4 SWAP3 POP POP POP JUMP JUMPDEST PUSH1 0x0 PUSH2 0x669A PUSH1 0x20 DUP5 ADD DUP5 PUSH2 0x5CC4 JUMP JUMPDEST SWAP1 POP SWAP3 SWAP2 POP POP JUMP JUMPDEST PUSH1 0x5 DUP2 LT PUSH2 0x66B3 JUMPI PUSH2 0x66B2 PUSH2 0x4BA2 JUMP JUMPDEST JUMPDEST POP JUMP JUMPDEST PUSH1 0x0 DUP2 SWAP1 POP PUSH2 0x66C4 DUP3 PUSH2 0x66A2 JUMP JUMPDEST SWAP2 SWAP1 POP JUMP JUMPDEST PUSH1 0x0 PUSH2 0x66D4 DUP3 PUSH2 0x66B6 JUMP JUMPDEST SWAP1 POP SWAP2 SWAP1 POP JUMP JUMPDEST PUSH2 0x66E4 DUP2 PUSH2 0x66C9 JUMP JUMPDEST DUP3 MSTORE POP POP JUMP JUMPDEST PUSH1 0x0 PUSH2 0x66F9 PUSH1 0x20 DUP5 ADD DUP5 PUSH2 0x4F55 JUMP JUMPDEST SWAP1 POP SWAP3 SWAP2 POP POP JUMP JUMPDEST PUSH1 0x0 PUSH2 0x160 DUP4 ADD PUSH2 0x6715 PUSH1 0x0 DUP5 ADD DUP5 PUSH2 0x62D4 JUMP JUMPDEST PUSH2 0x6722 PUSH1 0x0 DUP7 ADD DUP3 PUSH2 0x4C19 JUMP JUMPDEST POP PUSH2 0x6730 PUSH1 0x20 DUP5 ADD DUP5 PUSH2 0x62D4 JUMP JUMPDEST PUSH2 0x673D PUSH1 0x20 DUP7 ADD DUP3 PUSH2 0x4C19 JUMP JUMPDEST POP PUSH2 0x674B PUSH1 0x40 DUP5 ADD DUP5 PUSH2 0x62F5 JUMP JUMPDEST DUP6 DUP4 SUB PUSH1 0x40 DUP8 ADD MSTORE PUSH2 0x675E DUP4 DUP3 DUP5 PUSH2 0x6461 JUMP JUMPDEST SWAP3 POP POP POP PUSH2 0x676F PUSH1 0x60 DUP5 ADD DUP5 PUSH2 0x64BE JUMP JUMPDEST DUP6 DUP4 SUB PUSH1 0x60 DUP8 ADD MSTORE PUSH2 0x6782 DUP4 DUP3 DUP5 PUSH2 0x662E JUMP JUMPDEST SWAP3 POP POP POP PUSH2 0x6793 PUSH1 0x80 DUP5 ADD DUP5 PUSH2 0x668B JUMP JUMPDEST PUSH2 0x67A0 PUSH1 0x80 DUP7 ADD DUP3 PUSH2 0x66DB JUMP JUMPDEST POP PUSH2 0x67AE PUSH1 0xA0 DUP5 ADD DUP5 PUSH2 0x638A JUMP JUMPDEST PUSH2 0x67BB PUSH1 0xA0 DUP7 ADD DUP3 PUSH2 0x4C28 JUMP JUMPDEST POP PUSH2 0x67C9 PUSH1 0xC0 DUP5 ADD DUP5 PUSH2 0x638A JUMP JUMPDEST PUSH2 0x67D6 PUSH1 0xC0 DUP7 ADD DUP3 PUSH2 0x4C28 JUMP JUMPDEST POP PUSH2 0x67E4 PUSH1 0xE0 DUP5 ADD DUP5 PUSH2 0x66EA JUMP JUMPDEST PUSH2 0x67F1 PUSH1 0xE0 DUP7 ADD DUP3 PUSH2 0x4CCA JUMP JUMPDEST POP PUSH2 0x6800 PUSH2 0x100 DUP5 ADD DUP5 PUSH2 0x638A JUMP JUMPDEST PUSH2 0x680E PUSH2 0x100 DUP7 ADD DUP3 PUSH2 0x4C28 JUMP JUMPDEST POP PUSH2 0x681D PUSH2 0x120 DUP5 ADD DUP5 PUSH2 0x66EA JUMP JUMPDEST PUSH2 0x682B PUSH2 0x120 DUP7 ADD DUP3 PUSH2 0x4CCA JUMP JUMPDEST POP PUSH2 0x683A PUSH2 0x140 DUP5 ADD DUP5 PUSH2 0x638A JUMP JUMPDEST PUSH2 0x6848 PUSH2 0x140 DUP7 ADD DUP3 PUSH2 0x4C28 JUMP JUMPDEST POP DUP1 SWAP2 POP POP SWAP3 SWAP2 POP POP JUMP JUMPDEST PUSH1 0x0 DUP1 DUP4 CALLDATALOAD PUSH1 0x1 PUSH1 0x20 SUB DUP5 CALLDATASIZE SUB SUB DUP2 SLT PUSH2 0x6870 JUMPI PUSH2 0x686F PUSH2 0x62A6 JUMP JUMPDEST JUMPDEST DUP4 DUP2 ADD SWAP3 POP DUP3 CALLDATALOAD SWAP2 POP PUSH1 0x20 DUP4 ADD SWAP3 POP PUSH8 0xFFFFFFFFFFFFFFFF DUP3 GT ISZERO PUSH2 0x6898 JUMPI PUSH2 0x6897 PUSH2 0x62EB JUMP JUMPDEST JUMPDEST PUSH1 0x1 DUP3 MUL CALLDATASIZE SUB DUP4 SGT ISZERO PUSH2 0x68AE JUMPI PUSH2 0x68AD PUSH2 0x62F0 JUMP JUMPDEST JUMPDEST POP SWAP3 POP SWAP3 SWAP1 POP JUMP JUMPDEST PUSH1 0x0 DUP3 DUP3 MSTORE PUSH1 0x20 DUP3 ADD SWAP1 POP SWAP3 SWAP2 POP POP JUMP JUMPDEST PUSH1 0x0 PUSH2 0x68D3 DUP4 DUP6 PUSH2 0x68B6 JUMP JUMPDEST SWAP4 POP PUSH2 0x68E0 DUP4 DUP6 DUP5 PUSH2 0x45FE JUMP JUMPDEST PUSH2 0x68E9 DUP4 PUSH2 0x4541 JUMP JUMPDEST DUP5 ADD SWAP1 POP SWAP4 SWAP3 POP POP POP JUMP JUMPDEST PUSH1 0x0 PUSH1 0x40 DUP4 ADD PUSH2 0x6907 PUSH1 0x0 DUP5 ADD DUP5 PUSH2 0x62AB JUMP JUMPDEST DUP5 DUP3 SUB PUSH1 0x0 DUP7 ADD MSTORE PUSH2 0x6919 DUP3 DUP3 PUSH2 0x6701 JUMP JUMPDEST SWAP2 POP POP PUSH2 0x6929 PUSH1 0x20 DUP5 ADD DUP5 PUSH2 0x6853 JUMP JUMPDEST DUP6 DUP4 SUB PUSH1 0x20 DUP8 ADD MSTORE PUSH2 0x693C DUP4 DUP3 DUP5 PUSH2 0x68C7 JUMP JUMPDEST SWAP3 POP POP POP DUP1 SWAP2 POP POP SWAP3 SWAP2 POP POP JUMP JUMPDEST PUSH1 0x0 PUSH2 0x6956 DUP4 DUP4 PUSH2 0x68F4 JUMP JUMPDEST SWAP1 POP SWAP3 SWAP2 POP POP JUMP JUMPDEST PUSH1 0x0 DUP3 CALLDATALOAD PUSH1 0x1 PUSH1 0x40 SUB DUP4 CALLDATASIZE SUB SUB DUP2 SLT PUSH2 0x697A JUMPI PUSH2 0x6979 PUSH2 0x62A6 JUMP JUMPDEST JUMPDEST DUP3 DUP2 ADD SWAP2 POP POP SWAP3 SWAP2 POP POP JUMP JUMPDEST PUSH1 0x0 PUSH1 0x20 DUP3 ADD SWAP1 POP SWAP2 SWAP1 POP JUMP JUMPDEST PUSH1 0x0 PUSH2 0x699F DUP4 DUP6 PUSH2 0x628B JUMP JUMPDEST SWAP4 POP DUP4 PUSH1 0x20 DUP5 MUL DUP6 ADD PUSH2 0x69B1 DUP5 PUSH2 0x629C JUMP JUMPDEST DUP1 PUSH1 0x0 JUMPDEST DUP8 DUP2 LT ISZERO PUSH2 0x69F5 JUMPI DUP5 DUP5 SUB DUP10 MSTORE PUSH2 0x69CC DUP3 DUP5 PUSH2 0x695E JUMP JUMPDEST PUSH2 0x69D6 DUP6 DUP3 PUSH2 0x694A JUMP JUMPDEST SWAP5 POP PUSH2 0x69E1 DUP4 PUSH2 0x6986 JUMP JUMPDEST SWAP3 POP PUSH1 0x20 DUP11 ADD SWAP10 POP POP PUSH1 0x1 DUP2 ADD SWAP1 POP PUSH2 0x69B5 JUMP JUMPDEST POP DUP3 SWAP8 POP DUP8 SWAP5 POP POP POP POP POP SWAP4 SWAP3 POP POP POP JUMP JUMPDEST PUSH1 0x0 DUP3 DUP3 MSTORE PUSH1 0x20 DUP3 ADD SWAP1 POP SWAP3 SWAP2 POP POP JUMP JUMPDEST PUSH1 0x0 DUP2 SWAP1 POP SWAP2 SWAP1 POP JUMP JUMPDEST PUSH1 0x0 DUP1 DUP4 CALLDATALOAD PUSH1 0x1 PUSH1 0x20 SUB DUP5 CALLDATASIZE SUB SUB DUP2 SLT PUSH2 0x6A3F JUMPI PUSH2 0x6A3E PUSH2 0x62A6 JUMP JUMPDEST JUMPDEST DUP4 DUP2 ADD SWAP3 POP DUP3 CALLDATALOAD SWAP2 POP PUSH1 0x20 DUP4 ADD SWAP3 POP PUSH8 0xFFFFFFFFFFFFFFFF DUP3 GT ISZERO PUSH2 0x6A67 JUMPI PUSH2 0x6A66 PUSH2 0x62EB JUMP JUMPDEST JUMPDEST PUSH1 0x40 DUP3 MUL CALLDATASIZE SUB DUP4 SGT ISZERO PUSH2 0x6A7D JUMPI PUSH2 0x6A7C PUSH2 0x62F0 JUMP JUMPDEST JUMPDEST POP SWAP3 POP SWAP3 SWAP1 POP JUMP JUMPDEST PUSH1 0x0 DUP3 DUP3 MSTORE PUSH1 0x20 DUP3 ADD SWAP1 POP SWAP3 SWAP2 POP POP JUMP JUMPDEST PUSH1 0x0 DUP2 SWAP1 POP SWAP2 SWAP1 POP JUMP JUMPDEST PUSH1 0x40 DUP3 ADD PUSH2 0x6AB1 PUSH1 0x0 DUP4 ADD DUP4 PUSH2 0x638A JUMP JUMPDEST PUSH2 0x6ABE PUSH1 0x0 DUP6 ADD DUP3 PUSH2 0x4C28 JUMP JUMPDEST POP PUSH2 0x6ACC PUSH1 0x20 DUP4 ADD DUP4 PUSH2 0x638A JUMP JUMPDEST PUSH2 0x6AD9 PUSH1 0x20 DUP6 ADD DUP3 PUSH2 0x4C28 JUMP JUMPDEST POP POP POP POP JUMP JUMPDEST PUSH1 0x0 PUSH2 0x6AEB DUP4 DUP4 PUSH2 0x6AA0 JUMP JUMPDEST PUSH1 0x40 DUP4 ADD SWAP1 POP SWAP3 SWAP2 POP POP JUMP JUMPDEST PUSH1 0x0 DUP3 SWAP1 POP SWAP3 SWAP2 POP POP JUMP JUMPDEST PUSH1 0x0 PUSH1 0x40 DUP3 ADD SWAP1 POP SWAP2 SWAP1 POP JUMP JUMPDEST PUSH1 0x0 PUSH2 0x6B1B DUP4 DUP6 PUSH2 0x6A85 JUMP JUMPDEST SWAP4 POP PUSH2 0x6B26 DUP3 PUSH2 0x6A96 JUMP JUMPDEST DUP1 PUSH1 0x0 JUMPDEST DUP6 DUP2 LT ISZERO PUSH2 0x6B5F JUMPI PUSH2 0x6B3C DUP3 DUP5 PUSH2 0x6AF7 JUMP JUMPDEST PUSH2 0x6B46 DUP9 DUP3 PUSH2 0x6ADF JUMP JUMPDEST SWAP8 POP PUSH2 0x6B51 DUP4 PUSH2 0x6B02 JUMP JUMPDEST SWAP3 POP POP PUSH1 0x1 DUP2 ADD SWAP1 POP PUSH2 0x6B2A JUMP JUMPDEST POP DUP6 SWAP3 POP POP POP SWAP4 SWAP3 POP POP POP JUMP JUMPDEST PUSH1 0x0 PUSH1 0x40 DUP4 ADD PUSH2 0x6B7F PUSH1 0x0 DUP5 ADD DUP5 PUSH2 0x6A22 JUMP JUMPDEST DUP6 DUP4 SUB PUSH1 0x0 DUP8 ADD MSTORE PUSH2 0x6B92 DUP4 DUP3 DUP5 PUSH2 0x6B0F JUMP JUMPDEST SWAP3 POP POP POP PUSH2 0x6BA3 PUSH1 0x20 DUP5 ADD DUP5 PUSH2 0x6A22 JUMP JUMPDEST DUP6 DUP4 SUB PUSH1 0x20 DUP8 ADD MSTORE PUSH2 0x6BB6 DUP4 DUP3 DUP5 PUSH2 0x6B0F JUMP JUMPDEST SWAP3 POP POP POP DUP1 SWAP2 POP POP SWAP3 SWAP2 POP POP JUMP JUMPDEST PUSH1 0x0 PUSH2 0x6BD0 DUP4 DUP4 PUSH2 0x6B6C JUMP JUMPDEST SWAP1 POP SWAP3 SWAP2 POP POP JUMP JUMPDEST PUSH1 0x0 DUP3 CALLDATALOAD PUSH1 0x1 PUSH1 0x40 SUB DUP4 CALLDATASIZE SUB SUB DUP2 SLT PUSH2 0x6BF4 JUMPI PUSH2 0x6BF3 PUSH2 0x62A6 JUMP JUMPDEST JUMPDEST DUP3 DUP2 ADD SWAP2 POP POP SWAP3 SWAP2 POP POP JUMP JUMPDEST PUSH1 0x0 PUSH1 0x20 DUP3 ADD SWAP1 POP SWAP2 SWAP1 POP JUMP JUMPDEST PUSH1 0x0 PUSH2 0x6C19 DUP4 DUP6 PUSH2 0x6A07 JUMP JUMPDEST SWAP4 POP DUP4 PUSH1 0x20 DUP5 MUL DUP6 ADD PUSH2 0x6C2B DUP5 PUSH2 0x6A18 JUMP JUMPDEST DUP1 PUSH1 0x0 JUMPDEST DUP8 DUP2 LT ISZERO PUSH2 0x6C6F JUMPI DUP5 DUP5 SUB DUP10 MSTORE PUSH2 0x6C46 DUP3 DUP5 PUSH2 0x6BD8 JUMP JUMPDEST PUSH2 0x6C50 DUP6 DUP3 PUSH2 0x6BC4 JUMP JUMPDEST SWAP5 POP PUSH2 0x6C5B DUP4 PUSH2 0x6C00 JUMP JUMPDEST SWAP3 POP PUSH1 0x20 DUP11 ADD SWAP10 POP POP PUSH1 0x1 DUP2 ADD SWAP1 POP PUSH2 0x6C2F JUMP JUMPDEST POP DUP3 SWAP8 POP DUP8 SWAP5 POP POP POP POP POP SWAP4 SWAP3 POP POP POP JUMP JUMPDEST PUSH1 0x0 PUSH1 0x40 DUP3 ADD SWAP1 POP DUP2 DUP2 SUB PUSH1 0x0 DUP4 ADD MSTORE PUSH2 0x6C9C DUP2 DUP7 DUP9 PUSH2 0x6993 JUMP JUMPDEST SWAP1 POP DUP2 DUP2 SUB PUSH1 0x20 DUP4 ADD MSTORE PUSH2 0x6CB1 DUP2 DUP5 DUP7 PUSH2 0x6C0D JUMP JUMPDEST SWAP1 POP SWAP6 SWAP5 POP POP POP POP POP JUMP JUMPDEST PUSH1 0x0 PUSH8 0xFFFFFFFFFFFFFFFF DUP3 GT ISZERO PUSH2 0x6CD7 JUMPI PUSH2 0x6CD6 PUSH2 0x4552 JUMP JUMPDEST JUMPDEST PUSH1 0x20 DUP3 MUL SWAP1 POP PUSH1 0x20 DUP2 ADD SWAP1 POP SWAP2 SWAP1 POP JUMP JUMPDEST PUSH1 0x0 DUP2 MLOAD SWAP1 POP PUSH2 0x6CF7 DUP2 PUSH2 0x59DD JUMP JUMPDEST SWAP3 SWAP2 POP POP JUMP JUMPDEST PUSH1 0x0 DUP2 MLOAD SWAP1 POP PUSH2 0x6D0C DUP2 PUSH2 0x446B JUMP JUMPDEST SWAP3 SWAP2 POP POP JUMP JUMPDEST PUSH1 0x0 DUP2 MLOAD SWAP1 POP PUSH2 0x6D21 DUP2 PUSH2 0x44A1 JUMP JUMPDEST SWAP3 SWAP2 POP POP JUMP JUMPDEST PUSH1 0x0 DUP2 MLOAD SWAP1 POP PUSH2 0x6D36 DUP2 PUSH2 0x5B51 JUMP JUMPDEST SWAP3 SWAP2 POP POP JUMP JUMPDEST PUSH1 0x0 PUSH1 0xA0 DUP3 DUP5 SUB SLT ISZERO PUSH2 0x6D52 JUMPI PUSH2 0x6D51 PUSH2 0x59A7 JUMP JUMPDEST JUMPDEST PUSH2 0x6D5C PUSH1 0xA0 PUSH2 0x45B2 JUMP JUMPDEST SWAP1 POP PUSH1 0x0 PUSH2 0x6D6C DUP5 DUP3 DUP6 ADD PUSH2 0x6CE8 JUMP JUMPDEST PUSH1 0x0 DUP4 ADD MSTORE POP PUSH1 0x20 PUSH2 0x6D80 DUP5 DUP3 DUP6 ADD PUSH2 0x6CFD JUMP JUMPDEST PUSH1 0x20 DUP4 ADD MSTORE POP PUSH1 0x40 PUSH2 0x6D94 DUP5 DUP3 DUP6 ADD PUSH2 0x6D12 JUMP JUMPDEST PUSH1 0x40 DUP4 ADD MSTORE POP PUSH1 0x60 PUSH2 0x6DA8 DUP5 DUP3 DUP6 ADD PUSH2 0x6D12 JUMP JUMPDEST PUSH1 0x60 DUP4 ADD MSTORE POP PUSH1 0x80 PUSH2 0x6DBC DUP5 DUP3 DUP6 ADD PUSH2 0x6D27 JUMP JUMPDEST PUSH1 0x80 DUP4 ADD MSTORE POP SWAP3 SWAP2 POP POP JUMP JUMPDEST PUSH1 0x0 DUP2 MLOAD SWAP1 POP PUSH2 0x6DD7 DUP2 PUSH2 0x4F3E JUMP JUMPDEST SWAP3 SWAP2 POP POP JUMP JUMPDEST PUSH1 0x0 PUSH1 0xE0 DUP3 DUP5 SUB SLT ISZERO PUSH2 0x6DF3 JUMPI PUSH2 0x6DF2 PUSH2 0x59A7 JUMP JUMPDEST JUMPDEST PUSH2 0x6DFD PUSH1 0x60 PUSH2 0x45B2 JUMP JUMPDEST SWAP1 POP PUSH1 0x0 PUSH2 0x6E0D DUP5 DUP3 DUP6 ADD PUSH2 0x6D3C JUMP JUMPDEST PUSH1 0x0 DUP4 ADD MSTORE POP PUSH1 0xA0 PUSH2 0x6E21 DUP5 DUP3 DUP6 ADD PUSH2 0x6CFD JUMP JUMPDEST PUSH1 0x20 DUP4 ADD MSTORE POP PUSH1 0xC0 PUSH2 0x6E35 DUP5 DUP3 DUP6 ADD PUSH2 0x6DC8 JUMP JUMPDEST PUSH1 0x40 DUP4 ADD MSTORE POP SWAP3 SWAP2 POP POP JUMP JUMPDEST PUSH1 0x0 PUSH2 0x6E54 PUSH2 0x6E4F DUP5 PUSH2 0x6CBC JUMP JUMPDEST PUSH2 0x45B2 JUMP JUMPDEST SWAP1 POP DUP1 DUP4 DUP3 MSTORE PUSH1 0x20 DUP3 ADD SWAP1 POP PUSH1 0xE0 DUP5 MUL DUP4 ADD DUP6 DUP2 GT ISZERO PUSH2 0x6E77 JUMPI PUSH2 0x6E76 PUSH2 0x4A44 JUMP JUMPDEST JUMPDEST DUP4 JUMPDEST DUP2 DUP2 LT ISZERO PUSH2 0x6EA0 JUMPI DUP1 PUSH2 0x6E8C DUP9 DUP3 PUSH2 0x6DDD JUMP JUMPDEST DUP5 MSTORE PUSH1 0x20 DUP5 ADD SWAP4 POP POP PUSH1 0xE0 DUP2 ADD SWAP1 POP PUSH2 0x6E79 JUMP JUMPDEST POP POP POP SWAP4 SWAP3 POP POP POP JUMP JUMPDEST PUSH1 0x0 DUP3 PUSH1 0x1F DUP4 ADD SLT PUSH2 0x6EBF JUMPI PUSH2 0x6EBE PUSH2 0x4537 JUMP JUMPDEST JUMPDEST DUP2 MLOAD PUSH2 0x6ECF DUP5 DUP3 PUSH1 0x20 DUP7 ADD PUSH2 0x6E41 JUMP JUMPDEST SWAP2 POP POP SWAP3 SWAP2 POP POP JUMP JUMPDEST PUSH1 0x0 PUSH1 0x20 DUP3 DUP5 SUB SLT ISZERO PUSH2 0x6EEE JUMPI PUSH2 0x6EED PUSH2 0x442F JUMP JUMPDEST JUMPDEST PUSH1 0x0 DUP3 ADD MLOAD PUSH8 0xFFFFFFFFFFFFFFFF DUP2 GT ISZERO PUSH2 0x6F0C JUMPI PUSH2 0x6F0B PUSH2 0x4434 JUMP JUMPDEST JUMPDEST PUSH2 0x6F18 DUP5 DUP3 DUP6 ADD PUSH2 0x6EAA JUMP JUMPDEST SWAP2 POP POP SWAP3 SWAP2 POP POP JUMP JUMPDEST PUSH32 0x4E487B7100000000000000000000000000000000000000000000000000000000 PUSH1 0x0 MSTORE PUSH1 0x32 PUSH1 0x4 MSTORE PUSH1 0x24 PUSH1 0x0 REVERT JUMPDEST PUSH32 0x4E487B7100000000000000000000000000000000000000000000000000000000 PUSH1 0x0 MSTORE PUSH1 0x11 PUSH1 0x4 MSTORE PUSH1 0x24 PUSH1 0x0 REVERT JUMPDEST PUSH1 0x0 PUSH2 0x6F8A DUP3 PUSH2 0x4497 JUMP JUMPDEST SWAP2 POP PUSH32 0xFFFFFFFFFFFFFFFFFFFFFFFFFFFFFFFFFFFFFFFFFFFFFFFFFFFFFFFFFFFFFFFF DUP3 SUB PUSH2 0x6FBC JUMPI PUSH2 0x6FBB PUSH2 0x6F50 JUMP JUMPDEST JUMPDEST PUSH1 0x1 DUP3 ADD SWAP1 POP SWAP2 SWAP1 POP JUMP JUMPDEST PUSH32 0x455243313135353A2063616C6C6572206973206E6F7420746F6B656E206F776E PUSH1 0x0 DUP3 ADD MSTORE PUSH32 0x6572206F7220617070726F766564000000000000000000000000000000000000 PUSH1 0x20 DUP3 ADD MSTORE POP JUMP JUMPDEST PUSH1 0x0 PUSH2 0x7023 PUSH1 0x2E DUP4 PUSH2 0x4815 JUMP JUMPDEST SWAP2 POP PUSH2 0x702E DUP3 PUSH2 0x6FC7 JUMP JUMPDEST PUSH1 0x40 DUP3 ADD SWAP1 POP SWAP2 SWAP1 POP JUMP JUMPDEST PUSH1 0x0 PUSH1 0x20 DUP3 ADD SWAP1 POP DUP2 DUP2 SUB PUSH1 0x0 DUP4 ADD MSTORE PUSH2 0x7052 DUP2 PUSH2 0x7016 JUMP JUMPDEST SWAP1 POP SWAP2 SWAP1 POP JUMP JUMPDEST PUSH32 0x416363657373436F6E74726F6C3A2063616E206F6E6C792072656E6F756E6365 PUSH1 0x0 DUP3 ADD MSTORE PUSH32 0x20726F6C657320666F722073656C660000000000000000000000000000000000 PUSH1 0x20 DUP3 ADD MSTORE POP JUMP JUMPDEST PUSH1 0x0 PUSH2 0x70B5 PUSH1 0x2F DUP4 PUSH2 0x4815 JUMP JUMPDEST SWAP2 POP PUSH2 0x70C0 DUP3 PUSH2 0x7059 JUMP JUMPDEST PUSH1 0x40 DUP3 ADD SWAP1 POP SWAP2 SWAP1 POP JUMP JUMPDEST PUSH1 0x0 PUSH1 0x20 DUP3 ADD SWAP1 POP DUP2 DUP2 SUB PUSH1 0x0 DUP4 ADD MSTORE PUSH2 0x70E4 DUP2 PUSH2 0x70A8 JUMP JUMPDEST SWAP1 POP SWAP2 SWAP1 POP JUMP JUMPDEST PUSH1 0x0 DUP3 DUP3 MSTORE PUSH1 0x20 DUP3 ADD SWAP1 POP SWAP3 SWAP2 POP POP JUMP JUMPDEST PUSH1 0x0 DUP2 SWAP1 POP SWAP2 SWAP1 POP JUMP JUMPDEST PUSH1 0x0 PUSH2 0x7113 DUP5 DUP5 DUP5 PUSH2 0x6B0F JUMP JUMPDEST SWAP1 POP SWAP4 SWAP3 POP POP POP JUMP JUMPDEST PUSH1 0x0 PUSH1 0x20 DUP3 ADD SWAP1 POP SWAP2 SWAP1 POP JUMP JUMPDEST PUSH1 0x0 PUSH2 0x7135 DUP4 DUP6 PUSH2 0x70EB JUMP JUMPDEST SWAP4 POP DUP4 PUSH1 0x20 DUP5 MUL DUP6 ADD PUSH2 0x7147 DUP5 PUSH2 0x70FC JUMP JUMPDEST DUP1 PUSH1 0x0 JUMPDEST DUP8 DUP2 LT ISZERO PUSH2 0x718D JUMPI DUP5 DUP5 SUB DUP10 MSTORE PUSH2 0x7162 DUP3 DUP5 PUSH2 0x6A22 JUMP JUMPDEST PUSH2 0x716D DUP7 DUP3 DUP5 PUSH2 0x7106 JUMP JUMPDEST SWAP6 POP PUSH2 0x7178 DUP5 PUSH2 0x711C JUMP JUMPDEST SWAP4 POP PUSH1 0x20 DUP12 ADD SWAP11 POP POP POP PUSH1 0x1 DUP2 ADD SWAP1 POP PUSH2 0x714B JUMP JUMPDEST POP DUP3 SWAP8 POP DUP8 SWAP5 POP POP POP POP POP SWAP4 SWAP3 POP POP POP JUMP JUMPDEST PUSH1 0x0 PUSH1 0xA0 DUP3 ADD SWAP1 POP DUP2 DUP2 SUB PUSH1 0x0 DUP4 ADD MSTORE PUSH2 0x71BA DUP2 DUP11 DUP13 PUSH2 0x6993 JUMP JUMPDEST SWAP1 POP DUP2 DUP2 SUB PUSH1 0x20 DUP4 ADD MSTORE PUSH2 0x71CF DUP2 DUP9 DUP11 PUSH2 0x7129 JUMP JUMPDEST SWAP1 POP DUP2 DUP2 SUB PUSH1 0x40 DUP4 ADD MSTORE PUSH2 0x71E4 DUP2 DUP7 DUP9 PUSH2 0x7129 JUMP JUMPDEST SWAP1 POP PUSH2 0x71F3 PUSH1 0x60 DUP4 ADD DUP6 PUSH2 0x4F97 JUMP JUMPDEST PUSH2 0x7200 PUSH1 0x80 DUP4 ADD DUP5 PUSH2 0x450D JUMP JUMPDEST SWAP10 SWAP9 POP POP POP POP POP POP POP POP POP JUMP JUMPDEST PUSH1 0x0 PUSH8 0xFFFFFFFFFFFFFFFF DUP3 GT ISZERO PUSH2 0x7228 JUMPI PUSH2 0x7227 PUSH2 0x4552 JUMP JUMPDEST JUMPDEST PUSH1 0x20 DUP3 MUL SWAP1 POP PUSH1 0x20 DUP2 ADD SWAP1 POP SWAP2 SWAP1 POP JUMP JUMPDEST PUSH1 0x0 DUP2 MLOAD SWAP1 POP PUSH2 0x7248 DUP2 PUSH2 0x593B JUMP JUMPDEST SWAP3 SWAP2 POP POP JUMP JUMPDEST PUSH1 0x0 PUSH2 0x7261 PUSH2 0x725C DUP5 PUSH2 0x720D JUMP JUMPDEST PUSH2 0x45B2 JUMP JUMPDEST SWAP1 POP DUP1 DUP4 DUP3 MSTORE PUSH1 0x20 DUP3 ADD SWAP1 POP PUSH1 0x20 DUP5 MUL DUP4 ADD DUP6 DUP2 GT ISZERO PUSH2 0x7284 JUMPI PUSH2 0x7283 PUSH2 0x4A44 JUMP JUMPDEST JUMPDEST DUP4 JUMPDEST DUP2 DUP2 LT ISZERO PUSH2 0x72AD JUMPI DUP1 PUSH2 0x7299 DUP9 DUP3 PUSH2 0x7239 JUMP JUMPDEST DUP5 MSTORE PUSH1 0x20 DUP5 ADD SWAP4 POP POP PUSH1 0x20 DUP2 ADD SWAP1 POP PUSH2 0x7286 JUMP JUMPDEST POP POP POP SWAP4 SWAP3 POP POP POP JUMP JUMPDEST PUSH1 0x0 DUP3 PUSH1 0x1F DUP4 ADD SLT PUSH2 0x72CC JUMPI PUSH2 0x72CB PUSH2 0x4537 JUMP JUMPDEST JUMPDEST DUP2 MLOAD PUSH2 0x72DC DUP5 DUP3 PUSH1 0x20 DUP7 ADD PUSH2 0x724E JUMP JUMPDEST SWAP2 POP POP SWAP3 SWAP2 POP POP JUMP JUMPDEST PUSH1 0x0 DUP1 PUSH1 0x40 DUP4 DUP6 SUB SLT ISZERO PUSH2 0x72FC JUMPI PUSH2 0x72FB PUSH2 0x442F JUMP JUMPDEST JUMPDEST PUSH1 0x0 DUP4 ADD MLOAD PUSH8 0xFFFFFFFFFFFFFFFF DUP2 GT ISZERO PUSH2 0x731A JUMPI PUSH2 0x7319 PUSH2 0x4434 JUMP JUMPDEST JUMPDEST PUSH2 0x7326 DUP6 DUP3 DUP7 ADD PUSH2 0x72B7 JUMP JUMPDEST SWAP3 POP POP PUSH1 0x20 DUP4 ADD MLOAD PUSH8 0xFFFFFFFFFFFFFFFF DUP2 GT ISZERO PUSH2 0x7347 JUMPI PUSH2 0x7346 PUSH2 0x4434 JUMP JUMPDEST JUMPDEST PUSH2 0x7353 DUP6 DUP3 DUP7 ADD PUSH2 0x6EAA JUMP JUMPDEST SWAP2 POP POP SWAP3 POP SWAP3 SWAP1 POP JUMP JUMPDEST PUSH1 0x0 DUP3 DUP3 MSTORE PUSH1 0x20 DUP3 ADD SWAP1 POP SWAP3 SWAP2 POP POP JUMP JUMPDEST PUSH1 0x0 DUP2 SWAP1 POP SWAP2 SWAP1 POP JUMP JUMPDEST PUSH1 0x0 PUSH15 0xFFFFFFFFFFFFFFFFFFFFFFFFFFFFFF DUP3 AND SWAP1 POP SWAP2 SWAP1 POP JUMP JUMPDEST PUSH2 0x739C DUP2 PUSH2 0x7378 JUMP JUMPDEST DUP2 EQ PUSH2 0x73A7 JUMPI PUSH1 0x0 DUP1 REVERT JUMPDEST POP JUMP JUMPDEST PUSH1 0x0 DUP2 CALLDATALOAD SWAP1 POP PUSH2 0x73B9 DUP2 PUSH2 0x7393 JUMP JUMPDEST SWAP3 SWAP2 POP POP JUMP JUMPDEST PUSH1 0x0 PUSH2 0x73CE PUSH1 0x20 DUP5 ADD DUP5 PUSH2 0x73AA JUMP JUMPDEST SWAP1 POP SWAP3 SWAP2 POP POP JUMP JUMPDEST PUSH2 0x73DF DUP2 PUSH2 0x7378 JUMP JUMPDEST DUP3 MSTORE POP POP JUMP JUMPDEST PUSH1 0x0 PUSH1 0xA0 DUP4 ADD PUSH2 0x73F8 PUSH1 0x0 DUP5 ADD DUP5 PUSH2 0x62AB JUMP JUMPDEST DUP5 DUP3 SUB PUSH1 0x0 DUP7 ADD MSTORE PUSH2 0x740A DUP3 DUP3 PUSH2 0x6701 JUMP JUMPDEST SWAP2 POP POP PUSH2 0x741A PUSH1 0x20 DUP5 ADD DUP5 PUSH2 0x73BF JUMP JUMPDEST PUSH2 0x7427 PUSH1 0x20 DUP7 ADD DUP3 PUSH2 0x73D6 JUMP JUMPDEST POP PUSH2 0x7435 PUSH1 0x40 DUP5 ADD DUP5 PUSH2 0x73BF JUMP JUMPDEST PUSH2 0x7442 PUSH1 0x40 DUP7 ADD DUP3 PUSH2 0x73D6 JUMP JUMPDEST POP PUSH2 0x7450 PUSH1 0x60 DUP5 ADD DUP5 PUSH2 0x6853 JUMP JUMPDEST DUP6 DUP4 SUB PUSH1 0x60 DUP8 ADD MSTORE PUSH2 0x7463 DUP4 DUP3 DUP5 PUSH2 0x68C7 JUMP JUMPDEST SWAP3 POP POP POP PUSH2 0x7474 PUSH1 0x80 DUP5 ADD DUP5 PUSH2 0x6853 JUMP JUMPDEST DUP6 DUP4 SUB PUSH1 0x80 DUP8 ADD MSTORE PUSH2 0x7487 DUP4 DUP3 DUP5 PUSH2 0x68C7 JUMP JUMPDEST SWAP3 POP POP POP DUP1 SWAP2 POP POP SWAP3 SWAP2 POP POP JUMP JUMPDEST PUSH1 0x0 PUSH2 0x74A1 DUP4 DUP4 PUSH2 0x73E5 JUMP JUMPDEST SWAP1 POP SWAP3 SWAP2 POP POP JUMP JUMPDEST PUSH1 0x0 DUP3 CALLDATALOAD PUSH1 0x1 PUSH1 0xA0 SUB DUP4 CALLDATASIZE SUB SUB DUP2 SLT PUSH2 0x74C5 JUMPI PUSH2 0x74C4 PUSH2 0x62A6 JUMP JUMPDEST JUMPDEST DUP3 DUP2 ADD SWAP2 POP POP SWAP3 SWAP2 POP POP JUMP JUMPDEST PUSH1 0x0 PUSH1 0x20 DUP3 ADD SWAP1 POP SWAP2 SWAP1 POP JUMP JUMPDEST PUSH1 0x0 PUSH2 0x74EA DUP4 DUP6 PUSH2 0x735D JUMP JUMPDEST SWAP4 POP DUP4 PUSH1 0x20 DUP5 MUL DUP6 ADD PUSH2 0x74FC DUP5 PUSH2 0x736E JUMP JUMPDEST DUP1 PUSH1 0x0 JUMPDEST DUP8 DUP2 LT ISZERO PUSH2 0x7540 JUMPI DUP5 DUP5 SUB DUP10 MSTORE PUSH2 0x7517 DUP3 DUP5 PUSH2 0x74A9 JUMP JUMPDEST PUSH2 0x7521 DUP6 DUP3 PUSH2 0x7495 JUMP JUMPDEST SWAP5 POP PUSH2 0x752C DUP4 PUSH2 0x74D1 JUMP JUMPDEST SWAP3 POP PUSH1 0x20 DUP11 ADD SWAP10 POP POP PUSH1 0x1 DUP2 ADD SWAP1 POP PUSH2 0x7500 JUMP JUMPDEST POP DUP3 SWAP8 POP DUP8 SWAP5 POP POP POP POP POP SWAP4 SWAP3 POP POP POP JUMP JUMPDEST PUSH1 0x0 DUP3 DUP3 MSTORE PUSH1 0x20 DUP3 ADD SWAP1 POP SWAP3 SWAP2 POP POP JUMP JUMPDEST PUSH1 0x0 DUP2 SWAP1 POP SWAP2 SWAP1 POP JUMP JUMPDEST PUSH1 0x2 DUP2 LT PUSH2 0x757A JUMPI PUSH1 0x0 DUP1 REVERT JUMPDEST POP JUMP JUMPDEST PUSH1 0x0 DUP2 CALLDATALOAD SWAP1 POP PUSH2 0x758C DUP2 PUSH2 0x756D JUMP JUMPDEST SWAP3 SWAP2 POP POP JUMP JUMPDEST PUSH1 0x0 PUSH2 0x75A1 PUSH1 0x20 DUP5 ADD DUP5 PUSH2 0x757D JUMP JUMPDEST SWAP1 POP SWAP3 SWAP2 POP POP JUMP JUMPDEST PUSH1 0x2 DUP2 LT PUSH2 0x75BA JUMPI PUSH2 0x75B9 PUSH2 0x4BA2 JUMP JUMPDEST JUMPDEST POP JUMP JUMPDEST PUSH1 0x0 DUP2 SWAP1 POP PUSH2 0x75CB DUP3 PUSH2 0x75A9 JUMP JUMPDEST SWAP2 SWAP1 POP JUMP JUMPDEST PUSH1 0x0 PUSH2 0x75DB DUP3 PUSH2 0x75BD JUMP JUMPDEST SWAP1 POP SWAP2 SWAP1 POP JUMP JUMPDEST PUSH2 0x75EB DUP2 PUSH2 0x75D0 JUMP JUMPDEST DUP3 MSTORE POP POP JUMP JUMPDEST PUSH1 0x0 DUP1 DUP4 CALLDATALOAD PUSH1 0x1 PUSH1 0x20 SUB DUP5 CALLDATASIZE SUB SUB DUP2 SLT PUSH2 0x760E JUMPI PUSH2 0x760D PUSH2 0x62A6 JUMP JUMPDEST JUMPDEST DUP4 DUP2 ADD SWAP3 POP DUP3 CALLDATALOAD SWAP2 POP PUSH1 0x20 DUP4 ADD SWAP3 POP PUSH8 0xFFFFFFFFFFFFFFFF DUP3 GT ISZERO PUSH2 0x7636 JUMPI PUSH2 0x7635 PUSH2 0x62EB JUMP JUMPDEST JUMPDEST PUSH1 0x20 DUP3 MUL CALLDATASIZE SUB DUP4 SGT ISZERO PUSH2 0x764C JUMPI PUSH2 0x764B PUSH2 0x62F0 JUMP JUMPDEST JUMPDEST POP SWAP3 POP SWAP3 SWAP1 POP JUMP JUMPDEST PUSH1 0x0 DUP3 DUP3 MSTORE PUSH1 0x20 DUP3 ADD SWAP1 POP SWAP3 SWAP2 POP POP JUMP JUMPDEST PUSH1 0x0 DUP1 REVERT JUMPDEST DUP3 DUP2 DUP4 CALLDATACOPY POP POP POP JUMP JUMPDEST PUSH1 0x0 PUSH2 0x767F DUP4 DUP6 PUSH2 0x7654 JUMP JUMPDEST SWAP4 POP PUSH32 0x7FFFFFFFFFFFFFFFFFFFFFFFFFFFFFFFFFFFFFFFFFFFFFFFFFFFFFFFFFFFFFF DUP4 GT ISZERO PUSH2 0x76B2 JUMPI PUSH2 0x76B1 PUSH2 0x7665 JUMP JUMPDEST JUMPDEST PUSH1 0x20 DUP4 MUL SWAP3 POP PUSH2 0x76C3 DUP4 DUP6 DUP5 PUSH2 0x766A JUMP JUMPDEST DUP3 DUP5 ADD SWAP1 POP SWAP4 SWAP3 POP POP POP JUMP JUMPDEST PUSH1 0x0 PUSH1 0xA0 DUP4 ADD PUSH2 0x76E2 PUSH1 0x0 DUP5 ADD DUP5 PUSH2 0x638A JUMP JUMPDEST PUSH2 0x76EF PUSH1 0x0 DUP7 ADD DUP3 PUSH2 0x4C28 JUMP JUMPDEST POP PUSH2 0x76FD PUSH1 0x20 DUP5 ADD DUP5 PUSH2 0x7592 JUMP JUMPDEST PUSH2 0x770A PUSH1 0x20 DUP7 ADD DUP3 PUSH2 0x75E2 JUMP JUMPDEST POP PUSH2 0x7718 PUSH1 0x40 DUP5 ADD DUP5 PUSH2 0x638A JUMP JUMPDEST PUSH2 0x7725 PUSH1 0x40 DUP7 ADD DUP3 PUSH2 0x4C28 JUMP JUMPDEST POP PUSH2 0x7733 PUSH1 0x60 DUP5 ADD DUP5 PUSH2 0x638A JUMP JUMPDEST PUSH2 0x7740 PUSH1 0x60 DUP7 ADD DUP3 PUSH2 0x4C28 JUMP JUMPDEST POP PUSH2 0x774E PUSH1 0x80 DUP5 ADD DUP5 PUSH2 0x75F1 JUMP JUMPDEST DUP6 DUP4 SUB PUSH1 0x80 DUP8 ADD MSTORE PUSH2 0x7761 DUP4 DUP3 DUP5 PUSH2 0x7673 JUMP JUMPDEST SWAP3 POP POP POP DUP1 SWAP2 POP POP SWAP3 SWAP2 POP POP JUMP JUMPDEST PUSH1 0x0 PUSH2 0x777B DUP4 DUP4 PUSH2 0x76CF JUMP JUMPDEST SWAP1 POP SWAP3 SWAP2 POP POP JUMP JUMPDEST PUSH1 0x0 DUP3 CALLDATALOAD PUSH1 0x1 PUSH1 0xA0 SUB DUP4 CALLDATASIZE SUB SUB DUP2 SLT PUSH2 0x779F JUMPI PUSH2 0x779E PUSH2 0x62A6 JUMP JUMPDEST JUMPDEST DUP3 DUP2 ADD SWAP2 POP POP SWAP3 SWAP2 POP POP JUMP JUMPDEST PUSH1 0x0 PUSH1 0x20 DUP3 ADD SWAP1 POP SWAP2 SWAP1 POP JUMP JUMPDEST PUSH1 0x0 PUSH2 0x77C4 DUP4 DUP6 PUSH2 0x7552 JUMP JUMPDEST SWAP4 POP DUP4 PUSH1 0x20 DUP5 MUL DUP6 ADD PUSH2 0x77D6 DUP5 PUSH2 0x7563 JUMP JUMPDEST DUP1 PUSH1 0x0 JUMPDEST DUP8 DUP2 LT ISZERO PUSH2 0x781A JUMPI DUP5 DUP5 SUB DUP10 MSTORE PUSH2 0x77F1 DUP3 DUP5 PUSH2 0x7783 JUMP JUMPDEST PUSH2 0x77FB DUP6 DUP3 PUSH2 0x776F JUMP JUMPDEST SWAP5 POP PUSH2 0x7806 DUP4 PUSH2 0x77AB JUMP JUMPDEST SWAP3 POP PUSH1 0x20 DUP11 ADD SWAP10 POP POP PUSH1 0x1 DUP2 ADD SWAP1 POP PUSH2 0x77DA JUMP JUMPDEST POP DUP3 SWAP8 POP DUP8 SWAP5 POP POP POP POP POP SWAP4 SWAP3 POP POP POP JUMP JUMPDEST PUSH2 0x7835 DUP2 PUSH2 0x4459 JUMP JUMPDEST DUP3 MSTORE POP POP JUMP JUMPDEST PUSH1 0x0 PUSH1 0xE0 DUP3 ADD SWAP1 POP DUP2 DUP2 SUB PUSH1 0x0 DUP4 ADD MSTORE PUSH2 0x7856 DUP2 DUP14 DUP16 PUSH2 0x74DE JUMP JUMPDEST SWAP1 POP DUP2 DUP2 SUB PUSH1 0x20 DUP4 ADD MSTORE PUSH2 0x786B DUP2 DUP12 DUP14 PUSH2 0x77B8 JUMP JUMPDEST SWAP1 POP DUP2 DUP2 SUB PUSH1 0x40 DUP4 ADD MSTORE PUSH2 0x7880 DUP2 DUP10 DUP12 PUSH2 0x7129 JUMP JUMPDEST SWAP1 POP DUP2 DUP2 SUB PUSH1 0x60 DUP4 ADD MSTORE PUSH2 0x7895 DUP2 DUP8 DUP10 PUSH2 0x7129 JUMP JUMPDEST SWAP1 POP PUSH2 0x78A4 PUSH1 0x80 DUP4 ADD DUP7 PUSH2 0x4F97 JUMP JUMPDEST PUSH2 0x78B1 PUSH1 0xA0 DUP4 ADD DUP6 PUSH2 0x782C JUMP JUMPDEST PUSH2 0x78BE PUSH1 0xC0 DUP4 ADD DUP5 PUSH2 0x450D JUMP JUMPDEST SWAP13 SWAP12 POP POP POP POP POP POP POP POP POP POP POP POP JUMP JUMPDEST PUSH1 0x0 PUSH2 0x78DA DUP3 DUP5 PUSH2 0x61A1 JUMP JUMPDEST SWAP2 POP DUP2 SWAP1 POP SWAP3 SWAP2 POP POP JUMP JUMPDEST PUSH1 0x0 DUP1 PUSH1 0x0 DUP1 PUSH1 0x80 DUP6 DUP8 SUB SLT ISZERO PUSH2 0x78FF JUMPI PUSH2 0x78FE PUSH2 0x442F JUMP JUMPDEST JUMPDEST PUSH1 0x0 PUSH2 0x790D DUP8 DUP3 DUP9 ADD PUSH2 0x7239 JUMP JUMPDEST SWAP5 POP POP PUSH1 0x20 PUSH2 0x791E DUP8 DUP3 DUP9 ADD PUSH2 0x7239 JUMP JUMPDEST SWAP4 POP POP PUSH1 0x40 PUSH2 0x792F DUP8 DUP3 DUP9 ADD PUSH2 0x6D12 JUMP JUMPDEST SWAP3 POP POP PUSH1 0x60 PUSH2 0x7940 DUP8 DUP3 DUP9 ADD PUSH2 0x6D12 JUMP JUMPDEST SWAP2 POP POP SWAP3 SWAP6 SWAP2 SWAP5 POP SWAP3 POP JUMP JUMPDEST PUSH1 0x0 PUSH1 0x20 DUP3 ADD SWAP1 POP DUP2 DUP2 SUB PUSH1 0x0 DUP4 ADD MSTORE PUSH2 0x7967 DUP2 DUP5 DUP7 PUSH2 0x6993 JUMP JUMPDEST SWAP1 POP SWAP4 SWAP3 POP POP POP JUMP JUMPDEST PUSH1 0x0 PUSH1 0x20 DUP3 DUP5 SUB SLT ISZERO PUSH2 0x7986 JUMPI PUSH2 0x7985 PUSH2 0x442F JUMP JUMPDEST JUMPDEST PUSH1 0x0 PUSH2 0x7994 DUP5 DUP3 DUP6 ADD PUSH2 0x7239 JUMP JUMPDEST SWAP2 POP POP SWAP3 SWAP2 POP POP JUMP JUMPDEST PUSH1 0x0 PUSH1 0xA0 DUP4 ADD PUSH2 0x79B0 PUSH1 0x0 DUP5 ADD DUP5 PUSH2 0x62AB JUMP JUMPDEST DUP5 DUP3 SUB PUSH1 0x0 DUP7 ADD MSTORE PUSH2 0x79C2 DUP3 DUP3 PUSH2 0x6701 JUMP JUMPDEST SWAP2 POP POP PUSH2 0x79D2 PUSH1 0x20 DUP5 ADD DUP5 PUSH2 0x73BF JUMP JUMPDEST PUSH2 0x79DF PUSH1 0x20 DUP7 ADD DUP3 PUSH2 0x73D6 JUMP JUMPDEST POP PUSH2 0x79ED PUSH1 0x40 DUP5 ADD DUP5 PUSH2 0x73BF JUMP JUMPDEST PUSH2 0x79FA PUSH1 0x40 DUP7 ADD DUP3 PUSH2 0x73D6 JUMP JUMPDEST POP PUSH2 0x7A08 PUSH1 0x60 DUP5 ADD DUP5 PUSH2 0x6853 JUMP JUMPDEST DUP6 DUP4 SUB PUSH1 0x60 DUP8 ADD MSTORE PUSH2 0x7A1B DUP4 DUP3 DUP5 PUSH2 0x68C7 JUMP JUMPDEST SWAP3 POP POP POP PUSH2 0x7A2C PUSH1 0x80 DUP5 ADD DUP5 PUSH2 0x6853 JUMP JUMPDEST DUP6 DUP4 SUB PUSH1 0x80 DUP8 ADD MSTORE PUSH2 0x7A3F DUP4 DUP3 DUP5 PUSH2 0x68C7 JUMP JUMPDEST SWAP3 POP POP POP DUP1 SWAP2 POP POP SWAP3 SWAP2 POP POP JUMP JUMPDEST PUSH1 0x0 PUSH1 0x80 DUP3 ADD SWAP1 POP DUP2 DUP2 SUB PUSH1 0x0 DUP4 ADD MSTORE PUSH2 0x7A67 DUP2 DUP9 PUSH2 0x799D JUMP JUMPDEST SWAP1 POP DUP2 DUP2 SUB PUSH1 0x20 DUP4 ADD MSTORE PUSH2 0x7A7C DUP2 DUP7 DUP9 PUSH2 0x77B8 JUMP JUMPDEST SWAP1 POP PUSH2 0x7A8B PUSH1 0x40 DUP4 ADD DUP6 PUSH2 0x4F97 JUMP JUMPDEST PUSH2 0x7A98 PUSH1 0x60 DUP4 ADD DUP5 PUSH2 0x782C JUMP JUMPDEST SWAP7 SWAP6 POP POP POP POP POP POP JUMP JUMPDEST PUSH1 0x0 DUP2 MLOAD SWAP1 POP SWAP2 SWAP1 POP JUMP JUMPDEST PUSH1 0x0 DUP2 SWAP1 POP PUSH1 0x20 DUP3 ADD SWAP1 POP SWAP2 SWAP1 POP JUMP JUMPDEST PUSH1 0xA0 DUP3 ADD PUSH1 0x0 DUP3 ADD MLOAD PUSH2 0x7AD3 PUSH1 0x0 DUP6 ADD DUP3 PUSH2 0x4C0A JUMP JUMPDEST POP PUSH1 0x20 DUP3 ADD MLOAD PUSH2 0x7AE6 PUSH1 0x20 DUP6 ADD DUP3 PUSH2 0x4C19 JUMP JUMPDEST POP PUSH1 0x40 DUP3 ADD MLOAD PUSH2 0x7AF9 PUSH1 0x40 DUP6 ADD DUP3 PUSH2 0x4C28 JUMP JUMPDEST POP PUSH1 0x60 DUP3 ADD MLOAD PUSH2 0x7B0C PUSH1 0x60 DUP6 ADD DUP3 PUSH2 0x4C28 JUMP JUMPDEST POP PUSH1 0x80 DUP3 ADD MLOAD PUSH2 0x7B1F PUSH1 0x80 DUP6 ADD DUP3 PUSH2 0x4C28 JUMP JUMPDEST POP POP POP POP JUMP JUMPDEST PUSH1 0x0 PUSH2 0x7B31 DUP4 DUP4 PUSH2 0x7ABD JUMP JUMPDEST PUSH1 0xA0 DUP4 ADD SWAP1 POP SWAP3 SWAP2 POP POP JUMP JUMPDEST PUSH1 0x0 PUSH1 0x20 DUP3 ADD SWAP1 POP SWAP2 SWAP1 POP JUMP JUMPDEST PUSH1 0x0 PUSH2 0x7B55 DUP3 PUSH2 0x7AA2 JUMP JUMPDEST PUSH2 0x7B5F DUP2 DUP6 PUSH2 0x6358 JUMP JUMPDEST SWAP4 POP PUSH2 0x7B6A DUP4 PUSH2 0x7AAD JUMP JUMPDEST DUP1 PUSH1 0x0 JUMPDEST DUP4 DUP2 LT ISZERO PUSH2 0x7B9B JUMPI DUP2 MLOAD PUSH2 0x7B82 DUP9 DUP3 PUSH2 0x7B25 JUMP JUMPDEST SWAP8 POP PUSH2 0x7B8D DUP4 PUSH2 0x7B3D JUMP JUMPDEST SWAP3 POP POP PUSH1 0x1 DUP2 ADD SWAP1 POP PUSH2 0x7B6E JUMP JUMPDEST POP DUP6 SWAP4 POP POP POP POP SWAP3 SWAP2 POP POP JUMP JUMPDEST PUSH1 0x0 DUP2 MLOAD SWAP1 POP SWAP2 SWAP1 POP JUMP JUMPDEST PUSH1 0x0 DUP2 SWAP1 POP PUSH1 0x20 DUP3 ADD SWAP1 POP SWAP2 SWAP1 POP JUMP JUMPDEST PUSH1 0xC0 DUP3 ADD PUSH1 0x0 DUP3 ADD MLOAD PUSH2 0x7BD9 PUSH1 0x0 DUP6 ADD DUP3 PUSH2 0x4C0A JUMP JUMPDEST POP PUSH1 0x20 DUP3 ADD MLOAD PUSH2 0x7BEC PUSH1 0x20 DUP6 ADD DUP3 PUSH2 0x4C19 JUMP JUMPDEST POP PUSH1 0x40 DUP3 ADD MLOAD PUSH2 0x7BFF PUSH1 0x40 DUP6 ADD DUP3 PUSH2 0x4C28 JUMP JUMPDEST POP PUSH1 0x60 DUP3 ADD MLOAD PUSH2 0x7C12 PUSH1 0x60 DUP6 ADD DUP3 PUSH2 0x4C28 JUMP JUMPDEST POP PUSH1 0x80 DUP3 ADD MLOAD PUSH2 0x7C25 PUSH1 0x80 DUP6 ADD DUP3 PUSH2 0x4C28 JUMP JUMPDEST POP PUSH1 0xA0 DUP3 ADD MLOAD PUSH2 0x7C38 PUSH1 0xA0 DUP6 ADD DUP3 PUSH2 0x4C49 JUMP JUMPDEST POP POP POP POP JUMP JUMPDEST PUSH1 0x0 PUSH2 0x7C4A DUP4 DUP4 PUSH2 0x7BC3 JUMP JUMPDEST PUSH1 0xC0 DUP4 ADD SWAP1 POP SWAP3 SWAP2 POP POP JUMP JUMPDEST PUSH1 0x0 PUSH1 0x20 DUP3 ADD SWAP1 POP SWAP2 SWAP1 POP JUMP JUMPDEST PUSH1 0x0 PUSH2 0x7C6E DUP3 PUSH2 0x7BA8 JUMP JUMPDEST PUSH2 0x7C78 DUP2 DUP6 PUSH2 0x6521 JUMP JUMPDEST SWAP4 POP PUSH2 0x7C83 DUP4 PUSH2 0x7BB3 JUMP JUMPDEST DUP1 PUSH1 0x0 JUMPDEST DUP4 DUP2 LT ISZERO PUSH2 0x7CB4 JUMPI DUP2 MLOAD PUSH2 0x7C9B DUP9 DUP3 PUSH2 0x7C3E JUMP JUMPDEST SWAP8 POP PUSH2 0x7CA6 DUP4 PUSH2 0x7C56 JUMP JUMPDEST SWAP3 POP POP PUSH1 0x1 DUP2 ADD SWAP1 POP PUSH2 0x7C87 JUMP JUMPDEST POP DUP6 SWAP4 POP POP POP POP SWAP3 SWAP2 POP POP JUMP JUMPDEST PUSH1 0x0 PUSH2 0x160 DUP4 ADD PUSH1 0x0 DUP4 ADD MLOAD PUSH2 0x7CDA PUSH1 0x0 DUP7 ADD DUP3 PUSH2 0x4C19 JUMP JUMPDEST POP PUSH1 0x20 DUP4 ADD MLOAD PUSH2 0x7CED PUSH1 0x20 DUP7 ADD DUP3 PUSH2 0x4C19 JUMP JUMPDEST POP PUSH1 0x40 DUP4 ADD MLOAD DUP5 DUP3 SUB PUSH1 0x40 DUP7 ADD MSTORE PUSH2 0x7D05 DUP3 DUP3 PUSH2 0x7B4A JUMP JUMPDEST SWAP2 POP POP PUSH1 0x60 DUP4 ADD MLOAD DUP5 DUP3 SUB PUSH1 0x60 DUP7 ADD MSTORE PUSH2 0x7D1F DUP3 DUP3 PUSH2 0x7C63 JUMP JUMPDEST SWAP2 POP POP PUSH1 0x80 DUP4 ADD MLOAD PUSH2 0x7D34 PUSH1 0x80 DUP7 ADD DUP3 PUSH2 0x66DB JUMP JUMPDEST POP PUSH1 0xA0 DUP4 ADD MLOAD PUSH2 0x7D47 PUSH1 0xA0 DUP7 ADD DUP3 PUSH2 0x4C28 JUMP JUMPDEST POP PUSH1 0xC0 DUP4 ADD MLOAD PUSH2 0x7D5A PUSH1 0xC0 DUP7 ADD DUP3 PUSH2 0x4C28 JUMP JUMPDEST POP PUSH1 0xE0 DUP4 ADD MLOAD PUSH2 0x7D6D PUSH1 0xE0 DUP7 ADD DUP3 PUSH2 0x4CCA JUMP JUMPDEST POP PUSH2 0x100 DUP4 ADD MLOAD PUSH2 0x7D82 PUSH2 0x100 DUP7 ADD DUP3 PUSH2 0x4C28 JUMP JUMPDEST POP PUSH2 0x120 DUP4 ADD MLOAD PUSH2 0x7D97 PUSH2 0x120 DUP7 ADD DUP3 PUSH2 0x4CCA JUMP JUMPDEST POP PUSH2 0x140 DUP4 ADD MLOAD PUSH2 0x7DAC PUSH2 0x140 DUP7 ADD DUP3 PUSH2 0x4C28 JUMP JUMPDEST POP DUP1 SWAP2 POP POP SWAP3 SWAP2 POP POP JUMP JUMPDEST PUSH1 0x0 DUP2 MLOAD SWAP1 POP SWAP2 SWAP1 POP JUMP JUMPDEST PUSH1 0x0 PUSH2 0x7DCD DUP3 PUSH2 0x7DB7 JUMP JUMPDEST PUSH2 0x7DD7 DUP2 DUP6 PUSH2 0x68B6 JUMP JUMPDEST SWAP4 POP PUSH2 0x7DE7 DUP2 DUP6 PUSH1 0x20 DUP7 ADD PUSH2 0x4826 JUMP JUMPDEST PUSH2 0x7DF0 DUP2 PUSH2 0x4541 JUMP JUMPDEST DUP5 ADD SWAP2 POP POP SWAP3 SWAP2 POP POP JUMP JUMPDEST PUSH1 0x0 PUSH1 0x40 DUP4 ADD PUSH1 0x0 DUP4 ADD MLOAD DUP5 DUP3 SUB PUSH1 0x0 DUP7 ADD MSTORE PUSH2 0x7E18 DUP3 DUP3 PUSH2 0x7CC1 JUMP JUMPDEST SWAP2 POP POP PUSH1 0x20 DUP4 ADD MLOAD DUP5 DUP3 SUB PUSH1 0x20 DUP7 ADD MSTORE PUSH2 0x7E32 DUP3 DUP3 PUSH2 0x7DC2 JUMP JUMPDEST SWAP2 POP POP DUP1 SWAP2 POP POP SWAP3 SWAP2 POP POP JUMP JUMPDEST PUSH1 0x0 PUSH1 0x40 DUP3 ADD SWAP1 POP DUP2 DUP2 SUB PUSH1 0x0 DUP4 ADD MSTORE PUSH2 0x7E59 DUP2 DUP6 PUSH2 0x7DFB JUMP JUMPDEST SWAP1 POP PUSH2 0x7E68 PUSH1 0x20 DUP4 ADD DUP5 PUSH2 0x4F97 JUMP JUMPDEST SWAP4 SWAP3 POP POP POP JUMP JUMPDEST PUSH1 0x0 PUSH1 0x80 DUP3 ADD SWAP1 POP DUP2 DUP2 SUB PUSH1 0x0 DUP4 ADD MSTORE PUSH2 0x7E8A DUP2 DUP10 DUP12 PUSH2 0x74DE JUMP JUMPDEST SWAP1 POP DUP2 DUP2 SUB PUSH1 0x20 DUP4 ADD MSTORE PUSH2 0x7E9F DUP2 DUP8 DUP10 PUSH2 0x77B8 JUMP JUMPDEST SWAP1 POP DUP2 DUP2 SUB PUSH1 0x40 DUP4 ADD MSTORE PUSH2 0x7EB4 DUP2 DUP6 DUP8 PUSH2 0x6C0D JUMP JUMPDEST SWAP1 POP PUSH2 0x7EC3 PUSH1 0x60 DUP4 ADD DUP5 PUSH2 0x782C JUMP JUMPDEST SWAP9 SWAP8 POP POP POP POP POP POP POP POP JUMP JUMPDEST PUSH32 0x496E697469616C697A61626C653A20636F6E747261637420697320616C726561 PUSH1 0x0 DUP3 ADD MSTORE PUSH32 0x647920696E697469616C697A6564000000000000000000000000000000000000 PUSH1 0x20 DUP3 ADD MSTORE POP JUMP JUMPDEST PUSH1 0x0 PUSH2 0x7F2B PUSH1 0x2E DUP4 PUSH2 0x4815 JUMP JUMPDEST SWAP2 POP PUSH2 0x7F36 DUP3 PUSH2 0x7ECF JUMP JUMPDEST PUSH1 0x40 DUP3 ADD SWAP1 POP SWAP2 SWAP1 POP JUMP JUMPDEST PUSH1 0x0 PUSH1 0x20 DUP3 ADD SWAP1 POP DUP2 DUP2 SUB PUSH1 0x0 DUP4 ADD MSTORE PUSH2 0x7F5A DUP2 PUSH2 0x7F1E JUMP JUMPDEST SWAP1 POP SWAP2 SWAP1 POP JUMP JUMPDEST PUSH1 0x0 DUP2 SWAP1 POP SWAP2 SWAP1 POP JUMP JUMPDEST PUSH1 0x0 PUSH1 0xFF DUP3 AND SWAP1 POP SWAP2 SWAP1 POP JUMP JUMPDEST PUSH1 0x0 DUP2 SWAP1 POP SWAP2 SWAP1 POP JUMP JUMPDEST PUSH1 0x0 PUSH2 0x7F9D PUSH2 0x7F98 PUSH2 0x7F93 DUP5 PUSH2 0x7F61 JUMP JUMPDEST PUSH2 0x7F78 JUMP JUMPDEST PUSH2 0x7F6B JUMP JUMPDEST SWAP1 POP SWAP2 SWAP1 POP JUMP JUMPDEST PUSH2 0x7FAD DUP2 PUSH2 0x7F82 JUMP JUMPDEST DUP3 MSTORE POP POP JUMP JUMPDEST PUSH1 0x0 PUSH1 0x20 DUP3 ADD SWAP1 POP PUSH2 0x7FC8 PUSH1 0x0 DUP4 ADD DUP5 PUSH2 0x7FA4 JUMP JUMPDEST SWAP3 SWAP2 POP POP JUMP JUMPDEST PUSH1 0x0 PUSH2 0x160 DUP4 ADD PUSH2 0x7FE2 PUSH1 0x0 DUP5 ADD DUP5 PUSH2 0x62D4 JUMP JUMPDEST PUSH2 0x7FEF PUSH1 0x0 DUP7 ADD DUP3 PUSH2 0x4C19 JUMP JUMPDEST POP PUSH2 0x7FFD PUSH1 0x20 DUP5 ADD DUP5 PUSH2 0x62D4 JUMP JUMPDEST PUSH2 0x800A PUSH1 0x20 DUP7 ADD DUP3 PUSH2 0x4C19 JUMP JUMPDEST POP PUSH2 0x8018 PUSH1 0x40 DUP5 ADD DUP5 PUSH2 0x62F5 JUMP JUMPDEST DUP6 DUP4 SUB PUSH1 0x40 DUP8 ADD MSTORE PUSH2 0x802B DUP4 DUP3 DUP5 PUSH2 0x6461 JUMP JUMPDEST SWAP3 POP POP POP PUSH2 0x803C PUSH1 0x60 DUP5 ADD DUP5 PUSH2 0x64BE JUMP JUMPDEST DUP6 DUP4 SUB PUSH1 0x60 DUP8 ADD MSTORE PUSH2 0x804F DUP4 DUP3 DUP5 PUSH2 0x662E JUMP JUMPDEST SWAP3 POP POP POP PUSH2 0x8060 PUSH1 0x80 DUP5 ADD DUP5 PUSH2 0x668B JUMP JUMPDEST PUSH2 0x806D PUSH1 0x80 DUP7 ADD DUP3 PUSH2 0x66DB JUMP JUMPDEST POP PUSH2 0x807B PUSH1 0xA0 DUP5 ADD DUP5 PUSH2 0x638A JUMP JUMPDEST PUSH2 0x8088 PUSH1 0xA0 DUP7 ADD DUP3 PUSH2 0x4C28 JUMP JUMPDEST POP PUSH2 0x8096 PUSH1 0xC0 DUP5 ADD DUP5 PUSH2 0x638A JUMP JUMPDEST PUSH2 0x80A3 PUSH1 0xC0 DUP7 ADD DUP3 PUSH2 0x4C28 JUMP JUMPDEST POP PUSH2 0x80B1 PUSH1 0xE0 DUP5 ADD DUP5 PUSH2 0x66EA JUMP JUMPDEST PUSH2 0x80BE PUSH1 0xE0 DUP7 ADD DUP3 PUSH2 0x4CCA JUMP JUMPDEST POP PUSH2 0x80CD PUSH2 0x100 DUP5 ADD DUP5 PUSH2 0x638A JUMP JUMPDEST PUSH2 0x80DB PUSH2 0x100 DUP7 ADD DUP3 PUSH2 0x4C28 JUMP JUMPDEST POP PUSH2 0x80EA PUSH2 0x120 DUP5 ADD DUP5 PUSH2 0x66EA JUMP JUMPDEST PUSH2 0x80F8 PUSH2 0x120 DUP7 ADD DUP3 PUSH2 0x4CCA JUMP JUMPDEST POP PUSH2 0x8107 PUSH2 0x140 DUP5 ADD DUP5 PUSH2 0x638A JUMP JUMPDEST PUSH2 0x8115 PUSH2 0x140 DUP7 ADD DUP3 PUSH2 0x4C28 JUMP JUMPDEST POP DUP1 SWAP2 POP POP SWAP3 SWAP2 POP POP JUMP JUMPDEST PUSH1 0x0 PUSH1 0x20 DUP3 ADD SWAP1 POP DUP2 DUP2 SUB PUSH1 0x0 DUP4 ADD MSTORE PUSH2 0x813A DUP2 DUP5 PUSH2 0x7FCE JUMP JUMPDEST SWAP1 POP SWAP3 SWAP2 POP POP JUMP JUMPDEST PUSH1 0x0 PUSH1 0x20 DUP3 DUP5 SUB SLT ISZERO PUSH2 0x8158 JUMPI PUSH2 0x8157 PUSH2 0x442F JUMP JUMPDEST JUMPDEST PUSH1 0x0 PUSH2 0x8166 DUP5 DUP3 DUP6 ADD PUSH2 0x6DC8 JUMP JUMPDEST SWAP2 POP POP SWAP3 SWAP2 POP POP JUMP JUMPDEST PUSH1 0x0 DUP3 DUP3 MSTORE PUSH1 0x20 DUP3 ADD SWAP1 POP SWAP3 SWAP2 POP POP JUMP JUMPDEST PUSH1 0x0 DUP2 SWAP1 POP SWAP2 SWAP1 POP JUMP JUMPDEST PUSH1 0x0 PUSH2 0x160 DUP4 ADD PUSH2 0x819E PUSH1 0x0 DUP5 ADD DUP5 PUSH2 0x62D4 JUMP JUMPDEST PUSH2 0x81AB PUSH1 0x0 DUP7 ADD DUP3 PUSH2 0x4C19 JUMP JUMPDEST POP PUSH2 0x81B9 PUSH1 0x20 DUP5 ADD DUP5 PUSH2 0x62D4 JUMP JUMPDEST PUSH2 0x81C6 PUSH1 0x20 DUP7 ADD DUP3 PUSH2 0x4C19 JUMP JUMPDEST POP PUSH2 0x81D4 PUSH1 0x40 DUP5 ADD DUP5 PUSH2 0x62F5 JUMP JUMPDEST DUP6 DUP4 SUB PUSH1 0x40 DUP8 ADD MSTORE PUSH2 0x81E7 DUP4 DUP3 DUP5 PUSH2 0x6461 JUMP JUMPDEST SWAP3 POP POP POP PUSH2 0x81F8 PUSH1 0x60 DUP5 ADD DUP5 PUSH2 0x64BE JUMP JUMPDEST DUP6 DUP4 SUB PUSH1 0x60 DUP8 ADD MSTORE PUSH2 0x820B DUP4 DUP3 DUP5 PUSH2 0x662E JUMP JUMPDEST SWAP3 POP POP POP PUSH2 0x821C PUSH1 0x80 DUP5 ADD DUP5 PUSH2 0x668B JUMP JUMPDEST PUSH2 0x8229 PUSH1 0x80 DUP7 ADD DUP3 PUSH2 0x66DB JUMP JUMPDEST POP PUSH2 0x8237 PUSH1 0xA0 DUP5 ADD DUP5 PUSH2 0x638A JUMP JUMPDEST PUSH2 0x8244 PUSH1 0xA0 DUP7 ADD DUP3 PUSH2 0x4C28 JUMP JUMPDEST POP PUSH2 0x8252 PUSH1 0xC0 DUP5 ADD DUP5 PUSH2 0x638A JUMP JUMPDEST PUSH2 0x825F PUSH1 0xC0 DUP7 ADD DUP3 PUSH2 0x4C28 JUMP JUMPDEST POP PUSH2 0x826D PUSH1 0xE0 DUP5 ADD DUP5 PUSH2 0x66EA JUMP JUMPDEST PUSH2 0x827A PUSH1 0xE0 DUP7 ADD DUP3 PUSH2 0x4CCA JUMP JUMPDEST POP PUSH2 0x8289 PUSH2 0x100 DUP5 ADD DUP5 PUSH2 0x638A JUMP JUMPDEST PUSH2 0x8297 PUSH2 0x100 DUP7 ADD DUP3 PUSH2 0x4C28 JUMP JUMPDEST POP PUSH2 0x82A6 PUSH2 0x120 DUP5 ADD DUP5 PUSH2 0x66EA JUMP JUMPDEST PUSH2 0x82B4 PUSH2 0x120 DUP7 ADD DUP3 PUSH2 0x4CCA JUMP JUMPDEST POP PUSH2 0x82C3 PUSH2 0x140 DUP5 ADD DUP5 PUSH2 0x638A JUMP JUMPDEST PUSH2 0x82D1 PUSH2 0x140 DUP7 ADD DUP3 PUSH2 0x4C28 JUMP JUMPDEST POP DUP1 SWAP2 POP POP SWAP3 SWAP2 POP POP JUMP JUMPDEST PUSH1 0x0 PUSH2 0x82E8 DUP4 DUP4 PUSH2 0x818A JUMP JUMPDEST SWAP1 POP SWAP3 SWAP2 POP POP JUMP JUMPDEST PUSH1 0x0 DUP3 CALLDATALOAD PUSH1 0x1 PUSH2 0x160 SUB DUP4 CALLDATASIZE SUB SUB DUP2 SLT PUSH2 0x830D JUMPI PUSH2 0x830C PUSH2 0x62A6 JUMP JUMPDEST JUMPDEST DUP3 DUP2 ADD SWAP2 POP POP SWAP3 SWAP2 POP POP JUMP JUMPDEST PUSH1 0x0 PUSH1 0x20 DUP3 ADD SWAP1 POP SWAP2 SWAP1 POP JUMP JUMPDEST PUSH1 0x0 PUSH2 0x8332 DUP4 DUP6 PUSH2 0x816F JUMP JUMPDEST SWAP4 POP DUP4 PUSH1 0x20 DUP5 MUL DUP6 ADD PUSH2 0x8344 DUP5 PUSH2 0x8180 JUMP JUMPDEST DUP1 PUSH1 0x0 JUMPDEST DUP8 DUP2 LT ISZERO PUSH2 0x8388 JUMPI DUP5 DUP5 SUB DUP10 MSTORE PUSH2 0x835F DUP3 DUP5 PUSH2 0x82F0 JUMP JUMPDEST PUSH2 0x8369 DUP6 DUP3 PUSH2 0x82DC JUMP JUMPDEST SWAP5 POP PUSH2 0x8374 DUP4 PUSH2 0x8319 JUMP JUMPDEST SWAP3 POP PUSH1 0x20 DUP11 ADD SWAP10 POP POP PUSH1 0x1 DUP2 ADD SWAP1 POP PUSH2 0x8348 JUMP JUMPDEST POP DUP3 SWAP8 POP DUP8 SWAP5 POP POP POP POP POP SWAP4 SWAP3 POP POP POP JUMP JUMPDEST PUSH1 0x0 PUSH1 0x20 DUP3 ADD SWAP1 POP DUP2 DUP2 SUB PUSH1 0x0 DUP4 ADD MSTORE PUSH2 0x83B5 DUP2 DUP5 DUP7 PUSH2 0x8326 JUMP JUMPDEST SWAP1 POP SWAP4 SWAP3 POP POP POP JUMP JUMPDEST PUSH1 0x0 PUSH1 0x20 DUP3 ADD SWAP1 POP PUSH2 0x83D3 PUSH1 0x0 DUP4 ADD DUP5 PUSH2 0x782C JUMP JUMPDEST SWAP3 SWAP2 POP POP JUMP JUMPDEST PUSH1 0x0 PUSH1 0x20 DUP3 DUP5 SUB SLT ISZERO PUSH2 0x83EF JUMPI PUSH2 0x83EE PUSH2 0x442F JUMP JUMPDEST JUMPDEST PUSH1 0x0 PUSH2 0x83FD DUP5 DUP3 DUP6 ADD PUSH2 0x6D12 JUMP JUMPDEST SWAP2 POP POP SWAP3 SWAP2 POP POP JUMP JUMPDEST PUSH32 0x455243313135353A2061646472657373207A65726F206973206E6F7420612076 PUSH1 0x0 DUP3 ADD MSTORE PUSH32 0x616C6964206F776E657200000000000000000000000000000000000000000000 PUSH1 0x20 DUP3 ADD MSTORE POP JUMP JUMPDEST PUSH1 0x0 PUSH2 0x8462 PUSH1 0x2A DUP4 PUSH2 0x4815 JUMP JUMPDEST SWAP2 POP PUSH2 0x846D DUP3 PUSH2 0x8406 JUMP JUMPDEST PUSH1 0x40 DUP3 ADD SWAP1 POP SWAP2 SWAP1 POP JUMP JUMPDEST PUSH1 0x0 PUSH1 0x20 DUP3 ADD SWAP1 POP DUP2 DUP2 SUB PUSH1 0x0 DUP4 ADD MSTORE PUSH2 0x8491 DUP2 PUSH2 0x8455 JUMP JUMPDEST SWAP1 POP SWAP2 SWAP1 POP JUMP JUMPDEST PUSH32 0x5061757361626C653A2070617573656400000000000000000000000000000000 PUSH1 0x0 DUP3 ADD MSTORE POP JUMP JUMPDEST PUSH1 0x0 PUSH2 0x84CE PUSH1 0x10 DUP4 PUSH2 0x4815 JUMP JUMPDEST SWAP2 POP PUSH2 0x84D9 DUP3 PUSH2 0x8498 JUMP JUMPDEST PUSH1 0x20 DUP3 ADD SWAP1 POP SWAP2 SWAP1 POP JUMP JUMPDEST PUSH1 0x0 PUSH1 0x20 DUP3 ADD SWAP1 POP DUP2 DUP2 SUB PUSH1 0x0 DUP4 ADD MSTORE PUSH2 0x84FD DUP2 PUSH2 0x84C1 JUMP JUMPDEST SWAP1 POP SWAP2 SWAP1 POP JUMP JUMPDEST PUSH1 0x0 DUP2 SWAP1 POP DUP2 PUSH1 0x0 MSTORE PUSH1 0x20 PUSH1 0x0 KECCAK256 SWAP1 POP SWAP2 SWAP1 POP JUMP JUMPDEST PUSH1 0x0 PUSH1 0x20 PUSH1 0x1F DUP4 ADD DIV SWAP1 POP SWAP2 SWAP1 POP JUMP JUMPDEST PUSH1 0x0 DUP3 DUP3 SHL SWAP1 POP SWAP3 SWAP2 POP POP JUMP JUMPDEST PUSH1 0x0 PUSH1 0x8 DUP4 MUL PUSH2 0x8566 PUSH32 0xFFFFFFFFFFFFFFFFFFFFFFFFFFFFFFFFFFFFFFFFFFFFFFFFFFFFFFFFFFFFFFFF DUP3 PUSH2 0x8529 JUMP JUMPDEST PUSH2 0x8570 DUP7 DUP4 PUSH2 0x8529 JUMP JUMPDEST SWAP6 POP DUP1 NOT DUP5 AND SWAP4 POP DUP1 DUP7 AND DUP5 OR SWAP3 POP POP POP SWAP4 SWAP3 POP POP POP JUMP JUMPDEST PUSH1 0x0 PUSH2 0x85A3 PUSH2 0x859E PUSH2 0x8599 DUP5 PUSH2 0x4497 JUMP JUMPDEST PUSH2 0x7F78 JUMP JUMPDEST PUSH2 0x4497 JUMP JUMPDEST SWAP1 POP SWAP2 SWAP1 POP JUMP JUMPDEST PUSH1 0x0 DUP2 SWAP1 POP SWAP2 SWAP1 POP JUMP JUMPDEST PUSH2 0x85BD DUP4 PUSH2 0x8588 JUMP JUMPDEST PUSH2 0x85D1 PUSH2 0x85C9 DUP3 PUSH2 0x85AA JUMP JUMPDEST DUP5 DUP5 SLOAD PUSH2 0x8536 JUMP JUMPDEST DUP3 SSTORE POP POP POP POP JUMP JUMPDEST PUSH1 0x0 SWAP1 JUMP JUMPDEST PUSH2 0x85E6 PUSH2 0x85D9 JUMP JUMPDEST PUSH2 0x85F1 DUP2 DUP5 DUP5 PUSH2 0x85B4 JUMP JUMPDEST POP POP POP JUMP JUMPDEST JUMPDEST DUP2 DUP2 LT ISZERO PUSH2 0x8615 JUMPI PUSH2 0x860A PUSH1 0x0 DUP3 PUSH2 0x85DE JUMP JUMPDEST PUSH1 0x1 DUP2 ADD SWAP1 POP PUSH2 0x85F7 JUMP JUMPDEST POP POP JUMP JUMPDEST PUSH1 0x1F DUP3 GT ISZERO PUSH2 0x865A JUMPI PUSH2 0x862B DUP2 PUSH2 0x8504 JUMP JUMPDEST PUSH2 0x8634 DUP5 PUSH2 0x8519 JUMP JUMPDEST DUP2 ADD PUSH1 0x20 DUP6 LT ISZERO PUSH2 0x8643 JUMPI DUP2 SWAP1 POP JUMPDEST PUSH2 0x8657 PUSH2 0x864F DUP6 PUSH2 0x8519 JUMP JUMPDEST DUP4 ADD DUP3 PUSH2 0x85F6 JUMP JUMPDEST POP POP JUMPDEST POP POP POP JUMP JUMPDEST PUSH1 0x0 DUP3 DUP3 SHR SWAP1 POP SWAP3 SWAP2 POP POP JUMP JUMPDEST PUSH1 0x0 PUSH2 0x867D PUSH1 0x0 NOT DUP5 PUSH1 0x8 MUL PUSH2 0x865F JUMP JUMPDEST NOT DUP1 DUP4 AND SWAP2 POP POP SWAP3 SWAP2 POP POP JUMP JUMPDEST PUSH1 0x0 PUSH2 0x8696 DUP4 DUP4 PUSH2 0x866C JUMP JUMPDEST SWAP2 POP DUP3 PUSH1 0x2 MUL DUP3 OR SWAP1 POP SWAP3 SWAP2 POP POP JUMP JUMPDEST PUSH2 0x86AF DUP3 PUSH2 0x480A JUMP JUMPDEST PUSH8 0xFFFFFFFFFFFFFFFF DUP2 GT ISZERO PUSH2 0x86C8 JUMPI PUSH2 0x86C7 PUSH2 0x4552 JUMP JUMPDEST JUMPDEST PUSH2 0x86D2 DUP3 SLOAD PUSH2 0x625A JUMP JUMPDEST PUSH2 0x86DD DUP3 DUP3 DUP6 PUSH2 0x8619 JUMP JUMPDEST PUSH1 0x0 PUSH1 0x20 SWAP1 POP PUSH1 0x1F DUP4 GT PUSH1 0x1 DUP2 EQ PUSH2 0x8710 JUMPI PUSH1 0x0 DUP5 ISZERO PUSH2 0x86FE JUMPI DUP3 DUP8 ADD MLOAD SWAP1 POP JUMPDEST PUSH2 0x8708 DUP6 DUP3 PUSH2 0x868A JUMP JUMPDEST DUP7 SSTORE POP PUSH2 0x8770 JUMP JUMPDEST PUSH1 0x1F NOT DUP5 AND PUSH2 0x871E DUP7 PUSH2 0x8504 JUMP JUMPDEST PUSH1 0x0 JUMPDEST DUP3 DUP2 LT ISZERO PUSH2 0x8746 JUMPI DUP5 DUP10 ADD MLOAD DUP3 SSTORE PUSH1 0x1 DUP3 ADD SWAP2 POP PUSH1 0x20 DUP6 ADD SWAP5 POP PUSH1 0x20 DUP2 ADD SWAP1 POP PUSH2 0x8721 JUMP JUMPDEST DUP7 DUP4 LT ISZERO PUSH2 0x8763 JUMPI DUP5 DUP10 ADD MLOAD PUSH2 0x875F PUSH1 0x1F DUP10 AND DUP3 PUSH2 0x866C JUMP JUMPDEST DUP4 SSTORE POP JUMPDEST PUSH1 0x1 PUSH1 0x2 DUP9 MUL ADD DUP9 SSTORE POP POP POP JUMPDEST POP POP POP POP POP POP JUMP JUMPDEST PUSH32 0x4E487B7100000000000000000000000000000000000000000000000000000000 PUSH1 0x0 MSTORE PUSH1 0x12 PUSH1 0x4 MSTORE PUSH1 0x24 PUSH1 0x0 REVERT JUMPDEST PUSH32 0x455243313135353A206D696E7420746F20746865207A65726F20616464726573 PUSH1 0x0 DUP3 ADD MSTORE PUSH32 0x7300000000000000000000000000000000000000000000000000000000000000 PUSH1 0x20 DUP3 ADD MSTORE POP JUMP JUMPDEST PUSH1 0x0 PUSH2 0x8803 PUSH1 0x21 DUP4 PUSH2 0x4815 JUMP JUMPDEST SWAP2 POP PUSH2 0x880E DUP3 PUSH2 0x87A7 JUMP JUMPDEST PUSH1 0x40 DUP3 ADD SWAP1 POP SWAP2 SWAP1 POP JUMP JUMPDEST PUSH1 0x0 PUSH1 0x20 DUP3 ADD SWAP1 POP DUP2 DUP2 SUB PUSH1 0x0 DUP4 ADD MSTORE PUSH2 0x8832 DUP2 PUSH2 0x87F6 JUMP JUMPDEST SWAP1 POP SWAP2 SWAP1 POP JUMP JUMPDEST PUSH32 0x455243313135353A2069647320616E6420616D6F756E7473206C656E67746820 PUSH1 0x0 DUP3 ADD MSTORE PUSH32 0x6D69736D61746368000000000000000000000000000000000000000000000000 PUSH1 0x20 DUP3 ADD MSTORE POP JUMP JUMPDEST PUSH1 0x0 PUSH2 0x8895 PUSH1 0x28 DUP4 PUSH2 0x4815 JUMP JUMPDEST SWAP2 POP PUSH2 0x88A0 DUP3 PUSH2 0x8839 JUMP JUMPDEST PUSH1 0x40 DUP3 ADD SWAP1 POP SWAP2 SWAP1 POP JUMP JUMPDEST PUSH1 0x0 PUSH1 0x20 DUP3 ADD SWAP1 POP DUP2 DUP2 SUB PUSH1 0x0 DUP4 ADD MSTORE PUSH2 0x88C4 DUP2 PUSH2 0x8888 JUMP JUMPDEST SWAP1 POP SWAP2 SWAP1 POP JUMP JUMPDEST PUSH1 0x0 PUSH2 0x88D6 DUP3 PUSH2 0x4497 JUMP JUMPDEST SWAP2 POP PUSH2 0x88E1 DUP4 PUSH2 0x4497 JUMP JUMPDEST SWAP3 POP DUP3 DUP3 ADD SWAP1 POP DUP1 DUP3 GT ISZERO PUSH2 0x88F9 JUMPI PUSH2 0x88F8 PUSH2 0x6F50 JUMP JUMPDEST JUMPDEST SWAP3 SWAP2 POP POP JUMP JUMPDEST PUSH1 0x0 PUSH1 0x40 DUP3 ADD SWAP1 POP DUP2 DUP2 SUB PUSH1 0x0 DUP4 ADD MSTORE PUSH2 0x8919 DUP2 DUP6 PUSH2 0x5483 JUMP JUMPDEST SWAP1 POP DUP2 DUP2 SUB PUSH1 0x20 DUP4 ADD MSTORE PUSH2 0x892D DUP2 DUP5 PUSH2 0x5483 JUMP JUMPDEST SWAP1 POP SWAP4 SWAP3 POP POP POP JUMP JUMPDEST PUSH32 0x455243313135353A207472616E7366657220746F20746865207A65726F206164 PUSH1 0x0 DUP3 ADD MSTORE PUSH32 0x6472657373000000000000000000000000000000000000000000000000000000 PUSH1 0x20 DUP3 ADD MSTORE POP JUMP JUMPDEST PUSH1 0x0 PUSH2 0x8992 PUSH1 0x25 DUP4 PUSH2 0x4815 JUMP JUMPDEST SWAP2 POP PUSH2 0x899D DUP3 PUSH2 0x8936 JUMP JUMPDEST PUSH1 0x40 DUP3 ADD SWAP1 POP SWAP2 SWAP1 POP JUMP JUMPDEST PUSH1 0x0 PUSH1 0x20 DUP3 ADD SWAP1 POP DUP2 DUP2 SUB PUSH1 0x0 DUP4 ADD MSTORE PUSH2 0x89C1 DUP2 PUSH2 0x8985 JUMP JUMPDEST SWAP1 POP SWAP2 SWAP1 POP JUMP JUMPDEST PUSH32 0x455243313135353A20696E73756666696369656E742062616C616E636520666F PUSH1 0x0 DUP3 ADD MSTORE PUSH32 0x72207472616E7366657200000000000000000000000000000000000000000000 PUSH1 0x20 DUP3 ADD MSTORE POP JUMP JUMPDEST PUSH1 0x0 PUSH2 0x8A24 PUSH1 0x2A DUP4 PUSH2 0x4815 JUMP JUMPDEST SWAP2 POP PUSH2 0x8A2F DUP3 PUSH2 0x89C8 JUMP JUMPDEST PUSH1 0x40 DUP3 ADD SWAP1 POP SWAP2 SWAP1 POP JUMP JUMPDEST PUSH1 0x0 PUSH1 0x20 DUP3 ADD SWAP1 POP DUP2 DUP2 SUB PUSH1 0x0 DUP4 ADD MSTORE PUSH2 0x8A53 DUP2 PUSH2 0x8A17 JUMP JUMPDEST SWAP1 POP SWAP2 SWAP1 POP JUMP JUMPDEST PUSH32 0x455243313135353A206163636F756E747320616E6420696473206C656E677468 PUSH1 0x0 DUP3 ADD MSTORE PUSH32 0x206D69736D617463680000000000000000000000000000000000000000000000 PUSH1 0x20 DUP3 ADD MSTORE POP JUMP JUMPDEST PUSH1 0x0 PUSH2 0x8AB6 PUSH1 0x29 DUP4 PUSH2 0x4815 JUMP JUMPDEST SWAP2 POP PUSH2 0x8AC1 DUP3 PUSH2 0x8A5A JUMP JUMPDEST PUSH1 0x40 DUP3 ADD SWAP1 POP SWAP2 SWAP1 POP JUMP JUMPDEST PUSH1 0x0 PUSH1 0x20 DUP3 ADD SWAP1 POP DUP2 DUP2 SUB PUSH1 0x0 DUP4 ADD MSTORE PUSH2 0x8AE5 DUP2 PUSH2 0x8AA9 JUMP JUMPDEST SWAP1 POP SWAP2 SWAP1 POP JUMP JUMPDEST PUSH1 0x0 PUSH1 0x40 DUP3 ADD SWAP1 POP PUSH2 0x8B01 PUSH1 0x0 DUP4 ADD DUP6 PUSH2 0x450D JUMP JUMPDEST PUSH2 0x8B0E PUSH1 0x20 DUP4 ADD DUP5 PUSH2 0x450D JUMP JUMPDEST SWAP4 SWAP3 POP POP POP JUMP JUMPDEST PUSH32 0x496E697469616C697A61626C653A20636F6E7472616374206973206E6F742069 PUSH1 0x0 DUP3 ADD MSTORE PUSH32 0x6E697469616C697A696E67000000000000000000000000000000000000000000 PUSH1 0x20 DUP3 ADD MSTORE POP JUMP JUMPDEST PUSH1 0x0 PUSH2 0x8B71 PUSH1 0x2B DUP4 PUSH2 0x4815 JUMP JUMPDEST SWAP2 POP PUSH2 0x8B7C DUP3 PUSH2 0x8B15 JUMP JUMPDEST PUSH1 0x40 DUP3 ADD SWAP1 POP SWAP2 SWAP1 POP JUMP JUMPDEST PUSH1 0x0 PUSH1 0x20 DUP3 ADD SWAP1 POP DUP2 DUP2 SUB PUSH1 0x0 DUP4 ADD MSTORE PUSH2 0x8BA0 DUP2 PUSH2 0x8B64 JUMP JUMPDEST SWAP1 POP SWAP2 SWAP1 POP JUMP JUMPDEST PUSH32 0x416363657373436F6E74726F6C3A206163636F756E7420000000000000000000 PUSH1 0x0 DUP3 ADD MSTORE POP JUMP JUMPDEST PUSH1 0x0 PUSH2 0x8BDD PUSH1 0x17 DUP4 PUSH2 0x6196 JUMP JUMPDEST SWAP2 POP PUSH2 0x8BE8 DUP3 PUSH2 0x8BA7 JUMP JUMPDEST PUSH1 0x17 DUP3 ADD SWAP1 POP SWAP2 SWAP1 POP JUMP JUMPDEST PUSH32 0x206973206D697373696E6720726F6C6520000000000000000000000000000000 PUSH1 0x0 DUP3 ADD MSTORE POP JUMP JUMPDEST PUSH1 0x0 PUSH2 0x8C29 PUSH1 0x11 DUP4 PUSH2 0x6196 JUMP JUMPDEST SWAP2 POP PUSH2 0x8C34 DUP3 PUSH2 0x8BF3 JUMP JUMPDEST PUSH1 0x11 DUP3 ADD SWAP1 POP SWAP2 SWAP1 POP JUMP JUMPDEST PUSH1 0x0 PUSH2 0x8C4A DUP3 PUSH2 0x8BD0 JUMP JUMPDEST SWAP2 POP PUSH2 0x8C56 DUP3 DUP6 PUSH2 0x61A1 JUMP JUMPDEST SWAP2 POP PUSH2 0x8C61 DUP3 PUSH2 0x8C1C JUMP JUMPDEST SWAP2 POP PUSH2 0x8C6D DUP3 DUP5 PUSH2 0x61A1 JUMP JUMPDEST SWAP2 POP DUP2 SWAP1 POP SWAP4 SWAP3 POP POP POP JUMP JUMPDEST PUSH1 0x0 DUP3 DUP3 MSTORE PUSH1 0x20 DUP3 ADD SWAP1 POP SWAP3 SWAP2 POP POP JUMP JUMPDEST PUSH1 0x0 PUSH2 0x8C95 DUP3 PUSH2 0x7DB7 JUMP JUMPDEST PUSH2 0x8C9F DUP2 DUP6 PUSH2 0x8C79 JUMP JUMPDEST SWAP4 POP PUSH2 0x8CAF DUP2 DUP6 PUSH1 0x20 DUP7 ADD PUSH2 0x4826 JUMP JUMPDEST PUSH2 0x8CB8 DUP2 PUSH2 0x4541 JUMP JUMPDEST DUP5 ADD SWAP2 POP POP SWAP3 SWAP2 POP POP JUMP JUMPDEST PUSH1 0x0 PUSH1 0xA0 DUP3 ADD SWAP1 POP PUSH2 0x8CD8 PUSH1 0x0 DUP4 ADD DUP9 PUSH2 0x782C JUMP JUMPDEST PUSH2 0x8CE5 PUSH1 0x20 DUP4 ADD DUP8 PUSH2 0x782C JUMP JUMPDEST DUP2 DUP2 SUB PUSH1 0x40 DUP4 ADD MSTORE PUSH2 0x8CF7 DUP2 DUP7 PUSH2 0x5483 JUMP JUMPDEST SWAP1 POP DUP2 DUP2 SUB PUSH1 0x60 DUP4 ADD MSTORE PUSH2 0x8D0B DUP2 DUP6 PUSH2 0x5483 JUMP JUMPDEST SWAP1 POP DUP2 DUP2 SUB PUSH1 0x80 DUP4 ADD MSTORE PUSH2 0x8D1F DUP2 DUP5 PUSH2 0x8C8A JUMP JUMPDEST SWAP1 POP SWAP7 SWAP6 POP POP POP POP POP POP JUMP JUMPDEST PUSH1 0x0 DUP2 MLOAD SWAP1 POP PUSH2 0x8D3A DUP2 PUSH2 0x4705 JUMP JUMPDEST SWAP3 SWAP2 POP POP JUMP JUMPDEST PUSH1 0x0 PUSH1 0x20 DUP3 DUP5 SUB SLT ISZERO PUSH2 0x8D56 JUMPI PUSH2 0x8D55 PUSH2 0x442F JUMP JUMPDEST JUMPDEST PUSH1 0x0 PUSH2 0x8D64 DUP5 DUP3 DUP6 ADD PUSH2 0x8D2B JUMP JUMPDEST SWAP2 POP POP SWAP3 SWAP2 POP POP JUMP JUMPDEST PUSH1 0x0 DUP2 PUSH1 0xE0 SHR SWAP1 POP SWAP2 SWAP1 POP JUMP JUMPDEST PUSH1 0x0 PUSH1 0x3 RETURNDATASIZE GT ISZERO PUSH2 0x8D99 JUMPI PUSH1 0x4 PUSH1 0x0 DUP1 RETURNDATACOPY PUSH2 0x8D96 PUSH1 0x0 MLOAD PUSH2 0x8D6D JUMP JUMPDEST SWAP1 POP JUMPDEST SWAP1 JUMP JUMPDEST PUSH1 0x0 PUSH1 0x44 RETURNDATASIZE LT PUSH2 0x8E29 JUMPI PUSH2 0x8DAE PUSH2 0x4425 JUMP JUMPDEST PUSH1 0x4 RETURNDATASIZE SUB PUSH1 0x4 DUP3 RETURNDATACOPY DUP1 MLOAD RETURNDATASIZE PUSH1 0x24 DUP3 ADD GT PUSH8 0xFFFFFFFFFFFFFFFF DUP3 GT OR ISZERO PUSH2 0x8DD6 JUMPI POP POP PUSH2 0x8E29 JUMP JUMPDEST DUP1 DUP3 ADD DUP1 MLOAD PUSH8 0xFFFFFFFFFFFFFFFF DUP2 GT ISZERO PUSH2 0x8DF4 JUMPI POP POP POP POP PUSH2 0x8E29 JUMP JUMPDEST DUP1 PUSH1 0x20 DUP4 ADD ADD PUSH1 0x4 RETURNDATASIZE SUB DUP6 ADD DUP2 GT ISZERO PUSH2 0x8E11 JUMPI POP POP POP POP POP PUSH2 0x8E29 JUMP JUMPDEST PUSH2 0x8E20 DUP3 PUSH1 0x20 ADD DUP6 ADD DUP7 PUSH2 0x4581 JUMP JUMPDEST DUP3 SWAP6 POP POP POP POP POP POP JUMPDEST SWAP1 JUMP JUMPDEST PUSH32 0x455243313135353A207472616E7366657220746F206E6F6E2D45524331313535 PUSH1 0x0 DUP3 ADD MSTORE PUSH32 0x526563656976657220696D706C656D656E746572000000000000000000000000 PUSH1 0x20 DUP3 ADD MSTORE POP JUMP JUMPDEST PUSH1 0x0 PUSH2 0x8E88 PUSH1 0x34 DUP4 PUSH2 0x4815 JUMP JUMPDEST SWAP2 POP PUSH2 0x8E93 DUP3 PUSH2 0x8E2C JUMP JUMPDEST PUSH1 0x40 DUP3 ADD SWAP1 POP SWAP2 SWAP1 POP JUMP JUMPDEST PUSH1 0x0 PUSH1 0x20 DUP3 ADD SWAP1 POP DUP2 DUP2 SUB PUSH1 0x0 DUP4 ADD MSTORE PUSH2 0x8EB7 DUP2 PUSH2 0x8E7B JUMP JUMPDEST SWAP1 POP SWAP2 SWAP1 POP JUMP JUMPDEST PUSH32 0x455243313135353A204552433131353552656365697665722072656A65637465 PUSH1 0x0 DUP3 ADD MSTORE PUSH32 0x6420746F6B656E73000000000000000000000000000000000000000000000000 PUSH1 0x20 DUP3 ADD MSTORE POP JUMP JUMPDEST PUSH1 0x0 PUSH2 0x8F1A PUSH1 0x28 DUP4 PUSH2 0x4815 JUMP JUMPDEST SWAP2 POP PUSH2 0x8F25 DUP3 PUSH2 0x8EBE JUMP JUMPDEST PUSH1 0x40 DUP3 ADD SWAP1 POP SWAP2 SWAP1 POP JUMP JUMPDEST PUSH1 0x0 PUSH1 0x20 DUP3 ADD SWAP1 POP DUP2 DUP2 SUB PUSH1 0x0 DUP4 ADD MSTORE PUSH2 0x8F49 DUP2 PUSH2 0x8F0D JUMP JUMPDEST SWAP1 POP SWAP2 SWAP1 POP JUMP JUMPDEST PUSH32 0x5061757361626C653A206E6F7420706175736564000000000000000000000000 PUSH1 0x0 DUP3 ADD MSTORE POP JUMP JUMPDEST PUSH1 0x0 PUSH2 0x8F86 PUSH1 0x14 DUP4 PUSH2 0x4815 JUMP JUMPDEST SWAP2 POP PUSH2 0x8F91 DUP3 PUSH2 0x8F50 JUMP JUMPDEST PUSH1 0x20 DUP3 ADD SWAP1 POP SWAP2 SWAP1 POP JUMP JUMPDEST PUSH1 0x0 PUSH1 0x20 DUP3 ADD SWAP1 POP DUP2 DUP2 SUB PUSH1 0x0 DUP4 ADD MSTORE PUSH2 0x8FB5 DUP2 PUSH2 0x8F79 JUMP JUMPDEST SWAP1 POP SWAP2 SWAP1 POP JUMP JUMPDEST PUSH32 0x455243313135353A206275726E2066726F6D20746865207A65726F2061646472 PUSH1 0x0 DUP3 ADD MSTORE PUSH32 0x6573730000000000000000000000000000000000000000000000000000000000 PUSH1 0x20 DUP3 ADD MSTORE POP JUMP JUMPDEST PUSH1 0x0 PUSH2 0x9018 PUSH1 0x23 DUP4 PUSH2 0x4815 JUMP JUMPDEST SWAP2 POP PUSH2 0x9023 DUP3 PUSH2 0x8FBC JUMP JUMPDEST PUSH1 0x40 DUP3 ADD SWAP1 POP SWAP2 SWAP1 POP JUMP JUMPDEST PUSH1 0x0 PUSH1 0x20 DUP3 ADD SWAP1 POP DUP2 DUP2 SUB PUSH1 0x0 DUP4 ADD MSTORE PUSH2 0x9047 DUP2 PUSH2 0x900B JUMP JUMPDEST SWAP1 POP SWAP2 SWAP1 POP JUMP JUMPDEST PUSH32 0x455243313135353A206275726E20616D6F756E7420657863656564732062616C PUSH1 0x0 DUP3 ADD MSTORE PUSH32 0x616E636500000000000000000000000000000000000000000000000000000000 PUSH1 0x20 DUP3 ADD MSTORE POP JUMP JUMPDEST PUSH1 0x0 PUSH2 0x90AA PUSH1 0x24 DUP4 PUSH2 0x4815 JUMP JUMPDEST SWAP2 POP PUSH2 0x90B5 DUP3 PUSH2 0x904E JUMP JUMPDEST PUSH1 0x40 DUP3 ADD SWAP1 POP SWAP2 SWAP1 POP JUMP JUMPDEST PUSH1 0x0 PUSH1 0x20 DUP3 ADD SWAP1 POP DUP2 DUP2 SUB PUSH1 0x0 DUP4 ADD MSTORE PUSH2 0x90D9 DUP2 PUSH2 0x909D JUMP JUMPDEST SWAP1 POP SWAP2 SWAP1 POP JUMP JUMPDEST PUSH1 0x0 PUSH1 0xA0 DUP3 ADD SWAP1 POP PUSH2 0x90F5 PUSH1 0x0 DUP4 ADD DUP9 PUSH2 0x782C JUMP JUMPDEST PUSH2 0x9102 PUSH1 0x20 DUP4 ADD DUP8 PUSH2 0x782C JUMP JUMPDEST PUSH2 0x910F PUSH1 0x40 DUP4 ADD DUP7 PUSH2 0x450D JUMP JUMPDEST PUSH2 0x911C PUSH1 0x60 DUP4 ADD DUP6 PUSH2 0x450D JUMP JUMPDEST DUP2 DUP2 SUB PUSH1 0x80 DUP4 ADD MSTORE PUSH2 0x912E DUP2 DUP5 PUSH2 0x8C8A JUMP JUMPDEST SWAP1 POP SWAP7 SWAP6 POP POP POP POP POP POP JUMP JUMPDEST PUSH32 0x455243313135353A2073657474696E6720617070726F76616C20737461747573 PUSH1 0x0 DUP3 ADD MSTORE PUSH32 0x20666F722073656C660000000000000000000000000000000000000000000000 PUSH1 0x20 DUP3 ADD MSTORE POP JUMP JUMPDEST PUSH1 0x0 PUSH2 0x9196 PUSH1 0x29 DUP4 PUSH2 0x4815 JUMP JUMPDEST SWAP2 POP PUSH2 0x91A1 DUP3 PUSH2 0x913A JUMP JUMPDEST PUSH1 0x40 DUP3 ADD SWAP1 POP SWAP2 SWAP1 POP JUMP JUMPDEST PUSH1 0x0 PUSH1 0x20 DUP3 ADD SWAP1 POP DUP2 DUP2 SUB PUSH1 0x0 DUP4 ADD MSTORE PUSH2 0x91C5 DUP2 PUSH2 0x9189 JUMP JUMPDEST SWAP1 POP SWAP2 SWAP1 POP JUMP JUMPDEST PUSH1 0x0 PUSH2 0x91D7 DUP3 PUSH2 0x4497 JUMP JUMPDEST SWAP2 POP PUSH2 0x91E2 DUP4 PUSH2 0x4497 JUMP JUMPDEST SWAP3 POP DUP3 DUP3 MUL PUSH2 0x91F0 DUP2 PUSH2 0x4497 JUMP JUMPDEST SWAP2 POP DUP3 DUP3 DIV DUP5 EQ DUP4 ISZERO OR PUSH2 0x9207 JUMPI PUSH2 0x9206 PUSH2 0x6F50 JUMP JUMPDEST JUMPDEST POP SWAP3 SWAP2 POP POP JUMP JUMPDEST PUSH1 0x0 PUSH2 0x9219 DUP3 PUSH2 0x4497 JUMP JUMPDEST SWAP2 POP PUSH1 0x0 DUP3 SUB PUSH2 0x922C JUMPI PUSH2 0x922B PUSH2 0x6F50 JUMP JUMPDEST JUMPDEST PUSH1 0x1 DUP3 SUB SWAP1 POP SWAP2 SWAP1 POP JUMP JUMPDEST PUSH32 0x537472696E67733A20686578206C656E67746820696E73756666696369656E74 PUSH1 0x0 DUP3 ADD MSTORE POP JUMP JUMPDEST PUSH1 0x0 PUSH2 0x926D PUSH1 0x20 DUP4 PUSH2 0x4815 JUMP JUMPDEST SWAP2 POP PUSH2 0x9278 DUP3 PUSH2 0x9237 JUMP JUMPDEST PUSH1 0x20 DUP3 ADD SWAP1 POP SWAP2 SWAP1 POP JUMP JUMPDEST PUSH1 0x0 PUSH1 0x20 DUP3 ADD SWAP1 POP DUP2 DUP2 SUB PUSH1 0x0 DUP4 ADD MSTORE PUSH2 0x929C DUP2 PUSH2 0x9260 JUMP JUMPDEST SWAP1 POP SWAP2 SWAP1 POP JUMP JUMPDEST PUSH32 0x455243313135353A206275726E20616D6F756E74206578636565647320746F74 PUSH1 0x0 DUP3 ADD MSTORE PUSH32 0x616C537570706C79000000000000000000000000000000000000000000000000 PUSH1 0x20 DUP3 ADD MSTORE POP JUMP JUMPDEST PUSH1 0x0 PUSH2 0x92FF PUSH1 0x28 DUP4 PUSH2 0x4815 JUMP JUMPDEST SWAP2 POP PUSH2 0x930A DUP3 PUSH2 0x92A3 JUMP JUMPDEST PUSH1 0x40 DUP3 ADD SWAP1 POP SWAP2 SWAP1 POP JUMP JUMPDEST PUSH1 0x0 PUSH1 0x20 DUP3 ADD SWAP1 POP DUP2 DUP2 SUB PUSH1 0x0 DUP4 ADD MSTORE PUSH2 0x932E DUP2 PUSH2 0x92F2 JUMP JUMPDEST SWAP1 POP SWAP2 SWAP1 POP JUMP INVALID LOG2 PUSH5 0x6970667358 0x22 SLT KECCAK256 MSIZE 0xBE SLT DUP4 0x4B 0xA6 0xC6 RETURN 0xDA LOG2 0xF6 0x1F 0xBA SLOAD MULMOD SWAP3 SIGNEXTEND 0x5F 0x4A RETURNDATACOPY 0x4D 0x5D 0xB2 0xB5 0x4E 0xD6 SWAP14 CALLCODE 0xB4 SWAP8 MSTORE JUMP PUSH5 0x736F6C6343 STOP ADDMOD SLT STOP CALLER "
		},
		"gasEstimates": {
			"creation": {
				"codeDepositCost": "7547800",
				"executionCost": "infinite",
				"totalCost": "infinite"
			},
			"external": {
				"DEFAULT_ADMIN_ROLE()": "468",
				"allCancel((address,address,(uint8,address,uint256,uint256,uint256)[],(uint8,address,uint256,uint256,uint256,address)[],uint8,uint256,uint256,bytes32,uint256,bytes32,uint256)[])": "infinite",
				"balanceOf(address,uint256)": "infinite",
				"balanceOfBatch(address[],uint256[])": "infinite",
				"burn(address,uint256,uint256)": "infinite",
				"burnBatch(address,uint256[],uint256[])": "infinite",
				"callFulfillAdvancedOrder(((address,address,(uint8,address,uint256,uint256,uint256)[],(uint8,address,uint256,uint256,uint256,address)[],uint8,uint256,uint256,bytes32,uint256,bytes32,uint256),uint120,uint120,bytes,bytes),(uint256,uint8,uint256,uint256,bytes32[])[],bytes32,address)": "infinite",
				"callFulfillAvailableAdvancedOrders(((address,address,(uint8,address,uint256,uint256,uint256)[],(uint8,address,uint256,uint256,uint256,address)[],uint8,uint256,uint256,bytes32,uint256,bytes32,uint256),uint120,uint120,bytes,bytes)[],(uint256,uint8,uint256,uint256,bytes32[])[],(uint256,uint256)[][],(uint256,uint256)[][],bytes32,address,uint256)": "infinite",
				"callFulfillAvailableOrders(((address,address,(uint8,address,uint256,uint256,uint256)[],(uint8,address,uint256,uint256,uint256,address)[],uint8,uint256,uint256,bytes32,uint256,bytes32,uint256),bytes)[],(uint256,uint256)[][],(uint256,uint256)[][],bytes32,uint256)": "infinite",
				"callGetCounter(address)": "infinite",
				"callGetOrderHash((address,address,(uint8,address,uint256,uint256,uint256)[],(uint8,address,uint256,uint256,uint256,address)[],uint8,uint256,uint256,bytes32,uint256,bytes32,uint256))": "infinite",
				"callGetOrderStatus(bytes32)": "infinite",
				"callIncrementCounter()": "infinite",
				"callMatchAdvancedOrders(((address,address,(uint8,address,uint256,uint256,uint256)[],(uint8,address,uint256,uint256,uint256,address)[],uint8,uint256,uint256,bytes32,uint256,bytes32,uint256),uint120,uint120,bytes,bytes)[],(uint256,uint8,uint256,uint256,bytes32[])[],((uint256,uint256)[],(uint256,uint256)[])[],address)": "infinite",
				"callMatchOrders(((address,address,(uint8,address,uint256,uint256,uint256)[],(uint8,address,uint256,uint256,uint256,address)[],uint8,uint256,uint256,bytes32,uint256,bytes32,uint256),bytes)[],((uint256,uint256)[],(uint256,uint256)[])[])": "infinite",
				"callValidate(((address,address,(uint8,address,uint256,uint256,uint256)[],(uint8,address,uint256,uint256,uint256,address)[],uint8,uint256,uint256,bytes32,uint256,bytes32,uint256),bytes)[])": "infinite",
				"exists(uint256)": "2902",
				"fulfillOrder(((address,address,(uint8,address,uint256,uint256,uint256)[],(uint8,address,uint256,uint256,uint256,address)[],uint8,uint256,uint256,bytes32,uint256,bytes32,uint256),bytes),bytes32)": "infinite",
				"getIdSupply(uint256)": "infinite",
				"getRoleAdmin(bytes32)": "infinite",
				"getRoleAdmin(string)": "infinite",
				"getURIOfId(uint256)": "infinite",
				"grantPublisher(string,address)": "infinite",
				"grantRole(bytes32,address)": "infinite",
				"hasRole(bytes32,address)": "3251",
				"hasRole(string,address)": "infinite",
				"idExists(uint256)": "2924",
				"initialize(address)": "infinite",
				"isApprovedForAll(address,address)": "infinite",
				"mint(address,uint256,uint256,bytes)": "infinite",
				"mintBatch(address,uint256[],uint256[],bytes)": "infinite",
				"pause()": "infinite",
				"paused()": "2634",
				"renounceRole(bytes32,address)": "infinite",
				"revokePublisher(string,address)": "infinite",
				"revokeRole(bytes32,address)": "infinite",
				"safeBatchTransferFrom(address,address,uint256[],uint256[],bytes)": "infinite",
				"safeTransferFrom(address,address,uint256,uint256,bytes)": "infinite",
				"setApprovalForAll(address,bool)": "infinite",
				"setIdToPublisher(uint256,string)": "infinite",
				"setURI(string)": "infinite",
				"supportsInterface(bytes4)": "996",
				"totalSupply(uint256)": "infinite",
				"transfer(address,address,uint256,uint256,bytes)": "infinite",
				"transferBatch(address,address,uint256[],uint256[],bytes)": "infinite",
				"unpause()": "infinite",
				"uri(uint256)": "infinite"
			},
			"internal": {
				"_beforeTokenTransfer(address,address,address,uint256[] memory,uint256[] memory,bytes memory)": "infinite"
			}
		},
		"methodIdentifiers": {
			"DEFAULT_ADMIN_ROLE()": "a217fddf",
			"allCancel((address,address,(uint8,address,uint256,uint256,uint256)[],(uint8,address,uint256,uint256,uint256,address)[],uint8,uint256,uint256,bytes32,uint256,bytes32,uint256)[])": "dfd3cb73",
			"balanceOf(address,uint256)": "00fdd58e",
			"balanceOfBatch(address[],uint256[])": "4e1273f4",
			"burn(address,uint256,uint256)": "f5298aca",
			"burnBatch(address,uint256[],uint256[])": "6b20c454",
			"callFulfillAdvancedOrder(((address,address,(uint8,address,uint256,uint256,uint256)[],(uint8,address,uint256,uint256,uint256,address)[],uint8,uint256,uint256,bytes32,uint256,bytes32,uint256),uint120,uint120,bytes,bytes),(uint256,uint8,uint256,uint256,bytes32[])[],bytes32,address)": "8c52e857",
			"callFulfillAvailableAdvancedOrders(((address,address,(uint8,address,uint256,uint256,uint256)[],(uint8,address,uint256,uint256,uint256,address)[],uint8,uint256,uint256,bytes32,uint256,bytes32,uint256),uint120,uint120,bytes,bytes)[],(uint256,uint8,uint256,uint256,bytes32[])[],(uint256,uint256)[][],(uint256,uint256)[][],bytes32,address,uint256)": "50863e8a",
			"callFulfillAvailableOrders(((address,address,(uint8,address,uint256,uint256,uint256)[],(uint8,address,uint256,uint256,uint256,address)[],uint8,uint256,uint256,bytes32,uint256,bytes32,uint256),bytes)[],(uint256,uint256)[][],(uint256,uint256)[][],bytes32,uint256)": "3c1dadd9",
			"callGetCounter(address)": "e0e0a2c5",
			"callGetOrderHash((address,address,(uint8,address,uint256,uint256,uint256)[],(uint8,address,uint256,uint256,uint256,address)[],uint8,uint256,uint256,bytes32,uint256,bytes32,uint256))": "ca36fc91",
			"callGetOrderStatus(bytes32)": "6543908f",
			"callIncrementCounter()": "ef7992bb",
			"callMatchAdvancedOrders(((address,address,(uint8,address,uint256,uint256,uint256)[],(uint8,address,uint256,uint256,uint256,address)[],uint8,uint256,uint256,bytes32,uint256,bytes32,uint256),uint120,uint120,bytes,bytes)[],(uint256,uint8,uint256,uint256,bytes32[])[],((uint256,uint256)[],(uint256,uint256)[])[],address)": "bdc55bc6",
			"callMatchOrders(((address,address,(uint8,address,uint256,uint256,uint256)[],(uint8,address,uint256,uint256,uint256,address)[],uint8,uint256,uint256,bytes32,uint256,bytes32,uint256),bytes)[],((uint256,uint256)[],(uint256,uint256)[])[])": "192c9ef2",
			"callValidate(((address,address,(uint8,address,uint256,uint256,uint256)[],(uint8,address,uint256,uint256,uint256,address)[],uint8,uint256,uint256,bytes32,uint256,bytes32,uint256),bytes)[])": "7d551b23",
			"exists(uint256)": "4f558e79",
			"fulfillOrder(((address,address,(uint8,address,uint256,uint256,uint256)[],(uint8,address,uint256,uint256,uint256,address)[],uint8,uint256,uint256,bytes32,uint256,bytes32,uint256),bytes),bytes32)": "b3a34c4c",
			"getIdSupply(uint256)": "5a9807be",
			"getRoleAdmin(bytes32)": "248a9ca3",
			"getRoleAdmin(string)": "672a41a1",
			"getURIOfId(uint256)": "0807a3bd",
			"grantPublisher(string,address)": "52509e97",
			"grantRole(bytes32,address)": "2f2ff15d",
			"hasRole(bytes32,address)": "91d14854",
			"hasRole(string,address)": "6c9cd097",
			"idExists(uint256)": "0b8a295a",
			"initialize(address)": "c4d66de8",
			"isApprovedForAll(address,address)": "e985e9c5",
			"mint(address,uint256,uint256,bytes)": "731133e9",
			"mintBatch(address,uint256[],uint256[],bytes)": "1f7fdffa",
			"pause()": "8456cb59",
			"paused()": "5c975abb",
			"renounceRole(bytes32,address)": "36568abe",
			"revokePublisher(string,address)": "1286c46d",
			"revokeRole(bytes32,address)": "d547741f",
			"safeBatchTransferFrom(address,address,uint256[],uint256[],bytes)": "2eb2c2d6",
			"safeTransferFrom(address,address,uint256,uint256,bytes)": "f242432a",
			"setApprovalForAll(address,bool)": "a22cb465",
			"setIdToPublisher(uint256,string)": "01ad63bd",
			"setURI(string)": "02fe5305",
			"supportsInterface(bytes4)": "01ffc9a7",
			"totalSupply(uint256)": "bd85b039",
			"transfer(address,address,uint256,uint256,bytes)": "127217d6",
			"transferBatch(address,address,uint256[],uint256[],bytes)": "6fcfcb66",
			"unpause()": "3f4ba83a",
			"uri(uint256)": "0e89341c"
		}
	},
	"abi": [
		{
			"inputs": [],
			"stateMutability": "nonpayable",
			"type": "constructor"
		},
		{
			"anonymous": false,
			"inputs": [
				{
					"indexed": true,
					"internalType": "address",
					"name": "account",
					"type": "address"
				},
				{
					"indexed": true,
					"internalType": "address",
					"name": "operator",
					"type": "address"
				},
				{
					"indexed": false,
					"internalType": "bool",
					"name": "approved",
					"type": "bool"
				}
			],
			"name": "ApprovalForAll",
			"type": "event"
		},
		{
			"anonymous": false,
			"inputs": [
				{
					"indexed": false,
					"internalType": "uint8",
					"name": "version",
					"type": "uint8"
				}
			],
			"name": "Initialized",
			"type": "event"
		},
		{
			"anonymous": false,
			"inputs": [
				{
					"indexed": false,
					"internalType": "address",
					"name": "account",
					"type": "address"
				}
			],
			"name": "Paused",
			"type": "event"
		},
		{
			"anonymous": false,
			"inputs": [
				{
					"indexed": true,
					"internalType": "bytes32",
					"name": "role",
					"type": "bytes32"
				},
				{
					"indexed": true,
					"internalType": "bytes32",
					"name": "previousAdminRole",
					"type": "bytes32"
				},
				{
					"indexed": true,
					"internalType": "bytes32",
					"name": "newAdminRole",
					"type": "bytes32"
				}
			],
			"name": "RoleAdminChanged",
			"type": "event"
		},
		{
			"anonymous": false,
			"inputs": [
				{
					"indexed": true,
					"internalType": "bytes32",
					"name": "role",
					"type": "bytes32"
				},
				{
					"indexed": true,
					"internalType": "address",
					"name": "account",
					"type": "address"
				},
				{
					"indexed": true,
					"internalType": "address",
					"name": "sender",
					"type": "address"
				}
			],
			"name": "RoleGranted",
			"type": "event"
		},
		{
			"anonymous": false,
			"inputs": [
				{
					"indexed": true,
					"internalType": "bytes32",
					"name": "role",
					"type": "bytes32"
				},
				{
					"indexed": true,
					"internalType": "address",
					"name": "account",
					"type": "address"
				},
				{
					"indexed": true,
					"internalType": "address",
					"name": "sender",
					"type": "address"
				}
			],
			"name": "RoleRevoked",
			"type": "event"
		},
		{
			"anonymous": false,
			"inputs": [
				{
					"indexed": true,
					"internalType": "address",
					"name": "operator",
					"type": "address"
				},
				{
					"indexed": true,
					"internalType": "address",
					"name": "from",
					"type": "address"
				},
				{
					"indexed": true,
					"internalType": "address",
					"name": "to",
					"type": "address"
				},
				{
					"indexed": false,
					"internalType": "uint256[]",
					"name": "ids",
					"type": "uint256[]"
				},
				{
					"indexed": false,
					"internalType": "uint256[]",
					"name": "values",
					"type": "uint256[]"
				}
			],
			"name": "TransferBatch",
			"type": "event"
		},
		{
			"anonymous": false,
			"inputs": [
				{
					"indexed": true,
					"internalType": "address",
					"name": "operator",
					"type": "address"
				},
				{
					"indexed": true,
					"internalType": "address",
					"name": "from",
					"type": "address"
				},
				{
					"indexed": true,
					"internalType": "address",
					"name": "to",
					"type": "address"
				},
				{
					"indexed": false,
					"internalType": "uint256",
					"name": "id",
					"type": "uint256"
				},
				{
					"indexed": false,
					"internalType": "uint256",
					"name": "value",
					"type": "uint256"
				}
			],
			"name": "TransferSingle",
			"type": "event"
		},
		{
			"anonymous": false,
			"inputs": [
				{
					"indexed": false,
					"internalType": "string",
					"name": "value",
					"type": "string"
				},
				{
					"indexed": true,
					"internalType": "uint256",
					"name": "id",
					"type": "uint256"
				}
			],
			"name": "URI",
			"type": "event"
		},
		{
			"anonymous": false,
			"inputs": [
				{
					"indexed": false,
					"internalType": "address",
					"name": "account",
					"type": "address"
				}
			],
			"name": "Unpaused",
			"type": "event"
		},
		{
			"inputs": [],
			"name": "DEFAULT_ADMIN_ROLE",
			"outputs": [
				{
					"internalType": "bytes32",
					"name": "",
					"type": "bytes32"
				}
			],
			"stateMutability": "view",
			"type": "function"
		},
		{
			"inputs": [
				{
					"components": [
						{
							"internalType": "address",
							"name": "offerer",
							"type": "address"
						},
						{
							"internalType": "address",
							"name": "zone",
							"type": "address"
						},
						{
							"components": [
								{
									"internalType": "enum ItemType",
									"name": "itemType",
									"type": "uint8"
								},
								{
									"internalType": "address",
									"name": "token",
									"type": "address"
								},
								{
									"internalType": "uint256",
									"name": "identifierOrCriteria",
									"type": "uint256"
								},
								{
									"internalType": "uint256",
									"name": "startAmount",
									"type": "uint256"
								},
								{
									"internalType": "uint256",
									"name": "endAmount",
									"type": "uint256"
								}
							],
							"internalType": "struct OfferItem[]",
							"name": "offer",
							"type": "tuple[]"
						},
						{
							"components": [
								{
									"internalType": "enum ItemType",
									"name": "itemType",
									"type": "uint8"
								},
								{
									"internalType": "address",
									"name": "token",
									"type": "address"
								},
								{
									"internalType": "uint256",
									"name": "identifierOrCriteria",
									"type": "uint256"
								},
								{
									"internalType": "uint256",
									"name": "startAmount",
									"type": "uint256"
								},
								{
									"internalType": "uint256",
									"name": "endAmount",
									"type": "uint256"
								},
								{
									"internalType": "address payable",
									"name": "recipient",
									"type": "address"
								}
							],
							"internalType": "struct ConsiderationItem[]",
							"name": "consideration",
							"type": "tuple[]"
						},
						{
							"internalType": "enum OrderType",
							"name": "orderType",
							"type": "uint8"
						},
						{
							"internalType": "uint256",
							"name": "startTime",
							"type": "uint256"
						},
						{
							"internalType": "uint256",
							"name": "endTime",
							"type": "uint256"
						},
						{
							"internalType": "bytes32",
							"name": "zoneHash",
							"type": "bytes32"
						},
						{
							"internalType": "uint256",
							"name": "salt",
							"type": "uint256"
						},
						{
							"internalType": "bytes32",
							"name": "conduitKey",
							"type": "bytes32"
						},
						{
							"internalType": "uint256",
							"name": "counter",
							"type": "uint256"
						}
					],
					"internalType": "struct OrderComponents[]",
					"name": "orders",
					"type": "tuple[]"
				}
			],
			"name": "allCancel",
			"outputs": [
				{
					"internalType": "bool",
					"name": "cancelled",
					"type": "bool"
				}
			],
			"stateMutability": "nonpayable",
			"type": "function"
		},
		{
			"inputs": [
				{
					"internalType": "address",
					"name": "account",
					"type": "address"
				},
				{
					"internalType": "uint256",
					"name": "id",
					"type": "uint256"
				}
			],
			"name": "balanceOf",
			"outputs": [
				{
					"internalType": "uint256",
					"name": "balance",
					"type": "uint256"
				}
			],
			"stateMutability": "view",
			"type": "function"
		},
		{
			"inputs": [
				{
					"internalType": "address[]",
					"name": "accounts",
					"type": "address[]"
				},
				{
					"internalType": "uint256[]",
					"name": "ids",
					"type": "uint256[]"
				}
			],
			"name": "balanceOfBatch",
			"outputs": [
				{
					"internalType": "uint256[]",
					"name": "",
					"type": "uint256[]"
				}
			],
			"stateMutability": "view",
			"type": "function"
		},
		{
			"inputs": [
				{
					"internalType": "address",
					"name": "from",
					"type": "address"
				},
				{
					"internalType": "uint256",
					"name": "id",
					"type": "uint256"
				},
				{
					"internalType": "uint256",
					"name": "amount",
					"type": "uint256"
				}
			],
			"name": "burn",
			"outputs": [],
			"stateMutability": "nonpayable",
			"type": "function"
		},
		{
			"inputs": [
				{
					"internalType": "address",
					"name": "account",
					"type": "address"
				},
				{
					"internalType": "uint256[]",
					"name": "ids",
					"type": "uint256[]"
				},
				{
					"internalType": "uint256[]",
					"name": "amounts",
					"type": "uint256[]"
				}
			],
			"name": "burnBatch",
			"outputs": [],
			"stateMutability": "nonpayable",
			"type": "function"
		},
		{
			"inputs": [
				{
					"components": [
						{
							"components": [
								{
									"internalType": "address",
									"name": "offerer",
									"type": "address"
								},
								{
									"internalType": "address",
									"name": "zone",
									"type": "address"
								},
								{
									"components": [
										{
											"internalType": "enum ItemType",
											"name": "itemType",
											"type": "uint8"
										},
										{
											"internalType": "address",
											"name": "token",
											"type": "address"
										},
										{
											"internalType": "uint256",
											"name": "identifierOrCriteria",
											"type": "uint256"
										},
										{
											"internalType": "uint256",
											"name": "startAmount",
											"type": "uint256"
										},
										{
											"internalType": "uint256",
											"name": "endAmount",
											"type": "uint256"
										}
									],
									"internalType": "struct OfferItem[]",
									"name": "offer",
									"type": "tuple[]"
								},
								{
									"components": [
										{
											"internalType": "enum ItemType",
											"name": "itemType",
											"type": "uint8"
										},
										{
											"internalType": "address",
											"name": "token",
											"type": "address"
										},
										{
											"internalType": "uint256",
											"name": "identifierOrCriteria",
											"type": "uint256"
										},
										{
											"internalType": "uint256",
											"name": "startAmount",
											"type": "uint256"
										},
										{
											"internalType": "uint256",
											"name": "endAmount",
											"type": "uint256"
										},
										{
											"internalType": "address payable",
											"name": "recipient",
											"type": "address"
										}
									],
									"internalType": "struct ConsiderationItem[]",
									"name": "consideration",
									"type": "tuple[]"
								},
								{
									"internalType": "enum OrderType",
									"name": "orderType",
									"type": "uint8"
								},
								{
									"internalType": "uint256",
									"name": "startTime",
									"type": "uint256"
								},
								{
									"internalType": "uint256",
									"name": "endTime",
									"type": "uint256"
								},
								{
									"internalType": "bytes32",
									"name": "zoneHash",
									"type": "bytes32"
								},
								{
									"internalType": "uint256",
									"name": "salt",
									"type": "uint256"
								},
								{
									"internalType": "bytes32",
									"name": "conduitKey",
									"type": "bytes32"
								},
								{
									"internalType": "uint256",
									"name": "totalOriginalConsiderationItems",
									"type": "uint256"
								}
							],
							"internalType": "struct OrderParameters",
							"name": "parameters",
							"type": "tuple"
						},
						{
							"internalType": "uint120",
							"name": "numerator",
							"type": "uint120"
						},
						{
							"internalType": "uint120",
							"name": "denominator",
							"type": "uint120"
						},
						{
							"internalType": "bytes",
							"name": "signature",
							"type": "bytes"
						},
						{
							"internalType": "bytes",
							"name": "extraData",
							"type": "bytes"
						}
					],
					"internalType": "struct AdvancedOrder",
					"name": "advancedOrder",
					"type": "tuple"
				},
				{
					"components": [
						{
							"internalType": "uint256",
							"name": "orderIndex",
							"type": "uint256"
						},
						{
							"internalType": "enum Side",
							"name": "side",
							"type": "uint8"
						},
						{
							"internalType": "uint256",
							"name": "index",
							"type": "uint256"
						},
						{
							"internalType": "uint256",
							"name": "identifier",
							"type": "uint256"
						},
						{
							"internalType": "bytes32[]",
							"name": "criteriaProof",
							"type": "bytes32[]"
						}
					],
					"internalType": "struct CriteriaResolver[]",
					"name": "criteriaResolvers",
					"type": "tuple[]"
				},
				{
					"internalType": "bytes32",
					"name": "fulfillerConduitKey",
					"type": "bytes32"
				},
				{
					"internalType": "address",
					"name": "recipient",
					"type": "address"
				}
			],
			"name": "callFulfillAdvancedOrder",
			"outputs": [
				{
					"internalType": "bool",
					"name": "fulfilled",
					"type": "bool"
				}
			],
			"stateMutability": "payable",
			"type": "function"
		},
		{
			"inputs": [
				{
					"components": [
						{
							"components": [
								{
									"internalType": "address",
									"name": "offerer",
									"type": "address"
								},
								{
									"internalType": "address",
									"name": "zone",
									"type": "address"
								},
								{
									"components": [
										{
											"internalType": "enum ItemType",
											"name": "itemType",
											"type": "uint8"
										},
										{
											"internalType": "address",
											"name": "token",
											"type": "address"
										},
										{
											"internalType": "uint256",
											"name": "identifierOrCriteria",
											"type": "uint256"
										},
										{
											"internalType": "uint256",
											"name": "startAmount",
											"type": "uint256"
										},
										{
											"internalType": "uint256",
											"name": "endAmount",
											"type": "uint256"
										}
									],
									"internalType": "struct OfferItem[]",
									"name": "offer",
									"type": "tuple[]"
								},
								{
									"components": [
										{
											"internalType": "enum ItemType",
											"name": "itemType",
											"type": "uint8"
										},
										{
											"internalType": "address",
											"name": "token",
											"type": "address"
										},
										{
											"internalType": "uint256",
											"name": "identifierOrCriteria",
											"type": "uint256"
										},
										{
											"internalType": "uint256",
											"name": "startAmount",
											"type": "uint256"
										},
										{
											"internalType": "uint256",
											"name": "endAmount",
											"type": "uint256"
										},
										{
											"internalType": "address payable",
											"name": "recipient",
											"type": "address"
										}
									],
									"internalType": "struct ConsiderationItem[]",
									"name": "consideration",
									"type": "tuple[]"
								},
								{
									"internalType": "enum OrderType",
									"name": "orderType",
									"type": "uint8"
								},
								{
									"internalType": "uint256",
									"name": "startTime",
									"type": "uint256"
								},
								{
									"internalType": "uint256",
									"name": "endTime",
									"type": "uint256"
								},
								{
									"internalType": "bytes32",
									"name": "zoneHash",
									"type": "bytes32"
								},
								{
									"internalType": "uint256",
									"name": "salt",
									"type": "uint256"
								},
								{
									"internalType": "bytes32",
									"name": "conduitKey",
									"type": "bytes32"
								},
								{
									"internalType": "uint256",
									"name": "totalOriginalConsiderationItems",
									"type": "uint256"
								}
							],
							"internalType": "struct OrderParameters",
							"name": "parameters",
							"type": "tuple"
						},
						{
							"internalType": "uint120",
							"name": "numerator",
							"type": "uint120"
						},
						{
							"internalType": "uint120",
							"name": "denominator",
							"type": "uint120"
						},
						{
							"internalType": "bytes",
							"name": "signature",
							"type": "bytes"
						},
						{
							"internalType": "bytes",
							"name": "extraData",
							"type": "bytes"
						}
					],
					"internalType": "struct AdvancedOrder[]",
					"name": "advancedOrders",
					"type": "tuple[]"
				},
				{
					"components": [
						{
							"internalType": "uint256",
							"name": "orderIndex",
							"type": "uint256"
						},
						{
							"internalType": "enum Side",
							"name": "side",
							"type": "uint8"
						},
						{
							"internalType": "uint256",
							"name": "index",
							"type": "uint256"
						},
						{
							"internalType": "uint256",
							"name": "identifier",
							"type": "uint256"
						},
						{
							"internalType": "bytes32[]",
							"name": "criteriaProof",
							"type": "bytes32[]"
						}
					],
					"internalType": "struct CriteriaResolver[]",
					"name": "criteriaResolvers",
					"type": "tuple[]"
				},
				{
					"components": [
						{
							"internalType": "uint256",
							"name": "orderIndex",
							"type": "uint256"
						},
						{
							"internalType": "uint256",
							"name": "itemIndex",
							"type": "uint256"
						}
					],
					"internalType": "struct FulfillmentComponent[][]",
					"name": "offerFulfillments",
					"type": "tuple[][]"
				},
				{
					"components": [
						{
							"internalType": "uint256",
							"name": "orderIndex",
							"type": "uint256"
						},
						{
							"internalType": "uint256",
							"name": "itemIndex",
							"type": "uint256"
						}
					],
					"internalType": "struct FulfillmentComponent[][]",
					"name": "considerationFulfillments",
					"type": "tuple[][]"
				},
				{
					"internalType": "bytes32",
					"name": "fulfillerConduitKey",
					"type": "bytes32"
				},
				{
					"internalType": "address",
					"name": "recipient",
					"type": "address"
				},
				{
					"internalType": "uint256",
					"name": "maximumFulfilled",
					"type": "uint256"
				}
			],
			"name": "callFulfillAvailableAdvancedOrders",
			"outputs": [
				{
					"internalType": "bool[]",
					"name": "availableOrders",
					"type": "bool[]"
				},
				{
					"components": [
						{
							"components": [
								{
									"internalType": "enum ItemType",
									"name": "itemType",
									"type": "uint8"
								},
								{
									"internalType": "address",
									"name": "token",
									"type": "address"
								},
								{
									"internalType": "uint256",
									"name": "identifier",
									"type": "uint256"
								},
								{
									"internalType": "uint256",
									"name": "amount",
									"type": "uint256"
								},
								{
									"internalType": "address payable",
									"name": "recipient",
									"type": "address"
								}
							],
							"internalType": "struct ReceivedItem",
							"name": "item",
							"type": "tuple"
						},
						{
							"internalType": "address",
							"name": "offerer",
							"type": "address"
						},
						{
							"internalType": "bytes32",
							"name": "conduitKey",
							"type": "bytes32"
						}
					],
					"internalType": "struct Execution[]",
					"name": "executions",
					"type": "tuple[]"
				}
			],
			"stateMutability": "payable",
			"type": "function"
		},
		{
			"inputs": [
				{
					"components": [
						{
							"components": [
								{
									"internalType": "address",
									"name": "offerer",
									"type": "address"
								},
								{
									"internalType": "address",
									"name": "zone",
									"type": "address"
								},
								{
									"components": [
										{
											"internalType": "enum ItemType",
											"name": "itemType",
											"type": "uint8"
										},
										{
											"internalType": "address",
											"name": "token",
											"type": "address"
										},
										{
											"internalType": "uint256",
											"name": "identifierOrCriteria",
											"type": "uint256"
										},
										{
											"internalType": "uint256",
											"name": "startAmount",
											"type": "uint256"
										},
										{
											"internalType": "uint256",
											"name": "endAmount",
											"type": "uint256"
										}
									],
									"internalType": "struct OfferItem[]",
									"name": "offer",
									"type": "tuple[]"
								},
								{
									"components": [
										{
											"internalType": "enum ItemType",
											"name": "itemType",
											"type": "uint8"
										},
										{
											"internalType": "address",
											"name": "token",
											"type": "address"
										},
										{
											"internalType": "uint256",
											"name": "identifierOrCriteria",
											"type": "uint256"
										},
										{
											"internalType": "uint256",
											"name": "startAmount",
											"type": "uint256"
										},
										{
											"internalType": "uint256",
											"name": "endAmount",
											"type": "uint256"
										},
										{
											"internalType": "address payable",
											"name": "recipient",
											"type": "address"
										}
									],
									"internalType": "struct ConsiderationItem[]",
									"name": "consideration",
									"type": "tuple[]"
								},
								{
									"internalType": "enum OrderType",
									"name": "orderType",
									"type": "uint8"
								},
								{
									"internalType": "uint256",
									"name": "startTime",
									"type": "uint256"
								},
								{
									"internalType": "uint256",
									"name": "endTime",
									"type": "uint256"
								},
								{
									"internalType": "bytes32",
									"name": "zoneHash",
									"type": "bytes32"
								},
								{
									"internalType": "uint256",
									"name": "salt",
									"type": "uint256"
								},
								{
									"internalType": "bytes32",
									"name": "conduitKey",
									"type": "bytes32"
								},
								{
									"internalType": "uint256",
									"name": "totalOriginalConsiderationItems",
									"type": "uint256"
								}
							],
							"internalType": "struct OrderParameters",
							"name": "parameters",
							"type": "tuple"
						},
						{
							"internalType": "bytes",
							"name": "signature",
							"type": "bytes"
						}
					],
					"internalType": "struct Order[]",
					"name": "orders",
					"type": "tuple[]"
				},
				{
					"components": [
						{
							"internalType": "uint256",
							"name": "orderIndex",
							"type": "uint256"
						},
						{
							"internalType": "uint256",
							"name": "itemIndex",
							"type": "uint256"
						}
					],
					"internalType": "struct FulfillmentComponent[][]",
					"name": "offerFulfillments",
					"type": "tuple[][]"
				},
				{
					"components": [
						{
							"internalType": "uint256",
							"name": "orderIndex",
							"type": "uint256"
						},
						{
							"internalType": "uint256",
							"name": "itemIndex",
							"type": "uint256"
						}
					],
					"internalType": "struct FulfillmentComponent[][]",
					"name": "considerationFulfillments",
					"type": "tuple[][]"
				},
				{
					"internalType": "bytes32",
					"name": "fulfillerConduitKey",
					"type": "bytes32"
				},
				{
					"internalType": "uint256",
					"name": "maximumFulfilled",
					"type": "uint256"
				}
			],
			"name": "callFulfillAvailableOrders",
			"outputs": [
				{
					"internalType": "bool[]",
					"name": "availableOrders",
					"type": "bool[]"
				},
				{
					"components": [
						{
							"components": [
								{
									"internalType": "enum ItemType",
									"name": "itemType",
									"type": "uint8"
								},
								{
									"internalType": "address",
									"name": "token",
									"type": "address"
								},
								{
									"internalType": "uint256",
									"name": "identifier",
									"type": "uint256"
								},
								{
									"internalType": "uint256",
									"name": "amount",
									"type": "uint256"
								},
								{
									"internalType": "address payable",
									"name": "recipient",
									"type": "address"
								}
							],
							"internalType": "struct ReceivedItem",
							"name": "item",
							"type": "tuple"
						},
						{
							"internalType": "address",
							"name": "offerer",
							"type": "address"
						},
						{
							"internalType": "bytes32",
							"name": "conduitKey",
							"type": "bytes32"
						}
					],
					"internalType": "struct Execution[]",
					"name": "executions",
					"type": "tuple[]"
				}
			],
			"stateMutability": "payable",
			"type": "function"
		},
		{
			"inputs": [
				{
					"internalType": "address",
					"name": "offerer",
					"type": "address"
				}
			],
			"name": "callGetCounter",
			"outputs": [
				{
					"internalType": "uint256",
					"name": "counter",
					"type": "uint256"
				}
			],
			"stateMutability": "view",
			"type": "function"
		},
		{
			"inputs": [
				{
					"components": [
						{
							"internalType": "address",
							"name": "offerer",
							"type": "address"
						},
						{
							"internalType": "address",
							"name": "zone",
							"type": "address"
						},
						{
							"components": [
								{
									"internalType": "enum ItemType",
									"name": "itemType",
									"type": "uint8"
								},
								{
									"internalType": "address",
									"name": "token",
									"type": "address"
								},
								{
									"internalType": "uint256",
									"name": "identifierOrCriteria",
									"type": "uint256"
								},
								{
									"internalType": "uint256",
									"name": "startAmount",
									"type": "uint256"
								},
								{
									"internalType": "uint256",
									"name": "endAmount",
									"type": "uint256"
								}
							],
							"internalType": "struct OfferItem[]",
							"name": "offer",
							"type": "tuple[]"
						},
						{
							"components": [
								{
									"internalType": "enum ItemType",
									"name": "itemType",
									"type": "uint8"
								},
								{
									"internalType": "address",
									"name": "token",
									"type": "address"
								},
								{
									"internalType": "uint256",
									"name": "identifierOrCriteria",
									"type": "uint256"
								},
								{
									"internalType": "uint256",
									"name": "startAmount",
									"type": "uint256"
								},
								{
									"internalType": "uint256",
									"name": "endAmount",
									"type": "uint256"
								},
								{
									"internalType": "address payable",
									"name": "recipient",
									"type": "address"
								}
							],
							"internalType": "struct ConsiderationItem[]",
							"name": "consideration",
							"type": "tuple[]"
						},
						{
							"internalType": "enum OrderType",
							"name": "orderType",
							"type": "uint8"
						},
						{
							"internalType": "uint256",
							"name": "startTime",
							"type": "uint256"
						},
						{
							"internalType": "uint256",
							"name": "endTime",
							"type": "uint256"
						},
						{
							"internalType": "bytes32",
							"name": "zoneHash",
							"type": "bytes32"
						},
						{
							"internalType": "uint256",
							"name": "salt",
							"type": "uint256"
						},
						{
							"internalType": "bytes32",
							"name": "conduitKey",
							"type": "bytes32"
						},
						{
							"internalType": "uint256",
							"name": "counter",
							"type": "uint256"
						}
					],
					"internalType": "struct OrderComponents",
					"name": "order",
					"type": "tuple"
				}
			],
			"name": "callGetOrderHash",
			"outputs": [
				{
					"internalType": "bytes32",
					"name": "orderHash",
					"type": "bytes32"
				}
			],
			"stateMutability": "view",
			"type": "function"
		},
		{
			"inputs": [
				{
					"internalType": "bytes32",
					"name": "orderHash",
					"type": "bytes32"
				}
			],
			"name": "callGetOrderStatus",
			"outputs": [
				{
					"internalType": "bool",
					"name": "isValidated",
					"type": "bool"
				},
				{
					"internalType": "bool",
					"name": "isCancelled",
					"type": "bool"
				},
				{
					"internalType": "uint256",
					"name": "totalFilled",
					"type": "uint256"
				},
				{
					"internalType": "uint256",
					"name": "totalSize",
					"type": "uint256"
				}
			],
			"stateMutability": "view",
			"type": "function"
		},
		{
			"inputs": [],
			"name": "callIncrementCounter",
			"outputs": [
				{
					"internalType": "uint256",
					"name": "newCounter",
					"type": "uint256"
				}
			],
			"stateMutability": "nonpayable",
			"type": "function"
		},
		{
			"inputs": [
				{
					"components": [
						{
							"components": [
								{
									"internalType": "address",
									"name": "offerer",
									"type": "address"
								},
								{
									"internalType": "address",
									"name": "zone",
									"type": "address"
								},
								{
									"components": [
										{
											"internalType": "enum ItemType",
											"name": "itemType",
											"type": "uint8"
										},
										{
											"internalType": "address",
											"name": "token",
											"type": "address"
										},
										{
											"internalType": "uint256",
											"name": "identifierOrCriteria",
											"type": "uint256"
										},
										{
											"internalType": "uint256",
											"name": "startAmount",
											"type": "uint256"
										},
										{
											"internalType": "uint256",
											"name": "endAmount",
											"type": "uint256"
										}
									],
									"internalType": "struct OfferItem[]",
									"name": "offer",
									"type": "tuple[]"
								},
								{
									"components": [
										{
											"internalType": "enum ItemType",
											"name": "itemType",
											"type": "uint8"
										},
										{
											"internalType": "address",
											"name": "token",
											"type": "address"
										},
										{
											"internalType": "uint256",
											"name": "identifierOrCriteria",
											"type": "uint256"
										},
										{
											"internalType": "uint256",
											"name": "startAmount",
											"type": "uint256"
										},
										{
											"internalType": "uint256",
											"name": "endAmount",
											"type": "uint256"
										},
										{
											"internalType": "address payable",
											"name": "recipient",
											"type": "address"
										}
									],
									"internalType": "struct ConsiderationItem[]",
									"name": "consideration",
									"type": "tuple[]"
								},
								{
									"internalType": "enum OrderType",
									"name": "orderType",
									"type": "uint8"
								},
								{
									"internalType": "uint256",
									"name": "startTime",
									"type": "uint256"
								},
								{
									"internalType": "uint256",
									"name": "endTime",
									"type": "uint256"
								},
								{
									"internalType": "bytes32",
									"name": "zoneHash",
									"type": "bytes32"
								},
								{
									"internalType": "uint256",
									"name": "salt",
									"type": "uint256"
								},
								{
									"internalType": "bytes32",
									"name": "conduitKey",
									"type": "bytes32"
								},
								{
									"internalType": "uint256",
									"name": "totalOriginalConsiderationItems",
									"type": "uint256"
								}
							],
							"internalType": "struct OrderParameters",
							"name": "parameters",
							"type": "tuple"
						},
						{
							"internalType": "uint120",
							"name": "numerator",
							"type": "uint120"
						},
						{
							"internalType": "uint120",
							"name": "denominator",
							"type": "uint120"
						},
						{
							"internalType": "bytes",
							"name": "signature",
							"type": "bytes"
						},
						{
							"internalType": "bytes",
							"name": "extraData",
							"type": "bytes"
						}
					],
					"internalType": "struct AdvancedOrder[]",
					"name": "orders",
					"type": "tuple[]"
				},
				{
					"components": [
						{
							"internalType": "uint256",
							"name": "orderIndex",
							"type": "uint256"
						},
						{
							"internalType": "enum Side",
							"name": "side",
							"type": "uint8"
						},
						{
							"internalType": "uint256",
							"name": "index",
							"type": "uint256"
						},
						{
							"internalType": "uint256",
							"name": "identifier",
							"type": "uint256"
						},
						{
							"internalType": "bytes32[]",
							"name": "criteriaProof",
							"type": "bytes32[]"
						}
					],
					"internalType": "struct CriteriaResolver[]",
					"name": "criteriaResolvers",
					"type": "tuple[]"
				},
				{
					"components": [
						{
							"components": [
								{
									"internalType": "uint256",
									"name": "orderIndex",
									"type": "uint256"
								},
								{
									"internalType": "uint256",
									"name": "itemIndex",
									"type": "uint256"
								}
							],
							"internalType": "struct FulfillmentComponent[]",
							"name": "offerComponents",
							"type": "tuple[]"
						},
						{
							"components": [
								{
									"internalType": "uint256",
									"name": "orderIndex",
									"type": "uint256"
								},
								{
									"internalType": "uint256",
									"name": "itemIndex",
									"type": "uint256"
								}
							],
							"internalType": "struct FulfillmentComponent[]",
							"name": "considerationComponents",
							"type": "tuple[]"
						}
					],
					"internalType": "struct Fulfillment[]",
					"name": "fulfillments",
					"type": "tuple[]"
				},
				{
					"internalType": "address",
					"name": "recipient",
					"type": "address"
				}
			],
			"name": "callMatchAdvancedOrders",
			"outputs": [
				{
					"components": [
						{
							"components": [
								{
									"internalType": "enum ItemType",
									"name": "itemType",
									"type": "uint8"
								},
								{
									"internalType": "address",
									"name": "token",
									"type": "address"
								},
								{
									"internalType": "uint256",
									"name": "identifier",
									"type": "uint256"
								},
								{
									"internalType": "uint256",
									"name": "amount",
									"type": "uint256"
								},
								{
									"internalType": "address payable",
									"name": "recipient",
									"type": "address"
								}
							],
							"internalType": "struct ReceivedItem",
							"name": "item",
							"type": "tuple"
						},
						{
							"internalType": "address",
							"name": "offerer",
							"type": "address"
						},
						{
							"internalType": "bytes32",
							"name": "conduitKey",
							"type": "bytes32"
						}
					],
					"internalType": "struct Execution[]",
					"name": "executions",
					"type": "tuple[]"
				}
			],
			"stateMutability": "payable",
			"type": "function"
		},
		{
			"inputs": [
				{
					"components": [
						{
							"components": [
								{
									"internalType": "address",
									"name": "offerer",
									"type": "address"
								},
								{
									"internalType": "address",
									"name": "zone",
									"type": "address"
								},
								{
									"components": [
										{
											"internalType": "enum ItemType",
											"name": "itemType",
											"type": "uint8"
										},
										{
											"internalType": "address",
											"name": "token",
											"type": "address"
										},
										{
											"internalType": "uint256",
											"name": "identifierOrCriteria",
											"type": "uint256"
										},
										{
											"internalType": "uint256",
											"name": "startAmount",
											"type": "uint256"
										},
										{
											"internalType": "uint256",
											"name": "endAmount",
											"type": "uint256"
										}
									],
									"internalType": "struct OfferItem[]",
									"name": "offer",
									"type": "tuple[]"
								},
								{
									"components": [
										{
											"internalType": "enum ItemType",
											"name": "itemType",
											"type": "uint8"
										},
										{
											"internalType": "address",
											"name": "token",
											"type": "address"
										},
										{
											"internalType": "uint256",
											"name": "identifierOrCriteria",
											"type": "uint256"
										},
										{
											"internalType": "uint256",
											"name": "startAmount",
											"type": "uint256"
										},
										{
											"internalType": "uint256",
											"name": "endAmount",
											"type": "uint256"
										},
										{
											"internalType": "address payable",
											"name": "recipient",
											"type": "address"
										}
									],
									"internalType": "struct ConsiderationItem[]",
									"name": "consideration",
									"type": "tuple[]"
								},
								{
									"internalType": "enum OrderType",
									"name": "orderType",
									"type": "uint8"
								},
								{
									"internalType": "uint256",
									"name": "startTime",
									"type": "uint256"
								},
								{
									"internalType": "uint256",
									"name": "endTime",
									"type": "uint256"
								},
								{
									"internalType": "bytes32",
									"name": "zoneHash",
									"type": "bytes32"
								},
								{
									"internalType": "uint256",
									"name": "salt",
									"type": "uint256"
								},
								{
									"internalType": "bytes32",
									"name": "conduitKey",
									"type": "bytes32"
								},
								{
									"internalType": "uint256",
									"name": "totalOriginalConsiderationItems",
									"type": "uint256"
								}
							],
							"internalType": "struct OrderParameters",
							"name": "parameters",
							"type": "tuple"
						},
						{
							"internalType": "bytes",
							"name": "signature",
							"type": "bytes"
						}
					],
					"internalType": "struct Order[]",
					"name": "orders",
					"type": "tuple[]"
				},
				{
					"components": [
						{
							"components": [
								{
									"internalType": "uint256",
									"name": "orderIndex",
									"type": "uint256"
								},
								{
									"internalType": "uint256",
									"name": "itemIndex",
									"type": "uint256"
								}
							],
							"internalType": "struct FulfillmentComponent[]",
							"name": "offerComponents",
							"type": "tuple[]"
						},
						{
							"components": [
								{
									"internalType": "uint256",
									"name": "orderIndex",
									"type": "uint256"
								},
								{
									"internalType": "uint256",
									"name": "itemIndex",
									"type": "uint256"
								}
							],
							"internalType": "struct FulfillmentComponent[]",
							"name": "considerationComponents",
							"type": "tuple[]"
						}
					],
					"internalType": "struct Fulfillment[]",
					"name": "fulfillments",
					"type": "tuple[]"
				}
			],
			"name": "callMatchOrders",
			"outputs": [
				{
					"components": [
						{
							"components": [
								{
									"internalType": "enum ItemType",
									"name": "itemType",
									"type": "uint8"
								},
								{
									"internalType": "address",
									"name": "token",
									"type": "address"
								},
								{
									"internalType": "uint256",
									"name": "identifier",
									"type": "uint256"
								},
								{
									"internalType": "uint256",
									"name": "amount",
									"type": "uint256"
								},
								{
									"internalType": "address payable",
									"name": "recipient",
									"type": "address"
								}
							],
							"internalType": "struct ReceivedItem",
							"name": "item",
							"type": "tuple"
						},
						{
							"internalType": "address",
							"name": "offerer",
							"type": "address"
						},
						{
							"internalType": "bytes32",
							"name": "conduitKey",
							"type": "bytes32"
						}
					],
					"internalType": "struct Execution[]",
					"name": "executions",
					"type": "tuple[]"
				}
			],
			"stateMutability": "payable",
			"type": "function"
		},
		{
			"inputs": [
				{
					"components": [
						{
							"components": [
								{
									"internalType": "address",
									"name": "offerer",
									"type": "address"
								},
								{
									"internalType": "address",
									"name": "zone",
									"type": "address"
								},
								{
									"components": [
										{
											"internalType": "enum ItemType",
											"name": "itemType",
											"type": "uint8"
										},
										{
											"internalType": "address",
											"name": "token",
											"type": "address"
										},
										{
											"internalType": "uint256",
											"name": "identifierOrCriteria",
											"type": "uint256"
										},
										{
											"internalType": "uint256",
											"name": "startAmount",
											"type": "uint256"
										},
										{
											"internalType": "uint256",
											"name": "endAmount",
											"type": "uint256"
										}
									],
									"internalType": "struct OfferItem[]",
									"name": "offer",
									"type": "tuple[]"
								},
								{
									"components": [
										{
											"internalType": "enum ItemType",
											"name": "itemType",
											"type": "uint8"
										},
										{
											"internalType": "address",
											"name": "token",
											"type": "address"
										},
										{
											"internalType": "uint256",
											"name": "identifierOrCriteria",
											"type": "uint256"
										},
										{
											"internalType": "uint256",
											"name": "startAmount",
											"type": "uint256"
										},
										{
											"internalType": "uint256",
											"name": "endAmount",
											"type": "uint256"
										},
										{
											"internalType": "address payable",
											"name": "recipient",
											"type": "address"
										}
									],
									"internalType": "struct ConsiderationItem[]",
									"name": "consideration",
									"type": "tuple[]"
								},
								{
									"internalType": "enum OrderType",
									"name": "orderType",
									"type": "uint8"
								},
								{
									"internalType": "uint256",
									"name": "startTime",
									"type": "uint256"
								},
								{
									"internalType": "uint256",
									"name": "endTime",
									"type": "uint256"
								},
								{
									"internalType": "bytes32",
									"name": "zoneHash",
									"type": "bytes32"
								},
								{
									"internalType": "uint256",
									"name": "salt",
									"type": "uint256"
								},
								{
									"internalType": "bytes32",
									"name": "conduitKey",
									"type": "bytes32"
								},
								{
									"internalType": "uint256",
									"name": "totalOriginalConsiderationItems",
									"type": "uint256"
								}
							],
							"internalType": "struct OrderParameters",
							"name": "parameters",
							"type": "tuple"
						},
						{
							"internalType": "bytes",
							"name": "signature",
							"type": "bytes"
						}
					],
					"internalType": "struct Order[]",
					"name": "orders",
					"type": "tuple[]"
				}
			],
			"name": "callValidate",
			"outputs": [
				{
					"internalType": "bool",
					"name": "validated",
					"type": "bool"
				}
			],
			"stateMutability": "nonpayable",
			"type": "function"
		},
		{
			"inputs": [
				{
					"internalType": "uint256",
					"name": "id",
					"type": "uint256"
				}
			],
			"name": "exists",
			"outputs": [
				{
					"internalType": "bool",
					"name": "",
					"type": "bool"
				}
			],
			"stateMutability": "view",
			"type": "function"
		},
		{
			"inputs": [
				{
					"components": [
						{
							"components": [
								{
									"internalType": "address",
									"name": "offerer",
									"type": "address"
								},
								{
									"internalType": "address",
									"name": "zone",
									"type": "address"
								},
								{
									"components": [
										{
											"internalType": "enum ItemType",
											"name": "itemType",
											"type": "uint8"
										},
										{
											"internalType": "address",
											"name": "token",
											"type": "address"
										},
										{
											"internalType": "uint256",
											"name": "identifierOrCriteria",
											"type": "uint256"
										},
										{
											"internalType": "uint256",
											"name": "startAmount",
											"type": "uint256"
										},
										{
											"internalType": "uint256",
											"name": "endAmount",
											"type": "uint256"
										}
									],
									"internalType": "struct OfferItem[]",
									"name": "offer",
									"type": "tuple[]"
								},
								{
									"components": [
										{
											"internalType": "enum ItemType",
											"name": "itemType",
											"type": "uint8"
										},
										{
											"internalType": "address",
											"name": "token",
											"type": "address"
										},
										{
											"internalType": "uint256",
											"name": "identifierOrCriteria",
											"type": "uint256"
										},
										{
											"internalType": "uint256",
											"name": "startAmount",
											"type": "uint256"
										},
										{
											"internalType": "uint256",
											"name": "endAmount",
											"type": "uint256"
										},
										{
											"internalType": "address payable",
											"name": "recipient",
											"type": "address"
										}
									],
									"internalType": "struct ConsiderationItem[]",
									"name": "consideration",
									"type": "tuple[]"
								},
								{
									"internalType": "enum OrderType",
									"name": "orderType",
									"type": "uint8"
								},
								{
									"internalType": "uint256",
									"name": "startTime",
									"type": "uint256"
								},
								{
									"internalType": "uint256",
									"name": "endTime",
									"type": "uint256"
								},
								{
									"internalType": "bytes32",
									"name": "zoneHash",
									"type": "bytes32"
								},
								{
									"internalType": "uint256",
									"name": "salt",
									"type": "uint256"
								},
								{
									"internalType": "bytes32",
									"name": "conduitKey",
									"type": "bytes32"
								},
								{
									"internalType": "uint256",
									"name": "totalOriginalConsiderationItems",
									"type": "uint256"
								}
							],
							"internalType": "struct OrderParameters",
							"name": "parameters",
							"type": "tuple"
						},
						{
							"internalType": "bytes",
							"name": "signature",
							"type": "bytes"
						}
					],
					"internalType": "struct Order",
					"name": "order",
					"type": "tuple"
				},
				{
					"internalType": "bytes32",
					"name": "fulfillerConduitKey",
					"type": "bytes32"
				}
			],
			"name": "fulfillOrder",
			"outputs": [
				{
					"internalType": "bool",
					"name": "fulfilled",
					"type": "bool"
				}
			],
			"stateMutability": "payable",
			"type": "function"
		},
		{
			"inputs": [
				{
					"internalType": "uint256",
					"name": "id",
					"type": "uint256"
				}
			],
			"name": "getIdSupply",
			"outputs": [
				{
					"internalType": "uint256",
					"name": "",
					"type": "uint256"
				}
			],
			"stateMutability": "view",
			"type": "function"
		},
		{
			"inputs": [
				{
					"internalType": "bytes32",
					"name": "role",
					"type": "bytes32"
				}
			],
			"name": "getRoleAdmin",
			"outputs": [
				{
					"internalType": "bytes32",
					"name": "",
					"type": "bytes32"
				}
			],
			"stateMutability": "view",
			"type": "function"
		},
		{
			"inputs": [
				{
					"internalType": "string",
					"name": "role",
					"type": "string"
				}
			],
			"name": "getRoleAdmin",
			"outputs": [
				{
					"internalType": "bytes32",
					"name": "",
					"type": "bytes32"
				}
			],
			"stateMutability": "view",
			"type": "function"
		},
		{
			"inputs": [
				{
					"internalType": "uint256",
					"name": "id",
					"type": "uint256"
				}
			],
			"name": "getURIOfId",
			"outputs": [
				{
					"internalType": "string",
					"name": "",
					"type": "string"
				}
			],
			"stateMutability": "view",
			"type": "function"
		},
		{
			"inputs": [
				{
					"internalType": "string",
					"name": "publisher",
					"type": "string"
				},
				{
					"internalType": "address",
					"name": "account",
					"type": "address"
				}
			],
			"name": "grantPublisher",
			"outputs": [],
			"stateMutability": "nonpayable",
			"type": "function"
		},
		{
			"inputs": [
				{
					"internalType": "bytes32",
					"name": "role",
					"type": "bytes32"
				},
				{
					"internalType": "address",
					"name": "account",
					"type": "address"
				}
			],
			"name": "grantRole",
			"outputs": [],
			"stateMutability": "nonpayable",
			"type": "function"
		},
		{
			"inputs": [
				{
					"internalType": "string",
					"name": "role",
					"type": "string"
				},
				{
					"internalType": "address",
					"name": "account",
					"type": "address"
				}
			],
			"name": "hasRole",
			"outputs": [
				{
					"internalType": "bool",
					"name": "",
					"type": "bool"
				}
			],
			"stateMutability": "view",
			"type": "function"
		},
		{
			"inputs": [
				{
					"internalType": "bytes32",
					"name": "role",
					"type": "bytes32"
				},
				{
					"internalType": "address",
					"name": "account",
					"type": "address"
				}
			],
			"name": "hasRole",
			"outputs": [
				{
					"internalType": "bool",
					"name": "",
					"type": "bool"
				}
			],
			"stateMutability": "view",
			"type": "function"
		},
		{
			"inputs": [
				{
					"internalType": "uint256",
					"name": "id",
					"type": "uint256"
				}
			],
			"name": "idExists",
			"outputs": [
				{
					"internalType": "bool",
					"name": "",
					"type": "bool"
				}
			],
			"stateMutability": "view",
			"type": "function"
		},
		{
			"inputs": [
				{
					"internalType": "address",
					"name": "seaportAddr",
					"type": "address"
				}
			],
			"name": "initialize",
			"outputs": [],
			"stateMutability": "nonpayable",
			"type": "function"
		},
		{
			"inputs": [
				{
					"internalType": "address",
					"name": "account",
					"type": "address"
				},
				{
					"internalType": "address",
					"name": "operator",
					"type": "address"
				}
			],
			"name": "isApprovedForAll",
			"outputs": [
				{
					"internalType": "bool",
					"name": "",
					"type": "bool"
				}
			],
			"stateMutability": "view",
			"type": "function"
		},
		{
			"inputs": [
				{
					"internalType": "address",
					"name": "account",
					"type": "address"
				},
				{
					"internalType": "uint256",
					"name": "id",
					"type": "uint256"
				},
				{
					"internalType": "uint256",
					"name": "amount",
					"type": "uint256"
				},
				{
					"internalType": "bytes",
					"name": "data",
					"type": "bytes"
				}
			],
			"name": "mint",
			"outputs": [],
			"stateMutability": "nonpayable",
			"type": "function"
		},
		{
			"inputs": [
				{
					"internalType": "address",
					"name": "to",
					"type": "address"
				},
				{
					"internalType": "uint256[]",
					"name": "ids",
					"type": "uint256[]"
				},
				{
					"internalType": "uint256[]",
					"name": "amounts",
					"type": "uint256[]"
				},
				{
					"internalType": "bytes",
					"name": "data",
					"type": "bytes"
				}
			],
			"name": "mintBatch",
			"outputs": [],
			"stateMutability": "nonpayable",
			"type": "function"
		},
		{
			"inputs": [],
			"name": "pause",
			"outputs": [],
			"stateMutability": "nonpayable",
			"type": "function"
		},
		{
			"inputs": [],
			"name": "paused",
			"outputs": [
				{
					"internalType": "bool",
					"name": "",
					"type": "bool"
				}
			],
			"stateMutability": "view",
			"type": "function"
		},
		{
			"inputs": [
				{
					"internalType": "bytes32",
					"name": "role",
					"type": "bytes32"
				},
				{
					"internalType": "address",
					"name": "account",
					"type": "address"
				}
			],
			"name": "renounceRole",
			"outputs": [],
			"stateMutability": "nonpayable",
			"type": "function"
		},
		{
			"inputs": [
				{
					"internalType": "string",
					"name": "publisher",
					"type": "string"
				},
				{
					"internalType": "address",
					"name": "account",
					"type": "address"
				}
			],
			"name": "revokePublisher",
			"outputs": [],
			"stateMutability": "nonpayable",
			"type": "function"
		},
		{
			"inputs": [
				{
					"internalType": "bytes32",
					"name": "role",
					"type": "bytes32"
				},
				{
					"internalType": "address",
					"name": "account",
					"type": "address"
				}
			],
			"name": "revokeRole",
			"outputs": [],
			"stateMutability": "nonpayable",
			"type": "function"
		},
		{
			"inputs": [
				{
					"internalType": "address",
					"name": "from",
					"type": "address"
				},
				{
					"internalType": "address",
					"name": "to",
					"type": "address"
				},
				{
					"internalType": "uint256[]",
					"name": "ids",
					"type": "uint256[]"
				},
				{
					"internalType": "uint256[]",
					"name": "amounts",
					"type": "uint256[]"
				},
				{
					"internalType": "bytes",
					"name": "data",
					"type": "bytes"
				}
			],
			"name": "safeBatchTransferFrom",
			"outputs": [],
			"stateMutability": "nonpayable",
			"type": "function"
		},
		{
			"inputs": [
				{
					"internalType": "address",
					"name": "from",
					"type": "address"
				},
				{
					"internalType": "address",
					"name": "to",
					"type": "address"
				},
				{
					"internalType": "uint256",
					"name": "id",
					"type": "uint256"
				},
				{
					"internalType": "uint256",
					"name": "amount",
					"type": "uint256"
				},
				{
					"internalType": "bytes",
					"name": "data",
					"type": "bytes"
				}
			],
			"name": "safeTransferFrom",
			"outputs": [],
			"stateMutability": "nonpayable",
			"type": "function"
		},
		{
			"inputs": [
				{
					"internalType": "address",
					"name": "operator",
					"type": "address"
				},
				{
					"internalType": "bool",
					"name": "approved",
					"type": "bool"
				}
			],
			"name": "setApprovalForAll",
			"outputs": [],
			"stateMutability": "nonpayable",
			"type": "function"
		},
		{
			"inputs": [
				{
					"internalType": "uint256",
					"name": "id",
					"type": "uint256"
				},
				{
					"internalType": "string",
					"name": "publisher",
					"type": "string"
				}
			],
			"name": "setIdToPublisher",
			"outputs": [],
			"stateMutability": "nonpayable",
			"type": "function"
		},
		{
			"inputs": [
				{
					"internalType": "string",
					"name": "newuri",
					"type": "string"
				}
			],
			"name": "setURI",
			"outputs": [],
			"stateMutability": "nonpayable",
			"type": "function"
		},
		{
			"inputs": [
				{
					"internalType": "bytes4",
					"name": "interfaceId",
					"type": "bytes4"
				}
			],
			"name": "supportsInterface",
			"outputs": [
				{
					"internalType": "bool",
					"name": "",
					"type": "bool"
				}
			],
			"stateMutability": "view",
			"type": "function"
		},
		{
			"inputs": [
				{
					"internalType": "uint256",
					"name": "id",
					"type": "uint256"
				}
			],
			"name": "totalSupply",
			"outputs": [
				{
					"internalType": "uint256",
					"name": "",
					"type": "uint256"
				}
			],
			"stateMutability": "view",
			"type": "function"
		},
		{
			"inputs": [
				{
					"internalType": "address",
					"name": "from",
					"type": "address"
				},
				{
					"internalType": "address",
					"name": "to",
					"type": "address"
				},
				{
					"internalType": "uint256",
					"name": "id",
					"type": "uint256"
				},
				{
					"internalType": "uint256",
					"name": "amount",
					"type": "uint256"
				},
				{
					"internalType": "bytes",
					"name": "data",
					"type": "bytes"
				}
			],
			"name": "transfer",
			"outputs": [],
			"stateMutability": "nonpayable",
			"type": "function"
		},
		{
			"inputs": [
				{
					"internalType": "address",
					"name": "from",
					"type": "address"
				},
				{
					"internalType": "address",
					"name": "to",
					"type": "address"
				},
				{
					"internalType": "uint256[]",
					"name": "ids",
					"type": "uint256[]"
				},
				{
					"internalType": "uint256[]",
					"name": "amounts",
					"type": "uint256[]"
				},
				{
					"internalType": "bytes",
					"name": "data",
					"type": "bytes"
				}
			],
			"name": "transferBatch",
			"outputs": [],
			"stateMutability": "nonpayable",
			"type": "function"
		},
		{
			"inputs": [],
			"name": "unpause",
			"outputs": [],
			"stateMutability": "nonpayable",
			"type": "function"
		},
		{
			"inputs": [
				{
					"internalType": "uint256",
					"name": "",
					"type": "uint256"
				}
			],
			"name": "uri",
			"outputs": [
				{
					"internalType": "string",
					"name": "",
					"type": "string"
				}
			],
			"stateMutability": "view",
			"type": "function"
		}
	]
}