{
  "contractName": "Market",
  "abi": [
    {
      "inputs": [],
      "stateMutability": "nonpayable",
      "type": "constructor"
    },
    {
      "anonymous": false,
      "inputs": [
        {
          "indexed": true,
          "internalType": "address",
          "name": "account",
          "type": "address"
        },
        {
          "indexed": true,
          "internalType": "address",
          "name": "operator",
          "type": "address"
        },
        {
          "indexed": false,
          "internalType": "bool",
          "name": "approved",
          "type": "bool"
        }
      ],
      "name": "ApprovalForAll",
      "type": "event"
    },
    {
      "anonymous": false,
      "inputs": [
        {
          "indexed": true,
          "internalType": "uint256",
          "name": "id",
          "type": "uint256"
        },
        {
          "indexed": true,
          "internalType": "address",
          "name": "seller",
          "type": "address"
        },
        {
          "indexed": true,
          "internalType": "address",
          "name": "buyer",
          "type": "address"
        }
      ],
      "name": "BuyerDetermined",
      "type": "event"
    },
    {
      "anonymous": false,
      "inputs": [
        {
          "indexed": true,
          "internalType": "uint256",
          "name": "id",
          "type": "uint256"
        },
        {
          "indexed": true,
          "internalType": "address",
          "name": "seller",
          "type": "address"
        },
        {
          "indexed": true,
          "internalType": "uint256",
          "name": "price",
          "type": "uint256"
        },
        {
          "indexed": false,
          "internalType": "uint256",
          "name": "amount",
          "type": "uint256"
        }
      ],
      "name": "EBookListed",
      "type": "event"
    },
    {
      "anonymous": false,
      "inputs": [
        {
          "indexed": true,
          "internalType": "uint256",
          "name": "id",
          "type": "uint256"
        },
        {
          "indexed": true,
          "internalType": "address",
          "name": "seller",
          "type": "address"
        },
        {
          "indexed": true,
          "internalType": "address",
          "name": "canceller",
          "type": "address"
        }
      ],
      "name": "ListingCancelled",
      "type": "event"
    },
    {
      "anonymous": false,
      "inputs": [
        {
          "indexed": false,
          "internalType": "address",
          "name": "account",
          "type": "address"
        }
      ],
      "name": "Paused",
      "type": "event"
    },
    {
      "anonymous": false,
      "inputs": [
        {
          "indexed": true,
          "internalType": "uint256",
          "name": "id",
          "type": "uint256"
        },
        {
          "indexed": false,
          "internalType": "address",
          "name": "priceModifier",
          "type": "address"
        },
        {
          "indexed": true,
          "internalType": "uint256",
          "name": "originalPrice",
          "type": "uint256"
        },
        {
          "indexed": true,
          "internalType": "uint256",
          "name": "currentPrice",
          "type": "uint256"
        }
      ],
      "name": "PriceModified",
      "type": "event"
    },
    {
      "anonymous": false,
      "inputs": [
        {
          "indexed": true,
          "internalType": "bytes32",
          "name": "role",
          "type": "bytes32"
        },
        {
          "indexed": true,
          "internalType": "bytes32",
          "name": "previousAdminRole",
          "type": "bytes32"
        },
        {
          "indexed": true,
          "internalType": "bytes32",
          "name": "newAdminRole",
          "type": "bytes32"
        }
      ],
      "name": "RoleAdminChanged",
      "type": "event"
    },
    {
      "anonymous": false,
      "inputs": [
        {
          "indexed": true,
          "internalType": "bytes32",
          "name": "role",
          "type": "bytes32"
        },
        {
          "indexed": true,
          "internalType": "address",
          "name": "account",
          "type": "address"
        },
        {
          "indexed": true,
          "internalType": "address",
          "name": "sender",
          "type": "address"
        }
      ],
      "name": "RoleGranted",
      "type": "event"
    },
    {
      "anonymous": false,
      "inputs": [
        {
          "indexed": true,
          "internalType": "bytes32",
          "name": "role",
          "type": "bytes32"
        },
        {
          "indexed": true,
          "internalType": "address",
          "name": "account",
          "type": "address"
        },
        {
          "indexed": true,
          "internalType": "address",
          "name": "sender",
          "type": "address"
        }
      ],
      "name": "RoleRevoked",
      "type": "event"
    },
    {
      "anonymous": false,
      "inputs": [
        {
          "indexed": true,
          "internalType": "address",
          "name": "seller",
          "type": "address"
        },
        {
          "indexed": true,
          "internalType": "address",
          "name": "buyer",
          "type": "address"
        },
        {
          "indexed": true,
          "internalType": "uint256",
          "name": "id",
          "type": "uint256"
        }
      ],
      "name": "TransactionMade",
      "type": "event"
    },
    {
      "anonymous": false,
      "inputs": [
        {
          "indexed": true,
          "internalType": "address",
          "name": "operator",
          "type": "address"
        },
        {
          "indexed": true,
          "internalType": "address",
          "name": "from",
          "type": "address"
        },
        {
          "indexed": true,
          "internalType": "address",
          "name": "to",
          "type": "address"
        },
        {
          "indexed": false,
          "internalType": "uint256[]",
          "name": "ids",
          "type": "uint256[]"
        },
        {
          "indexed": false,
          "internalType": "uint256[]",
          "name": "values",
          "type": "uint256[]"
        }
      ],
      "name": "TransferBatch",
      "type": "event"
    },
    {
      "anonymous": false,
      "inputs": [
        {
          "indexed": true,
          "internalType": "address",
          "name": "operator",
          "type": "address"
        },
        {
          "indexed": true,
          "internalType": "address",
          "name": "from",
          "type": "address"
        },
        {
          "indexed": true,
          "internalType": "address",
          "name": "to",
          "type": "address"
        },
        {
          "indexed": false,
          "internalType": "uint256",
          "name": "id",
          "type": "uint256"
        },
        {
          "indexed": false,
          "internalType": "uint256",
          "name": "value",
          "type": "uint256"
        }
      ],
      "name": "TransferSingle",
      "type": "event"
    },
    {
      "anonymous": false,
      "inputs": [
        {
          "indexed": false,
          "internalType": "string",
          "name": "value",
          "type": "string"
        },
        {
          "indexed": true,
          "internalType": "uint256",
          "name": "id",
          "type": "uint256"
        }
      ],
      "name": "URI",
      "type": "event"
    },
    {
      "anonymous": false,
      "inputs": [
        {
          "indexed": false,
          "internalType": "address",
          "name": "account",
          "type": "address"
        }
      ],
      "name": "Unpaused",
      "type": "event"
    },
    {
      "inputs": [],
      "name": "DEFAULT_ADMIN_ROLE",
      "outputs": [
        {
          "internalType": "bytes32",
          "name": "",
          "type": "bytes32"
        }
      ],
      "stateMutability": "view",
      "type": "function"
    },
    {
      "inputs": [
        {
          "internalType": "address",
          "name": "account",
          "type": "address"
        },
        {
          "internalType": "uint256",
          "name": "id",
          "type": "uint256"
        }
      ],
      "name": "balanceOf",
      "outputs": [
        {
          "internalType": "uint256",
          "name": "",
          "type": "uint256"
        }
      ],
      "stateMutability": "view",
      "type": "function"
    },
    {
      "inputs": [
        {
          "internalType": "address[]",
          "name": "accounts",
          "type": "address[]"
        },
        {
          "internalType": "uint256[]",
          "name": "ids",
          "type": "uint256[]"
        }
      ],
      "name": "balanceOfBatch",
      "outputs": [
        {
          "internalType": "uint256[]",
          "name": "",
          "type": "uint256[]"
        }
      ],
      "stateMutability": "view",
      "type": "function"
    },
    {
      "inputs": [
        {
          "internalType": "uint256",
          "name": "id",
          "type": "uint256"
        }
      ],
      "name": "exists",
      "outputs": [
        {
          "internalType": "bool",
          "name": "",
          "type": "bool"
        }
      ],
      "stateMutability": "view",
      "type": "function"
    },
    {
      "inputs": [
        {
          "internalType": "bytes32",
          "name": "role",
          "type": "bytes32"
        }
      ],
      "name": "getRoleAdmin",
      "outputs": [
        {
          "internalType": "bytes32",
          "name": "",
          "type": "bytes32"
        }
      ],
      "stateMutability": "view",
      "type": "function"
    },
    {
      "inputs": [
        {
          "internalType": "bytes32",
          "name": "role",
          "type": "bytes32"
        },
        {
          "internalType": "address",
          "name": "account",
          "type": "address"
        }
      ],
      "name": "grantRole",
      "outputs": [],
      "stateMutability": "nonpayable",
      "type": "function"
    },
    {
      "inputs": [
        {
          "internalType": "bytes32",
          "name": "role",
          "type": "bytes32"
        },
        {
          "internalType": "address",
          "name": "account",
          "type": "address"
        }
      ],
      "name": "hasRole",
      "outputs": [
        {
          "internalType": "bool",
          "name": "",
          "type": "bool"
        }
      ],
      "stateMutability": "view",
      "type": "function"
    },
    {
      "inputs": [
        {
          "internalType": "address",
          "name": "account",
          "type": "address"
        },
        {
          "internalType": "address",
          "name": "operator",
          "type": "address"
        }
      ],
      "name": "isApprovedForAll",
      "outputs": [
        {
          "internalType": "bool",
          "name": "",
          "type": "bool"
        }
      ],
      "stateMutability": "view",
      "type": "function"
    },
    {
      "inputs": [],
      "name": "paused",
      "outputs": [
        {
          "internalType": "bool",
          "name": "",
          "type": "bool"
        }
      ],
      "stateMutability": "view",
      "type": "function"
    },
    {
      "inputs": [
        {
          "internalType": "bytes32",
          "name": "role",
          "type": "bytes32"
        },
        {
          "internalType": "address",
          "name": "account",
          "type": "address"
        }
      ],
      "name": "renounceRole",
      "outputs": [],
      "stateMutability": "nonpayable",
      "type": "function"
    },
    {
      "inputs": [
        {
          "internalType": "bytes32",
          "name": "role",
          "type": "bytes32"
        },
        {
          "internalType": "address",
          "name": "account",
          "type": "address"
        }
      ],
      "name": "revokeRole",
      "outputs": [],
      "stateMutability": "nonpayable",
      "type": "function"
    },
    {
      "inputs": [
        {
          "internalType": "address",
          "name": "from",
          "type": "address"
        },
        {
          "internalType": "address",
          "name": "to",
          "type": "address"
        },
        {
          "internalType": "uint256[]",
          "name": "ids",
          "type": "uint256[]"
        },
        {
          "internalType": "uint256[]",
          "name": "amounts",
          "type": "uint256[]"
        },
        {
          "internalType": "bytes",
          "name": "data",
          "type": "bytes"
        }
      ],
      "name": "safeBatchTransferFrom",
      "outputs": [],
      "stateMutability": "nonpayable",
      "type": "function"
    },
    {
      "inputs": [
        {
          "internalType": "address",
          "name": "from",
          "type": "address"
        },
        {
          "internalType": "address",
          "name": "to",
          "type": "address"
        },
        {
          "internalType": "uint256",
          "name": "id",
          "type": "uint256"
        },
        {
          "internalType": "uint256",
          "name": "amount",
          "type": "uint256"
        },
        {
          "internalType": "bytes",
          "name": "data",
          "type": "bytes"
        }
      ],
      "name": "safeTransferFrom",
      "outputs": [],
      "stateMutability": "nonpayable",
      "type": "function"
    },
    {
      "inputs": [
        {
          "internalType": "address",
          "name": "operator",
          "type": "address"
        },
        {
          "internalType": "bool",
          "name": "approved",
          "type": "bool"
        }
      ],
      "name": "setApprovalForAll",
      "outputs": [],
      "stateMutability": "nonpayable",
      "type": "function"
    },
    {
      "inputs": [
        {
          "internalType": "uint256",
          "name": "id",
          "type": "uint256"
        }
      ],
      "name": "totalSupply",
      "outputs": [
        {
          "internalType": "uint256",
          "name": "",
          "type": "uint256"
        }
      ],
      "stateMutability": "view",
      "type": "function"
    },
    {
      "inputs": [
        {
          "internalType": "uint256",
          "name": "",
          "type": "uint256"
        }
      ],
      "name": "uri",
      "outputs": [
        {
          "internalType": "string",
          "name": "",
          "type": "string"
        }
      ],
      "stateMutability": "view",
      "type": "function"
    },
    {
      "inputs": [
        {
          "internalType": "uint256",
          "name": "id",
          "type": "uint256"
        },
        {
          "internalType": "address",
          "name": "seller",
          "type": "address"
        },
        {
          "internalType": "address",
          "name": "buyer",
          "type": "address"
        }
      ],
      "name": "checkIsBuyer",
      "outputs": [
        {
          "internalType": "int256",
          "name": "",
          "type": "int256"
        }
      ],
      "stateMutability": "view",
      "type": "function"
    },
    {
      "inputs": [
        {
          "internalType": "address",
          "name": "account",
          "type": "address"
        },
        {
          "internalType": "uint256",
          "name": "id",
          "type": "uint256"
        }
      ],
      "name": "listedBalanceOf",
      "outputs": [
        {
          "internalType": "uint256",
          "name": "",
          "type": "uint256"
        }
      ],
      "stateMutability": "view",
      "type": "function"
    },
    {
      "inputs": [
        {
          "internalType": "uint256",
          "name": "id",
          "type": "uint256"
        },
        {
          "internalType": "address",
          "name": "seller",
          "type": "address"
        },
        {
          "internalType": "uint256",
          "name": "price",
          "type": "uint256"
        },
        {
          "internalType": "uint256",
          "name": "amount",
          "type": "uint256"
        }
      ],
      "name": "listEBook",
      "outputs": [],
      "stateMutability": "nonpayable",
      "type": "function"
    },
    {
      "inputs": [
        {
          "internalType": "uint256",
          "name": "id",
          "type": "uint256"
        },
        {
          "internalType": "address",
          "name": "seller",
          "type": "address"
        },
        {
          "internalType": "uint256",
          "name": "price",
          "type": "uint256"
        }
      ],
      "name": "modifyPrice",
      "outputs": [],
      "stateMutability": "nonpayable",
      "type": "function"
    },
    {
      "inputs": [
        {
          "internalType": "uint256",
          "name": "id",
          "type": "uint256"
        },
        {
          "internalType": "address",
          "name": "seller",
          "type": "address"
        },
        {
          "internalType": "uint256",
          "name": "amount",
          "type": "uint256"
        }
      ],
      "name": "cancelListing",
      "outputs": [],
      "stateMutability": "nonpayable",
      "type": "function"
    },
    {
      "inputs": [
        {
          "internalType": "address",
          "name": "seller",
          "type": "address"
        },
        {
          "internalType": "address",
          "name": "buyer",
          "type": "address"
        },
        {
          "internalType": "uint256",
          "name": "id",
          "type": "uint256"
        }
      ],
      "name": "determineBuyer",
      "outputs": [],
      "stateMutability": "nonpayable",
      "type": "function"
    },
    {
      "inputs": [
        {
          "internalType": "uint256",
          "name": "id",
          "type": "uint256"
        },
        {
          "internalType": "address",
          "name": "seller",
          "type": "address"
        },
        {
          "internalType": "int256",
          "name": "index",
          "type": "int256"
        }
      ],
      "name": "purchaseEBook",
      "outputs": [],
      "stateMutability": "nonpayable",
      "type": "function"
    },
    {
      "inputs": [
        {
          "internalType": "bytes4",
          "name": "interfaceId",
          "type": "bytes4"
        }
      ],
      "name": "supportsInterface",
      "outputs": [
        {
          "internalType": "bool",
          "name": "",
          "type": "bool"
        }
      ],
      "stateMutability": "view",
      "type": "function"
    }
  ],
  "bytecode": "0x60806040523480156200001157600080fd5b506040518060200160405280600081525062000033816200005560201b60201c565b506000600460006101000a81548160ff021916908315150217905550620003cb565b8060029081620000669190620002e4565b5050565b600081519050919050565b7f4e487b7100000000000000000000000000000000000000000000000000000000600052604160045260246000fd5b7f4e487b7100000000000000000000000000000000000000000000000000000000600052602260045260246000fd5b60006002820490506001821680620000ec57607f821691505b602082108103620001025762000101620000a4565b5b50919050565b60008190508160005260206000209050919050565b60006020601f8301049050919050565b600082821b905092915050565b6000600883026200016c7fffffffffffffffffffffffffffffffffffffffffffffffffffffffffffffffff826200012d565b6200017886836200012d565b95508019841693508086168417925050509392505050565b6000819050919050565b6000819050919050565b6000620001c5620001bf620001b98462000190565b6200019a565b62000190565b9050919050565b6000819050919050565b620001e183620001a4565b620001f9620001f082620001cc565b8484546200013a565b825550505050565b600090565b6200021062000201565b6200021d818484620001d6565b505050565b5b8181101562000245576200023960008262000206565b60018101905062000223565b5050565b601f82111562000294576200025e8162000108565b62000269846200011d565b8101602085101562000279578190505b6200029162000288856200011d565b83018262000222565b50505b505050565b600082821c905092915050565b6000620002b96000198460080262000299565b1980831691505092915050565b6000620002d48383620002a6565b9150826002028217905092915050565b620002ef826200006a565b67ffffffffffffffff8111156200030b576200030a62000075565b5b620003178254620000d3565b6200032482828562000249565b600060209050601f8311600181146200035c576000841562000347578287015190505b620003538582620002c6565b865550620003c3565b601f1984166200036c8662000108565b60005b8281101562000396578489015182556001820191506020850194506020810190506200036f565b86831015620003b65784890151620003b2601f891682620002a6565b8355505b6001600288020188555050505b505050505050565b6156b780620003db6000396000f3fe608060405234801561001057600080fd5b50600436106101575760003560e01c80635ebb6365116100c3578063a9171a721161007c578063a9171a72146103f8578063bd85b03914610414578063d547741f14610444578063e3579fc514610460578063e985e9c514610490578063f242432a146104c057610157565b80635ebb6365146103265780638437ed86146103565780638ad094b51461037257806391d148541461038e578063a217fddf146103be578063a22cb465146103dc57610157565b80632eb2c2d6116101155780632eb2c2d6146102545780632f2ff15d1461027057806336568abe1461028c5780634e1273f4146102a85780634f558e79146102d85780635c975abb1461030857610157565b8062fdd58e1461015c57806301ffc9a71461018c5780630c834143146101bc5780630e89341c146101d85780630ef5e26714610208578063248a9ca314610224575b600080fd5b61017660048036038101906101719190613916565b6104dc565b6040516101839190613965565b60405180910390f35b6101a660048036038101906101a191906139d8565b6105a4565b6040516101b39190613a20565b60405180910390f35b6101d660048036038101906101d19190613a3b565b6105b6565b005b6101f260048036038101906101ed9190613a8e565b610a2f565b6040516101ff9190613b4b565b60405180910390f35b610222600480360381019061021d9190613b6d565b610ac3565b005b61023e60048036038101906102399190613bf6565b610ecf565b60405161024b9190613c32565b60405180910390f35b61026e60048036038101906102699190613e4a565b610eef565b005b61028a60048036038101906102859190613f19565b610f90565b005b6102a660048036038101906102a19190613f19565b610fb1565b005b6102c260048036038101906102bd919061401c565b611034565b6040516102cf9190614152565b60405180910390f35b6102f260048036038101906102ed9190613a8e565b61114d565b6040516102ff9190613a20565b60405180910390f35b610310611161565b60405161031d9190613a20565b60405180910390f35b610340600480360381019061033b9190613916565b611178565b60405161034d9190613965565b60405180910390f35b610370600480360381019061036b91906141aa565b6111d6565b005b61038c60048036038101906103879190613a3b565b6117fa565b005b6103a860048036038101906103a39190613f19565b611b6d565b6040516103b59190613a20565b60405180910390f35b6103c6611bd8565b6040516103d39190613c32565b60405180910390f35b6103f660048036038101906103f19190614229565b611bdf565b005b610412600480360381019061040d9190614269565b611bf5565b005b61042e60048036038101906104299190613a8e565b611fab565b60405161043b9190613965565b60405180910390f35b61045e60048036038101906104599190613f19565b611fc8565b005b61047a600480360381019061047591906142d0565b611fe9565b6040516104879190614332565b60405180910390f35b6104aa60048036038101906104a5919061434d565b6121c3565b6040516104b79190613a20565b60405180910390f35b6104da60048036038101906104d5919061438d565b612257565b005b60008073ffffffffffffffffffffffffffffffffffffffff168373ffffffffffffffffffffffffffffffffffffffff160361054c576040517f08c379a000000000000000000000000000000000000000000000000000000000815260040161054390614496565b60405180910390fd5b60008083815260200190815260200160002060008473ffffffffffffffffffffffffffffffffffffffff1673ffffffffffffffffffffffffffffffffffffffff16815260200190815260200160002054905092915050565b60006105af826122f8565b9050919050565b6105be612372565b826105c88161114d565b610607576040517f08c379a00000000000000000000000000000000000000000000000000000000081526004016105fe90614502565b60405180910390fd5b816000811161064b576040517f08c379a00000000000000000000000000000000000000000000000000000000081526004016106429061456e565b60405180910390fd5b83600073ffffffffffffffffffffffffffffffffffffffff168173ffffffffffffffffffffffffffffffffffffffff16036106bb576040517f08c379a00000000000000000000000000000000000000000000000000000000081526004016106b2906145da565b60405180910390fd5b846106c633826121c3565b610705576040517f08c379a00000000000000000000000000000000000000000000000000000000081526004016106fc90614646565b60405180910390fd5b868660006008600084815260200190815260200160002060008373ffffffffffffffffffffffffffffffffffffffff1673ffffffffffffffffffffffffffffffffffffffff168152602001908152602001600020600101541161079d576040517f08c379a0000000000000000000000000000000000000000000000000000000008152600401610794906146b2565b60405180910390fd5b86600860008b815260200190815260200160002060008a73ffffffffffffffffffffffffffffffffffffffff1673ffffffffffffffffffffffffffffffffffffffff16815260200190815260200160002060020154600860008c815260200190815260200160002060008b73ffffffffffffffffffffffffffffffffffffffff1673ffffffffffffffffffffffffffffffffffffffff168152602001908152602001600020600101546108509190614701565b1015610891576040517f08c379a000000000000000000000000000000000000000000000000000000000815260040161088890614781565b60405180910390fd5b86600860008b815260200190815260200160002060008a73ffffffffffffffffffffffffffffffffffffffff1673ffffffffffffffffffffffffffffffffffffffff168152602001908152602001600020600101600082825403925050819055506000600860008b815260200190815260200160002060008a73ffffffffffffffffffffffffffffffffffffffff1673ffffffffffffffffffffffffffffffffffffffff16815260200190815260200160002060010154036109c957600860008a815260200190815260200160002060008973ffffffffffffffffffffffffffffffffffffffff1673ffffffffffffffffffffffffffffffffffffffff168152602001908152602001600020600080820160009055600182016000905560028201600090556003820160006109c69190613830565b50505b3373ffffffffffffffffffffffffffffffffffffffff168873ffffffffffffffffffffffffffffffffffffffff168a7f6cf8b4e3257a9e5cadb99e5e7422bd64237d03982ae538bd0ea7b2b45c92c03c60405160405180910390a4505050505050505050565b606060028054610a3e906147d0565b80601f0160208091040260200160405190810160405280929190818152602001828054610a6a906147d0565b8015610ab75780601f10610a8c57610100808354040283529160200191610ab7565b820191906000526020600020905b815481529060010190602001808311610a9a57829003601f168201915b50505050509050919050565b610acb612372565b6000801b610ad8816123bc565b81610ae28161114d565b610b21576040517f08c379a0000000000000000000000000000000000000000000000000000000008152600401610b1890614502565b60405180910390fd5b84600073ffffffffffffffffffffffffffffffffffffffff168173ffffffffffffffffffffffffffffffffffffffff1603610b91576040517f08c379a0000000000000000000000000000000000000000000000000000000008152600401610b88906145da565b60405180910390fd5b84600073ffffffffffffffffffffffffffffffffffffffff168173ffffffffffffffffffffffffffffffffffffffff1603610c01576040517f08c379a0000000000000000000000000000000000000000000000000000000008152600401610bf8906145da565b60405180910390fd5b6008600086815260200190815260200160002060008873ffffffffffffffffffffffffffffffffffffffff1673ffffffffffffffffffffffffffffffffffffffff168152602001908152602001600020600201546008600087815260200190815260200160002060008973ffffffffffffffffffffffffffffffffffffffff1673ffffffffffffffffffffffffffffffffffffffff1681526020019081526020016000206001015411610ce9576040517f08c379a0000000000000000000000000000000000000000000000000000000008152600401610ce09061484d565b60405180910390fd5b6008600086815260200190815260200160002060008873ffffffffffffffffffffffffffffffffffffffff1673ffffffffffffffffffffffffffffffffffffffff168152602001908152602001600020600301869080600181540180825580915050600190039060005260206000200160009091909190916101000a81548173ffffffffffffffffffffffffffffffffffffffff021916908373ffffffffffffffffffffffffffffffffffffffff16021790555060006008600087815260200190815260200160002060008973ffffffffffffffffffffffffffffffffffffffff1673ffffffffffffffffffffffffffffffffffffffff1681526020019081526020016000206002015403610e0257610e01876123d0565b5b6008600086815260200190815260200160002060008873ffffffffffffffffffffffffffffffffffffffff1673ffffffffffffffffffffffffffffffffffffffff1681526020019081526020016000206002016000815480929190610e669061486d565b91905055508573ffffffffffffffffffffffffffffffffffffffff168773ffffffffffffffffffffffffffffffffffffffff16867f293e36bbce608551a8ef03dba20114986371a7df520fde646a2a4a8136c8fc0e60405160405180910390a450505050505050565b600060056000838152602001908152602001600020600101549050919050565b610ef76123df565b73ffffffffffffffffffffffffffffffffffffffff168573ffffffffffffffffffffffffffffffffffffffff161480610f3d5750610f3c85610f376123df565b6121c3565b5b610f7c576040517f08c379a0000000000000000000000000000000000000000000000000000000008152600401610f7390614927565b60405180910390fd5b610f8985858585856123e7565b5050505050565b610f9982610ecf565b610fa2816123bc565b610fac8383612708565b505050565b610fb96123df565b73ffffffffffffffffffffffffffffffffffffffff168173ffffffffffffffffffffffffffffffffffffffff1614611026576040517f08c379a000000000000000000000000000000000000000000000000000000000815260040161101d906149b9565b60405180910390fd5b61103082826127e9565b5050565b6060815183511461107a576040517f08c379a000000000000000000000000000000000000000000000000000000000815260040161107190614a4b565b60405180910390fd5b6000835167ffffffffffffffff81111561109757611096613c52565b5b6040519080825280602002602001820160405280156110c55781602001602082028036833780820191505090505b50905060005b8451811015611142576111128582815181106110ea576110e9614a6b565b5b602002602001015185838151811061110557611104614a6b565b5b60200260200101516104dc565b82828151811061112557611124614a6b565b5b6020026020010181815250508061113b9061486d565b90506110cb565b508091505092915050565b60008061115983611fab565b119050919050565b6000600460009054906101000a900460ff16905090565b60006008600083815260200190815260200160002060008473ffffffffffffffffffffffffffffffffffffffff1673ffffffffffffffffffffffffffffffffffffffff16815260200190815260200160002060010154905092915050565b6111de612372565b826111e88161114d565b611227576040517f08c379a000000000000000000000000000000000000000000000000000000000815260040161121e90614502565b60405180910390fd5b82600073ffffffffffffffffffffffffffffffffffffffff168173ffffffffffffffffffffffffffffffffffffffff1603611297576040517f08c379a000000000000000000000000000000000000000000000000000000000815260040161128e906145da565b60405180910390fd5b848460006008600084815260200190815260200160002060008373ffffffffffffffffffffffffffffffffffffffff1673ffffffffffffffffffffffffffffffffffffffff168152602001908152602001600020600101541161132f576040517f08c379a0000000000000000000000000000000000000000000000000000000008152600401611326906146b2565b60405180910390fd5b60003390507fffffffffffffffffffffffffffffffffffffffffffffffffffffffffffffffff8603611396576040517f08c379a000000000000000000000000000000000000000000000000000000000815260040161138d90614ae6565b60405180910390fd5b6000600860008a815260200190815260200160002060008973ffffffffffffffffffffffffffffffffffffffff1673ffffffffffffffffffffffffffffffffffffffff16815260200190815260200160002060000154905060006103e86019836114009190614b06565b61140a9190614b77565b905061142989848c600060405180602001604052806000815250612257565b60008973ffffffffffffffffffffffffffffffffffffffff168360405161144f90614bd9565b60006040518083038185875af1925050503d806000811461148c576040519150601f19603f3d011682016040523d82523d6000602084013e611491565b606091505b50509050806114d5576040517f08c379a00000000000000000000000000000000000000000000000000000000081526004016114cc90614c3a565b60405180910390fd5b600860008c815260200190815260200160002060008b73ffffffffffffffffffffffffffffffffffffffff1673ffffffffffffffffffffffffffffffffffffffff168152602001908152602001600020600101600081548092919061153990614c5a565b9190505550600860008c815260200190815260200160002060008b73ffffffffffffffffffffffffffffffffffffffff1673ffffffffffffffffffffffffffffffffffffffff16815260200190815260200160002060020160008154809291906115a290614c5a565b91905055506000600860008d815260200190815260200160002060008c73ffffffffffffffffffffffffffffffffffffffff1673ffffffffffffffffffffffffffffffffffffffff1681526020019081526020016000206003018a8154811061160e5761160d614a6b565b5b9060005260206000200160006101000a81548173ffffffffffffffffffffffffffffffffffffffff021916908373ffffffffffffffffffffffffffffffffffffffff1602179055506000600860008d815260200190815260200160002060008c73ffffffffffffffffffffffffffffffffffffffff1673ffffffffffffffffffffffffffffffffffffffff16815260200190815260200160002060020154036116bb576116ba8a6128cb565b5b6000600860008d815260200190815260200160002060008c73ffffffffffffffffffffffffffffffffffffffff1673ffffffffffffffffffffffffffffffffffffffff168152602001908152602001600020600101540361179257600860008c815260200190815260200160002060008b73ffffffffffffffffffffffffffffffffffffffff1673ffffffffffffffffffffffffffffffffffffffff1681526020019081526020016000206000808201600090556001820160009055600282016000905560038201600061178f9190613830565b50505b8a8473ffffffffffffffffffffffffffffffffffffffff168b73ffffffffffffffffffffffffffffffffffffffff167f4e14d3d55a435ef2aee46756984f50ee42f895efb7eb97f9c8ab2ea0961da73560405160405180910390a45050505050505050505050565b611802612372565b8261180c8161114d565b61184b576040517f08c379a000000000000000000000000000000000000000000000000000000000815260040161184290614502565b60405180910390fd5b816000811161188f576040517f08c379a00000000000000000000000000000000000000000000000000000000081526004016118869061456e565b60405180910390fd5b83600073ffffffffffffffffffffffffffffffffffffffff168173ffffffffffffffffffffffffffffffffffffffff16036118ff576040517f08c379a00000000000000000000000000000000000000000000000000000000081526004016118f6906145da565b60405180910390fd5b8461190a33826121c3565b611949576040517f08c379a000000000000000000000000000000000000000000000000000000000815260040161194090614646565b60405180910390fd5b868660006008600084815260200190815260200160002060008373ffffffffffffffffffffffffffffffffffffffff1673ffffffffffffffffffffffffffffffffffffffff16815260200190815260200160002060010154116119e1576040517f08c379a00000000000000000000000000000000000000000000000000000000081526004016119d8906146b2565b60405180910390fd5b6000600860008b815260200190815260200160002060008a73ffffffffffffffffffffffffffffffffffffffff1673ffffffffffffffffffffffffffffffffffffffff1681526020019081526020016000206002015414611a77576040517f08c379a0000000000000000000000000000000000000000000000000000000008152600401611a6e90614ccf565b60405180910390fd5b6000600860008b815260200190815260200160002060008a73ffffffffffffffffffffffffffffffffffffffff1673ffffffffffffffffffffffffffffffffffffffff16815260200190815260200160002060000154905087600860008c815260200190815260200160002060008b73ffffffffffffffffffffffffffffffffffffffff1673ffffffffffffffffffffffffffffffffffffffff1681526020019081526020016000206000018190555087818b7f0102bf50452715279cbb01eacc751d98fbefecf58e68dcd55a805f9b3c514fe033604051611b599190614cfe565b60405180910390a450505050505050505050565b60006005600084815260200190815260200160002060000160008373ffffffffffffffffffffffffffffffffffffffff1673ffffffffffffffffffffffffffffffffffffffff16815260200190815260200160002060009054906101000a900460ff16905092915050565b6000801b81565b611bf1611bea6123df565b83836128da565b5050565b611bfd612372565b83611c078161114d565b611c46576040517f08c379a0000000000000000000000000000000000000000000000000000000008152600401611c3d90614502565b60405180910390fd5b8260008111611c8a576040517f08c379a0000000000000000000000000000000000000000000000000000000008152600401611c819061456e565b60405180910390fd5b8260008111611cce576040517f08c379a0000000000000000000000000000000000000000000000000000000008152600401611cc59061456e565b60405180910390fd5b85600073ffffffffffffffffffffffffffffffffffffffff168173ffffffffffffffffffffffffffffffffffffffff1603611d3e576040517f08c379a0000000000000000000000000000000000000000000000000000000008152600401611d35906145da565b60405180910390fd5b86611d4933826121c3565b611d88576040517f08c379a0000000000000000000000000000000000000000000000000000000008152600401611d7f90614646565b60405180910390fd5b85600860008b815260200190815260200160002060008a73ffffffffffffffffffffffffffffffffffffffff1673ffffffffffffffffffffffffffffffffffffffff16815260200190815260200160002060010154611de78a8c6104dc565b611df19190614701565b1015611e32576040517f08c379a0000000000000000000000000000000000000000000000000000000008152600401611e2990614d65565b60405180910390fd5b6000600860008b815260200190815260200160002060008a73ffffffffffffffffffffffffffffffffffffffff1673ffffffffffffffffffffffffffffffffffffffff1681526020019081526020016000206002015403611ee65786600860008b815260200190815260200160002060008a73ffffffffffffffffffffffffffffffffffffffff1673ffffffffffffffffffffffffffffffffffffffff168152602001908152602001600020600001819055505b85600860008b815260200190815260200160002060008a73ffffffffffffffffffffffffffffffffffffffff1673ffffffffffffffffffffffffffffffffffffffff1681526020019081526020016000206001016000828254611f499190614d85565b92505081905550868873ffffffffffffffffffffffffffffffffffffffff168a7f55cbae8317df70e8af66b23c30f5bc00600239c96d89aaca95308c26bf1a5e0589604051611f989190613965565b60405180910390a4505050505050505050565b600060036000838152602001908152602001600020549050919050565b611fd182610ecf565b611fda816123bc565b611fe483836127e9565b505050565b6000806008600086815260200190815260200160002060008573ffffffffffffffffffffffffffffffffffffffff1673ffffffffffffffffffffffffffffffffffffffff16815260200190815260200160002060030180549050905060006008600087815260200190815260200160002060008673ffffffffffffffffffffffffffffffffffffffff1673ffffffffffffffffffffffffffffffffffffffff16815260200190815260200160002060030180548060200260200160405190810160405280929190818152602001828054801561211a57602002820191906000526020600020905b8160009054906101000a900473ffffffffffffffffffffffffffffffffffffffff1673ffffffffffffffffffffffffffffffffffffffff16815260200190600101908083116120d0575b5050505050905060005b82811015612195578473ffffffffffffffffffffffffffffffffffffffff1682828151811061215657612155614a6b565b5b602002602001015173ffffffffffffffffffffffffffffffffffffffff1603612184578093505050506121bc565b8061218e9061486d565b9050612124565b507fffffffffffffffffffffffffffffffffffffffffffffffffffffffffffffffff925050505b9392505050565b6000600160008473ffffffffffffffffffffffffffffffffffffffff1673ffffffffffffffffffffffffffffffffffffffff16815260200190815260200160002060008373ffffffffffffffffffffffffffffffffffffffff1673ffffffffffffffffffffffffffffffffffffffff16815260200190815260200160002060009054906101000a900460ff16905092915050565b61225f6123df565b73ffffffffffffffffffffffffffffffffffffffff168573ffffffffffffffffffffffffffffffffffffffff1614806122a557506122a48561229f6123df565b6121c3565b5b6122e4576040517f08c379a00000000000000000000000000000000000000000000000000000000081526004016122db90614927565b60405180910390fd5b6122f18585858585612a46565b5050505050565b60007f7965db0b000000000000000000000000000000000000000000000000000000007bffffffffffffffffffffffffffffffffffffffffffffffffffffffff1916827bffffffffffffffffffffffffffffffffffffffffffffffffffffffff1916148061236b575061236a82612ce1565b5b9050919050565b61237a611161565b156123ba576040517f08c379a00000000000000000000000000000000000000000000000000000000081526004016123b190614e05565b60405180910390fd5b565b6123cd816123c86123df565b612dc3565b50565b6123dc813060016128da565b50565b600033905090565b815183511461242b576040517f08c379a000000000000000000000000000000000000000000000000000000000815260040161242290614e97565b60405180910390fd5b600073ffffffffffffffffffffffffffffffffffffffff168473ffffffffffffffffffffffffffffffffffffffff160361249a576040517f08c379a000000000000000000000000000000000000000000000000000000000815260040161249190614f29565b60405180910390fd5b60006124a46123df565b90506124b4818787878787612e48565b60005b84518110156126655760008582815181106124d5576124d4614a6b565b5b6020026020010151905060008583815181106124f4576124f3614a6b565b5b60200260200101519050600080600084815260200190815260200160002060008b73ffffffffffffffffffffffffffffffffffffffff1673ffffffffffffffffffffffffffffffffffffffff16815260200190815260200160002054905081811015612595576040517f08c379a000000000000000000000000000000000000000000000000000000000815260040161258c90614fbb565b60405180910390fd5b81810360008085815260200190815260200160002060008c73ffffffffffffffffffffffffffffffffffffffff1673ffffffffffffffffffffffffffffffffffffffff168152602001908152602001600020819055508160008085815260200190815260200160002060008b73ffffffffffffffffffffffffffffffffffffffff1673ffffffffffffffffffffffffffffffffffffffff168152602001908152602001600020600082825461264a9190614d85565b925050819055505050508061265e9061486d565b90506124b7565b508473ffffffffffffffffffffffffffffffffffffffff168673ffffffffffffffffffffffffffffffffffffffff168273ffffffffffffffffffffffffffffffffffffffff167f4a39dc06d4c0dbc64b70af90fd698a233a518aa5d07e595d983b8c0526c8f7fb87876040516126dc929190614fdb565b60405180910390a46126f2818787878787612f32565b612700818787878787612f3a565b505050505050565b6127128282611b6d565b6127e55760016005600084815260200190815260200160002060000160008373ffffffffffffffffffffffffffffffffffffffff1673ffffffffffffffffffffffffffffffffffffffff16815260200190815260200160002060006101000a81548160ff02191690831515021790555061278a6123df565b73ffffffffffffffffffffffffffffffffffffffff168173ffffffffffffffffffffffffffffffffffffffff16837f2f8788117e7eff1d82e926ec794901d17c78024a50270940304540a733656f0d60405160405180910390a45b5050565b6127f38282611b6d565b156128c75760006005600084815260200190815260200160002060000160008373ffffffffffffffffffffffffffffffffffffffff1673ffffffffffffffffffffffffffffffffffffffff16815260200190815260200160002060006101000a81548160ff02191690831515021790555061286c6123df565b73ffffffffffffffffffffffffffffffffffffffff168173ffffffffffffffffffffffffffffffffffffffff16837ff6391f5c32d9c69d2a47ea670b442974b53935d1edc7fd64eb21e047a839171b60405160405180910390a45b5050565b6128d7813060006128da565b50565b8173ffffffffffffffffffffffffffffffffffffffff168373ffffffffffffffffffffffffffffffffffffffff1603612948576040517f08c379a000000000000000000000000000000000000000000000000000000000815260040161293f90615084565b60405180910390fd5b80600160008573ffffffffffffffffffffffffffffffffffffffff1673ffffffffffffffffffffffffffffffffffffffff16815260200190815260200160002060008473ffffffffffffffffffffffffffffffffffffffff1673ffffffffffffffffffffffffffffffffffffffff16815260200190815260200160002060006101000a81548160ff0219169083151502179055508173ffffffffffffffffffffffffffffffffffffffff168373ffffffffffffffffffffffffffffffffffffffff167f17307eab39ab6107e8899845ad3d59bd9653f200f220920489ca2b5937696c3183604051612a399190613a20565b60405180910390a3505050565b600073ffffffffffffffffffffffffffffffffffffffff168473ffffffffffffffffffffffffffffffffffffffff1603612ab5576040517f08c379a0000000000000000000000000000000000000000000000000000000008152600401612aac90614f29565b60405180910390fd5b6000612abf6123df565b90506000612acc85613111565b90506000612ad985613111565b9050612ae9838989858589612e48565b600080600088815260200190815260200160002060008a73ffffffffffffffffffffffffffffffffffffffff1673ffffffffffffffffffffffffffffffffffffffff16815260200190815260200160002054905085811015612b80576040517f08c379a0000000000000000000000000000000000000000000000000000000008152600401612b7790614fbb565b60405180910390fd5b85810360008089815260200190815260200160002060008b73ffffffffffffffffffffffffffffffffffffffff1673ffffffffffffffffffffffffffffffffffffffff168152602001908152602001600020819055508560008089815260200190815260200160002060008a73ffffffffffffffffffffffffffffffffffffffff1673ffffffffffffffffffffffffffffffffffffffff1681526020019081526020016000206000828254612c359190614d85565b925050819055508773ffffffffffffffffffffffffffffffffffffffff168973ffffffffffffffffffffffffffffffffffffffff168573ffffffffffffffffffffffffffffffffffffffff167fc3d58168c5ae7397731d063d5bbf3d657854427343f4c083240f7aacaa2d0f628a8a604051612cb29291906150a4565b60405180910390a4612cc8848a8a86868a612f32565b612cd6848a8a8a8a8a61318b565b505050505050505050565b60007fd9b67a26000000000000000000000000000000000000000000000000000000007bffffffffffffffffffffffffffffffffffffffffffffffffffffffff1916827bffffffffffffffffffffffffffffffffffffffffffffffffffffffff19161480612dac57507f0e89341c000000000000000000000000000000000000000000000000000000007bffffffffffffffffffffffffffffffffffffffffffffffffffffffff1916827bffffffffffffffffffffffffffffffffffffffffffffffffffffffff1916145b80612dbc5750612dbb82613362565b5b9050919050565b612dcd8282611b6d565b612e4457612dda816133cc565b612de88360001c60206133f9565b604051602001612df99291906151a1565b6040516020818303038152906040526040517f08c379a0000000000000000000000000000000000000000000000000000000008152600401612e3b9190613b4b565b60405180910390fd5b5050565b612e50612372565b60005b8351811015612f1b57828181518110612e6f57612e6e614a6b565b5b6020026020010151612e9b87868481518110612e8e57612e8d614a6b565b5b6020026020010151611178565b612ebf88878581518110612eb257612eb1614a6b565b5b60200260200101516104dc565b612ec99190614701565b1015612f0a576040517f08c379a0000000000000000000000000000000000000000000000000000000008152600401612f0190615227565b60405180910390fd5b80612f149061486d565b9050612e53565b50612f2a868686868686613635565b505050505050565b505050505050565b612f598473ffffffffffffffffffffffffffffffffffffffff16613805565b15613109578373ffffffffffffffffffffffffffffffffffffffff1663bc197c8187878686866040518663ffffffff1660e01b8152600401612f9f95949392919061529c565b6020604051808303816000875af1925050508015612fdb57506040513d601f19601f82011682018060405250810190612fd89190615319565b60015b61308057612fe7615353565b806308c379a0036130435750612ffb615375565b806130065750613045565b806040517f08c379a000000000000000000000000000000000000000000000000000000000815260040161303a9190613b4b565b60405180910390fd5b505b6040517f08c379a000000000000000000000000000000000000000000000000000000000815260040161307790615477565b60405180910390fd5b63bc197c8160e01b7bffffffffffffffffffffffffffffffffffffffffffffffffffffffff1916817bffffffffffffffffffffffffffffffffffffffffffffffffffffffff191614613107576040517f08c379a00000000000000000000000000000000000000000000000000000000081526004016130fe90615509565b60405180910390fd5b505b505050505050565b60606000600167ffffffffffffffff8111156131305761312f613c52565b5b60405190808252806020026020018201604052801561315e5781602001602082028036833780820191505090505b509050828160008151811061317657613175614a6b565b5b60200260200101818152505080915050919050565b6131aa8473ffffffffffffffffffffffffffffffffffffffff16613805565b1561335a578373ffffffffffffffffffffffffffffffffffffffff1663f23a6e6187878686866040518663ffffffff1660e01b81526004016131f0959493929190615529565b6020604051808303816000875af192505050801561322c57506040513d601f19601f820116820180604052508101906132299190615319565b60015b6132d157613238615353565b806308c379a003613294575061324c615375565b806132575750613296565b806040517f08c379a000000000000000000000000000000000000000000000000000000000815260040161328b9190613b4b565b60405180910390fd5b505b6040517f08c379a00000000000000000000000000000000000000000000000000000000081526004016132c890615477565b60405180910390fd5b63f23a6e6160e01b7bffffffffffffffffffffffffffffffffffffffffffffffffffffffff1916817bffffffffffffffffffffffffffffffffffffffffffffffffffffffff191614613358576040517f08c379a000000000000000000000000000000000000000000000000000000000815260040161334f90615509565b60405180910390fd5b505b505050505050565b60007f01ffc9a7000000000000000000000000000000000000000000000000000000007bffffffffffffffffffffffffffffffffffffffffffffffffffffffff1916827bffffffffffffffffffffffffffffffffffffffffffffffffffffffff1916149050919050565b60606133f28273ffffffffffffffffffffffffffffffffffffffff16601460ff166133f9565b9050919050565b60606000600283600261340c9190614b06565b6134169190614d85565b67ffffffffffffffff81111561342f5761342e613c52565b5b6040519080825280601f01601f1916602001820160405280156134615781602001600182028036833780820191505090505b5090507f30000000000000000000000000000000000000000000000000000000000000008160008151811061349957613498614a6b565b5b60200101907effffffffffffffffffffffffffffffffffffffffffffffffffffffffffffff1916908160001a9053507f7800000000000000000000000000000000000000000000000000000000000000816001815181106134fd576134fc614a6b565b5b60200101907effffffffffffffffffffffffffffffffffffffffffffffffffffffffffffff1916908160001a9053506000600184600261353d9190614b06565b6135479190614d85565b90505b60018111156135e7577f3031323334353637383961626364656600000000000000000000000000000000600f86166010811061358957613588614a6b565b5b1a60f81b8282815181106135a05761359f614a6b565b5b60200101907effffffffffffffffffffffffffffffffffffffffffffffffffffffffffffff1916908160001a905350600485901c9450806135e090614c5a565b905061354a565b506000841461362b576040517f08c379a0000000000000000000000000000000000000000000000000000000008152600401613622906155cf565b60405180910390fd5b8091505092915050565b613643868686868686613828565b600073ffffffffffffffffffffffffffffffffffffffff168573ffffffffffffffffffffffffffffffffffffffff16036136f45760005b83518110156136f25782818151811061369657613695614a6b565b5b6020026020010151600360008684815181106136b5576136b4614a6b565b5b6020026020010151815260200190815260200160002060008282546136da9190614d85565b92505081905550806136eb9061486d565b905061367a565b505b600073ffffffffffffffffffffffffffffffffffffffff168473ffffffffffffffffffffffffffffffffffffffff16036137fd5760005b83518110156137fb57600084828151811061374957613748614a6b565b5b60200260200101519050600084838151811061376857613767614a6b565b5b60200260200101519050600060036000848152602001908152602001600020549050818110156137cd576040517f08c379a00000000000000000000000000000000000000000000000000000000081526004016137c490615661565b60405180910390fd5b8181036003600085815260200190815260200160002081905550505050806137f49061486d565b905061372b565b505b505050505050565b6000808273ffffffffffffffffffffffffffffffffffffffff163b119050919050565b505050505050565b508054600082559060005260206000209081019061384e9190613851565b50565b5b8082111561386a576000816000905550600101613852565b5090565b6000604051905090565b600080fd5b600080fd5b600073ffffffffffffffffffffffffffffffffffffffff82169050919050565b60006138ad82613882565b9050919050565b6138bd816138a2565b81146138c857600080fd5b50565b6000813590506138da816138b4565b92915050565b6000819050919050565b6138f3816138e0565b81146138fe57600080fd5b50565b600081359050613910816138ea565b92915050565b6000806040838503121561392d5761392c613878565b5b600061393b858286016138cb565b925050602061394c85828601613901565b9150509250929050565b61395f816138e0565b82525050565b600060208201905061397a6000830184613956565b92915050565b60007fffffffff0000000000000000000000000000000000000000000000000000000082169050919050565b6139b581613980565b81146139c057600080fd5b50565b6000813590506139d2816139ac565b92915050565b6000602082840312156139ee576139ed613878565b5b60006139fc848285016139c3565b91505092915050565b60008115159050919050565b613a1a81613a05565b82525050565b6000602082019050613a356000830184613a11565b92915050565b600080600060608486031215613a5457613a53613878565b5b6000613a6286828701613901565b9350506020613a73868287016138cb565b9250506040613a8486828701613901565b9150509250925092565b600060208284031215613aa457613aa3613878565b5b6000613ab284828501613901565b91505092915050565b600081519050919050565b600082825260208201905092915050565b60005b83811015613af5578082015181840152602081019050613ada565b60008484015250505050565b6000601f19601f8301169050919050565b6000613b1d82613abb565b613b278185613ac6565b9350613b37818560208601613ad7565b613b4081613b01565b840191505092915050565b60006020820190508181036000830152613b658184613b12565b905092915050565b600080600060608486031215613b8657613b85613878565b5b6000613b94868287016138cb565b9350506020613ba5868287016138cb565b9250506040613bb686828701613901565b9150509250925092565b6000819050919050565b613bd381613bc0565b8114613bde57600080fd5b50565b600081359050613bf081613bca565b92915050565b600060208284031215613c0c57613c0b613878565b5b6000613c1a84828501613be1565b91505092915050565b613c2c81613bc0565b82525050565b6000602082019050613c476000830184613c23565b92915050565b600080fd5b7f4e487b7100000000000000000000000000000000000000000000000000000000600052604160045260246000fd5b613c8a82613b01565b810181811067ffffffffffffffff82111715613ca957613ca8613c52565b5b80604052505050565b6000613cbc61386e565b9050613cc88282613c81565b919050565b600067ffffffffffffffff821115613ce857613ce7613c52565b5b602082029050602081019050919050565b600080fd5b6000613d11613d0c84613ccd565b613cb2565b90508083825260208201905060208402830185811115613d3457613d33613cf9565b5b835b81811015613d5d5780613d498882613901565b845260208401935050602081019050613d36565b5050509392505050565b600082601f830112613d7c57613d7b613c4d565b5b8135613d8c848260208601613cfe565b91505092915050565b600080fd5b600067ffffffffffffffff821115613db557613db4613c52565b5b613dbe82613b01565b9050602081019050919050565b82818337600083830152505050565b6000613ded613de884613d9a565b613cb2565b905082815260208101848484011115613e0957613e08613d95565b5b613e14848285613dcb565b509392505050565b600082601f830112613e3157613e30613c4d565b5b8135613e41848260208601613dda565b91505092915050565b600080600080600060a08688031215613e6657613e65613878565b5b6000613e74888289016138cb565b9550506020613e85888289016138cb565b945050604086013567ffffffffffffffff811115613ea657613ea561387d565b5b613eb288828901613d67565b935050606086013567ffffffffffffffff811115613ed357613ed261387d565b5b613edf88828901613d67565b925050608086013567ffffffffffffffff811115613f0057613eff61387d565b5b613f0c88828901613e1c565b9150509295509295909350565b60008060408385031215613f3057613f2f613878565b5b6000613f3e85828601613be1565b9250506020613f4f858286016138cb565b9150509250929050565b600067ffffffffffffffff821115613f7457613f73613c52565b5b602082029050602081019050919050565b6000613f98613f9384613f59565b613cb2565b90508083825260208201905060208402830185811115613fbb57613fba613cf9565b5b835b81811015613fe45780613fd088826138cb565b845260208401935050602081019050613fbd565b5050509392505050565b600082601f83011261400357614002613c4d565b5b8135614013848260208601613f85565b91505092915050565b6000806040838503121561403357614032613878565b5b600083013567ffffffffffffffff8111156140515761405061387d565b5b61405d85828601613fee565b925050602083013567ffffffffffffffff81111561407e5761407d61387d565b5b61408a85828601613d67565b9150509250929050565b600081519050919050565b600082825260208201905092915050565b6000819050602082019050919050565b6140c9816138e0565b82525050565b60006140db83836140c0565b60208301905092915050565b6000602082019050919050565b60006140ff82614094565b614109818561409f565b9350614114836140b0565b8060005b8381101561414557815161412c88826140cf565b9750614137836140e7565b925050600181019050614118565b5085935050505092915050565b6000602082019050818103600083015261416c81846140f4565b905092915050565b6000819050919050565b61418781614174565b811461419257600080fd5b50565b6000813590506141a48161417e565b92915050565b6000806000606084860312156141c3576141c2613878565b5b60006141d186828701613901565b93505060206141e2868287016138cb565b92505060406141f386828701614195565b9150509250925092565b61420681613a05565b811461421157600080fd5b50565b600081359050614223816141fd565b92915050565b600080604083850312156142405761423f613878565b5b600061424e858286016138cb565b925050602061425f85828601614214565b9150509250929050565b6000806000806080858703121561428357614282613878565b5b600061429187828801613901565b94505060206142a2878288016138cb565b93505060406142b387828801613901565b92505060606142c487828801613901565b91505092959194509250565b6000806000606084860312156142e9576142e8613878565b5b60006142f786828701613901565b9350506020614308868287016138cb565b9250506040614319868287016138cb565b9150509250925092565b61432c81614174565b82525050565b60006020820190506143476000830184614323565b92915050565b6000806040838503121561436457614363613878565b5b6000614372858286016138cb565b9250506020614383858286016138cb565b9150509250929050565b600080600080600060a086880312156143a9576143a8613878565b5b60006143b7888289016138cb565b95505060206143c8888289016138cb565b94505060406143d988828901613901565b93505060606143ea88828901613901565b925050608086013567ffffffffffffffff81111561440b5761440a61387d565b5b61441788828901613e1c565b9150509295509295909350565b7f455243313135353a2061646472657373207a65726f206973206e6f742061207660008201527f616c6964206f776e657200000000000000000000000000000000000000000000602082015250565b6000614480602a83613ac6565b915061448b82614424565b604082019050919050565b600060208201905081810360008301526144af81614473565b9050919050565b7f496e76616c696420494400000000000000000000000000000000000000000000600082015250565b60006144ec600a83613ac6565b91506144f7826144b6565b602082019050919050565b6000602082019050818103600083015261451b816144df565b9050919050565b7f496e76616c69642070726963652f616d6f756e74000000000000000000000000600082015250565b6000614558601483613ac6565b915061456382614522565b602082019050919050565b600060208201905081810360008301526145878161454b565b9050919050565b7f496e76616c696420616464726573730000000000000000000000000000000000600082015250565b60006145c4600f83613ac6565b91506145cf8261458e565b602082019050919050565b600060208201905081810360008301526145f3816145b7565b9050919050565b7f556e617574686f72697a6564206163636f756e74000000000000000000000000600082015250565b6000614630601483613ac6565b915061463b826145fa565b602082019050919050565b6000602082019050818103600083015261465f81614623565b9050919050565b7f452d426f6f6b206973206e6f74206c6973746564206f7220736f6c64206f7574600082015250565b600061469c602083613ac6565b91506146a782614666565b602082019050919050565b600060208201905081810360008301526146cb8161468f565b9050919050565b7f4e487b7100000000000000000000000000000000000000000000000000000000600052601160045260246000fd5b600061470c826138e0565b9150614717836138e0565b925082820390508181111561472f5761472e6146d2565b5b92915050565b7f457863656564656420616d6f756e7420746f20756e6c69737400000000000000600082015250565b600061476b601983613ac6565b915061477682614735565b602082019050919050565b6000602082019050818103600083015261479a8161475e565b9050919050565b7f4e487b7100000000000000000000000000000000000000000000000000000000600052602260045260246000fd5b600060028204905060018216806147e857607f821691505b6020821081036147fb576147fa6147a1565b5b50919050565b7f4f7264657220616c6c2066756c66696c6c656400000000000000000000000000600082015250565b6000614837601383613ac6565b915061484282614801565b602082019050919050565b600060208201905081810360008301526148668161482a565b9050919050565b6000614878826138e0565b91507fffffffffffffffffffffffffffffffffffffffffffffffffffffffffffffffff82036148aa576148a96146d2565b5b600182019050919050565b7f455243313135353a2063616c6c6572206973206e6f7420746f6b656e206f776e60008201527f6572206f7220617070726f766564000000000000000000000000000000000000602082015250565b6000614911602e83613ac6565b915061491c826148b5565b604082019050919050565b6000602082019050818103600083015261494081614904565b9050919050565b7f416363657373436f6e74726f6c3a2063616e206f6e6c792072656e6f756e636560008201527f20726f6c657320666f722073656c660000000000000000000000000000000000602082015250565b60006149a3602f83613ac6565b91506149ae82614947565b604082019050919050565b600060208201905081810360008301526149d281614996565b9050919050565b7f455243313135353a206163636f756e747320616e6420696473206c656e67746860008201527f206d69736d617463680000000000000000000000000000000000000000000000602082015250565b6000614a35602983613ac6565b9150614a40826149d9565b604082019050919050565b60006020820190508181036000830152614a6481614a28565b9050919050565b7f4e487b7100000000000000000000000000000000000000000000000000000000600052603260045260246000fd5b7f6e6f742062757965720000000000000000000000000000000000000000000000600082015250565b6000614ad0600983613ac6565b9150614adb82614a9a565b602082019050919050565b60006020820190508181036000830152614aff81614ac3565b9050919050565b6000614b11826138e0565b9150614b1c836138e0565b9250828202614b2a816138e0565b91508282048414831517614b4157614b406146d2565b5b5092915050565b7f4e487b7100000000000000000000000000000000000000000000000000000000600052601260045260246000fd5b6000614b82826138e0565b9150614b8d836138e0565b925082614b9d57614b9c614b48565b5b828204905092915050565b600081905092915050565b50565b6000614bc3600083614ba8565b9150614bce82614bb3565b600082019050919050565b6000614be482614bb6565b9150819050919050565b7f427579696e67206661696c656400000000000000000000000000000000000000600082015250565b6000614c24600d83613ac6565b9150614c2f82614bee565b602082019050919050565b60006020820190508181036000830152614c5381614c17565b9050919050565b6000614c65826138e0565b915060008203614c7857614c776146d2565b5b600182039050919050565b7f4275796572206861732064657465726d696e6564000000000000000000000000600082015250565b6000614cb9601483613ac6565b9150614cc482614c83565b602082019050919050565b60006020820190508181036000830152614ce881614cac565b9050919050565b614cf8816138a2565b82525050565b6000602082019050614d136000830184614cef565b92915050565b7f496e73656666696369656e742062616c616e636520746f206c69737400000000600082015250565b6000614d4f601c83613ac6565b9150614d5a82614d19565b602082019050919050565b60006020820190508181036000830152614d7e81614d42565b9050919050565b6000614d90826138e0565b9150614d9b836138e0565b9250828201905080821115614db357614db26146d2565b5b92915050565b7f5061757361626c653a2070617573656400000000000000000000000000000000600082015250565b6000614def601083613ac6565b9150614dfa82614db9565b602082019050919050565b60006020820190508181036000830152614e1e81614de2565b9050919050565b7f455243313135353a2069647320616e6420616d6f756e7473206c656e6774682060008201527f6d69736d61746368000000000000000000000000000000000000000000000000602082015250565b6000614e81602883613ac6565b9150614e8c82614e25565b604082019050919050565b60006020820190508181036000830152614eb081614e74565b9050919050565b7f455243313135353a207472616e7366657220746f20746865207a65726f20616460008201527f6472657373000000000000000000000000000000000000000000000000000000602082015250565b6000614f13602583613ac6565b9150614f1e82614eb7565b604082019050919050565b60006020820190508181036000830152614f4281614f06565b9050919050565b7f455243313135353a20696e73756666696369656e742062616c616e636520666f60008201527f72207472616e7366657200000000000000000000000000000000000000000000602082015250565b6000614fa5602a83613ac6565b9150614fb082614f49565b604082019050919050565b60006020820190508181036000830152614fd481614f98565b9050919050565b60006040820190508181036000830152614ff581856140f4565b9050818103602083015261500981846140f4565b90509392505050565b7f455243313135353a2073657474696e6720617070726f76616c2073746174757360008201527f20666f722073656c660000000000000000000000000000000000000000000000602082015250565b600061506e602983613ac6565b915061507982615012565b604082019050919050565b6000602082019050818103600083015261509d81615061565b9050919050565b60006040820190506150b96000830185613956565b6150c66020830184613956565b9392505050565b600081905092915050565b7f416363657373436f6e74726f6c3a206163636f756e7420000000000000000000600082015250565b600061510e6017836150cd565b9150615119826150d8565b601782019050919050565b600061512f82613abb565b61513981856150cd565b9350615149818560208601613ad7565b80840191505092915050565b7f206973206d697373696e6720726f6c6520000000000000000000000000000000600082015250565b600061518b6011836150cd565b915061519682615155565b601182019050919050565b60006151ac82615101565b91506151b88285615124565b91506151c38261517e565b91506151cf8284615124565b91508190509392505050565b7f496e73756666696369656e742062616c616e636520746f207472616e73666572600082015250565b6000615211602083613ac6565b915061521c826151db565b602082019050919050565b6000602082019050818103600083015261524081615204565b9050919050565b600081519050919050565b600082825260208201905092915050565b600061526e82615247565b6152788185615252565b9350615288818560208601613ad7565b61529181613b01565b840191505092915050565b600060a0820190506152b16000830188614cef565b6152be6020830187614cef565b81810360408301526152d081866140f4565b905081810360608301526152e481856140f4565b905081810360808301526152f88184615263565b90509695505050505050565b600081519050615313816139ac565b92915050565b60006020828403121561532f5761532e613878565b5b600061533d84828501615304565b91505092915050565b60008160e01c9050919050565b600060033d11156153725760046000803e61536f600051615346565b90505b90565b600060443d106154025761538761386e565b60043d036004823e80513d602482011167ffffffffffffffff821117156153af575050615402565b808201805167ffffffffffffffff8111156153cd5750505050615402565b80602083010160043d0385018111156153ea575050505050615402565b6153f982602001850186613c81565b82955050505050505b90565b7f455243313135353a207472616e7366657220746f206e6f6e2d4552433131353560008201527f526563656976657220696d706c656d656e746572000000000000000000000000602082015250565b6000615461603483613ac6565b915061546c82615405565b604082019050919050565b6000602082019050818103600083015261549081615454565b9050919050565b7f455243313135353a204552433131353552656365697665722072656a6563746560008201527f6420746f6b656e73000000000000000000000000000000000000000000000000602082015250565b60006154f3602883613ac6565b91506154fe82615497565b604082019050919050565b60006020820190508181036000830152615522816154e6565b9050919050565b600060a08201905061553e6000830188614cef565b61554b6020830187614cef565b6155586040830186613956565b6155656060830185613956565b81810360808301526155778184615263565b90509695505050505050565b7f537472696e67733a20686578206c656e67746820696e73756666696369656e74600082015250565b60006155b9602083613ac6565b91506155c482615583565b602082019050919050565b600060208201905081810360008301526155e8816155ac565b9050919050565b7f455243313135353a206275726e20616d6f756e74206578636565647320746f7460008201527f616c537570706c79000000000000000000000000000000000000000000000000602082015250565b600061564b602883613ac6565b9150615656826155ef565b604082019050919050565b6000602082019050818103600083015261567a8161563e565b905091905056fea264697066735822122050c22a632ee02cda42cd85654b2c6b582ae3f253cb7fa5041ed25d8e6ced685264736f6c63430008130033",
  "immutableReferences": {},
  "source": "// SPDX-License-Identifier: MIT\r\npragma solidity ^0.8.7;\r\n\r\n/*import \"../node_modules/@openzeppelin/contracts-upgradeable/token/ERC1155/ERC1155Upgradeable.sol\";\r\nimport \"../node_modules/@openzeppelin/contracts-upgradeable/token/ERC1155/extensions/ERC1155SupplyUpgradeable.sol\";\r\nimport \"../node_modules/@openzeppelin/contracts-upgradeable/security/PausableUpgradeable.sol\";\r\nimport \"../node_modules/@openzeppelin/contracts-upgradeable/access/AccessControlUpgradeable.sol\";*/\r\nimport \"../node_modules/@openzeppelin/contracts/token/ERC1155/ERC1155.sol\";\r\nimport \"../node_modules/@openzeppelin/contracts/token/ERC1155/extensions/ERC1155Supply.sol\";\r\nimport \"../node_modules/@openzeppelin/contracts/security/Pausable.sol\";\r\nimport \"../node_modules/@openzeppelin/contracts/access/AccessControl.sol\";\r\n\r\ncontract Market is ERC1155, ERC1155Supply, Pausable, AccessControl {\r\n\r\n    mapping (uint256 => bytes32) idToPublisher; // Anyone can check which publisher an id belongs to.\r\n    mapping (string => bool) publisherHasMember;\r\n\r\n    struct Listing {\r\n        uint256 price; // \r\n        uint256 listedBalance; // \r\n        uint256 buyerCounts; // \r\n        address[] buyers; // \r\n    }\r\n    \r\n    mapping (uint256 => mapping (address => Listing)) listings; // id => seller => Listing\r\n\r\n    address market;\r\n\r\n    event EBookListed(uint256 indexed id, address indexed seller, uint256 indexed price, uint256 amount);\r\n    event PriceModified(uint256 indexed id, address priceModifier, uint256 indexed originalPrice, uint256 indexed currentPrice);\r\n    event ListingCancelled(uint256 indexed id, address indexed seller, address indexed canceller);\r\n    event BuyerDetermined(uint256 indexed id, address indexed seller, address indexed buyer);\r\n    event TransactionMade(address indexed seller, address indexed buyer, uint256 indexed id);\r\n\r\n    constructor() ERC1155(\"\") {\r\n        //_disableInitializers();\r\n    }\r\n\r\n    modifier isIdExisted(uint256 id) {\r\n        require(super.exists(id), \"Invalid ID\");\r\n        _;\r\n    }\r\n\r\n    modifier IsPriceOrAmountValid(uint256 priceOrAmount) {\r\n        require(priceOrAmount > 0, \"Invalid price/amount\");\r\n        _;\r\n    }\r\n\r\n    modifier isApproved(address seller) {\r\n        require(super.isApprovedForAll(msg.sender, seller), \"Unauthorized account\");\r\n        _;\r\n    }\r\n\r\n    modifier isAddressValid(address addr) {\r\n        require(addr != address(0), \"Invalid address\");\r\n        _;\r\n    }\r\n\r\n    modifier IsEBookAvailableOnOrder(uint256 id, address seller) {  // /\r\n        require(listings[id][seller].listedBalance > 0, \"E-Book is not listed or sold out\");\r\n        _;\r\n    }\r\n\r\n    /*function initialize() initializer internal {\r\n        __ERC1155_init(\"\");\r\n        __AccessControl_init();\r\n\r\n        _grantRole(DEFAULT_ADMIN_ROLE, msg.sender);\r\n    }*/\r\n\r\n    //  Tim: ( determineBuyer )\r\n    function _grantApprovalToContract(address seller) private {\r\n        super._setApprovalForAll(seller, address(this), true);\r\n    }\r\n\r\n    // Tim: ( purchaseEBook )\r\n    function _revokeApprovalFromContract(address seller) private {\r\n        super._setApprovalForAll(seller, address(this), false);\r\n    }\r\n\r\n    function checkIsBuyer(uint256 id, address seller, address buyer) public view returns (int256) {\r\n\r\n        uint256 length = listings[id][seller].buyers.length;\r\n        address[] memory buyers = listings[id][seller].buyers;\r\n        \r\n        for (uint256 i = 0 ; i < length ; ++i) {\r\n            if (buyers[i] == buyer) {\r\n                return int256(i);\r\n            }\r\n        }\r\n\r\n        return -1;\r\n    }\r\n\r\n    // Tim:  ID \r\n    function listedBalanceOf(address account, uint256 id) public view virtual returns(uint256) {\r\n        return listings[id][account].listedBalance;\r\n    }\r\n\r\n    // Tim: \r\n    function listEBook(uint256 id, address seller, uint256 price, uint256 amount) public virtual whenNotPaused isIdExisted(id) IsPriceOrAmountValid(price) IsPriceOrAmountValid(amount) isAddressValid(seller) isApproved(seller) {\r\n        require(balanceOf(seller, id) - listings[id][seller].listedBalance >= amount, \"Insefficient balance to list\"); //  -  >= \r\n\r\n        if (listings[id][seller].buyerCounts == 0) {\r\n            listings[id][seller].price = price;\r\n        }\r\n\r\n        listings[id][seller].listedBalance += amount;\r\n\r\n        emit EBookListed(id, seller, price, amount);\r\n    }\r\n\r\n    // Tim: \r\n    function modifyPrice(uint256 id, address seller, uint256 price) public virtual whenNotPaused isIdExisted(id) IsPriceOrAmountValid(price) isAddressValid(seller) isApproved(seller) IsEBookAvailableOnOrder(id, seller) {\r\n        require(listings[id][seller].buyerCounts == 0, \"Buyer has determined\"); //  determineBuyer\r\n\r\n        uint256 originalPrice = listings[id][seller].price;\r\n        listings[id][seller].price = price;\r\n\r\n        emit PriceModified (id, msg.sender, originalPrice, price);\r\n    }\r\n\r\n    // Tim: \r\n    function cancelListing(uint256 id, address seller, uint256 amount) public virtual whenNotPaused isIdExisted(id) IsPriceOrAmountValid(amount) isAddressValid(seller) isApproved(seller) IsEBookAvailableOnOrder(id, seller) {\r\n        require(listings[id][seller].listedBalance - listings[id][seller].buyerCounts >= amount, \"Exceeded amount to unlist\"); //  >= \r\n\r\n        unchecked {\r\n            listings[id][seller].listedBalance -= amount;\r\n        }\r\n\r\n        if (listings[id][seller].listedBalance == 0) {\r\n            delete listings[id][seller];\r\n        }\r\n\r\n        emit ListingCancelled(id, seller, msg.sender);\r\n    }\r\n\r\n    // Tim: \r\n    function determineBuyer(address seller, address buyer, uint256 id) public virtual whenNotPaused onlyRole(DEFAULT_ADMIN_ROLE) isIdExisted(id) isAddressValid(seller) isAddressValid(buyer) {\r\n        require(listings[id][seller].listedBalance > listings[id][seller].buyerCounts, \"Order all fulfilled\"); // \r\n\r\n        listings[id][seller].buyers.push(buyer);\r\n        \r\n        if (listings[id][seller].buyerCounts == 0) { // \r\n            _grantApprovalToContract(seller);\r\n        }\r\n\r\n        listings[id][seller].buyerCounts ++;\r\n\r\n        emit BuyerDetermined(id, seller, buyer);\r\n    }\r\n\r\n    // Tim:  buyers \r\n    function purchaseEBook(uint256 id, address seller, int256 index) public virtual whenNotPaused isIdExisted(id) isAddressValid(seller) IsEBookAvailableOnOrder(id, seller) {\r\n\r\n        address buyer = msg.sender;\r\n        require(index != -1, \"not buyer\");\r\n\r\n        uint256 price = listings[id][seller].price;\r\n        \r\n        uint256 fee = price * 25 / 1000;\r\n\r\n        super.safeTransferFrom(seller, buyer, id, 0, \"\"); // transfer ebook to buyer\r\n\r\n        (bool success, ) = seller.call{ value: price }(\"\"); // transfer ether to seller\r\n        require(success, \"Buying failed\");\r\n\r\n        //(bool suucess, ) = multiSigWallet.call{ value: fee}(\"\");\r\n        //require(success, \"Buying failed\");\r\n\r\n        listings[id][seller].listedBalance --;\r\n        listings[id][seller].buyerCounts --;\r\n        listings[id][seller].buyers[uint256(index)] = address(0);\r\n\r\n        if (listings[id][seller].buyerCounts == 0) {\r\n            _revokeApprovalFromContract(seller);\r\n        }\r\n\r\n        if (listings[id][seller].listedBalance == 0) {\r\n            delete listings[id][seller];\r\n        }\r\n\r\n        emit TransactionMade(seller, buyer, id);\r\n    }\r\n\r\n    // -----------------------\r\n\r\n    function supportsInterface(bytes4 interfaceId)\r\n        public\r\n        view\r\n        override(ERC1155, AccessControl)\r\n        returns (bool)\r\n    {\r\n        return super.supportsInterface(interfaceId);\r\n    }\r\n\r\n    function _beforeTokenTransfer(address operator, address from, address to, uint256[] memory ids, uint256[] memory amounts, bytes memory data)\r\n        internal\r\n        whenNotPaused\r\n        override(ERC1155, ERC1155Supply)\r\n    {\r\n        for (uint256 i = 0 ; i < ids.length ; ++i) { // \r\n            require(balanceOf(from, ids[i]) - listedBalanceOf(from, ids[i]) >= amounts[i], \"Insufficient balance to transfer\");\r\n        }\r\n\r\n        super._beforeTokenTransfer(operator, from, to, ids, amounts, data);\r\n    }\r\n}",
  "sourcePath": "C:\\Users\\TimOu_0911\\Desktop\\The_Ohara_Protocol\\contracts\\Market.sol",
  "compiler": {
    "name": "solc",
    "version": "0.8.19+commit.7dd6d404.Emscripten.clang"
  },
  "schemaVersion": "3.4.13",
  "updatedAt": "2023-06-26T07:18:16.376Z",
  "devdoc": {
    "events": {
      "ApprovalForAll(address,address,bool)": {
        "details": "Emitted when `account` grants or revokes permission to `operator` to transfer their tokens, according to `approved`."
      },
      "Paused(address)": {
        "details": "Emitted when the pause is triggered by `account`."
      },
      "RoleAdminChanged(bytes32,bytes32,bytes32)": {
        "details": "Emitted when `newAdminRole` is set as ``role``'s admin role, replacing `previousAdminRole` `DEFAULT_ADMIN_ROLE` is the starting admin for all roles, despite {RoleAdminChanged} not being emitted signaling this. _Available since v3.1._"
      },
      "RoleGranted(bytes32,address,address)": {
        "details": "Emitted when `account` is granted `role`. `sender` is the account that originated the contract call, an admin role bearer except when using {AccessControl-_setupRole}."
      },
      "RoleRevoked(bytes32,address,address)": {
        "details": "Emitted when `account` is revoked `role`. `sender` is the account that originated the contract call:   - if using `revokeRole`, it is the admin role bearer   - if using `renounceRole`, it is the role bearer (i.e. `account`)"
      },
      "TransferBatch(address,address,address,uint256[],uint256[])": {
        "details": "Equivalent to multiple {TransferSingle} events, where `operator`, `from` and `to` are the same for all transfers."
      },
      "TransferSingle(address,address,address,uint256,uint256)": {
        "details": "Emitted when `value` tokens of token type `id` are transferred from `from` to `to` by `operator`."
      },
      "URI(string,uint256)": {
        "details": "Emitted when the URI for token type `id` changes to `value`, if it is a non-programmatic URI. If an {URI} event was emitted for `id`, the standard https://eips.ethereum.org/EIPS/eip-1155#metadata-extensions[guarantees] that `value` will equal the value returned by {IERC1155MetadataURI-uri}."
      },
      "Unpaused(address)": {
        "details": "Emitted when the pause is lifted by `account`."
      }
    },
    "kind": "dev",
    "methods": {
      "balanceOf(address,uint256)": {
        "details": "See {IERC1155-balanceOf}. Requirements: - `account` cannot be the zero address."
      },
      "balanceOfBatch(address[],uint256[])": {
        "details": "See {IERC1155-balanceOfBatch}. Requirements: - `accounts` and `ids` must have the same length."
      },
      "exists(uint256)": {
        "details": "Indicates whether any token exist with a given id, or not."
      },
      "getRoleAdmin(bytes32)": {
        "details": "Returns the admin role that controls `role`. See {grantRole} and {revokeRole}. To change a role's admin, use {_setRoleAdmin}."
      },
      "grantRole(bytes32,address)": {
        "details": "Grants `role` to `account`. If `account` had not been already granted `role`, emits a {RoleGranted} event. Requirements: - the caller must have ``role``'s admin role. May emit a {RoleGranted} event."
      },
      "hasRole(bytes32,address)": {
        "details": "Returns `true` if `account` has been granted `role`."
      },
      "isApprovedForAll(address,address)": {
        "details": "See {IERC1155-isApprovedForAll}."
      },
      "paused()": {
        "details": "Returns true if the contract is paused, and false otherwise."
      },
      "renounceRole(bytes32,address)": {
        "details": "Revokes `role` from the calling account. Roles are often managed via {grantRole} and {revokeRole}: this function's purpose is to provide a mechanism for accounts to lose their privileges if they are compromised (such as when a trusted device is misplaced). If the calling account had been revoked `role`, emits a {RoleRevoked} event. Requirements: - the caller must be `account`. May emit a {RoleRevoked} event."
      },
      "revokeRole(bytes32,address)": {
        "details": "Revokes `role` from `account`. If `account` had been granted `role`, emits a {RoleRevoked} event. Requirements: - the caller must have ``role``'s admin role. May emit a {RoleRevoked} event."
      },
      "safeBatchTransferFrom(address,address,uint256[],uint256[],bytes)": {
        "details": "See {IERC1155-safeBatchTransferFrom}."
      },
      "safeTransferFrom(address,address,uint256,uint256,bytes)": {
        "details": "See {IERC1155-safeTransferFrom}."
      },
      "setApprovalForAll(address,bool)": {
        "details": "See {IERC1155-setApprovalForAll}."
      },
      "totalSupply(uint256)": {
        "details": "Total amount of tokens in with a given id."
      },
      "uri(uint256)": {
        "details": "See {IERC1155MetadataURI-uri}. This implementation returns the same URI for *all* token types. It relies on the token type ID substitution mechanism https://eips.ethereum.org/EIPS/eip-1155#metadata[defined in the EIP]. Clients calling this function must replace the `\\{id\\}` substring with the actual token type ID."
      }
    },
    "version": 1
  },
  "userdoc": {
    "kind": "user",
    "methods": {},
    "version": 1
  }
}