{
  "contractName": "Market",
  "abi": [
    {
      "inputs": [],
      "stateMutability": "nonpayable",
      "type": "constructor"
    },
    {
      "anonymous": false,
      "inputs": [
        {
          "indexed": true,
          "internalType": "address",
          "name": "account",
          "type": "address"
        },
        {
          "indexed": true,
          "internalType": "address",
          "name": "operator",
          "type": "address"
        },
        {
          "indexed": false,
          "internalType": "bool",
          "name": "approved",
          "type": "bool"
        }
      ],
      "name": "ApprovalForAll",
      "type": "event"
    },
    {
      "anonymous": false,
      "inputs": [
        {
          "indexed": true,
          "internalType": "uint256",
          "name": "id",
          "type": "uint256"
        },
        {
          "indexed": true,
          "internalType": "address",
          "name": "seller",
          "type": "address"
        },
        {
          "indexed": true,
          "internalType": "address",
          "name": "buyer",
          "type": "address"
        }
      ],
      "name": "BuyerDetermined",
      "type": "event"
    },
    {
      "anonymous": false,
      "inputs": [
        {
          "indexed": true,
          "internalType": "uint256",
          "name": "id",
          "type": "uint256"
        },
        {
          "indexed": true,
          "internalType": "address",
          "name": "seller",
          "type": "address"
        },
        {
          "indexed": true,
          "internalType": "uint256",
          "name": "price",
          "type": "uint256"
        },
        {
          "indexed": false,
          "internalType": "uint256",
          "name": "amount",
          "type": "uint256"
        }
      ],
      "name": "EBookListed",
      "type": "event"
    },
    {
      "anonymous": false,
      "inputs": [
        {
          "indexed": false,
          "internalType": "uint8",
          "name": "version",
          "type": "uint8"
        }
      ],
      "name": "Initialized",
      "type": "event"
    },
    {
      "anonymous": false,
      "inputs": [
        {
          "indexed": true,
          "internalType": "uint256",
          "name": "id",
          "type": "uint256"
        },
        {
          "indexed": true,
          "internalType": "address",
          "name": "seller",
          "type": "address"
        },
        {
          "indexed": true,
          "internalType": "address",
          "name": "canceller",
          "type": "address"
        }
      ],
      "name": "ListingCancelled",
      "type": "event"
    },
    {
      "anonymous": false,
      "inputs": [
        {
          "indexed": false,
          "internalType": "address",
          "name": "account",
          "type": "address"
        }
      ],
      "name": "Paused",
      "type": "event"
    },
    {
      "anonymous": false,
      "inputs": [
        {
          "indexed": true,
          "internalType": "uint256",
          "name": "id",
          "type": "uint256"
        },
        {
          "indexed": false,
          "internalType": "address",
          "name": "priceModifier",
          "type": "address"
        },
        {
          "indexed": true,
          "internalType": "uint256",
          "name": "originalPrice",
          "type": "uint256"
        },
        {
          "indexed": true,
          "internalType": "uint256",
          "name": "currentPrice",
          "type": "uint256"
        }
      ],
      "name": "PriceModified",
      "type": "event"
    },
    {
      "anonymous": false,
      "inputs": [
        {
          "indexed": true,
          "internalType": "bytes32",
          "name": "role",
          "type": "bytes32"
        },
        {
          "indexed": true,
          "internalType": "bytes32",
          "name": "previousAdminRole",
          "type": "bytes32"
        },
        {
          "indexed": true,
          "internalType": "bytes32",
          "name": "newAdminRole",
          "type": "bytes32"
        }
      ],
      "name": "RoleAdminChanged",
      "type": "event"
    },
    {
      "anonymous": false,
      "inputs": [
        {
          "indexed": true,
          "internalType": "bytes32",
          "name": "role",
          "type": "bytes32"
        },
        {
          "indexed": true,
          "internalType": "address",
          "name": "account",
          "type": "address"
        },
        {
          "indexed": true,
          "internalType": "address",
          "name": "sender",
          "type": "address"
        }
      ],
      "name": "RoleGranted",
      "type": "event"
    },
    {
      "anonymous": false,
      "inputs": [
        {
          "indexed": true,
          "internalType": "bytes32",
          "name": "role",
          "type": "bytes32"
        },
        {
          "indexed": true,
          "internalType": "address",
          "name": "account",
          "type": "address"
        },
        {
          "indexed": true,
          "internalType": "address",
          "name": "sender",
          "type": "address"
        }
      ],
      "name": "RoleRevoked",
      "type": "event"
    },
    {
      "anonymous": false,
      "inputs": [
        {
          "indexed": true,
          "internalType": "address",
          "name": "seller",
          "type": "address"
        },
        {
          "indexed": true,
          "internalType": "address",
          "name": "buyer",
          "type": "address"
        },
        {
          "indexed": true,
          "internalType": "uint256",
          "name": "id",
          "type": "uint256"
        }
      ],
      "name": "TransactionMade",
      "type": "event"
    },
    {
      "anonymous": false,
      "inputs": [
        {
          "indexed": true,
          "internalType": "address",
          "name": "operator",
          "type": "address"
        },
        {
          "indexed": true,
          "internalType": "address",
          "name": "from",
          "type": "address"
        },
        {
          "indexed": true,
          "internalType": "address",
          "name": "to",
          "type": "address"
        },
        {
          "indexed": false,
          "internalType": "uint256[]",
          "name": "ids",
          "type": "uint256[]"
        },
        {
          "indexed": false,
          "internalType": "uint256[]",
          "name": "values",
          "type": "uint256[]"
        }
      ],
      "name": "TransferBatch",
      "type": "event"
    },
    {
      "anonymous": false,
      "inputs": [
        {
          "indexed": true,
          "internalType": "address",
          "name": "operator",
          "type": "address"
        },
        {
          "indexed": true,
          "internalType": "address",
          "name": "from",
          "type": "address"
        },
        {
          "indexed": true,
          "internalType": "address",
          "name": "to",
          "type": "address"
        },
        {
          "indexed": false,
          "internalType": "uint256",
          "name": "id",
          "type": "uint256"
        },
        {
          "indexed": false,
          "internalType": "uint256",
          "name": "value",
          "type": "uint256"
        }
      ],
      "name": "TransferSingle",
      "type": "event"
    },
    {
      "anonymous": false,
      "inputs": [
        {
          "indexed": false,
          "internalType": "string",
          "name": "value",
          "type": "string"
        },
        {
          "indexed": true,
          "internalType": "uint256",
          "name": "id",
          "type": "uint256"
        }
      ],
      "name": "URI",
      "type": "event"
    },
    {
      "anonymous": false,
      "inputs": [
        {
          "indexed": false,
          "internalType": "address",
          "name": "account",
          "type": "address"
        }
      ],
      "name": "Unpaused",
      "type": "event"
    },
    {
      "inputs": [],
      "name": "DEFAULT_ADMIN_ROLE",
      "outputs": [
        {
          "internalType": "bytes32",
          "name": "",
          "type": "bytes32"
        }
      ],
      "stateMutability": "view",
      "type": "function"
    },
    {
      "inputs": [
        {
          "internalType": "address",
          "name": "account",
          "type": "address"
        },
        {
          "internalType": "uint256",
          "name": "id",
          "type": "uint256"
        }
      ],
      "name": "balanceOf",
      "outputs": [
        {
          "internalType": "uint256",
          "name": "",
          "type": "uint256"
        }
      ],
      "stateMutability": "view",
      "type": "function"
    },
    {
      "inputs": [
        {
          "internalType": "address[]",
          "name": "accounts",
          "type": "address[]"
        },
        {
          "internalType": "uint256[]",
          "name": "ids",
          "type": "uint256[]"
        }
      ],
      "name": "balanceOfBatch",
      "outputs": [
        {
          "internalType": "uint256[]",
          "name": "",
          "type": "uint256[]"
        }
      ],
      "stateMutability": "view",
      "type": "function"
    },
    {
      "inputs": [
        {
          "internalType": "uint256",
          "name": "id",
          "type": "uint256"
        }
      ],
      "name": "exists",
      "outputs": [
        {
          "internalType": "bool",
          "name": "",
          "type": "bool"
        }
      ],
      "stateMutability": "view",
      "type": "function"
    },
    {
      "inputs": [
        {
          "internalType": "bytes32",
          "name": "role",
          "type": "bytes32"
        }
      ],
      "name": "getRoleAdmin",
      "outputs": [
        {
          "internalType": "bytes32",
          "name": "",
          "type": "bytes32"
        }
      ],
      "stateMutability": "view",
      "type": "function"
    },
    {
      "inputs": [
        {
          "internalType": "bytes32",
          "name": "role",
          "type": "bytes32"
        },
        {
          "internalType": "address",
          "name": "account",
          "type": "address"
        }
      ],
      "name": "grantRole",
      "outputs": [],
      "stateMutability": "nonpayable",
      "type": "function"
    },
    {
      "inputs": [
        {
          "internalType": "bytes32",
          "name": "role",
          "type": "bytes32"
        },
        {
          "internalType": "address",
          "name": "account",
          "type": "address"
        }
      ],
      "name": "hasRole",
      "outputs": [
        {
          "internalType": "bool",
          "name": "",
          "type": "bool"
        }
      ],
      "stateMutability": "view",
      "type": "function"
    },
    {
      "inputs": [
        {
          "internalType": "address",
          "name": "account",
          "type": "address"
        },
        {
          "internalType": "address",
          "name": "operator",
          "type": "address"
        }
      ],
      "name": "isApprovedForAll",
      "outputs": [
        {
          "internalType": "bool",
          "name": "",
          "type": "bool"
        }
      ],
      "stateMutability": "view",
      "type": "function"
    },
    {
      "inputs": [],
      "name": "paused",
      "outputs": [
        {
          "internalType": "bool",
          "name": "",
          "type": "bool"
        }
      ],
      "stateMutability": "view",
      "type": "function"
    },
    {
      "inputs": [
        {
          "internalType": "bytes32",
          "name": "role",
          "type": "bytes32"
        },
        {
          "internalType": "address",
          "name": "account",
          "type": "address"
        }
      ],
      "name": "renounceRole",
      "outputs": [],
      "stateMutability": "nonpayable",
      "type": "function"
    },
    {
      "inputs": [
        {
          "internalType": "bytes32",
          "name": "role",
          "type": "bytes32"
        },
        {
          "internalType": "address",
          "name": "account",
          "type": "address"
        }
      ],
      "name": "revokeRole",
      "outputs": [],
      "stateMutability": "nonpayable",
      "type": "function"
    },
    {
      "inputs": [
        {
          "internalType": "address",
          "name": "from",
          "type": "address"
        },
        {
          "internalType": "address",
          "name": "to",
          "type": "address"
        },
        {
          "internalType": "uint256[]",
          "name": "ids",
          "type": "uint256[]"
        },
        {
          "internalType": "uint256[]",
          "name": "amounts",
          "type": "uint256[]"
        },
        {
          "internalType": "bytes",
          "name": "data",
          "type": "bytes"
        }
      ],
      "name": "safeBatchTransferFrom",
      "outputs": [],
      "stateMutability": "nonpayable",
      "type": "function"
    },
    {
      "inputs": [
        {
          "internalType": "address",
          "name": "from",
          "type": "address"
        },
        {
          "internalType": "address",
          "name": "to",
          "type": "address"
        },
        {
          "internalType": "uint256",
          "name": "id",
          "type": "uint256"
        },
        {
          "internalType": "uint256",
          "name": "amount",
          "type": "uint256"
        },
        {
          "internalType": "bytes",
          "name": "data",
          "type": "bytes"
        }
      ],
      "name": "safeTransferFrom",
      "outputs": [],
      "stateMutability": "nonpayable",
      "type": "function"
    },
    {
      "inputs": [
        {
          "internalType": "address",
          "name": "operator",
          "type": "address"
        },
        {
          "internalType": "bool",
          "name": "approved",
          "type": "bool"
        }
      ],
      "name": "setApprovalForAll",
      "outputs": [],
      "stateMutability": "nonpayable",
      "type": "function"
    },
    {
      "inputs": [
        {
          "internalType": "uint256",
          "name": "id",
          "type": "uint256"
        }
      ],
      "name": "totalSupply",
      "outputs": [
        {
          "internalType": "uint256",
          "name": "",
          "type": "uint256"
        }
      ],
      "stateMutability": "view",
      "type": "function"
    },
    {
      "inputs": [
        {
          "internalType": "uint256",
          "name": "",
          "type": "uint256"
        }
      ],
      "name": "uri",
      "outputs": [
        {
          "internalType": "string",
          "name": "",
          "type": "string"
        }
      ],
      "stateMutability": "view",
      "type": "function"
    },
    {
      "inputs": [
        {
          "internalType": "bytes4",
          "name": "interfaceId",
          "type": "bytes4"
        }
      ],
      "name": "supportsInterface",
      "outputs": [
        {
          "internalType": "bool",
          "name": "",
          "type": "bool"
        }
      ],
      "stateMutability": "view",
      "type": "function"
    }
  ],
  "bytecode": "0x60806040523480156200001157600080fd5b50620000226200002860201b60201c565b620001d3565b600060019054906101000a900460ff16156200007b576040517f08c379a0000000000000000000000000000000000000000000000000000000008152600401620000729062000176565b60405180910390fd5b60ff801660008054906101000a900460ff1660ff161015620000ed5760ff6000806101000a81548160ff021916908360ff1602179055507f7f26b83ff96e1f2b6a682f133852f6798a09c465da95921460cefb384740249860ff604051620000e49190620001b6565b60405180910390a15b565b600082825260208201905092915050565b7f496e697469616c697a61626c653a20636f6e747261637420697320696e69746960008201527f616c697a696e6700000000000000000000000000000000000000000000000000602082015250565b60006200015e602783620000ef565b91506200016b8262000100565b604082019050919050565b6000602082019050818103600083015262000191816200014f565b9050919050565b600060ff82169050919050565b620001b08162000198565b82525050565b6000602082019050620001cd6000830184620001a5565b92915050565b6135ef80620001e36000396000f3fe608060405234801561001057600080fd5b506004361061010a5760003560e01c80634f558e79116100a2578063a22cb46511610071578063a22cb465146102ef578063bd85b0391461030b578063d547741f1461033b578063e985e9c514610357578063f242432a146103875761010a565b80634f558e79146102535780635c975abb1461028357806391d14854146102a1578063a217fddf146102d15761010a565b80632eb2c2d6116100de5780632eb2c2d6146101cf5780632f2ff15d146101eb57806336568abe146102075780634e1273f4146102235761010a565b8062fdd58e1461010f57806301ffc9a71461013f5780630e89341c1461016f578063248a9ca31461019f575b600080fd5b61012960048036038101906101249190611fc6565b6103a3565b6040516101369190612015565b60405180910390f35b61015960048036038101906101549190612088565b61046c565b60405161016691906120d0565b60405180910390f35b610189600480360381019061018491906120eb565b61047e565b60405161019691906121a8565b60405180910390f35b6101b960048036038101906101b49190612200565b610512565b6040516101c6919061223c565b60405180910390f35b6101e960048036038101906101e49190612454565b610532565b005b61020560048036038101906102009190612523565b6105d3565b005b610221600480360381019061021c9190612523565b6105f4565b005b61023d60048036038101906102389190612626565b610677565b60405161024a919061275c565b60405180910390f35b61026d600480360381019061026891906120eb565b610790565b60405161027a91906120d0565b60405180910390f35b61028b6107a4565b60405161029891906120d0565b60405180910390f35b6102bb60048036038101906102b69190612523565b6107bb565b6040516102c891906120d0565b60405180910390f35b6102d9610826565b6040516102e6919061223c565b60405180910390f35b610309600480360381019061030491906127aa565b61082d565b005b610325600480360381019061032091906120eb565b610843565b6040516103329190612015565b60405180910390f35b61035560048036038101906103509190612523565b610860565b005b610371600480360381019061036c91906127ea565b610881565b60405161037e91906120d0565b60405180910390f35b6103a1600480360381019061039c919061282a565b610915565b005b60008073ffffffffffffffffffffffffffffffffffffffff168373ffffffffffffffffffffffffffffffffffffffff1603610413576040517f08c379a000000000000000000000000000000000000000000000000000000000815260040161040a90612933565b60405180910390fd5b6065600083815260200190815260200160002060008473ffffffffffffffffffffffffffffffffffffffff1673ffffffffffffffffffffffffffffffffffffffff16815260200190815260200160002054905092915050565b6000610477826109b6565b9050919050565b60606067805461048d90612982565b80601f01602080910402602001604051908101604052809291908181526020018280546104b990612982565b80156105065780601f106104db57610100808354040283529160200191610506565b820191906000526020600020905b8154815290600101906020018083116104e957829003601f168201915b50505050509050919050565b600060fb6000838152602001908152602001600020600101549050919050565b61053a610a30565b73ffffffffffffffffffffffffffffffffffffffff168573ffffffffffffffffffffffffffffffffffffffff161480610580575061057f8561057a610a30565b610881565b5b6105bf576040517f08c379a00000000000000000000000000000000000000000000000000000000081526004016105b690612a25565b60405180910390fd5b6105cc8585858585610a38565b5050505050565b6105dc82610512565b6105e581610d5c565b6105ef8383610d70565b505050565b6105fc610a30565b73ffffffffffffffffffffffffffffffffffffffff168173ffffffffffffffffffffffffffffffffffffffff1614610669576040517f08c379a000000000000000000000000000000000000000000000000000000000815260040161066090612ab7565b60405180910390fd5b6106738282610e51565b5050565b606081518351146106bd576040517f08c379a00000000000000000000000000000000000000000000000000000000081526004016106b490612b49565b60405180910390fd5b6000835167ffffffffffffffff8111156106da576106d961225c565b5b6040519080825280602002602001820160405280156107085781602001602082028036833780820191505090505b50905060005b84518110156107855761075585828151811061072d5761072c612b69565b5b602002602001015185838151811061074857610747612b69565b5b60200260200101516103a3565b82828151811061076857610767612b69565b5b6020026020010181815250508061077e90612bc7565b905061070e565b508091505092915050565b60008061079c83610843565b119050919050565b600060c960009054906101000a900460ff16905090565b600060fb600084815260200190815260200160002060000160008373ffffffffffffffffffffffffffffffffffffffff1673ffffffffffffffffffffffffffffffffffffffff16815260200190815260200160002060009054906101000a900460ff16905092915050565b6000801b81565b61083f610838610a30565b8383610f33565b5050565b600060976000838152602001908152602001600020549050919050565b61086982610512565b61087281610d5c565b61087c8383610e51565b505050565b6000606660008473ffffffffffffffffffffffffffffffffffffffff1673ffffffffffffffffffffffffffffffffffffffff16815260200190815260200160002060008373ffffffffffffffffffffffffffffffffffffffff1673ffffffffffffffffffffffffffffffffffffffff16815260200190815260200160002060009054906101000a900460ff16905092915050565b61091d610a30565b73ffffffffffffffffffffffffffffffffffffffff168573ffffffffffffffffffffffffffffffffffffffff16148061096357506109628561095d610a30565b610881565b5b6109a2576040517f08c379a000000000000000000000000000000000000000000000000000000000815260040161099990612a25565b60405180910390fd5b6109af858585858561109f565b5050505050565b60007f7965db0b000000000000000000000000000000000000000000000000000000007bffffffffffffffffffffffffffffffffffffffffffffffffffffffff1916827bffffffffffffffffffffffffffffffffffffffffffffffffffffffff19161480610a295750610a288261133d565b5b9050919050565b600033905090565b8151835114610a7c576040517f08c379a0000000000000000000000000000000000000000000000000000000008152600401610a7390612c81565b60405180910390fd5b600073ffffffffffffffffffffffffffffffffffffffff168473ffffffffffffffffffffffffffffffffffffffff1603610aeb576040517f08c379a0000000000000000000000000000000000000000000000000000000008152600401610ae290612d13565b60405180910390fd5b6000610af5610a30565b9050610b0581878787878761141f565b60005b8451811015610cb9576000858281518110610b2657610b25612b69565b5b602002602001015190506000858381518110610b4557610b44612b69565b5b6020026020010151905060006065600084815260200190815260200160002060008b73ffffffffffffffffffffffffffffffffffffffff1673ffffffffffffffffffffffffffffffffffffffff16815260200190815260200160002054905081811015610be7576040517f08c379a0000000000000000000000000000000000000000000000000000000008152600401610bde90612da5565b60405180910390fd5b8181036065600085815260200190815260200160002060008c73ffffffffffffffffffffffffffffffffffffffff1673ffffffffffffffffffffffffffffffffffffffff16815260200190815260200160002081905550816065600085815260200190815260200160002060008b73ffffffffffffffffffffffffffffffffffffffff1673ffffffffffffffffffffffffffffffffffffffff1681526020019081526020016000206000828254610c9e9190612dc5565b9250508190555050505080610cb290612bc7565b9050610b08565b508473ffffffffffffffffffffffffffffffffffffffff168673ffffffffffffffffffffffffffffffffffffffff168273ffffffffffffffffffffffffffffffffffffffff167f4a39dc06d4c0dbc64b70af90fd698a233a518aa5d07e595d983b8c0526c8f7fb8787604051610d30929190612df9565b60405180910390a4610d46818787878787611551565b610d54818787878787611559565b505050505050565b610d6d81610d68610a30565b611730565b50565b610d7a82826107bb565b610e4d57600160fb600084815260200190815260200160002060000160008373ffffffffffffffffffffffffffffffffffffffff1673ffffffffffffffffffffffffffffffffffffffff16815260200190815260200160002060006101000a81548160ff021916908315150217905550610df2610a30565b73ffffffffffffffffffffffffffffffffffffffff168173ffffffffffffffffffffffffffffffffffffffff16837f2f8788117e7eff1d82e926ec794901d17c78024a50270940304540a733656f0d60405160405180910390a45b5050565b610e5b82826107bb565b15610f2f57600060fb600084815260200190815260200160002060000160008373ffffffffffffffffffffffffffffffffffffffff1673ffffffffffffffffffffffffffffffffffffffff16815260200190815260200160002060006101000a81548160ff021916908315150217905550610ed4610a30565b73ffffffffffffffffffffffffffffffffffffffff168173ffffffffffffffffffffffffffffffffffffffff16837ff6391f5c32d9c69d2a47ea670b442974b53935d1edc7fd64eb21e047a839171b60405160405180910390a45b5050565b8173ffffffffffffffffffffffffffffffffffffffff168373ffffffffffffffffffffffffffffffffffffffff1603610fa1576040517f08c379a0000000000000000000000000000000000000000000000000000000008152600401610f9890612ea2565b60405180910390fd5b80606660008573ffffffffffffffffffffffffffffffffffffffff1673ffffffffffffffffffffffffffffffffffffffff16815260200190815260200160002060008473ffffffffffffffffffffffffffffffffffffffff1673ffffffffffffffffffffffffffffffffffffffff16815260200190815260200160002060006101000a81548160ff0219169083151502179055508173ffffffffffffffffffffffffffffffffffffffff168373ffffffffffffffffffffffffffffffffffffffff167f17307eab39ab6107e8899845ad3d59bd9653f200f220920489ca2b5937696c318360405161109291906120d0565b60405180910390a3505050565b600073ffffffffffffffffffffffffffffffffffffffff168473ffffffffffffffffffffffffffffffffffffffff160361110e576040517f08c379a000000000000000000000000000000000000000000000000000000000815260040161110590612d13565b60405180910390fd5b6000611118610a30565b90506000611125856117b5565b90506000611132856117b5565b905061114283898985858961141f565b60006065600088815260200190815260200160002060008a73ffffffffffffffffffffffffffffffffffffffff1673ffffffffffffffffffffffffffffffffffffffff168152602001908152602001600020549050858110156111da576040517f08c379a00000000000000000000000000000000000000000000000000000000081526004016111d190612da5565b60405180910390fd5b8581036065600089815260200190815260200160002060008b73ffffffffffffffffffffffffffffffffffffffff1673ffffffffffffffffffffffffffffffffffffffff16815260200190815260200160002081905550856065600089815260200190815260200160002060008a73ffffffffffffffffffffffffffffffffffffffff1673ffffffffffffffffffffffffffffffffffffffff16815260200190815260200160002060008282546112919190612dc5565b925050819055508773ffffffffffffffffffffffffffffffffffffffff168973ffffffffffffffffffffffffffffffffffffffff168573ffffffffffffffffffffffffffffffffffffffff167fc3d58168c5ae7397731d063d5bbf3d657854427343f4c083240f7aacaa2d0f628a8a60405161130e929190612ec2565b60405180910390a4611324848a8a86868a611551565b611332848a8a8a8a8a61182f565b505050505050505050565b60007fd9b67a26000000000000000000000000000000000000000000000000000000007bffffffffffffffffffffffffffffffffffffffffffffffffffffffff1916827bffffffffffffffffffffffffffffffffffffffffffffffffffffffff1916148061140857507f0e89341c000000000000000000000000000000000000000000000000000000007bffffffffffffffffffffffffffffffffffffffffffffffffffffffff1916827bffffffffffffffffffffffffffffffffffffffffffffffffffffffff1916145b80611418575061141782611a06565b5b9050919050565b611427611a70565b60005b835181101561153a5782818151811061144657611445612b69565b5b602002602001015161012e600086848151811061146657611465612b69565b5b6020026020010151815260200190815260200160002060008873ffffffffffffffffffffffffffffffffffffffff1673ffffffffffffffffffffffffffffffffffffffff168152602001908152602001600020546114de888785815181106114d1576114d0612b69565b5b60200260200101516103a3565b6114e89190612eeb565b1015611529576040517f08c379a000000000000000000000000000000000000000000000000000000000815260040161152090612f6b565b60405180910390fd5b8061153390612bc7565b905061142a565b50611549868686868686611aba565b505050505050565b505050505050565b6115788473ffffffffffffffffffffffffffffffffffffffff16611c8a565b15611728578373ffffffffffffffffffffffffffffffffffffffff1663bc197c8187878686866040518663ffffffff1660e01b81526004016115be959493929190612fef565b6020604051808303816000875af19250505080156115fa57506040513d601f19601f820116820180604052508101906115f7919061306c565b60015b61169f576116066130a6565b806308c379a003611662575061161a6130c8565b806116255750611664565b806040517f08c379a000000000000000000000000000000000000000000000000000000000815260040161165991906121a8565b60405180910390fd5b505b6040517f08c379a0000000000000000000000000000000000000000000000000000000008152600401611696906131ca565b60405180910390fd5b63bc197c8160e01b7bffffffffffffffffffffffffffffffffffffffffffffffffffffffff1916817bffffffffffffffffffffffffffffffffffffffffffffffffffffffff191614611726576040517f08c379a000000000000000000000000000000000000000000000000000000000815260040161171d9061325c565b60405180910390fd5b505b505050505050565b61173a82826107bb565b6117b15761174781611cad565b6117558360001c6020611cda565b604051602001611766929190613350565b6040516020818303038152906040526040517f08c379a00000000000000000000000000000000000000000000000000000000081526004016117a891906121a8565b60405180910390fd5b5050565b60606000600167ffffffffffffffff8111156117d4576117d361225c565b5b6040519080825280602002602001820160405280156118025781602001602082028036833780820191505090505b509050828160008151811061181a57611819612b69565b5b60200260200101818152505080915050919050565b61184e8473ffffffffffffffffffffffffffffffffffffffff16611c8a565b156119fe578373ffffffffffffffffffffffffffffffffffffffff1663f23a6e6187878686866040518663ffffffff1660e01b815260040161189495949392919061338a565b6020604051808303816000875af19250505080156118d057506040513d601f19601f820116820180604052508101906118cd919061306c565b60015b611975576118dc6130a6565b806308c379a00361193857506118f06130c8565b806118fb575061193a565b806040517f08c379a000000000000000000000000000000000000000000000000000000000815260040161192f91906121a8565b60405180910390fd5b505b6040517f08c379a000000000000000000000000000000000000000000000000000000000815260040161196c906131ca565b60405180910390fd5b63f23a6e6160e01b7bffffffffffffffffffffffffffffffffffffffffffffffffffffffff1916817bffffffffffffffffffffffffffffffffffffffffffffffffffffffff1916146119fc576040517f08c379a00000000000000000000000000000000000000000000000000000000081526004016119f39061325c565b60405180910390fd5b505b505050505050565b60007f01ffc9a7000000000000000000000000000000000000000000000000000000007bffffffffffffffffffffffffffffffffffffffffffffffffffffffff1916827bffffffffffffffffffffffffffffffffffffffffffffffffffffffff1916149050919050565b611a786107a4565b15611ab8576040517f08c379a0000000000000000000000000000000000000000000000000000000008152600401611aaf90613430565b60405180910390fd5b565b611ac8868686868686611f16565b600073ffffffffffffffffffffffffffffffffffffffff168573ffffffffffffffffffffffffffffffffffffffff1603611b795760005b8351811015611b7757828181518110611b1b57611b1a612b69565b5b602002602001015160976000868481518110611b3a57611b39612b69565b5b602002602001015181526020019081526020016000206000828254611b5f9190612dc5565b9250508190555080611b7090612bc7565b9050611aff565b505b600073ffffffffffffffffffffffffffffffffffffffff168473ffffffffffffffffffffffffffffffffffffffff1603611c825760005b8351811015611c80576000848281518110611bce57611bcd612b69565b5b602002602001015190506000848381518110611bed57611bec612b69565b5b6020026020010151905060006097600084815260200190815260200160002054905081811015611c52576040517f08c379a0000000000000000000000000000000000000000000000000000000008152600401611c49906134c2565b60405180910390fd5b818103609760008581526020019081526020016000208190555050505080611c7990612bc7565b9050611bb0565b505b505050505050565b6000808273ffffffffffffffffffffffffffffffffffffffff163b119050919050565b6060611cd38273ffffffffffffffffffffffffffffffffffffffff16601460ff16611cda565b9050919050565b606060006002836002611ced91906134e2565b611cf79190612dc5565b67ffffffffffffffff811115611d1057611d0f61225c565b5b6040519080825280601f01601f191660200182016040528015611d425781602001600182028036833780820191505090505b5090507f300000000000000000000000000000000000000000000000000000000000000081600081518110611d7a57611d79612b69565b5b60200101907effffffffffffffffffffffffffffffffffffffffffffffffffffffffffffff1916908160001a9053507f780000000000000000000000000000000000000000000000000000000000000081600181518110611dde57611ddd612b69565b5b60200101907effffffffffffffffffffffffffffffffffffffffffffffffffffffffffffff1916908160001a90535060006001846002611e1e91906134e2565b611e289190612dc5565b90505b6001811115611ec8577f3031323334353637383961626364656600000000000000000000000000000000600f861660108110611e6a57611e69612b69565b5b1a60f81b828281518110611e8157611e80612b69565b5b60200101907effffffffffffffffffffffffffffffffffffffffffffffffffffffffffffff1916908160001a905350600485901c945080611ec190613524565b9050611e2b565b5060008414611f0c576040517f08c379a0000000000000000000000000000000000000000000000000000000008152600401611f0390613599565b60405180910390fd5b8091505092915050565b505050505050565b6000604051905090565b600080fd5b600080fd5b600073ffffffffffffffffffffffffffffffffffffffff82169050919050565b6000611f5d82611f32565b9050919050565b611f6d81611f52565b8114611f7857600080fd5b50565b600081359050611f8a81611f64565b92915050565b6000819050919050565b611fa381611f90565b8114611fae57600080fd5b50565b600081359050611fc081611f9a565b92915050565b60008060408385031215611fdd57611fdc611f28565b5b6000611feb85828601611f7b565b9250506020611ffc85828601611fb1565b9150509250929050565b61200f81611f90565b82525050565b600060208201905061202a6000830184612006565b92915050565b60007fffffffff0000000000000000000000000000000000000000000000000000000082169050919050565b61206581612030565b811461207057600080fd5b50565b6000813590506120828161205c565b92915050565b60006020828403121561209e5761209d611f28565b5b60006120ac84828501612073565b91505092915050565b60008115159050919050565b6120ca816120b5565b82525050565b60006020820190506120e560008301846120c1565b92915050565b60006020828403121561210157612100611f28565b5b600061210f84828501611fb1565b91505092915050565b600081519050919050565b600082825260208201905092915050565b60005b83811015612152578082015181840152602081019050612137565b60008484015250505050565b6000601f19601f8301169050919050565b600061217a82612118565b6121848185612123565b9350612194818560208601612134565b61219d8161215e565b840191505092915050565b600060208201905081810360008301526121c2818461216f565b905092915050565b6000819050919050565b6121dd816121ca565b81146121e857600080fd5b50565b6000813590506121fa816121d4565b92915050565b60006020828403121561221657612215611f28565b5b6000612224848285016121eb565b91505092915050565b612236816121ca565b82525050565b6000602082019050612251600083018461222d565b92915050565b600080fd5b7f4e487b7100000000000000000000000000000000000000000000000000000000600052604160045260246000fd5b6122948261215e565b810181811067ffffffffffffffff821117156122b3576122b261225c565b5b80604052505050565b60006122c6611f1e565b90506122d2828261228b565b919050565b600067ffffffffffffffff8211156122f2576122f161225c565b5b602082029050602081019050919050565b600080fd5b600061231b612316846122d7565b6122bc565b9050808382526020820190506020840283018581111561233e5761233d612303565b5b835b8181101561236757806123538882611fb1565b845260208401935050602081019050612340565b5050509392505050565b600082601f83011261238657612385612257565b5b8135612396848260208601612308565b91505092915050565b600080fd5b600067ffffffffffffffff8211156123bf576123be61225c565b5b6123c88261215e565b9050602081019050919050565b82818337600083830152505050565b60006123f76123f2846123a4565b6122bc565b9050828152602081018484840111156124135761241261239f565b5b61241e8482856123d5565b509392505050565b600082601f83011261243b5761243a612257565b5b813561244b8482602086016123e4565b91505092915050565b600080600080600060a086880312156124705761246f611f28565b5b600061247e88828901611f7b565b955050602061248f88828901611f7b565b945050604086013567ffffffffffffffff8111156124b0576124af611f2d565b5b6124bc88828901612371565b935050606086013567ffffffffffffffff8111156124dd576124dc611f2d565b5b6124e988828901612371565b925050608086013567ffffffffffffffff81111561250a57612509611f2d565b5b61251688828901612426565b9150509295509295909350565b6000806040838503121561253a57612539611f28565b5b6000612548858286016121eb565b925050602061255985828601611f7b565b9150509250929050565b600067ffffffffffffffff82111561257e5761257d61225c565b5b602082029050602081019050919050565b60006125a261259d84612563565b6122bc565b905080838252602082019050602084028301858111156125c5576125c4612303565b5b835b818110156125ee57806125da8882611f7b565b8452602084019350506020810190506125c7565b5050509392505050565b600082601f83011261260d5761260c612257565b5b813561261d84826020860161258f565b91505092915050565b6000806040838503121561263d5761263c611f28565b5b600083013567ffffffffffffffff81111561265b5761265a611f2d565b5b612667858286016125f8565b925050602083013567ffffffffffffffff81111561268857612687611f2d565b5b61269485828601612371565b9150509250929050565b600081519050919050565b600082825260208201905092915050565b6000819050602082019050919050565b6126d381611f90565b82525050565b60006126e583836126ca565b60208301905092915050565b6000602082019050919050565b60006127098261269e565b61271381856126a9565b935061271e836126ba565b8060005b8381101561274f57815161273688826126d9565b9750612741836126f1565b925050600181019050612722565b5085935050505092915050565b6000602082019050818103600083015261277681846126fe565b905092915050565b612787816120b5565b811461279257600080fd5b50565b6000813590506127a48161277e565b92915050565b600080604083850312156127c1576127c0611f28565b5b60006127cf85828601611f7b565b92505060206127e085828601612795565b9150509250929050565b6000806040838503121561280157612800611f28565b5b600061280f85828601611f7b565b925050602061282085828601611f7b565b9150509250929050565b600080600080600060a0868803121561284657612845611f28565b5b600061285488828901611f7b565b955050602061286588828901611f7b565b945050604061287688828901611fb1565b935050606061288788828901611fb1565b925050608086013567ffffffffffffffff8111156128a8576128a7611f2d565b5b6128b488828901612426565b9150509295509295909350565b7f455243313135353a2061646472657373207a65726f206973206e6f742061207660008201527f616c6964206f776e657200000000000000000000000000000000000000000000602082015250565b600061291d602a83612123565b9150612928826128c1565b604082019050919050565b6000602082019050818103600083015261294c81612910565b9050919050565b7f4e487b7100000000000000000000000000000000000000000000000000000000600052602260045260246000fd5b6000600282049050600182168061299a57607f821691505b6020821081036129ad576129ac612953565b5b50919050565b7f455243313135353a2063616c6c6572206973206e6f7420746f6b656e206f776e60008201527f6572206f7220617070726f766564000000000000000000000000000000000000602082015250565b6000612a0f602e83612123565b9150612a1a826129b3565b604082019050919050565b60006020820190508181036000830152612a3e81612a02565b9050919050565b7f416363657373436f6e74726f6c3a2063616e206f6e6c792072656e6f756e636560008201527f20726f6c657320666f722073656c660000000000000000000000000000000000602082015250565b6000612aa1602f83612123565b9150612aac82612a45565b604082019050919050565b60006020820190508181036000830152612ad081612a94565b9050919050565b7f455243313135353a206163636f756e747320616e6420696473206c656e67746860008201527f206d69736d617463680000000000000000000000000000000000000000000000602082015250565b6000612b33602983612123565b9150612b3e82612ad7565b604082019050919050565b60006020820190508181036000830152612b6281612b26565b9050919050565b7f4e487b7100000000000000000000000000000000000000000000000000000000600052603260045260246000fd5b7f4e487b7100000000000000000000000000000000000000000000000000000000600052601160045260246000fd5b6000612bd282611f90565b91507fffffffffffffffffffffffffffffffffffffffffffffffffffffffffffffffff8203612c0457612c03612b98565b5b600182019050919050565b7f455243313135353a2069647320616e6420616d6f756e7473206c656e6774682060008201527f6d69736d61746368000000000000000000000000000000000000000000000000602082015250565b6000612c6b602883612123565b9150612c7682612c0f565b604082019050919050565b60006020820190508181036000830152612c9a81612c5e565b9050919050565b7f455243313135353a207472616e7366657220746f20746865207a65726f20616460008201527f6472657373000000000000000000000000000000000000000000000000000000602082015250565b6000612cfd602583612123565b9150612d0882612ca1565b604082019050919050565b60006020820190508181036000830152612d2c81612cf0565b9050919050565b7f455243313135353a20696e73756666696369656e742062616c616e636520666f60008201527f72207472616e7366657200000000000000000000000000000000000000000000602082015250565b6000612d8f602a83612123565b9150612d9a82612d33565b604082019050919050565b60006020820190508181036000830152612dbe81612d82565b9050919050565b6000612dd082611f90565b9150612ddb83611f90565b9250828201905080821115612df357612df2612b98565b5b92915050565b60006040820190508181036000830152612e1381856126fe565b90508181036020830152612e2781846126fe565b90509392505050565b7f455243313135353a2073657474696e6720617070726f76616c2073746174757360008201527f20666f722073656c660000000000000000000000000000000000000000000000602082015250565b6000612e8c602983612123565b9150612e9782612e30565b604082019050919050565b60006020820190508181036000830152612ebb81612e7f565b9050919050565b6000604082019050612ed76000830185612006565b612ee46020830184612006565b9392505050565b6000612ef682611f90565b9150612f0183611f90565b9250828203905081811115612f1957612f18612b98565b5b92915050565b7f496e73756666696369656e742062616c616e636520746f207472616e73666572600082015250565b6000612f55602083612123565b9150612f6082612f1f565b602082019050919050565b60006020820190508181036000830152612f8481612f48565b9050919050565b612f9481611f52565b82525050565b600081519050919050565b600082825260208201905092915050565b6000612fc182612f9a565b612fcb8185612fa5565b9350612fdb818560208601612134565b612fe48161215e565b840191505092915050565b600060a0820190506130046000830188612f8b565b6130116020830187612f8b565b818103604083015261302381866126fe565b9050818103606083015261303781856126fe565b9050818103608083015261304b8184612fb6565b90509695505050505050565b6000815190506130668161205c565b92915050565b60006020828403121561308257613081611f28565b5b600061309084828501613057565b91505092915050565b60008160e01c9050919050565b600060033d11156130c55760046000803e6130c2600051613099565b90505b90565b600060443d10613155576130da611f1e565b60043d036004823e80513d602482011167ffffffffffffffff82111715613102575050613155565b808201805167ffffffffffffffff8111156131205750505050613155565b80602083010160043d03850181111561313d575050505050613155565b61314c8260200185018661228b565b82955050505050505b90565b7f455243313135353a207472616e7366657220746f206e6f6e2d4552433131353560008201527f526563656976657220696d706c656d656e746572000000000000000000000000602082015250565b60006131b4603483612123565b91506131bf82613158565b604082019050919050565b600060208201905081810360008301526131e3816131a7565b9050919050565b7f455243313135353a204552433131353552656365697665722072656a6563746560008201527f6420746f6b656e73000000000000000000000000000000000000000000000000602082015250565b6000613246602883612123565b9150613251826131ea565b604082019050919050565b6000602082019050818103600083015261327581613239565b9050919050565b600081905092915050565b7f416363657373436f6e74726f6c3a206163636f756e7420000000000000000000600082015250565b60006132bd60178361327c565b91506132c882613287565b601782019050919050565b60006132de82612118565b6132e8818561327c565b93506132f8818560208601612134565b80840191505092915050565b7f206973206d697373696e6720726f6c6520000000000000000000000000000000600082015250565b600061333a60118361327c565b915061334582613304565b601182019050919050565b600061335b826132b0565b915061336782856132d3565b91506133728261332d565b915061337e82846132d3565b91508190509392505050565b600060a08201905061339f6000830188612f8b565b6133ac6020830187612f8b565b6133b96040830186612006565b6133c66060830185612006565b81810360808301526133d88184612fb6565b90509695505050505050565b7f5061757361626c653a2070617573656400000000000000000000000000000000600082015250565b600061341a601083612123565b9150613425826133e4565b602082019050919050565b600060208201905081810360008301526134498161340d565b9050919050565b7f455243313135353a206275726e20616d6f756e74206578636565647320746f7460008201527f616c537570706c79000000000000000000000000000000000000000000000000602082015250565b60006134ac602883612123565b91506134b782613450565b604082019050919050565b600060208201905081810360008301526134db8161349f565b9050919050565b60006134ed82611f90565b91506134f883611f90565b925082820261350681611f90565b9150828204841483151761351d5761351c612b98565b5b5092915050565b600061352f82611f90565b91506000820361354257613541612b98565b5b600182039050919050565b7f537472696e67733a20686578206c656e67746820696e73756666696369656e74600082015250565b6000613583602083612123565b915061358e8261354d565b602082019050919050565b600060208201905081810360008301526135b281613576565b905091905056fea264697066735822122024e750254cff999e13b248d8bc37cc34cad96f0cd27c6634c207f5231b23ba2e64736f6c63430008130033",
  "immutableReferences": {},
  "source": "// SPDX-License-Identifier: MIT\r\npragma solidity ^0.8.7;\r\n\r\nimport \"../node_modules/@openzeppelin/contracts-upgradeable/token/ERC1155/ERC1155Upgradeable.sol\";\r\nimport \"../node_modules/@openzeppelin/contracts-upgradeable/token/ERC1155/extensions/ERC1155SupplyUpgradeable.sol\";\r\nimport \"../node_modules/@openzeppelin/contracts-upgradeable/security/PausableUpgradeable.sol\";\r\nimport \"../node_modules/@openzeppelin/contracts-upgradeable/access/AccessControlUpgradeable.sol\";\r\n\r\ncontract Market is ERC1155Upgradeable, ERC1155SupplyUpgradeable, PausableUpgradeable, AccessControlUpgradeable {\r\n\r\n    struct Listing {\r\n        uint256 price;\r\n        uint256 currentPosition;\r\n        uint256 buyerCounts;\r\n        address[] buyers;\r\n    }\r\n    \r\n    mapping (uint256 => mapping (address => Listing)) listings; // id => seller => price & buyers\r\n    mapping (uint256 => mapping(address => uint256)) listedBalance; // user balances that aren't listed for sale\r\n\r\n    event EBookListed(uint256 indexed id, address indexed seller, uint256 indexed price, uint256 amount);\r\n    event PriceModified(uint256 indexed id, address priceModifier, uint256 indexed originalPrice, uint256 indexed currentPrice);\r\n    event ListingCancelled(uint256 indexed id, address indexed seller, address indexed canceller);\r\n    event BuyerDetermined(uint256 indexed id, address indexed seller, address indexed buyer);\r\n    event TransactionMade(address indexed seller, address indexed buyer, uint256 indexed id);\r\n\r\n    constructor() {\r\n        _disableInitializers();\r\n    }\r\n\r\n    modifier isIdExisted(uint256 id) {\r\n        require(super.exists(id), \"Invalid ID\");\r\n        _;\r\n    }\r\n\r\n    modifier isApproved(address seller) {\r\n        require(super.isApprovedForAll(msg.sender, seller), \"Unauthorized address\");\r\n        _;\r\n    }\r\n\r\n    modifier isAddressValid(address addr) {\r\n        require(addr != address(0), \"Invalid address\");\r\n        _;\r\n    }\r\n\r\n    modifier IsEBookAvailableOnOrder(uint256 id, address seller) {  // \r\n        require(listedBalance[id][seller] > 0, \"E-Book not listed or sold out\");\r\n        _;\r\n    }\r\n\r\n    modifier IsBuyerDetermined(uint256 id, address seller) {  //  determineBuyer\r\n        require(listings[id][seller].buyerCounts == 0, \"Buyer has been determined\");\r\n        _;\r\n    }\r\n\r\n    function initialize() initializer internal {\r\n        __ERC1155_init(\"\");\r\n        __AccessControl_init();\r\n\r\n        _grantRole(DEFAULT_ADMIN_ROLE, msg.sender);\r\n    }\r\n\r\n    // Tim: ( determineBuyer )\r\n    function _grantApprovalToContract(address seller) private {\r\n        super._setApprovalForAll(seller, address(this), true);\r\n    }\r\n\r\n    // Tim: ( purchaseEBook )\r\n    function _revokeApprovalFromContract(address seller) private {\r\n        super._setApprovalForAll(seller, address(this), false);\r\n    }\r\n\r\n    // Tim:  ID \r\n    function listedBalanceOf(uint256 id, address account) internal view virtual returns(uint256) {\r\n        return listedBalance[id][account];\r\n    }\r\n\r\n    // Tim: \r\n    function listEBook(uint256 id, address seller, uint256 price, uint256 amount) internal virtual isIdExisted(id) isAddressValid(seller) isApproved(seller) {\r\n        require(price > 0, \"Invalid price\");\r\n        require(amount > 0, \"Invalid amount\");\r\n        require(balanceOf(seller, id) - listedBalance[id][seller] >= amount, \"Insefficient unlisted balance to list\"); // \r\n\r\n        listings[id][seller].price = price;\r\n        listedBalance[id][seller] += amount;\r\n\r\n        emit EBookListed(id, seller, price, amount);\r\n    }\r\n\r\n    // Tim: \r\n    function modifyPrice(uint256 id, address seller, uint256 price) internal virtual isIdExisted(id) isAddressValid(seller) isApproved(seller) IsEBookAvailableOnOrder(id, seller) IsBuyerDetermined(id, seller) {\r\n        require(price > 0, \"Invalid price\");\r\n\r\n        uint256 originalPrice = listings[id][seller].price;\r\n        listings[id][seller].price = price;\r\n\r\n        emit PriceModified (id, msg.sender, originalPrice, price);\r\n    }\r\n\r\n    // Tim: \r\n    function cancelListing(uint256 id, address seller, uint256 amount) internal virtual isIdExisted(id) isAddressValid(seller) isApproved(seller) IsEBookAvailableOnOrder(id, seller) IsBuyerDetermined(id, seller) {\r\n        require(amount > 0, \"Invalid amount\");\r\n        require(listedBalance[id][seller] >= amount, \"Exceeded amount to be unlisted\"); // \r\n\r\n        unchecked {\r\n            listedBalance[id][seller] -= amount;\r\n        }\r\n\r\n        emit ListingCancelled(id, seller, msg.sender);\r\n    }\r\n\r\n    // Tim: \r\n    function determineBuyer(address seller, address buyer, uint256 id) internal virtual onlyRole(DEFAULT_ADMIN_ROLE) isIdExisted(id) isAddressValid(seller) isAddressValid(buyer) {\r\n\r\n        listings[id][seller].buyers.push(buyer);\r\n        listings[id][seller].buyerCounts ++;\r\n        \r\n        _grantApprovalToContract(seller);\r\n\r\n        emit BuyerDetermined(id, seller, buyer);\r\n    }\r\n\r\n    // Tim:  buyers \r\n    function purchaseEBook(uint256 id, address seller) internal virtual isIdExisted(id) isAddressValid(seller) IsEBookAvailableOnOrder(id, seller) {\r\n\r\n        uint256 currentPosition = listings[id][seller].currentPosition;\r\n        address buyer = listings[id][seller].buyers[currentPosition];\r\n        uint256 price = listings[id][seller].price;\r\n\r\n        require(buyer != address(0));\r\n        \r\n        //uint256 fee = price * 25 / 1000;\r\n\r\n        super.safeTransferFrom(seller, buyer, id, 0, \"\"); // transfer ebook to buyer\r\n        listedBalance[id][seller] -= 1;\r\n\r\n        (bool success, ) = seller.call{ value: price }(\"\"); // transfer ether to seller\r\n        require(success, \"Buying failed\");\r\n\r\n        //(bool suucess, ) = multiSigWallet.call{ value: fee}(\"\");\r\n        //require(success, \"Buying failed\");\r\n\r\n        _revokeApprovalFromContract(seller);\r\n        \r\n        listings[id][seller].buyers[currentPosition] = address(0);\r\n        currentPosition ++;\r\n        listings[id][seller].buyerCounts --;\r\n\r\n        if (currentPosition == listings[id][seller].buyers.length) {\r\n            delete listings[id][seller];\r\n        } else {\r\n            listings[id][seller].currentPosition = currentPosition;\r\n        }\r\n\r\n        emit TransactionMade(seller, buyer, id);\r\n    }\r\n\r\n    function _beforeTokenTransfer(address operator, address from, address to, uint256[] memory ids, uint256[] memory amounts, bytes memory data)\r\n        internal\r\n        whenNotPaused\r\n        override(ERC1155Upgradeable, ERC1155SupplyUpgradeable)\r\n    {\r\n        for (uint256 i = 0 ; i < ids.length ; ++i) { // \r\n            require(balanceOf(from, ids[i]) - listedBalance[ids[i]][from] >= amounts[i], \"Insufficient balance to transfer\");\r\n        }\r\n        super._beforeTokenTransfer(operator, from, to, ids, amounts, data);\r\n    }\r\n\r\n    function supportsInterface(bytes4 interfaceId)\r\n        public\r\n        view\r\n        override(ERC1155Upgradeable, AccessControlUpgradeable)\r\n        returns (bool)\r\n    {\r\n        return super.supportsInterface(interfaceId);\r\n    }\r\n}",
  "sourcePath": "C:\\Users\\TimOu_0911\\Desktop\\The_Ohara_Protocol\\contracts\\Market.sol",
  "compiler": {
    "name": "solc",
    "version": "0.8.19+commit.7dd6d404.Emscripten.clang"
  },
  "schemaVersion": "3.4.13",
  "updatedAt": "2023-06-24T14:54:15.207Z",
  "devdoc": {
    "events": {
      "ApprovalForAll(address,address,bool)": {
        "details": "Emitted when `account` grants or revokes permission to `operator` to transfer their tokens, according to `approved`."
      },
      "Initialized(uint8)": {
        "details": "Triggered when the contract has been initialized or reinitialized."
      },
      "Paused(address)": {
        "details": "Emitted when the pause is triggered by `account`."
      },
      "RoleAdminChanged(bytes32,bytes32,bytes32)": {
        "details": "Emitted when `newAdminRole` is set as ``role``'s admin role, replacing `previousAdminRole` `DEFAULT_ADMIN_ROLE` is the starting admin for all roles, despite {RoleAdminChanged} not being emitted signaling this. _Available since v3.1._"
      },
      "RoleGranted(bytes32,address,address)": {
        "details": "Emitted when `account` is granted `role`. `sender` is the account that originated the contract call, an admin role bearer except when using {AccessControl-_setupRole}."
      },
      "RoleRevoked(bytes32,address,address)": {
        "details": "Emitted when `account` is revoked `role`. `sender` is the account that originated the contract call:   - if using `revokeRole`, it is the admin role bearer   - if using `renounceRole`, it is the role bearer (i.e. `account`)"
      },
      "TransferBatch(address,address,address,uint256[],uint256[])": {
        "details": "Equivalent to multiple {TransferSingle} events, where `operator`, `from` and `to` are the same for all transfers."
      },
      "TransferSingle(address,address,address,uint256,uint256)": {
        "details": "Emitted when `value` tokens of token type `id` are transferred from `from` to `to` by `operator`."
      },
      "URI(string,uint256)": {
        "details": "Emitted when the URI for token type `id` changes to `value`, if it is a non-programmatic URI. If an {URI} event was emitted for `id`, the standard https://eips.ethereum.org/EIPS/eip-1155#metadata-extensions[guarantees] that `value` will equal the value returned by {IERC1155MetadataURI-uri}."
      },
      "Unpaused(address)": {
        "details": "Emitted when the pause is lifted by `account`."
      }
    },
    "kind": "dev",
    "methods": {
      "balanceOf(address,uint256)": {
        "details": "See {IERC1155-balanceOf}. Requirements: - `account` cannot be the zero address."
      },
      "balanceOfBatch(address[],uint256[])": {
        "details": "See {IERC1155-balanceOfBatch}. Requirements: - `accounts` and `ids` must have the same length."
      },
      "exists(uint256)": {
        "details": "Indicates whether any token exist with a given id, or not."
      },
      "getRoleAdmin(bytes32)": {
        "details": "Returns the admin role that controls `role`. See {grantRole} and {revokeRole}. To change a role's admin, use {_setRoleAdmin}."
      },
      "grantRole(bytes32,address)": {
        "details": "Grants `role` to `account`. If `account` had not been already granted `role`, emits a {RoleGranted} event. Requirements: - the caller must have ``role``'s admin role. May emit a {RoleGranted} event."
      },
      "hasRole(bytes32,address)": {
        "details": "Returns `true` if `account` has been granted `role`."
      },
      "isApprovedForAll(address,address)": {
        "details": "See {IERC1155-isApprovedForAll}."
      },
      "paused()": {
        "details": "Returns true if the contract is paused, and false otherwise."
      },
      "renounceRole(bytes32,address)": {
        "details": "Revokes `role` from the calling account. Roles are often managed via {grantRole} and {revokeRole}: this function's purpose is to provide a mechanism for accounts to lose their privileges if they are compromised (such as when a trusted device is misplaced). If the calling account had been revoked `role`, emits a {RoleRevoked} event. Requirements: - the caller must be `account`. May emit a {RoleRevoked} event."
      },
      "revokeRole(bytes32,address)": {
        "details": "Revokes `role` from `account`. If `account` had been granted `role`, emits a {RoleRevoked} event. Requirements: - the caller must have ``role``'s admin role. May emit a {RoleRevoked} event."
      },
      "safeBatchTransferFrom(address,address,uint256[],uint256[],bytes)": {
        "details": "See {IERC1155-safeBatchTransferFrom}."
      },
      "safeTransferFrom(address,address,uint256,uint256,bytes)": {
        "details": "See {IERC1155-safeTransferFrom}."
      },
      "setApprovalForAll(address,bool)": {
        "details": "See {IERC1155-setApprovalForAll}."
      },
      "totalSupply(uint256)": {
        "details": "Total amount of tokens in with a given id."
      },
      "uri(uint256)": {
        "details": "See {IERC1155MetadataURI-uri}. This implementation returns the same URI for *all* token types. It relies on the token type ID substitution mechanism https://eips.ethereum.org/EIPS/eip-1155#metadata[defined in the EIP]. Clients calling this function must replace the `\\{id\\}` substring with the actual token type ID."
      }
    },
    "version": 1
  },
  "userdoc": {
    "kind": "user",
    "methods": {},
    "version": 1
  }
}