{
  "contractName": "Market",
  "abi": [
    {
      "inputs": [],
      "stateMutability": "nonpayable",
      "type": "constructor"
    },
    {
      "anonymous": false,
      "inputs": [
        {
          "indexed": true,
          "internalType": "address",
          "name": "account",
          "type": "address"
        },
        {
          "indexed": true,
          "internalType": "address",
          "name": "operator",
          "type": "address"
        },
        {
          "indexed": false,
          "internalType": "bool",
          "name": "approved",
          "type": "bool"
        }
      ],
      "name": "ApprovalForAll",
      "type": "event"
    },
    {
      "anonymous": false,
      "inputs": [
        {
          "indexed": true,
          "internalType": "uint256",
          "name": "id",
          "type": "uint256"
        },
        {
          "indexed": true,
          "internalType": "address",
          "name": "seller",
          "type": "address"
        },
        {
          "indexed": true,
          "internalType": "address",
          "name": "buyer",
          "type": "address"
        }
      ],
      "name": "BuyerDetermined",
      "type": "event"
    },
    {
      "anonymous": false,
      "inputs": [
        {
          "indexed": true,
          "internalType": "uint256",
          "name": "id",
          "type": "uint256"
        },
        {
          "indexed": true,
          "internalType": "address",
          "name": "seller",
          "type": "address"
        },
        {
          "indexed": true,
          "internalType": "uint256",
          "name": "price",
          "type": "uint256"
        },
        {
          "indexed": false,
          "internalType": "uint256",
          "name": "amount",
          "type": "uint256"
        }
      ],
      "name": "EBookListed",
      "type": "event"
    },
    {
      "anonymous": false,
      "inputs": [
        {
          "indexed": true,
          "internalType": "uint256",
          "name": "id",
          "type": "uint256"
        },
        {
          "indexed": true,
          "internalType": "address",
          "name": "seller",
          "type": "address"
        },
        {
          "indexed": true,
          "internalType": "address",
          "name": "canceller",
          "type": "address"
        }
      ],
      "name": "ListingCancelled",
      "type": "event"
    },
    {
      "anonymous": false,
      "inputs": [
        {
          "indexed": false,
          "internalType": "address",
          "name": "account",
          "type": "address"
        }
      ],
      "name": "Paused",
      "type": "event"
    },
    {
      "anonymous": false,
      "inputs": [
        {
          "indexed": true,
          "internalType": "uint256",
          "name": "id",
          "type": "uint256"
        },
        {
          "indexed": false,
          "internalType": "address",
          "name": "priceModifier",
          "type": "address"
        },
        {
          "indexed": true,
          "internalType": "uint256",
          "name": "originalPrice",
          "type": "uint256"
        },
        {
          "indexed": true,
          "internalType": "uint256",
          "name": "currentPrice",
          "type": "uint256"
        }
      ],
      "name": "PriceModified",
      "type": "event"
    },
    {
      "anonymous": false,
      "inputs": [
        {
          "indexed": true,
          "internalType": "bytes32",
          "name": "role",
          "type": "bytes32"
        },
        {
          "indexed": true,
          "internalType": "bytes32",
          "name": "previousAdminRole",
          "type": "bytes32"
        },
        {
          "indexed": true,
          "internalType": "bytes32",
          "name": "newAdminRole",
          "type": "bytes32"
        }
      ],
      "name": "RoleAdminChanged",
      "type": "event"
    },
    {
      "anonymous": false,
      "inputs": [
        {
          "indexed": true,
          "internalType": "bytes32",
          "name": "role",
          "type": "bytes32"
        },
        {
          "indexed": true,
          "internalType": "address",
          "name": "account",
          "type": "address"
        },
        {
          "indexed": true,
          "internalType": "address",
          "name": "sender",
          "type": "address"
        }
      ],
      "name": "RoleGranted",
      "type": "event"
    },
    {
      "anonymous": false,
      "inputs": [
        {
          "indexed": true,
          "internalType": "bytes32",
          "name": "role",
          "type": "bytes32"
        },
        {
          "indexed": true,
          "internalType": "address",
          "name": "account",
          "type": "address"
        },
        {
          "indexed": true,
          "internalType": "address",
          "name": "sender",
          "type": "address"
        }
      ],
      "name": "RoleRevoked",
      "type": "event"
    },
    {
      "anonymous": false,
      "inputs": [
        {
          "indexed": true,
          "internalType": "address",
          "name": "seller",
          "type": "address"
        },
        {
          "indexed": true,
          "internalType": "address",
          "name": "buyer",
          "type": "address"
        },
        {
          "indexed": true,
          "internalType": "uint256",
          "name": "id",
          "type": "uint256"
        }
      ],
      "name": "TransactionMade",
      "type": "event"
    },
    {
      "anonymous": false,
      "inputs": [
        {
          "indexed": true,
          "internalType": "address",
          "name": "operator",
          "type": "address"
        },
        {
          "indexed": true,
          "internalType": "address",
          "name": "from",
          "type": "address"
        },
        {
          "indexed": true,
          "internalType": "address",
          "name": "to",
          "type": "address"
        },
        {
          "indexed": false,
          "internalType": "uint256[]",
          "name": "ids",
          "type": "uint256[]"
        },
        {
          "indexed": false,
          "internalType": "uint256[]",
          "name": "values",
          "type": "uint256[]"
        }
      ],
      "name": "TransferBatch",
      "type": "event"
    },
    {
      "anonymous": false,
      "inputs": [
        {
          "indexed": true,
          "internalType": "address",
          "name": "operator",
          "type": "address"
        },
        {
          "indexed": true,
          "internalType": "address",
          "name": "from",
          "type": "address"
        },
        {
          "indexed": true,
          "internalType": "address",
          "name": "to",
          "type": "address"
        },
        {
          "indexed": false,
          "internalType": "uint256",
          "name": "id",
          "type": "uint256"
        },
        {
          "indexed": false,
          "internalType": "uint256",
          "name": "value",
          "type": "uint256"
        }
      ],
      "name": "TransferSingle",
      "type": "event"
    },
    {
      "anonymous": false,
      "inputs": [
        {
          "indexed": false,
          "internalType": "string",
          "name": "value",
          "type": "string"
        },
        {
          "indexed": true,
          "internalType": "uint256",
          "name": "id",
          "type": "uint256"
        }
      ],
      "name": "URI",
      "type": "event"
    },
    {
      "anonymous": false,
      "inputs": [
        {
          "indexed": false,
          "internalType": "address",
          "name": "account",
          "type": "address"
        }
      ],
      "name": "Unpaused",
      "type": "event"
    },
    {
      "inputs": [],
      "name": "DEFAULT_ADMIN_ROLE",
      "outputs": [
        {
          "internalType": "bytes32",
          "name": "",
          "type": "bytes32"
        }
      ],
      "stateMutability": "view",
      "type": "function",
      "constant": true
    },
    {
      "inputs": [
        {
          "internalType": "address",
          "name": "account",
          "type": "address"
        },
        {
          "internalType": "uint256",
          "name": "id",
          "type": "uint256"
        }
      ],
      "name": "balanceOf",
      "outputs": [
        {
          "internalType": "uint256",
          "name": "",
          "type": "uint256"
        }
      ],
      "stateMutability": "view",
      "type": "function",
      "constant": true
    },
    {
      "inputs": [
        {
          "internalType": "address[]",
          "name": "accounts",
          "type": "address[]"
        },
        {
          "internalType": "uint256[]",
          "name": "ids",
          "type": "uint256[]"
        }
      ],
      "name": "balanceOfBatch",
      "outputs": [
        {
          "internalType": "uint256[]",
          "name": "",
          "type": "uint256[]"
        }
      ],
      "stateMutability": "view",
      "type": "function",
      "constant": true
    },
    {
      "inputs": [
        {
          "internalType": "uint256",
          "name": "id",
          "type": "uint256"
        }
      ],
      "name": "exists",
      "outputs": [
        {
          "internalType": "bool",
          "name": "",
          "type": "bool"
        }
      ],
      "stateMutability": "view",
      "type": "function",
      "constant": true
    },
    {
      "inputs": [
        {
          "internalType": "bytes32",
          "name": "role",
          "type": "bytes32"
        }
      ],
      "name": "getRoleAdmin",
      "outputs": [
        {
          "internalType": "bytes32",
          "name": "",
          "type": "bytes32"
        }
      ],
      "stateMutability": "view",
      "type": "function",
      "constant": true
    },
    {
      "inputs": [
        {
          "internalType": "bytes32",
          "name": "role",
          "type": "bytes32"
        },
        {
          "internalType": "address",
          "name": "account",
          "type": "address"
        }
      ],
      "name": "grantRole",
      "outputs": [],
      "stateMutability": "nonpayable",
      "type": "function"
    },
    {
      "inputs": [
        {
          "internalType": "bytes32",
          "name": "role",
          "type": "bytes32"
        },
        {
          "internalType": "address",
          "name": "account",
          "type": "address"
        }
      ],
      "name": "hasRole",
      "outputs": [
        {
          "internalType": "bool",
          "name": "",
          "type": "bool"
        }
      ],
      "stateMutability": "view",
      "type": "function",
      "constant": true
    },
    {
      "inputs": [
        {
          "internalType": "address",
          "name": "account",
          "type": "address"
        },
        {
          "internalType": "address",
          "name": "operator",
          "type": "address"
        }
      ],
      "name": "isApprovedForAll",
      "outputs": [
        {
          "internalType": "bool",
          "name": "",
          "type": "bool"
        }
      ],
      "stateMutability": "view",
      "type": "function",
      "constant": true
    },
    {
      "inputs": [],
      "name": "paused",
      "outputs": [
        {
          "internalType": "bool",
          "name": "",
          "type": "bool"
        }
      ],
      "stateMutability": "view",
      "type": "function",
      "constant": true
    },
    {
      "inputs": [
        {
          "internalType": "bytes32",
          "name": "role",
          "type": "bytes32"
        },
        {
          "internalType": "address",
          "name": "account",
          "type": "address"
        }
      ],
      "name": "renounceRole",
      "outputs": [],
      "stateMutability": "nonpayable",
      "type": "function"
    },
    {
      "inputs": [
        {
          "internalType": "bytes32",
          "name": "role",
          "type": "bytes32"
        },
        {
          "internalType": "address",
          "name": "account",
          "type": "address"
        }
      ],
      "name": "revokeRole",
      "outputs": [],
      "stateMutability": "nonpayable",
      "type": "function"
    },
    {
      "inputs": [
        {
          "internalType": "address",
          "name": "from",
          "type": "address"
        },
        {
          "internalType": "address",
          "name": "to",
          "type": "address"
        },
        {
          "internalType": "uint256[]",
          "name": "ids",
          "type": "uint256[]"
        },
        {
          "internalType": "uint256[]",
          "name": "amounts",
          "type": "uint256[]"
        },
        {
          "internalType": "bytes",
          "name": "data",
          "type": "bytes"
        }
      ],
      "name": "safeBatchTransferFrom",
      "outputs": [],
      "stateMutability": "nonpayable",
      "type": "function"
    },
    {
      "inputs": [
        {
          "internalType": "address",
          "name": "from",
          "type": "address"
        },
        {
          "internalType": "address",
          "name": "to",
          "type": "address"
        },
        {
          "internalType": "uint256",
          "name": "id",
          "type": "uint256"
        },
        {
          "internalType": "uint256",
          "name": "amount",
          "type": "uint256"
        },
        {
          "internalType": "bytes",
          "name": "data",
          "type": "bytes"
        }
      ],
      "name": "safeTransferFrom",
      "outputs": [],
      "stateMutability": "nonpayable",
      "type": "function"
    },
    {
      "inputs": [
        {
          "internalType": "address",
          "name": "operator",
          "type": "address"
        },
        {
          "internalType": "bool",
          "name": "approved",
          "type": "bool"
        }
      ],
      "name": "setApprovalForAll",
      "outputs": [],
      "stateMutability": "nonpayable",
      "type": "function"
    },
    {
      "inputs": [
        {
          "internalType": "uint256",
          "name": "id",
          "type": "uint256"
        }
      ],
      "name": "totalSupply",
      "outputs": [
        {
          "internalType": "uint256",
          "name": "",
          "type": "uint256"
        }
      ],
      "stateMutability": "view",
      "type": "function",
      "constant": true
    },
    {
      "inputs": [
        {
          "internalType": "uint256",
          "name": "",
          "type": "uint256"
        }
      ],
      "name": "uri",
      "outputs": [
        {
          "internalType": "string",
          "name": "",
          "type": "string"
        }
      ],
      "stateMutability": "view",
      "type": "function",
      "constant": true
    },
    {
      "inputs": [
        {
          "internalType": "uint256",
          "name": "id",
          "type": "uint256"
        },
        {
          "internalType": "address",
          "name": "seller",
          "type": "address"
        },
        {
          "internalType": "address",
          "name": "buyer",
          "type": "address"
        }
      ],
      "name": "checkIsBuyer",
      "outputs": [
        {
          "internalType": "int256",
          "name": "",
          "type": "int256"
        }
      ],
      "stateMutability": "view",
      "type": "function",
      "constant": true
    },
    {
      "inputs": [
        {
          "internalType": "address",
          "name": "account",
          "type": "address"
        },
        {
          "internalType": "uint256",
          "name": "id",
          "type": "uint256"
        }
      ],
      "name": "listedBalanceOf",
      "outputs": [
        {
          "internalType": "uint256",
          "name": "",
          "type": "uint256"
        }
      ],
      "stateMutability": "view",
      "type": "function",
      "constant": true
    },
    {
      "inputs": [
        {
          "internalType": "uint256",
          "name": "id",
          "type": "uint256"
        },
        {
          "internalType": "address",
          "name": "seller",
          "type": "address"
        },
        {
          "internalType": "uint256",
          "name": "price",
          "type": "uint256"
        },
        {
          "internalType": "uint256",
          "name": "amount",
          "type": "uint256"
        }
      ],
      "name": "listEBook",
      "outputs": [],
      "stateMutability": "nonpayable",
      "type": "function"
    },
    {
      "inputs": [
        {
          "internalType": "uint256",
          "name": "id",
          "type": "uint256"
        },
        {
          "internalType": "address",
          "name": "seller",
          "type": "address"
        },
        {
          "internalType": "uint256",
          "name": "price",
          "type": "uint256"
        }
      ],
      "name": "modifyPrice",
      "outputs": [],
      "stateMutability": "nonpayable",
      "type": "function"
    },
    {
      "inputs": [
        {
          "internalType": "uint256",
          "name": "id",
          "type": "uint256"
        },
        {
          "internalType": "address",
          "name": "seller",
          "type": "address"
        },
        {
          "internalType": "uint256",
          "name": "amount",
          "type": "uint256"
        }
      ],
      "name": "cancelListing",
      "outputs": [],
      "stateMutability": "nonpayable",
      "type": "function"
    },
    {
      "inputs": [
        {
          "internalType": "address",
          "name": "seller",
          "type": "address"
        },
        {
          "internalType": "address",
          "name": "buyer",
          "type": "address"
        },
        {
          "internalType": "uint256",
          "name": "id",
          "type": "uint256"
        }
      ],
      "name": "determineBuyer",
      "outputs": [],
      "stateMutability": "nonpayable",
      "type": "function"
    },
    {
      "inputs": [
        {
          "internalType": "uint256",
          "name": "id",
          "type": "uint256"
        },
        {
          "internalType": "address",
          "name": "seller",
          "type": "address"
        },
        {
          "internalType": "uint256",
          "name": "index",
          "type": "uint256"
        }
      ],
      "name": "purchaseEBook",
      "outputs": [],
      "stateMutability": "nonpayable",
      "type": "function"
    },
    {
      "inputs": [
        {
          "internalType": "bytes4",
          "name": "interfaceId",
          "type": "bytes4"
        }
      ],
      "name": "supportsInterface",
      "outputs": [
        {
          "internalType": "bool",
          "name": "",
          "type": "bool"
        }
      ],
      "stateMutability": "view",
      "type": "function",
      "constant": true
    }
  ],
  "bytecode": "0x60806040523480156200001157600080fd5b506040518060200160405280600081525062000033816200005560201b60201c565b506000600460006101000a81548160ff021916908315150217905550620003cb565b8060029081620000669190620002e4565b5050565b600081519050919050565b7f4e487b7100000000000000000000000000000000000000000000000000000000600052604160045260246000fd5b7f4e487b7100000000000000000000000000000000000000000000000000000000600052602260045260246000fd5b60006002820490506001821680620000ec57607f821691505b602082108103620001025762000101620000a4565b5b50919050565b60008190508160005260206000209050919050565b60006020601f8301049050919050565b600082821b905092915050565b6000600883026200016c7fffffffffffffffffffffffffffffffffffffffffffffffffffffffffffffffff826200012d565b6200017886836200012d565b95508019841693508086168417925050509392505050565b6000819050919050565b6000819050919050565b6000620001c5620001bf620001b98462000190565b6200019a565b62000190565b9050919050565b6000819050919050565b620001e183620001a4565b620001f9620001f082620001cc565b8484546200013a565b825550505050565b600090565b6200021062000201565b6200021d818484620001d6565b505050565b5b8181101562000245576200023960008262000206565b60018101905062000223565b5050565b601f82111562000294576200025e8162000108565b62000269846200011d565b8101602085101562000279578190505b6200029162000288856200011d565b83018262000222565b50505b505050565b600082821c905092915050565b6000620002b96000198460080262000299565b1980831691505092915050565b6000620002d48383620002a6565b9150826002028217905092915050565b620002ef826200006a565b67ffffffffffffffff8111156200030b576200030a62000075565b5b620003178254620000d3565b6200032482828562000249565b600060209050601f8311600181146200035c576000841562000347578287015190505b620003538582620002c6565b865550620003c3565b601f1984166200036c8662000108565b60005b8281101562000396578489015182556001820191506020850194506020810190506200036f565b86831015620003b65784890151620003b2601f891682620002a6565b8355505b6001600288020188555050505b505050505050565b61541780620003db6000396000f3fe608060405234801561001057600080fd5b50600436106101575760003560e01c80635c975abb116100c3578063a9171a721161007c578063a9171a72146103f8578063bd85b03914610414578063d547741f14610444578063e3579fc514610460578063e985e9c514610490578063f242432a146104c057610157565b80635c975abb146103245780635ebb6365146103425780638ad094b51461037257806391d148541461038e578063a217fddf146103be578063a22cb465146103dc57610157565b80632eb2c2d6116101155780632eb2c2d6146102545780632f2ff15d1461027057806336568abe1461028c57806344d41680146102a85780634e1273f4146102c45780634f558e79146102f457610157565b8062fdd58e1461015c57806301ffc9a71461018c5780630c834143146101bc5780630e89341c146101d85780630ef5e26714610208578063248a9ca314610224575b600080fd5b610176600480360381019061017191906137c1565b6104dc565b6040516101839190613810565b60405180910390f35b6101a660048036038101906101a19190613883565b6105a4565b6040516101b391906138cb565b60405180910390f35b6101d660048036038101906101d191906138e6565b6105b6565b005b6101f260048036038101906101ed9190613939565b610a6b565b6040516101ff91906139f6565b60405180910390f35b610222600480360381019061021d9190613a18565b610aff565b005b61023e60048036038101906102399190613aa1565b610eaf565b60405161024b9190613add565b60405180910390f35b61026e60048036038101906102699190613cf5565b610ecf565b005b61028a60048036038101906102859190613dc4565b610f70565b005b6102a660048036038101906102a19190613dc4565b610f91565b005b6102c260048036038101906102bd91906138e6565b611014565b005b6102de60048036038101906102d99190613ec7565b61155b565b6040516102eb9190613ffd565b60405180910390f35b61030e60048036038101906103099190613939565b611674565b60405161031b91906138cb565b60405180910390f35b61032c611688565b60405161033991906138cb565b60405180910390f35b61035c600480360381019061035791906137c1565b61169f565b6040516103699190613810565b60405180910390f35b61038c600480360381019061038791906138e6565b6116fd565b005b6103a860048036038101906103a39190613dc4565b611a74565b6040516103b591906138cb565b60405180910390f35b6103c6611adf565b6040516103d39190613add565b60405180910390f35b6103f660048036038101906103f1919061404b565b611ae6565b005b610412600480360381019061040d919061408b565b611afc565b005b61042e60048036038101906104299190613939565b611e56565b60405161043b9190613810565b60405180910390f35b61045e60048036038101906104599190613dc4565b611e73565b005b61047a600480360381019061047591906140f2565b611e94565b604051610487919061415e565b60405180910390f35b6104aa60048036038101906104a59190614179565b61206e565b6040516104b791906138cb565b60405180910390f35b6104da60048036038101906104d591906141b9565b612102565b005b60008073ffffffffffffffffffffffffffffffffffffffff168373ffffffffffffffffffffffffffffffffffffffff160361054c576040517f08c379a0000000000000000000000000000000000000000000000000000000008152600401610543906142c2565b60405180910390fd5b60008083815260200190815260200160002060008473ffffffffffffffffffffffffffffffffffffffff1673ffffffffffffffffffffffffffffffffffffffff16815260200190815260200160002054905092915050565b60006105af826121a3565b9050919050565b6105be61221d565b826105c881611674565b610607576040517f08c379a00000000000000000000000000000000000000000000000000000000081526004016105fe9061432e565b60405180910390fd5b816000811161064b576040517f08c379a00000000000000000000000000000000000000000000000000000000081526004016106429061439a565b60405180910390fd5b83600073ffffffffffffffffffffffffffffffffffffffff168173ffffffffffffffffffffffffffffffffffffffff16036106bb576040517f08c379a00000000000000000000000000000000000000000000000000000000081526004016106b290614406565b60405180910390fd5b846106c6338261206e565b610705576040517f08c379a00000000000000000000000000000000000000000000000000000000081526004016106fc90614472565b60405180910390fd5b868660006008600084815260200190815260200160002060008373ffffffffffffffffffffffffffffffffffffffff1673ffffffffffffffffffffffffffffffffffffffff168152602001908152602001600020600101541161079d576040517f08c379a0000000000000000000000000000000000000000000000000000000008152600401610794906144de565b60405180910390fd5b888860006008600084815260200190815260200160002060008373ffffffffffffffffffffffffffffffffffffffff1673ffffffffffffffffffffffffffffffffffffffff1681526020019081526020016000206002015414610835576040517f08c379a000000000000000000000000000000000000000000000000000000000815260040161082c9061454a565b60405180910390fd5b88600860008d815260200190815260200160002060008c73ffffffffffffffffffffffffffffffffffffffff1673ffffffffffffffffffffffffffffffffffffffff1681526020019081526020016000206001015410156108cb576040517f08c379a00000000000000000000000000000000000000000000000000000000081526004016108c2906145b6565b60405180910390fd5b88600860008d815260200190815260200160002060008c73ffffffffffffffffffffffffffffffffffffffff1673ffffffffffffffffffffffffffffffffffffffff168152602001908152602001600020600101600082825403925050819055506000600860008d815260200190815260200160002060008c73ffffffffffffffffffffffffffffffffffffffff1673ffffffffffffffffffffffffffffffffffffffff1681526020019081526020016000206001015403610a0357600860008c815260200190815260200160002060008b73ffffffffffffffffffffffffffffffffffffffff1673ffffffffffffffffffffffffffffffffffffffff16815260200190815260200160002060008082016000905560018201600090556002820160009055600382016000610a0091906136db565b50505b3373ffffffffffffffffffffffffffffffffffffffff168a73ffffffffffffffffffffffffffffffffffffffff168c7f6cf8b4e3257a9e5cadb99e5e7422bd64237d03982ae538bd0ea7b2b45c92c03c60405160405180910390a45050505050505050505050565b606060028054610a7a90614605565b80601f0160208091040260200160405190810160405280929190818152602001828054610aa690614605565b8015610af35780601f10610ac857610100808354040283529160200191610af3565b820191906000526020600020905b815481529060010190602001808311610ad657829003601f168201915b50505050509050919050565b610b0761221d565b6000801b610b1481612267565b81610b1e81611674565b610b5d576040517f08c379a0000000000000000000000000000000000000000000000000000000008152600401610b549061432e565b60405180910390fd5b84600073ffffffffffffffffffffffffffffffffffffffff168173ffffffffffffffffffffffffffffffffffffffff1603610bcd576040517f08c379a0000000000000000000000000000000000000000000000000000000008152600401610bc490614406565b60405180910390fd5b84600073ffffffffffffffffffffffffffffffffffffffff168173ffffffffffffffffffffffffffffffffffffffff1603610c3d576040517f08c379a0000000000000000000000000000000000000000000000000000000008152600401610c3490614406565b60405180910390fd5b6008600086815260200190815260200160002060008873ffffffffffffffffffffffffffffffffffffffff1673ffffffffffffffffffffffffffffffffffffffff168152602001908152602001600020600201546008600087815260200190815260200160002060008973ffffffffffffffffffffffffffffffffffffffff1673ffffffffffffffffffffffffffffffffffffffff1681526020019081526020016000206001015411610d25576040517f08c379a0000000000000000000000000000000000000000000000000000000008152600401610d1c90614682565b60405180910390fd5b6008600086815260200190815260200160002060008873ffffffffffffffffffffffffffffffffffffffff1673ffffffffffffffffffffffffffffffffffffffff168152602001908152602001600020600301869080600181540180825580915050600190039060005260206000200160009091909190916101000a81548173ffffffffffffffffffffffffffffffffffffffff021916908373ffffffffffffffffffffffffffffffffffffffff1602179055506008600086815260200190815260200160002060008873ffffffffffffffffffffffffffffffffffffffff1673ffffffffffffffffffffffffffffffffffffffff1681526020019081526020016000206002016000815480929190610e3d906146d1565b9190505550610e4b8761227b565b8573ffffffffffffffffffffffffffffffffffffffff168773ffffffffffffffffffffffffffffffffffffffff16867f293e36bbce608551a8ef03dba20114986371a7df520fde646a2a4a8136c8fc0e60405160405180910390a450505050505050565b600060056000838152602001908152602001600020600101549050919050565b610ed761228a565b73ffffffffffffffffffffffffffffffffffffffff168573ffffffffffffffffffffffffffffffffffffffff161480610f1d5750610f1c85610f1761228a565b61206e565b5b610f5c576040517f08c379a0000000000000000000000000000000000000000000000000000000008152600401610f539061478b565b60405180910390fd5b610f698585858585612292565b5050505050565b610f7982610eaf565b610f8281612267565b610f8c83836125b3565b505050565b610f9961228a565b73ffffffffffffffffffffffffffffffffffffffff168173ffffffffffffffffffffffffffffffffffffffff1614611006576040517f08c379a0000000000000000000000000000000000000000000000000000000008152600401610ffd9061481d565b60405180910390fd5b6110108282612694565b5050565b61101c61221d565b8261102681611674565b611065576040517f08c379a000000000000000000000000000000000000000000000000000000000815260040161105c9061432e565b60405180910390fd5b82600073ffffffffffffffffffffffffffffffffffffffff168173ffffffffffffffffffffffffffffffffffffffff16036110d5576040517f08c379a00000000000000000000000000000000000000000000000000000000081526004016110cc90614406565b60405180910390fd5b848460006008600084815260200190815260200160002060008373ffffffffffffffffffffffffffffffffffffffff1673ffffffffffffffffffffffffffffffffffffffff168152602001908152602001600020600101541161116d576040517f08c379a0000000000000000000000000000000000000000000000000000000008152600401611164906144de565b60405180910390fd5b60003390506000600860008a815260200190815260200160002060008973ffffffffffffffffffffffffffffffffffffffff1673ffffffffffffffffffffffffffffffffffffffff1681526020019081526020016000206000015490506111e788838b600060405180602001604052806000815250612102565b60008873ffffffffffffffffffffffffffffffffffffffff168260405161120d9061486e565b60006040518083038185875af1925050503d806000811461124a576040519150601f19603f3d011682016040523d82523d6000602084013e61124f565b606091505b5050905080611293576040517f08c379a000000000000000000000000000000000000000000000000000000000815260040161128a906148cf565b60405180910390fd5b61129c89612776565b600860008b815260200190815260200160002060008a73ffffffffffffffffffffffffffffffffffffffff1673ffffffffffffffffffffffffffffffffffffffff1681526020019081526020016000206001016000815480929190611300906148ef565b9190505550600860008b815260200190815260200160002060008a73ffffffffffffffffffffffffffffffffffffffff1673ffffffffffffffffffffffffffffffffffffffff1681526020019081526020016000206002016000815480929190611369906148ef565b91905055506000600860008c815260200190815260200160002060008b73ffffffffffffffffffffffffffffffffffffffff1673ffffffffffffffffffffffffffffffffffffffff16815260200190815260200160002060030189815481106113d5576113d4614918565b5b9060005260206000200160006101000a81548173ffffffffffffffffffffffffffffffffffffffff021916908373ffffffffffffffffffffffffffffffffffffffff1602179055506000600860008c815260200190815260200160002060008b73ffffffffffffffffffffffffffffffffffffffff1673ffffffffffffffffffffffffffffffffffffffff16815260200190815260200160002060010154036114f457600860008b815260200190815260200160002060008a73ffffffffffffffffffffffffffffffffffffffff1673ffffffffffffffffffffffffffffffffffffffff168152602001908152602001600020600080820160009055600182016000905560028201600090556003820160006114f191906136db565b50505b898373ffffffffffffffffffffffffffffffffffffffff168a73ffffffffffffffffffffffffffffffffffffffff167f4e14d3d55a435ef2aee46756984f50ee42f895efb7eb97f9c8ab2ea0961da73560405160405180910390a450505050505050505050565b606081518351146115a1576040517f08c379a0000000000000000000000000000000000000000000000000000000008152600401611598906149b9565b60405180910390fd5b6000835167ffffffffffffffff8111156115be576115bd613afd565b5b6040519080825280602002602001820160405280156115ec5781602001602082028036833780820191505090505b50905060005b84518110156116695761163985828151811061161157611610614918565b5b602002602001015185838151811061162c5761162b614918565b5b60200260200101516104dc565b82828151811061164c5761164b614918565b5b60200260200101818152505080611662906146d1565b90506115f2565b508091505092915050565b60008061168083611e56565b119050919050565b6000600460009054906101000a900460ff16905090565b60006008600083815260200190815260200160002060008473ffffffffffffffffffffffffffffffffffffffff1673ffffffffffffffffffffffffffffffffffffffff16815260200190815260200160002060010154905092915050565b61170561221d565b8261170f81611674565b61174e576040517f08c379a00000000000000000000000000000000000000000000000000000000081526004016117459061432e565b60405180910390fd5b8160008111611792576040517f08c379a00000000000000000000000000000000000000000000000000000000081526004016117899061439a565b60405180910390fd5b83600073ffffffffffffffffffffffffffffffffffffffff168173ffffffffffffffffffffffffffffffffffffffff1603611802576040517f08c379a00000000000000000000000000000000000000000000000000000000081526004016117f990614406565b60405180910390fd5b8461180d338261206e565b61184c576040517f08c379a000000000000000000000000000000000000000000000000000000000815260040161184390614472565b60405180910390fd5b868660006008600084815260200190815260200160002060008373ffffffffffffffffffffffffffffffffffffffff1673ffffffffffffffffffffffffffffffffffffffff16815260200190815260200160002060010154116118e4576040517f08c379a00000000000000000000000000000000000000000000000000000000081526004016118db906144de565b60405180910390fd5b888860006008600084815260200190815260200160002060008373ffffffffffffffffffffffffffffffffffffffff1673ffffffffffffffffffffffffffffffffffffffff168152602001908152602001600020600201541461197c576040517f08c379a00000000000000000000000000000000000000000000000000000000081526004016119739061454a565b60405180910390fd5b6000600860008d815260200190815260200160002060008c73ffffffffffffffffffffffffffffffffffffffff1673ffffffffffffffffffffffffffffffffffffffff16815260200190815260200160002060000154905089600860008e815260200190815260200160002060008d73ffffffffffffffffffffffffffffffffffffffff1673ffffffffffffffffffffffffffffffffffffffff1681526020019081526020016000206000018190555089818d7f0102bf50452715279cbb01eacc751d98fbefecf58e68dcd55a805f9b3c514fe033604051611a5e91906149e8565b60405180910390a4505050505050505050505050565b60006005600084815260200190815260200160002060000160008373ffffffffffffffffffffffffffffffffffffffff1673ffffffffffffffffffffffffffffffffffffffff16815260200190815260200160002060009054906101000a900460ff16905092915050565b6000801b81565b611af8611af161228a565b8383612785565b5050565b611b0461221d565b83611b0e81611674565b611b4d576040517f08c379a0000000000000000000000000000000000000000000000000000000008152600401611b449061432e565b60405180910390fd5b8260008111611b91576040517f08c379a0000000000000000000000000000000000000000000000000000000008152600401611b889061439a565b60405180910390fd5b8260008111611bd5576040517f08c379a0000000000000000000000000000000000000000000000000000000008152600401611bcc9061439a565b60405180910390fd5b85600073ffffffffffffffffffffffffffffffffffffffff168173ffffffffffffffffffffffffffffffffffffffff1603611c45576040517f08c379a0000000000000000000000000000000000000000000000000000000008152600401611c3c90614406565b60405180910390fd5b86611c50338261206e565b611c8f576040517f08c379a0000000000000000000000000000000000000000000000000000000008152600401611c8690614472565b60405180910390fd5b85600860008b815260200190815260200160002060008a73ffffffffffffffffffffffffffffffffffffffff1673ffffffffffffffffffffffffffffffffffffffff16815260200190815260200160002060010154611cee8a8c6104dc565b611cf89190614a03565b1015611d39576040517f08c379a0000000000000000000000000000000000000000000000000000000008152600401611d3090614a83565b60405180910390fd5b86600860008b815260200190815260200160002060008a73ffffffffffffffffffffffffffffffffffffffff1673ffffffffffffffffffffffffffffffffffffffff1681526020019081526020016000206000018190555085600860008b815260200190815260200160002060008a73ffffffffffffffffffffffffffffffffffffffff1673ffffffffffffffffffffffffffffffffffffffff1681526020019081526020016000206001016000828254611df49190614aa3565b92505081905550868873ffffffffffffffffffffffffffffffffffffffff168a7f55cbae8317df70e8af66b23c30f5bc00600239c96d89aaca95308c26bf1a5e0589604051611e439190613810565b60405180910390a4505050505050505050565b600060036000838152602001908152602001600020549050919050565b611e7c82610eaf565b611e8581612267565b611e8f8383612694565b505050565b6000806008600086815260200190815260200160002060008573ffffffffffffffffffffffffffffffffffffffff1673ffffffffffffffffffffffffffffffffffffffff16815260200190815260200160002060030180549050905060006008600087815260200190815260200160002060008673ffffffffffffffffffffffffffffffffffffffff1673ffffffffffffffffffffffffffffffffffffffff168152602001908152602001600020600301805480602002602001604051908101604052809291908181526020018280548015611fc557602002820191906000526020600020905b8160009054906101000a900473ffffffffffffffffffffffffffffffffffffffff1673ffffffffffffffffffffffffffffffffffffffff1681526020019060010190808311611f7b575b5050505050905060005b82811015612040578473ffffffffffffffffffffffffffffffffffffffff1682828151811061200157612000614918565b5b602002602001015173ffffffffffffffffffffffffffffffffffffffff160361202f57809350505050612067565b80612039906146d1565b9050611fcf565b507fffffffffffffffffffffffffffffffffffffffffffffffffffffffffffffffff925050505b9392505050565b6000600160008473ffffffffffffffffffffffffffffffffffffffff1673ffffffffffffffffffffffffffffffffffffffff16815260200190815260200160002060008373ffffffffffffffffffffffffffffffffffffffff1673ffffffffffffffffffffffffffffffffffffffff16815260200190815260200160002060009054906101000a900460ff16905092915050565b61210a61228a565b73ffffffffffffffffffffffffffffffffffffffff168573ffffffffffffffffffffffffffffffffffffffff161480612150575061214f8561214a61228a565b61206e565b5b61218f576040517f08c379a00000000000000000000000000000000000000000000000000000000081526004016121869061478b565b60405180910390fd5b61219c85858585856128f1565b5050505050565b60007f7965db0b000000000000000000000000000000000000000000000000000000007bffffffffffffffffffffffffffffffffffffffffffffffffffffffff1916827bffffffffffffffffffffffffffffffffffffffffffffffffffffffff19161480612216575061221582612b8c565b5b9050919050565b612225611688565b15612265576040517f08c379a000000000000000000000000000000000000000000000000000000000815260040161225c90614b23565b60405180910390fd5b565b6122788161227361228a565b612c6e565b50565b61228781306001612785565b50565b600033905090565b81518351146122d6576040517f08c379a00000000000000000000000000000000000000000000000000000000081526004016122cd90614bb5565b60405180910390fd5b600073ffffffffffffffffffffffffffffffffffffffff168473ffffffffffffffffffffffffffffffffffffffff1603612345576040517f08c379a000000000000000000000000000000000000000000000000000000000815260040161233c90614c47565b60405180910390fd5b600061234f61228a565b905061235f818787878787612cf3565b60005b84518110156125105760008582815181106123805761237f614918565b5b60200260200101519050600085838151811061239f5761239e614918565b5b60200260200101519050600080600084815260200190815260200160002060008b73ffffffffffffffffffffffffffffffffffffffff1673ffffffffffffffffffffffffffffffffffffffff16815260200190815260200160002054905081811015612440576040517f08c379a000000000000000000000000000000000000000000000000000000000815260040161243790614cd9565b60405180910390fd5b81810360008085815260200190815260200160002060008c73ffffffffffffffffffffffffffffffffffffffff1673ffffffffffffffffffffffffffffffffffffffff168152602001908152602001600020819055508160008085815260200190815260200160002060008b73ffffffffffffffffffffffffffffffffffffffff1673ffffffffffffffffffffffffffffffffffffffff16815260200190815260200160002060008282546124f59190614aa3565b9250508190555050505080612509906146d1565b9050612362565b508473ffffffffffffffffffffffffffffffffffffffff168673ffffffffffffffffffffffffffffffffffffffff168273ffffffffffffffffffffffffffffffffffffffff167f4a39dc06d4c0dbc64b70af90fd698a233a518aa5d07e595d983b8c0526c8f7fb8787604051612587929190614cf9565b60405180910390a461259d818787878787612ddd565b6125ab818787878787612de5565b505050505050565b6125bd8282611a74565b6126905760016005600084815260200190815260200160002060000160008373ffffffffffffffffffffffffffffffffffffffff1673ffffffffffffffffffffffffffffffffffffffff16815260200190815260200160002060006101000a81548160ff02191690831515021790555061263561228a565b73ffffffffffffffffffffffffffffffffffffffff168173ffffffffffffffffffffffffffffffffffffffff16837f2f8788117e7eff1d82e926ec794901d17c78024a50270940304540a733656f0d60405160405180910390a45b5050565b61269e8282611a74565b156127725760006005600084815260200190815260200160002060000160008373ffffffffffffffffffffffffffffffffffffffff1673ffffffffffffffffffffffffffffffffffffffff16815260200190815260200160002060006101000a81548160ff02191690831515021790555061271761228a565b73ffffffffffffffffffffffffffffffffffffffff168173ffffffffffffffffffffffffffffffffffffffff16837ff6391f5c32d9c69d2a47ea670b442974b53935d1edc7fd64eb21e047a839171b60405160405180910390a45b5050565b61278281306000612785565b50565b8173ffffffffffffffffffffffffffffffffffffffff168373ffffffffffffffffffffffffffffffffffffffff16036127f3576040517f08c379a00000000000000000000000000000000000000000000000000000000081526004016127ea90614da2565b60405180910390fd5b80600160008573ffffffffffffffffffffffffffffffffffffffff1673ffffffffffffffffffffffffffffffffffffffff16815260200190815260200160002060008473ffffffffffffffffffffffffffffffffffffffff1673ffffffffffffffffffffffffffffffffffffffff16815260200190815260200160002060006101000a81548160ff0219169083151502179055508173ffffffffffffffffffffffffffffffffffffffff168373ffffffffffffffffffffffffffffffffffffffff167f17307eab39ab6107e8899845ad3d59bd9653f200f220920489ca2b5937696c31836040516128e491906138cb565b60405180910390a3505050565b600073ffffffffffffffffffffffffffffffffffffffff168473ffffffffffffffffffffffffffffffffffffffff1603612960576040517f08c379a000000000000000000000000000000000000000000000000000000000815260040161295790614c47565b60405180910390fd5b600061296a61228a565b9050600061297785612fbc565b9050600061298485612fbc565b9050612994838989858589612cf3565b600080600088815260200190815260200160002060008a73ffffffffffffffffffffffffffffffffffffffff1673ffffffffffffffffffffffffffffffffffffffff16815260200190815260200160002054905085811015612a2b576040517f08c379a0000000000000000000000000000000000000000000000000000000008152600401612a2290614cd9565b60405180910390fd5b85810360008089815260200190815260200160002060008b73ffffffffffffffffffffffffffffffffffffffff1673ffffffffffffffffffffffffffffffffffffffff168152602001908152602001600020819055508560008089815260200190815260200160002060008a73ffffffffffffffffffffffffffffffffffffffff1673ffffffffffffffffffffffffffffffffffffffff1681526020019081526020016000206000828254612ae09190614aa3565b925050819055508773ffffffffffffffffffffffffffffffffffffffff168973ffffffffffffffffffffffffffffffffffffffff168573ffffffffffffffffffffffffffffffffffffffff167fc3d58168c5ae7397731d063d5bbf3d657854427343f4c083240f7aacaa2d0f628a8a604051612b5d929190614dc2565b60405180910390a4612b73848a8a86868a612ddd565b612b81848a8a8a8a8a613036565b505050505050505050565b60007fd9b67a26000000000000000000000000000000000000000000000000000000007bffffffffffffffffffffffffffffffffffffffffffffffffffffffff1916827bffffffffffffffffffffffffffffffffffffffffffffffffffffffff19161480612c5757507f0e89341c000000000000000000000000000000000000000000000000000000007bffffffffffffffffffffffffffffffffffffffffffffffffffffffff1916827bffffffffffffffffffffffffffffffffffffffffffffffffffffffff1916145b80612c675750612c668261320d565b5b9050919050565b612c788282611a74565b612cef57612c8581613277565b612c938360001c60206132a4565b604051602001612ca4929190614ebf565b6040516020818303038152906040526040517f08c379a0000000000000000000000000000000000000000000000000000000008152600401612ce691906139f6565b60405180910390fd5b5050565b612cfb61221d565b60005b8351811015612dc657828181518110612d1a57612d19614918565b5b6020026020010151612d4687868481518110612d3957612d38614918565b5b602002602001015161169f565b612d6a88878581518110612d5d57612d5c614918565b5b60200260200101516104dc565b612d749190614a03565b1015612db5576040517f08c379a0000000000000000000000000000000000000000000000000000000008152600401612dac90614f45565b60405180910390fd5b80612dbf906146d1565b9050612cfe565b50612dd58686868686866134e0565b505050505050565b505050505050565b612e048473ffffffffffffffffffffffffffffffffffffffff166136b0565b15612fb4578373ffffffffffffffffffffffffffffffffffffffff1663bc197c8187878686866040518663ffffffff1660e01b8152600401612e4a959493929190614fba565b6020604051808303816000875af1925050508015612e8657506040513d601f19601f82011682018060405250810190612e839190615037565b60015b612f2b57612e92615071565b806308c379a003612eee5750612ea6615093565b80612eb15750612ef0565b806040517f08c379a0000000000000000000000000000000000000000000000000000000008152600401612ee591906139f6565b60405180910390fd5b505b6040517f08c379a0000000000000000000000000000000000000000000000000000000008152600401612f2290615195565b60405180910390fd5b63bc197c8160e01b7bffffffffffffffffffffffffffffffffffffffffffffffffffffffff1916817bffffffffffffffffffffffffffffffffffffffffffffffffffffffff191614612fb2576040517f08c379a0000000000000000000000000000000000000000000000000000000008152600401612fa990615227565b60405180910390fd5b505b505050505050565b60606000600167ffffffffffffffff811115612fdb57612fda613afd565b5b6040519080825280602002602001820160405280156130095781602001602082028036833780820191505090505b509050828160008151811061302157613020614918565b5b60200260200101818152505080915050919050565b6130558473ffffffffffffffffffffffffffffffffffffffff166136b0565b15613205578373ffffffffffffffffffffffffffffffffffffffff1663f23a6e6187878686866040518663ffffffff1660e01b815260040161309b959493929190615247565b6020604051808303816000875af19250505080156130d757506040513d601f19601f820116820180604052508101906130d49190615037565b60015b61317c576130e3615071565b806308c379a00361313f57506130f7615093565b806131025750613141565b806040517f08c379a000000000000000000000000000000000000000000000000000000000815260040161313691906139f6565b60405180910390fd5b505b6040517f08c379a000000000000000000000000000000000000000000000000000000000815260040161317390615195565b60405180910390fd5b63f23a6e6160e01b7bffffffffffffffffffffffffffffffffffffffffffffffffffffffff1916817bffffffffffffffffffffffffffffffffffffffffffffffffffffffff191614613203576040517f08c379a00000000000000000000000000000000000000000000000000000000081526004016131fa90615227565b60405180910390fd5b505b505050505050565b60007f01ffc9a7000000000000000000000000000000000000000000000000000000007bffffffffffffffffffffffffffffffffffffffffffffffffffffffff1916827bffffffffffffffffffffffffffffffffffffffffffffffffffffffff1916149050919050565b606061329d8273ffffffffffffffffffffffffffffffffffffffff16601460ff166132a4565b9050919050565b6060600060028360026132b791906152a1565b6132c19190614aa3565b67ffffffffffffffff8111156132da576132d9613afd565b5b6040519080825280601f01601f19166020018201604052801561330c5781602001600182028036833780820191505090505b5090507f30000000000000000000000000000000000000000000000000000000000000008160008151811061334457613343614918565b5b60200101907effffffffffffffffffffffffffffffffffffffffffffffffffffffffffffff1916908160001a9053507f7800000000000000000000000000000000000000000000000000000000000000816001815181106133a8576133a7614918565b5b60200101907effffffffffffffffffffffffffffffffffffffffffffffffffffffffffffff1916908160001a905350600060018460026133e891906152a1565b6133f29190614aa3565b90505b6001811115613492577f3031323334353637383961626364656600000000000000000000000000000000600f86166010811061343457613433614918565b5b1a60f81b82828151811061344b5761344a614918565b5b60200101907effffffffffffffffffffffffffffffffffffffffffffffffffffffffffffff1916908160001a905350600485901c94508061348b906148ef565b90506133f5565b50600084146134d6576040517f08c379a00000000000000000000000000000000000000000000000000000000081526004016134cd9061532f565b60405180910390fd5b8091505092915050565b6134ee8686868686866136d3565b600073ffffffffffffffffffffffffffffffffffffffff168573ffffffffffffffffffffffffffffffffffffffff160361359f5760005b835181101561359d5782818151811061354157613540614918565b5b6020026020010151600360008684815181106135605761355f614918565b5b6020026020010151815260200190815260200160002060008282546135859190614aa3565b9250508190555080613596906146d1565b9050613525565b505b600073ffffffffffffffffffffffffffffffffffffffff168473ffffffffffffffffffffffffffffffffffffffff16036136a85760005b83518110156136a65760008482815181106135f4576135f3614918565b5b60200260200101519050600084838151811061361357613612614918565b5b6020026020010151905060006003600084815260200190815260200160002054905081811015613678576040517f08c379a000000000000000000000000000000000000000000000000000000000815260040161366f906153c1565b60405180910390fd5b81810360036000858152602001908152602001600020819055505050508061369f906146d1565b90506135d6565b505b505050505050565b6000808273ffffffffffffffffffffffffffffffffffffffff163b119050919050565b505050505050565b50805460008255906000526020600020908101906136f991906136fc565b50565b5b808211156137155760008160009055506001016136fd565b5090565b6000604051905090565b600080fd5b600080fd5b600073ffffffffffffffffffffffffffffffffffffffff82169050919050565b60006137588261372d565b9050919050565b6137688161374d565b811461377357600080fd5b50565b6000813590506137858161375f565b92915050565b6000819050919050565b61379e8161378b565b81146137a957600080fd5b50565b6000813590506137bb81613795565b92915050565b600080604083850312156137d8576137d7613723565b5b60006137e685828601613776565b92505060206137f7858286016137ac565b9150509250929050565b61380a8161378b565b82525050565b60006020820190506138256000830184613801565b92915050565b60007fffffffff0000000000000000000000000000000000000000000000000000000082169050919050565b6138608161382b565b811461386b57600080fd5b50565b60008135905061387d81613857565b92915050565b60006020828403121561389957613898613723565b5b60006138a78482850161386e565b91505092915050565b60008115159050919050565b6138c5816138b0565b82525050565b60006020820190506138e060008301846138bc565b92915050565b6000806000606084860312156138ff576138fe613723565b5b600061390d868287016137ac565b935050602061391e86828701613776565b925050604061392f868287016137ac565b9150509250925092565b60006020828403121561394f5761394e613723565b5b600061395d848285016137ac565b91505092915050565b600081519050919050565b600082825260208201905092915050565b60005b838110156139a0578082015181840152602081019050613985565b60008484015250505050565b6000601f19601f8301169050919050565b60006139c882613966565b6139d28185613971565b93506139e2818560208601613982565b6139eb816139ac565b840191505092915050565b60006020820190508181036000830152613a1081846139bd565b905092915050565b600080600060608486031215613a3157613a30613723565b5b6000613a3f86828701613776565b9350506020613a5086828701613776565b9250506040613a61868287016137ac565b9150509250925092565b6000819050919050565b613a7e81613a6b565b8114613a8957600080fd5b50565b600081359050613a9b81613a75565b92915050565b600060208284031215613ab757613ab6613723565b5b6000613ac584828501613a8c565b91505092915050565b613ad781613a6b565b82525050565b6000602082019050613af26000830184613ace565b92915050565b600080fd5b7f4e487b7100000000000000000000000000000000000000000000000000000000600052604160045260246000fd5b613b35826139ac565b810181811067ffffffffffffffff82111715613b5457613b53613afd565b5b80604052505050565b6000613b67613719565b9050613b738282613b2c565b919050565b600067ffffffffffffffff821115613b9357613b92613afd565b5b602082029050602081019050919050565b600080fd5b6000613bbc613bb784613b78565b613b5d565b90508083825260208201905060208402830185811115613bdf57613bde613ba4565b5b835b81811015613c085780613bf488826137ac565b845260208401935050602081019050613be1565b5050509392505050565b600082601f830112613c2757613c26613af8565b5b8135613c37848260208601613ba9565b91505092915050565b600080fd5b600067ffffffffffffffff821115613c6057613c5f613afd565b5b613c69826139ac565b9050602081019050919050565b82818337600083830152505050565b6000613c98613c9384613c45565b613b5d565b905082815260208101848484011115613cb457613cb3613c40565b5b613cbf848285613c76565b509392505050565b600082601f830112613cdc57613cdb613af8565b5b8135613cec848260208601613c85565b91505092915050565b600080600080600060a08688031215613d1157613d10613723565b5b6000613d1f88828901613776565b9550506020613d3088828901613776565b945050604086013567ffffffffffffffff811115613d5157613d50613728565b5b613d5d88828901613c12565b935050606086013567ffffffffffffffff811115613d7e57613d7d613728565b5b613d8a88828901613c12565b925050608086013567ffffffffffffffff811115613dab57613daa613728565b5b613db788828901613cc7565b9150509295509295909350565b60008060408385031215613ddb57613dda613723565b5b6000613de985828601613a8c565b9250506020613dfa85828601613776565b9150509250929050565b600067ffffffffffffffff821115613e1f57613e1e613afd565b5b602082029050602081019050919050565b6000613e43613e3e84613e04565b613b5d565b90508083825260208201905060208402830185811115613e6657613e65613ba4565b5b835b81811015613e8f5780613e7b8882613776565b845260208401935050602081019050613e68565b5050509392505050565b600082601f830112613eae57613ead613af8565b5b8135613ebe848260208601613e30565b91505092915050565b60008060408385031215613ede57613edd613723565b5b600083013567ffffffffffffffff811115613efc57613efb613728565b5b613f0885828601613e99565b925050602083013567ffffffffffffffff811115613f2957613f28613728565b5b613f3585828601613c12565b9150509250929050565b600081519050919050565b600082825260208201905092915050565b6000819050602082019050919050565b613f748161378b565b82525050565b6000613f868383613f6b565b60208301905092915050565b6000602082019050919050565b6000613faa82613f3f565b613fb48185613f4a565b9350613fbf83613f5b565b8060005b83811015613ff0578151613fd78882613f7a565b9750613fe283613f92565b925050600181019050613fc3565b5085935050505092915050565b600060208201905081810360008301526140178184613f9f565b905092915050565b614028816138b0565b811461403357600080fd5b50565b6000813590506140458161401f565b92915050565b6000806040838503121561406257614061613723565b5b600061407085828601613776565b925050602061408185828601614036565b9150509250929050565b600080600080608085870312156140a5576140a4613723565b5b60006140b3878288016137ac565b94505060206140c487828801613776565b93505060406140d5878288016137ac565b92505060606140e6878288016137ac565b91505092959194509250565b60008060006060848603121561410b5761410a613723565b5b6000614119868287016137ac565b935050602061412a86828701613776565b925050604061413b86828701613776565b9150509250925092565b6000819050919050565b61415881614145565b82525050565b6000602082019050614173600083018461414f565b92915050565b600080604083850312156141905761418f613723565b5b600061419e85828601613776565b92505060206141af85828601613776565b9150509250929050565b600080600080600060a086880312156141d5576141d4613723565b5b60006141e388828901613776565b95505060206141f488828901613776565b9450506040614205888289016137ac565b9350506060614216888289016137ac565b925050608086013567ffffffffffffffff81111561423757614236613728565b5b61424388828901613cc7565b9150509295509295909350565b7f455243313135353a2061646472657373207a65726f206973206e6f742061207660008201527f616c6964206f776e657200000000000000000000000000000000000000000000602082015250565b60006142ac602a83613971565b91506142b782614250565b604082019050919050565b600060208201905081810360008301526142db8161429f565b9050919050565b7f496e76616c696420494400000000000000000000000000000000000000000000600082015250565b6000614318600a83613971565b9150614323826142e2565b602082019050919050565b600060208201905081810360008301526143478161430b565b9050919050565b7f496e76616c69642070726963652f616d6f756e74000000000000000000000000600082015250565b6000614384601483613971565b915061438f8261434e565b602082019050919050565b600060208201905081810360008301526143b381614377565b9050919050565b7f496e76616c696420616464726573730000000000000000000000000000000000600082015250565b60006143f0600f83613971565b91506143fb826143ba565b602082019050919050565b6000602082019050818103600083015261441f816143e3565b9050919050565b7f556e617574686f72697a65640000000000000000000000000000000000000000600082015250565b600061445c600c83613971565b915061446782614426565b602082019050919050565b6000602082019050818103600083015261448b8161444f565b9050919050565b7f6e6f74206c6973746564206f7220736f6c64206f757400000000000000000000600082015250565b60006144c8601683613971565b91506144d382614492565b602082019050919050565b600060208201905081810360008301526144f7816144bb565b9050919050565b7f4275796572206861732064657465726d696e6564000000000000000000000000600082015250565b6000614534601483613971565b915061453f826144fe565b602082019050919050565b6000602082019050818103600083015261456381614527565b9050919050565b7f457863656564656420616d6f756e7420746f20756e6c69737400000000000000600082015250565b60006145a0601983613971565b91506145ab8261456a565b602082019050919050565b600060208201905081810360008301526145cf81614593565b9050919050565b7f4e487b7100000000000000000000000000000000000000000000000000000000600052602260045260246000fd5b6000600282049050600182168061461d57607f821691505b6020821081036146305761462f6145d6565b5b50919050565b7f4f7264657220616c6c2066756c66696c6c656400000000000000000000000000600082015250565b600061466c601383613971565b915061467782614636565b602082019050919050565b6000602082019050818103600083015261469b8161465f565b9050919050565b7f4e487b7100000000000000000000000000000000000000000000000000000000600052601160045260246000fd5b60006146dc8261378b565b91507fffffffffffffffffffffffffffffffffffffffffffffffffffffffffffffffff820361470e5761470d6146a2565b5b600182019050919050565b7f455243313135353a2063616c6c6572206973206e6f7420746f6b656e206f776e60008201527f6572206f7220617070726f766564000000000000000000000000000000000000602082015250565b6000614775602e83613971565b915061478082614719565b604082019050919050565b600060208201905081810360008301526147a481614768565b9050919050565b7f416363657373436f6e74726f6c3a2063616e206f6e6c792072656e6f756e636560008201527f20726f6c657320666f722073656c660000000000000000000000000000000000602082015250565b6000614807602f83613971565b9150614812826147ab565b604082019050919050565b60006020820190508181036000830152614836816147fa565b9050919050565b600081905092915050565b50565b600061485860008361483d565b915061486382614848565b600082019050919050565b60006148798261484b565b9150819050919050565b7f427579696e67206661696c656400000000000000000000000000000000000000600082015250565b60006148b9600d83613971565b91506148c482614883565b602082019050919050565b600060208201905081810360008301526148e8816148ac565b9050919050565b60006148fa8261378b565b91506000820361490d5761490c6146a2565b5b600182039050919050565b7f4e487b7100000000000000000000000000000000000000000000000000000000600052603260045260246000fd5b7f455243313135353a206163636f756e747320616e6420696473206c656e67746860008201527f206d69736d617463680000000000000000000000000000000000000000000000602082015250565b60006149a3602983613971565b91506149ae82614947565b604082019050919050565b600060208201905081810360008301526149d281614996565b9050919050565b6149e28161374d565b82525050565b60006020820190506149fd60008301846149d9565b92915050565b6000614a0e8261378b565b9150614a198361378b565b9250828203905081811115614a3157614a306146a2565b5b92915050565b7f496e73656666696369656e742062616c616e636520746f206c69737400000000600082015250565b6000614a6d601c83613971565b9150614a7882614a37565b602082019050919050565b60006020820190508181036000830152614a9c81614a60565b9050919050565b6000614aae8261378b565b9150614ab98361378b565b9250828201905080821115614ad157614ad06146a2565b5b92915050565b7f5061757361626c653a2070617573656400000000000000000000000000000000600082015250565b6000614b0d601083613971565b9150614b1882614ad7565b602082019050919050565b60006020820190508181036000830152614b3c81614b00565b9050919050565b7f455243313135353a2069647320616e6420616d6f756e7473206c656e6774682060008201527f6d69736d61746368000000000000000000000000000000000000000000000000602082015250565b6000614b9f602883613971565b9150614baa82614b43565b604082019050919050565b60006020820190508181036000830152614bce81614b92565b9050919050565b7f455243313135353a207472616e7366657220746f20746865207a65726f20616460008201527f6472657373000000000000000000000000000000000000000000000000000000602082015250565b6000614c31602583613971565b9150614c3c82614bd5565b604082019050919050565b60006020820190508181036000830152614c6081614c24565b9050919050565b7f455243313135353a20696e73756666696369656e742062616c616e636520666f60008201527f72207472616e7366657200000000000000000000000000000000000000000000602082015250565b6000614cc3602a83613971565b9150614cce82614c67565b604082019050919050565b60006020820190508181036000830152614cf281614cb6565b9050919050565b60006040820190508181036000830152614d138185613f9f565b90508181036020830152614d278184613f9f565b90509392505050565b7f455243313135353a2073657474696e6720617070726f76616c2073746174757360008201527f20666f722073656c660000000000000000000000000000000000000000000000602082015250565b6000614d8c602983613971565b9150614d9782614d30565b604082019050919050565b60006020820190508181036000830152614dbb81614d7f565b9050919050565b6000604082019050614dd76000830185613801565b614de46020830184613801565b9392505050565b600081905092915050565b7f416363657373436f6e74726f6c3a206163636f756e7420000000000000000000600082015250565b6000614e2c601783614deb565b9150614e3782614df6565b601782019050919050565b6000614e4d82613966565b614e578185614deb565b9350614e67818560208601613982565b80840191505092915050565b7f206973206d697373696e6720726f6c6520000000000000000000000000000000600082015250565b6000614ea9601183614deb565b9150614eb482614e73565b601182019050919050565b6000614eca82614e1f565b9150614ed68285614e42565b9150614ee182614e9c565b9150614eed8284614e42565b91508190509392505050565b7f496e73756666696369656e742062616c616e636520746f207472616e73666572600082015250565b6000614f2f602083613971565b9150614f3a82614ef9565b602082019050919050565b60006020820190508181036000830152614f5e81614f22565b9050919050565b600081519050919050565b600082825260208201905092915050565b6000614f8c82614f65565b614f968185614f70565b9350614fa6818560208601613982565b614faf816139ac565b840191505092915050565b600060a082019050614fcf60008301886149d9565b614fdc60208301876149d9565b8181036040830152614fee8186613f9f565b905081810360608301526150028185613f9f565b905081810360808301526150168184614f81565b90509695505050505050565b60008151905061503181613857565b92915050565b60006020828403121561504d5761504c613723565b5b600061505b84828501615022565b91505092915050565b60008160e01c9050919050565b600060033d11156150905760046000803e61508d600051615064565b90505b90565b600060443d10615120576150a5613719565b60043d036004823e80513d602482011167ffffffffffffffff821117156150cd575050615120565b808201805167ffffffffffffffff8111156150eb5750505050615120565b80602083010160043d038501811115615108575050505050615120565b61511782602001850186613b2c565b82955050505050505b90565b7f455243313135353a207472616e7366657220746f206e6f6e2d4552433131353560008201527f526563656976657220696d706c656d656e746572000000000000000000000000602082015250565b600061517f603483613971565b915061518a82615123565b604082019050919050565b600060208201905081810360008301526151ae81615172565b9050919050565b7f455243313135353a204552433131353552656365697665722072656a6563746560008201527f6420746f6b656e73000000000000000000000000000000000000000000000000602082015250565b6000615211602883613971565b915061521c826151b5565b604082019050919050565b6000602082019050818103600083015261524081615204565b9050919050565b600060a08201905061525c60008301886149d9565b61526960208301876149d9565b6152766040830186613801565b6152836060830185613801565b81810360808301526152958184614f81565b90509695505050505050565b60006152ac8261378b565b91506152b78361378b565b92508282026152c58161378b565b915082820484148315176152dc576152db6146a2565b5b5092915050565b7f537472696e67733a20686578206c656e67746820696e73756666696369656e74600082015250565b6000615319602083613971565b9150615324826152e3565b602082019050919050565b600060208201905081810360008301526153488161530c565b9050919050565b7f455243313135353a206275726e20616d6f756e74206578636565647320746f7460008201527f616c537570706c79000000000000000000000000000000000000000000000000602082015250565b60006153ab602883613971565b91506153b68261534f565b604082019050919050565b600060208201905081810360008301526153da8161539e565b905091905056fea2646970667358221220738a202dd8c7a0b5ea415a596c1beeb5558144dd8496358acfe3ffbabb292f1e64736f6c63430008130033",
  "immutableReferences": {},
  "source": "// SPDX-License-Identifier: MIT\r\npragma solidity ^0.8.7;\r\n\r\n/*import \"../node_modules/@openzeppelin/contracts-upgradeable/token/ERC1155/ERC1155Upgradeable.sol\";\r\nimport \"../node_modules/@openzeppelin/contracts-upgradeable/token/ERC1155/extensions/ERC1155SupplyUpgradeable.sol\";\r\nimport \"../node_modules/@openzeppelin/contracts-upgradeable/security/PausableUpgradeable.sol\";\r\nimport \"../node_modules/@openzeppelin/contracts-upgradeable/access/AccessControlUpgradeable.sol\";*/\r\nimport \"../node_modules/@openzeppelin/contracts/token/ERC1155/ERC1155.sol\";\r\nimport \"../node_modules/@openzeppelin/contracts/token/ERC1155/extensions/ERC1155Supply.sol\";\r\nimport \"../node_modules/@openzeppelin/contracts/security/Pausable.sol\";\r\nimport \"../node_modules/@openzeppelin/contracts/access/AccessControl.sol\";\r\n\r\ncontract Market is ERC1155, ERC1155Supply, Pausable, AccessControl {\r\n\r\n    mapping (uint256 => bytes32) idToPublisher; // Anyone can check which publisher an id belongs to.\r\n    mapping (string => bool) publisherHasMember;\r\n\r\n    struct Listing {\r\n        uint256 price; // \r\n        uint256 listedBalance; // \r\n        uint256 buyerCounts; // \r\n        address[] buyers; // \r\n    }\r\n    \r\n    mapping (uint256 => mapping (address => Listing)) listings; // id => seller => Listing\r\n\r\n    address market;\r\n\r\n    event EBookListed(uint256 indexed id, address indexed seller, uint256 indexed price, uint256 amount);\r\n    event PriceModified(uint256 indexed id, address priceModifier, uint256 indexed originalPrice, uint256 indexed currentPrice);\r\n    event ListingCancelled(uint256 indexed id, address indexed seller, address indexed canceller);\r\n    event BuyerDetermined(uint256 indexed id, address indexed seller, address indexed buyer);\r\n    event TransactionMade(address indexed seller, address indexed buyer, uint256 indexed id);\r\n\r\n    constructor() ERC1155(\"\") {\r\n        //_disableInitializers();\r\n    }\r\n\r\n    modifier isIdExisted(uint256 id) {\r\n        require(super.exists(id), \"Invalid ID\");\r\n        _;\r\n    }\r\n\r\n    modifier IsPriceOrAmountValid(uint256 priceOrAmount) {\r\n        require(priceOrAmount > 0, \"Invalid price/amount\");\r\n        _;\r\n    }\r\n\r\n    modifier isApproved(address seller) {\r\n        require(super.isApprovedForAll(msg.sender, seller), \"Unauthorized\");\r\n        _;\r\n    }\r\n\r\n    modifier isAddressValid(address addr) {\r\n        require(addr != address(0), \"Invalid address\");\r\n        _;\r\n    }\r\n\r\n    modifier IsEBookAvailableOnOrder(uint256 id, address seller) {  // /\r\n        require(listings[id][seller].listedBalance > 0, \"not listed or sold out\");\r\n        _;\r\n    }\r\n\r\n    modifier IsBuyerDetermined(uint256 id, address seller) {  //  determineBuyer\r\n        require(listings[id][seller].buyerCounts == 0, \"Buyer has determined\");\r\n        _;\r\n    }\r\n\r\n    /*function initialize() initializer internal {\r\n        __ERC1155_init(\"\");\r\n        __AccessControl_init();\r\n\r\n        _grantRole(DEFAULT_ADMIN_ROLE, msg.sender);\r\n    }*/\r\n\r\n    function _grantApprovalToContract(address seller) private {\r\n        super._setApprovalForAll(seller, address(this), true);\r\n    }\r\n\r\n    // Tim: ( purchaseEBook )\r\n    function _revokeApprovalFromContract(address seller) private {\r\n        super._setApprovalForAll(seller, address(this), false);\r\n    }\r\n\r\n    function checkIsBuyer(uint256 id, address seller, address buyer) public view returns (int256) {\r\n\r\n        uint256 length = listings[id][seller].buyers.length;\r\n        address[] memory buyers = listings[id][seller].buyers;\r\n        \r\n        for (uint256 i = 0 ; i < length ; ++i) {\r\n            if (buyers[i] == buyer) {\r\n                return int256(i);\r\n            }\r\n        }\r\n\r\n        return -1;\r\n    }\r\n\r\n    // Tim:  ID \r\n    function listedBalanceOf(address account, uint256 id) public view virtual returns(uint256) {\r\n        return listings[id][account].listedBalance;\r\n    }\r\n\r\n    // Tim: \r\n    function listEBook(uint256 id, address seller, uint256 price, uint256 amount) public virtual whenNotPaused isIdExisted(id) IsPriceOrAmountValid(price) IsPriceOrAmountValid(amount) isAddressValid(seller) isApproved(seller) {\r\n        require(balanceOf(seller, id) - listings[id][seller].listedBalance >= amount, \"Insefficient balance to list\"); //  -  >= \r\n\r\n        listings[id][seller].price = price;\r\n        listings[id][seller].listedBalance += amount;\r\n\r\n        emit EBookListed(id, seller, price, amount);\r\n    }\r\n\r\n    // Tim: \r\n    function modifyPrice(uint256 id, address seller, uint256 price) public virtual whenNotPaused isIdExisted(id) IsPriceOrAmountValid(price) isAddressValid(seller) isApproved(seller) IsEBookAvailableOnOrder(id, seller) IsBuyerDetermined(id, seller) {\r\n\r\n        uint256 originalPrice = listings[id][seller].price;\r\n        listings[id][seller].price = price;\r\n\r\n        emit PriceModified (id, msg.sender, originalPrice, price);\r\n    }\r\n\r\n    // Tim: \r\n    function cancelListing(uint256 id, address seller, uint256 amount) public virtual whenNotPaused isIdExisted(id) IsPriceOrAmountValid(amount) isAddressValid(seller) isApproved(seller) IsEBookAvailableOnOrder(id, seller) IsBuyerDetermined(id, seller) {\r\n        require(listings[id][seller].listedBalance >= amount, \"Exceeded amount to unlist\"); //  >= \r\n\r\n        unchecked {\r\n            listings[id][seller].listedBalance -= amount;\r\n        }\r\n\r\n        if (listings[id][seller].listedBalance == 0) {\r\n            delete listings[id][seller];\r\n        }\r\n\r\n        emit ListingCancelled(id, seller, msg.sender);\r\n    }\r\n\r\n    // Tim: \r\n    function determineBuyer(address seller, address buyer, uint256 id) public virtual whenNotPaused onlyRole(DEFAULT_ADMIN_ROLE) isIdExisted(id) isAddressValid(seller) isAddressValid(buyer) {\r\n        require(listings[id][seller].listedBalance > listings[id][seller].buyerCounts, \"Order all fulfilled\"); // \r\n\r\n        listings[id][seller].buyers.push(buyer);\r\n        listings[id][seller].buyerCounts ++;\r\n        \r\n        _grantApprovalToContract(seller);\r\n\r\n        emit BuyerDetermined(id, seller, buyer);\r\n    }\r\n\r\n    // Tim:  buyers \r\n    function purchaseEBook(uint256 id, address seller, uint256 index) public virtual whenNotPaused isIdExisted(id) isAddressValid(seller) IsEBookAvailableOnOrder(id, seller) {\r\n\r\n        address buyer = msg.sender;\r\n        //int256 index = checkIsBuyer(id, seller, buyer);\r\n        //require(index != -1, \"not buyer\");\r\n\r\n        uint256 price = listings[id][seller].price;\r\n        \r\n        //uint256 fee = price * 25 / 1000;\r\n\r\n        super.safeTransferFrom(seller, buyer, id, 0, \"\"); // transfer ebook to buyer\r\n\r\n        (bool success, ) = seller.call{ value: price }(\"\"); // transfer ether to seller\r\n        require(success, \"Buying failed\");\r\n\r\n        //(bool suucess, ) = multiSigWallet.call{ value: fee}(\"\");\r\n        //require(success, \"Buying failed\");\r\n\r\n        _revokeApprovalFromContract(seller);\r\n\r\n        listings[id][seller].listedBalance --;\r\n        listings[id][seller].buyerCounts --;\r\n        listings[id][seller].buyers[index] = address(0);\r\n\r\n        if (listings[id][seller].listedBalance == 0) {\r\n            delete listings[id][seller];\r\n        }\r\n\r\n        emit TransactionMade(seller, buyer, id);\r\n    }\r\n\r\n    // -----------------------\r\n\r\n    function supportsInterface(bytes4 interfaceId)\r\n        public\r\n        view\r\n        override(ERC1155, AccessControl)\r\n        returns (bool)\r\n    {\r\n        return super.supportsInterface(interfaceId);\r\n    }\r\n\r\n    function _beforeTokenTransfer(address operator, address from, address to, uint256[] memory ids, uint256[] memory amounts, bytes memory data)\r\n        internal\r\n        whenNotPaused\r\n        override(ERC1155, ERC1155Supply)\r\n    {\r\n        for (uint256 i = 0 ; i < ids.length ; ++i) { // \r\n            require(balanceOf(from, ids[i]) - listedBalanceOf(from, ids[i]) >= amounts[i], \"Insufficient balance to transfer\");\r\n        }\r\n\r\n        super._beforeTokenTransfer(operator, from, to, ids, amounts, data);\r\n    }\r\n}",
  "sourcePath": "C:\\Users\\TimOu_0911\\Desktop\\The_Ohara_Protocol\\contracts\\Market.sol",
  "compiler": {
    "name": "solc",
    "version": "0.8.19+commit.7dd6d404.Emscripten.clang"
  },
  "schemaVersion": "3.4.13",
  "updatedAt": "2023-06-25T11:58:45.738Z",
  "networkType": "ethereum",
  "devdoc": {
    "events": {
      "ApprovalForAll(address,address,bool)": {
        "details": "Emitted when `account` grants or revokes permission to `operator` to transfer their tokens, according to `approved`."
      },
      "Paused(address)": {
        "details": "Emitted when the pause is triggered by `account`."
      },
      "RoleAdminChanged(bytes32,bytes32,bytes32)": {
        "details": "Emitted when `newAdminRole` is set as ``role``'s admin role, replacing `previousAdminRole` `DEFAULT_ADMIN_ROLE` is the starting admin for all roles, despite {RoleAdminChanged} not being emitted signaling this. _Available since v3.1._"
      },
      "RoleGranted(bytes32,address,address)": {
        "details": "Emitted when `account` is granted `role`. `sender` is the account that originated the contract call, an admin role bearer except when using {AccessControl-_setupRole}."
      },
      "RoleRevoked(bytes32,address,address)": {
        "details": "Emitted when `account` is revoked `role`. `sender` is the account that originated the contract call:   - if using `revokeRole`, it is the admin role bearer   - if using `renounceRole`, it is the role bearer (i.e. `account`)"
      },
      "TransferBatch(address,address,address,uint256[],uint256[])": {
        "details": "Equivalent to multiple {TransferSingle} events, where `operator`, `from` and `to` are the same for all transfers."
      },
      "TransferSingle(address,address,address,uint256,uint256)": {
        "details": "Emitted when `value` tokens of token type `id` are transferred from `from` to `to` by `operator`."
      },
      "URI(string,uint256)": {
        "details": "Emitted when the URI for token type `id` changes to `value`, if it is a non-programmatic URI. If an {URI} event was emitted for `id`, the standard https://eips.ethereum.org/EIPS/eip-1155#metadata-extensions[guarantees] that `value` will equal the value returned by {IERC1155MetadataURI-uri}."
      },
      "Unpaused(address)": {
        "details": "Emitted when the pause is lifted by `account`."
      }
    },
    "kind": "dev",
    "methods": {
      "balanceOf(address,uint256)": {
        "details": "See {IERC1155-balanceOf}. Requirements: - `account` cannot be the zero address."
      },
      "balanceOfBatch(address[],uint256[])": {
        "details": "See {IERC1155-balanceOfBatch}. Requirements: - `accounts` and `ids` must have the same length."
      },
      "exists(uint256)": {
        "details": "Indicates whether any token exist with a given id, or not."
      },
      "getRoleAdmin(bytes32)": {
        "details": "Returns the admin role that controls `role`. See {grantRole} and {revokeRole}. To change a role's admin, use {_setRoleAdmin}."
      },
      "grantRole(bytes32,address)": {
        "details": "Grants `role` to `account`. If `account` had not been already granted `role`, emits a {RoleGranted} event. Requirements: - the caller must have ``role``'s admin role. May emit a {RoleGranted} event."
      },
      "hasRole(bytes32,address)": {
        "details": "Returns `true` if `account` has been granted `role`."
      },
      "isApprovedForAll(address,address)": {
        "details": "See {IERC1155-isApprovedForAll}."
      },
      "paused()": {
        "details": "Returns true if the contract is paused, and false otherwise."
      },
      "renounceRole(bytes32,address)": {
        "details": "Revokes `role` from the calling account. Roles are often managed via {grantRole} and {revokeRole}: this function's purpose is to provide a mechanism for accounts to lose their privileges if they are compromised (such as when a trusted device is misplaced). If the calling account had been revoked `role`, emits a {RoleRevoked} event. Requirements: - the caller must be `account`. May emit a {RoleRevoked} event."
      },
      "revokeRole(bytes32,address)": {
        "details": "Revokes `role` from `account`. If `account` had been granted `role`, emits a {RoleRevoked} event. Requirements: - the caller must have ``role``'s admin role. May emit a {RoleRevoked} event."
      },
      "safeBatchTransferFrom(address,address,uint256[],uint256[],bytes)": {
        "details": "See {IERC1155-safeBatchTransferFrom}."
      },
      "safeTransferFrom(address,address,uint256,uint256,bytes)": {
        "details": "See {IERC1155-safeTransferFrom}."
      },
      "setApprovalForAll(address,bool)": {
        "details": "See {IERC1155-setApprovalForAll}."
      },
      "totalSupply(uint256)": {
        "details": "Total amount of tokens in with a given id."
      },
      "uri(uint256)": {
        "details": "See {IERC1155MetadataURI-uri}. This implementation returns the same URI for *all* token types. It relies on the token type ID substitution mechanism https://eips.ethereum.org/EIPS/eip-1155#metadata[defined in the EIP]. Clients calling this function must replace the `\\{id\\}` substring with the actual token type ID."
      }
    },
    "version": 1
  },
  "userdoc": {
    "kind": "user",
    "methods": {},
    "version": 1
  }
}