{
  "contractName": "Market",
  "abi": [
    {
      "inputs": [],
      "stateMutability": "nonpayable",
      "type": "constructor"
    },
    {
      "anonymous": false,
      "inputs": [
        {
          "indexed": true,
          "internalType": "address",
          "name": "account",
          "type": "address"
        },
        {
          "indexed": true,
          "internalType": "address",
          "name": "operator",
          "type": "address"
        },
        {
          "indexed": false,
          "internalType": "bool",
          "name": "approved",
          "type": "bool"
        }
      ],
      "name": "ApprovalForAll",
      "type": "event"
    },
    {
      "anonymous": false,
      "inputs": [
        {
          "indexed": true,
          "internalType": "uint256",
          "name": "id",
          "type": "uint256"
        },
        {
          "indexed": true,
          "internalType": "address",
          "name": "seller",
          "type": "address"
        },
        {
          "indexed": true,
          "internalType": "address",
          "name": "buyer",
          "type": "address"
        }
      ],
      "name": "BuyerDetermined",
      "type": "event"
    },
    {
      "anonymous": false,
      "inputs": [
        {
          "indexed": true,
          "internalType": "uint256",
          "name": "id",
          "type": "uint256"
        },
        {
          "indexed": true,
          "internalType": "uint256",
          "name": "amount",
          "type": "uint256"
        },
        {
          "indexed": true,
          "internalType": "uint256",
          "name": "price",
          "type": "uint256"
        },
        {
          "indexed": false,
          "internalType": "address",
          "name": "seller",
          "type": "address"
        }
      ],
      "name": "EBookListed",
      "type": "event"
    },
    {
      "anonymous": false,
      "inputs": [
        {
          "indexed": true,
          "internalType": "uint256",
          "name": "id",
          "type": "uint256"
        },
        {
          "indexed": true,
          "internalType": "address",
          "name": "seller",
          "type": "address"
        },
        {
          "indexed": true,
          "internalType": "uint256",
          "name": "removeAmount",
          "type": "uint256"
        },
        {
          "indexed": false,
          "internalType": "address",
          "name": "canceller",
          "type": "address"
        }
      ],
      "name": "ListingCancelled",
      "type": "event"
    },
    {
      "anonymous": false,
      "inputs": [
        {
          "indexed": false,
          "internalType": "address",
          "name": "account",
          "type": "address"
        }
      ],
      "name": "Paused",
      "type": "event"
    },
    {
      "anonymous": false,
      "inputs": [
        {
          "indexed": true,
          "internalType": "uint256",
          "name": "id",
          "type": "uint256"
        },
        {
          "indexed": true,
          "internalType": "uint256",
          "name": "originalPrice",
          "type": "uint256"
        },
        {
          "indexed": true,
          "internalType": "uint256",
          "name": "currentPrice",
          "type": "uint256"
        },
        {
          "indexed": false,
          "internalType": "address",
          "name": "seller",
          "type": "address"
        },
        {
          "indexed": false,
          "internalType": "address",
          "name": "priceModifier",
          "type": "address"
        }
      ],
      "name": "PriceModified",
      "type": "event"
    },
    {
      "anonymous": false,
      "inputs": [
        {
          "indexed": true,
          "internalType": "bytes32",
          "name": "role",
          "type": "bytes32"
        },
        {
          "indexed": true,
          "internalType": "bytes32",
          "name": "previousAdminRole",
          "type": "bytes32"
        },
        {
          "indexed": true,
          "internalType": "bytes32",
          "name": "newAdminRole",
          "type": "bytes32"
        }
      ],
      "name": "RoleAdminChanged",
      "type": "event"
    },
    {
      "anonymous": false,
      "inputs": [
        {
          "indexed": true,
          "internalType": "bytes32",
          "name": "role",
          "type": "bytes32"
        },
        {
          "indexed": true,
          "internalType": "address",
          "name": "account",
          "type": "address"
        },
        {
          "indexed": true,
          "internalType": "address",
          "name": "sender",
          "type": "address"
        }
      ],
      "name": "RoleGranted",
      "type": "event"
    },
    {
      "anonymous": false,
      "inputs": [
        {
          "indexed": true,
          "internalType": "bytes32",
          "name": "role",
          "type": "bytes32"
        },
        {
          "indexed": true,
          "internalType": "address",
          "name": "account",
          "type": "address"
        },
        {
          "indexed": true,
          "internalType": "address",
          "name": "sender",
          "type": "address"
        }
      ],
      "name": "RoleRevoked",
      "type": "event"
    },
    {
      "anonymous": false,
      "inputs": [
        {
          "indexed": true,
          "internalType": "uint256",
          "name": "id",
          "type": "uint256"
        },
        {
          "indexed": true,
          "internalType": "address",
          "name": "seller",
          "type": "address"
        },
        {
          "indexed": true,
          "internalType": "address",
          "name": "buyer",
          "type": "address"
        }
      ],
      "name": "TransactionMade",
      "type": "event"
    },
    {
      "anonymous": false,
      "inputs": [
        {
          "indexed": true,
          "internalType": "address",
          "name": "operator",
          "type": "address"
        },
        {
          "indexed": true,
          "internalType": "address",
          "name": "from",
          "type": "address"
        },
        {
          "indexed": true,
          "internalType": "address",
          "name": "to",
          "type": "address"
        },
        {
          "indexed": false,
          "internalType": "uint256[]",
          "name": "ids",
          "type": "uint256[]"
        },
        {
          "indexed": false,
          "internalType": "uint256[]",
          "name": "values",
          "type": "uint256[]"
        }
      ],
      "name": "TransferBatch",
      "type": "event"
    },
    {
      "anonymous": false,
      "inputs": [
        {
          "indexed": true,
          "internalType": "address",
          "name": "operator",
          "type": "address"
        },
        {
          "indexed": true,
          "internalType": "address",
          "name": "from",
          "type": "address"
        },
        {
          "indexed": true,
          "internalType": "address",
          "name": "to",
          "type": "address"
        },
        {
          "indexed": false,
          "internalType": "uint256",
          "name": "id",
          "type": "uint256"
        },
        {
          "indexed": false,
          "internalType": "uint256",
          "name": "value",
          "type": "uint256"
        }
      ],
      "name": "TransferSingle",
      "type": "event"
    },
    {
      "anonymous": false,
      "inputs": [
        {
          "indexed": false,
          "internalType": "string",
          "name": "value",
          "type": "string"
        },
        {
          "indexed": true,
          "internalType": "uint256",
          "name": "id",
          "type": "uint256"
        }
      ],
      "name": "URI",
      "type": "event"
    },
    {
      "anonymous": false,
      "inputs": [
        {
          "indexed": false,
          "internalType": "address",
          "name": "account",
          "type": "address"
        }
      ],
      "name": "Unpaused",
      "type": "event"
    },
    {
      "inputs": [],
      "name": "DEFAULT_ADMIN_ROLE",
      "outputs": [
        {
          "internalType": "bytes32",
          "name": "",
          "type": "bytes32"
        }
      ],
      "stateMutability": "view",
      "type": "function"
    },
    {
      "inputs": [
        {
          "internalType": "address",
          "name": "account",
          "type": "address"
        },
        {
          "internalType": "uint256",
          "name": "id",
          "type": "uint256"
        }
      ],
      "name": "balanceOf",
      "outputs": [
        {
          "internalType": "uint256",
          "name": "",
          "type": "uint256"
        }
      ],
      "stateMutability": "view",
      "type": "function"
    },
    {
      "inputs": [
        {
          "internalType": "address[]",
          "name": "accounts",
          "type": "address[]"
        },
        {
          "internalType": "uint256[]",
          "name": "ids",
          "type": "uint256[]"
        }
      ],
      "name": "balanceOfBatch",
      "outputs": [
        {
          "internalType": "uint256[]",
          "name": "",
          "type": "uint256[]"
        }
      ],
      "stateMutability": "view",
      "type": "function"
    },
    {
      "inputs": [
        {
          "internalType": "uint256",
          "name": "id",
          "type": "uint256"
        }
      ],
      "name": "exists",
      "outputs": [
        {
          "internalType": "bool",
          "name": "",
          "type": "bool"
        }
      ],
      "stateMutability": "view",
      "type": "function"
    },
    {
      "inputs": [
        {
          "internalType": "bytes32",
          "name": "role",
          "type": "bytes32"
        }
      ],
      "name": "getRoleAdmin",
      "outputs": [
        {
          "internalType": "bytes32",
          "name": "",
          "type": "bytes32"
        }
      ],
      "stateMutability": "view",
      "type": "function"
    },
    {
      "inputs": [
        {
          "internalType": "bytes32",
          "name": "role",
          "type": "bytes32"
        },
        {
          "internalType": "address",
          "name": "account",
          "type": "address"
        }
      ],
      "name": "grantRole",
      "outputs": [],
      "stateMutability": "nonpayable",
      "type": "function"
    },
    {
      "inputs": [
        {
          "internalType": "bytes32",
          "name": "role",
          "type": "bytes32"
        },
        {
          "internalType": "address",
          "name": "account",
          "type": "address"
        }
      ],
      "name": "hasRole",
      "outputs": [
        {
          "internalType": "bool",
          "name": "",
          "type": "bool"
        }
      ],
      "stateMutability": "view",
      "type": "function"
    },
    {
      "inputs": [
        {
          "internalType": "address",
          "name": "account",
          "type": "address"
        },
        {
          "internalType": "address",
          "name": "operator",
          "type": "address"
        }
      ],
      "name": "isApprovedForAll",
      "outputs": [
        {
          "internalType": "bool",
          "name": "",
          "type": "bool"
        }
      ],
      "stateMutability": "view",
      "type": "function"
    },
    {
      "inputs": [],
      "name": "paused",
      "outputs": [
        {
          "internalType": "bool",
          "name": "",
          "type": "bool"
        }
      ],
      "stateMutability": "view",
      "type": "function"
    },
    {
      "inputs": [
        {
          "internalType": "bytes32",
          "name": "role",
          "type": "bytes32"
        },
        {
          "internalType": "address",
          "name": "account",
          "type": "address"
        }
      ],
      "name": "renounceRole",
      "outputs": [],
      "stateMutability": "nonpayable",
      "type": "function"
    },
    {
      "inputs": [
        {
          "internalType": "bytes32",
          "name": "role",
          "type": "bytes32"
        },
        {
          "internalType": "address",
          "name": "account",
          "type": "address"
        }
      ],
      "name": "revokeRole",
      "outputs": [],
      "stateMutability": "nonpayable",
      "type": "function"
    },
    {
      "inputs": [
        {
          "internalType": "address",
          "name": "from",
          "type": "address"
        },
        {
          "internalType": "address",
          "name": "to",
          "type": "address"
        },
        {
          "internalType": "uint256[]",
          "name": "ids",
          "type": "uint256[]"
        },
        {
          "internalType": "uint256[]",
          "name": "amounts",
          "type": "uint256[]"
        },
        {
          "internalType": "bytes",
          "name": "data",
          "type": "bytes"
        }
      ],
      "name": "safeBatchTransferFrom",
      "outputs": [],
      "stateMutability": "nonpayable",
      "type": "function"
    },
    {
      "inputs": [
        {
          "internalType": "address",
          "name": "from",
          "type": "address"
        },
        {
          "internalType": "address",
          "name": "to",
          "type": "address"
        },
        {
          "internalType": "uint256",
          "name": "id",
          "type": "uint256"
        },
        {
          "internalType": "uint256",
          "name": "amount",
          "type": "uint256"
        },
        {
          "internalType": "bytes",
          "name": "data",
          "type": "bytes"
        }
      ],
      "name": "safeTransferFrom",
      "outputs": [],
      "stateMutability": "nonpayable",
      "type": "function"
    },
    {
      "inputs": [
        {
          "internalType": "address",
          "name": "operator",
          "type": "address"
        },
        {
          "internalType": "bool",
          "name": "approved",
          "type": "bool"
        }
      ],
      "name": "setApprovalForAll",
      "outputs": [],
      "stateMutability": "nonpayable",
      "type": "function"
    },
    {
      "inputs": [
        {
          "internalType": "uint256",
          "name": "id",
          "type": "uint256"
        }
      ],
      "name": "totalSupply",
      "outputs": [
        {
          "internalType": "uint256",
          "name": "",
          "type": "uint256"
        }
      ],
      "stateMutability": "view",
      "type": "function"
    },
    {
      "inputs": [
        {
          "internalType": "uint256",
          "name": "",
          "type": "uint256"
        }
      ],
      "name": "uri",
      "outputs": [
        {
          "internalType": "string",
          "name": "",
          "type": "string"
        }
      ],
      "stateMutability": "view",
      "type": "function"
    },
    {
      "inputs": [
        {
          "internalType": "uint256",
          "name": "id",
          "type": "uint256"
        },
        {
          "internalType": "address",
          "name": "seller",
          "type": "address"
        },
        {
          "internalType": "address",
          "name": "buyer",
          "type": "address"
        }
      ],
      "name": "checkIsBuyer",
      "outputs": [
        {
          "internalType": "int256",
          "name": "",
          "type": "int256"
        }
      ],
      "stateMutability": "view",
      "type": "function"
    },
    {
      "inputs": [
        {
          "internalType": "address",
          "name": "account",
          "type": "address"
        },
        {
          "internalType": "uint256",
          "name": "id",
          "type": "uint256"
        }
      ],
      "name": "listedBalanceOf",
      "outputs": [
        {
          "internalType": "uint256",
          "name": "",
          "type": "uint256"
        }
      ],
      "stateMutability": "view",
      "type": "function"
    },
    {
      "inputs": [
        {
          "internalType": "uint256",
          "name": "id",
          "type": "uint256"
        },
        {
          "internalType": "address",
          "name": "seller",
          "type": "address"
        },
        {
          "internalType": "uint256",
          "name": "price",
          "type": "uint256"
        },
        {
          "internalType": "uint256",
          "name": "amount",
          "type": "uint256"
        }
      ],
      "name": "listEBook",
      "outputs": [],
      "stateMutability": "nonpayable",
      "type": "function"
    },
    {
      "inputs": [
        {
          "internalType": "uint256",
          "name": "id",
          "type": "uint256"
        },
        {
          "internalType": "address",
          "name": "seller",
          "type": "address"
        },
        {
          "internalType": "uint256",
          "name": "price",
          "type": "uint256"
        }
      ],
      "name": "modifyPrice",
      "outputs": [],
      "stateMutability": "nonpayable",
      "type": "function"
    },
    {
      "inputs": [
        {
          "internalType": "uint256",
          "name": "id",
          "type": "uint256"
        },
        {
          "internalType": "address",
          "name": "seller",
          "type": "address"
        },
        {
          "internalType": "uint256",
          "name": "amount",
          "type": "uint256"
        }
      ],
      "name": "cancelListing",
      "outputs": [],
      "stateMutability": "nonpayable",
      "type": "function"
    },
    {
      "inputs": [
        {
          "internalType": "address",
          "name": "seller",
          "type": "address"
        },
        {
          "internalType": "address",
          "name": "buyer",
          "type": "address"
        },
        {
          "internalType": "uint256",
          "name": "id",
          "type": "uint256"
        }
      ],
      "name": "determineBuyer",
      "outputs": [],
      "stateMutability": "nonpayable",
      "type": "function"
    },
    {
      "inputs": [
        {
          "internalType": "uint256",
          "name": "id",
          "type": "uint256"
        },
        {
          "internalType": "address",
          "name": "seller",
          "type": "address"
        },
        {
          "internalType": "int256",
          "name": "index",
          "type": "int256"
        }
      ],
      "name": "purchaseEBook",
      "outputs": [],
      "stateMutability": "payable",
      "type": "function"
    },
    {
      "inputs": [
        {
          "internalType": "bytes4",
          "name": "interfaceId",
          "type": "bytes4"
        }
      ],
      "name": "supportsInterface",
      "outputs": [
        {
          "internalType": "bool",
          "name": "",
          "type": "bool"
        }
      ],
      "stateMutability": "view",
      "type": "function"
    }
  ],
  "bytecode": "0x60806040523480156200001157600080fd5b506040518060200160405280600081525062000033816200005560201b60201c565b506000600460006101000a81548160ff021916908315150217905550620003cb565b8060029081620000669190620002e4565b5050565b600081519050919050565b7f4e487b7100000000000000000000000000000000000000000000000000000000600052604160045260246000fd5b7f4e487b7100000000000000000000000000000000000000000000000000000000600052602260045260246000fd5b60006002820490506001821680620000ec57607f821691505b602082108103620001025762000101620000a4565b5b50919050565b60008190508160005260206000209050919050565b60006020601f8301049050919050565b600082821b905092915050565b6000600883026200016c7fffffffffffffffffffffffffffffffffffffffffffffffffffffffffffffffff826200012d565b6200017886836200012d565b95508019841693508086168417925050509392505050565b6000819050919050565b6000819050919050565b6000620001c5620001bf620001b98462000190565b6200019a565b62000190565b9050919050565b6000819050919050565b620001e183620001a4565b620001f9620001f082620001cc565b8484546200013a565b825550505050565b600090565b6200021062000201565b6200021d818484620001d6565b505050565b5b8181101562000245576200023960008262000206565b60018101905062000223565b5050565b601f82111562000294576200025e8162000108565b62000269846200011d565b8101602085101562000279578190505b6200029162000288856200011d565b83018262000222565b50505b505050565b600082821c905092915050565b6000620002b96000198460080262000299565b1980831691505092915050565b6000620002d48383620002a6565b9150826002028217905092915050565b620002ef826200006a565b67ffffffffffffffff8111156200030b576200030a62000075565b5b620003178254620000d3565b6200032482828562000249565b600060209050601f8311600181146200035c576000841562000347578287015190505b620003538582620002c6565b865550620003c3565b601f1984166200036c8662000108565b60005b8281101562000396578489015182556001820191506020850194506020810190506200036f565b86831015620003b65784890151620003b2601f891682620002a6565b8355505b6001600288020188555050505b505050505050565b6156a780620003db6000396000f3fe60806040526004361061014a5760003560e01c80635ebb6365116100b6578063a9171a721161006f578063a9171a72146104c8578063bd85b039146104f1578063d547741f1461052e578063e3579fc514610557578063e985e9c514610594578063f242432a146105d15761014a565b80635ebb6365146103b55780638437ed86146103f25780638ad094b51461040e57806391d1485414610437578063a217fddf14610474578063a22cb4651461049f5761014a565b80632eb2c2d6116101085780632eb2c2d6146102955780632f2ff15d146102be57806336568abe146102e75780634e1273f4146103105780634f558e791461034d5780635c975abb1461038a5761014a565b8062fdd58e1461014f57806301ffc9a71461018c5780630c834143146101c95780630e89341c146101f25780630ef5e2671461022f578063248a9ca314610258575b600080fd5b34801561015b57600080fd5b5061017660048036038101906101719190613949565b6105fa565b6040516101839190613998565b60405180910390f35b34801561019857600080fd5b506101b360048036038101906101ae9190613a0b565b6106c2565b6040516101c09190613a53565b60405180910390f35b3480156101d557600080fd5b506101f060048036038101906101eb9190613a6e565b6106d4565b005b3480156101fe57600080fd5b5061021960048036038101906102149190613ac1565b610b42565b6040516102269190613b7e565b60405180910390f35b34801561023b57600080fd5b5061025660048036038101906102519190613ba0565b610bd6565b005b34801561026457600080fd5b5061027f600480360381019061027a9190613c29565b610fe2565b60405161028c9190613c65565b60405180910390f35b3480156102a157600080fd5b506102bc60048036038101906102b79190613e7d565b611002565b005b3480156102ca57600080fd5b506102e560048036038101906102e09190613f4c565b6110a3565b005b3480156102f357600080fd5b5061030e60048036038101906103099190613f4c565b6110c4565b005b34801561031c57600080fd5b506103376004803603810190610332919061404f565b611147565b6040516103449190614185565b60405180910390f35b34801561035957600080fd5b50610374600480360381019061036f9190613ac1565b611260565b6040516103819190613a53565b60405180910390f35b34801561039657600080fd5b5061039f611274565b6040516103ac9190613a53565b60405180910390f35b3480156103c157600080fd5b506103dc60048036038101906103d79190613949565b61128b565b6040516103e99190613998565b60405180910390f35b61040c600480360381019061040791906141dd565b6112e9565b005b34801561041a57600080fd5b5061043560048036038101906104309190613a6e565b61190d565b005b34801561044357600080fd5b5061045e60048036038101906104599190613f4c565b611c82565b60405161046b9190613a53565b60405180910390f35b34801561048057600080fd5b50610489611ced565b6040516104969190613c65565b60405180910390f35b3480156104ab57600080fd5b506104c660048036038101906104c1919061425c565b611cf4565b005b3480156104d457600080fd5b506104ef60048036038101906104ea919061429c565b611d0a565b005b3480156104fd57600080fd5b5061051860048036038101906105139190613ac1565b6120aa565b6040516105259190613998565b60405180910390f35b34801561053a57600080fd5b5061055560048036038101906105509190613f4c565b6120c7565b005b34801561056357600080fd5b5061057e60048036038101906105799190614303565b6120e8565b60405161058b9190614365565b60405180910390f35b3480156105a057600080fd5b506105bb60048036038101906105b69190614380565b6122c2565b6040516105c89190613a53565b60405180910390f35b3480156105dd57600080fd5b506105f860048036038101906105f391906143c0565b612356565b005b60008073ffffffffffffffffffffffffffffffffffffffff168373ffffffffffffffffffffffffffffffffffffffff160361066a576040517f08c379a0000000000000000000000000000000000000000000000000000000008152600401610661906144c9565b60405180910390fd5b60008083815260200190815260200160002060008473ffffffffffffffffffffffffffffffffffffffff1673ffffffffffffffffffffffffffffffffffffffff16815260200190815260200160002054905092915050565b60006106cd826123f7565b9050919050565b6106dc612471565b826106e681611260565b610725576040517f08c379a000000000000000000000000000000000000000000000000000000000815260040161071c90614535565b60405180910390fd5b8160008111610769576040517f08c379a0000000000000000000000000000000000000000000000000000000008152600401610760906145a1565b60405180910390fd5b83600073ffffffffffffffffffffffffffffffffffffffff168173ffffffffffffffffffffffffffffffffffffffff16036107d9576040517f08c379a00000000000000000000000000000000000000000000000000000000081526004016107d09061460d565b60405180910390fd5b846107e433826122c2565b610823576040517f08c379a000000000000000000000000000000000000000000000000000000000815260040161081a90614679565b60405180910390fd5b868660006008600084815260200190815260200160002060008373ffffffffffffffffffffffffffffffffffffffff1673ffffffffffffffffffffffffffffffffffffffff16815260200190815260200160002060010154116108bb576040517f08c379a00000000000000000000000000000000000000000000000000000000081526004016108b2906146e5565b60405180910390fd5b86600860008b815260200190815260200160002060008a73ffffffffffffffffffffffffffffffffffffffff1673ffffffffffffffffffffffffffffffffffffffff16815260200190815260200160002060020154600860008c815260200190815260200160002060008b73ffffffffffffffffffffffffffffffffffffffff1673ffffffffffffffffffffffffffffffffffffffff1681526020019081526020016000206001015461096e9190614734565b10156109af576040517f08c379a00000000000000000000000000000000000000000000000000000000081526004016109a6906147b4565b60405180910390fd5b86600860008b815260200190815260200160002060008a73ffffffffffffffffffffffffffffffffffffffff1673ffffffffffffffffffffffffffffffffffffffff168152602001908152602001600020600101600082825403925050819055506000600860008b815260200190815260200160002060008a73ffffffffffffffffffffffffffffffffffffffff1673ffffffffffffffffffffffffffffffffffffffff1681526020019081526020016000206001015403610ae757600860008a815260200190815260200160002060008973ffffffffffffffffffffffffffffffffffffffff1673ffffffffffffffffffffffffffffffffffffffff16815260200190815260200160002060008082016000905560018201600090556002820160009055600382016000610ae49190613863565b50505b868873ffffffffffffffffffffffffffffffffffffffff168a7f69e5af4ae7d64e2ae64974f8f3d1149f91bd39f3b1dc649f7add227a19093a0733604051610b2f91906147e3565b60405180910390a4505050505050505050565b606060028054610b519061482d565b80601f0160208091040260200160405190810160405280929190818152602001828054610b7d9061482d565b8015610bca5780601f10610b9f57610100808354040283529160200191610bca565b820191906000526020600020905b815481529060010190602001808311610bad57829003601f168201915b50505050509050919050565b610bde612471565b6000801b610beb816124bb565b81610bf581611260565b610c34576040517f08c379a0000000000000000000000000000000000000000000000000000000008152600401610c2b90614535565b60405180910390fd5b84600073ffffffffffffffffffffffffffffffffffffffff168173ffffffffffffffffffffffffffffffffffffffff1603610ca4576040517f08c379a0000000000000000000000000000000000000000000000000000000008152600401610c9b9061460d565b60405180910390fd5b84600073ffffffffffffffffffffffffffffffffffffffff168173ffffffffffffffffffffffffffffffffffffffff1603610d14576040517f08c379a0000000000000000000000000000000000000000000000000000000008152600401610d0b9061460d565b60405180910390fd5b6008600086815260200190815260200160002060008873ffffffffffffffffffffffffffffffffffffffff1673ffffffffffffffffffffffffffffffffffffffff168152602001908152602001600020600201546008600087815260200190815260200160002060008973ffffffffffffffffffffffffffffffffffffffff1673ffffffffffffffffffffffffffffffffffffffff1681526020019081526020016000206001015411610dfc576040517f08c379a0000000000000000000000000000000000000000000000000000000008152600401610df3906148aa565b60405180910390fd5b6008600086815260200190815260200160002060008873ffffffffffffffffffffffffffffffffffffffff1673ffffffffffffffffffffffffffffffffffffffff168152602001908152602001600020600301869080600181540180825580915050600190039060005260206000200160009091909190916101000a81548173ffffffffffffffffffffffffffffffffffffffff021916908373ffffffffffffffffffffffffffffffffffffffff16021790555060006008600087815260200190815260200160002060008973ffffffffffffffffffffffffffffffffffffffff1673ffffffffffffffffffffffffffffffffffffffff1681526020019081526020016000206002015403610f1557610f14876124cf565b5b6008600086815260200190815260200160002060008873ffffffffffffffffffffffffffffffffffffffff1673ffffffffffffffffffffffffffffffffffffffff1681526020019081526020016000206002016000815480929190610f79906148ca565b91905055508573ffffffffffffffffffffffffffffffffffffffff168773ffffffffffffffffffffffffffffffffffffffff16867f293e36bbce608551a8ef03dba20114986371a7df520fde646a2a4a8136c8fc0e60405160405180910390a450505050505050565b600060056000838152602001908152602001600020600101549050919050565b61100a6124de565b73ffffffffffffffffffffffffffffffffffffffff168573ffffffffffffffffffffffffffffffffffffffff161480611050575061104f8561104a6124de565b6122c2565b5b61108f576040517f08c379a000000000000000000000000000000000000000000000000000000000815260040161108690614984565b60405180910390fd5b61109c85858585856124e6565b5050505050565b6110ac82610fe2565b6110b5816124bb565b6110bf8383612807565b505050565b6110cc6124de565b73ffffffffffffffffffffffffffffffffffffffff168173ffffffffffffffffffffffffffffffffffffffff1614611139576040517f08c379a000000000000000000000000000000000000000000000000000000000815260040161113090614a16565b60405180910390fd5b61114382826128e8565b5050565b6060815183511461118d576040517f08c379a000000000000000000000000000000000000000000000000000000000815260040161118490614aa8565b60405180910390fd5b6000835167ffffffffffffffff8111156111aa576111a9613c85565b5b6040519080825280602002602001820160405280156111d85781602001602082028036833780820191505090505b50905060005b8451811015611255576112258582815181106111fd576111fc614ac8565b5b602002602001015185838151811061121857611217614ac8565b5b60200260200101516105fa565b82828151811061123857611237614ac8565b5b6020026020010181815250508061124e906148ca565b90506111de565b508091505092915050565b60008061126c836120aa565b119050919050565b6000600460009054906101000a900460ff16905090565b60006008600083815260200190815260200160002060008473ffffffffffffffffffffffffffffffffffffffff1673ffffffffffffffffffffffffffffffffffffffff16815260200190815260200160002060010154905092915050565b6112f1612471565b826112fb81611260565b61133a576040517f08c379a000000000000000000000000000000000000000000000000000000000815260040161133190614535565b60405180910390fd5b82600073ffffffffffffffffffffffffffffffffffffffff168173ffffffffffffffffffffffffffffffffffffffff16036113aa576040517f08c379a00000000000000000000000000000000000000000000000000000000081526004016113a19061460d565b60405180910390fd5b848460006008600084815260200190815260200160002060008373ffffffffffffffffffffffffffffffffffffffff1673ffffffffffffffffffffffffffffffffffffffff1681526020019081526020016000206001015411611442576040517f08c379a0000000000000000000000000000000000000000000000000000000008152600401611439906146e5565b60405180910390fd5b60003390507fffffffffffffffffffffffffffffffffffffffffffffffffffffffffffffffff86036114a9576040517f08c379a00000000000000000000000000000000000000000000000000000000081526004016114a090614b43565b60405180910390fd5b6000600860008a815260200190815260200160002060008973ffffffffffffffffffffffffffffffffffffffff1673ffffffffffffffffffffffffffffffffffffffff16815260200190815260200160002060000154905060006103e86019836115139190614b63565b61151d9190614bd4565b905061153c89848c6000604051806020016040528060008152506129ca565b60008973ffffffffffffffffffffffffffffffffffffffff168360405161156290614c36565b60006040518083038185875af1925050503d806000811461159f576040519150601f19603f3d011682016040523d82523d6000602084013e6115a4565b606091505b50509050806115e8576040517f08c379a00000000000000000000000000000000000000000000000000000000081526004016115df90614c97565b60405180910390fd5b600860008c815260200190815260200160002060008b73ffffffffffffffffffffffffffffffffffffffff1673ffffffffffffffffffffffffffffffffffffffff168152602001908152602001600020600101600081548092919061164c90614cb7565b9190505550600860008c815260200190815260200160002060008b73ffffffffffffffffffffffffffffffffffffffff1673ffffffffffffffffffffffffffffffffffffffff16815260200190815260200160002060020160008154809291906116b590614cb7565b91905055506000600860008d815260200190815260200160002060008c73ffffffffffffffffffffffffffffffffffffffff1673ffffffffffffffffffffffffffffffffffffffff1681526020019081526020016000206003018a8154811061172157611720614ac8565b5b9060005260206000200160006101000a81548173ffffffffffffffffffffffffffffffffffffffff021916908373ffffffffffffffffffffffffffffffffffffffff1602179055506000600860008d815260200190815260200160002060008c73ffffffffffffffffffffffffffffffffffffffff1673ffffffffffffffffffffffffffffffffffffffff16815260200190815260200160002060020154036117ce576117cd8a612c65565b5b6000600860008d815260200190815260200160002060008c73ffffffffffffffffffffffffffffffffffffffff1673ffffffffffffffffffffffffffffffffffffffff16815260200190815260200160002060010154036118a557600860008c815260200190815260200160002060008b73ffffffffffffffffffffffffffffffffffffffff1673ffffffffffffffffffffffffffffffffffffffff168152602001908152602001600020600080820160009055600182016000905560028201600090556003820160006118a29190613863565b50505b8373ffffffffffffffffffffffffffffffffffffffff168a73ffffffffffffffffffffffffffffffffffffffff168c7f920fa75bdd35e02ccdb168c8b4214196d63ffe7eee90c4b073112050f5ba2e3c60405160405180910390a45050505050505050505050565b611915612471565b8261191f81611260565b61195e576040517f08c379a000000000000000000000000000000000000000000000000000000000815260040161195590614535565b60405180910390fd5b81600081116119a2576040517f08c379a0000000000000000000000000000000000000000000000000000000008152600401611999906145a1565b60405180910390fd5b83600073ffffffffffffffffffffffffffffffffffffffff168173ffffffffffffffffffffffffffffffffffffffff1603611a12576040517f08c379a0000000000000000000000000000000000000000000000000000000008152600401611a099061460d565b60405180910390fd5b84611a1d33826122c2565b611a5c576040517f08c379a0000000000000000000000000000000000000000000000000000000008152600401611a5390614679565b60405180910390fd5b868660006008600084815260200190815260200160002060008373ffffffffffffffffffffffffffffffffffffffff1673ffffffffffffffffffffffffffffffffffffffff1681526020019081526020016000206001015411611af4576040517f08c379a0000000000000000000000000000000000000000000000000000000008152600401611aeb906146e5565b60405180910390fd5b6000600860008b815260200190815260200160002060008a73ffffffffffffffffffffffffffffffffffffffff1673ffffffffffffffffffffffffffffffffffffffff1681526020019081526020016000206002015414611b8a576040517f08c379a0000000000000000000000000000000000000000000000000000000008152600401611b8190614d2c565b60405180910390fd5b6000600860008b815260200190815260200160002060008a73ffffffffffffffffffffffffffffffffffffffff1673ffffffffffffffffffffffffffffffffffffffff16815260200190815260200160002060000154905087600860008c815260200190815260200160002060008b73ffffffffffffffffffffffffffffffffffffffff1673ffffffffffffffffffffffffffffffffffffffff1681526020019081526020016000206000018190555087818b7f38c88505b4f8c3d77359548f5b449ecf78fa2046034b1b73e88734d23190f5568c33604051611c6e929190614d4c565b60405180910390a450505050505050505050565b60006005600084815260200190815260200160002060000160008373ffffffffffffffffffffffffffffffffffffffff1673ffffffffffffffffffffffffffffffffffffffff16815260200190815260200160002060009054906101000a900460ff16905092915050565b6000801b81565b611d06611cff6124de565b8383612c74565b5050565b611d12612471565b83611d1c81611260565b611d5b576040517f08c379a0000000000000000000000000000000000000000000000000000000008152600401611d5290614535565b60405180910390fd5b8260008111611d9f576040517f08c379a0000000000000000000000000000000000000000000000000000000008152600401611d96906145a1565b60405180910390fd5b8260008111611de3576040517f08c379a0000000000000000000000000000000000000000000000000000000008152600401611dda906145a1565b60405180910390fd5b85600073ffffffffffffffffffffffffffffffffffffffff168173ffffffffffffffffffffffffffffffffffffffff1603611e53576040517f08c379a0000000000000000000000000000000000000000000000000000000008152600401611e4a9061460d565b60405180910390fd5b86611e5e33826122c2565b611e9d576040517f08c379a0000000000000000000000000000000000000000000000000000000008152600401611e9490614679565b60405180910390fd5b85600860008b815260200190815260200160002060008a73ffffffffffffffffffffffffffffffffffffffff1673ffffffffffffffffffffffffffffffffffffffff16815260200190815260200160002060010154611efc8a8c6105fa565b611f069190614734565b1015611f47576040517f08c379a0000000000000000000000000000000000000000000000000000000008152600401611f3e90614dc1565b60405180910390fd5b6000600860008b815260200190815260200160002060008a73ffffffffffffffffffffffffffffffffffffffff1673ffffffffffffffffffffffffffffffffffffffff1681526020019081526020016000206002015403611ffb5786600860008b815260200190815260200160002060008a73ffffffffffffffffffffffffffffffffffffffff1673ffffffffffffffffffffffffffffffffffffffff168152602001908152602001600020600001819055505b85600860008b815260200190815260200160002060008a73ffffffffffffffffffffffffffffffffffffffff1673ffffffffffffffffffffffffffffffffffffffff168152602001908152602001600020600101600082825461205e9190614de1565b9250508190555086868a7f2fc0ffd013b5d05f874bd9a06a8bb6dbfe037efcb406e32eca22ed05e1ed381d8b60405161209791906147e3565b60405180910390a4505050505050505050565b600060036000838152602001908152602001600020549050919050565b6120d082610fe2565b6120d9816124bb565b6120e383836128e8565b505050565b6000806008600086815260200190815260200160002060008573ffffffffffffffffffffffffffffffffffffffff1673ffffffffffffffffffffffffffffffffffffffff16815260200190815260200160002060030180549050905060006008600087815260200190815260200160002060008673ffffffffffffffffffffffffffffffffffffffff1673ffffffffffffffffffffffffffffffffffffffff16815260200190815260200160002060030180548060200260200160405190810160405280929190818152602001828054801561221957602002820191906000526020600020905b8160009054906101000a900473ffffffffffffffffffffffffffffffffffffffff1673ffffffffffffffffffffffffffffffffffffffff16815260200190600101908083116121cf575b5050505050905060005b82811015612294578473ffffffffffffffffffffffffffffffffffffffff1682828151811061225557612254614ac8565b5b602002602001015173ffffffffffffffffffffffffffffffffffffffff1603612283578093505050506122bb565b8061228d906148ca565b9050612223565b507fffffffffffffffffffffffffffffffffffffffffffffffffffffffffffffffff925050505b9392505050565b6000600160008473ffffffffffffffffffffffffffffffffffffffff1673ffffffffffffffffffffffffffffffffffffffff16815260200190815260200160002060008373ffffffffffffffffffffffffffffffffffffffff1673ffffffffffffffffffffffffffffffffffffffff16815260200190815260200160002060009054906101000a900460ff16905092915050565b61235e6124de565b73ffffffffffffffffffffffffffffffffffffffff168573ffffffffffffffffffffffffffffffffffffffff1614806123a457506123a38561239e6124de565b6122c2565b5b6123e3576040517f08c379a00000000000000000000000000000000000000000000000000000000081526004016123da90614984565b60405180910390fd5b6123f085858585856129ca565b5050505050565b60007f7965db0b000000000000000000000000000000000000000000000000000000007bffffffffffffffffffffffffffffffffffffffffffffffffffffffff1916827bffffffffffffffffffffffffffffffffffffffffffffffffffffffff1916148061246a575061246982612de0565b5b9050919050565b612479611274565b156124b9576040517f08c379a00000000000000000000000000000000000000000000000000000000081526004016124b090614e61565b60405180910390fd5b565b6124cc816124c76124de565b612ec2565b50565b6124db81306001612c74565b50565b600033905090565b815183511461252a576040517f08c379a000000000000000000000000000000000000000000000000000000000815260040161252190614ef3565b60405180910390fd5b600073ffffffffffffffffffffffffffffffffffffffff168473ffffffffffffffffffffffffffffffffffffffff1603612599576040517f08c379a000000000000000000000000000000000000000000000000000000000815260040161259090614f85565b60405180910390fd5b60006125a36124de565b90506125b3818787878787612f47565b60005b84518110156127645760008582815181106125d4576125d3614ac8565b5b6020026020010151905060008583815181106125f3576125f2614ac8565b5b60200260200101519050600080600084815260200190815260200160002060008b73ffffffffffffffffffffffffffffffffffffffff1673ffffffffffffffffffffffffffffffffffffffff16815260200190815260200160002054905081811015612694576040517f08c379a000000000000000000000000000000000000000000000000000000000815260040161268b90615017565b60405180910390fd5b81810360008085815260200190815260200160002060008c73ffffffffffffffffffffffffffffffffffffffff1673ffffffffffffffffffffffffffffffffffffffff168152602001908152602001600020819055508160008085815260200190815260200160002060008b73ffffffffffffffffffffffffffffffffffffffff1673ffffffffffffffffffffffffffffffffffffffff16815260200190815260200160002060008282546127499190614de1565b925050819055505050508061275d906148ca565b90506125b6565b508473ffffffffffffffffffffffffffffffffffffffff168673ffffffffffffffffffffffffffffffffffffffff168273ffffffffffffffffffffffffffffffffffffffff167f4a39dc06d4c0dbc64b70af90fd698a233a518aa5d07e595d983b8c0526c8f7fb87876040516127db929190615037565b60405180910390a46127f1818787878787612f65565b6127ff818787878787612f6d565b505050505050565b6128118282611c82565b6128e45760016005600084815260200190815260200160002060000160008373ffffffffffffffffffffffffffffffffffffffff1673ffffffffffffffffffffffffffffffffffffffff16815260200190815260200160002060006101000a81548160ff0219169083151502179055506128896124de565b73ffffffffffffffffffffffffffffffffffffffff168173ffffffffffffffffffffffffffffffffffffffff16837f2f8788117e7eff1d82e926ec794901d17c78024a50270940304540a733656f0d60405160405180910390a45b5050565b6128f28282611c82565b156129c65760006005600084815260200190815260200160002060000160008373ffffffffffffffffffffffffffffffffffffffff1673ffffffffffffffffffffffffffffffffffffffff16815260200190815260200160002060006101000a81548160ff02191690831515021790555061296b6124de565b73ffffffffffffffffffffffffffffffffffffffff168173ffffffffffffffffffffffffffffffffffffffff16837ff6391f5c32d9c69d2a47ea670b442974b53935d1edc7fd64eb21e047a839171b60405160405180910390a45b5050565b600073ffffffffffffffffffffffffffffffffffffffff168473ffffffffffffffffffffffffffffffffffffffff1603612a39576040517f08c379a0000000000000000000000000000000000000000000000000000000008152600401612a3090614f85565b60405180910390fd5b6000612a436124de565b90506000612a5085613144565b90506000612a5d85613144565b9050612a6d838989858589612f47565b600080600088815260200190815260200160002060008a73ffffffffffffffffffffffffffffffffffffffff1673ffffffffffffffffffffffffffffffffffffffff16815260200190815260200160002054905085811015612b04576040517f08c379a0000000000000000000000000000000000000000000000000000000008152600401612afb90615017565b60405180910390fd5b85810360008089815260200190815260200160002060008b73ffffffffffffffffffffffffffffffffffffffff1673ffffffffffffffffffffffffffffffffffffffff168152602001908152602001600020819055508560008089815260200190815260200160002060008a73ffffffffffffffffffffffffffffffffffffffff1673ffffffffffffffffffffffffffffffffffffffff1681526020019081526020016000206000828254612bb99190614de1565b925050819055508773ffffffffffffffffffffffffffffffffffffffff168973ffffffffffffffffffffffffffffffffffffffff168573ffffffffffffffffffffffffffffffffffffffff167fc3d58168c5ae7397731d063d5bbf3d657854427343f4c083240f7aacaa2d0f628a8a604051612c3692919061506e565b60405180910390a4612c4c848a8a86868a612f65565b612c5a848a8a8a8a8a6131be565b505050505050505050565b612c7181306000612c74565b50565b8173ffffffffffffffffffffffffffffffffffffffff168373ffffffffffffffffffffffffffffffffffffffff1603612ce2576040517f08c379a0000000000000000000000000000000000000000000000000000000008152600401612cd990615109565b60405180910390fd5b80600160008573ffffffffffffffffffffffffffffffffffffffff1673ffffffffffffffffffffffffffffffffffffffff16815260200190815260200160002060008473ffffffffffffffffffffffffffffffffffffffff1673ffffffffffffffffffffffffffffffffffffffff16815260200190815260200160002060006101000a81548160ff0219169083151502179055508173ffffffffffffffffffffffffffffffffffffffff168373ffffffffffffffffffffffffffffffffffffffff167f17307eab39ab6107e8899845ad3d59bd9653f200f220920489ca2b5937696c3183604051612dd39190613a53565b60405180910390a3505050565b60007fd9b67a26000000000000000000000000000000000000000000000000000000007bffffffffffffffffffffffffffffffffffffffffffffffffffffffff1916827bffffffffffffffffffffffffffffffffffffffffffffffffffffffff19161480612eab57507f0e89341c000000000000000000000000000000000000000000000000000000007bffffffffffffffffffffffffffffffffffffffffffffffffffffffff1916827bffffffffffffffffffffffffffffffffffffffffffffffffffffffff1916145b80612ebb5750612eba82613395565b5b9050919050565b612ecc8282611c82565b612f4357612ed9816133ff565b612ee78360001c602061342c565b604051602001612ef89291906151fd565b6040516020818303038152906040526040517f08c379a0000000000000000000000000000000000000000000000000000000008152600401612f3a9190613b7e565b60405180910390fd5b5050565b612f4f612471565b612f5d868686868686613668565b505050505050565b505050505050565b612f8c8473ffffffffffffffffffffffffffffffffffffffff16613838565b1561313c578373ffffffffffffffffffffffffffffffffffffffff1663bc197c8187878686866040518663ffffffff1660e01b8152600401612fd295949392919061528c565b6020604051808303816000875af192505050801561300e57506040513d601f19601f8201168201806040525081019061300b9190615309565b60015b6130b35761301a615343565b806308c379a003613076575061302e615365565b806130395750613078565b806040517f08c379a000000000000000000000000000000000000000000000000000000000815260040161306d9190613b7e565b60405180910390fd5b505b6040517f08c379a00000000000000000000000000000000000000000000000000000000081526004016130aa90615467565b60405180910390fd5b63bc197c8160e01b7bffffffffffffffffffffffffffffffffffffffffffffffffffffffff1916817bffffffffffffffffffffffffffffffffffffffffffffffffffffffff19161461313a576040517f08c379a0000000000000000000000000000000000000000000000000000000008152600401613131906154f9565b60405180910390fd5b505b505050505050565b60606000600167ffffffffffffffff81111561316357613162613c85565b5b6040519080825280602002602001820160405280156131915781602001602082028036833780820191505090505b50905082816000815181106131a9576131a8614ac8565b5b60200260200101818152505080915050919050565b6131dd8473ffffffffffffffffffffffffffffffffffffffff16613838565b1561338d578373ffffffffffffffffffffffffffffffffffffffff1663f23a6e6187878686866040518663ffffffff1660e01b8152600401613223959493929190615519565b6020604051808303816000875af192505050801561325f57506040513d601f19601f8201168201806040525081019061325c9190615309565b60015b6133045761326b615343565b806308c379a0036132c7575061327f615365565b8061328a57506132c9565b806040517f08c379a00000000000000000000000000000000000000000000000000000000081526004016132be9190613b7e565b60405180910390fd5b505b6040517f08c379a00000000000000000000000000000000000000000000000000000000081526004016132fb90615467565b60405180910390fd5b63f23a6e6160e01b7bffffffffffffffffffffffffffffffffffffffffffffffffffffffff1916817bffffffffffffffffffffffffffffffffffffffffffffffffffffffff19161461338b576040517f08c379a0000000000000000000000000000000000000000000000000000000008152600401613382906154f9565b60405180910390fd5b505b505050505050565b60007f01ffc9a7000000000000000000000000000000000000000000000000000000007bffffffffffffffffffffffffffffffffffffffffffffffffffffffff1916827bffffffffffffffffffffffffffffffffffffffffffffffffffffffff1916149050919050565b60606134258273ffffffffffffffffffffffffffffffffffffffff16601460ff1661342c565b9050919050565b60606000600283600261343f9190614b63565b6134499190614de1565b67ffffffffffffffff81111561346257613461613c85565b5b6040519080825280601f01601f1916602001820160405280156134945781602001600182028036833780820191505090505b5090507f3000000000000000000000000000000000000000000000000000000000000000816000815181106134cc576134cb614ac8565b5b60200101907effffffffffffffffffffffffffffffffffffffffffffffffffffffffffffff1916908160001a9053507f7800000000000000000000000000000000000000000000000000000000000000816001815181106135305761352f614ac8565b5b60200101907effffffffffffffffffffffffffffffffffffffffffffffffffffffffffffff1916908160001a905350600060018460026135709190614b63565b61357a9190614de1565b90505b600181111561361a577f3031323334353637383961626364656600000000000000000000000000000000600f8616601081106135bc576135bb614ac8565b5b1a60f81b8282815181106135d3576135d2614ac8565b5b60200101907effffffffffffffffffffffffffffffffffffffffffffffffffffffffffffff1916908160001a905350600485901c94508061361390614cb7565b905061357d565b506000841461365e576040517f08c379a0000000000000000000000000000000000000000000000000000000008152600401613655906155bf565b60405180910390fd5b8091505092915050565b61367686868686868661385b565b600073ffffffffffffffffffffffffffffffffffffffff168573ffffffffffffffffffffffffffffffffffffffff16036137275760005b8351811015613725578281815181106136c9576136c8614ac8565b5b6020026020010151600360008684815181106136e8576136e7614ac8565b5b60200260200101518152602001908152602001600020600082825461370d9190614de1565b925050819055508061371e906148ca565b90506136ad565b505b600073ffffffffffffffffffffffffffffffffffffffff168473ffffffffffffffffffffffffffffffffffffffff16036138305760005b835181101561382e57600084828151811061377c5761377b614ac8565b5b60200260200101519050600084838151811061379b5761379a614ac8565b5b6020026020010151905060006003600084815260200190815260200160002054905081811015613800576040517f08c379a00000000000000000000000000000000000000000000000000000000081526004016137f790615651565b60405180910390fd5b818103600360008581526020019081526020016000208190555050505080613827906148ca565b905061375e565b505b505050505050565b6000808273ffffffffffffffffffffffffffffffffffffffff163b119050919050565b505050505050565b50805460008255906000526020600020908101906138819190613884565b50565b5b8082111561389d576000816000905550600101613885565b5090565b6000604051905090565b600080fd5b600080fd5b600073ffffffffffffffffffffffffffffffffffffffff82169050919050565b60006138e0826138b5565b9050919050565b6138f0816138d5565b81146138fb57600080fd5b50565b60008135905061390d816138e7565b92915050565b6000819050919050565b61392681613913565b811461393157600080fd5b50565b6000813590506139438161391d565b92915050565b600080604083850312156139605761395f6138ab565b5b600061396e858286016138fe565b925050602061397f85828601613934565b9150509250929050565b61399281613913565b82525050565b60006020820190506139ad6000830184613989565b92915050565b60007fffffffff0000000000000000000000000000000000000000000000000000000082169050919050565b6139e8816139b3565b81146139f357600080fd5b50565b600081359050613a05816139df565b92915050565b600060208284031215613a2157613a206138ab565b5b6000613a2f848285016139f6565b91505092915050565b60008115159050919050565b613a4d81613a38565b82525050565b6000602082019050613a686000830184613a44565b92915050565b600080600060608486031215613a8757613a866138ab565b5b6000613a9586828701613934565b9350506020613aa6868287016138fe565b9250506040613ab786828701613934565b9150509250925092565b600060208284031215613ad757613ad66138ab565b5b6000613ae584828501613934565b91505092915050565b600081519050919050565b600082825260208201905092915050565b60005b83811015613b28578082015181840152602081019050613b0d565b60008484015250505050565b6000601f19601f8301169050919050565b6000613b5082613aee565b613b5a8185613af9565b9350613b6a818560208601613b0a565b613b7381613b34565b840191505092915050565b60006020820190508181036000830152613b988184613b45565b905092915050565b600080600060608486031215613bb957613bb86138ab565b5b6000613bc7868287016138fe565b9350506020613bd8868287016138fe565b9250506040613be986828701613934565b9150509250925092565b6000819050919050565b613c0681613bf3565b8114613c1157600080fd5b50565b600081359050613c2381613bfd565b92915050565b600060208284031215613c3f57613c3e6138ab565b5b6000613c4d84828501613c14565b91505092915050565b613c5f81613bf3565b82525050565b6000602082019050613c7a6000830184613c56565b92915050565b600080fd5b7f4e487b7100000000000000000000000000000000000000000000000000000000600052604160045260246000fd5b613cbd82613b34565b810181811067ffffffffffffffff82111715613cdc57613cdb613c85565b5b80604052505050565b6000613cef6138a1565b9050613cfb8282613cb4565b919050565b600067ffffffffffffffff821115613d1b57613d1a613c85565b5b602082029050602081019050919050565b600080fd5b6000613d44613d3f84613d00565b613ce5565b90508083825260208201905060208402830185811115613d6757613d66613d2c565b5b835b81811015613d905780613d7c8882613934565b845260208401935050602081019050613d69565b5050509392505050565b600082601f830112613daf57613dae613c80565b5b8135613dbf848260208601613d31565b91505092915050565b600080fd5b600067ffffffffffffffff821115613de857613de7613c85565b5b613df182613b34565b9050602081019050919050565b82818337600083830152505050565b6000613e20613e1b84613dcd565b613ce5565b905082815260208101848484011115613e3c57613e3b613dc8565b5b613e47848285613dfe565b509392505050565b600082601f830112613e6457613e63613c80565b5b8135613e74848260208601613e0d565b91505092915050565b600080600080600060a08688031215613e9957613e986138ab565b5b6000613ea7888289016138fe565b9550506020613eb8888289016138fe565b945050604086013567ffffffffffffffff811115613ed957613ed86138b0565b5b613ee588828901613d9a565b935050606086013567ffffffffffffffff811115613f0657613f056138b0565b5b613f1288828901613d9a565b925050608086013567ffffffffffffffff811115613f3357613f326138b0565b5b613f3f88828901613e4f565b9150509295509295909350565b60008060408385031215613f6357613f626138ab565b5b6000613f7185828601613c14565b9250506020613f82858286016138fe565b9150509250929050565b600067ffffffffffffffff821115613fa757613fa6613c85565b5b602082029050602081019050919050565b6000613fcb613fc684613f8c565b613ce5565b90508083825260208201905060208402830185811115613fee57613fed613d2c565b5b835b81811015614017578061400388826138fe565b845260208401935050602081019050613ff0565b5050509392505050565b600082601f83011261403657614035613c80565b5b8135614046848260208601613fb8565b91505092915050565b60008060408385031215614066576140656138ab565b5b600083013567ffffffffffffffff811115614084576140836138b0565b5b61409085828601614021565b925050602083013567ffffffffffffffff8111156140b1576140b06138b0565b5b6140bd85828601613d9a565b9150509250929050565b600081519050919050565b600082825260208201905092915050565b6000819050602082019050919050565b6140fc81613913565b82525050565b600061410e83836140f3565b60208301905092915050565b6000602082019050919050565b6000614132826140c7565b61413c81856140d2565b9350614147836140e3565b8060005b8381101561417857815161415f8882614102565b975061416a8361411a565b92505060018101905061414b565b5085935050505092915050565b6000602082019050818103600083015261419f8184614127565b905092915050565b6000819050919050565b6141ba816141a7565b81146141c557600080fd5b50565b6000813590506141d7816141b1565b92915050565b6000806000606084860312156141f6576141f56138ab565b5b600061420486828701613934565b9350506020614215868287016138fe565b9250506040614226868287016141c8565b9150509250925092565b61423981613a38565b811461424457600080fd5b50565b60008135905061425681614230565b92915050565b60008060408385031215614273576142726138ab565b5b6000614281858286016138fe565b925050602061429285828601614247565b9150509250929050565b600080600080608085870312156142b6576142b56138ab565b5b60006142c487828801613934565b94505060206142d5878288016138fe565b93505060406142e687828801613934565b92505060606142f787828801613934565b91505092959194509250565b60008060006060848603121561431c5761431b6138ab565b5b600061432a86828701613934565b935050602061433b868287016138fe565b925050604061434c868287016138fe565b9150509250925092565b61435f816141a7565b82525050565b600060208201905061437a6000830184614356565b92915050565b60008060408385031215614397576143966138ab565b5b60006143a5858286016138fe565b92505060206143b6858286016138fe565b9150509250929050565b600080600080600060a086880312156143dc576143db6138ab565b5b60006143ea888289016138fe565b95505060206143fb888289016138fe565b945050604061440c88828901613934565b935050606061441d88828901613934565b925050608086013567ffffffffffffffff81111561443e5761443d6138b0565b5b61444a88828901613e4f565b9150509295509295909350565b7f455243313135353a2061646472657373207a65726f206973206e6f742061207660008201527f616c6964206f776e657200000000000000000000000000000000000000000000602082015250565b60006144b3602a83613af9565b91506144be82614457565b604082019050919050565b600060208201905081810360008301526144e2816144a6565b9050919050565b7f496e76616c696420494400000000000000000000000000000000000000000000600082015250565b600061451f600a83613af9565b915061452a826144e9565b602082019050919050565b6000602082019050818103600083015261454e81614512565b9050919050565b7f496e76616c69642070726963652f616d6f756e74000000000000000000000000600082015250565b600061458b601483613af9565b915061459682614555565b602082019050919050565b600060208201905081810360008301526145ba8161457e565b9050919050565b7f496e76616c696420616464726573730000000000000000000000000000000000600082015250565b60006145f7600f83613af9565b9150614602826145c1565b602082019050919050565b60006020820190508181036000830152614626816145ea565b9050919050565b7f556e617574686f72697a6564206163636f756e74000000000000000000000000600082015250565b6000614663601483613af9565b915061466e8261462d565b602082019050919050565b6000602082019050818103600083015261469281614656565b9050919050565b7f452d426f6f6b206973206e6f74206c6973746564206f7220736f6c64206f7574600082015250565b60006146cf602083613af9565b91506146da82614699565b602082019050919050565b600060208201905081810360008301526146fe816146c2565b9050919050565b7f4e487b7100000000000000000000000000000000000000000000000000000000600052601160045260246000fd5b600061473f82613913565b915061474a83613913565b925082820390508181111561476257614761614705565b5b92915050565b7f457863656564656420616d6f756e7420746f20756e6c69737400000000000000600082015250565b600061479e601983613af9565b91506147a982614768565b602082019050919050565b600060208201905081810360008301526147cd81614791565b9050919050565b6147dd816138d5565b82525050565b60006020820190506147f860008301846147d4565b92915050565b7f4e487b7100000000000000000000000000000000000000000000000000000000600052602260045260246000fd5b6000600282049050600182168061484557607f821691505b602082108103614858576148576147fe565b5b50919050565b7f4f7264657220616c6c2066756c66696c6c656400000000000000000000000000600082015250565b6000614894601383613af9565b915061489f8261485e565b602082019050919050565b600060208201905081810360008301526148c381614887565b9050919050565b60006148d582613913565b91507fffffffffffffffffffffffffffffffffffffffffffffffffffffffffffffffff820361490757614906614705565b5b600182019050919050565b7f455243313135353a2063616c6c6572206973206e6f7420746f6b656e206f776e60008201527f6572206f7220617070726f766564000000000000000000000000000000000000602082015250565b600061496e602e83613af9565b915061497982614912565b604082019050919050565b6000602082019050818103600083015261499d81614961565b9050919050565b7f416363657373436f6e74726f6c3a2063616e206f6e6c792072656e6f756e636560008201527f20726f6c657320666f722073656c660000000000000000000000000000000000602082015250565b6000614a00602f83613af9565b9150614a0b826149a4565b604082019050919050565b60006020820190508181036000830152614a2f816149f3565b9050919050565b7f455243313135353a206163636f756e747320616e6420696473206c656e67746860008201527f206d69736d617463680000000000000000000000000000000000000000000000602082015250565b6000614a92602983613af9565b9150614a9d82614a36565b604082019050919050565b60006020820190508181036000830152614ac181614a85565b9050919050565b7f4e487b7100000000000000000000000000000000000000000000000000000000600052603260045260246000fd5b7f6e6f742062757965720000000000000000000000000000000000000000000000600082015250565b6000614b2d600983613af9565b9150614b3882614af7565b602082019050919050565b60006020820190508181036000830152614b5c81614b20565b9050919050565b6000614b6e82613913565b9150614b7983613913565b9250828202614b8781613913565b91508282048414831517614b9e57614b9d614705565b5b5092915050565b7f4e487b7100000000000000000000000000000000000000000000000000000000600052601260045260246000fd5b6000614bdf82613913565b9150614bea83613913565b925082614bfa57614bf9614ba5565b5b828204905092915050565b600081905092915050565b50565b6000614c20600083614c05565b9150614c2b82614c10565b600082019050919050565b6000614c4182614c13565b9150819050919050565b7f427579696e67206661696c656400000000000000000000000000000000000000600082015250565b6000614c81600d83613af9565b9150614c8c82614c4b565b602082019050919050565b60006020820190508181036000830152614cb081614c74565b9050919050565b6000614cc282613913565b915060008203614cd557614cd4614705565b5b600182039050919050565b7f4275796572206861732064657465726d696e6564000000000000000000000000600082015250565b6000614d16601483613af9565b9150614d2182614ce0565b602082019050919050565b60006020820190508181036000830152614d4581614d09565b9050919050565b6000604082019050614d6160008301856147d4565b614d6e60208301846147d4565b9392505050565b7f496e73656666696369656e742062616c616e636520746f206c69737400000000600082015250565b6000614dab601c83613af9565b9150614db682614d75565b602082019050919050565b60006020820190508181036000830152614dda81614d9e565b9050919050565b6000614dec82613913565b9150614df783613913565b9250828201905080821115614e0f57614e0e614705565b5b92915050565b7f5061757361626c653a2070617573656400000000000000000000000000000000600082015250565b6000614e4b601083613af9565b9150614e5682614e15565b602082019050919050565b60006020820190508181036000830152614e7a81614e3e565b9050919050565b7f455243313135353a2069647320616e6420616d6f756e7473206c656e6774682060008201527f6d69736d61746368000000000000000000000000000000000000000000000000602082015250565b6000614edd602883613af9565b9150614ee882614e81565b604082019050919050565b60006020820190508181036000830152614f0c81614ed0565b9050919050565b7f455243313135353a207472616e7366657220746f20746865207a65726f20616460008201527f6472657373000000000000000000000000000000000000000000000000000000602082015250565b6000614f6f602583613af9565b9150614f7a82614f13565b604082019050919050565b60006020820190508181036000830152614f9e81614f62565b9050919050565b7f455243313135353a20696e73756666696369656e742062616c616e636520666f60008201527f72207472616e7366657200000000000000000000000000000000000000000000602082015250565b6000615001602a83613af9565b915061500c82614fa5565b604082019050919050565b6000602082019050818103600083015261503081614ff4565b9050919050565b600060408201905081810360008301526150518185614127565b905081810360208301526150658184614127565b90509392505050565b60006040820190506150836000830185613989565b6150906020830184613989565b9392505050565b7f455243313135353a2073657474696e6720617070726f76616c2073746174757360008201527f20666f722073656c660000000000000000000000000000000000000000000000602082015250565b60006150f3602983613af9565b91506150fe82615097565b604082019050919050565b60006020820190508181036000830152615122816150e6565b9050919050565b600081905092915050565b7f416363657373436f6e74726f6c3a206163636f756e7420000000000000000000600082015250565b600061516a601783615129565b915061517582615134565b601782019050919050565b600061518b82613aee565b6151958185615129565b93506151a5818560208601613b0a565b80840191505092915050565b7f206973206d697373696e6720726f6c6520000000000000000000000000000000600082015250565b60006151e7601183615129565b91506151f2826151b1565b601182019050919050565b60006152088261515d565b91506152148285615180565b915061521f826151da565b915061522b8284615180565b91508190509392505050565b600081519050919050565b600082825260208201905092915050565b600061525e82615237565b6152688185615242565b9350615278818560208601613b0a565b61528181613b34565b840191505092915050565b600060a0820190506152a160008301886147d4565b6152ae60208301876147d4565b81810360408301526152c08186614127565b905081810360608301526152d48185614127565b905081810360808301526152e88184615253565b90509695505050505050565b600081519050615303816139df565b92915050565b60006020828403121561531f5761531e6138ab565b5b600061532d848285016152f4565b91505092915050565b60008160e01c9050919050565b600060033d11156153625760046000803e61535f600051615336565b90505b90565b600060443d106153f2576153776138a1565b60043d036004823e80513d602482011167ffffffffffffffff8211171561539f5750506153f2565b808201805167ffffffffffffffff8111156153bd57505050506153f2565b80602083010160043d0385018111156153da5750505050506153f2565b6153e982602001850186613cb4565b82955050505050505b90565b7f455243313135353a207472616e7366657220746f206e6f6e2d4552433131353560008201527f526563656976657220696d706c656d656e746572000000000000000000000000602082015250565b6000615451603483613af9565b915061545c826153f5565b604082019050919050565b6000602082019050818103600083015261548081615444565b9050919050565b7f455243313135353a204552433131353552656365697665722072656a6563746560008201527f6420746f6b656e73000000000000000000000000000000000000000000000000602082015250565b60006154e3602883613af9565b91506154ee82615487565b604082019050919050565b60006020820190508181036000830152615512816154d6565b9050919050565b600060a08201905061552e60008301886147d4565b61553b60208301876147d4565b6155486040830186613989565b6155556060830185613989565b81810360808301526155678184615253565b90509695505050505050565b7f537472696e67733a20686578206c656e67746820696e73756666696369656e74600082015250565b60006155a9602083613af9565b91506155b482615573565b602082019050919050565b600060208201905081810360008301526155d88161559c565b9050919050565b7f455243313135353a206275726e20616d6f756e74206578636565647320746f7460008201527f616c537570706c79000000000000000000000000000000000000000000000000602082015250565b600061563b602883613af9565b9150615646826155df565b604082019050919050565b6000602082019050818103600083015261566a8161562e565b905091905056fea264697066735822122021b2933908ca3bfbcc660167cb19e8bb0d535717847a0e27262bc2f98df978c664736f6c63430008130033",
  "immutableReferences": {},
  "source": "// SPDX-License-Identifier: MIT\r\npragma solidity ^0.8.7;\r\n\r\n/*import \"../node_modules/@openzeppelin/contracts-upgradeable/token/ERC1155/ERC1155Upgradeable.sol\";\r\nimport \"../node_modules/@openzeppelin/contracts-upgradeable/token/ERC1155/extensions/ERC1155SupplyUpgradeable.sol\";\r\nimport \"../node_modules/@openzeppelin/contracts-upgradeable/security/PausableUpgradeable.sol\";\r\nimport \"../node_modules/@openzeppelin/contracts-upgradeable/access/AccessControlUpgradeable.sol\";*/\r\nimport \"../node_modules/@openzeppelin/contracts/token/ERC1155/ERC1155.sol\";\r\nimport \"../node_modules/@openzeppelin/contracts/token/ERC1155/extensions/ERC1155Supply.sol\";\r\nimport \"../node_modules/@openzeppelin/contracts/security/Pausable.sol\";\r\nimport \"../node_modules/@openzeppelin/contracts/access/AccessControl.sol\";\r\n\r\ncontract Market is ERC1155, ERC1155Supply, Pausable, AccessControl {\r\n\r\n    mapping (uint256 => bytes32) idToPublisher; // Anyone can check which publisher an id belongs to.\r\n    mapping (string => bool) publisherHasMember;\r\n\r\n    struct Listing {\r\n        uint256 price; // \r\n        uint256 listedBalance; // \r\n        uint256 buyerCounts; // \r\n        address[] buyers; // \r\n    }\r\n    \r\n    mapping (uint256 => mapping (address => Listing)) listings; // id => seller => Listing\r\n\r\n    address market;\r\n\r\n    event EBookListed(uint256 indexed id, uint256 indexed amount, uint256 indexed price, address seller);\r\n    event PriceModified(uint256 indexed id, uint256 indexed originalPrice, uint256 indexed currentPrice, address seller, address priceModifier);\r\n    event ListingCancelled(uint256 indexed id, address indexed seller, uint256 indexed removeAmount, address canceller);\r\n    event BuyerDetermined(uint256 indexed id, address indexed seller, address indexed buyer);\r\n    event TransactionMade(uint256 indexed id, address indexed seller, address indexed buyer);\r\n\r\n    constructor() ERC1155(\"\") {\r\n        //_disableInitializers();\r\n    }\r\n\r\n    modifier isIdExisted(uint256 id) {\r\n        require(super.exists(id), \"Invalid ID\");\r\n        _;\r\n    }\r\n\r\n    modifier IsPriceOrAmountValid(uint256 priceOrAmount) {\r\n        require(priceOrAmount > 0, \"Invalid price/amount\");\r\n        _;\r\n    }\r\n\r\n    modifier isApproved(address seller) {\r\n        require(super.isApprovedForAll(msg.sender, seller), \"Unauthorized account\");\r\n        _;\r\n    }\r\n\r\n    modifier isAddressValid(address addr) {\r\n        require(addr != address(0), \"Invalid address\");\r\n        _;\r\n    }\r\n\r\n    modifier IsEBookAvailableOnOrder(uint256 id, address seller) {  // /\r\n        require(listings[id][seller].listedBalance > 0, \"E-Book is not listed or sold out\");\r\n        _;\r\n    }\r\n\r\n    /*function initialize() initializer internal {\r\n        __ERC1155_init(\"\");\r\n        __AccessControl_init();\r\n\r\n        _grantRole(DEFAULT_ADMIN_ROLE, msg.sender);\r\n    }*/\r\n\r\n    //  Tim: ( determineBuyer )\r\n    function _grantApprovalToContract(address seller) private {\r\n        super._setApprovalForAll(seller, address(this), true);\r\n    }\r\n\r\n    // Tim: ( purchaseEBook )\r\n    function _revokeApprovalFromContract(address seller) private {\r\n        super._setApprovalForAll(seller, address(this), false);\r\n    }\r\n\r\n    function checkIsBuyer(uint256 id, address seller, address buyer) public view returns (int256) {\r\n\r\n        uint256 length = listings[id][seller].buyers.length;\r\n        address[] memory buyers = listings[id][seller].buyers;\r\n        \r\n        for (uint256 i = 0 ; i < length ; ++i) {\r\n            if (buyers[i] == buyer) {\r\n                return int256(i);\r\n            }\r\n        }\r\n\r\n        return -1;\r\n    }\r\n\r\n    // Tim:  ID \r\n    function listedBalanceOf(address account, uint256 id) public view virtual returns(uint256) {\r\n        return listings[id][account].listedBalance;\r\n    }\r\n\r\n    // Tim: \r\n    function listEBook(uint256 id, address seller, uint256 price, uint256 amount) public virtual whenNotPaused isIdExisted(id) IsPriceOrAmountValid(price) IsPriceOrAmountValid(amount) isAddressValid(seller) isApproved(seller) {\r\n        require(balanceOf(seller, id) - listings[id][seller].listedBalance >= amount, \"Insefficient balance to list\"); //  -  >= \r\n\r\n        if (listings[id][seller].buyerCounts == 0) {\r\n            listings[id][seller].price = price;\r\n        }\r\n\r\n        listings[id][seller].listedBalance += amount;\r\n\r\n        emit EBookListed(id, amount, price, seller);\r\n    }\r\n\r\n    // Tim: \r\n    function modifyPrice(uint256 id, address seller, uint256 price) public virtual whenNotPaused isIdExisted(id) IsPriceOrAmountValid(price) isAddressValid(seller) isApproved(seller) IsEBookAvailableOnOrder(id, seller) {\r\n        require(listings[id][seller].buyerCounts == 0, \"Buyer has determined\"); //  determineBuyer\r\n\r\n        uint256 originalPrice = listings[id][seller].price;\r\n        listings[id][seller].price = price;\r\n\r\n        emit PriceModified(id, originalPrice, price, seller, msg.sender);\r\n    }\r\n\r\n    // Tim: \r\n    function cancelListing(uint256 id, address seller, uint256 amount) public virtual whenNotPaused isIdExisted(id) IsPriceOrAmountValid(amount) isAddressValid(seller) isApproved(seller) IsEBookAvailableOnOrder(id, seller) {\r\n        require(listings[id][seller].listedBalance - listings[id][seller].buyerCounts >= amount, \"Exceeded amount to unlist\"); //  >= \r\n\r\n        unchecked {\r\n            listings[id][seller].listedBalance -= amount;\r\n        }\r\n\r\n        if (listings[id][seller].listedBalance == 0) {\r\n            delete listings[id][seller];\r\n        }\r\n\r\n        emit ListingCancelled(id, seller, amount, msg.sender);\r\n    }\r\n\r\n    // Tim: \r\n    function determineBuyer(address seller, address buyer, uint256 id) public virtual whenNotPaused onlyRole(DEFAULT_ADMIN_ROLE) isIdExisted(id) isAddressValid(seller) isAddressValid(buyer) {\r\n        require(listings[id][seller].listedBalance > listings[id][seller].buyerCounts, \"Order all fulfilled\"); // \r\n\r\n        listings[id][seller].buyers.push(buyer);\r\n        \r\n        if (listings[id][seller].buyerCounts == 0) { // \r\n            _grantApprovalToContract(seller);\r\n        }\r\n\r\n        listings[id][seller].buyerCounts ++;\r\n\r\n        emit BuyerDetermined(id, seller, buyer);\r\n    }\r\n\r\n    // Tim:  buyers \r\n    function purchaseEBook(uint256 id, address seller, int256 index) public payable virtual whenNotPaused isIdExisted(id) isAddressValid(seller) IsEBookAvailableOnOrder(id, seller) {\r\n\r\n        address buyer = msg.sender;\r\n        require(index != -1, \"not buyer\");\r\n\r\n        uint256 price = listings[id][seller].price;\r\n        \r\n        uint256 fee = price * 25 / 1000;\r\n\r\n        super._safeTransferFrom(seller, buyer, id, 0, \"\"); // transfer ebook to buyer\r\n\r\n        (bool success, ) = seller.call{ value: price }(\"\"); // transfer ether to seller\r\n        require(success, \"Buying failed\");\r\n\r\n        //(bool suucess, ) = multiSigWallet.call{ value: fee}(\"\");\r\n        //require(success, \"Buying failed\");\r\n\r\n        listings[id][seller].listedBalance --;\r\n        listings[id][seller].buyerCounts --;\r\n        listings[id][seller].buyers[uint256(index)] = address(0);\r\n\r\n        if (listings[id][seller].buyerCounts == 0) { // \r\n            _revokeApprovalFromContract(seller);\r\n        }\r\n\r\n        if (listings[id][seller].listedBalance == 0) { // \r\n            delete listings[id][seller];\r\n        }\r\n\r\n        emit TransactionMade(id, seller, buyer);\r\n    }\r\n\r\n    // -----------------------\r\n\r\n    function supportsInterface(bytes4 interfaceId)\r\n        public\r\n        view\r\n        override(ERC1155, AccessControl)\r\n        returns (bool)\r\n    {\r\n        return super.supportsInterface(interfaceId);\r\n    }\r\n\r\n    function _beforeTokenTransfer(address operator, address from, address to, uint256[] memory ids, uint256[] memory amounts, bytes memory data)\r\n        internal\r\n        whenNotPaused\r\n        override(ERC1155, ERC1155Supply)\r\n    {\r\n        super._beforeTokenTransfer(operator, from, to, ids, amounts, data);\r\n    }\r\n}",
  "sourcePath": "C:\\Users\\TimOu_0911\\Desktop\\The_Ohara_Protocol\\contracts\\Market.sol",
  "compiler": {
    "name": "solc",
    "version": "0.8.19+commit.7dd6d404.Emscripten.clang"
  },
  "schemaVersion": "3.4.13",
  "updatedAt": "2023-06-27T15:29:35.977Z",
  "devdoc": {
    "events": {
      "ApprovalForAll(address,address,bool)": {
        "details": "Emitted when `account` grants or revokes permission to `operator` to transfer their tokens, according to `approved`."
      },
      "Paused(address)": {
        "details": "Emitted when the pause is triggered by `account`."
      },
      "RoleAdminChanged(bytes32,bytes32,bytes32)": {
        "details": "Emitted when `newAdminRole` is set as ``role``'s admin role, replacing `previousAdminRole` `DEFAULT_ADMIN_ROLE` is the starting admin for all roles, despite {RoleAdminChanged} not being emitted signaling this. _Available since v3.1._"
      },
      "RoleGranted(bytes32,address,address)": {
        "details": "Emitted when `account` is granted `role`. `sender` is the account that originated the contract call, an admin role bearer except when using {AccessControl-_setupRole}."
      },
      "RoleRevoked(bytes32,address,address)": {
        "details": "Emitted when `account` is revoked `role`. `sender` is the account that originated the contract call:   - if using `revokeRole`, it is the admin role bearer   - if using `renounceRole`, it is the role bearer (i.e. `account`)"
      },
      "TransferBatch(address,address,address,uint256[],uint256[])": {
        "details": "Equivalent to multiple {TransferSingle} events, where `operator`, `from` and `to` are the same for all transfers."
      },
      "TransferSingle(address,address,address,uint256,uint256)": {
        "details": "Emitted when `value` tokens of token type `id` are transferred from `from` to `to` by `operator`."
      },
      "URI(string,uint256)": {
        "details": "Emitted when the URI for token type `id` changes to `value`, if it is a non-programmatic URI. If an {URI} event was emitted for `id`, the standard https://eips.ethereum.org/EIPS/eip-1155#metadata-extensions[guarantees] that `value` will equal the value returned by {IERC1155MetadataURI-uri}."
      },
      "Unpaused(address)": {
        "details": "Emitted when the pause is lifted by `account`."
      }
    },
    "kind": "dev",
    "methods": {
      "balanceOf(address,uint256)": {
        "details": "See {IERC1155-balanceOf}. Requirements: - `account` cannot be the zero address."
      },
      "balanceOfBatch(address[],uint256[])": {
        "details": "See {IERC1155-balanceOfBatch}. Requirements: - `accounts` and `ids` must have the same length."
      },
      "exists(uint256)": {
        "details": "Indicates whether any token exist with a given id, or not."
      },
      "getRoleAdmin(bytes32)": {
        "details": "Returns the admin role that controls `role`. See {grantRole} and {revokeRole}. To change a role's admin, use {_setRoleAdmin}."
      },
      "grantRole(bytes32,address)": {
        "details": "Grants `role` to `account`. If `account` had not been already granted `role`, emits a {RoleGranted} event. Requirements: - the caller must have ``role``'s admin role. May emit a {RoleGranted} event."
      },
      "hasRole(bytes32,address)": {
        "details": "Returns `true` if `account` has been granted `role`."
      },
      "isApprovedForAll(address,address)": {
        "details": "See {IERC1155-isApprovedForAll}."
      },
      "paused()": {
        "details": "Returns true if the contract is paused, and false otherwise."
      },
      "renounceRole(bytes32,address)": {
        "details": "Revokes `role` from the calling account. Roles are often managed via {grantRole} and {revokeRole}: this function's purpose is to provide a mechanism for accounts to lose their privileges if they are compromised (such as when a trusted device is misplaced). If the calling account had been revoked `role`, emits a {RoleRevoked} event. Requirements: - the caller must be `account`. May emit a {RoleRevoked} event."
      },
      "revokeRole(bytes32,address)": {
        "details": "Revokes `role` from `account`. If `account` had been granted `role`, emits a {RoleRevoked} event. Requirements: - the caller must have ``role``'s admin role. May emit a {RoleRevoked} event."
      },
      "safeBatchTransferFrom(address,address,uint256[],uint256[],bytes)": {
        "details": "See {IERC1155-safeBatchTransferFrom}."
      },
      "safeTransferFrom(address,address,uint256,uint256,bytes)": {
        "details": "See {IERC1155-safeTransferFrom}."
      },
      "setApprovalForAll(address,bool)": {
        "details": "See {IERC1155-setApprovalForAll}."
      },
      "totalSupply(uint256)": {
        "details": "Total amount of tokens in with a given id."
      },
      "uri(uint256)": {
        "details": "See {IERC1155MetadataURI-uri}. This implementation returns the same URI for *all* token types. It relies on the token type ID substitution mechanism https://eips.ethereum.org/EIPS/eip-1155#metadata[defined in the EIP]. Clients calling this function must replace the `\\{id\\}` substring with the actual token type ID."
      }
    },
    "version": 1
  },
  "userdoc": {
    "kind": "user",
    "methods": {},
    "version": 1
  }
}