{
  "contractName": "The_Ohara_Protocol",
  "abi": [
    {
      "inputs": [],
      "stateMutability": "nonpayable",
      "type": "constructor"
    },
    {
      "anonymous": false,
      "inputs": [
        {
          "indexed": true,
          "internalType": "address",
          "name": "account",
          "type": "address"
        },
        {
          "indexed": true,
          "internalType": "address",
          "name": "operator",
          "type": "address"
        },
        {
          "indexed": false,
          "internalType": "bool",
          "name": "approved",
          "type": "bool"
        }
      ],
      "name": "ApprovalForAll",
      "type": "event"
    },
    {
      "anonymous": false,
      "inputs": [
        {
          "indexed": false,
          "internalType": "uint8",
          "name": "version",
          "type": "uint8"
        }
      ],
      "name": "Initialized",
      "type": "event"
    },
    {
      "anonymous": false,
      "inputs": [
        {
          "indexed": false,
          "internalType": "address",
          "name": "account",
          "type": "address"
        }
      ],
      "name": "Paused",
      "type": "event"
    },
    {
      "anonymous": false,
      "inputs": [
        {
          "indexed": true,
          "internalType": "bytes32",
          "name": "role",
          "type": "bytes32"
        },
        {
          "indexed": true,
          "internalType": "bytes32",
          "name": "previousAdminRole",
          "type": "bytes32"
        },
        {
          "indexed": true,
          "internalType": "bytes32",
          "name": "newAdminRole",
          "type": "bytes32"
        }
      ],
      "name": "RoleAdminChanged",
      "type": "event"
    },
    {
      "anonymous": false,
      "inputs": [
        {
          "indexed": true,
          "internalType": "bytes32",
          "name": "role",
          "type": "bytes32"
        },
        {
          "indexed": true,
          "internalType": "address",
          "name": "account",
          "type": "address"
        },
        {
          "indexed": true,
          "internalType": "address",
          "name": "sender",
          "type": "address"
        }
      ],
      "name": "RoleGranted",
      "type": "event"
    },
    {
      "anonymous": false,
      "inputs": [
        {
          "indexed": true,
          "internalType": "bytes32",
          "name": "role",
          "type": "bytes32"
        },
        {
          "indexed": true,
          "internalType": "address",
          "name": "account",
          "type": "address"
        },
        {
          "indexed": true,
          "internalType": "address",
          "name": "sender",
          "type": "address"
        }
      ],
      "name": "RoleRevoked",
      "type": "event"
    },
    {
      "anonymous": false,
      "inputs": [
        {
          "indexed": true,
          "internalType": "address",
          "name": "operator",
          "type": "address"
        },
        {
          "indexed": true,
          "internalType": "address",
          "name": "from",
          "type": "address"
        },
        {
          "indexed": true,
          "internalType": "address",
          "name": "to",
          "type": "address"
        },
        {
          "indexed": false,
          "internalType": "uint256[]",
          "name": "ids",
          "type": "uint256[]"
        },
        {
          "indexed": false,
          "internalType": "uint256[]",
          "name": "values",
          "type": "uint256[]"
        }
      ],
      "name": "TransferBatch",
      "type": "event"
    },
    {
      "anonymous": false,
      "inputs": [
        {
          "indexed": true,
          "internalType": "address",
          "name": "operator",
          "type": "address"
        },
        {
          "indexed": true,
          "internalType": "address",
          "name": "from",
          "type": "address"
        },
        {
          "indexed": true,
          "internalType": "address",
          "name": "to",
          "type": "address"
        },
        {
          "indexed": false,
          "internalType": "uint256",
          "name": "id",
          "type": "uint256"
        },
        {
          "indexed": false,
          "internalType": "uint256",
          "name": "value",
          "type": "uint256"
        }
      ],
      "name": "TransferSingle",
      "type": "event"
    },
    {
      "anonymous": false,
      "inputs": [
        {
          "indexed": false,
          "internalType": "string",
          "name": "value",
          "type": "string"
        },
        {
          "indexed": true,
          "internalType": "uint256",
          "name": "id",
          "type": "uint256"
        }
      ],
      "name": "URI",
      "type": "event"
    },
    {
      "anonymous": false,
      "inputs": [
        {
          "indexed": false,
          "internalType": "address",
          "name": "account",
          "type": "address"
        }
      ],
      "name": "Unpaused",
      "type": "event"
    },
    {
      "inputs": [],
      "name": "DEFAULT_ADMIN_ROLE",
      "outputs": [
        {
          "internalType": "bytes32",
          "name": "",
          "type": "bytes32"
        }
      ],
      "stateMutability": "view",
      "type": "function"
    },
    {
      "inputs": [
        {
          "internalType": "uint256",
          "name": "id",
          "type": "uint256"
        }
      ],
      "name": "exists",
      "outputs": [
        {
          "internalType": "bool",
          "name": "",
          "type": "bool"
        }
      ],
      "stateMutability": "view",
      "type": "function"
    },
    {
      "inputs": [
        {
          "internalType": "bytes32",
          "name": "role",
          "type": "bytes32"
        },
        {
          "internalType": "address",
          "name": "account",
          "type": "address"
        }
      ],
      "name": "grantRole",
      "outputs": [],
      "stateMutability": "nonpayable",
      "type": "function"
    },
    {
      "inputs": [],
      "name": "paused",
      "outputs": [
        {
          "internalType": "bool",
          "name": "",
          "type": "bool"
        }
      ],
      "stateMutability": "view",
      "type": "function"
    },
    {
      "inputs": [
        {
          "internalType": "bytes32",
          "name": "role",
          "type": "bytes32"
        },
        {
          "internalType": "address",
          "name": "account",
          "type": "address"
        }
      ],
      "name": "renounceRole",
      "outputs": [],
      "stateMutability": "nonpayable",
      "type": "function"
    },
    {
      "inputs": [
        {
          "internalType": "bytes32",
          "name": "role",
          "type": "bytes32"
        },
        {
          "internalType": "address",
          "name": "account",
          "type": "address"
        }
      ],
      "name": "revokeRole",
      "outputs": [],
      "stateMutability": "nonpayable",
      "type": "function"
    },
    {
      "inputs": [
        {
          "internalType": "address",
          "name": "from",
          "type": "address"
        },
        {
          "internalType": "address",
          "name": "to",
          "type": "address"
        },
        {
          "internalType": "uint256[]",
          "name": "ids",
          "type": "uint256[]"
        },
        {
          "internalType": "uint256[]",
          "name": "amounts",
          "type": "uint256[]"
        },
        {
          "internalType": "bytes",
          "name": "data",
          "type": "bytes"
        }
      ],
      "name": "safeBatchTransferFrom",
      "outputs": [],
      "stateMutability": "nonpayable",
      "type": "function"
    },
    {
      "inputs": [
        {
          "internalType": "address",
          "name": "from",
          "type": "address"
        },
        {
          "internalType": "address",
          "name": "to",
          "type": "address"
        },
        {
          "internalType": "uint256",
          "name": "id",
          "type": "uint256"
        },
        {
          "internalType": "uint256",
          "name": "amount",
          "type": "uint256"
        },
        {
          "internalType": "bytes",
          "name": "data",
          "type": "bytes"
        }
      ],
      "name": "safeTransferFrom",
      "outputs": [],
      "stateMutability": "nonpayable",
      "type": "function"
    },
    {
      "inputs": [
        {
          "internalType": "uint256",
          "name": "id",
          "type": "uint256"
        }
      ],
      "name": "totalSupply",
      "outputs": [
        {
          "internalType": "uint256",
          "name": "",
          "type": "uint256"
        }
      ],
      "stateMutability": "view",
      "type": "function"
    },
    {
      "inputs": [
        {
          "internalType": "uint256",
          "name": "",
          "type": "uint256"
        }
      ],
      "name": "uri",
      "outputs": [
        {
          "internalType": "string",
          "name": "",
          "type": "string"
        }
      ],
      "stateMutability": "view",
      "type": "function"
    },
    {
      "inputs": [],
      "name": "initialize",
      "outputs": [],
      "stateMutability": "nonpayable",
      "type": "function"
    },
    {
      "inputs": [
        {
          "internalType": "string",
          "name": "newuri",
          "type": "string"
        }
      ],
      "name": "setURI",
      "outputs": [],
      "stateMutability": "nonpayable",
      "type": "function"
    },
    {
      "inputs": [
        {
          "internalType": "uint256",
          "name": "id",
          "type": "uint256"
        }
      ],
      "name": "getURIOfId",
      "outputs": [
        {
          "internalType": "string",
          "name": "",
          "type": "string"
        }
      ],
      "stateMutability": "view",
      "type": "function"
    },
    {
      "inputs": [
        {
          "internalType": "string",
          "name": "publisher",
          "type": "string"
        },
        {
          "internalType": "address",
          "name": "account",
          "type": "address"
        }
      ],
      "name": "grantPublisher",
      "outputs": [],
      "stateMutability": "nonpayable",
      "type": "function"
    },
    {
      "inputs": [
        {
          "internalType": "uint256",
          "name": "id",
          "type": "uint256"
        },
        {
          "internalType": "string",
          "name": "publisher",
          "type": "string"
        }
      ],
      "name": "setIdToPublisher",
      "outputs": [],
      "stateMutability": "nonpayable",
      "type": "function"
    },
    {
      "inputs": [
        {
          "internalType": "uint256",
          "name": "id",
          "type": "uint256"
        }
      ],
      "name": "idExists",
      "outputs": [
        {
          "internalType": "bool",
          "name": "",
          "type": "bool"
        }
      ],
      "stateMutability": "view",
      "type": "function"
    },
    {
      "inputs": [
        {
          "internalType": "string",
          "name": "publisher",
          "type": "string"
        },
        {
          "internalType": "address",
          "name": "account",
          "type": "address"
        }
      ],
      "name": "revokePublisher",
      "outputs": [],
      "stateMutability": "nonpayable",
      "type": "function"
    },
    {
      "inputs": [
        {
          "internalType": "string",
          "name": "role",
          "type": "string"
        },
        {
          "internalType": "address",
          "name": "account",
          "type": "address"
        }
      ],
      "name": "hasRole",
      "outputs": [
        {
          "internalType": "bool",
          "name": "",
          "type": "bool"
        }
      ],
      "stateMutability": "view",
      "type": "function"
    },
    {
      "inputs": [
        {
          "internalType": "bytes32",
          "name": "role",
          "type": "bytes32"
        },
        {
          "internalType": "address",
          "name": "account",
          "type": "address"
        }
      ],
      "name": "hasRole",
      "outputs": [
        {
          "internalType": "bool",
          "name": "",
          "type": "bool"
        }
      ],
      "stateMutability": "view",
      "type": "function"
    },
    {
      "inputs": [
        {
          "internalType": "bytes32",
          "name": "role",
          "type": "bytes32"
        }
      ],
      "name": "getRoleAdmin",
      "outputs": [
        {
          "internalType": "bytes32",
          "name": "",
          "type": "bytes32"
        }
      ],
      "stateMutability": "view",
      "type": "function"
    },
    {
      "inputs": [
        {
          "internalType": "string",
          "name": "role",
          "type": "string"
        }
      ],
      "name": "getRoleAdmin",
      "outputs": [
        {
          "internalType": "bytes32",
          "name": "",
          "type": "bytes32"
        }
      ],
      "stateMutability": "view",
      "type": "function"
    },
    {
      "inputs": [],
      "name": "pause",
      "outputs": [],
      "stateMutability": "nonpayable",
      "type": "function"
    },
    {
      "inputs": [],
      "name": "unpause",
      "outputs": [],
      "stateMutability": "nonpayable",
      "type": "function"
    },
    {
      "inputs": [
        {
          "internalType": "address",
          "name": "to",
          "type": "address"
        },
        {
          "internalType": "uint256",
          "name": "id",
          "type": "uint256"
        },
        {
          "internalType": "uint256",
          "name": "amount",
          "type": "uint256"
        },
        {
          "internalType": "bytes",
          "name": "data",
          "type": "bytes"
        }
      ],
      "name": "mint",
      "outputs": [],
      "stateMutability": "nonpayable",
      "type": "function"
    },
    {
      "inputs": [
        {
          "internalType": "address",
          "name": "to",
          "type": "address"
        },
        {
          "internalType": "uint256[]",
          "name": "ids",
          "type": "uint256[]"
        },
        {
          "internalType": "uint256[]",
          "name": "amounts",
          "type": "uint256[]"
        },
        {
          "internalType": "bytes",
          "name": "data",
          "type": "bytes"
        }
      ],
      "name": "mintBatch",
      "outputs": [],
      "stateMutability": "nonpayable",
      "type": "function"
    },
    {
      "inputs": [
        {
          "internalType": "address",
          "name": "from",
          "type": "address"
        },
        {
          "internalType": "uint256",
          "name": "id",
          "type": "uint256"
        },
        {
          "internalType": "uint256",
          "name": "amount",
          "type": "uint256"
        }
      ],
      "name": "burn",
      "outputs": [],
      "stateMutability": "nonpayable",
      "type": "function"
    },
    {
      "inputs": [
        {
          "internalType": "address",
          "name": "from",
          "type": "address"
        },
        {
          "internalType": "uint256[]",
          "name": "ids",
          "type": "uint256[]"
        },
        {
          "internalType": "uint256[]",
          "name": "amounts",
          "type": "uint256[]"
        }
      ],
      "name": "burnBatch",
      "outputs": [],
      "stateMutability": "nonpayable",
      "type": "function"
    },
    {
      "inputs": [
        {
          "internalType": "address",
          "name": "from",
          "type": "address"
        },
        {
          "internalType": "address",
          "name": "to",
          "type": "address"
        },
        {
          "internalType": "uint256",
          "name": "id",
          "type": "uint256"
        },
        {
          "internalType": "uint256",
          "name": "amount",
          "type": "uint256"
        },
        {
          "internalType": "bytes",
          "name": "data",
          "type": "bytes"
        }
      ],
      "name": "transfer",
      "outputs": [],
      "stateMutability": "nonpayable",
      "type": "function"
    },
    {
      "inputs": [
        {
          "internalType": "address",
          "name": "from",
          "type": "address"
        },
        {
          "internalType": "address",
          "name": "to",
          "type": "address"
        },
        {
          "internalType": "uint256[]",
          "name": "ids",
          "type": "uint256[]"
        },
        {
          "internalType": "uint256[]",
          "name": "amounts",
          "type": "uint256[]"
        },
        {
          "internalType": "bytes",
          "name": "data",
          "type": "bytes"
        }
      ],
      "name": "transferBatch",
      "outputs": [],
      "stateMutability": "nonpayable",
      "type": "function"
    },
    {
      "inputs": [
        {
          "internalType": "address",
          "name": "account",
          "type": "address"
        },
        {
          "internalType": "uint256",
          "name": "id",
          "type": "uint256"
        }
      ],
      "name": "balanceOf",
      "outputs": [
        {
          "internalType": "uint256",
          "name": "",
          "type": "uint256"
        }
      ],
      "stateMutability": "view",
      "type": "function"
    },
    {
      "inputs": [
        {
          "internalType": "address[]",
          "name": "accounts",
          "type": "address[]"
        },
        {
          "internalType": "uint256[]",
          "name": "ids",
          "type": "uint256[]"
        }
      ],
      "name": "balanceOfBatch",
      "outputs": [
        {
          "internalType": "uint256[]",
          "name": "",
          "type": "uint256[]"
        }
      ],
      "stateMutability": "view",
      "type": "function"
    },
    {
      "inputs": [
        {
          "internalType": "address",
          "name": "operator",
          "type": "address"
        },
        {
          "internalType": "bool",
          "name": "approved",
          "type": "bool"
        }
      ],
      "name": "setApprovalForAll",
      "outputs": [],
      "stateMutability": "nonpayable",
      "type": "function"
    },
    {
      "inputs": [
        {
          "internalType": "address",
          "name": "account",
          "type": "address"
        },
        {
          "internalType": "address",
          "name": "operator",
          "type": "address"
        }
      ],
      "name": "isApprovedForAll",
      "outputs": [
        {
          "internalType": "bool",
          "name": "",
          "type": "bool"
        }
      ],
      "stateMutability": "view",
      "type": "function"
    },
    {
      "inputs": [
        {
          "internalType": "uint256",
          "name": "id",
          "type": "uint256"
        }
      ],
      "name": "getIdSupply",
      "outputs": [
        {
          "internalType": "uint256",
          "name": "",
          "type": "uint256"
        }
      ],
      "stateMutability": "view",
      "type": "function"
    },
    {
      "inputs": [
        {
          "internalType": "uint256",
          "name": "id",
          "type": "uint256"
        },
        {
          "internalType": "address",
          "name": "seller",
          "type": "address"
        },
        {
          "internalType": "address",
          "name": "buyer",
          "type": "address"
        }
      ],
      "name": "checkIsBuyer",
      "outputs": [
        {
          "internalType": "int256",
          "name": "",
          "type": "int256"
        }
      ],
      "stateMutability": "view",
      "type": "function"
    },
    {
      "inputs": [
        {
          "internalType": "address",
          "name": "account",
          "type": "address"
        },
        {
          "internalType": "uint256",
          "name": "id",
          "type": "uint256"
        }
      ],
      "name": "listedBalanceOf",
      "outputs": [
        {
          "internalType": "uint256",
          "name": "",
          "type": "uint256"
        }
      ],
      "stateMutability": "view",
      "type": "function"
    },
    {
      "inputs": [
        {
          "internalType": "uint256",
          "name": "id",
          "type": "uint256"
        },
        {
          "internalType": "address",
          "name": "seller",
          "type": "address"
        },
        {
          "internalType": "uint256",
          "name": "price",
          "type": "uint256"
        },
        {
          "internalType": "uint256",
          "name": "amount",
          "type": "uint256"
        }
      ],
      "name": "listEBook",
      "outputs": [],
      "stateMutability": "nonpayable",
      "type": "function"
    },
    {
      "inputs": [
        {
          "internalType": "uint256",
          "name": "id",
          "type": "uint256"
        },
        {
          "internalType": "address",
          "name": "seller",
          "type": "address"
        },
        {
          "internalType": "uint256",
          "name": "price",
          "type": "uint256"
        }
      ],
      "name": "modifyPrice",
      "outputs": [],
      "stateMutability": "nonpayable",
      "type": "function"
    },
    {
      "inputs": [
        {
          "internalType": "uint256",
          "name": "id",
          "type": "uint256"
        },
        {
          "internalType": "address",
          "name": "seller",
          "type": "address"
        },
        {
          "internalType": "uint256",
          "name": "amount",
          "type": "uint256"
        }
      ],
      "name": "cancelListing",
      "outputs": [],
      "stateMutability": "nonpayable",
      "type": "function"
    },
    {
      "inputs": [
        {
          "internalType": "address",
          "name": "seller",
          "type": "address"
        },
        {
          "internalType": "address",
          "name": "buyer",
          "type": "address"
        },
        {
          "internalType": "uint256",
          "name": "id",
          "type": "uint256"
        }
      ],
      "name": "determineBuyer",
      "outputs": [],
      "stateMutability": "nonpayable",
      "type": "function"
    },
    {
      "inputs": [
        {
          "internalType": "uint256",
          "name": "id",
          "type": "uint256"
        },
        {
          "internalType": "address",
          "name": "seller",
          "type": "address"
        }
      ],
      "name": "purchaseEBook",
      "outputs": [],
      "stateMutability": "nonpayable",
      "type": "function"
    },
    {
      "inputs": [
        {
          "internalType": "bytes4",
          "name": "interfaceId",
          "type": "bytes4"
        }
      ],
      "name": "supportsInterface",
      "outputs": [
        {
          "internalType": "bool",
          "name": "",
          "type": "bool"
        }
      ],
      "stateMutability": "view",
      "type": "function"
    }
  ],
  "bytecode": "0x60806040523480156200001157600080fd5b50620000226200002860201b60201c565b620001d3565b600060019054906101000a900460ff16156200007b576040517f08c379a0000000000000000000000000000000000000000000000000000000008152600401620000729062000176565b60405180910390fd5b60ff801660008054906101000a900460ff1660ff161015620000ed5760ff6000806101000a81548160ff021916908360ff1602179055507f7f26b83ff96e1f2b6a682f133852f6798a09c465da95921460cefb384740249860ff604051620000e49190620001b6565b60405180910390a15b565b600082825260208201905092915050565b7f496e697469616c697a61626c653a20636f6e747261637420697320696e69746960008201527f616c697a696e6700000000000000000000000000000000000000000000000000602082015250565b60006200015e602783620000ef565b91506200016b8262000100565b604082019050919050565b6000602082019050818103600083015262000191816200014f565b9050919050565b600060ff82169050919050565b620001b08162000198565b82525050565b6000602082019050620001cd6000830184620001a5565b92915050565b61787480620001e36000396000f3fe608060405234801561001057600080fd5b506004361061025d5760003560e01c80635c975abb1161014657806391d14854116100c3578063be28585311610087578063be28585314610738578063d547741f14610754578063e3579fc514610770578063e985e9c5146107a0578063f242432a146107d0578063f5298aca146107ec5761025d565b806391d1485414610682578063a217fddf146106b2578063a22cb465146106d0578063a9171a72146106ec578063bd85b039146107085761025d565b80636fcfcb661161010a5780636fcfcb661461061a578063731133e9146106365780638129fc1c146106525780638456cb591461065c5780638ad094b5146106665761025d565b80635c975abb146105505780635ebb63651461056e578063672a41a11461059e5780636b20c454146105ce5780636c9cd097146105ea5761025d565b80631286c46d116101df57806336568abe116101a357806336568abe1461047e5780633f4ba83a1461049a5780634e1273f4146104a45780634f558e79146104d457806352509e97146105045780635a9807be146105205761025d565b80631286c46d146103de5780631f7fdffa146103fa578063248a9ca3146104165780632eb2c2d6146104465780632f2ff15d146104625761025d565b80630b8a295a116102265780630b8a295a1461032a5780630c8341431461035a5780630e89341c146103765780630ef5e267146103a6578063127217d6146103c25761025d565b8062fdd58e1461026257806301ad63bd1461029257806301ffc9a7146102ae57806302fe5305146102de5780630807a3bd146102fa575b600080fd5b61027c6004803603810190610277919061505c565b610808565b60405161028991906150ab565b60405180910390f35b6102ac60048036038101906102a7919061520c565b61081c565b005b6102c860048036038101906102c391906152c0565b61088c565b6040516102d59190615308565b60405180910390f35b6102f860048036038101906102f39190615323565b61089e565b005b610314600480360381019061030f919061536c565b6108c0565b6040516103219190615418565b60405180910390f35b610344600480360381019061033f919061536c565b6108fb565b6040516103519190615308565b60405180910390f35b610374600480360381019061036f919061543a565b61090d565b005b610390600480360381019061038b919061536c565b610d65565b60405161039d9190615418565b60405180910390f35b6103c060048036038101906103bb919061548d565b610df9565b005b6103dc60048036038101906103d79190615581565b61114a565b005b6103f860048036038101906103f39190615618565b61115e565b005b610414600480360381019061040f919061573c565b6111a0565b005b610430600480360381019061042b919061582d565b611209565b60405161043d9190615869565b60405180910390f35b610460600480360381019061045b9190615884565b611229565b005b61047c60048036038101906104779190615953565b6112ca565b005b61049860048036038101906104939190615953565b6112eb565b005b6104a261136e565b005b6104be60048036038101906104b99190615a56565b611386565b6040516104cb9190615b8c565b60405180910390f35b6104ee60048036038101906104e9919061536c565b61139a565b6040516104fb9190615308565b60405180910390f35b61051e60048036038101906105199190615618565b6113ae565b005b61053a6004803603810190610535919061536c565b611464565b60405161054791906150ab565b60405180910390f35b610558611476565b6040516105659190615308565b60405180910390f35b6105886004803603810190610583919061505c565b61148d565b60405161059591906150ab565b60405180910390f35b6105b860048036038101906105b39190615323565b6114ec565b6040516105c59190615869565b60405180910390f35b6105e860048036038101906105e39190615bae565b611524565b005b61060460048036038101906105ff9190615618565b611600565b6040516106119190615308565b60405180910390f35b610634600480360381019061062f9190615884565b61163a565b005b610650600480360381019061064b9190615c39565b61164e565b005b61065a61167f565b005b6106646117fa565b005b610680600480360381019061067b919061543a565b611812565b005b61069c60048036038101906106979190615953565b611b4b565b6040516106a99190615308565b60405180910390f35b6106ba611bb6565b6040516106c79190615869565b60405180910390f35b6106ea60048036038101906106e59190615ce8565b611bbd565b005b61070660048036038101906107019190615d28565b611bcb565b005b610722600480360381019061071d919061536c565b611ed0565b60405161072f91906150ab565b60405180910390f35b610752600480360381019061074d9190615d8f565b611eee565b005b61076e60048036038101906107699190615953565b61244a565b005b61078a60048036038101906107859190615dcf565b61246b565b6040516107979190615e3b565b60405180910390f35b6107ba60048036038101906107b59190615e56565b612647565b6040516107c79190615308565b60405180910390f35b6107ea60048036038101906107e59190615581565b61265b565b005b61080660048036038101906108019190615e96565b6126fc565b005b6000610814838361276c565b905092915050565b610824612835565b61015f6000838152602001908152602001600020546108428161287f565b6000826040516020016108559190615418565b6040516020818303038152906040528051906020012090508061015f60008681526020019081526020016000208190555050505050565b600061089782612893565b9050919050565b6108a6612835565b6000801b6108b38161287f565b6108bc8261290d565b5050565b60606108cb82610d65565b6108d483612920565b6040516020016108e5929190615f4b565b6040516020818303038152906040529050919050565b60006109068261139a565b9050919050565b826109178161139a565b610956576040517f08c379a000000000000000000000000000000000000000000000000000000000815260040161094d90615fca565b60405180910390fd5b816000811161099a576040517f08c379a000000000000000000000000000000000000000000000000000000000815260040161099190616036565b60405180910390fd5b83600073ffffffffffffffffffffffffffffffffffffffff168173ffffffffffffffffffffffffffffffffffffffff1603610a0a576040517f08c379a0000000000000000000000000000000000000000000000000000000008152600401610a01906160a2565b60405180910390fd5b84610a1533826129ee565b610a54576040517f08c379a0000000000000000000000000000000000000000000000000000000008152600401610a4b9061610e565b60405180910390fd5b86866000610161600084815260200190815260200160002060008373ffffffffffffffffffffffffffffffffffffffff1673ffffffffffffffffffffffffffffffffffffffff1681526020019081526020016000206001015411610aed576040517f08c379a0000000000000000000000000000000000000000000000000000000008152600401610ae49061617a565b60405180910390fd5b88886000610161600084815260200190815260200160002060008373ffffffffffffffffffffffffffffffffffffffff1673ffffffffffffffffffffffffffffffffffffffff1681526020019081526020016000206002015414610b86576040517f08c379a0000000000000000000000000000000000000000000000000000000008152600401610b7d906161e6565b60405180910390fd5b8861016160008d815260200190815260200160002060008c73ffffffffffffffffffffffffffffffffffffffff1673ffffffffffffffffffffffffffffffffffffffff168152602001908152602001600020600101541015610c1d576040517f08c379a0000000000000000000000000000000000000000000000000000000008152600401610c1490616252565b60405180910390fd5b8861016160008d815260200190815260200160002060008c73ffffffffffffffffffffffffffffffffffffffff1673ffffffffffffffffffffffffffffffffffffffff16815260200190815260200160002060010160008282540392505081905550600061016160008d815260200190815260200160002060008c73ffffffffffffffffffffffffffffffffffffffff1673ffffffffffffffffffffffffffffffffffffffff1681526020019081526020016000206001015403610d585761016160008c815260200190815260200160002060008b73ffffffffffffffffffffffffffffffffffffffff1673ffffffffffffffffffffffffffffffffffffffff16815260200190815260200160002060008082016000905560018201600090556002820160009055600382016000610d559190614f76565b50505b5050505050505050505050565b606060678054610d74906162a1565b80601f0160208091040260200160405190810160405280929190818152602001828054610da0906162a1565b8015610ded5780601f10610dc257610100808354040283529160200191610ded565b820191906000526020600020905b815481529060010190602001808311610dd057829003601f168201915b50505050509050919050565b6000801b610e068161287f565b81610e108161139a565b610e4f576040517f08c379a0000000000000000000000000000000000000000000000000000000008152600401610e4690615fca565b60405180910390fd5b84600073ffffffffffffffffffffffffffffffffffffffff168173ffffffffffffffffffffffffffffffffffffffff1603610ebf576040517f08c379a0000000000000000000000000000000000000000000000000000000008152600401610eb6906160a2565b60405180910390fd5b84600073ffffffffffffffffffffffffffffffffffffffff168173ffffffffffffffffffffffffffffffffffffffff1603610f2f576040517f08c379a0000000000000000000000000000000000000000000000000000000008152600401610f26906160a2565b60405180910390fd5b610161600086815260200190815260200160002060008873ffffffffffffffffffffffffffffffffffffffff1673ffffffffffffffffffffffffffffffffffffffff16815260200190815260200160002060020154610161600087815260200190815260200160002060008973ffffffffffffffffffffffffffffffffffffffff1673ffffffffffffffffffffffffffffffffffffffff1681526020019081526020016000206001015411611019576040517f08c379a00000000000000000000000000000000000000000000000000000000081526004016110109061631e565b60405180910390fd5b610161600086815260200190815260200160002060008873ffffffffffffffffffffffffffffffffffffffff1673ffffffffffffffffffffffffffffffffffffffff168152602001908152602001600020600301869080600181540180825580915050600190039060005260206000200160009091909190916101000a81548173ffffffffffffffffffffffffffffffffffffffff021916908373ffffffffffffffffffffffffffffffffffffffff160217905550610161600086815260200190815260200160002060008873ffffffffffffffffffffffffffffffffffffffff1673ffffffffffffffffffffffffffffffffffffffff16815260200190815260200160002060020160008154809291906111339061636d565b919050555061114187612a82565b50505050505050565b611157858585858561265b565b5050505050565b611166612835565b6000826040516020016111799190615418565b60405160208183030381529060405280519060200120905061119b818361244a565b505050565b8260005b81518110156111f5576111e461015f60008484815181106111c8576111c76163b5565b5b602002602001015181526020019081526020016000205461287f565b806111ee9061636d565b90506111a4565b5061120285858585612a91565b5050505050565b600060976000838152602001908152602001600020600101549050919050565b611231612cbe565b73ffffffffffffffffffffffffffffffffffffffff168573ffffffffffffffffffffffffffffffffffffffff161480611277575061127685611271612cbe565b612647565b5b6112b6576040517f08c379a00000000000000000000000000000000000000000000000000000000081526004016112ad90616456565b60405180910390fd5b6112c38585858585612cc6565b5050505050565b6112d382611209565b6112dc8161287f565b6112e68383612fea565b505050565b6112f3612cbe565b73ffffffffffffffffffffffffffffffffffffffff168173ffffffffffffffffffffffffffffffffffffffff1614611360576040517f08c379a0000000000000000000000000000000000000000000000000000000008152600401611357906164e8565b60405180910390fd5b61136a82826130cb565b5050565b6000801b61137b8161287f565b6113836131ad565b50565b60606113928383613210565b905092915050565b6000806113a683611ed0565b119050919050565b6113b6612835565b6000826040516020016113c99190615418565b6040516020818303038152906040528051906020012090506113eb81836112ca565b610160836040516113fc9190616508565b908152602001604051809103902060009054906101000a900460ff1661145f5760016101608460405161142f9190616508565b908152602001604051809103902060006101000a81548160ff02191690831515021790555061145e8182613329565b5b505050565b600061146f82611ed0565b9050919050565b600060c960009054906101000a900460ff16905090565b6000610161600083815260200190815260200160002060008473ffffffffffffffffffffffffffffffffffffffff1673ffffffffffffffffffffffffffffffffffffffff16815260200190815260200160002060010154905092915050565b600061151d826040516020016115029190615418565b60405160208183030381529060405280519060200120611209565b9050919050565b60005b82518110156115ef57818181518110611543576115426163b5565b5b602002602001015161156f85858481518110611562576115616163b5565b5b602002602001015161148d565b61159386868581518110611586576115856163b5565b5b6020026020010151610808565b61159d919061651f565b10156115de576040517f08c379a00000000000000000000000000000000000000000000000000000000081526004016115d5906165c5565b60405180910390fd5b806115e89061636d565b9050611527565b506115fb838383613385565b505050565b6000611632836040516020016116169190615418565b6040516020818303038152906040528051906020012083611b4b565b905092915050565b6116478585858585611229565b5050505050565b61015f60008481526020019081526020016000205461166c8161287f565b61167885858585613422565b5050505050565b60008060019054906101000a900460ff161590508080156116b05750600160008054906101000a900460ff1660ff16105b806116dd57506116bf306135d3565b1580156116dc5750600160008054906101000a900460ff1660ff16145b5b61171c576040517f08c379a000000000000000000000000000000000000000000000000000000000815260040161171390616657565b60405180910390fd5b60016000806101000a81548160ff021916908360ff1602179055508015611759576001600060016101000a81548160ff0219169083151502179055505b611771604051806020016040528060008152506135f6565b611779613651565b6117816136a2565b6117896136fb565b61179161374c565b61179e6000801b33612fea565b80156117f75760008060016101000a81548160ff0219169083151502179055507f7f26b83ff96e1f2b6a682f133852f6798a09c465da95921460cefb384740249860016040516117ee91906166c9565b60405180910390a15b50565b6000801b6118078161287f565b61180f61379d565b50565b8261181c8161139a565b61185b576040517f08c379a000000000000000000000000000000000000000000000000000000000815260040161185290615fca565b60405180910390fd5b816000811161189f576040517f08c379a000000000000000000000000000000000000000000000000000000000815260040161189690616036565b60405180910390fd5b83600073ffffffffffffffffffffffffffffffffffffffff168173ffffffffffffffffffffffffffffffffffffffff160361190f576040517f08c379a0000000000000000000000000000000000000000000000000000000008152600401611906906160a2565b60405180910390fd5b8461191a33826129ee565b611959576040517f08c379a00000000000000000000000000000000000000000000000000000000081526004016119509061610e565b60405180910390fd5b86866000610161600084815260200190815260200160002060008373ffffffffffffffffffffffffffffffffffffffff1673ffffffffffffffffffffffffffffffffffffffff16815260200190815260200160002060010154116119f2576040517f08c379a00000000000000000000000000000000000000000000000000000000081526004016119e99061617a565b60405180910390fd5b88886000610161600084815260200190815260200160002060008373ffffffffffffffffffffffffffffffffffffffff1673ffffffffffffffffffffffffffffffffffffffff1681526020019081526020016000206002015414611a8b576040517f08c379a0000000000000000000000000000000000000000000000000000000008152600401611a82906161e6565b60405180910390fd5b600061016160008d815260200190815260200160002060008c73ffffffffffffffffffffffffffffffffffffffff1673ffffffffffffffffffffffffffffffffffffffff1681526020019081526020016000206000015490508961016160008e815260200190815260200160002060008d73ffffffffffffffffffffffffffffffffffffffff1673ffffffffffffffffffffffffffffffffffffffff16815260200190815260200160002060000181905550505050505050505050505050565b60006097600084815260200190815260200160002060000160008373ffffffffffffffffffffffffffffffffffffffff1673ffffffffffffffffffffffffffffffffffffffff16815260200190815260200160002060009054906101000a900460ff16905092915050565b6000801b81565b611bc78282613800565b5050565b83611bd58161139a565b611c14576040517f08c379a0000000000000000000000000000000000000000000000000000000008152600401611c0b90615fca565b60405180910390fd5b8260008111611c58576040517f08c379a0000000000000000000000000000000000000000000000000000000008152600401611c4f90616036565b60405180910390fd5b8260008111611c9c576040517f08c379a0000000000000000000000000000000000000000000000000000000008152600401611c9390616036565b60405180910390fd5b85600073ffffffffffffffffffffffffffffffffffffffff168173ffffffffffffffffffffffffffffffffffffffff1603611d0c576040517f08c379a0000000000000000000000000000000000000000000000000000000008152600401611d03906160a2565b60405180910390fd5b86611d1733826129ee565b611d56576040517f08c379a0000000000000000000000000000000000000000000000000000000008152600401611d4d9061610e565b60405180910390fd5b8561016160008b815260200190815260200160002060008a73ffffffffffffffffffffffffffffffffffffffff1673ffffffffffffffffffffffffffffffffffffffff16815260200190815260200160002060010154611db68a8c610808565b611dc0919061651f565b1015611e01576040517f08c379a0000000000000000000000000000000000000000000000000000000008152600401611df890616730565b60405180910390fd5b8661016160008b815260200190815260200160002060008a73ffffffffffffffffffffffffffffffffffffffff1673ffffffffffffffffffffffffffffffffffffffff168152602001908152602001600020600001819055508561016160008b815260200190815260200160002060008a73ffffffffffffffffffffffffffffffffffffffff1673ffffffffffffffffffffffffffffffffffffffff1681526020019081526020016000206001016000828254611ebe9190616750565b92505081905550505050505050505050565b600061012d6000838152602001908152602001600020549050919050565b81611ef88161139a565b611f37576040517f08c379a0000000000000000000000000000000000000000000000000000000008152600401611f2e90615fca565b60405180910390fd5b81600073ffffffffffffffffffffffffffffffffffffffff168173ffffffffffffffffffffffffffffffffffffffff1603611fa7576040517f08c379a0000000000000000000000000000000000000000000000000000000008152600401611f9e906160a2565b60405180910390fd5b83836000610161600084815260200190815260200160002060008373ffffffffffffffffffffffffffffffffffffffff1673ffffffffffffffffffffffffffffffffffffffff1681526020019081526020016000206001015411612040576040517f08c379a00000000000000000000000000000000000000000000000000000000081526004016120379061617a565b60405180910390fd5b6000339050600061205288888461246b565b90507fffffffffffffffffffffffffffffffffffffffffffffffffffffffffffffffff81036120b6576040517f08c379a00000000000000000000000000000000000000000000000000000000081526004016120ad906167d0565b60405180910390fd5b600061016160008a815260200190815260200160002060008973ffffffffffffffffffffffffffffffffffffffff1673ffffffffffffffffffffffffffffffffffffffff16815260200190815260200160002060000154905061212c88848b60006040518060200160405280600081525061265b565b60008873ffffffffffffffffffffffffffffffffffffffff168260405161215290616821565b60006040518083038185875af1925050503d806000811461218f576040519150601f19603f3d011682016040523d82523d6000602084013e612194565b606091505b50509050806121d8576040517f08c379a00000000000000000000000000000000000000000000000000000000081526004016121cf90616882565b60405180910390fd5b6121e189613816565b61016160008b815260200190815260200160002060008a73ffffffffffffffffffffffffffffffffffffffff1673ffffffffffffffffffffffffffffffffffffffff1681526020019081526020016000206001016000815480929190612246906168a2565b919050555061016160008b815260200190815260200160002060008a73ffffffffffffffffffffffffffffffffffffffff1673ffffffffffffffffffffffffffffffffffffffff16815260200190815260200160002060020160008154809291906122b0906168a2565b9190505550600061016160008c815260200190815260200160002060008b73ffffffffffffffffffffffffffffffffffffffff1673ffffffffffffffffffffffffffffffffffffffff168152602001908152602001600020600301848154811061231d5761231c6163b5565b5b9060005260206000200160006101000a81548173ffffffffffffffffffffffffffffffffffffffff021916908373ffffffffffffffffffffffffffffffffffffffff160217905550600061016160008c815260200190815260200160002060008b73ffffffffffffffffffffffffffffffffffffffff1673ffffffffffffffffffffffffffffffffffffffff168152602001908152602001600020600101540361243e5761016160008b815260200190815260200160002060008a73ffffffffffffffffffffffffffffffffffffffff1673ffffffffffffffffffffffffffffffffffffffff1681526020019081526020016000206000808201600090556001820160009055600282016000905560038201600061243b9190614f76565b50505b50505050505050505050565b61245382611209565b61245c8161287f565b61246683836130cb565b505050565b600080610161600086815260200190815260200160002060008573ffffffffffffffffffffffffffffffffffffffff1673ffffffffffffffffffffffffffffffffffffffff1681526020019081526020016000206003018054905090506000610161600087815260200190815260200160002060008673ffffffffffffffffffffffffffffffffffffffff1673ffffffffffffffffffffffffffffffffffffffff16815260200190815260200160002060030180548060200260200160405190810160405280929190818152602001828054801561259e57602002820191906000526020600020905b8160009054906101000a900473ffffffffffffffffffffffffffffffffffffffff1673ffffffffffffffffffffffffffffffffffffffff1681526020019060010190808311612554575b5050505050905060005b82811015612619578473ffffffffffffffffffffffffffffffffffffffff168282815181106125da576125d96163b5565b5b602002602001015173ffffffffffffffffffffffffffffffffffffffff160361260857809350505050612640565b806126129061636d565b90506125a8565b507fffffffffffffffffffffffffffffffffffffffffffffffffffffffffffffffff925050505b9392505050565b600061265383836129ee565b905092915050565b612663612cbe565b73ffffffffffffffffffffffffffffffffffffffff168573ffffffffffffffffffffffffffffffffffffffff1614806126a957506126a8856126a3612cbe565b612647565b5b6126e8576040517f08c379a00000000000000000000000000000000000000000000000000000000081526004016126df90616456565b60405180910390fd5b6126f58585858585613825565b5050505050565b80612707848461148d565b6127118585610808565b61271b919061651f565b101561275c576040517f08c379a0000000000000000000000000000000000000000000000000000000008152600401612753906165c5565b60405180910390fd5b612767838383613ac3565b505050565b60008073ffffffffffffffffffffffffffffffffffffffff168373ffffffffffffffffffffffffffffffffffffffff16036127dc576040517f08c379a00000000000000000000000000000000000000000000000000000000081526004016127d39061693d565b60405180910390fd5b6065600083815260200190815260200160002060008473ffffffffffffffffffffffffffffffffffffffff1673ffffffffffffffffffffffffffffffffffffffff16815260200190815260200160002054905092915050565b61283d611476565b1561287d576040517f08c379a0000000000000000000000000000000000000000000000000000000008152600401612874906169a9565b60405180910390fd5b565b6128908161288b612cbe565b613b60565b50565b60007f7965db0b000000000000000000000000000000000000000000000000000000007bffffffffffffffffffffffffffffffffffffffffffffffffffffffff1916827bffffffffffffffffffffffffffffffffffffffffffffffffffffffff19161480612906575061290582613be5565b5b9050919050565b806067908161291c9190616b6b565b5050565b60606000600161292f84613cc7565b01905060008167ffffffffffffffff81111561294e5761294d6150e1565b5b6040519080825280601f01601f1916602001820160405280156129805781602001600182028036833780820191505090505b509050600082602001820190505b6001156129e3578080600190039150507f3031323334353637383961626364656600000000000000000000000000000000600a86061a8153600a85816129d7576129d6616c3d565b5b0494506000850361298e575b819350505050919050565b6000606660008473ffffffffffffffffffffffffffffffffffffffff1673ffffffffffffffffffffffffffffffffffffffff16815260200190815260200160002060008373ffffffffffffffffffffffffffffffffffffffff1673ffffffffffffffffffffffffffffffffffffffff16815260200190815260200160002060009054906101000a900460ff16905092915050565b612a8e81306001613e1a565b50565b600073ffffffffffffffffffffffffffffffffffffffff168473ffffffffffffffffffffffffffffffffffffffff1603612b00576040517f08c379a0000000000000000000000000000000000000000000000000000000008152600401612af790616cde565b60405180910390fd5b8151835114612b44576040517f08c379a0000000000000000000000000000000000000000000000000000000008152600401612b3b90616d70565b60405180910390fd5b6000612b4e612cbe565b9050612b5f81600087878787613f86565b60005b8451811015612c1957838181518110612b7e57612b7d6163b5565b5b602002602001015160656000878481518110612b9d57612b9c6163b5565b5b6020026020010151815260200190815260200160002060008873ffffffffffffffffffffffffffffffffffffffff1673ffffffffffffffffffffffffffffffffffffffff1681526020019081526020016000206000828254612bff9190616750565b925050819055508080612c119061636d565b915050612b62565b508473ffffffffffffffffffffffffffffffffffffffff16600073ffffffffffffffffffffffffffffffffffffffff168273ffffffffffffffffffffffffffffffffffffffff167f4a39dc06d4c0dbc64b70af90fd698a233a518aa5d07e595d983b8c0526c8f7fb8787604051612c91929190616d90565b60405180910390a4612ca881600087878787614070565b612cb781600087878787614078565b5050505050565b600033905090565b8151835114612d0a576040517f08c379a0000000000000000000000000000000000000000000000000000000008152600401612d0190616d70565b60405180910390fd5b600073ffffffffffffffffffffffffffffffffffffffff168473ffffffffffffffffffffffffffffffffffffffff1603612d79576040517f08c379a0000000000000000000000000000000000000000000000000000000008152600401612d7090616e39565b60405180910390fd5b6000612d83612cbe565b9050612d93818787878787613f86565b60005b8451811015612f47576000858281518110612db457612db36163b5565b5b602002602001015190506000858381518110612dd357612dd26163b5565b5b6020026020010151905060006065600084815260200190815260200160002060008b73ffffffffffffffffffffffffffffffffffffffff1673ffffffffffffffffffffffffffffffffffffffff16815260200190815260200160002054905081811015612e75576040517f08c379a0000000000000000000000000000000000000000000000000000000008152600401612e6c90616ecb565b60405180910390fd5b8181036065600085815260200190815260200160002060008c73ffffffffffffffffffffffffffffffffffffffff1673ffffffffffffffffffffffffffffffffffffffff16815260200190815260200160002081905550816065600085815260200190815260200160002060008b73ffffffffffffffffffffffffffffffffffffffff1673ffffffffffffffffffffffffffffffffffffffff1681526020019081526020016000206000828254612f2c9190616750565b9250508190555050505080612f409061636d565b9050612d96565b508473ffffffffffffffffffffffffffffffffffffffff168673ffffffffffffffffffffffffffffffffffffffff168273ffffffffffffffffffffffffffffffffffffffff167f4a39dc06d4c0dbc64b70af90fd698a233a518aa5d07e595d983b8c0526c8f7fb8787604051612fbe929190616d90565b60405180910390a4612fd4818787878787614070565b612fe2818787878787614078565b505050505050565b612ff48282611b4b565b6130c75760016097600084815260200190815260200160002060000160008373ffffffffffffffffffffffffffffffffffffffff1673ffffffffffffffffffffffffffffffffffffffff16815260200190815260200160002060006101000a81548160ff02191690831515021790555061306c612cbe565b73ffffffffffffffffffffffffffffffffffffffff168173ffffffffffffffffffffffffffffffffffffffff16837f2f8788117e7eff1d82e926ec794901d17c78024a50270940304540a733656f0d60405160405180910390a45b5050565b6130d58282611b4b565b156131a95760006097600084815260200190815260200160002060000160008373ffffffffffffffffffffffffffffffffffffffff1673ffffffffffffffffffffffffffffffffffffffff16815260200190815260200160002060006101000a81548160ff02191690831515021790555061314e612cbe565b73ffffffffffffffffffffffffffffffffffffffff168173ffffffffffffffffffffffffffffffffffffffff16837ff6391f5c32d9c69d2a47ea670b442974b53935d1edc7fd64eb21e047a839171b60405160405180910390a45b5050565b6131b561424f565b600060c960006101000a81548160ff0219169083151502179055507f5db9ee0a495bf2e6ff9c91a7834c1ba4fdd244a5e8aa4e537bd38aeae4b073aa6131f9612cbe565b6040516132069190616efa565b60405180910390a1565b60608151835114613256576040517f08c379a000000000000000000000000000000000000000000000000000000000815260040161324d90616f87565b60405180910390fd5b6000835167ffffffffffffffff811115613273576132726150e1565b5b6040519080825280602002602001820160405280156132a15781602001602082028036833780820191505090505b50905060005b845181101561331e576132ee8582815181106132c6576132c56163b5565b5b60200260200101518583815181106132e1576132e06163b5565b5b6020026020010151610808565b828281518110613301576133006163b5565b5b602002602001018181525050806133179061636d565b90506132a7565b508091505092915050565b600061333483611209565b90508160976000858152602001908152602001600020600101819055508181847fbd79b86ffe0ab8e8776151514217cd7cacd52c909f66475c3af44e129f0b00ff60405160405180910390a4505050565b61338d612cbe565b73ffffffffffffffffffffffffffffffffffffffff168373ffffffffffffffffffffffffffffffffffffffff1614806133d357506133d2836133cd612cbe565b612647565b5b613412576040517f08c379a000000000000000000000000000000000000000000000000000000000815260040161340990616456565b60405180910390fd5b61341d838383614298565b505050565b600073ffffffffffffffffffffffffffffffffffffffff168473ffffffffffffffffffffffffffffffffffffffff1603613491576040517f08c379a000000000000000000000000000000000000000000000000000000000815260040161348890616cde565b60405180910390fd5b600061349b612cbe565b905060006134a885614568565b905060006134b585614568565b90506134c683600089858589613f86565b846065600088815260200190815260200160002060008973ffffffffffffffffffffffffffffffffffffffff1673ffffffffffffffffffffffffffffffffffffffff16815260200190815260200160002060008282546135269190616750565b925050819055508673ffffffffffffffffffffffffffffffffffffffff16600073ffffffffffffffffffffffffffffffffffffffff168473ffffffffffffffffffffffffffffffffffffffff167fc3d58168c5ae7397731d063d5bbf3d657854427343f4c083240f7aacaa2d0f6289896040516135a4929190616fa7565b60405180910390a46135bb83600089858589614070565b6135ca836000898989896145e2565b50505050505050565b6000808273ffffffffffffffffffffffffffffffffffffffff163b119050919050565b600060019054906101000a900460ff16613645576040517f08c379a000000000000000000000000000000000000000000000000000000000815260040161363c90617042565b60405180910390fd5b61364e816147b9565b50565b600060019054906101000a900460ff166136a0576040517f08c379a000000000000000000000000000000000000000000000000000000000815260040161369790617042565b60405180910390fd5b565b600060019054906101000a900460ff166136f1576040517f08c379a00000000000000000000000000000000000000000000000000000000081526004016136e890617042565b60405180910390fd5b6136f9614814565b565b600060019054906101000a900460ff1661374a576040517f08c379a000000000000000000000000000000000000000000000000000000000815260040161374190617042565b60405180910390fd5b565b600060019054906101000a900460ff1661379b576040517f08c379a000000000000000000000000000000000000000000000000000000000815260040161379290617042565b60405180910390fd5b565b6137a5612835565b600160c960006101000a81548160ff0219169083151502179055507f62e78cea01bee320cd4e420270b5ea74000d11b0c9f74754ebdbfc544b05a2586137e9612cbe565b6040516137f69190616efa565b60405180910390a1565b61381261380b612cbe565b8383613e1a565b5050565b61382281306000613e1a565b50565b600073ffffffffffffffffffffffffffffffffffffffff168473ffffffffffffffffffffffffffffffffffffffff1603613894576040517f08c379a000000000000000000000000000000000000000000000000000000000815260040161388b90616e39565b60405180910390fd5b600061389e612cbe565b905060006138ab85614568565b905060006138b885614568565b90506138c8838989858589613f86565b60006065600088815260200190815260200160002060008a73ffffffffffffffffffffffffffffffffffffffff1673ffffffffffffffffffffffffffffffffffffffff16815260200190815260200160002054905085811015613960576040517f08c379a000000000000000000000000000000000000000000000000000000000815260040161395790616ecb565b60405180910390fd5b8581036065600089815260200190815260200160002060008b73ffffffffffffffffffffffffffffffffffffffff1673ffffffffffffffffffffffffffffffffffffffff16815260200190815260200160002081905550856065600089815260200190815260200160002060008a73ffffffffffffffffffffffffffffffffffffffff1673ffffffffffffffffffffffffffffffffffffffff1681526020019081526020016000206000828254613a179190616750565b925050819055508773ffffffffffffffffffffffffffffffffffffffff168973ffffffffffffffffffffffffffffffffffffffff168573ffffffffffffffffffffffffffffffffffffffff167fc3d58168c5ae7397731d063d5bbf3d657854427343f4c083240f7aacaa2d0f628a8a604051613a94929190616fa7565b60405180910390a4613aaa848a8a86868a614070565b613ab8848a8a8a8a8a6145e2565b505050505050505050565b613acb612cbe565b73ffffffffffffffffffffffffffffffffffffffff168373ffffffffffffffffffffffffffffffffffffffff161480613b115750613b1083613b0b612cbe565b612647565b5b613b50576040517f08c379a0000000000000000000000000000000000000000000000000000000008152600401613b4790616456565b60405180910390fd5b613b5b838383614880565b505050565b613b6a8282611b4b565b613be157613b7781614ac8565b613b858360001c6020614af5565b604051602001613b969291906170fa565b6040516020818303038152906040526040517f08c379a0000000000000000000000000000000000000000000000000000000008152600401613bd89190615418565b60405180910390fd5b5050565b60007fd9b67a26000000000000000000000000000000000000000000000000000000007bffffffffffffffffffffffffffffffffffffffffffffffffffffffff1916827bffffffffffffffffffffffffffffffffffffffffffffffffffffffff19161480613cb057507f0e89341c000000000000000000000000000000000000000000000000000000007bffffffffffffffffffffffffffffffffffffffffffffffffffffffff1916827bffffffffffffffffffffffffffffffffffffffffffffffffffffffff1916145b80613cc05750613cbf82614d31565b5b9050919050565b600080600090507a184f03e93ff9f4daa797ed6e38ed64bf6a1f0100000000000000008310613d25577a184f03e93ff9f4daa797ed6e38ed64bf6a1f0100000000000000008381613d1b57613d1a616c3d565b5b0492506040810190505b6d04ee2d6d415b85acef81000000008310613d62576d04ee2d6d415b85acef81000000008381613d5857613d57616c3d565b5b0492506020810190505b662386f26fc100008310613d9157662386f26fc100008381613d8757613d86616c3d565b5b0492506010810190505b6305f5e1008310613dba576305f5e1008381613db057613daf616c3d565b5b0492506008810190505b6127108310613ddf576127108381613dd557613dd4616c3d565b5b0492506004810190505b60648310613e025760648381613df857613df7616c3d565b5b0492506002810190505b600a8310613e11576001810190505b80915050919050565b8173ffffffffffffffffffffffffffffffffffffffff168373ffffffffffffffffffffffffffffffffffffffff1603613e88576040517f08c379a0000000000000000000000000000000000000000000000000000000008152600401613e7f906171a6565b60405180910390fd5b80606660008573ffffffffffffffffffffffffffffffffffffffff1673ffffffffffffffffffffffffffffffffffffffff16815260200190815260200160002060008473ffffffffffffffffffffffffffffffffffffffff1673ffffffffffffffffffffffffffffffffffffffff16815260200190815260200160002060006101000a81548160ff0219169083151502179055508173ffffffffffffffffffffffffffffffffffffffff168373ffffffffffffffffffffffffffffffffffffffff167f17307eab39ab6107e8899845ad3d59bd9653f200f220920489ca2b5937696c3183604051613f799190615308565b60405180910390a3505050565b613f8e612835565b60005b835181101561405957828181518110613fad57613fac6163b5565b5b6020026020010151613fd987868481518110613fcc57613fcb6163b5565b5b602002602001015161148d565b613ffd88878581518110613ff057613fef6163b5565b5b6020026020010151610808565b614007919061651f565b1015614048576040517f08c379a000000000000000000000000000000000000000000000000000000000815260040161403f90617212565b60405180910390fd5b806140529061636d565b9050613f91565b50614068868686868686614d9b565b505050505050565b505050505050565b6140978473ffffffffffffffffffffffffffffffffffffffff166135d3565b15614247578373ffffffffffffffffffffffffffffffffffffffff1663bc197c8187878686866040518663ffffffff1660e01b81526004016140dd959493929190617287565b6020604051808303816000875af192505050801561411957506040513d601f19601f820116820180604052508101906141169190617304565b60015b6141be5761412561733e565b806308c379a0036141815750614139617360565b806141445750614183565b806040517f08c379a00000000000000000000000000000000000000000000000000000000081526004016141789190615418565b60405180910390fd5b505b6040517f08c379a00000000000000000000000000000000000000000000000000000000081526004016141b590617462565b60405180910390fd5b63bc197c8160e01b7bffffffffffffffffffffffffffffffffffffffffffffffffffffffff1916817bffffffffffffffffffffffffffffffffffffffffffffffffffffffff191614614245576040517f08c379a000000000000000000000000000000000000000000000000000000000815260040161423c906174f4565b60405180910390fd5b505b505050505050565b614257611476565b614296576040517f08c379a000000000000000000000000000000000000000000000000000000000815260040161428d90617560565b60405180910390fd5b565b600073ffffffffffffffffffffffffffffffffffffffff168373ffffffffffffffffffffffffffffffffffffffff1603614307576040517f08c379a00000000000000000000000000000000000000000000000000000000081526004016142fe906175f2565b60405180910390fd5b805182511461434b576040517f08c379a000000000000000000000000000000000000000000000000000000000815260040161434290616d70565b60405180910390fd5b6000614355612cbe565b905061437581856000868660405180602001604052806000815250613f86565b60005b83518110156144c4576000848281518110614396576143956163b5565b5b6020026020010151905060008483815181106143b5576143b46163b5565b5b6020026020010151905060006065600084815260200190815260200160002060008973ffffffffffffffffffffffffffffffffffffffff1673ffffffffffffffffffffffffffffffffffffffff16815260200190815260200160002054905081811015614457576040517f08c379a000000000000000000000000000000000000000000000000000000000815260040161444e90617684565b60405180910390fd5b8181036065600085815260200190815260200160002060008a73ffffffffffffffffffffffffffffffffffffffff1673ffffffffffffffffffffffffffffffffffffffff1681526020019081526020016000208190555050505080806144bc9061636d565b915050614378565b50600073ffffffffffffffffffffffffffffffffffffffff168473ffffffffffffffffffffffffffffffffffffffff168273ffffffffffffffffffffffffffffffffffffffff167f4a39dc06d4c0dbc64b70af90fd698a233a518aa5d07e595d983b8c0526c8f7fb868660405161453c929190616d90565b60405180910390a461456281856000868660405180602001604052806000815250614070565b50505050565b60606000600167ffffffffffffffff811115614587576145866150e1565b5b6040519080825280602002602001820160405280156145b55781602001602082028036833780820191505090505b50905082816000815181106145cd576145cc6163b5565b5b60200260200101818152505080915050919050565b6146018473ffffffffffffffffffffffffffffffffffffffff166135d3565b156147b1578373ffffffffffffffffffffffffffffffffffffffff1663f23a6e6187878686866040518663ffffffff1660e01b81526004016146479594939291906176a4565b6020604051808303816000875af192505050801561468357506040513d601f19601f820116820180604052508101906146809190617304565b60015b6147285761468f61733e565b806308c379a0036146eb57506146a3617360565b806146ae57506146ed565b806040517f08c379a00000000000000000000000000000000000000000000000000000000081526004016146e29190615418565b60405180910390fd5b505b6040517f08c379a000000000000000000000000000000000000000000000000000000000815260040161471f90617462565b60405180910390fd5b63f23a6e6160e01b7bffffffffffffffffffffffffffffffffffffffffffffffffffffffff1916817bffffffffffffffffffffffffffffffffffffffffffffffffffffffff1916146147af576040517f08c379a00000000000000000000000000000000000000000000000000000000081526004016147a6906174f4565b60405180910390fd5b505b505050505050565b600060019054906101000a900460ff16614808576040517f08c379a00000000000000000000000000000000000000000000000000000000081526004016147ff90617042565b60405180910390fd5b6148118161290d565b50565b600060019054906101000a900460ff16614863576040517f08c379a000000000000000000000000000000000000000000000000000000000815260040161485a90617042565b60405180910390fd5b600060c960006101000a81548160ff021916908315150217905550565b600073ffffffffffffffffffffffffffffffffffffffff168373ffffffffffffffffffffffffffffffffffffffff16036148ef576040517f08c379a00000000000000000000000000000000000000000000000000000000081526004016148e6906175f2565b60405180910390fd5b60006148f9612cbe565b9050600061490684614568565b9050600061491384614568565b905061493383876000858560405180602001604052806000815250613f86565b60006065600087815260200190815260200160002060008873ffffffffffffffffffffffffffffffffffffffff1673ffffffffffffffffffffffffffffffffffffffff168152602001908152602001600020549050848110156149cb576040517f08c379a00000000000000000000000000000000000000000000000000000000081526004016149c290617684565b60405180910390fd5b8481036065600088815260200190815260200160002060008973ffffffffffffffffffffffffffffffffffffffff1673ffffffffffffffffffffffffffffffffffffffff16815260200190815260200160002081905550600073ffffffffffffffffffffffffffffffffffffffff168773ffffffffffffffffffffffffffffffffffffffff168573ffffffffffffffffffffffffffffffffffffffff167fc3d58168c5ae7397731d063d5bbf3d657854427343f4c083240f7aacaa2d0f628989604051614a99929190616fa7565b60405180910390a4614abf84886000868660405180602001604052806000815250614070565b50505050505050565b6060614aee8273ffffffffffffffffffffffffffffffffffffffff16601460ff16614af5565b9050919050565b606060006002836002614b0891906176fe565b614b129190616750565b67ffffffffffffffff811115614b2b57614b2a6150e1565b5b6040519080825280601f01601f191660200182016040528015614b5d5781602001600182028036833780820191505090505b5090507f300000000000000000000000000000000000000000000000000000000000000081600081518110614b9557614b946163b5565b5b60200101907effffffffffffffffffffffffffffffffffffffffffffffffffffffffffffff1916908160001a9053507f780000000000000000000000000000000000000000000000000000000000000081600181518110614bf957614bf86163b5565b5b60200101907effffffffffffffffffffffffffffffffffffffffffffffffffffffffffffff1916908160001a90535060006001846002614c3991906176fe565b614c439190616750565b90505b6001811115614ce3577f3031323334353637383961626364656600000000000000000000000000000000600f861660108110614c8557614c846163b5565b5b1a60f81b828281518110614c9c57614c9b6163b5565b5b60200101907effffffffffffffffffffffffffffffffffffffffffffffffffffffffffffff1916908160001a905350600485901c945080614cdc906168a2565b9050614c46565b5060008414614d27576040517f08c379a0000000000000000000000000000000000000000000000000000000008152600401614d1e9061778c565b60405180910390fd5b8091505092915050565b60007f01ffc9a7000000000000000000000000000000000000000000000000000000007bffffffffffffffffffffffffffffffffffffffffffffffffffffffff1916827bffffffffffffffffffffffffffffffffffffffffffffffffffffffff1916149050919050565b614da9868686868686614f6e565b600073ffffffffffffffffffffffffffffffffffffffff168573ffffffffffffffffffffffffffffffffffffffff1603614e5b5760005b8351811015614e5957828181518110614dfc57614dfb6163b5565b5b602002602001015161012d6000868481518110614e1c57614e1b6163b5565b5b602002602001015181526020019081526020016000206000828254614e419190616750565b9250508190555080614e529061636d565b9050614de0565b505b600073ffffffffffffffffffffffffffffffffffffffff168473ffffffffffffffffffffffffffffffffffffffff1603614f665760005b8351811015614f64576000848281518110614eb057614eaf6163b5565b5b602002602001015190506000848381518110614ecf57614ece6163b5565b5b60200260200101519050600061012d600084815260200190815260200160002054905081811015614f35576040517f08c379a0000000000000000000000000000000000000000000000000000000008152600401614f2c9061781e565b60405180910390fd5b81810361012d60008581526020019081526020016000208190555050505080614f5d9061636d565b9050614e92565b505b505050505050565b505050505050565b5080546000825590600052602060002090810190614f949190614f97565b50565b5b80821115614fb0576000816000905550600101614f98565b5090565b6000604051905090565b600080fd5b600080fd5b600073ffffffffffffffffffffffffffffffffffffffff82169050919050565b6000614ff382614fc8565b9050919050565b61500381614fe8565b811461500e57600080fd5b50565b60008135905061502081614ffa565b92915050565b6000819050919050565b61503981615026565b811461504457600080fd5b50565b60008135905061505681615030565b92915050565b6000806040838503121561507357615072614fbe565b5b600061508185828601615011565b925050602061509285828601615047565b9150509250929050565b6150a581615026565b82525050565b60006020820190506150c0600083018461509c565b92915050565b600080fd5b600080fd5b6000601f19601f8301169050919050565b7f4e487b7100000000000000000000000000000000000000000000000000000000600052604160045260246000fd5b615119826150d0565b810181811067ffffffffffffffff82111715615138576151376150e1565b5b80604052505050565b600061514b614fb4565b90506151578282615110565b919050565b600067ffffffffffffffff821115615177576151766150e1565b5b615180826150d0565b9050602081019050919050565b82818337600083830152505050565b60006151af6151aa8461515c565b615141565b9050828152602081018484840111156151cb576151ca6150cb565b5b6151d684828561518d565b509392505050565b600082601f8301126151f3576151f26150c6565b5b813561520384826020860161519c565b91505092915050565b6000806040838503121561522357615222614fbe565b5b600061523185828601615047565b925050602083013567ffffffffffffffff81111561525257615251614fc3565b5b61525e858286016151de565b9150509250929050565b60007fffffffff0000000000000000000000000000000000000000000000000000000082169050919050565b61529d81615268565b81146152a857600080fd5b50565b6000813590506152ba81615294565b92915050565b6000602082840312156152d6576152d5614fbe565b5b60006152e4848285016152ab565b91505092915050565b60008115159050919050565b615302816152ed565b82525050565b600060208201905061531d60008301846152f9565b92915050565b60006020828403121561533957615338614fbe565b5b600082013567ffffffffffffffff81111561535757615356614fc3565b5b615363848285016151de565b91505092915050565b60006020828403121561538257615381614fbe565b5b600061539084828501615047565b91505092915050565b600081519050919050565b600082825260208201905092915050565b60005b838110156153d35780820151818401526020810190506153b8565b60008484015250505050565b60006153ea82615399565b6153f481856153a4565b93506154048185602086016153b5565b61540d816150d0565b840191505092915050565b6000602082019050818103600083015261543281846153df565b905092915050565b60008060006060848603121561545357615452614fbe565b5b600061546186828701615047565b935050602061547286828701615011565b925050604061548386828701615047565b9150509250925092565b6000806000606084860312156154a6576154a5614fbe565b5b60006154b486828701615011565b93505060206154c586828701615011565b92505060406154d686828701615047565b9150509250925092565b600067ffffffffffffffff8211156154fb576154fa6150e1565b5b615504826150d0565b9050602081019050919050565b600061552461551f846154e0565b615141565b9050828152602081018484840111156155405761553f6150cb565b5b61554b84828561518d565b509392505050565b600082601f830112615568576155676150c6565b5b8135615578848260208601615511565b91505092915050565b600080600080600060a0868803121561559d5761559c614fbe565b5b60006155ab88828901615011565b95505060206155bc88828901615011565b94505060406155cd88828901615047565b93505060606155de88828901615047565b925050608086013567ffffffffffffffff8111156155ff576155fe614fc3565b5b61560b88828901615553565b9150509295509295909350565b6000806040838503121561562f5761562e614fbe565b5b600083013567ffffffffffffffff81111561564d5761564c614fc3565b5b615659858286016151de565b925050602061566a85828601615011565b9150509250929050565b600067ffffffffffffffff82111561568f5761568e6150e1565b5b602082029050602081019050919050565b600080fd5b60006156b86156b384615674565b615141565b905080838252602082019050602084028301858111156156db576156da6156a0565b5b835b8181101561570457806156f08882615047565b8452602084019350506020810190506156dd565b5050509392505050565b600082601f830112615723576157226150c6565b5b81356157338482602086016156a5565b91505092915050565b6000806000806080858703121561575657615755614fbe565b5b600061576487828801615011565b945050602085013567ffffffffffffffff81111561578557615784614fc3565b5b6157918782880161570e565b935050604085013567ffffffffffffffff8111156157b2576157b1614fc3565b5b6157be8782880161570e565b925050606085013567ffffffffffffffff8111156157df576157de614fc3565b5b6157eb87828801615553565b91505092959194509250565b6000819050919050565b61580a816157f7565b811461581557600080fd5b50565b60008135905061582781615801565b92915050565b60006020828403121561584357615842614fbe565b5b600061585184828501615818565b91505092915050565b615863816157f7565b82525050565b600060208201905061587e600083018461585a565b92915050565b600080600080600060a086880312156158a05761589f614fbe565b5b60006158ae88828901615011565b95505060206158bf88828901615011565b945050604086013567ffffffffffffffff8111156158e0576158df614fc3565b5b6158ec8882890161570e565b935050606086013567ffffffffffffffff81111561590d5761590c614fc3565b5b6159198882890161570e565b925050608086013567ffffffffffffffff81111561593a57615939614fc3565b5b61594688828901615553565b9150509295509295909350565b6000806040838503121561596a57615969614fbe565b5b600061597885828601615818565b925050602061598985828601615011565b9150509250929050565b600067ffffffffffffffff8211156159ae576159ad6150e1565b5b602082029050602081019050919050565b60006159d26159cd84615993565b615141565b905080838252602082019050602084028301858111156159f5576159f46156a0565b5b835b81811015615a1e5780615a0a8882615011565b8452602084019350506020810190506159f7565b5050509392505050565b600082601f830112615a3d57615a3c6150c6565b5b8135615a4d8482602086016159bf565b91505092915050565b60008060408385031215615a6d57615a6c614fbe565b5b600083013567ffffffffffffffff811115615a8b57615a8a614fc3565b5b615a9785828601615a28565b925050602083013567ffffffffffffffff811115615ab857615ab7614fc3565b5b615ac48582860161570e565b9150509250929050565b600081519050919050565b600082825260208201905092915050565b6000819050602082019050919050565b615b0381615026565b82525050565b6000615b158383615afa565b60208301905092915050565b6000602082019050919050565b6000615b3982615ace565b615b438185615ad9565b9350615b4e83615aea565b8060005b83811015615b7f578151615b668882615b09565b9750615b7183615b21565b925050600181019050615b52565b5085935050505092915050565b60006020820190508181036000830152615ba68184615b2e565b905092915050565b600080600060608486031215615bc757615bc6614fbe565b5b6000615bd586828701615011565b935050602084013567ffffffffffffffff811115615bf657615bf5614fc3565b5b615c028682870161570e565b925050604084013567ffffffffffffffff811115615c2357615c22614fc3565b5b615c2f8682870161570e565b9150509250925092565b60008060008060808587031215615c5357615c52614fbe565b5b6000615c6187828801615011565b9450506020615c7287828801615047565b9350506040615c8387828801615047565b925050606085013567ffffffffffffffff811115615ca457615ca3614fc3565b5b615cb087828801615553565b91505092959194509250565b615cc5816152ed565b8114615cd057600080fd5b50565b600081359050615ce281615cbc565b92915050565b60008060408385031215615cff57615cfe614fbe565b5b6000615d0d85828601615011565b9250506020615d1e85828601615cd3565b9150509250929050565b60008060008060808587031215615d4257615d41614fbe565b5b6000615d5087828801615047565b9450506020615d6187828801615011565b9350506040615d7287828801615047565b9250506060615d8387828801615047565b91505092959194509250565b60008060408385031215615da657615da5614fbe565b5b6000615db485828601615047565b9250506020615dc585828601615011565b9150509250929050565b600080600060608486031215615de857615de7614fbe565b5b6000615df686828701615047565b9350506020615e0786828701615011565b9250506040615e1886828701615011565b9150509250925092565b6000819050919050565b615e3581615e22565b82525050565b6000602082019050615e506000830184615e2c565b92915050565b60008060408385031215615e6d57615e6c614fbe565b5b6000615e7b85828601615011565b9250506020615e8c85828601615011565b9150509250929050565b600080600060608486031215615eaf57615eae614fbe565b5b6000615ebd86828701615011565b9350506020615ece86828701615047565b9250506040615edf86828701615047565b9150509250925092565b600081905092915050565b6000615eff82615399565b615f098185615ee9565b9350615f198185602086016153b5565b80840191505092915050565b7f2f00000000000000000000000000000000000000000000000000000000000000815250565b6000615f578285615ef4565b9150615f6282615f25565b600182019150615f728284615ef4565b91508190509392505050565b7f496e76616c696420494400000000000000000000000000000000000000000000600082015250565b6000615fb4600a836153a4565b9150615fbf82615f7e565b602082019050919050565b60006020820190508181036000830152615fe381615fa7565b9050919050565b7f496e76616c69642070726963652f616d6f756e74000000000000000000000000600082015250565b60006160206014836153a4565b915061602b82615fea565b602082019050919050565b6000602082019050818103600083015261604f81616013565b9050919050565b7f496e76616c696420616464726573730000000000000000000000000000000000600082015250565b600061608c600f836153a4565b915061609782616056565b602082019050919050565b600060208201905081810360008301526160bb8161607f565b9050919050565b7f556e617574686f72697a65640000000000000000000000000000000000000000600082015250565b60006160f8600c836153a4565b9150616103826160c2565b602082019050919050565b60006020820190508181036000830152616127816160eb565b9050919050565b7f6e6f74206c6973746564206f7220736f6c64206f757400000000000000000000600082015250565b60006161646016836153a4565b915061616f8261612e565b602082019050919050565b6000602082019050818103600083015261619381616157565b9050919050565b7f4275796572206861732064657465726d696e6564000000000000000000000000600082015250565b60006161d06014836153a4565b91506161db8261619a565b602082019050919050565b600060208201905081810360008301526161ff816161c3565b9050919050565b7f457863656564656420616d6f756e7420746f20756e6c69737400000000000000600082015250565b600061623c6019836153a4565b915061624782616206565b602082019050919050565b6000602082019050818103600083015261626b8161622f565b9050919050565b7f4e487b7100000000000000000000000000000000000000000000000000000000600052602260045260246000fd5b600060028204905060018216806162b957607f821691505b6020821081036162cc576162cb616272565b5b50919050565b7f4f7264657220616c6c2066756c66696c6c656400000000000000000000000000600082015250565b60006163086013836153a4565b9150616313826162d2565b602082019050919050565b60006020820190508181036000830152616337816162fb565b9050919050565b7f4e487b7100000000000000000000000000000000000000000000000000000000600052601160045260246000fd5b600061637882615026565b91507fffffffffffffffffffffffffffffffffffffffffffffffffffffffffffffffff82036163aa576163a961633e565b5b600182019050919050565b7f4e487b7100000000000000000000000000000000000000000000000000000000600052603260045260246000fd5b7f455243313135353a2063616c6c6572206973206e6f7420746f6b656e206f776e60008201527f6572206f7220617070726f766564000000000000000000000000000000000000602082015250565b6000616440602e836153a4565b915061644b826163e4565b604082019050919050565b6000602082019050818103600083015261646f81616433565b9050919050565b7f416363657373436f6e74726f6c3a2063616e206f6e6c792072656e6f756e636560008201527f20726f6c657320666f722073656c660000000000000000000000000000000000602082015250565b60006164d2602f836153a4565b91506164dd82616476565b604082019050919050565b60006020820190508181036000830152616501816164c5565b9050919050565b60006165148284615ef4565b915081905092915050565b600061652a82615026565b915061653583615026565b925082820390508181111561654d5761654c61633e565b5b92915050565b7f6275726e20616d6f756e74206578636565647320756e6c69737465642062616c60008201527f616e636500000000000000000000000000000000000000000000000000000000602082015250565b60006165af6024836153a4565b91506165ba82616553565b604082019050919050565b600060208201905081810360008301526165de816165a2565b9050919050565b7f496e697469616c697a61626c653a20636f6e747261637420697320616c72656160008201527f647920696e697469616c697a6564000000000000000000000000000000000000602082015250565b6000616641602e836153a4565b915061664c826165e5565b604082019050919050565b6000602082019050818103600083015261667081616634565b9050919050565b6000819050919050565b600060ff82169050919050565b6000819050919050565b60006166b36166ae6166a984616677565b61668e565b616681565b9050919050565b6166c381616698565b82525050565b60006020820190506166de60008301846166ba565b92915050565b7f496e73656666696369656e742062616c616e636520746f206c69737400000000600082015250565b600061671a601c836153a4565b9150616725826166e4565b602082019050919050565b600060208201905081810360008301526167498161670d565b9050919050565b600061675b82615026565b915061676683615026565b925082820190508082111561677e5761677d61633e565b5b92915050565b7f43616c6c6572206973206e6f7420627579657200000000000000000000000000600082015250565b60006167ba6013836153a4565b91506167c582616784565b602082019050919050565b600060208201905081810360008301526167e9816167ad565b9050919050565b600081905092915050565b50565b600061680b6000836167f0565b9150616816826167fb565b600082019050919050565b600061682c826167fe565b9150819050919050565b7f427579696e67206661696c656400000000000000000000000000000000000000600082015250565b600061686c600d836153a4565b915061687782616836565b602082019050919050565b6000602082019050818103600083015261689b8161685f565b9050919050565b60006168ad82615026565b9150600082036168c0576168bf61633e565b5b600182039050919050565b7f455243313135353a2061646472657373207a65726f206973206e6f742061207660008201527f616c6964206f776e657200000000000000000000000000000000000000000000602082015250565b6000616927602a836153a4565b9150616932826168cb565b604082019050919050565b600060208201905081810360008301526169568161691a565b9050919050565b7f5061757361626c653a2070617573656400000000000000000000000000000000600082015250565b60006169936010836153a4565b915061699e8261695d565b602082019050919050565b600060208201905081810360008301526169c281616986565b9050919050565b60008190508160005260206000209050919050565b60006020601f8301049050919050565b600082821b905092915050565b600060088302616a2b7fffffffffffffffffffffffffffffffffffffffffffffffffffffffffffffffff826169ee565b616a3586836169ee565b95508019841693508086168417925050509392505050565b6000616a68616a63616a5e84615026565b61668e565b615026565b9050919050565b6000819050919050565b616a8283616a4d565b616a96616a8e82616a6f565b8484546169fb565b825550505050565b600090565b616aab616a9e565b616ab6818484616a79565b505050565b5b81811015616ada57616acf600082616aa3565b600181019050616abc565b5050565b601f821115616b1f57616af0816169c9565b616af9846169de565b81016020851015616b08578190505b616b1c616b14856169de565b830182616abb565b50505b505050565b600082821c905092915050565b6000616b4260001984600802616b24565b1980831691505092915050565b6000616b5b8383616b31565b9150826002028217905092915050565b616b7482615399565b67ffffffffffffffff811115616b8d57616b8c6150e1565b5b616b9782546162a1565b616ba2828285616ade565b600060209050601f831160018114616bd55760008415616bc3578287015190505b616bcd8582616b4f565b865550616c35565b601f198416616be3866169c9565b60005b82811015616c0b57848901518255600182019150602085019450602081019050616be6565b86831015616c285784890151616c24601f891682616b31565b8355505b6001600288020188555050505b505050505050565b7f4e487b7100000000000000000000000000000000000000000000000000000000600052601260045260246000fd5b7f455243313135353a206d696e7420746f20746865207a65726f2061646472657360008201527f7300000000000000000000000000000000000000000000000000000000000000602082015250565b6000616cc86021836153a4565b9150616cd382616c6c565b604082019050919050565b60006020820190508181036000830152616cf781616cbb565b9050919050565b7f455243313135353a2069647320616e6420616d6f756e7473206c656e6774682060008201527f6d69736d61746368000000000000000000000000000000000000000000000000602082015250565b6000616d5a6028836153a4565b9150616d6582616cfe565b604082019050919050565b60006020820190508181036000830152616d8981616d4d565b9050919050565b60006040820190508181036000830152616daa8185615b2e565b90508181036020830152616dbe8184615b2e565b90509392505050565b7f455243313135353a207472616e7366657220746f20746865207a65726f20616460008201527f6472657373000000000000000000000000000000000000000000000000000000602082015250565b6000616e236025836153a4565b9150616e2e82616dc7565b604082019050919050565b60006020820190508181036000830152616e5281616e16565b9050919050565b7f455243313135353a20696e73756666696369656e742062616c616e636520666f60008201527f72207472616e7366657200000000000000000000000000000000000000000000602082015250565b6000616eb5602a836153a4565b9150616ec082616e59565b604082019050919050565b60006020820190508181036000830152616ee481616ea8565b9050919050565b616ef481614fe8565b82525050565b6000602082019050616f0f6000830184616eeb565b92915050565b7f455243313135353a206163636f756e747320616e6420696473206c656e67746860008201527f206d69736d617463680000000000000000000000000000000000000000000000602082015250565b6000616f716029836153a4565b9150616f7c82616f15565b604082019050919050565b60006020820190508181036000830152616fa081616f64565b9050919050565b6000604082019050616fbc600083018561509c565b616fc9602083018461509c565b9392505050565b7f496e697469616c697a61626c653a20636f6e7472616374206973206e6f74206960008201527f6e697469616c697a696e67000000000000000000000000000000000000000000602082015250565b600061702c602b836153a4565b915061703782616fd0565b604082019050919050565b6000602082019050818103600083015261705b8161701f565b9050919050565b7f416363657373436f6e74726f6c3a206163636f756e7420000000000000000000600082015250565b6000617098601783615ee9565b91506170a382617062565b601782019050919050565b7f206973206d697373696e6720726f6c6520000000000000000000000000000000600082015250565b60006170e4601183615ee9565b91506170ef826170ae565b601182019050919050565b60006171058261708b565b91506171118285615ef4565b915061711c826170d7565b91506171288284615ef4565b91508190509392505050565b7f455243313135353a2073657474696e6720617070726f76616c2073746174757360008201527f20666f722073656c660000000000000000000000000000000000000000000000602082015250565b60006171906029836153a4565b915061719b82617134565b604082019050919050565b600060208201905081810360008301526171bf81617183565b9050919050565b7f496e73756666696369656e742062616c616e636520746f207472616e73666572600082015250565b60006171fc6020836153a4565b9150617207826171c6565b602082019050919050565b6000602082019050818103600083015261722b816171ef565b9050919050565b600081519050919050565b600082825260208201905092915050565b600061725982617232565b617263818561723d565b93506172738185602086016153b5565b61727c816150d0565b840191505092915050565b600060a08201905061729c6000830188616eeb565b6172a96020830187616eeb565b81810360408301526172bb8186615b2e565b905081810360608301526172cf8185615b2e565b905081810360808301526172e3818461724e565b90509695505050505050565b6000815190506172fe81615294565b92915050565b60006020828403121561731a57617319614fbe565b5b6000617328848285016172ef565b91505092915050565b60008160e01c9050919050565b600060033d111561735d5760046000803e61735a600051617331565b90505b90565b600060443d106173ed57617372614fb4565b60043d036004823e80513d602482011167ffffffffffffffff8211171561739a5750506173ed565b808201805167ffffffffffffffff8111156173b857505050506173ed565b80602083010160043d0385018111156173d55750505050506173ed565b6173e482602001850186615110565b82955050505050505b90565b7f455243313135353a207472616e7366657220746f206e6f6e2d4552433131353560008201527f526563656976657220696d706c656d656e746572000000000000000000000000602082015250565b600061744c6034836153a4565b9150617457826173f0565b604082019050919050565b6000602082019050818103600083015261747b8161743f565b9050919050565b7f455243313135353a204552433131353552656365697665722072656a6563746560008201527f6420746f6b656e73000000000000000000000000000000000000000000000000602082015250565b60006174de6028836153a4565b91506174e982617482565b604082019050919050565b6000602082019050818103600083015261750d816174d1565b9050919050565b7f5061757361626c653a206e6f7420706175736564000000000000000000000000600082015250565b600061754a6014836153a4565b915061755582617514565b602082019050919050565b600060208201905081810360008301526175798161753d565b9050919050565b7f455243313135353a206275726e2066726f6d20746865207a65726f206164647260008201527f6573730000000000000000000000000000000000000000000000000000000000602082015250565b60006175dc6023836153a4565b91506175e782617580565b604082019050919050565b6000602082019050818103600083015261760b816175cf565b9050919050565b7f455243313135353a206275726e20616d6f756e7420657863656564732062616c60008201527f616e636500000000000000000000000000000000000000000000000000000000602082015250565b600061766e6024836153a4565b915061767982617612565b604082019050919050565b6000602082019050818103600083015261769d81617661565b9050919050565b600060a0820190506176b96000830188616eeb565b6176c66020830187616eeb565b6176d3604083018661509c565b6176e0606083018561509c565b81810360808301526176f2818461724e565b90509695505050505050565b600061770982615026565b915061771483615026565b925082820261772281615026565b915082820484148315176177395761773861633e565b5b5092915050565b7f537472696e67733a20686578206c656e67746820696e73756666696369656e74600082015250565b60006177766020836153a4565b915061778182617740565b602082019050919050565b600060208201905081810360008301526177a581617769565b9050919050565b7f455243313135353a206275726e20616d6f756e74206578636565647320746f7460008201527f616c537570706c79000000000000000000000000000000000000000000000000602082015250565b60006178086028836153a4565b9150617813826177ac565b604082019050919050565b60006020820190508181036000830152617837816177fb565b905091905056fea26469706673582212204209cfe8f50cb477eb3994baf6c2e68a836a139d0de1442f7de830a483482ea364736f6c63430008130033",
  "immutableReferences": {},
  "source": "// SPDX-License-Identifier: MIT\r\npragma solidity ^0.8.7;\r\n\r\nimport \"../node_modules/@openzeppelin/contracts-upgradeable/token/ERC1155/ERC1155Upgradeable.sol\";\r\nimport \"../node_modules/@openzeppelin/contracts-upgradeable/access/AccessControlUpgradeable.sol\";\r\nimport \"../node_modules/@openzeppelin/contracts-upgradeable/security/PausableUpgradeable.sol\";\r\nimport \"../node_modules/@openzeppelin/contracts-upgradeable/token/ERC1155/extensions/ERC1155BurnableUpgradeable.sol\";\r\nimport \"../node_modules/@openzeppelin/contracts-upgradeable/token/ERC1155/extensions/ERC1155SupplyUpgradeable.sol\";\r\nimport \"../node_modules/@openzeppelin/contracts-upgradeable/proxy/utils/Initializable.sol\";\r\nimport \"../node_modules/@openzeppelin/contracts-upgradeable/utils/StringsUpgradeable.sol\";\r\nimport \"./Market.sol\";\r\n\r\n/// @custom:security-contact dodo920306@gmail.com\r\ncontract The_Ohara_Protocol is Initializable, ERC1155Upgradeable, AccessControlUpgradeable, PausableUpgradeable, ERC1155BurnableUpgradeable, ERC1155SupplyUpgradeable {\r\n    \r\n    mapping (uint256 => bytes32) idToPublisher; // Anyone can check which publisher an id belongs to.\r\n    mapping (string => bool) publisherHasMember;\r\n\r\n    struct Listing {\r\n        uint256 price; // \r\n        uint256 listedBalance; // \r\n        uint256 buyerCounts; // \r\n        address[] buyers; // \r\n    }\r\n    \r\n    mapping (uint256 => mapping (address => Listing)) listings; // id => seller => Listing\r\n\r\n    //event EBookListed(uint256 indexed id, address indexed seller, uint256 indexed price, uint256 amount);\r\n    //event PriceModified(uint256 indexed id, address priceModifier, uint256 indexed originalPrice, uint256 indexed currentPrice);\r\n    //event ListingCancelled(uint256 indexed id, address indexed seller, address indexed canceller);\r\n    //event BuyerDetermined(uint256 indexed id, address indexed seller, address indexed buyer);\r\n    //event TransactionMade(address indexed seller, address indexed buyer, uint256 indexed id);\r\n\r\n    modifier isIdExisted(uint256 id) {\r\n        require(super.exists(id), \"Invalid ID\");\r\n        _;\r\n    }\r\n\r\n    modifier IsPriceOrAmountValid(uint256 priceOrAmount) {\r\n        require(priceOrAmount > 0, \"Invalid price/amount\");\r\n        _;\r\n    }\r\n\r\n    modifier isApproved(address seller) {\r\n        require(super.isApprovedForAll(msg.sender, seller), \"Unauthorized\");\r\n        _;\r\n    }\r\n\r\n    modifier isAddressValid(address addr) {\r\n        require(addr != address(0), \"Invalid address\");\r\n        _;\r\n    }\r\n\r\n    modifier IsEBookAvailableOnOrder(uint256 id, address seller) {  // /\r\n        require(listings[id][seller].listedBalance > 0, \"not listed or sold out\");\r\n        _;\r\n    }\r\n\r\n    modifier IsBuyerDetermined(uint256 id, address seller) {  //  determineBuyer\r\n        require(listings[id][seller].buyerCounts == 0, \"Buyer has determined\");\r\n        _;\r\n    }\r\n\r\n    /// @custom:oz-upgrades-unsafe-allow constructor\r\n    constructor() {\r\n        _disableInitializers();\r\n    }\r\n\r\n    // There's no onlyPublisherSingle, for that it basically equals to onlyRole modifier from AccessControl. \r\n    modifier onlyPublisherBatch(uint256[] memory ids) {\r\n        for (uint256 i = 0; i < ids.length; ++i) {\r\n            _checkRole(idToPublisher[ids[i]]);\r\n        }\r\n        _;\r\n    }\r\n\r\n    function initialize() initializer public {\r\n        __ERC1155_init(\"\");\r\n        __AccessControl_init();\r\n        __Pausable_init();\r\n        __ERC1155Burnable_init();\r\n        __ERC1155Supply_init();\r\n\r\n        _grantRole(DEFAULT_ADMIN_ROLE, msg.sender);\r\n    }\r\n\r\n    function setURI(string memory newuri) public whenNotPaused onlyRole(DEFAULT_ADMIN_ROLE) { // Tim: added whenNotPaused\r\n        _setURI(newuri);\r\n    }\r\n\r\n    // Tim: get the actual e-book uri, may require further modifications\r\n    // Tim: using toString() for getURIOfId()\r\n    using StringsUpgradeable for uint256;   \r\n    function getURIOfId(uint256 id) public view returns(string memory) {\r\n        return string.concat(super.uri(id), \"/\", id.toString());\r\n    }\r\n\r\n    /**\r\n     * @dev The publisher who wants to claim an account belongs to them must use this function\r\n     * with the magic string that represents themselves.\r\n     * \r\n     * The function will uses keccak256 solidity function to hash this string, but before that, it must be represented as bytes32.\r\n     * The type conversion from \"string memory\" to \"bytes32\" isn't allowed, so we use abi.encode() here.\r\n     * See https://ethereum.stackexchange.com/questions/119583/when-to-use-abi-encode-abi-encodepacked-or-abi-encodewithsignature-in-solidity\r\n     * for the reason of this selection.\r\n     * \r\n     * After that, we use grantRole() function from AccessControl,\r\n     * the reason we don't directly use _grantRole() here is because the onlyRole(getRoleAdmin(role)) should also be passed in this operation,\r\n     * and since grantRole() has that modifier originally, the current function doesn't require any modifier yet,\r\n     * and there's no need to be afraid that anyone hash others' magic string and directly call grantRole() because there's no way he/she can be the admin.\r\n     * \r\n     * If it's the first member to be added in the publisher,\r\n     * the msg.sender must be DEFAULT_ADMIN_ROLE to pass onlyRole(getRoleAdmin(role)) for that there's no way to set admin to others.\r\n     * If so, then the function would call _setRoleAdmin() to release the admin power to the publisher itself,\r\n     * indicating that from this point on, only the publisher can manage which accounts can act on its behalf.\r\n     * \r\n     * The only risk would be that a hacker steal one private key from DEFAULT_ADMIN_ROLE,\r\n     * in that case, the worse he/she can do is grant his/her accounts the publisher role that \"hasn't been registered yet\",\r\n     * for that the admins of the publishers already in the protocol can only be themselves.\r\n     * If so, then the publishers register in the future cannot use the same magic string as the hacker granted himself/herself even if they want.\r\n     * (Basically, it's the same idea as \"This username has already been used. Please try another.\",\r\n     * so the power of DEFAULT_ADMIN_ROLE is basically just register publishers and ids.)\r\n     */\r\n    function grantPublisher(string memory publisher, address account) public virtual whenNotPaused { // Tim: added whenNotPaused\r\n        bytes32 role = keccak256(abi.encode(publisher));\r\n        grantRole(role, account);\r\n\r\n        if (!publisherHasMember[publisher]) {\r\n            publisherHasMember[publisher] = true;\r\n            _setRoleAdmin(role, role);\r\n        }\r\n    }\r\n\r\n    /**\r\n     * @dev See the comment of grantPublisher() above for more info about the string publisher and the bytes32 role.\r\n     * Only the old publisher could set the publisher of an id to a new one.\r\n     * Since the default publisher of the id is 0x00, the first publisher of the id must be set by the DEFAULT_ADMIN_ROLE.\r\n     */\r\n    function setIdToPublisher(uint256 id, string memory publisher) //Tim: added whenNotPaused\r\n        public\r\n        whenNotPaused\r\n        onlyRole(idToPublisher[id])\r\n    {\r\n        bytes32 role = keccak256(abi.encode(publisher));\r\n        idToPublisher[id] = role;\r\n    }\r\n\r\n    // Tim: added idExists() to check if an id has existed\r\n    function idExists(uint256 id) public view returns (bool) {\r\n        return super.exists(id);\r\n    }\r\n\r\n    /**\r\n     * @dev See the comment of grantPublisher() above for more info about the string publisher and the bytes32 role.\r\n     * The reason we don't directly call _revokeRole() and the this function is safe is the same reason grantPublisher() doesn't call _grantRole().\r\n     * Use this function to kick someone including msg.sender himself/herself out of the publisher.\r\n     * The function also can only be called by the publisher itself.\r\n     */\r\n    function revokePublisher(string memory publisher, address account) public virtual whenNotPaused { // Tim: added whenNotPaused\r\n        bytes32 role = keccak256(abi.encode(publisher));\r\n        revokeRole(role, account);\r\n    }\r\n\r\n    // Tim: added two functions to call hasRole() & getRoleAdmin(), not sure if thye're needed\r\n    function hasRole(string memory role, address account) public view returns(bool) {\r\n        return super.hasRole(keccak256(abi.encode(role)), account);\r\n    }\r\n\r\n    function getRoleAdmin(string memory role) public view returns(bytes32) {\r\n        return super.getRoleAdmin(keccak256(abi.encode(role)));\r\n    }\r\n\r\n    function pause() public onlyRole(DEFAULT_ADMIN_ROLE) {\r\n        _pause();\r\n    }\r\n\r\n    function unpause() public onlyRole(DEFAULT_ADMIN_ROLE) {\r\n        _unpause();\r\n    }\r\n\r\n    // The publisher of the id would have power to mint the id to whoever they want.\r\n    function mint(address to, uint256 id, uint256 amount, bytes memory data)\r\n        public\r\n        onlyRole(idToPublisher[id])\r\n    {\r\n        _mint(to, id, amount, data);\r\n    }\r\n\r\n    function mintBatch(address to, uint256[] memory ids, uint256[] memory amounts, bytes memory data)\r\n        public\r\n        onlyPublisherBatch(ids)\r\n    {\r\n        _mintBatch(to, ids, amounts, data);\r\n    }\r\n\r\n    // Tim: added burn() & burnBatch()\r\n    function burn(address from, uint256 id, uint256 amount) public override(ERC1155BurnableUpgradeable) {\r\n\r\n        require(balanceOf(from, id) - listedBalanceOf(from, id) >= amount, \"burn amount exceeds unlisted balance\"); // \r\n\r\n        super.burn(from, id, amount);\r\n    }\r\n\r\n    function burnBatch(address from, uint256[] memory ids, uint256[] memory amounts) public override(ERC1155BurnableUpgradeable) {\r\n\r\n        for (uint256 i = 0 ; i < ids.length ; ++i) { // \r\n            require(balanceOf(from, ids[i]) - listedBalanceOf(from, ids[i]) >= amounts[i], \"burn amount exceeds unlisted balance\");\r\n        }\r\n\r\n        super.burnBatch(from, ids, amounts);\r\n    }\r\n\r\n    function _beforeTokenTransfer(address operator, address from, address to, uint256[] memory ids, uint256[] memory amounts, bytes memory data)\r\n        internal\r\n        whenNotPaused\r\n        override(ERC1155Upgradeable, ERC1155SupplyUpgradeable)\r\n    {\r\n        for (uint256 i = 0 ; i < ids.length ; ++i) { // \r\n            require(balanceOf(from, ids[i]) - listedBalanceOf(from, ids[i]) >= amounts[i], \"Insufficient balance to transfer\");\r\n        }\r\n        super._beforeTokenTransfer(operator, from, to, ids, amounts, data);\r\n    }\r\n\r\n    // Tim: added transfer() & transferBatch()\r\n    function transfer(address from, address to, uint256 id, uint256 amount, bytes memory data) public {\r\n        super.safeTransferFrom(from, to, id, amount, data);\r\n    }\r\n\r\n    function transferBatch(address from, address to, uint256[] memory ids, uint256[] memory amounts, bytes memory data) public {\r\n        super.safeBatchTransferFrom(from, to, ids, amounts, data);\r\n    }\r\n\r\n    // Tim: added balanceOf() & balanceOfBatch()\r\n    function balanceOf(address account, uint256 id) \r\n        public\r\n        view\r\n        virtual\r\n        override(ERC1155Upgradeable)\r\n        returns(uint256)\r\n    {\r\n        return super.balanceOf(account, id);\r\n    }\r\n\r\n    function balanceOfBatch(address[] memory accounts, uint256[] memory ids)\r\n        public\r\n        view\r\n        virtual\r\n        override(ERC1155Upgradeable)\r\n        returns (uint256[] memory)\r\n    {\r\n        return super.balanceOfBatch(accounts, ids) ;\r\n    }\r\n\r\n    // Tim: added setApprovalForAll() & isApprovedForAll()\r\n    function setApprovalForAll(address operator, bool approved) public override(ERC1155Upgradeable) {\r\n        super.setApprovalForAll(operator, approved);\r\n    }\r\n\r\n    function isApprovedForAll(address account, address operator) public view override(ERC1155Upgradeable) returns (bool) {\r\n        return super.isApprovedForAll(account, operator);\r\n    }\r\n\r\n    // Tim: added getIdSupply()\r\n    function getIdSupply(uint256 id) public view returns (uint256) {\r\n        return super.totalSupply(id);\r\n    }\r\n\r\n    // Tim: ( determineBuyer )\r\n    function _grantApprovalToContract(address seller) private {\r\n        super._setApprovalForAll(seller, address(this), true);\r\n    }\r\n\r\n    // Tim: ( purchaseEBook )\r\n    function _revokeApprovalFromContract(address seller) private {\r\n        super._setApprovalForAll(seller, address(this), false);\r\n    }\r\n\r\n    function checkIsBuyer(uint256 id, address seller, address buyer) public view returns (int256) {\r\n        uint256 length = listings[id][seller].buyers.length;\r\n        address[] memory buyers = listings[id][seller].buyers;\r\n        \r\n        for (uint256 i = 0 ; i < length ; ++i) {\r\n            if (buyers[i] == buyer) {\r\n                return int256(i);\r\n            }\r\n        }\r\n\r\n        return -1;\r\n    }\r\n\r\n    // Tim:  ID \r\n    function listedBalanceOf(address account, uint256 id) public view virtual returns(uint256) {\r\n        return listings[id][account].listedBalance;\r\n    }\r\n\r\n    // Tim: \r\n    function listEBook(uint256 id, address seller, uint256 price, uint256 amount) public virtual isIdExisted(id) IsPriceOrAmountValid(price) IsPriceOrAmountValid(amount) isAddressValid(seller) isApproved(seller) {\r\n        require(balanceOf(seller, id) - listings[id][seller].listedBalance >= amount, \"Insefficient balance to list\"); //  -  >= \r\n\r\n        listings[id][seller].price = price;\r\n        listings[id][seller].listedBalance += amount;\r\n\r\n        //emit EBookListed(id, seller, price, amount);\r\n    }\r\n\r\n    // Tim: \r\n    function modifyPrice(uint256 id, address seller, uint256 price) public virtual isIdExisted(id) IsPriceOrAmountValid(price) isAddressValid(seller) isApproved(seller) IsEBookAvailableOnOrder(id, seller) IsBuyerDetermined(id, seller) {\r\n\r\n        uint256 originalPrice = listings[id][seller].price;\r\n        listings[id][seller].price = price;\r\n\r\n        //emit PriceModified (id, msg.sender, originalPrice, price);\r\n    }\r\n\r\n    // Tim: \r\n    function cancelListing(uint256 id, address seller, uint256 amount) public virtual isIdExisted(id) IsPriceOrAmountValid(amount) isAddressValid(seller) isApproved(seller) IsEBookAvailableOnOrder(id, seller) IsBuyerDetermined(id, seller) {\r\n        require(listings[id][seller].listedBalance >= amount, \"Exceeded amount to unlist\"); //  >= \r\n\r\n        unchecked {\r\n            listings[id][seller].listedBalance -= amount;\r\n        }\r\n\r\n        if (listings[id][seller].listedBalance == 0) {\r\n            delete listings[id][seller];\r\n        }\r\n\r\n        //emit ListingCancelled(id, seller, msg.sender);\r\n    }\r\n\r\n    // Tim: \r\n    function determineBuyer(address seller, address buyer, uint256 id) public virtual onlyRole(DEFAULT_ADMIN_ROLE) isIdExisted(id) isAddressValid(seller) isAddressValid(buyer) {\r\n        require(listings[id][seller].listedBalance > listings[id][seller].buyerCounts, \"Order all fulfilled\"); // \r\n\r\n        listings[id][seller].buyers.push(buyer);\r\n        listings[id][seller].buyerCounts ++;\r\n        \r\n        _grantApprovalToContract(seller);\r\n\r\n        //emit BuyerDetermined(id, seller, buyer);\r\n    }\r\n\r\n    // Tim:  buyers \r\n    function purchaseEBook(uint256 id, address seller) public virtual isIdExisted(id) isAddressValid(seller) IsEBookAvailableOnOrder(id, seller) {\r\n\r\n        address buyer = msg.sender;\r\n        int256 index = checkIsBuyer(id, seller, buyer);\r\n        require(index != -1, \"Caller is not buyer\");\r\n\r\n        uint256 price = listings[id][seller].price;\r\n        \r\n        //uint256 fee = price * 25 / 1000;\r\n\r\n        super.safeTransferFrom(seller, buyer, id, 0, \"\"); // transfer ebook to buyer\r\n\r\n        (bool success, ) = seller.call{ value: price }(\"\"); // transfer ether to seller\r\n        require(success, \"Buying failed\");\r\n\r\n        //(bool suucess, ) = multiSigWallet.call{ value: fee}(\"\");\r\n        //require(success, \"Buying failed\");\r\n\r\n        _revokeApprovalFromContract(seller);\r\n\r\n        listings[id][seller].listedBalance --;\r\n        listings[id][seller].buyerCounts --;\r\n        listings[id][seller].buyers[uint256(index)] = address(0);\r\n\r\n        if (listings[id][seller].listedBalance == 0) {\r\n            delete listings[id][seller];\r\n        }\r\n\r\n        //emit TransactionMade(seller, buyer, id);\r\n    }\r\n\r\n    function supportsInterface(bytes4 interfaceId)\r\n        public\r\n        view\r\n        override(ERC1155Upgradeable, AccessControlUpgradeable)\r\n        returns (bool)\r\n    {\r\n        return super.supportsInterface(interfaceId);\r\n    }\r\n}",
  "sourcePath": "C:\\Users\\TimOu_0911\\Desktop\\The_Ohara_Protocol\\contracts\\The_Ohara_Protocol.sol",
  "compiler": {
    "name": "solc",
    "version": "0.8.19+commit.7dd6d404.Emscripten.clang"
  },
  "schemaVersion": "3.4.13",
  "updatedAt": "2023-06-24T14:54:15.356Z",
  "devdoc": {
    "custom:security-contact": "dodo920306@gmail.com",
    "events": {
      "ApprovalForAll(address,address,bool)": {
        "details": "Emitted when `account` grants or revokes permission to `operator` to transfer their tokens, according to `approved`."
      },
      "Initialized(uint8)": {
        "details": "Triggered when the contract has been initialized or reinitialized."
      },
      "Paused(address)": {
        "details": "Emitted when the pause is triggered by `account`."
      },
      "RoleAdminChanged(bytes32,bytes32,bytes32)": {
        "details": "Emitted when `newAdminRole` is set as ``role``'s admin role, replacing `previousAdminRole` `DEFAULT_ADMIN_ROLE` is the starting admin for all roles, despite {RoleAdminChanged} not being emitted signaling this. _Available since v3.1._"
      },
      "RoleGranted(bytes32,address,address)": {
        "details": "Emitted when `account` is granted `role`. `sender` is the account that originated the contract call, an admin role bearer except when using {AccessControl-_setupRole}."
      },
      "RoleRevoked(bytes32,address,address)": {
        "details": "Emitted when `account` is revoked `role`. `sender` is the account that originated the contract call:   - if using `revokeRole`, it is the admin role bearer   - if using `renounceRole`, it is the role bearer (i.e. `account`)"
      },
      "TransferBatch(address,address,address,uint256[],uint256[])": {
        "details": "Equivalent to multiple {TransferSingle} events, where `operator`, `from` and `to` are the same for all transfers."
      },
      "TransferSingle(address,address,address,uint256,uint256)": {
        "details": "Emitted when `value` tokens of token type `id` are transferred from `from` to `to` by `operator`."
      },
      "URI(string,uint256)": {
        "details": "Emitted when the URI for token type `id` changes to `value`, if it is a non-programmatic URI. If an {URI} event was emitted for `id`, the standard https://eips.ethereum.org/EIPS/eip-1155#metadata-extensions[guarantees] that `value` will equal the value returned by {IERC1155MetadataURI-uri}."
      },
      "Unpaused(address)": {
        "details": "Emitted when the pause is lifted by `account`."
      }
    },
    "kind": "dev",
    "methods": {
      "balanceOf(address,uint256)": {
        "details": "See {IERC1155-balanceOf}. Requirements: - `account` cannot be the zero address."
      },
      "balanceOfBatch(address[],uint256[])": {
        "details": "See {IERC1155-balanceOfBatch}. Requirements: - `accounts` and `ids` must have the same length."
      },
      "constructor": {
        "custom:oz-upgrades-unsafe-allow": "constructor"
      },
      "exists(uint256)": {
        "details": "Indicates whether any token exist with a given id, or not."
      },
      "getRoleAdmin(bytes32)": {
        "details": "Returns the admin role that controls `role`. See {grantRole} and {revokeRole}. To change a role's admin, use {_setRoleAdmin}."
      },
      "grantPublisher(string,address)": {
        "details": "The publisher who wants to claim an account belongs to them must use this function with the magic string that represents themselves.  The function will uses keccak256 solidity function to hash this string, but before that, it must be represented as bytes32. The type conversion from \"string memory\" to \"bytes32\" isn't allowed, so we use abi.encode() here. See https://ethereum.stackexchange.com/questions/119583/when-to-use-abi-encode-abi-encodepacked-or-abi-encodewithsignature-in-solidity for the reason of this selection.  After that, we use grantRole() function from AccessControl, the reason we don't directly use _grantRole() here is because the onlyRole(getRoleAdmin(role)) should also be passed in this operation, and since grantRole() has that modifier originally, the current function doesn't require any modifier yet, and there's no need to be afraid that anyone hash others' magic string and directly call grantRole() because there's no way he/she can be the admin.  If it's the first member to be added in the publisher, the msg.sender must be DEFAULT_ADMIN_ROLE to pass onlyRole(getRoleAdmin(role)) for that there's no way to set admin to others. If so, then the function would call _setRoleAdmin() to release the admin power to the publisher itself, indicating that from this point on, only the publisher can manage which accounts can act on its behalf.  The only risk would be that a hacker steal one private key from DEFAULT_ADMIN_ROLE, in that case, the worse he/she can do is grant his/her accounts the publisher role that \"hasn't been registered yet\", for that the admins of the publishers already in the protocol can only be themselves. If so, then the publishers register in the future cannot use the same magic string as the hacker granted himself/herself even if they want. (Basically, it's the same idea as \"This username has already been used. Please try another.\", so the power of DEFAULT_ADMIN_ROLE is basically just register publishers and ids.)"
      },
      "grantRole(bytes32,address)": {
        "details": "Grants `role` to `account`. If `account` had not been already granted `role`, emits a {RoleGranted} event. Requirements: - the caller must have ``role``'s admin role. May emit a {RoleGranted} event."
      },
      "hasRole(bytes32,address)": {
        "details": "Returns `true` if `account` has been granted `role`."
      },
      "isApprovedForAll(address,address)": {
        "details": "See {IERC1155-isApprovedForAll}."
      },
      "paused()": {
        "details": "Returns true if the contract is paused, and false otherwise."
      },
      "renounceRole(bytes32,address)": {
        "details": "Revokes `role` from the calling account. Roles are often managed via {grantRole} and {revokeRole}: this function's purpose is to provide a mechanism for accounts to lose their privileges if they are compromised (such as when a trusted device is misplaced). If the calling account had been revoked `role`, emits a {RoleRevoked} event. Requirements: - the caller must be `account`. May emit a {RoleRevoked} event."
      },
      "revokePublisher(string,address)": {
        "details": "See the comment of grantPublisher() above for more info about the string publisher and the bytes32 role. The reason we don't directly call _revokeRole() and the this function is safe is the same reason grantPublisher() doesn't call _grantRole(). Use this function to kick someone including msg.sender himself/herself out of the publisher. The function also can only be called by the publisher itself."
      },
      "revokeRole(bytes32,address)": {
        "details": "Revokes `role` from `account`. If `account` had been granted `role`, emits a {RoleRevoked} event. Requirements: - the caller must have ``role``'s admin role. May emit a {RoleRevoked} event."
      },
      "safeBatchTransferFrom(address,address,uint256[],uint256[],bytes)": {
        "details": "See {IERC1155-safeBatchTransferFrom}."
      },
      "safeTransferFrom(address,address,uint256,uint256,bytes)": {
        "details": "See {IERC1155-safeTransferFrom}."
      },
      "setApprovalForAll(address,bool)": {
        "details": "See {IERC1155-setApprovalForAll}."
      },
      "setIdToPublisher(uint256,string)": {
        "details": "See the comment of grantPublisher() above for more info about the string publisher and the bytes32 role. Only the old publisher could set the publisher of an id to a new one. Since the default publisher of the id is 0x00, the first publisher of the id must be set by the DEFAULT_ADMIN_ROLE."
      },
      "totalSupply(uint256)": {
        "details": "Total amount of tokens in with a given id."
      },
      "uri(uint256)": {
        "details": "See {IERC1155MetadataURI-uri}. This implementation returns the same URI for *all* token types. It relies on the token type ID substitution mechanism https://eips.ethereum.org/EIPS/eip-1155#metadata[defined in the EIP]. Clients calling this function must replace the `\\{id\\}` substring with the actual token type ID."
      }
    },
    "version": 1
  },
  "userdoc": {
    "kind": "user",
    "methods": {},
    "version": 1
  }
}