{
  "contractName": "The_Ohara_Protocol",
  "abi": [
    {
      "inputs": [
        {
          "internalType": "address",
          "name": "addr",
          "type": "address"
        }
      ],
      "stateMutability": "nonpayable",
      "type": "constructor"
    },
    {
      "anonymous": false,
      "inputs": [
        {
          "indexed": true,
          "internalType": "address",
          "name": "account",
          "type": "address"
        },
        {
          "indexed": true,
          "internalType": "address",
          "name": "operator",
          "type": "address"
        },
        {
          "indexed": false,
          "internalType": "bool",
          "name": "approved",
          "type": "bool"
        }
      ],
      "name": "ApprovalForAll",
      "type": "event"
    },
    {
      "anonymous": false,
      "inputs": [
        {
          "indexed": false,
          "internalType": "address",
          "name": "account",
          "type": "address"
        }
      ],
      "name": "Paused",
      "type": "event"
    },
    {
      "anonymous": false,
      "inputs": [
        {
          "indexed": true,
          "internalType": "bytes32",
          "name": "role",
          "type": "bytes32"
        },
        {
          "indexed": true,
          "internalType": "bytes32",
          "name": "previousAdminRole",
          "type": "bytes32"
        },
        {
          "indexed": true,
          "internalType": "bytes32",
          "name": "newAdminRole",
          "type": "bytes32"
        }
      ],
      "name": "RoleAdminChanged",
      "type": "event"
    },
    {
      "anonymous": false,
      "inputs": [
        {
          "indexed": true,
          "internalType": "bytes32",
          "name": "role",
          "type": "bytes32"
        },
        {
          "indexed": true,
          "internalType": "address",
          "name": "account",
          "type": "address"
        },
        {
          "indexed": true,
          "internalType": "address",
          "name": "sender",
          "type": "address"
        }
      ],
      "name": "RoleGranted",
      "type": "event"
    },
    {
      "anonymous": false,
      "inputs": [
        {
          "indexed": true,
          "internalType": "bytes32",
          "name": "role",
          "type": "bytes32"
        },
        {
          "indexed": true,
          "internalType": "address",
          "name": "account",
          "type": "address"
        },
        {
          "indexed": true,
          "internalType": "address",
          "name": "sender",
          "type": "address"
        }
      ],
      "name": "RoleRevoked",
      "type": "event"
    },
    {
      "anonymous": false,
      "inputs": [
        {
          "indexed": true,
          "internalType": "address",
          "name": "operator",
          "type": "address"
        },
        {
          "indexed": true,
          "internalType": "address",
          "name": "from",
          "type": "address"
        },
        {
          "indexed": true,
          "internalType": "address",
          "name": "to",
          "type": "address"
        },
        {
          "indexed": false,
          "internalType": "uint256[]",
          "name": "ids",
          "type": "uint256[]"
        },
        {
          "indexed": false,
          "internalType": "uint256[]",
          "name": "values",
          "type": "uint256[]"
        }
      ],
      "name": "TransferBatch",
      "type": "event"
    },
    {
      "anonymous": false,
      "inputs": [
        {
          "indexed": true,
          "internalType": "address",
          "name": "operator",
          "type": "address"
        },
        {
          "indexed": true,
          "internalType": "address",
          "name": "from",
          "type": "address"
        },
        {
          "indexed": true,
          "internalType": "address",
          "name": "to",
          "type": "address"
        },
        {
          "indexed": false,
          "internalType": "uint256",
          "name": "id",
          "type": "uint256"
        },
        {
          "indexed": false,
          "internalType": "uint256",
          "name": "value",
          "type": "uint256"
        }
      ],
      "name": "TransferSingle",
      "type": "event"
    },
    {
      "anonymous": false,
      "inputs": [
        {
          "indexed": false,
          "internalType": "string",
          "name": "value",
          "type": "string"
        },
        {
          "indexed": true,
          "internalType": "uint256",
          "name": "id",
          "type": "uint256"
        }
      ],
      "name": "URI",
      "type": "event"
    },
    {
      "anonymous": false,
      "inputs": [
        {
          "indexed": false,
          "internalType": "address",
          "name": "account",
          "type": "address"
        }
      ],
      "name": "Unpaused",
      "type": "event"
    },
    {
      "inputs": [],
      "name": "DEFAULT_ADMIN_ROLE",
      "outputs": [
        {
          "internalType": "bytes32",
          "name": "",
          "type": "bytes32"
        }
      ],
      "stateMutability": "view",
      "type": "function",
      "constant": true
    },
    {
      "inputs": [
        {
          "internalType": "uint256",
          "name": "id",
          "type": "uint256"
        }
      ],
      "name": "exists",
      "outputs": [
        {
          "internalType": "bool",
          "name": "",
          "type": "bool"
        }
      ],
      "stateMutability": "view",
      "type": "function",
      "constant": true
    },
    {
      "inputs": [
        {
          "internalType": "bytes32",
          "name": "role",
          "type": "bytes32"
        }
      ],
      "name": "getRoleAdmin",
      "outputs": [
        {
          "internalType": "bytes32",
          "name": "",
          "type": "bytes32"
        }
      ],
      "stateMutability": "view",
      "type": "function",
      "constant": true
    },
    {
      "inputs": [
        {
          "internalType": "bytes32",
          "name": "role",
          "type": "bytes32"
        },
        {
          "internalType": "address",
          "name": "account",
          "type": "address"
        }
      ],
      "name": "grantRole",
      "outputs": [],
      "stateMutability": "nonpayable",
      "type": "function"
    },
    {
      "inputs": [
        {
          "internalType": "bytes32",
          "name": "role",
          "type": "bytes32"
        },
        {
          "internalType": "address",
          "name": "account",
          "type": "address"
        }
      ],
      "name": "hasRole",
      "outputs": [
        {
          "internalType": "bool",
          "name": "",
          "type": "bool"
        }
      ],
      "stateMutability": "view",
      "type": "function",
      "constant": true
    },
    {
      "inputs": [],
      "name": "paused",
      "outputs": [
        {
          "internalType": "bool",
          "name": "",
          "type": "bool"
        }
      ],
      "stateMutability": "view",
      "type": "function",
      "constant": true
    },
    {
      "inputs": [
        {
          "internalType": "bytes32",
          "name": "role",
          "type": "bytes32"
        },
        {
          "internalType": "address",
          "name": "account",
          "type": "address"
        }
      ],
      "name": "renounceRole",
      "outputs": [],
      "stateMutability": "nonpayable",
      "type": "function"
    },
    {
      "inputs": [
        {
          "internalType": "bytes32",
          "name": "role",
          "type": "bytes32"
        },
        {
          "internalType": "address",
          "name": "account",
          "type": "address"
        }
      ],
      "name": "revokeRole",
      "outputs": [],
      "stateMutability": "nonpayable",
      "type": "function"
    },
    {
      "inputs": [
        {
          "internalType": "address",
          "name": "from",
          "type": "address"
        },
        {
          "internalType": "address",
          "name": "to",
          "type": "address"
        },
        {
          "internalType": "uint256[]",
          "name": "ids",
          "type": "uint256[]"
        },
        {
          "internalType": "uint256[]",
          "name": "amounts",
          "type": "uint256[]"
        },
        {
          "internalType": "bytes",
          "name": "data",
          "type": "bytes"
        }
      ],
      "name": "safeBatchTransferFrom",
      "outputs": [],
      "stateMutability": "nonpayable",
      "type": "function"
    },
    {
      "inputs": [
        {
          "internalType": "address",
          "name": "from",
          "type": "address"
        },
        {
          "internalType": "address",
          "name": "to",
          "type": "address"
        },
        {
          "internalType": "uint256",
          "name": "id",
          "type": "uint256"
        },
        {
          "internalType": "uint256",
          "name": "amount",
          "type": "uint256"
        },
        {
          "internalType": "bytes",
          "name": "data",
          "type": "bytes"
        }
      ],
      "name": "safeTransferFrom",
      "outputs": [],
      "stateMutability": "nonpayable",
      "type": "function"
    },
    {
      "inputs": [
        {
          "internalType": "uint256",
          "name": "id",
          "type": "uint256"
        }
      ],
      "name": "totalSupply",
      "outputs": [
        {
          "internalType": "uint256",
          "name": "",
          "type": "uint256"
        }
      ],
      "stateMutability": "view",
      "type": "function",
      "constant": true
    },
    {
      "inputs": [
        {
          "internalType": "uint256",
          "name": "",
          "type": "uint256"
        }
      ],
      "name": "uri",
      "outputs": [
        {
          "internalType": "string",
          "name": "",
          "type": "string"
        }
      ],
      "stateMutability": "view",
      "type": "function",
      "constant": true
    },
    {
      "inputs": [
        {
          "internalType": "string",
          "name": "newuri",
          "type": "string"
        }
      ],
      "name": "setURI",
      "outputs": [],
      "stateMutability": "nonpayable",
      "type": "function"
    },
    {
      "inputs": [
        {
          "internalType": "uint256",
          "name": "id",
          "type": "uint256"
        }
      ],
      "name": "getURIOfId",
      "outputs": [
        {
          "internalType": "string",
          "name": "",
          "type": "string"
        }
      ],
      "stateMutability": "view",
      "type": "function",
      "constant": true
    },
    {
      "inputs": [
        {
          "internalType": "string",
          "name": "publisher",
          "type": "string"
        },
        {
          "internalType": "address",
          "name": "account",
          "type": "address"
        }
      ],
      "name": "grantPublisher",
      "outputs": [],
      "stateMutability": "nonpayable",
      "type": "function"
    },
    {
      "inputs": [
        {
          "internalType": "uint256",
          "name": "id",
          "type": "uint256"
        },
        {
          "internalType": "string",
          "name": "publisher",
          "type": "string"
        }
      ],
      "name": "setIdToPublisher",
      "outputs": [],
      "stateMutability": "nonpayable",
      "type": "function"
    },
    {
      "inputs": [
        {
          "internalType": "uint256",
          "name": "id",
          "type": "uint256"
        }
      ],
      "name": "idExists",
      "outputs": [
        {
          "internalType": "bool",
          "name": "",
          "type": "bool"
        }
      ],
      "stateMutability": "view",
      "type": "function",
      "constant": true
    },
    {
      "inputs": [
        {
          "internalType": "string",
          "name": "publisher",
          "type": "string"
        },
        {
          "internalType": "address",
          "name": "account",
          "type": "address"
        }
      ],
      "name": "revokePublisher",
      "outputs": [],
      "stateMutability": "nonpayable",
      "type": "function"
    },
    {
      "inputs": [],
      "name": "pause",
      "outputs": [],
      "stateMutability": "nonpayable",
      "type": "function"
    },
    {
      "inputs": [],
      "name": "unpause",
      "outputs": [],
      "stateMutability": "nonpayable",
      "type": "function"
    },
    {
      "inputs": [
        {
          "internalType": "address",
          "name": "to",
          "type": "address"
        },
        {
          "internalType": "uint256",
          "name": "id",
          "type": "uint256"
        },
        {
          "internalType": "uint256",
          "name": "amount",
          "type": "uint256"
        },
        {
          "internalType": "bytes",
          "name": "data",
          "type": "bytes"
        }
      ],
      "name": "mint",
      "outputs": [],
      "stateMutability": "nonpayable",
      "type": "function"
    },
    {
      "inputs": [
        {
          "internalType": "address",
          "name": "to",
          "type": "address"
        },
        {
          "internalType": "uint256[]",
          "name": "ids",
          "type": "uint256[]"
        },
        {
          "internalType": "uint256[]",
          "name": "amounts",
          "type": "uint256[]"
        },
        {
          "internalType": "bytes",
          "name": "data",
          "type": "bytes"
        }
      ],
      "name": "mintBatch",
      "outputs": [],
      "stateMutability": "nonpayable",
      "type": "function"
    },
    {
      "inputs": [
        {
          "internalType": "address",
          "name": "from",
          "type": "address"
        },
        {
          "internalType": "uint256",
          "name": "id",
          "type": "uint256"
        },
        {
          "internalType": "uint256",
          "name": "amount",
          "type": "uint256"
        }
      ],
      "name": "burn",
      "outputs": [],
      "stateMutability": "nonpayable",
      "type": "function"
    },
    {
      "inputs": [
        {
          "internalType": "address",
          "name": "from",
          "type": "address"
        },
        {
          "internalType": "uint256[]",
          "name": "ids",
          "type": "uint256[]"
        },
        {
          "internalType": "uint256[]",
          "name": "amounts",
          "type": "uint256[]"
        }
      ],
      "name": "burnBatch",
      "outputs": [],
      "stateMutability": "nonpayable",
      "type": "function"
    },
    {
      "inputs": [
        {
          "internalType": "address",
          "name": "from",
          "type": "address"
        },
        {
          "internalType": "address",
          "name": "to",
          "type": "address"
        },
        {
          "internalType": "uint256",
          "name": "id",
          "type": "uint256"
        },
        {
          "internalType": "uint256",
          "name": "amount",
          "type": "uint256"
        },
        {
          "internalType": "bytes",
          "name": "data",
          "type": "bytes"
        }
      ],
      "name": "transfer",
      "outputs": [],
      "stateMutability": "nonpayable",
      "type": "function"
    },
    {
      "inputs": [
        {
          "internalType": "address",
          "name": "from",
          "type": "address"
        },
        {
          "internalType": "address",
          "name": "to",
          "type": "address"
        },
        {
          "internalType": "uint256[]",
          "name": "ids",
          "type": "uint256[]"
        },
        {
          "internalType": "uint256[]",
          "name": "amounts",
          "type": "uint256[]"
        },
        {
          "internalType": "bytes",
          "name": "data",
          "type": "bytes"
        }
      ],
      "name": "transferBatch",
      "outputs": [],
      "stateMutability": "nonpayable",
      "type": "function"
    },
    {
      "inputs": [
        {
          "internalType": "address",
          "name": "account",
          "type": "address"
        },
        {
          "internalType": "uint256",
          "name": "id",
          "type": "uint256"
        }
      ],
      "name": "balanceOf",
      "outputs": [
        {
          "internalType": "uint256",
          "name": "",
          "type": "uint256"
        }
      ],
      "stateMutability": "view",
      "type": "function",
      "constant": true
    },
    {
      "inputs": [
        {
          "internalType": "address[]",
          "name": "accounts",
          "type": "address[]"
        },
        {
          "internalType": "uint256[]",
          "name": "ids",
          "type": "uint256[]"
        }
      ],
      "name": "balanceOfBatch",
      "outputs": [
        {
          "internalType": "uint256[]",
          "name": "",
          "type": "uint256[]"
        }
      ],
      "stateMutability": "view",
      "type": "function",
      "constant": true
    },
    {
      "inputs": [
        {
          "internalType": "address",
          "name": "operator",
          "type": "address"
        },
        {
          "internalType": "bool",
          "name": "approved",
          "type": "bool"
        }
      ],
      "name": "setApprovalForAll",
      "outputs": [],
      "stateMutability": "nonpayable",
      "type": "function"
    },
    {
      "inputs": [
        {
          "internalType": "address",
          "name": "account",
          "type": "address"
        },
        {
          "internalType": "address",
          "name": "operator",
          "type": "address"
        }
      ],
      "name": "isApprovedForAll",
      "outputs": [
        {
          "internalType": "bool",
          "name": "",
          "type": "bool"
        }
      ],
      "stateMutability": "view",
      "type": "function",
      "constant": true
    },
    {
      "inputs": [
        {
          "internalType": "uint256",
          "name": "id",
          "type": "uint256"
        }
      ],
      "name": "getIdSupply",
      "outputs": [
        {
          "internalType": "uint256",
          "name": "",
          "type": "uint256"
        }
      ],
      "stateMutability": "view",
      "type": "function",
      "constant": true
    },
    {
      "inputs": [
        {
          "internalType": "address",
          "name": "newAddr",
          "type": "address"
        }
      ],
      "name": "changeMarketAddr",
      "outputs": [],
      "stateMutability": "nonpayable",
      "type": "function"
    },
    {
      "inputs": [
        {
          "internalType": "uint256",
          "name": "id",
          "type": "uint256"
        },
        {
          "internalType": "address",
          "name": "seller",
          "type": "address"
        },
        {
          "internalType": "address",
          "name": "buyer",
          "type": "address"
        }
      ],
      "name": "checkIsBuyer",
      "outputs": [
        {
          "internalType": "int256",
          "name": "",
          "type": "int256"
        }
      ],
      "stateMutability": "nonpayable",
      "type": "function"
    },
    {
      "inputs": [
        {
          "internalType": "address",
          "name": "account",
          "type": "address"
        },
        {
          "internalType": "uint256",
          "name": "id",
          "type": "uint256"
        }
      ],
      "name": "listedBalanceOf",
      "outputs": [
        {
          "internalType": "uint256",
          "name": "",
          "type": "uint256"
        }
      ],
      "stateMutability": "view",
      "type": "function",
      "constant": true
    },
    {
      "inputs": [
        {
          "internalType": "uint256",
          "name": "id",
          "type": "uint256"
        },
        {
          "internalType": "address",
          "name": "seller",
          "type": "address"
        },
        {
          "internalType": "uint256",
          "name": "price",
          "type": "uint256"
        },
        {
          "internalType": "uint256",
          "name": "amount",
          "type": "uint256"
        }
      ],
      "name": "listEBook",
      "outputs": [],
      "stateMutability": "nonpayable",
      "type": "function"
    },
    {
      "inputs": [
        {
          "internalType": "uint256",
          "name": "id",
          "type": "uint256"
        },
        {
          "internalType": "address",
          "name": "seller",
          "type": "address"
        },
        {
          "internalType": "uint256",
          "name": "price",
          "type": "uint256"
        }
      ],
      "name": "modifyPrice",
      "outputs": [],
      "stateMutability": "nonpayable",
      "type": "function"
    },
    {
      "inputs": [
        {
          "internalType": "uint256",
          "name": "id",
          "type": "uint256"
        },
        {
          "internalType": "address",
          "name": "seller",
          "type": "address"
        },
        {
          "internalType": "uint256",
          "name": "amount",
          "type": "uint256"
        }
      ],
      "name": "cancelListing",
      "outputs": [],
      "stateMutability": "nonpayable",
      "type": "function"
    },
    {
      "inputs": [
        {
          "internalType": "address",
          "name": "seller",
          "type": "address"
        },
        {
          "internalType": "address",
          "name": "buyer",
          "type": "address"
        },
        {
          "internalType": "uint256",
          "name": "id",
          "type": "uint256"
        }
      ],
      "name": "determineBuyer",
      "outputs": [],
      "stateMutability": "nonpayable",
      "type": "function"
    },
    {
      "inputs": [
        {
          "internalType": "uint256",
          "name": "id",
          "type": "uint256"
        },
        {
          "internalType": "address",
          "name": "seller",
          "type": "address"
        }
      ],
      "name": "purchaseEBook",
      "outputs": [],
      "stateMutability": "nonpayable",
      "type": "function"
    },
    {
      "inputs": [
        {
          "internalType": "bytes4",
          "name": "interfaceId",
          "type": "bytes4"
        }
      ],
      "name": "supportsInterface",
      "outputs": [
        {
          "internalType": "bool",
          "name": "",
          "type": "bool"
        }
      ],
      "stateMutability": "view",
      "type": "function",
      "constant": true
    }
  ],
  "bytecode": "0x60806040523480156200001157600080fd5b50604051620065f7380380620065f78339818101604052810190620000379190620002b5565b604051806020016040528060008152506200005881620000d160201b60201c565b506000600460006101000a81548160ff02191690831515021790555080600960006101000a81548173ffffffffffffffffffffffffffffffffffffffff021916908373ffffffffffffffffffffffffffffffffffffffff160217905550620000ca6000801b33620000e660201b60201c565b5062000648565b8060029081620000e2919062000561565b5050565b620000f88282620001d860201b60201c565b620001d45760016003600084815260200190815260200160002060000160008373ffffffffffffffffffffffffffffffffffffffff1673ffffffffffffffffffffffffffffffffffffffff16815260200190815260200160002060006101000a81548160ff021916908315150217905550620001796200024360201b60201c565b73ffffffffffffffffffffffffffffffffffffffff168173ffffffffffffffffffffffffffffffffffffffff16837f2f8788117e7eff1d82e926ec794901d17c78024a50270940304540a733656f0d60405160405180910390a45b5050565b60006003600084815260200190815260200160002060000160008373ffffffffffffffffffffffffffffffffffffffff1673ffffffffffffffffffffffffffffffffffffffff16815260200190815260200160002060009054906101000a900460ff16905092915050565b600033905090565b600080fd5b600073ffffffffffffffffffffffffffffffffffffffff82169050919050565b60006200027d8262000250565b9050919050565b6200028f8162000270565b81146200029b57600080fd5b50565b600081519050620002af8162000284565b92915050565b600060208284031215620002ce57620002cd6200024b565b5b6000620002de848285016200029e565b91505092915050565b600081519050919050565b7f4e487b7100000000000000000000000000000000000000000000000000000000600052604160045260246000fd5b7f4e487b7100000000000000000000000000000000000000000000000000000000600052602260045260246000fd5b600060028204905060018216806200036957607f821691505b6020821081036200037f576200037e62000321565b5b50919050565b60008190508160005260206000209050919050565b60006020601f8301049050919050565b600082821b905092915050565b600060088302620003e97fffffffffffffffffffffffffffffffffffffffffffffffffffffffffffffffff82620003aa565b620003f58683620003aa565b95508019841693508086168417925050509392505050565b6000819050919050565b6000819050919050565b6000620004426200043c62000436846200040d565b62000417565b6200040d565b9050919050565b6000819050919050565b6200045e8362000421565b620004766200046d8262000449565b848454620003b7565b825550505050565b600090565b6200048d6200047e565b6200049a81848462000453565b505050565b5b81811015620004c257620004b660008262000483565b600181019050620004a0565b5050565b601f8211156200051157620004db8162000385565b620004e6846200039a565b81016020851015620004f6578190505b6200050e62000505856200039a565b8301826200049f565b50505b505050565b600082821c905092915050565b6000620005366000198460080262000516565b1980831691505092915050565b600062000551838362000523565b9150826002028217905092915050565b6200056c82620002e7565b67ffffffffffffffff811115620005885762000587620002f2565b5b62000594825462000350565b620005a1828285620004c6565b600060209050601f831160018114620005d95760008415620005c4578287015190505b620005d0858262000543565b86555062000640565b601f198416620005e98662000385565b60005b828110156200061357848901518255600182019150602085019450602081019050620005ec565b868310156200063357848901516200062f601f89168262000523565b8355505b6001600288020188555050505b505050505050565b615f9f80620006586000396000f3fe608060405234801561001057600080fd5b50600436106102475760003560e01c80635a9807be1161013b578063a22cb465116100b8578063d547741f1161007c578063d547741f146106f0578063e3579fc51461070c578063e985e9c51461073c578063f242432a1461076c578063f5298aca1461078857610247565b8063a22cb46514610650578063a9171a721461066c578063bd85b03914610688578063be285853146106b8578063bf99830e146106d457610247565b8063731133e9116100ff578063731133e9146105c05780638456cb59146105dc5780638ad094b5146105e657806391d1485414610602578063a217fddf1461063257610247565b80635a9807be1461050a5780635c975abb1461053a5780635ebb6365146105585780636b20c454146105885780636fcfcb66146105a457610247565b80631286c46d116101c957806336568abe1161018d57806336568abe146104685780633f4ba83a146104845780634e1273f41461048e5780634f558e79146104be57806352509e97146104ee57610247565b80631286c46d146103c85780631f7fdffa146103e4578063248a9ca3146104005780632eb2c2d6146104305780632f2ff15d1461044c57610247565b80630b8a295a116102105780630b8a295a146103145780630c834143146103445780630e89341c146103605780630ef5e26714610390578063127217d6146103ac57610247565b8062fdd58e1461024c57806301ad63bd1461027c57806301ffc9a71461029857806302fe5305146102c85780630807a3bd146102e4575b600080fd5b61026660048036038101906102619190613d33565b6107a4565b6040516102739190613d82565b60405180910390f35b61029660048036038101906102919190613ee3565b6107b8565b005b6102b260048036038101906102ad9190613f97565b610826565b6040516102bf9190613fdf565b60405180910390f35b6102e260048036038101906102dd9190613ffa565b610838565b005b6102fe60048036038101906102f99190614043565b61085a565b60405161030b91906140ef565b60405180910390f35b61032e60048036038101906103299190614043565b610895565b60405161033b9190613fdf565b60405180910390f35b61035e60048036038101906103599190614111565b6108a7565b005b61037a60048036038101906103759190614043565b6109d5565b60405161038791906140ef565b60405180910390f35b6103aa60048036038101906103a59190614164565b610a69565b005b6103c660048036038101906103c19190614258565b610ba5565b005b6103e260048036038101906103dd91906142ef565b610bb9565b005b6103fe60048036038101906103f99190614413565b610bfb565b005b61041a60048036038101906104159190614504565b610c6b565b6040516104279190614540565b60405180910390f35b61044a6004803603810190610445919061455b565b610c8b565b005b6104666004803603810190610461919061462a565b610d2c565b005b610482600480360381019061047d919061462a565b610d4d565b005b61048c610dd0565b005b6104a860048036038101906104a3919061472d565b610de8565b6040516104b59190614863565b60405180910390f35b6104d860048036038101906104d39190614043565b610dfc565b6040516104e59190613fdf565b60405180910390f35b610508600480360381019061050391906142ef565b610e10565b005b610524600480360381019061051f9190614043565b610ec4565b6040516105319190613d82565b60405180910390f35b610542610ed6565b60405161054f9190613fdf565b60405180910390f35b610572600480360381019061056d9190613d33565b610eed565b60405161057f9190613d82565b60405180910390f35b6105a2600480360381019061059d9190614885565b610f4b565b005b6105be60048036038101906105b9919061455b565b610ff9565b005b6105da60048036038101906105d59190614910565b61100d565b005b6105e4611045565b005b61060060048036038101906105fb9190614111565b61105d565b005b61061c6004803603810190610617919061462a565b61118b565b6040516106299190613fdf565b60405180910390f35b61063a6111f6565b6040516106479190614540565b60405180910390f35b61066a600480360381019061066591906149bf565b6111fd565b005b610686600480360381019061068191906149ff565b611213565b005b6106a2600480360381019061069d9190614043565b611344565b6040516106af9190613d82565b60405180910390f35b6106d260048036038101906106cd9190614a66565b611361565b005b6106ee60048036038101906106e99190614aa6565b61149e565b005b61070a6004803603810190610705919061462a565b6114f0565b005b61072660048036038101906107219190614ad3565b611511565b6040516107339190614b3f565b60405180910390f35b61075660048036038101906107519190614b5a565b61165c565b6040516107639190613fdf565b60405180910390f35b61078660048036038101906107819190614258565b611670565b005b6107a2600480360381019061079d9190614b9a565b611711565b005b60006107b08383611753565b905092915050565b6107c061181b565b60066000838152602001908152602001600020546107dd81611865565b6000826040516020016107f091906140ef565b60405160208183030381529060405280519060200120905080600660008681526020019081526020016000208190555050505050565b600061083182611879565b9050919050565b61084061181b565b6000801b61084d81611865565b610856826118f3565b5050565b6060610865826109d5565b61086e83611906565b60405160200161087f929190614c4f565b6040516020818303038152906040529050919050565b60006108a082610dfc565b9050919050565b6000600960009054906101000a900473ffffffffffffffffffffffffffffffffffffffff1673ffffffffffffffffffffffffffffffffffffffff168484846040516024016108f793929190614c91565b6040516020818303038152906040527f0c834143000000000000000000000000000000000000000000000000000000007bffffffffffffffffffffffffffffffffffffffffffffffffffffffff19166020820180517bffffffffffffffffffffffffffffffffffffffffffffffffffffffff83818316178352505050506040516109819190614d0f565b600060405180830381855af49150503d80600081146109bc576040519150601f19603f3d011682016040523d82523d6000602084013e6109c1565b606091505b50509050806109cf57600080fd5b50505050565b6060600280546109e490614d55565b80601f0160208091040260200160405190810160405280929190818152602001828054610a1090614d55565b8015610a5d5780601f10610a3257610100808354040283529160200191610a5d565b820191906000526020600020905b815481529060010190602001808311610a4057829003601f168201915b50505050509050919050565b6000801b610a7681611865565b6000600960009054906101000a900473ffffffffffffffffffffffffffffffffffffffff1673ffffffffffffffffffffffffffffffffffffffff16858585604051602401610ac693929190614d86565b6040516020818303038152906040527faf89e585000000000000000000000000000000000000000000000000000000007bffffffffffffffffffffffffffffffffffffffffffffffffffffffff19166020820180517bffffffffffffffffffffffffffffffffffffffffffffffffffffffff8381831617835250505050604051610b509190614d0f565b600060405180830381855af49150503d8060008114610b8b576040519150601f19603f3d011682016040523d82523d6000602084013e610b90565b606091505b5050905080610b9e57600080fd5b5050505050565b610bb28585858585611670565b5050505050565b610bc161181b565b600082604051602001610bd491906140ef565b604051602081830303815290604052805190602001209050610bf681836114f0565b505050565b610c0361181b565b8260005b8151811015610c5757610c4660066000848481518110610c2a57610c29614dbd565b5b6020026020010151815260200190815260200160002054611865565b80610c5090614e1b565b9050610c07565b50610c64858585856119d4565b5050505050565b600060036000838152602001908152602001600020600101549050919050565b610c93611c00565b73ffffffffffffffffffffffffffffffffffffffff168573ffffffffffffffffffffffffffffffffffffffff161480610cd95750610cd885610cd3611c00565b61165c565b5b610d18576040517f08c379a0000000000000000000000000000000000000000000000000000000008152600401610d0f90614ed5565b60405180910390fd5b610d258585858585611c08565b5050505050565b610d3582610c6b565b610d3e81611865565b610d488383611f29565b505050565b610d55611c00565b73ffffffffffffffffffffffffffffffffffffffff168173ffffffffffffffffffffffffffffffffffffffff1614610dc2576040517f08c379a0000000000000000000000000000000000000000000000000000000008152600401610db990614f67565b60405180910390fd5b610dcc828261200a565b5050565b6000801b610ddd81611865565b610de56120ec565b50565b6060610df4838361214f565b905092915050565b600080610e0883611344565b119050919050565b610e1861181b565b600082604051602001610e2b91906140ef565b604051602081830303815290604052805190602001209050610e4d8183610d2c565b600783604051610e5d9190614f87565b908152602001604051809103902060009054906101000a900460ff16610ebf576001600784604051610e8f9190614f87565b908152602001604051809103902060006101000a81548160ff021916908315150217905550610ebe8182612268565b5b505050565b6000610ecf82611344565b9050919050565b6000600460009054906101000a900460ff16905090565b60006008600083815260200190815260200160002060008473ffffffffffffffffffffffffffffffffffffffff1673ffffffffffffffffffffffffffffffffffffffff16815260200190815260200160002060010154905092915050565b610f5361181b565b60005b8251811015610fe857818181518110610f7257610f71614dbd565b5b6020026020010151610f9e85858481518110610f9157610f90614dbd565b5b6020026020010151610eed565b610fc286868581518110610fb557610fb4614dbd565b5b60200260200101516107a4565b610fcc9190614f9e565b1015610fd757600080fd5b80610fe190614e1b565b9050610f56565b50610ff48383836122c4565b505050565b6110068585858585610c8b565b5050505050565b61101561181b565b600660008481526020019081526020016000205461103281611865565b61103e85858585612361565b5050505050565b6000801b61105281611865565b61105a612511565b50565b6000600960009054906101000a900473ffffffffffffffffffffffffffffffffffffffff1673ffffffffffffffffffffffffffffffffffffffff168484846040516024016110ad93929190614c91565b6040516020818303038152906040527f8ad094b5000000000000000000000000000000000000000000000000000000007bffffffffffffffffffffffffffffffffffffffffffffffffffffffff19166020820180517bffffffffffffffffffffffffffffffffffffffffffffffffffffffff83818316178352505050506040516111379190614d0f565b600060405180830381855af49150503d8060008114611172576040519150601f19603f3d011682016040523d82523d6000602084013e611177565b606091505b505090508061118557600080fd5b50505050565b60006003600084815260200190815260200160002060000160008373ffffffffffffffffffffffffffffffffffffffff1673ffffffffffffffffffffffffffffffffffffffff16815260200190815260200160002060009054906101000a900460ff16905092915050565b6000801b81565b61120561181b565b61120f8282612574565b5050565b6000600960009054906101000a900473ffffffffffffffffffffffffffffffffffffffff1673ffffffffffffffffffffffffffffffffffffffff16858585856040516024016112659493929190614fd2565b6040516020818303038152906040527fa9171a72000000000000000000000000000000000000000000000000000000007bffffffffffffffffffffffffffffffffffffffffffffffffffffffff19166020820180517bffffffffffffffffffffffffffffffffffffffffffffffffffffffff83818316178352505050506040516112ef9190614d0f565b600060405180830381855af49150503d806000811461132a576040519150601f19603f3d011682016040523d82523d6000602084013e61132f565b606091505b505090508061133d57600080fd5b5050505050565b600060056000838152602001908152602001600020549050919050565b600061136e838333611511565b90506000600960009054906101000a900473ffffffffffffffffffffffffffffffffffffffff1673ffffffffffffffffffffffffffffffffffffffff168484846040516024016113c093929190614c91565b6040516020818303038152906040527f44d41680000000000000000000000000000000000000000000000000000000007bffffffffffffffffffffffffffffffffffffffffffffffffffffffff19166020820180517bffffffffffffffffffffffffffffffffffffffffffffffffffffffff838183161783525050505060405161144a9190614d0f565b600060405180830381855af49150503d8060008114611485576040519150601f19603f3d011682016040523d82523d6000602084013e61148a565b606091505b505090508061149857600080fd5b50505050565b6000801b6114ab81611865565b81600960006101000a81548173ffffffffffffffffffffffffffffffffffffffff021916908373ffffffffffffffffffffffffffffffffffffffff1602179055505050565b6114f982610c6b565b61150281611865565b61150c838361200a565b505050565b6000806000600960009054906101000a900473ffffffffffffffffffffffffffffffffffffffff1673ffffffffffffffffffffffffffffffffffffffff1686868660405160240161156493929190615017565b6040516020818303038152906040527fe3579fc5000000000000000000000000000000000000000000000000000000007bffffffffffffffffffffffffffffffffffffffffffffffffffffffff19166020820180517bffffffffffffffffffffffffffffffffffffffffffffffffffffffff83818316178352505050506040516115ee9190614d0f565b600060405180830381855af49150503d8060008114611629576040519150601f19603f3d011682016040523d82523d6000602084013e61162e565b606091505b50915091508161163d57600080fd5b80806020019051810190611651919061507a565b925050509392505050565b6000611668838361258a565b905092915050565b611678611c00565b73ffffffffffffffffffffffffffffffffffffffff168573ffffffffffffffffffffffffffffffffffffffff1614806116be57506116bd856116b8611c00565b61165c565b5b6116fd576040517f08c379a00000000000000000000000000000000000000000000000000000000081526004016116f490614ed5565b60405180910390fd5b61170a858585858561261e565b5050505050565b61171961181b565b806117248484610eed565b61172e85856107a4565b6117389190614f9e565b101561174357600080fd5b61174e8383836128b9565b505050565b60008073ffffffffffffffffffffffffffffffffffffffff168373ffffffffffffffffffffffffffffffffffffffff16036117c3576040517f08c379a00000000000000000000000000000000000000000000000000000000081526004016117ba90615119565b60405180910390fd5b60008083815260200190815260200160002060008473ffffffffffffffffffffffffffffffffffffffff1673ffffffffffffffffffffffffffffffffffffffff16815260200190815260200160002054905092915050565b611823610ed6565b15611863576040517f08c379a000000000000000000000000000000000000000000000000000000000815260040161185a90615185565b60405180910390fd5b565b61187681611871611c00565b612956565b50565b60007f7965db0b000000000000000000000000000000000000000000000000000000007bffffffffffffffffffffffffffffffffffffffffffffffffffffffff1916827bffffffffffffffffffffffffffffffffffffffffffffffffffffffff191614806118ec57506118eb826129db565b5b9050919050565b80600290816119029190615351565b5050565b60606000600161191584612abd565b01905060008167ffffffffffffffff81111561193457611933613db8565b5b6040519080825280601f01601f1916602001820160405280156119665781602001600182028036833780820191505090505b509050600082602001820190505b6001156119c9578080600190039150507f3031323334353637383961626364656600000000000000000000000000000000600a86061a8153600a85816119bd576119bc615423565b5b04945060008503611974575b819350505050919050565b600073ffffffffffffffffffffffffffffffffffffffff168473ffffffffffffffffffffffffffffffffffffffff1603611a43576040517f08c379a0000000000000000000000000000000000000000000000000000000008152600401611a3a906154c4565b60405180910390fd5b8151835114611a87576040517f08c379a0000000000000000000000000000000000000000000000000000000008152600401611a7e90615556565b60405180910390fd5b6000611a91611c00565b9050611aa281600087878787612c10565b60005b8451811015611b5b57838181518110611ac157611ac0614dbd565b5b6020026020010151600080878481518110611adf57611ade614dbd565b5b6020026020010151815260200190815260200160002060008873ffffffffffffffffffffffffffffffffffffffff1673ffffffffffffffffffffffffffffffffffffffff1681526020019081526020016000206000828254611b419190615576565b925050819055508080611b5390614e1b565b915050611aa5565b508473ffffffffffffffffffffffffffffffffffffffff16600073ffffffffffffffffffffffffffffffffffffffff168273ffffffffffffffffffffffffffffffffffffffff167f4a39dc06d4c0dbc64b70af90fd698a233a518aa5d07e595d983b8c0526c8f7fb8787604051611bd39291906155aa565b60405180910390a4611bea81600087878787612cc4565b611bf981600087878787612ccc565b5050505050565b600033905090565b8151835114611c4c576040517f08c379a0000000000000000000000000000000000000000000000000000000008152600401611c4390615556565b60405180910390fd5b600073ffffffffffffffffffffffffffffffffffffffff168473ffffffffffffffffffffffffffffffffffffffff1603611cbb576040517f08c379a0000000000000000000000000000000000000000000000000000000008152600401611cb290615653565b60405180910390fd5b6000611cc5611c00565b9050611cd5818787878787612c10565b60005b8451811015611e86576000858281518110611cf657611cf5614dbd565b5b602002602001015190506000858381518110611d1557611d14614dbd565b5b60200260200101519050600080600084815260200190815260200160002060008b73ffffffffffffffffffffffffffffffffffffffff1673ffffffffffffffffffffffffffffffffffffffff16815260200190815260200160002054905081811015611db6576040517f08c379a0000000000000000000000000000000000000000000000000000000008152600401611dad906156e5565b60405180910390fd5b81810360008085815260200190815260200160002060008c73ffffffffffffffffffffffffffffffffffffffff1673ffffffffffffffffffffffffffffffffffffffff168152602001908152602001600020819055508160008085815260200190815260200160002060008b73ffffffffffffffffffffffffffffffffffffffff1673ffffffffffffffffffffffffffffffffffffffff1681526020019081526020016000206000828254611e6b9190615576565b9250508190555050505080611e7f90614e1b565b9050611cd8565b508473ffffffffffffffffffffffffffffffffffffffff168673ffffffffffffffffffffffffffffffffffffffff168273ffffffffffffffffffffffffffffffffffffffff167f4a39dc06d4c0dbc64b70af90fd698a233a518aa5d07e595d983b8c0526c8f7fb8787604051611efd9291906155aa565b60405180910390a4611f13818787878787612cc4565b611f21818787878787612ccc565b505050505050565b611f33828261118b565b6120065760016003600084815260200190815260200160002060000160008373ffffffffffffffffffffffffffffffffffffffff1673ffffffffffffffffffffffffffffffffffffffff16815260200190815260200160002060006101000a81548160ff021916908315150217905550611fab611c00565b73ffffffffffffffffffffffffffffffffffffffff168173ffffffffffffffffffffffffffffffffffffffff16837f2f8788117e7eff1d82e926ec794901d17c78024a50270940304540a733656f0d60405160405180910390a45b5050565b612014828261118b565b156120e85760006003600084815260200190815260200160002060000160008373ffffffffffffffffffffffffffffffffffffffff1673ffffffffffffffffffffffffffffffffffffffff16815260200190815260200160002060006101000a81548160ff02191690831515021790555061208d611c00565b73ffffffffffffffffffffffffffffffffffffffff168173ffffffffffffffffffffffffffffffffffffffff16837ff6391f5c32d9c69d2a47ea670b442974b53935d1edc7fd64eb21e047a839171b60405160405180910390a45b5050565b6120f4612ea3565b6000600460006101000a81548160ff0219169083151502179055507f5db9ee0a495bf2e6ff9c91a7834c1ba4fdd244a5e8aa4e537bd38aeae4b073aa612138611c00565b6040516121459190615705565b60405180910390a1565b60608151835114612195576040517f08c379a000000000000000000000000000000000000000000000000000000000815260040161218c90615792565b60405180910390fd5b6000835167ffffffffffffffff8111156121b2576121b1613db8565b5b6040519080825280602002602001820160405280156121e05781602001602082028036833780820191505090505b50905060005b845181101561225d5761222d85828151811061220557612204614dbd565b5b60200260200101518583815181106122205761221f614dbd565b5b60200260200101516107a4565b8282815181106122405761223f614dbd565b5b6020026020010181815250508061225690614e1b565b90506121e6565b508091505092915050565b600061227383610c6b565b90508160036000858152602001908152602001600020600101819055508181847fbd79b86ffe0ab8e8776151514217cd7cacd52c909f66475c3af44e129f0b00ff60405160405180910390a4505050565b6122cc611c00565b73ffffffffffffffffffffffffffffffffffffffff168373ffffffffffffffffffffffffffffffffffffffff16148061231257506123118361230c611c00565b61165c565b5b612351576040517f08c379a000000000000000000000000000000000000000000000000000000000815260040161234890614ed5565b60405180910390fd5b61235c838383612eec565b505050565b600073ffffffffffffffffffffffffffffffffffffffff168473ffffffffffffffffffffffffffffffffffffffff16036123d0576040517f08c379a00000000000000000000000000000000000000000000000000000000081526004016123c7906154c4565b60405180910390fd5b60006123da611c00565b905060006123e7856131ba565b905060006123f4856131ba565b905061240583600089858589612c10565b8460008088815260200190815260200160002060008973ffffffffffffffffffffffffffffffffffffffff1673ffffffffffffffffffffffffffffffffffffffff16815260200190815260200160002060008282546124649190615576565b925050819055508673ffffffffffffffffffffffffffffffffffffffff16600073ffffffffffffffffffffffffffffffffffffffff168473ffffffffffffffffffffffffffffffffffffffff167fc3d58168c5ae7397731d063d5bbf3d657854427343f4c083240f7aacaa2d0f6289896040516124e29291906157b2565b60405180910390a46124f983600089858589612cc4565b61250883600089898989613234565b50505050505050565b61251961181b565b6001600460006101000a81548160ff0219169083151502179055507f62e78cea01bee320cd4e420270b5ea74000d11b0c9f74754ebdbfc544b05a25861255d611c00565b60405161256a9190615705565b60405180910390a1565b61258661257f611c00565b838361340b565b5050565b6000600160008473ffffffffffffffffffffffffffffffffffffffff1673ffffffffffffffffffffffffffffffffffffffff16815260200190815260200160002060008373ffffffffffffffffffffffffffffffffffffffff1673ffffffffffffffffffffffffffffffffffffffff16815260200190815260200160002060009054906101000a900460ff16905092915050565b600073ffffffffffffffffffffffffffffffffffffffff168473ffffffffffffffffffffffffffffffffffffffff160361268d576040517f08c379a000000000000000000000000000000000000000000000000000000000815260040161268490615653565b60405180910390fd5b6000612697611c00565b905060006126a4856131ba565b905060006126b1856131ba565b90506126c1838989858589612c10565b600080600088815260200190815260200160002060008a73ffffffffffffffffffffffffffffffffffffffff1673ffffffffffffffffffffffffffffffffffffffff16815260200190815260200160002054905085811015612758576040517f08c379a000000000000000000000000000000000000000000000000000000000815260040161274f906156e5565b60405180910390fd5b85810360008089815260200190815260200160002060008b73ffffffffffffffffffffffffffffffffffffffff1673ffffffffffffffffffffffffffffffffffffffff168152602001908152602001600020819055508560008089815260200190815260200160002060008a73ffffffffffffffffffffffffffffffffffffffff1673ffffffffffffffffffffffffffffffffffffffff168152602001908152602001600020600082825461280d9190615576565b925050819055508773ffffffffffffffffffffffffffffffffffffffff168973ffffffffffffffffffffffffffffffffffffffff168573ffffffffffffffffffffffffffffffffffffffff167fc3d58168c5ae7397731d063d5bbf3d657854427343f4c083240f7aacaa2d0f628a8a60405161288a9291906157b2565b60405180910390a46128a0848a8a86868a612cc4565b6128ae848a8a8a8a8a613234565b505050505050505050565b6128c1611c00565b73ffffffffffffffffffffffffffffffffffffffff168373ffffffffffffffffffffffffffffffffffffffff161480612907575061290683612901611c00565b61165c565b5b612946576040517f08c379a000000000000000000000000000000000000000000000000000000000815260040161293d90614ed5565b60405180910390fd5b612951838383613577565b505050565b612960828261118b565b6129d75761296d816137bd565b61297b8360001c60206137ea565b60405160200161298c929190615873565b6040516020818303038152906040526040517f08c379a00000000000000000000000000000000000000000000000000000000081526004016129ce91906140ef565b60405180910390fd5b5050565b60007fd9b67a26000000000000000000000000000000000000000000000000000000007bffffffffffffffffffffffffffffffffffffffffffffffffffffffff1916827bffffffffffffffffffffffffffffffffffffffffffffffffffffffff19161480612aa657507f0e89341c000000000000000000000000000000000000000000000000000000007bffffffffffffffffffffffffffffffffffffffffffffffffffffffff1916827bffffffffffffffffffffffffffffffffffffffffffffffffffffffff1916145b80612ab65750612ab582613a26565b5b9050919050565b600080600090507a184f03e93ff9f4daa797ed6e38ed64bf6a1f0100000000000000008310612b1b577a184f03e93ff9f4daa797ed6e38ed64bf6a1f0100000000000000008381612b1157612b10615423565b5b0492506040810190505b6d04ee2d6d415b85acef81000000008310612b58576d04ee2d6d415b85acef81000000008381612b4e57612b4d615423565b5b0492506020810190505b662386f26fc100008310612b8757662386f26fc100008381612b7d57612b7c615423565b5b0492506010810190505b6305f5e1008310612bb0576305f5e1008381612ba657612ba5615423565b5b0492506008810190505b6127108310612bd5576127108381612bcb57612bca615423565b5b0492506004810190505b60648310612bf85760648381612bee57612bed615423565b5b0492506002810190505b600a8310612c07576001810190505b80915050919050565b612c1861181b565b60005b8351811015612cad57828181518110612c3757612c36614dbd565b5b6020026020010151612c6387868481518110612c5657612c55614dbd565b5b6020026020010151610eed565b612c8788878581518110612c7a57612c79614dbd565b5b60200260200101516107a4565b612c919190614f9e565b1015612c9c57600080fd5b80612ca690614e1b565b9050612c1b565b50612cbc868686868686613a90565b505050505050565b505050505050565b612ceb8473ffffffffffffffffffffffffffffffffffffffff16613c60565b15612e9b578373ffffffffffffffffffffffffffffffffffffffff1663bc197c8187878686866040518663ffffffff1660e01b8152600401612d319594939291906158f7565b6020604051808303816000875af1925050508015612d6d57506040513d601f19601f82011682018060405250810190612d6a9190615974565b60015b612e1257612d796159ae565b806308c379a003612dd55750612d8d6159d0565b80612d985750612dd7565b806040517f08c379a0000000000000000000000000000000000000000000000000000000008152600401612dcc91906140ef565b60405180910390fd5b505b6040517f08c379a0000000000000000000000000000000000000000000000000000000008152600401612e0990615ad2565b60405180910390fd5b63bc197c8160e01b7bffffffffffffffffffffffffffffffffffffffffffffffffffffffff1916817bffffffffffffffffffffffffffffffffffffffffffffffffffffffff191614612e99576040517f08c379a0000000000000000000000000000000000000000000000000000000008152600401612e9090615b64565b60405180910390fd5b505b505050505050565b612eab610ed6565b612eea576040517f08c379a0000000000000000000000000000000000000000000000000000000008152600401612ee190615bd0565b60405180910390fd5b565b600073ffffffffffffffffffffffffffffffffffffffff168373ffffffffffffffffffffffffffffffffffffffff1603612f5b576040517f08c379a0000000000000000000000000000000000000000000000000000000008152600401612f5290615c62565b60405180910390fd5b8051825114612f9f576040517f08c379a0000000000000000000000000000000000000000000000000000000008152600401612f9690615556565b60405180910390fd5b6000612fa9611c00565b9050612fc981856000868660405180602001604052806000815250612c10565b60005b8351811015613116576000848281518110612fea57612fe9614dbd565b5b60200260200101519050600084838151811061300957613008614dbd565b5b60200260200101519050600080600084815260200190815260200160002060008973ffffffffffffffffffffffffffffffffffffffff1673ffffffffffffffffffffffffffffffffffffffff168152602001908152602001600020549050818110156130aa576040517f08c379a00000000000000000000000000000000000000000000000000000000081526004016130a190615cf4565b60405180910390fd5b81810360008085815260200190815260200160002060008a73ffffffffffffffffffffffffffffffffffffffff1673ffffffffffffffffffffffffffffffffffffffff16815260200190815260200160002081905550505050808061310e90614e1b565b915050612fcc565b50600073ffffffffffffffffffffffffffffffffffffffff168473ffffffffffffffffffffffffffffffffffffffff168273ffffffffffffffffffffffffffffffffffffffff167f4a39dc06d4c0dbc64b70af90fd698a233a518aa5d07e595d983b8c0526c8f7fb868660405161318e9291906155aa565b60405180910390a46131b481856000868660405180602001604052806000815250612cc4565b50505050565b60606000600167ffffffffffffffff8111156131d9576131d8613db8565b5b6040519080825280602002602001820160405280156132075781602001602082028036833780820191505090505b509050828160008151811061321f5761321e614dbd565b5b60200260200101818152505080915050919050565b6132538473ffffffffffffffffffffffffffffffffffffffff16613c60565b15613403578373ffffffffffffffffffffffffffffffffffffffff1663f23a6e6187878686866040518663ffffffff1660e01b8152600401613299959493929190615d14565b6020604051808303816000875af19250505080156132d557506040513d601f19601f820116820180604052508101906132d29190615974565b60015b61337a576132e16159ae565b806308c379a00361333d57506132f56159d0565b80613300575061333f565b806040517f08c379a000000000000000000000000000000000000000000000000000000000815260040161333491906140ef565b60405180910390fd5b505b6040517f08c379a000000000000000000000000000000000000000000000000000000000815260040161337190615ad2565b60405180910390fd5b63f23a6e6160e01b7bffffffffffffffffffffffffffffffffffffffffffffffffffffffff1916817bffffffffffffffffffffffffffffffffffffffffffffffffffffffff191614613401576040517f08c379a00000000000000000000000000000000000000000000000000000000081526004016133f890615b64565b60405180910390fd5b505b505050505050565b8173ffffffffffffffffffffffffffffffffffffffff168373ffffffffffffffffffffffffffffffffffffffff1603613479576040517f08c379a000000000000000000000000000000000000000000000000000000000815260040161347090615de0565b60405180910390fd5b80600160008573ffffffffffffffffffffffffffffffffffffffff1673ffffffffffffffffffffffffffffffffffffffff16815260200190815260200160002060008473ffffffffffffffffffffffffffffffffffffffff1673ffffffffffffffffffffffffffffffffffffffff16815260200190815260200160002060006101000a81548160ff0219169083151502179055508173ffffffffffffffffffffffffffffffffffffffff168373ffffffffffffffffffffffffffffffffffffffff167f17307eab39ab6107e8899845ad3d59bd9653f200f220920489ca2b5937696c318360405161356a9190613fdf565b60405180910390a3505050565b600073ffffffffffffffffffffffffffffffffffffffff168373ffffffffffffffffffffffffffffffffffffffff16036135e6576040517f08c379a00000000000000000000000000000000000000000000000000000000081526004016135dd90615c62565b60405180910390fd5b60006135f0611c00565b905060006135fd846131ba565b9050600061360a846131ba565b905061362a83876000858560405180602001604052806000815250612c10565b600080600087815260200190815260200160002060008873ffffffffffffffffffffffffffffffffffffffff1673ffffffffffffffffffffffffffffffffffffffff168152602001908152602001600020549050848110156136c1576040517f08c379a00000000000000000000000000000000000000000000000000000000081526004016136b890615cf4565b60405180910390fd5b84810360008088815260200190815260200160002060008973ffffffffffffffffffffffffffffffffffffffff1673ffffffffffffffffffffffffffffffffffffffff16815260200190815260200160002081905550600073ffffffffffffffffffffffffffffffffffffffff168773ffffffffffffffffffffffffffffffffffffffff168573ffffffffffffffffffffffffffffffffffffffff167fc3d58168c5ae7397731d063d5bbf3d657854427343f4c083240f7aacaa2d0f62898960405161378e9291906157b2565b60405180910390a46137b484886000868660405180602001604052806000815250612cc4565b50505050505050565b60606137e38273ffffffffffffffffffffffffffffffffffffffff16601460ff166137ea565b9050919050565b6060600060028360026137fd9190615e00565b6138079190615576565b67ffffffffffffffff8111156138205761381f613db8565b5b6040519080825280601f01601f1916602001820160405280156138525781602001600182028036833780820191505090505b5090507f30000000000000000000000000000000000000000000000000000000000000008160008151811061388a57613889614dbd565b5b60200101907effffffffffffffffffffffffffffffffffffffffffffffffffffffffffffff1916908160001a9053507f7800000000000000000000000000000000000000000000000000000000000000816001815181106138ee576138ed614dbd565b5b60200101907effffffffffffffffffffffffffffffffffffffffffffffffffffffffffffff1916908160001a9053506000600184600261392e9190615e00565b6139389190615576565b90505b60018111156139d8577f3031323334353637383961626364656600000000000000000000000000000000600f86166010811061397a57613979614dbd565b5b1a60f81b82828151811061399157613990614dbd565b5b60200101907effffffffffffffffffffffffffffffffffffffffffffffffffffffffffffff1916908160001a905350600485901c9450806139d190615e42565b905061393b565b5060008414613a1c576040517f08c379a0000000000000000000000000000000000000000000000000000000008152600401613a1390615eb7565b60405180910390fd5b8091505092915050565b60007f01ffc9a7000000000000000000000000000000000000000000000000000000007bffffffffffffffffffffffffffffffffffffffffffffffffffffffff1916827bffffffffffffffffffffffffffffffffffffffffffffffffffffffff1916149050919050565b613a9e868686868686613c83565b600073ffffffffffffffffffffffffffffffffffffffff168573ffffffffffffffffffffffffffffffffffffffff1603613b4f5760005b8351811015613b4d57828181518110613af157613af0614dbd565b5b602002602001015160056000868481518110613b1057613b0f614dbd565b5b602002602001015181526020019081526020016000206000828254613b359190615576565b9250508190555080613b4690614e1b565b9050613ad5565b505b600073ffffffffffffffffffffffffffffffffffffffff168473ffffffffffffffffffffffffffffffffffffffff1603613c585760005b8351811015613c56576000848281518110613ba457613ba3614dbd565b5b602002602001015190506000848381518110613bc357613bc2614dbd565b5b6020026020010151905060006005600084815260200190815260200160002054905081811015613c28576040517f08c379a0000000000000000000000000000000000000000000000000000000008152600401613c1f90615f49565b60405180910390fd5b818103600560008581526020019081526020016000208190555050505080613c4f90614e1b565b9050613b86565b505b505050505050565b6000808273ffffffffffffffffffffffffffffffffffffffff163b119050919050565b505050505050565b6000604051905090565b600080fd5b600080fd5b600073ffffffffffffffffffffffffffffffffffffffff82169050919050565b6000613cca82613c9f565b9050919050565b613cda81613cbf565b8114613ce557600080fd5b50565b600081359050613cf781613cd1565b92915050565b6000819050919050565b613d1081613cfd565b8114613d1b57600080fd5b50565b600081359050613d2d81613d07565b92915050565b60008060408385031215613d4a57613d49613c95565b5b6000613d5885828601613ce8565b9250506020613d6985828601613d1e565b9150509250929050565b613d7c81613cfd565b82525050565b6000602082019050613d976000830184613d73565b92915050565b600080fd5b600080fd5b6000601f19601f8301169050919050565b7f4e487b7100000000000000000000000000000000000000000000000000000000600052604160045260246000fd5b613df082613da7565b810181811067ffffffffffffffff82111715613e0f57613e0e613db8565b5b80604052505050565b6000613e22613c8b565b9050613e2e8282613de7565b919050565b600067ffffffffffffffff821115613e4e57613e4d613db8565b5b613e5782613da7565b9050602081019050919050565b82818337600083830152505050565b6000613e86613e8184613e33565b613e18565b905082815260208101848484011115613ea257613ea1613da2565b5b613ead848285613e64565b509392505050565b600082601f830112613eca57613ec9613d9d565b5b8135613eda848260208601613e73565b91505092915050565b60008060408385031215613efa57613ef9613c95565b5b6000613f0885828601613d1e565b925050602083013567ffffffffffffffff811115613f2957613f28613c9a565b5b613f3585828601613eb5565b9150509250929050565b60007fffffffff0000000000000000000000000000000000000000000000000000000082169050919050565b613f7481613f3f565b8114613f7f57600080fd5b50565b600081359050613f9181613f6b565b92915050565b600060208284031215613fad57613fac613c95565b5b6000613fbb84828501613f82565b91505092915050565b60008115159050919050565b613fd981613fc4565b82525050565b6000602082019050613ff46000830184613fd0565b92915050565b6000602082840312156140105761400f613c95565b5b600082013567ffffffffffffffff81111561402e5761402d613c9a565b5b61403a84828501613eb5565b91505092915050565b60006020828403121561405957614058613c95565b5b600061406784828501613d1e565b91505092915050565b600081519050919050565b600082825260208201905092915050565b60005b838110156140aa57808201518184015260208101905061408f565b60008484015250505050565b60006140c182614070565b6140cb818561407b565b93506140db81856020860161408c565b6140e481613da7565b840191505092915050565b6000602082019050818103600083015261410981846140b6565b905092915050565b60008060006060848603121561412a57614129613c95565b5b600061413886828701613d1e565b935050602061414986828701613ce8565b925050604061415a86828701613d1e565b9150509250925092565b60008060006060848603121561417d5761417c613c95565b5b600061418b86828701613ce8565b935050602061419c86828701613ce8565b92505060406141ad86828701613d1e565b9150509250925092565b600067ffffffffffffffff8211156141d2576141d1613db8565b5b6141db82613da7565b9050602081019050919050565b60006141fb6141f6846141b7565b613e18565b90508281526020810184848401111561421757614216613da2565b5b614222848285613e64565b509392505050565b600082601f83011261423f5761423e613d9d565b5b813561424f8482602086016141e8565b91505092915050565b600080600080600060a0868803121561427457614273613c95565b5b600061428288828901613ce8565b955050602061429388828901613ce8565b94505060406142a488828901613d1e565b93505060606142b588828901613d1e565b925050608086013567ffffffffffffffff8111156142d6576142d5613c9a565b5b6142e28882890161422a565b9150509295509295909350565b6000806040838503121561430657614305613c95565b5b600083013567ffffffffffffffff81111561432457614323613c9a565b5b61433085828601613eb5565b925050602061434185828601613ce8565b9150509250929050565b600067ffffffffffffffff82111561436657614365613db8565b5b602082029050602081019050919050565b600080fd5b600061438f61438a8461434b565b613e18565b905080838252602082019050602084028301858111156143b2576143b1614377565b5b835b818110156143db57806143c78882613d1e565b8452602084019350506020810190506143b4565b5050509392505050565b600082601f8301126143fa576143f9613d9d565b5b813561440a84826020860161437c565b91505092915050565b6000806000806080858703121561442d5761442c613c95565b5b600061443b87828801613ce8565b945050602085013567ffffffffffffffff81111561445c5761445b613c9a565b5b614468878288016143e5565b935050604085013567ffffffffffffffff81111561448957614488613c9a565b5b614495878288016143e5565b925050606085013567ffffffffffffffff8111156144b6576144b5613c9a565b5b6144c28782880161422a565b91505092959194509250565b6000819050919050565b6144e1816144ce565b81146144ec57600080fd5b50565b6000813590506144fe816144d8565b92915050565b60006020828403121561451a57614519613c95565b5b6000614528848285016144ef565b91505092915050565b61453a816144ce565b82525050565b60006020820190506145556000830184614531565b92915050565b600080600080600060a0868803121561457757614576613c95565b5b600061458588828901613ce8565b955050602061459688828901613ce8565b945050604086013567ffffffffffffffff8111156145b7576145b6613c9a565b5b6145c3888289016143e5565b935050606086013567ffffffffffffffff8111156145e4576145e3613c9a565b5b6145f0888289016143e5565b925050608086013567ffffffffffffffff81111561461157614610613c9a565b5b61461d8882890161422a565b9150509295509295909350565b6000806040838503121561464157614640613c95565b5b600061464f858286016144ef565b925050602061466085828601613ce8565b9150509250929050565b600067ffffffffffffffff82111561468557614684613db8565b5b602082029050602081019050919050565b60006146a96146a48461466a565b613e18565b905080838252602082019050602084028301858111156146cc576146cb614377565b5b835b818110156146f557806146e18882613ce8565b8452602084019350506020810190506146ce565b5050509392505050565b600082601f83011261471457614713613d9d565b5b8135614724848260208601614696565b91505092915050565b6000806040838503121561474457614743613c95565b5b600083013567ffffffffffffffff81111561476257614761613c9a565b5b61476e858286016146ff565b925050602083013567ffffffffffffffff81111561478f5761478e613c9a565b5b61479b858286016143e5565b9150509250929050565b600081519050919050565b600082825260208201905092915050565b6000819050602082019050919050565b6147da81613cfd565b82525050565b60006147ec83836147d1565b60208301905092915050565b6000602082019050919050565b6000614810826147a5565b61481a81856147b0565b9350614825836147c1565b8060005b8381101561485657815161483d88826147e0565b9750614848836147f8565b925050600181019050614829565b5085935050505092915050565b6000602082019050818103600083015261487d8184614805565b905092915050565b60008060006060848603121561489e5761489d613c95565b5b60006148ac86828701613ce8565b935050602084013567ffffffffffffffff8111156148cd576148cc613c9a565b5b6148d9868287016143e5565b925050604084013567ffffffffffffffff8111156148fa576148f9613c9a565b5b614906868287016143e5565b9150509250925092565b6000806000806080858703121561492a57614929613c95565b5b600061493887828801613ce8565b945050602061494987828801613d1e565b935050604061495a87828801613d1e565b925050606085013567ffffffffffffffff81111561497b5761497a613c9a565b5b6149878782880161422a565b91505092959194509250565b61499c81613fc4565b81146149a757600080fd5b50565b6000813590506149b981614993565b92915050565b600080604083850312156149d6576149d5613c95565b5b60006149e485828601613ce8565b92505060206149f5858286016149aa565b9150509250929050565b60008060008060808587031215614a1957614a18613c95565b5b6000614a2787828801613d1e565b9450506020614a3887828801613ce8565b9350506040614a4987828801613d1e565b9250506060614a5a87828801613d1e565b91505092959194509250565b60008060408385031215614a7d57614a7c613c95565b5b6000614a8b85828601613d1e565b9250506020614a9c85828601613ce8565b9150509250929050565b600060208284031215614abc57614abb613c95565b5b6000614aca84828501613ce8565b91505092915050565b600080600060608486031215614aec57614aeb613c95565b5b6000614afa86828701613d1e565b9350506020614b0b86828701613ce8565b9250506040614b1c86828701613ce8565b9150509250925092565b6000819050919050565b614b3981614b26565b82525050565b6000602082019050614b546000830184614b30565b92915050565b60008060408385031215614b7157614b70613c95565b5b6000614b7f85828601613ce8565b9250506020614b9085828601613ce8565b9150509250929050565b600080600060608486031215614bb357614bb2613c95565b5b6000614bc186828701613ce8565b9350506020614bd286828701613d1e565b9250506040614be386828701613d1e565b9150509250925092565b600081905092915050565b6000614c0382614070565b614c0d8185614bed565b9350614c1d81856020860161408c565b80840191505092915050565b7f2f00000000000000000000000000000000000000000000000000000000000000815250565b6000614c5b8285614bf8565b9150614c6682614c29565b600182019150614c768284614bf8565b91508190509392505050565b614c8b81613cbf565b82525050565b6000606082019050614ca66000830186613d73565b614cb36020830185614c82565b614cc06040830184613d73565b949350505050565b600081519050919050565b600081905092915050565b6000614ce982614cc8565b614cf38185614cd3565b9350614d0381856020860161408c565b80840191505092915050565b6000614d1b8284614cde565b915081905092915050565b7f4e487b7100000000000000000000000000000000000000000000000000000000600052602260045260246000fd5b60006002820490506001821680614d6d57607f821691505b602082108103614d8057614d7f614d26565b5b50919050565b6000606082019050614d9b6000830186614c82565b614da86020830185614c82565b614db56040830184613d73565b949350505050565b7f4e487b7100000000000000000000000000000000000000000000000000000000600052603260045260246000fd5b7f4e487b7100000000000000000000000000000000000000000000000000000000600052601160045260246000fd5b6000614e2682613cfd565b91507fffffffffffffffffffffffffffffffffffffffffffffffffffffffffffffffff8203614e5857614e57614dec565b5b600182019050919050565b7f455243313135353a2063616c6c6572206973206e6f7420746f6b656e206f776e60008201527f6572206f7220617070726f766564000000000000000000000000000000000000602082015250565b6000614ebf602e8361407b565b9150614eca82614e63565b604082019050919050565b60006020820190508181036000830152614eee81614eb2565b9050919050565b7f416363657373436f6e74726f6c3a2063616e206f6e6c792072656e6f756e636560008201527f20726f6c657320666f722073656c660000000000000000000000000000000000602082015250565b6000614f51602f8361407b565b9150614f5c82614ef5565b604082019050919050565b60006020820190508181036000830152614f8081614f44565b9050919050565b6000614f938284614bf8565b915081905092915050565b6000614fa982613cfd565b9150614fb483613cfd565b9250828203905081811115614fcc57614fcb614dec565b5b92915050565b6000608082019050614fe76000830187613d73565b614ff46020830186614c82565b6150016040830185613d73565b61500e6060830184613d73565b95945050505050565b600060608201905061502c6000830186613d73565b6150396020830185614c82565b6150466040830184614c82565b949350505050565b61505781614b26565b811461506257600080fd5b50565b6000815190506150748161504e565b92915050565b6000602082840312156150905761508f613c95565b5b600061509e84828501615065565b91505092915050565b7f455243313135353a2061646472657373207a65726f206973206e6f742061207660008201527f616c6964206f776e657200000000000000000000000000000000000000000000602082015250565b6000615103602a8361407b565b915061510e826150a7565b604082019050919050565b60006020820190508181036000830152615132816150f6565b9050919050565b7f5061757361626c653a2070617573656400000000000000000000000000000000600082015250565b600061516f60108361407b565b915061517a82615139565b602082019050919050565b6000602082019050818103600083015261519e81615162565b9050919050565b60008190508160005260206000209050919050565b60006020601f8301049050919050565b600082821b905092915050565b6000600883026152077fffffffffffffffffffffffffffffffffffffffffffffffffffffffffffffffff826151ca565b61521186836151ca565b95508019841693508086168417925050509392505050565b6000819050919050565b600061524e61524961524484613cfd565b615229565b613cfd565b9050919050565b6000819050919050565b61526883615233565b61527c61527482615255565b8484546151d7565b825550505050565b600090565b615291615284565b61529c81848461525f565b505050565b5b818110156152c0576152b5600082615289565b6001810190506152a2565b5050565b601f821115615305576152d6816151a5565b6152df846151ba565b810160208510156152ee578190505b6153026152fa856151ba565b8301826152a1565b50505b505050565b600082821c905092915050565b60006153286000198460080261530a565b1980831691505092915050565b60006153418383615317565b9150826002028217905092915050565b61535a82614070565b67ffffffffffffffff81111561537357615372613db8565b5b61537d8254614d55565b6153888282856152c4565b600060209050601f8311600181146153bb57600084156153a9578287015190505b6153b38582615335565b86555061541b565b601f1984166153c9866151a5565b60005b828110156153f1578489015182556001820191506020850194506020810190506153cc565b8683101561540e578489015161540a601f891682615317565b8355505b6001600288020188555050505b505050505050565b7f4e487b7100000000000000000000000000000000000000000000000000000000600052601260045260246000fd5b7f455243313135353a206d696e7420746f20746865207a65726f2061646472657360008201527f7300000000000000000000000000000000000000000000000000000000000000602082015250565b60006154ae60218361407b565b91506154b982615452565b604082019050919050565b600060208201905081810360008301526154dd816154a1565b9050919050565b7f455243313135353a2069647320616e6420616d6f756e7473206c656e6774682060008201527f6d69736d61746368000000000000000000000000000000000000000000000000602082015250565b600061554060288361407b565b915061554b826154e4565b604082019050919050565b6000602082019050818103600083015261556f81615533565b9050919050565b600061558182613cfd565b915061558c83613cfd565b92508282019050808211156155a4576155a3614dec565b5b92915050565b600060408201905081810360008301526155c48185614805565b905081810360208301526155d88184614805565b90509392505050565b7f455243313135353a207472616e7366657220746f20746865207a65726f20616460008201527f6472657373000000000000000000000000000000000000000000000000000000602082015250565b600061563d60258361407b565b9150615648826155e1565b604082019050919050565b6000602082019050818103600083015261566c81615630565b9050919050565b7f455243313135353a20696e73756666696369656e742062616c616e636520666f60008201527f72207472616e7366657200000000000000000000000000000000000000000000602082015250565b60006156cf602a8361407b565b91506156da82615673565b604082019050919050565b600060208201905081810360008301526156fe816156c2565b9050919050565b600060208201905061571a6000830184614c82565b92915050565b7f455243313135353a206163636f756e747320616e6420696473206c656e67746860008201527f206d69736d617463680000000000000000000000000000000000000000000000602082015250565b600061577c60298361407b565b915061578782615720565b604082019050919050565b600060208201905081810360008301526157ab8161576f565b9050919050565b60006040820190506157c76000830185613d73565b6157d46020830184613d73565b9392505050565b7f416363657373436f6e74726f6c3a206163636f756e7420000000000000000000600082015250565b6000615811601783614bed565b915061581c826157db565b601782019050919050565b7f206973206d697373696e6720726f6c6520000000000000000000000000000000600082015250565b600061585d601183614bed565b915061586882615827565b601182019050919050565b600061587e82615804565b915061588a8285614bf8565b915061589582615850565b91506158a18284614bf8565b91508190509392505050565b600082825260208201905092915050565b60006158c982614cc8565b6158d381856158ad565b93506158e381856020860161408c565b6158ec81613da7565b840191505092915050565b600060a08201905061590c6000830188614c82565b6159196020830187614c82565b818103604083015261592b8186614805565b9050818103606083015261593f8185614805565b9050818103608083015261595381846158be565b90509695505050505050565b60008151905061596e81613f6b565b92915050565b60006020828403121561598a57615989613c95565b5b60006159988482850161595f565b91505092915050565b60008160e01c9050919050565b600060033d11156159cd5760046000803e6159ca6000516159a1565b90505b90565b600060443d10615a5d576159e2613c8b565b60043d036004823e80513d602482011167ffffffffffffffff82111715615a0a575050615a5d565b808201805167ffffffffffffffff811115615a285750505050615a5d565b80602083010160043d038501811115615a45575050505050615a5d565b615a5482602001850186613de7565b82955050505050505b90565b7f455243313135353a207472616e7366657220746f206e6f6e2d4552433131353560008201527f526563656976657220696d706c656d656e746572000000000000000000000000602082015250565b6000615abc60348361407b565b9150615ac782615a60565b604082019050919050565b60006020820190508181036000830152615aeb81615aaf565b9050919050565b7f455243313135353a204552433131353552656365697665722072656a6563746560008201527f6420746f6b656e73000000000000000000000000000000000000000000000000602082015250565b6000615b4e60288361407b565b9150615b5982615af2565b604082019050919050565b60006020820190508181036000830152615b7d81615b41565b9050919050565b7f5061757361626c653a206e6f7420706175736564000000000000000000000000600082015250565b6000615bba60148361407b565b9150615bc582615b84565b602082019050919050565b60006020820190508181036000830152615be981615bad565b9050919050565b7f455243313135353a206275726e2066726f6d20746865207a65726f206164647260008201527f6573730000000000000000000000000000000000000000000000000000000000602082015250565b6000615c4c60238361407b565b9150615c5782615bf0565b604082019050919050565b60006020820190508181036000830152615c7b81615c3f565b9050919050565b7f455243313135353a206275726e20616d6f756e7420657863656564732062616c60008201527f616e636500000000000000000000000000000000000000000000000000000000602082015250565b6000615cde60248361407b565b9150615ce982615c82565b604082019050919050565b60006020820190508181036000830152615d0d81615cd1565b9050919050565b600060a082019050615d296000830188614c82565b615d366020830187614c82565b615d436040830186613d73565b615d506060830185613d73565b8181036080830152615d6281846158be565b90509695505050505050565b7f455243313135353a2073657474696e6720617070726f76616c2073746174757360008201527f20666f722073656c660000000000000000000000000000000000000000000000602082015250565b6000615dca60298361407b565b9150615dd582615d6e565b604082019050919050565b60006020820190508181036000830152615df981615dbd565b9050919050565b6000615e0b82613cfd565b9150615e1683613cfd565b9250828202615e2481613cfd565b91508282048414831517615e3b57615e3a614dec565b5b5092915050565b6000615e4d82613cfd565b915060008203615e6057615e5f614dec565b5b600182039050919050565b7f537472696e67733a20686578206c656e67746820696e73756666696369656e74600082015250565b6000615ea160208361407b565b9150615eac82615e6b565b602082019050919050565b60006020820190508181036000830152615ed081615e94565b9050919050565b7f455243313135353a206275726e20616d6f756e74206578636565647320746f7460008201527f616c537570706c79000000000000000000000000000000000000000000000000602082015250565b6000615f3360288361407b565b9150615f3e82615ed7565b604082019050919050565b60006020820190508181036000830152615f6281615f26565b905091905056fea2646970667358221220418db93499b9c9e048866f75c870048a167fc8d891f359a4f05813da981fae2a64736f6c63430008130033",
  "immutableReferences": {},
  "source": "// SPDX-License-Identifier: MIT\r\npragma solidity ^0.8.7;\r\n\r\n/*import \"../node_modules/@openzeppelin/contracts-upgradeable/token/ERC1155/ERC1155Upgradeable.sol\";\r\nimport \"../node_modules/@openzeppelin/contracts-upgradeable/access/AccessControlUpgradeable.sol\";\r\nimport \"../node_modules/@openzeppelin/contracts-upgradeable/security/PausableUpgradeable.sol\";\r\nimport \"../node_modules/@openzeppelin/contracts-upgradeable/token/ERC1155/extensions/ERC1155BurnableUpgradeable.sol\";\r\nimport \"../node_modules/@openzeppelin/contracts-upgradeable/token/ERC1155/extensions/ERC1155SupplyUpgradeable.sol\";\r\nimport \"../node_modules/@openzeppelin/contracts-upgradeable/proxy/utils/Initializable.sol\";\r\nimport \"../node_modules/@openzeppelin/contracts-upgradeable/utils/StringsUpgradeable.sol\";*/\r\nimport \"../node_modules/@openzeppelin/contracts/token/ERC1155/ERC1155.sol\";\r\nimport \"../node_modules/@openzeppelin/contracts/access/AccessControl.sol\";\r\nimport \"../node_modules/@openzeppelin/contracts/security/Pausable.sol\";\r\nimport \"../node_modules/@openzeppelin/contracts/token/ERC1155/extensions/ERC1155Burnable.sol\";\r\nimport \"../node_modules/@openzeppelin/contracts/token/ERC1155/extensions/ERC1155Supply.sol\";\r\nimport \"../node_modules/@openzeppelin/contracts/utils/Strings.sol\";\r\nimport \"./Market.sol\";\r\n\r\n/// @custom:security-contact dodo920306@gmail.com\r\ncontract The_Ohara_Protocol is ERC1155, AccessControl, Pausable, ERC1155Burnable, ERC1155Supply {\r\n    \r\n    mapping (uint256 => bytes32) idToPublisher; // Anyone can check which publisher an id belongs to.\r\n    mapping (string => bool) publisherHasMember;\r\n\r\n    struct Listing {\r\n        uint256 price; // \r\n        uint256 listedBalance; // \r\n        uint256 buyerCounts; // \r\n        address[] buyers; // \r\n    }\r\n    \r\n    mapping (uint256 => mapping (address => Listing)) listings; // id => seller => Listing\r\n\r\n    address market;\r\n\r\n    /// @custom:oz-upgrades-unsafe-allow constructor\r\n    constructor(address addr) ERC1155(\"\") {\r\n        market = addr;\r\n        _grantRole(DEFAULT_ADMIN_ROLE, msg.sender);\r\n        //_disableInitializers();\r\n    }\r\n\r\n    // There's no onlyPublisherSingle, for that it basically equals to onlyRole modifier from AccessControl. \r\n    modifier onlyPublisherBatch(uint256[] memory ids) {\r\n        for (uint256 i = 0; i < ids.length; ++i) {\r\n            _checkRole(idToPublisher[ids[i]]);\r\n        }\r\n        _;\r\n    }\r\n\r\n    /*function initialize(address addr) initializer public {\r\n        __ERC1155_init(\"\");\r\n        __AccessControl_init();\r\n        __Pausable_init();\r\n        __ERC1155Burnable_init();\r\n        __ERC1155Supply_init();\r\n\r\n        _grantRole(DEFAULT_ADMIN_ROLE, msg.sender);\r\n        \r\n    }*/\r\n\r\n    function setURI(string memory newuri) public whenNotPaused onlyRole(DEFAULT_ADMIN_ROLE) { // Tim: added whenNotPaused\r\n        _setURI(newuri);\r\n    }\r\n\r\n    // Tim: get the actual e-book uri, may require further modifications\r\n    // Tim: using toString() for getURIOfId()\r\n    using Strings for uint256;   \r\n    function getURIOfId(uint256 id) public view returns(string memory) {\r\n        return string.concat(super.uri(id), \"/\", id.toString());\r\n    }\r\n\r\n    /**\r\n     * @dev The publisher who wants to claim an account belongs to them must use this function\r\n     * with the magic string that represents themselves.\r\n     * \r\n     * The function will uses keccak256 solidity function to hash this string, but before that, it must be represented as bytes32.\r\n     * The type conversion from \"string memory\" to \"bytes32\" isn't allowed, so we use abi.encode() here.\r\n     * See https://ethereum.stackexchange.com/questions/119583/when-to-use-abi-encode-abi-encodepacked-or-abi-encodewithsignature-in-solidity\r\n     * for the reason of this selection.\r\n     * \r\n     * After that, we use grantRole() function from AccessControl,\r\n     * the reason we don't directly use _grantRole() here is because the onlyRole(getRoleAdmin(role)) should also be passed in this operation,\r\n     * and since grantRole() has that modifier originally, the current function doesn't require any modifier yet,\r\n     * and there's no need to be afraid that anyone hash others' magic string and directly call grantRole() because there's no way he/she can be the admin.\r\n     * \r\n     * If it's the first member to be added in the publisher,\r\n     * the msg.sender must be DEFAULT_ADMIN_ROLE to pass onlyRole(getRoleAdmin(role)) for that there's no way to set admin to others.\r\n     * If so, then the function would call _setRoleAdmin() to release the admin power to the publisher itself,\r\n     * indicating that from this point on, only the publisher can manage which accounts can act on its behalf.\r\n     * \r\n     * The only risk would be that a hacker steal one private key from DEFAULT_ADMIN_ROLE,\r\n     * in that case, the worse he/she can do is grant his/her accounts the publisher role that \"hasn't been registered yet\",\r\n     * for that the admins of the publishers already in the protocol can only be themselves.\r\n     * If so, then the publishers register in the future cannot use the same magic string as the hacker granted himself/herself even if they want.\r\n     * (Basically, it's the same idea as \"This username has already been used. Please try another.\",\r\n     * so the power of DEFAULT_ADMIN_ROLE is basically just register publishers and ids.)\r\n     */\r\n    function grantPublisher(string memory publisher, address account) public virtual whenNotPaused { // Tim: added whenNotPaused\r\n        bytes32 role = keccak256(abi.encode(publisher));\r\n        grantRole(role, account);\r\n\r\n        if (!publisherHasMember[publisher]) {\r\n            publisherHasMember[publisher] = true;\r\n            _setRoleAdmin(role, role);\r\n        }\r\n    }\r\n\r\n    /**\r\n     * @dev See the comment of grantPublisher() above for more info about the string publisher and the bytes32 role.\r\n     * Only the old publisher could set the publisher of an id to a new one.\r\n     * Since the default publisher of the id is 0x00, the first publisher of the id must be set by the DEFAULT_ADMIN_ROLE.\r\n     */\r\n    function setIdToPublisher(uint256 id, string memory publisher) //Tim: added whenNotPaused\r\n        public\r\n        whenNotPaused\r\n        onlyRole(idToPublisher[id])\r\n    {\r\n        bytes32 role = keccak256(abi.encode(publisher));\r\n        idToPublisher[id] = role;\r\n    }\r\n\r\n    // Tim: added idExists() to check if an id has existed\r\n    function idExists(uint256 id) public view returns (bool) {\r\n        return super.exists(id);\r\n    }\r\n\r\n    /**\r\n     * @dev See the comment of grantPublisher() above for more info about the string publisher and the bytes32 role.\r\n     * The reason we don't directly call _revokeRole() and the this function is safe is the same reason grantPublisher() doesn't call _grantRole().\r\n     * Use this function to kick someone including msg.sender himself/herself out of the publisher.\r\n     * The function also can only be called by the publisher itself.\r\n     */\r\n    function revokePublisher(string memory publisher, address account) public virtual whenNotPaused { // Tim: added whenNotPaused\r\n        bytes32 role = keccak256(abi.encode(publisher));\r\n        revokeRole(role, account);\r\n    }\r\n\r\n    // Tim: added two functions to call hasRole() & getRoleAdmin(), not sure if thye're needed\r\n    /*function hasRole(string memory role, address account) public view returns(bool) {\r\n        return super.hasRole(keccak256(abi.encode(role)), account);\r\n    }\r\n\r\n    function getRoleAdmin(string memory role) public view returns(bytes32) {\r\n        return super.getRoleAdmin(keccak256(abi.encode(role)));\r\n    }*/\r\n\r\n    function pause() public onlyRole(DEFAULT_ADMIN_ROLE) {\r\n        _pause();\r\n    }\r\n\r\n    function unpause() public onlyRole(DEFAULT_ADMIN_ROLE) {\r\n        _unpause();\r\n    }\r\n\r\n    // The publisher of the id would have power to mint the id to whoever they want.\r\n    function mint(address to, uint256 id, uint256 amount, bytes memory data)\r\n        public\r\n        whenNotPaused\r\n        onlyRole(idToPublisher[id])\r\n    {\r\n        _mint(to, id, amount, data);\r\n    }\r\n\r\n    function mintBatch(address to, uint256[] memory ids, uint256[] memory amounts, bytes memory data)\r\n        public\r\n        whenNotPaused\r\n        onlyPublisherBatch(ids)\r\n    {\r\n        _mintBatch(to, ids, amounts, data);\r\n    }\r\n\r\n    // Tim: added burn() & burnBatch()\r\n    function burn(address from, uint256 id, uint256 amount) public override(ERC1155Burnable) whenNotPaused {\r\n\r\n        require(balanceOf(from, id) - listedBalanceOf(from, id) >= amount); // \r\n\r\n        super.burn(from, id, amount);\r\n    }\r\n\r\n    function burnBatch(address from, uint256[] memory ids, uint256[] memory amounts) public override(ERC1155Burnable) whenNotPaused {\r\n\r\n        for (uint256 i = 0 ; i < ids.length ; ++i) { // \r\n            require(balanceOf(from, ids[i]) - listedBalanceOf(from, ids[i]) >= amounts[i]);\r\n        }\r\n\r\n        super.burnBatch(from, ids, amounts);\r\n    }\r\n\r\n    function _beforeTokenTransfer(address operator, address from, address to, uint256[] memory ids, uint256[] memory amounts, bytes memory data)\r\n        internal\r\n        whenNotPaused\r\n        override(ERC1155, ERC1155Supply)\r\n    {\r\n        for (uint256 i = 0 ; i < ids.length ; ++i) { // \r\n            require(balanceOf(from, ids[i]) - listedBalanceOf(from, ids[i]) >= amounts[i]);\r\n        }\r\n        super._beforeTokenTransfer(operator, from, to, ids, amounts, data);\r\n    }\r\n\r\n    // Tim: added transfer() & transferBatch()\r\n    function transfer(address from, address to, uint256 id, uint256 amount, bytes memory data) public {\r\n        super.safeTransferFrom(from, to, id, amount, data);\r\n    }\r\n\r\n    function transferBatch(address from, address to, uint256[] memory ids, uint256[] memory amounts, bytes memory data) public {\r\n        super.safeBatchTransferFrom(from, to, ids, amounts, data);\r\n    }\r\n\r\n    // Tim: added balanceOf() & balanceOfBatch()\r\n    function balanceOf(address account, uint256 id) \r\n        public\r\n        view\r\n        virtual\r\n        override(ERC1155)\r\n        returns(uint256)\r\n    {\r\n        return super.balanceOf(account, id);\r\n    }\r\n\r\n    function balanceOfBatch(address[] memory accounts, uint256[] memory ids)\r\n        public\r\n        view\r\n        virtual\r\n        override(ERC1155)\r\n        returns (uint256[] memory)\r\n    {\r\n        return super.balanceOfBatch(accounts, ids) ;\r\n    }\r\n\r\n    // Tim: added setApprovalForAll() & isApprovedForAll()\r\n    function setApprovalForAll(address operator, bool approved) public override(ERC1155) whenNotPaused {\r\n        super.setApprovalForAll(operator, approved);\r\n    }\r\n\r\n    function isApprovedForAll(address account, address operator) public view override(ERC1155) returns (bool) {\r\n        return super.isApprovedForAll(account, operator);\r\n    }\r\n\r\n    // Tim: added getIdSupply()\r\n    function getIdSupply(uint256 id) public view returns (uint256) {\r\n        return super.totalSupply(id);\r\n    }\r\n\r\n    function changeMarketAddr(address newAddr) public onlyRole(DEFAULT_ADMIN_ROLE) {\r\n        market = newAddr;\r\n    }\r\n\r\n    function checkIsBuyer(uint256 id, address seller, address buyer) public returns (int256) {\r\n        (bool ok, bytes memory data) = market.delegatecall(\r\n            abi.encodeWithSignature(\"checkIsBuyer(uint256,address,address)\", id, seller, buyer)\r\n        );\r\n        require(ok);\r\n        return abi.decode(data, (int256));\r\n    }\r\n\r\n    // Tim:  ID \r\n    function listedBalanceOf(address account, uint256 id) public view returns(uint256) {\r\n        return listings[id][account].listedBalance;\r\n    }\r\n\r\n    // Tim: \r\n    function listEBook(uint256 id, address seller, uint256 price, uint256 amount) public {\r\n        (bool ok, ) = market.delegatecall(\r\n            abi.encodeWithSignature(\"listEBook(uint256,address,uint256,uint256)\", id, seller, price, amount)\r\n        );\r\n        require(ok);\r\n    }\r\n\r\n    // Tim: \r\n    function modifyPrice(uint256 id, address seller, uint256 price) public {\r\n        (bool ok, ) = market.delegatecall(\r\n            abi.encodeWithSignature(\"modifyPrice(uint256,address,uint256)\", id, seller, price)\r\n        );\r\n        require(ok);\r\n    }\r\n\r\n    // Tim: \r\n    function cancelListing(uint256 id, address seller, uint256 amount) public {\r\n        (bool ok, ) = market.delegatecall(\r\n            abi.encodeWithSignature(\"cancelListing(uint256,address,uint256)\", id, seller, amount)\r\n        );\r\n        require(ok);\r\n    }\r\n\r\n    // Tim: \r\n    function determineBuyer(address seller, address buyer, uint256 id) public onlyRole(DEFAULT_ADMIN_ROLE) {\r\n        (bool ok, ) = market.delegatecall(\r\n            abi.encodeWithSignature(\"cancelListing(address,address,uint256)\", seller, buyer, id)\r\n        );\r\n        require(ok);\r\n    }\r\n\r\n    // Tim:  buyers \r\n    function purchaseEBook(uint256 id, address seller) public {\r\n        uint256 index = uint256(checkIsBuyer(id, seller, msg.sender));\r\n        (bool ok, ) = market.delegatecall(\r\n            abi.encodeWithSignature(\"purchaseEBook(uint256,address,uint256)\", id, seller, index)\r\n        );\r\n        require(ok);\r\n    }\r\n\r\n    function supportsInterface(bytes4 interfaceId)\r\n        public\r\n        view\r\n        override(ERC1155, AccessControl)\r\n        returns (bool)\r\n    {\r\n        return super.supportsInterface(interfaceId);\r\n    }\r\n}",
  "sourcePath": "C:\\Users\\TimOu_0911\\Desktop\\The_Ohara_Protocol\\contracts\\The_Ohara_Protocol.sol",
  "compiler": {
    "name": "solc",
    "version": "0.8.19+commit.7dd6d404.Emscripten.clang"
  },
  "schemaVersion": "3.4.13",
  "updatedAt": "2023-06-25T11:58:45.767Z",
  "networkType": "ethereum",
  "devdoc": {
    "custom:security-contact": "dodo920306@gmail.com",
    "events": {
      "ApprovalForAll(address,address,bool)": {
        "details": "Emitted when `account` grants or revokes permission to `operator` to transfer their tokens, according to `approved`."
      },
      "Paused(address)": {
        "details": "Emitted when the pause is triggered by `account`."
      },
      "RoleAdminChanged(bytes32,bytes32,bytes32)": {
        "details": "Emitted when `newAdminRole` is set as ``role``'s admin role, replacing `previousAdminRole` `DEFAULT_ADMIN_ROLE` is the starting admin for all roles, despite {RoleAdminChanged} not being emitted signaling this. _Available since v3.1._"
      },
      "RoleGranted(bytes32,address,address)": {
        "details": "Emitted when `account` is granted `role`. `sender` is the account that originated the contract call, an admin role bearer except when using {AccessControl-_setupRole}."
      },
      "RoleRevoked(bytes32,address,address)": {
        "details": "Emitted when `account` is revoked `role`. `sender` is the account that originated the contract call:   - if using `revokeRole`, it is the admin role bearer   - if using `renounceRole`, it is the role bearer (i.e. `account`)"
      },
      "TransferBatch(address,address,address,uint256[],uint256[])": {
        "details": "Equivalent to multiple {TransferSingle} events, where `operator`, `from` and `to` are the same for all transfers."
      },
      "TransferSingle(address,address,address,uint256,uint256)": {
        "details": "Emitted when `value` tokens of token type `id` are transferred from `from` to `to` by `operator`."
      },
      "URI(string,uint256)": {
        "details": "Emitted when the URI for token type `id` changes to `value`, if it is a non-programmatic URI. If an {URI} event was emitted for `id`, the standard https://eips.ethereum.org/EIPS/eip-1155#metadata-extensions[guarantees] that `value` will equal the value returned by {IERC1155MetadataURI-uri}."
      },
      "Unpaused(address)": {
        "details": "Emitted when the pause is lifted by `account`."
      }
    },
    "kind": "dev",
    "methods": {
      "balanceOf(address,uint256)": {
        "details": "See {IERC1155-balanceOf}. Requirements: - `account` cannot be the zero address."
      },
      "balanceOfBatch(address[],uint256[])": {
        "details": "See {IERC1155-balanceOfBatch}. Requirements: - `accounts` and `ids` must have the same length."
      },
      "constructor": {
        "custom:oz-upgrades-unsafe-allow": "constructor"
      },
      "exists(uint256)": {
        "details": "Indicates whether any token exist with a given id, or not."
      },
      "getRoleAdmin(bytes32)": {
        "details": "Returns the admin role that controls `role`. See {grantRole} and {revokeRole}. To change a role's admin, use {_setRoleAdmin}."
      },
      "grantPublisher(string,address)": {
        "details": "The publisher who wants to claim an account belongs to them must use this function with the magic string that represents themselves.  The function will uses keccak256 solidity function to hash this string, but before that, it must be represented as bytes32. The type conversion from \"string memory\" to \"bytes32\" isn't allowed, so we use abi.encode() here. See https://ethereum.stackexchange.com/questions/119583/when-to-use-abi-encode-abi-encodepacked-or-abi-encodewithsignature-in-solidity for the reason of this selection.  After that, we use grantRole() function from AccessControl, the reason we don't directly use _grantRole() here is because the onlyRole(getRoleAdmin(role)) should also be passed in this operation, and since grantRole() has that modifier originally, the current function doesn't require any modifier yet, and there's no need to be afraid that anyone hash others' magic string and directly call grantRole() because there's no way he/she can be the admin.  If it's the first member to be added in the publisher, the msg.sender must be DEFAULT_ADMIN_ROLE to pass onlyRole(getRoleAdmin(role)) for that there's no way to set admin to others. If so, then the function would call _setRoleAdmin() to release the admin power to the publisher itself, indicating that from this point on, only the publisher can manage which accounts can act on its behalf.  The only risk would be that a hacker steal one private key from DEFAULT_ADMIN_ROLE, in that case, the worse he/she can do is grant his/her accounts the publisher role that \"hasn't been registered yet\", for that the admins of the publishers already in the protocol can only be themselves. If so, then the publishers register in the future cannot use the same magic string as the hacker granted himself/herself even if they want. (Basically, it's the same idea as \"This username has already been used. Please try another.\", so the power of DEFAULT_ADMIN_ROLE is basically just register publishers and ids.)"
      },
      "grantRole(bytes32,address)": {
        "details": "Grants `role` to `account`. If `account` had not been already granted `role`, emits a {RoleGranted} event. Requirements: - the caller must have ``role``'s admin role. May emit a {RoleGranted} event."
      },
      "hasRole(bytes32,address)": {
        "details": "Returns `true` if `account` has been granted `role`."
      },
      "isApprovedForAll(address,address)": {
        "details": "See {IERC1155-isApprovedForAll}."
      },
      "paused()": {
        "details": "Returns true if the contract is paused, and false otherwise."
      },
      "renounceRole(bytes32,address)": {
        "details": "Revokes `role` from the calling account. Roles are often managed via {grantRole} and {revokeRole}: this function's purpose is to provide a mechanism for accounts to lose their privileges if they are compromised (such as when a trusted device is misplaced). If the calling account had been revoked `role`, emits a {RoleRevoked} event. Requirements: - the caller must be `account`. May emit a {RoleRevoked} event."
      },
      "revokePublisher(string,address)": {
        "details": "See the comment of grantPublisher() above for more info about the string publisher and the bytes32 role. The reason we don't directly call _revokeRole() and the this function is safe is the same reason grantPublisher() doesn't call _grantRole(). Use this function to kick someone including msg.sender himself/herself out of the publisher. The function also can only be called by the publisher itself."
      },
      "revokeRole(bytes32,address)": {
        "details": "Revokes `role` from `account`. If `account` had been granted `role`, emits a {RoleRevoked} event. Requirements: - the caller must have ``role``'s admin role. May emit a {RoleRevoked} event."
      },
      "safeBatchTransferFrom(address,address,uint256[],uint256[],bytes)": {
        "details": "See {IERC1155-safeBatchTransferFrom}."
      },
      "safeTransferFrom(address,address,uint256,uint256,bytes)": {
        "details": "See {IERC1155-safeTransferFrom}."
      },
      "setApprovalForAll(address,bool)": {
        "details": "See {IERC1155-setApprovalForAll}."
      },
      "setIdToPublisher(uint256,string)": {
        "details": "See the comment of grantPublisher() above for more info about the string publisher and the bytes32 role. Only the old publisher could set the publisher of an id to a new one. Since the default publisher of the id is 0x00, the first publisher of the id must be set by the DEFAULT_ADMIN_ROLE."
      },
      "totalSupply(uint256)": {
        "details": "Total amount of tokens in with a given id."
      },
      "uri(uint256)": {
        "details": "See {IERC1155MetadataURI-uri}. This implementation returns the same URI for *all* token types. It relies on the token type ID substitution mechanism https://eips.ethereum.org/EIPS/eip-1155#metadata[defined in the EIP]. Clients calling this function must replace the `\\{id\\}` substring with the actual token type ID."
      }
    },
    "version": 1
  },
  "userdoc": {
    "kind": "user",
    "methods": {},
    "version": 1
  }
}