{
  "contractName": "The_Ohara_Protocol",
  "abi": [
    {
      "inputs": [
        {
          "internalType": "address",
          "name": "addr",
          "type": "address"
        }
      ],
      "stateMutability": "nonpayable",
      "type": "constructor"
    },
    {
      "anonymous": false,
      "inputs": [
        {
          "indexed": true,
          "internalType": "address",
          "name": "account",
          "type": "address"
        },
        {
          "indexed": true,
          "internalType": "address",
          "name": "operator",
          "type": "address"
        },
        {
          "indexed": false,
          "internalType": "bool",
          "name": "approved",
          "type": "bool"
        }
      ],
      "name": "ApprovalForAll",
      "type": "event"
    },
    {
      "anonymous": false,
      "inputs": [
        {
          "indexed": true,
          "internalType": "uint256",
          "name": "id",
          "type": "uint256"
        },
        {
          "indexed": true,
          "internalType": "address",
          "name": "seller",
          "type": "address"
        },
        {
          "indexed": true,
          "internalType": "address",
          "name": "buyer",
          "type": "address"
        }
      ],
      "name": "BuyerDetermined",
      "type": "event"
    },
    {
      "anonymous": false,
      "inputs": [
        {
          "indexed": true,
          "internalType": "uint256",
          "name": "id",
          "type": "uint256"
        },
        {
          "indexed": true,
          "internalType": "address",
          "name": "seller",
          "type": "address"
        },
        {
          "indexed": true,
          "internalType": "uint256",
          "name": "price",
          "type": "uint256"
        },
        {
          "indexed": false,
          "internalType": "uint256",
          "name": "amount",
          "type": "uint256"
        }
      ],
      "name": "EBookListed",
      "type": "event"
    },
    {
      "anonymous": false,
      "inputs": [
        {
          "indexed": true,
          "internalType": "uint256",
          "name": "id",
          "type": "uint256"
        },
        {
          "indexed": true,
          "internalType": "address",
          "name": "seller",
          "type": "address"
        },
        {
          "indexed": true,
          "internalType": "address",
          "name": "canceller",
          "type": "address"
        }
      ],
      "name": "ListingCancelled",
      "type": "event"
    },
    {
      "anonymous": false,
      "inputs": [
        {
          "indexed": false,
          "internalType": "address",
          "name": "account",
          "type": "address"
        }
      ],
      "name": "Paused",
      "type": "event"
    },
    {
      "anonymous": false,
      "inputs": [
        {
          "indexed": true,
          "internalType": "uint256",
          "name": "id",
          "type": "uint256"
        },
        {
          "indexed": false,
          "internalType": "address",
          "name": "priceModifier",
          "type": "address"
        },
        {
          "indexed": true,
          "internalType": "uint256",
          "name": "originalPrice",
          "type": "uint256"
        },
        {
          "indexed": true,
          "internalType": "uint256",
          "name": "currentPrice",
          "type": "uint256"
        }
      ],
      "name": "PriceModified",
      "type": "event"
    },
    {
      "anonymous": false,
      "inputs": [
        {
          "indexed": true,
          "internalType": "bytes32",
          "name": "role",
          "type": "bytes32"
        },
        {
          "indexed": true,
          "internalType": "bytes32",
          "name": "previousAdminRole",
          "type": "bytes32"
        },
        {
          "indexed": true,
          "internalType": "bytes32",
          "name": "newAdminRole",
          "type": "bytes32"
        }
      ],
      "name": "RoleAdminChanged",
      "type": "event"
    },
    {
      "anonymous": false,
      "inputs": [
        {
          "indexed": true,
          "internalType": "bytes32",
          "name": "role",
          "type": "bytes32"
        },
        {
          "indexed": true,
          "internalType": "address",
          "name": "account",
          "type": "address"
        },
        {
          "indexed": true,
          "internalType": "address",
          "name": "sender",
          "type": "address"
        }
      ],
      "name": "RoleGranted",
      "type": "event"
    },
    {
      "anonymous": false,
      "inputs": [
        {
          "indexed": true,
          "internalType": "bytes32",
          "name": "role",
          "type": "bytes32"
        },
        {
          "indexed": true,
          "internalType": "address",
          "name": "account",
          "type": "address"
        },
        {
          "indexed": true,
          "internalType": "address",
          "name": "sender",
          "type": "address"
        }
      ],
      "name": "RoleRevoked",
      "type": "event"
    },
    {
      "anonymous": false,
      "inputs": [
        {
          "indexed": true,
          "internalType": "address",
          "name": "seller",
          "type": "address"
        },
        {
          "indexed": true,
          "internalType": "address",
          "name": "buyer",
          "type": "address"
        },
        {
          "indexed": true,
          "internalType": "uint256",
          "name": "id",
          "type": "uint256"
        }
      ],
      "name": "TransactionMade",
      "type": "event"
    },
    {
      "anonymous": false,
      "inputs": [
        {
          "indexed": true,
          "internalType": "address",
          "name": "operator",
          "type": "address"
        },
        {
          "indexed": true,
          "internalType": "address",
          "name": "from",
          "type": "address"
        },
        {
          "indexed": true,
          "internalType": "address",
          "name": "to",
          "type": "address"
        },
        {
          "indexed": false,
          "internalType": "uint256[]",
          "name": "ids",
          "type": "uint256[]"
        },
        {
          "indexed": false,
          "internalType": "uint256[]",
          "name": "values",
          "type": "uint256[]"
        }
      ],
      "name": "TransferBatch",
      "type": "event"
    },
    {
      "anonymous": false,
      "inputs": [
        {
          "indexed": true,
          "internalType": "address",
          "name": "operator",
          "type": "address"
        },
        {
          "indexed": true,
          "internalType": "address",
          "name": "from",
          "type": "address"
        },
        {
          "indexed": true,
          "internalType": "address",
          "name": "to",
          "type": "address"
        },
        {
          "indexed": false,
          "internalType": "uint256",
          "name": "id",
          "type": "uint256"
        },
        {
          "indexed": false,
          "internalType": "uint256",
          "name": "value",
          "type": "uint256"
        }
      ],
      "name": "TransferSingle",
      "type": "event"
    },
    {
      "anonymous": false,
      "inputs": [
        {
          "indexed": false,
          "internalType": "string",
          "name": "value",
          "type": "string"
        },
        {
          "indexed": true,
          "internalType": "uint256",
          "name": "id",
          "type": "uint256"
        }
      ],
      "name": "URI",
      "type": "event"
    },
    {
      "anonymous": false,
      "inputs": [
        {
          "indexed": false,
          "internalType": "address",
          "name": "account",
          "type": "address"
        }
      ],
      "name": "Unpaused",
      "type": "event"
    },
    {
      "inputs": [],
      "name": "DEFAULT_ADMIN_ROLE",
      "outputs": [
        {
          "internalType": "bytes32",
          "name": "",
          "type": "bytes32"
        }
      ],
      "stateMutability": "view",
      "type": "function"
    },
    {
      "inputs": [
        {
          "internalType": "uint256",
          "name": "id",
          "type": "uint256"
        }
      ],
      "name": "exists",
      "outputs": [
        {
          "internalType": "bool",
          "name": "",
          "type": "bool"
        }
      ],
      "stateMutability": "view",
      "type": "function"
    },
    {
      "inputs": [
        {
          "internalType": "bytes32",
          "name": "role",
          "type": "bytes32"
        },
        {
          "internalType": "address",
          "name": "account",
          "type": "address"
        }
      ],
      "name": "grantRole",
      "outputs": [],
      "stateMutability": "nonpayable",
      "type": "function"
    },
    {
      "inputs": [],
      "name": "paused",
      "outputs": [
        {
          "internalType": "bool",
          "name": "",
          "type": "bool"
        }
      ],
      "stateMutability": "view",
      "type": "function"
    },
    {
      "inputs": [
        {
          "internalType": "bytes32",
          "name": "role",
          "type": "bytes32"
        },
        {
          "internalType": "address",
          "name": "account",
          "type": "address"
        }
      ],
      "name": "renounceRole",
      "outputs": [],
      "stateMutability": "nonpayable",
      "type": "function"
    },
    {
      "inputs": [
        {
          "internalType": "bytes32",
          "name": "role",
          "type": "bytes32"
        },
        {
          "internalType": "address",
          "name": "account",
          "type": "address"
        }
      ],
      "name": "revokeRole",
      "outputs": [],
      "stateMutability": "nonpayable",
      "type": "function"
    },
    {
      "inputs": [
        {
          "internalType": "address",
          "name": "from",
          "type": "address"
        },
        {
          "internalType": "address",
          "name": "to",
          "type": "address"
        },
        {
          "internalType": "uint256[]",
          "name": "ids",
          "type": "uint256[]"
        },
        {
          "internalType": "uint256[]",
          "name": "amounts",
          "type": "uint256[]"
        },
        {
          "internalType": "bytes",
          "name": "data",
          "type": "bytes"
        }
      ],
      "name": "safeBatchTransferFrom",
      "outputs": [],
      "stateMutability": "nonpayable",
      "type": "function"
    },
    {
      "inputs": [
        {
          "internalType": "address",
          "name": "from",
          "type": "address"
        },
        {
          "internalType": "address",
          "name": "to",
          "type": "address"
        },
        {
          "internalType": "uint256",
          "name": "id",
          "type": "uint256"
        },
        {
          "internalType": "uint256",
          "name": "amount",
          "type": "uint256"
        },
        {
          "internalType": "bytes",
          "name": "data",
          "type": "bytes"
        }
      ],
      "name": "safeTransferFrom",
      "outputs": [],
      "stateMutability": "nonpayable",
      "type": "function"
    },
    {
      "inputs": [
        {
          "internalType": "uint256",
          "name": "id",
          "type": "uint256"
        }
      ],
      "name": "totalSupply",
      "outputs": [
        {
          "internalType": "uint256",
          "name": "",
          "type": "uint256"
        }
      ],
      "stateMutability": "view",
      "type": "function"
    },
    {
      "inputs": [
        {
          "internalType": "uint256",
          "name": "",
          "type": "uint256"
        }
      ],
      "name": "uri",
      "outputs": [
        {
          "internalType": "string",
          "name": "",
          "type": "string"
        }
      ],
      "stateMutability": "view",
      "type": "function"
    },
    {
      "inputs": [
        {
          "internalType": "string",
          "name": "newuri",
          "type": "string"
        }
      ],
      "name": "setURI",
      "outputs": [],
      "stateMutability": "nonpayable",
      "type": "function"
    },
    {
      "inputs": [
        {
          "internalType": "uint256",
          "name": "id",
          "type": "uint256"
        }
      ],
      "name": "getURIOfId",
      "outputs": [
        {
          "internalType": "string",
          "name": "",
          "type": "string"
        }
      ],
      "stateMutability": "view",
      "type": "function"
    },
    {
      "inputs": [
        {
          "internalType": "string",
          "name": "publisher",
          "type": "string"
        },
        {
          "internalType": "address",
          "name": "account",
          "type": "address"
        }
      ],
      "name": "grantPublisher",
      "outputs": [],
      "stateMutability": "nonpayable",
      "type": "function"
    },
    {
      "inputs": [
        {
          "internalType": "uint256",
          "name": "id",
          "type": "uint256"
        },
        {
          "internalType": "string",
          "name": "publisher",
          "type": "string"
        }
      ],
      "name": "setIdToPublisher",
      "outputs": [],
      "stateMutability": "nonpayable",
      "type": "function"
    },
    {
      "inputs": [
        {
          "internalType": "uint256",
          "name": "id",
          "type": "uint256"
        }
      ],
      "name": "idExists",
      "outputs": [
        {
          "internalType": "bool",
          "name": "",
          "type": "bool"
        }
      ],
      "stateMutability": "view",
      "type": "function"
    },
    {
      "inputs": [
        {
          "internalType": "string",
          "name": "publisher",
          "type": "string"
        },
        {
          "internalType": "address",
          "name": "account",
          "type": "address"
        }
      ],
      "name": "revokePublisher",
      "outputs": [],
      "stateMutability": "nonpayable",
      "type": "function"
    },
    {
      "inputs": [
        {
          "internalType": "string",
          "name": "role",
          "type": "string"
        },
        {
          "internalType": "address",
          "name": "account",
          "type": "address"
        }
      ],
      "name": "hasRole",
      "outputs": [
        {
          "internalType": "bool",
          "name": "",
          "type": "bool"
        }
      ],
      "stateMutability": "view",
      "type": "function"
    },
    {
      "inputs": [
        {
          "internalType": "bytes32",
          "name": "role",
          "type": "bytes32"
        },
        {
          "internalType": "address",
          "name": "account",
          "type": "address"
        }
      ],
      "name": "hasRole",
      "outputs": [
        {
          "internalType": "bool",
          "name": "",
          "type": "bool"
        }
      ],
      "stateMutability": "view",
      "type": "function"
    },
    {
      "inputs": [
        {
          "internalType": "bytes32",
          "name": "role",
          "type": "bytes32"
        }
      ],
      "name": "getRoleAdmin",
      "outputs": [
        {
          "internalType": "bytes32",
          "name": "",
          "type": "bytes32"
        }
      ],
      "stateMutability": "view",
      "type": "function"
    },
    {
      "inputs": [
        {
          "internalType": "string",
          "name": "role",
          "type": "string"
        }
      ],
      "name": "getRoleAdmin",
      "outputs": [
        {
          "internalType": "bytes32",
          "name": "",
          "type": "bytes32"
        }
      ],
      "stateMutability": "view",
      "type": "function"
    },
    {
      "inputs": [],
      "name": "pause",
      "outputs": [],
      "stateMutability": "nonpayable",
      "type": "function"
    },
    {
      "inputs": [],
      "name": "unpause",
      "outputs": [],
      "stateMutability": "nonpayable",
      "type": "function"
    },
    {
      "inputs": [
        {
          "internalType": "address",
          "name": "to",
          "type": "address"
        },
        {
          "internalType": "uint256",
          "name": "id",
          "type": "uint256"
        },
        {
          "internalType": "uint256",
          "name": "amount",
          "type": "uint256"
        },
        {
          "internalType": "bytes",
          "name": "data",
          "type": "bytes"
        }
      ],
      "name": "mint",
      "outputs": [],
      "stateMutability": "nonpayable",
      "type": "function"
    },
    {
      "inputs": [
        {
          "internalType": "address",
          "name": "to",
          "type": "address"
        },
        {
          "internalType": "uint256[]",
          "name": "ids",
          "type": "uint256[]"
        },
        {
          "internalType": "uint256[]",
          "name": "amounts",
          "type": "uint256[]"
        },
        {
          "internalType": "bytes",
          "name": "data",
          "type": "bytes"
        }
      ],
      "name": "mintBatch",
      "outputs": [],
      "stateMutability": "nonpayable",
      "type": "function"
    },
    {
      "inputs": [
        {
          "internalType": "address",
          "name": "from",
          "type": "address"
        },
        {
          "internalType": "uint256",
          "name": "id",
          "type": "uint256"
        },
        {
          "internalType": "uint256",
          "name": "amount",
          "type": "uint256"
        }
      ],
      "name": "burn",
      "outputs": [],
      "stateMutability": "nonpayable",
      "type": "function"
    },
    {
      "inputs": [
        {
          "internalType": "address",
          "name": "from",
          "type": "address"
        },
        {
          "internalType": "uint256[]",
          "name": "ids",
          "type": "uint256[]"
        },
        {
          "internalType": "uint256[]",
          "name": "amounts",
          "type": "uint256[]"
        }
      ],
      "name": "burnBatch",
      "outputs": [],
      "stateMutability": "nonpayable",
      "type": "function"
    },
    {
      "inputs": [
        {
          "internalType": "address",
          "name": "from",
          "type": "address"
        },
        {
          "internalType": "address",
          "name": "to",
          "type": "address"
        },
        {
          "internalType": "uint256",
          "name": "id",
          "type": "uint256"
        },
        {
          "internalType": "uint256",
          "name": "amount",
          "type": "uint256"
        },
        {
          "internalType": "bytes",
          "name": "data",
          "type": "bytes"
        }
      ],
      "name": "transfer",
      "outputs": [],
      "stateMutability": "nonpayable",
      "type": "function"
    },
    {
      "inputs": [
        {
          "internalType": "address",
          "name": "from",
          "type": "address"
        },
        {
          "internalType": "address",
          "name": "to",
          "type": "address"
        },
        {
          "internalType": "uint256[]",
          "name": "ids",
          "type": "uint256[]"
        },
        {
          "internalType": "uint256[]",
          "name": "amounts",
          "type": "uint256[]"
        },
        {
          "internalType": "bytes",
          "name": "data",
          "type": "bytes"
        }
      ],
      "name": "transferBatch",
      "outputs": [],
      "stateMutability": "nonpayable",
      "type": "function"
    },
    {
      "inputs": [
        {
          "internalType": "address",
          "name": "account",
          "type": "address"
        },
        {
          "internalType": "uint256",
          "name": "id",
          "type": "uint256"
        }
      ],
      "name": "balanceOf",
      "outputs": [
        {
          "internalType": "uint256",
          "name": "",
          "type": "uint256"
        }
      ],
      "stateMutability": "view",
      "type": "function"
    },
    {
      "inputs": [
        {
          "internalType": "address[]",
          "name": "accounts",
          "type": "address[]"
        },
        {
          "internalType": "uint256[]",
          "name": "ids",
          "type": "uint256[]"
        }
      ],
      "name": "balanceOfBatch",
      "outputs": [
        {
          "internalType": "uint256[]",
          "name": "",
          "type": "uint256[]"
        }
      ],
      "stateMutability": "view",
      "type": "function"
    },
    {
      "inputs": [
        {
          "internalType": "address",
          "name": "operator",
          "type": "address"
        },
        {
          "internalType": "bool",
          "name": "approved",
          "type": "bool"
        }
      ],
      "name": "setApprovalForAll",
      "outputs": [],
      "stateMutability": "nonpayable",
      "type": "function"
    },
    {
      "inputs": [
        {
          "internalType": "address",
          "name": "account",
          "type": "address"
        },
        {
          "internalType": "address",
          "name": "operator",
          "type": "address"
        }
      ],
      "name": "isApprovedForAll",
      "outputs": [
        {
          "internalType": "bool",
          "name": "",
          "type": "bool"
        }
      ],
      "stateMutability": "view",
      "type": "function"
    },
    {
      "inputs": [
        {
          "internalType": "uint256",
          "name": "id",
          "type": "uint256"
        }
      ],
      "name": "getIdSupply",
      "outputs": [
        {
          "internalType": "uint256",
          "name": "",
          "type": "uint256"
        }
      ],
      "stateMutability": "view",
      "type": "function"
    },
    {
      "inputs": [
        {
          "internalType": "address",
          "name": "newAddr",
          "type": "address"
        }
      ],
      "name": "changeMarketAddr",
      "outputs": [],
      "stateMutability": "nonpayable",
      "type": "function"
    },
    {
      "inputs": [
        {
          "internalType": "uint256",
          "name": "id",
          "type": "uint256"
        },
        {
          "internalType": "address",
          "name": "seller",
          "type": "address"
        },
        {
          "internalType": "address",
          "name": "buyer",
          "type": "address"
        }
      ],
      "name": "checkIsBuyer",
      "outputs": [
        {
          "internalType": "int256",
          "name": "",
          "type": "int256"
        }
      ],
      "stateMutability": "view",
      "type": "function"
    },
    {
      "inputs": [
        {
          "internalType": "address",
          "name": "account",
          "type": "address"
        },
        {
          "internalType": "uint256",
          "name": "id",
          "type": "uint256"
        }
      ],
      "name": "listedBalanceOf",
      "outputs": [
        {
          "internalType": "uint256",
          "name": "",
          "type": "uint256"
        }
      ],
      "stateMutability": "view",
      "type": "function"
    },
    {
      "inputs": [
        {
          "internalType": "uint256",
          "name": "id",
          "type": "uint256"
        },
        {
          "internalType": "address",
          "name": "seller",
          "type": "address"
        }
      ],
      "name": "getPrice",
      "outputs": [
        {
          "internalType": "uint256",
          "name": "",
          "type": "uint256"
        }
      ],
      "stateMutability": "view",
      "type": "function"
    },
    {
      "inputs": [
        {
          "internalType": "uint256",
          "name": "id",
          "type": "uint256"
        },
        {
          "internalType": "address",
          "name": "seller",
          "type": "address"
        },
        {
          "internalType": "uint256",
          "name": "price",
          "type": "uint256"
        },
        {
          "internalType": "uint256",
          "name": "amount",
          "type": "uint256"
        }
      ],
      "name": "listEBook",
      "outputs": [],
      "stateMutability": "nonpayable",
      "type": "function"
    },
    {
      "inputs": [
        {
          "internalType": "uint256",
          "name": "id",
          "type": "uint256"
        },
        {
          "internalType": "address",
          "name": "seller",
          "type": "address"
        },
        {
          "internalType": "uint256",
          "name": "price",
          "type": "uint256"
        }
      ],
      "name": "modifyPrice",
      "outputs": [],
      "stateMutability": "nonpayable",
      "type": "function"
    },
    {
      "inputs": [
        {
          "internalType": "uint256",
          "name": "id",
          "type": "uint256"
        },
        {
          "internalType": "address",
          "name": "seller",
          "type": "address"
        },
        {
          "internalType": "uint256",
          "name": "amount",
          "type": "uint256"
        }
      ],
      "name": "cancelListing",
      "outputs": [],
      "stateMutability": "nonpayable",
      "type": "function"
    },
    {
      "inputs": [
        {
          "internalType": "address",
          "name": "seller",
          "type": "address"
        },
        {
          "internalType": "address",
          "name": "buyer",
          "type": "address"
        },
        {
          "internalType": "uint256",
          "name": "id",
          "type": "uint256"
        }
      ],
      "name": "determineBuyer",
      "outputs": [],
      "stateMutability": "nonpayable",
      "type": "function"
    },
    {
      "inputs": [
        {
          "internalType": "uint256",
          "name": "id",
          "type": "uint256"
        },
        {
          "internalType": "address payable",
          "name": "seller",
          "type": "address"
        }
      ],
      "name": "purchaseEBook",
      "outputs": [],
      "stateMutability": "payable",
      "type": "function"
    },
    {
      "inputs": [
        {
          "internalType": "bytes4",
          "name": "interfaceId",
          "type": "bytes4"
        }
      ],
      "name": "supportsInterface",
      "outputs": [
        {
          "internalType": "bool",
          "name": "",
          "type": "bool"
        }
      ],
      "stateMutability": "view",
      "type": "function"
    }
  ],
  "bytecode": "0x60806040523480156200001157600080fd5b5060405162007ff938038062007ff98339818101604052810190620000379190620002b5565b604051806020016040528060008152506200005881620000d160201b60201c565b506000600460006101000a81548160ff02191690831515021790555080600960006101000a81548173ffffffffffffffffffffffffffffffffffffffff021916908373ffffffffffffffffffffffffffffffffffffffff160217905550620000ca6000801b33620000e660201b60201c565b5062000648565b8060029081620000e2919062000561565b5050565b620000f88282620001d860201b60201c565b620001d45760016003600084815260200190815260200160002060000160008373ffffffffffffffffffffffffffffffffffffffff1673ffffffffffffffffffffffffffffffffffffffff16815260200190815260200160002060006101000a81548160ff021916908315150217905550620001796200024360201b60201c565b73ffffffffffffffffffffffffffffffffffffffff168173ffffffffffffffffffffffffffffffffffffffff16837f2f8788117e7eff1d82e926ec794901d17c78024a50270940304540a733656f0d60405160405180910390a45b5050565b60006003600084815260200190815260200160002060000160008373ffffffffffffffffffffffffffffffffffffffff1673ffffffffffffffffffffffffffffffffffffffff16815260200190815260200160002060009054906101000a900460ff16905092915050565b600033905090565b600080fd5b600073ffffffffffffffffffffffffffffffffffffffff82169050919050565b60006200027d8262000250565b9050919050565b6200028f8162000270565b81146200029b57600080fd5b50565b600081519050620002af8162000284565b92915050565b600060208284031215620002ce57620002cd6200024b565b5b6000620002de848285016200029e565b91505092915050565b600081519050919050565b7f4e487b7100000000000000000000000000000000000000000000000000000000600052604160045260246000fd5b7f4e487b7100000000000000000000000000000000000000000000000000000000600052602260045260246000fd5b600060028204905060018216806200036957607f821691505b6020821081036200037f576200037e62000321565b5b50919050565b60008190508160005260206000209050919050565b60006020601f8301049050919050565b600082821b905092915050565b600060088302620003e97fffffffffffffffffffffffffffffffffffffffffffffffffffffffffffffffff82620003aa565b620003f58683620003aa565b95508019841693508086168417925050509392505050565b6000819050919050565b6000819050919050565b6000620004426200043c62000436846200040d565b62000417565b6200040d565b9050919050565b6000819050919050565b6200045e8362000421565b620004766200046d8262000449565b848454620003b7565b825550505050565b600090565b6200048d6200047e565b6200049a81848462000453565b505050565b5b81811015620004c257620004b660008262000483565b600181019050620004a0565b5050565b601f8211156200051157620004db8162000385565b620004e6846200039a565b81016020851015620004f6578190505b6200050e62000505856200039a565b8301826200049f565b50505b505050565b600082821c905092915050565b6000620005366000198460080262000516565b1980831691505092915050565b600062000551838362000523565b9150826002028217905092915050565b6200056c82620002e7565b67ffffffffffffffff811115620005885762000587620002f2565b5b62000594825462000350565b620005a1828285620004c6565b600060209050601f831160018114620005d95760008415620005c4578287015190505b620005d0858262000543565b86555062000640565b601f198416620005e98662000385565b60005b828110156200061357848901518255600182019150602085019450602081019050620005ec565b868310156200063357848901516200062f601f89168262000523565b8355505b6001600288020188555050505b505050505050565b6179a180620006586000396000f3fe60806040526004361061025b5760003560e01c80635a9807be11610144578063a217fddf116100b6578063bf99830e1161007a578063bf99830e1461094c578063d547741f14610975578063e3579fc51461099e578063e985e9c5146109db578063f242432a14610a18578063f5298aca14610a415761025b565b8063a217fddf14610876578063a22cb465146108a1578063a9171a72146108ca578063bd85b039146108f3578063be285853146109305761025b565b80636c9cd097116101085780636c9cd0971461076a5780636fcfcb66146107a7578063731133e9146107d05780638456cb59146107f95780638ad094b51461081057806391d14854146108395761025b565b80635a9807be1461065f5780635c975abb1461069c5780635ebb6365146106c7578063672a41a1146107045780636b20c454146107415761025b565b80631286c46d116101dd5780632f2ff15d116101a15780632f2ff15d1461055357806336568abe1461057c5780633f4ba83a146105a55780634e1273f4146105bc5780634f558e79146105f957806352509e97146106365761025b565b80631286c46d1461045e5780631f7fdffa14610487578063248a9ca3146104b05780632b57cfbb146104ed5780632eb2c2d61461052a5761025b565b80630b8a295a116102245780630b8a295a146103695780630c834143146103a65780630e89341c146103cf5780630ef5e2671461040c578063127217d6146104355761025b565b8062fdd58e1461026057806301ad63bd1461029d57806301ffc9a7146102c657806302fe5305146103035780630807a3bd1461032c575b600080fd5b34801561026c57600080fd5b506102876004803603810190610282919061530c565b610a6a565b604051610294919061535b565b60405180910390f35b3480156102a957600080fd5b506102c460048036038101906102bf91906154bc565b610a7e565b005b3480156102d257600080fd5b506102ed60048036038101906102e89190615570565b610aec565b6040516102fa91906155b8565b60405180910390f35b34801561030f57600080fd5b5061032a600480360381019061032591906155d3565b610afe565b005b34801561033857600080fd5b50610353600480360381019061034e919061561c565b610b20565b60405161036091906156c8565b60405180910390f35b34801561037557600080fd5b50610390600480360381019061038b919061561c565b610b5b565b60405161039d91906155b8565b60405180910390f35b3480156103b257600080fd5b506103cd60048036038101906103c891906156ea565b610b6d565b005b3480156103db57600080fd5b506103f660048036038101906103f1919061561c565b61101c565b60405161040391906156c8565b60405180910390f35b34801561041857600080fd5b50610433600480360381019061042e919061573d565b6110b0565b005b34801561044157600080fd5b5061045c60048036038101906104579190615831565b6114bc565b005b34801561046a57600080fd5b50610485600480360381019061048091906158c8565b611530565b005b34801561049357600080fd5b506104ae60048036038101906104a991906159ec565b611572565b005b3480156104bc57600080fd5b506104d760048036038101906104d29190615add565b6115e2565b6040516104e49190615b19565b60405180910390f35b3480156104f957600080fd5b50610514600480360381019061050f9190615b34565b611602565b604051610521919061535b565b60405180910390f35b34801561053657600080fd5b50610551600480360381019061054c9190615b74565b611660565b005b34801561055f57600080fd5b5061057a60048036038101906105759190615c43565b611701565b005b34801561058857600080fd5b506105a3600480360381019061059e9190615c43565b611722565b005b3480156105b157600080fd5b506105ba6117a5565b005b3480156105c857600080fd5b506105e360048036038101906105de9190615d46565b6117bd565b6040516105f09190615e7c565b60405180910390f35b34801561060557600080fd5b50610620600480360381019061061b919061561c565b6117d1565b60405161062d91906155b8565b60405180910390f35b34801561064257600080fd5b5061065d600480360381019061065891906158c8565b6117e5565b005b34801561066b57600080fd5b506106866004803603810190610681919061561c565b611899565b604051610693919061535b565b60405180910390f35b3480156106a857600080fd5b506106b16118ab565b6040516106be91906155b8565b60405180910390f35b3480156106d357600080fd5b506106ee60048036038101906106e9919061530c565b6118c2565b6040516106fb919061535b565b60405180910390f35b34801561071057600080fd5b5061072b600480360381019061072691906155d3565b611920565b6040516107389190615b19565b60405180910390f35b34801561074d57600080fd5b5061076860048036038101906107639190615e9e565b611958565b005b34801561077657600080fd5b50610791600480360381019061078c91906158c8565b611a06565b60405161079e91906155b8565b60405180910390f35b3480156107b357600080fd5b506107ce60048036038101906107c99190615b74565b611a40565b005b3480156107dc57600080fd5b506107f760048036038101906107f29190615f29565b611b20565b005b34801561080557600080fd5b5061080e611b58565b005b34801561081c57600080fd5b50610837600480360381019061083291906156ea565b611b70565b005b34801561084557600080fd5b50610860600480360381019061085b9190615c43565b611f19565b60405161086d91906155b8565b60405180910390f35b34801561088257600080fd5b5061088b611f84565b6040516108989190615b19565b60405180910390f35b3480156108ad57600080fd5b506108c860048036038101906108c39190615fd8565b611f8b565b005b3480156108d657600080fd5b506108f160048036038101906108ec9190616018565b611fa1565b005b3480156108ff57600080fd5b5061091a6004803603810190610915919061561c565b61238d565b604051610927919061535b565b60405180910390f35b61094a600480360381019061094591906160bd565b6123aa565b005b34801561095857600080fd5b50610973600480360381019061096e91906160fd565b612a22565b005b34801561098157600080fd5b5061099c60048036038101906109979190615c43565b612a74565b005b3480156109aa57600080fd5b506109c560048036038101906109c0919061612a565b612a95565b6040516109d29190616196565b60405180910390f35b3480156109e757600080fd5b50610a0260048036038101906109fd91906161b1565b612c6f565b604051610a0f91906155b8565b60405180910390f35b348015610a2457600080fd5b50610a3f6004803603810190610a3a9190615831565b612c83565b005b348015610a4d57600080fd5b50610a686004803603810190610a6391906161f1565b612d24565b005b6000610a768383612d66565b905092915050565b610a86612e2e565b6006600083815260200190815260200160002054610aa381612e78565b600082604051602001610ab691906156c8565b60405160208183030381529060405280519060200120905080600660008681526020019081526020016000208190555050505050565b6000610af782612e8c565b9050919050565b610b06612e2e565b6000801b610b1381612e78565b610b1c82612f06565b5050565b6060610b2b8261101c565b610b3483612f19565b604051602001610b459291906162a6565b6040516020818303038152906040529050919050565b6000610b66826117d1565b9050919050565b610b75612e2e565b82610b7f816117d1565b610bbe576040517f08c379a0000000000000000000000000000000000000000000000000000000008152600401610bb590616325565b60405180910390fd5b8160008111610c02576040517f08c379a0000000000000000000000000000000000000000000000000000000008152600401610bf990616391565b60405180910390fd5b83600073ffffffffffffffffffffffffffffffffffffffff168173ffffffffffffffffffffffffffffffffffffffff1603610c72576040517f08c379a0000000000000000000000000000000000000000000000000000000008152600401610c69906163fd565b60405180910390fd5b84610c7d3382612fe7565b80610cb357503373ffffffffffffffffffffffffffffffffffffffff168173ffffffffffffffffffffffffffffffffffffffff16145b610cf2576040517f08c379a0000000000000000000000000000000000000000000000000000000008152600401610ce990616469565b60405180910390fd5b868660006008600084815260200190815260200160002060008373ffffffffffffffffffffffffffffffffffffffff1673ffffffffffffffffffffffffffffffffffffffff1681526020019081526020016000206001015411610d8a576040517f08c379a0000000000000000000000000000000000000000000000000000000008152600401610d81906164d5565b60405180910390fd5b86600860008b815260200190815260200160002060008a73ffffffffffffffffffffffffffffffffffffffff1673ffffffffffffffffffffffffffffffffffffffff16815260200190815260200160002060020154600860008c815260200190815260200160002060008b73ffffffffffffffffffffffffffffffffffffffff1673ffffffffffffffffffffffffffffffffffffffff16815260200190815260200160002060010154610e3d9190616524565b1015610e7e576040517f08c379a0000000000000000000000000000000000000000000000000000000008152600401610e75906165a4565b60405180910390fd5b86600860008b815260200190815260200160002060008a73ffffffffffffffffffffffffffffffffffffffff1673ffffffffffffffffffffffffffffffffffffffff168152602001908152602001600020600101600082825403925050819055506000600860008b815260200190815260200160002060008a73ffffffffffffffffffffffffffffffffffffffff1673ffffffffffffffffffffffffffffffffffffffff1681526020019081526020016000206001015403610fb657600860008a815260200190815260200160002060008973ffffffffffffffffffffffffffffffffffffffff1673ffffffffffffffffffffffffffffffffffffffff16815260200190815260200160002060008082016000905560018201600090556002820160009055600382016000610fb39190615226565b50505b3373ffffffffffffffffffffffffffffffffffffffff168873ffffffffffffffffffffffffffffffffffffffff168a7f6cf8b4e3257a9e5cadb99e5e7422bd64237d03982ae538bd0ea7b2b45c92c03c60405160405180910390a4505050505050505050565b60606002805461102b906165f3565b80601f0160208091040260200160405190810160405280929190818152602001828054611057906165f3565b80156110a45780601f10611079576101008083540402835291602001916110a4565b820191906000526020600020905b81548152906001019060200180831161108757829003601f168201915b50505050509050919050565b6110b8612e2e565b6000801b6110c581612e78565b816110cf816117d1565b61110e576040517f08c379a000000000000000000000000000000000000000000000000000000000815260040161110590616325565b60405180910390fd5b84600073ffffffffffffffffffffffffffffffffffffffff168173ffffffffffffffffffffffffffffffffffffffff160361117e576040517f08c379a0000000000000000000000000000000000000000000000000000000008152600401611175906163fd565b60405180910390fd5b84600073ffffffffffffffffffffffffffffffffffffffff168173ffffffffffffffffffffffffffffffffffffffff16036111ee576040517f08c379a00000000000000000000000000000000000000000000000000000000081526004016111e5906163fd565b60405180910390fd5b6008600086815260200190815260200160002060008873ffffffffffffffffffffffffffffffffffffffff1673ffffffffffffffffffffffffffffffffffffffff168152602001908152602001600020600201546008600087815260200190815260200160002060008973ffffffffffffffffffffffffffffffffffffffff1673ffffffffffffffffffffffffffffffffffffffff16815260200190815260200160002060010154116112d6576040517f08c379a00000000000000000000000000000000000000000000000000000000081526004016112cd90616670565b60405180910390fd5b6008600086815260200190815260200160002060008873ffffffffffffffffffffffffffffffffffffffff1673ffffffffffffffffffffffffffffffffffffffff168152602001908152602001600020600301869080600181540180825580915050600190039060005260206000200160009091909190916101000a81548173ffffffffffffffffffffffffffffffffffffffff021916908373ffffffffffffffffffffffffffffffffffffffff16021790555060006008600087815260200190815260200160002060008973ffffffffffffffffffffffffffffffffffffffff1673ffffffffffffffffffffffffffffffffffffffff16815260200190815260200160002060020154036113ef576113ee8761307b565b5b6008600086815260200190815260200160002060008873ffffffffffffffffffffffffffffffffffffffff1673ffffffffffffffffffffffffffffffffffffffff168152602001908152602001600020600201600081548092919061145390616690565b91905055508573ffffffffffffffffffffffffffffffffffffffff168773ffffffffffffffffffffffffffffffffffffffff16867f293e36bbce608551a8ef03dba20114986371a7df520fde646a2a4a8136c8fc0e60405160405180910390a450505050505050565b816114c786856118c2565b6114d18786610a6a565b6114db9190616524565b101561151c576040517f08c379a000000000000000000000000000000000000000000000000000000000815260040161151390616724565b60405180910390fd5b6115298585858585612c83565b5050505050565b611538612e2e565b60008260405160200161154b91906156c8565b60405160208183030381529060405280519060200120905061156d8183612a74565b505050565b61157a612e2e565b8260005b81518110156115ce576115bd600660008484815181106115a1576115a0616744565b5b6020026020010151815260200190815260200160002054612e78565b806115c790616690565b905061157e565b506115db8585858561308a565b5050505050565b600060036000838152602001908152602001600020600101549050919050565b60006008600084815260200190815260200160002060008373ffffffffffffffffffffffffffffffffffffffff1673ffffffffffffffffffffffffffffffffffffffff16815260200190815260200160002060000154905092915050565b6116686132b6565b73ffffffffffffffffffffffffffffffffffffffff168573ffffffffffffffffffffffffffffffffffffffff1614806116ae57506116ad856116a86132b6565b612c6f565b5b6116ed576040517f08c379a00000000000000000000000000000000000000000000000000000000081526004016116e4906167e5565b60405180910390fd5b6116fa85858585856132be565b5050505050565b61170a826115e2565b61171381612e78565b61171d83836135df565b505050565b61172a6132b6565b73ffffffffffffffffffffffffffffffffffffffff168173ffffffffffffffffffffffffffffffffffffffff1614611797576040517f08c379a000000000000000000000000000000000000000000000000000000000815260040161178e90616877565b60405180910390fd5b6117a182826136c0565b5050565b6000801b6117b281612e78565b6117ba6137a2565b50565b60606117c98383613805565b905092915050565b6000806117dd8361238d565b119050919050565b6117ed612e2e565b60008260405160200161180091906156c8565b6040516020818303038152906040528051906020012090506118228183611701565b6007836040516118329190616897565b908152602001604051809103902060009054906101000a900460ff166118945760016007846040516118649190616897565b908152602001604051809103902060006101000a81548160ff021916908315150217905550611893818261391e565b5b505050565b60006118a48261238d565b9050919050565b6000600460009054906101000a900460ff16905090565b60006008600083815260200190815260200160002060008473ffffffffffffffffffffffffffffffffffffffff1673ffffffffffffffffffffffffffffffffffffffff16815260200190815260200160002060010154905092915050565b60006119518260405160200161193691906156c8565b604051602081830303815290604052805190602001206115e2565b9050919050565b611960612e2e565b60005b82518110156119f55781818151811061197f5761197e616744565b5b60200260200101516119ab8585848151811061199e5761199d616744565b5b60200260200101516118c2565b6119cf868685815181106119c2576119c1616744565b5b6020026020010151610a6a565b6119d99190616524565b10156119e457600080fd5b806119ee90616690565b9050611963565b50611a0183838361397a565b505050565b6000611a3883604051602001611a1c91906156c8565b6040516020818303038152906040528051906020012083611f19565b905092915050565b60005b8351811015611b0b57828181518110611a5f57611a5e616744565b5b6020026020010151611a8b87868481518110611a7e57611a7d616744565b5b60200260200101516118c2565b611aaf88878581518110611aa257611aa1616744565b5b6020026020010151610a6a565b611ab99190616524565b1015611afa576040517f08c379a0000000000000000000000000000000000000000000000000000000008152600401611af190616724565b60405180910390fd5b80611b0490616690565b9050611a43565b50611b198585858585611660565b5050505050565b611b28612e2e565b6006600084815260200190815260200160002054611b4581612e78565b611b5185858585613a17565b5050505050565b6000801b611b6581612e78565b611b6d613bc7565b50565b611b78612e2e565b82611b82816117d1565b611bc1576040517f08c379a0000000000000000000000000000000000000000000000000000000008152600401611bb890616325565b60405180910390fd5b8160008111611c05576040517f08c379a0000000000000000000000000000000000000000000000000000000008152600401611bfc90616391565b60405180910390fd5b83600073ffffffffffffffffffffffffffffffffffffffff168173ffffffffffffffffffffffffffffffffffffffff1603611c75576040517f08c379a0000000000000000000000000000000000000000000000000000000008152600401611c6c906163fd565b60405180910390fd5b84611c803382612fe7565b80611cb657503373ffffffffffffffffffffffffffffffffffffffff168173ffffffffffffffffffffffffffffffffffffffff16145b611cf5576040517f08c379a0000000000000000000000000000000000000000000000000000000008152600401611cec90616469565b60405180910390fd5b868660006008600084815260200190815260200160002060008373ffffffffffffffffffffffffffffffffffffffff1673ffffffffffffffffffffffffffffffffffffffff1681526020019081526020016000206001015411611d8d576040517f08c379a0000000000000000000000000000000000000000000000000000000008152600401611d84906164d5565b60405180910390fd5b6000600860008b815260200190815260200160002060008a73ffffffffffffffffffffffffffffffffffffffff1673ffffffffffffffffffffffffffffffffffffffff1681526020019081526020016000206002015414611e23576040517f08c379a0000000000000000000000000000000000000000000000000000000008152600401611e1a906168fa565b60405180910390fd5b6000600860008b815260200190815260200160002060008a73ffffffffffffffffffffffffffffffffffffffff1673ffffffffffffffffffffffffffffffffffffffff16815260200190815260200160002060000154905087600860008c815260200190815260200160002060008b73ffffffffffffffffffffffffffffffffffffffff1673ffffffffffffffffffffffffffffffffffffffff1681526020019081526020016000206000018190555087818b7f0102bf50452715279cbb01eacc751d98fbefecf58e68dcd55a805f9b3c514fe033604051611f059190616929565b60405180910390a450505050505050505050565b60006003600084815260200190815260200160002060000160008373ffffffffffffffffffffffffffffffffffffffff1673ffffffffffffffffffffffffffffffffffffffff16815260200190815260200160002060009054906101000a900460ff16905092915050565b6000801b81565b611f93612e2e565b611f9d8282613c2a565b5050565b611fa9612e2e565b83611fb3816117d1565b611ff2576040517f08c379a0000000000000000000000000000000000000000000000000000000008152600401611fe990616325565b60405180910390fd5b8260008111612036576040517f08c379a000000000000000000000000000000000000000000000000000000000815260040161202d90616391565b60405180910390fd5b826000811161207a576040517f08c379a000000000000000000000000000000000000000000000000000000000815260040161207190616391565b60405180910390fd5b85600073ffffffffffffffffffffffffffffffffffffffff168173ffffffffffffffffffffffffffffffffffffffff16036120ea576040517f08c379a00000000000000000000000000000000000000000000000000000000081526004016120e1906163fd565b60405180910390fd5b866120f53382612fe7565b8061212b57503373ffffffffffffffffffffffffffffffffffffffff168173ffffffffffffffffffffffffffffffffffffffff16145b61216a576040517f08c379a000000000000000000000000000000000000000000000000000000000815260040161216190616469565b60405180910390fd5b85600860008b815260200190815260200160002060008a73ffffffffffffffffffffffffffffffffffffffff1673ffffffffffffffffffffffffffffffffffffffff168152602001908152602001600020600101546121c98a8c610a6a565b6121d39190616524565b1015612214576040517f08c379a000000000000000000000000000000000000000000000000000000000815260040161220b90616990565b60405180910390fd5b6000600860008b815260200190815260200160002060008a73ffffffffffffffffffffffffffffffffffffffff1673ffffffffffffffffffffffffffffffffffffffff16815260200190815260200160002060020154036122c85786600860008b815260200190815260200160002060008a73ffffffffffffffffffffffffffffffffffffffff1673ffffffffffffffffffffffffffffffffffffffff168152602001908152602001600020600001819055505b85600860008b815260200190815260200160002060008a73ffffffffffffffffffffffffffffffffffffffff1673ffffffffffffffffffffffffffffffffffffffff168152602001908152602001600020600101600082825461232b91906169b0565b92505081905550868873ffffffffffffffffffffffffffffffffffffffff168a7f55cbae8317df70e8af66b23c30f5bc00600239c96d89aaca95308c26bf1a5e058960405161237a919061535b565b60405180910390a4505050505050505050565b600060056000838152602001908152602001600020549050919050565b6123b2612e2e565b816123bc816117d1565b6123fb576040517f08c379a00000000000000000000000000000000000000000000000000000000081526004016123f290616325565b60405180910390fd5b81600073ffffffffffffffffffffffffffffffffffffffff168173ffffffffffffffffffffffffffffffffffffffff160361246b576040517f08c379a0000000000000000000000000000000000000000000000000000000008152600401612462906163fd565b60405180910390fd5b838360006008600084815260200190815260200160002060008373ffffffffffffffffffffffffffffffffffffffff1673ffffffffffffffffffffffffffffffffffffffff1681526020019081526020016000206001015411612503576040517f08c379a00000000000000000000000000000000000000000000000000000000081526004016124fa906164d5565b60405180910390fd5b60003390506000612515888884612a95565b90507fffffffffffffffffffffffffffffffffffffffffffffffffffffffffffffffff8103612579576040517f08c379a000000000000000000000000000000000000000000000000000000000815260040161257090616a30565b60405180910390fd5b6000600860008a815260200190815260200160002060008973ffffffffffffffffffffffffffffffffffffffff1673ffffffffffffffffffffffffffffffffffffffff16815260200190815260200160002060000154905060006103e8610401836125e49190616a50565b6125ee9190616ac1565b905080341015612633576040517f08c379a000000000000000000000000000000000000000000000000000000000815260040161262a90616b3e565b60405180910390fd5b61265089858c600160405180602001604052806000815250613c40565b8873ffffffffffffffffffffffffffffffffffffffff166108fc839081150290604051600060405180830381858888f19350505050158015612696573d6000803e3d6000fd5b50600860008b815260200190815260200160002060008a73ffffffffffffffffffffffffffffffffffffffff1673ffffffffffffffffffffffffffffffffffffffff16815260200190815260200160002060010160008154809291906126fb90616b5e565b9190505550600860008b815260200190815260200160002060008a73ffffffffffffffffffffffffffffffffffffffff1673ffffffffffffffffffffffffffffffffffffffff168152602001908152602001600020600201600081548092919061276490616b5e565b91905055506000600860008c815260200190815260200160002060008b73ffffffffffffffffffffffffffffffffffffffff1673ffffffffffffffffffffffffffffffffffffffff16815260200190815260200160002060030184815481106127d0576127cf616744565b5b9060005260206000200160006101000a81548173ffffffffffffffffffffffffffffffffffffffff021916908373ffffffffffffffffffffffffffffffffffffffff160217905550600081346128269190616524565b111561287f578373ffffffffffffffffffffffffffffffffffffffff166108fc82346128529190616524565b9081150290604051600060405180830381858888f1935050505015801561287d573d6000803e3d6000fd5b505b6000600860008c815260200190815260200160002060008b73ffffffffffffffffffffffffffffffffffffffff1673ffffffffffffffffffffffffffffffffffffffff16815260200190815260200160002060020154036128e4576128e389613edb565b5b6000600860008c815260200190815260200160002060008b73ffffffffffffffffffffffffffffffffffffffff1673ffffffffffffffffffffffffffffffffffffffff16815260200190815260200160002060010154036129bb57600860008b815260200190815260200160002060008a73ffffffffffffffffffffffffffffffffffffffff1673ffffffffffffffffffffffffffffffffffffffff168152602001908152602001600020600080820160009055600182016000905560028201600090556003820160006129b89190615226565b50505b898473ffffffffffffffffffffffffffffffffffffffff168a73ffffffffffffffffffffffffffffffffffffffff167f4e14d3d55a435ef2aee46756984f50ee42f895efb7eb97f9c8ab2ea0961da73560405160405180910390a450505050505050505050565b6000801b612a2f81612e78565b81600960006101000a81548173ffffffffffffffffffffffffffffffffffffffff021916908373ffffffffffffffffffffffffffffffffffffffff1602179055505050565b612a7d826115e2565b612a8681612e78565b612a9083836136c0565b505050565b6000806008600086815260200190815260200160002060008573ffffffffffffffffffffffffffffffffffffffff1673ffffffffffffffffffffffffffffffffffffffff16815260200190815260200160002060030180549050905060006008600087815260200190815260200160002060008673ffffffffffffffffffffffffffffffffffffffff1673ffffffffffffffffffffffffffffffffffffffff168152602001908152602001600020600301805480602002602001604051908101604052809291908181526020018280548015612bc657602002820191906000526020600020905b8160009054906101000a900473ffffffffffffffffffffffffffffffffffffffff1673ffffffffffffffffffffffffffffffffffffffff1681526020019060010190808311612b7c575b5050505050905060005b82811015612c41578473ffffffffffffffffffffffffffffffffffffffff16828281518110612c0257612c01616744565b5b602002602001015173ffffffffffffffffffffffffffffffffffffffff1603612c3057809350505050612c68565b80612c3a90616690565b9050612bd0565b507fffffffffffffffffffffffffffffffffffffffffffffffffffffffffffffffff925050505b9392505050565b6000612c7b8383612fe7565b905092915050565b612c8b6132b6565b73ffffffffffffffffffffffffffffffffffffffff168573ffffffffffffffffffffffffffffffffffffffff161480612cd15750612cd085612ccb6132b6565b612c6f565b5b612d10576040517f08c379a0000000000000000000000000000000000000000000000000000000008152600401612d07906167e5565b60405180910390fd5b612d1d8585858585613c40565b5050505050565b612d2c612e2e565b80612d3784846118c2565b612d418585610a6a565b612d4b9190616524565b1015612d5657600080fd5b612d61838383613eea565b505050565b60008073ffffffffffffffffffffffffffffffffffffffff168373ffffffffffffffffffffffffffffffffffffffff1603612dd6576040517f08c379a0000000000000000000000000000000000000000000000000000000008152600401612dcd90616bf9565b60405180910390fd5b60008083815260200190815260200160002060008473ffffffffffffffffffffffffffffffffffffffff1673ffffffffffffffffffffffffffffffffffffffff16815260200190815260200160002054905092915050565b612e366118ab565b15612e76576040517f08c379a0000000000000000000000000000000000000000000000000000000008152600401612e6d90616c65565b60405180910390fd5b565b612e8981612e846132b6565b613f87565b50565b60007f7965db0b000000000000000000000000000000000000000000000000000000007bffffffffffffffffffffffffffffffffffffffffffffffffffffffff1916827bffffffffffffffffffffffffffffffffffffffffffffffffffffffff19161480612eff5750612efe8261400c565b5b9050919050565b8060029081612f159190616e31565b5050565b606060006001612f28846140ee565b01905060008167ffffffffffffffff811115612f4757612f46615391565b5b6040519080825280601f01601f191660200182016040528015612f795781602001600182028036833780820191505090505b509050600082602001820190505b600115612fdc578080600190039150507f3031323334353637383961626364656600000000000000000000000000000000600a86061a8153600a8581612fd057612fcf616a92565b5b04945060008503612f87575b819350505050919050565b6000600160008473ffffffffffffffffffffffffffffffffffffffff1673ffffffffffffffffffffffffffffffffffffffff16815260200190815260200160002060008373ffffffffffffffffffffffffffffffffffffffff1673ffffffffffffffffffffffffffffffffffffffff16815260200190815260200160002060009054906101000a900460ff16905092915050565b61308781306001614241565b50565b600073ffffffffffffffffffffffffffffffffffffffff168473ffffffffffffffffffffffffffffffffffffffff16036130f9576040517f08c379a00000000000000000000000000000000000000000000000000000000081526004016130f090616f75565b60405180910390fd5b815183511461313d576040517f08c379a000000000000000000000000000000000000000000000000000000000815260040161313490617007565b60405180910390fd5b60006131476132b6565b9050613158816000878787876143ad565b60005b84518110156132115783818151811061317757613176616744565b5b602002602001015160008087848151811061319557613194616744565b5b6020026020010151815260200190815260200160002060008873ffffffffffffffffffffffffffffffffffffffff1673ffffffffffffffffffffffffffffffffffffffff16815260200190815260200160002060008282546131f791906169b0565b92505081905550808061320990616690565b91505061315b565b508473ffffffffffffffffffffffffffffffffffffffff16600073ffffffffffffffffffffffffffffffffffffffff168273ffffffffffffffffffffffffffffffffffffffff167f4a39dc06d4c0dbc64b70af90fd698a233a518aa5d07e595d983b8c0526c8f7fb8787604051613289929190617027565b60405180910390a46132a0816000878787876143cb565b6132af816000878787876143d3565b5050505050565b600033905090565b8151835114613302576040517f08c379a00000000000000000000000000000000000000000000000000000000081526004016132f990617007565b60405180910390fd5b600073ffffffffffffffffffffffffffffffffffffffff168473ffffffffffffffffffffffffffffffffffffffff1603613371576040517f08c379a0000000000000000000000000000000000000000000000000000000008152600401613368906170d0565b60405180910390fd5b600061337b6132b6565b905061338b8187878787876143ad565b60005b845181101561353c5760008582815181106133ac576133ab616744565b5b6020026020010151905060008583815181106133cb576133ca616744565b5b60200260200101519050600080600084815260200190815260200160002060008b73ffffffffffffffffffffffffffffffffffffffff1673ffffffffffffffffffffffffffffffffffffffff1681526020019081526020016000205490508181101561346c576040517f08c379a000000000000000000000000000000000000000000000000000000000815260040161346390617162565b60405180910390fd5b81810360008085815260200190815260200160002060008c73ffffffffffffffffffffffffffffffffffffffff1673ffffffffffffffffffffffffffffffffffffffff168152602001908152602001600020819055508160008085815260200190815260200160002060008b73ffffffffffffffffffffffffffffffffffffffff1673ffffffffffffffffffffffffffffffffffffffff168152602001908152602001600020600082825461352191906169b0565b925050819055505050508061353590616690565b905061338e565b508473ffffffffffffffffffffffffffffffffffffffff168673ffffffffffffffffffffffffffffffffffffffff168273ffffffffffffffffffffffffffffffffffffffff167f4a39dc06d4c0dbc64b70af90fd698a233a518aa5d07e595d983b8c0526c8f7fb87876040516135b3929190617027565b60405180910390a46135c98187878787876143cb565b6135d78187878787876143d3565b505050505050565b6135e98282611f19565b6136bc5760016003600084815260200190815260200160002060000160008373ffffffffffffffffffffffffffffffffffffffff1673ffffffffffffffffffffffffffffffffffffffff16815260200190815260200160002060006101000a81548160ff0219169083151502179055506136616132b6565b73ffffffffffffffffffffffffffffffffffffffff168173ffffffffffffffffffffffffffffffffffffffff16837f2f8788117e7eff1d82e926ec794901d17c78024a50270940304540a733656f0d60405160405180910390a45b5050565b6136ca8282611f19565b1561379e5760006003600084815260200190815260200160002060000160008373ffffffffffffffffffffffffffffffffffffffff1673ffffffffffffffffffffffffffffffffffffffff16815260200190815260200160002060006101000a81548160ff0219169083151502179055506137436132b6565b73ffffffffffffffffffffffffffffffffffffffff168173ffffffffffffffffffffffffffffffffffffffff16837ff6391f5c32d9c69d2a47ea670b442974b53935d1edc7fd64eb21e047a839171b60405160405180910390a45b5050565b6137aa6145aa565b6000600460006101000a81548160ff0219169083151502179055507f5db9ee0a495bf2e6ff9c91a7834c1ba4fdd244a5e8aa4e537bd38aeae4b073aa6137ee6132b6565b6040516137fb9190616929565b60405180910390a1565b6060815183511461384b576040517f08c379a0000000000000000000000000000000000000000000000000000000008152600401613842906171f4565b60405180910390fd5b6000835167ffffffffffffffff81111561386857613867615391565b5b6040519080825280602002602001820160405280156138965781602001602082028036833780820191505090505b50905060005b8451811015613913576138e38582815181106138bb576138ba616744565b5b60200260200101518583815181106138d6576138d5616744565b5b6020026020010151610a6a565b8282815181106138f6576138f5616744565b5b6020026020010181815250508061390c90616690565b905061389c565b508091505092915050565b6000613929836115e2565b90508160036000858152602001908152602001600020600101819055508181847fbd79b86ffe0ab8e8776151514217cd7cacd52c909f66475c3af44e129f0b00ff60405160405180910390a4505050565b6139826132b6565b73ffffffffffffffffffffffffffffffffffffffff168373ffffffffffffffffffffffffffffffffffffffff1614806139c857506139c7836139c26132b6565b612c6f565b5b613a07576040517f08c379a00000000000000000000000000000000000000000000000000000000081526004016139fe906167e5565b60405180910390fd5b613a128383836145f3565b505050565b600073ffffffffffffffffffffffffffffffffffffffff168473ffffffffffffffffffffffffffffffffffffffff1603613a86576040517f08c379a0000000000000000000000000000000000000000000000000000000008152600401613a7d90616f75565b60405180910390fd5b6000613a906132b6565b90506000613a9d856148c1565b90506000613aaa856148c1565b9050613abb836000898585896143ad565b8460008088815260200190815260200160002060008973ffffffffffffffffffffffffffffffffffffffff1673ffffffffffffffffffffffffffffffffffffffff1681526020019081526020016000206000828254613b1a91906169b0565b925050819055508673ffffffffffffffffffffffffffffffffffffffff16600073ffffffffffffffffffffffffffffffffffffffff168473ffffffffffffffffffffffffffffffffffffffff167fc3d58168c5ae7397731d063d5bbf3d657854427343f4c083240f7aacaa2d0f628989604051613b98929190617214565b60405180910390a4613baf836000898585896143cb565b613bbe8360008989898961493b565b50505050505050565b613bcf612e2e565b6001600460006101000a81548160ff0219169083151502179055507f62e78cea01bee320cd4e420270b5ea74000d11b0c9f74754ebdbfc544b05a258613c136132b6565b604051613c209190616929565b60405180910390a1565b613c3c613c356132b6565b8383614241565b5050565b600073ffffffffffffffffffffffffffffffffffffffff168473ffffffffffffffffffffffffffffffffffffffff1603613caf576040517f08c379a0000000000000000000000000000000000000000000000000000000008152600401613ca6906170d0565b60405180910390fd5b6000613cb96132b6565b90506000613cc6856148c1565b90506000613cd3856148c1565b9050613ce38389898585896143ad565b600080600088815260200190815260200160002060008a73ffffffffffffffffffffffffffffffffffffffff1673ffffffffffffffffffffffffffffffffffffffff16815260200190815260200160002054905085811015613d7a576040517f08c379a0000000000000000000000000000000000000000000000000000000008152600401613d7190617162565b60405180910390fd5b85810360008089815260200190815260200160002060008b73ffffffffffffffffffffffffffffffffffffffff1673ffffffffffffffffffffffffffffffffffffffff168152602001908152602001600020819055508560008089815260200190815260200160002060008a73ffffffffffffffffffffffffffffffffffffffff1673ffffffffffffffffffffffffffffffffffffffff1681526020019081526020016000206000828254613e2f91906169b0565b925050819055508773ffffffffffffffffffffffffffffffffffffffff168973ffffffffffffffffffffffffffffffffffffffff168573ffffffffffffffffffffffffffffffffffffffff167fc3d58168c5ae7397731d063d5bbf3d657854427343f4c083240f7aacaa2d0f628a8a604051613eac929190617214565b60405180910390a4613ec2848a8a86868a6143cb565b613ed0848a8a8a8a8a61493b565b505050505050505050565b613ee781306000614241565b50565b613ef26132b6565b73ffffffffffffffffffffffffffffffffffffffff168373ffffffffffffffffffffffffffffffffffffffff161480613f385750613f3783613f326132b6565b612c6f565b5b613f77576040517f08c379a0000000000000000000000000000000000000000000000000000000008152600401613f6e906167e5565b60405180910390fd5b613f82838383614b12565b505050565b613f918282611f19565b61400857613f9e81614d58565b613fac8360001c6020614d85565b604051602001613fbd9291906172d5565b6040516020818303038152906040526040517f08c379a0000000000000000000000000000000000000000000000000000000008152600401613fff91906156c8565b60405180910390fd5b5050565b60007fd9b67a26000000000000000000000000000000000000000000000000000000007bffffffffffffffffffffffffffffffffffffffffffffffffffffffff1916827bffffffffffffffffffffffffffffffffffffffffffffffffffffffff191614806140d757507f0e89341c000000000000000000000000000000000000000000000000000000007bffffffffffffffffffffffffffffffffffffffffffffffffffffffff1916827bffffffffffffffffffffffffffffffffffffffffffffffffffffffff1916145b806140e757506140e682614fc1565b5b9050919050565b600080600090507a184f03e93ff9f4daa797ed6e38ed64bf6a1f010000000000000000831061414c577a184f03e93ff9f4daa797ed6e38ed64bf6a1f010000000000000000838161414257614141616a92565b5b0492506040810190505b6d04ee2d6d415b85acef81000000008310614189576d04ee2d6d415b85acef8100000000838161417f5761417e616a92565b5b0492506020810190505b662386f26fc1000083106141b857662386f26fc1000083816141ae576141ad616a92565b5b0492506010810190505b6305f5e10083106141e1576305f5e10083816141d7576141d6616a92565b5b0492506008810190505b61271083106142065761271083816141fc576141fb616a92565b5b0492506004810190505b60648310614229576064838161421f5761421e616a92565b5b0492506002810190505b600a8310614238576001810190505b80915050919050565b8173ffffffffffffffffffffffffffffffffffffffff168373ffffffffffffffffffffffffffffffffffffffff16036142af576040517f08c379a00000000000000000000000000000000000000000000000000000000081526004016142a690617381565b60405180910390fd5b80600160008573ffffffffffffffffffffffffffffffffffffffff1673ffffffffffffffffffffffffffffffffffffffff16815260200190815260200160002060008473ffffffffffffffffffffffffffffffffffffffff1673ffffffffffffffffffffffffffffffffffffffff16815260200190815260200160002060006101000a81548160ff0219169083151502179055508173ffffffffffffffffffffffffffffffffffffffff168373ffffffffffffffffffffffffffffffffffffffff167f17307eab39ab6107e8899845ad3d59bd9653f200f220920489ca2b5937696c31836040516143a091906155b8565b60405180910390a3505050565b6143b5612e2e565b6143c386868686868661502b565b505050505050565b505050505050565b6143f28473ffffffffffffffffffffffffffffffffffffffff166151fb565b156145a2578373ffffffffffffffffffffffffffffffffffffffff1663bc197c8187878686866040518663ffffffff1660e01b81526004016144389594939291906173f6565b6020604051808303816000875af192505050801561447457506040513d601f19601f820116820180604052508101906144719190617473565b60015b614519576144806174ad565b806308c379a0036144dc57506144946174cf565b8061449f57506144de565b806040517f08c379a00000000000000000000000000000000000000000000000000000000081526004016144d391906156c8565b60405180910390fd5b505b6040517f08c379a0000000000000000000000000000000000000000000000000000000008152600401614510906175d1565b60405180910390fd5b63bc197c8160e01b7bffffffffffffffffffffffffffffffffffffffffffffffffffffffff1916817bffffffffffffffffffffffffffffffffffffffffffffffffffffffff1916146145a0576040517f08c379a000000000000000000000000000000000000000000000000000000000815260040161459790617663565b60405180910390fd5b505b505050505050565b6145b26118ab565b6145f1576040517f08c379a00000000000000000000000000000000000000000000000000000000081526004016145e8906176cf565b60405180910390fd5b565b600073ffffffffffffffffffffffffffffffffffffffff168373ffffffffffffffffffffffffffffffffffffffff1603614662576040517f08c379a000000000000000000000000000000000000000000000000000000000815260040161465990617761565b60405180910390fd5b80518251146146a6576040517f08c379a000000000000000000000000000000000000000000000000000000000815260040161469d90617007565b60405180910390fd5b60006146b06132b6565b90506146d0818560008686604051806020016040528060008152506143ad565b60005b835181101561481d5760008482815181106146f1576146f0616744565b5b6020026020010151905060008483815181106147105761470f616744565b5b60200260200101519050600080600084815260200190815260200160002060008973ffffffffffffffffffffffffffffffffffffffff1673ffffffffffffffffffffffffffffffffffffffff168152602001908152602001600020549050818110156147b1576040517f08c379a00000000000000000000000000000000000000000000000000000000081526004016147a8906177f3565b60405180910390fd5b81810360008085815260200190815260200160002060008a73ffffffffffffffffffffffffffffffffffffffff1673ffffffffffffffffffffffffffffffffffffffff16815260200190815260200160002081905550505050808061481590616690565b9150506146d3565b50600073ffffffffffffffffffffffffffffffffffffffff168473ffffffffffffffffffffffffffffffffffffffff168273ffffffffffffffffffffffffffffffffffffffff167f4a39dc06d4c0dbc64b70af90fd698a233a518aa5d07e595d983b8c0526c8f7fb8686604051614895929190617027565b60405180910390a46148bb818560008686604051806020016040528060008152506143cb565b50505050565b60606000600167ffffffffffffffff8111156148e0576148df615391565b5b60405190808252806020026020018201604052801561490e5781602001602082028036833780820191505090505b509050828160008151811061492657614925616744565b5b60200260200101818152505080915050919050565b61495a8473ffffffffffffffffffffffffffffffffffffffff166151fb565b15614b0a578373ffffffffffffffffffffffffffffffffffffffff1663f23a6e6187878686866040518663ffffffff1660e01b81526004016149a0959493929190617813565b6020604051808303816000875af19250505080156149dc57506040513d601f19601f820116820180604052508101906149d99190617473565b60015b614a81576149e86174ad565b806308c379a003614a4457506149fc6174cf565b80614a075750614a46565b806040517f08c379a0000000000000000000000000000000000000000000000000000000008152600401614a3b91906156c8565b60405180910390fd5b505b6040517f08c379a0000000000000000000000000000000000000000000000000000000008152600401614a78906175d1565b60405180910390fd5b63f23a6e6160e01b7bffffffffffffffffffffffffffffffffffffffffffffffffffffffff1916817bffffffffffffffffffffffffffffffffffffffffffffffffffffffff191614614b08576040517f08c379a0000000000000000000000000000000000000000000000000000000008152600401614aff90617663565b60405180910390fd5b505b505050505050565b600073ffffffffffffffffffffffffffffffffffffffff168373ffffffffffffffffffffffffffffffffffffffff1603614b81576040517f08c379a0000000000000000000000000000000000000000000000000000000008152600401614b7890617761565b60405180910390fd5b6000614b8b6132b6565b90506000614b98846148c1565b90506000614ba5846148c1565b9050614bc5838760008585604051806020016040528060008152506143ad565b600080600087815260200190815260200160002060008873ffffffffffffffffffffffffffffffffffffffff1673ffffffffffffffffffffffffffffffffffffffff16815260200190815260200160002054905084811015614c5c576040517f08c379a0000000000000000000000000000000000000000000000000000000008152600401614c53906177f3565b60405180910390fd5b84810360008088815260200190815260200160002060008973ffffffffffffffffffffffffffffffffffffffff1673ffffffffffffffffffffffffffffffffffffffff16815260200190815260200160002081905550600073ffffffffffffffffffffffffffffffffffffffff168773ffffffffffffffffffffffffffffffffffffffff168573ffffffffffffffffffffffffffffffffffffffff167fc3d58168c5ae7397731d063d5bbf3d657854427343f4c083240f7aacaa2d0f628989604051614d29929190617214565b60405180910390a4614d4f848860008686604051806020016040528060008152506143cb565b50505050505050565b6060614d7e8273ffffffffffffffffffffffffffffffffffffffff16601460ff16614d85565b9050919050565b606060006002836002614d989190616a50565b614da291906169b0565b67ffffffffffffffff811115614dbb57614dba615391565b5b6040519080825280601f01601f191660200182016040528015614ded5781602001600182028036833780820191505090505b5090507f300000000000000000000000000000000000000000000000000000000000000081600081518110614e2557614e24616744565b5b60200101907effffffffffffffffffffffffffffffffffffffffffffffffffffffffffffff1916908160001a9053507f780000000000000000000000000000000000000000000000000000000000000081600181518110614e8957614e88616744565b5b60200101907effffffffffffffffffffffffffffffffffffffffffffffffffffffffffffff1916908160001a90535060006001846002614ec99190616a50565b614ed391906169b0565b90505b6001811115614f73577f3031323334353637383961626364656600000000000000000000000000000000600f861660108110614f1557614f14616744565b5b1a60f81b828281518110614f2c57614f2b616744565b5b60200101907effffffffffffffffffffffffffffffffffffffffffffffffffffffffffffff1916908160001a905350600485901c945080614f6c90616b5e565b9050614ed6565b5060008414614fb7576040517f08c379a0000000000000000000000000000000000000000000000000000000008152600401614fae906178b9565b60405180910390fd5b8091505092915050565b60007f01ffc9a7000000000000000000000000000000000000000000000000000000007bffffffffffffffffffffffffffffffffffffffffffffffffffffffff1916827bffffffffffffffffffffffffffffffffffffffffffffffffffffffff1916149050919050565b61503986868686868661521e565b600073ffffffffffffffffffffffffffffffffffffffff168573ffffffffffffffffffffffffffffffffffffffff16036150ea5760005b83518110156150e85782818151811061508c5761508b616744565b5b6020026020010151600560008684815181106150ab576150aa616744565b5b6020026020010151815260200190815260200160002060008282546150d091906169b0565b92505081905550806150e190616690565b9050615070565b505b600073ffffffffffffffffffffffffffffffffffffffff168473ffffffffffffffffffffffffffffffffffffffff16036151f35760005b83518110156151f157600084828151811061513f5761513e616744565b5b60200260200101519050600084838151811061515e5761515d616744565b5b60200260200101519050600060056000848152602001908152602001600020549050818110156151c3576040517f08c379a00000000000000000000000000000000000000000000000000000000081526004016151ba9061794b565b60405180910390fd5b8181036005600085815260200190815260200160002081905550505050806151ea90616690565b9050615121565b505b505050505050565b6000808273ffffffffffffffffffffffffffffffffffffffff163b119050919050565b505050505050565b50805460008255906000526020600020908101906152449190615247565b50565b5b80821115615260576000816000905550600101615248565b5090565b6000604051905090565b600080fd5b600080fd5b600073ffffffffffffffffffffffffffffffffffffffff82169050919050565b60006152a382615278565b9050919050565b6152b381615298565b81146152be57600080fd5b50565b6000813590506152d0816152aa565b92915050565b6000819050919050565b6152e9816152d6565b81146152f457600080fd5b50565b600081359050615306816152e0565b92915050565b600080604083850312156153235761532261526e565b5b6000615331858286016152c1565b9250506020615342858286016152f7565b9150509250929050565b615355816152d6565b82525050565b6000602082019050615370600083018461534c565b92915050565b600080fd5b600080fd5b6000601f19601f8301169050919050565b7f4e487b7100000000000000000000000000000000000000000000000000000000600052604160045260246000fd5b6153c982615380565b810181811067ffffffffffffffff821117156153e8576153e7615391565b5b80604052505050565b60006153fb615264565b905061540782826153c0565b919050565b600067ffffffffffffffff82111561542757615426615391565b5b61543082615380565b9050602081019050919050565b82818337600083830152505050565b600061545f61545a8461540c565b6153f1565b90508281526020810184848401111561547b5761547a61537b565b5b61548684828561543d565b509392505050565b600082601f8301126154a3576154a2615376565b5b81356154b384826020860161544c565b91505092915050565b600080604083850312156154d3576154d261526e565b5b60006154e1858286016152f7565b925050602083013567ffffffffffffffff81111561550257615501615273565b5b61550e8582860161548e565b9150509250929050565b60007fffffffff0000000000000000000000000000000000000000000000000000000082169050919050565b61554d81615518565b811461555857600080fd5b50565b60008135905061556a81615544565b92915050565b6000602082840312156155865761558561526e565b5b60006155948482850161555b565b91505092915050565b60008115159050919050565b6155b28161559d565b82525050565b60006020820190506155cd60008301846155a9565b92915050565b6000602082840312156155e9576155e861526e565b5b600082013567ffffffffffffffff81111561560757615606615273565b5b6156138482850161548e565b91505092915050565b6000602082840312156156325761563161526e565b5b6000615640848285016152f7565b91505092915050565b600081519050919050565b600082825260208201905092915050565b60005b83811015615683578082015181840152602081019050615668565b60008484015250505050565b600061569a82615649565b6156a48185615654565b93506156b4818560208601615665565b6156bd81615380565b840191505092915050565b600060208201905081810360008301526156e2818461568f565b905092915050565b6000806000606084860312156157035761570261526e565b5b6000615711868287016152f7565b9350506020615722868287016152c1565b9250506040615733868287016152f7565b9150509250925092565b6000806000606084860312156157565761575561526e565b5b6000615764868287016152c1565b9350506020615775868287016152c1565b9250506040615786868287016152f7565b9150509250925092565b600067ffffffffffffffff8211156157ab576157aa615391565b5b6157b482615380565b9050602081019050919050565b60006157d46157cf84615790565b6153f1565b9050828152602081018484840111156157f0576157ef61537b565b5b6157fb84828561543d565b509392505050565b600082601f83011261581857615817615376565b5b81356158288482602086016157c1565b91505092915050565b600080600080600060a0868803121561584d5761584c61526e565b5b600061585b888289016152c1565b955050602061586c888289016152c1565b945050604061587d888289016152f7565b935050606061588e888289016152f7565b925050608086013567ffffffffffffffff8111156158af576158ae615273565b5b6158bb88828901615803565b9150509295509295909350565b600080604083850312156158df576158de61526e565b5b600083013567ffffffffffffffff8111156158fd576158fc615273565b5b6159098582860161548e565b925050602061591a858286016152c1565b9150509250929050565b600067ffffffffffffffff82111561593f5761593e615391565b5b602082029050602081019050919050565b600080fd5b600061596861596384615924565b6153f1565b9050808382526020820190506020840283018581111561598b5761598a615950565b5b835b818110156159b457806159a088826152f7565b84526020840193505060208101905061598d565b5050509392505050565b600082601f8301126159d3576159d2615376565b5b81356159e3848260208601615955565b91505092915050565b60008060008060808587031215615a0657615a0561526e565b5b6000615a14878288016152c1565b945050602085013567ffffffffffffffff811115615a3557615a34615273565b5b615a41878288016159be565b935050604085013567ffffffffffffffff811115615a6257615a61615273565b5b615a6e878288016159be565b925050606085013567ffffffffffffffff811115615a8f57615a8e615273565b5b615a9b87828801615803565b91505092959194509250565b6000819050919050565b615aba81615aa7565b8114615ac557600080fd5b50565b600081359050615ad781615ab1565b92915050565b600060208284031215615af357615af261526e565b5b6000615b0184828501615ac8565b91505092915050565b615b1381615aa7565b82525050565b6000602082019050615b2e6000830184615b0a565b92915050565b60008060408385031215615b4b57615b4a61526e565b5b6000615b59858286016152f7565b9250506020615b6a858286016152c1565b9150509250929050565b600080600080600060a08688031215615b9057615b8f61526e565b5b6000615b9e888289016152c1565b9550506020615baf888289016152c1565b945050604086013567ffffffffffffffff811115615bd057615bcf615273565b5b615bdc888289016159be565b935050606086013567ffffffffffffffff811115615bfd57615bfc615273565b5b615c09888289016159be565b925050608086013567ffffffffffffffff811115615c2a57615c29615273565b5b615c3688828901615803565b9150509295509295909350565b60008060408385031215615c5a57615c5961526e565b5b6000615c6885828601615ac8565b9250506020615c79858286016152c1565b9150509250929050565b600067ffffffffffffffff821115615c9e57615c9d615391565b5b602082029050602081019050919050565b6000615cc2615cbd84615c83565b6153f1565b90508083825260208201905060208402830185811115615ce557615ce4615950565b5b835b81811015615d0e5780615cfa88826152c1565b845260208401935050602081019050615ce7565b5050509392505050565b600082601f830112615d2d57615d2c615376565b5b8135615d3d848260208601615caf565b91505092915050565b60008060408385031215615d5d57615d5c61526e565b5b600083013567ffffffffffffffff811115615d7b57615d7a615273565b5b615d8785828601615d18565b925050602083013567ffffffffffffffff811115615da857615da7615273565b5b615db4858286016159be565b9150509250929050565b600081519050919050565b600082825260208201905092915050565b6000819050602082019050919050565b615df3816152d6565b82525050565b6000615e058383615dea565b60208301905092915050565b6000602082019050919050565b6000615e2982615dbe565b615e338185615dc9565b9350615e3e83615dda565b8060005b83811015615e6f578151615e568882615df9565b9750615e6183615e11565b925050600181019050615e42565b5085935050505092915050565b60006020820190508181036000830152615e968184615e1e565b905092915050565b600080600060608486031215615eb757615eb661526e565b5b6000615ec5868287016152c1565b935050602084013567ffffffffffffffff811115615ee657615ee5615273565b5b615ef2868287016159be565b925050604084013567ffffffffffffffff811115615f1357615f12615273565b5b615f1f868287016159be565b9150509250925092565b60008060008060808587031215615f4357615f4261526e565b5b6000615f51878288016152c1565b9450506020615f62878288016152f7565b9350506040615f73878288016152f7565b925050606085013567ffffffffffffffff811115615f9457615f93615273565b5b615fa087828801615803565b91505092959194509250565b615fb58161559d565b8114615fc057600080fd5b50565b600081359050615fd281615fac565b92915050565b60008060408385031215615fef57615fee61526e565b5b6000615ffd858286016152c1565b925050602061600e85828601615fc3565b9150509250929050565b600080600080608085870312156160325761603161526e565b5b6000616040878288016152f7565b9450506020616051878288016152c1565b9350506040616062878288016152f7565b9250506060616073878288016152f7565b91505092959194509250565b600061608a82615278565b9050919050565b61609a8161607f565b81146160a557600080fd5b50565b6000813590506160b781616091565b92915050565b600080604083850312156160d4576160d361526e565b5b60006160e2858286016152f7565b92505060206160f3858286016160a8565b9150509250929050565b6000602082840312156161135761611261526e565b5b6000616121848285016152c1565b91505092915050565b6000806000606084860312156161435761614261526e565b5b6000616151868287016152f7565b9350506020616162868287016152c1565b9250506040616173868287016152c1565b9150509250925092565b6000819050919050565b6161908161617d565b82525050565b60006020820190506161ab6000830184616187565b92915050565b600080604083850312156161c8576161c761526e565b5b60006161d6858286016152c1565b92505060206161e7858286016152c1565b9150509250929050565b60008060006060848603121561620a5761620961526e565b5b6000616218868287016152c1565b9350506020616229868287016152f7565b925050604061623a868287016152f7565b9150509250925092565b600081905092915050565b600061625a82615649565b6162648185616244565b9350616274818560208601615665565b80840191505092915050565b7f2f00000000000000000000000000000000000000000000000000000000000000815250565b60006162b2828561624f565b91506162bd82616280565b6001820191506162cd828461624f565b91508190509392505050565b7f496e76616c696420494400000000000000000000000000000000000000000000600082015250565b600061630f600a83615654565b915061631a826162d9565b602082019050919050565b6000602082019050818103600083015261633e81616302565b9050919050565b7f496e76616c69642070726963652f616d6f756e74000000000000000000000000600082015250565b600061637b601483615654565b915061638682616345565b602082019050919050565b600060208201905081810360008301526163aa8161636e565b9050919050565b7f496e76616c696420616464726573730000000000000000000000000000000000600082015250565b60006163e7600f83615654565b91506163f2826163b1565b602082019050919050565b60006020820190508181036000830152616416816163da565b9050919050565b7f556e617574686f72697a6564206163636f756e74000000000000000000000000600082015250565b6000616453601483615654565b915061645e8261641d565b602082019050919050565b6000602082019050818103600083015261648281616446565b9050919050565b7f452d426f6f6b206973206e6f74206c6973746564206f7220736f6c64206f7574600082015250565b60006164bf602083615654565b91506164ca82616489565b602082019050919050565b600060208201905081810360008301526164ee816164b2565b9050919050565b7f4e487b7100000000000000000000000000000000000000000000000000000000600052601160045260246000fd5b600061652f826152d6565b915061653a836152d6565b9250828203905081811115616552576165516164f5565b5b92915050565b7f457863656564656420616d6f756e7420746f20756e6c69737400000000000000600082015250565b600061658e601983615654565b915061659982616558565b602082019050919050565b600060208201905081810360008301526165bd81616581565b9050919050565b7f4e487b7100000000000000000000000000000000000000000000000000000000600052602260045260246000fd5b6000600282049050600182168061660b57607f821691505b60208210810361661e5761661d6165c4565b5b50919050565b7f4f7264657220616c6c2066756c66696c6c656400000000000000000000000000600082015250565b600061665a601383615654565b915061666582616624565b602082019050919050565b600060208201905081810360008301526166898161664d565b9050919050565b600061669b826152d6565b91507fffffffffffffffffffffffffffffffffffffffffffffffffffffffffffffffff82036166cd576166cc6164f5565b5b600182019050919050565b7f496e73756666696369656e742062616c616e636520746f207472616e73666572600082015250565b600061670e602083615654565b9150616719826166d8565b602082019050919050565b6000602082019050818103600083015261673d81616701565b9050919050565b7f4e487b7100000000000000000000000000000000000000000000000000000000600052603260045260246000fd5b7f455243313135353a2063616c6c6572206973206e6f7420746f6b656e206f776e60008201527f6572206f7220617070726f766564000000000000000000000000000000000000602082015250565b60006167cf602e83615654565b91506167da82616773565b604082019050919050565b600060208201905081810360008301526167fe816167c2565b9050919050565b7f416363657373436f6e74726f6c3a2063616e206f6e6c792072656e6f756e636560008201527f20726f6c657320666f722073656c660000000000000000000000000000000000602082015250565b6000616861602f83615654565b915061686c82616805565b604082019050919050565b6000602082019050818103600083015261689081616854565b9050919050565b60006168a3828461624f565b915081905092915050565b7f4275796572206861732064657465726d696e6564000000000000000000000000600082015250565b60006168e4601483615654565b91506168ef826168ae565b602082019050919050565b60006020820190508181036000830152616913816168d7565b9050919050565b61692381615298565b82525050565b600060208201905061693e600083018461691a565b92915050565b7f496e73656666696369656e742062616c616e636520746f206c69737400000000600082015250565b600061697a601c83615654565b915061698582616944565b602082019050919050565b600060208201905081810360008301526169a98161696d565b9050919050565b60006169bb826152d6565b91506169c6836152d6565b92508282019050808211156169de576169dd6164f5565b5b92915050565b7f6e6f742062757965720000000000000000000000000000000000000000000000600082015250565b6000616a1a600983615654565b9150616a25826169e4565b602082019050919050565b60006020820190508181036000830152616a4981616a0d565b9050919050565b6000616a5b826152d6565b9150616a66836152d6565b9250828202616a74816152d6565b91508282048414831517616a8b57616a8a6164f5565b5b5092915050565b7f4e487b7100000000000000000000000000000000000000000000000000000000600052601260045260246000fd5b6000616acc826152d6565b9150616ad7836152d6565b925082616ae757616ae6616a92565b5b828204905092915050565b7f496e73756666696369656e742045746865720000000000000000000000000000600082015250565b6000616b28601283615654565b9150616b3382616af2565b602082019050919050565b60006020820190508181036000830152616b5781616b1b565b9050919050565b6000616b69826152d6565b915060008203616b7c57616b7b6164f5565b5b600182039050919050565b7f455243313135353a2061646472657373207a65726f206973206e6f742061207660008201527f616c6964206f776e657200000000000000000000000000000000000000000000602082015250565b6000616be3602a83615654565b9150616bee82616b87565b604082019050919050565b60006020820190508181036000830152616c1281616bd6565b9050919050565b7f5061757361626c653a2070617573656400000000000000000000000000000000600082015250565b6000616c4f601083615654565b9150616c5a82616c19565b602082019050919050565b60006020820190508181036000830152616c7e81616c42565b9050919050565b60008190508160005260206000209050919050565b60006020601f8301049050919050565b600082821b905092915050565b600060088302616ce77fffffffffffffffffffffffffffffffffffffffffffffffffffffffffffffffff82616caa565b616cf18683616caa565b95508019841693508086168417925050509392505050565b6000819050919050565b6000616d2e616d29616d24846152d6565b616d09565b6152d6565b9050919050565b6000819050919050565b616d4883616d13565b616d5c616d5482616d35565b848454616cb7565b825550505050565b600090565b616d71616d64565b616d7c818484616d3f565b505050565b5b81811015616da057616d95600082616d69565b600181019050616d82565b5050565b601f821115616de557616db681616c85565b616dbf84616c9a565b81016020851015616dce578190505b616de2616dda85616c9a565b830182616d81565b50505b505050565b600082821c905092915050565b6000616e0860001984600802616dea565b1980831691505092915050565b6000616e218383616df7565b9150826002028217905092915050565b616e3a82615649565b67ffffffffffffffff811115616e5357616e52615391565b5b616e5d82546165f3565b616e68828285616da4565b600060209050601f831160018114616e9b5760008415616e89578287015190505b616e938582616e15565b865550616efb565b601f198416616ea986616c85565b60005b82811015616ed157848901518255600182019150602085019450602081019050616eac565b86831015616eee5784890151616eea601f891682616df7565b8355505b6001600288020188555050505b505050505050565b7f455243313135353a206d696e7420746f20746865207a65726f2061646472657360008201527f7300000000000000000000000000000000000000000000000000000000000000602082015250565b6000616f5f602183615654565b9150616f6a82616f03565b604082019050919050565b60006020820190508181036000830152616f8e81616f52565b9050919050565b7f455243313135353a2069647320616e6420616d6f756e7473206c656e6774682060008201527f6d69736d61746368000000000000000000000000000000000000000000000000602082015250565b6000616ff1602883615654565b9150616ffc82616f95565b604082019050919050565b6000602082019050818103600083015261702081616fe4565b9050919050565b600060408201905081810360008301526170418185615e1e565b905081810360208301526170558184615e1e565b90509392505050565b7f455243313135353a207472616e7366657220746f20746865207a65726f20616460008201527f6472657373000000000000000000000000000000000000000000000000000000602082015250565b60006170ba602583615654565b91506170c58261705e565b604082019050919050565b600060208201905081810360008301526170e9816170ad565b9050919050565b7f455243313135353a20696e73756666696369656e742062616c616e636520666f60008201527f72207472616e7366657200000000000000000000000000000000000000000000602082015250565b600061714c602a83615654565b9150617157826170f0565b604082019050919050565b6000602082019050818103600083015261717b8161713f565b9050919050565b7f455243313135353a206163636f756e747320616e6420696473206c656e67746860008201527f206d69736d617463680000000000000000000000000000000000000000000000602082015250565b60006171de602983615654565b91506171e982617182565b604082019050919050565b6000602082019050818103600083015261720d816171d1565b9050919050565b6000604082019050617229600083018561534c565b617236602083018461534c565b9392505050565b7f416363657373436f6e74726f6c3a206163636f756e7420000000000000000000600082015250565b6000617273601783616244565b915061727e8261723d565b601782019050919050565b7f206973206d697373696e6720726f6c6520000000000000000000000000000000600082015250565b60006172bf601183616244565b91506172ca82617289565b601182019050919050565b60006172e082617266565b91506172ec828561624f565b91506172f7826172b2565b9150617303828461624f565b91508190509392505050565b7f455243313135353a2073657474696e6720617070726f76616c2073746174757360008201527f20666f722073656c660000000000000000000000000000000000000000000000602082015250565b600061736b602983615654565b91506173768261730f565b604082019050919050565b6000602082019050818103600083015261739a8161735e565b9050919050565b600081519050919050565b600082825260208201905092915050565b60006173c8826173a1565b6173d281856173ac565b93506173e2818560208601615665565b6173eb81615380565b840191505092915050565b600060a08201905061740b600083018861691a565b617418602083018761691a565b818103604083015261742a8186615e1e565b9050818103606083015261743e8185615e1e565b9050818103608083015261745281846173bd565b90509695505050505050565b60008151905061746d81615544565b92915050565b6000602082840312156174895761748861526e565b5b60006174978482850161745e565b91505092915050565b60008160e01c9050919050565b600060033d11156174cc5760046000803e6174c96000516174a0565b90505b90565b600060443d1061755c576174e1615264565b60043d036004823e80513d602482011167ffffffffffffffff8211171561750957505061755c565b808201805167ffffffffffffffff811115617527575050505061755c565b80602083010160043d03850181111561754457505050505061755c565b617553826020018501866153c0565b82955050505050505b90565b7f455243313135353a207472616e7366657220746f206e6f6e2d4552433131353560008201527f526563656976657220696d706c656d656e746572000000000000000000000000602082015250565b60006175bb603483615654565b91506175c68261755f565b604082019050919050565b600060208201905081810360008301526175ea816175ae565b9050919050565b7f455243313135353a204552433131353552656365697665722072656a6563746560008201527f6420746f6b656e73000000000000000000000000000000000000000000000000602082015250565b600061764d602883615654565b9150617658826175f1565b604082019050919050565b6000602082019050818103600083015261767c81617640565b9050919050565b7f5061757361626c653a206e6f7420706175736564000000000000000000000000600082015250565b60006176b9601483615654565b91506176c482617683565b602082019050919050565b600060208201905081810360008301526176e8816176ac565b9050919050565b7f455243313135353a206275726e2066726f6d20746865207a65726f206164647260008201527f6573730000000000000000000000000000000000000000000000000000000000602082015250565b600061774b602383615654565b9150617756826176ef565b604082019050919050565b6000602082019050818103600083015261777a8161773e565b9050919050565b7f455243313135353a206275726e20616d6f756e7420657863656564732062616c60008201527f616e636500000000000000000000000000000000000000000000000000000000602082015250565b60006177dd602483615654565b91506177e882617781565b604082019050919050565b6000602082019050818103600083015261780c816177d0565b9050919050565b600060a082019050617828600083018861691a565b617835602083018761691a565b617842604083018661534c565b61784f606083018561534c565b818103608083015261786181846173bd565b90509695505050505050565b7f537472696e67733a20686578206c656e67746820696e73756666696369656e74600082015250565b60006178a3602083615654565b91506178ae8261786d565b602082019050919050565b600060208201905081810360008301526178d281617896565b9050919050565b7f455243313135353a206275726e20616d6f756e74206578636565647320746f7460008201527f616c537570706c79000000000000000000000000000000000000000000000000602082015250565b6000617935602883615654565b9150617940826178d9565b604082019050919050565b6000602082019050818103600083015261796481617928565b905091905056fea26469706673582212203639541eded8f9d86695944513d200db790c1cabca8b0e77c29020d19abf25e664736f6c63430008130033",
  "immutableReferences": {},
  "source": "// SPDX-License-Identifier: MIT\r\npragma solidity ^0.8.7;\r\n\r\n/*import \"../node_modules/@openzeppelin/contracts-upgradeable/token/ERC1155/ERC1155Upgradeable.sol\";\r\nimport \"../node_modules/@openzeppelin/contracts-upgradeable/access/AccessControlUpgradeable.sol\";\r\nimport \"../node_modules/@openzeppelin/contracts-upgradeable/security/PausableUpgradeable.sol\";\r\nimport \"../node_modules/@openzeppelin/contracts-upgradeable/token/ERC1155/extensions/ERC1155BurnableUpgradeable.sol\";\r\nimport \"../node_modules/@openzeppelin/contracts-upgradeable/token/ERC1155/extensions/ERC1155SupplyUpgradeable.sol\";\r\nimport \"../node_modules/@openzeppelin/contracts-upgradeable/proxy/utils/Initializable.sol\";\r\nimport \"../node_modules/@openzeppelin/contracts-upgradeable/utils/StringsUpgradeable.sol\";*/\r\nimport \"../node_modules/@openzeppelin/contracts/token/ERC1155/ERC1155.sol\";\r\nimport \"../node_modules/@openzeppelin/contracts/access/AccessControl.sol\";\r\nimport \"../node_modules/@openzeppelin/contracts/security/Pausable.sol\";\r\nimport \"../node_modules/@openzeppelin/contracts/token/ERC1155/extensions/ERC1155Burnable.sol\";\r\nimport \"../node_modules/@openzeppelin/contracts/token/ERC1155/extensions/ERC1155Supply.sol\";\r\nimport \"../node_modules/@openzeppelin/contracts/utils/Strings.sol\";\r\nimport \"./Market.sol\";\r\n\r\n/// @custom:security-contact dodo920306@gmail.com\r\ncontract The_Ohara_Protocol is ERC1155, AccessControl, Pausable, ERC1155Burnable, ERC1155Supply {\r\n    \r\n    mapping (uint256 => bytes32) idToPublisher; // Anyone can check which publisher an id belongs to.\r\n    mapping (string => bool) publisherHasMember;\r\n\r\n    struct Listing {\r\n        uint256 price; // \r\n        uint256 listedBalance; // \r\n        uint256 buyerCounts; // \r\n        address[] buyers; // \r\n    }\r\n    \r\n    mapping (uint256 => mapping (address => Listing)) listings; // id => seller => Listing\r\n\r\n    address market;\r\n\r\n    event EBookListed(uint256 indexed id, address indexed seller, uint256 indexed price, uint256 amount);\r\n    event PriceModified(uint256 indexed id, address priceModifier, uint256 indexed originalPrice, uint256 indexed currentPrice);\r\n    event ListingCancelled(uint256 indexed id, address indexed seller, address indexed canceller);\r\n    event BuyerDetermined(uint256 indexed id, address indexed seller, address indexed buyer);\r\n    event TransactionMade(address indexed seller, address indexed buyer, uint256 indexed id);\r\n\r\n    modifier isIdExisted(uint256 id) {\r\n        require(super.exists(id), \"Invalid ID\");\r\n        _;\r\n    }\r\n\r\n    modifier IsPriceOrAmountValid(uint256 priceOrAmount) {\r\n        require(priceOrAmount > 0, \"Invalid price/amount\");\r\n        _;\r\n    }\r\n\r\n    modifier isApproved(address seller) {\r\n        require(super.isApprovedForAll(msg.sender, seller) || seller == msg.sender, \"Unauthorized account\");\r\n        _;\r\n    }\r\n\r\n    modifier isAddressValid(address addr) {\r\n        require(addr != address(0), \"Invalid address\");\r\n        _;\r\n    }\r\n\r\n    modifier IsEBookAvailableOnOrder(uint256 id, address seller) {  // /\r\n        require(listings[id][seller].listedBalance > 0, \"E-Book is not listed or sold out\");\r\n        _;\r\n    }\r\n\r\n    /// @custom:oz-upgrades-unsafe-allow constructor\r\n    constructor(address addr) ERC1155(\"\") {\r\n        market = addr;\r\n        _grantRole(DEFAULT_ADMIN_ROLE, msg.sender);\r\n        //_disableInitializers();\r\n    }\r\n\r\n    // There's no onlyPublisherSingle, for that it basically equals to onlyRole modifier from AccessControl. \r\n    modifier onlyPublisherBatch(uint256[] memory ids) {\r\n        for (uint256 i = 0; i < ids.length; ++i) {\r\n            _checkRole(idToPublisher[ids[i]]);\r\n        }\r\n        _;\r\n    }\r\n\r\n    /*function initialize(address addr) initializer public {\r\n        __ERC1155_init(\"\");\r\n        __AccessControl_init();\r\n        __Pausable_init();\r\n        __ERC1155Burnable_init();\r\n        __ERC1155Supply_init();\r\n\r\n        _grantRole(DEFAULT_ADMIN_ROLE, msg.sender);\r\n        \r\n    }*/\r\n\r\n    function setURI(string memory newuri) public whenNotPaused onlyRole(DEFAULT_ADMIN_ROLE) { // Tim: added whenNotPaused\r\n        _setURI(newuri);\r\n    }\r\n\r\n    // Tim: get the actual e-book uri, may require further modifications\r\n    // Tim: using toString() for getURIOfId()\r\n    using Strings for uint256;   \r\n    function getURIOfId(uint256 id) public view returns(string memory) {\r\n        return string.concat(super.uri(id), \"/\", id.toString());\r\n    }\r\n\r\n    /**\r\n     * @dev The publisher who wants to claim an account belongs to them must use this function\r\n     * with the magic string that represents themselves.\r\n     * \r\n     * The function will uses keccak256 solidity function to hash this string, but before that, it must be represented as bytes32.\r\n     * The type conversion from \"string memory\" to \"bytes32\" isn't allowed, so we use abi.encode() here.\r\n     * See https://ethereum.stackexchange.com/questions/119583/when-to-use-abi-encode-abi-encodepacked-or-abi-encodewithsignature-in-solidity\r\n     * for the reason of this selection.\r\n     * \r\n     * After that, we use grantRole() function from AccessControl,\r\n     * the reason we don't directly use _grantRole() here is because the onlyRole(getRoleAdmin(role)) should also be passed in this operation,\r\n     * and since grantRole() has that modifier originally, the current function doesn't require any modifier yet,\r\n     * and there's no need to be afraid that anyone hash others' magic string and directly call grantRole() because there's no way he/she can be the admin.\r\n     * \r\n     * If it's the first member to be added in the publisher,\r\n     * the msg.sender must be DEFAULT_ADMIN_ROLE to pass onlyRole(getRoleAdmin(role)) for that there's no way to set admin to others.\r\n     * If so, then the function would call _setRoleAdmin() to release the admin power to the publisher itself,\r\n     * indicating that from this point on, only the publisher can manage which accounts can act on its behalf.\r\n     * \r\n     * The only risk would be that a hacker steal one private key from DEFAULT_ADMIN_ROLE,\r\n     * in that case, the worse he/she can do is grant his/her accounts the publisher role that \"hasn't been registered yet\",\r\n     * for that the admins of the publishers already in the protocol can only be themselves.\r\n     * If so, then the publishers register in the future cannot use the same magic string as the hacker granted himself/herself even if they want.\r\n     * (Basically, it's the same idea as \"This username has already been used. Please try another.\",\r\n     * so the power of DEFAULT_ADMIN_ROLE is basically just register publishers and ids.)\r\n     */\r\n    function grantPublisher(string memory publisher, address account) public virtual whenNotPaused { // Tim: added whenNotPaused\r\n        bytes32 role = keccak256(abi.encode(publisher));\r\n        grantRole(role, account);\r\n\r\n        if (!publisherHasMember[publisher]) {\r\n            publisherHasMember[publisher] = true;\r\n            _setRoleAdmin(role, role);\r\n        }\r\n    }\r\n\r\n    /**\r\n     * @dev See the comment of grantPublisher() above for more info about the string publisher and the bytes32 role.\r\n     * Only the old publisher could set the publisher of an id to a new one.\r\n     * Since the default publisher of the id is 0x00, the first publisher of the id must be set by the DEFAULT_ADMIN_ROLE.\r\n     */\r\n    function setIdToPublisher(uint256 id, string memory publisher) //Tim: added whenNotPaused\r\n        public\r\n        whenNotPaused\r\n        onlyRole(idToPublisher[id])\r\n    {\r\n        bytes32 role = keccak256(abi.encode(publisher));\r\n        idToPublisher[id] = role;\r\n    }\r\n\r\n    // Tim: added idExists() to check if an id has existed\r\n    function idExists(uint256 id) public view returns (bool) {\r\n        return super.exists(id);\r\n    }\r\n\r\n    /**\r\n     * @dev See the comment of grantPublisher() above for more info about the string publisher and the bytes32 role.\r\n     * The reason we don't directly call _revokeRole() and the this function is safe is the same reason grantPublisher() doesn't call _grantRole().\r\n     * Use this function to kick someone including msg.sender himself/herself out of the publisher.\r\n     * The function also can only be called by the publisher itself.\r\n     */\r\n    function revokePublisher(string memory publisher, address account) public virtual whenNotPaused { // Tim: added whenNotPaused\r\n        bytes32 role = keccak256(abi.encode(publisher));\r\n        revokeRole(role, account);\r\n    }\r\n\r\n    // Tim: added two functions to call hasRole() & getRoleAdmin(), not sure if thye're needed\r\n    function hasRole(string memory role, address account) public view returns(bool) {\r\n        return super.hasRole(keccak256(abi.encode(role)), account);\r\n    }\r\n\r\n    function getRoleAdmin(string memory role) public view returns(bytes32) {\r\n        return super.getRoleAdmin(keccak256(abi.encode(role)));\r\n    }\r\n\r\n    function pause() public onlyRole(DEFAULT_ADMIN_ROLE) {\r\n        _pause();\r\n    }\r\n\r\n    function unpause() public onlyRole(DEFAULT_ADMIN_ROLE) {\r\n        _unpause();\r\n    }\r\n\r\n    // The publisher of the id would have power to mint the id to whoever they want.\r\n    function mint(address to, uint256 id, uint256 amount, bytes memory data)\r\n        public\r\n        whenNotPaused\r\n        onlyRole(idToPublisher[id])\r\n    {\r\n        _mint(to, id, amount, data);\r\n    }\r\n\r\n    function mintBatch(address to, uint256[] memory ids, uint256[] memory amounts, bytes memory data)\r\n        public\r\n        whenNotPaused\r\n        onlyPublisherBatch(ids)\r\n    {\r\n        _mintBatch(to, ids, amounts, data);\r\n    }\r\n\r\n    // Tim: added burn() & burnBatch()\r\n    function burn(address from, uint256 id, uint256 amount) public override(ERC1155Burnable) whenNotPaused {\r\n\r\n        require(balanceOf(from, id) - listedBalanceOf(from, id) >= amount); // \r\n\r\n        super.burn(from, id, amount);\r\n    }\r\n\r\n    function burnBatch(address from, uint256[] memory ids, uint256[] memory amounts) public override(ERC1155Burnable) whenNotPaused {\r\n\r\n        for (uint256 i = 0 ; i < ids.length ; ++i) { // \r\n            require(balanceOf(from, ids[i]) - listedBalanceOf(from, ids[i]) >= amounts[i]);\r\n        }\r\n\r\n        super.burnBatch(from, ids, amounts);\r\n    }\r\n\r\n    function _beforeTokenTransfer(address operator, address from, address to, uint256[] memory ids, uint256[] memory amounts, bytes memory data)\r\n        internal\r\n        whenNotPaused\r\n        override(ERC1155, ERC1155Supply)\r\n    {\r\n        \r\n        super._beforeTokenTransfer(operator, from, to, ids, amounts, data);\r\n    }\r\n\r\n    // Tim: added transfer() & transferBatch()\r\n    function transfer(address from, address to, uint256 id, uint256 amount, bytes memory data) public {\r\n        require(balanceOf(from, id) - listedBalanceOf(from, id) >= amount, \"Insufficient balance to transfer\");// \r\n        super.safeTransferFrom(from, to, id, amount, data);\r\n    }\r\n\r\n    function transferBatch(address from, address to, uint256[] memory ids, uint256[] memory amounts, bytes memory data) public {\r\n        for (uint256 i = 0 ; i < ids.length ; ++i) { // \r\n            require(balanceOf(from, ids[i]) - listedBalanceOf(from, ids[i]) >= amounts[i], \"Insufficient balance to transfer\");\r\n        }\r\n        super.safeBatchTransferFrom(from, to, ids, amounts, data);\r\n    }\r\n\r\n    // Tim: added balanceOf() & balanceOfBatch()\r\n    function balanceOf(address account, uint256 id) \r\n        public\r\n        view\r\n        virtual\r\n        override(ERC1155)\r\n        returns(uint256)\r\n    {\r\n        return super.balanceOf(account, id);\r\n    }\r\n\r\n    function balanceOfBatch(address[] memory accounts, uint256[] memory ids)\r\n        public\r\n        view\r\n        virtual\r\n        override(ERC1155)\r\n        returns (uint256[] memory)\r\n    {\r\n        return super.balanceOfBatch(accounts, ids) ;\r\n    }\r\n\r\n    // Tim: added setApprovalForAll() & isApprovedForAll()\r\n    function setApprovalForAll(address operator, bool approved) public override(ERC1155) whenNotPaused {\r\n        super.setApprovalForAll(operator, approved);\r\n    }\r\n\r\n    function isApprovedForAll(address account, address operator) public view override(ERC1155) returns (bool) {\r\n        return super.isApprovedForAll(account, operator);\r\n    }\r\n\r\n    // Tim: added getIdSupply()\r\n    function getIdSupply(uint256 id) public view returns (uint256) {\r\n        return super.totalSupply(id);\r\n    }\r\n\r\n    function changeMarketAddr(address newAddr) public onlyRole(DEFAULT_ADMIN_ROLE) {\r\n        market = newAddr;\r\n    }\r\n/*\r\n    function checkIsBuyer(uint256 id, address seller, address buyer) public returns (int256) {\r\n        (bool ok, bytes memory data) = market.delegatecall(\r\n            abi.encodeWithSignature(\"checkIsBuyer(uint256,address,address)\", id, seller, buyer)\r\n        );\r\n        require(ok);\r\n        return abi.decode(data, (int256));\r\n    }\r\n\r\n    // Tim:  ID \r\n    function listedBalanceOf(address account, uint256 id) public view returns(uint256) {\r\n        return listings[id][account].listedBalance;\r\n    }\r\n\r\n    // Tim: \r\n    function listEBook(uint256 id, address seller, uint256 price, uint256 amount) public {\r\n        (bool ok, ) = market.delegatecall(\r\n            abi.encodeWithSignature(\"listEBook(uint256,address,uint256,uint256)\", id, seller, price, amount)\r\n        );\r\n        require(ok);\r\n    }\r\n\r\n    // Tim: \r\n    function modifyPrice(uint256 id, address seller, uint256 price) public {\r\n        (bool ok, ) = market.delegatecall(\r\n            abi.encodeWithSignature(\"modifyPrice(uint256,address,uint256)\", id, seller, price)\r\n        );\r\n        require(ok);\r\n    }\r\n\r\n    // Tim: \r\n    function cancelListing(uint256 id, address seller, uint256 amount) public {\r\n        (bool ok, ) = market.delegatecall(\r\n            abi.encodeWithSignature(\"cancelListing(uint256,address,uint256)\", id, seller, amount)\r\n        );\r\n        require(ok);\r\n    }\r\n\r\n    // Tim: \r\n    function determineBuyer(address seller, address buyer, uint256 id) public onlyRole(DEFAULT_ADMIN_ROLE) {\r\n        (bool ok, ) = market.delegatecall(\r\n            abi.encodeWithSignature(\"cancelListing(address,address,uint256)\", seller, buyer, id)\r\n        );\r\n        require(ok);\r\n    }\r\n\r\n    // Tim:  buyers \r\n    function purchaseEBook(uint256 id, address seller) public payable {\r\n        int256 index = checkIsBuyer(id, seller, msg.sender);\r\n        (bool ok, ) = market.delegatecall(\r\n            abi.encodeWithSignature(\"purchaseEBook(uint256,address,int256)\", id, seller, index)\r\n        );\r\n        require(ok);\r\n    }\r\n*/\r\n    //  Tim: ( determineBuyer )\r\n    function _grantApprovalToContract(address seller) private {\r\n        super._setApprovalForAll(seller, address(this), true);\r\n    }\r\n\r\n    // Tim: ( purchaseEBook )\r\n    function _revokeApprovalFromContract(address seller) private {\r\n        super._setApprovalForAll(seller, address(this), false);\r\n    }\r\n\r\n    // Tim: \r\n    function checkIsBuyer(uint256 id, address seller, address buyer) public view returns (int256) {\r\n\r\n        uint256 length = listings[id][seller].buyers.length;\r\n        address[] memory buyers = listings[id][seller].buyers;\r\n        \r\n        for (uint256 i = 0 ; i < length ; ++i) {\r\n            if (buyers[i] == buyer) {\r\n                return int256(i);\r\n            }\r\n        }\r\n\r\n        return -1;\r\n    }\r\n\r\n    // Tim:  ID \r\n    function listedBalanceOf(address account, uint256 id) public view virtual returns(uint256) {\r\n        return listings[id][account].listedBalance;\r\n    }\r\n\r\n    // Tim:  ID \r\n    function getPrice(uint256 id, address seller) public view returns (uint256) {\r\n        return listings[id][seller].price;\r\n    }\r\n\r\n    // Tim: \r\n    function listEBook(uint256 id, address seller, uint256 price, uint256 amount) public virtual whenNotPaused isIdExisted(id) IsPriceOrAmountValid(price) IsPriceOrAmountValid(amount) isAddressValid(seller) isApproved(seller) {\r\n        require(balanceOf(seller, id) - listings[id][seller].listedBalance >= amount, \"Insefficient balance to list\"); //  -  >= \r\n\r\n        if (listings[id][seller].buyerCounts == 0) {\r\n            listings[id][seller].price = price;\r\n        }\r\n\r\n        listings[id][seller].listedBalance += amount;\r\n\r\n        emit EBookListed(id, seller, price, amount);\r\n    }\r\n\r\n    // Tim: \r\n    function modifyPrice(uint256 id, address seller, uint256 price) public virtual whenNotPaused isIdExisted(id) IsPriceOrAmountValid(price) isAddressValid(seller) isApproved(seller) IsEBookAvailableOnOrder(id, seller) {\r\n        require(listings[id][seller].buyerCounts == 0, \"Buyer has determined\"); //  determineBuyer\r\n\r\n        uint256 originalPrice = listings[id][seller].price;\r\n        listings[id][seller].price = price;\r\n\r\n        emit PriceModified (id, msg.sender, originalPrice, price);\r\n    }\r\n\r\n    // Tim: \r\n    function cancelListing(uint256 id, address seller, uint256 amount) public virtual whenNotPaused isIdExisted(id) IsPriceOrAmountValid(amount) isAddressValid(seller) isApproved(seller) IsEBookAvailableOnOrder(id, seller) {\r\n        require(listings[id][seller].listedBalance - listings[id][seller].buyerCounts >= amount, \"Exceeded amount to unlist\"); //  >= \r\n\r\n        unchecked {\r\n            listings[id][seller].listedBalance -= amount;\r\n        }\r\n\r\n        if (listings[id][seller].listedBalance == 0) {\r\n            delete listings[id][seller];\r\n        }\r\n\r\n        emit ListingCancelled(id, seller, msg.sender);\r\n    }\r\n\r\n    // Tim: \r\n    function determineBuyer(address seller, address buyer, uint256 id) public virtual whenNotPaused onlyRole(DEFAULT_ADMIN_ROLE) isIdExisted(id) isAddressValid(seller) isAddressValid(buyer) {\r\n        require(listings[id][seller].listedBalance > listings[id][seller].buyerCounts, \"Order all fulfilled\"); // \r\n\r\n        listings[id][seller].buyers.push(buyer);\r\n        \r\n        if (listings[id][seller].buyerCounts == 0) { // \r\n            _grantApprovalToContract(seller);\r\n        }\r\n\r\n        listings[id][seller].buyerCounts ++;\r\n\r\n        emit BuyerDetermined(id, seller, buyer);\r\n    }\r\n\r\n    // Tim:  buyers \r\n    function purchaseEBook(uint256 id, address payable seller) public payable virtual whenNotPaused isIdExisted(id) isAddressValid(seller) IsEBookAvailableOnOrder(id, seller) {\r\n        \r\n        address payable buyer = payable(msg.sender);\r\n        int256 index = checkIsBuyer(id, seller, buyer);\r\n        require(index != -1, \"not buyer\");\r\n\r\n        uint256 price = listings[id][seller].price;\r\n        uint256 total = price * 1025 / 1000;\r\n        require(msg.value >= total, \"Insufficient Ether\");\r\n\r\n        // uint256 fee = total - price;\r\n\r\n        super._safeTransferFrom(seller, buyer, id, 1, \"\"); // transfer ebook to buyer\r\n\r\n        seller.transfer(price); // transfer ether to seller\r\n\r\n        //(bool suucess, ) = multiSigWallet.call{ value: fee}(\"\");\r\n        //require(success, \"Buying failed\");\r\n\r\n        listings[id][seller].listedBalance --;\r\n        listings[id][seller].buyerCounts --;\r\n        listings[id][seller].buyers[uint256(index)] = address(0);\r\n\r\n        if (msg.value - total > 0) {\r\n            buyer.transfer(msg.value - total);\r\n        }\r\n\r\n        if (listings[id][seller].buyerCounts == 0) { // \r\n            _revokeApprovalFromContract(seller);\r\n        }\r\n\r\n        if (listings[id][seller].listedBalance == 0) { // \r\n            delete listings[id][seller];\r\n        }\r\n\r\n        emit TransactionMade(seller, buyer, id);\r\n    }\r\n\r\n    function supportsInterface(bytes4 interfaceId)\r\n        public\r\n        view\r\n        override(ERC1155, AccessControl)\r\n        returns (bool)\r\n    {\r\n        return super.supportsInterface(interfaceId);\r\n    }\r\n}",
  "sourcePath": "C:\\Users\\TimOu_0911\\Desktop\\The_Ohara_Protocol\\contracts\\The_Ohara_Protocol.sol",
  "compiler": {
    "name": "solc",
    "version": "0.8.19+commit.7dd6d404.Emscripten.clang"
  },
  "schemaVersion": "3.4.13",
  "updatedAt": "2023-06-27T13:05:36.308Z",
  "devdoc": {
    "custom:security-contact": "dodo920306@gmail.com",
    "events": {
      "ApprovalForAll(address,address,bool)": {
        "details": "Emitted when `account` grants or revokes permission to `operator` to transfer their tokens, according to `approved`."
      },
      "Paused(address)": {
        "details": "Emitted when the pause is triggered by `account`."
      },
      "RoleAdminChanged(bytes32,bytes32,bytes32)": {
        "details": "Emitted when `newAdminRole` is set as ``role``'s admin role, replacing `previousAdminRole` `DEFAULT_ADMIN_ROLE` is the starting admin for all roles, despite {RoleAdminChanged} not being emitted signaling this. _Available since v3.1._"
      },
      "RoleGranted(bytes32,address,address)": {
        "details": "Emitted when `account` is granted `role`. `sender` is the account that originated the contract call, an admin role bearer except when using {AccessControl-_setupRole}."
      },
      "RoleRevoked(bytes32,address,address)": {
        "details": "Emitted when `account` is revoked `role`. `sender` is the account that originated the contract call:   - if using `revokeRole`, it is the admin role bearer   - if using `renounceRole`, it is the role bearer (i.e. `account`)"
      },
      "TransferBatch(address,address,address,uint256[],uint256[])": {
        "details": "Equivalent to multiple {TransferSingle} events, where `operator`, `from` and `to` are the same for all transfers."
      },
      "TransferSingle(address,address,address,uint256,uint256)": {
        "details": "Emitted when `value` tokens of token type `id` are transferred from `from` to `to` by `operator`."
      },
      "URI(string,uint256)": {
        "details": "Emitted when the URI for token type `id` changes to `value`, if it is a non-programmatic URI. If an {URI} event was emitted for `id`, the standard https://eips.ethereum.org/EIPS/eip-1155#metadata-extensions[guarantees] that `value` will equal the value returned by {IERC1155MetadataURI-uri}."
      },
      "Unpaused(address)": {
        "details": "Emitted when the pause is lifted by `account`."
      }
    },
    "kind": "dev",
    "methods": {
      "balanceOf(address,uint256)": {
        "details": "See {IERC1155-balanceOf}. Requirements: - `account` cannot be the zero address."
      },
      "balanceOfBatch(address[],uint256[])": {
        "details": "See {IERC1155-balanceOfBatch}. Requirements: - `accounts` and `ids` must have the same length."
      },
      "constructor": {
        "custom:oz-upgrades-unsafe-allow": "constructor"
      },
      "exists(uint256)": {
        "details": "Indicates whether any token exist with a given id, or not."
      },
      "getRoleAdmin(bytes32)": {
        "details": "Returns the admin role that controls `role`. See {grantRole} and {revokeRole}. To change a role's admin, use {_setRoleAdmin}."
      },
      "grantPublisher(string,address)": {
        "details": "The publisher who wants to claim an account belongs to them must use this function with the magic string that represents themselves.  The function will uses keccak256 solidity function to hash this string, but before that, it must be represented as bytes32. The type conversion from \"string memory\" to \"bytes32\" isn't allowed, so we use abi.encode() here. See https://ethereum.stackexchange.com/questions/119583/when-to-use-abi-encode-abi-encodepacked-or-abi-encodewithsignature-in-solidity for the reason of this selection.  After that, we use grantRole() function from AccessControl, the reason we don't directly use _grantRole() here is because the onlyRole(getRoleAdmin(role)) should also be passed in this operation, and since grantRole() has that modifier originally, the current function doesn't require any modifier yet, and there's no need to be afraid that anyone hash others' magic string and directly call grantRole() because there's no way he/she can be the admin.  If it's the first member to be added in the publisher, the msg.sender must be DEFAULT_ADMIN_ROLE to pass onlyRole(getRoleAdmin(role)) for that there's no way to set admin to others. If so, then the function would call _setRoleAdmin() to release the admin power to the publisher itself, indicating that from this point on, only the publisher can manage which accounts can act on its behalf.  The only risk would be that a hacker steal one private key from DEFAULT_ADMIN_ROLE, in that case, the worse he/she can do is grant his/her accounts the publisher role that \"hasn't been registered yet\", for that the admins of the publishers already in the protocol can only be themselves. If so, then the publishers register in the future cannot use the same magic string as the hacker granted himself/herself even if they want. (Basically, it's the same idea as \"This username has already been used. Please try another.\", so the power of DEFAULT_ADMIN_ROLE is basically just register publishers and ids.)"
      },
      "grantRole(bytes32,address)": {
        "details": "Grants `role` to `account`. If `account` had not been already granted `role`, emits a {RoleGranted} event. Requirements: - the caller must have ``role``'s admin role. May emit a {RoleGranted} event."
      },
      "hasRole(bytes32,address)": {
        "details": "Returns `true` if `account` has been granted `role`."
      },
      "isApprovedForAll(address,address)": {
        "details": "See {IERC1155-isApprovedForAll}."
      },
      "paused()": {
        "details": "Returns true if the contract is paused, and false otherwise."
      },
      "renounceRole(bytes32,address)": {
        "details": "Revokes `role` from the calling account. Roles are often managed via {grantRole} and {revokeRole}: this function's purpose is to provide a mechanism for accounts to lose their privileges if they are compromised (such as when a trusted device is misplaced). If the calling account had been revoked `role`, emits a {RoleRevoked} event. Requirements: - the caller must be `account`. May emit a {RoleRevoked} event."
      },
      "revokePublisher(string,address)": {
        "details": "See the comment of grantPublisher() above for more info about the string publisher and the bytes32 role. The reason we don't directly call _revokeRole() and the this function is safe is the same reason grantPublisher() doesn't call _grantRole(). Use this function to kick someone including msg.sender himself/herself out of the publisher. The function also can only be called by the publisher itself."
      },
      "revokeRole(bytes32,address)": {
        "details": "Revokes `role` from `account`. If `account` had been granted `role`, emits a {RoleRevoked} event. Requirements: - the caller must have ``role``'s admin role. May emit a {RoleRevoked} event."
      },
      "safeBatchTransferFrom(address,address,uint256[],uint256[],bytes)": {
        "details": "See {IERC1155-safeBatchTransferFrom}."
      },
      "safeTransferFrom(address,address,uint256,uint256,bytes)": {
        "details": "See {IERC1155-safeTransferFrom}."
      },
      "setApprovalForAll(address,bool)": {
        "details": "See {IERC1155-setApprovalForAll}."
      },
      "setIdToPublisher(uint256,string)": {
        "details": "See the comment of grantPublisher() above for more info about the string publisher and the bytes32 role. Only the old publisher could set the publisher of an id to a new one. Since the default publisher of the id is 0x00, the first publisher of the id must be set by the DEFAULT_ADMIN_ROLE."
      },
      "totalSupply(uint256)": {
        "details": "Total amount of tokens in with a given id."
      },
      "uri(uint256)": {
        "details": "See {IERC1155MetadataURI-uri}. This implementation returns the same URI for *all* token types. It relies on the token type ID substitution mechanism https://eips.ethereum.org/EIPS/eip-1155#metadata[defined in the EIP]. Clients calling this function must replace the `\\{id\\}` substring with the actual token type ID."
      }
    },
    "version": 1
  },
  "userdoc": {
    "kind": "user",
    "methods": {},
    "version": 1
  }
}