{
  "contractName": "The_Ohara_Protocol",
  "abi": [
    {
      "inputs": [],
      "stateMutability": "nonpayable",
      "type": "constructor"
    },
    {
      "anonymous": false,
      "inputs": [
        {
          "indexed": true,
          "internalType": "address",
          "name": "account",
          "type": "address"
        },
        {
          "indexed": true,
          "internalType": "address",
          "name": "operator",
          "type": "address"
        },
        {
          "indexed": false,
          "internalType": "bool",
          "name": "approved",
          "type": "bool"
        }
      ],
      "name": "ApprovalForAll",
      "type": "event"
    },
    {
      "anonymous": false,
      "inputs": [
        {
          "indexed": true,
          "internalType": "uint256",
          "name": "id",
          "type": "uint256"
        },
        {
          "indexed": true,
          "internalType": "address",
          "name": "seller",
          "type": "address"
        },
        {
          "indexed": true,
          "internalType": "address",
          "name": "buyer",
          "type": "address"
        }
      ],
      "name": "BuyerDetermined",
      "type": "event"
    },
    {
      "anonymous": false,
      "inputs": [
        {
          "indexed": true,
          "internalType": "uint256",
          "name": "id",
          "type": "uint256"
        },
        {
          "indexed": true,
          "internalType": "uint256",
          "name": "amount",
          "type": "uint256"
        },
        {
          "indexed": true,
          "internalType": "uint256",
          "name": "price",
          "type": "uint256"
        },
        {
          "indexed": false,
          "internalType": "address",
          "name": "seller",
          "type": "address"
        }
      ],
      "name": "EBookListed",
      "type": "event"
    },
    {
      "anonymous": false,
      "inputs": [
        {
          "indexed": true,
          "internalType": "uint256",
          "name": "id",
          "type": "uint256"
        },
        {
          "indexed": true,
          "internalType": "address",
          "name": "seller",
          "type": "address"
        },
        {
          "indexed": true,
          "internalType": "uint256",
          "name": "removeAmount",
          "type": "uint256"
        },
        {
          "indexed": false,
          "internalType": "address",
          "name": "canceller",
          "type": "address"
        }
      ],
      "name": "ListingCancelled",
      "type": "event"
    },
    {
      "anonymous": false,
      "inputs": [
        {
          "indexed": false,
          "internalType": "address",
          "name": "account",
          "type": "address"
        }
      ],
      "name": "Paused",
      "type": "event"
    },
    {
      "anonymous": false,
      "inputs": [
        {
          "indexed": true,
          "internalType": "uint256",
          "name": "id",
          "type": "uint256"
        },
        {
          "indexed": true,
          "internalType": "uint256",
          "name": "originalPrice",
          "type": "uint256"
        },
        {
          "indexed": true,
          "internalType": "uint256",
          "name": "currentPrice",
          "type": "uint256"
        },
        {
          "indexed": false,
          "internalType": "address",
          "name": "seller",
          "type": "address"
        },
        {
          "indexed": false,
          "internalType": "address",
          "name": "priceModifier",
          "type": "address"
        }
      ],
      "name": "PriceModified",
      "type": "event"
    },
    {
      "anonymous": false,
      "inputs": [
        {
          "indexed": true,
          "internalType": "bytes32",
          "name": "role",
          "type": "bytes32"
        },
        {
          "indexed": true,
          "internalType": "bytes32",
          "name": "previousAdminRole",
          "type": "bytes32"
        },
        {
          "indexed": true,
          "internalType": "bytes32",
          "name": "newAdminRole",
          "type": "bytes32"
        }
      ],
      "name": "RoleAdminChanged",
      "type": "event"
    },
    {
      "anonymous": false,
      "inputs": [
        {
          "indexed": true,
          "internalType": "bytes32",
          "name": "role",
          "type": "bytes32"
        },
        {
          "indexed": true,
          "internalType": "address",
          "name": "account",
          "type": "address"
        },
        {
          "indexed": true,
          "internalType": "address",
          "name": "sender",
          "type": "address"
        }
      ],
      "name": "RoleGranted",
      "type": "event"
    },
    {
      "anonymous": false,
      "inputs": [
        {
          "indexed": true,
          "internalType": "bytes32",
          "name": "role",
          "type": "bytes32"
        },
        {
          "indexed": true,
          "internalType": "address",
          "name": "account",
          "type": "address"
        },
        {
          "indexed": true,
          "internalType": "address",
          "name": "sender",
          "type": "address"
        }
      ],
      "name": "RoleRevoked",
      "type": "event"
    },
    {
      "anonymous": false,
      "inputs": [
        {
          "indexed": true,
          "internalType": "uint256",
          "name": "id",
          "type": "uint256"
        },
        {
          "indexed": true,
          "internalType": "address",
          "name": "seller",
          "type": "address"
        },
        {
          "indexed": true,
          "internalType": "address",
          "name": "buyer",
          "type": "address"
        }
      ],
      "name": "TransactionMade",
      "type": "event"
    },
    {
      "anonymous": false,
      "inputs": [
        {
          "indexed": true,
          "internalType": "address",
          "name": "operator",
          "type": "address"
        },
        {
          "indexed": true,
          "internalType": "address",
          "name": "from",
          "type": "address"
        },
        {
          "indexed": true,
          "internalType": "address",
          "name": "to",
          "type": "address"
        },
        {
          "indexed": false,
          "internalType": "uint256[]",
          "name": "ids",
          "type": "uint256[]"
        },
        {
          "indexed": false,
          "internalType": "uint256[]",
          "name": "values",
          "type": "uint256[]"
        }
      ],
      "name": "TransferBatch",
      "type": "event"
    },
    {
      "anonymous": false,
      "inputs": [
        {
          "indexed": true,
          "internalType": "address",
          "name": "operator",
          "type": "address"
        },
        {
          "indexed": true,
          "internalType": "address",
          "name": "from",
          "type": "address"
        },
        {
          "indexed": true,
          "internalType": "address",
          "name": "to",
          "type": "address"
        },
        {
          "indexed": false,
          "internalType": "uint256",
          "name": "id",
          "type": "uint256"
        },
        {
          "indexed": false,
          "internalType": "uint256",
          "name": "value",
          "type": "uint256"
        }
      ],
      "name": "TransferSingle",
      "type": "event"
    },
    {
      "anonymous": false,
      "inputs": [
        {
          "indexed": false,
          "internalType": "string",
          "name": "value",
          "type": "string"
        },
        {
          "indexed": true,
          "internalType": "uint256",
          "name": "id",
          "type": "uint256"
        }
      ],
      "name": "URI",
      "type": "event"
    },
    {
      "anonymous": false,
      "inputs": [
        {
          "indexed": false,
          "internalType": "address",
          "name": "account",
          "type": "address"
        }
      ],
      "name": "Unpaused",
      "type": "event"
    },
    {
      "inputs": [],
      "name": "DEFAULT_ADMIN_ROLE",
      "outputs": [
        {
          "internalType": "bytes32",
          "name": "",
          "type": "bytes32"
        }
      ],
      "stateMutability": "view",
      "type": "function"
    },
    {
      "inputs": [
        {
          "internalType": "uint256",
          "name": "id",
          "type": "uint256"
        }
      ],
      "name": "exists",
      "outputs": [
        {
          "internalType": "bool",
          "name": "",
          "type": "bool"
        }
      ],
      "stateMutability": "view",
      "type": "function"
    },
    {
      "inputs": [
        {
          "internalType": "bytes32",
          "name": "role",
          "type": "bytes32"
        },
        {
          "internalType": "address",
          "name": "account",
          "type": "address"
        }
      ],
      "name": "grantRole",
      "outputs": [],
      "stateMutability": "nonpayable",
      "type": "function"
    },
    {
      "inputs": [
        {
          "internalType": "uint256",
          "name": "",
          "type": "uint256"
        }
      ],
      "name": "idToMetadataUrl",
      "outputs": [
        {
          "internalType": "string",
          "name": "",
          "type": "string"
        }
      ],
      "stateMutability": "view",
      "type": "function"
    },
    {
      "inputs": [
        {
          "internalType": "uint256",
          "name": "",
          "type": "uint256"
        },
        {
          "internalType": "address",
          "name": "",
          "type": "address"
        }
      ],
      "name": "listings",
      "outputs": [
        {
          "internalType": "uint256",
          "name": "price",
          "type": "uint256"
        },
        {
          "internalType": "uint256",
          "name": "listedBalance",
          "type": "uint256"
        },
        {
          "internalType": "uint256",
          "name": "buyerCounts",
          "type": "uint256"
        }
      ],
      "stateMutability": "view",
      "type": "function"
    },
    {
      "inputs": [],
      "name": "paused",
      "outputs": [
        {
          "internalType": "bool",
          "name": "",
          "type": "bool"
        }
      ],
      "stateMutability": "view",
      "type": "function"
    },
    {
      "inputs": [
        {
          "internalType": "uint256",
          "name": "",
          "type": "uint256"
        }
      ],
      "name": "publisherRevenueFeeRates",
      "outputs": [
        {
          "internalType": "uint256",
          "name": "revenueFeeRate",
          "type": "uint256"
        },
        {
          "internalType": "address",
          "name": "publisher",
          "type": "address"
        }
      ],
      "stateMutability": "view",
      "type": "function"
    },
    {
      "inputs": [
        {
          "internalType": "bytes32",
          "name": "role",
          "type": "bytes32"
        },
        {
          "internalType": "address",
          "name": "account",
          "type": "address"
        }
      ],
      "name": "renounceRole",
      "outputs": [],
      "stateMutability": "nonpayable",
      "type": "function"
    },
    {
      "inputs": [
        {
          "internalType": "bytes32",
          "name": "role",
          "type": "bytes32"
        },
        {
          "internalType": "address",
          "name": "account",
          "type": "address"
        }
      ],
      "name": "revokeRole",
      "outputs": [],
      "stateMutability": "nonpayable",
      "type": "function"
    },
    {
      "inputs": [
        {
          "internalType": "address",
          "name": "from",
          "type": "address"
        },
        {
          "internalType": "address",
          "name": "to",
          "type": "address"
        },
        {
          "internalType": "uint256[]",
          "name": "ids",
          "type": "uint256[]"
        },
        {
          "internalType": "uint256[]",
          "name": "amounts",
          "type": "uint256[]"
        },
        {
          "internalType": "bytes",
          "name": "data",
          "type": "bytes"
        }
      ],
      "name": "safeBatchTransferFrom",
      "outputs": [],
      "stateMutability": "nonpayable",
      "type": "function"
    },
    {
      "inputs": [
        {
          "internalType": "address",
          "name": "from",
          "type": "address"
        },
        {
          "internalType": "address",
          "name": "to",
          "type": "address"
        },
        {
          "internalType": "uint256",
          "name": "id",
          "type": "uint256"
        },
        {
          "internalType": "uint256",
          "name": "amount",
          "type": "uint256"
        },
        {
          "internalType": "bytes",
          "name": "data",
          "type": "bytes"
        }
      ],
      "name": "safeTransferFrom",
      "outputs": [],
      "stateMutability": "nonpayable",
      "type": "function"
    },
    {
      "inputs": [
        {
          "internalType": "uint256",
          "name": "id",
          "type": "uint256"
        }
      ],
      "name": "totalSupply",
      "outputs": [
        {
          "internalType": "uint256",
          "name": "",
          "type": "uint256"
        }
      ],
      "stateMutability": "view",
      "type": "function"
    },
    {
      "inputs": [
        {
          "internalType": "uint256",
          "name": "",
          "type": "uint256"
        }
      ],
      "name": "uri",
      "outputs": [
        {
          "internalType": "string",
          "name": "",
          "type": "string"
        }
      ],
      "stateMutability": "view",
      "type": "function"
    },
    {
      "inputs": [
        {
          "internalType": "address",
          "name": "",
          "type": "address"
        },
        {
          "internalType": "uint256",
          "name": "",
          "type": "uint256"
        }
      ],
      "name": "userToBookKeySecret",
      "outputs": [
        {
          "internalType": "string",
          "name": "",
          "type": "string"
        }
      ],
      "stateMutability": "view",
      "type": "function"
    },
    {
      "inputs": [
        {
          "internalType": "string",
          "name": "newuri",
          "type": "string"
        }
      ],
      "name": "setURI",
      "outputs": [],
      "stateMutability": "nonpayable",
      "type": "function"
    },
    {
      "inputs": [
        {
          "internalType": "uint256",
          "name": "id",
          "type": "uint256"
        }
      ],
      "name": "getURIOfId",
      "outputs": [
        {
          "internalType": "string",
          "name": "",
          "type": "string"
        }
      ],
      "stateMutability": "view",
      "type": "function"
    },
    {
      "inputs": [
        {
          "internalType": "string",
          "name": "publisher",
          "type": "string"
        },
        {
          "internalType": "address",
          "name": "account",
          "type": "address"
        }
      ],
      "name": "grantPublisher",
      "outputs": [],
      "stateMutability": "nonpayable",
      "type": "function"
    },
    {
      "inputs": [
        {
          "internalType": "uint256",
          "name": "id",
          "type": "uint256"
        },
        {
          "internalType": "string",
          "name": "publisher",
          "type": "string"
        }
      ],
      "name": "setIdToPublisher",
      "outputs": [],
      "stateMutability": "nonpayable",
      "type": "function"
    },
    {
      "inputs": [
        {
          "internalType": "uint256",
          "name": "id",
          "type": "uint256"
        }
      ],
      "name": "idExists",
      "outputs": [
        {
          "internalType": "bool",
          "name": "",
          "type": "bool"
        }
      ],
      "stateMutability": "view",
      "type": "function"
    },
    {
      "inputs": [
        {
          "internalType": "string",
          "name": "publisher",
          "type": "string"
        },
        {
          "internalType": "address",
          "name": "account",
          "type": "address"
        }
      ],
      "name": "revokePublisher",
      "outputs": [],
      "stateMutability": "nonpayable",
      "type": "function"
    },
    {
      "inputs": [
        {
          "internalType": "string",
          "name": "role",
          "type": "string"
        },
        {
          "internalType": "address",
          "name": "account",
          "type": "address"
        }
      ],
      "name": "hasRole",
      "outputs": [
        {
          "internalType": "bool",
          "name": "",
          "type": "bool"
        }
      ],
      "stateMutability": "view",
      "type": "function"
    },
    {
      "inputs": [
        {
          "internalType": "bytes32",
          "name": "role",
          "type": "bytes32"
        },
        {
          "internalType": "address",
          "name": "account",
          "type": "address"
        }
      ],
      "name": "hasRole",
      "outputs": [
        {
          "internalType": "bool",
          "name": "",
          "type": "bool"
        }
      ],
      "stateMutability": "view",
      "type": "function"
    },
    {
      "inputs": [
        {
          "internalType": "bytes32",
          "name": "role",
          "type": "bytes32"
        }
      ],
      "name": "getRoleAdmin",
      "outputs": [
        {
          "internalType": "bytes32",
          "name": "",
          "type": "bytes32"
        }
      ],
      "stateMutability": "view",
      "type": "function"
    },
    {
      "inputs": [
        {
          "internalType": "string",
          "name": "role",
          "type": "string"
        }
      ],
      "name": "getRoleAdmin",
      "outputs": [
        {
          "internalType": "bytes32",
          "name": "",
          "type": "bytes32"
        }
      ],
      "stateMutability": "view",
      "type": "function"
    },
    {
      "inputs": [],
      "name": "pause",
      "outputs": [],
      "stateMutability": "nonpayable",
      "type": "function"
    },
    {
      "inputs": [],
      "name": "unpause",
      "outputs": [],
      "stateMutability": "nonpayable",
      "type": "function"
    },
    {
      "inputs": [
        {
          "internalType": "address",
          "name": "to",
          "type": "address"
        },
        {
          "internalType": "uint256",
          "name": "id",
          "type": "uint256"
        },
        {
          "internalType": "uint256",
          "name": "amount",
          "type": "uint256"
        },
        {
          "internalType": "bytes",
          "name": "data",
          "type": "bytes"
        },
        {
          "internalType": "uint256",
          "name": "revenueRate",
          "type": "uint256"
        }
      ],
      "name": "mint",
      "outputs": [],
      "stateMutability": "nonpayable",
      "type": "function"
    },
    {
      "inputs": [
        {
          "internalType": "address",
          "name": "to",
          "type": "address"
        },
        {
          "internalType": "uint256[]",
          "name": "ids",
          "type": "uint256[]"
        },
        {
          "internalType": "uint256[]",
          "name": "amounts",
          "type": "uint256[]"
        },
        {
          "internalType": "bytes",
          "name": "data",
          "type": "bytes"
        },
        {
          "internalType": "uint256[]",
          "name": "revenueFeeRates",
          "type": "uint256[]"
        }
      ],
      "name": "mintBatch",
      "outputs": [],
      "stateMutability": "nonpayable",
      "type": "function"
    },
    {
      "inputs": [
        {
          "internalType": "address",
          "name": "from",
          "type": "address"
        },
        {
          "internalType": "uint256",
          "name": "id",
          "type": "uint256"
        },
        {
          "internalType": "uint256",
          "name": "amount",
          "type": "uint256"
        }
      ],
      "name": "burn",
      "outputs": [],
      "stateMutability": "nonpayable",
      "type": "function"
    },
    {
      "inputs": [
        {
          "internalType": "address",
          "name": "from",
          "type": "address"
        },
        {
          "internalType": "uint256[]",
          "name": "ids",
          "type": "uint256[]"
        },
        {
          "internalType": "uint256[]",
          "name": "amounts",
          "type": "uint256[]"
        }
      ],
      "name": "burnBatch",
      "outputs": [],
      "stateMutability": "nonpayable",
      "type": "function"
    },
    {
      "inputs": [
        {
          "internalType": "address",
          "name": "from",
          "type": "address"
        },
        {
          "internalType": "address",
          "name": "to",
          "type": "address"
        },
        {
          "internalType": "uint256",
          "name": "id",
          "type": "uint256"
        },
        {
          "internalType": "uint256",
          "name": "amount",
          "type": "uint256"
        },
        {
          "internalType": "bytes",
          "name": "data",
          "type": "bytes"
        }
      ],
      "name": "transfer",
      "outputs": [],
      "stateMutability": "nonpayable",
      "type": "function"
    },
    {
      "inputs": [
        {
          "internalType": "address",
          "name": "from",
          "type": "address"
        },
        {
          "internalType": "address",
          "name": "to",
          "type": "address"
        },
        {
          "internalType": "uint256[]",
          "name": "ids",
          "type": "uint256[]"
        },
        {
          "internalType": "uint256[]",
          "name": "amounts",
          "type": "uint256[]"
        },
        {
          "internalType": "bytes",
          "name": "data",
          "type": "bytes"
        }
      ],
      "name": "transferBatch",
      "outputs": [],
      "stateMutability": "nonpayable",
      "type": "function"
    },
    {
      "inputs": [
        {
          "internalType": "address",
          "name": "account",
          "type": "address"
        },
        {
          "internalType": "uint256",
          "name": "id",
          "type": "uint256"
        }
      ],
      "name": "balanceOf",
      "outputs": [
        {
          "internalType": "uint256",
          "name": "",
          "type": "uint256"
        }
      ],
      "stateMutability": "view",
      "type": "function"
    },
    {
      "inputs": [
        {
          "internalType": "address[]",
          "name": "accounts",
          "type": "address[]"
        },
        {
          "internalType": "uint256[]",
          "name": "ids",
          "type": "uint256[]"
        }
      ],
      "name": "balanceOfBatch",
      "outputs": [
        {
          "internalType": "uint256[]",
          "name": "",
          "type": "uint256[]"
        }
      ],
      "stateMutability": "view",
      "type": "function"
    },
    {
      "inputs": [
        {
          "internalType": "address",
          "name": "operator",
          "type": "address"
        },
        {
          "internalType": "bool",
          "name": "approved",
          "type": "bool"
        }
      ],
      "name": "setApprovalForAll",
      "outputs": [],
      "stateMutability": "nonpayable",
      "type": "function"
    },
    {
      "inputs": [
        {
          "internalType": "address",
          "name": "account",
          "type": "address"
        },
        {
          "internalType": "address",
          "name": "operator",
          "type": "address"
        }
      ],
      "name": "isApprovedForAll",
      "outputs": [
        {
          "internalType": "bool",
          "name": "",
          "type": "bool"
        }
      ],
      "stateMutability": "view",
      "type": "function"
    },
    {
      "inputs": [
        {
          "internalType": "uint256",
          "name": "id",
          "type": "uint256"
        }
      ],
      "name": "getIdSupply",
      "outputs": [
        {
          "internalType": "uint256",
          "name": "",
          "type": "uint256"
        }
      ],
      "stateMutability": "view",
      "type": "function"
    },
    {
      "inputs": [
        {
          "internalType": "uint256",
          "name": "id",
          "type": "uint256"
        },
        {
          "internalType": "string",
          "name": "newMetadataUrl",
          "type": "string"
        }
      ],
      "name": "changeMetadataUrl",
      "outputs": [],
      "stateMutability": "nonpayable",
      "type": "function"
    },
    {
      "inputs": [
        {
          "internalType": "address",
          "name": "user",
          "type": "address"
        },
        {
          "internalType": "uint256",
          "name": "id",
          "type": "uint256"
        },
        {
          "internalType": "string",
          "name": "key",
          "type": "string"
        }
      ],
      "name": "changeBookKeySecret",
      "outputs": [],
      "stateMutability": "nonpayable",
      "type": "function"
    },
    {
      "inputs": [
        {
          "internalType": "uint16",
          "name": "newMarketFee",
          "type": "uint16"
        }
      ],
      "name": "changeMarketFee",
      "outputs": [],
      "stateMutability": "nonpayable",
      "type": "function"
    },
    {
      "inputs": [
        {
          "internalType": "uint256",
          "name": "id",
          "type": "uint256"
        },
        {
          "internalType": "address",
          "name": "seller",
          "type": "address"
        },
        {
          "internalType": "address",
          "name": "buyer",
          "type": "address"
        }
      ],
      "name": "checkIsBuyer",
      "outputs": [
        {
          "internalType": "int256",
          "name": "",
          "type": "int256"
        }
      ],
      "stateMutability": "view",
      "type": "function"
    },
    {
      "inputs": [
        {
          "internalType": "address",
          "name": "account",
          "type": "address"
        },
        {
          "internalType": "uint256",
          "name": "id",
          "type": "uint256"
        }
      ],
      "name": "listedBalanceOf",
      "outputs": [
        {
          "internalType": "uint256",
          "name": "",
          "type": "uint256"
        }
      ],
      "stateMutability": "view",
      "type": "function"
    },
    {
      "inputs": [
        {
          "internalType": "uint256",
          "name": "id",
          "type": "uint256"
        },
        {
          "internalType": "address",
          "name": "seller",
          "type": "address"
        }
      ],
      "name": "getPrice",
      "outputs": [
        {
          "internalType": "uint256",
          "name": "",
          "type": "uint256"
        }
      ],
      "stateMutability": "view",
      "type": "function"
    },
    {
      "inputs": [
        {
          "internalType": "uint256",
          "name": "id",
          "type": "uint256"
        },
        {
          "internalType": "address",
          "name": "seller",
          "type": "address"
        },
        {
          "internalType": "uint256",
          "name": "price",
          "type": "uint256"
        },
        {
          "internalType": "uint256",
          "name": "amount",
          "type": "uint256"
        }
      ],
      "name": "listEBook",
      "outputs": [],
      "stateMutability": "nonpayable",
      "type": "function"
    },
    {
      "inputs": [
        {
          "internalType": "uint256",
          "name": "id",
          "type": "uint256"
        },
        {
          "internalType": "address",
          "name": "seller",
          "type": "address"
        },
        {
          "internalType": "uint256",
          "name": "price",
          "type": "uint256"
        }
      ],
      "name": "modifyPrice",
      "outputs": [],
      "stateMutability": "nonpayable",
      "type": "function"
    },
    {
      "inputs": [
        {
          "internalType": "uint256",
          "name": "id",
          "type": "uint256"
        },
        {
          "internalType": "address",
          "name": "seller",
          "type": "address"
        },
        {
          "internalType": "uint256",
          "name": "amount",
          "type": "uint256"
        }
      ],
      "name": "cancelListing",
      "outputs": [],
      "stateMutability": "nonpayable",
      "type": "function"
    },
    {
      "inputs": [
        {
          "internalType": "address",
          "name": "seller",
          "type": "address"
        },
        {
          "internalType": "address",
          "name": "buyer",
          "type": "address"
        },
        {
          "internalType": "uint256",
          "name": "id",
          "type": "uint256"
        }
      ],
      "name": "determineBuyer",
      "outputs": [],
      "stateMutability": "nonpayable",
      "type": "function"
    },
    {
      "inputs": [
        {
          "internalType": "uint256",
          "name": "id",
          "type": "uint256"
        },
        {
          "internalType": "address payable",
          "name": "seller",
          "type": "address"
        }
      ],
      "name": "purchaseEBook",
      "outputs": [],
      "stateMutability": "payable",
      "type": "function"
    },
    {
      "inputs": [
        {
          "internalType": "bytes4",
          "name": "interfaceId",
          "type": "bytes4"
        }
      ],
      "name": "supportsInterface",
      "outputs": [
        {
          "internalType": "bool",
          "name": "",
          "type": "bool"
        }
      ],
      "stateMutability": "view",
      "type": "function"
    }
  ],
  "bytecode": "0x60806040526019600a60006101000a81548161ffff021916908361ffff1602179055503480156200002f57600080fd5b506040518060200160405280600081525062000051816200008860201b60201c565b506000600460006101000a81548160ff021916908315150217905550620000826000801b336200009d60201b60201c565b62000563565b80600290816200009991906200047c565b5050565b620000af82826200018f60201b60201c565b6200018b5760016003600084815260200190815260200160002060000160008373ffffffffffffffffffffffffffffffffffffffff1673ffffffffffffffffffffffffffffffffffffffff16815260200190815260200160002060006101000a81548160ff02191690831515021790555062000130620001fa60201b60201c565b73ffffffffffffffffffffffffffffffffffffffff168173ffffffffffffffffffffffffffffffffffffffff16837f2f8788117e7eff1d82e926ec794901d17c78024a50270940304540a733656f0d60405160405180910390a45b5050565b60006003600084815260200190815260200160002060000160008373ffffffffffffffffffffffffffffffffffffffff1673ffffffffffffffffffffffffffffffffffffffff16815260200190815260200160002060009054906101000a900460ff16905092915050565b600033905090565b600081519050919050565b7f4e487b7100000000000000000000000000000000000000000000000000000000600052604160045260246000fd5b7f4e487b7100000000000000000000000000000000000000000000000000000000600052602260045260246000fd5b600060028204905060018216806200028457607f821691505b6020821081036200029a57620002996200023c565b5b50919050565b60008190508160005260206000209050919050565b60006020601f8301049050919050565b600082821b905092915050565b600060088302620003047fffffffffffffffffffffffffffffffffffffffffffffffffffffffffffffffff82620002c5565b620003108683620002c5565b95508019841693508086168417925050509392505050565b6000819050919050565b6000819050919050565b60006200035d62000357620003518462000328565b62000332565b62000328565b9050919050565b6000819050919050565b62000379836200033c565b62000391620003888262000364565b848454620002d2565b825550505050565b600090565b620003a862000399565b620003b58184846200036e565b505050565b5b81811015620003dd57620003d16000826200039e565b600181019050620003bb565b5050565b601f8211156200042c57620003f681620002a0565b6200040184620002b5565b8101602085101562000411578190505b620004296200042085620002b5565b830182620003ba565b50505b505050565b600082821c905092915050565b6000620004516000198460080262000431565b1980831691505092915050565b60006200046c83836200043e565b9150826002028217905092915050565b620004878262000202565b67ffffffffffffffff811115620004a357620004a26200020d565b5b620004af82546200026b565b620004bc828285620003e1565b600060209050601f831160018114620004f45760008415620004df578287015190505b620004eb85826200045e565b8655506200055b565b601f1984166200050486620002a0565b60005b828110156200052e5784890151825560018201915060208501945060208101905062000507565b868310156200054e57848901516200054a601f8916826200043e565b8355505b6001600288020188555050505b505050505050565b61839280620005736000396000f3fe6080604052600436106102ad5760003560e01c80635a9807be11610175578063a217fddf116100dc578063d547741f11610095578063e3579fc51161006f578063e3579fc514610b39578063e985e9c514610b76578063f242432a14610bb3578063f5298aca14610bdc576102ad565b8063d547741f14610aaa578063d617fae414610ad3578063e1176dc314610afc576102ad565b8063a217fddf14610997578063a22cb465146109c2578063a9171a72146109eb578063bd85b03914610a14578063be28585314610a51578063c0ab83e914610a6d576102ad565b80636c9cd0971161012e5780636c9cd097146108755780636fcfcb66146108b25780638456cb59146108db5780638ad094b5146108f257806391d148541461091b578063927fbfc814610958576102ad565b80635a9807be146107415780635c975abb1461077e5780635ebb6365146107a95780635f6f82ea146107e6578063672a41a11461080f5780636b20c4541461084c576102ad565b8063248a9ca31161021957806336568abe116101d257806336568abe146106355780633f4ba83a1461065e5780634e1273f4146106755780634f558e79146106b257806352509e97146106ef578063554fa27814610718576102ad565b8063248a9ca31461051757806326769cc6146105545780632a6d9e921461057d5780632b57cfbb146105a65780632eb2c2d6146105e35780632f2ff15d1461060c576102ad565b80630c8341431161026b5780630c834143146103f85780630e89341c146104215780630ef5e2671461045e578063127217d6146104875780631286c46d146104b05780631b5eb57e146104d9576102ad565b8062fdd58e146102b257806301ad63bd146102ef57806301ffc9a71461031857806302fe5305146103555780630807a3bd1461037e5780630b8a295a146103bb575b600080fd5b3480156102be57600080fd5b506102d960048036038101906102d4919061595a565b610c05565b6040516102e691906159a9565b60405180910390f35b3480156102fb57600080fd5b5061031660048036038101906103119190615b0a565b610c19565b005b34801561032457600080fd5b5061033f600480360381019061033a9190615bbe565b610c87565b60405161034c9190615c06565b60405180910390f35b34801561036157600080fd5b5061037c60048036038101906103779190615c21565b610c99565b005b34801561038a57600080fd5b506103a560048036038101906103a09190615c6a565b610cbb565b6040516103b29190615d16565b60405180910390f35b3480156103c757600080fd5b506103e260048036038101906103dd9190615c6a565b610cf6565b6040516103ef9190615c06565b60405180910390f35b34801561040457600080fd5b5061041f600480360381019061041a9190615d38565b610d08565b005b34801561042d57600080fd5b5061044860048036038101906104439190615c6a565b6111ac565b6040516104559190615d16565b60405180910390f35b34801561046a57600080fd5b5061048560048036038101906104809190615d8b565b611240565b005b34801561049357600080fd5b506104ae60048036038101906104a99190615e7f565b61164c565b005b3480156104bc57600080fd5b506104d760048036038101906104d29190615f16565b6116c0565b005b3480156104e557600080fd5b5061050060048036038101906104fb9190615c6a565b611702565b60405161050e929190615f81565b60405180910390f35b34801561052357600080fd5b5061053e60048036038101906105399190615fe0565b611746565b60405161054b919061601c565b60405180910390f35b34801561056057600080fd5b5061057b60048036038101906105769190616097565b611766565b005b34801561058957600080fd5b506105a4600480360381019061059f919061610b565b6117da565b005b3480156105b257600080fd5b506105cd60048036038101906105c891906161a2565b611883565b6040516105da91906159a9565b60405180910390f35b3480156105ef57600080fd5b5061060a600480360381019061060591906162a5565b6118e1565b005b34801561061857600080fd5b50610633600480360381019061062e9190616374565b611982565b005b34801561064157600080fd5b5061065c60048036038101906106579190616374565b6119a3565b005b34801561066a57600080fd5b50610673611a26565b005b34801561068157600080fd5b5061069c60048036038101906106979190616477565b611a3e565b6040516106a991906165ad565b60405180910390f35b3480156106be57600080fd5b506106d960048036038101906106d49190615c6a565b611a52565b6040516106e69190615c06565b60405180910390f35b3480156106fb57600080fd5b5061071660048036038101906107119190615f16565b611a66565b005b34801561072457600080fd5b5061073f600480360381019061073a91906165cf565b611b1a565b005b34801561074d57600080fd5b5061076860048036038101906107639190615c6a565b611b50565b60405161077591906159a9565b60405180910390f35b34801561078a57600080fd5b50610793611b62565b6040516107a09190615c06565b60405180910390f35b3480156107b557600080fd5b506107d060048036038101906107cb919061595a565b611b79565b6040516107dd91906159a9565b60405180910390f35b3480156107f257600080fd5b5061080d6004803603810190610808919061662f565b611bd7565b005b34801561081b57600080fd5b5061083660048036038101906108319190615c21565b611d75565b604051610843919061601c565b60405180910390f35b34801561085857600080fd5b50610873600480360381019061086e919061671a565b611dad565b005b34801561088157600080fd5b5061089c60048036038101906108979190615f16565b611e5b565b6040516108a99190615c06565b60405180910390f35b3480156108be57600080fd5b506108d960048036038101906108d491906162a5565b611e95565b005b3480156108e757600080fd5b506108f0611f75565b005b3480156108fe57600080fd5b5061091960048036038101906109149190615d38565b611f8d565b005b34801561092757600080fd5b50610942600480360381019061093d9190616374565b612338565b60405161094f9190615c06565b60405180910390f35b34801561096457600080fd5b5061097f600480360381019061097a91906161a2565b6123a3565b60405161098e939291906167a5565b60405180910390f35b3480156109a357600080fd5b506109ac6123da565b6040516109b9919061601c565b60405180910390f35b3480156109ce57600080fd5b506109e960048036038101906109e49190616808565b6123e1565b005b3480156109f757600080fd5b50610a126004803603810190610a0d9190616848565b6123f7565b005b348015610a2057600080fd5b50610a3b6004803603810190610a369190615c6a565b6127cd565b604051610a4891906159a9565b60405180910390f35b610a6b6004803603810190610a6691906168ed565b6127ea565b005b348015610a7957600080fd5b50610a946004803603810190610a8f9190615c6a565b612f47565b604051610aa19190615d16565b60405180910390f35b348015610ab657600080fd5b50610ad16004803603810190610acc9190616374565b612fe7565b005b348015610adf57600080fd5b50610afa6004803603810190610af59190616967565b613008565b005b348015610b0857600080fd5b50610b236004803603810190610b1e919061595a565b613036565b604051610b309190615d16565b60405180910390f35b348015610b4557600080fd5b50610b606004803603810190610b5b9190616994565b6130e3565b604051610b6d9190616a00565b60405180910390f35b348015610b8257600080fd5b50610b9d6004803603810190610b989190616a1b565b6132bd565b604051610baa9190615c06565b60405180910390f35b348015610bbf57600080fd5b50610bda6004803603810190610bd59190615e7f565b6132d1565b005b348015610be857600080fd5b50610c036004803603810190610bfe9190616a5b565b613372565b005b6000610c1183836133b4565b905092915050565b610c2161347c565b6006600083815260200190815260200160002054610c3e816134c6565b600082604051602001610c519190615d16565b60405160208183030381529060405280519060200120905080600660008681526020019081526020016000208190555050505050565b6000610c92826134da565b9050919050565b610ca161347c565b6000801b610cae816134c6565b610cb782613554565b5050565b6060610cc6826111ac565b610ccf83613567565b604051602001610ce0929190616b10565b6040516020818303038152906040529050919050565b6000610d0182611a52565b9050919050565b610d1061347c565b82610d1a81611a52565b610d59576040517f08c379a0000000000000000000000000000000000000000000000000000000008152600401610d5090616b8f565b60405180910390fd5b8160008111610d9d576040517f08c379a0000000000000000000000000000000000000000000000000000000008152600401610d9490616bfb565b60405180910390fd5b83600073ffffffffffffffffffffffffffffffffffffffff168173ffffffffffffffffffffffffffffffffffffffff1603610e0d576040517f08c379a0000000000000000000000000000000000000000000000000000000008152600401610e0490616c67565b60405180910390fd5b84610e183382613635565b80610e4e57503373ffffffffffffffffffffffffffffffffffffffff168173ffffffffffffffffffffffffffffffffffffffff16145b610e8d576040517f08c379a0000000000000000000000000000000000000000000000000000000008152600401610e8490616cd3565b60405180910390fd5b868660006008600084815260200190815260200160002060008373ffffffffffffffffffffffffffffffffffffffff1673ffffffffffffffffffffffffffffffffffffffff1681526020019081526020016000206001015411610f25576040517f08c379a0000000000000000000000000000000000000000000000000000000008152600401610f1c90616d3f565b60405180910390fd5b86600860008b815260200190815260200160002060008a73ffffffffffffffffffffffffffffffffffffffff1673ffffffffffffffffffffffffffffffffffffffff16815260200190815260200160002060020154600860008c815260200190815260200160002060008b73ffffffffffffffffffffffffffffffffffffffff1673ffffffffffffffffffffffffffffffffffffffff16815260200190815260200160002060010154610fd89190616d8e565b1015611019576040517f08c379a000000000000000000000000000000000000000000000000000000000815260040161101090616e0e565b60405180910390fd5b86600860008b815260200190815260200160002060008a73ffffffffffffffffffffffffffffffffffffffff1673ffffffffffffffffffffffffffffffffffffffff168152602001908152602001600020600101600082825403925050819055506000600860008b815260200190815260200160002060008a73ffffffffffffffffffffffffffffffffffffffff1673ffffffffffffffffffffffffffffffffffffffff168152602001908152602001600020600101540361115157600860008a815260200190815260200160002060008973ffffffffffffffffffffffffffffffffffffffff1673ffffffffffffffffffffffffffffffffffffffff1681526020019081526020016000206000808201600090556001820160009055600282016000905560038201600061114e9190615874565b50505b868873ffffffffffffffffffffffffffffffffffffffff168a7f69e5af4ae7d64e2ae64974f8f3d1149f91bd39f3b1dc649f7add227a19093a07336040516111999190616e2e565b60405180910390a4505050505050505050565b6060600280546111bb90616e78565b80601f01602080910402602001604051908101604052809291908181526020018280546111e790616e78565b80156112345780601f1061120957610100808354040283529160200191611234565b820191906000526020600020905b81548152906001019060200180831161121757829003601f168201915b50505050509050919050565b61124861347c565b6000801b611255816134c6565b8161125f81611a52565b61129e576040517f08c379a000000000000000000000000000000000000000000000000000000000815260040161129590616b8f565b60405180910390fd5b84600073ffffffffffffffffffffffffffffffffffffffff168173ffffffffffffffffffffffffffffffffffffffff160361130e576040517f08c379a000000000000000000000000000000000000000000000000000000000815260040161130590616c67565b60405180910390fd5b84600073ffffffffffffffffffffffffffffffffffffffff168173ffffffffffffffffffffffffffffffffffffffff160361137e576040517f08c379a000000000000000000000000000000000000000000000000000000000815260040161137590616c67565b60405180910390fd5b6008600086815260200190815260200160002060008873ffffffffffffffffffffffffffffffffffffffff1673ffffffffffffffffffffffffffffffffffffffff168152602001908152602001600020600201546008600087815260200190815260200160002060008973ffffffffffffffffffffffffffffffffffffffff1673ffffffffffffffffffffffffffffffffffffffff1681526020019081526020016000206001015411611466576040517f08c379a000000000000000000000000000000000000000000000000000000000815260040161145d90616ef5565b60405180910390fd5b6008600086815260200190815260200160002060008873ffffffffffffffffffffffffffffffffffffffff1673ffffffffffffffffffffffffffffffffffffffff168152602001908152602001600020600301869080600181540180825580915050600190039060005260206000200160009091909190916101000a81548173ffffffffffffffffffffffffffffffffffffffff021916908373ffffffffffffffffffffffffffffffffffffffff16021790555060006008600087815260200190815260200160002060008973ffffffffffffffffffffffffffffffffffffffff1673ffffffffffffffffffffffffffffffffffffffff168152602001908152602001600020600201540361157f5761157e876136c9565b5b6008600086815260200190815260200160002060008873ffffffffffffffffffffffffffffffffffffffff1673ffffffffffffffffffffffffffffffffffffffff16815260200190815260200160002060020160008154809291906115e390616f15565b91905055508573ffffffffffffffffffffffffffffffffffffffff168773ffffffffffffffffffffffffffffffffffffffff16867f293e36bbce608551a8ef03dba20114986371a7df520fde646a2a4a8136c8fc0e60405160405180910390a450505050505050565b816116578685611b79565b6116618786610c05565b61166b9190616d8e565b10156116ac576040517f08c379a00000000000000000000000000000000000000000000000000000000081526004016116a390616fa9565b60405180910390fd5b6116b985858585856132d1565b5050505050565b6116c861347c565b6000826040516020016116db9190615d16565b6040516020818303038152906040528051906020012090506116fd8183612fe7565b505050565b60096020528060005260406000206000915090508060000154908060010160009054906101000a900473ffffffffffffffffffffffffffffffffffffffff16905082565b600060036000838152602001908152602001600020600101549050919050565b6000801b611773816134c6565b8282600c60008873ffffffffffffffffffffffffffffffffffffffff1673ffffffffffffffffffffffffffffffffffffffff168152602001908152602001600020600087815260200190815260200160002091826117d2929190617180565b505050505050565b6117e261347c565b60066000858152602001908152602001600020546117ff816134c6565b816009600087815260200190815260200160002060000181905550336009600087815260200190815260200160002060010160006101000a81548173ffffffffffffffffffffffffffffffffffffffff021916908373ffffffffffffffffffffffffffffffffffffffff16021790555061187b868686866136d8565b505050505050565b60006008600084815260200190815260200160002060008373ffffffffffffffffffffffffffffffffffffffff1673ffffffffffffffffffffffffffffffffffffffff16815260200190815260200160002060000154905092915050565b6118e9613888565b73ffffffffffffffffffffffffffffffffffffffff168573ffffffffffffffffffffffffffffffffffffffff16148061192f575061192e85611929613888565b6132bd565b5b61196e576040517f08c379a0000000000000000000000000000000000000000000000000000000008152600401611965906172c2565b60405180910390fd5b61197b8585858585613890565b5050505050565b61198b82611746565b611994816134c6565b61199e8383613bb1565b505050565b6119ab613888565b73ffffffffffffffffffffffffffffffffffffffff168173ffffffffffffffffffffffffffffffffffffffff1614611a18576040517f08c379a0000000000000000000000000000000000000000000000000000000008152600401611a0f90617354565b60405180910390fd5b611a228282613c92565b5050565b6000801b611a33816134c6565b611a3b613d74565b50565b6060611a4a8383613dd7565b905092915050565b600080611a5e836127cd565b119050919050565b611a6e61347c565b600082604051602001611a819190615d16565b604051602081830303815290604052805190602001209050611aa38183611982565b600783604051611ab39190617374565b908152602001604051809103902060009054906101000a900460ff16611b15576001600784604051611ae59190617374565b908152602001604051809103902060006101000a81548160ff021916908315150217905550611b148182613ef0565b5b505050565b6000801b611b27816134c6565b8282600b60008781526020019081526020016000209182611b49929190617180565b5050505050565b6000611b5b826127cd565b9050919050565b6000600460009054906101000a900460ff16905090565b60006008600083815260200190815260200160002060008473ffffffffffffffffffffffffffffffffffffffff1673ffffffffffffffffffffffffffffffffffffffff16815260200190815260200160002060010154905092915050565b611bdf61347c565b8360005b8151811015611c3357611c2260066000848481518110611c0657611c0561738b565b5b60200260200101518152602001908152602001600020546134c6565b80611c2c90616f15565b9050611be3565b5084518251148015611c46575083518251145b611c85576040517f08c379a0000000000000000000000000000000000000000000000000000000008152600401611c7c9061742c565b60405180910390fd5b60005b8551811015611d6057828181518110611ca457611ca361738b565b5b602002602001015160096000888481518110611cc357611cc261738b565b5b60200260200101518152602001908152602001600020600001819055503360096000888481518110611cf857611cf761738b565b5b6020026020010151815260200190815260200160002060010160006101000a81548173ffffffffffffffffffffffffffffffffffffffff021916908373ffffffffffffffffffffffffffffffffffffffff16021790555080611d5990616f15565b9050611c88565b50611d6d86868686613f4c565b505050505050565b6000611da682604051602001611d8b9190615d16565b60405160208183030381529060405280519060200120611746565b9050919050565b611db561347c565b60005b8251811015611e4a57818181518110611dd457611dd361738b565b5b6020026020010151611e0085858481518110611df357611df261738b565b5b6020026020010151611b79565b611e2486868581518110611e1757611e1661738b565b5b6020026020010151610c05565b611e2e9190616d8e565b1015611e3957600080fd5b80611e4390616f15565b9050611db8565b50611e56838383614178565b505050565b6000611e8d83604051602001611e719190615d16565b6040516020818303038152906040528051906020012083612338565b905092915050565b60005b8351811015611f6057828181518110611eb457611eb361738b565b5b6020026020010151611ee087868481518110611ed357611ed261738b565b5b6020026020010151611b79565b611f0488878581518110611ef757611ef661738b565b5b6020026020010151610c05565b611f0e9190616d8e565b1015611f4f576040517f08c379a0000000000000000000000000000000000000000000000000000000008152600401611f4690616fa9565b60405180910390fd5b80611f5990616f15565b9050611e98565b50611f6e85858585856118e1565b5050505050565b6000801b611f82816134c6565b611f8a614215565b50565b611f9561347c565b82611f9f81611a52565b611fde576040517f08c379a0000000000000000000000000000000000000000000000000000000008152600401611fd590616b8f565b60405180910390fd5b8160008111612022576040517f08c379a000000000000000000000000000000000000000000000000000000000815260040161201990616bfb565b60405180910390fd5b83600073ffffffffffffffffffffffffffffffffffffffff168173ffffffffffffffffffffffffffffffffffffffff1603612092576040517f08c379a000000000000000000000000000000000000000000000000000000000815260040161208990616c67565b60405180910390fd5b8461209d3382613635565b806120d357503373ffffffffffffffffffffffffffffffffffffffff168173ffffffffffffffffffffffffffffffffffffffff16145b612112576040517f08c379a000000000000000000000000000000000000000000000000000000000815260040161210990616cd3565b60405180910390fd5b868660006008600084815260200190815260200160002060008373ffffffffffffffffffffffffffffffffffffffff1673ffffffffffffffffffffffffffffffffffffffff16815260200190815260200160002060010154116121aa576040517f08c379a00000000000000000000000000000000000000000000000000000000081526004016121a190616d3f565b60405180910390fd5b6000600860008b815260200190815260200160002060008a73ffffffffffffffffffffffffffffffffffffffff1673ffffffffffffffffffffffffffffffffffffffff1681526020019081526020016000206002015414612240576040517f08c379a000000000000000000000000000000000000000000000000000000000815260040161223790617498565b60405180910390fd5b6000600860008b815260200190815260200160002060008a73ffffffffffffffffffffffffffffffffffffffff1673ffffffffffffffffffffffffffffffffffffffff16815260200190815260200160002060000154905087600860008c815260200190815260200160002060008b73ffffffffffffffffffffffffffffffffffffffff1673ffffffffffffffffffffffffffffffffffffffff1681526020019081526020016000206000018190555087818b7f38c88505b4f8c3d77359548f5b449ecf78fa2046034b1b73e88734d23190f5568c336040516123249291906174b8565b60405180910390a450505050505050505050565b60006003600084815260200190815260200160002060000160008373ffffffffffffffffffffffffffffffffffffffff1673ffffffffffffffffffffffffffffffffffffffff16815260200190815260200160002060009054906101000a900460ff16905092915050565b6008602052816000526040600020602052806000526040600020600091509150508060000154908060010154908060020154905083565b6000801b81565b6123e961347c565b6123f38282614278565b5050565b6123ff61347c565b8361240981611a52565b612448576040517f08c379a000000000000000000000000000000000000000000000000000000000815260040161243f90616b8f565b60405180910390fd5b826000811161248c576040517f08c379a000000000000000000000000000000000000000000000000000000000815260040161248390616bfb565b60405180910390fd5b82600081116124d0576040517f08c379a00000000000000000000000000000000000000000000000000000000081526004016124c790616bfb565b60405180910390fd5b85600073ffffffffffffffffffffffffffffffffffffffff168173ffffffffffffffffffffffffffffffffffffffff1603612540576040517f08c379a000000000000000000000000000000000000000000000000000000000815260040161253790616c67565b60405180910390fd5b8661254b3382613635565b8061258157503373ffffffffffffffffffffffffffffffffffffffff168173ffffffffffffffffffffffffffffffffffffffff16145b6125c0576040517f08c379a00000000000000000000000000000000000000000000000000000000081526004016125b790616cd3565b60405180910390fd5b85600860008b815260200190815260200160002060008a73ffffffffffffffffffffffffffffffffffffffff1673ffffffffffffffffffffffffffffffffffffffff1681526020019081526020016000206001015461261f8a8c610c05565b6126299190616d8e565b101561266a576040517f08c379a00000000000000000000000000000000000000000000000000000000081526004016126619061752d565b60405180910390fd5b6000600860008b815260200190815260200160002060008a73ffffffffffffffffffffffffffffffffffffffff1673ffffffffffffffffffffffffffffffffffffffff168152602001908152602001600020600201540361271e5786600860008b815260200190815260200160002060008a73ffffffffffffffffffffffffffffffffffffffff1673ffffffffffffffffffffffffffffffffffffffff168152602001908152602001600020600001819055505b85600860008b815260200190815260200160002060008a73ffffffffffffffffffffffffffffffffffffffff1673ffffffffffffffffffffffffffffffffffffffff1681526020019081526020016000206001016000828254612781919061754d565b9250508190555086868a7f2fc0ffd013b5d05f874bd9a06a8bb6dbfe037efcb406e32eca22ed05e1ed381d8b6040516127ba9190616e2e565b60405180910390a4505050505050505050565b600060056000838152602001908152602001600020549050919050565b6127f261347c565b816127fc81611a52565b61283b576040517f08c379a000000000000000000000000000000000000000000000000000000000815260040161283290616b8f565b60405180910390fd5b81600073ffffffffffffffffffffffffffffffffffffffff168173ffffffffffffffffffffffffffffffffffffffff16036128ab576040517f08c379a00000000000000000000000000000000000000000000000000000000081526004016128a290616c67565b60405180910390fd5b838360006008600084815260200190815260200160002060008373ffffffffffffffffffffffffffffffffffffffff1673ffffffffffffffffffffffffffffffffffffffff1681526020019081526020016000206001015411612943576040517f08c379a000000000000000000000000000000000000000000000000000000000815260040161293a90616d3f565b60405180910390fd5b600033905060006129558888846130e3565b90507fffffffffffffffffffffffffffffffffffffffffffffffffffffffffffffffff81036129b9576040517f08c379a00000000000000000000000000000000000000000000000000000000081526004016129b0906175cd565b60405180910390fd5b6000600860008a815260200190815260200160002060008973ffffffffffffffffffffffffffffffffffffffff1673ffffffffffffffffffffffffffffffffffffffff16815260200190815260200160002060000154905060006103e8600960008c81526020019081526020016000206000015483612a3891906175ed565b612a42919061765e565b905060006103e8600a60009054906101000a900461ffff1661ffff1684612a6991906175ed565b612a73919061765e565b90506000818385612a84919061754d565b612a8e919061754d565b905080341015612ad3576040517f08c379a0000000000000000000000000000000000000000000000000000000008152600401612aca906176db565b60405180910390fd5b612af08b878e60016040518060200160405280600081525061428e565b8a73ffffffffffffffffffffffffffffffffffffffff166108fc859081150290604051600060405180830381858888f19350505050158015612b36573d6000803e3d6000fd5b506000600960008e815260200190815260200160002060010160009054906101000a900473ffffffffffffffffffffffffffffffffffffffff1690508073ffffffffffffffffffffffffffffffffffffffff166108fc859081150290604051600060405180830381858888f19350505050158015612bb8573d6000803e3d6000fd5b5060008234612bc79190616d8e565b1115612c20578673ffffffffffffffffffffffffffffffffffffffff166108fc8334612bf39190616d8e565b9081150290604051600060405180830381858888f19350505050158015612c1e573d6000803e3d6000fd5b505b600860008e815260200190815260200160002060008d73ffffffffffffffffffffffffffffffffffffffff1673ffffffffffffffffffffffffffffffffffffffff1681526020019081526020016000206001016000815480929190612c84906176fb565b9190505550600860008e815260200190815260200160002060008d73ffffffffffffffffffffffffffffffffffffffff1673ffffffffffffffffffffffffffffffffffffffff1681526020019081526020016000206002016000815480929190612ced906176fb565b91905055506000600860008f815260200190815260200160002060008e73ffffffffffffffffffffffffffffffffffffffff1673ffffffffffffffffffffffffffffffffffffffff1681526020019081526020016000206003018781548110612d5957612d5861738b565b5b9060005260206000200160006101000a81548173ffffffffffffffffffffffffffffffffffffffff021916908373ffffffffffffffffffffffffffffffffffffffff1602179055506000600860008f815260200190815260200160002060008e73ffffffffffffffffffffffffffffffffffffffff1673ffffffffffffffffffffffffffffffffffffffff1681526020019081526020016000206002015403612e0657612e058c614529565b5b6000600860008f815260200190815260200160002060008e73ffffffffffffffffffffffffffffffffffffffff1673ffffffffffffffffffffffffffffffffffffffff1681526020019081526020016000206001015403612edd57600860008e815260200190815260200160002060008d73ffffffffffffffffffffffffffffffffffffffff1673ffffffffffffffffffffffffffffffffffffffff16815260200190815260200160002060008082016000905560018201600090556002820160009055600382016000612eda9190615874565b50505b8673ffffffffffffffffffffffffffffffffffffffff168c73ffffffffffffffffffffffffffffffffffffffff168e7f920fa75bdd35e02ccdb168c8b4214196d63ffe7eee90c4b073112050f5ba2e3c60405160405180910390a450505050505050505050505050565b600b6020528060005260406000206000915090508054612f6690616e78565b80601f0160208091040260200160405190810160405280929190818152602001828054612f9290616e78565b8015612fdf5780601f10612fb457610100808354040283529160200191612fdf565b820191906000526020600020905b815481529060010190602001808311612fc257829003601f168201915b505050505081565b612ff082611746565b612ff9816134c6565b6130038383613c92565b505050565b6000801b613015816134c6565b81600a60006101000a81548161ffff021916908361ffff1602179055505050565b600c60205281600052604060002060205280600052604060002060009150915050805461306290616e78565b80601f016020809104026020016040519081016040528092919081815260200182805461308e90616e78565b80156130db5780601f106130b0576101008083540402835291602001916130db565b820191906000526020600020905b8154815290600101906020018083116130be57829003601f168201915b505050505081565b6000806008600086815260200190815260200160002060008573ffffffffffffffffffffffffffffffffffffffff1673ffffffffffffffffffffffffffffffffffffffff16815260200190815260200160002060030180549050905060006008600087815260200190815260200160002060008673ffffffffffffffffffffffffffffffffffffffff1673ffffffffffffffffffffffffffffffffffffffff16815260200190815260200160002060030180548060200260200160405190810160405280929190818152602001828054801561321457602002820191906000526020600020905b8160009054906101000a900473ffffffffffffffffffffffffffffffffffffffff1673ffffffffffffffffffffffffffffffffffffffff16815260200190600101908083116131ca575b5050505050905060005b8281101561328f578473ffffffffffffffffffffffffffffffffffffffff168282815181106132505761324f61738b565b5b602002602001015173ffffffffffffffffffffffffffffffffffffffff160361327e578093505050506132b6565b8061328890616f15565b905061321e565b507fffffffffffffffffffffffffffffffffffffffffffffffffffffffffffffffff925050505b9392505050565b60006132c98383613635565b905092915050565b6132d9613888565b73ffffffffffffffffffffffffffffffffffffffff168573ffffffffffffffffffffffffffffffffffffffff16148061331f575061331e85613319613888565b6132bd565b5b61335e576040517f08c379a0000000000000000000000000000000000000000000000000000000008152600401613355906172c2565b60405180910390fd5b61336b858585858561428e565b5050505050565b61337a61347c565b806133858484611b79565b61338f8585610c05565b6133999190616d8e565b10156133a457600080fd5b6133af838383614538565b505050565b60008073ffffffffffffffffffffffffffffffffffffffff168373ffffffffffffffffffffffffffffffffffffffff1603613424576040517f08c379a000000000000000000000000000000000000000000000000000000000815260040161341b90617796565b60405180910390fd5b60008083815260200190815260200160002060008473ffffffffffffffffffffffffffffffffffffffff1673ffffffffffffffffffffffffffffffffffffffff16815260200190815260200160002054905092915050565b613484611b62565b156134c4576040517f08c379a00000000000000000000000000000000000000000000000000000000081526004016134bb90617802565b60405180910390fd5b565b6134d7816134d2613888565b6145d5565b50565b60007f7965db0b000000000000000000000000000000000000000000000000000000007bffffffffffffffffffffffffffffffffffffffffffffffffffffffff1916827bffffffffffffffffffffffffffffffffffffffffffffffffffffffff1916148061354d575061354c8261465a565b5b9050919050565b80600290816135639190617822565b5050565b6060600060016135768461473c565b01905060008167ffffffffffffffff811115613595576135946159df565b5b6040519080825280601f01601f1916602001820160405280156135c75781602001600182028036833780820191505090505b509050600082602001820190505b60011561362a578080600190039150507f3031323334353637383961626364656600000000000000000000000000000000600a86061a8153600a858161361e5761361d61762f565b5b049450600085036135d5575b819350505050919050565b6000600160008473ffffffffffffffffffffffffffffffffffffffff1673ffffffffffffffffffffffffffffffffffffffff16815260200190815260200160002060008373ffffffffffffffffffffffffffffffffffffffff1673ffffffffffffffffffffffffffffffffffffffff16815260200190815260200160002060009054906101000a900460ff16905092915050565b6136d58130600161488f565b50565b600073ffffffffffffffffffffffffffffffffffffffff168473ffffffffffffffffffffffffffffffffffffffff1603613747576040517f08c379a000000000000000000000000000000000000000000000000000000000815260040161373e90617966565b60405180910390fd5b6000613751613888565b9050600061375e856149fb565b9050600061376b856149fb565b905061377c83600089858589614a75565b8460008088815260200190815260200160002060008973ffffffffffffffffffffffffffffffffffffffff1673ffffffffffffffffffffffffffffffffffffffff16815260200190815260200160002060008282546137db919061754d565b925050819055508673ffffffffffffffffffffffffffffffffffffffff16600073ffffffffffffffffffffffffffffffffffffffff168473ffffffffffffffffffffffffffffffffffffffff167fc3d58168c5ae7397731d063d5bbf3d657854427343f4c083240f7aacaa2d0f628989604051613859929190617986565b60405180910390a461387083600089858589614a93565b61387f83600089898989614a9b565b50505050505050565b600033905090565b81518351146138d4576040517f08c379a00000000000000000000000000000000000000000000000000000000081526004016138cb90617a21565b60405180910390fd5b600073ffffffffffffffffffffffffffffffffffffffff168473ffffffffffffffffffffffffffffffffffffffff1603613943576040517f08c379a000000000000000000000000000000000000000000000000000000000815260040161393a90617ab3565b60405180910390fd5b600061394d613888565b905061395d818787878787614a75565b60005b8451811015613b0e57600085828151811061397e5761397d61738b565b5b60200260200101519050600085838151811061399d5761399c61738b565b5b60200260200101519050600080600084815260200190815260200160002060008b73ffffffffffffffffffffffffffffffffffffffff1673ffffffffffffffffffffffffffffffffffffffff16815260200190815260200160002054905081811015613a3e576040517f08c379a0000000000000000000000000000000000000000000000000000000008152600401613a3590617b45565b60405180910390fd5b81810360008085815260200190815260200160002060008c73ffffffffffffffffffffffffffffffffffffffff1673ffffffffffffffffffffffffffffffffffffffff168152602001908152602001600020819055508160008085815260200190815260200160002060008b73ffffffffffffffffffffffffffffffffffffffff1673ffffffffffffffffffffffffffffffffffffffff1681526020019081526020016000206000828254613af3919061754d565b9250508190555050505080613b0790616f15565b9050613960565b508473ffffffffffffffffffffffffffffffffffffffff168673ffffffffffffffffffffffffffffffffffffffff168273ffffffffffffffffffffffffffffffffffffffff167f4a39dc06d4c0dbc64b70af90fd698a233a518aa5d07e595d983b8c0526c8f7fb8787604051613b85929190617b65565b60405180910390a4613b9b818787878787614a93565b613ba9818787878787614c72565b505050505050565b613bbb8282612338565b613c8e5760016003600084815260200190815260200160002060000160008373ffffffffffffffffffffffffffffffffffffffff1673ffffffffffffffffffffffffffffffffffffffff16815260200190815260200160002060006101000a81548160ff021916908315150217905550613c33613888565b73ffffffffffffffffffffffffffffffffffffffff168173ffffffffffffffffffffffffffffffffffffffff16837f2f8788117e7eff1d82e926ec794901d17c78024a50270940304540a733656f0d60405160405180910390a45b5050565b613c9c8282612338565b15613d705760006003600084815260200190815260200160002060000160008373ffffffffffffffffffffffffffffffffffffffff1673ffffffffffffffffffffffffffffffffffffffff16815260200190815260200160002060006101000a81548160ff021916908315150217905550613d15613888565b73ffffffffffffffffffffffffffffffffffffffff168173ffffffffffffffffffffffffffffffffffffffff16837ff6391f5c32d9c69d2a47ea670b442974b53935d1edc7fd64eb21e047a839171b60405160405180910390a45b5050565b613d7c614e49565b6000600460006101000a81548160ff0219169083151502179055507f5db9ee0a495bf2e6ff9c91a7834c1ba4fdd244a5e8aa4e537bd38aeae4b073aa613dc0613888565b604051613dcd9190616e2e565b60405180910390a1565b60608151835114613e1d576040517f08c379a0000000000000000000000000000000000000000000000000000000008152600401613e1490617c0e565b60405180910390fd5b6000835167ffffffffffffffff811115613e3a57613e396159df565b5b604051908082528060200260200182016040528015613e685781602001602082028036833780820191505090505b50905060005b8451811015613ee557613eb5858281518110613e8d57613e8c61738b565b5b6020026020010151858381518110613ea857613ea761738b565b5b6020026020010151610c05565b828281518110613ec857613ec761738b565b5b60200260200101818152505080613ede90616f15565b9050613e6e565b508091505092915050565b6000613efb83611746565b90508160036000858152602001908152602001600020600101819055508181847fbd79b86ffe0ab8e8776151514217cd7cacd52c909f66475c3af44e129f0b00ff60405160405180910390a4505050565b600073ffffffffffffffffffffffffffffffffffffffff168473ffffffffffffffffffffffffffffffffffffffff1603613fbb576040517f08c379a0000000000000000000000000000000000000000000000000000000008152600401613fb290617966565b60405180910390fd5b8151835114613fff576040517f08c379a0000000000000000000000000000000000000000000000000000000008152600401613ff690617a21565b60405180910390fd5b6000614009613888565b905061401a81600087878787614a75565b60005b84518110156140d3578381815181106140395761403861738b565b5b60200260200101516000808784815181106140575761405661738b565b5b6020026020010151815260200190815260200160002060008873ffffffffffffffffffffffffffffffffffffffff1673ffffffffffffffffffffffffffffffffffffffff16815260200190815260200160002060008282546140b9919061754d565b9250508190555080806140cb90616f15565b91505061401d565b508473ffffffffffffffffffffffffffffffffffffffff16600073ffffffffffffffffffffffffffffffffffffffff168273ffffffffffffffffffffffffffffffffffffffff167f4a39dc06d4c0dbc64b70af90fd698a233a518aa5d07e595d983b8c0526c8f7fb878760405161414b929190617b65565b60405180910390a461416281600087878787614a93565b61417181600087878787614c72565b5050505050565b614180613888565b73ffffffffffffffffffffffffffffffffffffffff168373ffffffffffffffffffffffffffffffffffffffff1614806141c657506141c5836141c0613888565b6132bd565b5b614205576040517f08c379a00000000000000000000000000000000000000000000000000000000081526004016141fc906172c2565b60405180910390fd5b614210838383614e92565b505050565b61421d61347c565b6001600460006101000a81548160ff0219169083151502179055507f62e78cea01bee320cd4e420270b5ea74000d11b0c9f74754ebdbfc544b05a258614261613888565b60405161426e9190616e2e565b60405180910390a1565b61428a614283613888565b838361488f565b5050565b600073ffffffffffffffffffffffffffffffffffffffff168473ffffffffffffffffffffffffffffffffffffffff16036142fd576040517f08c379a00000000000000000000000000000000000000000000000000000000081526004016142f490617ab3565b60405180910390fd5b6000614307613888565b90506000614314856149fb565b90506000614321856149fb565b9050614331838989858589614a75565b600080600088815260200190815260200160002060008a73ffffffffffffffffffffffffffffffffffffffff1673ffffffffffffffffffffffffffffffffffffffff168152602001908152602001600020549050858110156143c8576040517f08c379a00000000000000000000000000000000000000000000000000000000081526004016143bf90617b45565b60405180910390fd5b85810360008089815260200190815260200160002060008b73ffffffffffffffffffffffffffffffffffffffff1673ffffffffffffffffffffffffffffffffffffffff168152602001908152602001600020819055508560008089815260200190815260200160002060008a73ffffffffffffffffffffffffffffffffffffffff1673ffffffffffffffffffffffffffffffffffffffff168152602001908152602001600020600082825461447d919061754d565b925050819055508773ffffffffffffffffffffffffffffffffffffffff168973ffffffffffffffffffffffffffffffffffffffff168573ffffffffffffffffffffffffffffffffffffffff167fc3d58168c5ae7397731d063d5bbf3d657854427343f4c083240f7aacaa2d0f628a8a6040516144fa929190617986565b60405180910390a4614510848a8a86868a614a93565b61451e848a8a8a8a8a614a9b565b505050505050505050565b6145358130600061488f565b50565b614540613888565b73ffffffffffffffffffffffffffffffffffffffff168373ffffffffffffffffffffffffffffffffffffffff161480614586575061458583614580613888565b6132bd565b5b6145c5576040517f08c379a00000000000000000000000000000000000000000000000000000000081526004016145bc906172c2565b60405180910390fd5b6145d0838383615160565b505050565b6145df8282612338565b614656576145ec816153a6565b6145fa8360001c60206153d3565b60405160200161460b929190617cc6565b6040516020818303038152906040526040517f08c379a000000000000000000000000000000000000000000000000000000000815260040161464d9190615d16565b60405180910390fd5b5050565b60007fd9b67a26000000000000000000000000000000000000000000000000000000007bffffffffffffffffffffffffffffffffffffffffffffffffffffffff1916827bffffffffffffffffffffffffffffffffffffffffffffffffffffffff1916148061472557507f0e89341c000000000000000000000000000000000000000000000000000000007bffffffffffffffffffffffffffffffffffffffffffffffffffffffff1916827bffffffffffffffffffffffffffffffffffffffffffffffffffffffff1916145b8061473557506147348261560f565b5b9050919050565b600080600090507a184f03e93ff9f4daa797ed6e38ed64bf6a1f010000000000000000831061479a577a184f03e93ff9f4daa797ed6e38ed64bf6a1f01000000000000000083816147905761478f61762f565b5b0492506040810190505b6d04ee2d6d415b85acef810000000083106147d7576d04ee2d6d415b85acef810000000083816147cd576147cc61762f565b5b0492506020810190505b662386f26fc10000831061480657662386f26fc1000083816147fc576147fb61762f565b5b0492506010810190505b6305f5e100831061482f576305f5e10083816148255761482461762f565b5b0492506008810190505b612710831061485457612710838161484a5761484961762f565b5b0492506004810190505b60648310614877576064838161486d5761486c61762f565b5b0492506002810190505b600a8310614886576001810190505b80915050919050565b8173ffffffffffffffffffffffffffffffffffffffff168373ffffffffffffffffffffffffffffffffffffffff16036148fd576040517f08c379a00000000000000000000000000000000000000000000000000000000081526004016148f490617d72565b60405180910390fd5b80600160008573ffffffffffffffffffffffffffffffffffffffff1673ffffffffffffffffffffffffffffffffffffffff16815260200190815260200160002060008473ffffffffffffffffffffffffffffffffffffffff1673ffffffffffffffffffffffffffffffffffffffff16815260200190815260200160002060006101000a81548160ff0219169083151502179055508173ffffffffffffffffffffffffffffffffffffffff168373ffffffffffffffffffffffffffffffffffffffff167f17307eab39ab6107e8899845ad3d59bd9653f200f220920489ca2b5937696c31836040516149ee9190615c06565b60405180910390a3505050565b60606000600167ffffffffffffffff811115614a1a57614a196159df565b5b604051908082528060200260200182016040528015614a485781602001602082028036833780820191505090505b5090508281600081518110614a6057614a5f61738b565b5b60200260200101818152505080915050919050565b614a7d61347c565b614a8b868686868686615679565b505050505050565b505050505050565b614aba8473ffffffffffffffffffffffffffffffffffffffff16615849565b15614c6a578373ffffffffffffffffffffffffffffffffffffffff1663f23a6e6187878686866040518663ffffffff1660e01b8152600401614b00959493929190617de7565b6020604051808303816000875af1925050508015614b3c57506040513d601f19601f82011682018060405250810190614b399190617e56565b60015b614be157614b48617e90565b806308c379a003614ba45750614b5c617eb2565b80614b675750614ba6565b806040517f08c379a0000000000000000000000000000000000000000000000000000000008152600401614b9b9190615d16565b60405180910390fd5b505b6040517f08c379a0000000000000000000000000000000000000000000000000000000008152600401614bd890617fb4565b60405180910390fd5b63f23a6e6160e01b7bffffffffffffffffffffffffffffffffffffffffffffffffffffffff1916817bffffffffffffffffffffffffffffffffffffffffffffffffffffffff191614614c68576040517f08c379a0000000000000000000000000000000000000000000000000000000008152600401614c5f90618046565b60405180910390fd5b505b505050505050565b614c918473ffffffffffffffffffffffffffffffffffffffff16615849565b15614e41578373ffffffffffffffffffffffffffffffffffffffff1663bc197c8187878686866040518663ffffffff1660e01b8152600401614cd7959493929190618066565b6020604051808303816000875af1925050508015614d1357506040513d601f19601f82011682018060405250810190614d109190617e56565b60015b614db857614d1f617e90565b806308c379a003614d7b5750614d33617eb2565b80614d3e5750614d7d565b806040517f08c379a0000000000000000000000000000000000000000000000000000000008152600401614d729190615d16565b60405180910390fd5b505b6040517f08c379a0000000000000000000000000000000000000000000000000000000008152600401614daf90617fb4565b60405180910390fd5b63bc197c8160e01b7bffffffffffffffffffffffffffffffffffffffffffffffffffffffff1916817bffffffffffffffffffffffffffffffffffffffffffffffffffffffff191614614e3f576040517f08c379a0000000000000000000000000000000000000000000000000000000008152600401614e3690618046565b60405180910390fd5b505b505050505050565b614e51611b62565b614e90576040517f08c379a0000000000000000000000000000000000000000000000000000000008152600401614e879061811a565b60405180910390fd5b565b600073ffffffffffffffffffffffffffffffffffffffff168373ffffffffffffffffffffffffffffffffffffffff1603614f01576040517f08c379a0000000000000000000000000000000000000000000000000000000008152600401614ef8906181ac565b60405180910390fd5b8051825114614f45576040517f08c379a0000000000000000000000000000000000000000000000000000000008152600401614f3c90617a21565b60405180910390fd5b6000614f4f613888565b9050614f6f81856000868660405180602001604052806000815250614a75565b60005b83518110156150bc576000848281518110614f9057614f8f61738b565b5b602002602001015190506000848381518110614faf57614fae61738b565b5b60200260200101519050600080600084815260200190815260200160002060008973ffffffffffffffffffffffffffffffffffffffff1673ffffffffffffffffffffffffffffffffffffffff16815260200190815260200160002054905081811015615050576040517f08c379a00000000000000000000000000000000000000000000000000000000081526004016150479061823e565b60405180910390fd5b81810360008085815260200190815260200160002060008a73ffffffffffffffffffffffffffffffffffffffff1673ffffffffffffffffffffffffffffffffffffffff1681526020019081526020016000208190555050505080806150b490616f15565b915050614f72565b50600073ffffffffffffffffffffffffffffffffffffffff168473ffffffffffffffffffffffffffffffffffffffff168273ffffffffffffffffffffffffffffffffffffffff167f4a39dc06d4c0dbc64b70af90fd698a233a518aa5d07e595d983b8c0526c8f7fb8686604051615134929190617b65565b60405180910390a461515a81856000868660405180602001604052806000815250614a93565b50505050565b600073ffffffffffffffffffffffffffffffffffffffff168373ffffffffffffffffffffffffffffffffffffffff16036151cf576040517f08c379a00000000000000000000000000000000000000000000000000000000081526004016151c6906181ac565b60405180910390fd5b60006151d9613888565b905060006151e6846149fb565b905060006151f3846149fb565b905061521383876000858560405180602001604052806000815250614a75565b600080600087815260200190815260200160002060008873ffffffffffffffffffffffffffffffffffffffff1673ffffffffffffffffffffffffffffffffffffffff168152602001908152602001600020549050848110156152aa576040517f08c379a00000000000000000000000000000000000000000000000000000000081526004016152a19061823e565b60405180910390fd5b84810360008088815260200190815260200160002060008973ffffffffffffffffffffffffffffffffffffffff1673ffffffffffffffffffffffffffffffffffffffff16815260200190815260200160002081905550600073ffffffffffffffffffffffffffffffffffffffff168773ffffffffffffffffffffffffffffffffffffffff168573ffffffffffffffffffffffffffffffffffffffff167fc3d58168c5ae7397731d063d5bbf3d657854427343f4c083240f7aacaa2d0f628989604051615377929190617986565b60405180910390a461539d84886000868660405180602001604052806000815250614a93565b50505050505050565b60606153cc8273ffffffffffffffffffffffffffffffffffffffff16601460ff166153d3565b9050919050565b6060600060028360026153e691906175ed565b6153f0919061754d565b67ffffffffffffffff811115615409576154086159df565b5b6040519080825280601f01601f19166020018201604052801561543b5781602001600182028036833780820191505090505b5090507f3000000000000000000000000000000000000000000000000000000000000000816000815181106154735761547261738b565b5b60200101907effffffffffffffffffffffffffffffffffffffffffffffffffffffffffffff1916908160001a9053507f7800000000000000000000000000000000000000000000000000000000000000816001815181106154d7576154d661738b565b5b60200101907effffffffffffffffffffffffffffffffffffffffffffffffffffffffffffff1916908160001a9053506000600184600261551791906175ed565b615521919061754d565b90505b60018111156155c1577f3031323334353637383961626364656600000000000000000000000000000000600f8616601081106155635761556261738b565b5b1a60f81b82828151811061557a5761557961738b565b5b60200101907effffffffffffffffffffffffffffffffffffffffffffffffffffffffffffff1916908160001a905350600485901c9450806155ba906176fb565b9050615524565b5060008414615605576040517f08c379a00000000000000000000000000000000000000000000000000000000081526004016155fc906182aa565b60405180910390fd5b8091505092915050565b60007f01ffc9a7000000000000000000000000000000000000000000000000000000007bffffffffffffffffffffffffffffffffffffffffffffffffffffffff1916827bffffffffffffffffffffffffffffffffffffffffffffffffffffffff1916149050919050565b61568786868686868661586c565b600073ffffffffffffffffffffffffffffffffffffffff168573ffffffffffffffffffffffffffffffffffffffff16036157385760005b8351811015615736578281815181106156da576156d961738b565b5b6020026020010151600560008684815181106156f9576156f861738b565b5b60200260200101518152602001908152602001600020600082825461571e919061754d565b925050819055508061572f90616f15565b90506156be565b505b600073ffffffffffffffffffffffffffffffffffffffff168473ffffffffffffffffffffffffffffffffffffffff16036158415760005b835181101561583f57600084828151811061578d5761578c61738b565b5b6020026020010151905060008483815181106157ac576157ab61738b565b5b6020026020010151905060006005600084815260200190815260200160002054905081811015615811576040517f08c379a00000000000000000000000000000000000000000000000000000000081526004016158089061833c565b60405180910390fd5b81810360056000858152602001908152602001600020819055505050508061583890616f15565b905061576f565b505b505050505050565b6000808273ffffffffffffffffffffffffffffffffffffffff163b119050919050565b505050505050565b50805460008255906000526020600020908101906158929190615895565b50565b5b808211156158ae576000816000905550600101615896565b5090565b6000604051905090565b600080fd5b600080fd5b600073ffffffffffffffffffffffffffffffffffffffff82169050919050565b60006158f1826158c6565b9050919050565b615901816158e6565b811461590c57600080fd5b50565b60008135905061591e816158f8565b92915050565b6000819050919050565b61593781615924565b811461594257600080fd5b50565b6000813590506159548161592e565b92915050565b60008060408385031215615971576159706158bc565b5b600061597f8582860161590f565b925050602061599085828601615945565b9150509250929050565b6159a381615924565b82525050565b60006020820190506159be600083018461599a565b92915050565b600080fd5b600080fd5b6000601f19601f8301169050919050565b7f4e487b7100000000000000000000000000000000000000000000000000000000600052604160045260246000fd5b615a17826159ce565b810181811067ffffffffffffffff82111715615a3657615a356159df565b5b80604052505050565b6000615a496158b2565b9050615a558282615a0e565b919050565b600067ffffffffffffffff821115615a7557615a746159df565b5b615a7e826159ce565b9050602081019050919050565b82818337600083830152505050565b6000615aad615aa884615a5a565b615a3f565b905082815260208101848484011115615ac957615ac86159c9565b5b615ad4848285615a8b565b509392505050565b600082601f830112615af157615af06159c4565b5b8135615b01848260208601615a9a565b91505092915050565b60008060408385031215615b2157615b206158bc565b5b6000615b2f85828601615945565b925050602083013567ffffffffffffffff811115615b5057615b4f6158c1565b5b615b5c85828601615adc565b9150509250929050565b60007fffffffff0000000000000000000000000000000000000000000000000000000082169050919050565b615b9b81615b66565b8114615ba657600080fd5b50565b600081359050615bb881615b92565b92915050565b600060208284031215615bd457615bd36158bc565b5b6000615be284828501615ba9565b91505092915050565b60008115159050919050565b615c0081615beb565b82525050565b6000602082019050615c1b6000830184615bf7565b92915050565b600060208284031215615c3757615c366158bc565b5b600082013567ffffffffffffffff811115615c5557615c546158c1565b5b615c6184828501615adc565b91505092915050565b600060208284031215615c8057615c7f6158bc565b5b6000615c8e84828501615945565b91505092915050565b600081519050919050565b600082825260208201905092915050565b60005b83811015615cd1578082015181840152602081019050615cb6565b60008484015250505050565b6000615ce882615c97565b615cf28185615ca2565b9350615d02818560208601615cb3565b615d0b816159ce565b840191505092915050565b60006020820190508181036000830152615d308184615cdd565b905092915050565b600080600060608486031215615d5157615d506158bc565b5b6000615d5f86828701615945565b9350506020615d708682870161590f565b9250506040615d8186828701615945565b9150509250925092565b600080600060608486031215615da457615da36158bc565b5b6000615db28682870161590f565b9350506020615dc38682870161590f565b9250506040615dd486828701615945565b9150509250925092565b600067ffffffffffffffff821115615df957615df86159df565b5b615e02826159ce565b9050602081019050919050565b6000615e22615e1d84615dde565b615a3f565b905082815260208101848484011115615e3e57615e3d6159c9565b5b615e49848285615a8b565b509392505050565b600082601f830112615e6657615e656159c4565b5b8135615e76848260208601615e0f565b91505092915050565b600080600080600060a08688031215615e9b57615e9a6158bc565b5b6000615ea98882890161590f565b9550506020615eba8882890161590f565b9450506040615ecb88828901615945565b9350506060615edc88828901615945565b925050608086013567ffffffffffffffff811115615efd57615efc6158c1565b5b615f0988828901615e51565b9150509295509295909350565b60008060408385031215615f2d57615f2c6158bc565b5b600083013567ffffffffffffffff811115615f4b57615f4a6158c1565b5b615f5785828601615adc565b9250506020615f688582860161590f565b9150509250929050565b615f7b816158e6565b82525050565b6000604082019050615f96600083018561599a565b615fa36020830184615f72565b9392505050565b6000819050919050565b615fbd81615faa565b8114615fc857600080fd5b50565b600081359050615fda81615fb4565b92915050565b600060208284031215615ff657615ff56158bc565b5b600061600484828501615fcb565b91505092915050565b61601681615faa565b82525050565b6000602082019050616031600083018461600d565b92915050565b600080fd5b600080fd5b60008083601f840112616057576160566159c4565b5b8235905067ffffffffffffffff81111561607457616073616037565b5b6020830191508360018202830111156160905761608f61603c565b5b9250929050565b600080600080606085870312156160b1576160b06158bc565b5b60006160bf8782880161590f565b94505060206160d087828801615945565b935050604085013567ffffffffffffffff8111156160f1576160f06158c1565b5b6160fd87828801616041565b925092505092959194509250565b600080600080600060a08688031215616127576161266158bc565b5b60006161358882890161590f565b955050602061614688828901615945565b945050604061615788828901615945565b935050606086013567ffffffffffffffff811115616178576161776158c1565b5b61618488828901615e51565b925050608061619588828901615945565b9150509295509295909350565b600080604083850312156161b9576161b86158bc565b5b60006161c785828601615945565b92505060206161d88582860161590f565b9150509250929050565b600067ffffffffffffffff8211156161fd576161fc6159df565b5b602082029050602081019050919050565b600061622161621c846161e2565b615a3f565b905080838252602082019050602084028301858111156162445761624361603c565b5b835b8181101561626d57806162598882615945565b845260208401935050602081019050616246565b5050509392505050565b600082601f83011261628c5761628b6159c4565b5b813561629c84826020860161620e565b91505092915050565b600080600080600060a086880312156162c1576162c06158bc565b5b60006162cf8882890161590f565b95505060206162e08882890161590f565b945050604086013567ffffffffffffffff811115616301576163006158c1565b5b61630d88828901616277565b935050606086013567ffffffffffffffff81111561632e5761632d6158c1565b5b61633a88828901616277565b925050608086013567ffffffffffffffff81111561635b5761635a6158c1565b5b61636788828901615e51565b9150509295509295909350565b6000806040838503121561638b5761638a6158bc565b5b600061639985828601615fcb565b92505060206163aa8582860161590f565b9150509250929050565b600067ffffffffffffffff8211156163cf576163ce6159df565b5b602082029050602081019050919050565b60006163f36163ee846163b4565b615a3f565b905080838252602082019050602084028301858111156164165761641561603c565b5b835b8181101561643f578061642b888261590f565b845260208401935050602081019050616418565b5050509392505050565b600082601f83011261645e5761645d6159c4565b5b813561646e8482602086016163e0565b91505092915050565b6000806040838503121561648e5761648d6158bc565b5b600083013567ffffffffffffffff8111156164ac576164ab6158c1565b5b6164b885828601616449565b925050602083013567ffffffffffffffff8111156164d9576164d86158c1565b5b6164e585828601616277565b9150509250929050565b600081519050919050565b600082825260208201905092915050565b6000819050602082019050919050565b61652481615924565b82525050565b6000616536838361651b565b60208301905092915050565b6000602082019050919050565b600061655a826164ef565b61656481856164fa565b935061656f8361650b565b8060005b838110156165a0578151616587888261652a565b975061659283616542565b925050600181019050616573565b5085935050505092915050565b600060208201905081810360008301526165c7818461654f565b905092915050565b6000806000604084860312156165e8576165e76158bc565b5b60006165f686828701615945565b935050602084013567ffffffffffffffff811115616617576166166158c1565b5b61662386828701616041565b92509250509250925092565b600080600080600060a0868803121561664b5761664a6158bc565b5b60006166598882890161590f565b955050602086013567ffffffffffffffff81111561667a576166796158c1565b5b61668688828901616277565b945050604086013567ffffffffffffffff8111156166a7576166a66158c1565b5b6166b388828901616277565b935050606086013567ffffffffffffffff8111156166d4576166d36158c1565b5b6166e088828901615e51565b925050608086013567ffffffffffffffff811115616701576167006158c1565b5b61670d88828901616277565b9150509295509295909350565b600080600060608486031215616733576167326158bc565b5b60006167418682870161590f565b935050602084013567ffffffffffffffff811115616762576167616158c1565b5b61676e86828701616277565b925050604084013567ffffffffffffffff81111561678f5761678e6158c1565b5b61679b86828701616277565b9150509250925092565b60006060820190506167ba600083018661599a565b6167c7602083018561599a565b6167d4604083018461599a565b949350505050565b6167e581615beb565b81146167f057600080fd5b50565b600081359050616802816167dc565b92915050565b6000806040838503121561681f5761681e6158bc565b5b600061682d8582860161590f565b925050602061683e858286016167f3565b9150509250929050565b60008060008060808587031215616862576168616158bc565b5b600061687087828801615945565b94505060206168818782880161590f565b935050604061689287828801615945565b92505060606168a387828801615945565b91505092959194509250565b60006168ba826158c6565b9050919050565b6168ca816168af565b81146168d557600080fd5b50565b6000813590506168e7816168c1565b92915050565b60008060408385031215616904576169036158bc565b5b600061691285828601615945565b9250506020616923858286016168d8565b9150509250929050565b600061ffff82169050919050565b6169448161692d565b811461694f57600080fd5b50565b6000813590506169618161693b565b92915050565b60006020828403121561697d5761697c6158bc565b5b600061698b84828501616952565b91505092915050565b6000806000606084860312156169ad576169ac6158bc565b5b60006169bb86828701615945565b93505060206169cc8682870161590f565b92505060406169dd8682870161590f565b9150509250925092565b6000819050919050565b6169fa816169e7565b82525050565b6000602082019050616a1560008301846169f1565b92915050565b60008060408385031215616a3257616a316158bc565b5b6000616a408582860161590f565b9250506020616a518582860161590f565b9150509250929050565b600080600060608486031215616a7457616a736158bc565b5b6000616a828682870161590f565b9350506020616a9386828701615945565b9250506040616aa486828701615945565b9150509250925092565b600081905092915050565b6000616ac482615c97565b616ace8185616aae565b9350616ade818560208601615cb3565b80840191505092915050565b7f2f00000000000000000000000000000000000000000000000000000000000000815250565b6000616b1c8285616ab9565b9150616b2782616aea565b600182019150616b378284616ab9565b91508190509392505050565b7f496e76616c696420494400000000000000000000000000000000000000000000600082015250565b6000616b79600a83615ca2565b9150616b8482616b43565b602082019050919050565b60006020820190508181036000830152616ba881616b6c565b9050919050565b7f496e76616c69642070726963652f616d6f756e74000000000000000000000000600082015250565b6000616be5601483615ca2565b9150616bf082616baf565b602082019050919050565b60006020820190508181036000830152616c1481616bd8565b9050919050565b7f496e76616c696420616464726573730000000000000000000000000000000000600082015250565b6000616c51600f83615ca2565b9150616c5c82616c1b565b602082019050919050565b60006020820190508181036000830152616c8081616c44565b9050919050565b7f556e617574686f72697a6564206163636f756e74000000000000000000000000600082015250565b6000616cbd601483615ca2565b9150616cc882616c87565b602082019050919050565b60006020820190508181036000830152616cec81616cb0565b9050919050565b7f452d426f6f6b206973206e6f74206c6973746564206f7220736f6c64206f7574600082015250565b6000616d29602083615ca2565b9150616d3482616cf3565b602082019050919050565b60006020820190508181036000830152616d5881616d1c565b9050919050565b7f4e487b7100000000000000000000000000000000000000000000000000000000600052601160045260246000fd5b6000616d9982615924565b9150616da483615924565b9250828203905081811115616dbc57616dbb616d5f565b5b92915050565b7f457863656564656420616d6f756e7420746f20756e6c69737400000000000000600082015250565b6000616df8601983615ca2565b9150616e0382616dc2565b602082019050919050565b60006020820190508181036000830152616e2781616deb565b9050919050565b6000602082019050616e436000830184615f72565b92915050565b7f4e487b7100000000000000000000000000000000000000000000000000000000600052602260045260246000fd5b60006002820490506001821680616e9057607f821691505b602082108103616ea357616ea2616e49565b5b50919050565b7f4f7264657220616c6c2066756c66696c6c656400000000000000000000000000600082015250565b6000616edf601383615ca2565b9150616eea82616ea9565b602082019050919050565b60006020820190508181036000830152616f0e81616ed2565b9050919050565b6000616f2082615924565b91507fffffffffffffffffffffffffffffffffffffffffffffffffffffffffffffffff8203616f5257616f51616d5f565b5b600182019050919050565b7f496e73756666696369656e742062616c616e636520746f207472616e73666572600082015250565b6000616f93602083615ca2565b9150616f9e82616f5d565b602082019050919050565b60006020820190508181036000830152616fc281616f86565b9050919050565b600082905092915050565b60008190508160005260206000209050919050565b60006020601f8301049050919050565b600082821b905092915050565b6000600883026170367fffffffffffffffffffffffffffffffffffffffffffffffffffffffffffffffff82616ff9565b6170408683616ff9565b95508019841693508086168417925050509392505050565b6000819050919050565b600061707d61707861707384615924565b617058565b615924565b9050919050565b6000819050919050565b61709783617062565b6170ab6170a382617084565b848454617006565b825550505050565b600090565b6170c06170b3565b6170cb81848461708e565b505050565b5b818110156170ef576170e46000826170b8565b6001810190506170d1565b5050565b601f8211156171345761710581616fd4565b61710e84616fe9565b8101602085101561711d578190505b61713161712985616fe9565b8301826170d0565b50505b505050565b600082821c905092915050565b600061715760001984600802617139565b1980831691505092915050565b60006171708383617146565b9150826002028217905092915050565b61718a8383616fc9565b67ffffffffffffffff8111156171a3576171a26159df565b5b6171ad8254616e78565b6171b88282856170f3565b6000601f8311600181146171e757600084156171d5578287013590505b6171df8582617164565b865550617247565b601f1984166171f586616fd4565b60005b8281101561721d578489013582556001820191506020850194506020810190506171f8565b8683101561723a5784890135617236601f891682617146565b8355505b6001600288020188555050505b50505050505050565b7f455243313135353a2063616c6c6572206973206e6f7420746f6b656e206f776e60008201527f6572206f7220617070726f766564000000000000000000000000000000000000602082015250565b60006172ac602e83615ca2565b91506172b782617250565b604082019050919050565b600060208201905081810360008301526172db8161729f565b9050919050565b7f416363657373436f6e74726f6c3a2063616e206f6e6c792072656e6f756e636560008201527f20726f6c657320666f722073656c660000000000000000000000000000000000602082015250565b600061733e602f83615ca2565b9150617349826172e2565b604082019050919050565b6000602082019050818103600083015261736d81617331565b9050919050565b60006173808284616ab9565b915081905092915050565b7f4e487b7100000000000000000000000000000000000000000000000000000000600052603260045260246000fd5b7f455243313135353a20726576656e75657320616e64206964732f616d6f756e7460008201527f73206c656e677468206d69736d61746368000000000000000000000000000000602082015250565b6000617416603183615ca2565b9150617421826173ba565b604082019050919050565b6000602082019050818103600083015261744581617409565b9050919050565b7f4275796572206861732064657465726d696e6564000000000000000000000000600082015250565b6000617482601483615ca2565b915061748d8261744c565b602082019050919050565b600060208201905081810360008301526174b181617475565b9050919050565b60006040820190506174cd6000830185615f72565b6174da6020830184615f72565b9392505050565b7f496e73656666696369656e742062616c616e636520746f206c69737400000000600082015250565b6000617517601c83615ca2565b9150617522826174e1565b602082019050919050565b600060208201905081810360008301526175468161750a565b9050919050565b600061755882615924565b915061756383615924565b925082820190508082111561757b5761757a616d5f565b5b92915050565b7f6e6f742062757965720000000000000000000000000000000000000000000000600082015250565b60006175b7600983615ca2565b91506175c282617581565b602082019050919050565b600060208201905081810360008301526175e6816175aa565b9050919050565b60006175f882615924565b915061760383615924565b925082820261761181615924565b9150828204841483151761762857617627616d5f565b5b5092915050565b7f4e487b7100000000000000000000000000000000000000000000000000000000600052601260045260246000fd5b600061766982615924565b915061767483615924565b9250826176845761768361762f565b5b828204905092915050565b7f496e73756666696369656e742045746865720000000000000000000000000000600082015250565b60006176c5601283615ca2565b91506176d08261768f565b602082019050919050565b600060208201905081810360008301526176f4816176b8565b9050919050565b600061770682615924565b91506000820361771957617718616d5f565b5b600182039050919050565b7f455243313135353a2061646472657373207a65726f206973206e6f742061207660008201527f616c6964206f776e657200000000000000000000000000000000000000000000602082015250565b6000617780602a83615ca2565b915061778b82617724565b604082019050919050565b600060208201905081810360008301526177af81617773565b9050919050565b7f5061757361626c653a2070617573656400000000000000000000000000000000600082015250565b60006177ec601083615ca2565b91506177f7826177b6565b602082019050919050565b6000602082019050818103600083015261781b816177df565b9050919050565b61782b82615c97565b67ffffffffffffffff811115617844576178436159df565b5b61784e8254616e78565b6178598282856170f3565b600060209050601f83116001811461788c576000841561787a578287015190505b6178848582617164565b8655506178ec565b601f19841661789a86616fd4565b60005b828110156178c25784890151825560018201915060208501945060208101905061789d565b868310156178df57848901516178db601f891682617146565b8355505b6001600288020188555050505b505050505050565b7f455243313135353a206d696e7420746f20746865207a65726f2061646472657360008201527f7300000000000000000000000000000000000000000000000000000000000000602082015250565b6000617950602183615ca2565b915061795b826178f4565b604082019050919050565b6000602082019050818103600083015261797f81617943565b9050919050565b600060408201905061799b600083018561599a565b6179a8602083018461599a565b9392505050565b7f455243313135353a2069647320616e6420616d6f756e7473206c656e6774682060008201527f6d69736d61746368000000000000000000000000000000000000000000000000602082015250565b6000617a0b602883615ca2565b9150617a16826179af565b604082019050919050565b60006020820190508181036000830152617a3a816179fe565b9050919050565b7f455243313135353a207472616e7366657220746f20746865207a65726f20616460008201527f6472657373000000000000000000000000000000000000000000000000000000602082015250565b6000617a9d602583615ca2565b9150617aa882617a41565b604082019050919050565b60006020820190508181036000830152617acc81617a90565b9050919050565b7f455243313135353a20696e73756666696369656e742062616c616e636520666f60008201527f72207472616e7366657200000000000000000000000000000000000000000000602082015250565b6000617b2f602a83615ca2565b9150617b3a82617ad3565b604082019050919050565b60006020820190508181036000830152617b5e81617b22565b9050919050565b60006040820190508181036000830152617b7f818561654f565b90508181036020830152617b93818461654f565b90509392505050565b7f455243313135353a206163636f756e747320616e6420696473206c656e67746860008201527f206d69736d617463680000000000000000000000000000000000000000000000602082015250565b6000617bf8602983615ca2565b9150617c0382617b9c565b604082019050919050565b60006020820190508181036000830152617c2781617beb565b9050919050565b7f416363657373436f6e74726f6c3a206163636f756e7420000000000000000000600082015250565b6000617c64601783616aae565b9150617c6f82617c2e565b601782019050919050565b7f206973206d697373696e6720726f6c6520000000000000000000000000000000600082015250565b6000617cb0601183616aae565b9150617cbb82617c7a565b601182019050919050565b6000617cd182617c57565b9150617cdd8285616ab9565b9150617ce882617ca3565b9150617cf48284616ab9565b91508190509392505050565b7f455243313135353a2073657474696e6720617070726f76616c2073746174757360008201527f20666f722073656c660000000000000000000000000000000000000000000000602082015250565b6000617d5c602983615ca2565b9150617d6782617d00565b604082019050919050565b60006020820190508181036000830152617d8b81617d4f565b9050919050565b600081519050919050565b600082825260208201905092915050565b6000617db982617d92565b617dc38185617d9d565b9350617dd3818560208601615cb3565b617ddc816159ce565b840191505092915050565b600060a082019050617dfc6000830188615f72565b617e096020830187615f72565b617e16604083018661599a565b617e23606083018561599a565b8181036080830152617e358184617dae565b90509695505050505050565b600081519050617e5081615b92565b92915050565b600060208284031215617e6c57617e6b6158bc565b5b6000617e7a84828501617e41565b91505092915050565b60008160e01c9050919050565b600060033d1115617eaf5760046000803e617eac600051617e83565b90505b90565b600060443d10617f3f57617ec46158b2565b60043d036004823e80513d602482011167ffffffffffffffff82111715617eec575050617f3f565b808201805167ffffffffffffffff811115617f0a5750505050617f3f565b80602083010160043d038501811115617f27575050505050617f3f565b617f3682602001850186615a0e565b82955050505050505b90565b7f455243313135353a207472616e7366657220746f206e6f6e2d4552433131353560008201527f526563656976657220696d706c656d656e746572000000000000000000000000602082015250565b6000617f9e603483615ca2565b9150617fa982617f42565b604082019050919050565b60006020820190508181036000830152617fcd81617f91565b9050919050565b7f455243313135353a204552433131353552656365697665722072656a6563746560008201527f6420746f6b656e73000000000000000000000000000000000000000000000000602082015250565b6000618030602883615ca2565b915061803b82617fd4565b604082019050919050565b6000602082019050818103600083015261805f81618023565b9050919050565b600060a08201905061807b6000830188615f72565b6180886020830187615f72565b818103604083015261809a818661654f565b905081810360608301526180ae818561654f565b905081810360808301526180c28184617dae565b90509695505050505050565b7f5061757361626c653a206e6f7420706175736564000000000000000000000000600082015250565b6000618104601483615ca2565b915061810f826180ce565b602082019050919050565b60006020820190508181036000830152618133816180f7565b9050919050565b7f455243313135353a206275726e2066726f6d20746865207a65726f206164647260008201527f6573730000000000000000000000000000000000000000000000000000000000602082015250565b6000618196602383615ca2565b91506181a18261813a565b604082019050919050565b600060208201905081810360008301526181c581618189565b9050919050565b7f455243313135353a206275726e20616d6f756e7420657863656564732062616c60008201527f616e636500000000000000000000000000000000000000000000000000000000602082015250565b6000618228602483615ca2565b9150618233826181cc565b604082019050919050565b600060208201905081810360008301526182578161821b565b9050919050565b7f537472696e67733a20686578206c656e67746820696e73756666696369656e74600082015250565b6000618294602083615ca2565b915061829f8261825e565b602082019050919050565b600060208201905081810360008301526182c381618287565b9050919050565b7f455243313135353a206275726e20616d6f756e74206578636565647320746f7460008201527f616c537570706c79000000000000000000000000000000000000000000000000602082015250565b6000618326602883615ca2565b9150618331826182ca565b604082019050919050565b6000602082019050818103600083015261835581618319565b905091905056fea2646970667358221220e0a309afaec7c036426f1f68ce67317d55313a66eefb2ba4a920d2cd0eeb4c8a64736f6c63430008130033",
  "immutableReferences": {},
  "source": "// SPDX-License-Identifier: MIT\r\npragma solidity ^0.8.7;\r\n\r\n/*import \"../node_modules/@openzeppelin/contracts-upgradeable/token/ERC1155/ERC1155Upgradeable.sol\";\r\nimport \"../node_modules/@openzeppelin/contracts-upgradeable/access/AccessControlUpgradeable.sol\";\r\nimport \"../node_modules/@openzeppelin/contracts-upgradeable/security/PausableUpgradeable.sol\";\r\nimport \"../node_modules/@openzeppelin/contracts-upgradeable/token/ERC1155/extensions/ERC1155BurnableUpgradeable.sol\";\r\nimport \"../node_modules/@openzeppelin/contracts-upgradeable/token/ERC1155/extensions/ERC1155SupplyUpgradeable.sol\";\r\nimport \"../node_modules/@openzeppelin/contracts-upgradeable/proxy/utils/Initializable.sol\";\r\nimport \"../node_modules/@openzeppelin/contracts-upgradeable/utils/StringsUpgradeable.sol\";*/\r\nimport \"../node_modules/@openzeppelin/contracts/token/ERC1155/ERC1155.sol\";\r\nimport \"../node_modules/@openzeppelin/contracts/access/AccessControl.sol\";\r\nimport \"../node_modules/@openzeppelin/contracts/security/Pausable.sol\";\r\nimport \"../node_modules/@openzeppelin/contracts/token/ERC1155/extensions/ERC1155Burnable.sol\";\r\nimport \"../node_modules/@openzeppelin/contracts/token/ERC1155/extensions/ERC1155Supply.sol\";\r\nimport \"../node_modules/@openzeppelin/contracts/utils/Strings.sol\";\r\nimport \"./Market.sol\";\r\n\r\n/// @custom:security-contact dodo920306@gmail.com\r\ncontract The_Ohara_Protocol is ERC1155, AccessControl, Pausable, ERC1155Burnable, ERC1155Supply {\r\n    \r\n    mapping (uint256 => bytes32) idToPublisher; // Anyone can check which publisher an id belongs to.\r\n    mapping (string => bool) publisherHasMember;\r\n\r\n    struct Listing {\r\n        uint256 price; // \r\n        uint256 listedBalance; // \r\n        uint256 buyerCounts; // \r\n        address[] buyers; // \r\n    }\r\n\r\n    struct RevenueFeeInfo {\r\n        uint256 revenueFeeRate; // \r\n        address publisher; //  mint \r\n    }\r\n    \r\n    mapping (uint256 => mapping (address => Listing)) public listings; // id => seller => Listing\r\n    mapping (uint256 => RevenueFeeInfo) public publisherRevenueFeeRates; // id => revenue percentage\r\n\r\n    uint16 marketFeeRate = 25;\r\n\r\n    mapping (uint256 => string) public idToMetadataUrl;\r\n    mapping (address => mapping (uint256 => string)) public userToBookKeySecret;\r\n\r\n    event EBookListed(uint256 indexed id, uint256 indexed amount, uint256 indexed price, address seller);\r\n    event PriceModified(uint256 indexed id, uint256 indexed originalPrice, uint256 indexed currentPrice, address seller, address priceModifier);\r\n    event ListingCancelled(uint256 indexed id, address indexed seller, uint256 indexed removeAmount, address canceller);\r\n    event BuyerDetermined(uint256 indexed id, address indexed seller, address indexed buyer);\r\n    event TransactionMade(uint256 indexed id, address indexed seller, address indexed buyer);\r\n\r\n    modifier isIdExisted(uint256 id) {\r\n        require(super.exists(id), \"Invalid ID\");\r\n        _;\r\n    }\r\n\r\n    modifier IsPriceOrAmountValid(uint256 priceOrAmount) {\r\n        require(priceOrAmount > 0, \"Invalid price/amount\");\r\n        _;\r\n    }\r\n\r\n    modifier isApproved(address seller) {\r\n        require(super.isApprovedForAll(msg.sender, seller) || seller == msg.sender, \"Unauthorized account\");\r\n        _;\r\n    }\r\n\r\n    modifier isAddressValid(address addr) {\r\n        require(addr != address(0), \"Invalid address\");\r\n        _;\r\n    }\r\n\r\n    modifier IsEBookAvailableOnOrder(uint256 id, address seller) {  // /\r\n        require(listings[id][seller].listedBalance > 0, \"E-Book is not listed or sold out\");\r\n        _;\r\n    }\r\n\r\n    // There's no onlyPublisherSingle, for that it basically equals to onlyRole modifier from AccessControl. \r\n    modifier onlyPublisherBatch(uint256[] memory ids) {\r\n        for (uint256 i = 0; i < ids.length; ++i) {\r\n            _checkRole(idToPublisher[ids[i]]);\r\n        }\r\n        _;\r\n    }\r\n\r\n    /// @custom:oz-upgrades-unsafe-allow constructor\r\n    constructor() ERC1155(\"\") {\r\n        _grantRole(DEFAULT_ADMIN_ROLE, msg.sender);\r\n        //_disableInitializers();\r\n    }\r\n\r\n    /*function initialize(address addr) initializer public {\r\n        __ERC1155_init(\"\");\r\n        __AccessControl_init();\r\n        __Pausable_init();\r\n        __ERC1155Burnable_init();\r\n        __ERC1155Supply_init();\r\n\r\n        _grantRole(DEFAULT_ADMIN_ROLE, msg.sender);\r\n        \r\n    }*/\r\n\r\n    function setURI(string memory newuri) public whenNotPaused onlyRole(DEFAULT_ADMIN_ROLE) { // Tim: added whenNotPaused\r\n        _setURI(newuri);\r\n    }\r\n\r\n    // Tim: get the actual e-book uri, may require further modifications\r\n    // Tim: using toString() for getURIOfId()\r\n    using Strings for uint256;   \r\n    function getURIOfId(uint256 id) public view returns(string memory) {\r\n        return string.concat(super.uri(id), \"/\", id.toString());\r\n    }\r\n\r\n    /**\r\n     * @dev The publisher who wants to claim an account belongs to them must use this function\r\n     * with the magic string that represents themselves.\r\n     * \r\n     * The function will uses keccak256 solidity function to hash this string, but before that, it must be represented as bytes32.\r\n     * The type conversion from \"string memory\" to \"bytes32\" isn't allowed, so we use abi.encode() here.\r\n     * See https://ethereum.stackexchange.com/questions/119583/when-to-use-abi-encode-abi-encodepacked-or-abi-encodewithsignature-in-solidity\r\n     * for the reason of this selection.\r\n     * \r\n     * After that, we use grantRole() function from AccessControl,\r\n     * the reason we don't directly use _grantRole() here is because the onlyRole(getRoleAdmin(role)) should also be passed in this operation,\r\n     * and since grantRole() has that modifier originally, the current function doesn't require any modifier yet,\r\n     * and there's no need to be afraid that anyone hash others' magic string and directly call grantRole() because there's no way he/she can be the admin.\r\n     * \r\n     * If it's the first member to be added in the publisher,\r\n     * the msg.sender must be DEFAULT_ADMIN_ROLE to pass onlyRole(getRoleAdmin(role)) for that there's no way to set admin to others.\r\n     * If so, then the function would call _setRoleAdmin() to release the admin power to the publisher itself,\r\n     * indicating that from this point on, only the publisher can manage which accounts can act on its behalf.\r\n     * \r\n     * The only risk would be that a hacker steal one private key from DEFAULT_ADMIN_ROLE,\r\n     * in that case, the worse he/she can do is grant his/her accounts the publisher role that \"hasn't been registered yet\",\r\n     * for that the admins of the publishers already in the protocol can only be themselves.\r\n     * If so, then the publishers register in the future cannot use the same magic string as the hacker granted himself/herself even if they want.\r\n     * (Basically, it's the same idea as \"This username has already been used. Please try another.\",\r\n     * so the power of DEFAULT_ADMIN_ROLE is basically just register publishers and ids.)\r\n     */\r\n    function grantPublisher(string memory publisher, address account) public virtual whenNotPaused { // Tim: added whenNotPaused\r\n        bytes32 role = keccak256(abi.encode(publisher));\r\n        grantRole(role, account);\r\n\r\n        if (!publisherHasMember[publisher]) {\r\n            publisherHasMember[publisher] = true;\r\n            _setRoleAdmin(role, role);\r\n        }\r\n    }\r\n\r\n    /**\r\n     * @dev See the comment of grantPublisher() above for more info about the string publisher and the bytes32 role.\r\n     * Only the old publisher could set the publisher of an id to a new one.\r\n     * Since the default publisher of the id is 0x00, the first publisher of the id must be set by the DEFAULT_ADMIN_ROLE.\r\n     */\r\n    function setIdToPublisher(uint256 id, string memory publisher) //Tim: added whenNotPaused\r\n        public\r\n        whenNotPaused\r\n        onlyRole(idToPublisher[id])\r\n    {\r\n        bytes32 role = keccak256(abi.encode(publisher));\r\n        idToPublisher[id] = role;\r\n    }\r\n\r\n    // Tim: added idExists() to check if an id has existed\r\n    function idExists(uint256 id) public view returns (bool) {\r\n        return super.exists(id);\r\n    }\r\n\r\n    /**\r\n     * @dev See the comment of grantPublisher() above for more info about the string publisher and the bytes32 role.\r\n     * The reason we don't directly call _revokeRole() and the this function is safe is the same reason grantPublisher() doesn't call _grantRole().\r\n     * Use this function to kick someone including msg.sender himself/herself out of the publisher.\r\n     * The function also can only be called by the publisher itself.\r\n     */\r\n    function revokePublisher(string memory publisher, address account) public virtual whenNotPaused { // Tim: added whenNotPaused\r\n        bytes32 role = keccak256(abi.encode(publisher));\r\n        revokeRole(role, account);\r\n    }\r\n\r\n    // Tim: added two functions to call hasRole() & getRoleAdmin(), not sure if thye're needed\r\n    function hasRole(string memory role, address account) public view returns(bool) {\r\n        return super.hasRole(keccak256(abi.encode(role)), account);\r\n    }\r\n\r\n    function getRoleAdmin(string memory role) public view returns(bytes32) {\r\n        return super.getRoleAdmin(keccak256(abi.encode(role)));\r\n    }\r\n\r\n    function pause() public onlyRole(DEFAULT_ADMIN_ROLE) {\r\n        _pause();\r\n    }\r\n\r\n    function unpause() public onlyRole(DEFAULT_ADMIN_ROLE) {\r\n        _unpause();\r\n    }\r\n\r\n    // The publisher of the id would have power to mint the id to whoever they want.\r\n    function mint(address to, uint256 id, uint256 amount, bytes memory data, uint256 revenueRate)\r\n        public\r\n        whenNotPaused\r\n        onlyRole(idToPublisher[id])\r\n    {\r\n        publisherRevenueFeeRates[id].revenueFeeRate = revenueRate;\r\n        publisherRevenueFeeRates[id].publisher = msg.sender;\r\n        _mint(to, id, amount, data);\r\n    }\r\n\r\n    function mintBatch(address to, uint256[] memory ids, uint256[] memory amounts, bytes memory data, uint256[] memory revenueFeeRates)\r\n        public\r\n        whenNotPaused\r\n        onlyPublisherBatch(ids)\r\n    {\r\n        require(revenueFeeRates.length == ids.length && revenueFeeRates.length == amounts.length, \"ERC1155: revenues and ids/amounts length mismatch\");\r\n        for (uint256 i = 0 ; i < ids.length ; ++i) {\r\n            publisherRevenueFeeRates[ids[i]].revenueFeeRate = revenueFeeRates[i];\r\n            publisherRevenueFeeRates[ids[i]].publisher = msg.sender;\r\n        }\r\n        _mintBatch(to, ids, amounts, data);\r\n    }\r\n\r\n    // Tim: added burn() & burnBatch()\r\n    function burn(address from, uint256 id, uint256 amount) public override(ERC1155Burnable) whenNotPaused {\r\n\r\n        require(balanceOf(from, id) - listedBalanceOf(from, id) >= amount); // \r\n\r\n        super.burn(from, id, amount);\r\n    }\r\n\r\n    function burnBatch(address from, uint256[] memory ids, uint256[] memory amounts) public override(ERC1155Burnable) whenNotPaused {\r\n\r\n        for (uint256 i = 0 ; i < ids.length ; ++i) { // \r\n            require(balanceOf(from, ids[i]) - listedBalanceOf(from, ids[i]) >= amounts[i]);\r\n        }\r\n\r\n        super.burnBatch(from, ids, amounts);\r\n    }\r\n\r\n    function _beforeTokenTransfer(address operator, address from, address to, uint256[] memory ids, uint256[] memory amounts, bytes memory data)\r\n        internal\r\n        whenNotPaused\r\n        override(ERC1155, ERC1155Supply)\r\n    {\r\n        \r\n        super._beforeTokenTransfer(operator, from, to, ids, amounts, data);\r\n    }\r\n\r\n    // Tim: added transfer() & transferBatch()\r\n    function transfer(address from, address to, uint256 id, uint256 amount, bytes memory data) public {\r\n        require(balanceOf(from, id) - listedBalanceOf(from, id) >= amount, \"Insufficient balance to transfer\");// \r\n        super.safeTransferFrom(from, to, id, amount, data);\r\n    }\r\n\r\n    function transferBatch(address from, address to, uint256[] memory ids, uint256[] memory amounts, bytes memory data) public {\r\n        for (uint256 i = 0 ; i < ids.length ; ++i) { // \r\n            require(balanceOf(from, ids[i]) - listedBalanceOf(from, ids[i]) >= amounts[i], \"Insufficient balance to transfer\");\r\n        }\r\n        super.safeBatchTransferFrom(from, to, ids, amounts, data);\r\n    }\r\n\r\n    // Tim: added balanceOf() & balanceOfBatch()\r\n    function balanceOf(address account, uint256 id) \r\n        public\r\n        view\r\n        virtual\r\n        override(ERC1155)\r\n        returns(uint256)\r\n    {\r\n        return super.balanceOf(account, id);\r\n    }\r\n\r\n    function balanceOfBatch(address[] memory accounts, uint256[] memory ids)\r\n        public\r\n        view\r\n        virtual\r\n        override(ERC1155)\r\n        returns (uint256[] memory)\r\n    {\r\n        return super.balanceOfBatch(accounts, ids) ;\r\n    }\r\n\r\n    // Tim: added setApprovalForAll() & isApprovedForAll()\r\n    function setApprovalForAll(address operator, bool approved) public override(ERC1155) whenNotPaused {\r\n        super.setApprovalForAll(operator, approved);\r\n    }\r\n\r\n    function isApprovedForAll(address account, address operator) public view override(ERC1155) returns (bool) {\r\n        return super.isApprovedForAll(account, operator);\r\n    }\r\n\r\n    // Tim: added getIdSupply()\r\n    function getIdSupply(uint256 id) public view returns (uint256) {\r\n        return super.totalSupply(id);\r\n    }\r\n\r\n    function changeMetadataUrl(uint256 id, string calldata newMetadataUrl) public onlyRole(DEFAULT_ADMIN_ROLE) {\r\n        idToMetadataUrl[id] = newMetadataUrl;\r\n    }\r\n\r\n    function changeBookKeySecret(address user, uint256 id, string calldata key) public onlyRole(DEFAULT_ADMIN_ROLE) {\r\n        userToBookKeySecret[user][id] = key;\r\n    }\r\n\r\n    // ----------------------- below are market functions -----------------------\r\n    function changeMarketFee(uint16 newMarketFee) public onlyRole(DEFAULT_ADMIN_ROLE) {\r\n        marketFeeRate = newMarketFee;\r\n    }\r\n/*\r\n    function checkIsBuyer(uint256 id, address seller, address buyer) public returns (int256) {\r\n        (bool ok, bytes memory data) = market.delegatecall(\r\n            abi.encodeWithSignature(\"checkIsBuyer(uint256,address,address)\", id, seller, buyer)\r\n        );\r\n        require(ok);\r\n        return abi.decode(data, (int256));\r\n    }\r\n\r\n    // Tim:  ID \r\n    function listedBalanceOf(address account, uint256 id) public view returns(uint256) {\r\n        return listings[id][account].listedBalance;\r\n    }\r\n\r\n    // Tim: \r\n    function listEBook(uint256 id, address seller, uint256 price, uint256 amount) public {\r\n        (bool ok, ) = market.delegatecall(\r\n            abi.encodeWithSignature(\"listEBook(uint256,address,uint256,uint256)\", id, seller, price, amount)\r\n        );\r\n        require(ok);\r\n    }\r\n\r\n    // Tim: \r\n    function modifyPrice(uint256 id, address seller, uint256 price) public {\r\n        (bool ok, ) = market.delegatecall(\r\n            abi.encodeWithSignature(\"modifyPrice(uint256,address,uint256)\", id, seller, price)\r\n        );\r\n        require(ok);\r\n    }\r\n\r\n    // Tim: \r\n    function cancelListing(uint256 id, address seller, uint256 amount) public {\r\n        (bool ok, ) = market.delegatecall(\r\n            abi.encodeWithSignature(\"cancelListing(uint256,address,uint256)\", id, seller, amount)\r\n        );\r\n        require(ok);\r\n    }\r\n\r\n    // Tim: \r\n    function determineBuyer(address seller, address buyer, uint256 id) public onlyRole(DEFAULT_ADMIN_ROLE) {\r\n        (bool ok, ) = market.delegatecall(\r\n            abi.encodeWithSignature(\"cancelListing(address,address,uint256)\", seller, buyer, id)\r\n        );\r\n        require(ok);\r\n    }\r\n\r\n    // Tim:  buyers \r\n    function purchaseEBook(uint256 id, address seller) public payable {\r\n        int256 index = checkIsBuyer(id, seller, msg.sender);\r\n        (bool ok, ) = market.delegatecall(\r\n            abi.encodeWithSignature(\"purchaseEBook(uint256,address,int256)\", id, seller, index)\r\n        );\r\n        require(ok);\r\n    }\r\n*/\r\n    //  Tim: ( determineBuyer )\r\n    function _grantApprovalToContract(address seller) private {\r\n        super._setApprovalForAll(seller, address(this), true);\r\n    }\r\n\r\n    // Tim: ( purchaseEBook )\r\n    function _revokeApprovalFromContract(address seller) private {\r\n        super._setApprovalForAll(seller, address(this), false);\r\n    }\r\n\r\n    // Tim: \r\n    function checkIsBuyer(uint256 id, address seller, address buyer) public view returns (int256) {\r\n\r\n        uint256 length = listings[id][seller].buyers.length;\r\n        address[] memory buyers = listings[id][seller].buyers;\r\n        \r\n        for (uint256 i = 0 ; i < length ; ++i) {\r\n            if (buyers[i] == buyer) {\r\n                return int256(i);\r\n            }\r\n        }\r\n\r\n        return -1;\r\n    }\r\n\r\n    // Tim:  ID \r\n    function listedBalanceOf(address account, uint256 id) public view virtual returns(uint256) {\r\n        return listings[id][account].listedBalance;\r\n    }\r\n\r\n    // Tim:  ID \r\n    function getPrice(uint256 id, address seller) public view returns (uint256) {\r\n        return listings[id][seller].price;\r\n    }\r\n\r\n    // Tim: \r\n    function listEBook(uint256 id, address seller, uint256 price, uint256 amount) public virtual whenNotPaused isIdExisted(id) IsPriceOrAmountValid(price) IsPriceOrAmountValid(amount) isAddressValid(seller) isApproved(seller) {\r\n        require(balanceOf(seller, id) - listings[id][seller].listedBalance >= amount, \"Insefficient balance to list\"); //  -  >= \r\n\r\n        if (listings[id][seller].buyerCounts == 0) {\r\n            listings[id][seller].price = price;\r\n        }\r\n\r\n        listings[id][seller].listedBalance += amount;\r\n\r\n        emit EBookListed(id, amount, price, seller);\r\n    }\r\n\r\n    // Tim: \r\n    function modifyPrice(uint256 id, address seller, uint256 price) public virtual whenNotPaused isIdExisted(id) IsPriceOrAmountValid(price) isAddressValid(seller) isApproved(seller) IsEBookAvailableOnOrder(id, seller) {\r\n        require(listings[id][seller].buyerCounts == 0, \"Buyer has determined\"); //  determineBuyer\r\n\r\n        uint256 originalPrice = listings[id][seller].price;\r\n        listings[id][seller].price = price;\r\n\r\n        emit PriceModified (id, originalPrice, price, seller, msg.sender);\r\n    }\r\n\r\n    // Tim: \r\n    function cancelListing(uint256 id, address seller, uint256 amount) public virtual whenNotPaused isIdExisted(id) IsPriceOrAmountValid(amount) isAddressValid(seller) isApproved(seller) IsEBookAvailableOnOrder(id, seller) {\r\n        require(listings[id][seller].listedBalance - listings[id][seller].buyerCounts >= amount, \"Exceeded amount to unlist\"); //  >= \r\n\r\n        unchecked {\r\n            listings[id][seller].listedBalance -= amount;\r\n        }\r\n\r\n        if (listings[id][seller].listedBalance == 0) {\r\n            delete listings[id][seller];\r\n        }\r\n\r\n        emit ListingCancelled(id, seller, amount, msg.sender);\r\n    }\r\n\r\n    // Tim: \r\n    function determineBuyer(address seller, address buyer, uint256 id) public virtual whenNotPaused onlyRole(DEFAULT_ADMIN_ROLE) isIdExisted(id) isAddressValid(seller) isAddressValid(buyer) {\r\n        require(listings[id][seller].listedBalance > listings[id][seller].buyerCounts, \"Order all fulfilled\"); // \r\n\r\n        listings[id][seller].buyers.push(buyer);\r\n        \r\n        if (listings[id][seller].buyerCounts == 0) { // \r\n            _grantApprovalToContract(seller);\r\n        }\r\n\r\n        listings[id][seller].buyerCounts ++;\r\n\r\n        emit BuyerDetermined(id, seller, buyer);\r\n    }\r\n\r\n    // Tim:  buyers \r\n    function purchaseEBook(uint256 id, address payable seller) public payable virtual whenNotPaused isIdExisted(id) isAddressValid(seller) IsEBookAvailableOnOrder(id, seller) {\r\n        \r\n        // \r\n        address payable buyer = payable(msg.sender);\r\n        int256 index = checkIsBuyer(id, seller, buyer);\r\n        require(index != -1, \"not buyer\");\r\n\r\n        // \r\n        uint256 price = listings[id][seller].price; // \r\n\r\n        uint256 publisherRevenueFee = price * publisherRevenueFeeRates[id].revenueFeeRate / 1000; //  =  *  / 1000\r\n        uint256 marketFee = price * marketFeeRate / 1000; //  =  *  / 1000\r\n\r\n        uint256 total = price + publisherRevenueFee + marketFee; //  =  +  + \r\n        require(msg.value >= total, \"Insufficient Ether\");\r\n\r\n        // \r\n        super._safeTransferFrom(seller, buyer, id, 1, \"\"); // \r\n        \r\n        seller.transfer(price); // \r\n\r\n        address payable publisher = payable(publisherRevenueFeeRates[id].publisher);\r\n        publisher.transfer(publisherRevenueFee); // \r\n\r\n        if (msg.value - total > 0) { //  ETH \r\n            buyer.transfer(msg.value - total);\r\n        }\r\n\r\n        // \r\n        listings[id][seller].listedBalance --;\r\n        listings[id][seller].buyerCounts --;\r\n        listings[id][seller].buyers[uint256(index)] = address(0);\r\n\r\n        if (listings[id][seller].buyerCounts == 0) { // \r\n            _revokeApprovalFromContract(seller);\r\n        }\r\n\r\n        if (listings[id][seller].listedBalance == 0) { // \r\n            delete listings[id][seller];\r\n        }\r\n\r\n        emit TransactionMade(id, seller, buyer);\r\n    }\r\n\r\n    function supportsInterface(bytes4 interfaceId)\r\n        public\r\n        view\r\n        override(ERC1155, AccessControl)\r\n        returns (bool)\r\n    {\r\n        return super.supportsInterface(interfaceId);\r\n    }\r\n}",
  "sourcePath": "C:\\Users\\TimOu_0911\\Desktop\\The_Ohara_Protocol\\contracts\\The_Ohara_Protocol.sol",
  "compiler": {
    "name": "solc",
    "version": "0.8.19+commit.7dd6d404.Emscripten.clang"
  },
  "schemaVersion": "3.4.13",
  "updatedAt": "2023-07-07T07:31:24.427Z",
  "devdoc": {
    "custom:security-contact": "dodo920306@gmail.com",
    "events": {
      "ApprovalForAll(address,address,bool)": {
        "details": "Emitted when `account` grants or revokes permission to `operator` to transfer their tokens, according to `approved`."
      },
      "Paused(address)": {
        "details": "Emitted when the pause is triggered by `account`."
      },
      "RoleAdminChanged(bytes32,bytes32,bytes32)": {
        "details": "Emitted when `newAdminRole` is set as ``role``'s admin role, replacing `previousAdminRole` `DEFAULT_ADMIN_ROLE` is the starting admin for all roles, despite {RoleAdminChanged} not being emitted signaling this. _Available since v3.1._"
      },
      "RoleGranted(bytes32,address,address)": {
        "details": "Emitted when `account` is granted `role`. `sender` is the account that originated the contract call, an admin role bearer except when using {AccessControl-_setupRole}."
      },
      "RoleRevoked(bytes32,address,address)": {
        "details": "Emitted when `account` is revoked `role`. `sender` is the account that originated the contract call:   - if using `revokeRole`, it is the admin role bearer   - if using `renounceRole`, it is the role bearer (i.e. `account`)"
      },
      "TransferBatch(address,address,address,uint256[],uint256[])": {
        "details": "Equivalent to multiple {TransferSingle} events, where `operator`, `from` and `to` are the same for all transfers."
      },
      "TransferSingle(address,address,address,uint256,uint256)": {
        "details": "Emitted when `value` tokens of token type `id` are transferred from `from` to `to` by `operator`."
      },
      "URI(string,uint256)": {
        "details": "Emitted when the URI for token type `id` changes to `value`, if it is a non-programmatic URI. If an {URI} event was emitted for `id`, the standard https://eips.ethereum.org/EIPS/eip-1155#metadata-extensions[guarantees] that `value` will equal the value returned by {IERC1155MetadataURI-uri}."
      },
      "Unpaused(address)": {
        "details": "Emitted when the pause is lifted by `account`."
      }
    },
    "kind": "dev",
    "methods": {
      "balanceOf(address,uint256)": {
        "details": "See {IERC1155-balanceOf}. Requirements: - `account` cannot be the zero address."
      },
      "balanceOfBatch(address[],uint256[])": {
        "details": "See {IERC1155-balanceOfBatch}. Requirements: - `accounts` and `ids` must have the same length."
      },
      "constructor": {
        "custom:oz-upgrades-unsafe-allow": "constructor"
      },
      "exists(uint256)": {
        "details": "Indicates whether any token exist with a given id, or not."
      },
      "getRoleAdmin(bytes32)": {
        "details": "Returns the admin role that controls `role`. See {grantRole} and {revokeRole}. To change a role's admin, use {_setRoleAdmin}."
      },
      "grantPublisher(string,address)": {
        "details": "The publisher who wants to claim an account belongs to them must use this function with the magic string that represents themselves.  The function will uses keccak256 solidity function to hash this string, but before that, it must be represented as bytes32. The type conversion from \"string memory\" to \"bytes32\" isn't allowed, so we use abi.encode() here. See https://ethereum.stackexchange.com/questions/119583/when-to-use-abi-encode-abi-encodepacked-or-abi-encodewithsignature-in-solidity for the reason of this selection.  After that, we use grantRole() function from AccessControl, the reason we don't directly use _grantRole() here is because the onlyRole(getRoleAdmin(role)) should also be passed in this operation, and since grantRole() has that modifier originally, the current function doesn't require any modifier yet, and there's no need to be afraid that anyone hash others' magic string and directly call grantRole() because there's no way he/she can be the admin.  If it's the first member to be added in the publisher, the msg.sender must be DEFAULT_ADMIN_ROLE to pass onlyRole(getRoleAdmin(role)) for that there's no way to set admin to others. If so, then the function would call _setRoleAdmin() to release the admin power to the publisher itself, indicating that from this point on, only the publisher can manage which accounts can act on its behalf.  The only risk would be that a hacker steal one private key from DEFAULT_ADMIN_ROLE, in that case, the worse he/she can do is grant his/her accounts the publisher role that \"hasn't been registered yet\", for that the admins of the publishers already in the protocol can only be themselves. If so, then the publishers register in the future cannot use the same magic string as the hacker granted himself/herself even if they want. (Basically, it's the same idea as \"This username has already been used. Please try another.\", so the power of DEFAULT_ADMIN_ROLE is basically just register publishers and ids.)"
      },
      "grantRole(bytes32,address)": {
        "details": "Grants `role` to `account`. If `account` had not been already granted `role`, emits a {RoleGranted} event. Requirements: - the caller must have ``role``'s admin role. May emit a {RoleGranted} event."
      },
      "hasRole(bytes32,address)": {
        "details": "Returns `true` if `account` has been granted `role`."
      },
      "isApprovedForAll(address,address)": {
        "details": "See {IERC1155-isApprovedForAll}."
      },
      "paused()": {
        "details": "Returns true if the contract is paused, and false otherwise."
      },
      "renounceRole(bytes32,address)": {
        "details": "Revokes `role` from the calling account. Roles are often managed via {grantRole} and {revokeRole}: this function's purpose is to provide a mechanism for accounts to lose their privileges if they are compromised (such as when a trusted device is misplaced). If the calling account had been revoked `role`, emits a {RoleRevoked} event. Requirements: - the caller must be `account`. May emit a {RoleRevoked} event."
      },
      "revokePublisher(string,address)": {
        "details": "See the comment of grantPublisher() above for more info about the string publisher and the bytes32 role. The reason we don't directly call _revokeRole() and the this function is safe is the same reason grantPublisher() doesn't call _grantRole(). Use this function to kick someone including msg.sender himself/herself out of the publisher. The function also can only be called by the publisher itself."
      },
      "revokeRole(bytes32,address)": {
        "details": "Revokes `role` from `account`. If `account` had been granted `role`, emits a {RoleRevoked} event. Requirements: - the caller must have ``role``'s admin role. May emit a {RoleRevoked} event."
      },
      "safeBatchTransferFrom(address,address,uint256[],uint256[],bytes)": {
        "details": "See {IERC1155-safeBatchTransferFrom}."
      },
      "safeTransferFrom(address,address,uint256,uint256,bytes)": {
        "details": "See {IERC1155-safeTransferFrom}."
      },
      "setApprovalForAll(address,bool)": {
        "details": "See {IERC1155-setApprovalForAll}."
      },
      "setIdToPublisher(uint256,string)": {
        "details": "See the comment of grantPublisher() above for more info about the string publisher and the bytes32 role. Only the old publisher could set the publisher of an id to a new one. Since the default publisher of the id is 0x00, the first publisher of the id must be set by the DEFAULT_ADMIN_ROLE."
      },
      "totalSupply(uint256)": {
        "details": "Total amount of tokens in with a given id."
      },
      "uri(uint256)": {
        "details": "See {IERC1155MetadataURI-uri}. This implementation returns the same URI for *all* token types. It relies on the token type ID substitution mechanism https://eips.ethereum.org/EIPS/eip-1155#metadata[defined in the EIP]. Clients calling this function must replace the `\\{id\\}` substring with the actual token type ID."
      }
    },
    "version": 1
  },
  "userdoc": {
    "kind": "user",
    "methods": {},
    "version": 1
  }
}