{
  "contractName": "The_Ohara_Protocol",
  "abi": [
    {
      "inputs": [],
      "stateMutability": "nonpayable",
      "type": "constructor"
    },
    {
      "anonymous": false,
      "inputs": [
        {
          "indexed": true,
          "internalType": "address",
          "name": "account",
          "type": "address"
        },
        {
          "indexed": true,
          "internalType": "address",
          "name": "operator",
          "type": "address"
        },
        {
          "indexed": false,
          "internalType": "bool",
          "name": "approved",
          "type": "bool"
        }
      ],
      "name": "ApprovalForAll",
      "type": "event"
    },
    {
      "anonymous": false,
      "inputs": [
        {
          "indexed": true,
          "internalType": "uint256",
          "name": "id",
          "type": "uint256"
        },
        {
          "indexed": true,
          "internalType": "address",
          "name": "seller",
          "type": "address"
        },
        {
          "indexed": true,
          "internalType": "address",
          "name": "buyer",
          "type": "address"
        }
      ],
      "name": "BuyerDetermined",
      "type": "event"
    },
    {
      "anonymous": false,
      "inputs": [
        {
          "indexed": true,
          "internalType": "uint256",
          "name": "id",
          "type": "uint256"
        },
        {
          "indexed": true,
          "internalType": "uint256",
          "name": "amount",
          "type": "uint256"
        },
        {
          "indexed": true,
          "internalType": "uint256",
          "name": "price",
          "type": "uint256"
        },
        {
          "indexed": false,
          "internalType": "address",
          "name": "seller",
          "type": "address"
        }
      ],
      "name": "EBookListed",
      "type": "event"
    },
    {
      "anonymous": false,
      "inputs": [
        {
          "indexed": true,
          "internalType": "uint256",
          "name": "id",
          "type": "uint256"
        },
        {
          "indexed": true,
          "internalType": "address",
          "name": "seller",
          "type": "address"
        },
        {
          "indexed": true,
          "internalType": "uint256",
          "name": "removeAmount",
          "type": "uint256"
        },
        {
          "indexed": false,
          "internalType": "address",
          "name": "canceller",
          "type": "address"
        }
      ],
      "name": "ListingCancelled",
      "type": "event"
    },
    {
      "anonymous": false,
      "inputs": [
        {
          "indexed": false,
          "internalType": "address",
          "name": "account",
          "type": "address"
        }
      ],
      "name": "Paused",
      "type": "event"
    },
    {
      "anonymous": false,
      "inputs": [
        {
          "indexed": true,
          "internalType": "uint256",
          "name": "id",
          "type": "uint256"
        },
        {
          "indexed": true,
          "internalType": "uint256",
          "name": "originalPrice",
          "type": "uint256"
        },
        {
          "indexed": true,
          "internalType": "uint256",
          "name": "currentPrice",
          "type": "uint256"
        },
        {
          "indexed": false,
          "internalType": "address",
          "name": "seller",
          "type": "address"
        },
        {
          "indexed": false,
          "internalType": "address",
          "name": "priceModifier",
          "type": "address"
        }
      ],
      "name": "PriceModified",
      "type": "event"
    },
    {
      "anonymous": false,
      "inputs": [
        {
          "indexed": true,
          "internalType": "bytes32",
          "name": "role",
          "type": "bytes32"
        },
        {
          "indexed": true,
          "internalType": "bytes32",
          "name": "previousAdminRole",
          "type": "bytes32"
        },
        {
          "indexed": true,
          "internalType": "bytes32",
          "name": "newAdminRole",
          "type": "bytes32"
        }
      ],
      "name": "RoleAdminChanged",
      "type": "event"
    },
    {
      "anonymous": false,
      "inputs": [
        {
          "indexed": true,
          "internalType": "bytes32",
          "name": "role",
          "type": "bytes32"
        },
        {
          "indexed": true,
          "internalType": "address",
          "name": "account",
          "type": "address"
        },
        {
          "indexed": true,
          "internalType": "address",
          "name": "sender",
          "type": "address"
        }
      ],
      "name": "RoleGranted",
      "type": "event"
    },
    {
      "anonymous": false,
      "inputs": [
        {
          "indexed": true,
          "internalType": "bytes32",
          "name": "role",
          "type": "bytes32"
        },
        {
          "indexed": true,
          "internalType": "address",
          "name": "account",
          "type": "address"
        },
        {
          "indexed": true,
          "internalType": "address",
          "name": "sender",
          "type": "address"
        }
      ],
      "name": "RoleRevoked",
      "type": "event"
    },
    {
      "anonymous": false,
      "inputs": [
        {
          "indexed": true,
          "internalType": "uint256",
          "name": "id",
          "type": "uint256"
        },
        {
          "indexed": true,
          "internalType": "address",
          "name": "seller",
          "type": "address"
        },
        {
          "indexed": true,
          "internalType": "address",
          "name": "buyer",
          "type": "address"
        }
      ],
      "name": "TransactionMade",
      "type": "event"
    },
    {
      "anonymous": false,
      "inputs": [
        {
          "indexed": true,
          "internalType": "address",
          "name": "operator",
          "type": "address"
        },
        {
          "indexed": true,
          "internalType": "address",
          "name": "from",
          "type": "address"
        },
        {
          "indexed": true,
          "internalType": "address",
          "name": "to",
          "type": "address"
        },
        {
          "indexed": false,
          "internalType": "uint256[]",
          "name": "ids",
          "type": "uint256[]"
        },
        {
          "indexed": false,
          "internalType": "uint256[]",
          "name": "values",
          "type": "uint256[]"
        }
      ],
      "name": "TransferBatch",
      "type": "event"
    },
    {
      "anonymous": false,
      "inputs": [
        {
          "indexed": true,
          "internalType": "address",
          "name": "operator",
          "type": "address"
        },
        {
          "indexed": true,
          "internalType": "address",
          "name": "from",
          "type": "address"
        },
        {
          "indexed": true,
          "internalType": "address",
          "name": "to",
          "type": "address"
        },
        {
          "indexed": false,
          "internalType": "uint256",
          "name": "id",
          "type": "uint256"
        },
        {
          "indexed": false,
          "internalType": "uint256",
          "name": "value",
          "type": "uint256"
        }
      ],
      "name": "TransferSingle",
      "type": "event"
    },
    {
      "anonymous": false,
      "inputs": [
        {
          "indexed": false,
          "internalType": "string",
          "name": "value",
          "type": "string"
        },
        {
          "indexed": true,
          "internalType": "uint256",
          "name": "id",
          "type": "uint256"
        }
      ],
      "name": "URI",
      "type": "event"
    },
    {
      "anonymous": false,
      "inputs": [
        {
          "indexed": false,
          "internalType": "address",
          "name": "account",
          "type": "address"
        }
      ],
      "name": "Unpaused",
      "type": "event"
    },
    {
      "inputs": [],
      "name": "DEFAULT_ADMIN_ROLE",
      "outputs": [
        {
          "internalType": "bytes32",
          "name": "",
          "type": "bytes32"
        }
      ],
      "stateMutability": "view",
      "type": "function"
    },
    {
      "inputs": [
        {
          "internalType": "uint256",
          "name": "id",
          "type": "uint256"
        }
      ],
      "name": "exists",
      "outputs": [
        {
          "internalType": "bool",
          "name": "",
          "type": "bool"
        }
      ],
      "stateMutability": "view",
      "type": "function"
    },
    {
      "inputs": [
        {
          "internalType": "bytes32",
          "name": "role",
          "type": "bytes32"
        },
        {
          "internalType": "address",
          "name": "account",
          "type": "address"
        }
      ],
      "name": "grantRole",
      "outputs": [],
      "stateMutability": "nonpayable",
      "type": "function"
    },
    {
      "inputs": [
        {
          "internalType": "uint256",
          "name": "",
          "type": "uint256"
        }
      ],
      "name": "idToMetadataUrl",
      "outputs": [
        {
          "internalType": "string",
          "name": "",
          "type": "string"
        }
      ],
      "stateMutability": "view",
      "type": "function"
    },
    {
      "inputs": [
        {
          "internalType": "uint256",
          "name": "",
          "type": "uint256"
        }
      ],
      "name": "idToPublisher",
      "outputs": [
        {
          "internalType": "bytes32",
          "name": "",
          "type": "bytes32"
        }
      ],
      "stateMutability": "view",
      "type": "function"
    },
    {
      "inputs": [
        {
          "internalType": "uint256",
          "name": "",
          "type": "uint256"
        },
        {
          "internalType": "address",
          "name": "",
          "type": "address"
        }
      ],
      "name": "listings",
      "outputs": [
        {
          "internalType": "uint256",
          "name": "price",
          "type": "uint256"
        },
        {
          "internalType": "uint256",
          "name": "listedBalance",
          "type": "uint256"
        },
        {
          "internalType": "uint256",
          "name": "buyerCounts",
          "type": "uint256"
        }
      ],
      "stateMutability": "view",
      "type": "function"
    },
    {
      "inputs": [],
      "name": "paused",
      "outputs": [
        {
          "internalType": "bool",
          "name": "",
          "type": "bool"
        }
      ],
      "stateMutability": "view",
      "type": "function"
    },
    {
      "inputs": [
        {
          "internalType": "string",
          "name": "",
          "type": "string"
        }
      ],
      "name": "publisherHasMember",
      "outputs": [
        {
          "internalType": "bool",
          "name": "",
          "type": "bool"
        }
      ],
      "stateMutability": "view",
      "type": "function"
    },
    {
      "inputs": [
        {
          "internalType": "uint256",
          "name": "",
          "type": "uint256"
        }
      ],
      "name": "publisherRevenueFeeRates",
      "outputs": [
        {
          "internalType": "uint256",
          "name": "revenueFeeRate",
          "type": "uint256"
        },
        {
          "internalType": "address",
          "name": "publisher",
          "type": "address"
        }
      ],
      "stateMutability": "view",
      "type": "function"
    },
    {
      "inputs": [
        {
          "internalType": "bytes32",
          "name": "role",
          "type": "bytes32"
        },
        {
          "internalType": "address",
          "name": "account",
          "type": "address"
        }
      ],
      "name": "renounceRole",
      "outputs": [],
      "stateMutability": "nonpayable",
      "type": "function"
    },
    {
      "inputs": [
        {
          "internalType": "bytes32",
          "name": "role",
          "type": "bytes32"
        },
        {
          "internalType": "address",
          "name": "account",
          "type": "address"
        }
      ],
      "name": "revokeRole",
      "outputs": [],
      "stateMutability": "nonpayable",
      "type": "function"
    },
    {
      "inputs": [
        {
          "internalType": "address",
          "name": "from",
          "type": "address"
        },
        {
          "internalType": "address",
          "name": "to",
          "type": "address"
        },
        {
          "internalType": "uint256[]",
          "name": "ids",
          "type": "uint256[]"
        },
        {
          "internalType": "uint256[]",
          "name": "amounts",
          "type": "uint256[]"
        },
        {
          "internalType": "bytes",
          "name": "data",
          "type": "bytes"
        }
      ],
      "name": "safeBatchTransferFrom",
      "outputs": [],
      "stateMutability": "nonpayable",
      "type": "function"
    },
    {
      "inputs": [
        {
          "internalType": "address",
          "name": "from",
          "type": "address"
        },
        {
          "internalType": "address",
          "name": "to",
          "type": "address"
        },
        {
          "internalType": "uint256",
          "name": "id",
          "type": "uint256"
        },
        {
          "internalType": "uint256",
          "name": "amount",
          "type": "uint256"
        },
        {
          "internalType": "bytes",
          "name": "data",
          "type": "bytes"
        }
      ],
      "name": "safeTransferFrom",
      "outputs": [],
      "stateMutability": "nonpayable",
      "type": "function"
    },
    {
      "inputs": [
        {
          "internalType": "uint256",
          "name": "id",
          "type": "uint256"
        }
      ],
      "name": "totalSupply",
      "outputs": [
        {
          "internalType": "uint256",
          "name": "",
          "type": "uint256"
        }
      ],
      "stateMutability": "view",
      "type": "function"
    },
    {
      "inputs": [
        {
          "internalType": "uint256",
          "name": "",
          "type": "uint256"
        }
      ],
      "name": "uri",
      "outputs": [
        {
          "internalType": "string",
          "name": "",
          "type": "string"
        }
      ],
      "stateMutability": "view",
      "type": "function"
    },
    {
      "inputs": [
        {
          "internalType": "address",
          "name": "",
          "type": "address"
        },
        {
          "internalType": "uint256",
          "name": "",
          "type": "uint256"
        }
      ],
      "name": "userToBookKeySecret",
      "outputs": [
        {
          "internalType": "string",
          "name": "",
          "type": "string"
        }
      ],
      "stateMutability": "view",
      "type": "function"
    },
    {
      "inputs": [
        {
          "internalType": "string",
          "name": "newuri",
          "type": "string"
        }
      ],
      "name": "setURI",
      "outputs": [],
      "stateMutability": "nonpayable",
      "type": "function"
    },
    {
      "inputs": [
        {
          "internalType": "uint256",
          "name": "id",
          "type": "uint256"
        }
      ],
      "name": "getURIOfId",
      "outputs": [
        {
          "internalType": "string",
          "name": "",
          "type": "string"
        }
      ],
      "stateMutability": "view",
      "type": "function"
    },
    {
      "inputs": [
        {
          "internalType": "string",
          "name": "publisher",
          "type": "string"
        },
        {
          "internalType": "address",
          "name": "account",
          "type": "address"
        }
      ],
      "name": "grantPublisher",
      "outputs": [],
      "stateMutability": "nonpayable",
      "type": "function"
    },
    {
      "inputs": [
        {
          "internalType": "uint256",
          "name": "id",
          "type": "uint256"
        },
        {
          "internalType": "string",
          "name": "publisher",
          "type": "string"
        }
      ],
      "name": "setIdToPublisher",
      "outputs": [],
      "stateMutability": "nonpayable",
      "type": "function"
    },
    {
      "inputs": [
        {
          "internalType": "uint256",
          "name": "id",
          "type": "uint256"
        }
      ],
      "name": "idExists",
      "outputs": [
        {
          "internalType": "bool",
          "name": "",
          "type": "bool"
        }
      ],
      "stateMutability": "view",
      "type": "function"
    },
    {
      "inputs": [
        {
          "internalType": "string",
          "name": "publisher",
          "type": "string"
        },
        {
          "internalType": "address",
          "name": "account",
          "type": "address"
        }
      ],
      "name": "revokePublisher",
      "outputs": [],
      "stateMutability": "nonpayable",
      "type": "function"
    },
    {
      "inputs": [
        {
          "internalType": "string",
          "name": "role",
          "type": "string"
        },
        {
          "internalType": "address",
          "name": "account",
          "type": "address"
        }
      ],
      "name": "hasRole",
      "outputs": [
        {
          "internalType": "bool",
          "name": "",
          "type": "bool"
        }
      ],
      "stateMutability": "view",
      "type": "function"
    },
    {
      "inputs": [
        {
          "internalType": "bytes32",
          "name": "role",
          "type": "bytes32"
        },
        {
          "internalType": "address",
          "name": "account",
          "type": "address"
        }
      ],
      "name": "hasRole",
      "outputs": [
        {
          "internalType": "bool",
          "name": "",
          "type": "bool"
        }
      ],
      "stateMutability": "view",
      "type": "function"
    },
    {
      "inputs": [
        {
          "internalType": "bytes32",
          "name": "role",
          "type": "bytes32"
        }
      ],
      "name": "getRoleAdmin",
      "outputs": [
        {
          "internalType": "bytes32",
          "name": "",
          "type": "bytes32"
        }
      ],
      "stateMutability": "view",
      "type": "function"
    },
    {
      "inputs": [
        {
          "internalType": "string",
          "name": "role",
          "type": "string"
        }
      ],
      "name": "getRoleAdmin",
      "outputs": [
        {
          "internalType": "bytes32",
          "name": "",
          "type": "bytes32"
        }
      ],
      "stateMutability": "view",
      "type": "function"
    },
    {
      "inputs": [],
      "name": "pause",
      "outputs": [],
      "stateMutability": "nonpayable",
      "type": "function"
    },
    {
      "inputs": [],
      "name": "unpause",
      "outputs": [],
      "stateMutability": "nonpayable",
      "type": "function"
    },
    {
      "inputs": [
        {
          "internalType": "address",
          "name": "to",
          "type": "address"
        },
        {
          "internalType": "uint256",
          "name": "id",
          "type": "uint256"
        },
        {
          "internalType": "uint256",
          "name": "amount",
          "type": "uint256"
        },
        {
          "internalType": "bytes",
          "name": "data",
          "type": "bytes"
        },
        {
          "internalType": "uint256",
          "name": "revenueRate",
          "type": "uint256"
        }
      ],
      "name": "mint",
      "outputs": [],
      "stateMutability": "nonpayable",
      "type": "function"
    },
    {
      "inputs": [
        {
          "internalType": "address",
          "name": "to",
          "type": "address"
        },
        {
          "internalType": "uint256[]",
          "name": "ids",
          "type": "uint256[]"
        },
        {
          "internalType": "uint256[]",
          "name": "amounts",
          "type": "uint256[]"
        },
        {
          "internalType": "bytes",
          "name": "data",
          "type": "bytes"
        },
        {
          "internalType": "uint256[]",
          "name": "revenueFeeRates",
          "type": "uint256[]"
        }
      ],
      "name": "mintBatch",
      "outputs": [],
      "stateMutability": "nonpayable",
      "type": "function"
    },
    {
      "inputs": [
        {
          "internalType": "address",
          "name": "from",
          "type": "address"
        },
        {
          "internalType": "uint256",
          "name": "id",
          "type": "uint256"
        },
        {
          "internalType": "uint256",
          "name": "amount",
          "type": "uint256"
        }
      ],
      "name": "burn",
      "outputs": [],
      "stateMutability": "nonpayable",
      "type": "function"
    },
    {
      "inputs": [
        {
          "internalType": "address",
          "name": "from",
          "type": "address"
        },
        {
          "internalType": "uint256[]",
          "name": "ids",
          "type": "uint256[]"
        },
        {
          "internalType": "uint256[]",
          "name": "amounts",
          "type": "uint256[]"
        }
      ],
      "name": "burnBatch",
      "outputs": [],
      "stateMutability": "nonpayable",
      "type": "function"
    },
    {
      "inputs": [
        {
          "internalType": "address",
          "name": "from",
          "type": "address"
        },
        {
          "internalType": "address",
          "name": "to",
          "type": "address"
        },
        {
          "internalType": "uint256",
          "name": "id",
          "type": "uint256"
        },
        {
          "internalType": "uint256",
          "name": "amount",
          "type": "uint256"
        },
        {
          "internalType": "bytes",
          "name": "data",
          "type": "bytes"
        }
      ],
      "name": "transfer",
      "outputs": [],
      "stateMutability": "nonpayable",
      "type": "function"
    },
    {
      "inputs": [
        {
          "internalType": "address",
          "name": "from",
          "type": "address"
        },
        {
          "internalType": "address",
          "name": "to",
          "type": "address"
        },
        {
          "internalType": "uint256[]",
          "name": "ids",
          "type": "uint256[]"
        },
        {
          "internalType": "uint256[]",
          "name": "amounts",
          "type": "uint256[]"
        },
        {
          "internalType": "bytes",
          "name": "data",
          "type": "bytes"
        }
      ],
      "name": "transferBatch",
      "outputs": [],
      "stateMutability": "nonpayable",
      "type": "function"
    },
    {
      "inputs": [
        {
          "internalType": "address",
          "name": "account",
          "type": "address"
        },
        {
          "internalType": "uint256",
          "name": "id",
          "type": "uint256"
        }
      ],
      "name": "balanceOf",
      "outputs": [
        {
          "internalType": "uint256",
          "name": "",
          "type": "uint256"
        }
      ],
      "stateMutability": "view",
      "type": "function"
    },
    {
      "inputs": [
        {
          "internalType": "address[]",
          "name": "accounts",
          "type": "address[]"
        },
        {
          "internalType": "uint256[]",
          "name": "ids",
          "type": "uint256[]"
        }
      ],
      "name": "balanceOfBatch",
      "outputs": [
        {
          "internalType": "uint256[]",
          "name": "",
          "type": "uint256[]"
        }
      ],
      "stateMutability": "view",
      "type": "function"
    },
    {
      "inputs": [
        {
          "internalType": "address",
          "name": "operator",
          "type": "address"
        },
        {
          "internalType": "bool",
          "name": "approved",
          "type": "bool"
        }
      ],
      "name": "setApprovalForAll",
      "outputs": [],
      "stateMutability": "nonpayable",
      "type": "function"
    },
    {
      "inputs": [
        {
          "internalType": "address",
          "name": "account",
          "type": "address"
        },
        {
          "internalType": "address",
          "name": "operator",
          "type": "address"
        }
      ],
      "name": "isApprovedForAll",
      "outputs": [
        {
          "internalType": "bool",
          "name": "",
          "type": "bool"
        }
      ],
      "stateMutability": "view",
      "type": "function"
    },
    {
      "inputs": [
        {
          "internalType": "uint256",
          "name": "id",
          "type": "uint256"
        }
      ],
      "name": "getIdSupply",
      "outputs": [
        {
          "internalType": "uint256",
          "name": "",
          "type": "uint256"
        }
      ],
      "stateMutability": "view",
      "type": "function"
    },
    {
      "inputs": [
        {
          "internalType": "uint256",
          "name": "id",
          "type": "uint256"
        },
        {
          "internalType": "string",
          "name": "newMetadataUrl",
          "type": "string"
        }
      ],
      "name": "changeMetadataUrl",
      "outputs": [],
      "stateMutability": "nonpayable",
      "type": "function"
    },
    {
      "inputs": [
        {
          "internalType": "address",
          "name": "user",
          "type": "address"
        },
        {
          "internalType": "uint256",
          "name": "id",
          "type": "uint256"
        },
        {
          "internalType": "string",
          "name": "key",
          "type": "string"
        }
      ],
      "name": "changeBookKeySecret",
      "outputs": [],
      "stateMutability": "nonpayable",
      "type": "function"
    },
    {
      "inputs": [
        {
          "internalType": "uint16",
          "name": "newMarketFee",
          "type": "uint16"
        }
      ],
      "name": "changeMarketFee",
      "outputs": [],
      "stateMutability": "nonpayable",
      "type": "function"
    },
    {
      "inputs": [
        {
          "internalType": "uint256",
          "name": "id",
          "type": "uint256"
        },
        {
          "internalType": "address",
          "name": "seller",
          "type": "address"
        },
        {
          "internalType": "address",
          "name": "buyer",
          "type": "address"
        }
      ],
      "name": "checkIsBuyer",
      "outputs": [
        {
          "internalType": "int256",
          "name": "",
          "type": "int256"
        }
      ],
      "stateMutability": "view",
      "type": "function"
    },
    {
      "inputs": [
        {
          "internalType": "address",
          "name": "account",
          "type": "address"
        },
        {
          "internalType": "uint256",
          "name": "id",
          "type": "uint256"
        }
      ],
      "name": "listedBalanceOf",
      "outputs": [
        {
          "internalType": "uint256",
          "name": "",
          "type": "uint256"
        }
      ],
      "stateMutability": "view",
      "type": "function"
    },
    {
      "inputs": [
        {
          "internalType": "uint256",
          "name": "id",
          "type": "uint256"
        },
        {
          "internalType": "address",
          "name": "seller",
          "type": "address"
        }
      ],
      "name": "getPrice",
      "outputs": [
        {
          "internalType": "uint256",
          "name": "",
          "type": "uint256"
        }
      ],
      "stateMutability": "view",
      "type": "function"
    },
    {
      "inputs": [
        {
          "internalType": "uint256",
          "name": "id",
          "type": "uint256"
        },
        {
          "internalType": "address",
          "name": "seller",
          "type": "address"
        },
        {
          "internalType": "uint256",
          "name": "price",
          "type": "uint256"
        },
        {
          "internalType": "uint256",
          "name": "amount",
          "type": "uint256"
        }
      ],
      "name": "listEBook",
      "outputs": [],
      "stateMutability": "nonpayable",
      "type": "function"
    },
    {
      "inputs": [
        {
          "internalType": "uint256",
          "name": "id",
          "type": "uint256"
        },
        {
          "internalType": "address",
          "name": "seller",
          "type": "address"
        },
        {
          "internalType": "uint256",
          "name": "price",
          "type": "uint256"
        }
      ],
      "name": "modifyPrice",
      "outputs": [],
      "stateMutability": "nonpayable",
      "type": "function"
    },
    {
      "inputs": [
        {
          "internalType": "uint256",
          "name": "id",
          "type": "uint256"
        },
        {
          "internalType": "address",
          "name": "seller",
          "type": "address"
        },
        {
          "internalType": "uint256",
          "name": "amount",
          "type": "uint256"
        }
      ],
      "name": "cancelListing",
      "outputs": [],
      "stateMutability": "nonpayable",
      "type": "function"
    },
    {
      "inputs": [
        {
          "internalType": "address",
          "name": "seller",
          "type": "address"
        },
        {
          "internalType": "address",
          "name": "buyer",
          "type": "address"
        },
        {
          "internalType": "uint256",
          "name": "id",
          "type": "uint256"
        }
      ],
      "name": "determineBuyer",
      "outputs": [],
      "stateMutability": "nonpayable",
      "type": "function"
    },
    {
      "inputs": [
        {
          "internalType": "uint256",
          "name": "id",
          "type": "uint256"
        },
        {
          "internalType": "address payable",
          "name": "seller",
          "type": "address"
        }
      ],
      "name": "purchaseEBook",
      "outputs": [],
      "stateMutability": "payable",
      "type": "function"
    },
    {
      "inputs": [
        {
          "internalType": "bytes4",
          "name": "interfaceId",
          "type": "bytes4"
        }
      ],
      "name": "supportsInterface",
      "outputs": [
        {
          "internalType": "bool",
          "name": "",
          "type": "bool"
        }
      ],
      "stateMutability": "view",
      "type": "function"
    }
  ],
  "bytecode": "0x60806040526019600a60006101000a81548161ffff021916908361ffff1602179055503480156200002f57600080fd5b506040518060200160405280600081525062000051816200008860201b60201c565b506000600460006101000a81548160ff021916908315150217905550620000826000801b336200009d60201b60201c565b62000563565b80600290816200009991906200047c565b5050565b620000af82826200018f60201b60201c565b6200018b5760016003600084815260200190815260200160002060000160008373ffffffffffffffffffffffffffffffffffffffff1673ffffffffffffffffffffffffffffffffffffffff16815260200190815260200160002060006101000a81548160ff02191690831515021790555062000130620001fa60201b60201c565b73ffffffffffffffffffffffffffffffffffffffff168173ffffffffffffffffffffffffffffffffffffffff16837f2f8788117e7eff1d82e926ec794901d17c78024a50270940304540a733656f0d60405160405180910390a45b5050565b60006003600084815260200190815260200160002060000160008373ffffffffffffffffffffffffffffffffffffffff1673ffffffffffffffffffffffffffffffffffffffff16815260200190815260200160002060009054906101000a900460ff16905092915050565b600033905090565b600081519050919050565b7f4e487b7100000000000000000000000000000000000000000000000000000000600052604160045260246000fd5b7f4e487b7100000000000000000000000000000000000000000000000000000000600052602260045260246000fd5b600060028204905060018216806200028457607f821691505b6020821081036200029a57620002996200023c565b5b50919050565b60008190508160005260206000209050919050565b60006020601f8301049050919050565b600082821b905092915050565b600060088302620003047fffffffffffffffffffffffffffffffffffffffffffffffffffffffffffffffff82620002c5565b620003108683620002c5565b95508019841693508086168417925050509392505050565b6000819050919050565b6000819050919050565b60006200035d62000357620003518462000328565b62000332565b62000328565b9050919050565b6000819050919050565b62000379836200033c565b62000391620003888262000364565b848454620002d2565b825550505050565b600090565b620003a862000399565b620003b58184846200036e565b505050565b5b81811015620003dd57620003d16000826200039e565b600181019050620003bb565b5050565b601f8211156200042c57620003f681620002a0565b6200040184620002b5565b8101602085101562000411578190505b620004296200042085620002b5565b830182620003ba565b50505b505050565b600082821c905092915050565b6000620004516000198460080262000431565b1980831691505092915050565b60006200046c83836200043e565b9150826002028217905092915050565b620004878262000202565b67ffffffffffffffff811115620004a357620004a26200020d565b5b620004af82546200026b565b620004bc828285620003e1565b600060209050601f831160018114620004f45760008415620004df578287015190505b620004eb85826200045e565b8655506200055b565b601f1984166200050486620002a0565b60005b828110156200052e5784890151825560018201915060208501945060208101905062000507565b868310156200054e57848901516200054a601f8916826200043e565b8355505b6001600288020188555050505b505050505050565b61849080620005736000396000f3fe6080604052600436106102e35760003560e01c80635c975abb11610190578063a22cb465116100dc578063d617fae411610095578063e3579fc51161006f578063e3579fc514610be9578063e985e9c514610c26578063f242432a14610c63578063f5298aca14610c8c576102e3565b8063d617fae414610b46578063dc84996e14610b6f578063e1176dc314610bac576102e3565b8063a22cb46514610a35578063a9171a7214610a5e578063bd85b03914610a87578063be28585314610ac4578063c0ab83e914610ae0578063d547741f14610b1d576102e3565b80636c9cd097116101495780638ad094b5116101235780638ad094b51461096557806391d148541461098e578063927fbfc8146109cb578063a217fddf14610a0a576102e3565b80636c9cd097146108e85780636fcfcb66146109255780638456cb591461094e576102e3565b80635c975abb146107b45780635ebb6365146107df5780635f6f82ea1461081c578063672a41a11461084557806368aae9ab146108825780636b20c454146108bf576102e3565b8063248a9ca31161024f57806336568abe116102085780634f558e79116101e25780634f558e79146106e857806352509e9714610725578063554fa2781461074e5780635a9807be14610777576102e3565b806336568abe1461066b5780633f4ba83a146106945780634e1273f4146106ab576102e3565b8063248a9ca31461054d57806326769cc61461058a5780632a6d9e92146105b35780632b57cfbb146105dc5780632eb2c2d6146106195780632f2ff15d14610642576102e3565b80630c834143116102a15780630c8341431461042e5780630e89341c146104575780630ef5e26714610494578063127217d6146104bd5780631286c46d146104e65780631b5eb57e1461050f576102e3565b8062fdd58e146102e857806301ad63bd1461032557806301ffc9a71461034e57806302fe53051461038b5780630807a3bd146103b45780630b8a295a146103f1575b600080fd5b3480156102f457600080fd5b5061030f600480360381019061030a9190615a58565b610cb5565b60405161031c9190615aa7565b60405180910390f35b34801561033157600080fd5b5061034c60048036038101906103479190615c08565b610cc9565b005b34801561035a57600080fd5b5061037560048036038101906103709190615cbc565b610d37565b6040516103829190615d04565b60405180910390f35b34801561039757600080fd5b506103b260048036038101906103ad9190615d1f565b610d49565b005b3480156103c057600080fd5b506103db60048036038101906103d69190615d68565b610d6b565b6040516103e89190615e14565b60405180910390f35b3480156103fd57600080fd5b5061041860048036038101906104139190615d68565b610da6565b6040516104259190615d04565b60405180910390f35b34801561043a57600080fd5b5061045560048036038101906104509190615e36565b610db8565b005b34801561046357600080fd5b5061047e60048036038101906104799190615d68565b61125c565b60405161048b9190615e14565b60405180910390f35b3480156104a057600080fd5b506104bb60048036038101906104b69190615e89565b6112f0565b005b3480156104c957600080fd5b506104e460048036038101906104df9190615f7d565b6116fc565b005b3480156104f257600080fd5b5061050d60048036038101906105089190616014565b611770565b005b34801561051b57600080fd5b5061053660048036038101906105319190615d68565b6117b2565b60405161054492919061607f565b60405180910390f35b34801561055957600080fd5b50610574600480360381019061056f91906160de565b6117f6565b604051610581919061611a565b60405180910390f35b34801561059657600080fd5b506105b160048036038101906105ac9190616195565b611816565b005b3480156105bf57600080fd5b506105da60048036038101906105d59190616209565b61188a565b005b3480156105e857600080fd5b5061060360048036038101906105fe91906162a0565b611933565b6040516106109190615aa7565b60405180910390f35b34801561062557600080fd5b50610640600480360381019061063b91906163a3565b611991565b005b34801561064e57600080fd5b5061066960048036038101906106649190616472565b611a32565b005b34801561067757600080fd5b50610692600480360381019061068d9190616472565b611a53565b005b3480156106a057600080fd5b506106a9611ad6565b005b3480156106b757600080fd5b506106d260048036038101906106cd9190616575565b611aee565b6040516106df91906166ab565b60405180910390f35b3480156106f457600080fd5b5061070f600480360381019061070a9190615d68565b611b02565b60405161071c9190615d04565b60405180910390f35b34801561073157600080fd5b5061074c60048036038101906107479190616014565b611b16565b005b34801561075a57600080fd5b50610775600480360381019061077091906166cd565b611bca565b005b34801561078357600080fd5b5061079e60048036038101906107999190615d68565b611c00565b6040516107ab9190615aa7565b60405180910390f35b3480156107c057600080fd5b506107c9611c12565b6040516107d69190615d04565b60405180910390f35b3480156107eb57600080fd5b5061080660048036038101906108019190615a58565b611c29565b6040516108139190615aa7565b60405180910390f35b34801561082857600080fd5b50610843600480360381019061083e919061672d565b611c87565b005b34801561085157600080fd5b5061086c60048036038101906108679190615d1f565b611e25565b604051610879919061611a565b60405180910390f35b34801561088e57600080fd5b506108a960048036038101906108a49190615d68565b611e5d565b6040516108b6919061611a565b60405180910390f35b3480156108cb57600080fd5b506108e660048036038101906108e19190616818565b611e75565b005b3480156108f457600080fd5b5061090f600480360381019061090a9190616014565b611f23565b60405161091c9190615d04565b60405180910390f35b34801561093157600080fd5b5061094c600480360381019061094791906163a3565b611f5d565b005b34801561095a57600080fd5b5061096361203d565b005b34801561097157600080fd5b5061098c60048036038101906109879190615e36565b612055565b005b34801561099a57600080fd5b506109b560048036038101906109b09190616472565b612400565b6040516109c29190615d04565b60405180910390f35b3480156109d757600080fd5b506109f260048036038101906109ed91906162a0565b61246b565b604051610a01939291906168a3565b60405180910390f35b348015610a1657600080fd5b50610a1f6124a2565b604051610a2c919061611a565b60405180910390f35b348015610a4157600080fd5b50610a5c6004803603810190610a579190616906565b6124a9565b005b348015610a6a57600080fd5b50610a856004803603810190610a809190616946565b6124bf565b005b348015610a9357600080fd5b50610aae6004803603810190610aa99190615d68565b612895565b604051610abb9190615aa7565b60405180910390f35b610ade6004803603810190610ad991906169eb565b6128b2565b005b348015610aec57600080fd5b50610b076004803603810190610b029190615d68565b61300f565b604051610b149190615e14565b60405180910390f35b348015610b2957600080fd5b50610b446004803603810190610b3f9190616472565b6130af565b005b348015610b5257600080fd5b50610b6d6004803603810190610b689190616a65565b6130d0565b005b348015610b7b57600080fd5b50610b966004803603810190610b919190615d1f565b6130fe565b604051610ba39190615d04565b60405180910390f35b348015610bb857600080fd5b50610bd36004803603810190610bce9190615a58565b613134565b604051610be09190615e14565b60405180910390f35b348015610bf557600080fd5b50610c106004803603810190610c0b9190616a92565b6131e1565b604051610c1d9190616afe565b60405180910390f35b348015610c3257600080fd5b50610c4d6004803603810190610c489190616b19565b6133bb565b604051610c5a9190615d04565b60405180910390f35b348015610c6f57600080fd5b50610c8a6004803603810190610c859190615f7d565b6133cf565b005b348015610c9857600080fd5b50610cb36004803603810190610cae9190616b59565b613470565b005b6000610cc183836134b2565b905092915050565b610cd161357a565b6006600083815260200190815260200160002054610cee816135c4565b600082604051602001610d019190615e14565b60405160208183030381529060405280519060200120905080600660008681526020019081526020016000208190555050505050565b6000610d42826135d8565b9050919050565b610d5161357a565b6000801b610d5e816135c4565b610d6782613652565b5050565b6060610d768261125c565b610d7f83613665565b604051602001610d90929190616c0e565b6040516020818303038152906040529050919050565b6000610db182611b02565b9050919050565b610dc061357a565b82610dca81611b02565b610e09576040517f08c379a0000000000000000000000000000000000000000000000000000000008152600401610e0090616c8d565b60405180910390fd5b8160008111610e4d576040517f08c379a0000000000000000000000000000000000000000000000000000000008152600401610e4490616cf9565b60405180910390fd5b83600073ffffffffffffffffffffffffffffffffffffffff168173ffffffffffffffffffffffffffffffffffffffff1603610ebd576040517f08c379a0000000000000000000000000000000000000000000000000000000008152600401610eb490616d65565b60405180910390fd5b84610ec83382613733565b80610efe57503373ffffffffffffffffffffffffffffffffffffffff168173ffffffffffffffffffffffffffffffffffffffff16145b610f3d576040517f08c379a0000000000000000000000000000000000000000000000000000000008152600401610f3490616dd1565b60405180910390fd5b868660006008600084815260200190815260200160002060008373ffffffffffffffffffffffffffffffffffffffff1673ffffffffffffffffffffffffffffffffffffffff1681526020019081526020016000206001015411610fd5576040517f08c379a0000000000000000000000000000000000000000000000000000000008152600401610fcc90616e3d565b60405180910390fd5b86600860008b815260200190815260200160002060008a73ffffffffffffffffffffffffffffffffffffffff1673ffffffffffffffffffffffffffffffffffffffff16815260200190815260200160002060020154600860008c815260200190815260200160002060008b73ffffffffffffffffffffffffffffffffffffffff1673ffffffffffffffffffffffffffffffffffffffff168152602001908152602001600020600101546110889190616e8c565b10156110c9576040517f08c379a00000000000000000000000000000000000000000000000000000000081526004016110c090616f0c565b60405180910390fd5b86600860008b815260200190815260200160002060008a73ffffffffffffffffffffffffffffffffffffffff1673ffffffffffffffffffffffffffffffffffffffff168152602001908152602001600020600101600082825403925050819055506000600860008b815260200190815260200160002060008a73ffffffffffffffffffffffffffffffffffffffff1673ffffffffffffffffffffffffffffffffffffffff168152602001908152602001600020600101540361120157600860008a815260200190815260200160002060008973ffffffffffffffffffffffffffffffffffffffff1673ffffffffffffffffffffffffffffffffffffffff168152602001908152602001600020600080820160009055600182016000905560028201600090556003820160006111fe9190615972565b50505b868873ffffffffffffffffffffffffffffffffffffffff168a7f69e5af4ae7d64e2ae64974f8f3d1149f91bd39f3b1dc649f7add227a19093a07336040516112499190616f2c565b60405180910390a4505050505050505050565b60606002805461126b90616f76565b80601f016020809104026020016040519081016040528092919081815260200182805461129790616f76565b80156112e45780601f106112b9576101008083540402835291602001916112e4565b820191906000526020600020905b8154815290600101906020018083116112c757829003601f168201915b50505050509050919050565b6112f861357a565b6000801b611305816135c4565b8161130f81611b02565b61134e576040517f08c379a000000000000000000000000000000000000000000000000000000000815260040161134590616c8d565b60405180910390fd5b84600073ffffffffffffffffffffffffffffffffffffffff168173ffffffffffffffffffffffffffffffffffffffff16036113be576040517f08c379a00000000000000000000000000000000000000000000000000000000081526004016113b590616d65565b60405180910390fd5b84600073ffffffffffffffffffffffffffffffffffffffff168173ffffffffffffffffffffffffffffffffffffffff160361142e576040517f08c379a000000000000000000000000000000000000000000000000000000000815260040161142590616d65565b60405180910390fd5b6008600086815260200190815260200160002060008873ffffffffffffffffffffffffffffffffffffffff1673ffffffffffffffffffffffffffffffffffffffff168152602001908152602001600020600201546008600087815260200190815260200160002060008973ffffffffffffffffffffffffffffffffffffffff1673ffffffffffffffffffffffffffffffffffffffff1681526020019081526020016000206001015411611516576040517f08c379a000000000000000000000000000000000000000000000000000000000815260040161150d90616ff3565b60405180910390fd5b6008600086815260200190815260200160002060008873ffffffffffffffffffffffffffffffffffffffff1673ffffffffffffffffffffffffffffffffffffffff168152602001908152602001600020600301869080600181540180825580915050600190039060005260206000200160009091909190916101000a81548173ffffffffffffffffffffffffffffffffffffffff021916908373ffffffffffffffffffffffffffffffffffffffff16021790555060006008600087815260200190815260200160002060008973ffffffffffffffffffffffffffffffffffffffff1673ffffffffffffffffffffffffffffffffffffffff168152602001908152602001600020600201540361162f5761162e876137c7565b5b6008600086815260200190815260200160002060008873ffffffffffffffffffffffffffffffffffffffff1673ffffffffffffffffffffffffffffffffffffffff168152602001908152602001600020600201600081548092919061169390617013565b91905055508573ffffffffffffffffffffffffffffffffffffffff168773ffffffffffffffffffffffffffffffffffffffff16867f293e36bbce608551a8ef03dba20114986371a7df520fde646a2a4a8136c8fc0e60405160405180910390a450505050505050565b816117078685611c29565b6117118786610cb5565b61171b9190616e8c565b101561175c576040517f08c379a0000000000000000000000000000000000000000000000000000000008152600401611753906170a7565b60405180910390fd5b61176985858585856133cf565b5050505050565b61177861357a565b60008260405160200161178b9190615e14565b6040516020818303038152906040528051906020012090506117ad81836130af565b505050565b60096020528060005260406000206000915090508060000154908060010160009054906101000a900473ffffffffffffffffffffffffffffffffffffffff16905082565b600060036000838152602001908152602001600020600101549050919050565b6000801b611823816135c4565b8282600c60008873ffffffffffffffffffffffffffffffffffffffff1673ffffffffffffffffffffffffffffffffffffffff1681526020019081526020016000206000878152602001908152602001600020918261188292919061727e565b505050505050565b61189261357a565b60066000858152602001908152602001600020546118af816135c4565b816009600087815260200190815260200160002060000181905550336009600087815260200190815260200160002060010160006101000a81548173ffffffffffffffffffffffffffffffffffffffff021916908373ffffffffffffffffffffffffffffffffffffffff16021790555061192b868686866137d6565b505050505050565b60006008600084815260200190815260200160002060008373ffffffffffffffffffffffffffffffffffffffff1673ffffffffffffffffffffffffffffffffffffffff16815260200190815260200160002060000154905092915050565b611999613986565b73ffffffffffffffffffffffffffffffffffffffff168573ffffffffffffffffffffffffffffffffffffffff1614806119df57506119de856119d9613986565b6133bb565b5b611a1e576040517f08c379a0000000000000000000000000000000000000000000000000000000008152600401611a15906173c0565b60405180910390fd5b611a2b858585858561398e565b5050505050565b611a3b826117f6565b611a44816135c4565b611a4e8383613caf565b505050565b611a5b613986565b73ffffffffffffffffffffffffffffffffffffffff168173ffffffffffffffffffffffffffffffffffffffff1614611ac8576040517f08c379a0000000000000000000000000000000000000000000000000000000008152600401611abf90617452565b60405180910390fd5b611ad28282613d90565b5050565b6000801b611ae3816135c4565b611aeb613e72565b50565b6060611afa8383613ed5565b905092915050565b600080611b0e83612895565b119050919050565b611b1e61357a565b600082604051602001611b319190615e14565b604051602081830303815290604052805190602001209050611b538183611a32565b600783604051611b639190617472565b908152602001604051809103902060009054906101000a900460ff16611bc5576001600784604051611b959190617472565b908152602001604051809103902060006101000a81548160ff021916908315150217905550611bc48182613fee565b5b505050565b6000801b611bd7816135c4565b8282600b60008781526020019081526020016000209182611bf992919061727e565b5050505050565b6000611c0b82612895565b9050919050565b6000600460009054906101000a900460ff16905090565b60006008600083815260200190815260200160002060008473ffffffffffffffffffffffffffffffffffffffff1673ffffffffffffffffffffffffffffffffffffffff16815260200190815260200160002060010154905092915050565b611c8f61357a565b8360005b8151811015611ce357611cd260066000848481518110611cb657611cb5617489565b5b60200260200101518152602001908152602001600020546135c4565b80611cdc90617013565b9050611c93565b5084518251148015611cf6575083518251145b611d35576040517f08c379a0000000000000000000000000000000000000000000000000000000008152600401611d2c9061752a565b60405180910390fd5b60005b8551811015611e1057828181518110611d5457611d53617489565b5b602002602001015160096000888481518110611d7357611d72617489565b5b60200260200101518152602001908152602001600020600001819055503360096000888481518110611da857611da7617489565b5b6020026020010151815260200190815260200160002060010160006101000a81548173ffffffffffffffffffffffffffffffffffffffff021916908373ffffffffffffffffffffffffffffffffffffffff16021790555080611e0990617013565b9050611d38565b50611e1d8686868661404a565b505050505050565b6000611e5682604051602001611e3b9190615e14565b604051602081830303815290604052805190602001206117f6565b9050919050565b60066020528060005260406000206000915090505481565b611e7d61357a565b60005b8251811015611f1257818181518110611e9c57611e9b617489565b5b6020026020010151611ec885858481518110611ebb57611eba617489565b5b6020026020010151611c29565b611eec86868581518110611edf57611ede617489565b5b6020026020010151610cb5565b611ef69190616e8c565b1015611f0157600080fd5b80611f0b90617013565b9050611e80565b50611f1e838383614276565b505050565b6000611f5583604051602001611f399190615e14565b6040516020818303038152906040528051906020012083612400565b905092915050565b60005b835181101561202857828181518110611f7c57611f7b617489565b5b6020026020010151611fa887868481518110611f9b57611f9a617489565b5b6020026020010151611c29565b611fcc88878581518110611fbf57611fbe617489565b5b6020026020010151610cb5565b611fd69190616e8c565b1015612017576040517f08c379a000000000000000000000000000000000000000000000000000000000815260040161200e906170a7565b60405180910390fd5b8061202190617013565b9050611f60565b506120368585858585611991565b5050505050565b6000801b61204a816135c4565b612052614313565b50565b61205d61357a565b8261206781611b02565b6120a6576040517f08c379a000000000000000000000000000000000000000000000000000000000815260040161209d90616c8d565b60405180910390fd5b81600081116120ea576040517f08c379a00000000000000000000000000000000000000000000000000000000081526004016120e190616cf9565b60405180910390fd5b83600073ffffffffffffffffffffffffffffffffffffffff168173ffffffffffffffffffffffffffffffffffffffff160361215a576040517f08c379a000000000000000000000000000000000000000000000000000000000815260040161215190616d65565b60405180910390fd5b846121653382613733565b8061219b57503373ffffffffffffffffffffffffffffffffffffffff168173ffffffffffffffffffffffffffffffffffffffff16145b6121da576040517f08c379a00000000000000000000000000000000000000000000000000000000081526004016121d190616dd1565b60405180910390fd5b868660006008600084815260200190815260200160002060008373ffffffffffffffffffffffffffffffffffffffff1673ffffffffffffffffffffffffffffffffffffffff1681526020019081526020016000206001015411612272576040517f08c379a000000000000000000000000000000000000000000000000000000000815260040161226990616e3d565b60405180910390fd5b6000600860008b815260200190815260200160002060008a73ffffffffffffffffffffffffffffffffffffffff1673ffffffffffffffffffffffffffffffffffffffff1681526020019081526020016000206002015414612308576040517f08c379a00000000000000000000000000000000000000000000000000000000081526004016122ff90617596565b60405180910390fd5b6000600860008b815260200190815260200160002060008a73ffffffffffffffffffffffffffffffffffffffff1673ffffffffffffffffffffffffffffffffffffffff16815260200190815260200160002060000154905087600860008c815260200190815260200160002060008b73ffffffffffffffffffffffffffffffffffffffff1673ffffffffffffffffffffffffffffffffffffffff1681526020019081526020016000206000018190555087818b7f38c88505b4f8c3d77359548f5b449ecf78fa2046034b1b73e88734d23190f5568c336040516123ec9291906175b6565b60405180910390a450505050505050505050565b60006003600084815260200190815260200160002060000160008373ffffffffffffffffffffffffffffffffffffffff1673ffffffffffffffffffffffffffffffffffffffff16815260200190815260200160002060009054906101000a900460ff16905092915050565b6008602052816000526040600020602052806000526040600020600091509150508060000154908060010154908060020154905083565b6000801b81565b6124b161357a565b6124bb8282614376565b5050565b6124c761357a565b836124d181611b02565b612510576040517f08c379a000000000000000000000000000000000000000000000000000000000815260040161250790616c8d565b60405180910390fd5b8260008111612554576040517f08c379a000000000000000000000000000000000000000000000000000000000815260040161254b90616cf9565b60405180910390fd5b8260008111612598576040517f08c379a000000000000000000000000000000000000000000000000000000000815260040161258f90616cf9565b60405180910390fd5b85600073ffffffffffffffffffffffffffffffffffffffff168173ffffffffffffffffffffffffffffffffffffffff1603612608576040517f08c379a00000000000000000000000000000000000000000000000000000000081526004016125ff90616d65565b60405180910390fd5b866126133382613733565b8061264957503373ffffffffffffffffffffffffffffffffffffffff168173ffffffffffffffffffffffffffffffffffffffff16145b612688576040517f08c379a000000000000000000000000000000000000000000000000000000000815260040161267f90616dd1565b60405180910390fd5b85600860008b815260200190815260200160002060008a73ffffffffffffffffffffffffffffffffffffffff1673ffffffffffffffffffffffffffffffffffffffff168152602001908152602001600020600101546126e78a8c610cb5565b6126f19190616e8c565b1015612732576040517f08c379a00000000000000000000000000000000000000000000000000000000081526004016127299061762b565b60405180910390fd5b6000600860008b815260200190815260200160002060008a73ffffffffffffffffffffffffffffffffffffffff1673ffffffffffffffffffffffffffffffffffffffff16815260200190815260200160002060020154036127e65786600860008b815260200190815260200160002060008a73ffffffffffffffffffffffffffffffffffffffff1673ffffffffffffffffffffffffffffffffffffffff168152602001908152602001600020600001819055505b85600860008b815260200190815260200160002060008a73ffffffffffffffffffffffffffffffffffffffff1673ffffffffffffffffffffffffffffffffffffffff1681526020019081526020016000206001016000828254612849919061764b565b9250508190555086868a7f2fc0ffd013b5d05f874bd9a06a8bb6dbfe037efcb406e32eca22ed05e1ed381d8b6040516128829190616f2c565b60405180910390a4505050505050505050565b600060056000838152602001908152602001600020549050919050565b6128ba61357a565b816128c481611b02565b612903576040517f08c379a00000000000000000000000000000000000000000000000000000000081526004016128fa90616c8d565b60405180910390fd5b81600073ffffffffffffffffffffffffffffffffffffffff168173ffffffffffffffffffffffffffffffffffffffff1603612973576040517f08c379a000000000000000000000000000000000000000000000000000000000815260040161296a90616d65565b60405180910390fd5b838360006008600084815260200190815260200160002060008373ffffffffffffffffffffffffffffffffffffffff1673ffffffffffffffffffffffffffffffffffffffff1681526020019081526020016000206001015411612a0b576040517f08c379a0000000000000000000000000000000000000000000000000000000008152600401612a0290616e3d565b60405180910390fd5b60003390506000612a1d8888846131e1565b90507fffffffffffffffffffffffffffffffffffffffffffffffffffffffffffffffff8103612a81576040517f08c379a0000000000000000000000000000000000000000000000000000000008152600401612a78906176cb565b60405180910390fd5b6000600860008a815260200190815260200160002060008973ffffffffffffffffffffffffffffffffffffffff1673ffffffffffffffffffffffffffffffffffffffff16815260200190815260200160002060000154905060006103e8600960008c81526020019081526020016000206000015483612b0091906176eb565b612b0a919061775c565b905060006103e8600a60009054906101000a900461ffff1661ffff1684612b3191906176eb565b612b3b919061775c565b90506000818385612b4c919061764b565b612b56919061764b565b905080341015612b9b576040517f08c379a0000000000000000000000000000000000000000000000000000000008152600401612b92906177d9565b60405180910390fd5b612bb88b878e60016040518060200160405280600081525061438c565b8a73ffffffffffffffffffffffffffffffffffffffff166108fc859081150290604051600060405180830381858888f19350505050158015612bfe573d6000803e3d6000fd5b506000600960008e815260200190815260200160002060010160009054906101000a900473ffffffffffffffffffffffffffffffffffffffff1690508073ffffffffffffffffffffffffffffffffffffffff166108fc859081150290604051600060405180830381858888f19350505050158015612c80573d6000803e3d6000fd5b5060008234612c8f9190616e8c565b1115612ce8578673ffffffffffffffffffffffffffffffffffffffff166108fc8334612cbb9190616e8c565b9081150290604051600060405180830381858888f19350505050158015612ce6573d6000803e3d6000fd5b505b600860008e815260200190815260200160002060008d73ffffffffffffffffffffffffffffffffffffffff1673ffffffffffffffffffffffffffffffffffffffff1681526020019081526020016000206001016000815480929190612d4c906177f9565b9190505550600860008e815260200190815260200160002060008d73ffffffffffffffffffffffffffffffffffffffff1673ffffffffffffffffffffffffffffffffffffffff1681526020019081526020016000206002016000815480929190612db5906177f9565b91905055506000600860008f815260200190815260200160002060008e73ffffffffffffffffffffffffffffffffffffffff1673ffffffffffffffffffffffffffffffffffffffff1681526020019081526020016000206003018781548110612e2157612e20617489565b5b9060005260206000200160006101000a81548173ffffffffffffffffffffffffffffffffffffffff021916908373ffffffffffffffffffffffffffffffffffffffff1602179055506000600860008f815260200190815260200160002060008e73ffffffffffffffffffffffffffffffffffffffff1673ffffffffffffffffffffffffffffffffffffffff1681526020019081526020016000206002015403612ece57612ecd8c614627565b5b6000600860008f815260200190815260200160002060008e73ffffffffffffffffffffffffffffffffffffffff1673ffffffffffffffffffffffffffffffffffffffff1681526020019081526020016000206001015403612fa557600860008e815260200190815260200160002060008d73ffffffffffffffffffffffffffffffffffffffff1673ffffffffffffffffffffffffffffffffffffffff16815260200190815260200160002060008082016000905560018201600090556002820160009055600382016000612fa29190615972565b50505b8673ffffffffffffffffffffffffffffffffffffffff168c73ffffffffffffffffffffffffffffffffffffffff168e7f920fa75bdd35e02ccdb168c8b4214196d63ffe7eee90c4b073112050f5ba2e3c60405160405180910390a450505050505050505050505050565b600b602052806000526040600020600091509050805461302e90616f76565b80601f016020809104026020016040519081016040528092919081815260200182805461305a90616f76565b80156130a75780601f1061307c576101008083540402835291602001916130a7565b820191906000526020600020905b81548152906001019060200180831161308a57829003601f168201915b505050505081565b6130b8826117f6565b6130c1816135c4565b6130cb8383613d90565b505050565b6000801b6130dd816135c4565b81600a60006101000a81548161ffff021916908361ffff1602179055505050565b6007818051602081018201805184825260208301602085012081835280955050505050506000915054906101000a900460ff1681565b600c60205281600052604060002060205280600052604060002060009150915050805461316090616f76565b80601f016020809104026020016040519081016040528092919081815260200182805461318c90616f76565b80156131d95780601f106131ae576101008083540402835291602001916131d9565b820191906000526020600020905b8154815290600101906020018083116131bc57829003601f168201915b505050505081565b6000806008600086815260200190815260200160002060008573ffffffffffffffffffffffffffffffffffffffff1673ffffffffffffffffffffffffffffffffffffffff16815260200190815260200160002060030180549050905060006008600087815260200190815260200160002060008673ffffffffffffffffffffffffffffffffffffffff1673ffffffffffffffffffffffffffffffffffffffff16815260200190815260200160002060030180548060200260200160405190810160405280929190818152602001828054801561331257602002820191906000526020600020905b8160009054906101000a900473ffffffffffffffffffffffffffffffffffffffff1673ffffffffffffffffffffffffffffffffffffffff16815260200190600101908083116132c8575b5050505050905060005b8281101561338d578473ffffffffffffffffffffffffffffffffffffffff1682828151811061334e5761334d617489565b5b602002602001015173ffffffffffffffffffffffffffffffffffffffff160361337c578093505050506133b4565b8061338690617013565b905061331c565b507fffffffffffffffffffffffffffffffffffffffffffffffffffffffffffffffff925050505b9392505050565b60006133c78383613733565b905092915050565b6133d7613986565b73ffffffffffffffffffffffffffffffffffffffff168573ffffffffffffffffffffffffffffffffffffffff16148061341d575061341c85613417613986565b6133bb565b5b61345c576040517f08c379a0000000000000000000000000000000000000000000000000000000008152600401613453906173c0565b60405180910390fd5b613469858585858561438c565b5050505050565b61347861357a565b806134838484611c29565b61348d8585610cb5565b6134979190616e8c565b10156134a257600080fd5b6134ad838383614636565b505050565b60008073ffffffffffffffffffffffffffffffffffffffff168373ffffffffffffffffffffffffffffffffffffffff1603613522576040517f08c379a000000000000000000000000000000000000000000000000000000000815260040161351990617894565b60405180910390fd5b60008083815260200190815260200160002060008473ffffffffffffffffffffffffffffffffffffffff1673ffffffffffffffffffffffffffffffffffffffff16815260200190815260200160002054905092915050565b613582611c12565b156135c2576040517f08c379a00000000000000000000000000000000000000000000000000000000081526004016135b990617900565b60405180910390fd5b565b6135d5816135d0613986565b6146d3565b50565b60007f7965db0b000000000000000000000000000000000000000000000000000000007bffffffffffffffffffffffffffffffffffffffffffffffffffffffff1916827bffffffffffffffffffffffffffffffffffffffffffffffffffffffff1916148061364b575061364a82614758565b5b9050919050565b80600290816136619190617920565b5050565b6060600060016136748461483a565b01905060008167ffffffffffffffff81111561369357613692615add565b5b6040519080825280601f01601f1916602001820160405280156136c55781602001600182028036833780820191505090505b509050600082602001820190505b600115613728578080600190039150507f3031323334353637383961626364656600000000000000000000000000000000600a86061a8153600a858161371c5761371b61772d565b5b049450600085036136d3575b819350505050919050565b6000600160008473ffffffffffffffffffffffffffffffffffffffff1673ffffffffffffffffffffffffffffffffffffffff16815260200190815260200160002060008373ffffffffffffffffffffffffffffffffffffffff1673ffffffffffffffffffffffffffffffffffffffff16815260200190815260200160002060009054906101000a900460ff16905092915050565b6137d38130600161498d565b50565b600073ffffffffffffffffffffffffffffffffffffffff168473ffffffffffffffffffffffffffffffffffffffff1603613845576040517f08c379a000000000000000000000000000000000000000000000000000000000815260040161383c90617a64565b60405180910390fd5b600061384f613986565b9050600061385c85614af9565b9050600061386985614af9565b905061387a83600089858589614b73565b8460008088815260200190815260200160002060008973ffffffffffffffffffffffffffffffffffffffff1673ffffffffffffffffffffffffffffffffffffffff16815260200190815260200160002060008282546138d9919061764b565b925050819055508673ffffffffffffffffffffffffffffffffffffffff16600073ffffffffffffffffffffffffffffffffffffffff168473ffffffffffffffffffffffffffffffffffffffff167fc3d58168c5ae7397731d063d5bbf3d657854427343f4c083240f7aacaa2d0f628989604051613957929190617a84565b60405180910390a461396e83600089858589614b91565b61397d83600089898989614b99565b50505050505050565b600033905090565b81518351146139d2576040517f08c379a00000000000000000000000000000000000000000000000000000000081526004016139c990617b1f565b60405180910390fd5b600073ffffffffffffffffffffffffffffffffffffffff168473ffffffffffffffffffffffffffffffffffffffff1603613a41576040517f08c379a0000000000000000000000000000000000000000000000000000000008152600401613a3890617bb1565b60405180910390fd5b6000613a4b613986565b9050613a5b818787878787614b73565b60005b8451811015613c0c576000858281518110613a7c57613a7b617489565b5b602002602001015190506000858381518110613a9b57613a9a617489565b5b60200260200101519050600080600084815260200190815260200160002060008b73ffffffffffffffffffffffffffffffffffffffff1673ffffffffffffffffffffffffffffffffffffffff16815260200190815260200160002054905081811015613b3c576040517f08c379a0000000000000000000000000000000000000000000000000000000008152600401613b3390617c43565b60405180910390fd5b81810360008085815260200190815260200160002060008c73ffffffffffffffffffffffffffffffffffffffff1673ffffffffffffffffffffffffffffffffffffffff168152602001908152602001600020819055508160008085815260200190815260200160002060008b73ffffffffffffffffffffffffffffffffffffffff1673ffffffffffffffffffffffffffffffffffffffff1681526020019081526020016000206000828254613bf1919061764b565b9250508190555050505080613c0590617013565b9050613a5e565b508473ffffffffffffffffffffffffffffffffffffffff168673ffffffffffffffffffffffffffffffffffffffff168273ffffffffffffffffffffffffffffffffffffffff167f4a39dc06d4c0dbc64b70af90fd698a233a518aa5d07e595d983b8c0526c8f7fb8787604051613c83929190617c63565b60405180910390a4613c99818787878787614b91565b613ca7818787878787614d70565b505050505050565b613cb98282612400565b613d8c5760016003600084815260200190815260200160002060000160008373ffffffffffffffffffffffffffffffffffffffff1673ffffffffffffffffffffffffffffffffffffffff16815260200190815260200160002060006101000a81548160ff021916908315150217905550613d31613986565b73ffffffffffffffffffffffffffffffffffffffff168173ffffffffffffffffffffffffffffffffffffffff16837f2f8788117e7eff1d82e926ec794901d17c78024a50270940304540a733656f0d60405160405180910390a45b5050565b613d9a8282612400565b15613e6e5760006003600084815260200190815260200160002060000160008373ffffffffffffffffffffffffffffffffffffffff1673ffffffffffffffffffffffffffffffffffffffff16815260200190815260200160002060006101000a81548160ff021916908315150217905550613e13613986565b73ffffffffffffffffffffffffffffffffffffffff168173ffffffffffffffffffffffffffffffffffffffff16837ff6391f5c32d9c69d2a47ea670b442974b53935d1edc7fd64eb21e047a839171b60405160405180910390a45b5050565b613e7a614f47565b6000600460006101000a81548160ff0219169083151502179055507f5db9ee0a495bf2e6ff9c91a7834c1ba4fdd244a5e8aa4e537bd38aeae4b073aa613ebe613986565b604051613ecb9190616f2c565b60405180910390a1565b60608151835114613f1b576040517f08c379a0000000000000000000000000000000000000000000000000000000008152600401613f1290617d0c565b60405180910390fd5b6000835167ffffffffffffffff811115613f3857613f37615add565b5b604051908082528060200260200182016040528015613f665781602001602082028036833780820191505090505b50905060005b8451811015613fe357613fb3858281518110613f8b57613f8a617489565b5b6020026020010151858381518110613fa657613fa5617489565b5b6020026020010151610cb5565b828281518110613fc657613fc5617489565b5b60200260200101818152505080613fdc90617013565b9050613f6c565b508091505092915050565b6000613ff9836117f6565b90508160036000858152602001908152602001600020600101819055508181847fbd79b86ffe0ab8e8776151514217cd7cacd52c909f66475c3af44e129f0b00ff60405160405180910390a4505050565b600073ffffffffffffffffffffffffffffffffffffffff168473ffffffffffffffffffffffffffffffffffffffff16036140b9576040517f08c379a00000000000000000000000000000000000000000000000000000000081526004016140b090617a64565b60405180910390fd5b81518351146140fd576040517f08c379a00000000000000000000000000000000000000000000000000000000081526004016140f490617b1f565b60405180910390fd5b6000614107613986565b905061411881600087878787614b73565b60005b84518110156141d15783818151811061413757614136617489565b5b602002602001015160008087848151811061415557614154617489565b5b6020026020010151815260200190815260200160002060008873ffffffffffffffffffffffffffffffffffffffff1673ffffffffffffffffffffffffffffffffffffffff16815260200190815260200160002060008282546141b7919061764b565b9250508190555080806141c990617013565b91505061411b565b508473ffffffffffffffffffffffffffffffffffffffff16600073ffffffffffffffffffffffffffffffffffffffff168273ffffffffffffffffffffffffffffffffffffffff167f4a39dc06d4c0dbc64b70af90fd698a233a518aa5d07e595d983b8c0526c8f7fb8787604051614249929190617c63565b60405180910390a461426081600087878787614b91565b61426f81600087878787614d70565b5050505050565b61427e613986565b73ffffffffffffffffffffffffffffffffffffffff168373ffffffffffffffffffffffffffffffffffffffff1614806142c457506142c3836142be613986565b6133bb565b5b614303576040517f08c379a00000000000000000000000000000000000000000000000000000000081526004016142fa906173c0565b60405180910390fd5b61430e838383614f90565b505050565b61431b61357a565b6001600460006101000a81548160ff0219169083151502179055507f62e78cea01bee320cd4e420270b5ea74000d11b0c9f74754ebdbfc544b05a25861435f613986565b60405161436c9190616f2c565b60405180910390a1565b614388614381613986565b838361498d565b5050565b600073ffffffffffffffffffffffffffffffffffffffff168473ffffffffffffffffffffffffffffffffffffffff16036143fb576040517f08c379a00000000000000000000000000000000000000000000000000000000081526004016143f290617bb1565b60405180910390fd5b6000614405613986565b9050600061441285614af9565b9050600061441f85614af9565b905061442f838989858589614b73565b600080600088815260200190815260200160002060008a73ffffffffffffffffffffffffffffffffffffffff1673ffffffffffffffffffffffffffffffffffffffff168152602001908152602001600020549050858110156144c6576040517f08c379a00000000000000000000000000000000000000000000000000000000081526004016144bd90617c43565b60405180910390fd5b85810360008089815260200190815260200160002060008b73ffffffffffffffffffffffffffffffffffffffff1673ffffffffffffffffffffffffffffffffffffffff168152602001908152602001600020819055508560008089815260200190815260200160002060008a73ffffffffffffffffffffffffffffffffffffffff1673ffffffffffffffffffffffffffffffffffffffff168152602001908152602001600020600082825461457b919061764b565b925050819055508773ffffffffffffffffffffffffffffffffffffffff168973ffffffffffffffffffffffffffffffffffffffff168573ffffffffffffffffffffffffffffffffffffffff167fc3d58168c5ae7397731d063d5bbf3d657854427343f4c083240f7aacaa2d0f628a8a6040516145f8929190617a84565b60405180910390a461460e848a8a86868a614b91565b61461c848a8a8a8a8a614b99565b505050505050505050565b6146338130600061498d565b50565b61463e613986565b73ffffffffffffffffffffffffffffffffffffffff168373ffffffffffffffffffffffffffffffffffffffff16148061468457506146838361467e613986565b6133bb565b5b6146c3576040517f08c379a00000000000000000000000000000000000000000000000000000000081526004016146ba906173c0565b60405180910390fd5b6146ce83838361525e565b505050565b6146dd8282612400565b614754576146ea816154a4565b6146f88360001c60206154d1565b604051602001614709929190617dc4565b6040516020818303038152906040526040517f08c379a000000000000000000000000000000000000000000000000000000000815260040161474b9190615e14565b60405180910390fd5b5050565b60007fd9b67a26000000000000000000000000000000000000000000000000000000007bffffffffffffffffffffffffffffffffffffffffffffffffffffffff1916827bffffffffffffffffffffffffffffffffffffffffffffffffffffffff1916148061482357507f0e89341c000000000000000000000000000000000000000000000000000000007bffffffffffffffffffffffffffffffffffffffffffffffffffffffff1916827bffffffffffffffffffffffffffffffffffffffffffffffffffffffff1916145b8061483357506148328261570d565b5b9050919050565b600080600090507a184f03e93ff9f4daa797ed6e38ed64bf6a1f0100000000000000008310614898577a184f03e93ff9f4daa797ed6e38ed64bf6a1f010000000000000000838161488e5761488d61772d565b5b0492506040810190505b6d04ee2d6d415b85acef810000000083106148d5576d04ee2d6d415b85acef810000000083816148cb576148ca61772d565b5b0492506020810190505b662386f26fc10000831061490457662386f26fc1000083816148fa576148f961772d565b5b0492506010810190505b6305f5e100831061492d576305f5e10083816149235761492261772d565b5b0492506008810190505b61271083106149525761271083816149485761494761772d565b5b0492506004810190505b60648310614975576064838161496b5761496a61772d565b5b0492506002810190505b600a8310614984576001810190505b80915050919050565b8173ffffffffffffffffffffffffffffffffffffffff168373ffffffffffffffffffffffffffffffffffffffff16036149fb576040517f08c379a00000000000000000000000000000000000000000000000000000000081526004016149f290617e70565b60405180910390fd5b80600160008573ffffffffffffffffffffffffffffffffffffffff1673ffffffffffffffffffffffffffffffffffffffff16815260200190815260200160002060008473ffffffffffffffffffffffffffffffffffffffff1673ffffffffffffffffffffffffffffffffffffffff16815260200190815260200160002060006101000a81548160ff0219169083151502179055508173ffffffffffffffffffffffffffffffffffffffff168373ffffffffffffffffffffffffffffffffffffffff167f17307eab39ab6107e8899845ad3d59bd9653f200f220920489ca2b5937696c3183604051614aec9190615d04565b60405180910390a3505050565b60606000600167ffffffffffffffff811115614b1857614b17615add565b5b604051908082528060200260200182016040528015614b465781602001602082028036833780820191505090505b5090508281600081518110614b5e57614b5d617489565b5b60200260200101818152505080915050919050565b614b7b61357a565b614b89868686868686615777565b505050505050565b505050505050565b614bb88473ffffffffffffffffffffffffffffffffffffffff16615947565b15614d68578373ffffffffffffffffffffffffffffffffffffffff1663f23a6e6187878686866040518663ffffffff1660e01b8152600401614bfe959493929190617ee5565b6020604051808303816000875af1925050508015614c3a57506040513d601f19601f82011682018060405250810190614c379190617f54565b60015b614cdf57614c46617f8e565b806308c379a003614ca25750614c5a617fb0565b80614c655750614ca4565b806040517f08c379a0000000000000000000000000000000000000000000000000000000008152600401614c999190615e14565b60405180910390fd5b505b6040517f08c379a0000000000000000000000000000000000000000000000000000000008152600401614cd6906180b2565b60405180910390fd5b63f23a6e6160e01b7bffffffffffffffffffffffffffffffffffffffffffffffffffffffff1916817bffffffffffffffffffffffffffffffffffffffffffffffffffffffff191614614d66576040517f08c379a0000000000000000000000000000000000000000000000000000000008152600401614d5d90618144565b60405180910390fd5b505b505050505050565b614d8f8473ffffffffffffffffffffffffffffffffffffffff16615947565b15614f3f578373ffffffffffffffffffffffffffffffffffffffff1663bc197c8187878686866040518663ffffffff1660e01b8152600401614dd5959493929190618164565b6020604051808303816000875af1925050508015614e1157506040513d601f19601f82011682018060405250810190614e0e9190617f54565b60015b614eb657614e1d617f8e565b806308c379a003614e795750614e31617fb0565b80614e3c5750614e7b565b806040517f08c379a0000000000000000000000000000000000000000000000000000000008152600401614e709190615e14565b60405180910390fd5b505b6040517f08c379a0000000000000000000000000000000000000000000000000000000008152600401614ead906180b2565b60405180910390fd5b63bc197c8160e01b7bffffffffffffffffffffffffffffffffffffffffffffffffffffffff1916817bffffffffffffffffffffffffffffffffffffffffffffffffffffffff191614614f3d576040517f08c379a0000000000000000000000000000000000000000000000000000000008152600401614f3490618144565b60405180910390fd5b505b505050505050565b614f4f611c12565b614f8e576040517f08c379a0000000000000000000000000000000000000000000000000000000008152600401614f8590618218565b60405180910390fd5b565b600073ffffffffffffffffffffffffffffffffffffffff168373ffffffffffffffffffffffffffffffffffffffff1603614fff576040517f08c379a0000000000000000000000000000000000000000000000000000000008152600401614ff6906182aa565b60405180910390fd5b8051825114615043576040517f08c379a000000000000000000000000000000000000000000000000000000000815260040161503a90617b1f565b60405180910390fd5b600061504d613986565b905061506d81856000868660405180602001604052806000815250614b73565b60005b83518110156151ba57600084828151811061508e5761508d617489565b5b6020026020010151905060008483815181106150ad576150ac617489565b5b60200260200101519050600080600084815260200190815260200160002060008973ffffffffffffffffffffffffffffffffffffffff1673ffffffffffffffffffffffffffffffffffffffff1681526020019081526020016000205490508181101561514e576040517f08c379a00000000000000000000000000000000000000000000000000000000081526004016151459061833c565b60405180910390fd5b81810360008085815260200190815260200160002060008a73ffffffffffffffffffffffffffffffffffffffff1673ffffffffffffffffffffffffffffffffffffffff1681526020019081526020016000208190555050505080806151b290617013565b915050615070565b50600073ffffffffffffffffffffffffffffffffffffffff168473ffffffffffffffffffffffffffffffffffffffff168273ffffffffffffffffffffffffffffffffffffffff167f4a39dc06d4c0dbc64b70af90fd698a233a518aa5d07e595d983b8c0526c8f7fb8686604051615232929190617c63565b60405180910390a461525881856000868660405180602001604052806000815250614b91565b50505050565b600073ffffffffffffffffffffffffffffffffffffffff168373ffffffffffffffffffffffffffffffffffffffff16036152cd576040517f08c379a00000000000000000000000000000000000000000000000000000000081526004016152c4906182aa565b60405180910390fd5b60006152d7613986565b905060006152e484614af9565b905060006152f184614af9565b905061531183876000858560405180602001604052806000815250614b73565b600080600087815260200190815260200160002060008873ffffffffffffffffffffffffffffffffffffffff1673ffffffffffffffffffffffffffffffffffffffff168152602001908152602001600020549050848110156153a8576040517f08c379a000000000000000000000000000000000000000000000000000000000815260040161539f9061833c565b60405180910390fd5b84810360008088815260200190815260200160002060008973ffffffffffffffffffffffffffffffffffffffff1673ffffffffffffffffffffffffffffffffffffffff16815260200190815260200160002081905550600073ffffffffffffffffffffffffffffffffffffffff168773ffffffffffffffffffffffffffffffffffffffff168573ffffffffffffffffffffffffffffffffffffffff167fc3d58168c5ae7397731d063d5bbf3d657854427343f4c083240f7aacaa2d0f628989604051615475929190617a84565b60405180910390a461549b84886000868660405180602001604052806000815250614b91565b50505050505050565b60606154ca8273ffffffffffffffffffffffffffffffffffffffff16601460ff166154d1565b9050919050565b6060600060028360026154e491906176eb565b6154ee919061764b565b67ffffffffffffffff81111561550757615506615add565b5b6040519080825280601f01601f1916602001820160405280156155395781602001600182028036833780820191505090505b5090507f30000000000000000000000000000000000000000000000000000000000000008160008151811061557157615570617489565b5b60200101907effffffffffffffffffffffffffffffffffffffffffffffffffffffffffffff1916908160001a9053507f7800000000000000000000000000000000000000000000000000000000000000816001815181106155d5576155d4617489565b5b60200101907effffffffffffffffffffffffffffffffffffffffffffffffffffffffffffff1916908160001a9053506000600184600261561591906176eb565b61561f919061764b565b90505b60018111156156bf577f3031323334353637383961626364656600000000000000000000000000000000600f86166010811061566157615660617489565b5b1a60f81b82828151811061567857615677617489565b5b60200101907effffffffffffffffffffffffffffffffffffffffffffffffffffffffffffff1916908160001a905350600485901c9450806156b8906177f9565b9050615622565b5060008414615703576040517f08c379a00000000000000000000000000000000000000000000000000000000081526004016156fa906183a8565b60405180910390fd5b8091505092915050565b60007f01ffc9a7000000000000000000000000000000000000000000000000000000007bffffffffffffffffffffffffffffffffffffffffffffffffffffffff1916827bffffffffffffffffffffffffffffffffffffffffffffffffffffffff1916149050919050565b61578586868686868661596a565b600073ffffffffffffffffffffffffffffffffffffffff168573ffffffffffffffffffffffffffffffffffffffff16036158365760005b8351811015615834578281815181106157d8576157d7617489565b5b6020026020010151600560008684815181106157f7576157f6617489565b5b60200260200101518152602001908152602001600020600082825461581c919061764b565b925050819055508061582d90617013565b90506157bc565b505b600073ffffffffffffffffffffffffffffffffffffffff168473ffffffffffffffffffffffffffffffffffffffff160361593f5760005b835181101561593d57600084828151811061588b5761588a617489565b5b6020026020010151905060008483815181106158aa576158a9617489565b5b602002602001015190506000600560008481526020019081526020016000205490508181101561590f576040517f08c379a00000000000000000000000000000000000000000000000000000000081526004016159069061843a565b60405180910390fd5b81810360056000858152602001908152602001600020819055505050508061593690617013565b905061586d565b505b505050505050565b6000808273ffffffffffffffffffffffffffffffffffffffff163b119050919050565b505050505050565b50805460008255906000526020600020908101906159909190615993565b50565b5b808211156159ac576000816000905550600101615994565b5090565b6000604051905090565b600080fd5b600080fd5b600073ffffffffffffffffffffffffffffffffffffffff82169050919050565b60006159ef826159c4565b9050919050565b6159ff816159e4565b8114615a0a57600080fd5b50565b600081359050615a1c816159f6565b92915050565b6000819050919050565b615a3581615a22565b8114615a4057600080fd5b50565b600081359050615a5281615a2c565b92915050565b60008060408385031215615a6f57615a6e6159ba565b5b6000615a7d85828601615a0d565b9250506020615a8e85828601615a43565b9150509250929050565b615aa181615a22565b82525050565b6000602082019050615abc6000830184615a98565b92915050565b600080fd5b600080fd5b6000601f19601f8301169050919050565b7f4e487b7100000000000000000000000000000000000000000000000000000000600052604160045260246000fd5b615b1582615acc565b810181811067ffffffffffffffff82111715615b3457615b33615add565b5b80604052505050565b6000615b476159b0565b9050615b538282615b0c565b919050565b600067ffffffffffffffff821115615b7357615b72615add565b5b615b7c82615acc565b9050602081019050919050565b82818337600083830152505050565b6000615bab615ba684615b58565b615b3d565b905082815260208101848484011115615bc757615bc6615ac7565b5b615bd2848285615b89565b509392505050565b600082601f830112615bef57615bee615ac2565b5b8135615bff848260208601615b98565b91505092915050565b60008060408385031215615c1f57615c1e6159ba565b5b6000615c2d85828601615a43565b925050602083013567ffffffffffffffff811115615c4e57615c4d6159bf565b5b615c5a85828601615bda565b9150509250929050565b60007fffffffff0000000000000000000000000000000000000000000000000000000082169050919050565b615c9981615c64565b8114615ca457600080fd5b50565b600081359050615cb681615c90565b92915050565b600060208284031215615cd257615cd16159ba565b5b6000615ce084828501615ca7565b91505092915050565b60008115159050919050565b615cfe81615ce9565b82525050565b6000602082019050615d196000830184615cf5565b92915050565b600060208284031215615d3557615d346159ba565b5b600082013567ffffffffffffffff811115615d5357615d526159bf565b5b615d5f84828501615bda565b91505092915050565b600060208284031215615d7e57615d7d6159ba565b5b6000615d8c84828501615a43565b91505092915050565b600081519050919050565b600082825260208201905092915050565b60005b83811015615dcf578082015181840152602081019050615db4565b60008484015250505050565b6000615de682615d95565b615df08185615da0565b9350615e00818560208601615db1565b615e0981615acc565b840191505092915050565b60006020820190508181036000830152615e2e8184615ddb565b905092915050565b600080600060608486031215615e4f57615e4e6159ba565b5b6000615e5d86828701615a43565b9350506020615e6e86828701615a0d565b9250506040615e7f86828701615a43565b9150509250925092565b600080600060608486031215615ea257615ea16159ba565b5b6000615eb086828701615a0d565b9350506020615ec186828701615a0d565b9250506040615ed286828701615a43565b9150509250925092565b600067ffffffffffffffff821115615ef757615ef6615add565b5b615f0082615acc565b9050602081019050919050565b6000615f20615f1b84615edc565b615b3d565b905082815260208101848484011115615f3c57615f3b615ac7565b5b615f47848285615b89565b509392505050565b600082601f830112615f6457615f63615ac2565b5b8135615f74848260208601615f0d565b91505092915050565b600080600080600060a08688031215615f9957615f986159ba565b5b6000615fa788828901615a0d565b9550506020615fb888828901615a0d565b9450506040615fc988828901615a43565b9350506060615fda88828901615a43565b925050608086013567ffffffffffffffff811115615ffb57615ffa6159bf565b5b61600788828901615f4f565b9150509295509295909350565b6000806040838503121561602b5761602a6159ba565b5b600083013567ffffffffffffffff811115616049576160486159bf565b5b61605585828601615bda565b925050602061606685828601615a0d565b9150509250929050565b616079816159e4565b82525050565b60006040820190506160946000830185615a98565b6160a16020830184616070565b9392505050565b6000819050919050565b6160bb816160a8565b81146160c657600080fd5b50565b6000813590506160d8816160b2565b92915050565b6000602082840312156160f4576160f36159ba565b5b6000616102848285016160c9565b91505092915050565b616114816160a8565b82525050565b600060208201905061612f600083018461610b565b92915050565b600080fd5b600080fd5b60008083601f84011261615557616154615ac2565b5b8235905067ffffffffffffffff81111561617257616171616135565b5b60208301915083600182028301111561618e5761618d61613a565b5b9250929050565b600080600080606085870312156161af576161ae6159ba565b5b60006161bd87828801615a0d565b94505060206161ce87828801615a43565b935050604085013567ffffffffffffffff8111156161ef576161ee6159bf565b5b6161fb8782880161613f565b925092505092959194509250565b600080600080600060a08688031215616225576162246159ba565b5b600061623388828901615a0d565b955050602061624488828901615a43565b945050604061625588828901615a43565b935050606086013567ffffffffffffffff811115616276576162756159bf565b5b61628288828901615f4f565b925050608061629388828901615a43565b9150509295509295909350565b600080604083850312156162b7576162b66159ba565b5b60006162c585828601615a43565b92505060206162d685828601615a0d565b9150509250929050565b600067ffffffffffffffff8211156162fb576162fa615add565b5b602082029050602081019050919050565b600061631f61631a846162e0565b615b3d565b905080838252602082019050602084028301858111156163425761634161613a565b5b835b8181101561636b57806163578882615a43565b845260208401935050602081019050616344565b5050509392505050565b600082601f83011261638a57616389615ac2565b5b813561639a84826020860161630c565b91505092915050565b600080600080600060a086880312156163bf576163be6159ba565b5b60006163cd88828901615a0d565b95505060206163de88828901615a0d565b945050604086013567ffffffffffffffff8111156163ff576163fe6159bf565b5b61640b88828901616375565b935050606086013567ffffffffffffffff81111561642c5761642b6159bf565b5b61643888828901616375565b925050608086013567ffffffffffffffff811115616459576164586159bf565b5b61646588828901615f4f565b9150509295509295909350565b60008060408385031215616489576164886159ba565b5b6000616497858286016160c9565b92505060206164a885828601615a0d565b9150509250929050565b600067ffffffffffffffff8211156164cd576164cc615add565b5b602082029050602081019050919050565b60006164f16164ec846164b2565b615b3d565b905080838252602082019050602084028301858111156165145761651361613a565b5b835b8181101561653d57806165298882615a0d565b845260208401935050602081019050616516565b5050509392505050565b600082601f83011261655c5761655b615ac2565b5b813561656c8482602086016164de565b91505092915050565b6000806040838503121561658c5761658b6159ba565b5b600083013567ffffffffffffffff8111156165aa576165a96159bf565b5b6165b685828601616547565b925050602083013567ffffffffffffffff8111156165d7576165d66159bf565b5b6165e385828601616375565b9150509250929050565b600081519050919050565b600082825260208201905092915050565b6000819050602082019050919050565b61662281615a22565b82525050565b60006166348383616619565b60208301905092915050565b6000602082019050919050565b6000616658826165ed565b61666281856165f8565b935061666d83616609565b8060005b8381101561669e5781516166858882616628565b975061669083616640565b925050600181019050616671565b5085935050505092915050565b600060208201905081810360008301526166c5818461664d565b905092915050565b6000806000604084860312156166e6576166e56159ba565b5b60006166f486828701615a43565b935050602084013567ffffffffffffffff811115616715576167146159bf565b5b6167218682870161613f565b92509250509250925092565b600080600080600060a08688031215616749576167486159ba565b5b600061675788828901615a0d565b955050602086013567ffffffffffffffff811115616778576167776159bf565b5b61678488828901616375565b945050604086013567ffffffffffffffff8111156167a5576167a46159bf565b5b6167b188828901616375565b935050606086013567ffffffffffffffff8111156167d2576167d16159bf565b5b6167de88828901615f4f565b925050608086013567ffffffffffffffff8111156167ff576167fe6159bf565b5b61680b88828901616375565b9150509295509295909350565b600080600060608486031215616831576168306159ba565b5b600061683f86828701615a0d565b935050602084013567ffffffffffffffff8111156168605761685f6159bf565b5b61686c86828701616375565b925050604084013567ffffffffffffffff81111561688d5761688c6159bf565b5b61689986828701616375565b9150509250925092565b60006060820190506168b86000830186615a98565b6168c56020830185615a98565b6168d26040830184615a98565b949350505050565b6168e381615ce9565b81146168ee57600080fd5b50565b600081359050616900816168da565b92915050565b6000806040838503121561691d5761691c6159ba565b5b600061692b85828601615a0d565b925050602061693c858286016168f1565b9150509250929050565b600080600080608085870312156169605761695f6159ba565b5b600061696e87828801615a43565b945050602061697f87828801615a0d565b935050604061699087828801615a43565b92505060606169a187828801615a43565b91505092959194509250565b60006169b8826159c4565b9050919050565b6169c8816169ad565b81146169d357600080fd5b50565b6000813590506169e5816169bf565b92915050565b60008060408385031215616a0257616a016159ba565b5b6000616a1085828601615a43565b9250506020616a21858286016169d6565b9150509250929050565b600061ffff82169050919050565b616a4281616a2b565b8114616a4d57600080fd5b50565b600081359050616a5f81616a39565b92915050565b600060208284031215616a7b57616a7a6159ba565b5b6000616a8984828501616a50565b91505092915050565b600080600060608486031215616aab57616aaa6159ba565b5b6000616ab986828701615a43565b9350506020616aca86828701615a0d565b9250506040616adb86828701615a0d565b9150509250925092565b6000819050919050565b616af881616ae5565b82525050565b6000602082019050616b136000830184616aef565b92915050565b60008060408385031215616b3057616b2f6159ba565b5b6000616b3e85828601615a0d565b9250506020616b4f85828601615a0d565b9150509250929050565b600080600060608486031215616b7257616b716159ba565b5b6000616b8086828701615a0d565b9350506020616b9186828701615a43565b9250506040616ba286828701615a43565b9150509250925092565b600081905092915050565b6000616bc282615d95565b616bcc8185616bac565b9350616bdc818560208601615db1565b80840191505092915050565b7f2f00000000000000000000000000000000000000000000000000000000000000815250565b6000616c1a8285616bb7565b9150616c2582616be8565b600182019150616c358284616bb7565b91508190509392505050565b7f496e76616c696420494400000000000000000000000000000000000000000000600082015250565b6000616c77600a83615da0565b9150616c8282616c41565b602082019050919050565b60006020820190508181036000830152616ca681616c6a565b9050919050565b7f496e76616c69642070726963652f616d6f756e74000000000000000000000000600082015250565b6000616ce3601483615da0565b9150616cee82616cad565b602082019050919050565b60006020820190508181036000830152616d1281616cd6565b9050919050565b7f496e76616c696420616464726573730000000000000000000000000000000000600082015250565b6000616d4f600f83615da0565b9150616d5a82616d19565b602082019050919050565b60006020820190508181036000830152616d7e81616d42565b9050919050565b7f556e617574686f72697a6564206163636f756e74000000000000000000000000600082015250565b6000616dbb601483615da0565b9150616dc682616d85565b602082019050919050565b60006020820190508181036000830152616dea81616dae565b9050919050565b7f452d426f6f6b206973206e6f74206c6973746564206f7220736f6c64206f7574600082015250565b6000616e27602083615da0565b9150616e3282616df1565b602082019050919050565b60006020820190508181036000830152616e5681616e1a565b9050919050565b7f4e487b7100000000000000000000000000000000000000000000000000000000600052601160045260246000fd5b6000616e9782615a22565b9150616ea283615a22565b9250828203905081811115616eba57616eb9616e5d565b5b92915050565b7f457863656564656420616d6f756e7420746f20756e6c69737400000000000000600082015250565b6000616ef6601983615da0565b9150616f0182616ec0565b602082019050919050565b60006020820190508181036000830152616f2581616ee9565b9050919050565b6000602082019050616f416000830184616070565b92915050565b7f4e487b7100000000000000000000000000000000000000000000000000000000600052602260045260246000fd5b60006002820490506001821680616f8e57607f821691505b602082108103616fa157616fa0616f47565b5b50919050565b7f4f7264657220616c6c2066756c66696c6c656400000000000000000000000000600082015250565b6000616fdd601383615da0565b9150616fe882616fa7565b602082019050919050565b6000602082019050818103600083015261700c81616fd0565b9050919050565b600061701e82615a22565b91507fffffffffffffffffffffffffffffffffffffffffffffffffffffffffffffffff82036170505761704f616e5d565b5b600182019050919050565b7f496e73756666696369656e742062616c616e636520746f207472616e73666572600082015250565b6000617091602083615da0565b915061709c8261705b565b602082019050919050565b600060208201905081810360008301526170c081617084565b9050919050565b600082905092915050565b60008190508160005260206000209050919050565b60006020601f8301049050919050565b600082821b905092915050565b6000600883026171347fffffffffffffffffffffffffffffffffffffffffffffffffffffffffffffffff826170f7565b61713e86836170f7565b95508019841693508086168417925050509392505050565b6000819050919050565b600061717b61717661717184615a22565b617156565b615a22565b9050919050565b6000819050919050565b61719583617160565b6171a96171a182617182565b848454617104565b825550505050565b600090565b6171be6171b1565b6171c981848461718c565b505050565b5b818110156171ed576171e26000826171b6565b6001810190506171cf565b5050565b601f82111561723257617203816170d2565b61720c846170e7565b8101602085101561721b578190505b61722f617227856170e7565b8301826171ce565b50505b505050565b600082821c905092915050565b600061725560001984600802617237565b1980831691505092915050565b600061726e8383617244565b9150826002028217905092915050565b61728883836170c7565b67ffffffffffffffff8111156172a1576172a0615add565b5b6172ab8254616f76565b6172b68282856171f1565b6000601f8311600181146172e557600084156172d3578287013590505b6172dd8582617262565b865550617345565b601f1984166172f3866170d2565b60005b8281101561731b578489013582556001820191506020850194506020810190506172f6565b868310156173385784890135617334601f891682617244565b8355505b6001600288020188555050505b50505050505050565b7f455243313135353a2063616c6c6572206973206e6f7420746f6b656e206f776e60008201527f6572206f7220617070726f766564000000000000000000000000000000000000602082015250565b60006173aa602e83615da0565b91506173b58261734e565b604082019050919050565b600060208201905081810360008301526173d98161739d565b9050919050565b7f416363657373436f6e74726f6c3a2063616e206f6e6c792072656e6f756e636560008201527f20726f6c657320666f722073656c660000000000000000000000000000000000602082015250565b600061743c602f83615da0565b9150617447826173e0565b604082019050919050565b6000602082019050818103600083015261746b8161742f565b9050919050565b600061747e8284616bb7565b915081905092915050565b7f4e487b7100000000000000000000000000000000000000000000000000000000600052603260045260246000fd5b7f455243313135353a20726576656e75657320616e64206964732f616d6f756e7460008201527f73206c656e677468206d69736d61746368000000000000000000000000000000602082015250565b6000617514603183615da0565b915061751f826174b8565b604082019050919050565b6000602082019050818103600083015261754381617507565b9050919050565b7f4275796572206861732064657465726d696e6564000000000000000000000000600082015250565b6000617580601483615da0565b915061758b8261754a565b602082019050919050565b600060208201905081810360008301526175af81617573565b9050919050565b60006040820190506175cb6000830185616070565b6175d86020830184616070565b9392505050565b7f496e73656666696369656e742062616c616e636520746f206c69737400000000600082015250565b6000617615601c83615da0565b9150617620826175df565b602082019050919050565b6000602082019050818103600083015261764481617608565b9050919050565b600061765682615a22565b915061766183615a22565b925082820190508082111561767957617678616e5d565b5b92915050565b7f6e6f742062757965720000000000000000000000000000000000000000000000600082015250565b60006176b5600983615da0565b91506176c08261767f565b602082019050919050565b600060208201905081810360008301526176e4816176a8565b9050919050565b60006176f682615a22565b915061770183615a22565b925082820261770f81615a22565b9150828204841483151761772657617725616e5d565b5b5092915050565b7f4e487b7100000000000000000000000000000000000000000000000000000000600052601260045260246000fd5b600061776782615a22565b915061777283615a22565b9250826177825761778161772d565b5b828204905092915050565b7f496e73756666696369656e742045746865720000000000000000000000000000600082015250565b60006177c3601283615da0565b91506177ce8261778d565b602082019050919050565b600060208201905081810360008301526177f2816177b6565b9050919050565b600061780482615a22565b91506000820361781757617816616e5d565b5b600182039050919050565b7f455243313135353a2061646472657373207a65726f206973206e6f742061207660008201527f616c6964206f776e657200000000000000000000000000000000000000000000602082015250565b600061787e602a83615da0565b915061788982617822565b604082019050919050565b600060208201905081810360008301526178ad81617871565b9050919050565b7f5061757361626c653a2070617573656400000000000000000000000000000000600082015250565b60006178ea601083615da0565b91506178f5826178b4565b602082019050919050565b60006020820190508181036000830152617919816178dd565b9050919050565b61792982615d95565b67ffffffffffffffff81111561794257617941615add565b5b61794c8254616f76565b6179578282856171f1565b600060209050601f83116001811461798a5760008415617978578287015190505b6179828582617262565b8655506179ea565b601f198416617998866170d2565b60005b828110156179c05784890151825560018201915060208501945060208101905061799b565b868310156179dd57848901516179d9601f891682617244565b8355505b6001600288020188555050505b505050505050565b7f455243313135353a206d696e7420746f20746865207a65726f2061646472657360008201527f7300000000000000000000000000000000000000000000000000000000000000602082015250565b6000617a4e602183615da0565b9150617a59826179f2565b604082019050919050565b60006020820190508181036000830152617a7d81617a41565b9050919050565b6000604082019050617a996000830185615a98565b617aa66020830184615a98565b9392505050565b7f455243313135353a2069647320616e6420616d6f756e7473206c656e6774682060008201527f6d69736d61746368000000000000000000000000000000000000000000000000602082015250565b6000617b09602883615da0565b9150617b1482617aad565b604082019050919050565b60006020820190508181036000830152617b3881617afc565b9050919050565b7f455243313135353a207472616e7366657220746f20746865207a65726f20616460008201527f6472657373000000000000000000000000000000000000000000000000000000602082015250565b6000617b9b602583615da0565b9150617ba682617b3f565b604082019050919050565b60006020820190508181036000830152617bca81617b8e565b9050919050565b7f455243313135353a20696e73756666696369656e742062616c616e636520666f60008201527f72207472616e7366657200000000000000000000000000000000000000000000602082015250565b6000617c2d602a83615da0565b9150617c3882617bd1565b604082019050919050565b60006020820190508181036000830152617c5c81617c20565b9050919050565b60006040820190508181036000830152617c7d818561664d565b90508181036020830152617c91818461664d565b90509392505050565b7f455243313135353a206163636f756e747320616e6420696473206c656e67746860008201527f206d69736d617463680000000000000000000000000000000000000000000000602082015250565b6000617cf6602983615da0565b9150617d0182617c9a565b604082019050919050565b60006020820190508181036000830152617d2581617ce9565b9050919050565b7f416363657373436f6e74726f6c3a206163636f756e7420000000000000000000600082015250565b6000617d62601783616bac565b9150617d6d82617d2c565b601782019050919050565b7f206973206d697373696e6720726f6c6520000000000000000000000000000000600082015250565b6000617dae601183616bac565b9150617db982617d78565b601182019050919050565b6000617dcf82617d55565b9150617ddb8285616bb7565b9150617de682617da1565b9150617df28284616bb7565b91508190509392505050565b7f455243313135353a2073657474696e6720617070726f76616c2073746174757360008201527f20666f722073656c660000000000000000000000000000000000000000000000602082015250565b6000617e5a602983615da0565b9150617e6582617dfe565b604082019050919050565b60006020820190508181036000830152617e8981617e4d565b9050919050565b600081519050919050565b600082825260208201905092915050565b6000617eb782617e90565b617ec18185617e9b565b9350617ed1818560208601615db1565b617eda81615acc565b840191505092915050565b600060a082019050617efa6000830188616070565b617f076020830187616070565b617f146040830186615a98565b617f216060830185615a98565b8181036080830152617f338184617eac565b90509695505050505050565b600081519050617f4e81615c90565b92915050565b600060208284031215617f6a57617f696159ba565b5b6000617f7884828501617f3f565b91505092915050565b60008160e01c9050919050565b600060033d1115617fad5760046000803e617faa600051617f81565b90505b90565b600060443d1061803d57617fc26159b0565b60043d036004823e80513d602482011167ffffffffffffffff82111715617fea57505061803d565b808201805167ffffffffffffffff811115618008575050505061803d565b80602083010160043d03850181111561802557505050505061803d565b61803482602001850186615b0c565b82955050505050505b90565b7f455243313135353a207472616e7366657220746f206e6f6e2d4552433131353560008201527f526563656976657220696d706c656d656e746572000000000000000000000000602082015250565b600061809c603483615da0565b91506180a782618040565b604082019050919050565b600060208201905081810360008301526180cb8161808f565b9050919050565b7f455243313135353a204552433131353552656365697665722072656a6563746560008201527f6420746f6b656e73000000000000000000000000000000000000000000000000602082015250565b600061812e602883615da0565b9150618139826180d2565b604082019050919050565b6000602082019050818103600083015261815d81618121565b9050919050565b600060a0820190506181796000830188616070565b6181866020830187616070565b8181036040830152618198818661664d565b905081810360608301526181ac818561664d565b905081810360808301526181c08184617eac565b90509695505050505050565b7f5061757361626c653a206e6f7420706175736564000000000000000000000000600082015250565b6000618202601483615da0565b915061820d826181cc565b602082019050919050565b60006020820190508181036000830152618231816181f5565b9050919050565b7f455243313135353a206275726e2066726f6d20746865207a65726f206164647260008201527f6573730000000000000000000000000000000000000000000000000000000000602082015250565b6000618294602383615da0565b915061829f82618238565b604082019050919050565b600060208201905081810360008301526182c381618287565b9050919050565b7f455243313135353a206275726e20616d6f756e7420657863656564732062616c60008201527f616e636500000000000000000000000000000000000000000000000000000000602082015250565b6000618326602483615da0565b9150618331826182ca565b604082019050919050565b6000602082019050818103600083015261835581618319565b9050919050565b7f537472696e67733a20686578206c656e67746820696e73756666696369656e74600082015250565b6000618392602083615da0565b915061839d8261835c565b602082019050919050565b600060208201905081810360008301526183c181618385565b9050919050565b7f455243313135353a206275726e20616d6f756e74206578636565647320746f7460008201527f616c537570706c79000000000000000000000000000000000000000000000000602082015250565b6000618424602883615da0565b915061842f826183c8565b604082019050919050565b6000602082019050818103600083015261845381618417565b905091905056fea26469706673582212200a4cf5c22017f7df7b285d8975e2f239753db4e8b1faded6d421ba73830df6c764736f6c63430008130033",
  "immutableReferences": {},
  "source": "// SPDX-License-Identifier: MIT\r\npragma solidity ^0.8.7;\r\n\r\n/*import \"../node_modules/@openzeppelin/contracts-upgradeable/token/ERC1155/ERC1155Upgradeable.sol\";\r\nimport \"../node_modules/@openzeppelin/contracts-upgradeable/access/AccessControlUpgradeable.sol\";\r\nimport \"../node_modules/@openzeppelin/contracts-upgradeable/security/PausableUpgradeable.sol\";\r\nimport \"../node_modules/@openzeppelin/contracts-upgradeable/token/ERC1155/extensions/ERC1155BurnableUpgradeable.sol\";\r\nimport \"../node_modules/@openzeppelin/contracts-upgradeable/token/ERC1155/extensions/ERC1155SupplyUpgradeable.sol\";\r\nimport \"../node_modules/@openzeppelin/contracts-upgradeable/proxy/utils/Initializable.sol\";\r\nimport \"../node_modules/@openzeppelin/contracts-upgradeable/utils/StringsUpgradeable.sol\";*/\r\nimport \"../node_modules/@openzeppelin/contracts/token/ERC1155/ERC1155.sol\";\r\nimport \"../node_modules/@openzeppelin/contracts/access/AccessControl.sol\";\r\nimport \"../node_modules/@openzeppelin/contracts/security/Pausable.sol\";\r\nimport \"../node_modules/@openzeppelin/contracts/token/ERC1155/extensions/ERC1155Burnable.sol\";\r\nimport \"../node_modules/@openzeppelin/contracts/token/ERC1155/extensions/ERC1155Supply.sol\";\r\nimport \"../node_modules/@openzeppelin/contracts/utils/Strings.sol\";\r\nimport \"./Market.sol\";\r\n\r\n/// @custom:security-contact dodo920306@gmail.com\r\ncontract The_Ohara_Protocol is ERC1155, AccessControl, Pausable, ERC1155Burnable, ERC1155Supply {\r\n    \r\n    mapping (uint256 => bytes32) public idToPublisher; // Anyone can check which publisher an id belongs to.\r\n    mapping (string => bool) public publisherHasMember;\r\n\r\n    struct Listing {\r\n        uint256 price; // \r\n        uint256 listedBalance; // \r\n        uint256 buyerCounts; // \r\n        address[] buyers; // \r\n    }\r\n\r\n    struct RevenueFeeInfo {\r\n        uint256 revenueFeeRate; // \r\n        address publisher; //  mint \r\n    }\r\n    \r\n    mapping (uint256 => mapping (address => Listing)) public listings; // id => seller => Listing\r\n    mapping (uint256 => RevenueFeeInfo) public publisherRevenueFeeRates; // id => revenue percentage\r\n\r\n    uint16 marketFeeRate = 25;\r\n\r\n    mapping (uint256 => string) public idToMetadataUrl;\r\n    mapping (address => mapping (uint256 => string)) public userToBookKeySecret;\r\n\r\n    event EBookListed(uint256 indexed id, uint256 indexed amount, uint256 indexed price, address seller);\r\n    event PriceModified(uint256 indexed id, uint256 indexed originalPrice, uint256 indexed currentPrice, address seller, address priceModifier);\r\n    event ListingCancelled(uint256 indexed id, address indexed seller, uint256 indexed removeAmount, address canceller);\r\n    event BuyerDetermined(uint256 indexed id, address indexed seller, address indexed buyer);\r\n    event TransactionMade(uint256 indexed id, address indexed seller, address indexed buyer);\r\n\r\n    modifier isIdExisted(uint256 id) {\r\n        require(super.exists(id), \"Invalid ID\");\r\n        _;\r\n    }\r\n\r\n    modifier IsPriceOrAmountValid(uint256 priceOrAmount) {\r\n        require(priceOrAmount > 0, \"Invalid price/amount\");\r\n        _;\r\n    }\r\n\r\n    modifier isApproved(address seller) {\r\n        require(super.isApprovedForAll(msg.sender, seller) || seller == msg.sender, \"Unauthorized account\");\r\n        _;\r\n    }\r\n\r\n    modifier isAddressValid(address addr) {\r\n        require(addr != address(0), \"Invalid address\");\r\n        _;\r\n    }\r\n\r\n    modifier IsEBookAvailableOnOrder(uint256 id, address seller) {  // /\r\n        require(listings[id][seller].listedBalance > 0, \"E-Book is not listed or sold out\");\r\n        _;\r\n    }\r\n\r\n    // There's no onlyPublisherSingle, for that it basically equals to onlyRole modifier from AccessControl. \r\n    modifier onlyPublisherBatch(uint256[] memory ids) {\r\n        for (uint256 i = 0; i < ids.length; ++i) {\r\n            _checkRole(idToPublisher[ids[i]]);\r\n        }\r\n        _;\r\n    }\r\n\r\n    /// @custom:oz-upgrades-unsafe-allow constructor\r\n    constructor() ERC1155(\"\") {\r\n        _grantRole(DEFAULT_ADMIN_ROLE, msg.sender);\r\n        //_disableInitializers();\r\n    }\r\n\r\n    /*function initialize(address addr) initializer public {\r\n        __ERC1155_init(\"\");\r\n        __AccessControl_init();\r\n        __Pausable_init();\r\n        __ERC1155Burnable_init();\r\n        __ERC1155Supply_init();\r\n\r\n        _grantRole(DEFAULT_ADMIN_ROLE, msg.sender);\r\n        \r\n    }*/\r\n\r\n    function setURI(string memory newuri) public whenNotPaused onlyRole(DEFAULT_ADMIN_ROLE) { // Tim: added whenNotPaused\r\n        _setURI(newuri);\r\n    }\r\n\r\n    // Tim: get the actual e-book uri, may require further modifications\r\n    // Tim: using toString() for getURIOfId()\r\n    using Strings for uint256;   \r\n    function getURIOfId(uint256 id) public view returns(string memory) {\r\n        return string.concat(super.uri(id), \"/\", id.toString());\r\n    }\r\n\r\n    /**\r\n     * @dev The publisher who wants to claim an account belongs to them must use this function\r\n     * with the magic string that represents themselves.\r\n     * \r\n     * The function will uses keccak256 solidity function to hash this string, but before that, it must be represented as bytes32.\r\n     * The type conversion from \"string memory\" to \"bytes32\" isn't allowed, so we use abi.encode() here.\r\n     * See https://ethereum.stackexchange.com/questions/119583/when-to-use-abi-encode-abi-encodepacked-or-abi-encodewithsignature-in-solidity\r\n     * for the reason of this selection.\r\n     * \r\n     * After that, we use grantRole() function from AccessControl,\r\n     * the reason we don't directly use _grantRole() here is because the onlyRole(getRoleAdmin(role)) should also be passed in this operation,\r\n     * and since grantRole() has that modifier originally, the current function doesn't require any modifier yet,\r\n     * and there's no need to be afraid that anyone hash others' magic string and directly call grantRole() because there's no way he/she can be the admin.\r\n     * \r\n     * If it's the first member to be added in the publisher,\r\n     * the msg.sender must be DEFAULT_ADMIN_ROLE to pass onlyRole(getRoleAdmin(role)) for that there's no way to set admin to others.\r\n     * If so, then the function would call _setRoleAdmin() to release the admin power to the publisher itself,\r\n     * indicating that from this point on, only the publisher can manage which accounts can act on its behalf.\r\n     * \r\n     * The only risk would be that a hacker steal one private key from DEFAULT_ADMIN_ROLE,\r\n     * in that case, the worse he/she can do is grant his/her accounts the publisher role that \"hasn't been registered yet\",\r\n     * for that the admins of the publishers already in the protocol can only be themselves.\r\n     * If so, then the publishers register in the future cannot use the same magic string as the hacker granted himself/herself even if they want.\r\n     * (Basically, it's the same idea as \"This username has already been used. Please try another.\",\r\n     * so the power of DEFAULT_ADMIN_ROLE is basically just register publishers and ids.)\r\n     */\r\n    function grantPublisher(string memory publisher, address account) public virtual whenNotPaused { // Tim: added whenNotPaused\r\n        bytes32 role = keccak256(abi.encode(publisher));\r\n        grantRole(role, account);\r\n\r\n        if (!publisherHasMember[publisher]) {\r\n            publisherHasMember[publisher] = true;\r\n            _setRoleAdmin(role, role);\r\n        }\r\n    }\r\n\r\n    /**\r\n     * @dev See the comment of grantPublisher() above for more info about the string publisher and the bytes32 role.\r\n     * Only the old publisher could set the publisher of an id to a new one.\r\n     * Since the default publisher of the id is 0x00, the first publisher of the id must be set by the DEFAULT_ADMIN_ROLE.\r\n     */\r\n    function setIdToPublisher(uint256 id, string memory publisher) //Tim: added whenNotPaused\r\n        public\r\n        whenNotPaused\r\n        onlyRole(idToPublisher[id])\r\n    {\r\n        bytes32 role = keccak256(abi.encode(publisher));\r\n        idToPublisher[id] = role;\r\n    }\r\n\r\n    // Tim: added idExists() to check if an id has existed\r\n    function idExists(uint256 id) public view returns (bool) {\r\n        return super.exists(id);\r\n    }\r\n\r\n    /**\r\n     * @dev See the comment of grantPublisher() above for more info about the string publisher and the bytes32 role.\r\n     * The reason we don't directly call _revokeRole() and the this function is safe is the same reason grantPublisher() doesn't call _grantRole().\r\n     * Use this function to kick someone including msg.sender himself/herself out of the publisher.\r\n     * The function also can only be called by the publisher itself.\r\n     */\r\n    function revokePublisher(string memory publisher, address account) public virtual whenNotPaused { // Tim: added whenNotPaused\r\n        bytes32 role = keccak256(abi.encode(publisher));\r\n        revokeRole(role, account);\r\n    }\r\n\r\n    // Tim: added two functions to call hasRole() & getRoleAdmin(), not sure if thye're needed\r\n    function hasRole(string memory role, address account) public view returns(bool) {\r\n        return super.hasRole(keccak256(abi.encode(role)), account);\r\n    }\r\n\r\n    function getRoleAdmin(string memory role) public view returns(bytes32) {\r\n        return super.getRoleAdmin(keccak256(abi.encode(role)));\r\n    }\r\n\r\n    function pause() public onlyRole(DEFAULT_ADMIN_ROLE) {\r\n        _pause();\r\n    }\r\n\r\n    function unpause() public onlyRole(DEFAULT_ADMIN_ROLE) {\r\n        _unpause();\r\n    }\r\n\r\n    // The publisher of the id would have power to mint the id to whoever they want.\r\n    function mint(address to, uint256 id, uint256 amount, bytes memory data, uint256 revenueRate)\r\n        public\r\n        whenNotPaused\r\n        onlyRole(idToPublisher[id])\r\n    {\r\n        publisherRevenueFeeRates[id].revenueFeeRate = revenueRate;\r\n        publisherRevenueFeeRates[id].publisher = msg.sender;\r\n        _mint(to, id, amount, data);\r\n    }\r\n\r\n    function mintBatch(address to, uint256[] memory ids, uint256[] memory amounts, bytes memory data, uint256[] memory revenueFeeRates)\r\n        public\r\n        whenNotPaused\r\n        onlyPublisherBatch(ids)\r\n    {\r\n        require(revenueFeeRates.length == ids.length && revenueFeeRates.length == amounts.length, \"ERC1155: revenues and ids/amounts length mismatch\");\r\n        for (uint256 i = 0 ; i < ids.length ; ++i) {\r\n            publisherRevenueFeeRates[ids[i]].revenueFeeRate = revenueFeeRates[i];\r\n            publisherRevenueFeeRates[ids[i]].publisher = msg.sender;\r\n        }\r\n        _mintBatch(to, ids, amounts, data);\r\n    }\r\n\r\n    // Tim: added burn() & burnBatch()\r\n    function burn(address from, uint256 id, uint256 amount) public override(ERC1155Burnable) whenNotPaused {\r\n\r\n        require(balanceOf(from, id) - listedBalanceOf(from, id) >= amount); // \r\n\r\n        super.burn(from, id, amount);\r\n    }\r\n\r\n    function burnBatch(address from, uint256[] memory ids, uint256[] memory amounts) public override(ERC1155Burnable) whenNotPaused {\r\n\r\n        for (uint256 i = 0 ; i < ids.length ; ++i) { // \r\n            require(balanceOf(from, ids[i]) - listedBalanceOf(from, ids[i]) >= amounts[i]);\r\n        }\r\n\r\n        super.burnBatch(from, ids, amounts);\r\n    }\r\n\r\n    function _beforeTokenTransfer(address operator, address from, address to, uint256[] memory ids, uint256[] memory amounts, bytes memory data)\r\n        internal\r\n        whenNotPaused\r\n        override(ERC1155, ERC1155Supply)\r\n    {\r\n        \r\n        super._beforeTokenTransfer(operator, from, to, ids, amounts, data);\r\n    }\r\n\r\n    // Tim: added transfer() & transferBatch()\r\n    function transfer(address from, address to, uint256 id, uint256 amount, bytes memory data) public {\r\n        require(balanceOf(from, id) - listedBalanceOf(from, id) >= amount, \"Insufficient balance to transfer\");// \r\n        super.safeTransferFrom(from, to, id, amount, data);\r\n    }\r\n\r\n    function transferBatch(address from, address to, uint256[] memory ids, uint256[] memory amounts, bytes memory data) public {\r\n        for (uint256 i = 0 ; i < ids.length ; ++i) { // \r\n            require(balanceOf(from, ids[i]) - listedBalanceOf(from, ids[i]) >= amounts[i], \"Insufficient balance to transfer\");\r\n        }\r\n        super.safeBatchTransferFrom(from, to, ids, amounts, data);\r\n    }\r\n\r\n    // Tim: added balanceOf() & balanceOfBatch()\r\n    function balanceOf(address account, uint256 id) \r\n        public\r\n        view\r\n        virtual\r\n        override(ERC1155)\r\n        returns(uint256)\r\n    {\r\n        return super.balanceOf(account, id);\r\n    }\r\n\r\n    function balanceOfBatch(address[] memory accounts, uint256[] memory ids)\r\n        public\r\n        view\r\n        virtual\r\n        override(ERC1155)\r\n        returns (uint256[] memory)\r\n    {\r\n        return super.balanceOfBatch(accounts, ids) ;\r\n    }\r\n\r\n    // Tim: added setApprovalForAll() & isApprovedForAll()\r\n    function setApprovalForAll(address operator, bool approved) public override(ERC1155) whenNotPaused {\r\n        super.setApprovalForAll(operator, approved);\r\n    }\r\n\r\n    function isApprovedForAll(address account, address operator) public view override(ERC1155) returns (bool) {\r\n        return super.isApprovedForAll(account, operator);\r\n    }\r\n\r\n    // Tim: added getIdSupply()\r\n    function getIdSupply(uint256 id) public view returns (uint256) {\r\n        return super.totalSupply(id);\r\n    }\r\n\r\n    function changeMetadataUrl(uint256 id, string calldata newMetadataUrl) public onlyRole(DEFAULT_ADMIN_ROLE) {\r\n        idToMetadataUrl[id] = newMetadataUrl;\r\n    }\r\n\r\n    function changeBookKeySecret(address user, uint256 id, string calldata key) public onlyRole(DEFAULT_ADMIN_ROLE) {\r\n        userToBookKeySecret[user][id] = key;\r\n    }\r\n\r\n    // ----------------------- below are market functions -----------------------\r\n    function changeMarketFee(uint16 newMarketFee) public onlyRole(DEFAULT_ADMIN_ROLE) {\r\n        marketFeeRate = newMarketFee;\r\n    }\r\n/*\r\n    function checkIsBuyer(uint256 id, address seller, address buyer) public returns (int256) {\r\n        (bool ok, bytes memory data) = market.delegatecall(\r\n            abi.encodeWithSignature(\"checkIsBuyer(uint256,address,address)\", id, seller, buyer)\r\n        );\r\n        require(ok);\r\n        return abi.decode(data, (int256));\r\n    }\r\n\r\n    // Tim:  ID \r\n    function listedBalanceOf(address account, uint256 id) public view returns(uint256) {\r\n        return listings[id][account].listedBalance;\r\n    }\r\n\r\n    // Tim: \r\n    function listEBook(uint256 id, address seller, uint256 price, uint256 amount) public {\r\n        (bool ok, ) = market.delegatecall(\r\n            abi.encodeWithSignature(\"listEBook(uint256,address,uint256,uint256)\", id, seller, price, amount)\r\n        );\r\n        require(ok);\r\n    }\r\n\r\n    // Tim: \r\n    function modifyPrice(uint256 id, address seller, uint256 price) public {\r\n        (bool ok, ) = market.delegatecall(\r\n            abi.encodeWithSignature(\"modifyPrice(uint256,address,uint256)\", id, seller, price)\r\n        );\r\n        require(ok);\r\n    }\r\n\r\n    // Tim: \r\n    function cancelListing(uint256 id, address seller, uint256 amount) public {\r\n        (bool ok, ) = market.delegatecall(\r\n            abi.encodeWithSignature(\"cancelListing(uint256,address,uint256)\", id, seller, amount)\r\n        );\r\n        require(ok);\r\n    }\r\n\r\n    // Tim: \r\n    function determineBuyer(address seller, address buyer, uint256 id) public onlyRole(DEFAULT_ADMIN_ROLE) {\r\n        (bool ok, ) = market.delegatecall(\r\n            abi.encodeWithSignature(\"cancelListing(address,address,uint256)\", seller, buyer, id)\r\n        );\r\n        require(ok);\r\n    }\r\n\r\n    // Tim:  buyers \r\n    function purchaseEBook(uint256 id, address seller) public payable {\r\n        int256 index = checkIsBuyer(id, seller, msg.sender);\r\n        (bool ok, ) = market.delegatecall(\r\n            abi.encodeWithSignature(\"purchaseEBook(uint256,address,int256)\", id, seller, index)\r\n        );\r\n        require(ok);\r\n    }\r\n*/\r\n    //  Tim: ( determineBuyer )\r\n    function _grantApprovalToContract(address seller) private {\r\n        super._setApprovalForAll(seller, address(this), true);\r\n    }\r\n\r\n    // Tim: ( purchaseEBook )\r\n    function _revokeApprovalFromContract(address seller) private {\r\n        super._setApprovalForAll(seller, address(this), false);\r\n    }\r\n\r\n    // Tim: \r\n    function checkIsBuyer(uint256 id, address seller, address buyer) public view returns (int256) {\r\n\r\n        uint256 length = listings[id][seller].buyers.length;\r\n        address[] memory buyers = listings[id][seller].buyers;\r\n        \r\n        for (uint256 i = 0 ; i < length ; ++i) {\r\n            if (buyers[i] == buyer) {\r\n                return int256(i);\r\n            }\r\n        }\r\n\r\n        return -1;\r\n    }\r\n\r\n    // Tim:  ID \r\n    function listedBalanceOf(address account, uint256 id) public view virtual returns(uint256) {\r\n        return listings[id][account].listedBalance;\r\n    }\r\n\r\n    // Tim:  ID \r\n    function getPrice(uint256 id, address seller) public view returns (uint256) {\r\n        return listings[id][seller].price;\r\n    }\r\n\r\n    // Tim: \r\n    function listEBook(uint256 id, address seller, uint256 price, uint256 amount) public virtual whenNotPaused isIdExisted(id) IsPriceOrAmountValid(price) IsPriceOrAmountValid(amount) isAddressValid(seller) isApproved(seller) {\r\n        require(balanceOf(seller, id) - listings[id][seller].listedBalance >= amount, \"Insefficient balance to list\"); //  -  >= \r\n\r\n        if (listings[id][seller].buyerCounts == 0) {\r\n            listings[id][seller].price = price;\r\n        }\r\n\r\n        listings[id][seller].listedBalance += amount;\r\n\r\n        emit EBookListed(id, amount, price, seller);\r\n    }\r\n\r\n    // Tim: \r\n    function modifyPrice(uint256 id, address seller, uint256 price) public virtual whenNotPaused isIdExisted(id) IsPriceOrAmountValid(price) isAddressValid(seller) isApproved(seller) IsEBookAvailableOnOrder(id, seller) {\r\n        require(listings[id][seller].buyerCounts == 0, \"Buyer has determined\"); //  determineBuyer\r\n\r\n        uint256 originalPrice = listings[id][seller].price;\r\n        listings[id][seller].price = price;\r\n\r\n        emit PriceModified (id, originalPrice, price, seller, msg.sender);\r\n    }\r\n\r\n    // Tim: \r\n    function cancelListing(uint256 id, address seller, uint256 amount) public virtual whenNotPaused isIdExisted(id) IsPriceOrAmountValid(amount) isAddressValid(seller) isApproved(seller) IsEBookAvailableOnOrder(id, seller) {\r\n        require(listings[id][seller].listedBalance - listings[id][seller].buyerCounts >= amount, \"Exceeded amount to unlist\"); //  >= \r\n\r\n        unchecked {\r\n            listings[id][seller].listedBalance -= amount;\r\n        }\r\n\r\n        if (listings[id][seller].listedBalance == 0) {\r\n            delete listings[id][seller];\r\n        }\r\n\r\n        emit ListingCancelled(id, seller, amount, msg.sender);\r\n    }\r\n\r\n    // Tim: \r\n    function determineBuyer(address seller, address buyer, uint256 id) public virtual whenNotPaused onlyRole(DEFAULT_ADMIN_ROLE) isIdExisted(id) isAddressValid(seller) isAddressValid(buyer) {\r\n        require(listings[id][seller].listedBalance > listings[id][seller].buyerCounts, \"Order all fulfilled\"); // \r\n\r\n        listings[id][seller].buyers.push(buyer);\r\n        \r\n        if (listings[id][seller].buyerCounts == 0) { // \r\n            _grantApprovalToContract(seller);\r\n        }\r\n\r\n        listings[id][seller].buyerCounts ++;\r\n\r\n        emit BuyerDetermined(id, seller, buyer);\r\n    }\r\n\r\n    // Tim:  buyers \r\n    function purchaseEBook(uint256 id, address payable seller) public payable virtual whenNotPaused isIdExisted(id) isAddressValid(seller) IsEBookAvailableOnOrder(id, seller) {\r\n        \r\n        // \r\n        address payable buyer = payable(msg.sender);\r\n        int256 index = checkIsBuyer(id, seller, buyer);\r\n        require(index != -1, \"not buyer\");\r\n\r\n        // \r\n        uint256 price = listings[id][seller].price; // \r\n\r\n        uint256 publisherRevenueFee = price * publisherRevenueFeeRates[id].revenueFeeRate / 1000; //  =  *  / 1000\r\n        uint256 marketFee = price * marketFeeRate / 1000; //  =  *  / 1000\r\n\r\n        uint256 total = price + publisherRevenueFee + marketFee; //  =  +  + \r\n        require(msg.value >= total, \"Insufficient Ether\");\r\n\r\n        // \r\n        super._safeTransferFrom(seller, buyer, id, 1, \"\"); // \r\n        \r\n        seller.transfer(price); // \r\n\r\n        address payable publisher = payable(publisherRevenueFeeRates[id].publisher);\r\n        publisher.transfer(publisherRevenueFee); // \r\n\r\n        if (msg.value - total > 0) { //  ETH \r\n            buyer.transfer(msg.value - total);\r\n        }\r\n\r\n        // \r\n        listings[id][seller].listedBalance --;\r\n        listings[id][seller].buyerCounts --;\r\n        listings[id][seller].buyers[uint256(index)] = address(0);\r\n\r\n        if (listings[id][seller].buyerCounts == 0) { // \r\n            _revokeApprovalFromContract(seller);\r\n        }\r\n\r\n        if (listings[id][seller].listedBalance == 0) { // \r\n            delete listings[id][seller];\r\n        }\r\n\r\n        emit TransactionMade(id, seller, buyer);\r\n    }\r\n\r\n    function supportsInterface(bytes4 interfaceId)\r\n        public\r\n        view\r\n        override(ERC1155, AccessControl)\r\n        returns (bool)\r\n    {\r\n        return super.supportsInterface(interfaceId);\r\n    }\r\n}",
  "sourcePath": "C:\\Users\\TimOu_0911\\Desktop\\The_Ohara_Protocol\\contracts\\The_Ohara_Protocol.sol",
  "compiler": {
    "name": "solc",
    "version": "0.8.19+commit.7dd6d404.Emscripten.clang"
  },
  "schemaVersion": "3.4.13",
  "updatedAt": "2023-07-07T09:11:46.142Z",
  "devdoc": {
    "custom:security-contact": "dodo920306@gmail.com",
    "events": {
      "ApprovalForAll(address,address,bool)": {
        "details": "Emitted when `account` grants or revokes permission to `operator` to transfer their tokens, according to `approved`."
      },
      "Paused(address)": {
        "details": "Emitted when the pause is triggered by `account`."
      },
      "RoleAdminChanged(bytes32,bytes32,bytes32)": {
        "details": "Emitted when `newAdminRole` is set as ``role``'s admin role, replacing `previousAdminRole` `DEFAULT_ADMIN_ROLE` is the starting admin for all roles, despite {RoleAdminChanged} not being emitted signaling this. _Available since v3.1._"
      },
      "RoleGranted(bytes32,address,address)": {
        "details": "Emitted when `account` is granted `role`. `sender` is the account that originated the contract call, an admin role bearer except when using {AccessControl-_setupRole}."
      },
      "RoleRevoked(bytes32,address,address)": {
        "details": "Emitted when `account` is revoked `role`. `sender` is the account that originated the contract call:   - if using `revokeRole`, it is the admin role bearer   - if using `renounceRole`, it is the role bearer (i.e. `account`)"
      },
      "TransferBatch(address,address,address,uint256[],uint256[])": {
        "details": "Equivalent to multiple {TransferSingle} events, where `operator`, `from` and `to` are the same for all transfers."
      },
      "TransferSingle(address,address,address,uint256,uint256)": {
        "details": "Emitted when `value` tokens of token type `id` are transferred from `from` to `to` by `operator`."
      },
      "URI(string,uint256)": {
        "details": "Emitted when the URI for token type `id` changes to `value`, if it is a non-programmatic URI. If an {URI} event was emitted for `id`, the standard https://eips.ethereum.org/EIPS/eip-1155#metadata-extensions[guarantees] that `value` will equal the value returned by {IERC1155MetadataURI-uri}."
      },
      "Unpaused(address)": {
        "details": "Emitted when the pause is lifted by `account`."
      }
    },
    "kind": "dev",
    "methods": {
      "balanceOf(address,uint256)": {
        "details": "See {IERC1155-balanceOf}. Requirements: - `account` cannot be the zero address."
      },
      "balanceOfBatch(address[],uint256[])": {
        "details": "See {IERC1155-balanceOfBatch}. Requirements: - `accounts` and `ids` must have the same length."
      },
      "constructor": {
        "custom:oz-upgrades-unsafe-allow": "constructor"
      },
      "exists(uint256)": {
        "details": "Indicates whether any token exist with a given id, or not."
      },
      "getRoleAdmin(bytes32)": {
        "details": "Returns the admin role that controls `role`. See {grantRole} and {revokeRole}. To change a role's admin, use {_setRoleAdmin}."
      },
      "grantPublisher(string,address)": {
        "details": "The publisher who wants to claim an account belongs to them must use this function with the magic string that represents themselves.  The function will uses keccak256 solidity function to hash this string, but before that, it must be represented as bytes32. The type conversion from \"string memory\" to \"bytes32\" isn't allowed, so we use abi.encode() here. See https://ethereum.stackexchange.com/questions/119583/when-to-use-abi-encode-abi-encodepacked-or-abi-encodewithsignature-in-solidity for the reason of this selection.  After that, we use grantRole() function from AccessControl, the reason we don't directly use _grantRole() here is because the onlyRole(getRoleAdmin(role)) should also be passed in this operation, and since grantRole() has that modifier originally, the current function doesn't require any modifier yet, and there's no need to be afraid that anyone hash others' magic string and directly call grantRole() because there's no way he/she can be the admin.  If it's the first member to be added in the publisher, the msg.sender must be DEFAULT_ADMIN_ROLE to pass onlyRole(getRoleAdmin(role)) for that there's no way to set admin to others. If so, then the function would call _setRoleAdmin() to release the admin power to the publisher itself, indicating that from this point on, only the publisher can manage which accounts can act on its behalf.  The only risk would be that a hacker steal one private key from DEFAULT_ADMIN_ROLE, in that case, the worse he/she can do is grant his/her accounts the publisher role that \"hasn't been registered yet\", for that the admins of the publishers already in the protocol can only be themselves. If so, then the publishers register in the future cannot use the same magic string as the hacker granted himself/herself even if they want. (Basically, it's the same idea as \"This username has already been used. Please try another.\", so the power of DEFAULT_ADMIN_ROLE is basically just register publishers and ids.)"
      },
      "grantRole(bytes32,address)": {
        "details": "Grants `role` to `account`. If `account` had not been already granted `role`, emits a {RoleGranted} event. Requirements: - the caller must have ``role``'s admin role. May emit a {RoleGranted} event."
      },
      "hasRole(bytes32,address)": {
        "details": "Returns `true` if `account` has been granted `role`."
      },
      "isApprovedForAll(address,address)": {
        "details": "See {IERC1155-isApprovedForAll}."
      },
      "paused()": {
        "details": "Returns true if the contract is paused, and false otherwise."
      },
      "renounceRole(bytes32,address)": {
        "details": "Revokes `role` from the calling account. Roles are often managed via {grantRole} and {revokeRole}: this function's purpose is to provide a mechanism for accounts to lose their privileges if they are compromised (such as when a trusted device is misplaced). If the calling account had been revoked `role`, emits a {RoleRevoked} event. Requirements: - the caller must be `account`. May emit a {RoleRevoked} event."
      },
      "revokePublisher(string,address)": {
        "details": "See the comment of grantPublisher() above for more info about the string publisher and the bytes32 role. The reason we don't directly call _revokeRole() and the this function is safe is the same reason grantPublisher() doesn't call _grantRole(). Use this function to kick someone including msg.sender himself/herself out of the publisher. The function also can only be called by the publisher itself."
      },
      "revokeRole(bytes32,address)": {
        "details": "Revokes `role` from `account`. If `account` had been granted `role`, emits a {RoleRevoked} event. Requirements: - the caller must have ``role``'s admin role. May emit a {RoleRevoked} event."
      },
      "safeBatchTransferFrom(address,address,uint256[],uint256[],bytes)": {
        "details": "See {IERC1155-safeBatchTransferFrom}."
      },
      "safeTransferFrom(address,address,uint256,uint256,bytes)": {
        "details": "See {IERC1155-safeTransferFrom}."
      },
      "setApprovalForAll(address,bool)": {
        "details": "See {IERC1155-setApprovalForAll}."
      },
      "setIdToPublisher(uint256,string)": {
        "details": "See the comment of grantPublisher() above for more info about the string publisher and the bytes32 role. Only the old publisher could set the publisher of an id to a new one. Since the default publisher of the id is 0x00, the first publisher of the id must be set by the DEFAULT_ADMIN_ROLE."
      },
      "totalSupply(uint256)": {
        "details": "Total amount of tokens in with a given id."
      },
      "uri(uint256)": {
        "details": "See {IERC1155MetadataURI-uri}. This implementation returns the same URI for *all* token types. It relies on the token type ID substitution mechanism https://eips.ethereum.org/EIPS/eip-1155#metadata[defined in the EIP]. Clients calling this function must replace the `\\{id\\}` substring with the actual token type ID."
      }
    },
    "version": 1
  },
  "userdoc": {
    "kind": "user",
    "methods": {},
    "version": 1
  }
}