{
  "contractName": "The_Ohara_Protocol",
  "abi": [
    {
      "inputs": [],
      "stateMutability": "nonpayable",
      "type": "constructor"
    },
    {
      "anonymous": false,
      "inputs": [
        {
          "indexed": true,
          "internalType": "address",
          "name": "account",
          "type": "address"
        },
        {
          "indexed": true,
          "internalType": "address",
          "name": "operator",
          "type": "address"
        },
        {
          "indexed": false,
          "internalType": "bool",
          "name": "approved",
          "type": "bool"
        }
      ],
      "name": "ApprovalForAll",
      "type": "event"
    },
    {
      "anonymous": false,
      "inputs": [
        {
          "indexed": true,
          "internalType": "uint256",
          "name": "id",
          "type": "uint256"
        },
        {
          "indexed": true,
          "internalType": "address",
          "name": "seller",
          "type": "address"
        },
        {
          "indexed": true,
          "internalType": "address",
          "name": "buyer",
          "type": "address"
        }
      ],
      "name": "BuyerDetermined",
      "type": "event"
    },
    {
      "anonymous": false,
      "inputs": [
        {
          "indexed": true,
          "internalType": "uint256",
          "name": "id",
          "type": "uint256"
        },
        {
          "indexed": true,
          "internalType": "uint256",
          "name": "amount",
          "type": "uint256"
        },
        {
          "indexed": true,
          "internalType": "uint256",
          "name": "price",
          "type": "uint256"
        },
        {
          "indexed": false,
          "internalType": "address",
          "name": "seller",
          "type": "address"
        }
      ],
      "name": "EBookListed",
      "type": "event"
    },
    {
      "anonymous": false,
      "inputs": [
        {
          "indexed": true,
          "internalType": "uint256",
          "name": "id",
          "type": "uint256"
        },
        {
          "indexed": true,
          "internalType": "address",
          "name": "seller",
          "type": "address"
        },
        {
          "indexed": true,
          "internalType": "uint256",
          "name": "removeAmount",
          "type": "uint256"
        },
        {
          "indexed": false,
          "internalType": "address",
          "name": "canceller",
          "type": "address"
        }
      ],
      "name": "ListingCancelled",
      "type": "event"
    },
    {
      "anonymous": false,
      "inputs": [
        {
          "indexed": false,
          "internalType": "address",
          "name": "account",
          "type": "address"
        }
      ],
      "name": "Paused",
      "type": "event"
    },
    {
      "anonymous": false,
      "inputs": [
        {
          "indexed": true,
          "internalType": "uint256",
          "name": "id",
          "type": "uint256"
        },
        {
          "indexed": true,
          "internalType": "uint256",
          "name": "originalPrice",
          "type": "uint256"
        },
        {
          "indexed": true,
          "internalType": "uint256",
          "name": "currentPrice",
          "type": "uint256"
        },
        {
          "indexed": false,
          "internalType": "address",
          "name": "seller",
          "type": "address"
        },
        {
          "indexed": false,
          "internalType": "address",
          "name": "priceModifier",
          "type": "address"
        }
      ],
      "name": "PriceModified",
      "type": "event"
    },
    {
      "anonymous": false,
      "inputs": [
        {
          "indexed": true,
          "internalType": "bytes32",
          "name": "role",
          "type": "bytes32"
        },
        {
          "indexed": true,
          "internalType": "bytes32",
          "name": "previousAdminRole",
          "type": "bytes32"
        },
        {
          "indexed": true,
          "internalType": "bytes32",
          "name": "newAdminRole",
          "type": "bytes32"
        }
      ],
      "name": "RoleAdminChanged",
      "type": "event"
    },
    {
      "anonymous": false,
      "inputs": [
        {
          "indexed": true,
          "internalType": "bytes32",
          "name": "role",
          "type": "bytes32"
        },
        {
          "indexed": true,
          "internalType": "address",
          "name": "account",
          "type": "address"
        },
        {
          "indexed": true,
          "internalType": "address",
          "name": "sender",
          "type": "address"
        }
      ],
      "name": "RoleGranted",
      "type": "event"
    },
    {
      "anonymous": false,
      "inputs": [
        {
          "indexed": true,
          "internalType": "bytes32",
          "name": "role",
          "type": "bytes32"
        },
        {
          "indexed": true,
          "internalType": "address",
          "name": "account",
          "type": "address"
        },
        {
          "indexed": true,
          "internalType": "address",
          "name": "sender",
          "type": "address"
        }
      ],
      "name": "RoleRevoked",
      "type": "event"
    },
    {
      "anonymous": false,
      "inputs": [
        {
          "indexed": true,
          "internalType": "uint256",
          "name": "id",
          "type": "uint256"
        },
        {
          "indexed": true,
          "internalType": "address",
          "name": "seller",
          "type": "address"
        },
        {
          "indexed": true,
          "internalType": "address",
          "name": "buyer",
          "type": "address"
        }
      ],
      "name": "TransactionMade",
      "type": "event"
    },
    {
      "anonymous": false,
      "inputs": [
        {
          "indexed": true,
          "internalType": "address",
          "name": "operator",
          "type": "address"
        },
        {
          "indexed": true,
          "internalType": "address",
          "name": "from",
          "type": "address"
        },
        {
          "indexed": true,
          "internalType": "address",
          "name": "to",
          "type": "address"
        },
        {
          "indexed": false,
          "internalType": "uint256[]",
          "name": "ids",
          "type": "uint256[]"
        },
        {
          "indexed": false,
          "internalType": "uint256[]",
          "name": "values",
          "type": "uint256[]"
        }
      ],
      "name": "TransferBatch",
      "type": "event"
    },
    {
      "anonymous": false,
      "inputs": [
        {
          "indexed": true,
          "internalType": "address",
          "name": "operator",
          "type": "address"
        },
        {
          "indexed": true,
          "internalType": "address",
          "name": "from",
          "type": "address"
        },
        {
          "indexed": true,
          "internalType": "address",
          "name": "to",
          "type": "address"
        },
        {
          "indexed": false,
          "internalType": "uint256",
          "name": "id",
          "type": "uint256"
        },
        {
          "indexed": false,
          "internalType": "uint256",
          "name": "value",
          "type": "uint256"
        }
      ],
      "name": "TransferSingle",
      "type": "event"
    },
    {
      "anonymous": false,
      "inputs": [
        {
          "indexed": false,
          "internalType": "string",
          "name": "value",
          "type": "string"
        },
        {
          "indexed": true,
          "internalType": "uint256",
          "name": "id",
          "type": "uint256"
        }
      ],
      "name": "URI",
      "type": "event"
    },
    {
      "anonymous": false,
      "inputs": [
        {
          "indexed": false,
          "internalType": "address",
          "name": "account",
          "type": "address"
        }
      ],
      "name": "Unpaused",
      "type": "event"
    },
    {
      "inputs": [],
      "name": "DEFAULT_ADMIN_ROLE",
      "outputs": [
        {
          "internalType": "bytes32",
          "name": "",
          "type": "bytes32"
        }
      ],
      "stateMutability": "view",
      "type": "function"
    },
    {
      "inputs": [
        {
          "internalType": "uint256",
          "name": "id",
          "type": "uint256"
        }
      ],
      "name": "exists",
      "outputs": [
        {
          "internalType": "bool",
          "name": "",
          "type": "bool"
        }
      ],
      "stateMutability": "view",
      "type": "function"
    },
    {
      "inputs": [
        {
          "internalType": "bytes32",
          "name": "role",
          "type": "bytes32"
        },
        {
          "internalType": "address",
          "name": "account",
          "type": "address"
        }
      ],
      "name": "grantRole",
      "outputs": [],
      "stateMutability": "nonpayable",
      "type": "function"
    },
    {
      "inputs": [],
      "name": "paused",
      "outputs": [
        {
          "internalType": "bool",
          "name": "",
          "type": "bool"
        }
      ],
      "stateMutability": "view",
      "type": "function"
    },
    {
      "inputs": [
        {
          "internalType": "bytes32",
          "name": "role",
          "type": "bytes32"
        },
        {
          "internalType": "address",
          "name": "account",
          "type": "address"
        }
      ],
      "name": "renounceRole",
      "outputs": [],
      "stateMutability": "nonpayable",
      "type": "function"
    },
    {
      "inputs": [
        {
          "internalType": "bytes32",
          "name": "role",
          "type": "bytes32"
        },
        {
          "internalType": "address",
          "name": "account",
          "type": "address"
        }
      ],
      "name": "revokeRole",
      "outputs": [],
      "stateMutability": "nonpayable",
      "type": "function"
    },
    {
      "inputs": [
        {
          "internalType": "address",
          "name": "from",
          "type": "address"
        },
        {
          "internalType": "address",
          "name": "to",
          "type": "address"
        },
        {
          "internalType": "uint256[]",
          "name": "ids",
          "type": "uint256[]"
        },
        {
          "internalType": "uint256[]",
          "name": "amounts",
          "type": "uint256[]"
        },
        {
          "internalType": "bytes",
          "name": "data",
          "type": "bytes"
        }
      ],
      "name": "safeBatchTransferFrom",
      "outputs": [],
      "stateMutability": "nonpayable",
      "type": "function"
    },
    {
      "inputs": [
        {
          "internalType": "address",
          "name": "from",
          "type": "address"
        },
        {
          "internalType": "address",
          "name": "to",
          "type": "address"
        },
        {
          "internalType": "uint256",
          "name": "id",
          "type": "uint256"
        },
        {
          "internalType": "uint256",
          "name": "amount",
          "type": "uint256"
        },
        {
          "internalType": "bytes",
          "name": "data",
          "type": "bytes"
        }
      ],
      "name": "safeTransferFrom",
      "outputs": [],
      "stateMutability": "nonpayable",
      "type": "function"
    },
    {
      "inputs": [
        {
          "internalType": "uint256",
          "name": "id",
          "type": "uint256"
        }
      ],
      "name": "totalSupply",
      "outputs": [
        {
          "internalType": "uint256",
          "name": "",
          "type": "uint256"
        }
      ],
      "stateMutability": "view",
      "type": "function"
    },
    {
      "inputs": [
        {
          "internalType": "uint256",
          "name": "",
          "type": "uint256"
        }
      ],
      "name": "uri",
      "outputs": [
        {
          "internalType": "string",
          "name": "",
          "type": "string"
        }
      ],
      "stateMutability": "view",
      "type": "function"
    },
    {
      "inputs": [
        {
          "internalType": "string",
          "name": "newuri",
          "type": "string"
        }
      ],
      "name": "setURI",
      "outputs": [],
      "stateMutability": "nonpayable",
      "type": "function"
    },
    {
      "inputs": [
        {
          "internalType": "uint256",
          "name": "id",
          "type": "uint256"
        }
      ],
      "name": "getURIOfId",
      "outputs": [
        {
          "internalType": "string",
          "name": "",
          "type": "string"
        }
      ],
      "stateMutability": "view",
      "type": "function"
    },
    {
      "inputs": [
        {
          "internalType": "string",
          "name": "publisher",
          "type": "string"
        },
        {
          "internalType": "address",
          "name": "account",
          "type": "address"
        }
      ],
      "name": "grantPublisher",
      "outputs": [],
      "stateMutability": "nonpayable",
      "type": "function"
    },
    {
      "inputs": [
        {
          "internalType": "uint256",
          "name": "id",
          "type": "uint256"
        },
        {
          "internalType": "string",
          "name": "publisher",
          "type": "string"
        }
      ],
      "name": "setIdToPublisher",
      "outputs": [],
      "stateMutability": "nonpayable",
      "type": "function"
    },
    {
      "inputs": [
        {
          "internalType": "uint256",
          "name": "id",
          "type": "uint256"
        }
      ],
      "name": "idExists",
      "outputs": [
        {
          "internalType": "bool",
          "name": "",
          "type": "bool"
        }
      ],
      "stateMutability": "view",
      "type": "function"
    },
    {
      "inputs": [
        {
          "internalType": "string",
          "name": "publisher",
          "type": "string"
        },
        {
          "internalType": "address",
          "name": "account",
          "type": "address"
        }
      ],
      "name": "revokePublisher",
      "outputs": [],
      "stateMutability": "nonpayable",
      "type": "function"
    },
    {
      "inputs": [
        {
          "internalType": "string",
          "name": "role",
          "type": "string"
        },
        {
          "internalType": "address",
          "name": "account",
          "type": "address"
        }
      ],
      "name": "hasRole",
      "outputs": [
        {
          "internalType": "bool",
          "name": "",
          "type": "bool"
        }
      ],
      "stateMutability": "view",
      "type": "function"
    },
    {
      "inputs": [
        {
          "internalType": "bytes32",
          "name": "role",
          "type": "bytes32"
        },
        {
          "internalType": "address",
          "name": "account",
          "type": "address"
        }
      ],
      "name": "hasRole",
      "outputs": [
        {
          "internalType": "bool",
          "name": "",
          "type": "bool"
        }
      ],
      "stateMutability": "view",
      "type": "function"
    },
    {
      "inputs": [
        {
          "internalType": "bytes32",
          "name": "role",
          "type": "bytes32"
        }
      ],
      "name": "getRoleAdmin",
      "outputs": [
        {
          "internalType": "bytes32",
          "name": "",
          "type": "bytes32"
        }
      ],
      "stateMutability": "view",
      "type": "function"
    },
    {
      "inputs": [
        {
          "internalType": "string",
          "name": "role",
          "type": "string"
        }
      ],
      "name": "getRoleAdmin",
      "outputs": [
        {
          "internalType": "bytes32",
          "name": "",
          "type": "bytes32"
        }
      ],
      "stateMutability": "view",
      "type": "function"
    },
    {
      "inputs": [],
      "name": "pause",
      "outputs": [],
      "stateMutability": "nonpayable",
      "type": "function"
    },
    {
      "inputs": [],
      "name": "unpause",
      "outputs": [],
      "stateMutability": "nonpayable",
      "type": "function"
    },
    {
      "inputs": [
        {
          "internalType": "address",
          "name": "to",
          "type": "address"
        },
        {
          "internalType": "uint256",
          "name": "id",
          "type": "uint256"
        },
        {
          "internalType": "uint256",
          "name": "amount",
          "type": "uint256"
        },
        {
          "internalType": "bytes",
          "name": "data",
          "type": "bytes"
        },
        {
          "internalType": "uint256",
          "name": "revenueRate",
          "type": "uint256"
        }
      ],
      "name": "mint",
      "outputs": [],
      "stateMutability": "nonpayable",
      "type": "function"
    },
    {
      "inputs": [
        {
          "internalType": "address",
          "name": "to",
          "type": "address"
        },
        {
          "internalType": "uint256[]",
          "name": "ids",
          "type": "uint256[]"
        },
        {
          "internalType": "uint256[]",
          "name": "amounts",
          "type": "uint256[]"
        },
        {
          "internalType": "bytes",
          "name": "data",
          "type": "bytes"
        },
        {
          "internalType": "uint256[]",
          "name": "revenueFeeRates",
          "type": "uint256[]"
        }
      ],
      "name": "mintBatch",
      "outputs": [],
      "stateMutability": "nonpayable",
      "type": "function"
    },
    {
      "inputs": [
        {
          "internalType": "address",
          "name": "from",
          "type": "address"
        },
        {
          "internalType": "uint256",
          "name": "id",
          "type": "uint256"
        },
        {
          "internalType": "uint256",
          "name": "amount",
          "type": "uint256"
        }
      ],
      "name": "burn",
      "outputs": [],
      "stateMutability": "nonpayable",
      "type": "function"
    },
    {
      "inputs": [
        {
          "internalType": "address",
          "name": "from",
          "type": "address"
        },
        {
          "internalType": "uint256[]",
          "name": "ids",
          "type": "uint256[]"
        },
        {
          "internalType": "uint256[]",
          "name": "amounts",
          "type": "uint256[]"
        }
      ],
      "name": "burnBatch",
      "outputs": [],
      "stateMutability": "nonpayable",
      "type": "function"
    },
    {
      "inputs": [
        {
          "internalType": "address",
          "name": "from",
          "type": "address"
        },
        {
          "internalType": "address",
          "name": "to",
          "type": "address"
        },
        {
          "internalType": "uint256",
          "name": "id",
          "type": "uint256"
        },
        {
          "internalType": "uint256",
          "name": "amount",
          "type": "uint256"
        },
        {
          "internalType": "bytes",
          "name": "data",
          "type": "bytes"
        }
      ],
      "name": "transfer",
      "outputs": [],
      "stateMutability": "nonpayable",
      "type": "function"
    },
    {
      "inputs": [
        {
          "internalType": "address",
          "name": "from",
          "type": "address"
        },
        {
          "internalType": "address",
          "name": "to",
          "type": "address"
        },
        {
          "internalType": "uint256[]",
          "name": "ids",
          "type": "uint256[]"
        },
        {
          "internalType": "uint256[]",
          "name": "amounts",
          "type": "uint256[]"
        },
        {
          "internalType": "bytes",
          "name": "data",
          "type": "bytes"
        }
      ],
      "name": "transferBatch",
      "outputs": [],
      "stateMutability": "nonpayable",
      "type": "function"
    },
    {
      "inputs": [
        {
          "internalType": "address",
          "name": "account",
          "type": "address"
        },
        {
          "internalType": "uint256",
          "name": "id",
          "type": "uint256"
        }
      ],
      "name": "balanceOf",
      "outputs": [
        {
          "internalType": "uint256",
          "name": "",
          "type": "uint256"
        }
      ],
      "stateMutability": "view",
      "type": "function"
    },
    {
      "inputs": [
        {
          "internalType": "address[]",
          "name": "accounts",
          "type": "address[]"
        },
        {
          "internalType": "uint256[]",
          "name": "ids",
          "type": "uint256[]"
        }
      ],
      "name": "balanceOfBatch",
      "outputs": [
        {
          "internalType": "uint256[]",
          "name": "",
          "type": "uint256[]"
        }
      ],
      "stateMutability": "view",
      "type": "function"
    },
    {
      "inputs": [
        {
          "internalType": "address",
          "name": "operator",
          "type": "address"
        },
        {
          "internalType": "bool",
          "name": "approved",
          "type": "bool"
        }
      ],
      "name": "setApprovalForAll",
      "outputs": [],
      "stateMutability": "nonpayable",
      "type": "function"
    },
    {
      "inputs": [
        {
          "internalType": "address",
          "name": "account",
          "type": "address"
        },
        {
          "internalType": "address",
          "name": "operator",
          "type": "address"
        }
      ],
      "name": "isApprovedForAll",
      "outputs": [
        {
          "internalType": "bool",
          "name": "",
          "type": "bool"
        }
      ],
      "stateMutability": "view",
      "type": "function"
    },
    {
      "inputs": [
        {
          "internalType": "uint256",
          "name": "id",
          "type": "uint256"
        }
      ],
      "name": "getIdSupply",
      "outputs": [
        {
          "internalType": "uint256",
          "name": "",
          "type": "uint256"
        }
      ],
      "stateMutability": "view",
      "type": "function"
    },
    {
      "inputs": [
        {
          "internalType": "uint16",
          "name": "newMarketFee",
          "type": "uint16"
        }
      ],
      "name": "changeMarketFee",
      "outputs": [],
      "stateMutability": "nonpayable",
      "type": "function"
    },
    {
      "inputs": [
        {
          "internalType": "uint256",
          "name": "id",
          "type": "uint256"
        },
        {
          "internalType": "address",
          "name": "seller",
          "type": "address"
        },
        {
          "internalType": "address",
          "name": "buyer",
          "type": "address"
        }
      ],
      "name": "checkIsBuyer",
      "outputs": [
        {
          "internalType": "int256",
          "name": "",
          "type": "int256"
        }
      ],
      "stateMutability": "view",
      "type": "function"
    },
    {
      "inputs": [
        {
          "internalType": "address",
          "name": "account",
          "type": "address"
        },
        {
          "internalType": "uint256",
          "name": "id",
          "type": "uint256"
        }
      ],
      "name": "listedBalanceOf",
      "outputs": [
        {
          "internalType": "uint256",
          "name": "",
          "type": "uint256"
        }
      ],
      "stateMutability": "view",
      "type": "function"
    },
    {
      "inputs": [
        {
          "internalType": "uint256",
          "name": "id",
          "type": "uint256"
        },
        {
          "internalType": "address",
          "name": "seller",
          "type": "address"
        }
      ],
      "name": "getPrice",
      "outputs": [
        {
          "internalType": "uint256",
          "name": "",
          "type": "uint256"
        }
      ],
      "stateMutability": "view",
      "type": "function"
    },
    {
      "inputs": [
        {
          "internalType": "uint256",
          "name": "id",
          "type": "uint256"
        },
        {
          "internalType": "address",
          "name": "seller",
          "type": "address"
        },
        {
          "internalType": "uint256",
          "name": "price",
          "type": "uint256"
        },
        {
          "internalType": "uint256",
          "name": "amount",
          "type": "uint256"
        }
      ],
      "name": "listEBook",
      "outputs": [],
      "stateMutability": "nonpayable",
      "type": "function"
    },
    {
      "inputs": [
        {
          "internalType": "uint256",
          "name": "id",
          "type": "uint256"
        },
        {
          "internalType": "address",
          "name": "seller",
          "type": "address"
        },
        {
          "internalType": "uint256",
          "name": "price",
          "type": "uint256"
        }
      ],
      "name": "modifyPrice",
      "outputs": [],
      "stateMutability": "nonpayable",
      "type": "function"
    },
    {
      "inputs": [
        {
          "internalType": "uint256",
          "name": "id",
          "type": "uint256"
        },
        {
          "internalType": "address",
          "name": "seller",
          "type": "address"
        },
        {
          "internalType": "uint256",
          "name": "amount",
          "type": "uint256"
        }
      ],
      "name": "cancelListing",
      "outputs": [],
      "stateMutability": "nonpayable",
      "type": "function"
    },
    {
      "inputs": [
        {
          "internalType": "address",
          "name": "seller",
          "type": "address"
        },
        {
          "internalType": "address",
          "name": "buyer",
          "type": "address"
        },
        {
          "internalType": "uint256",
          "name": "id",
          "type": "uint256"
        }
      ],
      "name": "determineBuyer",
      "outputs": [],
      "stateMutability": "nonpayable",
      "type": "function"
    },
    {
      "inputs": [
        {
          "internalType": "uint256",
          "name": "id",
          "type": "uint256"
        },
        {
          "internalType": "address payable",
          "name": "seller",
          "type": "address"
        }
      ],
      "name": "purchaseEBook",
      "outputs": [],
      "stateMutability": "payable",
      "type": "function"
    },
    {
      "inputs": [
        {
          "internalType": "bytes4",
          "name": "interfaceId",
          "type": "bytes4"
        }
      ],
      "name": "supportsInterface",
      "outputs": [
        {
          "internalType": "bool",
          "name": "",
          "type": "bool"
        }
      ],
      "stateMutability": "view",
      "type": "function"
    }
  ],
  "bytecode": "0x60806040526019600a60006101000a81548161ffff021916908361ffff1602179055503480156200002f57600080fd5b506040518060200160405280600081525062000051816200008860201b60201c565b506000600460006101000a81548160ff021916908315150217905550620000826000801b336200009d60201b60201c565b62000563565b80600290816200009991906200047c565b5050565b620000af82826200018f60201b60201c565b6200018b5760016003600084815260200190815260200160002060000160008373ffffffffffffffffffffffffffffffffffffffff1673ffffffffffffffffffffffffffffffffffffffff16815260200190815260200160002060006101000a81548160ff02191690831515021790555062000130620001fa60201b60201c565b73ffffffffffffffffffffffffffffffffffffffff168173ffffffffffffffffffffffffffffffffffffffff16837f2f8788117e7eff1d82e926ec794901d17c78024a50270940304540a733656f0d60405160405180910390a45b5050565b60006003600084815260200190815260200160002060000160008373ffffffffffffffffffffffffffffffffffffffff1673ffffffffffffffffffffffffffffffffffffffff16815260200190815260200160002060009054906101000a900460ff16905092915050565b600033905090565b600081519050919050565b7f4e487b7100000000000000000000000000000000000000000000000000000000600052604160045260246000fd5b7f4e487b7100000000000000000000000000000000000000000000000000000000600052602260045260246000fd5b600060028204905060018216806200028457607f821691505b6020821081036200029a57620002996200023c565b5b50919050565b60008190508160005260206000209050919050565b60006020601f8301049050919050565b600082821b905092915050565b600060088302620003047fffffffffffffffffffffffffffffffffffffffffffffffffffffffffffffffff82620002c5565b620003108683620002c5565b95508019841693508086168417925050509392505050565b6000819050919050565b6000819050919050565b60006200035d62000357620003518462000328565b62000332565b62000328565b9050919050565b6000819050919050565b62000379836200033c565b62000391620003888262000364565b848454620002d2565b825550505050565b600090565b620003a862000399565b620003b58184846200036e565b505050565b5b81811015620003dd57620003d16000826200039e565b600181019050620003bb565b5050565b601f8211156200042c57620003f681620002a0565b6200040184620002b5565b8101602085101562000411578190505b620004296200042085620002b5565b830182620003ba565b50505b505050565b600082821c905092915050565b6000620004516000198460080262000431565b1980831691505092915050565b60006200046c83836200043e565b9150826002028217905092915050565b620004878262000202565b67ffffffffffffffff811115620004a357620004a26200020d565b5b620004af82546200026b565b620004bc828285620003e1565b600060209050601f831160018114620004f45760008415620004df578287015190505b620004eb85826200045e565b8655506200055b565b601f1984166200050486620002a0565b60005b828110156200052e5784890151825560018201915060208501945060208101905062000507565b868310156200054e57848901516200054a601f8916826200043e565b8355505b6001600288020188555050505b505050505050565b617d1b80620005736000396000f3fe60806040526004361061025b5760003560e01c80635a9807be11610144578063a217fddf116100b6578063d547741f1161007a578063d547741f1461094c578063d617fae414610975578063e3579fc51461099e578063e985e9c5146109db578063f242432a14610a18578063f5298aca14610a415761025b565b8063a217fddf14610876578063a22cb465146108a1578063a9171a72146108ca578063bd85b039146108f3578063be285853146109305761025b565b80636b20c454116101085780636b20c4541461076a5780636c9cd097146107935780636fcfcb66146107d05780638456cb59146107f95780638ad094b51461081057806391d14854146108395761025b565b80635a9807be1461065f5780635c975abb1461069c5780635ebb6365146106c75780635f6f82ea14610704578063672a41a11461072d5761025b565b80631286c46d116101dd5780632f2ff15d116101a15780632f2ff15d1461055357806336568abe1461057c5780633f4ba83a146105a55780634e1273f4146105bc5780634f558e79146105f957806352509e97146106365761025b565b80631286c46d1461045e578063248a9ca3146104875780632a6d9e92146104c45780632b57cfbb146104ed5780632eb2c2d61461052a5761025b565b80630b8a295a116102245780630b8a295a146103695780630c834143146103a65780630e89341c146103cf5780630ef5e2671461040c578063127217d6146104355761025b565b8062fdd58e1461026057806301ad63bd1461029d57806301ffc9a7146102c657806302fe5305146103035780630807a3bd1461032c575b600080fd5b34801561026c57600080fd5b506102876004803603810190610282919061554d565b610a6a565b604051610294919061559c565b60405180910390f35b3480156102a957600080fd5b506102c460048036038101906102bf91906156fd565b610a7e565b005b3480156102d257600080fd5b506102ed60048036038101906102e891906157b1565b610aec565b6040516102fa91906157f9565b60405180910390f35b34801561030f57600080fd5b5061032a60048036038101906103259190615814565b610afe565b005b34801561033857600080fd5b50610353600480360381019061034e919061585d565b610b20565b6040516103609190615909565b60405180910390f35b34801561037557600080fd5b50610390600480360381019061038b919061585d565b610b5b565b60405161039d91906157f9565b60405180910390f35b3480156103b257600080fd5b506103cd60048036038101906103c8919061592b565b610b6d565b005b3480156103db57600080fd5b506103f660048036038101906103f1919061585d565b611011565b6040516104039190615909565b60405180910390f35b34801561041857600080fd5b50610433600480360381019061042e919061597e565b6110a5565b005b34801561044157600080fd5b5061045c60048036038101906104579190615a72565b6114b1565b005b34801561046a57600080fd5b5061048560048036038101906104809190615b09565b611525565b005b34801561049357600080fd5b506104ae60048036038101906104a99190615b9b565b611567565b6040516104bb9190615bd7565b60405180910390f35b3480156104d057600080fd5b506104eb60048036038101906104e69190615bf2565b611587565b005b3480156104f957600080fd5b50610514600480360381019061050f9190615c89565b611630565b604051610521919061559c565b60405180910390f35b34801561053657600080fd5b50610551600480360381019061054c9190615d91565b61168e565b005b34801561055f57600080fd5b5061057a60048036038101906105759190615e60565b61172f565b005b34801561058857600080fd5b506105a3600480360381019061059e9190615e60565b611750565b005b3480156105b157600080fd5b506105ba6117d3565b005b3480156105c857600080fd5b506105e360048036038101906105de9190615f63565b6117eb565b6040516105f09190616099565b60405180910390f35b34801561060557600080fd5b50610620600480360381019061061b919061585d565b6117ff565b60405161062d91906157f9565b60405180910390f35b34801561064257600080fd5b5061065d60048036038101906106589190615b09565b611813565b005b34801561066b57600080fd5b506106866004803603810190610681919061585d565b6118c7565b604051610693919061559c565b60405180910390f35b3480156106a857600080fd5b506106b16118d9565b6040516106be91906157f9565b60405180910390f35b3480156106d357600080fd5b506106ee60048036038101906106e9919061554d565b6118f0565b6040516106fb919061559c565b60405180910390f35b34801561071057600080fd5b5061072b600480360381019061072691906160bb565b61194e565b005b34801561073957600080fd5b50610754600480360381019061074f9190615814565b611aec565b6040516107619190615bd7565b60405180910390f35b34801561077657600080fd5b50610791600480360381019061078c91906161a6565b611b24565b005b34801561079f57600080fd5b506107ba60048036038101906107b59190615b09565b611bd2565b6040516107c791906157f9565b60405180910390f35b3480156107dc57600080fd5b506107f760048036038101906107f29190615d91565b611c0c565b005b34801561080557600080fd5b5061080e611cec565b005b34801561081c57600080fd5b506108376004803603810190610832919061592b565b611d04565b005b34801561084557600080fd5b50610860600480360381019061085b9190615e60565b6120af565b60405161086d91906157f9565b60405180910390f35b34801561088257600080fd5b5061088b61211a565b6040516108989190615bd7565b60405180910390f35b3480156108ad57600080fd5b506108c860048036038101906108c3919061625d565b612121565b005b3480156108d657600080fd5b506108f160048036038101906108ec919061629d565b612137565b005b3480156108ff57600080fd5b5061091a6004803603810190610915919061585d565b61250d565b604051610927919061559c565b60405180910390f35b61094a60048036038101906109459190616342565b61252a565b005b34801561095857600080fd5b50610973600480360381019061096e9190615e60565b612c87565b005b34801561098157600080fd5b5061099c600480360381019061099791906163bc565b612ca8565b005b3480156109aa57600080fd5b506109c560048036038101906109c091906163e9565b612cd6565b6040516109d29190616455565b60405180910390f35b3480156109e757600080fd5b50610a0260048036038101906109fd9190616470565b612eb0565b604051610a0f91906157f9565b60405180910390f35b348015610a2457600080fd5b50610a3f6004803603810190610a3a9190615a72565b612ec4565b005b348015610a4d57600080fd5b50610a686004803603810190610a6391906164b0565b612f65565b005b6000610a768383612fa7565b905092915050565b610a8661306f565b6006600083815260200190815260200160002054610aa3816130b9565b600082604051602001610ab69190615909565b60405160208183030381529060405280519060200120905080600660008681526020019081526020016000208190555050505050565b6000610af7826130cd565b9050919050565b610b0661306f565b6000801b610b13816130b9565b610b1c82613147565b5050565b6060610b2b82611011565b610b348361315a565b604051602001610b45929190616565565b6040516020818303038152906040529050919050565b6000610b66826117ff565b9050919050565b610b7561306f565b82610b7f816117ff565b610bbe576040517f08c379a0000000000000000000000000000000000000000000000000000000008152600401610bb5906165e4565b60405180910390fd5b8160008111610c02576040517f08c379a0000000000000000000000000000000000000000000000000000000008152600401610bf990616650565b60405180910390fd5b83600073ffffffffffffffffffffffffffffffffffffffff168173ffffffffffffffffffffffffffffffffffffffff1603610c72576040517f08c379a0000000000000000000000000000000000000000000000000000000008152600401610c69906166bc565b60405180910390fd5b84610c7d3382613228565b80610cb357503373ffffffffffffffffffffffffffffffffffffffff168173ffffffffffffffffffffffffffffffffffffffff16145b610cf2576040517f08c379a0000000000000000000000000000000000000000000000000000000008152600401610ce990616728565b60405180910390fd5b868660006008600084815260200190815260200160002060008373ffffffffffffffffffffffffffffffffffffffff1673ffffffffffffffffffffffffffffffffffffffff1681526020019081526020016000206001015411610d8a576040517f08c379a0000000000000000000000000000000000000000000000000000000008152600401610d8190616794565b60405180910390fd5b86600860008b815260200190815260200160002060008a73ffffffffffffffffffffffffffffffffffffffff1673ffffffffffffffffffffffffffffffffffffffff16815260200190815260200160002060020154600860008c815260200190815260200160002060008b73ffffffffffffffffffffffffffffffffffffffff1673ffffffffffffffffffffffffffffffffffffffff16815260200190815260200160002060010154610e3d91906167e3565b1015610e7e576040517f08c379a0000000000000000000000000000000000000000000000000000000008152600401610e7590616863565b60405180910390fd5b86600860008b815260200190815260200160002060008a73ffffffffffffffffffffffffffffffffffffffff1673ffffffffffffffffffffffffffffffffffffffff168152602001908152602001600020600101600082825403925050819055506000600860008b815260200190815260200160002060008a73ffffffffffffffffffffffffffffffffffffffff1673ffffffffffffffffffffffffffffffffffffffff1681526020019081526020016000206001015403610fb657600860008a815260200190815260200160002060008973ffffffffffffffffffffffffffffffffffffffff1673ffffffffffffffffffffffffffffffffffffffff16815260200190815260200160002060008082016000905560018201600090556002820160009055600382016000610fb39190615467565b50505b868873ffffffffffffffffffffffffffffffffffffffff168a7f69e5af4ae7d64e2ae64974f8f3d1149f91bd39f3b1dc649f7add227a19093a0733604051610ffe9190616892565b60405180910390a4505050505050505050565b606060028054611020906168dc565b80601f016020809104026020016040519081016040528092919081815260200182805461104c906168dc565b80156110995780601f1061106e57610100808354040283529160200191611099565b820191906000526020600020905b81548152906001019060200180831161107c57829003601f168201915b50505050509050919050565b6110ad61306f565b6000801b6110ba816130b9565b816110c4816117ff565b611103576040517f08c379a00000000000000000000000000000000000000000000000000000000081526004016110fa906165e4565b60405180910390fd5b84600073ffffffffffffffffffffffffffffffffffffffff168173ffffffffffffffffffffffffffffffffffffffff1603611173576040517f08c379a000000000000000000000000000000000000000000000000000000000815260040161116a906166bc565b60405180910390fd5b84600073ffffffffffffffffffffffffffffffffffffffff168173ffffffffffffffffffffffffffffffffffffffff16036111e3576040517f08c379a00000000000000000000000000000000000000000000000000000000081526004016111da906166bc565b60405180910390fd5b6008600086815260200190815260200160002060008873ffffffffffffffffffffffffffffffffffffffff1673ffffffffffffffffffffffffffffffffffffffff168152602001908152602001600020600201546008600087815260200190815260200160002060008973ffffffffffffffffffffffffffffffffffffffff1673ffffffffffffffffffffffffffffffffffffffff16815260200190815260200160002060010154116112cb576040517f08c379a00000000000000000000000000000000000000000000000000000000081526004016112c290616959565b60405180910390fd5b6008600086815260200190815260200160002060008873ffffffffffffffffffffffffffffffffffffffff1673ffffffffffffffffffffffffffffffffffffffff168152602001908152602001600020600301869080600181540180825580915050600190039060005260206000200160009091909190916101000a81548173ffffffffffffffffffffffffffffffffffffffff021916908373ffffffffffffffffffffffffffffffffffffffff16021790555060006008600087815260200190815260200160002060008973ffffffffffffffffffffffffffffffffffffffff1673ffffffffffffffffffffffffffffffffffffffff16815260200190815260200160002060020154036113e4576113e3876132bc565b5b6008600086815260200190815260200160002060008873ffffffffffffffffffffffffffffffffffffffff1673ffffffffffffffffffffffffffffffffffffffff168152602001908152602001600020600201600081548092919061144890616979565b91905055508573ffffffffffffffffffffffffffffffffffffffff168773ffffffffffffffffffffffffffffffffffffffff16867f293e36bbce608551a8ef03dba20114986371a7df520fde646a2a4a8136c8fc0e60405160405180910390a450505050505050565b816114bc86856118f0565b6114c68786610a6a565b6114d091906167e3565b1015611511576040517f08c379a000000000000000000000000000000000000000000000000000000000815260040161150890616a0d565b60405180910390fd5b61151e8585858585612ec4565b5050505050565b61152d61306f565b6000826040516020016115409190615909565b6040516020818303038152906040528051906020012090506115628183612c87565b505050565b600060036000838152602001908152602001600020600101549050919050565b61158f61306f565b60066000858152602001908152602001600020546115ac816130b9565b816009600087815260200190815260200160002060000181905550336009600087815260200190815260200160002060010160006101000a81548173ffffffffffffffffffffffffffffffffffffffff021916908373ffffffffffffffffffffffffffffffffffffffff160217905550611628868686866132cb565b505050505050565b60006008600084815260200190815260200160002060008373ffffffffffffffffffffffffffffffffffffffff1673ffffffffffffffffffffffffffffffffffffffff16815260200190815260200160002060000154905092915050565b61169661347b565b73ffffffffffffffffffffffffffffffffffffffff168573ffffffffffffffffffffffffffffffffffffffff1614806116dc57506116db856116d661347b565b612eb0565b5b61171b576040517f08c379a000000000000000000000000000000000000000000000000000000000815260040161171290616a9f565b60405180910390fd5b6117288585858585613483565b5050505050565b61173882611567565b611741816130b9565b61174b83836137a4565b505050565b61175861347b565b73ffffffffffffffffffffffffffffffffffffffff168173ffffffffffffffffffffffffffffffffffffffff16146117c5576040517f08c379a00000000000000000000000000000000000000000000000000000000081526004016117bc90616b31565b60405180910390fd5b6117cf8282613885565b5050565b6000801b6117e0816130b9565b6117e8613967565b50565b60606117f783836139ca565b905092915050565b60008061180b8361250d565b119050919050565b61181b61306f565b60008260405160200161182e9190615909565b604051602081830303815290604052805190602001209050611850818361172f565b6007836040516118609190616b51565b908152602001604051809103902060009054906101000a900460ff166118c25760016007846040516118929190616b51565b908152602001604051809103902060006101000a81548160ff0219169083151502179055506118c18182613ae3565b5b505050565b60006118d28261250d565b9050919050565b6000600460009054906101000a900460ff16905090565b60006008600083815260200190815260200160002060008473ffffffffffffffffffffffffffffffffffffffff1673ffffffffffffffffffffffffffffffffffffffff16815260200190815260200160002060010154905092915050565b61195661306f565b8360005b81518110156119aa576119996006600084848151811061197d5761197c616b68565b5b60200260200101518152602001908152602001600020546130b9565b806119a390616979565b905061195a565b50845182511480156119bd575083518251145b6119fc576040517f08c379a00000000000000000000000000000000000000000000000000000000081526004016119f390616c09565b60405180910390fd5b60005b8551811015611ad757828181518110611a1b57611a1a616b68565b5b602002602001015160096000888481518110611a3a57611a39616b68565b5b60200260200101518152602001908152602001600020600001819055503360096000888481518110611a6f57611a6e616b68565b5b6020026020010151815260200190815260200160002060010160006101000a81548173ffffffffffffffffffffffffffffffffffffffff021916908373ffffffffffffffffffffffffffffffffffffffff16021790555080611ad090616979565b90506119ff565b50611ae486868686613b3f565b505050505050565b6000611b1d82604051602001611b029190615909565b60405160208183030381529060405280519060200120611567565b9050919050565b611b2c61306f565b60005b8251811015611bc157818181518110611b4b57611b4a616b68565b5b6020026020010151611b7785858481518110611b6a57611b69616b68565b5b60200260200101516118f0565b611b9b86868581518110611b8e57611b8d616b68565b5b6020026020010151610a6a565b611ba591906167e3565b1015611bb057600080fd5b80611bba90616979565b9050611b2f565b50611bcd838383613d6b565b505050565b6000611c0483604051602001611be89190615909565b60405160208183030381529060405280519060200120836120af565b905092915050565b60005b8351811015611cd757828181518110611c2b57611c2a616b68565b5b6020026020010151611c5787868481518110611c4a57611c49616b68565b5b60200260200101516118f0565b611c7b88878581518110611c6e57611c6d616b68565b5b6020026020010151610a6a565b611c8591906167e3565b1015611cc6576040517f08c379a0000000000000000000000000000000000000000000000000000000008152600401611cbd90616a0d565b60405180910390fd5b80611cd090616979565b9050611c0f565b50611ce5858585858561168e565b5050505050565b6000801b611cf9816130b9565b611d01613e08565b50565b611d0c61306f565b82611d16816117ff565b611d55576040517f08c379a0000000000000000000000000000000000000000000000000000000008152600401611d4c906165e4565b60405180910390fd5b8160008111611d99576040517f08c379a0000000000000000000000000000000000000000000000000000000008152600401611d9090616650565b60405180910390fd5b83600073ffffffffffffffffffffffffffffffffffffffff168173ffffffffffffffffffffffffffffffffffffffff1603611e09576040517f08c379a0000000000000000000000000000000000000000000000000000000008152600401611e00906166bc565b60405180910390fd5b84611e143382613228565b80611e4a57503373ffffffffffffffffffffffffffffffffffffffff168173ffffffffffffffffffffffffffffffffffffffff16145b611e89576040517f08c379a0000000000000000000000000000000000000000000000000000000008152600401611e8090616728565b60405180910390fd5b868660006008600084815260200190815260200160002060008373ffffffffffffffffffffffffffffffffffffffff1673ffffffffffffffffffffffffffffffffffffffff1681526020019081526020016000206001015411611f21576040517f08c379a0000000000000000000000000000000000000000000000000000000008152600401611f1890616794565b60405180910390fd5b6000600860008b815260200190815260200160002060008a73ffffffffffffffffffffffffffffffffffffffff1673ffffffffffffffffffffffffffffffffffffffff1681526020019081526020016000206002015414611fb7576040517f08c379a0000000000000000000000000000000000000000000000000000000008152600401611fae90616c75565b60405180910390fd5b6000600860008b815260200190815260200160002060008a73ffffffffffffffffffffffffffffffffffffffff1673ffffffffffffffffffffffffffffffffffffffff16815260200190815260200160002060000154905087600860008c815260200190815260200160002060008b73ffffffffffffffffffffffffffffffffffffffff1673ffffffffffffffffffffffffffffffffffffffff1681526020019081526020016000206000018190555087818b7f38c88505b4f8c3d77359548f5b449ecf78fa2046034b1b73e88734d23190f5568c3360405161209b929190616c95565b60405180910390a450505050505050505050565b60006003600084815260200190815260200160002060000160008373ffffffffffffffffffffffffffffffffffffffff1673ffffffffffffffffffffffffffffffffffffffff16815260200190815260200160002060009054906101000a900460ff16905092915050565b6000801b81565b61212961306f565b6121338282613e6b565b5050565b61213f61306f565b83612149816117ff565b612188576040517f08c379a000000000000000000000000000000000000000000000000000000000815260040161217f906165e4565b60405180910390fd5b82600081116121cc576040517f08c379a00000000000000000000000000000000000000000000000000000000081526004016121c390616650565b60405180910390fd5b8260008111612210576040517f08c379a000000000000000000000000000000000000000000000000000000000815260040161220790616650565b60405180910390fd5b85600073ffffffffffffffffffffffffffffffffffffffff168173ffffffffffffffffffffffffffffffffffffffff1603612280576040517f08c379a0000000000000000000000000000000000000000000000000000000008152600401612277906166bc565b60405180910390fd5b8661228b3382613228565b806122c157503373ffffffffffffffffffffffffffffffffffffffff168173ffffffffffffffffffffffffffffffffffffffff16145b612300576040517f08c379a00000000000000000000000000000000000000000000000000000000081526004016122f790616728565b60405180910390fd5b85600860008b815260200190815260200160002060008a73ffffffffffffffffffffffffffffffffffffffff1673ffffffffffffffffffffffffffffffffffffffff1681526020019081526020016000206001015461235f8a8c610a6a565b61236991906167e3565b10156123aa576040517f08c379a00000000000000000000000000000000000000000000000000000000081526004016123a190616d0a565b60405180910390fd5b6000600860008b815260200190815260200160002060008a73ffffffffffffffffffffffffffffffffffffffff1673ffffffffffffffffffffffffffffffffffffffff168152602001908152602001600020600201540361245e5786600860008b815260200190815260200160002060008a73ffffffffffffffffffffffffffffffffffffffff1673ffffffffffffffffffffffffffffffffffffffff168152602001908152602001600020600001819055505b85600860008b815260200190815260200160002060008a73ffffffffffffffffffffffffffffffffffffffff1673ffffffffffffffffffffffffffffffffffffffff16815260200190815260200160002060010160008282546124c19190616d2a565b9250508190555086868a7f2fc0ffd013b5d05f874bd9a06a8bb6dbfe037efcb406e32eca22ed05e1ed381d8b6040516124fa9190616892565b60405180910390a4505050505050505050565b600060056000838152602001908152602001600020549050919050565b61253261306f565b8161253c816117ff565b61257b576040517f08c379a0000000000000000000000000000000000000000000000000000000008152600401612572906165e4565b60405180910390fd5b81600073ffffffffffffffffffffffffffffffffffffffff168173ffffffffffffffffffffffffffffffffffffffff16036125eb576040517f08c379a00000000000000000000000000000000000000000000000000000000081526004016125e2906166bc565b60405180910390fd5b838360006008600084815260200190815260200160002060008373ffffffffffffffffffffffffffffffffffffffff1673ffffffffffffffffffffffffffffffffffffffff1681526020019081526020016000206001015411612683576040517f08c379a000000000000000000000000000000000000000000000000000000000815260040161267a90616794565b60405180910390fd5b60003390506000612695888884612cd6565b90507fffffffffffffffffffffffffffffffffffffffffffffffffffffffffffffffff81036126f9576040517f08c379a00000000000000000000000000000000000000000000000000000000081526004016126f090616daa565b60405180910390fd5b6000600860008a815260200190815260200160002060008973ffffffffffffffffffffffffffffffffffffffff1673ffffffffffffffffffffffffffffffffffffffff16815260200190815260200160002060000154905060006103e8600960008c815260200190815260200160002060000154836127789190616dca565b6127829190616e3b565b905060006103e8600a60009054906101000a900461ffff1661ffff16846127a99190616dca565b6127b39190616e3b565b905060008183856127c49190616d2a565b6127ce9190616d2a565b905080341015612813576040517f08c379a000000000000000000000000000000000000000000000000000000000815260040161280a90616eb8565b60405180910390fd5b6128308b878e600160405180602001604052806000815250613e81565b8a73ffffffffffffffffffffffffffffffffffffffff166108fc859081150290604051600060405180830381858888f19350505050158015612876573d6000803e3d6000fd5b506000600960008e815260200190815260200160002060010160009054906101000a900473ffffffffffffffffffffffffffffffffffffffff1690508073ffffffffffffffffffffffffffffffffffffffff166108fc859081150290604051600060405180830381858888f193505050501580156128f8573d6000803e3d6000fd5b506000823461290791906167e3565b1115612960578673ffffffffffffffffffffffffffffffffffffffff166108fc833461293391906167e3565b9081150290604051600060405180830381858888f1935050505015801561295e573d6000803e3d6000fd5b505b600860008e815260200190815260200160002060008d73ffffffffffffffffffffffffffffffffffffffff1673ffffffffffffffffffffffffffffffffffffffff16815260200190815260200160002060010160008154809291906129c490616ed8565b9190505550600860008e815260200190815260200160002060008d73ffffffffffffffffffffffffffffffffffffffff1673ffffffffffffffffffffffffffffffffffffffff1681526020019081526020016000206002016000815480929190612a2d90616ed8565b91905055506000600860008f815260200190815260200160002060008e73ffffffffffffffffffffffffffffffffffffffff1673ffffffffffffffffffffffffffffffffffffffff1681526020019081526020016000206003018781548110612a9957612a98616b68565b5b9060005260206000200160006101000a81548173ffffffffffffffffffffffffffffffffffffffff021916908373ffffffffffffffffffffffffffffffffffffffff1602179055506000600860008f815260200190815260200160002060008e73ffffffffffffffffffffffffffffffffffffffff1673ffffffffffffffffffffffffffffffffffffffff1681526020019081526020016000206002015403612b4657612b458c61411c565b5b6000600860008f815260200190815260200160002060008e73ffffffffffffffffffffffffffffffffffffffff1673ffffffffffffffffffffffffffffffffffffffff1681526020019081526020016000206001015403612c1d57600860008e815260200190815260200160002060008d73ffffffffffffffffffffffffffffffffffffffff1673ffffffffffffffffffffffffffffffffffffffff16815260200190815260200160002060008082016000905560018201600090556002820160009055600382016000612c1a9190615467565b50505b8673ffffffffffffffffffffffffffffffffffffffff168c73ffffffffffffffffffffffffffffffffffffffff168e7f920fa75bdd35e02ccdb168c8b4214196d63ffe7eee90c4b073112050f5ba2e3c60405160405180910390a450505050505050505050505050565b612c9082611567565b612c99816130b9565b612ca38383613885565b505050565b6000801b612cb5816130b9565b81600a60006101000a81548161ffff021916908361ffff1602179055505050565b6000806008600086815260200190815260200160002060008573ffffffffffffffffffffffffffffffffffffffff1673ffffffffffffffffffffffffffffffffffffffff16815260200190815260200160002060030180549050905060006008600087815260200190815260200160002060008673ffffffffffffffffffffffffffffffffffffffff1673ffffffffffffffffffffffffffffffffffffffff168152602001908152602001600020600301805480602002602001604051908101604052809291908181526020018280548015612e0757602002820191906000526020600020905b8160009054906101000a900473ffffffffffffffffffffffffffffffffffffffff1673ffffffffffffffffffffffffffffffffffffffff1681526020019060010190808311612dbd575b5050505050905060005b82811015612e82578473ffffffffffffffffffffffffffffffffffffffff16828281518110612e4357612e42616b68565b5b602002602001015173ffffffffffffffffffffffffffffffffffffffff1603612e7157809350505050612ea9565b80612e7b90616979565b9050612e11565b507fffffffffffffffffffffffffffffffffffffffffffffffffffffffffffffffff925050505b9392505050565b6000612ebc8383613228565b905092915050565b612ecc61347b565b73ffffffffffffffffffffffffffffffffffffffff168573ffffffffffffffffffffffffffffffffffffffff161480612f125750612f1185612f0c61347b565b612eb0565b5b612f51576040517f08c379a0000000000000000000000000000000000000000000000000000000008152600401612f4890616a9f565b60405180910390fd5b612f5e8585858585613e81565b5050505050565b612f6d61306f565b80612f7884846118f0565b612f828585610a6a565b612f8c91906167e3565b1015612f9757600080fd5b612fa283838361412b565b505050565b60008073ffffffffffffffffffffffffffffffffffffffff168373ffffffffffffffffffffffffffffffffffffffff1603613017576040517f08c379a000000000000000000000000000000000000000000000000000000000815260040161300e90616f73565b60405180910390fd5b60008083815260200190815260200160002060008473ffffffffffffffffffffffffffffffffffffffff1673ffffffffffffffffffffffffffffffffffffffff16815260200190815260200160002054905092915050565b6130776118d9565b156130b7576040517f08c379a00000000000000000000000000000000000000000000000000000000081526004016130ae90616fdf565b60405180910390fd5b565b6130ca816130c561347b565b6141c8565b50565b60007f7965db0b000000000000000000000000000000000000000000000000000000007bffffffffffffffffffffffffffffffffffffffffffffffffffffffff1916827bffffffffffffffffffffffffffffffffffffffffffffffffffffffff19161480613140575061313f8261424d565b5b9050919050565b806002908161315691906171ab565b5050565b6060600060016131698461432f565b01905060008167ffffffffffffffff811115613188576131876155d2565b5b6040519080825280601f01601f1916602001820160405280156131ba5781602001600182028036833780820191505090505b509050600082602001820190505b60011561321d578080600190039150507f3031323334353637383961626364656600000000000000000000000000000000600a86061a8153600a858161321157613210616e0c565b5b049450600085036131c8575b819350505050919050565b6000600160008473ffffffffffffffffffffffffffffffffffffffff1673ffffffffffffffffffffffffffffffffffffffff16815260200190815260200160002060008373ffffffffffffffffffffffffffffffffffffffff1673ffffffffffffffffffffffffffffffffffffffff16815260200190815260200160002060009054906101000a900460ff16905092915050565b6132c881306001614482565b50565b600073ffffffffffffffffffffffffffffffffffffffff168473ffffffffffffffffffffffffffffffffffffffff160361333a576040517f08c379a0000000000000000000000000000000000000000000000000000000008152600401613331906172ef565b60405180910390fd5b600061334461347b565b90506000613351856145ee565b9050600061335e856145ee565b905061336f83600089858589614668565b8460008088815260200190815260200160002060008973ffffffffffffffffffffffffffffffffffffffff1673ffffffffffffffffffffffffffffffffffffffff16815260200190815260200160002060008282546133ce9190616d2a565b925050819055508673ffffffffffffffffffffffffffffffffffffffff16600073ffffffffffffffffffffffffffffffffffffffff168473ffffffffffffffffffffffffffffffffffffffff167fc3d58168c5ae7397731d063d5bbf3d657854427343f4c083240f7aacaa2d0f62898960405161344c92919061730f565b60405180910390a461346383600089858589614686565b6134728360008989898961468e565b50505050505050565b600033905090565b81518351146134c7576040517f08c379a00000000000000000000000000000000000000000000000000000000081526004016134be906173aa565b60405180910390fd5b600073ffffffffffffffffffffffffffffffffffffffff168473ffffffffffffffffffffffffffffffffffffffff1603613536576040517f08c379a000000000000000000000000000000000000000000000000000000000815260040161352d9061743c565b60405180910390fd5b600061354061347b565b9050613550818787878787614668565b60005b845181101561370157600085828151811061357157613570616b68565b5b6020026020010151905060008583815181106135905761358f616b68565b5b60200260200101519050600080600084815260200190815260200160002060008b73ffffffffffffffffffffffffffffffffffffffff1673ffffffffffffffffffffffffffffffffffffffff16815260200190815260200160002054905081811015613631576040517f08c379a0000000000000000000000000000000000000000000000000000000008152600401613628906174ce565b60405180910390fd5b81810360008085815260200190815260200160002060008c73ffffffffffffffffffffffffffffffffffffffff1673ffffffffffffffffffffffffffffffffffffffff168152602001908152602001600020819055508160008085815260200190815260200160002060008b73ffffffffffffffffffffffffffffffffffffffff1673ffffffffffffffffffffffffffffffffffffffff16815260200190815260200160002060008282546136e69190616d2a565b92505081905550505050806136fa90616979565b9050613553565b508473ffffffffffffffffffffffffffffffffffffffff168673ffffffffffffffffffffffffffffffffffffffff168273ffffffffffffffffffffffffffffffffffffffff167f4a39dc06d4c0dbc64b70af90fd698a233a518aa5d07e595d983b8c0526c8f7fb87876040516137789291906174ee565b60405180910390a461378e818787878787614686565b61379c818787878787614865565b505050505050565b6137ae82826120af565b6138815760016003600084815260200190815260200160002060000160008373ffffffffffffffffffffffffffffffffffffffff1673ffffffffffffffffffffffffffffffffffffffff16815260200190815260200160002060006101000a81548160ff02191690831515021790555061382661347b565b73ffffffffffffffffffffffffffffffffffffffff168173ffffffffffffffffffffffffffffffffffffffff16837f2f8788117e7eff1d82e926ec794901d17c78024a50270940304540a733656f0d60405160405180910390a45b5050565b61388f82826120af565b156139635760006003600084815260200190815260200160002060000160008373ffffffffffffffffffffffffffffffffffffffff1673ffffffffffffffffffffffffffffffffffffffff16815260200190815260200160002060006101000a81548160ff02191690831515021790555061390861347b565b73ffffffffffffffffffffffffffffffffffffffff168173ffffffffffffffffffffffffffffffffffffffff16837ff6391f5c32d9c69d2a47ea670b442974b53935d1edc7fd64eb21e047a839171b60405160405180910390a45b5050565b61396f614a3c565b6000600460006101000a81548160ff0219169083151502179055507f5db9ee0a495bf2e6ff9c91a7834c1ba4fdd244a5e8aa4e537bd38aeae4b073aa6139b361347b565b6040516139c09190616892565b60405180910390a1565b60608151835114613a10576040517f08c379a0000000000000000000000000000000000000000000000000000000008152600401613a0790617597565b60405180910390fd5b6000835167ffffffffffffffff811115613a2d57613a2c6155d2565b5b604051908082528060200260200182016040528015613a5b5781602001602082028036833780820191505090505b50905060005b8451811015613ad857613aa8858281518110613a8057613a7f616b68565b5b6020026020010151858381518110613a9b57613a9a616b68565b5b6020026020010151610a6a565b828281518110613abb57613aba616b68565b5b60200260200101818152505080613ad190616979565b9050613a61565b508091505092915050565b6000613aee83611567565b90508160036000858152602001908152602001600020600101819055508181847fbd79b86ffe0ab8e8776151514217cd7cacd52c909f66475c3af44e129f0b00ff60405160405180910390a4505050565b600073ffffffffffffffffffffffffffffffffffffffff168473ffffffffffffffffffffffffffffffffffffffff1603613bae576040517f08c379a0000000000000000000000000000000000000000000000000000000008152600401613ba5906172ef565b60405180910390fd5b8151835114613bf2576040517f08c379a0000000000000000000000000000000000000000000000000000000008152600401613be9906173aa565b60405180910390fd5b6000613bfc61347b565b9050613c0d81600087878787614668565b60005b8451811015613cc657838181518110613c2c57613c2b616b68565b5b6020026020010151600080878481518110613c4a57613c49616b68565b5b6020026020010151815260200190815260200160002060008873ffffffffffffffffffffffffffffffffffffffff1673ffffffffffffffffffffffffffffffffffffffff1681526020019081526020016000206000828254613cac9190616d2a565b925050819055508080613cbe90616979565b915050613c10565b508473ffffffffffffffffffffffffffffffffffffffff16600073ffffffffffffffffffffffffffffffffffffffff168273ffffffffffffffffffffffffffffffffffffffff167f4a39dc06d4c0dbc64b70af90fd698a233a518aa5d07e595d983b8c0526c8f7fb8787604051613d3e9291906174ee565b60405180910390a4613d5581600087878787614686565b613d6481600087878787614865565b5050505050565b613d7361347b565b73ffffffffffffffffffffffffffffffffffffffff168373ffffffffffffffffffffffffffffffffffffffff161480613db95750613db883613db361347b565b612eb0565b5b613df8576040517f08c379a0000000000000000000000000000000000000000000000000000000008152600401613def90616a9f565b60405180910390fd5b613e03838383614a85565b505050565b613e1061306f565b6001600460006101000a81548160ff0219169083151502179055507f62e78cea01bee320cd4e420270b5ea74000d11b0c9f74754ebdbfc544b05a258613e5461347b565b604051613e619190616892565b60405180910390a1565b613e7d613e7661347b565b8383614482565b5050565b600073ffffffffffffffffffffffffffffffffffffffff168473ffffffffffffffffffffffffffffffffffffffff1603613ef0576040517f08c379a0000000000000000000000000000000000000000000000000000000008152600401613ee79061743c565b60405180910390fd5b6000613efa61347b565b90506000613f07856145ee565b90506000613f14856145ee565b9050613f24838989858589614668565b600080600088815260200190815260200160002060008a73ffffffffffffffffffffffffffffffffffffffff1673ffffffffffffffffffffffffffffffffffffffff16815260200190815260200160002054905085811015613fbb576040517f08c379a0000000000000000000000000000000000000000000000000000000008152600401613fb2906174ce565b60405180910390fd5b85810360008089815260200190815260200160002060008b73ffffffffffffffffffffffffffffffffffffffff1673ffffffffffffffffffffffffffffffffffffffff168152602001908152602001600020819055508560008089815260200190815260200160002060008a73ffffffffffffffffffffffffffffffffffffffff1673ffffffffffffffffffffffffffffffffffffffff16815260200190815260200160002060008282546140709190616d2a565b925050819055508773ffffffffffffffffffffffffffffffffffffffff168973ffffffffffffffffffffffffffffffffffffffff168573ffffffffffffffffffffffffffffffffffffffff167fc3d58168c5ae7397731d063d5bbf3d657854427343f4c083240f7aacaa2d0f628a8a6040516140ed92919061730f565b60405180910390a4614103848a8a86868a614686565b614111848a8a8a8a8a61468e565b505050505050505050565b61412881306000614482565b50565b61413361347b565b73ffffffffffffffffffffffffffffffffffffffff168373ffffffffffffffffffffffffffffffffffffffff16148061417957506141788361417361347b565b612eb0565b5b6141b8576040517f08c379a00000000000000000000000000000000000000000000000000000000081526004016141af90616a9f565b60405180910390fd5b6141c3838383614d53565b505050565b6141d282826120af565b614249576141df81614f99565b6141ed8360001c6020614fc6565b6040516020016141fe92919061764f565b6040516020818303038152906040526040517f08c379a00000000000000000000000000000000000000000000000000000000081526004016142409190615909565b60405180910390fd5b5050565b60007fd9b67a26000000000000000000000000000000000000000000000000000000007bffffffffffffffffffffffffffffffffffffffffffffffffffffffff1916827bffffffffffffffffffffffffffffffffffffffffffffffffffffffff1916148061431857507f0e89341c000000000000000000000000000000000000000000000000000000007bffffffffffffffffffffffffffffffffffffffffffffffffffffffff1916827bffffffffffffffffffffffffffffffffffffffffffffffffffffffff1916145b80614328575061432782615202565b5b9050919050565b600080600090507a184f03e93ff9f4daa797ed6e38ed64bf6a1f010000000000000000831061438d577a184f03e93ff9f4daa797ed6e38ed64bf6a1f010000000000000000838161438357614382616e0c565b5b0492506040810190505b6d04ee2d6d415b85acef810000000083106143ca576d04ee2d6d415b85acef810000000083816143c0576143bf616e0c565b5b0492506020810190505b662386f26fc1000083106143f957662386f26fc1000083816143ef576143ee616e0c565b5b0492506010810190505b6305f5e1008310614422576305f5e100838161441857614417616e0c565b5b0492506008810190505b612710831061444757612710838161443d5761443c616e0c565b5b0492506004810190505b6064831061446a57606483816144605761445f616e0c565b5b0492506002810190505b600a8310614479576001810190505b80915050919050565b8173ffffffffffffffffffffffffffffffffffffffff168373ffffffffffffffffffffffffffffffffffffffff16036144f0576040517f08c379a00000000000000000000000000000000000000000000000000000000081526004016144e7906176fb565b60405180910390fd5b80600160008573ffffffffffffffffffffffffffffffffffffffff1673ffffffffffffffffffffffffffffffffffffffff16815260200190815260200160002060008473ffffffffffffffffffffffffffffffffffffffff1673ffffffffffffffffffffffffffffffffffffffff16815260200190815260200160002060006101000a81548160ff0219169083151502179055508173ffffffffffffffffffffffffffffffffffffffff168373ffffffffffffffffffffffffffffffffffffffff167f17307eab39ab6107e8899845ad3d59bd9653f200f220920489ca2b5937696c31836040516145e191906157f9565b60405180910390a3505050565b60606000600167ffffffffffffffff81111561460d5761460c6155d2565b5b60405190808252806020026020018201604052801561463b5781602001602082028036833780820191505090505b509050828160008151811061465357614652616b68565b5b60200260200101818152505080915050919050565b61467061306f565b61467e86868686868661526c565b505050505050565b505050505050565b6146ad8473ffffffffffffffffffffffffffffffffffffffff1661543c565b1561485d578373ffffffffffffffffffffffffffffffffffffffff1663f23a6e6187878686866040518663ffffffff1660e01b81526004016146f3959493929190617770565b6020604051808303816000875af192505050801561472f57506040513d601f19601f8201168201806040525081019061472c91906177df565b60015b6147d45761473b617819565b806308c379a003614797575061474f61783b565b8061475a5750614799565b806040517f08c379a000000000000000000000000000000000000000000000000000000000815260040161478e9190615909565b60405180910390fd5b505b6040517f08c379a00000000000000000000000000000000000000000000000000000000081526004016147cb9061793d565b60405180910390fd5b63f23a6e6160e01b7bffffffffffffffffffffffffffffffffffffffffffffffffffffffff1916817bffffffffffffffffffffffffffffffffffffffffffffffffffffffff19161461485b576040517f08c379a0000000000000000000000000000000000000000000000000000000008152600401614852906179cf565b60405180910390fd5b505b505050505050565b6148848473ffffffffffffffffffffffffffffffffffffffff1661543c565b15614a34578373ffffffffffffffffffffffffffffffffffffffff1663bc197c8187878686866040518663ffffffff1660e01b81526004016148ca9594939291906179ef565b6020604051808303816000875af192505050801561490657506040513d601f19601f8201168201806040525081019061490391906177df565b60015b6149ab57614912617819565b806308c379a00361496e575061492661783b565b806149315750614970565b806040517f08c379a00000000000000000000000000000000000000000000000000000000081526004016149659190615909565b60405180910390fd5b505b6040517f08c379a00000000000000000000000000000000000000000000000000000000081526004016149a29061793d565b60405180910390fd5b63bc197c8160e01b7bffffffffffffffffffffffffffffffffffffffffffffffffffffffff1916817bffffffffffffffffffffffffffffffffffffffffffffffffffffffff191614614a32576040517f08c379a0000000000000000000000000000000000000000000000000000000008152600401614a29906179cf565b60405180910390fd5b505b505050505050565b614a446118d9565b614a83576040517f08c379a0000000000000000000000000000000000000000000000000000000008152600401614a7a90617aa3565b60405180910390fd5b565b600073ffffffffffffffffffffffffffffffffffffffff168373ffffffffffffffffffffffffffffffffffffffff1603614af4576040517f08c379a0000000000000000000000000000000000000000000000000000000008152600401614aeb90617b35565b60405180910390fd5b8051825114614b38576040517f08c379a0000000000000000000000000000000000000000000000000000000008152600401614b2f906173aa565b60405180910390fd5b6000614b4261347b565b9050614b6281856000868660405180602001604052806000815250614668565b60005b8351811015614caf576000848281518110614b8357614b82616b68565b5b602002602001015190506000848381518110614ba257614ba1616b68565b5b60200260200101519050600080600084815260200190815260200160002060008973ffffffffffffffffffffffffffffffffffffffff1673ffffffffffffffffffffffffffffffffffffffff16815260200190815260200160002054905081811015614c43576040517f08c379a0000000000000000000000000000000000000000000000000000000008152600401614c3a90617bc7565b60405180910390fd5b81810360008085815260200190815260200160002060008a73ffffffffffffffffffffffffffffffffffffffff1673ffffffffffffffffffffffffffffffffffffffff168152602001908152602001600020819055505050508080614ca790616979565b915050614b65565b50600073ffffffffffffffffffffffffffffffffffffffff168473ffffffffffffffffffffffffffffffffffffffff168273ffffffffffffffffffffffffffffffffffffffff167f4a39dc06d4c0dbc64b70af90fd698a233a518aa5d07e595d983b8c0526c8f7fb8686604051614d279291906174ee565b60405180910390a4614d4d81856000868660405180602001604052806000815250614686565b50505050565b600073ffffffffffffffffffffffffffffffffffffffff168373ffffffffffffffffffffffffffffffffffffffff1603614dc2576040517f08c379a0000000000000000000000000000000000000000000000000000000008152600401614db990617b35565b60405180910390fd5b6000614dcc61347b565b90506000614dd9846145ee565b90506000614de6846145ee565b9050614e0683876000858560405180602001604052806000815250614668565b600080600087815260200190815260200160002060008873ffffffffffffffffffffffffffffffffffffffff1673ffffffffffffffffffffffffffffffffffffffff16815260200190815260200160002054905084811015614e9d576040517f08c379a0000000000000000000000000000000000000000000000000000000008152600401614e9490617bc7565b60405180910390fd5b84810360008088815260200190815260200160002060008973ffffffffffffffffffffffffffffffffffffffff1673ffffffffffffffffffffffffffffffffffffffff16815260200190815260200160002081905550600073ffffffffffffffffffffffffffffffffffffffff168773ffffffffffffffffffffffffffffffffffffffff168573ffffffffffffffffffffffffffffffffffffffff167fc3d58168c5ae7397731d063d5bbf3d657854427343f4c083240f7aacaa2d0f628989604051614f6a92919061730f565b60405180910390a4614f9084886000868660405180602001604052806000815250614686565b50505050505050565b6060614fbf8273ffffffffffffffffffffffffffffffffffffffff16601460ff16614fc6565b9050919050565b606060006002836002614fd99190616dca565b614fe39190616d2a565b67ffffffffffffffff811115614ffc57614ffb6155d2565b5b6040519080825280601f01601f19166020018201604052801561502e5781602001600182028036833780820191505090505b5090507f30000000000000000000000000000000000000000000000000000000000000008160008151811061506657615065616b68565b5b60200101907effffffffffffffffffffffffffffffffffffffffffffffffffffffffffffff1916908160001a9053507f7800000000000000000000000000000000000000000000000000000000000000816001815181106150ca576150c9616b68565b5b60200101907effffffffffffffffffffffffffffffffffffffffffffffffffffffffffffff1916908160001a9053506000600184600261510a9190616dca565b6151149190616d2a565b90505b60018111156151b4577f3031323334353637383961626364656600000000000000000000000000000000600f86166010811061515657615155616b68565b5b1a60f81b82828151811061516d5761516c616b68565b5b60200101907effffffffffffffffffffffffffffffffffffffffffffffffffffffffffffff1916908160001a905350600485901c9450806151ad90616ed8565b9050615117565b50600084146151f8576040517f08c379a00000000000000000000000000000000000000000000000000000000081526004016151ef90617c33565b60405180910390fd5b8091505092915050565b60007f01ffc9a7000000000000000000000000000000000000000000000000000000007bffffffffffffffffffffffffffffffffffffffffffffffffffffffff1916827bffffffffffffffffffffffffffffffffffffffffffffffffffffffff1916149050919050565b61527a86868686868661545f565b600073ffffffffffffffffffffffffffffffffffffffff168573ffffffffffffffffffffffffffffffffffffffff160361532b5760005b8351811015615329578281815181106152cd576152cc616b68565b5b6020026020010151600560008684815181106152ec576152eb616b68565b5b6020026020010151815260200190815260200160002060008282546153119190616d2a565b925050819055508061532290616979565b90506152b1565b505b600073ffffffffffffffffffffffffffffffffffffffff168473ffffffffffffffffffffffffffffffffffffffff16036154345760005b83518110156154325760008482815181106153805761537f616b68565b5b60200260200101519050600084838151811061539f5761539e616b68565b5b6020026020010151905060006005600084815260200190815260200160002054905081811015615404576040517f08c379a00000000000000000000000000000000000000000000000000000000081526004016153fb90617cc5565b60405180910390fd5b81810360056000858152602001908152602001600020819055505050508061542b90616979565b9050615362565b505b505050505050565b6000808273ffffffffffffffffffffffffffffffffffffffff163b119050919050565b505050505050565b50805460008255906000526020600020908101906154859190615488565b50565b5b808211156154a1576000816000905550600101615489565b5090565b6000604051905090565b600080fd5b600080fd5b600073ffffffffffffffffffffffffffffffffffffffff82169050919050565b60006154e4826154b9565b9050919050565b6154f4816154d9565b81146154ff57600080fd5b50565b600081359050615511816154eb565b92915050565b6000819050919050565b61552a81615517565b811461553557600080fd5b50565b60008135905061554781615521565b92915050565b60008060408385031215615564576155636154af565b5b600061557285828601615502565b925050602061558385828601615538565b9150509250929050565b61559681615517565b82525050565b60006020820190506155b1600083018461558d565b92915050565b600080fd5b600080fd5b6000601f19601f8301169050919050565b7f4e487b7100000000000000000000000000000000000000000000000000000000600052604160045260246000fd5b61560a826155c1565b810181811067ffffffffffffffff82111715615629576156286155d2565b5b80604052505050565b600061563c6154a5565b90506156488282615601565b919050565b600067ffffffffffffffff821115615668576156676155d2565b5b615671826155c1565b9050602081019050919050565b82818337600083830152505050565b60006156a061569b8461564d565b615632565b9050828152602081018484840111156156bc576156bb6155bc565b5b6156c784828561567e565b509392505050565b600082601f8301126156e4576156e36155b7565b5b81356156f484826020860161568d565b91505092915050565b60008060408385031215615714576157136154af565b5b600061572285828601615538565b925050602083013567ffffffffffffffff811115615743576157426154b4565b5b61574f858286016156cf565b9150509250929050565b60007fffffffff0000000000000000000000000000000000000000000000000000000082169050919050565b61578e81615759565b811461579957600080fd5b50565b6000813590506157ab81615785565b92915050565b6000602082840312156157c7576157c66154af565b5b60006157d58482850161579c565b91505092915050565b60008115159050919050565b6157f3816157de565b82525050565b600060208201905061580e60008301846157ea565b92915050565b60006020828403121561582a576158296154af565b5b600082013567ffffffffffffffff811115615848576158476154b4565b5b615854848285016156cf565b91505092915050565b600060208284031215615873576158726154af565b5b600061588184828501615538565b91505092915050565b600081519050919050565b600082825260208201905092915050565b60005b838110156158c45780820151818401526020810190506158a9565b60008484015250505050565b60006158db8261588a565b6158e58185615895565b93506158f58185602086016158a6565b6158fe816155c1565b840191505092915050565b6000602082019050818103600083015261592381846158d0565b905092915050565b600080600060608486031215615944576159436154af565b5b600061595286828701615538565b935050602061596386828701615502565b925050604061597486828701615538565b9150509250925092565b600080600060608486031215615997576159966154af565b5b60006159a586828701615502565b93505060206159b686828701615502565b92505060406159c786828701615538565b9150509250925092565b600067ffffffffffffffff8211156159ec576159eb6155d2565b5b6159f5826155c1565b9050602081019050919050565b6000615a15615a10846159d1565b615632565b905082815260208101848484011115615a3157615a306155bc565b5b615a3c84828561567e565b509392505050565b600082601f830112615a5957615a586155b7565b5b8135615a69848260208601615a02565b91505092915050565b600080600080600060a08688031215615a8e57615a8d6154af565b5b6000615a9c88828901615502565b9550506020615aad88828901615502565b9450506040615abe88828901615538565b9350506060615acf88828901615538565b925050608086013567ffffffffffffffff811115615af057615aef6154b4565b5b615afc88828901615a44565b9150509295509295909350565b60008060408385031215615b2057615b1f6154af565b5b600083013567ffffffffffffffff811115615b3e57615b3d6154b4565b5b615b4a858286016156cf565b9250506020615b5b85828601615502565b9150509250929050565b6000819050919050565b615b7881615b65565b8114615b8357600080fd5b50565b600081359050615b9581615b6f565b92915050565b600060208284031215615bb157615bb06154af565b5b6000615bbf84828501615b86565b91505092915050565b615bd181615b65565b82525050565b6000602082019050615bec6000830184615bc8565b92915050565b600080600080600060a08688031215615c0e57615c0d6154af565b5b6000615c1c88828901615502565b9550506020615c2d88828901615538565b9450506040615c3e88828901615538565b935050606086013567ffffffffffffffff811115615c5f57615c5e6154b4565b5b615c6b88828901615a44565b9250506080615c7c88828901615538565b9150509295509295909350565b60008060408385031215615ca057615c9f6154af565b5b6000615cae85828601615538565b9250506020615cbf85828601615502565b9150509250929050565b600067ffffffffffffffff821115615ce457615ce36155d2565b5b602082029050602081019050919050565b600080fd5b6000615d0d615d0884615cc9565b615632565b90508083825260208201905060208402830185811115615d3057615d2f615cf5565b5b835b81811015615d595780615d458882615538565b845260208401935050602081019050615d32565b5050509392505050565b600082601f830112615d7857615d776155b7565b5b8135615d88848260208601615cfa565b91505092915050565b600080600080600060a08688031215615dad57615dac6154af565b5b6000615dbb88828901615502565b9550506020615dcc88828901615502565b945050604086013567ffffffffffffffff811115615ded57615dec6154b4565b5b615df988828901615d63565b935050606086013567ffffffffffffffff811115615e1a57615e196154b4565b5b615e2688828901615d63565b925050608086013567ffffffffffffffff811115615e4757615e466154b4565b5b615e5388828901615a44565b9150509295509295909350565b60008060408385031215615e7757615e766154af565b5b6000615e8585828601615b86565b9250506020615e9685828601615502565b9150509250929050565b600067ffffffffffffffff821115615ebb57615eba6155d2565b5b602082029050602081019050919050565b6000615edf615eda84615ea0565b615632565b90508083825260208201905060208402830185811115615f0257615f01615cf5565b5b835b81811015615f2b5780615f178882615502565b845260208401935050602081019050615f04565b5050509392505050565b600082601f830112615f4a57615f496155b7565b5b8135615f5a848260208601615ecc565b91505092915050565b60008060408385031215615f7a57615f796154af565b5b600083013567ffffffffffffffff811115615f9857615f976154b4565b5b615fa485828601615f35565b925050602083013567ffffffffffffffff811115615fc557615fc46154b4565b5b615fd185828601615d63565b9150509250929050565b600081519050919050565b600082825260208201905092915050565b6000819050602082019050919050565b61601081615517565b82525050565b60006160228383616007565b60208301905092915050565b6000602082019050919050565b600061604682615fdb565b6160508185615fe6565b935061605b83615ff7565b8060005b8381101561608c5781516160738882616016565b975061607e8361602e565b92505060018101905061605f565b5085935050505092915050565b600060208201905081810360008301526160b3818461603b565b905092915050565b600080600080600060a086880312156160d7576160d66154af565b5b60006160e588828901615502565b955050602086013567ffffffffffffffff811115616106576161056154b4565b5b61611288828901615d63565b945050604086013567ffffffffffffffff811115616133576161326154b4565b5b61613f88828901615d63565b935050606086013567ffffffffffffffff8111156161605761615f6154b4565b5b61616c88828901615a44565b925050608086013567ffffffffffffffff81111561618d5761618c6154b4565b5b61619988828901615d63565b9150509295509295909350565b6000806000606084860312156161bf576161be6154af565b5b60006161cd86828701615502565b935050602084013567ffffffffffffffff8111156161ee576161ed6154b4565b5b6161fa86828701615d63565b925050604084013567ffffffffffffffff81111561621b5761621a6154b4565b5b61622786828701615d63565b9150509250925092565b61623a816157de565b811461624557600080fd5b50565b60008135905061625781616231565b92915050565b60008060408385031215616274576162736154af565b5b600061628285828601615502565b925050602061629385828601616248565b9150509250929050565b600080600080608085870312156162b7576162b66154af565b5b60006162c587828801615538565b94505060206162d687828801615502565b93505060406162e787828801615538565b92505060606162f887828801615538565b91505092959194509250565b600061630f826154b9565b9050919050565b61631f81616304565b811461632a57600080fd5b50565b60008135905061633c81616316565b92915050565b60008060408385031215616359576163586154af565b5b600061636785828601615538565b92505060206163788582860161632d565b9150509250929050565b600061ffff82169050919050565b61639981616382565b81146163a457600080fd5b50565b6000813590506163b681616390565b92915050565b6000602082840312156163d2576163d16154af565b5b60006163e0848285016163a7565b91505092915050565b600080600060608486031215616402576164016154af565b5b600061641086828701615538565b935050602061642186828701615502565b925050604061643286828701615502565b9150509250925092565b6000819050919050565b61644f8161643c565b82525050565b600060208201905061646a6000830184616446565b92915050565b60008060408385031215616487576164866154af565b5b600061649585828601615502565b92505060206164a685828601615502565b9150509250929050565b6000806000606084860312156164c9576164c86154af565b5b60006164d786828701615502565b93505060206164e886828701615538565b92505060406164f986828701615538565b9150509250925092565b600081905092915050565b60006165198261588a565b6165238185616503565b93506165338185602086016158a6565b80840191505092915050565b7f2f00000000000000000000000000000000000000000000000000000000000000815250565b6000616571828561650e565b915061657c8261653f565b60018201915061658c828461650e565b91508190509392505050565b7f496e76616c696420494400000000000000000000000000000000000000000000600082015250565b60006165ce600a83615895565b91506165d982616598565b602082019050919050565b600060208201905081810360008301526165fd816165c1565b9050919050565b7f496e76616c69642070726963652f616d6f756e74000000000000000000000000600082015250565b600061663a601483615895565b915061664582616604565b602082019050919050565b600060208201905081810360008301526166698161662d565b9050919050565b7f496e76616c696420616464726573730000000000000000000000000000000000600082015250565b60006166a6600f83615895565b91506166b182616670565b602082019050919050565b600060208201905081810360008301526166d581616699565b9050919050565b7f556e617574686f72697a6564206163636f756e74000000000000000000000000600082015250565b6000616712601483615895565b915061671d826166dc565b602082019050919050565b6000602082019050818103600083015261674181616705565b9050919050565b7f452d426f6f6b206973206e6f74206c6973746564206f7220736f6c64206f7574600082015250565b600061677e602083615895565b915061678982616748565b602082019050919050565b600060208201905081810360008301526167ad81616771565b9050919050565b7f4e487b7100000000000000000000000000000000000000000000000000000000600052601160045260246000fd5b60006167ee82615517565b91506167f983615517565b9250828203905081811115616811576168106167b4565b5b92915050565b7f457863656564656420616d6f756e7420746f20756e6c69737400000000000000600082015250565b600061684d601983615895565b915061685882616817565b602082019050919050565b6000602082019050818103600083015261687c81616840565b9050919050565b61688c816154d9565b82525050565b60006020820190506168a76000830184616883565b92915050565b7f4e487b7100000000000000000000000000000000000000000000000000000000600052602260045260246000fd5b600060028204905060018216806168f457607f821691505b602082108103616907576169066168ad565b5b50919050565b7f4f7264657220616c6c2066756c66696c6c656400000000000000000000000000600082015250565b6000616943601383615895565b915061694e8261690d565b602082019050919050565b6000602082019050818103600083015261697281616936565b9050919050565b600061698482615517565b91507fffffffffffffffffffffffffffffffffffffffffffffffffffffffffffffffff82036169b6576169b56167b4565b5b600182019050919050565b7f496e73756666696369656e742062616c616e636520746f207472616e73666572600082015250565b60006169f7602083615895565b9150616a02826169c1565b602082019050919050565b60006020820190508181036000830152616a26816169ea565b9050919050565b7f455243313135353a2063616c6c6572206973206e6f7420746f6b656e206f776e60008201527f6572206f7220617070726f766564000000000000000000000000000000000000602082015250565b6000616a89602e83615895565b9150616a9482616a2d565b604082019050919050565b60006020820190508181036000830152616ab881616a7c565b9050919050565b7f416363657373436f6e74726f6c3a2063616e206f6e6c792072656e6f756e636560008201527f20726f6c657320666f722073656c660000000000000000000000000000000000602082015250565b6000616b1b602f83615895565b9150616b2682616abf565b604082019050919050565b60006020820190508181036000830152616b4a81616b0e565b9050919050565b6000616b5d828461650e565b915081905092915050565b7f4e487b7100000000000000000000000000000000000000000000000000000000600052603260045260246000fd5b7f455243313135353a20726576656e75657320616e64206964732f616d6f756e7460008201527f73206c656e677468206d69736d61746368000000000000000000000000000000602082015250565b6000616bf3603183615895565b9150616bfe82616b97565b604082019050919050565b60006020820190508181036000830152616c2281616be6565b9050919050565b7f4275796572206861732064657465726d696e6564000000000000000000000000600082015250565b6000616c5f601483615895565b9150616c6a82616c29565b602082019050919050565b60006020820190508181036000830152616c8e81616c52565b9050919050565b6000604082019050616caa6000830185616883565b616cb76020830184616883565b9392505050565b7f496e73656666696369656e742062616c616e636520746f206c69737400000000600082015250565b6000616cf4601c83615895565b9150616cff82616cbe565b602082019050919050565b60006020820190508181036000830152616d2381616ce7565b9050919050565b6000616d3582615517565b9150616d4083615517565b9250828201905080821115616d5857616d576167b4565b5b92915050565b7f6e6f742062757965720000000000000000000000000000000000000000000000600082015250565b6000616d94600983615895565b9150616d9f82616d5e565b602082019050919050565b60006020820190508181036000830152616dc381616d87565b9050919050565b6000616dd582615517565b9150616de083615517565b9250828202616dee81615517565b91508282048414831517616e0557616e046167b4565b5b5092915050565b7f4e487b7100000000000000000000000000000000000000000000000000000000600052601260045260246000fd5b6000616e4682615517565b9150616e5183615517565b925082616e6157616e60616e0c565b5b828204905092915050565b7f496e73756666696369656e742045746865720000000000000000000000000000600082015250565b6000616ea2601283615895565b9150616ead82616e6c565b602082019050919050565b60006020820190508181036000830152616ed181616e95565b9050919050565b6000616ee382615517565b915060008203616ef657616ef56167b4565b5b600182039050919050565b7f455243313135353a2061646472657373207a65726f206973206e6f742061207660008201527f616c6964206f776e657200000000000000000000000000000000000000000000602082015250565b6000616f5d602a83615895565b9150616f6882616f01565b604082019050919050565b60006020820190508181036000830152616f8c81616f50565b9050919050565b7f5061757361626c653a2070617573656400000000000000000000000000000000600082015250565b6000616fc9601083615895565b9150616fd482616f93565b602082019050919050565b60006020820190508181036000830152616ff881616fbc565b9050919050565b60008190508160005260206000209050919050565b60006020601f8301049050919050565b600082821b905092915050565b6000600883026170617fffffffffffffffffffffffffffffffffffffffffffffffffffffffffffffffff82617024565b61706b8683617024565b95508019841693508086168417925050509392505050565b6000819050919050565b60006170a86170a361709e84615517565b617083565b615517565b9050919050565b6000819050919050565b6170c28361708d565b6170d66170ce826170af565b848454617031565b825550505050565b600090565b6170eb6170de565b6170f68184846170b9565b505050565b5b8181101561711a5761710f6000826170e3565b6001810190506170fc565b5050565b601f82111561715f5761713081616fff565b61713984617014565b81016020851015617148578190505b61715c61715485617014565b8301826170fb565b50505b505050565b600082821c905092915050565b600061718260001984600802617164565b1980831691505092915050565b600061719b8383617171565b9150826002028217905092915050565b6171b48261588a565b67ffffffffffffffff8111156171cd576171cc6155d2565b5b6171d782546168dc565b6171e282828561711e565b600060209050601f8311600181146172155760008415617203578287015190505b61720d858261718f565b865550617275565b601f19841661722386616fff565b60005b8281101561724b57848901518255600182019150602085019450602081019050617226565b868310156172685784890151617264601f891682617171565b8355505b6001600288020188555050505b505050505050565b7f455243313135353a206d696e7420746f20746865207a65726f2061646472657360008201527f7300000000000000000000000000000000000000000000000000000000000000602082015250565b60006172d9602183615895565b91506172e48261727d565b604082019050919050565b60006020820190508181036000830152617308816172cc565b9050919050565b6000604082019050617324600083018561558d565b617331602083018461558d565b9392505050565b7f455243313135353a2069647320616e6420616d6f756e7473206c656e6774682060008201527f6d69736d61746368000000000000000000000000000000000000000000000000602082015250565b6000617394602883615895565b915061739f82617338565b604082019050919050565b600060208201905081810360008301526173c381617387565b9050919050565b7f455243313135353a207472616e7366657220746f20746865207a65726f20616460008201527f6472657373000000000000000000000000000000000000000000000000000000602082015250565b6000617426602583615895565b9150617431826173ca565b604082019050919050565b6000602082019050818103600083015261745581617419565b9050919050565b7f455243313135353a20696e73756666696369656e742062616c616e636520666f60008201527f72207472616e7366657200000000000000000000000000000000000000000000602082015250565b60006174b8602a83615895565b91506174c38261745c565b604082019050919050565b600060208201905081810360008301526174e7816174ab565b9050919050565b60006040820190508181036000830152617508818561603b565b9050818103602083015261751c818461603b565b90509392505050565b7f455243313135353a206163636f756e747320616e6420696473206c656e67746860008201527f206d69736d617463680000000000000000000000000000000000000000000000602082015250565b6000617581602983615895565b915061758c82617525565b604082019050919050565b600060208201905081810360008301526175b081617574565b9050919050565b7f416363657373436f6e74726f6c3a206163636f756e7420000000000000000000600082015250565b60006175ed601783616503565b91506175f8826175b7565b601782019050919050565b7f206973206d697373696e6720726f6c6520000000000000000000000000000000600082015250565b6000617639601183616503565b915061764482617603565b601182019050919050565b600061765a826175e0565b9150617666828561650e565b91506176718261762c565b915061767d828461650e565b91508190509392505050565b7f455243313135353a2073657474696e6720617070726f76616c2073746174757360008201527f20666f722073656c660000000000000000000000000000000000000000000000602082015250565b60006176e5602983615895565b91506176f082617689565b604082019050919050565b60006020820190508181036000830152617714816176d8565b9050919050565b600081519050919050565b600082825260208201905092915050565b60006177428261771b565b61774c8185617726565b935061775c8185602086016158a6565b617765816155c1565b840191505092915050565b600060a0820190506177856000830188616883565b6177926020830187616883565b61779f604083018661558d565b6177ac606083018561558d565b81810360808301526177be8184617737565b90509695505050505050565b6000815190506177d981615785565b92915050565b6000602082840312156177f5576177f46154af565b5b6000617803848285016177ca565b91505092915050565b60008160e01c9050919050565b600060033d11156178385760046000803e61783560005161780c565b90505b90565b600060443d106178c85761784d6154a5565b60043d036004823e80513d602482011167ffffffffffffffff821117156178755750506178c8565b808201805167ffffffffffffffff81111561789357505050506178c8565b80602083010160043d0385018111156178b05750505050506178c8565b6178bf82602001850186615601565b82955050505050505b90565b7f455243313135353a207472616e7366657220746f206e6f6e2d4552433131353560008201527f526563656976657220696d706c656d656e746572000000000000000000000000602082015250565b6000617927603483615895565b9150617932826178cb565b604082019050919050565b600060208201905081810360008301526179568161791a565b9050919050565b7f455243313135353a204552433131353552656365697665722072656a6563746560008201527f6420746f6b656e73000000000000000000000000000000000000000000000000602082015250565b60006179b9602883615895565b91506179c48261795d565b604082019050919050565b600060208201905081810360008301526179e8816179ac565b9050919050565b600060a082019050617a046000830188616883565b617a116020830187616883565b8181036040830152617a23818661603b565b90508181036060830152617a37818561603b565b90508181036080830152617a4b8184617737565b90509695505050505050565b7f5061757361626c653a206e6f7420706175736564000000000000000000000000600082015250565b6000617a8d601483615895565b9150617a9882617a57565b602082019050919050565b60006020820190508181036000830152617abc81617a80565b9050919050565b7f455243313135353a206275726e2066726f6d20746865207a65726f206164647260008201527f6573730000000000000000000000000000000000000000000000000000000000602082015250565b6000617b1f602383615895565b9150617b2a82617ac3565b604082019050919050565b60006020820190508181036000830152617b4e81617b12565b9050919050565b7f455243313135353a206275726e20616d6f756e7420657863656564732062616c60008201527f616e636500000000000000000000000000000000000000000000000000000000602082015250565b6000617bb1602483615895565b9150617bbc82617b55565b604082019050919050565b60006020820190508181036000830152617be081617ba4565b9050919050565b7f537472696e67733a20686578206c656e67746820696e73756666696369656e74600082015250565b6000617c1d602083615895565b9150617c2882617be7565b602082019050919050565b60006020820190508181036000830152617c4c81617c10565b9050919050565b7f455243313135353a206275726e20616d6f756e74206578636565647320746f7460008201527f616c537570706c79000000000000000000000000000000000000000000000000602082015250565b6000617caf602883615895565b9150617cba82617c53565b604082019050919050565b60006020820190508181036000830152617cde81617ca2565b905091905056fea26469706673582212203f084543565d3d83e6f19f076cdf00d847661f3a54210dea994060846dd221f564736f6c63430008130033",
  "immutableReferences": {},
  "source": "// SPDX-License-Identifier: MIT\r\npragma solidity ^0.8.7;\r\n\r\n/*import \"../node_modules/@openzeppelin/contracts-upgradeable/token/ERC1155/ERC1155Upgradeable.sol\";\r\nimport \"../node_modules/@openzeppelin/contracts-upgradeable/access/AccessControlUpgradeable.sol\";\r\nimport \"../node_modules/@openzeppelin/contracts-upgradeable/security/PausableUpgradeable.sol\";\r\nimport \"../node_modules/@openzeppelin/contracts-upgradeable/token/ERC1155/extensions/ERC1155BurnableUpgradeable.sol\";\r\nimport \"../node_modules/@openzeppelin/contracts-upgradeable/token/ERC1155/extensions/ERC1155SupplyUpgradeable.sol\";\r\nimport \"../node_modules/@openzeppelin/contracts-upgradeable/proxy/utils/Initializable.sol\";\r\nimport \"../node_modules/@openzeppelin/contracts-upgradeable/utils/StringsUpgradeable.sol\";*/\r\nimport \"../node_modules/@openzeppelin/contracts/token/ERC1155/ERC1155.sol\";\r\nimport \"../node_modules/@openzeppelin/contracts/access/AccessControl.sol\";\r\nimport \"../node_modules/@openzeppelin/contracts/security/Pausable.sol\";\r\nimport \"../node_modules/@openzeppelin/contracts/token/ERC1155/extensions/ERC1155Burnable.sol\";\r\nimport \"../node_modules/@openzeppelin/contracts/token/ERC1155/extensions/ERC1155Supply.sol\";\r\nimport \"../node_modules/@openzeppelin/contracts/utils/Strings.sol\";\r\nimport \"./Market.sol\";\r\n\r\n/// @custom:security-contact dodo920306@gmail.com\r\ncontract The_Ohara_Protocol is ERC1155, AccessControl, Pausable, ERC1155Burnable, ERC1155Supply {\r\n    \r\n    mapping (uint256 => bytes32) idToPublisher; // Anyone can check which publisher an id belongs to.\r\n    mapping (string => bool) publisherHasMember;\r\n\r\n    struct Listing {\r\n        uint256 price; // \r\n        uint256 listedBalance; // \r\n        uint256 buyerCounts; // \r\n        address[] buyers; // \r\n    }\r\n\r\n    struct RevenueFeeInfo {\r\n        uint256 revenueFeeRate; // \r\n        address publisher; //  mint \r\n    }\r\n    \r\n    mapping (uint256 => mapping (address => Listing)) listings; // id => seller => Listing\r\n    mapping (uint256 => RevenueFeeInfo) publisherRevenueFeeRates; // id => revenue percentage\r\n\r\n    uint16 marketFeeRate = 25;\r\n\r\n    event EBookListed(uint256 indexed id, uint256 indexed amount, uint256 indexed price, address seller);\r\n    event PriceModified(uint256 indexed id, uint256 indexed originalPrice, uint256 indexed currentPrice, address seller, address priceModifier);\r\n    event ListingCancelled(uint256 indexed id, address indexed seller, uint256 indexed removeAmount, address canceller);\r\n    event BuyerDetermined(uint256 indexed id, address indexed seller, address indexed buyer);\r\n    event TransactionMade(uint256 indexed id, address indexed seller, address indexed buyer);\r\n\r\n    modifier isIdExisted(uint256 id) {\r\n        require(super.exists(id), \"Invalid ID\");\r\n        _;\r\n    }\r\n\r\n    modifier IsPriceOrAmountValid(uint256 priceOrAmount) {\r\n        require(priceOrAmount > 0, \"Invalid price/amount\");\r\n        _;\r\n    }\r\n\r\n    modifier isApproved(address seller) {\r\n        require(super.isApprovedForAll(msg.sender, seller) || seller == msg.sender, \"Unauthorized account\");\r\n        _;\r\n    }\r\n\r\n    modifier isAddressValid(address addr) {\r\n        require(addr != address(0), \"Invalid address\");\r\n        _;\r\n    }\r\n\r\n    modifier IsEBookAvailableOnOrder(uint256 id, address seller) {  // /\r\n        require(listings[id][seller].listedBalance > 0, \"E-Book is not listed or sold out\");\r\n        _;\r\n    }\r\n\r\n    // There's no onlyPublisherSingle, for that it basically equals to onlyRole modifier from AccessControl. \r\n    modifier onlyPublisherBatch(uint256[] memory ids) {\r\n        for (uint256 i = 0; i < ids.length; ++i) {\r\n            _checkRole(idToPublisher[ids[i]]);\r\n        }\r\n        _;\r\n    }\r\n\r\n    /// @custom:oz-upgrades-unsafe-allow constructor\r\n    constructor() ERC1155(\"\") {\r\n        _grantRole(DEFAULT_ADMIN_ROLE, msg.sender);\r\n        //_disableInitializers();\r\n    }\r\n\r\n    /*function initialize(address addr) initializer public {\r\n        __ERC1155_init(\"\");\r\n        __AccessControl_init();\r\n        __Pausable_init();\r\n        __ERC1155Burnable_init();\r\n        __ERC1155Supply_init();\r\n\r\n        _grantRole(DEFAULT_ADMIN_ROLE, msg.sender);\r\n        \r\n    }*/\r\n\r\n    function setURI(string memory newuri) public whenNotPaused onlyRole(DEFAULT_ADMIN_ROLE) { // Tim: added whenNotPaused\r\n        _setURI(newuri);\r\n    }\r\n\r\n    // Tim: get the actual e-book uri, may require further modifications\r\n    // Tim: using toString() for getURIOfId()\r\n    using Strings for uint256;   \r\n    function getURIOfId(uint256 id) public view returns(string memory) {\r\n        return string.concat(super.uri(id), \"/\", id.toString());\r\n    }\r\n\r\n    /**\r\n     * @dev The publisher who wants to claim an account belongs to them must use this function\r\n     * with the magic string that represents themselves.\r\n     * \r\n     * The function will uses keccak256 solidity function to hash this string, but before that, it must be represented as bytes32.\r\n     * The type conversion from \"string memory\" to \"bytes32\" isn't allowed, so we use abi.encode() here.\r\n     * See https://ethereum.stackexchange.com/questions/119583/when-to-use-abi-encode-abi-encodepacked-or-abi-encodewithsignature-in-solidity\r\n     * for the reason of this selection.\r\n     * \r\n     * After that, we use grantRole() function from AccessControl,\r\n     * the reason we don't directly use _grantRole() here is because the onlyRole(getRoleAdmin(role)) should also be passed in this operation,\r\n     * and since grantRole() has that modifier originally, the current function doesn't require any modifier yet,\r\n     * and there's no need to be afraid that anyone hash others' magic string and directly call grantRole() because there's no way he/she can be the admin.\r\n     * \r\n     * If it's the first member to be added in the publisher,\r\n     * the msg.sender must be DEFAULT_ADMIN_ROLE to pass onlyRole(getRoleAdmin(role)) for that there's no way to set admin to others.\r\n     * If so, then the function would call _setRoleAdmin() to release the admin power to the publisher itself,\r\n     * indicating that from this point on, only the publisher can manage which accounts can act on its behalf.\r\n     * \r\n     * The only risk would be that a hacker steal one private key from DEFAULT_ADMIN_ROLE,\r\n     * in that case, the worse he/she can do is grant his/her accounts the publisher role that \"hasn't been registered yet\",\r\n     * for that the admins of the publishers already in the protocol can only be themselves.\r\n     * If so, then the publishers register in the future cannot use the same magic string as the hacker granted himself/herself even if they want.\r\n     * (Basically, it's the same idea as \"This username has already been used. Please try another.\",\r\n     * so the power of DEFAULT_ADMIN_ROLE is basically just register publishers and ids.)\r\n     */\r\n    function grantPublisher(string memory publisher, address account) public virtual whenNotPaused { // Tim: added whenNotPaused\r\n        bytes32 role = keccak256(abi.encode(publisher));\r\n        grantRole(role, account);\r\n\r\n        if (!publisherHasMember[publisher]) {\r\n            publisherHasMember[publisher] = true;\r\n            _setRoleAdmin(role, role);\r\n        }\r\n    }\r\n\r\n    /**\r\n     * @dev See the comment of grantPublisher() above for more info about the string publisher and the bytes32 role.\r\n     * Only the old publisher could set the publisher of an id to a new one.\r\n     * Since the default publisher of the id is 0x00, the first publisher of the id must be set by the DEFAULT_ADMIN_ROLE.\r\n     */\r\n    function setIdToPublisher(uint256 id, string memory publisher) //Tim: added whenNotPaused\r\n        public\r\n        whenNotPaused\r\n        onlyRole(idToPublisher[id])\r\n    {\r\n        bytes32 role = keccak256(abi.encode(publisher));\r\n        idToPublisher[id] = role;\r\n    }\r\n\r\n    // Tim: added idExists() to check if an id has existed\r\n    function idExists(uint256 id) public view returns (bool) {\r\n        return super.exists(id);\r\n    }\r\n\r\n    /**\r\n     * @dev See the comment of grantPublisher() above for more info about the string publisher and the bytes32 role.\r\n     * The reason we don't directly call _revokeRole() and the this function is safe is the same reason grantPublisher() doesn't call _grantRole().\r\n     * Use this function to kick someone including msg.sender himself/herself out of the publisher.\r\n     * The function also can only be called by the publisher itself.\r\n     */\r\n    function revokePublisher(string memory publisher, address account) public virtual whenNotPaused { // Tim: added whenNotPaused\r\n        bytes32 role = keccak256(abi.encode(publisher));\r\n        revokeRole(role, account);\r\n    }\r\n\r\n    // Tim: added two functions to call hasRole() & getRoleAdmin(), not sure if thye're needed\r\n    function hasRole(string memory role, address account) public view returns(bool) {\r\n        return super.hasRole(keccak256(abi.encode(role)), account);\r\n    }\r\n\r\n    function getRoleAdmin(string memory role) public view returns(bytes32) {\r\n        return super.getRoleAdmin(keccak256(abi.encode(role)));\r\n    }\r\n\r\n    function pause() public onlyRole(DEFAULT_ADMIN_ROLE) {\r\n        _pause();\r\n    }\r\n\r\n    function unpause() public onlyRole(DEFAULT_ADMIN_ROLE) {\r\n        _unpause();\r\n    }\r\n\r\n    // The publisher of the id would have power to mint the id to whoever they want.\r\n    function mint(address to, uint256 id, uint256 amount, bytes memory data, uint256 revenueRate)\r\n        public\r\n        whenNotPaused\r\n        onlyRole(idToPublisher[id])\r\n    {\r\n        publisherRevenueFeeRates[id].revenueFeeRate = revenueRate;\r\n        publisherRevenueFeeRates[id].publisher = msg.sender;\r\n        _mint(to, id, amount, data);\r\n    }\r\n\r\n    function mintBatch(address to, uint256[] memory ids, uint256[] memory amounts, bytes memory data, uint256[] memory revenueFeeRates)\r\n        public\r\n        whenNotPaused\r\n        onlyPublisherBatch(ids)\r\n    {\r\n        require(revenueFeeRates.length == ids.length && revenueFeeRates.length == amounts.length, \"ERC1155: revenues and ids/amounts length mismatch\");\r\n        for (uint256 i = 0 ; i < ids.length ; ++i) {\r\n            publisherRevenueFeeRates[ids[i]].revenueFeeRate = revenueFeeRates[i];\r\n            publisherRevenueFeeRates[ids[i]].publisher = msg.sender;\r\n        }\r\n        _mintBatch(to, ids, amounts, data);\r\n    }\r\n\r\n    // Tim: added burn() & burnBatch()\r\n    function burn(address from, uint256 id, uint256 amount) public override(ERC1155Burnable) whenNotPaused {\r\n\r\n        require(balanceOf(from, id) - listedBalanceOf(from, id) >= amount); // \r\n\r\n        super.burn(from, id, amount);\r\n    }\r\n\r\n    function burnBatch(address from, uint256[] memory ids, uint256[] memory amounts) public override(ERC1155Burnable) whenNotPaused {\r\n\r\n        for (uint256 i = 0 ; i < ids.length ; ++i) { // \r\n            require(balanceOf(from, ids[i]) - listedBalanceOf(from, ids[i]) >= amounts[i]);\r\n        }\r\n\r\n        super.burnBatch(from, ids, amounts);\r\n    }\r\n\r\n    function _beforeTokenTransfer(address operator, address from, address to, uint256[] memory ids, uint256[] memory amounts, bytes memory data)\r\n        internal\r\n        whenNotPaused\r\n        override(ERC1155, ERC1155Supply)\r\n    {\r\n        \r\n        super._beforeTokenTransfer(operator, from, to, ids, amounts, data);\r\n    }\r\n\r\n    // Tim: added transfer() & transferBatch()\r\n    function transfer(address from, address to, uint256 id, uint256 amount, bytes memory data) public {\r\n        require(balanceOf(from, id) - listedBalanceOf(from, id) >= amount, \"Insufficient balance to transfer\");// \r\n        super.safeTransferFrom(from, to, id, amount, data);\r\n    }\r\n\r\n    function transferBatch(address from, address to, uint256[] memory ids, uint256[] memory amounts, bytes memory data) public {\r\n        for (uint256 i = 0 ; i < ids.length ; ++i) { // \r\n            require(balanceOf(from, ids[i]) - listedBalanceOf(from, ids[i]) >= amounts[i], \"Insufficient balance to transfer\");\r\n        }\r\n        super.safeBatchTransferFrom(from, to, ids, amounts, data);\r\n    }\r\n\r\n    // Tim: added balanceOf() & balanceOfBatch()\r\n    function balanceOf(address account, uint256 id) \r\n        public\r\n        view\r\n        virtual\r\n        override(ERC1155)\r\n        returns(uint256)\r\n    {\r\n        return super.balanceOf(account, id);\r\n    }\r\n\r\n    function balanceOfBatch(address[] memory accounts, uint256[] memory ids)\r\n        public\r\n        view\r\n        virtual\r\n        override(ERC1155)\r\n        returns (uint256[] memory)\r\n    {\r\n        return super.balanceOfBatch(accounts, ids) ;\r\n    }\r\n\r\n    // Tim: added setApprovalForAll() & isApprovedForAll()\r\n    function setApprovalForAll(address operator, bool approved) public override(ERC1155) whenNotPaused {\r\n        super.setApprovalForAll(operator, approved);\r\n    }\r\n\r\n    function isApprovedForAll(address account, address operator) public view override(ERC1155) returns (bool) {\r\n        return super.isApprovedForAll(account, operator);\r\n    }\r\n\r\n    // Tim: added getIdSupply()\r\n    function getIdSupply(uint256 id) public view returns (uint256) {\r\n        return super.totalSupply(id);\r\n    }\r\n\r\n    function changeMarketFee(uint16 newMarketFee) public onlyRole(DEFAULT_ADMIN_ROLE) {\r\n        marketFeeRate = newMarketFee;\r\n    }\r\n/*\r\n    function checkIsBuyer(uint256 id, address seller, address buyer) public returns (int256) {\r\n        (bool ok, bytes memory data) = market.delegatecall(\r\n            abi.encodeWithSignature(\"checkIsBuyer(uint256,address,address)\", id, seller, buyer)\r\n        );\r\n        require(ok);\r\n        return abi.decode(data, (int256));\r\n    }\r\n\r\n    // Tim:  ID \r\n    function listedBalanceOf(address account, uint256 id) public view returns(uint256) {\r\n        return listings[id][account].listedBalance;\r\n    }\r\n\r\n    // Tim: \r\n    function listEBook(uint256 id, address seller, uint256 price, uint256 amount) public {\r\n        (bool ok, ) = market.delegatecall(\r\n            abi.encodeWithSignature(\"listEBook(uint256,address,uint256,uint256)\", id, seller, price, amount)\r\n        );\r\n        require(ok);\r\n    }\r\n\r\n    // Tim: \r\n    function modifyPrice(uint256 id, address seller, uint256 price) public {\r\n        (bool ok, ) = market.delegatecall(\r\n            abi.encodeWithSignature(\"modifyPrice(uint256,address,uint256)\", id, seller, price)\r\n        );\r\n        require(ok);\r\n    }\r\n\r\n    // Tim: \r\n    function cancelListing(uint256 id, address seller, uint256 amount) public {\r\n        (bool ok, ) = market.delegatecall(\r\n            abi.encodeWithSignature(\"cancelListing(uint256,address,uint256)\", id, seller, amount)\r\n        );\r\n        require(ok);\r\n    }\r\n\r\n    // Tim: \r\n    function determineBuyer(address seller, address buyer, uint256 id) public onlyRole(DEFAULT_ADMIN_ROLE) {\r\n        (bool ok, ) = market.delegatecall(\r\n            abi.encodeWithSignature(\"cancelListing(address,address,uint256)\", seller, buyer, id)\r\n        );\r\n        require(ok);\r\n    }\r\n\r\n    // Tim:  buyers \r\n    function purchaseEBook(uint256 id, address seller) public payable {\r\n        int256 index = checkIsBuyer(id, seller, msg.sender);\r\n        (bool ok, ) = market.delegatecall(\r\n            abi.encodeWithSignature(\"purchaseEBook(uint256,address,int256)\", id, seller, index)\r\n        );\r\n        require(ok);\r\n    }\r\n*/\r\n    //  Tim: ( determineBuyer )\r\n    function _grantApprovalToContract(address seller) private {\r\n        super._setApprovalForAll(seller, address(this), true);\r\n    }\r\n\r\n    // Tim: ( purchaseEBook )\r\n    function _revokeApprovalFromContract(address seller) private {\r\n        super._setApprovalForAll(seller, address(this), false);\r\n    }\r\n\r\n    // Tim: \r\n    function checkIsBuyer(uint256 id, address seller, address buyer) public view returns (int256) {\r\n\r\n        uint256 length = listings[id][seller].buyers.length;\r\n        address[] memory buyers = listings[id][seller].buyers;\r\n        \r\n        for (uint256 i = 0 ; i < length ; ++i) {\r\n            if (buyers[i] == buyer) {\r\n                return int256(i);\r\n            }\r\n        }\r\n\r\n        return -1;\r\n    }\r\n\r\n    // Tim:  ID \r\n    function listedBalanceOf(address account, uint256 id) public view virtual returns(uint256) {\r\n        return listings[id][account].listedBalance;\r\n    }\r\n\r\n    // Tim:  ID \r\n    function getPrice(uint256 id, address seller) public view returns (uint256) {\r\n        return listings[id][seller].price;\r\n    }\r\n\r\n    // Tim: \r\n    function listEBook(uint256 id, address seller, uint256 price, uint256 amount) public virtual whenNotPaused isIdExisted(id) IsPriceOrAmountValid(price) IsPriceOrAmountValid(amount) isAddressValid(seller) isApproved(seller) {\r\n        require(balanceOf(seller, id) - listings[id][seller].listedBalance >= amount, \"Insefficient balance to list\"); //  -  >= \r\n\r\n        if (listings[id][seller].buyerCounts == 0) {\r\n            listings[id][seller].price = price;\r\n        }\r\n\r\n        listings[id][seller].listedBalance += amount;\r\n\r\n        emit EBookListed(id, amount, price, seller);\r\n    }\r\n\r\n    // Tim: \r\n    function modifyPrice(uint256 id, address seller, uint256 price) public virtual whenNotPaused isIdExisted(id) IsPriceOrAmountValid(price) isAddressValid(seller) isApproved(seller) IsEBookAvailableOnOrder(id, seller) {\r\n        require(listings[id][seller].buyerCounts == 0, \"Buyer has determined\"); //  determineBuyer\r\n\r\n        uint256 originalPrice = listings[id][seller].price;\r\n        listings[id][seller].price = price;\r\n\r\n        emit PriceModified (id, originalPrice, price, seller, msg.sender);\r\n    }\r\n\r\n    // Tim: \r\n    function cancelListing(uint256 id, address seller, uint256 amount) public virtual whenNotPaused isIdExisted(id) IsPriceOrAmountValid(amount) isAddressValid(seller) isApproved(seller) IsEBookAvailableOnOrder(id, seller) {\r\n        require(listings[id][seller].listedBalance - listings[id][seller].buyerCounts >= amount, \"Exceeded amount to unlist\"); //  >= \r\n\r\n        unchecked {\r\n            listings[id][seller].listedBalance -= amount;\r\n        }\r\n\r\n        if (listings[id][seller].listedBalance == 0) {\r\n            delete listings[id][seller];\r\n        }\r\n\r\n        emit ListingCancelled(id, seller, amount, msg.sender);\r\n    }\r\n\r\n    // Tim: \r\n    function determineBuyer(address seller, address buyer, uint256 id) public virtual whenNotPaused onlyRole(DEFAULT_ADMIN_ROLE) isIdExisted(id) isAddressValid(seller) isAddressValid(buyer) {\r\n        require(listings[id][seller].listedBalance > listings[id][seller].buyerCounts, \"Order all fulfilled\"); // \r\n\r\n        listings[id][seller].buyers.push(buyer);\r\n        \r\n        if (listings[id][seller].buyerCounts == 0) { // \r\n            _grantApprovalToContract(seller);\r\n        }\r\n\r\n        listings[id][seller].buyerCounts ++;\r\n\r\n        emit BuyerDetermined(id, seller, buyer);\r\n    }\r\n\r\n    // Tim:  buyers \r\n    function purchaseEBook(uint256 id, address payable seller) public payable virtual whenNotPaused isIdExisted(id) isAddressValid(seller) IsEBookAvailableOnOrder(id, seller) {\r\n        \r\n        // \r\n        address payable buyer = payable(msg.sender);\r\n        int256 index = checkIsBuyer(id, seller, buyer);\r\n        require(index != -1, \"not buyer\");\r\n\r\n        // \r\n        uint256 price = listings[id][seller].price; // \r\n\r\n        uint256 publisherRevenueFee = price * publisherRevenueFeeRates[id].revenueFeeRate / 1000; //  =  *  / 1000\r\n        uint256 marketFee = price * marketFeeRate / 1000; //  =  *  / 1000\r\n\r\n        uint256 total = price + publisherRevenueFee + marketFee; //  =  +  + \r\n        require(msg.value >= total, \"Insufficient Ether\");\r\n\r\n        // \r\n        super._safeTransferFrom(seller, buyer, id, 1, \"\"); // \r\n        \r\n        seller.transfer(price); // \r\n\r\n        address payable publisher = payable(publisherRevenueFeeRates[id].publisher);\r\n        publisher.transfer(publisherRevenueFee); // \r\n\r\n        if (msg.value - total > 0) { //  ETH \r\n            buyer.transfer(msg.value - total);\r\n        }\r\n\r\n        // \r\n        listings[id][seller].listedBalance --;\r\n        listings[id][seller].buyerCounts --;\r\n        listings[id][seller].buyers[uint256(index)] = address(0);\r\n\r\n        if (listings[id][seller].buyerCounts == 0) { // \r\n            _revokeApprovalFromContract(seller);\r\n        }\r\n\r\n        if (listings[id][seller].listedBalance == 0) { // \r\n            delete listings[id][seller];\r\n        }\r\n\r\n        emit TransactionMade(id, seller, buyer);\r\n    }\r\n\r\n    function supportsInterface(bytes4 interfaceId)\r\n        public\r\n        view\r\n        override(ERC1155, AccessControl)\r\n        returns (bool)\r\n    {\r\n        return super.supportsInterface(interfaceId);\r\n    }\r\n}",
  "sourcePath": "C:\\Users\\TimOu_0911\\Desktop\\The_Ohara_Protocol\\contracts\\The_Ohara_Protocol.sol",
  "compiler": {
    "name": "solc",
    "version": "0.8.19+commit.7dd6d404.Emscripten.clang"
  },
  "schemaVersion": "3.4.13",
  "updatedAt": "2023-07-07T05:41:20.732Z",
  "devdoc": {
    "custom:security-contact": "dodo920306@gmail.com",
    "events": {
      "ApprovalForAll(address,address,bool)": {
        "details": "Emitted when `account` grants or revokes permission to `operator` to transfer their tokens, according to `approved`."
      },
      "Paused(address)": {
        "details": "Emitted when the pause is triggered by `account`."
      },
      "RoleAdminChanged(bytes32,bytes32,bytes32)": {
        "details": "Emitted when `newAdminRole` is set as ``role``'s admin role, replacing `previousAdminRole` `DEFAULT_ADMIN_ROLE` is the starting admin for all roles, despite {RoleAdminChanged} not being emitted signaling this. _Available since v3.1._"
      },
      "RoleGranted(bytes32,address,address)": {
        "details": "Emitted when `account` is granted `role`. `sender` is the account that originated the contract call, an admin role bearer except when using {AccessControl-_setupRole}."
      },
      "RoleRevoked(bytes32,address,address)": {
        "details": "Emitted when `account` is revoked `role`. `sender` is the account that originated the contract call:   - if using `revokeRole`, it is the admin role bearer   - if using `renounceRole`, it is the role bearer (i.e. `account`)"
      },
      "TransferBatch(address,address,address,uint256[],uint256[])": {
        "details": "Equivalent to multiple {TransferSingle} events, where `operator`, `from` and `to` are the same for all transfers."
      },
      "TransferSingle(address,address,address,uint256,uint256)": {
        "details": "Emitted when `value` tokens of token type `id` are transferred from `from` to `to` by `operator`."
      },
      "URI(string,uint256)": {
        "details": "Emitted when the URI for token type `id` changes to `value`, if it is a non-programmatic URI. If an {URI} event was emitted for `id`, the standard https://eips.ethereum.org/EIPS/eip-1155#metadata-extensions[guarantees] that `value` will equal the value returned by {IERC1155MetadataURI-uri}."
      },
      "Unpaused(address)": {
        "details": "Emitted when the pause is lifted by `account`."
      }
    },
    "kind": "dev",
    "methods": {
      "balanceOf(address,uint256)": {
        "details": "See {IERC1155-balanceOf}. Requirements: - `account` cannot be the zero address."
      },
      "balanceOfBatch(address[],uint256[])": {
        "details": "See {IERC1155-balanceOfBatch}. Requirements: - `accounts` and `ids` must have the same length."
      },
      "constructor": {
        "custom:oz-upgrades-unsafe-allow": "constructor"
      },
      "exists(uint256)": {
        "details": "Indicates whether any token exist with a given id, or not."
      },
      "getRoleAdmin(bytes32)": {
        "details": "Returns the admin role that controls `role`. See {grantRole} and {revokeRole}. To change a role's admin, use {_setRoleAdmin}."
      },
      "grantPublisher(string,address)": {
        "details": "The publisher who wants to claim an account belongs to them must use this function with the magic string that represents themselves.  The function will uses keccak256 solidity function to hash this string, but before that, it must be represented as bytes32. The type conversion from \"string memory\" to \"bytes32\" isn't allowed, so we use abi.encode() here. See https://ethereum.stackexchange.com/questions/119583/when-to-use-abi-encode-abi-encodepacked-or-abi-encodewithsignature-in-solidity for the reason of this selection.  After that, we use grantRole() function from AccessControl, the reason we don't directly use _grantRole() here is because the onlyRole(getRoleAdmin(role)) should also be passed in this operation, and since grantRole() has that modifier originally, the current function doesn't require any modifier yet, and there's no need to be afraid that anyone hash others' magic string and directly call grantRole() because there's no way he/she can be the admin.  If it's the first member to be added in the publisher, the msg.sender must be DEFAULT_ADMIN_ROLE to pass onlyRole(getRoleAdmin(role)) for that there's no way to set admin to others. If so, then the function would call _setRoleAdmin() to release the admin power to the publisher itself, indicating that from this point on, only the publisher can manage which accounts can act on its behalf.  The only risk would be that a hacker steal one private key from DEFAULT_ADMIN_ROLE, in that case, the worse he/she can do is grant his/her accounts the publisher role that \"hasn't been registered yet\", for that the admins of the publishers already in the protocol can only be themselves. If so, then the publishers register in the future cannot use the same magic string as the hacker granted himself/herself even if they want. (Basically, it's the same idea as \"This username has already been used. Please try another.\", so the power of DEFAULT_ADMIN_ROLE is basically just register publishers and ids.)"
      },
      "grantRole(bytes32,address)": {
        "details": "Grants `role` to `account`. If `account` had not been already granted `role`, emits a {RoleGranted} event. Requirements: - the caller must have ``role``'s admin role. May emit a {RoleGranted} event."
      },
      "hasRole(bytes32,address)": {
        "details": "Returns `true` if `account` has been granted `role`."
      },
      "isApprovedForAll(address,address)": {
        "details": "See {IERC1155-isApprovedForAll}."
      },
      "paused()": {
        "details": "Returns true if the contract is paused, and false otherwise."
      },
      "renounceRole(bytes32,address)": {
        "details": "Revokes `role` from the calling account. Roles are often managed via {grantRole} and {revokeRole}: this function's purpose is to provide a mechanism for accounts to lose their privileges if they are compromised (such as when a trusted device is misplaced). If the calling account had been revoked `role`, emits a {RoleRevoked} event. Requirements: - the caller must be `account`. May emit a {RoleRevoked} event."
      },
      "revokePublisher(string,address)": {
        "details": "See the comment of grantPublisher() above for more info about the string publisher and the bytes32 role. The reason we don't directly call _revokeRole() and the this function is safe is the same reason grantPublisher() doesn't call _grantRole(). Use this function to kick someone including msg.sender himself/herself out of the publisher. The function also can only be called by the publisher itself."
      },
      "revokeRole(bytes32,address)": {
        "details": "Revokes `role` from `account`. If `account` had been granted `role`, emits a {RoleRevoked} event. Requirements: - the caller must have ``role``'s admin role. May emit a {RoleRevoked} event."
      },
      "safeBatchTransferFrom(address,address,uint256[],uint256[],bytes)": {
        "details": "See {IERC1155-safeBatchTransferFrom}."
      },
      "safeTransferFrom(address,address,uint256,uint256,bytes)": {
        "details": "See {IERC1155-safeTransferFrom}."
      },
      "setApprovalForAll(address,bool)": {
        "details": "See {IERC1155-setApprovalForAll}."
      },
      "setIdToPublisher(uint256,string)": {
        "details": "See the comment of grantPublisher() above for more info about the string publisher and the bytes32 role. Only the old publisher could set the publisher of an id to a new one. Since the default publisher of the id is 0x00, the first publisher of the id must be set by the DEFAULT_ADMIN_ROLE."
      },
      "totalSupply(uint256)": {
        "details": "Total amount of tokens in with a given id."
      },
      "uri(uint256)": {
        "details": "See {IERC1155MetadataURI-uri}. This implementation returns the same URI for *all* token types. It relies on the token type ID substitution mechanism https://eips.ethereum.org/EIPS/eip-1155#metadata[defined in the EIP]. Clients calling this function must replace the `\\{id\\}` substring with the actual token type ID."
      }
    },
    "version": 1
  },
  "userdoc": {
    "kind": "user",
    "methods": {},
    "version": 1
  }
}