{
  "contractName": "The_Ohara_Protocol",
  "abi": [
    {
      "inputs": [
        {
          "internalType": "address",
          "name": "addr",
          "type": "address"
        }
      ],
      "stateMutability": "nonpayable",
      "type": "constructor"
    },
    {
      "anonymous": false,
      "inputs": [
        {
          "indexed": true,
          "internalType": "address",
          "name": "account",
          "type": "address"
        },
        {
          "indexed": true,
          "internalType": "address",
          "name": "operator",
          "type": "address"
        },
        {
          "indexed": false,
          "internalType": "bool",
          "name": "approved",
          "type": "bool"
        }
      ],
      "name": "ApprovalForAll",
      "type": "event"
    },
    {
      "anonymous": false,
      "inputs": [
        {
          "indexed": true,
          "internalType": "uint256",
          "name": "id",
          "type": "uint256"
        },
        {
          "indexed": true,
          "internalType": "address",
          "name": "seller",
          "type": "address"
        },
        {
          "indexed": true,
          "internalType": "address",
          "name": "buyer",
          "type": "address"
        }
      ],
      "name": "BuyerDetermined",
      "type": "event"
    },
    {
      "anonymous": false,
      "inputs": [
        {
          "indexed": true,
          "internalType": "uint256",
          "name": "id",
          "type": "uint256"
        },
        {
          "indexed": true,
          "internalType": "address",
          "name": "seller",
          "type": "address"
        },
        {
          "indexed": true,
          "internalType": "uint256",
          "name": "price",
          "type": "uint256"
        },
        {
          "indexed": false,
          "internalType": "uint256",
          "name": "amount",
          "type": "uint256"
        }
      ],
      "name": "EBookListed",
      "type": "event"
    },
    {
      "anonymous": false,
      "inputs": [
        {
          "indexed": true,
          "internalType": "uint256",
          "name": "id",
          "type": "uint256"
        },
        {
          "indexed": true,
          "internalType": "address",
          "name": "seller",
          "type": "address"
        },
        {
          "indexed": true,
          "internalType": "address",
          "name": "canceller",
          "type": "address"
        }
      ],
      "name": "ListingCancelled",
      "type": "event"
    },
    {
      "anonymous": false,
      "inputs": [
        {
          "indexed": false,
          "internalType": "address",
          "name": "account",
          "type": "address"
        }
      ],
      "name": "Paused",
      "type": "event"
    },
    {
      "anonymous": false,
      "inputs": [
        {
          "indexed": true,
          "internalType": "uint256",
          "name": "id",
          "type": "uint256"
        },
        {
          "indexed": false,
          "internalType": "address",
          "name": "priceModifier",
          "type": "address"
        },
        {
          "indexed": true,
          "internalType": "uint256",
          "name": "originalPrice",
          "type": "uint256"
        },
        {
          "indexed": true,
          "internalType": "uint256",
          "name": "currentPrice",
          "type": "uint256"
        }
      ],
      "name": "PriceModified",
      "type": "event"
    },
    {
      "anonymous": false,
      "inputs": [
        {
          "indexed": true,
          "internalType": "bytes32",
          "name": "role",
          "type": "bytes32"
        },
        {
          "indexed": true,
          "internalType": "bytes32",
          "name": "previousAdminRole",
          "type": "bytes32"
        },
        {
          "indexed": true,
          "internalType": "bytes32",
          "name": "newAdminRole",
          "type": "bytes32"
        }
      ],
      "name": "RoleAdminChanged",
      "type": "event"
    },
    {
      "anonymous": false,
      "inputs": [
        {
          "indexed": true,
          "internalType": "bytes32",
          "name": "role",
          "type": "bytes32"
        },
        {
          "indexed": true,
          "internalType": "address",
          "name": "account",
          "type": "address"
        },
        {
          "indexed": true,
          "internalType": "address",
          "name": "sender",
          "type": "address"
        }
      ],
      "name": "RoleGranted",
      "type": "event"
    },
    {
      "anonymous": false,
      "inputs": [
        {
          "indexed": true,
          "internalType": "bytes32",
          "name": "role",
          "type": "bytes32"
        },
        {
          "indexed": true,
          "internalType": "address",
          "name": "account",
          "type": "address"
        },
        {
          "indexed": true,
          "internalType": "address",
          "name": "sender",
          "type": "address"
        }
      ],
      "name": "RoleRevoked",
      "type": "event"
    },
    {
      "anonymous": false,
      "inputs": [
        {
          "indexed": true,
          "internalType": "address",
          "name": "seller",
          "type": "address"
        },
        {
          "indexed": true,
          "internalType": "address",
          "name": "buyer",
          "type": "address"
        },
        {
          "indexed": true,
          "internalType": "uint256",
          "name": "id",
          "type": "uint256"
        }
      ],
      "name": "TransactionMade",
      "type": "event"
    },
    {
      "anonymous": false,
      "inputs": [
        {
          "indexed": true,
          "internalType": "address",
          "name": "operator",
          "type": "address"
        },
        {
          "indexed": true,
          "internalType": "address",
          "name": "from",
          "type": "address"
        },
        {
          "indexed": true,
          "internalType": "address",
          "name": "to",
          "type": "address"
        },
        {
          "indexed": false,
          "internalType": "uint256[]",
          "name": "ids",
          "type": "uint256[]"
        },
        {
          "indexed": false,
          "internalType": "uint256[]",
          "name": "values",
          "type": "uint256[]"
        }
      ],
      "name": "TransferBatch",
      "type": "event"
    },
    {
      "anonymous": false,
      "inputs": [
        {
          "indexed": true,
          "internalType": "address",
          "name": "operator",
          "type": "address"
        },
        {
          "indexed": true,
          "internalType": "address",
          "name": "from",
          "type": "address"
        },
        {
          "indexed": true,
          "internalType": "address",
          "name": "to",
          "type": "address"
        },
        {
          "indexed": false,
          "internalType": "uint256",
          "name": "id",
          "type": "uint256"
        },
        {
          "indexed": false,
          "internalType": "uint256",
          "name": "value",
          "type": "uint256"
        }
      ],
      "name": "TransferSingle",
      "type": "event"
    },
    {
      "anonymous": false,
      "inputs": [
        {
          "indexed": false,
          "internalType": "string",
          "name": "value",
          "type": "string"
        },
        {
          "indexed": true,
          "internalType": "uint256",
          "name": "id",
          "type": "uint256"
        }
      ],
      "name": "URI",
      "type": "event"
    },
    {
      "anonymous": false,
      "inputs": [
        {
          "indexed": false,
          "internalType": "address",
          "name": "account",
          "type": "address"
        }
      ],
      "name": "Unpaused",
      "type": "event"
    },
    {
      "inputs": [],
      "name": "DEFAULT_ADMIN_ROLE",
      "outputs": [
        {
          "internalType": "bytes32",
          "name": "",
          "type": "bytes32"
        }
      ],
      "stateMutability": "view",
      "type": "function"
    },
    {
      "inputs": [
        {
          "internalType": "uint256",
          "name": "id",
          "type": "uint256"
        }
      ],
      "name": "exists",
      "outputs": [
        {
          "internalType": "bool",
          "name": "",
          "type": "bool"
        }
      ],
      "stateMutability": "view",
      "type": "function"
    },
    {
      "inputs": [
        {
          "internalType": "bytes32",
          "name": "role",
          "type": "bytes32"
        }
      ],
      "name": "getRoleAdmin",
      "outputs": [
        {
          "internalType": "bytes32",
          "name": "",
          "type": "bytes32"
        }
      ],
      "stateMutability": "view",
      "type": "function"
    },
    {
      "inputs": [
        {
          "internalType": "bytes32",
          "name": "role",
          "type": "bytes32"
        },
        {
          "internalType": "address",
          "name": "account",
          "type": "address"
        }
      ],
      "name": "grantRole",
      "outputs": [],
      "stateMutability": "nonpayable",
      "type": "function"
    },
    {
      "inputs": [
        {
          "internalType": "bytes32",
          "name": "role",
          "type": "bytes32"
        },
        {
          "internalType": "address",
          "name": "account",
          "type": "address"
        }
      ],
      "name": "hasRole",
      "outputs": [
        {
          "internalType": "bool",
          "name": "",
          "type": "bool"
        }
      ],
      "stateMutability": "view",
      "type": "function"
    },
    {
      "inputs": [],
      "name": "paused",
      "outputs": [
        {
          "internalType": "bool",
          "name": "",
          "type": "bool"
        }
      ],
      "stateMutability": "view",
      "type": "function"
    },
    {
      "inputs": [
        {
          "internalType": "bytes32",
          "name": "role",
          "type": "bytes32"
        },
        {
          "internalType": "address",
          "name": "account",
          "type": "address"
        }
      ],
      "name": "renounceRole",
      "outputs": [],
      "stateMutability": "nonpayable",
      "type": "function"
    },
    {
      "inputs": [
        {
          "internalType": "bytes32",
          "name": "role",
          "type": "bytes32"
        },
        {
          "internalType": "address",
          "name": "account",
          "type": "address"
        }
      ],
      "name": "revokeRole",
      "outputs": [],
      "stateMutability": "nonpayable",
      "type": "function"
    },
    {
      "inputs": [
        {
          "internalType": "address",
          "name": "from",
          "type": "address"
        },
        {
          "internalType": "address",
          "name": "to",
          "type": "address"
        },
        {
          "internalType": "uint256[]",
          "name": "ids",
          "type": "uint256[]"
        },
        {
          "internalType": "uint256[]",
          "name": "amounts",
          "type": "uint256[]"
        },
        {
          "internalType": "bytes",
          "name": "data",
          "type": "bytes"
        }
      ],
      "name": "safeBatchTransferFrom",
      "outputs": [],
      "stateMutability": "nonpayable",
      "type": "function"
    },
    {
      "inputs": [
        {
          "internalType": "address",
          "name": "from",
          "type": "address"
        },
        {
          "internalType": "address",
          "name": "to",
          "type": "address"
        },
        {
          "internalType": "uint256",
          "name": "id",
          "type": "uint256"
        },
        {
          "internalType": "uint256",
          "name": "amount",
          "type": "uint256"
        },
        {
          "internalType": "bytes",
          "name": "data",
          "type": "bytes"
        }
      ],
      "name": "safeTransferFrom",
      "outputs": [],
      "stateMutability": "nonpayable",
      "type": "function"
    },
    {
      "inputs": [
        {
          "internalType": "uint256",
          "name": "id",
          "type": "uint256"
        }
      ],
      "name": "totalSupply",
      "outputs": [
        {
          "internalType": "uint256",
          "name": "",
          "type": "uint256"
        }
      ],
      "stateMutability": "view",
      "type": "function"
    },
    {
      "inputs": [
        {
          "internalType": "uint256",
          "name": "",
          "type": "uint256"
        }
      ],
      "name": "uri",
      "outputs": [
        {
          "internalType": "string",
          "name": "",
          "type": "string"
        }
      ],
      "stateMutability": "view",
      "type": "function"
    },
    {
      "inputs": [
        {
          "internalType": "string",
          "name": "newuri",
          "type": "string"
        }
      ],
      "name": "setURI",
      "outputs": [],
      "stateMutability": "nonpayable",
      "type": "function"
    },
    {
      "inputs": [
        {
          "internalType": "uint256",
          "name": "id",
          "type": "uint256"
        }
      ],
      "name": "getURIOfId",
      "outputs": [
        {
          "internalType": "string",
          "name": "",
          "type": "string"
        }
      ],
      "stateMutability": "view",
      "type": "function"
    },
    {
      "inputs": [
        {
          "internalType": "string",
          "name": "publisher",
          "type": "string"
        },
        {
          "internalType": "address",
          "name": "account",
          "type": "address"
        }
      ],
      "name": "grantPublisher",
      "outputs": [],
      "stateMutability": "nonpayable",
      "type": "function"
    },
    {
      "inputs": [
        {
          "internalType": "uint256",
          "name": "id",
          "type": "uint256"
        },
        {
          "internalType": "string",
          "name": "publisher",
          "type": "string"
        }
      ],
      "name": "setIdToPublisher",
      "outputs": [],
      "stateMutability": "nonpayable",
      "type": "function"
    },
    {
      "inputs": [
        {
          "internalType": "uint256",
          "name": "id",
          "type": "uint256"
        }
      ],
      "name": "idExists",
      "outputs": [
        {
          "internalType": "bool",
          "name": "",
          "type": "bool"
        }
      ],
      "stateMutability": "view",
      "type": "function"
    },
    {
      "inputs": [
        {
          "internalType": "string",
          "name": "publisher",
          "type": "string"
        },
        {
          "internalType": "address",
          "name": "account",
          "type": "address"
        }
      ],
      "name": "revokePublisher",
      "outputs": [],
      "stateMutability": "nonpayable",
      "type": "function"
    },
    {
      "inputs": [],
      "name": "pause",
      "outputs": [],
      "stateMutability": "nonpayable",
      "type": "function"
    },
    {
      "inputs": [],
      "name": "unpause",
      "outputs": [],
      "stateMutability": "nonpayable",
      "type": "function"
    },
    {
      "inputs": [
        {
          "internalType": "address",
          "name": "to",
          "type": "address"
        },
        {
          "internalType": "uint256",
          "name": "id",
          "type": "uint256"
        },
        {
          "internalType": "uint256",
          "name": "amount",
          "type": "uint256"
        },
        {
          "internalType": "bytes",
          "name": "data",
          "type": "bytes"
        }
      ],
      "name": "mint",
      "outputs": [],
      "stateMutability": "nonpayable",
      "type": "function"
    },
    {
      "inputs": [
        {
          "internalType": "address",
          "name": "to",
          "type": "address"
        },
        {
          "internalType": "uint256[]",
          "name": "ids",
          "type": "uint256[]"
        },
        {
          "internalType": "uint256[]",
          "name": "amounts",
          "type": "uint256[]"
        },
        {
          "internalType": "bytes",
          "name": "data",
          "type": "bytes"
        }
      ],
      "name": "mintBatch",
      "outputs": [],
      "stateMutability": "nonpayable",
      "type": "function"
    },
    {
      "inputs": [
        {
          "internalType": "address",
          "name": "from",
          "type": "address"
        },
        {
          "internalType": "uint256",
          "name": "id",
          "type": "uint256"
        },
        {
          "internalType": "uint256",
          "name": "amount",
          "type": "uint256"
        }
      ],
      "name": "burn",
      "outputs": [],
      "stateMutability": "nonpayable",
      "type": "function"
    },
    {
      "inputs": [
        {
          "internalType": "address",
          "name": "from",
          "type": "address"
        },
        {
          "internalType": "uint256[]",
          "name": "ids",
          "type": "uint256[]"
        },
        {
          "internalType": "uint256[]",
          "name": "amounts",
          "type": "uint256[]"
        }
      ],
      "name": "burnBatch",
      "outputs": [],
      "stateMutability": "nonpayable",
      "type": "function"
    },
    {
      "inputs": [
        {
          "internalType": "address",
          "name": "from",
          "type": "address"
        },
        {
          "internalType": "address",
          "name": "to",
          "type": "address"
        },
        {
          "internalType": "uint256",
          "name": "id",
          "type": "uint256"
        },
        {
          "internalType": "uint256",
          "name": "amount",
          "type": "uint256"
        },
        {
          "internalType": "bytes",
          "name": "data",
          "type": "bytes"
        }
      ],
      "name": "transfer",
      "outputs": [],
      "stateMutability": "nonpayable",
      "type": "function"
    },
    {
      "inputs": [
        {
          "internalType": "address",
          "name": "from",
          "type": "address"
        },
        {
          "internalType": "address",
          "name": "to",
          "type": "address"
        },
        {
          "internalType": "uint256[]",
          "name": "ids",
          "type": "uint256[]"
        },
        {
          "internalType": "uint256[]",
          "name": "amounts",
          "type": "uint256[]"
        },
        {
          "internalType": "bytes",
          "name": "data",
          "type": "bytes"
        }
      ],
      "name": "transferBatch",
      "outputs": [],
      "stateMutability": "nonpayable",
      "type": "function"
    },
    {
      "inputs": [
        {
          "internalType": "address",
          "name": "account",
          "type": "address"
        },
        {
          "internalType": "uint256",
          "name": "id",
          "type": "uint256"
        }
      ],
      "name": "balanceOf",
      "outputs": [
        {
          "internalType": "uint256",
          "name": "",
          "type": "uint256"
        }
      ],
      "stateMutability": "view",
      "type": "function"
    },
    {
      "inputs": [
        {
          "internalType": "address[]",
          "name": "accounts",
          "type": "address[]"
        },
        {
          "internalType": "uint256[]",
          "name": "ids",
          "type": "uint256[]"
        }
      ],
      "name": "balanceOfBatch",
      "outputs": [
        {
          "internalType": "uint256[]",
          "name": "",
          "type": "uint256[]"
        }
      ],
      "stateMutability": "view",
      "type": "function"
    },
    {
      "inputs": [
        {
          "internalType": "address",
          "name": "operator",
          "type": "address"
        },
        {
          "internalType": "bool",
          "name": "approved",
          "type": "bool"
        }
      ],
      "name": "setApprovalForAll",
      "outputs": [],
      "stateMutability": "nonpayable",
      "type": "function"
    },
    {
      "inputs": [
        {
          "internalType": "address",
          "name": "account",
          "type": "address"
        },
        {
          "internalType": "address",
          "name": "operator",
          "type": "address"
        }
      ],
      "name": "isApprovedForAll",
      "outputs": [
        {
          "internalType": "bool",
          "name": "",
          "type": "bool"
        }
      ],
      "stateMutability": "view",
      "type": "function"
    },
    {
      "inputs": [
        {
          "internalType": "uint256",
          "name": "id",
          "type": "uint256"
        }
      ],
      "name": "getIdSupply",
      "outputs": [
        {
          "internalType": "uint256",
          "name": "",
          "type": "uint256"
        }
      ],
      "stateMutability": "view",
      "type": "function"
    },
    {
      "inputs": [
        {
          "internalType": "address",
          "name": "newAddr",
          "type": "address"
        }
      ],
      "name": "changeMarketAddr",
      "outputs": [],
      "stateMutability": "nonpayable",
      "type": "function"
    },
    {
      "inputs": [
        {
          "internalType": "uint256",
          "name": "id",
          "type": "uint256"
        },
        {
          "internalType": "address",
          "name": "seller",
          "type": "address"
        },
        {
          "internalType": "address",
          "name": "buyer",
          "type": "address"
        }
      ],
      "name": "checkIsBuyer",
      "outputs": [
        {
          "internalType": "int256",
          "name": "",
          "type": "int256"
        }
      ],
      "stateMutability": "view",
      "type": "function"
    },
    {
      "inputs": [
        {
          "internalType": "address",
          "name": "account",
          "type": "address"
        },
        {
          "internalType": "uint256",
          "name": "id",
          "type": "uint256"
        }
      ],
      "name": "listedBalanceOf",
      "outputs": [
        {
          "internalType": "uint256",
          "name": "",
          "type": "uint256"
        }
      ],
      "stateMutability": "view",
      "type": "function"
    },
    {
      "inputs": [
        {
          "internalType": "uint256",
          "name": "id",
          "type": "uint256"
        },
        {
          "internalType": "address",
          "name": "seller",
          "type": "address"
        },
        {
          "internalType": "uint256",
          "name": "price",
          "type": "uint256"
        },
        {
          "internalType": "uint256",
          "name": "amount",
          "type": "uint256"
        }
      ],
      "name": "listEBook",
      "outputs": [],
      "stateMutability": "nonpayable",
      "type": "function"
    },
    {
      "inputs": [
        {
          "internalType": "uint256",
          "name": "id",
          "type": "uint256"
        },
        {
          "internalType": "address",
          "name": "seller",
          "type": "address"
        },
        {
          "internalType": "uint256",
          "name": "price",
          "type": "uint256"
        }
      ],
      "name": "modifyPrice",
      "outputs": [],
      "stateMutability": "nonpayable",
      "type": "function"
    },
    {
      "inputs": [
        {
          "internalType": "uint256",
          "name": "id",
          "type": "uint256"
        },
        {
          "internalType": "address",
          "name": "seller",
          "type": "address"
        },
        {
          "internalType": "uint256",
          "name": "amount",
          "type": "uint256"
        }
      ],
      "name": "cancelListing",
      "outputs": [],
      "stateMutability": "nonpayable",
      "type": "function"
    },
    {
      "inputs": [
        {
          "internalType": "address",
          "name": "seller",
          "type": "address"
        },
        {
          "internalType": "address",
          "name": "buyer",
          "type": "address"
        },
        {
          "internalType": "uint256",
          "name": "id",
          "type": "uint256"
        }
      ],
      "name": "determineBuyer",
      "outputs": [],
      "stateMutability": "nonpayable",
      "type": "function"
    },
    {
      "inputs": [
        {
          "internalType": "uint256",
          "name": "id",
          "type": "uint256"
        },
        {
          "internalType": "address",
          "name": "seller",
          "type": "address"
        },
        {
          "internalType": "int256",
          "name": "index",
          "type": "int256"
        }
      ],
      "name": "purchaseEBook",
      "outputs": [],
      "stateMutability": "nonpayable",
      "type": "function"
    },
    {
      "inputs": [
        {
          "internalType": "bytes4",
          "name": "interfaceId",
          "type": "bytes4"
        }
      ],
      "name": "supportsInterface",
      "outputs": [
        {
          "internalType": "bool",
          "name": "",
          "type": "bool"
        }
      ],
      "stateMutability": "view",
      "type": "function"
    }
  ],
  "bytecode": "0x60806040523480156200001157600080fd5b5060405162007b1438038062007b148339818101604052810190620000379190620002b5565b604051806020016040528060008152506200005881620000d160201b60201c565b506000600460006101000a81548160ff02191690831515021790555080600960006101000a81548173ffffffffffffffffffffffffffffffffffffffff021916908373ffffffffffffffffffffffffffffffffffffffff160217905550620000ca6000801b33620000e660201b60201c565b5062000648565b8060029081620000e2919062000561565b5050565b620000f88282620001d860201b60201c565b620001d45760016003600084815260200190815260200160002060000160008373ffffffffffffffffffffffffffffffffffffffff1673ffffffffffffffffffffffffffffffffffffffff16815260200190815260200160002060006101000a81548160ff021916908315150217905550620001796200024360201b60201c565b73ffffffffffffffffffffffffffffffffffffffff168173ffffffffffffffffffffffffffffffffffffffff16837f2f8788117e7eff1d82e926ec794901d17c78024a50270940304540a733656f0d60405160405180910390a45b5050565b60006003600084815260200190815260200160002060000160008373ffffffffffffffffffffffffffffffffffffffff1673ffffffffffffffffffffffffffffffffffffffff16815260200190815260200160002060009054906101000a900460ff16905092915050565b600033905090565b600080fd5b600073ffffffffffffffffffffffffffffffffffffffff82169050919050565b60006200027d8262000250565b9050919050565b6200028f8162000270565b81146200029b57600080fd5b50565b600081519050620002af8162000284565b92915050565b600060208284031215620002ce57620002cd6200024b565b5b6000620002de848285016200029e565b91505092915050565b600081519050919050565b7f4e487b7100000000000000000000000000000000000000000000000000000000600052604160045260246000fd5b7f4e487b7100000000000000000000000000000000000000000000000000000000600052602260045260246000fd5b600060028204905060018216806200036957607f821691505b6020821081036200037f576200037e62000321565b5b50919050565b60008190508160005260206000209050919050565b60006020601f8301049050919050565b600082821b905092915050565b600060088302620003e97fffffffffffffffffffffffffffffffffffffffffffffffffffffffffffffffff82620003aa565b620003f58683620003aa565b95508019841693508086168417925050509392505050565b6000819050919050565b6000819050919050565b6000620004426200043c62000436846200040d565b62000417565b6200040d565b9050919050565b6000819050919050565b6200045e8362000421565b620004766200046d8262000449565b848454620003b7565b825550505050565b600090565b6200048d6200047e565b6200049a81848462000453565b505050565b5b81811015620004c257620004b660008262000483565b600181019050620004a0565b5050565b601f8211156200051157620004db8162000385565b620004e6846200039a565b81016020851015620004f6578190505b6200050e62000505856200039a565b8301826200049f565b50505b505050565b600082821c905092915050565b6000620005366000198460080262000516565b1980831691505092915050565b600062000551838362000523565b9150826002028217905092915050565b6200056c82620002e7565b67ffffffffffffffff811115620005885762000587620002f2565b5b62000594825462000350565b620005a1828285620004c6565b600060209050601f831160018114620005d95760008415620005c4578287015190505b620005d0858262000543565b86555062000640565b601f198416620005e98662000385565b60005b828110156200061357848901518255600182019150602085019450602081019050620005ec565b868310156200063357848901516200062f601f89168262000523565b8355505b6001600288020188555050505b505050505050565b6174bc80620006586000396000f3fe608060405234801561001057600080fd5b50600436106102475760003560e01c80635a9807be1161013b578063a217fddf116100b8578063d547741f1161007c578063d547741f146106f0578063e3579fc51461070c578063e985e9c51461073c578063f242432a1461076c578063f5298aca1461078857610247565b8063a217fddf1461064e578063a22cb4651461066c578063a9171a7214610688578063bd85b039146106a4578063bf99830e146106d457610247565b8063731133e9116100ff578063731133e9146105c05780638437ed86146105dc5780638456cb59146105f85780638ad094b51461060257806391d148541461061e57610247565b80635a9807be1461050a5780635c975abb1461053a5780635ebb6365146105585780636b20c454146105885780636fcfcb66146105a457610247565b80631286c46d116101c957806336568abe1161018d57806336568abe146104685780633f4ba83a146104845780634e1273f41461048e5780634f558e79146104be57806352509e97146104ee57610247565b80631286c46d146103c85780631f7fdffa146103e4578063248a9ca3146104005780632eb2c2d6146104305780632f2ff15d1461044c57610247565b80630b8a295a116102105780630b8a295a146103145780630c834143146103445780630e89341c146103605780630ef5e26714610390578063127217d6146103ac57610247565b8062fdd58e1461024c57806301ad63bd1461027c57806301ffc9a71461029857806302fe5305146102c85780630807a3bd146102e4575b600080fd5b61026660048036038101906102619190614e20565b6107a4565b6040516102739190614e6f565b60405180910390f35b61029660048036038101906102919190614fd0565b6107b8565b005b6102b260048036038101906102ad9190615084565b610826565b6040516102bf91906150cc565b60405180910390f35b6102e260048036038101906102dd91906150e7565b610838565b005b6102fe60048036038101906102f99190615130565b61085a565b60405161030b91906151dc565b60405180910390f35b61032e60048036038101906103299190615130565b610895565b60405161033b91906150cc565b60405180910390f35b61035e600480360381019061035991906151fe565b6108a7565b005b61037a60048036038101906103759190615130565b610d20565b60405161038791906151dc565b60405180910390f35b6103aa60048036038101906103a59190615251565b610db4565b005b6103c660048036038101906103c19190615345565b6111c0565b005b6103e260048036038101906103dd91906153dc565b6111d4565b005b6103fe60048036038101906103f99190615500565b611216565b005b61041a600480360381019061041591906155f1565b611286565b604051610427919061562d565b60405180910390f35b61044a60048036038101906104459190615648565b6112a6565b005b61046660048036038101906104619190615717565b611347565b005b610482600480360381019061047d9190615717565b611368565b005b61048c6113eb565b005b6104a860048036038101906104a3919061581a565b611403565b6040516104b59190615950565b60405180910390f35b6104d860048036038101906104d39190615130565b611417565b6040516104e591906150cc565b60405180910390f35b610508600480360381019061050391906153dc565b61142b565b005b610524600480360381019061051f9190615130565b6114df565b6040516105319190614e6f565b60405180910390f35b6105426114f1565b60405161054f91906150cc565b60405180910390f35b610572600480360381019061056d9190614e20565b611508565b60405161057f9190614e6f565b60405180910390f35b6105a2600480360381019061059d9190615972565b611566565b005b6105be60048036038101906105b99190615648565b611614565b005b6105da60048036038101906105d591906159fd565b611628565b005b6105f660048036038101906105f19190615ab6565b611660565b005b610600611c84565b005b61061c600480360381019061061791906151fe565b611c9c565b005b61063860048036038101906106339190615717565b61200f565b60405161064591906150cc565b60405180910390f35b61065661207a565b604051610663919061562d565b60405180910390f35b61068660048036038101906106819190615b35565b612081565b005b6106a2600480360381019061069d9190615b75565b612097565b005b6106be60048036038101906106b99190615130565b61244d565b6040516106cb9190614e6f565b60405180910390f35b6106ee60048036038101906106e99190615bdc565b61246a565b005b61070a60048036038101906107059190615717565b6124bc565b005b61072660048036038101906107219190615c09565b6124dd565b6040516107339190615c6b565b60405180910390f35b61075660048036038101906107519190615c86565b6126b7565b60405161076391906150cc565b60405180910390f35b61078660048036038101906107819190615345565b6126cb565b005b6107a2600480360381019061079d9190615cc6565b61276c565b005b60006107b083836127ae565b905092915050565b6107c0612876565b60066000838152602001908152602001600020546107dd816128c0565b6000826040516020016107f091906151dc565b60405160208183030381529060405280519060200120905080600660008681526020019081526020016000208190555050505050565b6000610831826128d4565b9050919050565b610840612876565b6000801b61084d816128c0565b6108568261294e565b5050565b606061086582610d20565b61086e83612961565b60405160200161087f929190615d7b565b6040516020818303038152906040529050919050565b60006108a082611417565b9050919050565b6108af612876565b826108b981611417565b6108f8576040517f08c379a00000000000000000000000000000000000000000000000000000000081526004016108ef90615dfa565b60405180910390fd5b816000811161093c576040517f08c379a000000000000000000000000000000000000000000000000000000000815260040161093390615e66565b60405180910390fd5b83600073ffffffffffffffffffffffffffffffffffffffff168173ffffffffffffffffffffffffffffffffffffffff16036109ac576040517f08c379a00000000000000000000000000000000000000000000000000000000081526004016109a390615ed2565b60405180910390fd5b846109b73382612a2f565b6109f6576040517f08c379a00000000000000000000000000000000000000000000000000000000081526004016109ed90615f3e565b60405180910390fd5b868660006008600084815260200190815260200160002060008373ffffffffffffffffffffffffffffffffffffffff1673ffffffffffffffffffffffffffffffffffffffff1681526020019081526020016000206001015411610a8e576040517f08c379a0000000000000000000000000000000000000000000000000000000008152600401610a8590615faa565b60405180910390fd5b86600860008b815260200190815260200160002060008a73ffffffffffffffffffffffffffffffffffffffff1673ffffffffffffffffffffffffffffffffffffffff16815260200190815260200160002060020154600860008c815260200190815260200160002060008b73ffffffffffffffffffffffffffffffffffffffff1673ffffffffffffffffffffffffffffffffffffffff16815260200190815260200160002060010154610b419190615ff9565b1015610b82576040517f08c379a0000000000000000000000000000000000000000000000000000000008152600401610b7990616079565b60405180910390fd5b86600860008b815260200190815260200160002060008a73ffffffffffffffffffffffffffffffffffffffff1673ffffffffffffffffffffffffffffffffffffffff168152602001908152602001600020600101600082825403925050819055506000600860008b815260200190815260200160002060008a73ffffffffffffffffffffffffffffffffffffffff1673ffffffffffffffffffffffffffffffffffffffff1681526020019081526020016000206001015403610cba57600860008a815260200190815260200160002060008973ffffffffffffffffffffffffffffffffffffffff1673ffffffffffffffffffffffffffffffffffffffff16815260200190815260200160002060008082016000905560018201600090556002820160009055600382016000610cb79190614d3a565b50505b3373ffffffffffffffffffffffffffffffffffffffff168873ffffffffffffffffffffffffffffffffffffffff168a7f6cf8b4e3257a9e5cadb99e5e7422bd64237d03982ae538bd0ea7b2b45c92c03c60405160405180910390a4505050505050505050565b606060028054610d2f906160c8565b80601f0160208091040260200160405190810160405280929190818152602001828054610d5b906160c8565b8015610da85780601f10610d7d57610100808354040283529160200191610da8565b820191906000526020600020905b815481529060010190602001808311610d8b57829003601f168201915b50505050509050919050565b610dbc612876565b6000801b610dc9816128c0565b81610dd381611417565b610e12576040517f08c379a0000000000000000000000000000000000000000000000000000000008152600401610e0990615dfa565b60405180910390fd5b84600073ffffffffffffffffffffffffffffffffffffffff168173ffffffffffffffffffffffffffffffffffffffff1603610e82576040517f08c379a0000000000000000000000000000000000000000000000000000000008152600401610e7990615ed2565b60405180910390fd5b84600073ffffffffffffffffffffffffffffffffffffffff168173ffffffffffffffffffffffffffffffffffffffff1603610ef2576040517f08c379a0000000000000000000000000000000000000000000000000000000008152600401610ee990615ed2565b60405180910390fd5b6008600086815260200190815260200160002060008873ffffffffffffffffffffffffffffffffffffffff1673ffffffffffffffffffffffffffffffffffffffff168152602001908152602001600020600201546008600087815260200190815260200160002060008973ffffffffffffffffffffffffffffffffffffffff1673ffffffffffffffffffffffffffffffffffffffff1681526020019081526020016000206001015411610fda576040517f08c379a0000000000000000000000000000000000000000000000000000000008152600401610fd190616145565b60405180910390fd5b6008600086815260200190815260200160002060008873ffffffffffffffffffffffffffffffffffffffff1673ffffffffffffffffffffffffffffffffffffffff168152602001908152602001600020600301869080600181540180825580915050600190039060005260206000200160009091909190916101000a81548173ffffffffffffffffffffffffffffffffffffffff021916908373ffffffffffffffffffffffffffffffffffffffff16021790555060006008600087815260200190815260200160002060008973ffffffffffffffffffffffffffffffffffffffff1673ffffffffffffffffffffffffffffffffffffffff16815260200190815260200160002060020154036110f3576110f287612ac3565b5b6008600086815260200190815260200160002060008873ffffffffffffffffffffffffffffffffffffffff1673ffffffffffffffffffffffffffffffffffffffff168152602001908152602001600020600201600081548092919061115790616165565b91905055508573ffffffffffffffffffffffffffffffffffffffff168773ffffffffffffffffffffffffffffffffffffffff16867f293e36bbce608551a8ef03dba20114986371a7df520fde646a2a4a8136c8fc0e60405160405180910390a450505050505050565b6111cd85858585856126cb565b5050505050565b6111dc612876565b6000826040516020016111ef91906151dc565b60405160208183030381529060405280519060200120905061121181836124bc565b505050565b61121e612876565b8260005b81518110156112725761126160066000848481518110611245576112446161ad565b5b60200260200101518152602001908152602001600020546128c0565b8061126b90616165565b9050611222565b5061127f85858585612ad2565b5050505050565b600060036000838152602001908152602001600020600101549050919050565b6112ae612cfe565b73ffffffffffffffffffffffffffffffffffffffff168573ffffffffffffffffffffffffffffffffffffffff1614806112f457506112f3856112ee612cfe565b6126b7565b5b611333576040517f08c379a000000000000000000000000000000000000000000000000000000000815260040161132a9061624e565b60405180910390fd5b6113408585858585612d06565b5050505050565b61135082611286565b611359816128c0565b6113638383613027565b505050565b611370612cfe565b73ffffffffffffffffffffffffffffffffffffffff168173ffffffffffffffffffffffffffffffffffffffff16146113dd576040517f08c379a00000000000000000000000000000000000000000000000000000000081526004016113d4906162e0565b60405180910390fd5b6113e78282613108565b5050565b6000801b6113f8816128c0565b6114006131ea565b50565b606061140f838361324d565b905092915050565b6000806114238361244d565b119050919050565b611433612876565b60008260405160200161144691906151dc565b6040516020818303038152906040528051906020012090506114688183611347565b6007836040516114789190616300565b908152602001604051809103902060009054906101000a900460ff166114da5760016007846040516114aa9190616300565b908152602001604051809103902060006101000a81548160ff0219169083151502179055506114d98182613366565b5b505050565b60006114ea8261244d565b9050919050565b6000600460009054906101000a900460ff16905090565b60006008600083815260200190815260200160002060008473ffffffffffffffffffffffffffffffffffffffff1673ffffffffffffffffffffffffffffffffffffffff16815260200190815260200160002060010154905092915050565b61156e612876565b60005b82518110156116035781818151811061158d5761158c6161ad565b5b60200260200101516115b9858584815181106115ac576115ab6161ad565b5b6020026020010151611508565b6115dd868685815181106115d0576115cf6161ad565b5b60200260200101516107a4565b6115e79190615ff9565b10156115f257600080fd5b806115fc90616165565b9050611571565b5061160f8383836133c2565b505050565b61162185858585856112a6565b5050505050565b611630612876565b600660008481526020019081526020016000205461164d816128c0565b6116598585858561345f565b5050505050565b611668612876565b8261167281611417565b6116b1576040517f08c379a00000000000000000000000000000000000000000000000000000000081526004016116a890615dfa565b60405180910390fd5b82600073ffffffffffffffffffffffffffffffffffffffff168173ffffffffffffffffffffffffffffffffffffffff1603611721576040517f08c379a000000000000000000000000000000000000000000000000000000000815260040161171890615ed2565b60405180910390fd5b848460006008600084815260200190815260200160002060008373ffffffffffffffffffffffffffffffffffffffff1673ffffffffffffffffffffffffffffffffffffffff16815260200190815260200160002060010154116117b9576040517f08c379a00000000000000000000000000000000000000000000000000000000081526004016117b090615faa565b60405180910390fd5b60003390507fffffffffffffffffffffffffffffffffffffffffffffffffffffffffffffffff8603611820576040517f08c379a000000000000000000000000000000000000000000000000000000000815260040161181790616363565b60405180910390fd5b6000600860008a815260200190815260200160002060008973ffffffffffffffffffffffffffffffffffffffff1673ffffffffffffffffffffffffffffffffffffffff16815260200190815260200160002060000154905060006103e860198361188a9190616383565b61189491906163f4565b90506118b389848c6000604051806020016040528060008152506126cb565b60008973ffffffffffffffffffffffffffffffffffffffff16836040516118d990616456565b60006040518083038185875af1925050503d8060008114611916576040519150601f19603f3d011682016040523d82523d6000602084013e61191b565b606091505b505090508061195f576040517f08c379a0000000000000000000000000000000000000000000000000000000008152600401611956906164b7565b60405180910390fd5b600860008c815260200190815260200160002060008b73ffffffffffffffffffffffffffffffffffffffff1673ffffffffffffffffffffffffffffffffffffffff16815260200190815260200160002060010160008154809291906119c3906164d7565b9190505550600860008c815260200190815260200160002060008b73ffffffffffffffffffffffffffffffffffffffff1673ffffffffffffffffffffffffffffffffffffffff1681526020019081526020016000206002016000815480929190611a2c906164d7565b91905055506000600860008d815260200190815260200160002060008c73ffffffffffffffffffffffffffffffffffffffff1673ffffffffffffffffffffffffffffffffffffffff1681526020019081526020016000206003018a81548110611a9857611a976161ad565b5b9060005260206000200160006101000a81548173ffffffffffffffffffffffffffffffffffffffff021916908373ffffffffffffffffffffffffffffffffffffffff1602179055506000600860008d815260200190815260200160002060008c73ffffffffffffffffffffffffffffffffffffffff1673ffffffffffffffffffffffffffffffffffffffff1681526020019081526020016000206002015403611b4557611b448a61360f565b5b6000600860008d815260200190815260200160002060008c73ffffffffffffffffffffffffffffffffffffffff1673ffffffffffffffffffffffffffffffffffffffff1681526020019081526020016000206001015403611c1c57600860008c815260200190815260200160002060008b73ffffffffffffffffffffffffffffffffffffffff1673ffffffffffffffffffffffffffffffffffffffff16815260200190815260200160002060008082016000905560018201600090556002820160009055600382016000611c199190614d3a565b50505b8a8473ffffffffffffffffffffffffffffffffffffffff168b73ffffffffffffffffffffffffffffffffffffffff167f4e14d3d55a435ef2aee46756984f50ee42f895efb7eb97f9c8ab2ea0961da73560405160405180910390a45050505050505050505050565b6000801b611c91816128c0565b611c9961361e565b50565b611ca4612876565b82611cae81611417565b611ced576040517f08c379a0000000000000000000000000000000000000000000000000000000008152600401611ce490615dfa565b60405180910390fd5b8160008111611d31576040517f08c379a0000000000000000000000000000000000000000000000000000000008152600401611d2890615e66565b60405180910390fd5b83600073ffffffffffffffffffffffffffffffffffffffff168173ffffffffffffffffffffffffffffffffffffffff1603611da1576040517f08c379a0000000000000000000000000000000000000000000000000000000008152600401611d9890615ed2565b60405180910390fd5b84611dac3382612a2f565b611deb576040517f08c379a0000000000000000000000000000000000000000000000000000000008152600401611de290615f3e565b60405180910390fd5b868660006008600084815260200190815260200160002060008373ffffffffffffffffffffffffffffffffffffffff1673ffffffffffffffffffffffffffffffffffffffff1681526020019081526020016000206001015411611e83576040517f08c379a0000000000000000000000000000000000000000000000000000000008152600401611e7a90615faa565b60405180910390fd5b6000600860008b815260200190815260200160002060008a73ffffffffffffffffffffffffffffffffffffffff1673ffffffffffffffffffffffffffffffffffffffff1681526020019081526020016000206002015414611f19576040517f08c379a0000000000000000000000000000000000000000000000000000000008152600401611f109061654c565b60405180910390fd5b6000600860008b815260200190815260200160002060008a73ffffffffffffffffffffffffffffffffffffffff1673ffffffffffffffffffffffffffffffffffffffff16815260200190815260200160002060000154905087600860008c815260200190815260200160002060008b73ffffffffffffffffffffffffffffffffffffffff1673ffffffffffffffffffffffffffffffffffffffff1681526020019081526020016000206000018190555087818b7f0102bf50452715279cbb01eacc751d98fbefecf58e68dcd55a805f9b3c514fe033604051611ffb919061657b565b60405180910390a450505050505050505050565b60006003600084815260200190815260200160002060000160008373ffffffffffffffffffffffffffffffffffffffff1673ffffffffffffffffffffffffffffffffffffffff16815260200190815260200160002060009054906101000a900460ff16905092915050565b6000801b81565b612089612876565b6120938282613681565b5050565b61209f612876565b836120a981611417565b6120e8576040517f08c379a00000000000000000000000000000000000000000000000000000000081526004016120df90615dfa565b60405180910390fd5b826000811161212c576040517f08c379a000000000000000000000000000000000000000000000000000000000815260040161212390615e66565b60405180910390fd5b8260008111612170576040517f08c379a000000000000000000000000000000000000000000000000000000000815260040161216790615e66565b60405180910390fd5b85600073ffffffffffffffffffffffffffffffffffffffff168173ffffffffffffffffffffffffffffffffffffffff16036121e0576040517f08c379a00000000000000000000000000000000000000000000000000000000081526004016121d790615ed2565b60405180910390fd5b866121eb3382612a2f565b61222a576040517f08c379a000000000000000000000000000000000000000000000000000000000815260040161222190615f3e565b60405180910390fd5b85600860008b815260200190815260200160002060008a73ffffffffffffffffffffffffffffffffffffffff1673ffffffffffffffffffffffffffffffffffffffff168152602001908152602001600020600101546122898a8c6107a4565b6122939190615ff9565b10156122d4576040517f08c379a00000000000000000000000000000000000000000000000000000000081526004016122cb906165e2565b60405180910390fd5b6000600860008b815260200190815260200160002060008a73ffffffffffffffffffffffffffffffffffffffff1673ffffffffffffffffffffffffffffffffffffffff16815260200190815260200160002060020154036123885786600860008b815260200190815260200160002060008a73ffffffffffffffffffffffffffffffffffffffff1673ffffffffffffffffffffffffffffffffffffffff168152602001908152602001600020600001819055505b85600860008b815260200190815260200160002060008a73ffffffffffffffffffffffffffffffffffffffff1673ffffffffffffffffffffffffffffffffffffffff16815260200190815260200160002060010160008282546123eb9190616602565b92505081905550868873ffffffffffffffffffffffffffffffffffffffff168a7f55cbae8317df70e8af66b23c30f5bc00600239c96d89aaca95308c26bf1a5e058960405161243a9190614e6f565b60405180910390a4505050505050505050565b600060056000838152602001908152602001600020549050919050565b6000801b612477816128c0565b81600960006101000a81548173ffffffffffffffffffffffffffffffffffffffff021916908373ffffffffffffffffffffffffffffffffffffffff1602179055505050565b6124c582611286565b6124ce816128c0565b6124d88383613108565b505050565b6000806008600086815260200190815260200160002060008573ffffffffffffffffffffffffffffffffffffffff1673ffffffffffffffffffffffffffffffffffffffff16815260200190815260200160002060030180549050905060006008600087815260200190815260200160002060008673ffffffffffffffffffffffffffffffffffffffff1673ffffffffffffffffffffffffffffffffffffffff16815260200190815260200160002060030180548060200260200160405190810160405280929190818152602001828054801561260e57602002820191906000526020600020905b8160009054906101000a900473ffffffffffffffffffffffffffffffffffffffff1673ffffffffffffffffffffffffffffffffffffffff16815260200190600101908083116125c4575b5050505050905060005b82811015612689578473ffffffffffffffffffffffffffffffffffffffff1682828151811061264a576126496161ad565b5b602002602001015173ffffffffffffffffffffffffffffffffffffffff1603612678578093505050506126b0565b8061268290616165565b9050612618565b507fffffffffffffffffffffffffffffffffffffffffffffffffffffffffffffffff925050505b9392505050565b60006126c38383612a2f565b905092915050565b6126d3612cfe565b73ffffffffffffffffffffffffffffffffffffffff168573ffffffffffffffffffffffffffffffffffffffff161480612719575061271885612713612cfe565b6126b7565b5b612758576040517f08c379a000000000000000000000000000000000000000000000000000000000815260040161274f9061624e565b60405180910390fd5b6127658585858585613697565b5050505050565b612774612876565b8061277f8484611508565b61278985856107a4565b6127939190615ff9565b101561279e57600080fd5b6127a9838383613932565b505050565b60008073ffffffffffffffffffffffffffffffffffffffff168373ffffffffffffffffffffffffffffffffffffffff160361281e576040517f08c379a0000000000000000000000000000000000000000000000000000000008152600401612815906166a8565b60405180910390fd5b60008083815260200190815260200160002060008473ffffffffffffffffffffffffffffffffffffffff1673ffffffffffffffffffffffffffffffffffffffff16815260200190815260200160002054905092915050565b61287e6114f1565b156128be576040517f08c379a00000000000000000000000000000000000000000000000000000000081526004016128b590616714565b60405180910390fd5b565b6128d1816128cc612cfe565b6139cf565b50565b60007f7965db0b000000000000000000000000000000000000000000000000000000007bffffffffffffffffffffffffffffffffffffffffffffffffffffffff1916827bffffffffffffffffffffffffffffffffffffffffffffffffffffffff19161480612947575061294682613a54565b5b9050919050565b806002908161295d91906168e0565b5050565b60606000600161297084613b36565b01905060008167ffffffffffffffff81111561298f5761298e614ea5565b5b6040519080825280601f01601f1916602001820160405280156129c15781602001600182028036833780820191505090505b509050600082602001820190505b600115612a24578080600190039150507f3031323334353637383961626364656600000000000000000000000000000000600a86061a8153600a8581612a1857612a176163c5565b5b049450600085036129cf575b819350505050919050565b6000600160008473ffffffffffffffffffffffffffffffffffffffff1673ffffffffffffffffffffffffffffffffffffffff16815260200190815260200160002060008373ffffffffffffffffffffffffffffffffffffffff1673ffffffffffffffffffffffffffffffffffffffff16815260200190815260200160002060009054906101000a900460ff16905092915050565b612acf81306001613c89565b50565b600073ffffffffffffffffffffffffffffffffffffffff168473ffffffffffffffffffffffffffffffffffffffff1603612b41576040517f08c379a0000000000000000000000000000000000000000000000000000000008152600401612b3890616a24565b60405180910390fd5b8151835114612b85576040517f08c379a0000000000000000000000000000000000000000000000000000000008152600401612b7c90616ab6565b60405180910390fd5b6000612b8f612cfe565b9050612ba081600087878787613df5565b60005b8451811015612c5957838181518110612bbf57612bbe6161ad565b5b6020026020010151600080878481518110612bdd57612bdc6161ad565b5b6020026020010151815260200190815260200160002060008873ffffffffffffffffffffffffffffffffffffffff1673ffffffffffffffffffffffffffffffffffffffff1681526020019081526020016000206000828254612c3f9190616602565b925050819055508080612c5190616165565b915050612ba3565b508473ffffffffffffffffffffffffffffffffffffffff16600073ffffffffffffffffffffffffffffffffffffffff168273ffffffffffffffffffffffffffffffffffffffff167f4a39dc06d4c0dbc64b70af90fd698a233a518aa5d07e595d983b8c0526c8f7fb8787604051612cd1929190616ad6565b60405180910390a4612ce881600087878787613edf565b612cf781600087878787613ee7565b5050505050565b600033905090565b8151835114612d4a576040517f08c379a0000000000000000000000000000000000000000000000000000000008152600401612d4190616ab6565b60405180910390fd5b600073ffffffffffffffffffffffffffffffffffffffff168473ffffffffffffffffffffffffffffffffffffffff1603612db9576040517f08c379a0000000000000000000000000000000000000000000000000000000008152600401612db090616b7f565b60405180910390fd5b6000612dc3612cfe565b9050612dd3818787878787613df5565b60005b8451811015612f84576000858281518110612df457612df36161ad565b5b602002602001015190506000858381518110612e1357612e126161ad565b5b60200260200101519050600080600084815260200190815260200160002060008b73ffffffffffffffffffffffffffffffffffffffff1673ffffffffffffffffffffffffffffffffffffffff16815260200190815260200160002054905081811015612eb4576040517f08c379a0000000000000000000000000000000000000000000000000000000008152600401612eab90616c11565b60405180910390fd5b81810360008085815260200190815260200160002060008c73ffffffffffffffffffffffffffffffffffffffff1673ffffffffffffffffffffffffffffffffffffffff168152602001908152602001600020819055508160008085815260200190815260200160002060008b73ffffffffffffffffffffffffffffffffffffffff1673ffffffffffffffffffffffffffffffffffffffff1681526020019081526020016000206000828254612f699190616602565b9250508190555050505080612f7d90616165565b9050612dd6565b508473ffffffffffffffffffffffffffffffffffffffff168673ffffffffffffffffffffffffffffffffffffffff168273ffffffffffffffffffffffffffffffffffffffff167f4a39dc06d4c0dbc64b70af90fd698a233a518aa5d07e595d983b8c0526c8f7fb8787604051612ffb929190616ad6565b60405180910390a4613011818787878787613edf565b61301f818787878787613ee7565b505050505050565b613031828261200f565b6131045760016003600084815260200190815260200160002060000160008373ffffffffffffffffffffffffffffffffffffffff1673ffffffffffffffffffffffffffffffffffffffff16815260200190815260200160002060006101000a81548160ff0219169083151502179055506130a9612cfe565b73ffffffffffffffffffffffffffffffffffffffff168173ffffffffffffffffffffffffffffffffffffffff16837f2f8788117e7eff1d82e926ec794901d17c78024a50270940304540a733656f0d60405160405180910390a45b5050565b613112828261200f565b156131e65760006003600084815260200190815260200160002060000160008373ffffffffffffffffffffffffffffffffffffffff1673ffffffffffffffffffffffffffffffffffffffff16815260200190815260200160002060006101000a81548160ff02191690831515021790555061318b612cfe565b73ffffffffffffffffffffffffffffffffffffffff168173ffffffffffffffffffffffffffffffffffffffff16837ff6391f5c32d9c69d2a47ea670b442974b53935d1edc7fd64eb21e047a839171b60405160405180910390a45b5050565b6131f26140be565b6000600460006101000a81548160ff0219169083151502179055507f5db9ee0a495bf2e6ff9c91a7834c1ba4fdd244a5e8aa4e537bd38aeae4b073aa613236612cfe565b604051613243919061657b565b60405180910390a1565b60608151835114613293576040517f08c379a000000000000000000000000000000000000000000000000000000000815260040161328a90616ca3565b60405180910390fd5b6000835167ffffffffffffffff8111156132b0576132af614ea5565b5b6040519080825280602002602001820160405280156132de5781602001602082028036833780820191505090505b50905060005b845181101561335b5761332b858281518110613303576133026161ad565b5b602002602001015185838151811061331e5761331d6161ad565b5b60200260200101516107a4565b82828151811061333e5761333d6161ad565b5b6020026020010181815250508061335490616165565b90506132e4565b508091505092915050565b600061337183611286565b90508160036000858152602001908152602001600020600101819055508181847fbd79b86ffe0ab8e8776151514217cd7cacd52c909f66475c3af44e129f0b00ff60405160405180910390a4505050565b6133ca612cfe565b73ffffffffffffffffffffffffffffffffffffffff168373ffffffffffffffffffffffffffffffffffffffff161480613410575061340f8361340a612cfe565b6126b7565b5b61344f576040517f08c379a00000000000000000000000000000000000000000000000000000000081526004016134469061624e565b60405180910390fd5b61345a838383614107565b505050565b600073ffffffffffffffffffffffffffffffffffffffff168473ffffffffffffffffffffffffffffffffffffffff16036134ce576040517f08c379a00000000000000000000000000000000000000000000000000000000081526004016134c590616a24565b60405180910390fd5b60006134d8612cfe565b905060006134e5856143d5565b905060006134f2856143d5565b905061350383600089858589613df5565b8460008088815260200190815260200160002060008973ffffffffffffffffffffffffffffffffffffffff1673ffffffffffffffffffffffffffffffffffffffff16815260200190815260200160002060008282546135629190616602565b925050819055508673ffffffffffffffffffffffffffffffffffffffff16600073ffffffffffffffffffffffffffffffffffffffff168473ffffffffffffffffffffffffffffffffffffffff167fc3d58168c5ae7397731d063d5bbf3d657854427343f4c083240f7aacaa2d0f6289896040516135e0929190616cc3565b60405180910390a46135f783600089858589613edf565b6136068360008989898961444f565b50505050505050565b61361b81306000613c89565b50565b613626612876565b6001600460006101000a81548160ff0219169083151502179055507f62e78cea01bee320cd4e420270b5ea74000d11b0c9f74754ebdbfc544b05a25861366a612cfe565b604051613677919061657b565b60405180910390a1565b61369361368c612cfe565b8383613c89565b5050565b600073ffffffffffffffffffffffffffffffffffffffff168473ffffffffffffffffffffffffffffffffffffffff1603613706576040517f08c379a00000000000000000000000000000000000000000000000000000000081526004016136fd90616b7f565b60405180910390fd5b6000613710612cfe565b9050600061371d856143d5565b9050600061372a856143d5565b905061373a838989858589613df5565b600080600088815260200190815260200160002060008a73ffffffffffffffffffffffffffffffffffffffff1673ffffffffffffffffffffffffffffffffffffffff168152602001908152602001600020549050858110156137d1576040517f08c379a00000000000000000000000000000000000000000000000000000000081526004016137c890616c11565b60405180910390fd5b85810360008089815260200190815260200160002060008b73ffffffffffffffffffffffffffffffffffffffff1673ffffffffffffffffffffffffffffffffffffffff168152602001908152602001600020819055508560008089815260200190815260200160002060008a73ffffffffffffffffffffffffffffffffffffffff1673ffffffffffffffffffffffffffffffffffffffff16815260200190815260200160002060008282546138869190616602565b925050819055508773ffffffffffffffffffffffffffffffffffffffff168973ffffffffffffffffffffffffffffffffffffffff168573ffffffffffffffffffffffffffffffffffffffff167fc3d58168c5ae7397731d063d5bbf3d657854427343f4c083240f7aacaa2d0f628a8a604051613903929190616cc3565b60405180910390a4613919848a8a86868a613edf565b613927848a8a8a8a8a61444f565b505050505050505050565b61393a612cfe565b73ffffffffffffffffffffffffffffffffffffffff168373ffffffffffffffffffffffffffffffffffffffff161480613980575061397f8361397a612cfe565b6126b7565b5b6139bf576040517f08c379a00000000000000000000000000000000000000000000000000000000081526004016139b69061624e565b60405180910390fd5b6139ca838383614626565b505050565b6139d9828261200f565b613a50576139e68161486c565b6139f48360001c6020614899565b604051602001613a05929190616d84565b6040516020818303038152906040526040517f08c379a0000000000000000000000000000000000000000000000000000000008152600401613a4791906151dc565b60405180910390fd5b5050565b60007fd9b67a26000000000000000000000000000000000000000000000000000000007bffffffffffffffffffffffffffffffffffffffffffffffffffffffff1916827bffffffffffffffffffffffffffffffffffffffffffffffffffffffff19161480613b1f57507f0e89341c000000000000000000000000000000000000000000000000000000007bffffffffffffffffffffffffffffffffffffffffffffffffffffffff1916827bffffffffffffffffffffffffffffffffffffffffffffffffffffffff1916145b80613b2f5750613b2e82614ad5565b5b9050919050565b600080600090507a184f03e93ff9f4daa797ed6e38ed64bf6a1f0100000000000000008310613b94577a184f03e93ff9f4daa797ed6e38ed64bf6a1f0100000000000000008381613b8a57613b896163c5565b5b0492506040810190505b6d04ee2d6d415b85acef81000000008310613bd1576d04ee2d6d415b85acef81000000008381613bc757613bc66163c5565b5b0492506020810190505b662386f26fc100008310613c0057662386f26fc100008381613bf657613bf56163c5565b5b0492506010810190505b6305f5e1008310613c29576305f5e1008381613c1f57613c1e6163c5565b5b0492506008810190505b6127108310613c4e576127108381613c4457613c436163c5565b5b0492506004810190505b60648310613c715760648381613c6757613c666163c5565b5b0492506002810190505b600a8310613c80576001810190505b80915050919050565b8173ffffffffffffffffffffffffffffffffffffffff168373ffffffffffffffffffffffffffffffffffffffff1603613cf7576040517f08c379a0000000000000000000000000000000000000000000000000000000008152600401613cee90616e30565b60405180910390fd5b80600160008573ffffffffffffffffffffffffffffffffffffffff1673ffffffffffffffffffffffffffffffffffffffff16815260200190815260200160002060008473ffffffffffffffffffffffffffffffffffffffff1673ffffffffffffffffffffffffffffffffffffffff16815260200190815260200160002060006101000a81548160ff0219169083151502179055508173ffffffffffffffffffffffffffffffffffffffff168373ffffffffffffffffffffffffffffffffffffffff167f17307eab39ab6107e8899845ad3d59bd9653f200f220920489ca2b5937696c3183604051613de891906150cc565b60405180910390a3505050565b613dfd612876565b60005b8351811015613ec857828181518110613e1c57613e1b6161ad565b5b6020026020010151613e4887868481518110613e3b57613e3a6161ad565b5b6020026020010151611508565b613e6c88878581518110613e5f57613e5e6161ad565b5b60200260200101516107a4565b613e769190615ff9565b1015613eb7576040517f08c379a0000000000000000000000000000000000000000000000000000000008152600401613eae90616e9c565b60405180910390fd5b80613ec190616165565b9050613e00565b50613ed7868686868686614b3f565b505050505050565b505050505050565b613f068473ffffffffffffffffffffffffffffffffffffffff16614d0f565b156140b6578373ffffffffffffffffffffffffffffffffffffffff1663bc197c8187878686866040518663ffffffff1660e01b8152600401613f4c959493929190616f11565b6020604051808303816000875af1925050508015613f8857506040513d601f19601f82011682018060405250810190613f859190616f8e565b60015b61402d57613f94616fc8565b806308c379a003613ff05750613fa8616fea565b80613fb35750613ff2565b806040517f08c379a0000000000000000000000000000000000000000000000000000000008152600401613fe791906151dc565b60405180910390fd5b505b6040517f08c379a0000000000000000000000000000000000000000000000000000000008152600401614024906170ec565b60405180910390fd5b63bc197c8160e01b7bffffffffffffffffffffffffffffffffffffffffffffffffffffffff1916817bffffffffffffffffffffffffffffffffffffffffffffffffffffffff1916146140b4576040517f08c379a00000000000000000000000000000000000000000000000000000000081526004016140ab9061717e565b60405180910390fd5b505b505050505050565b6140c66114f1565b614105576040517f08c379a00000000000000000000000000000000000000000000000000000000081526004016140fc906171ea565b60405180910390fd5b565b600073ffffffffffffffffffffffffffffffffffffffff168373ffffffffffffffffffffffffffffffffffffffff1603614176576040517f08c379a000000000000000000000000000000000000000000000000000000000815260040161416d9061727c565b60405180910390fd5b80518251146141ba576040517f08c379a00000000000000000000000000000000000000000000000000000000081526004016141b190616ab6565b60405180910390fd5b60006141c4612cfe565b90506141e481856000868660405180602001604052806000815250613df5565b60005b8351811015614331576000848281518110614205576142046161ad565b5b602002602001015190506000848381518110614224576142236161ad565b5b60200260200101519050600080600084815260200190815260200160002060008973ffffffffffffffffffffffffffffffffffffffff1673ffffffffffffffffffffffffffffffffffffffff168152602001908152602001600020549050818110156142c5576040517f08c379a00000000000000000000000000000000000000000000000000000000081526004016142bc9061730e565b60405180910390fd5b81810360008085815260200190815260200160002060008a73ffffffffffffffffffffffffffffffffffffffff1673ffffffffffffffffffffffffffffffffffffffff16815260200190815260200160002081905550505050808061432990616165565b9150506141e7565b50600073ffffffffffffffffffffffffffffffffffffffff168473ffffffffffffffffffffffffffffffffffffffff168273ffffffffffffffffffffffffffffffffffffffff167f4a39dc06d4c0dbc64b70af90fd698a233a518aa5d07e595d983b8c0526c8f7fb86866040516143a9929190616ad6565b60405180910390a46143cf81856000868660405180602001604052806000815250613edf565b50505050565b60606000600167ffffffffffffffff8111156143f4576143f3614ea5565b5b6040519080825280602002602001820160405280156144225781602001602082028036833780820191505090505b509050828160008151811061443a576144396161ad565b5b60200260200101818152505080915050919050565b61446e8473ffffffffffffffffffffffffffffffffffffffff16614d0f565b1561461e578373ffffffffffffffffffffffffffffffffffffffff1663f23a6e6187878686866040518663ffffffff1660e01b81526004016144b495949392919061732e565b6020604051808303816000875af19250505080156144f057506040513d601f19601f820116820180604052508101906144ed9190616f8e565b60015b614595576144fc616fc8565b806308c379a0036145585750614510616fea565b8061451b575061455a565b806040517f08c379a000000000000000000000000000000000000000000000000000000000815260040161454f91906151dc565b60405180910390fd5b505b6040517f08c379a000000000000000000000000000000000000000000000000000000000815260040161458c906170ec565b60405180910390fd5b63f23a6e6160e01b7bffffffffffffffffffffffffffffffffffffffffffffffffffffffff1916817bffffffffffffffffffffffffffffffffffffffffffffffffffffffff19161461461c576040517f08c379a00000000000000000000000000000000000000000000000000000000081526004016146139061717e565b60405180910390fd5b505b505050505050565b600073ffffffffffffffffffffffffffffffffffffffff168373ffffffffffffffffffffffffffffffffffffffff1603614695576040517f08c379a000000000000000000000000000000000000000000000000000000000815260040161468c9061727c565b60405180910390fd5b600061469f612cfe565b905060006146ac846143d5565b905060006146b9846143d5565b90506146d983876000858560405180602001604052806000815250613df5565b600080600087815260200190815260200160002060008873ffffffffffffffffffffffffffffffffffffffff1673ffffffffffffffffffffffffffffffffffffffff16815260200190815260200160002054905084811015614770576040517f08c379a00000000000000000000000000000000000000000000000000000000081526004016147679061730e565b60405180910390fd5b84810360008088815260200190815260200160002060008973ffffffffffffffffffffffffffffffffffffffff1673ffffffffffffffffffffffffffffffffffffffff16815260200190815260200160002081905550600073ffffffffffffffffffffffffffffffffffffffff168773ffffffffffffffffffffffffffffffffffffffff168573ffffffffffffffffffffffffffffffffffffffff167fc3d58168c5ae7397731d063d5bbf3d657854427343f4c083240f7aacaa2d0f62898960405161483d929190616cc3565b60405180910390a461486384886000868660405180602001604052806000815250613edf565b50505050505050565b60606148928273ffffffffffffffffffffffffffffffffffffffff16601460ff16614899565b9050919050565b6060600060028360026148ac9190616383565b6148b69190616602565b67ffffffffffffffff8111156148cf576148ce614ea5565b5b6040519080825280601f01601f1916602001820160405280156149015781602001600182028036833780820191505090505b5090507f300000000000000000000000000000000000000000000000000000000000000081600081518110614939576149386161ad565b5b60200101907effffffffffffffffffffffffffffffffffffffffffffffffffffffffffffff1916908160001a9053507f78000000000000000000000000000000000000000000000000000000000000008160018151811061499d5761499c6161ad565b5b60200101907effffffffffffffffffffffffffffffffffffffffffffffffffffffffffffff1916908160001a905350600060018460026149dd9190616383565b6149e79190616602565b90505b6001811115614a87577f3031323334353637383961626364656600000000000000000000000000000000600f861660108110614a2957614a286161ad565b5b1a60f81b828281518110614a4057614a3f6161ad565b5b60200101907effffffffffffffffffffffffffffffffffffffffffffffffffffffffffffff1916908160001a905350600485901c945080614a80906164d7565b90506149ea565b5060008414614acb576040517f08c379a0000000000000000000000000000000000000000000000000000000008152600401614ac2906173d4565b60405180910390fd5b8091505092915050565b60007f01ffc9a7000000000000000000000000000000000000000000000000000000007bffffffffffffffffffffffffffffffffffffffffffffffffffffffff1916827bffffffffffffffffffffffffffffffffffffffffffffffffffffffff1916149050919050565b614b4d868686868686614d32565b600073ffffffffffffffffffffffffffffffffffffffff168573ffffffffffffffffffffffffffffffffffffffff1603614bfe5760005b8351811015614bfc57828181518110614ba057614b9f6161ad565b5b602002602001015160056000868481518110614bbf57614bbe6161ad565b5b602002602001015181526020019081526020016000206000828254614be49190616602565b9250508190555080614bf590616165565b9050614b84565b505b600073ffffffffffffffffffffffffffffffffffffffff168473ffffffffffffffffffffffffffffffffffffffff1603614d075760005b8351811015614d05576000848281518110614c5357614c526161ad565b5b602002602001015190506000848381518110614c7257614c716161ad565b5b6020026020010151905060006005600084815260200190815260200160002054905081811015614cd7576040517f08c379a0000000000000000000000000000000000000000000000000000000008152600401614cce90617466565b60405180910390fd5b818103600560008581526020019081526020016000208190555050505080614cfe90616165565b9050614c35565b505b505050505050565b6000808273ffffffffffffffffffffffffffffffffffffffff163b119050919050565b505050505050565b5080546000825590600052602060002090810190614d589190614d5b565b50565b5b80821115614d74576000816000905550600101614d5c565b5090565b6000604051905090565b600080fd5b600080fd5b600073ffffffffffffffffffffffffffffffffffffffff82169050919050565b6000614db782614d8c565b9050919050565b614dc781614dac565b8114614dd257600080fd5b50565b600081359050614de481614dbe565b92915050565b6000819050919050565b614dfd81614dea565b8114614e0857600080fd5b50565b600081359050614e1a81614df4565b92915050565b60008060408385031215614e3757614e36614d82565b5b6000614e4585828601614dd5565b9250506020614e5685828601614e0b565b9150509250929050565b614e6981614dea565b82525050565b6000602082019050614e846000830184614e60565b92915050565b600080fd5b600080fd5b6000601f19601f8301169050919050565b7f4e487b7100000000000000000000000000000000000000000000000000000000600052604160045260246000fd5b614edd82614e94565b810181811067ffffffffffffffff82111715614efc57614efb614ea5565b5b80604052505050565b6000614f0f614d78565b9050614f1b8282614ed4565b919050565b600067ffffffffffffffff821115614f3b57614f3a614ea5565b5b614f4482614e94565b9050602081019050919050565b82818337600083830152505050565b6000614f73614f6e84614f20565b614f05565b905082815260208101848484011115614f8f57614f8e614e8f565b5b614f9a848285614f51565b509392505050565b600082601f830112614fb757614fb6614e8a565b5b8135614fc7848260208601614f60565b91505092915050565b60008060408385031215614fe757614fe6614d82565b5b6000614ff585828601614e0b565b925050602083013567ffffffffffffffff81111561501657615015614d87565b5b61502285828601614fa2565b9150509250929050565b60007fffffffff0000000000000000000000000000000000000000000000000000000082169050919050565b6150618161502c565b811461506c57600080fd5b50565b60008135905061507e81615058565b92915050565b60006020828403121561509a57615099614d82565b5b60006150a88482850161506f565b91505092915050565b60008115159050919050565b6150c6816150b1565b82525050565b60006020820190506150e160008301846150bd565b92915050565b6000602082840312156150fd576150fc614d82565b5b600082013567ffffffffffffffff81111561511b5761511a614d87565b5b61512784828501614fa2565b91505092915050565b60006020828403121561514657615145614d82565b5b600061515484828501614e0b565b91505092915050565b600081519050919050565b600082825260208201905092915050565b60005b8381101561519757808201518184015260208101905061517c565b60008484015250505050565b60006151ae8261515d565b6151b88185615168565b93506151c8818560208601615179565b6151d181614e94565b840191505092915050565b600060208201905081810360008301526151f681846151a3565b905092915050565b60008060006060848603121561521757615216614d82565b5b600061522586828701614e0b565b935050602061523686828701614dd5565b925050604061524786828701614e0b565b9150509250925092565b60008060006060848603121561526a57615269614d82565b5b600061527886828701614dd5565b935050602061528986828701614dd5565b925050604061529a86828701614e0b565b9150509250925092565b600067ffffffffffffffff8211156152bf576152be614ea5565b5b6152c882614e94565b9050602081019050919050565b60006152e86152e3846152a4565b614f05565b90508281526020810184848401111561530457615303614e8f565b5b61530f848285614f51565b509392505050565b600082601f83011261532c5761532b614e8a565b5b813561533c8482602086016152d5565b91505092915050565b600080600080600060a0868803121561536157615360614d82565b5b600061536f88828901614dd5565b955050602061538088828901614dd5565b945050604061539188828901614e0b565b93505060606153a288828901614e0b565b925050608086013567ffffffffffffffff8111156153c3576153c2614d87565b5b6153cf88828901615317565b9150509295509295909350565b600080604083850312156153f3576153f2614d82565b5b600083013567ffffffffffffffff81111561541157615410614d87565b5b61541d85828601614fa2565b925050602061542e85828601614dd5565b9150509250929050565b600067ffffffffffffffff82111561545357615452614ea5565b5b602082029050602081019050919050565b600080fd5b600061547c61547784615438565b614f05565b9050808382526020820190506020840283018581111561549f5761549e615464565b5b835b818110156154c857806154b48882614e0b565b8452602084019350506020810190506154a1565b5050509392505050565b600082601f8301126154e7576154e6614e8a565b5b81356154f7848260208601615469565b91505092915050565b6000806000806080858703121561551a57615519614d82565b5b600061552887828801614dd5565b945050602085013567ffffffffffffffff81111561554957615548614d87565b5b615555878288016154d2565b935050604085013567ffffffffffffffff81111561557657615575614d87565b5b615582878288016154d2565b925050606085013567ffffffffffffffff8111156155a3576155a2614d87565b5b6155af87828801615317565b91505092959194509250565b6000819050919050565b6155ce816155bb565b81146155d957600080fd5b50565b6000813590506155eb816155c5565b92915050565b60006020828403121561560757615606614d82565b5b6000615615848285016155dc565b91505092915050565b615627816155bb565b82525050565b6000602082019050615642600083018461561e565b92915050565b600080600080600060a0868803121561566457615663614d82565b5b600061567288828901614dd5565b955050602061568388828901614dd5565b945050604086013567ffffffffffffffff8111156156a4576156a3614d87565b5b6156b0888289016154d2565b935050606086013567ffffffffffffffff8111156156d1576156d0614d87565b5b6156dd888289016154d2565b925050608086013567ffffffffffffffff8111156156fe576156fd614d87565b5b61570a88828901615317565b9150509295509295909350565b6000806040838503121561572e5761572d614d82565b5b600061573c858286016155dc565b925050602061574d85828601614dd5565b9150509250929050565b600067ffffffffffffffff82111561577257615771614ea5565b5b602082029050602081019050919050565b600061579661579184615757565b614f05565b905080838252602082019050602084028301858111156157b9576157b8615464565b5b835b818110156157e257806157ce8882614dd5565b8452602084019350506020810190506157bb565b5050509392505050565b600082601f83011261580157615800614e8a565b5b8135615811848260208601615783565b91505092915050565b6000806040838503121561583157615830614d82565b5b600083013567ffffffffffffffff81111561584f5761584e614d87565b5b61585b858286016157ec565b925050602083013567ffffffffffffffff81111561587c5761587b614d87565b5b615888858286016154d2565b9150509250929050565b600081519050919050565b600082825260208201905092915050565b6000819050602082019050919050565b6158c781614dea565b82525050565b60006158d983836158be565b60208301905092915050565b6000602082019050919050565b60006158fd82615892565b615907818561589d565b9350615912836158ae565b8060005b8381101561594357815161592a88826158cd565b9750615935836158e5565b925050600181019050615916565b5085935050505092915050565b6000602082019050818103600083015261596a81846158f2565b905092915050565b60008060006060848603121561598b5761598a614d82565b5b600061599986828701614dd5565b935050602084013567ffffffffffffffff8111156159ba576159b9614d87565b5b6159c6868287016154d2565b925050604084013567ffffffffffffffff8111156159e7576159e6614d87565b5b6159f3868287016154d2565b9150509250925092565b60008060008060808587031215615a1757615a16614d82565b5b6000615a2587828801614dd5565b9450506020615a3687828801614e0b565b9350506040615a4787828801614e0b565b925050606085013567ffffffffffffffff811115615a6857615a67614d87565b5b615a7487828801615317565b91505092959194509250565b6000819050919050565b615a9381615a80565b8114615a9e57600080fd5b50565b600081359050615ab081615a8a565b92915050565b600080600060608486031215615acf57615ace614d82565b5b6000615add86828701614e0b565b9350506020615aee86828701614dd5565b9250506040615aff86828701615aa1565b9150509250925092565b615b12816150b1565b8114615b1d57600080fd5b50565b600081359050615b2f81615b09565b92915050565b60008060408385031215615b4c57615b4b614d82565b5b6000615b5a85828601614dd5565b9250506020615b6b85828601615b20565b9150509250929050565b60008060008060808587031215615b8f57615b8e614d82565b5b6000615b9d87828801614e0b565b9450506020615bae87828801614dd5565b9350506040615bbf87828801614e0b565b9250506060615bd087828801614e0b565b91505092959194509250565b600060208284031215615bf257615bf1614d82565b5b6000615c0084828501614dd5565b91505092915050565b600080600060608486031215615c2257615c21614d82565b5b6000615c3086828701614e0b565b9350506020615c4186828701614dd5565b9250506040615c5286828701614dd5565b9150509250925092565b615c6581615a80565b82525050565b6000602082019050615c806000830184615c5c565b92915050565b60008060408385031215615c9d57615c9c614d82565b5b6000615cab85828601614dd5565b9250506020615cbc85828601614dd5565b9150509250929050565b600080600060608486031215615cdf57615cde614d82565b5b6000615ced86828701614dd5565b9350506020615cfe86828701614e0b565b9250506040615d0f86828701614e0b565b9150509250925092565b600081905092915050565b6000615d2f8261515d565b615d398185615d19565b9350615d49818560208601615179565b80840191505092915050565b7f2f00000000000000000000000000000000000000000000000000000000000000815250565b6000615d878285615d24565b9150615d9282615d55565b600182019150615da28284615d24565b91508190509392505050565b7f496e76616c696420494400000000000000000000000000000000000000000000600082015250565b6000615de4600a83615168565b9150615def82615dae565b602082019050919050565b60006020820190508181036000830152615e1381615dd7565b9050919050565b7f496e76616c69642070726963652f616d6f756e74000000000000000000000000600082015250565b6000615e50601483615168565b9150615e5b82615e1a565b602082019050919050565b60006020820190508181036000830152615e7f81615e43565b9050919050565b7f496e76616c696420616464726573730000000000000000000000000000000000600082015250565b6000615ebc600f83615168565b9150615ec782615e86565b602082019050919050565b60006020820190508181036000830152615eeb81615eaf565b9050919050565b7f556e617574686f72697a6564206163636f756e74000000000000000000000000600082015250565b6000615f28601483615168565b9150615f3382615ef2565b602082019050919050565b60006020820190508181036000830152615f5781615f1b565b9050919050565b7f452d426f6f6b206973206e6f74206c6973746564206f7220736f6c64206f7574600082015250565b6000615f94602083615168565b9150615f9f82615f5e565b602082019050919050565b60006020820190508181036000830152615fc381615f87565b9050919050565b7f4e487b7100000000000000000000000000000000000000000000000000000000600052601160045260246000fd5b600061600482614dea565b915061600f83614dea565b925082820390508181111561602757616026615fca565b5b92915050565b7f457863656564656420616d6f756e7420746f20756e6c69737400000000000000600082015250565b6000616063601983615168565b915061606e8261602d565b602082019050919050565b6000602082019050818103600083015261609281616056565b9050919050565b7f4e487b7100000000000000000000000000000000000000000000000000000000600052602260045260246000fd5b600060028204905060018216806160e057607f821691505b6020821081036160f3576160f2616099565b5b50919050565b7f4f7264657220616c6c2066756c66696c6c656400000000000000000000000000600082015250565b600061612f601383615168565b915061613a826160f9565b602082019050919050565b6000602082019050818103600083015261615e81616122565b9050919050565b600061617082614dea565b91507fffffffffffffffffffffffffffffffffffffffffffffffffffffffffffffffff82036161a2576161a1615fca565b5b600182019050919050565b7f4e487b7100000000000000000000000000000000000000000000000000000000600052603260045260246000fd5b7f455243313135353a2063616c6c6572206973206e6f7420746f6b656e206f776e60008201527f6572206f7220617070726f766564000000000000000000000000000000000000602082015250565b6000616238602e83615168565b9150616243826161dc565b604082019050919050565b600060208201905081810360008301526162678161622b565b9050919050565b7f416363657373436f6e74726f6c3a2063616e206f6e6c792072656e6f756e636560008201527f20726f6c657320666f722073656c660000000000000000000000000000000000602082015250565b60006162ca602f83615168565b91506162d58261626e565b604082019050919050565b600060208201905081810360008301526162f9816162bd565b9050919050565b600061630c8284615d24565b915081905092915050565b7f6e6f742062757965720000000000000000000000000000000000000000000000600082015250565b600061634d600983615168565b915061635882616317565b602082019050919050565b6000602082019050818103600083015261637c81616340565b9050919050565b600061638e82614dea565b915061639983614dea565b92508282026163a781614dea565b915082820484148315176163be576163bd615fca565b5b5092915050565b7f4e487b7100000000000000000000000000000000000000000000000000000000600052601260045260246000fd5b60006163ff82614dea565b915061640a83614dea565b92508261641a576164196163c5565b5b828204905092915050565b600081905092915050565b50565b6000616440600083616425565b915061644b82616430565b600082019050919050565b600061646182616433565b9150819050919050565b7f427579696e67206661696c656400000000000000000000000000000000000000600082015250565b60006164a1600d83615168565b91506164ac8261646b565b602082019050919050565b600060208201905081810360008301526164d081616494565b9050919050565b60006164e282614dea565b9150600082036164f5576164f4615fca565b5b600182039050919050565b7f4275796572206861732064657465726d696e6564000000000000000000000000600082015250565b6000616536601483615168565b915061654182616500565b602082019050919050565b6000602082019050818103600083015261656581616529565b9050919050565b61657581614dac565b82525050565b6000602082019050616590600083018461656c565b92915050565b7f496e73656666696369656e742062616c616e636520746f206c69737400000000600082015250565b60006165cc601c83615168565b91506165d782616596565b602082019050919050565b600060208201905081810360008301526165fb816165bf565b9050919050565b600061660d82614dea565b915061661883614dea565b92508282019050808211156166305761662f615fca565b5b92915050565b7f455243313135353a2061646472657373207a65726f206973206e6f742061207660008201527f616c6964206f776e657200000000000000000000000000000000000000000000602082015250565b6000616692602a83615168565b915061669d82616636565b604082019050919050565b600060208201905081810360008301526166c181616685565b9050919050565b7f5061757361626c653a2070617573656400000000000000000000000000000000600082015250565b60006166fe601083615168565b9150616709826166c8565b602082019050919050565b6000602082019050818103600083015261672d816166f1565b9050919050565b60008190508160005260206000209050919050565b60006020601f8301049050919050565b600082821b905092915050565b6000600883026167967fffffffffffffffffffffffffffffffffffffffffffffffffffffffffffffffff82616759565b6167a08683616759565b95508019841693508086168417925050509392505050565b6000819050919050565b60006167dd6167d86167d384614dea565b6167b8565b614dea565b9050919050565b6000819050919050565b6167f7836167c2565b61680b616803826167e4565b848454616766565b825550505050565b600090565b616820616813565b61682b8184846167ee565b505050565b5b8181101561684f57616844600082616818565b600181019050616831565b5050565b601f8211156168945761686581616734565b61686e84616749565b8101602085101561687d578190505b61689161688985616749565b830182616830565b50505b505050565b600082821c905092915050565b60006168b760001984600802616899565b1980831691505092915050565b60006168d083836168a6565b9150826002028217905092915050565b6168e98261515d565b67ffffffffffffffff81111561690257616901614ea5565b5b61690c82546160c8565b616917828285616853565b600060209050601f83116001811461694a5760008415616938578287015190505b61694285826168c4565b8655506169aa565b601f19841661695886616734565b60005b828110156169805784890151825560018201915060208501945060208101905061695b565b8683101561699d5784890151616999601f8916826168a6565b8355505b6001600288020188555050505b505050505050565b7f455243313135353a206d696e7420746f20746865207a65726f2061646472657360008201527f7300000000000000000000000000000000000000000000000000000000000000602082015250565b6000616a0e602183615168565b9150616a19826169b2565b604082019050919050565b60006020820190508181036000830152616a3d81616a01565b9050919050565b7f455243313135353a2069647320616e6420616d6f756e7473206c656e6774682060008201527f6d69736d61746368000000000000000000000000000000000000000000000000602082015250565b6000616aa0602883615168565b9150616aab82616a44565b604082019050919050565b60006020820190508181036000830152616acf81616a93565b9050919050565b60006040820190508181036000830152616af081856158f2565b90508181036020830152616b0481846158f2565b90509392505050565b7f455243313135353a207472616e7366657220746f20746865207a65726f20616460008201527f6472657373000000000000000000000000000000000000000000000000000000602082015250565b6000616b69602583615168565b9150616b7482616b0d565b604082019050919050565b60006020820190508181036000830152616b9881616b5c565b9050919050565b7f455243313135353a20696e73756666696369656e742062616c616e636520666f60008201527f72207472616e7366657200000000000000000000000000000000000000000000602082015250565b6000616bfb602a83615168565b9150616c0682616b9f565b604082019050919050565b60006020820190508181036000830152616c2a81616bee565b9050919050565b7f455243313135353a206163636f756e747320616e6420696473206c656e67746860008201527f206d69736d617463680000000000000000000000000000000000000000000000602082015250565b6000616c8d602983615168565b9150616c9882616c31565b604082019050919050565b60006020820190508181036000830152616cbc81616c80565b9050919050565b6000604082019050616cd86000830185614e60565b616ce56020830184614e60565b9392505050565b7f416363657373436f6e74726f6c3a206163636f756e7420000000000000000000600082015250565b6000616d22601783615d19565b9150616d2d82616cec565b601782019050919050565b7f206973206d697373696e6720726f6c6520000000000000000000000000000000600082015250565b6000616d6e601183615d19565b9150616d7982616d38565b601182019050919050565b6000616d8f82616d15565b9150616d9b8285615d24565b9150616da682616d61565b9150616db28284615d24565b91508190509392505050565b7f455243313135353a2073657474696e6720617070726f76616c2073746174757360008201527f20666f722073656c660000000000000000000000000000000000000000000000602082015250565b6000616e1a602983615168565b9150616e2582616dbe565b604082019050919050565b60006020820190508181036000830152616e4981616e0d565b9050919050565b7f496e73756666696369656e742062616c616e636520746f207472616e73666572600082015250565b6000616e86602083615168565b9150616e9182616e50565b602082019050919050565b60006020820190508181036000830152616eb581616e79565b9050919050565b600081519050919050565b600082825260208201905092915050565b6000616ee382616ebc565b616eed8185616ec7565b9350616efd818560208601615179565b616f0681614e94565b840191505092915050565b600060a082019050616f26600083018861656c565b616f33602083018761656c565b8181036040830152616f4581866158f2565b90508181036060830152616f5981856158f2565b90508181036080830152616f6d8184616ed8565b90509695505050505050565b600081519050616f8881615058565b92915050565b600060208284031215616fa457616fa3614d82565b5b6000616fb284828501616f79565b91505092915050565b60008160e01c9050919050565b600060033d1115616fe75760046000803e616fe4600051616fbb565b90505b90565b600060443d1061707757616ffc614d78565b60043d036004823e80513d602482011167ffffffffffffffff82111715617024575050617077565b808201805167ffffffffffffffff8111156170425750505050617077565b80602083010160043d03850181111561705f575050505050617077565b61706e82602001850186614ed4565b82955050505050505b90565b7f455243313135353a207472616e7366657220746f206e6f6e2d4552433131353560008201527f526563656976657220696d706c656d656e746572000000000000000000000000602082015250565b60006170d6603483615168565b91506170e18261707a565b604082019050919050565b60006020820190508181036000830152617105816170c9565b9050919050565b7f455243313135353a204552433131353552656365697665722072656a6563746560008201527f6420746f6b656e73000000000000000000000000000000000000000000000000602082015250565b6000617168602883615168565b91506171738261710c565b604082019050919050565b600060208201905081810360008301526171978161715b565b9050919050565b7f5061757361626c653a206e6f7420706175736564000000000000000000000000600082015250565b60006171d4601483615168565b91506171df8261719e565b602082019050919050565b60006020820190508181036000830152617203816171c7565b9050919050565b7f455243313135353a206275726e2066726f6d20746865207a65726f206164647260008201527f6573730000000000000000000000000000000000000000000000000000000000602082015250565b6000617266602383615168565b91506172718261720a565b604082019050919050565b6000602082019050818103600083015261729581617259565b9050919050565b7f455243313135353a206275726e20616d6f756e7420657863656564732062616c60008201527f616e636500000000000000000000000000000000000000000000000000000000602082015250565b60006172f8602483615168565b91506173038261729c565b604082019050919050565b60006020820190508181036000830152617327816172eb565b9050919050565b600060a082019050617343600083018861656c565b617350602083018761656c565b61735d6040830186614e60565b61736a6060830185614e60565b818103608083015261737c8184616ed8565b90509695505050505050565b7f537472696e67733a20686578206c656e67746820696e73756666696369656e74600082015250565b60006173be602083615168565b91506173c982617388565b602082019050919050565b600060208201905081810360008301526173ed816173b1565b9050919050565b7f455243313135353a206275726e20616d6f756e74206578636565647320746f7460008201527f616c537570706c79000000000000000000000000000000000000000000000000602082015250565b6000617450602883615168565b915061745b826173f4565b604082019050919050565b6000602082019050818103600083015261747f81617443565b905091905056fea26469706673582212201ef6a51b2f3350e5f72333fd5c79becd26a3e93f2b922dea615785b5ea1106e864736f6c63430008130033",
  "immutableReferences": {},
  "source": "// SPDX-License-Identifier: MIT\r\npragma solidity ^0.8.7;\r\n\r\n/*import \"../node_modules/@openzeppelin/contracts-upgradeable/token/ERC1155/ERC1155Upgradeable.sol\";\r\nimport \"../node_modules/@openzeppelin/contracts-upgradeable/access/AccessControlUpgradeable.sol\";\r\nimport \"../node_modules/@openzeppelin/contracts-upgradeable/security/PausableUpgradeable.sol\";\r\nimport \"../node_modules/@openzeppelin/contracts-upgradeable/token/ERC1155/extensions/ERC1155BurnableUpgradeable.sol\";\r\nimport \"../node_modules/@openzeppelin/contracts-upgradeable/token/ERC1155/extensions/ERC1155SupplyUpgradeable.sol\";\r\nimport \"../node_modules/@openzeppelin/contracts-upgradeable/proxy/utils/Initializable.sol\";\r\nimport \"../node_modules/@openzeppelin/contracts-upgradeable/utils/StringsUpgradeable.sol\";*/\r\nimport \"../node_modules/@openzeppelin/contracts/token/ERC1155/ERC1155.sol\";\r\nimport \"../node_modules/@openzeppelin/contracts/access/AccessControl.sol\";\r\nimport \"../node_modules/@openzeppelin/contracts/security/Pausable.sol\";\r\nimport \"../node_modules/@openzeppelin/contracts/token/ERC1155/extensions/ERC1155Burnable.sol\";\r\nimport \"../node_modules/@openzeppelin/contracts/token/ERC1155/extensions/ERC1155Supply.sol\";\r\nimport \"../node_modules/@openzeppelin/contracts/utils/Strings.sol\";\r\nimport \"./Market.sol\";\r\n\r\n/// @custom:security-contact dodo920306@gmail.com\r\ncontract The_Ohara_Protocol is ERC1155, AccessControl, Pausable, ERC1155Burnable, ERC1155Supply {\r\n    \r\n    mapping (uint256 => bytes32) idToPublisher; // Anyone can check which publisher an id belongs to.\r\n    mapping (string => bool) publisherHasMember;\r\n\r\n    struct Listing {\r\n        uint256 price; // \r\n        uint256 listedBalance; // \r\n        uint256 buyerCounts; // \r\n        address[] buyers; // \r\n    }\r\n    \r\n    mapping (uint256 => mapping (address => Listing)) listings; // id => seller => Listing\r\n\r\n    address market;\r\n\r\n    event EBookListed(uint256 indexed id, address indexed seller, uint256 indexed price, uint256 amount);\r\n    event PriceModified(uint256 indexed id, address priceModifier, uint256 indexed originalPrice, uint256 indexed currentPrice);\r\n    event ListingCancelled(uint256 indexed id, address indexed seller, address indexed canceller);\r\n    event BuyerDetermined(uint256 indexed id, address indexed seller, address indexed buyer);\r\n    event TransactionMade(address indexed seller, address indexed buyer, uint256 indexed id);\r\n\r\n    modifier isIdExisted(uint256 id) {\r\n        require(super.exists(id), \"Invalid ID\");\r\n        _;\r\n    }\r\n\r\n    modifier IsPriceOrAmountValid(uint256 priceOrAmount) {\r\n        require(priceOrAmount > 0, \"Invalid price/amount\");\r\n        _;\r\n    }\r\n\r\n    modifier isApproved(address seller) {\r\n        require(super.isApprovedForAll(msg.sender, seller), \"Unauthorized account\");\r\n        _;\r\n    }\r\n\r\n    modifier isAddressValid(address addr) {\r\n        require(addr != address(0), \"Invalid address\");\r\n        _;\r\n    }\r\n\r\n    modifier IsEBookAvailableOnOrder(uint256 id, address seller) {  // /\r\n        require(listings[id][seller].listedBalance > 0, \"E-Book is not listed or sold out\");\r\n        _;\r\n    }\r\n\r\n    /// @custom:oz-upgrades-unsafe-allow constructor\r\n    constructor(address addr) ERC1155(\"\") {\r\n        market = addr;\r\n        _grantRole(DEFAULT_ADMIN_ROLE, msg.sender);\r\n        //_disableInitializers();\r\n    }\r\n\r\n    // There's no onlyPublisherSingle, for that it basically equals to onlyRole modifier from AccessControl. \r\n    modifier onlyPublisherBatch(uint256[] memory ids) {\r\n        for (uint256 i = 0; i < ids.length; ++i) {\r\n            _checkRole(idToPublisher[ids[i]]);\r\n        }\r\n        _;\r\n    }\r\n\r\n    /*function initialize(address addr) initializer public {\r\n        __ERC1155_init(\"\");\r\n        __AccessControl_init();\r\n        __Pausable_init();\r\n        __ERC1155Burnable_init();\r\n        __ERC1155Supply_init();\r\n\r\n        _grantRole(DEFAULT_ADMIN_ROLE, msg.sender);\r\n        \r\n    }*/\r\n\r\n    function setURI(string memory newuri) public whenNotPaused onlyRole(DEFAULT_ADMIN_ROLE) { // Tim: added whenNotPaused\r\n        _setURI(newuri);\r\n    }\r\n\r\n    // Tim: get the actual e-book uri, may require further modifications\r\n    // Tim: using toString() for getURIOfId()\r\n    using Strings for uint256;   \r\n    function getURIOfId(uint256 id) public view returns(string memory) {\r\n        return string.concat(super.uri(id), \"/\", id.toString());\r\n    }\r\n\r\n    /**\r\n     * @dev The publisher who wants to claim an account belongs to them must use this function\r\n     * with the magic string that represents themselves.\r\n     * \r\n     * The function will uses keccak256 solidity function to hash this string, but before that, it must be represented as bytes32.\r\n     * The type conversion from \"string memory\" to \"bytes32\" isn't allowed, so we use abi.encode() here.\r\n     * See https://ethereum.stackexchange.com/questions/119583/when-to-use-abi-encode-abi-encodepacked-or-abi-encodewithsignature-in-solidity\r\n     * for the reason of this selection.\r\n     * \r\n     * After that, we use grantRole() function from AccessControl,\r\n     * the reason we don't directly use _grantRole() here is because the onlyRole(getRoleAdmin(role)) should also be passed in this operation,\r\n     * and since grantRole() has that modifier originally, the current function doesn't require any modifier yet,\r\n     * and there's no need to be afraid that anyone hash others' magic string and directly call grantRole() because there's no way he/she can be the admin.\r\n     * \r\n     * If it's the first member to be added in the publisher,\r\n     * the msg.sender must be DEFAULT_ADMIN_ROLE to pass onlyRole(getRoleAdmin(role)) for that there's no way to set admin to others.\r\n     * If so, then the function would call _setRoleAdmin() to release the admin power to the publisher itself,\r\n     * indicating that from this point on, only the publisher can manage which accounts can act on its behalf.\r\n     * \r\n     * The only risk would be that a hacker steal one private key from DEFAULT_ADMIN_ROLE,\r\n     * in that case, the worse he/she can do is grant his/her accounts the publisher role that \"hasn't been registered yet\",\r\n     * for that the admins of the publishers already in the protocol can only be themselves.\r\n     * If so, then the publishers register in the future cannot use the same magic string as the hacker granted himself/herself even if they want.\r\n     * (Basically, it's the same idea as \"This username has already been used. Please try another.\",\r\n     * so the power of DEFAULT_ADMIN_ROLE is basically just register publishers and ids.)\r\n     */\r\n    function grantPublisher(string memory publisher, address account) public virtual whenNotPaused { // Tim: added whenNotPaused\r\n        bytes32 role = keccak256(abi.encode(publisher));\r\n        grantRole(role, account);\r\n\r\n        if (!publisherHasMember[publisher]) {\r\n            publisherHasMember[publisher] = true;\r\n            _setRoleAdmin(role, role);\r\n        }\r\n    }\r\n\r\n    /**\r\n     * @dev See the comment of grantPublisher() above for more info about the string publisher and the bytes32 role.\r\n     * Only the old publisher could set the publisher of an id to a new one.\r\n     * Since the default publisher of the id is 0x00, the first publisher of the id must be set by the DEFAULT_ADMIN_ROLE.\r\n     */\r\n    function setIdToPublisher(uint256 id, string memory publisher) //Tim: added whenNotPaused\r\n        public\r\n        whenNotPaused\r\n        onlyRole(idToPublisher[id])\r\n    {\r\n        bytes32 role = keccak256(abi.encode(publisher));\r\n        idToPublisher[id] = role;\r\n    }\r\n\r\n    // Tim: added idExists() to check if an id has existed\r\n    function idExists(uint256 id) public view returns (bool) {\r\n        return super.exists(id);\r\n    }\r\n\r\n    /**\r\n     * @dev See the comment of grantPublisher() above for more info about the string publisher and the bytes32 role.\r\n     * The reason we don't directly call _revokeRole() and the this function is safe is the same reason grantPublisher() doesn't call _grantRole().\r\n     * Use this function to kick someone including msg.sender himself/herself out of the publisher.\r\n     * The function also can only be called by the publisher itself.\r\n     */\r\n    function revokePublisher(string memory publisher, address account) public virtual whenNotPaused { // Tim: added whenNotPaused\r\n        bytes32 role = keccak256(abi.encode(publisher));\r\n        revokeRole(role, account);\r\n    }\r\n\r\n    // Tim: added two functions to call hasRole() & getRoleAdmin(), not sure if thye're needed\r\n    /*function hasRole(string memory role, address account) public view returns(bool) {\r\n        return super.hasRole(keccak256(abi.encode(role)), account);\r\n    }\r\n\r\n    function getRoleAdmin(string memory role) public view returns(bytes32) {\r\n        return super.getRoleAdmin(keccak256(abi.encode(role)));\r\n    }*/\r\n\r\n    function pause() public onlyRole(DEFAULT_ADMIN_ROLE) {\r\n        _pause();\r\n    }\r\n\r\n    function unpause() public onlyRole(DEFAULT_ADMIN_ROLE) {\r\n        _unpause();\r\n    }\r\n\r\n    // The publisher of the id would have power to mint the id to whoever they want.\r\n    function mint(address to, uint256 id, uint256 amount, bytes memory data)\r\n        public\r\n        whenNotPaused\r\n        onlyRole(idToPublisher[id])\r\n    {\r\n        _mint(to, id, amount, data);\r\n    }\r\n\r\n    function mintBatch(address to, uint256[] memory ids, uint256[] memory amounts, bytes memory data)\r\n        public\r\n        whenNotPaused\r\n        onlyPublisherBatch(ids)\r\n    {\r\n        _mintBatch(to, ids, amounts, data);\r\n    }\r\n\r\n    // Tim: added burn() & burnBatch()\r\n    function burn(address from, uint256 id, uint256 amount) public override(ERC1155Burnable) whenNotPaused {\r\n\r\n        require(balanceOf(from, id) - listedBalanceOf(from, id) >= amount); // \r\n\r\n        super.burn(from, id, amount);\r\n    }\r\n\r\n    function burnBatch(address from, uint256[] memory ids, uint256[] memory amounts) public override(ERC1155Burnable) whenNotPaused {\r\n\r\n        for (uint256 i = 0 ; i < ids.length ; ++i) { // \r\n            require(balanceOf(from, ids[i]) - listedBalanceOf(from, ids[i]) >= amounts[i]);\r\n        }\r\n\r\n        super.burnBatch(from, ids, amounts);\r\n    }\r\n\r\n    function _beforeTokenTransfer(address operator, address from, address to, uint256[] memory ids, uint256[] memory amounts, bytes memory data)\r\n        internal\r\n        whenNotPaused\r\n        override(ERC1155, ERC1155Supply)\r\n    {\r\n        for (uint256 i = 0 ; i < ids.length ; ++i) { // \r\n            require(balanceOf(from, ids[i]) - listedBalanceOf(from, ids[i]) >= amounts[i], \"Insufficient balance to transfer\");\r\n        }\r\n        super._beforeTokenTransfer(operator, from, to, ids, amounts, data);\r\n    }\r\n\r\n    // Tim: added transfer() & transferBatch()\r\n    function transfer(address from, address to, uint256 id, uint256 amount, bytes memory data) public {\r\n        super.safeTransferFrom(from, to, id, amount, data);\r\n    }\r\n\r\n    function transferBatch(address from, address to, uint256[] memory ids, uint256[] memory amounts, bytes memory data) public {\r\n        super.safeBatchTransferFrom(from, to, ids, amounts, data);\r\n    }\r\n\r\n    // Tim: added balanceOf() & balanceOfBatch()\r\n    function balanceOf(address account, uint256 id) \r\n        public\r\n        view\r\n        virtual\r\n        override(ERC1155)\r\n        returns(uint256)\r\n    {\r\n        return super.balanceOf(account, id);\r\n    }\r\n\r\n    function balanceOfBatch(address[] memory accounts, uint256[] memory ids)\r\n        public\r\n        view\r\n        virtual\r\n        override(ERC1155)\r\n        returns (uint256[] memory)\r\n    {\r\n        return super.balanceOfBatch(accounts, ids) ;\r\n    }\r\n\r\n    // Tim: added setApprovalForAll() & isApprovedForAll()\r\n    function setApprovalForAll(address operator, bool approved) public override(ERC1155) whenNotPaused {\r\n        super.setApprovalForAll(operator, approved);\r\n    }\r\n\r\n    function isApprovedForAll(address account, address operator) public view override(ERC1155) returns (bool) {\r\n        return super.isApprovedForAll(account, operator);\r\n    }\r\n\r\n    // Tim: added getIdSupply()\r\n    function getIdSupply(uint256 id) public view returns (uint256) {\r\n        return super.totalSupply(id);\r\n    }\r\n\r\n    function changeMarketAddr(address newAddr) public onlyRole(DEFAULT_ADMIN_ROLE) {\r\n        market = newAddr;\r\n    }\r\n/*\r\n    function checkIsBuyer(uint256 id, address seller, address buyer) public returns (int256) {\r\n        (bool ok, bytes memory data) = market.delegatecall(\r\n            abi.encodeWithSignature(\"checkIsBuyer(uint256,address,address)\", id, seller, buyer)\r\n        );\r\n        require(ok);\r\n        return abi.decode(data, (int256));\r\n    }\r\n\r\n    // Tim:  ID \r\n    function listedBalanceOf(address account, uint256 id) public view returns(uint256) {\r\n        return listings[id][account].listedBalance;\r\n    }\r\n\r\n    // Tim: \r\n    function listEBook(uint256 id, address seller, uint256 price, uint256 amount) public {\r\n        (bool ok, ) = market.delegatecall(\r\n            abi.encodeWithSignature(\"listEBook(uint256,address,uint256,uint256)\", id, seller, price, amount)\r\n        );\r\n        require(ok);\r\n    }\r\n\r\n    // Tim: \r\n    function modifyPrice(uint256 id, address seller, uint256 price) public {\r\n        (bool ok, ) = market.delegatecall(\r\n            abi.encodeWithSignature(\"modifyPrice(uint256,address,uint256)\", id, seller, price)\r\n        );\r\n        require(ok);\r\n    }\r\n\r\n    // Tim: \r\n    function cancelListing(uint256 id, address seller, uint256 amount) public {\r\n        (bool ok, ) = market.delegatecall(\r\n            abi.encodeWithSignature(\"cancelListing(uint256,address,uint256)\", id, seller, amount)\r\n        );\r\n        require(ok);\r\n    }\r\n\r\n    // Tim: \r\n    function determineBuyer(address seller, address buyer, uint256 id) public onlyRole(DEFAULT_ADMIN_ROLE) {\r\n        (bool ok, ) = market.delegatecall(\r\n            abi.encodeWithSignature(\"cancelListing(address,address,uint256)\", seller, buyer, id)\r\n        );\r\n        require(ok);\r\n    }\r\n\r\n    // Tim:  buyers \r\n    function purchaseEBook(uint256 id, address seller) public {\r\n        int256 index = checkIsBuyer(id, seller, msg.sender);\r\n        (bool ok, ) = market.delegatecall(\r\n            abi.encodeWithSignature(\"purchaseEBook(uint256,address,int256)\", id, seller, index)\r\n        );\r\n        require(ok);\r\n    }\r\n*/\r\n    //  Tim: ( determineBuyer )\r\n    function _grantApprovalToContract(address seller) private {\r\n        super._setApprovalForAll(seller, address(this), true);\r\n    }\r\n\r\n    // Tim: ( purchaseEBook )\r\n    function _revokeApprovalFromContract(address seller) private {\r\n        super._setApprovalForAll(seller, address(this), false);\r\n    }\r\n\r\n    function checkIsBuyer(uint256 id, address seller, address buyer) public view returns (int256) {\r\n\r\n        uint256 length = listings[id][seller].buyers.length;\r\n        address[] memory buyers = listings[id][seller].buyers;\r\n        \r\n        for (uint256 i = 0 ; i < length ; ++i) {\r\n            if (buyers[i] == buyer) {\r\n                return int256(i);\r\n            }\r\n        }\r\n\r\n        return -1;\r\n    }\r\n\r\n    // Tim:  ID \r\n    function listedBalanceOf(address account, uint256 id) public view virtual returns(uint256) {\r\n        return listings[id][account].listedBalance;\r\n    }\r\n\r\n    // Tim: \r\n    function listEBook(uint256 id, address seller, uint256 price, uint256 amount) public virtual whenNotPaused isIdExisted(id) IsPriceOrAmountValid(price) IsPriceOrAmountValid(amount) isAddressValid(seller) isApproved(seller) {\r\n        require(balanceOf(seller, id) - listings[id][seller].listedBalance >= amount, \"Insefficient balance to list\"); //  -  >= \r\n\r\n        if (listings[id][seller].buyerCounts == 0) {\r\n            listings[id][seller].price = price;\r\n        }\r\n\r\n        listings[id][seller].listedBalance += amount;\r\n\r\n        emit EBookListed(id, seller, price, amount);\r\n    }\r\n\r\n    // Tim: \r\n    function modifyPrice(uint256 id, address seller, uint256 price) public virtual whenNotPaused isIdExisted(id) IsPriceOrAmountValid(price) isAddressValid(seller) isApproved(seller) IsEBookAvailableOnOrder(id, seller) {\r\n        require(listings[id][seller].buyerCounts == 0, \"Buyer has determined\"); //  determineBuyer\r\n\r\n        uint256 originalPrice = listings[id][seller].price;\r\n        listings[id][seller].price = price;\r\n\r\n        emit PriceModified (id, msg.sender, originalPrice, price);\r\n    }\r\n\r\n    // Tim: \r\n    function cancelListing(uint256 id, address seller, uint256 amount) public virtual whenNotPaused isIdExisted(id) IsPriceOrAmountValid(amount) isAddressValid(seller) isApproved(seller) IsEBookAvailableOnOrder(id, seller) {\r\n        require(listings[id][seller].listedBalance - listings[id][seller].buyerCounts >= amount, \"Exceeded amount to unlist\"); //  >= \r\n\r\n        unchecked {\r\n            listings[id][seller].listedBalance -= amount;\r\n        }\r\n\r\n        if (listings[id][seller].listedBalance == 0) {\r\n            delete listings[id][seller];\r\n        }\r\n\r\n        emit ListingCancelled(id, seller, msg.sender);\r\n    }\r\n\r\n    // Tim: \r\n    function determineBuyer(address seller, address buyer, uint256 id) public virtual whenNotPaused onlyRole(DEFAULT_ADMIN_ROLE) isIdExisted(id) isAddressValid(seller) isAddressValid(buyer) {\r\n        require(listings[id][seller].listedBalance > listings[id][seller].buyerCounts, \"Order all fulfilled\"); // \r\n\r\n        listings[id][seller].buyers.push(buyer);\r\n        \r\n        if (listings[id][seller].buyerCounts == 0) { // \r\n            _grantApprovalToContract(seller);\r\n        }\r\n\r\n        listings[id][seller].buyerCounts ++;\r\n\r\n        emit BuyerDetermined(id, seller, buyer);\r\n    }\r\n\r\n    // Tim:  buyers \r\n    function purchaseEBook(uint256 id, address seller, int256 index) public virtual whenNotPaused isIdExisted(id) isAddressValid(seller) IsEBookAvailableOnOrder(id, seller) {\r\n\r\n        address buyer = msg.sender;\r\n        require(index != -1, \"not buyer\");\r\n\r\n        uint256 price = listings[id][seller].price;\r\n        \r\n        uint256 fee = price * 25 / 1000;\r\n\r\n        super.safeTransferFrom(seller, buyer, id, 0, \"\"); // transfer ebook to buyer\r\n\r\n        (bool success, ) = seller.call{ value: price }(\"\"); // transfer ether to seller\r\n        require(success, \"Buying failed\");\r\n\r\n        //(bool suucess, ) = multiSigWallet.call{ value: fee}(\"\");\r\n        //require(success, \"Buying failed\");\r\n\r\n        listings[id][seller].listedBalance --;\r\n        listings[id][seller].buyerCounts --;\r\n        listings[id][seller].buyers[uint256(index)] = address(0);\r\n\r\n        if (listings[id][seller].buyerCounts == 0) {\r\n            _revokeApprovalFromContract(seller);\r\n        }\r\n\r\n        if (listings[id][seller].listedBalance == 0) {\r\n            delete listings[id][seller];\r\n        }\r\n\r\n        emit TransactionMade(seller, buyer, id);\r\n    }\r\n\r\n    function supportsInterface(bytes4 interfaceId)\r\n        public\r\n        view\r\n        override(ERC1155, AccessControl)\r\n        returns (bool)\r\n    {\r\n        return super.supportsInterface(interfaceId);\r\n    }\r\n}",
  "sourcePath": "C:\\Users\\TimOu_0911\\Desktop\\The_Ohara_Protocol\\contracts\\The_Ohara_Protocol.sol",
  "compiler": {
    "name": "solc",
    "version": "0.8.19+commit.7dd6d404.Emscripten.clang"
  },
  "schemaVersion": "3.4.13",
  "updatedAt": "2023-06-26T07:18:16.407Z",
  "devdoc": {
    "custom:security-contact": "dodo920306@gmail.com",
    "events": {
      "ApprovalForAll(address,address,bool)": {
        "details": "Emitted when `account` grants or revokes permission to `operator` to transfer their tokens, according to `approved`."
      },
      "Paused(address)": {
        "details": "Emitted when the pause is triggered by `account`."
      },
      "RoleAdminChanged(bytes32,bytes32,bytes32)": {
        "details": "Emitted when `newAdminRole` is set as ``role``'s admin role, replacing `previousAdminRole` `DEFAULT_ADMIN_ROLE` is the starting admin for all roles, despite {RoleAdminChanged} not being emitted signaling this. _Available since v3.1._"
      },
      "RoleGranted(bytes32,address,address)": {
        "details": "Emitted when `account` is granted `role`. `sender` is the account that originated the contract call, an admin role bearer except when using {AccessControl-_setupRole}."
      },
      "RoleRevoked(bytes32,address,address)": {
        "details": "Emitted when `account` is revoked `role`. `sender` is the account that originated the contract call:   - if using `revokeRole`, it is the admin role bearer   - if using `renounceRole`, it is the role bearer (i.e. `account`)"
      },
      "TransferBatch(address,address,address,uint256[],uint256[])": {
        "details": "Equivalent to multiple {TransferSingle} events, where `operator`, `from` and `to` are the same for all transfers."
      },
      "TransferSingle(address,address,address,uint256,uint256)": {
        "details": "Emitted when `value` tokens of token type `id` are transferred from `from` to `to` by `operator`."
      },
      "URI(string,uint256)": {
        "details": "Emitted when the URI for token type `id` changes to `value`, if it is a non-programmatic URI. If an {URI} event was emitted for `id`, the standard https://eips.ethereum.org/EIPS/eip-1155#metadata-extensions[guarantees] that `value` will equal the value returned by {IERC1155MetadataURI-uri}."
      },
      "Unpaused(address)": {
        "details": "Emitted when the pause is lifted by `account`."
      }
    },
    "kind": "dev",
    "methods": {
      "balanceOf(address,uint256)": {
        "details": "See {IERC1155-balanceOf}. Requirements: - `account` cannot be the zero address."
      },
      "balanceOfBatch(address[],uint256[])": {
        "details": "See {IERC1155-balanceOfBatch}. Requirements: - `accounts` and `ids` must have the same length."
      },
      "constructor": {
        "custom:oz-upgrades-unsafe-allow": "constructor"
      },
      "exists(uint256)": {
        "details": "Indicates whether any token exist with a given id, or not."
      },
      "getRoleAdmin(bytes32)": {
        "details": "Returns the admin role that controls `role`. See {grantRole} and {revokeRole}. To change a role's admin, use {_setRoleAdmin}."
      },
      "grantPublisher(string,address)": {
        "details": "The publisher who wants to claim an account belongs to them must use this function with the magic string that represents themselves.  The function will uses keccak256 solidity function to hash this string, but before that, it must be represented as bytes32. The type conversion from \"string memory\" to \"bytes32\" isn't allowed, so we use abi.encode() here. See https://ethereum.stackexchange.com/questions/119583/when-to-use-abi-encode-abi-encodepacked-or-abi-encodewithsignature-in-solidity for the reason of this selection.  After that, we use grantRole() function from AccessControl, the reason we don't directly use _grantRole() here is because the onlyRole(getRoleAdmin(role)) should also be passed in this operation, and since grantRole() has that modifier originally, the current function doesn't require any modifier yet, and there's no need to be afraid that anyone hash others' magic string and directly call grantRole() because there's no way he/she can be the admin.  If it's the first member to be added in the publisher, the msg.sender must be DEFAULT_ADMIN_ROLE to pass onlyRole(getRoleAdmin(role)) for that there's no way to set admin to others. If so, then the function would call _setRoleAdmin() to release the admin power to the publisher itself, indicating that from this point on, only the publisher can manage which accounts can act on its behalf.  The only risk would be that a hacker steal one private key from DEFAULT_ADMIN_ROLE, in that case, the worse he/she can do is grant his/her accounts the publisher role that \"hasn't been registered yet\", for that the admins of the publishers already in the protocol can only be themselves. If so, then the publishers register in the future cannot use the same magic string as the hacker granted himself/herself even if they want. (Basically, it's the same idea as \"This username has already been used. Please try another.\", so the power of DEFAULT_ADMIN_ROLE is basically just register publishers and ids.)"
      },
      "grantRole(bytes32,address)": {
        "details": "Grants `role` to `account`. If `account` had not been already granted `role`, emits a {RoleGranted} event. Requirements: - the caller must have ``role``'s admin role. May emit a {RoleGranted} event."
      },
      "hasRole(bytes32,address)": {
        "details": "Returns `true` if `account` has been granted `role`."
      },
      "isApprovedForAll(address,address)": {
        "details": "See {IERC1155-isApprovedForAll}."
      },
      "paused()": {
        "details": "Returns true if the contract is paused, and false otherwise."
      },
      "renounceRole(bytes32,address)": {
        "details": "Revokes `role` from the calling account. Roles are often managed via {grantRole} and {revokeRole}: this function's purpose is to provide a mechanism for accounts to lose their privileges if they are compromised (such as when a trusted device is misplaced). If the calling account had been revoked `role`, emits a {RoleRevoked} event. Requirements: - the caller must be `account`. May emit a {RoleRevoked} event."
      },
      "revokePublisher(string,address)": {
        "details": "See the comment of grantPublisher() above for more info about the string publisher and the bytes32 role. The reason we don't directly call _revokeRole() and the this function is safe is the same reason grantPublisher() doesn't call _grantRole(). Use this function to kick someone including msg.sender himself/herself out of the publisher. The function also can only be called by the publisher itself."
      },
      "revokeRole(bytes32,address)": {
        "details": "Revokes `role` from `account`. If `account` had been granted `role`, emits a {RoleRevoked} event. Requirements: - the caller must have ``role``'s admin role. May emit a {RoleRevoked} event."
      },
      "safeBatchTransferFrom(address,address,uint256[],uint256[],bytes)": {
        "details": "See {IERC1155-safeBatchTransferFrom}."
      },
      "safeTransferFrom(address,address,uint256,uint256,bytes)": {
        "details": "See {IERC1155-safeTransferFrom}."
      },
      "setApprovalForAll(address,bool)": {
        "details": "See {IERC1155-setApprovalForAll}."
      },
      "setIdToPublisher(uint256,string)": {
        "details": "See the comment of grantPublisher() above for more info about the string publisher and the bytes32 role. Only the old publisher could set the publisher of an id to a new one. Since the default publisher of the id is 0x00, the first publisher of the id must be set by the DEFAULT_ADMIN_ROLE."
      },
      "totalSupply(uint256)": {
        "details": "Total amount of tokens in with a given id."
      },
      "uri(uint256)": {
        "details": "See {IERC1155MetadataURI-uri}. This implementation returns the same URI for *all* token types. It relies on the token type ID substitution mechanism https://eips.ethereum.org/EIPS/eip-1155#metadata[defined in the EIP]. Clients calling this function must replace the `\\{id\\}` substring with the actual token type ID."
      }
    },
    "version": 1
  },
  "userdoc": {
    "kind": "user",
    "methods": {},
    "version": 1
  }
}