{
  "contractName": "The_Ohara_Protocol",
  "abi": [
    {
      "inputs": [],
      "stateMutability": "nonpayable",
      "type": "constructor"
    },
    {
      "anonymous": false,
      "inputs": [
        {
          "indexed": true,
          "internalType": "address",
          "name": "account",
          "type": "address"
        },
        {
          "indexed": true,
          "internalType": "address",
          "name": "operator",
          "type": "address"
        },
        {
          "indexed": false,
          "internalType": "bool",
          "name": "approved",
          "type": "bool"
        }
      ],
      "name": "ApprovalForAll",
      "type": "event"
    },
    {
      "anonymous": false,
      "inputs": [
        {
          "indexed": false,
          "internalType": "uint8",
          "name": "version",
          "type": "uint8"
        }
      ],
      "name": "Initialized",
      "type": "event"
    },
    {
      "anonymous": false,
      "inputs": [
        {
          "indexed": false,
          "internalType": "address",
          "name": "account",
          "type": "address"
        }
      ],
      "name": "Paused",
      "type": "event"
    },
    {
      "anonymous": false,
      "inputs": [
        {
          "indexed": true,
          "internalType": "bytes32",
          "name": "role",
          "type": "bytes32"
        },
        {
          "indexed": true,
          "internalType": "bytes32",
          "name": "previousAdminRole",
          "type": "bytes32"
        },
        {
          "indexed": true,
          "internalType": "bytes32",
          "name": "newAdminRole",
          "type": "bytes32"
        }
      ],
      "name": "RoleAdminChanged",
      "type": "event"
    },
    {
      "anonymous": false,
      "inputs": [
        {
          "indexed": true,
          "internalType": "bytes32",
          "name": "role",
          "type": "bytes32"
        },
        {
          "indexed": true,
          "internalType": "address",
          "name": "account",
          "type": "address"
        },
        {
          "indexed": true,
          "internalType": "address",
          "name": "sender",
          "type": "address"
        }
      ],
      "name": "RoleGranted",
      "type": "event"
    },
    {
      "anonymous": false,
      "inputs": [
        {
          "indexed": true,
          "internalType": "bytes32",
          "name": "role",
          "type": "bytes32"
        },
        {
          "indexed": true,
          "internalType": "address",
          "name": "account",
          "type": "address"
        },
        {
          "indexed": true,
          "internalType": "address",
          "name": "sender",
          "type": "address"
        }
      ],
      "name": "RoleRevoked",
      "type": "event"
    },
    {
      "anonymous": false,
      "inputs": [
        {
          "indexed": true,
          "internalType": "address",
          "name": "operator",
          "type": "address"
        },
        {
          "indexed": true,
          "internalType": "address",
          "name": "from",
          "type": "address"
        },
        {
          "indexed": true,
          "internalType": "address",
          "name": "to",
          "type": "address"
        },
        {
          "indexed": false,
          "internalType": "uint256[]",
          "name": "ids",
          "type": "uint256[]"
        },
        {
          "indexed": false,
          "internalType": "uint256[]",
          "name": "values",
          "type": "uint256[]"
        }
      ],
      "name": "TransferBatch",
      "type": "event"
    },
    {
      "anonymous": false,
      "inputs": [
        {
          "indexed": true,
          "internalType": "address",
          "name": "operator",
          "type": "address"
        },
        {
          "indexed": true,
          "internalType": "address",
          "name": "from",
          "type": "address"
        },
        {
          "indexed": true,
          "internalType": "address",
          "name": "to",
          "type": "address"
        },
        {
          "indexed": false,
          "internalType": "uint256",
          "name": "id",
          "type": "uint256"
        },
        {
          "indexed": false,
          "internalType": "uint256",
          "name": "value",
          "type": "uint256"
        }
      ],
      "name": "TransferSingle",
      "type": "event"
    },
    {
      "anonymous": false,
      "inputs": [
        {
          "indexed": false,
          "internalType": "string",
          "name": "value",
          "type": "string"
        },
        {
          "indexed": true,
          "internalType": "uint256",
          "name": "id",
          "type": "uint256"
        }
      ],
      "name": "URI",
      "type": "event"
    },
    {
      "anonymous": false,
      "inputs": [
        {
          "indexed": false,
          "internalType": "address",
          "name": "account",
          "type": "address"
        }
      ],
      "name": "Unpaused",
      "type": "event"
    },
    {
      "inputs": [],
      "name": "DEFAULT_ADMIN_ROLE",
      "outputs": [
        {
          "internalType": "bytes32",
          "name": "",
          "type": "bytes32"
        }
      ],
      "stateMutability": "view",
      "type": "function",
      "constant": true
    },
    {
      "inputs": [
        {
          "internalType": "address",
          "name": "account",
          "type": "address"
        },
        {
          "internalType": "uint256",
          "name": "id",
          "type": "uint256"
        }
      ],
      "name": "balanceOf",
      "outputs": [
        {
          "internalType": "uint256",
          "name": "",
          "type": "uint256"
        }
      ],
      "stateMutability": "view",
      "type": "function",
      "constant": true
    },
    {
      "inputs": [
        {
          "internalType": "address[]",
          "name": "accounts",
          "type": "address[]"
        },
        {
          "internalType": "uint256[]",
          "name": "ids",
          "type": "uint256[]"
        }
      ],
      "name": "balanceOfBatch",
      "outputs": [
        {
          "internalType": "uint256[]",
          "name": "",
          "type": "uint256[]"
        }
      ],
      "stateMutability": "view",
      "type": "function",
      "constant": true
    },
    {
      "inputs": [
        {
          "internalType": "address",
          "name": "account",
          "type": "address"
        },
        {
          "internalType": "uint256",
          "name": "id",
          "type": "uint256"
        },
        {
          "internalType": "uint256",
          "name": "value",
          "type": "uint256"
        }
      ],
      "name": "burn",
      "outputs": [],
      "stateMutability": "nonpayable",
      "type": "function"
    },
    {
      "inputs": [
        {
          "internalType": "address",
          "name": "account",
          "type": "address"
        },
        {
          "internalType": "uint256[]",
          "name": "ids",
          "type": "uint256[]"
        },
        {
          "internalType": "uint256[]",
          "name": "values",
          "type": "uint256[]"
        }
      ],
      "name": "burnBatch",
      "outputs": [],
      "stateMutability": "nonpayable",
      "type": "function"
    },
    {
      "inputs": [
        {
          "internalType": "uint256",
          "name": "id",
          "type": "uint256"
        }
      ],
      "name": "exists",
      "outputs": [
        {
          "internalType": "bool",
          "name": "",
          "type": "bool"
        }
      ],
      "stateMutability": "view",
      "type": "function",
      "constant": true
    },
    {
      "inputs": [
        {
          "internalType": "bytes32",
          "name": "role",
          "type": "bytes32"
        }
      ],
      "name": "getRoleAdmin",
      "outputs": [
        {
          "internalType": "bytes32",
          "name": "",
          "type": "bytes32"
        }
      ],
      "stateMutability": "view",
      "type": "function",
      "constant": true
    },
    {
      "inputs": [
        {
          "internalType": "bytes32",
          "name": "role",
          "type": "bytes32"
        },
        {
          "internalType": "address",
          "name": "account",
          "type": "address"
        }
      ],
      "name": "grantRole",
      "outputs": [],
      "stateMutability": "nonpayable",
      "type": "function"
    },
    {
      "inputs": [
        {
          "internalType": "bytes32",
          "name": "role",
          "type": "bytes32"
        },
        {
          "internalType": "address",
          "name": "account",
          "type": "address"
        }
      ],
      "name": "hasRole",
      "outputs": [
        {
          "internalType": "bool",
          "name": "",
          "type": "bool"
        }
      ],
      "stateMutability": "view",
      "type": "function",
      "constant": true
    },
    {
      "inputs": [
        {
          "internalType": "address",
          "name": "account",
          "type": "address"
        },
        {
          "internalType": "address",
          "name": "operator",
          "type": "address"
        }
      ],
      "name": "isApprovedForAll",
      "outputs": [
        {
          "internalType": "bool",
          "name": "",
          "type": "bool"
        }
      ],
      "stateMutability": "view",
      "type": "function",
      "constant": true
    },
    {
      "inputs": [],
      "name": "paused",
      "outputs": [
        {
          "internalType": "bool",
          "name": "",
          "type": "bool"
        }
      ],
      "stateMutability": "view",
      "type": "function",
      "constant": true
    },
    {
      "inputs": [
        {
          "internalType": "bytes32",
          "name": "role",
          "type": "bytes32"
        },
        {
          "internalType": "address",
          "name": "account",
          "type": "address"
        }
      ],
      "name": "renounceRole",
      "outputs": [],
      "stateMutability": "nonpayable",
      "type": "function"
    },
    {
      "inputs": [
        {
          "internalType": "bytes32",
          "name": "role",
          "type": "bytes32"
        },
        {
          "internalType": "address",
          "name": "account",
          "type": "address"
        }
      ],
      "name": "revokeRole",
      "outputs": [],
      "stateMutability": "nonpayable",
      "type": "function"
    },
    {
      "inputs": [
        {
          "internalType": "address",
          "name": "from",
          "type": "address"
        },
        {
          "internalType": "address",
          "name": "to",
          "type": "address"
        },
        {
          "internalType": "uint256[]",
          "name": "ids",
          "type": "uint256[]"
        },
        {
          "internalType": "uint256[]",
          "name": "amounts",
          "type": "uint256[]"
        },
        {
          "internalType": "bytes",
          "name": "data",
          "type": "bytes"
        }
      ],
      "name": "safeBatchTransferFrom",
      "outputs": [],
      "stateMutability": "nonpayable",
      "type": "function"
    },
    {
      "inputs": [
        {
          "internalType": "address",
          "name": "from",
          "type": "address"
        },
        {
          "internalType": "address",
          "name": "to",
          "type": "address"
        },
        {
          "internalType": "uint256",
          "name": "id",
          "type": "uint256"
        },
        {
          "internalType": "uint256",
          "name": "amount",
          "type": "uint256"
        },
        {
          "internalType": "bytes",
          "name": "data",
          "type": "bytes"
        }
      ],
      "name": "safeTransferFrom",
      "outputs": [],
      "stateMutability": "nonpayable",
      "type": "function"
    },
    {
      "inputs": [
        {
          "internalType": "address",
          "name": "operator",
          "type": "address"
        },
        {
          "internalType": "bool",
          "name": "approved",
          "type": "bool"
        }
      ],
      "name": "setApprovalForAll",
      "outputs": [],
      "stateMutability": "nonpayable",
      "type": "function"
    },
    {
      "inputs": [
        {
          "internalType": "uint256",
          "name": "id",
          "type": "uint256"
        }
      ],
      "name": "totalSupply",
      "outputs": [
        {
          "internalType": "uint256",
          "name": "",
          "type": "uint256"
        }
      ],
      "stateMutability": "view",
      "type": "function",
      "constant": true
    },
    {
      "inputs": [
        {
          "internalType": "uint256",
          "name": "",
          "type": "uint256"
        }
      ],
      "name": "uri",
      "outputs": [
        {
          "internalType": "string",
          "name": "",
          "type": "string"
        }
      ],
      "stateMutability": "view",
      "type": "function",
      "constant": true
    },
    {
      "inputs": [],
      "name": "initialize",
      "outputs": [],
      "stateMutability": "nonpayable",
      "type": "function"
    },
    {
      "inputs": [
        {
          "internalType": "string",
          "name": "newuri",
          "type": "string"
        }
      ],
      "name": "setURI",
      "outputs": [],
      "stateMutability": "nonpayable",
      "type": "function"
    },
    {
      "inputs": [
        {
          "internalType": "string",
          "name": "publisher",
          "type": "string"
        },
        {
          "internalType": "address",
          "name": "account",
          "type": "address"
        }
      ],
      "name": "grantPublisher",
      "outputs": [],
      "stateMutability": "nonpayable",
      "type": "function"
    },
    {
      "inputs": [
        {
          "internalType": "uint256",
          "name": "id",
          "type": "uint256"
        },
        {
          "internalType": "string",
          "name": "publisher",
          "type": "string"
        }
      ],
      "name": "setIdToPublisher",
      "outputs": [],
      "stateMutability": "nonpayable",
      "type": "function"
    },
    {
      "inputs": [
        {
          "internalType": "string",
          "name": "publisher",
          "type": "string"
        },
        {
          "internalType": "address",
          "name": "account",
          "type": "address"
        }
      ],
      "name": "revokePublisher",
      "outputs": [],
      "stateMutability": "nonpayable",
      "type": "function"
    },
    {
      "inputs": [],
      "name": "pause",
      "outputs": [],
      "stateMutability": "nonpayable",
      "type": "function"
    },
    {
      "inputs": [],
      "name": "unpause",
      "outputs": [],
      "stateMutability": "nonpayable",
      "type": "function"
    },
    {
      "inputs": [
        {
          "internalType": "address",
          "name": "account",
          "type": "address"
        },
        {
          "internalType": "uint256",
          "name": "id",
          "type": "uint256"
        },
        {
          "internalType": "uint256",
          "name": "amount",
          "type": "uint256"
        },
        {
          "internalType": "bytes",
          "name": "data",
          "type": "bytes"
        }
      ],
      "name": "mint",
      "outputs": [],
      "stateMutability": "nonpayable",
      "type": "function"
    },
    {
      "inputs": [
        {
          "internalType": "address",
          "name": "to",
          "type": "address"
        },
        {
          "internalType": "uint256[]",
          "name": "ids",
          "type": "uint256[]"
        },
        {
          "internalType": "uint256[]",
          "name": "amounts",
          "type": "uint256[]"
        },
        {
          "internalType": "bytes",
          "name": "data",
          "type": "bytes"
        }
      ],
      "name": "mintBatch",
      "outputs": [],
      "stateMutability": "nonpayable",
      "type": "function"
    },
    {
      "inputs": [
        {
          "internalType": "bytes4",
          "name": "interfaceId",
          "type": "bytes4"
        }
      ],
      "name": "supportsInterface",
      "outputs": [
        {
          "internalType": "bool",
          "name": "",
          "type": "bool"
        }
      ],
      "stateMutability": "view",
      "type": "function",
      "constant": true
    }
  ],
  "bytecode": "0x60806040523480156200001157600080fd5b50620000226200002860201b60201c565b620001d3565b600060019054906101000a900460ff16156200007b576040517f08c379a0000000000000000000000000000000000000000000000000000000008152600401620000729062000176565b60405180910390fd5b60ff801660008054906101000a900460ff1660ff161015620000ed5760ff6000806101000a81548160ff021916908360ff1602179055507f7f26b83ff96e1f2b6a682f133852f6798a09c465da95921460cefb384740249860ff604051620000e49190620001b6565b60405180910390a15b565b600082825260208201905092915050565b7f496e697469616c697a61626c653a20636f6e747261637420697320696e69746960008201527f616c697a696e6700000000000000000000000000000000000000000000000000602082015250565b60006200015e602783620000ef565b91506200016b8262000100565b604082019050919050565b6000602082019050818103600083015262000191816200014f565b9050919050565b600060ff82169050919050565b620001b08162000198565b82525050565b6000602082019050620001cd6000830184620001a5565b92915050565b6151d880620001e36000396000f3fe608060405234801561001057600080fd5b50600436106101c35760003560e01c806352509e97116100f9578063a217fddf11610097578063d547741f11610071578063d547741f146104d6578063e985e9c5146104f2578063f242432a14610522578063f5298aca1461053e576101c3565b8063a217fddf1461046c578063a22cb4651461048a578063bd85b039146104a6576101c3565b8063731133e9116100d3578063731133e91461040c5780638129fc1c146104285780638456cb591461043257806391d148541461043c576101c3565b806352509e97146103b65780635c975abb146103d25780636b20c454146103f0576101c3565b8063248a9ca31161016657806336568abe1161014057806336568abe146103305780633f4ba83a1461034c5780634e1273f4146103565780634f558e7914610386576101c3565b8063248a9ca3146102c85780632eb2c2d6146102f85780632f2ff15d14610314576101c3565b806302fe5305116101a257806302fe5305146102445780630e89341c146102605780631286c46d146102905780631f7fdffa146102ac576101c3565b8062fdd58e146101c857806301ad63bd146101f857806301ffc9a714610214575b600080fd5b6101e260048036038101906101dd9190613238565b61055a565b6040516101ef9190613287565b60405180910390f35b610212600480360381019061020d91906133e8565b610623565b005b61022e6004803603810190610229919061349c565b61068b565b60405161023b91906134e4565b60405180910390f35b61025e600480360381019061025991906134ff565b61069d565b005b61027a60048036038101906102759190613548565b6106b7565b60405161028791906135f4565b60405180910390f35b6102aa60048036038101906102a59190613616565b61074b565b005b6102c660048036038101906102c191906137db565b610785565b005b6102e260048036038101906102dd91906138cc565b6107ee565b6040516102ef9190613908565b60405180910390f35b610312600480360381019061030d9190613923565b61080e565b005b61032e600480360381019061032991906139f2565b6108af565b005b61034a600480360381019061034591906139f2565b6108d0565b005b610354610953565b005b610370600480360381019061036b9190613af5565b61096b565b60405161037d9190613c2b565b60405180910390f35b6103a0600480360381019061039b9190613548565b610a84565b6040516103ad91906134e4565b60405180910390f35b6103d060048036038101906103cb9190613616565b610a98565b005b6103da610b46565b6040516103e791906134e4565b60405180910390f35b61040a60048036038101906104059190613c4d565b610b5d565b005b61042660048036038101906104219190613cd8565b610bfa565b005b610430610c2b565b005b61043a610da6565b005b610456600480360381019061045191906139f2565b610dbe565b60405161046391906134e4565b60405180910390f35b610474610e29565b6040516104819190613908565b60405180910390f35b6104a4600480360381019061049f9190613d87565b610e30565b005b6104c060048036038101906104bb9190613548565b610e46565b6040516104cd9190613287565b60405180910390f35b6104f060048036038101906104eb91906139f2565b610e64565b005b61050c60048036038101906105079190613dc7565b610e85565b60405161051991906134e4565b60405180910390f35b61053c60048036038101906105379190613e07565b610f19565b005b61055860048036038101906105539190613e9e565b610fba565b005b60008073ffffffffffffffffffffffffffffffffffffffff168373ffffffffffffffffffffffffffffffffffffffff16036105ca576040517f08c379a00000000000000000000000000000000000000000000000000000000081526004016105c190613f63565b60405180910390fd5b6065600083815260200190815260200160002060008473ffffffffffffffffffffffffffffffffffffffff1673ffffffffffffffffffffffffffffffffffffffff16815260200190815260200160002054905092915050565b61015f60008381526020019081526020016000205461064181611057565b60008260405160200161065491906135f4565b6040516020818303038152906040528051906020012090508061015f60008681526020019081526020016000208190555050505050565b60006106968261106b565b9050919050565b6000801b6106aa81611057565b6106b3826110e5565b5050565b6060606780546106c690613fb2565b80601f01602080910402602001604051908101604052809291908181526020018280546106f290613fb2565b801561073f5780601f106107145761010080835404028352916020019161073f565b820191906000526020600020905b81548152906001019060200180831161072257829003601f168201915b50505050509050919050565b60008260405160200161075e91906135f4565b6040516020818303038152906040528051906020012090506107808183610e64565b505050565b8260005b81518110156107da576107c961015f60008484815181106107ad576107ac613fe3565b5b6020026020010151815260200190815260200160002054611057565b806107d390614041565b9050610789565b506107e7858585856110f8565b5050505050565b600060976000838152602001908152602001600020600101549050919050565b610816611325565b73ffffffffffffffffffffffffffffffffffffffff168573ffffffffffffffffffffffffffffffffffffffff16148061085c575061085b85610856611325565b610e85565b5b61089b576040517f08c379a0000000000000000000000000000000000000000000000000000000008152600401610892906140fb565b60405180910390fd5b6108a8858585858561132d565b5050505050565b6108b8826107ee565b6108c181611057565b6108cb8383611651565b505050565b6108d8611325565b73ffffffffffffffffffffffffffffffffffffffff168173ffffffffffffffffffffffffffffffffffffffff1614610945576040517f08c379a000000000000000000000000000000000000000000000000000000000815260040161093c9061418d565b60405180910390fd5b61094f8282611732565b5050565b6000801b61096081611057565b610968611814565b50565b606081518351146109b1576040517f08c379a00000000000000000000000000000000000000000000000000000000081526004016109a89061421f565b60405180910390fd5b6000835167ffffffffffffffff8111156109ce576109cd6132bd565b5b6040519080825280602002602001820160405280156109fc5781602001602082028036833780820191505090505b50905060005b8451811015610a7957610a49858281518110610a2157610a20613fe3565b5b6020026020010151858381518110610a3c57610a3b613fe3565b5b602002602001015161055a565b828281518110610a5c57610a5b613fe3565b5b60200260200101818152505080610a7290614041565b9050610a02565b508091505092915050565b600080610a9083610e46565b119050919050565b600082604051602001610aab91906135f4565b604051602081830303815290604052805190602001209050610acd81836108af565b61016083604051610ade919061427b565b908152602001604051809103902060009054906101000a900460ff16610b4157600161016084604051610b11919061427b565b908152602001604051809103902060006101000a81548160ff021916908315150217905550610b408182611877565b5b505050565b600060c960009054906101000a900460ff16905090565b610b65611325565b73ffffffffffffffffffffffffffffffffffffffff168373ffffffffffffffffffffffffffffffffffffffff161480610bab5750610baa83610ba5611325565b610e85565b5b610bea576040517f08c379a0000000000000000000000000000000000000000000000000000000008152600401610be1906140fb565b60405180910390fd5b610bf58383836118d3565b505050565b61015f600084815260200190815260200160002054610c1881611057565b610c2485858585611ba3565b5050505050565b60008060019054906101000a900460ff16159050808015610c5c5750600160008054906101000a900460ff1660ff16105b80610c895750610c6b30611d54565b158015610c885750600160008054906101000a900460ff1660ff16145b5b610cc8576040517f08c379a0000000000000000000000000000000000000000000000000000000008152600401610cbf90614304565b60405180910390fd5b60016000806101000a81548160ff021916908360ff1602179055508015610d05576001600060016101000a81548160ff0219169083151502179055505b610d1d60405180602001604052806000815250611d77565b610d25611dd2565b610d2d611e23565b610d35611e7c565b610d3d611ecd565b610d4a6000801b33611651565b8015610da35760008060016101000a81548160ff0219169083151502179055507f7f26b83ff96e1f2b6a682f133852f6798a09c465da95921460cefb38474024986001604051610d9a9190614376565b60405180910390a15b50565b6000801b610db381611057565b610dbb611f1e565b50565b60006097600084815260200190815260200160002060000160008373ffffffffffffffffffffffffffffffffffffffff1673ffffffffffffffffffffffffffffffffffffffff16815260200190815260200160002060009054906101000a900460ff16905092915050565b6000801b81565b610e42610e3b611325565b8383611f81565b5050565b600061012d6000838152602001908152602001600020549050919050565b610e6d826107ee565b610e7681611057565b610e808383611732565b505050565b6000606660008473ffffffffffffffffffffffffffffffffffffffff1673ffffffffffffffffffffffffffffffffffffffff16815260200190815260200160002060008373ffffffffffffffffffffffffffffffffffffffff1673ffffffffffffffffffffffffffffffffffffffff16815260200190815260200160002060009054906101000a900460ff16905092915050565b610f21611325565b73ffffffffffffffffffffffffffffffffffffffff168573ffffffffffffffffffffffffffffffffffffffff161480610f675750610f6685610f61611325565b610e85565b5b610fa6576040517f08c379a0000000000000000000000000000000000000000000000000000000008152600401610f9d906140fb565b60405180910390fd5b610fb385858585856120ed565b5050505050565b610fc2611325565b73ffffffffffffffffffffffffffffffffffffffff168373ffffffffffffffffffffffffffffffffffffffff161480611008575061100783611002611325565b610e85565b5b611047576040517f08c379a000000000000000000000000000000000000000000000000000000000815260040161103e906140fb565b60405180910390fd5b61105283838361238b565b505050565b61106881611063611325565b6125d3565b50565b60007f7965db0b000000000000000000000000000000000000000000000000000000007bffffffffffffffffffffffffffffffffffffffffffffffffffffffff1916827bffffffffffffffffffffffffffffffffffffffffffffffffffffffff191614806110de57506110dd82612658565b5b9050919050565b80606790816110f49190614533565b5050565b600073ffffffffffffffffffffffffffffffffffffffff168473ffffffffffffffffffffffffffffffffffffffff1603611167576040517f08c379a000000000000000000000000000000000000000000000000000000000815260040161115e90614677565b60405180910390fd5b81518351146111ab576040517f08c379a00000000000000000000000000000000000000000000000000000000081526004016111a290614709565b60405180910390fd5b60006111b5611325565b90506111c68160008787878761273a565b60005b8451811015611280578381815181106111e5576111e4613fe3565b5b60200260200101516065600087848151811061120457611203613fe3565b5b6020026020010151815260200190815260200160002060008873ffffffffffffffffffffffffffffffffffffffff1673ffffffffffffffffffffffffffffffffffffffff16815260200190815260200160002060008282546112669190614729565b92505081905550808061127890614041565b9150506111c9565b508473ffffffffffffffffffffffffffffffffffffffff16600073ffffffffffffffffffffffffffffffffffffffff168273ffffffffffffffffffffffffffffffffffffffff167f4a39dc06d4c0dbc64b70af90fd698a233a518aa5d07e595d983b8c0526c8f7fb87876040516112f892919061475d565b60405180910390a461130f81600087878787612758565b61131e81600087878787612760565b5050505050565b600033905090565b8151835114611371576040517f08c379a000000000000000000000000000000000000000000000000000000000815260040161136890614709565b60405180910390fd5b600073ffffffffffffffffffffffffffffffffffffffff168473ffffffffffffffffffffffffffffffffffffffff16036113e0576040517f08c379a00000000000000000000000000000000000000000000000000000000081526004016113d790614806565b60405180910390fd5b60006113ea611325565b90506113fa81878787878761273a565b60005b84518110156115ae57600085828151811061141b5761141a613fe3565b5b60200260200101519050600085838151811061143a57611439613fe3565b5b6020026020010151905060006065600084815260200190815260200160002060008b73ffffffffffffffffffffffffffffffffffffffff1673ffffffffffffffffffffffffffffffffffffffff168152602001908152602001600020549050818110156114dc576040517f08c379a00000000000000000000000000000000000000000000000000000000081526004016114d390614898565b60405180910390fd5b8181036065600085815260200190815260200160002060008c73ffffffffffffffffffffffffffffffffffffffff1673ffffffffffffffffffffffffffffffffffffffff16815260200190815260200160002081905550816065600085815260200190815260200160002060008b73ffffffffffffffffffffffffffffffffffffffff1673ffffffffffffffffffffffffffffffffffffffff16815260200190815260200160002060008282546115939190614729565b92505081905550505050806115a790614041565b90506113fd565b508473ffffffffffffffffffffffffffffffffffffffff168673ffffffffffffffffffffffffffffffffffffffff168273ffffffffffffffffffffffffffffffffffffffff167f4a39dc06d4c0dbc64b70af90fd698a233a518aa5d07e595d983b8c0526c8f7fb878760405161162592919061475d565b60405180910390a461163b818787878787612758565b611649818787878787612760565b505050505050565b61165b8282610dbe565b61172e5760016097600084815260200190815260200160002060000160008373ffffffffffffffffffffffffffffffffffffffff1673ffffffffffffffffffffffffffffffffffffffff16815260200190815260200160002060006101000a81548160ff0219169083151502179055506116d3611325565b73ffffffffffffffffffffffffffffffffffffffff168173ffffffffffffffffffffffffffffffffffffffff16837f2f8788117e7eff1d82e926ec794901d17c78024a50270940304540a733656f0d60405160405180910390a45b5050565b61173c8282610dbe565b156118105760006097600084815260200190815260200160002060000160008373ffffffffffffffffffffffffffffffffffffffff1673ffffffffffffffffffffffffffffffffffffffff16815260200190815260200160002060006101000a81548160ff0219169083151502179055506117b5611325565b73ffffffffffffffffffffffffffffffffffffffff168173ffffffffffffffffffffffffffffffffffffffff16837ff6391f5c32d9c69d2a47ea670b442974b53935d1edc7fd64eb21e047a839171b60405160405180910390a45b5050565b61181c612937565b600060c960006101000a81548160ff0219169083151502179055507f5db9ee0a495bf2e6ff9c91a7834c1ba4fdd244a5e8aa4e537bd38aeae4b073aa611860611325565b60405161186d91906148c7565b60405180910390a1565b6000611882836107ee565b90508160976000858152602001908152602001600020600101819055508181847fbd79b86ffe0ab8e8776151514217cd7cacd52c909f66475c3af44e129f0b00ff60405160405180910390a4505050565b600073ffffffffffffffffffffffffffffffffffffffff168373ffffffffffffffffffffffffffffffffffffffff1603611942576040517f08c379a000000000000000000000000000000000000000000000000000000000815260040161193990614954565b60405180910390fd5b8051825114611986576040517f08c379a000000000000000000000000000000000000000000000000000000000815260040161197d90614709565b60405180910390fd5b6000611990611325565b90506119b08185600086866040518060200160405280600081525061273a565b60005b8351811015611aff5760008482815181106119d1576119d0613fe3565b5b6020026020010151905060008483815181106119f0576119ef613fe3565b5b6020026020010151905060006065600084815260200190815260200160002060008973ffffffffffffffffffffffffffffffffffffffff1673ffffffffffffffffffffffffffffffffffffffff16815260200190815260200160002054905081811015611a92576040517f08c379a0000000000000000000000000000000000000000000000000000000008152600401611a89906149e6565b60405180910390fd5b8181036065600085815260200190815260200160002060008a73ffffffffffffffffffffffffffffffffffffffff1673ffffffffffffffffffffffffffffffffffffffff168152602001908152602001600020819055505050508080611af790614041565b9150506119b3565b50600073ffffffffffffffffffffffffffffffffffffffff168473ffffffffffffffffffffffffffffffffffffffff168273ffffffffffffffffffffffffffffffffffffffff167f4a39dc06d4c0dbc64b70af90fd698a233a518aa5d07e595d983b8c0526c8f7fb8686604051611b7792919061475d565b60405180910390a4611b9d81856000868660405180602001604052806000815250612758565b50505050565b600073ffffffffffffffffffffffffffffffffffffffff168473ffffffffffffffffffffffffffffffffffffffff1603611c12576040517f08c379a0000000000000000000000000000000000000000000000000000000008152600401611c0990614677565b60405180910390fd5b6000611c1c611325565b90506000611c2985612980565b90506000611c3685612980565b9050611c478360008985858961273a565b846065600088815260200190815260200160002060008973ffffffffffffffffffffffffffffffffffffffff1673ffffffffffffffffffffffffffffffffffffffff1681526020019081526020016000206000828254611ca79190614729565b925050819055508673ffffffffffffffffffffffffffffffffffffffff16600073ffffffffffffffffffffffffffffffffffffffff168473ffffffffffffffffffffffffffffffffffffffff167fc3d58168c5ae7397731d063d5bbf3d657854427343f4c083240f7aacaa2d0f628989604051611d25929190614a06565b60405180910390a4611d3c83600089858589612758565b611d4b836000898989896129fa565b50505050505050565b6000808273ffffffffffffffffffffffffffffffffffffffff163b119050919050565b600060019054906101000a900460ff16611dc6576040517f08c379a0000000000000000000000000000000000000000000000000000000008152600401611dbd90614aa1565b60405180910390fd5b611dcf81612bd1565b50565b600060019054906101000a900460ff16611e21576040517f08c379a0000000000000000000000000000000000000000000000000000000008152600401611e1890614aa1565b60405180910390fd5b565b600060019054906101000a900460ff16611e72576040517f08c379a0000000000000000000000000000000000000000000000000000000008152600401611e6990614aa1565b60405180910390fd5b611e7a612c2c565b565b600060019054906101000a900460ff16611ecb576040517f08c379a0000000000000000000000000000000000000000000000000000000008152600401611ec290614aa1565b60405180910390fd5b565b600060019054906101000a900460ff16611f1c576040517f08c379a0000000000000000000000000000000000000000000000000000000008152600401611f1390614aa1565b60405180910390fd5b565b611f26612c98565b600160c960006101000a81548160ff0219169083151502179055507f62e78cea01bee320cd4e420270b5ea74000d11b0c9f74754ebdbfc544b05a258611f6a611325565b604051611f7791906148c7565b60405180910390a1565b8173ffffffffffffffffffffffffffffffffffffffff168373ffffffffffffffffffffffffffffffffffffffff1603611fef576040517f08c379a0000000000000000000000000000000000000000000000000000000008152600401611fe690614b33565b60405180910390fd5b80606660008573ffffffffffffffffffffffffffffffffffffffff1673ffffffffffffffffffffffffffffffffffffffff16815260200190815260200160002060008473ffffffffffffffffffffffffffffffffffffffff1673ffffffffffffffffffffffffffffffffffffffff16815260200190815260200160002060006101000a81548160ff0219169083151502179055508173ffffffffffffffffffffffffffffffffffffffff168373ffffffffffffffffffffffffffffffffffffffff167f17307eab39ab6107e8899845ad3d59bd9653f200f220920489ca2b5937696c31836040516120e091906134e4565b60405180910390a3505050565b600073ffffffffffffffffffffffffffffffffffffffff168473ffffffffffffffffffffffffffffffffffffffff160361215c576040517f08c379a000000000000000000000000000000000000000000000000000000000815260040161215390614806565b60405180910390fd5b6000612166611325565b9050600061217385612980565b9050600061218085612980565b905061219083898985858961273a565b60006065600088815260200190815260200160002060008a73ffffffffffffffffffffffffffffffffffffffff1673ffffffffffffffffffffffffffffffffffffffff16815260200190815260200160002054905085811015612228576040517f08c379a000000000000000000000000000000000000000000000000000000000815260040161221f90614898565b60405180910390fd5b8581036065600089815260200190815260200160002060008b73ffffffffffffffffffffffffffffffffffffffff1673ffffffffffffffffffffffffffffffffffffffff16815260200190815260200160002081905550856065600089815260200190815260200160002060008a73ffffffffffffffffffffffffffffffffffffffff1673ffffffffffffffffffffffffffffffffffffffff16815260200190815260200160002060008282546122df9190614729565b925050819055508773ffffffffffffffffffffffffffffffffffffffff168973ffffffffffffffffffffffffffffffffffffffff168573ffffffffffffffffffffffffffffffffffffffff167fc3d58168c5ae7397731d063d5bbf3d657854427343f4c083240f7aacaa2d0f628a8a60405161235c929190614a06565b60405180910390a4612372848a8a86868a612758565b612380848a8a8a8a8a6129fa565b505050505050505050565b600073ffffffffffffffffffffffffffffffffffffffff168373ffffffffffffffffffffffffffffffffffffffff16036123fa576040517f08c379a00000000000000000000000000000000000000000000000000000000081526004016123f190614954565b60405180910390fd5b6000612404611325565b9050600061241184612980565b9050600061241e84612980565b905061243e8387600085856040518060200160405280600081525061273a565b60006065600087815260200190815260200160002060008873ffffffffffffffffffffffffffffffffffffffff1673ffffffffffffffffffffffffffffffffffffffff168152602001908152602001600020549050848110156124d6576040517f08c379a00000000000000000000000000000000000000000000000000000000081526004016124cd906149e6565b60405180910390fd5b8481036065600088815260200190815260200160002060008973ffffffffffffffffffffffffffffffffffffffff1673ffffffffffffffffffffffffffffffffffffffff16815260200190815260200160002081905550600073ffffffffffffffffffffffffffffffffffffffff168773ffffffffffffffffffffffffffffffffffffffff168573ffffffffffffffffffffffffffffffffffffffff167fc3d58168c5ae7397731d063d5bbf3d657854427343f4c083240f7aacaa2d0f6289896040516125a4929190614a06565b60405180910390a46125ca84886000868660405180602001604052806000815250612758565b50505050505050565b6125dd8282610dbe565b612654576125ea81612ce2565b6125f88360001c6020612d0f565b604051602001612609929190614beb565b6040516020818303038152906040526040517f08c379a000000000000000000000000000000000000000000000000000000000815260040161264b91906135f4565b60405180910390fd5b5050565b60007fd9b67a26000000000000000000000000000000000000000000000000000000007bffffffffffffffffffffffffffffffffffffffffffffffffffffffff1916827bffffffffffffffffffffffffffffffffffffffffffffffffffffffff1916148061272357507f0e89341c000000000000000000000000000000000000000000000000000000007bffffffffffffffffffffffffffffffffffffffffffffffffffffffff1916827bffffffffffffffffffffffffffffffffffffffffffffffffffffffff1916145b80612733575061273282612f4b565b5b9050919050565b612742612c98565b612750868686868686612fb5565b505050505050565b505050505050565b61277f8473ffffffffffffffffffffffffffffffffffffffff16611d54565b1561292f578373ffffffffffffffffffffffffffffffffffffffff1663bc197c8187878686866040518663ffffffff1660e01b81526004016127c5959493929190614c7a565b6020604051808303816000875af192505050801561280157506040513d601f19601f820116820180604052508101906127fe9190614cf7565b60015b6128a65761280d614d31565b806308c379a0036128695750612821614d53565b8061282c575061286b565b806040517f08c379a000000000000000000000000000000000000000000000000000000000815260040161286091906135f4565b60405180910390fd5b505b6040517f08c379a000000000000000000000000000000000000000000000000000000000815260040161289d90614e55565b60405180910390fd5b63bc197c8160e01b7bffffffffffffffffffffffffffffffffffffffffffffffffffffffff1916817bffffffffffffffffffffffffffffffffffffffffffffffffffffffff19161461292d576040517f08c379a000000000000000000000000000000000000000000000000000000000815260040161292490614ee7565b60405180910390fd5b505b505050505050565b61293f610b46565b61297e576040517f08c379a000000000000000000000000000000000000000000000000000000000815260040161297590614f53565b60405180910390fd5b565b60606000600167ffffffffffffffff81111561299f5761299e6132bd565b5b6040519080825280602002602001820160405280156129cd5781602001602082028036833780820191505090505b50905082816000815181106129e5576129e4613fe3565b5b60200260200101818152505080915050919050565b612a198473ffffffffffffffffffffffffffffffffffffffff16611d54565b15612bc9578373ffffffffffffffffffffffffffffffffffffffff1663f23a6e6187878686866040518663ffffffff1660e01b8152600401612a5f959493929190614f73565b6020604051808303816000875af1925050508015612a9b57506040513d601f19601f82011682018060405250810190612a989190614cf7565b60015b612b4057612aa7614d31565b806308c379a003612b035750612abb614d53565b80612ac65750612b05565b806040517f08c379a0000000000000000000000000000000000000000000000000000000008152600401612afa91906135f4565b60405180910390fd5b505b6040517f08c379a0000000000000000000000000000000000000000000000000000000008152600401612b3790614e55565b60405180910390fd5b63f23a6e6160e01b7bffffffffffffffffffffffffffffffffffffffffffffffffffffffff1916817bffffffffffffffffffffffffffffffffffffffffffffffffffffffff191614612bc7576040517f08c379a0000000000000000000000000000000000000000000000000000000008152600401612bbe90614ee7565b60405180910390fd5b505b505050505050565b600060019054906101000a900460ff16612c20576040517f08c379a0000000000000000000000000000000000000000000000000000000008152600401612c1790614aa1565b60405180910390fd5b612c29816110e5565b50565b600060019054906101000a900460ff16612c7b576040517f08c379a0000000000000000000000000000000000000000000000000000000008152600401612c7290614aa1565b60405180910390fd5b600060c960006101000a81548160ff021916908315150217905550565b612ca0610b46565b15612ce0576040517f08c379a0000000000000000000000000000000000000000000000000000000008152600401612cd790615019565b60405180910390fd5b565b6060612d088273ffffffffffffffffffffffffffffffffffffffff16601460ff16612d0f565b9050919050565b606060006002836002612d229190615039565b612d2c9190614729565b67ffffffffffffffff811115612d4557612d446132bd565b5b6040519080825280601f01601f191660200182016040528015612d775781602001600182028036833780820191505090505b5090507f300000000000000000000000000000000000000000000000000000000000000081600081518110612daf57612dae613fe3565b5b60200101907effffffffffffffffffffffffffffffffffffffffffffffffffffffffffffff1916908160001a9053507f780000000000000000000000000000000000000000000000000000000000000081600181518110612e1357612e12613fe3565b5b60200101907effffffffffffffffffffffffffffffffffffffffffffffffffffffffffffff1916908160001a90535060006001846002612e539190615039565b612e5d9190614729565b90505b6001811115612efd577f3031323334353637383961626364656600000000000000000000000000000000600f861660108110612e9f57612e9e613fe3565b5b1a60f81b828281518110612eb657612eb5613fe3565b5b60200101907effffffffffffffffffffffffffffffffffffffffffffffffffffffffffffff1916908160001a905350600485901c945080612ef69061507b565b9050612e60565b5060008414612f41576040517f08c379a0000000000000000000000000000000000000000000000000000000008152600401612f38906150f0565b60405180910390fd5b8091505092915050565b60007f01ffc9a7000000000000000000000000000000000000000000000000000000007bffffffffffffffffffffffffffffffffffffffffffffffffffffffff1916827bffffffffffffffffffffffffffffffffffffffffffffffffffffffff1916149050919050565b612fc3868686868686613188565b600073ffffffffffffffffffffffffffffffffffffffff168573ffffffffffffffffffffffffffffffffffffffff16036130755760005b83518110156130735782818151811061301657613015613fe3565b5b602002602001015161012d600086848151811061303657613035613fe3565b5b60200260200101518152602001908152602001600020600082825461305b9190614729565b925050819055508061306c90614041565b9050612ffa565b505b600073ffffffffffffffffffffffffffffffffffffffff168473ffffffffffffffffffffffffffffffffffffffff16036131805760005b835181101561317e5760008482815181106130ca576130c9613fe3565b5b6020026020010151905060008483815181106130e9576130e8613fe3565b5b60200260200101519050600061012d60008481526020019081526020016000205490508181101561314f576040517f08c379a000000000000000000000000000000000000000000000000000000000815260040161314690615182565b60405180910390fd5b81810361012d6000858152602001908152602001600020819055505050508061317790614041565b90506130ac565b505b505050505050565b505050505050565b6000604051905090565b600080fd5b600080fd5b600073ffffffffffffffffffffffffffffffffffffffff82169050919050565b60006131cf826131a4565b9050919050565b6131df816131c4565b81146131ea57600080fd5b50565b6000813590506131fc816131d6565b92915050565b6000819050919050565b61321581613202565b811461322057600080fd5b50565b6000813590506132328161320c565b92915050565b6000806040838503121561324f5761324e61319a565b5b600061325d858286016131ed565b925050602061326e85828601613223565b9150509250929050565b61328181613202565b82525050565b600060208201905061329c6000830184613278565b92915050565b600080fd5b600080fd5b6000601f19601f8301169050919050565b7f4e487b7100000000000000000000000000000000000000000000000000000000600052604160045260246000fd5b6132f5826132ac565b810181811067ffffffffffffffff82111715613314576133136132bd565b5b80604052505050565b6000613327613190565b905061333382826132ec565b919050565b600067ffffffffffffffff821115613353576133526132bd565b5b61335c826132ac565b9050602081019050919050565b82818337600083830152505050565b600061338b61338684613338565b61331d565b9050828152602081018484840111156133a7576133a66132a7565b5b6133b2848285613369565b509392505050565b600082601f8301126133cf576133ce6132a2565b5b81356133df848260208601613378565b91505092915050565b600080604083850312156133ff576133fe61319a565b5b600061340d85828601613223565b925050602083013567ffffffffffffffff81111561342e5761342d61319f565b5b61343a858286016133ba565b9150509250929050565b60007fffffffff0000000000000000000000000000000000000000000000000000000082169050919050565b61347981613444565b811461348457600080fd5b50565b60008135905061349681613470565b92915050565b6000602082840312156134b2576134b161319a565b5b60006134c084828501613487565b91505092915050565b60008115159050919050565b6134de816134c9565b82525050565b60006020820190506134f960008301846134d5565b92915050565b6000602082840312156135155761351461319a565b5b600082013567ffffffffffffffff8111156135335761353261319f565b5b61353f848285016133ba565b91505092915050565b60006020828403121561355e5761355d61319a565b5b600061356c84828501613223565b91505092915050565b600081519050919050565b600082825260208201905092915050565b60005b838110156135af578082015181840152602081019050613594565b60008484015250505050565b60006135c682613575565b6135d08185613580565b93506135e0818560208601613591565b6135e9816132ac565b840191505092915050565b6000602082019050818103600083015261360e81846135bb565b905092915050565b6000806040838503121561362d5761362c61319a565b5b600083013567ffffffffffffffff81111561364b5761364a61319f565b5b613657858286016133ba565b9250506020613668858286016131ed565b9150509250929050565b600067ffffffffffffffff82111561368d5761368c6132bd565b5b602082029050602081019050919050565b600080fd5b60006136b66136b184613672565b61331d565b905080838252602082019050602084028301858111156136d9576136d861369e565b5b835b8181101561370257806136ee8882613223565b8452602084019350506020810190506136db565b5050509392505050565b600082601f830112613721576137206132a2565b5b81356137318482602086016136a3565b91505092915050565b600067ffffffffffffffff821115613755576137546132bd565b5b61375e826132ac565b9050602081019050919050565b600061377e6137798461373a565b61331d565b90508281526020810184848401111561379a576137996132a7565b5b6137a5848285613369565b509392505050565b600082601f8301126137c2576137c16132a2565b5b81356137d284826020860161376b565b91505092915050565b600080600080608085870312156137f5576137f461319a565b5b6000613803878288016131ed565b945050602085013567ffffffffffffffff8111156138245761382361319f565b5b6138308782880161370c565b935050604085013567ffffffffffffffff8111156138515761385061319f565b5b61385d8782880161370c565b925050606085013567ffffffffffffffff81111561387e5761387d61319f565b5b61388a878288016137ad565b91505092959194509250565b6000819050919050565b6138a981613896565b81146138b457600080fd5b50565b6000813590506138c6816138a0565b92915050565b6000602082840312156138e2576138e161319a565b5b60006138f0848285016138b7565b91505092915050565b61390281613896565b82525050565b600060208201905061391d60008301846138f9565b92915050565b600080600080600060a0868803121561393f5761393e61319a565b5b600061394d888289016131ed565b955050602061395e888289016131ed565b945050604086013567ffffffffffffffff81111561397f5761397e61319f565b5b61398b8882890161370c565b935050606086013567ffffffffffffffff8111156139ac576139ab61319f565b5b6139b88882890161370c565b925050608086013567ffffffffffffffff8111156139d9576139d861319f565b5b6139e5888289016137ad565b9150509295509295909350565b60008060408385031215613a0957613a0861319a565b5b6000613a17858286016138b7565b9250506020613a28858286016131ed565b9150509250929050565b600067ffffffffffffffff821115613a4d57613a4c6132bd565b5b602082029050602081019050919050565b6000613a71613a6c84613a32565b61331d565b90508083825260208201905060208402830185811115613a9457613a9361369e565b5b835b81811015613abd5780613aa988826131ed565b845260208401935050602081019050613a96565b5050509392505050565b600082601f830112613adc57613adb6132a2565b5b8135613aec848260208601613a5e565b91505092915050565b60008060408385031215613b0c57613b0b61319a565b5b600083013567ffffffffffffffff811115613b2a57613b2961319f565b5b613b3685828601613ac7565b925050602083013567ffffffffffffffff811115613b5757613b5661319f565b5b613b638582860161370c565b9150509250929050565b600081519050919050565b600082825260208201905092915050565b6000819050602082019050919050565b613ba281613202565b82525050565b6000613bb48383613b99565b60208301905092915050565b6000602082019050919050565b6000613bd882613b6d565b613be28185613b78565b9350613bed83613b89565b8060005b83811015613c1e578151613c058882613ba8565b9750613c1083613bc0565b925050600181019050613bf1565b5085935050505092915050565b60006020820190508181036000830152613c458184613bcd565b905092915050565b600080600060608486031215613c6657613c6561319a565b5b6000613c74868287016131ed565b935050602084013567ffffffffffffffff811115613c9557613c9461319f565b5b613ca18682870161370c565b925050604084013567ffffffffffffffff811115613cc257613cc161319f565b5b613cce8682870161370c565b9150509250925092565b60008060008060808587031215613cf257613cf161319a565b5b6000613d00878288016131ed565b9450506020613d1187828801613223565b9350506040613d2287828801613223565b925050606085013567ffffffffffffffff811115613d4357613d4261319f565b5b613d4f878288016137ad565b91505092959194509250565b613d64816134c9565b8114613d6f57600080fd5b50565b600081359050613d8181613d5b565b92915050565b60008060408385031215613d9e57613d9d61319a565b5b6000613dac858286016131ed565b9250506020613dbd85828601613d72565b9150509250929050565b60008060408385031215613dde57613ddd61319a565b5b6000613dec858286016131ed565b9250506020613dfd858286016131ed565b9150509250929050565b600080600080600060a08688031215613e2357613e2261319a565b5b6000613e31888289016131ed565b9550506020613e42888289016131ed565b9450506040613e5388828901613223565b9350506060613e6488828901613223565b925050608086013567ffffffffffffffff811115613e8557613e8461319f565b5b613e91888289016137ad565b9150509295509295909350565b600080600060608486031215613eb757613eb661319a565b5b6000613ec5868287016131ed565b9350506020613ed686828701613223565b9250506040613ee786828701613223565b9150509250925092565b7f455243313135353a2061646472657373207a65726f206973206e6f742061207660008201527f616c6964206f776e657200000000000000000000000000000000000000000000602082015250565b6000613f4d602a83613580565b9150613f5882613ef1565b604082019050919050565b60006020820190508181036000830152613f7c81613f40565b9050919050565b7f4e487b7100000000000000000000000000000000000000000000000000000000600052602260045260246000fd5b60006002820490506001821680613fca57607f821691505b602082108103613fdd57613fdc613f83565b5b50919050565b7f4e487b7100000000000000000000000000000000000000000000000000000000600052603260045260246000fd5b7f4e487b7100000000000000000000000000000000000000000000000000000000600052601160045260246000fd5b600061404c82613202565b91507fffffffffffffffffffffffffffffffffffffffffffffffffffffffffffffffff820361407e5761407d614012565b5b600182019050919050565b7f455243313135353a2063616c6c6572206973206e6f7420746f6b656e206f776e60008201527f6572206f7220617070726f766564000000000000000000000000000000000000602082015250565b60006140e5602e83613580565b91506140f082614089565b604082019050919050565b60006020820190508181036000830152614114816140d8565b9050919050565b7f416363657373436f6e74726f6c3a2063616e206f6e6c792072656e6f756e636560008201527f20726f6c657320666f722073656c660000000000000000000000000000000000602082015250565b6000614177602f83613580565b91506141828261411b565b604082019050919050565b600060208201905081810360008301526141a68161416a565b9050919050565b7f455243313135353a206163636f756e747320616e6420696473206c656e67746860008201527f206d69736d617463680000000000000000000000000000000000000000000000602082015250565b6000614209602983613580565b9150614214826141ad565b604082019050919050565b60006020820190508181036000830152614238816141fc565b9050919050565b600081905092915050565b600061425582613575565b61425f818561423f565b935061426f818560208601613591565b80840191505092915050565b6000614287828461424a565b915081905092915050565b7f496e697469616c697a61626c653a20636f6e747261637420697320616c72656160008201527f647920696e697469616c697a6564000000000000000000000000000000000000602082015250565b60006142ee602e83613580565b91506142f982614292565b604082019050919050565b6000602082019050818103600083015261431d816142e1565b9050919050565b6000819050919050565b600060ff82169050919050565b6000819050919050565b600061436061435b61435684614324565b61433b565b61432e565b9050919050565b61437081614345565b82525050565b600060208201905061438b6000830184614367565b92915050565b60008190508160005260206000209050919050565b60006020601f8301049050919050565b600082821b905092915050565b6000600883026143f37fffffffffffffffffffffffffffffffffffffffffffffffffffffffffffffffff826143b6565b6143fd86836143b6565b95508019841693508086168417925050509392505050565b600061443061442b61442684613202565b61433b565b613202565b9050919050565b6000819050919050565b61444a83614415565b61445e61445682614437565b8484546143c3565b825550505050565b600090565b614473614466565b61447e818484614441565b505050565b5b818110156144a25761449760008261446b565b600181019050614484565b5050565b601f8211156144e7576144b881614391565b6144c1846143a6565b810160208510156144d0578190505b6144e46144dc856143a6565b830182614483565b50505b505050565b600082821c905092915050565b600061450a600019846008026144ec565b1980831691505092915050565b600061452383836144f9565b9150826002028217905092915050565b61453c82613575565b67ffffffffffffffff811115614555576145546132bd565b5b61455f8254613fb2565b61456a8282856144a6565b600060209050601f83116001811461459d576000841561458b578287015190505b6145958582614517565b8655506145fd565b601f1984166145ab86614391565b60005b828110156145d3578489015182556001820191506020850194506020810190506145ae565b868310156145f057848901516145ec601f8916826144f9565b8355505b6001600288020188555050505b505050505050565b7f455243313135353a206d696e7420746f20746865207a65726f2061646472657360008201527f7300000000000000000000000000000000000000000000000000000000000000602082015250565b6000614661602183613580565b915061466c82614605565b604082019050919050565b6000602082019050818103600083015261469081614654565b9050919050565b7f455243313135353a2069647320616e6420616d6f756e7473206c656e6774682060008201527f6d69736d61746368000000000000000000000000000000000000000000000000602082015250565b60006146f3602883613580565b91506146fe82614697565b604082019050919050565b60006020820190508181036000830152614722816146e6565b9050919050565b600061473482613202565b915061473f83613202565b925082820190508082111561475757614756614012565b5b92915050565b600060408201905081810360008301526147778185613bcd565b9050818103602083015261478b8184613bcd565b90509392505050565b7f455243313135353a207472616e7366657220746f20746865207a65726f20616460008201527f6472657373000000000000000000000000000000000000000000000000000000602082015250565b60006147f0602583613580565b91506147fb82614794565b604082019050919050565b6000602082019050818103600083015261481f816147e3565b9050919050565b7f455243313135353a20696e73756666696369656e742062616c616e636520666f60008201527f72207472616e7366657200000000000000000000000000000000000000000000602082015250565b6000614882602a83613580565b915061488d82614826565b604082019050919050565b600060208201905081810360008301526148b181614875565b9050919050565b6148c1816131c4565b82525050565b60006020820190506148dc60008301846148b8565b92915050565b7f455243313135353a206275726e2066726f6d20746865207a65726f206164647260008201527f6573730000000000000000000000000000000000000000000000000000000000602082015250565b600061493e602383613580565b9150614949826148e2565b604082019050919050565b6000602082019050818103600083015261496d81614931565b9050919050565b7f455243313135353a206275726e20616d6f756e7420657863656564732062616c60008201527f616e636500000000000000000000000000000000000000000000000000000000602082015250565b60006149d0602483613580565b91506149db82614974565b604082019050919050565b600060208201905081810360008301526149ff816149c3565b9050919050565b6000604082019050614a1b6000830185613278565b614a286020830184613278565b9392505050565b7f496e697469616c697a61626c653a20636f6e7472616374206973206e6f74206960008201527f6e697469616c697a696e67000000000000000000000000000000000000000000602082015250565b6000614a8b602b83613580565b9150614a9682614a2f565b604082019050919050565b60006020820190508181036000830152614aba81614a7e565b9050919050565b7f455243313135353a2073657474696e6720617070726f76616c2073746174757360008201527f20666f722073656c660000000000000000000000000000000000000000000000602082015250565b6000614b1d602983613580565b9150614b2882614ac1565b604082019050919050565b60006020820190508181036000830152614b4c81614b10565b9050919050565b7f416363657373436f6e74726f6c3a206163636f756e7420000000000000000000600082015250565b6000614b8960178361423f565b9150614b9482614b53565b601782019050919050565b7f206973206d697373696e6720726f6c6520000000000000000000000000000000600082015250565b6000614bd560118361423f565b9150614be082614b9f565b601182019050919050565b6000614bf682614b7c565b9150614c02828561424a565b9150614c0d82614bc8565b9150614c19828461424a565b91508190509392505050565b600081519050919050565b600082825260208201905092915050565b6000614c4c82614c25565b614c568185614c30565b9350614c66818560208601613591565b614c6f816132ac565b840191505092915050565b600060a082019050614c8f60008301886148b8565b614c9c60208301876148b8565b8181036040830152614cae8186613bcd565b90508181036060830152614cc28185613bcd565b90508181036080830152614cd68184614c41565b90509695505050505050565b600081519050614cf181613470565b92915050565b600060208284031215614d0d57614d0c61319a565b5b6000614d1b84828501614ce2565b91505092915050565b60008160e01c9050919050565b600060033d1115614d505760046000803e614d4d600051614d24565b90505b90565b600060443d10614de057614d65613190565b60043d036004823e80513d602482011167ffffffffffffffff82111715614d8d575050614de0565b808201805167ffffffffffffffff811115614dab5750505050614de0565b80602083010160043d038501811115614dc8575050505050614de0565b614dd7826020018501866132ec565b82955050505050505b90565b7f455243313135353a207472616e7366657220746f206e6f6e2d4552433131353560008201527f526563656976657220696d706c656d656e746572000000000000000000000000602082015250565b6000614e3f603483613580565b9150614e4a82614de3565b604082019050919050565b60006020820190508181036000830152614e6e81614e32565b9050919050565b7f455243313135353a204552433131353552656365697665722072656a6563746560008201527f6420746f6b656e73000000000000000000000000000000000000000000000000602082015250565b6000614ed1602883613580565b9150614edc82614e75565b604082019050919050565b60006020820190508181036000830152614f0081614ec4565b9050919050565b7f5061757361626c653a206e6f7420706175736564000000000000000000000000600082015250565b6000614f3d601483613580565b9150614f4882614f07565b602082019050919050565b60006020820190508181036000830152614f6c81614f30565b9050919050565b600060a082019050614f8860008301886148b8565b614f9560208301876148b8565b614fa26040830186613278565b614faf6060830185613278565b8181036080830152614fc18184614c41565b90509695505050505050565b7f5061757361626c653a2070617573656400000000000000000000000000000000600082015250565b6000615003601083613580565b915061500e82614fcd565b602082019050919050565b6000602082019050818103600083015261503281614ff6565b9050919050565b600061504482613202565b915061504f83613202565b925082820261505d81613202565b9150828204841483151761507457615073614012565b5b5092915050565b600061508682613202565b91506000820361509957615098614012565b5b600182039050919050565b7f537472696e67733a20686578206c656e67746820696e73756666696369656e74600082015250565b60006150da602083613580565b91506150e5826150a4565b602082019050919050565b60006020820190508181036000830152615109816150cd565b9050919050565b7f455243313135353a206275726e20616d6f756e74206578636565647320746f7460008201527f616c537570706c79000000000000000000000000000000000000000000000000602082015250565b600061516c602883613580565b915061517782615110565b604082019050919050565b6000602082019050818103600083015261519b8161515f565b905091905056fea2646970667358221220b33783a3ea7baf56efea61ea3556cb521a8cdac5d07bf2f93396de3e0efd34e364736f6c63430008130033",
  "immutableReferences": {},
  "source": "// SPDX-License-Identifier: MIT\r\npragma solidity ^0.8.9;\r\n\r\nimport \"../node_modules/@openzeppelin/contracts-upgradeable/token/ERC1155/ERC1155Upgradeable.sol\";\r\nimport \"../node_modules/@openzeppelin/contracts-upgradeable/access/AccessControlUpgradeable.sol\";\r\nimport \"../node_modules/@openzeppelin/contracts-upgradeable/security/PausableUpgradeable.sol\";\r\nimport \"../node_modules/@openzeppelin/contracts-upgradeable/token/ERC1155/extensions/ERC1155BurnableUpgradeable.sol\";\r\nimport \"../node_modules/@openzeppelin/contracts-upgradeable/token/ERC1155/extensions/ERC1155SupplyUpgradeable.sol\";\r\nimport \"../node_modules/@openzeppelin/contracts-upgradeable/proxy/utils/Initializable.sol\";\r\n\r\n/// @custom:security-contact dodo920306@gmail.com\r\ncontract The_Ohara_Protocol is Initializable, ERC1155Upgradeable, AccessControlUpgradeable, PausableUpgradeable, ERC1155BurnableUpgradeable, ERC1155SupplyUpgradeable {\r\n    mapping (uint256 => bytes32) idToPublisher; // Anyone can check which publisher an id belongs to.\r\n    mapping (string => bool) publisherHasMember;\r\n\r\n    /// @custom:oz-upgrades-unsafe-allow constructor\r\n    constructor() {\r\n        _disableInitializers();\r\n    }\r\n\r\n    // There's no onlyPublisherSingle, for that it basically equals to onlyRole modifier from AccessControl. \r\n    modifier onlyPublisherBatch(uint256[] memory ids) {\r\n        for (uint256 i = 0; i < ids.length; ++i) {\r\n            _checkRole(idToPublisher[ids[i]]);\r\n        }\r\n        _;\r\n    }\r\n\r\n    function initialize() initializer public {\r\n        __ERC1155_init(\"\");\r\n        __AccessControl_init();\r\n        __Pausable_init();\r\n        __ERC1155Burnable_init();\r\n        __ERC1155Supply_init();\r\n\r\n        _grantRole(DEFAULT_ADMIN_ROLE, msg.sender);\r\n    }\r\n\r\n    function setURI(string memory newuri) public onlyRole(DEFAULT_ADMIN_ROLE) {\r\n        _setURI(newuri);\r\n    }\r\n\r\n    /**\r\n     * @dev The publisher who wants to claim an account belongs to them must use this function\r\n     * with the magic string that represents themselves.\r\n     * \r\n     * The function will uses keccak256 solidity function to hash this string, but before that, it must be represented as bytes32.\r\n     * The type conversion from \"string memory\" to \"bytes32\" isn't allowed, so we uses abi.encode() here.\r\n     * See https://ethereum.stackexchange.com/questions/119583/when-to-use-abi-encode-abi-encodepacked-or-abi-encodewithsignature-in-solidity\r\n     * for the reason of this selection.\r\n     * \r\n     * After that, we use grantRole() function from AccessControl,\r\n     * the reason we don't directly use _grantRole() here is because the onlyRole(getRoleAdmin(role)) should also be passed in this operation,\r\n     * and since grantRole() has that modifier originally, the current function doesn't require any modifier yet,\r\n     * and there's no need to be afraid that anyone hash others' magic string and directly call grantRole() because there's no way he/she can be the admin.\r\n     * \r\n     * If it's the first member to be added in the publisher,\r\n     * the msg.sender must be DEFAULT_ADMIN_ROLE to pass onlyRole(getRoleAdmin(role)) for that there's no way to set admin to others.\r\n     * If so, then the function would call _setRoleAdmin() to release the admin power to the publisher itself,\r\n     * indicating that from this point on, only the publisher can manage which accounts can act on its behalf.\r\n     * \r\n     * The only risk would be that a hacker steal one private key from DEFAULT_ADMIN_ROLE,\r\n     * in that case, the worse he/she can do is grant his/her accounts the publisher role that \"hasn't been registered yet\",\r\n     * for that the admins of the publishers already in the protocol can only be themselves.\r\n     * If so, then the publishers register in the future cannot use the same magic string as the hacker granted himself/herself even if they want.\r\n     * (Basically, it's the same idea as \"This username has already been used. Please try another.\",\r\n     * so the power of DEFAULT_ADMIN_ROLE is basically just register publishers and ids.)\r\n     */\r\n    function grantPublisher(string memory publisher, address account) public virtual {\r\n        bytes32 role = keccak256(abi.encode(publisher));\r\n        grantRole(role, account);\r\n\r\n        if (!publisherHasMember[publisher]){\r\n            publisherHasMember[publisher] = true;\r\n            _setRoleAdmin(role, role);\r\n        }\r\n    }\r\n\r\n    /**\r\n     * @dev See the comment of grantPublisher() above for more info about the string publisher and the bytes32 role.\r\n     * Only the old publisher could set the publisher of an id to a new one.\r\n     * Since the default publisher of the id is 0x00, the first publisher of the id must be set by the DEFAULT_ADMIN_ROLE.\r\n     */\r\n    function setIdToPublisher(uint256 id, string memory publisher)\r\n        public\r\n        onlyRole(idToPublisher[id])\r\n    {\r\n        bytes32 role = keccak256(abi.encode(publisher));\r\n        idToPublisher[id] = role;\r\n    }\r\n\r\n    /**\r\n     * @dev See the comment of grantPublisher() above for more info about the string publisher and the bytes32 role.\r\n     * The reason we don't directly call _revokeRole() and the this function is safe is the same reason grantPublisher() doesn't call _grantRole().\r\n     * Use this function to kick someone including msg.sender himself/herself out of the publisher.\r\n     * The function also can only be called by the publisher itself.\r\n     */\r\n    function revokePublisher(string memory publisher, address account) public virtual {\r\n        bytes32 role = keccak256(abi.encode(publisher));\r\n        revokeRole(role, account);\r\n    }\r\n\r\n\r\n    function pause() public onlyRole(DEFAULT_ADMIN_ROLE) {\r\n        _pause();\r\n    }\r\n\r\n    function unpause() public onlyRole(DEFAULT_ADMIN_ROLE) {\r\n        _unpause();\r\n    }\r\n\r\n    // The publisher of the id would have power to mint the id to whoever they want.\r\n    function mint(address account, uint256 id, uint256 amount, bytes memory data)\r\n        public\r\n        onlyRole(idToPublisher[id])\r\n    {\r\n        _mint(account, id, amount, data);\r\n    }\r\n\r\n    function mintBatch(address to, uint256[] memory ids, uint256[] memory amounts, bytes memory data)\r\n        public\r\n        onlyPublisherBatch(ids)\r\n    {\r\n        _mintBatch(to, ids, amounts, data);\r\n    }\r\n\r\n    function _beforeTokenTransfer(address operator, address from, address to, uint256[] memory ids, uint256[] memory amounts, bytes memory data)\r\n        internal\r\n        whenNotPaused\r\n        override(ERC1155Upgradeable, ERC1155SupplyUpgradeable)\r\n    {\r\n        super._beforeTokenTransfer(operator, from, to, ids, amounts, data);\r\n    }\r\n\r\n    // The following functions are overrides required by Solidity.\r\n\r\n    function supportsInterface(bytes4 interfaceId)\r\n        public\r\n        view\r\n        override(ERC1155Upgradeable, AccessControlUpgradeable)\r\n        returns (bool)\r\n    {\r\n        return super.supportsInterface(interfaceId);\r\n    }\r\n}",
  "sourcePath": "D:\\Users\\dodo9\\The_Ohara_Protocol\\contracts\\The_Ohara_Protocol.sol",
  "compiler": {
    "name": "solc",
    "version": "0.8.19+commit.7dd6d404.Emscripten.clang"
  },
  "schemaVersion": "3.4.13",
  "updatedAt": "2023-04-22T15:56:07.697Z",
  "networkType": "ethereum",
  "devdoc": {
    "custom:security-contact": "dodo920306@gmail.com",
    "events": {
      "ApprovalForAll(address,address,bool)": {
        "details": "Emitted when `account` grants or revokes permission to `operator` to transfer their tokens, according to `approved`."
      },
      "Initialized(uint8)": {
        "details": "Triggered when the contract has been initialized or reinitialized."
      },
      "Paused(address)": {
        "details": "Emitted when the pause is triggered by `account`."
      },
      "RoleAdminChanged(bytes32,bytes32,bytes32)": {
        "details": "Emitted when `newAdminRole` is set as ``role``'s admin role, replacing `previousAdminRole` `DEFAULT_ADMIN_ROLE` is the starting admin for all roles, despite {RoleAdminChanged} not being emitted signaling this. _Available since v3.1._"
      },
      "RoleGranted(bytes32,address,address)": {
        "details": "Emitted when `account` is granted `role`. `sender` is the account that originated the contract call, an admin role bearer except when using {AccessControl-_setupRole}."
      },
      "RoleRevoked(bytes32,address,address)": {
        "details": "Emitted when `account` is revoked `role`. `sender` is the account that originated the contract call:   - if using `revokeRole`, it is the admin role bearer   - if using `renounceRole`, it is the role bearer (i.e. `account`)"
      },
      "TransferBatch(address,address,address,uint256[],uint256[])": {
        "details": "Equivalent to multiple {TransferSingle} events, where `operator`, `from` and `to` are the same for all transfers."
      },
      "TransferSingle(address,address,address,uint256,uint256)": {
        "details": "Emitted when `value` tokens of token type `id` are transferred from `from` to `to` by `operator`."
      },
      "URI(string,uint256)": {
        "details": "Emitted when the URI for token type `id` changes to `value`, if it is a non-programmatic URI. If an {URI} event was emitted for `id`, the standard https://eips.ethereum.org/EIPS/eip-1155#metadata-extensions[guarantees] that `value` will equal the value returned by {IERC1155MetadataURI-uri}."
      },
      "Unpaused(address)": {
        "details": "Emitted when the pause is lifted by `account`."
      }
    },
    "kind": "dev",
    "methods": {
      "balanceOf(address,uint256)": {
        "details": "See {IERC1155-balanceOf}. Requirements: - `account` cannot be the zero address."
      },
      "balanceOfBatch(address[],uint256[])": {
        "details": "See {IERC1155-balanceOfBatch}. Requirements: - `accounts` and `ids` must have the same length."
      },
      "constructor": {
        "custom:oz-upgrades-unsafe-allow": "constructor"
      },
      "exists(uint256)": {
        "details": "Indicates whether any token exist with a given id, or not."
      },
      "getRoleAdmin(bytes32)": {
        "details": "Returns the admin role that controls `role`. See {grantRole} and {revokeRole}. To change a role's admin, use {_setRoleAdmin}."
      },
      "grantPublisher(string,address)": {
        "details": "The publisher who wants to claim an account belongs to them must use this function with the magic string that represents themselves.  The function will uses keccak256 solidity function to hash this string, but before that, it must be represented as bytes32. The type conversion from \"string memory\" to \"bytes32\" isn't allowed, so we uses abi.encode() here. See https://ethereum.stackexchange.com/questions/119583/when-to-use-abi-encode-abi-encodepacked-or-abi-encodewithsignature-in-solidity for the reason of this selection.  After that, we use grantRole() function from AccessControl, the reason we don't directly use _grantRole() here is because the onlyRole(getRoleAdmin(role)) should also be passed in this operation, and since grantRole() has that modifier originally, the current function doesn't require any modifier yet, and there's no need to be afraid that anyone hash others' magic string and directly call grantRole() because there's no way he/she can be the admin.  If it's the first member to be added in the publisher, the msg.sender must be DEFAULT_ADMIN_ROLE to pass onlyRole(getRoleAdmin(role)) for that there's no way to set admin to others. If so, then the function would call _setRoleAdmin() to release the admin power to the publisher itself, indicating that from this point on, only the publisher can manage which accounts can act on its behalf.  The only risk would be that a hacker steal one private key from DEFAULT_ADMIN_ROLE, in that case, the worse he/she can do is grant his/her accounts the publisher role that \"hasn't been registered yet\", for that the admins of the publishers already in the protocol can only be themselves. If so, then the publishers register in the future cannot use the same magic string as the hacker granted himself/herself even if they want. (Basically, it's the same idea as \"This username has already been used. Please try another.\", so the power of DEFAULT_ADMIN_ROLE is basically just register publishers and ids.)"
      },
      "grantRole(bytes32,address)": {
        "details": "Grants `role` to `account`. If `account` had not been already granted `role`, emits a {RoleGranted} event. Requirements: - the caller must have ``role``'s admin role. May emit a {RoleGranted} event."
      },
      "hasRole(bytes32,address)": {
        "details": "Returns `true` if `account` has been granted `role`."
      },
      "isApprovedForAll(address,address)": {
        "details": "See {IERC1155-isApprovedForAll}."
      },
      "paused()": {
        "details": "Returns true if the contract is paused, and false otherwise."
      },
      "renounceRole(bytes32,address)": {
        "details": "Revokes `role` from the calling account. Roles are often managed via {grantRole} and {revokeRole}: this function's purpose is to provide a mechanism for accounts to lose their privileges if they are compromised (such as when a trusted device is misplaced). If the calling account had been revoked `role`, emits a {RoleRevoked} event. Requirements: - the caller must be `account`. May emit a {RoleRevoked} event."
      },
      "revokePublisher(string,address)": {
        "details": "See the comment of grantPublisher() above for more info about the string publisher and the bytes32 role. The reason we don't directly call _revokeRole() and the this function is safe is the same reason grantPublisher() doesn't call _grantRole(). Use this function to kick someone including msg.sender himself/herself out of the publisher. The function also can only be called by the publisher itself."
      },
      "revokeRole(bytes32,address)": {
        "details": "Revokes `role` from `account`. If `account` had been granted `role`, emits a {RoleRevoked} event. Requirements: - the caller must have ``role``'s admin role. May emit a {RoleRevoked} event."
      },
      "safeBatchTransferFrom(address,address,uint256[],uint256[],bytes)": {
        "details": "See {IERC1155-safeBatchTransferFrom}."
      },
      "safeTransferFrom(address,address,uint256,uint256,bytes)": {
        "details": "See {IERC1155-safeTransferFrom}."
      },
      "setApprovalForAll(address,bool)": {
        "details": "See {IERC1155-setApprovalForAll}."
      },
      "setIdToPublisher(uint256,string)": {
        "details": "See the comment of grantPublisher() above for more info about the string publisher and the bytes32 role. Only the old publisher could set the publisher of an id to a new one. Since the default publisher of the id is 0x00, the first publisher of the id must be set by the DEFAULT_ADMIN_ROLE."
      },
      "totalSupply(uint256)": {
        "details": "Total amount of tokens in with a given id."
      },
      "uri(uint256)": {
        "details": "See {IERC1155MetadataURI-uri}. This implementation returns the same URI for *all* token types. It relies on the token type ID substitution mechanism https://eips.ethereum.org/EIPS/eip-1155#metadata[defined in the EIP]. Clients calling this function must replace the `\\{id\\}` substring with the actual token type ID."
      }
    },
    "version": 1
  },
  "userdoc": {
    "kind": "user",
    "methods": {},
    "version": 1
  }
}