{
  "contractName": "The_Ohara_Protocol",
  "abi": [
    {
      "inputs": [
        {
          "internalType": "address",
          "name": "addr",
          "type": "address"
        }
      ],
      "stateMutability": "nonpayable",
      "type": "constructor"
    },
    {
      "anonymous": false,
      "inputs": [
        {
          "indexed": true,
          "internalType": "address",
          "name": "account",
          "type": "address"
        },
        {
          "indexed": true,
          "internalType": "address",
          "name": "operator",
          "type": "address"
        },
        {
          "indexed": false,
          "internalType": "bool",
          "name": "approved",
          "type": "bool"
        }
      ],
      "name": "ApprovalForAll",
      "type": "event"
    },
    {
      "anonymous": false,
      "inputs": [
        {
          "indexed": true,
          "internalType": "uint256",
          "name": "id",
          "type": "uint256"
        },
        {
          "indexed": true,
          "internalType": "address",
          "name": "seller",
          "type": "address"
        },
        {
          "indexed": true,
          "internalType": "address",
          "name": "buyer",
          "type": "address"
        }
      ],
      "name": "BuyerDetermined",
      "type": "event"
    },
    {
      "anonymous": false,
      "inputs": [
        {
          "indexed": true,
          "internalType": "uint256",
          "name": "id",
          "type": "uint256"
        },
        {
          "indexed": true,
          "internalType": "uint256",
          "name": "amount",
          "type": "uint256"
        },
        {
          "indexed": true,
          "internalType": "uint256",
          "name": "price",
          "type": "uint256"
        },
        {
          "indexed": false,
          "internalType": "address",
          "name": "seller",
          "type": "address"
        }
      ],
      "name": "EBookListed",
      "type": "event"
    },
    {
      "anonymous": false,
      "inputs": [
        {
          "indexed": true,
          "internalType": "uint256",
          "name": "id",
          "type": "uint256"
        },
        {
          "indexed": true,
          "internalType": "address",
          "name": "seller",
          "type": "address"
        },
        {
          "indexed": true,
          "internalType": "uint256",
          "name": "removeAmount",
          "type": "uint256"
        },
        {
          "indexed": false,
          "internalType": "address",
          "name": "canceller",
          "type": "address"
        }
      ],
      "name": "ListingCancelled",
      "type": "event"
    },
    {
      "anonymous": false,
      "inputs": [
        {
          "indexed": false,
          "internalType": "address",
          "name": "account",
          "type": "address"
        }
      ],
      "name": "Paused",
      "type": "event"
    },
    {
      "anonymous": false,
      "inputs": [
        {
          "indexed": true,
          "internalType": "uint256",
          "name": "id",
          "type": "uint256"
        },
        {
          "indexed": true,
          "internalType": "uint256",
          "name": "originalPrice",
          "type": "uint256"
        },
        {
          "indexed": true,
          "internalType": "uint256",
          "name": "currentPrice",
          "type": "uint256"
        },
        {
          "indexed": false,
          "internalType": "address",
          "name": "seller",
          "type": "address"
        },
        {
          "indexed": false,
          "internalType": "address",
          "name": "priceModifier",
          "type": "address"
        }
      ],
      "name": "PriceModified",
      "type": "event"
    },
    {
      "anonymous": false,
      "inputs": [
        {
          "indexed": true,
          "internalType": "bytes32",
          "name": "role",
          "type": "bytes32"
        },
        {
          "indexed": true,
          "internalType": "bytes32",
          "name": "previousAdminRole",
          "type": "bytes32"
        },
        {
          "indexed": true,
          "internalType": "bytes32",
          "name": "newAdminRole",
          "type": "bytes32"
        }
      ],
      "name": "RoleAdminChanged",
      "type": "event"
    },
    {
      "anonymous": false,
      "inputs": [
        {
          "indexed": true,
          "internalType": "bytes32",
          "name": "role",
          "type": "bytes32"
        },
        {
          "indexed": true,
          "internalType": "address",
          "name": "account",
          "type": "address"
        },
        {
          "indexed": true,
          "internalType": "address",
          "name": "sender",
          "type": "address"
        }
      ],
      "name": "RoleGranted",
      "type": "event"
    },
    {
      "anonymous": false,
      "inputs": [
        {
          "indexed": true,
          "internalType": "bytes32",
          "name": "role",
          "type": "bytes32"
        },
        {
          "indexed": true,
          "internalType": "address",
          "name": "account",
          "type": "address"
        },
        {
          "indexed": true,
          "internalType": "address",
          "name": "sender",
          "type": "address"
        }
      ],
      "name": "RoleRevoked",
      "type": "event"
    },
    {
      "anonymous": false,
      "inputs": [
        {
          "indexed": true,
          "internalType": "uint256",
          "name": "id",
          "type": "uint256"
        },
        {
          "indexed": true,
          "internalType": "address",
          "name": "seller",
          "type": "address"
        },
        {
          "indexed": true,
          "internalType": "address",
          "name": "buyer",
          "type": "address"
        }
      ],
      "name": "TransactionMade",
      "type": "event"
    },
    {
      "anonymous": false,
      "inputs": [
        {
          "indexed": true,
          "internalType": "address",
          "name": "operator",
          "type": "address"
        },
        {
          "indexed": true,
          "internalType": "address",
          "name": "from",
          "type": "address"
        },
        {
          "indexed": true,
          "internalType": "address",
          "name": "to",
          "type": "address"
        },
        {
          "indexed": false,
          "internalType": "uint256[]",
          "name": "ids",
          "type": "uint256[]"
        },
        {
          "indexed": false,
          "internalType": "uint256[]",
          "name": "values",
          "type": "uint256[]"
        }
      ],
      "name": "TransferBatch",
      "type": "event"
    },
    {
      "anonymous": false,
      "inputs": [
        {
          "indexed": true,
          "internalType": "address",
          "name": "operator",
          "type": "address"
        },
        {
          "indexed": true,
          "internalType": "address",
          "name": "from",
          "type": "address"
        },
        {
          "indexed": true,
          "internalType": "address",
          "name": "to",
          "type": "address"
        },
        {
          "indexed": false,
          "internalType": "uint256",
          "name": "id",
          "type": "uint256"
        },
        {
          "indexed": false,
          "internalType": "uint256",
          "name": "value",
          "type": "uint256"
        }
      ],
      "name": "TransferSingle",
      "type": "event"
    },
    {
      "anonymous": false,
      "inputs": [
        {
          "indexed": false,
          "internalType": "string",
          "name": "value",
          "type": "string"
        },
        {
          "indexed": true,
          "internalType": "uint256",
          "name": "id",
          "type": "uint256"
        }
      ],
      "name": "URI",
      "type": "event"
    },
    {
      "anonymous": false,
      "inputs": [
        {
          "indexed": false,
          "internalType": "address",
          "name": "account",
          "type": "address"
        }
      ],
      "name": "Unpaused",
      "type": "event"
    },
    {
      "inputs": [],
      "name": "DEFAULT_ADMIN_ROLE",
      "outputs": [
        {
          "internalType": "bytes32",
          "name": "",
          "type": "bytes32"
        }
      ],
      "stateMutability": "view",
      "type": "function"
    },
    {
      "inputs": [
        {
          "internalType": "uint256",
          "name": "id",
          "type": "uint256"
        }
      ],
      "name": "exists",
      "outputs": [
        {
          "internalType": "bool",
          "name": "",
          "type": "bool"
        }
      ],
      "stateMutability": "view",
      "type": "function"
    },
    {
      "inputs": [
        {
          "internalType": "bytes32",
          "name": "role",
          "type": "bytes32"
        },
        {
          "internalType": "address",
          "name": "account",
          "type": "address"
        }
      ],
      "name": "grantRole",
      "outputs": [],
      "stateMutability": "nonpayable",
      "type": "function"
    },
    {
      "inputs": [],
      "name": "paused",
      "outputs": [
        {
          "internalType": "bool",
          "name": "",
          "type": "bool"
        }
      ],
      "stateMutability": "view",
      "type": "function"
    },
    {
      "inputs": [
        {
          "internalType": "bytes32",
          "name": "role",
          "type": "bytes32"
        },
        {
          "internalType": "address",
          "name": "account",
          "type": "address"
        }
      ],
      "name": "renounceRole",
      "outputs": [],
      "stateMutability": "nonpayable",
      "type": "function"
    },
    {
      "inputs": [
        {
          "internalType": "bytes32",
          "name": "role",
          "type": "bytes32"
        },
        {
          "internalType": "address",
          "name": "account",
          "type": "address"
        }
      ],
      "name": "revokeRole",
      "outputs": [],
      "stateMutability": "nonpayable",
      "type": "function"
    },
    {
      "inputs": [
        {
          "internalType": "address",
          "name": "from",
          "type": "address"
        },
        {
          "internalType": "address",
          "name": "to",
          "type": "address"
        },
        {
          "internalType": "uint256[]",
          "name": "ids",
          "type": "uint256[]"
        },
        {
          "internalType": "uint256[]",
          "name": "amounts",
          "type": "uint256[]"
        },
        {
          "internalType": "bytes",
          "name": "data",
          "type": "bytes"
        }
      ],
      "name": "safeBatchTransferFrom",
      "outputs": [],
      "stateMutability": "nonpayable",
      "type": "function"
    },
    {
      "inputs": [
        {
          "internalType": "address",
          "name": "from",
          "type": "address"
        },
        {
          "internalType": "address",
          "name": "to",
          "type": "address"
        },
        {
          "internalType": "uint256",
          "name": "id",
          "type": "uint256"
        },
        {
          "internalType": "uint256",
          "name": "amount",
          "type": "uint256"
        },
        {
          "internalType": "bytes",
          "name": "data",
          "type": "bytes"
        }
      ],
      "name": "safeTransferFrom",
      "outputs": [],
      "stateMutability": "nonpayable",
      "type": "function"
    },
    {
      "inputs": [
        {
          "internalType": "uint256",
          "name": "id",
          "type": "uint256"
        }
      ],
      "name": "totalSupply",
      "outputs": [
        {
          "internalType": "uint256",
          "name": "",
          "type": "uint256"
        }
      ],
      "stateMutability": "view",
      "type": "function"
    },
    {
      "inputs": [
        {
          "internalType": "uint256",
          "name": "",
          "type": "uint256"
        }
      ],
      "name": "uri",
      "outputs": [
        {
          "internalType": "string",
          "name": "",
          "type": "string"
        }
      ],
      "stateMutability": "view",
      "type": "function"
    },
    {
      "inputs": [
        {
          "internalType": "string",
          "name": "newuri",
          "type": "string"
        }
      ],
      "name": "setURI",
      "outputs": [],
      "stateMutability": "nonpayable",
      "type": "function"
    },
    {
      "inputs": [
        {
          "internalType": "uint256",
          "name": "id",
          "type": "uint256"
        }
      ],
      "name": "getURIOfId",
      "outputs": [
        {
          "internalType": "string",
          "name": "",
          "type": "string"
        }
      ],
      "stateMutability": "view",
      "type": "function"
    },
    {
      "inputs": [
        {
          "internalType": "string",
          "name": "publisher",
          "type": "string"
        },
        {
          "internalType": "address",
          "name": "account",
          "type": "address"
        }
      ],
      "name": "grantPublisher",
      "outputs": [],
      "stateMutability": "nonpayable",
      "type": "function"
    },
    {
      "inputs": [
        {
          "internalType": "uint256",
          "name": "id",
          "type": "uint256"
        },
        {
          "internalType": "string",
          "name": "publisher",
          "type": "string"
        }
      ],
      "name": "setIdToPublisher",
      "outputs": [],
      "stateMutability": "nonpayable",
      "type": "function"
    },
    {
      "inputs": [
        {
          "internalType": "uint256",
          "name": "id",
          "type": "uint256"
        }
      ],
      "name": "idExists",
      "outputs": [
        {
          "internalType": "bool",
          "name": "",
          "type": "bool"
        }
      ],
      "stateMutability": "view",
      "type": "function"
    },
    {
      "inputs": [
        {
          "internalType": "string",
          "name": "publisher",
          "type": "string"
        },
        {
          "internalType": "address",
          "name": "account",
          "type": "address"
        }
      ],
      "name": "revokePublisher",
      "outputs": [],
      "stateMutability": "nonpayable",
      "type": "function"
    },
    {
      "inputs": [
        {
          "internalType": "string",
          "name": "role",
          "type": "string"
        },
        {
          "internalType": "address",
          "name": "account",
          "type": "address"
        }
      ],
      "name": "hasRole",
      "outputs": [
        {
          "internalType": "bool",
          "name": "",
          "type": "bool"
        }
      ],
      "stateMutability": "view",
      "type": "function"
    },
    {
      "inputs": [
        {
          "internalType": "bytes32",
          "name": "role",
          "type": "bytes32"
        },
        {
          "internalType": "address",
          "name": "account",
          "type": "address"
        }
      ],
      "name": "hasRole",
      "outputs": [
        {
          "internalType": "bool",
          "name": "",
          "type": "bool"
        }
      ],
      "stateMutability": "view",
      "type": "function"
    },
    {
      "inputs": [
        {
          "internalType": "bytes32",
          "name": "role",
          "type": "bytes32"
        }
      ],
      "name": "getRoleAdmin",
      "outputs": [
        {
          "internalType": "bytes32",
          "name": "",
          "type": "bytes32"
        }
      ],
      "stateMutability": "view",
      "type": "function"
    },
    {
      "inputs": [
        {
          "internalType": "string",
          "name": "role",
          "type": "string"
        }
      ],
      "name": "getRoleAdmin",
      "outputs": [
        {
          "internalType": "bytes32",
          "name": "",
          "type": "bytes32"
        }
      ],
      "stateMutability": "view",
      "type": "function"
    },
    {
      "inputs": [],
      "name": "pause",
      "outputs": [],
      "stateMutability": "nonpayable",
      "type": "function"
    },
    {
      "inputs": [],
      "name": "unpause",
      "outputs": [],
      "stateMutability": "nonpayable",
      "type": "function"
    },
    {
      "inputs": [
        {
          "internalType": "address",
          "name": "to",
          "type": "address"
        },
        {
          "internalType": "uint256",
          "name": "id",
          "type": "uint256"
        },
        {
          "internalType": "uint256",
          "name": "amount",
          "type": "uint256"
        },
        {
          "internalType": "bytes",
          "name": "data",
          "type": "bytes"
        }
      ],
      "name": "mint",
      "outputs": [],
      "stateMutability": "nonpayable",
      "type": "function"
    },
    {
      "inputs": [
        {
          "internalType": "address",
          "name": "to",
          "type": "address"
        },
        {
          "internalType": "uint256[]",
          "name": "ids",
          "type": "uint256[]"
        },
        {
          "internalType": "uint256[]",
          "name": "amounts",
          "type": "uint256[]"
        },
        {
          "internalType": "bytes",
          "name": "data",
          "type": "bytes"
        }
      ],
      "name": "mintBatch",
      "outputs": [],
      "stateMutability": "nonpayable",
      "type": "function"
    },
    {
      "inputs": [
        {
          "internalType": "address",
          "name": "from",
          "type": "address"
        },
        {
          "internalType": "uint256",
          "name": "id",
          "type": "uint256"
        },
        {
          "internalType": "uint256",
          "name": "amount",
          "type": "uint256"
        }
      ],
      "name": "burn",
      "outputs": [],
      "stateMutability": "nonpayable",
      "type": "function"
    },
    {
      "inputs": [
        {
          "internalType": "address",
          "name": "from",
          "type": "address"
        },
        {
          "internalType": "uint256[]",
          "name": "ids",
          "type": "uint256[]"
        },
        {
          "internalType": "uint256[]",
          "name": "amounts",
          "type": "uint256[]"
        }
      ],
      "name": "burnBatch",
      "outputs": [],
      "stateMutability": "nonpayable",
      "type": "function"
    },
    {
      "inputs": [
        {
          "internalType": "address",
          "name": "from",
          "type": "address"
        },
        {
          "internalType": "address",
          "name": "to",
          "type": "address"
        },
        {
          "internalType": "uint256",
          "name": "id",
          "type": "uint256"
        },
        {
          "internalType": "uint256",
          "name": "amount",
          "type": "uint256"
        },
        {
          "internalType": "bytes",
          "name": "data",
          "type": "bytes"
        }
      ],
      "name": "transfer",
      "outputs": [],
      "stateMutability": "nonpayable",
      "type": "function"
    },
    {
      "inputs": [
        {
          "internalType": "address",
          "name": "from",
          "type": "address"
        },
        {
          "internalType": "address",
          "name": "to",
          "type": "address"
        },
        {
          "internalType": "uint256[]",
          "name": "ids",
          "type": "uint256[]"
        },
        {
          "internalType": "uint256[]",
          "name": "amounts",
          "type": "uint256[]"
        },
        {
          "internalType": "bytes",
          "name": "data",
          "type": "bytes"
        }
      ],
      "name": "transferBatch",
      "outputs": [],
      "stateMutability": "nonpayable",
      "type": "function"
    },
    {
      "inputs": [
        {
          "internalType": "address",
          "name": "account",
          "type": "address"
        },
        {
          "internalType": "uint256",
          "name": "id",
          "type": "uint256"
        }
      ],
      "name": "balanceOf",
      "outputs": [
        {
          "internalType": "uint256",
          "name": "",
          "type": "uint256"
        }
      ],
      "stateMutability": "view",
      "type": "function"
    },
    {
      "inputs": [
        {
          "internalType": "address[]",
          "name": "accounts",
          "type": "address[]"
        },
        {
          "internalType": "uint256[]",
          "name": "ids",
          "type": "uint256[]"
        }
      ],
      "name": "balanceOfBatch",
      "outputs": [
        {
          "internalType": "uint256[]",
          "name": "",
          "type": "uint256[]"
        }
      ],
      "stateMutability": "view",
      "type": "function"
    },
    {
      "inputs": [
        {
          "internalType": "address",
          "name": "operator",
          "type": "address"
        },
        {
          "internalType": "bool",
          "name": "approved",
          "type": "bool"
        }
      ],
      "name": "setApprovalForAll",
      "outputs": [],
      "stateMutability": "nonpayable",
      "type": "function"
    },
    {
      "inputs": [
        {
          "internalType": "address",
          "name": "account",
          "type": "address"
        },
        {
          "internalType": "address",
          "name": "operator",
          "type": "address"
        }
      ],
      "name": "isApprovedForAll",
      "outputs": [
        {
          "internalType": "bool",
          "name": "",
          "type": "bool"
        }
      ],
      "stateMutability": "view",
      "type": "function"
    },
    {
      "inputs": [
        {
          "internalType": "uint256",
          "name": "id",
          "type": "uint256"
        }
      ],
      "name": "getIdSupply",
      "outputs": [
        {
          "internalType": "uint256",
          "name": "",
          "type": "uint256"
        }
      ],
      "stateMutability": "view",
      "type": "function"
    },
    {
      "inputs": [
        {
          "internalType": "address",
          "name": "newAddr",
          "type": "address"
        }
      ],
      "name": "changeMarketAddr",
      "outputs": [],
      "stateMutability": "nonpayable",
      "type": "function"
    },
    {
      "inputs": [
        {
          "internalType": "uint256",
          "name": "id",
          "type": "uint256"
        },
        {
          "internalType": "address",
          "name": "seller",
          "type": "address"
        },
        {
          "internalType": "address",
          "name": "buyer",
          "type": "address"
        }
      ],
      "name": "checkIsBuyer",
      "outputs": [
        {
          "internalType": "int256",
          "name": "",
          "type": "int256"
        }
      ],
      "stateMutability": "view",
      "type": "function"
    },
    {
      "inputs": [
        {
          "internalType": "address",
          "name": "account",
          "type": "address"
        },
        {
          "internalType": "uint256",
          "name": "id",
          "type": "uint256"
        }
      ],
      "name": "listedBalanceOf",
      "outputs": [
        {
          "internalType": "uint256",
          "name": "",
          "type": "uint256"
        }
      ],
      "stateMutability": "view",
      "type": "function"
    },
    {
      "inputs": [
        {
          "internalType": "uint256",
          "name": "id",
          "type": "uint256"
        },
        {
          "internalType": "address",
          "name": "seller",
          "type": "address"
        }
      ],
      "name": "getPrice",
      "outputs": [
        {
          "internalType": "uint256",
          "name": "",
          "type": "uint256"
        }
      ],
      "stateMutability": "view",
      "type": "function"
    },
    {
      "inputs": [
        {
          "internalType": "uint256",
          "name": "id",
          "type": "uint256"
        },
        {
          "internalType": "address",
          "name": "seller",
          "type": "address"
        },
        {
          "internalType": "uint256",
          "name": "price",
          "type": "uint256"
        },
        {
          "internalType": "uint256",
          "name": "amount",
          "type": "uint256"
        }
      ],
      "name": "listEBook",
      "outputs": [],
      "stateMutability": "nonpayable",
      "type": "function"
    },
    {
      "inputs": [
        {
          "internalType": "uint256",
          "name": "id",
          "type": "uint256"
        },
        {
          "internalType": "address",
          "name": "seller",
          "type": "address"
        },
        {
          "internalType": "uint256",
          "name": "price",
          "type": "uint256"
        }
      ],
      "name": "modifyPrice",
      "outputs": [],
      "stateMutability": "nonpayable",
      "type": "function"
    },
    {
      "inputs": [
        {
          "internalType": "uint256",
          "name": "id",
          "type": "uint256"
        },
        {
          "internalType": "address",
          "name": "seller",
          "type": "address"
        },
        {
          "internalType": "uint256",
          "name": "amount",
          "type": "uint256"
        }
      ],
      "name": "cancelListing",
      "outputs": [],
      "stateMutability": "nonpayable",
      "type": "function"
    },
    {
      "inputs": [
        {
          "internalType": "address",
          "name": "seller",
          "type": "address"
        },
        {
          "internalType": "address",
          "name": "buyer",
          "type": "address"
        },
        {
          "internalType": "uint256",
          "name": "id",
          "type": "uint256"
        }
      ],
      "name": "determineBuyer",
      "outputs": [],
      "stateMutability": "nonpayable",
      "type": "function"
    },
    {
      "inputs": [
        {
          "internalType": "uint256",
          "name": "id",
          "type": "uint256"
        },
        {
          "internalType": "address payable",
          "name": "seller",
          "type": "address"
        }
      ],
      "name": "purchaseEBook",
      "outputs": [],
      "stateMutability": "payable",
      "type": "function"
    },
    {
      "inputs": [
        {
          "internalType": "bytes4",
          "name": "interfaceId",
          "type": "bytes4"
        }
      ],
      "name": "supportsInterface",
      "outputs": [
        {
          "internalType": "bool",
          "name": "",
          "type": "bool"
        }
      ],
      "stateMutability": "view",
      "type": "function"
    }
  ],
  "bytecode": "0x60806040523480156200001157600080fd5b5060405162008003380380620080038339818101604052810190620000379190620002b5565b604051806020016040528060008152506200005881620000d160201b60201c565b506000600460006101000a81548160ff02191690831515021790555080600960006101000a81548173ffffffffffffffffffffffffffffffffffffffff021916908373ffffffffffffffffffffffffffffffffffffffff160217905550620000ca6000801b33620000e660201b60201c565b5062000648565b8060029081620000e2919062000561565b5050565b620000f88282620001d860201b60201c565b620001d45760016003600084815260200190815260200160002060000160008373ffffffffffffffffffffffffffffffffffffffff1673ffffffffffffffffffffffffffffffffffffffff16815260200190815260200160002060006101000a81548160ff021916908315150217905550620001796200024360201b60201c565b73ffffffffffffffffffffffffffffffffffffffff168173ffffffffffffffffffffffffffffffffffffffff16837f2f8788117e7eff1d82e926ec794901d17c78024a50270940304540a733656f0d60405160405180910390a45b5050565b60006003600084815260200190815260200160002060000160008373ffffffffffffffffffffffffffffffffffffffff1673ffffffffffffffffffffffffffffffffffffffff16815260200190815260200160002060009054906101000a900460ff16905092915050565b600033905090565b600080fd5b600073ffffffffffffffffffffffffffffffffffffffff82169050919050565b60006200027d8262000250565b9050919050565b6200028f8162000270565b81146200029b57600080fd5b50565b600081519050620002af8162000284565b92915050565b600060208284031215620002ce57620002cd6200024b565b5b6000620002de848285016200029e565b91505092915050565b600081519050919050565b7f4e487b7100000000000000000000000000000000000000000000000000000000600052604160045260246000fd5b7f4e487b7100000000000000000000000000000000000000000000000000000000600052602260045260246000fd5b600060028204905060018216806200036957607f821691505b6020821081036200037f576200037e62000321565b5b50919050565b60008190508160005260206000209050919050565b60006020601f8301049050919050565b600082821b905092915050565b600060088302620003e97fffffffffffffffffffffffffffffffffffffffffffffffffffffffffffffffff82620003aa565b620003f58683620003aa565b95508019841693508086168417925050509392505050565b6000819050919050565b6000819050919050565b6000620004426200043c62000436846200040d565b62000417565b6200040d565b9050919050565b6000819050919050565b6200045e8362000421565b620004766200046d8262000449565b848454620003b7565b825550505050565b600090565b6200048d6200047e565b6200049a81848462000453565b505050565b5b81811015620004c257620004b660008262000483565b600181019050620004a0565b5050565b601f8211156200051157620004db8162000385565b620004e6846200039a565b81016020851015620004f6578190505b6200050e62000505856200039a565b8301826200049f565b50505b505050565b600082821c905092915050565b6000620005366000198460080262000516565b1980831691505092915050565b600062000551838362000523565b9150826002028217905092915050565b6200056c82620002e7565b67ffffffffffffffff811115620005885762000587620002f2565b5b62000594825462000350565b620005a1828285620004c6565b600060209050601f831160018114620005d95760008415620005c4578287015190505b620005d0858262000543565b86555062000640565b601f198416620005e98662000385565b60005b828110156200061357848901518255600182019150602085019450602081019050620005ec565b868310156200063357848901516200062f601f89168262000523565b8355505b6001600288020188555050505b505050505050565b6179ab80620006586000396000f3fe60806040526004361061025b5760003560e01c80635a9807be11610144578063a217fddf116100b6578063bf99830e1161007a578063bf99830e1461094c578063d547741f14610975578063e3579fc51461099e578063e985e9c5146109db578063f242432a14610a18578063f5298aca14610a415761025b565b8063a217fddf14610876578063a22cb465146108a1578063a9171a72146108ca578063bd85b039146108f3578063be285853146109305761025b565b80636c9cd097116101085780636c9cd0971461076a5780636fcfcb66146107a7578063731133e9146107d05780638456cb59146107f95780638ad094b51461081057806391d14854146108395761025b565b80635a9807be1461065f5780635c975abb1461069c5780635ebb6365146106c7578063672a41a1146107045780636b20c454146107415761025b565b80631286c46d116101dd5780632f2ff15d116101a15780632f2ff15d1461055357806336568abe1461057c5780633f4ba83a146105a55780634e1273f4146105bc5780634f558e79146105f957806352509e97146106365761025b565b80631286c46d1461045e5780631f7fdffa14610487578063248a9ca3146104b05780632b57cfbb146104ed5780632eb2c2d61461052a5761025b565b80630b8a295a116102245780630b8a295a146103695780630c834143146103a65780630e89341c146103cf5780630ef5e2671461040c578063127217d6146104355761025b565b8062fdd58e1461026057806301ad63bd1461029d57806301ffc9a7146102c657806302fe5305146103035780630807a3bd1461032c575b600080fd5b34801561026c57600080fd5b50610287600480360381019061028291906152ed565b610a6a565b604051610294919061533c565b60405180910390f35b3480156102a957600080fd5b506102c460048036038101906102bf919061549d565b610a7e565b005b3480156102d257600080fd5b506102ed60048036038101906102e89190615551565b610aec565b6040516102fa9190615599565b60405180910390f35b34801561030f57600080fd5b5061032a600480360381019061032591906155b4565b610afe565b005b34801561033857600080fd5b50610353600480360381019061034e91906155fd565b610b20565b60405161036091906156a9565b60405180910390f35b34801561037557600080fd5b50610390600480360381019061038b91906155fd565b610b5b565b60405161039d9190615599565b60405180910390f35b3480156103b257600080fd5b506103cd60048036038101906103c891906156cb565b610b6d565b005b3480156103db57600080fd5b506103f660048036038101906103f191906155fd565b611011565b60405161040391906156a9565b60405180910390f35b34801561041857600080fd5b50610433600480360381019061042e919061571e565b6110a5565b005b34801561044157600080fd5b5061045c60048036038101906104579190615812565b6114b1565b005b34801561046a57600080fd5b50610485600480360381019061048091906158a9565b611525565b005b34801561049357600080fd5b506104ae60048036038101906104a991906159cd565b611567565b005b3480156104bc57600080fd5b506104d760048036038101906104d29190615abe565b6115d7565b6040516104e49190615afa565b60405180910390f35b3480156104f957600080fd5b50610514600480360381019061050f9190615b15565b6115f7565b604051610521919061533c565b60405180910390f35b34801561053657600080fd5b50610551600480360381019061054c9190615b55565b611655565b005b34801561055f57600080fd5b5061057a60048036038101906105759190615c24565b6116f6565b005b34801561058857600080fd5b506105a3600480360381019061059e9190615c24565b611717565b005b3480156105b157600080fd5b506105ba61179a565b005b3480156105c857600080fd5b506105e360048036038101906105de9190615d27565b6117b2565b6040516105f09190615e5d565b60405180910390f35b34801561060557600080fd5b50610620600480360381019061061b91906155fd565b6117c6565b60405161062d9190615599565b60405180910390f35b34801561064257600080fd5b5061065d600480360381019061065891906158a9565b6117da565b005b34801561066b57600080fd5b50610686600480360381019061068191906155fd565b61188e565b604051610693919061533c565b60405180910390f35b3480156106a857600080fd5b506106b16118a0565b6040516106be9190615599565b60405180910390f35b3480156106d357600080fd5b506106ee60048036038101906106e991906152ed565b6118b7565b6040516106fb919061533c565b60405180910390f35b34801561071057600080fd5b5061072b600480360381019061072691906155b4565b611915565b6040516107389190615afa565b60405180910390f35b34801561074d57600080fd5b5061076860048036038101906107639190615e7f565b61194d565b005b34801561077657600080fd5b50610791600480360381019061078c91906158a9565b6119fb565b60405161079e9190615599565b60405180910390f35b3480156107b357600080fd5b506107ce60048036038101906107c99190615b55565b611a35565b005b3480156107dc57600080fd5b506107f760048036038101906107f29190615f0a565b611b15565b005b34801561080557600080fd5b5061080e611b4d565b005b34801561081c57600080fd5b50610837600480360381019061083291906156cb565b611b65565b005b34801561084557600080fd5b50610860600480360381019061085b9190615c24565b611f10565b60405161086d9190615599565b60405180910390f35b34801561088257600080fd5b5061088b611f7b565b6040516108989190615afa565b60405180910390f35b3480156108ad57600080fd5b506108c860048036038101906108c39190615fb9565b611f82565b005b3480156108d657600080fd5b506108f160048036038101906108ec9190615ff9565b611f98565b005b3480156108ff57600080fd5b5061091a600480360381019061091591906155fd565b61236e565b604051610927919061533c565b60405180910390f35b61094a6004803603810190610945919061609e565b61238b565b005b34801561095857600080fd5b50610973600480360381019061096e91906160de565b612a03565b005b34801561098157600080fd5b5061099c60048036038101906109979190615c24565b612a55565b005b3480156109aa57600080fd5b506109c560048036038101906109c0919061610b565b612a76565b6040516109d29190616177565b60405180910390f35b3480156109e757600080fd5b50610a0260048036038101906109fd9190616192565b612c50565b604051610a0f9190615599565b60405180910390f35b348015610a2457600080fd5b50610a3f6004803603810190610a3a9190615812565b612c64565b005b348015610a4d57600080fd5b50610a686004803603810190610a6391906161d2565b612d05565b005b6000610a768383612d47565b905092915050565b610a86612e0f565b6006600083815260200190815260200160002054610aa381612e59565b600082604051602001610ab691906156a9565b60405160208183030381529060405280519060200120905080600660008681526020019081526020016000208190555050505050565b6000610af782612e6d565b9050919050565b610b06612e0f565b6000801b610b1381612e59565b610b1c82612ee7565b5050565b6060610b2b82611011565b610b3483612efa565b604051602001610b45929190616287565b6040516020818303038152906040529050919050565b6000610b66826117c6565b9050919050565b610b75612e0f565b82610b7f816117c6565b610bbe576040517f08c379a0000000000000000000000000000000000000000000000000000000008152600401610bb590616306565b60405180910390fd5b8160008111610c02576040517f08c379a0000000000000000000000000000000000000000000000000000000008152600401610bf990616372565b60405180910390fd5b83600073ffffffffffffffffffffffffffffffffffffffff168173ffffffffffffffffffffffffffffffffffffffff1603610c72576040517f08c379a0000000000000000000000000000000000000000000000000000000008152600401610c69906163de565b60405180910390fd5b84610c7d3382612fc8565b80610cb357503373ffffffffffffffffffffffffffffffffffffffff168173ffffffffffffffffffffffffffffffffffffffff16145b610cf2576040517f08c379a0000000000000000000000000000000000000000000000000000000008152600401610ce99061644a565b60405180910390fd5b868660006008600084815260200190815260200160002060008373ffffffffffffffffffffffffffffffffffffffff1673ffffffffffffffffffffffffffffffffffffffff1681526020019081526020016000206001015411610d8a576040517f08c379a0000000000000000000000000000000000000000000000000000000008152600401610d81906164b6565b60405180910390fd5b86600860008b815260200190815260200160002060008a73ffffffffffffffffffffffffffffffffffffffff1673ffffffffffffffffffffffffffffffffffffffff16815260200190815260200160002060020154600860008c815260200190815260200160002060008b73ffffffffffffffffffffffffffffffffffffffff1673ffffffffffffffffffffffffffffffffffffffff16815260200190815260200160002060010154610e3d9190616505565b1015610e7e576040517f08c379a0000000000000000000000000000000000000000000000000000000008152600401610e7590616585565b60405180910390fd5b86600860008b815260200190815260200160002060008a73ffffffffffffffffffffffffffffffffffffffff1673ffffffffffffffffffffffffffffffffffffffff168152602001908152602001600020600101600082825403925050819055506000600860008b815260200190815260200160002060008a73ffffffffffffffffffffffffffffffffffffffff1673ffffffffffffffffffffffffffffffffffffffff1681526020019081526020016000206001015403610fb657600860008a815260200190815260200160002060008973ffffffffffffffffffffffffffffffffffffffff1673ffffffffffffffffffffffffffffffffffffffff16815260200190815260200160002060008082016000905560018201600090556002820160009055600382016000610fb39190615207565b50505b868873ffffffffffffffffffffffffffffffffffffffff168a7f69e5af4ae7d64e2ae64974f8f3d1149f91bd39f3b1dc649f7add227a19093a0733604051610ffe91906165b4565b60405180910390a4505050505050505050565b606060028054611020906165fe565b80601f016020809104026020016040519081016040528092919081815260200182805461104c906165fe565b80156110995780601f1061106e57610100808354040283529160200191611099565b820191906000526020600020905b81548152906001019060200180831161107c57829003601f168201915b50505050509050919050565b6110ad612e0f565b6000801b6110ba81612e59565b816110c4816117c6565b611103576040517f08c379a00000000000000000000000000000000000000000000000000000000081526004016110fa90616306565b60405180910390fd5b84600073ffffffffffffffffffffffffffffffffffffffff168173ffffffffffffffffffffffffffffffffffffffff1603611173576040517f08c379a000000000000000000000000000000000000000000000000000000000815260040161116a906163de565b60405180910390fd5b84600073ffffffffffffffffffffffffffffffffffffffff168173ffffffffffffffffffffffffffffffffffffffff16036111e3576040517f08c379a00000000000000000000000000000000000000000000000000000000081526004016111da906163de565b60405180910390fd5b6008600086815260200190815260200160002060008873ffffffffffffffffffffffffffffffffffffffff1673ffffffffffffffffffffffffffffffffffffffff168152602001908152602001600020600201546008600087815260200190815260200160002060008973ffffffffffffffffffffffffffffffffffffffff1673ffffffffffffffffffffffffffffffffffffffff16815260200190815260200160002060010154116112cb576040517f08c379a00000000000000000000000000000000000000000000000000000000081526004016112c29061667b565b60405180910390fd5b6008600086815260200190815260200160002060008873ffffffffffffffffffffffffffffffffffffffff1673ffffffffffffffffffffffffffffffffffffffff168152602001908152602001600020600301869080600181540180825580915050600190039060005260206000200160009091909190916101000a81548173ffffffffffffffffffffffffffffffffffffffff021916908373ffffffffffffffffffffffffffffffffffffffff16021790555060006008600087815260200190815260200160002060008973ffffffffffffffffffffffffffffffffffffffff1673ffffffffffffffffffffffffffffffffffffffff16815260200190815260200160002060020154036113e4576113e38761305c565b5b6008600086815260200190815260200160002060008873ffffffffffffffffffffffffffffffffffffffff1673ffffffffffffffffffffffffffffffffffffffff16815260200190815260200160002060020160008154809291906114489061669b565b91905055508573ffffffffffffffffffffffffffffffffffffffff168773ffffffffffffffffffffffffffffffffffffffff16867f293e36bbce608551a8ef03dba20114986371a7df520fde646a2a4a8136c8fc0e60405160405180910390a450505050505050565b816114bc86856118b7565b6114c68786610a6a565b6114d09190616505565b1015611511576040517f08c379a00000000000000000000000000000000000000000000000000000000081526004016115089061672f565b60405180910390fd5b61151e8585858585612c64565b5050505050565b61152d612e0f565b60008260405160200161154091906156a9565b6040516020818303038152906040528051906020012090506115628183612a55565b505050565b61156f612e0f565b8260005b81518110156115c3576115b2600660008484815181106115965761159561674f565b5b6020026020010151815260200190815260200160002054612e59565b806115bc9061669b565b9050611573565b506115d08585858561306b565b5050505050565b600060036000838152602001908152602001600020600101549050919050565b60006008600084815260200190815260200160002060008373ffffffffffffffffffffffffffffffffffffffff1673ffffffffffffffffffffffffffffffffffffffff16815260200190815260200160002060000154905092915050565b61165d613297565b73ffffffffffffffffffffffffffffffffffffffff168573ffffffffffffffffffffffffffffffffffffffff1614806116a357506116a28561169d613297565b612c50565b5b6116e2576040517f08c379a00000000000000000000000000000000000000000000000000000000081526004016116d9906167f0565b60405180910390fd5b6116ef858585858561329f565b5050505050565b6116ff826115d7565b61170881612e59565b61171283836135c0565b505050565b61171f613297565b73ffffffffffffffffffffffffffffffffffffffff168173ffffffffffffffffffffffffffffffffffffffff161461178c576040517f08c379a000000000000000000000000000000000000000000000000000000000815260040161178390616882565b60405180910390fd5b61179682826136a1565b5050565b6000801b6117a781612e59565b6117af613783565b50565b60606117be83836137e6565b905092915050565b6000806117d28361236e565b119050919050565b6117e2612e0f565b6000826040516020016117f591906156a9565b60405160208183030381529060405280519060200120905061181781836116f6565b60078360405161182791906168a2565b908152602001604051809103902060009054906101000a900460ff1661188957600160078460405161185991906168a2565b908152602001604051809103902060006101000a81548160ff02191690831515021790555061188881826138ff565b5b505050565b60006118998261236e565b9050919050565b6000600460009054906101000a900460ff16905090565b60006008600083815260200190815260200160002060008473ffffffffffffffffffffffffffffffffffffffff1673ffffffffffffffffffffffffffffffffffffffff16815260200190815260200160002060010154905092915050565b60006119468260405160200161192b91906156a9565b604051602081830303815290604052805190602001206115d7565b9050919050565b611955612e0f565b60005b82518110156119ea578181815181106119745761197361674f565b5b60200260200101516119a0858584815181106119935761199261674f565b5b60200260200101516118b7565b6119c4868685815181106119b7576119b661674f565b5b6020026020010151610a6a565b6119ce9190616505565b10156119d957600080fd5b806119e39061669b565b9050611958565b506119f683838361395b565b505050565b6000611a2d83604051602001611a1191906156a9565b6040516020818303038152906040528051906020012083611f10565b905092915050565b60005b8351811015611b0057828181518110611a5457611a5361674f565b5b6020026020010151611a8087868481518110611a7357611a7261674f565b5b60200260200101516118b7565b611aa488878581518110611a9757611a9661674f565b5b6020026020010151610a6a565b611aae9190616505565b1015611aef576040517f08c379a0000000000000000000000000000000000000000000000000000000008152600401611ae69061672f565b60405180910390fd5b80611af99061669b565b9050611a38565b50611b0e8585858585611655565b5050505050565b611b1d612e0f565b6006600084815260200190815260200160002054611b3a81612e59565b611b46858585856139f8565b5050505050565b6000801b611b5a81612e59565b611b62613ba8565b50565b611b6d612e0f565b82611b77816117c6565b611bb6576040517f08c379a0000000000000000000000000000000000000000000000000000000008152600401611bad90616306565b60405180910390fd5b8160008111611bfa576040517f08c379a0000000000000000000000000000000000000000000000000000000008152600401611bf190616372565b60405180910390fd5b83600073ffffffffffffffffffffffffffffffffffffffff168173ffffffffffffffffffffffffffffffffffffffff1603611c6a576040517f08c379a0000000000000000000000000000000000000000000000000000000008152600401611c61906163de565b60405180910390fd5b84611c753382612fc8565b80611cab57503373ffffffffffffffffffffffffffffffffffffffff168173ffffffffffffffffffffffffffffffffffffffff16145b611cea576040517f08c379a0000000000000000000000000000000000000000000000000000000008152600401611ce19061644a565b60405180910390fd5b868660006008600084815260200190815260200160002060008373ffffffffffffffffffffffffffffffffffffffff1673ffffffffffffffffffffffffffffffffffffffff1681526020019081526020016000206001015411611d82576040517f08c379a0000000000000000000000000000000000000000000000000000000008152600401611d79906164b6565b60405180910390fd5b6000600860008b815260200190815260200160002060008a73ffffffffffffffffffffffffffffffffffffffff1673ffffffffffffffffffffffffffffffffffffffff1681526020019081526020016000206002015414611e18576040517f08c379a0000000000000000000000000000000000000000000000000000000008152600401611e0f90616905565b60405180910390fd5b6000600860008b815260200190815260200160002060008a73ffffffffffffffffffffffffffffffffffffffff1673ffffffffffffffffffffffffffffffffffffffff16815260200190815260200160002060000154905087600860008c815260200190815260200160002060008b73ffffffffffffffffffffffffffffffffffffffff1673ffffffffffffffffffffffffffffffffffffffff1681526020019081526020016000206000018190555087818b7f38c88505b4f8c3d77359548f5b449ecf78fa2046034b1b73e88734d23190f5568c33604051611efc929190616925565b60405180910390a450505050505050505050565b60006003600084815260200190815260200160002060000160008373ffffffffffffffffffffffffffffffffffffffff1673ffffffffffffffffffffffffffffffffffffffff16815260200190815260200160002060009054906101000a900460ff16905092915050565b6000801b81565b611f8a612e0f565b611f948282613c0b565b5050565b611fa0612e0f565b83611faa816117c6565b611fe9576040517f08c379a0000000000000000000000000000000000000000000000000000000008152600401611fe090616306565b60405180910390fd5b826000811161202d576040517f08c379a000000000000000000000000000000000000000000000000000000000815260040161202490616372565b60405180910390fd5b8260008111612071576040517f08c379a000000000000000000000000000000000000000000000000000000000815260040161206890616372565b60405180910390fd5b85600073ffffffffffffffffffffffffffffffffffffffff168173ffffffffffffffffffffffffffffffffffffffff16036120e1576040517f08c379a00000000000000000000000000000000000000000000000000000000081526004016120d8906163de565b60405180910390fd5b866120ec3382612fc8565b8061212257503373ffffffffffffffffffffffffffffffffffffffff168173ffffffffffffffffffffffffffffffffffffffff16145b612161576040517f08c379a00000000000000000000000000000000000000000000000000000000081526004016121589061644a565b60405180910390fd5b85600860008b815260200190815260200160002060008a73ffffffffffffffffffffffffffffffffffffffff1673ffffffffffffffffffffffffffffffffffffffff168152602001908152602001600020600101546121c08a8c610a6a565b6121ca9190616505565b101561220b576040517f08c379a00000000000000000000000000000000000000000000000000000000081526004016122029061699a565b60405180910390fd5b6000600860008b815260200190815260200160002060008a73ffffffffffffffffffffffffffffffffffffffff1673ffffffffffffffffffffffffffffffffffffffff16815260200190815260200160002060020154036122bf5786600860008b815260200190815260200160002060008a73ffffffffffffffffffffffffffffffffffffffff1673ffffffffffffffffffffffffffffffffffffffff168152602001908152602001600020600001819055505b85600860008b815260200190815260200160002060008a73ffffffffffffffffffffffffffffffffffffffff1673ffffffffffffffffffffffffffffffffffffffff168152602001908152602001600020600101600082825461232291906169ba565b9250508190555086868a7f2fc0ffd013b5d05f874bd9a06a8bb6dbfe037efcb406e32eca22ed05e1ed381d8b60405161235b91906165b4565b60405180910390a4505050505050505050565b600060056000838152602001908152602001600020549050919050565b612393612e0f565b8161239d816117c6565b6123dc576040517f08c379a00000000000000000000000000000000000000000000000000000000081526004016123d390616306565b60405180910390fd5b81600073ffffffffffffffffffffffffffffffffffffffff168173ffffffffffffffffffffffffffffffffffffffff160361244c576040517f08c379a0000000000000000000000000000000000000000000000000000000008152600401612443906163de565b60405180910390fd5b838360006008600084815260200190815260200160002060008373ffffffffffffffffffffffffffffffffffffffff1673ffffffffffffffffffffffffffffffffffffffff16815260200190815260200160002060010154116124e4576040517f08c379a00000000000000000000000000000000000000000000000000000000081526004016124db906164b6565b60405180910390fd5b600033905060006124f6888884612a76565b90507fffffffffffffffffffffffffffffffffffffffffffffffffffffffffffffffff810361255a576040517f08c379a000000000000000000000000000000000000000000000000000000000815260040161255190616a3a565b60405180910390fd5b6000600860008a815260200190815260200160002060008973ffffffffffffffffffffffffffffffffffffffff1673ffffffffffffffffffffffffffffffffffffffff16815260200190815260200160002060000154905060006103e8610401836125c59190616a5a565b6125cf9190616acb565b905080341015612614576040517f08c379a000000000000000000000000000000000000000000000000000000000815260040161260b90616b48565b60405180910390fd5b61263189858c600160405180602001604052806000815250613c21565b8873ffffffffffffffffffffffffffffffffffffffff166108fc839081150290604051600060405180830381858888f19350505050158015612677573d6000803e3d6000fd5b50600860008b815260200190815260200160002060008a73ffffffffffffffffffffffffffffffffffffffff1673ffffffffffffffffffffffffffffffffffffffff16815260200190815260200160002060010160008154809291906126dc90616b68565b9190505550600860008b815260200190815260200160002060008a73ffffffffffffffffffffffffffffffffffffffff1673ffffffffffffffffffffffffffffffffffffffff168152602001908152602001600020600201600081548092919061274590616b68565b91905055506000600860008c815260200190815260200160002060008b73ffffffffffffffffffffffffffffffffffffffff1673ffffffffffffffffffffffffffffffffffffffff16815260200190815260200160002060030184815481106127b1576127b061674f565b5b9060005260206000200160006101000a81548173ffffffffffffffffffffffffffffffffffffffff021916908373ffffffffffffffffffffffffffffffffffffffff160217905550600081346128079190616505565b1115612860578373ffffffffffffffffffffffffffffffffffffffff166108fc82346128339190616505565b9081150290604051600060405180830381858888f1935050505015801561285e573d6000803e3d6000fd5b505b6000600860008c815260200190815260200160002060008b73ffffffffffffffffffffffffffffffffffffffff1673ffffffffffffffffffffffffffffffffffffffff16815260200190815260200160002060020154036128c5576128c489613ebc565b5b6000600860008c815260200190815260200160002060008b73ffffffffffffffffffffffffffffffffffffffff1673ffffffffffffffffffffffffffffffffffffffff168152602001908152602001600020600101540361299c57600860008b815260200190815260200160002060008a73ffffffffffffffffffffffffffffffffffffffff1673ffffffffffffffffffffffffffffffffffffffff168152602001908152602001600020600080820160009055600182016000905560028201600090556003820160006129999190615207565b50505b8373ffffffffffffffffffffffffffffffffffffffff168973ffffffffffffffffffffffffffffffffffffffff168b7f920fa75bdd35e02ccdb168c8b4214196d63ffe7eee90c4b073112050f5ba2e3c60405160405180910390a450505050505050505050565b6000801b612a1081612e59565b81600960006101000a81548173ffffffffffffffffffffffffffffffffffffffff021916908373ffffffffffffffffffffffffffffffffffffffff1602179055505050565b612a5e826115d7565b612a6781612e59565b612a7183836136a1565b505050565b6000806008600086815260200190815260200160002060008573ffffffffffffffffffffffffffffffffffffffff1673ffffffffffffffffffffffffffffffffffffffff16815260200190815260200160002060030180549050905060006008600087815260200190815260200160002060008673ffffffffffffffffffffffffffffffffffffffff1673ffffffffffffffffffffffffffffffffffffffff168152602001908152602001600020600301805480602002602001604051908101604052809291908181526020018280548015612ba757602002820191906000526020600020905b8160009054906101000a900473ffffffffffffffffffffffffffffffffffffffff1673ffffffffffffffffffffffffffffffffffffffff1681526020019060010190808311612b5d575b5050505050905060005b82811015612c22578473ffffffffffffffffffffffffffffffffffffffff16828281518110612be357612be261674f565b5b602002602001015173ffffffffffffffffffffffffffffffffffffffff1603612c1157809350505050612c49565b80612c1b9061669b565b9050612bb1565b507fffffffffffffffffffffffffffffffffffffffffffffffffffffffffffffffff925050505b9392505050565b6000612c5c8383612fc8565b905092915050565b612c6c613297565b73ffffffffffffffffffffffffffffffffffffffff168573ffffffffffffffffffffffffffffffffffffffff161480612cb25750612cb185612cac613297565b612c50565b5b612cf1576040517f08c379a0000000000000000000000000000000000000000000000000000000008152600401612ce8906167f0565b60405180910390fd5b612cfe8585858585613c21565b5050505050565b612d0d612e0f565b80612d1884846118b7565b612d228585610a6a565b612d2c9190616505565b1015612d3757600080fd5b612d42838383613ecb565b505050565b60008073ffffffffffffffffffffffffffffffffffffffff168373ffffffffffffffffffffffffffffffffffffffff1603612db7576040517f08c379a0000000000000000000000000000000000000000000000000000000008152600401612dae90616c03565b60405180910390fd5b60008083815260200190815260200160002060008473ffffffffffffffffffffffffffffffffffffffff1673ffffffffffffffffffffffffffffffffffffffff16815260200190815260200160002054905092915050565b612e176118a0565b15612e57576040517f08c379a0000000000000000000000000000000000000000000000000000000008152600401612e4e90616c6f565b60405180910390fd5b565b612e6a81612e65613297565b613f68565b50565b60007f7965db0b000000000000000000000000000000000000000000000000000000007bffffffffffffffffffffffffffffffffffffffffffffffffffffffff1916827bffffffffffffffffffffffffffffffffffffffffffffffffffffffff19161480612ee05750612edf82613fed565b5b9050919050565b8060029081612ef69190616e3b565b5050565b606060006001612f09846140cf565b01905060008167ffffffffffffffff811115612f2857612f27615372565b5b6040519080825280601f01601f191660200182016040528015612f5a5781602001600182028036833780820191505090505b509050600082602001820190505b600115612fbd578080600190039150507f3031323334353637383961626364656600000000000000000000000000000000600a86061a8153600a8581612fb157612fb0616a9c565b5b04945060008503612f68575b819350505050919050565b6000600160008473ffffffffffffffffffffffffffffffffffffffff1673ffffffffffffffffffffffffffffffffffffffff16815260200190815260200160002060008373ffffffffffffffffffffffffffffffffffffffff1673ffffffffffffffffffffffffffffffffffffffff16815260200190815260200160002060009054906101000a900460ff16905092915050565b61306881306001614222565b50565b600073ffffffffffffffffffffffffffffffffffffffff168473ffffffffffffffffffffffffffffffffffffffff16036130da576040517f08c379a00000000000000000000000000000000000000000000000000000000081526004016130d190616f7f565b60405180910390fd5b815183511461311e576040517f08c379a000000000000000000000000000000000000000000000000000000000815260040161311590617011565b60405180910390fd5b6000613128613297565b90506131398160008787878761438e565b60005b84518110156131f2578381815181106131585761315761674f565b5b60200260200101516000808784815181106131765761317561674f565b5b6020026020010151815260200190815260200160002060008873ffffffffffffffffffffffffffffffffffffffff1673ffffffffffffffffffffffffffffffffffffffff16815260200190815260200160002060008282546131d891906169ba565b9250508190555080806131ea9061669b565b91505061313c565b508473ffffffffffffffffffffffffffffffffffffffff16600073ffffffffffffffffffffffffffffffffffffffff168273ffffffffffffffffffffffffffffffffffffffff167f4a39dc06d4c0dbc64b70af90fd698a233a518aa5d07e595d983b8c0526c8f7fb878760405161326a929190617031565b60405180910390a4613281816000878787876143ac565b613290816000878787876143b4565b5050505050565b600033905090565b81518351146132e3576040517f08c379a00000000000000000000000000000000000000000000000000000000081526004016132da90617011565b60405180910390fd5b600073ffffffffffffffffffffffffffffffffffffffff168473ffffffffffffffffffffffffffffffffffffffff1603613352576040517f08c379a0000000000000000000000000000000000000000000000000000000008152600401613349906170da565b60405180910390fd5b600061335c613297565b905061336c81878787878761438e565b60005b845181101561351d57600085828151811061338d5761338c61674f565b5b6020026020010151905060008583815181106133ac576133ab61674f565b5b60200260200101519050600080600084815260200190815260200160002060008b73ffffffffffffffffffffffffffffffffffffffff1673ffffffffffffffffffffffffffffffffffffffff1681526020019081526020016000205490508181101561344d576040517f08c379a00000000000000000000000000000000000000000000000000000000081526004016134449061716c565b60405180910390fd5b81810360008085815260200190815260200160002060008c73ffffffffffffffffffffffffffffffffffffffff1673ffffffffffffffffffffffffffffffffffffffff168152602001908152602001600020819055508160008085815260200190815260200160002060008b73ffffffffffffffffffffffffffffffffffffffff1673ffffffffffffffffffffffffffffffffffffffff168152602001908152602001600020600082825461350291906169ba565b92505081905550505050806135169061669b565b905061336f565b508473ffffffffffffffffffffffffffffffffffffffff168673ffffffffffffffffffffffffffffffffffffffff168273ffffffffffffffffffffffffffffffffffffffff167f4a39dc06d4c0dbc64b70af90fd698a233a518aa5d07e595d983b8c0526c8f7fb8787604051613594929190617031565b60405180910390a46135aa8187878787876143ac565b6135b88187878787876143b4565b505050505050565b6135ca8282611f10565b61369d5760016003600084815260200190815260200160002060000160008373ffffffffffffffffffffffffffffffffffffffff1673ffffffffffffffffffffffffffffffffffffffff16815260200190815260200160002060006101000a81548160ff021916908315150217905550613642613297565b73ffffffffffffffffffffffffffffffffffffffff168173ffffffffffffffffffffffffffffffffffffffff16837f2f8788117e7eff1d82e926ec794901d17c78024a50270940304540a733656f0d60405160405180910390a45b5050565b6136ab8282611f10565b1561377f5760006003600084815260200190815260200160002060000160008373ffffffffffffffffffffffffffffffffffffffff1673ffffffffffffffffffffffffffffffffffffffff16815260200190815260200160002060006101000a81548160ff021916908315150217905550613724613297565b73ffffffffffffffffffffffffffffffffffffffff168173ffffffffffffffffffffffffffffffffffffffff16837ff6391f5c32d9c69d2a47ea670b442974b53935d1edc7fd64eb21e047a839171b60405160405180910390a45b5050565b61378b61458b565b6000600460006101000a81548160ff0219169083151502179055507f5db9ee0a495bf2e6ff9c91a7834c1ba4fdd244a5e8aa4e537bd38aeae4b073aa6137cf613297565b6040516137dc91906165b4565b60405180910390a1565b6060815183511461382c576040517f08c379a0000000000000000000000000000000000000000000000000000000008152600401613823906171fe565b60405180910390fd5b6000835167ffffffffffffffff81111561384957613848615372565b5b6040519080825280602002602001820160405280156138775781602001602082028036833780820191505090505b50905060005b84518110156138f4576138c485828151811061389c5761389b61674f565b5b60200260200101518583815181106138b7576138b661674f565b5b6020026020010151610a6a565b8282815181106138d7576138d661674f565b5b602002602001018181525050806138ed9061669b565b905061387d565b508091505092915050565b600061390a836115d7565b90508160036000858152602001908152602001600020600101819055508181847fbd79b86ffe0ab8e8776151514217cd7cacd52c909f66475c3af44e129f0b00ff60405160405180910390a4505050565b613963613297565b73ffffffffffffffffffffffffffffffffffffffff168373ffffffffffffffffffffffffffffffffffffffff1614806139a957506139a8836139a3613297565b612c50565b5b6139e8576040517f08c379a00000000000000000000000000000000000000000000000000000000081526004016139df906167f0565b60405180910390fd5b6139f38383836145d4565b505050565b600073ffffffffffffffffffffffffffffffffffffffff168473ffffffffffffffffffffffffffffffffffffffff1603613a67576040517f08c379a0000000000000000000000000000000000000000000000000000000008152600401613a5e90616f7f565b60405180910390fd5b6000613a71613297565b90506000613a7e856148a2565b90506000613a8b856148a2565b9050613a9c8360008985858961438e565b8460008088815260200190815260200160002060008973ffffffffffffffffffffffffffffffffffffffff1673ffffffffffffffffffffffffffffffffffffffff1681526020019081526020016000206000828254613afb91906169ba565b925050819055508673ffffffffffffffffffffffffffffffffffffffff16600073ffffffffffffffffffffffffffffffffffffffff168473ffffffffffffffffffffffffffffffffffffffff167fc3d58168c5ae7397731d063d5bbf3d657854427343f4c083240f7aacaa2d0f628989604051613b7992919061721e565b60405180910390a4613b90836000898585896143ac565b613b9f8360008989898961491c565b50505050505050565b613bb0612e0f565b6001600460006101000a81548160ff0219169083151502179055507f62e78cea01bee320cd4e420270b5ea74000d11b0c9f74754ebdbfc544b05a258613bf4613297565b604051613c0191906165b4565b60405180910390a1565b613c1d613c16613297565b8383614222565b5050565b600073ffffffffffffffffffffffffffffffffffffffff168473ffffffffffffffffffffffffffffffffffffffff1603613c90576040517f08c379a0000000000000000000000000000000000000000000000000000000008152600401613c87906170da565b60405180910390fd5b6000613c9a613297565b90506000613ca7856148a2565b90506000613cb4856148a2565b9050613cc483898985858961438e565b600080600088815260200190815260200160002060008a73ffffffffffffffffffffffffffffffffffffffff1673ffffffffffffffffffffffffffffffffffffffff16815260200190815260200160002054905085811015613d5b576040517f08c379a0000000000000000000000000000000000000000000000000000000008152600401613d529061716c565b60405180910390fd5b85810360008089815260200190815260200160002060008b73ffffffffffffffffffffffffffffffffffffffff1673ffffffffffffffffffffffffffffffffffffffff168152602001908152602001600020819055508560008089815260200190815260200160002060008a73ffffffffffffffffffffffffffffffffffffffff1673ffffffffffffffffffffffffffffffffffffffff1681526020019081526020016000206000828254613e1091906169ba565b925050819055508773ffffffffffffffffffffffffffffffffffffffff168973ffffffffffffffffffffffffffffffffffffffff168573ffffffffffffffffffffffffffffffffffffffff167fc3d58168c5ae7397731d063d5bbf3d657854427343f4c083240f7aacaa2d0f628a8a604051613e8d92919061721e565b60405180910390a4613ea3848a8a86868a6143ac565b613eb1848a8a8a8a8a61491c565b505050505050505050565b613ec881306000614222565b50565b613ed3613297565b73ffffffffffffffffffffffffffffffffffffffff168373ffffffffffffffffffffffffffffffffffffffff161480613f195750613f1883613f13613297565b612c50565b5b613f58576040517f08c379a0000000000000000000000000000000000000000000000000000000008152600401613f4f906167f0565b60405180910390fd5b613f63838383614af3565b505050565b613f728282611f10565b613fe957613f7f81614d39565b613f8d8360001c6020614d66565b604051602001613f9e9291906172df565b6040516020818303038152906040526040517f08c379a0000000000000000000000000000000000000000000000000000000008152600401613fe091906156a9565b60405180910390fd5b5050565b60007fd9b67a26000000000000000000000000000000000000000000000000000000007bffffffffffffffffffffffffffffffffffffffffffffffffffffffff1916827bffffffffffffffffffffffffffffffffffffffffffffffffffffffff191614806140b857507f0e89341c000000000000000000000000000000000000000000000000000000007bffffffffffffffffffffffffffffffffffffffffffffffffffffffff1916827bffffffffffffffffffffffffffffffffffffffffffffffffffffffff1916145b806140c857506140c782614fa2565b5b9050919050565b600080600090507a184f03e93ff9f4daa797ed6e38ed64bf6a1f010000000000000000831061412d577a184f03e93ff9f4daa797ed6e38ed64bf6a1f010000000000000000838161412357614122616a9c565b5b0492506040810190505b6d04ee2d6d415b85acef8100000000831061416a576d04ee2d6d415b85acef810000000083816141605761415f616a9c565b5b0492506020810190505b662386f26fc10000831061419957662386f26fc10000838161418f5761418e616a9c565b5b0492506010810190505b6305f5e10083106141c2576305f5e10083816141b8576141b7616a9c565b5b0492506008810190505b61271083106141e75761271083816141dd576141dc616a9c565b5b0492506004810190505b6064831061420a5760648381614200576141ff616a9c565b5b0492506002810190505b600a8310614219576001810190505b80915050919050565b8173ffffffffffffffffffffffffffffffffffffffff168373ffffffffffffffffffffffffffffffffffffffff1603614290576040517f08c379a00000000000000000000000000000000000000000000000000000000081526004016142879061738b565b60405180910390fd5b80600160008573ffffffffffffffffffffffffffffffffffffffff1673ffffffffffffffffffffffffffffffffffffffff16815260200190815260200160002060008473ffffffffffffffffffffffffffffffffffffffff1673ffffffffffffffffffffffffffffffffffffffff16815260200190815260200160002060006101000a81548160ff0219169083151502179055508173ffffffffffffffffffffffffffffffffffffffff168373ffffffffffffffffffffffffffffffffffffffff167f17307eab39ab6107e8899845ad3d59bd9653f200f220920489ca2b5937696c31836040516143819190615599565b60405180910390a3505050565b614396612e0f565b6143a486868686868661500c565b505050505050565b505050505050565b6143d38473ffffffffffffffffffffffffffffffffffffffff166151dc565b15614583578373ffffffffffffffffffffffffffffffffffffffff1663bc197c8187878686866040518663ffffffff1660e01b8152600401614419959493929190617400565b6020604051808303816000875af192505050801561445557506040513d601f19601f82011682018060405250810190614452919061747d565b60015b6144fa576144616174b7565b806308c379a0036144bd57506144756174d9565b8061448057506144bf565b806040517f08c379a00000000000000000000000000000000000000000000000000000000081526004016144b491906156a9565b60405180910390fd5b505b6040517f08c379a00000000000000000000000000000000000000000000000000000000081526004016144f1906175db565b60405180910390fd5b63bc197c8160e01b7bffffffffffffffffffffffffffffffffffffffffffffffffffffffff1916817bffffffffffffffffffffffffffffffffffffffffffffffffffffffff191614614581576040517f08c379a00000000000000000000000000000000000000000000000000000000081526004016145789061766d565b60405180910390fd5b505b505050505050565b6145936118a0565b6145d2576040517f08c379a00000000000000000000000000000000000000000000000000000000081526004016145c9906176d9565b60405180910390fd5b565b600073ffffffffffffffffffffffffffffffffffffffff168373ffffffffffffffffffffffffffffffffffffffff1603614643576040517f08c379a000000000000000000000000000000000000000000000000000000000815260040161463a9061776b565b60405180910390fd5b8051825114614687576040517f08c379a000000000000000000000000000000000000000000000000000000000815260040161467e90617011565b60405180910390fd5b6000614691613297565b90506146b18185600086866040518060200160405280600081525061438e565b60005b83518110156147fe5760008482815181106146d2576146d161674f565b5b6020026020010151905060008483815181106146f1576146f061674f565b5b60200260200101519050600080600084815260200190815260200160002060008973ffffffffffffffffffffffffffffffffffffffff1673ffffffffffffffffffffffffffffffffffffffff16815260200190815260200160002054905081811015614792576040517f08c379a0000000000000000000000000000000000000000000000000000000008152600401614789906177fd565b60405180910390fd5b81810360008085815260200190815260200160002060008a73ffffffffffffffffffffffffffffffffffffffff1673ffffffffffffffffffffffffffffffffffffffff1681526020019081526020016000208190555050505080806147f69061669b565b9150506146b4565b50600073ffffffffffffffffffffffffffffffffffffffff168473ffffffffffffffffffffffffffffffffffffffff168273ffffffffffffffffffffffffffffffffffffffff167f4a39dc06d4c0dbc64b70af90fd698a233a518aa5d07e595d983b8c0526c8f7fb8686604051614876929190617031565b60405180910390a461489c818560008686604051806020016040528060008152506143ac565b50505050565b60606000600167ffffffffffffffff8111156148c1576148c0615372565b5b6040519080825280602002602001820160405280156148ef5781602001602082028036833780820191505090505b50905082816000815181106149075761490661674f565b5b60200260200101818152505080915050919050565b61493b8473ffffffffffffffffffffffffffffffffffffffff166151dc565b15614aeb578373ffffffffffffffffffffffffffffffffffffffff1663f23a6e6187878686866040518663ffffffff1660e01b815260040161498195949392919061781d565b6020604051808303816000875af19250505080156149bd57506040513d601f19601f820116820180604052508101906149ba919061747d565b60015b614a62576149c96174b7565b806308c379a003614a2557506149dd6174d9565b806149e85750614a27565b806040517f08c379a0000000000000000000000000000000000000000000000000000000008152600401614a1c91906156a9565b60405180910390fd5b505b6040517f08c379a0000000000000000000000000000000000000000000000000000000008152600401614a59906175db565b60405180910390fd5b63f23a6e6160e01b7bffffffffffffffffffffffffffffffffffffffffffffffffffffffff1916817bffffffffffffffffffffffffffffffffffffffffffffffffffffffff191614614ae9576040517f08c379a0000000000000000000000000000000000000000000000000000000008152600401614ae09061766d565b60405180910390fd5b505b505050505050565b600073ffffffffffffffffffffffffffffffffffffffff168373ffffffffffffffffffffffffffffffffffffffff1603614b62576040517f08c379a0000000000000000000000000000000000000000000000000000000008152600401614b599061776b565b60405180910390fd5b6000614b6c613297565b90506000614b79846148a2565b90506000614b86846148a2565b9050614ba68387600085856040518060200160405280600081525061438e565b600080600087815260200190815260200160002060008873ffffffffffffffffffffffffffffffffffffffff1673ffffffffffffffffffffffffffffffffffffffff16815260200190815260200160002054905084811015614c3d576040517f08c379a0000000000000000000000000000000000000000000000000000000008152600401614c34906177fd565b60405180910390fd5b84810360008088815260200190815260200160002060008973ffffffffffffffffffffffffffffffffffffffff1673ffffffffffffffffffffffffffffffffffffffff16815260200190815260200160002081905550600073ffffffffffffffffffffffffffffffffffffffff168773ffffffffffffffffffffffffffffffffffffffff168573ffffffffffffffffffffffffffffffffffffffff167fc3d58168c5ae7397731d063d5bbf3d657854427343f4c083240f7aacaa2d0f628989604051614d0a92919061721e565b60405180910390a4614d30848860008686604051806020016040528060008152506143ac565b50505050505050565b6060614d5f8273ffffffffffffffffffffffffffffffffffffffff16601460ff16614d66565b9050919050565b606060006002836002614d799190616a5a565b614d8391906169ba565b67ffffffffffffffff811115614d9c57614d9b615372565b5b6040519080825280601f01601f191660200182016040528015614dce5781602001600182028036833780820191505090505b5090507f300000000000000000000000000000000000000000000000000000000000000081600081518110614e0657614e0561674f565b5b60200101907effffffffffffffffffffffffffffffffffffffffffffffffffffffffffffff1916908160001a9053507f780000000000000000000000000000000000000000000000000000000000000081600181518110614e6a57614e6961674f565b5b60200101907effffffffffffffffffffffffffffffffffffffffffffffffffffffffffffff1916908160001a90535060006001846002614eaa9190616a5a565b614eb491906169ba565b90505b6001811115614f54577f3031323334353637383961626364656600000000000000000000000000000000600f861660108110614ef657614ef561674f565b5b1a60f81b828281518110614f0d57614f0c61674f565b5b60200101907effffffffffffffffffffffffffffffffffffffffffffffffffffffffffffff1916908160001a905350600485901c945080614f4d90616b68565b9050614eb7565b5060008414614f98576040517f08c379a0000000000000000000000000000000000000000000000000000000008152600401614f8f906178c3565b60405180910390fd5b8091505092915050565b60007f01ffc9a7000000000000000000000000000000000000000000000000000000007bffffffffffffffffffffffffffffffffffffffffffffffffffffffff1916827bffffffffffffffffffffffffffffffffffffffffffffffffffffffff1916149050919050565b61501a8686868686866151ff565b600073ffffffffffffffffffffffffffffffffffffffff168573ffffffffffffffffffffffffffffffffffffffff16036150cb5760005b83518110156150c95782818151811061506d5761506c61674f565b5b60200260200101516005600086848151811061508c5761508b61674f565b5b6020026020010151815260200190815260200160002060008282546150b191906169ba565b92505081905550806150c29061669b565b9050615051565b505b600073ffffffffffffffffffffffffffffffffffffffff168473ffffffffffffffffffffffffffffffffffffffff16036151d45760005b83518110156151d25760008482815181106151205761511f61674f565b5b60200260200101519050600084838151811061513f5761513e61674f565b5b60200260200101519050600060056000848152602001908152602001600020549050818110156151a4576040517f08c379a000000000000000000000000000000000000000000000000000000000815260040161519b90617955565b60405180910390fd5b8181036005600085815260200190815260200160002081905550505050806151cb9061669b565b9050615102565b505b505050505050565b6000808273ffffffffffffffffffffffffffffffffffffffff163b119050919050565b505050505050565b50805460008255906000526020600020908101906152259190615228565b50565b5b80821115615241576000816000905550600101615229565b5090565b6000604051905090565b600080fd5b600080fd5b600073ffffffffffffffffffffffffffffffffffffffff82169050919050565b600061528482615259565b9050919050565b61529481615279565b811461529f57600080fd5b50565b6000813590506152b18161528b565b92915050565b6000819050919050565b6152ca816152b7565b81146152d557600080fd5b50565b6000813590506152e7816152c1565b92915050565b600080604083850312156153045761530361524f565b5b6000615312858286016152a2565b9250506020615323858286016152d8565b9150509250929050565b615336816152b7565b82525050565b6000602082019050615351600083018461532d565b92915050565b600080fd5b600080fd5b6000601f19601f8301169050919050565b7f4e487b7100000000000000000000000000000000000000000000000000000000600052604160045260246000fd5b6153aa82615361565b810181811067ffffffffffffffff821117156153c9576153c8615372565b5b80604052505050565b60006153dc615245565b90506153e882826153a1565b919050565b600067ffffffffffffffff82111561540857615407615372565b5b61541182615361565b9050602081019050919050565b82818337600083830152505050565b600061544061543b846153ed565b6153d2565b90508281526020810184848401111561545c5761545b61535c565b5b61546784828561541e565b509392505050565b600082601f83011261548457615483615357565b5b813561549484826020860161542d565b91505092915050565b600080604083850312156154b4576154b361524f565b5b60006154c2858286016152d8565b925050602083013567ffffffffffffffff8111156154e3576154e2615254565b5b6154ef8582860161546f565b9150509250929050565b60007fffffffff0000000000000000000000000000000000000000000000000000000082169050919050565b61552e816154f9565b811461553957600080fd5b50565b60008135905061554b81615525565b92915050565b6000602082840312156155675761556661524f565b5b60006155758482850161553c565b91505092915050565b60008115159050919050565b6155938161557e565b82525050565b60006020820190506155ae600083018461558a565b92915050565b6000602082840312156155ca576155c961524f565b5b600082013567ffffffffffffffff8111156155e8576155e7615254565b5b6155f48482850161546f565b91505092915050565b6000602082840312156156135761561261524f565b5b6000615621848285016152d8565b91505092915050565b600081519050919050565b600082825260208201905092915050565b60005b83811015615664578082015181840152602081019050615649565b60008484015250505050565b600061567b8261562a565b6156858185615635565b9350615695818560208601615646565b61569e81615361565b840191505092915050565b600060208201905081810360008301526156c38184615670565b905092915050565b6000806000606084860312156156e4576156e361524f565b5b60006156f2868287016152d8565b9350506020615703868287016152a2565b9250506040615714868287016152d8565b9150509250925092565b6000806000606084860312156157375761573661524f565b5b6000615745868287016152a2565b9350506020615756868287016152a2565b9250506040615767868287016152d8565b9150509250925092565b600067ffffffffffffffff82111561578c5761578b615372565b5b61579582615361565b9050602081019050919050565b60006157b56157b084615771565b6153d2565b9050828152602081018484840111156157d1576157d061535c565b5b6157dc84828561541e565b509392505050565b600082601f8301126157f9576157f8615357565b5b81356158098482602086016157a2565b91505092915050565b600080600080600060a0868803121561582e5761582d61524f565b5b600061583c888289016152a2565b955050602061584d888289016152a2565b945050604061585e888289016152d8565b935050606061586f888289016152d8565b925050608086013567ffffffffffffffff8111156158905761588f615254565b5b61589c888289016157e4565b9150509295509295909350565b600080604083850312156158c0576158bf61524f565b5b600083013567ffffffffffffffff8111156158de576158dd615254565b5b6158ea8582860161546f565b92505060206158fb858286016152a2565b9150509250929050565b600067ffffffffffffffff8211156159205761591f615372565b5b602082029050602081019050919050565b600080fd5b600061594961594484615905565b6153d2565b9050808382526020820190506020840283018581111561596c5761596b615931565b5b835b81811015615995578061598188826152d8565b84526020840193505060208101905061596e565b5050509392505050565b600082601f8301126159b4576159b3615357565b5b81356159c4848260208601615936565b91505092915050565b600080600080608085870312156159e7576159e661524f565b5b60006159f5878288016152a2565b945050602085013567ffffffffffffffff811115615a1657615a15615254565b5b615a228782880161599f565b935050604085013567ffffffffffffffff811115615a4357615a42615254565b5b615a4f8782880161599f565b925050606085013567ffffffffffffffff811115615a7057615a6f615254565b5b615a7c878288016157e4565b91505092959194509250565b6000819050919050565b615a9b81615a88565b8114615aa657600080fd5b50565b600081359050615ab881615a92565b92915050565b600060208284031215615ad457615ad361524f565b5b6000615ae284828501615aa9565b91505092915050565b615af481615a88565b82525050565b6000602082019050615b0f6000830184615aeb565b92915050565b60008060408385031215615b2c57615b2b61524f565b5b6000615b3a858286016152d8565b9250506020615b4b858286016152a2565b9150509250929050565b600080600080600060a08688031215615b7157615b7061524f565b5b6000615b7f888289016152a2565b9550506020615b90888289016152a2565b945050604086013567ffffffffffffffff811115615bb157615bb0615254565b5b615bbd8882890161599f565b935050606086013567ffffffffffffffff811115615bde57615bdd615254565b5b615bea8882890161599f565b925050608086013567ffffffffffffffff811115615c0b57615c0a615254565b5b615c17888289016157e4565b9150509295509295909350565b60008060408385031215615c3b57615c3a61524f565b5b6000615c4985828601615aa9565b9250506020615c5a858286016152a2565b9150509250929050565b600067ffffffffffffffff821115615c7f57615c7e615372565b5b602082029050602081019050919050565b6000615ca3615c9e84615c64565b6153d2565b90508083825260208201905060208402830185811115615cc657615cc5615931565b5b835b81811015615cef5780615cdb88826152a2565b845260208401935050602081019050615cc8565b5050509392505050565b600082601f830112615d0e57615d0d615357565b5b8135615d1e848260208601615c90565b91505092915050565b60008060408385031215615d3e57615d3d61524f565b5b600083013567ffffffffffffffff811115615d5c57615d5b615254565b5b615d6885828601615cf9565b925050602083013567ffffffffffffffff811115615d8957615d88615254565b5b615d958582860161599f565b9150509250929050565b600081519050919050565b600082825260208201905092915050565b6000819050602082019050919050565b615dd4816152b7565b82525050565b6000615de68383615dcb565b60208301905092915050565b6000602082019050919050565b6000615e0a82615d9f565b615e148185615daa565b9350615e1f83615dbb565b8060005b83811015615e50578151615e378882615dda565b9750615e4283615df2565b925050600181019050615e23565b5085935050505092915050565b60006020820190508181036000830152615e778184615dff565b905092915050565b600080600060608486031215615e9857615e9761524f565b5b6000615ea6868287016152a2565b935050602084013567ffffffffffffffff811115615ec757615ec6615254565b5b615ed38682870161599f565b925050604084013567ffffffffffffffff811115615ef457615ef3615254565b5b615f008682870161599f565b9150509250925092565b60008060008060808587031215615f2457615f2361524f565b5b6000615f32878288016152a2565b9450506020615f43878288016152d8565b9350506040615f54878288016152d8565b925050606085013567ffffffffffffffff811115615f7557615f74615254565b5b615f81878288016157e4565b91505092959194509250565b615f968161557e565b8114615fa157600080fd5b50565b600081359050615fb381615f8d565b92915050565b60008060408385031215615fd057615fcf61524f565b5b6000615fde858286016152a2565b9250506020615fef85828601615fa4565b9150509250929050565b600080600080608085870312156160135761601261524f565b5b6000616021878288016152d8565b9450506020616032878288016152a2565b9350506040616043878288016152d8565b9250506060616054878288016152d8565b91505092959194509250565b600061606b82615259565b9050919050565b61607b81616060565b811461608657600080fd5b50565b60008135905061609881616072565b92915050565b600080604083850312156160b5576160b461524f565b5b60006160c3858286016152d8565b92505060206160d485828601616089565b9150509250929050565b6000602082840312156160f4576160f361524f565b5b6000616102848285016152a2565b91505092915050565b6000806000606084860312156161245761612361524f565b5b6000616132868287016152d8565b9350506020616143868287016152a2565b9250506040616154868287016152a2565b9150509250925092565b6000819050919050565b6161718161615e565b82525050565b600060208201905061618c6000830184616168565b92915050565b600080604083850312156161a9576161a861524f565b5b60006161b7858286016152a2565b92505060206161c8858286016152a2565b9150509250929050565b6000806000606084860312156161eb576161ea61524f565b5b60006161f9868287016152a2565b935050602061620a868287016152d8565b925050604061621b868287016152d8565b9150509250925092565b600081905092915050565b600061623b8261562a565b6162458185616225565b9350616255818560208601615646565b80840191505092915050565b7f2f00000000000000000000000000000000000000000000000000000000000000815250565b60006162938285616230565b915061629e82616261565b6001820191506162ae8284616230565b91508190509392505050565b7f496e76616c696420494400000000000000000000000000000000000000000000600082015250565b60006162f0600a83615635565b91506162fb826162ba565b602082019050919050565b6000602082019050818103600083015261631f816162e3565b9050919050565b7f496e76616c69642070726963652f616d6f756e74000000000000000000000000600082015250565b600061635c601483615635565b915061636782616326565b602082019050919050565b6000602082019050818103600083015261638b8161634f565b9050919050565b7f496e76616c696420616464726573730000000000000000000000000000000000600082015250565b60006163c8600f83615635565b91506163d382616392565b602082019050919050565b600060208201905081810360008301526163f7816163bb565b9050919050565b7f556e617574686f72697a6564206163636f756e74000000000000000000000000600082015250565b6000616434601483615635565b915061643f826163fe565b602082019050919050565b6000602082019050818103600083015261646381616427565b9050919050565b7f452d426f6f6b206973206e6f74206c6973746564206f7220736f6c64206f7574600082015250565b60006164a0602083615635565b91506164ab8261646a565b602082019050919050565b600060208201905081810360008301526164cf81616493565b9050919050565b7f4e487b7100000000000000000000000000000000000000000000000000000000600052601160045260246000fd5b6000616510826152b7565b915061651b836152b7565b9250828203905081811115616533576165326164d6565b5b92915050565b7f457863656564656420616d6f756e7420746f20756e6c69737400000000000000600082015250565b600061656f601983615635565b915061657a82616539565b602082019050919050565b6000602082019050818103600083015261659e81616562565b9050919050565b6165ae81615279565b82525050565b60006020820190506165c960008301846165a5565b92915050565b7f4e487b7100000000000000000000000000000000000000000000000000000000600052602260045260246000fd5b6000600282049050600182168061661657607f821691505b602082108103616629576166286165cf565b5b50919050565b7f4f7264657220616c6c2066756c66696c6c656400000000000000000000000000600082015250565b6000616665601383615635565b91506166708261662f565b602082019050919050565b6000602082019050818103600083015261669481616658565b9050919050565b60006166a6826152b7565b91507fffffffffffffffffffffffffffffffffffffffffffffffffffffffffffffffff82036166d8576166d76164d6565b5b600182019050919050565b7f496e73756666696369656e742062616c616e636520746f207472616e73666572600082015250565b6000616719602083615635565b9150616724826166e3565b602082019050919050565b600060208201905081810360008301526167488161670c565b9050919050565b7f4e487b7100000000000000000000000000000000000000000000000000000000600052603260045260246000fd5b7f455243313135353a2063616c6c6572206973206e6f7420746f6b656e206f776e60008201527f6572206f7220617070726f766564000000000000000000000000000000000000602082015250565b60006167da602e83615635565b91506167e58261677e565b604082019050919050565b60006020820190508181036000830152616809816167cd565b9050919050565b7f416363657373436f6e74726f6c3a2063616e206f6e6c792072656e6f756e636560008201527f20726f6c657320666f722073656c660000000000000000000000000000000000602082015250565b600061686c602f83615635565b915061687782616810565b604082019050919050565b6000602082019050818103600083015261689b8161685f565b9050919050565b60006168ae8284616230565b915081905092915050565b7f4275796572206861732064657465726d696e6564000000000000000000000000600082015250565b60006168ef601483615635565b91506168fa826168b9565b602082019050919050565b6000602082019050818103600083015261691e816168e2565b9050919050565b600060408201905061693a60008301856165a5565b61694760208301846165a5565b9392505050565b7f496e73656666696369656e742062616c616e636520746f206c69737400000000600082015250565b6000616984601c83615635565b915061698f8261694e565b602082019050919050565b600060208201905081810360008301526169b381616977565b9050919050565b60006169c5826152b7565b91506169d0836152b7565b92508282019050808211156169e8576169e76164d6565b5b92915050565b7f6e6f742062757965720000000000000000000000000000000000000000000000600082015250565b6000616a24600983615635565b9150616a2f826169ee565b602082019050919050565b60006020820190508181036000830152616a5381616a17565b9050919050565b6000616a65826152b7565b9150616a70836152b7565b9250828202616a7e816152b7565b91508282048414831517616a9557616a946164d6565b5b5092915050565b7f4e487b7100000000000000000000000000000000000000000000000000000000600052601260045260246000fd5b6000616ad6826152b7565b9150616ae1836152b7565b925082616af157616af0616a9c565b5b828204905092915050565b7f496e73756666696369656e742045746865720000000000000000000000000000600082015250565b6000616b32601283615635565b9150616b3d82616afc565b602082019050919050565b60006020820190508181036000830152616b6181616b25565b9050919050565b6000616b73826152b7565b915060008203616b8657616b856164d6565b5b600182039050919050565b7f455243313135353a2061646472657373207a65726f206973206e6f742061207660008201527f616c6964206f776e657200000000000000000000000000000000000000000000602082015250565b6000616bed602a83615635565b9150616bf882616b91565b604082019050919050565b60006020820190508181036000830152616c1c81616be0565b9050919050565b7f5061757361626c653a2070617573656400000000000000000000000000000000600082015250565b6000616c59601083615635565b9150616c6482616c23565b602082019050919050565b60006020820190508181036000830152616c8881616c4c565b9050919050565b60008190508160005260206000209050919050565b60006020601f8301049050919050565b600082821b905092915050565b600060088302616cf17fffffffffffffffffffffffffffffffffffffffffffffffffffffffffffffffff82616cb4565b616cfb8683616cb4565b95508019841693508086168417925050509392505050565b6000819050919050565b6000616d38616d33616d2e846152b7565b616d13565b6152b7565b9050919050565b6000819050919050565b616d5283616d1d565b616d66616d5e82616d3f565b848454616cc1565b825550505050565b600090565b616d7b616d6e565b616d86818484616d49565b505050565b5b81811015616daa57616d9f600082616d73565b600181019050616d8c565b5050565b601f821115616def57616dc081616c8f565b616dc984616ca4565b81016020851015616dd8578190505b616dec616de485616ca4565b830182616d8b565b50505b505050565b600082821c905092915050565b6000616e1260001984600802616df4565b1980831691505092915050565b6000616e2b8383616e01565b9150826002028217905092915050565b616e448261562a565b67ffffffffffffffff811115616e5d57616e5c615372565b5b616e6782546165fe565b616e72828285616dae565b600060209050601f831160018114616ea55760008415616e93578287015190505b616e9d8582616e1f565b865550616f05565b601f198416616eb386616c8f565b60005b82811015616edb57848901518255600182019150602085019450602081019050616eb6565b86831015616ef85784890151616ef4601f891682616e01565b8355505b6001600288020188555050505b505050505050565b7f455243313135353a206d696e7420746f20746865207a65726f2061646472657360008201527f7300000000000000000000000000000000000000000000000000000000000000602082015250565b6000616f69602183615635565b9150616f7482616f0d565b604082019050919050565b60006020820190508181036000830152616f9881616f5c565b9050919050565b7f455243313135353a2069647320616e6420616d6f756e7473206c656e6774682060008201527f6d69736d61746368000000000000000000000000000000000000000000000000602082015250565b6000616ffb602883615635565b915061700682616f9f565b604082019050919050565b6000602082019050818103600083015261702a81616fee565b9050919050565b6000604082019050818103600083015261704b8185615dff565b9050818103602083015261705f8184615dff565b90509392505050565b7f455243313135353a207472616e7366657220746f20746865207a65726f20616460008201527f6472657373000000000000000000000000000000000000000000000000000000602082015250565b60006170c4602583615635565b91506170cf82617068565b604082019050919050565b600060208201905081810360008301526170f3816170b7565b9050919050565b7f455243313135353a20696e73756666696369656e742062616c616e636520666f60008201527f72207472616e7366657200000000000000000000000000000000000000000000602082015250565b6000617156602a83615635565b9150617161826170fa565b604082019050919050565b6000602082019050818103600083015261718581617149565b9050919050565b7f455243313135353a206163636f756e747320616e6420696473206c656e67746860008201527f206d69736d617463680000000000000000000000000000000000000000000000602082015250565b60006171e8602983615635565b91506171f38261718c565b604082019050919050565b60006020820190508181036000830152617217816171db565b9050919050565b6000604082019050617233600083018561532d565b617240602083018461532d565b9392505050565b7f416363657373436f6e74726f6c3a206163636f756e7420000000000000000000600082015250565b600061727d601783616225565b915061728882617247565b601782019050919050565b7f206973206d697373696e6720726f6c6520000000000000000000000000000000600082015250565b60006172c9601183616225565b91506172d482617293565b601182019050919050565b60006172ea82617270565b91506172f68285616230565b9150617301826172bc565b915061730d8284616230565b91508190509392505050565b7f455243313135353a2073657474696e6720617070726f76616c2073746174757360008201527f20666f722073656c660000000000000000000000000000000000000000000000602082015250565b6000617375602983615635565b915061738082617319565b604082019050919050565b600060208201905081810360008301526173a481617368565b9050919050565b600081519050919050565b600082825260208201905092915050565b60006173d2826173ab565b6173dc81856173b6565b93506173ec818560208601615646565b6173f581615361565b840191505092915050565b600060a08201905061741560008301886165a5565b61742260208301876165a5565b81810360408301526174348186615dff565b905081810360608301526174488185615dff565b9050818103608083015261745c81846173c7565b90509695505050505050565b60008151905061747781615525565b92915050565b6000602082840312156174935761749261524f565b5b60006174a184828501617468565b91505092915050565b60008160e01c9050919050565b600060033d11156174d65760046000803e6174d36000516174aa565b90505b90565b600060443d10617566576174eb615245565b60043d036004823e80513d602482011167ffffffffffffffff82111715617513575050617566565b808201805167ffffffffffffffff8111156175315750505050617566565b80602083010160043d03850181111561754e575050505050617566565b61755d826020018501866153a1565b82955050505050505b90565b7f455243313135353a207472616e7366657220746f206e6f6e2d4552433131353560008201527f526563656976657220696d706c656d656e746572000000000000000000000000602082015250565b60006175c5603483615635565b91506175d082617569565b604082019050919050565b600060208201905081810360008301526175f4816175b8565b9050919050565b7f455243313135353a204552433131353552656365697665722072656a6563746560008201527f6420746f6b656e73000000000000000000000000000000000000000000000000602082015250565b6000617657602883615635565b9150617662826175fb565b604082019050919050565b600060208201905081810360008301526176868161764a565b9050919050565b7f5061757361626c653a206e6f7420706175736564000000000000000000000000600082015250565b60006176c3601483615635565b91506176ce8261768d565b602082019050919050565b600060208201905081810360008301526176f2816176b6565b9050919050565b7f455243313135353a206275726e2066726f6d20746865207a65726f206164647260008201527f6573730000000000000000000000000000000000000000000000000000000000602082015250565b6000617755602383615635565b9150617760826176f9565b604082019050919050565b6000602082019050818103600083015261778481617748565b9050919050565b7f455243313135353a206275726e20616d6f756e7420657863656564732062616c60008201527f616e636500000000000000000000000000000000000000000000000000000000602082015250565b60006177e7602483615635565b91506177f28261778b565b604082019050919050565b60006020820190508181036000830152617816816177da565b9050919050565b600060a08201905061783260008301886165a5565b61783f60208301876165a5565b61784c604083018661532d565b617859606083018561532d565b818103608083015261786b81846173c7565b90509695505050505050565b7f537472696e67733a20686578206c656e67746820696e73756666696369656e74600082015250565b60006178ad602083615635565b91506178b882617877565b602082019050919050565b600060208201905081810360008301526178dc816178a0565b9050919050565b7f455243313135353a206275726e20616d6f756e74206578636565647320746f7460008201527f616c537570706c79000000000000000000000000000000000000000000000000602082015250565b600061793f602883615635565b915061794a826178e3565b604082019050919050565b6000602082019050818103600083015261796e81617932565b905091905056fea2646970667358221220fbd15c133fb5fb34a019655e94e77ed3902f41b9cc9974f0e5f7dcb1e4ae7fdf64736f6c63430008130033",
  "immutableReferences": {},
  "source": "// SPDX-License-Identifier: MIT\r\npragma solidity ^0.8.7;\r\n\r\n/*import \"../node_modules/@openzeppelin/contracts-upgradeable/token/ERC1155/ERC1155Upgradeable.sol\";\r\nimport \"../node_modules/@openzeppelin/contracts-upgradeable/access/AccessControlUpgradeable.sol\";\r\nimport \"../node_modules/@openzeppelin/contracts-upgradeable/security/PausableUpgradeable.sol\";\r\nimport \"../node_modules/@openzeppelin/contracts-upgradeable/token/ERC1155/extensions/ERC1155BurnableUpgradeable.sol\";\r\nimport \"../node_modules/@openzeppelin/contracts-upgradeable/token/ERC1155/extensions/ERC1155SupplyUpgradeable.sol\";\r\nimport \"../node_modules/@openzeppelin/contracts-upgradeable/proxy/utils/Initializable.sol\";\r\nimport \"../node_modules/@openzeppelin/contracts-upgradeable/utils/StringsUpgradeable.sol\";*/\r\nimport \"../node_modules/@openzeppelin/contracts/token/ERC1155/ERC1155.sol\";\r\nimport \"../node_modules/@openzeppelin/contracts/access/AccessControl.sol\";\r\nimport \"../node_modules/@openzeppelin/contracts/security/Pausable.sol\";\r\nimport \"../node_modules/@openzeppelin/contracts/token/ERC1155/extensions/ERC1155Burnable.sol\";\r\nimport \"../node_modules/@openzeppelin/contracts/token/ERC1155/extensions/ERC1155Supply.sol\";\r\nimport \"../node_modules/@openzeppelin/contracts/utils/Strings.sol\";\r\nimport \"./Market.sol\";\r\n\r\n/// @custom:security-contact dodo920306@gmail.com\r\ncontract The_Ohara_Protocol is ERC1155, AccessControl, Pausable, ERC1155Burnable, ERC1155Supply {\r\n    \r\n    mapping (uint256 => bytes32) idToPublisher; // Anyone can check which publisher an id belongs to.\r\n    mapping (string => bool) publisherHasMember;\r\n\r\n    struct Listing {\r\n        uint256 price; // \r\n        uint256 listedBalance; // \r\n        uint256 buyerCounts; // \r\n        address[] buyers; // \r\n    }\r\n    \r\n    mapping (uint256 => mapping (address => Listing)) listings; // id => seller => Listing\r\n\r\n    address market;\r\n\r\n    event EBookListed(uint256 indexed id, uint256 indexed amount, uint256 indexed price, address seller);\r\n    event PriceModified(uint256 indexed id, uint256 indexed originalPrice, uint256 indexed currentPrice, address seller, address priceModifier);\r\n    event ListingCancelled(uint256 indexed id, address indexed seller, uint256 indexed removeAmount, address canceller);\r\n    event BuyerDetermined(uint256 indexed id, address indexed seller, address indexed buyer);\r\n    event TransactionMade(uint256 indexed id, address indexed seller, address indexed buyer);\r\n\r\n    modifier isIdExisted(uint256 id) {\r\n        require(super.exists(id), \"Invalid ID\");\r\n        _;\r\n    }\r\n\r\n    modifier IsPriceOrAmountValid(uint256 priceOrAmount) {\r\n        require(priceOrAmount > 0, \"Invalid price/amount\");\r\n        _;\r\n    }\r\n\r\n    modifier isApproved(address seller) {\r\n        require(super.isApprovedForAll(msg.sender, seller) || seller == msg.sender, \"Unauthorized account\");\r\n        _;\r\n    }\r\n\r\n    modifier isAddressValid(address addr) {\r\n        require(addr != address(0), \"Invalid address\");\r\n        _;\r\n    }\r\n\r\n    modifier IsEBookAvailableOnOrder(uint256 id, address seller) {  // /\r\n        require(listings[id][seller].listedBalance > 0, \"E-Book is not listed or sold out\");\r\n        _;\r\n    }\r\n\r\n    /// @custom:oz-upgrades-unsafe-allow constructor\r\n    constructor(address addr) ERC1155(\"\") {\r\n        market = addr;\r\n        _grantRole(DEFAULT_ADMIN_ROLE, msg.sender);\r\n        //_disableInitializers();\r\n    }\r\n\r\n    // There's no onlyPublisherSingle, for that it basically equals to onlyRole modifier from AccessControl. \r\n    modifier onlyPublisherBatch(uint256[] memory ids) {\r\n        for (uint256 i = 0; i < ids.length; ++i) {\r\n            _checkRole(idToPublisher[ids[i]]);\r\n        }\r\n        _;\r\n    }\r\n\r\n    /*function initialize(address addr) initializer public {\r\n        __ERC1155_init(\"\");\r\n        __AccessControl_init();\r\n        __Pausable_init();\r\n        __ERC1155Burnable_init();\r\n        __ERC1155Supply_init();\r\n\r\n        _grantRole(DEFAULT_ADMIN_ROLE, msg.sender);\r\n        \r\n    }*/\r\n\r\n    function setURI(string memory newuri) public whenNotPaused onlyRole(DEFAULT_ADMIN_ROLE) { // Tim: added whenNotPaused\r\n        _setURI(newuri);\r\n    }\r\n\r\n    // Tim: get the actual e-book uri, may require further modifications\r\n    // Tim: using toString() for getURIOfId()\r\n    using Strings for uint256;   \r\n    function getURIOfId(uint256 id) public view returns(string memory) {\r\n        return string.concat(super.uri(id), \"/\", id.toString());\r\n    }\r\n\r\n    /**\r\n     * @dev The publisher who wants to claim an account belongs to them must use this function\r\n     * with the magic string that represents themselves.\r\n     * \r\n     * The function will uses keccak256 solidity function to hash this string, but before that, it must be represented as bytes32.\r\n     * The type conversion from \"string memory\" to \"bytes32\" isn't allowed, so we use abi.encode() here.\r\n     * See https://ethereum.stackexchange.com/questions/119583/when-to-use-abi-encode-abi-encodepacked-or-abi-encodewithsignature-in-solidity\r\n     * for the reason of this selection.\r\n     * \r\n     * After that, we use grantRole() function from AccessControl,\r\n     * the reason we don't directly use _grantRole() here is because the onlyRole(getRoleAdmin(role)) should also be passed in this operation,\r\n     * and since grantRole() has that modifier originally, the current function doesn't require any modifier yet,\r\n     * and there's no need to be afraid that anyone hash others' magic string and directly call grantRole() because there's no way he/she can be the admin.\r\n     * \r\n     * If it's the first member to be added in the publisher,\r\n     * the msg.sender must be DEFAULT_ADMIN_ROLE to pass onlyRole(getRoleAdmin(role)) for that there's no way to set admin to others.\r\n     * If so, then the function would call _setRoleAdmin() to release the admin power to the publisher itself,\r\n     * indicating that from this point on, only the publisher can manage which accounts can act on its behalf.\r\n     * \r\n     * The only risk would be that a hacker steal one private key from DEFAULT_ADMIN_ROLE,\r\n     * in that case, the worse he/she can do is grant his/her accounts the publisher role that \"hasn't been registered yet\",\r\n     * for that the admins of the publishers already in the protocol can only be themselves.\r\n     * If so, then the publishers register in the future cannot use the same magic string as the hacker granted himself/herself even if they want.\r\n     * (Basically, it's the same idea as \"This username has already been used. Please try another.\",\r\n     * so the power of DEFAULT_ADMIN_ROLE is basically just register publishers and ids.)\r\n     */\r\n    function grantPublisher(string memory publisher, address account) public virtual whenNotPaused { // Tim: added whenNotPaused\r\n        bytes32 role = keccak256(abi.encode(publisher));\r\n        grantRole(role, account);\r\n\r\n        if (!publisherHasMember[publisher]) {\r\n            publisherHasMember[publisher] = true;\r\n            _setRoleAdmin(role, role);\r\n        }\r\n    }\r\n\r\n    /**\r\n     * @dev See the comment of grantPublisher() above for more info about the string publisher and the bytes32 role.\r\n     * Only the old publisher could set the publisher of an id to a new one.\r\n     * Since the default publisher of the id is 0x00, the first publisher of the id must be set by the DEFAULT_ADMIN_ROLE.\r\n     */\r\n    function setIdToPublisher(uint256 id, string memory publisher) //Tim: added whenNotPaused\r\n        public\r\n        whenNotPaused\r\n        onlyRole(idToPublisher[id])\r\n    {\r\n        bytes32 role = keccak256(abi.encode(publisher));\r\n        idToPublisher[id] = role;\r\n    }\r\n\r\n    // Tim: added idExists() to check if an id has existed\r\n    function idExists(uint256 id) public view returns (bool) {\r\n        return super.exists(id);\r\n    }\r\n\r\n    /**\r\n     * @dev See the comment of grantPublisher() above for more info about the string publisher and the bytes32 role.\r\n     * The reason we don't directly call _revokeRole() and the this function is safe is the same reason grantPublisher() doesn't call _grantRole().\r\n     * Use this function to kick someone including msg.sender himself/herself out of the publisher.\r\n     * The function also can only be called by the publisher itself.\r\n     */\r\n    function revokePublisher(string memory publisher, address account) public virtual whenNotPaused { // Tim: added whenNotPaused\r\n        bytes32 role = keccak256(abi.encode(publisher));\r\n        revokeRole(role, account);\r\n    }\r\n\r\n    // Tim: added two functions to call hasRole() & getRoleAdmin(), not sure if thye're needed\r\n    function hasRole(string memory role, address account) public view returns(bool) {\r\n        return super.hasRole(keccak256(abi.encode(role)), account);\r\n    }\r\n\r\n    function getRoleAdmin(string memory role) public view returns(bytes32) {\r\n        return super.getRoleAdmin(keccak256(abi.encode(role)));\r\n    }\r\n\r\n    function pause() public onlyRole(DEFAULT_ADMIN_ROLE) {\r\n        _pause();\r\n    }\r\n\r\n    function unpause() public onlyRole(DEFAULT_ADMIN_ROLE) {\r\n        _unpause();\r\n    }\r\n\r\n    // The publisher of the id would have power to mint the id to whoever they want.\r\n    function mint(address to, uint256 id, uint256 amount, bytes memory data)\r\n        public\r\n        whenNotPaused\r\n        onlyRole(idToPublisher[id])\r\n    {\r\n        _mint(to, id, amount, data);\r\n    }\r\n\r\n    function mintBatch(address to, uint256[] memory ids, uint256[] memory amounts, bytes memory data)\r\n        public\r\n        whenNotPaused\r\n        onlyPublisherBatch(ids)\r\n    {\r\n        _mintBatch(to, ids, amounts, data);\r\n    }\r\n\r\n    // Tim: added burn() & burnBatch()\r\n    function burn(address from, uint256 id, uint256 amount) public override(ERC1155Burnable) whenNotPaused {\r\n\r\n        require(balanceOf(from, id) - listedBalanceOf(from, id) >= amount); // \r\n\r\n        super.burn(from, id, amount);\r\n    }\r\n\r\n    function burnBatch(address from, uint256[] memory ids, uint256[] memory amounts) public override(ERC1155Burnable) whenNotPaused {\r\n\r\n        for (uint256 i = 0 ; i < ids.length ; ++i) { // \r\n            require(balanceOf(from, ids[i]) - listedBalanceOf(from, ids[i]) >= amounts[i]);\r\n        }\r\n\r\n        super.burnBatch(from, ids, amounts);\r\n    }\r\n\r\n    function _beforeTokenTransfer(address operator, address from, address to, uint256[] memory ids, uint256[] memory amounts, bytes memory data)\r\n        internal\r\n        whenNotPaused\r\n        override(ERC1155, ERC1155Supply)\r\n    {\r\n        \r\n        super._beforeTokenTransfer(operator, from, to, ids, amounts, data);\r\n    }\r\n\r\n    // Tim: added transfer() & transferBatch()\r\n    function transfer(address from, address to, uint256 id, uint256 amount, bytes memory data) public {\r\n        require(balanceOf(from, id) - listedBalanceOf(from, id) >= amount, \"Insufficient balance to transfer\");// \r\n        super.safeTransferFrom(from, to, id, amount, data);\r\n    }\r\n\r\n    function transferBatch(address from, address to, uint256[] memory ids, uint256[] memory amounts, bytes memory data) public {\r\n        for (uint256 i = 0 ; i < ids.length ; ++i) { // \r\n            require(balanceOf(from, ids[i]) - listedBalanceOf(from, ids[i]) >= amounts[i], \"Insufficient balance to transfer\");\r\n        }\r\n        super.safeBatchTransferFrom(from, to, ids, amounts, data);\r\n    }\r\n\r\n    // Tim: added balanceOf() & balanceOfBatch()\r\n    function balanceOf(address account, uint256 id) \r\n        public\r\n        view\r\n        virtual\r\n        override(ERC1155)\r\n        returns(uint256)\r\n    {\r\n        return super.balanceOf(account, id);\r\n    }\r\n\r\n    function balanceOfBatch(address[] memory accounts, uint256[] memory ids)\r\n        public\r\n        view\r\n        virtual\r\n        override(ERC1155)\r\n        returns (uint256[] memory)\r\n    {\r\n        return super.balanceOfBatch(accounts, ids) ;\r\n    }\r\n\r\n    // Tim: added setApprovalForAll() & isApprovedForAll()\r\n    function setApprovalForAll(address operator, bool approved) public override(ERC1155) whenNotPaused {\r\n        super.setApprovalForAll(operator, approved);\r\n    }\r\n\r\n    function isApprovedForAll(address account, address operator) public view override(ERC1155) returns (bool) {\r\n        return super.isApprovedForAll(account, operator);\r\n    }\r\n\r\n    // Tim: added getIdSupply()\r\n    function getIdSupply(uint256 id) public view returns (uint256) {\r\n        return super.totalSupply(id);\r\n    }\r\n\r\n    function changeMarketAddr(address newAddr) public onlyRole(DEFAULT_ADMIN_ROLE) {\r\n        market = newAddr;\r\n    }\r\n/*\r\n    function checkIsBuyer(uint256 id, address seller, address buyer) public returns (int256) {\r\n        (bool ok, bytes memory data) = market.delegatecall(\r\n            abi.encodeWithSignature(\"checkIsBuyer(uint256,address,address)\", id, seller, buyer)\r\n        );\r\n        require(ok);\r\n        return abi.decode(data, (int256));\r\n    }\r\n\r\n    // Tim:  ID \r\n    function listedBalanceOf(address account, uint256 id) public view returns(uint256) {\r\n        return listings[id][account].listedBalance;\r\n    }\r\n\r\n    // Tim: \r\n    function listEBook(uint256 id, address seller, uint256 price, uint256 amount) public {\r\n        (bool ok, ) = market.delegatecall(\r\n            abi.encodeWithSignature(\"listEBook(uint256,address,uint256,uint256)\", id, seller, price, amount)\r\n        );\r\n        require(ok);\r\n    }\r\n\r\n    // Tim: \r\n    function modifyPrice(uint256 id, address seller, uint256 price) public {\r\n        (bool ok, ) = market.delegatecall(\r\n            abi.encodeWithSignature(\"modifyPrice(uint256,address,uint256)\", id, seller, price)\r\n        );\r\n        require(ok);\r\n    }\r\n\r\n    // Tim: \r\n    function cancelListing(uint256 id, address seller, uint256 amount) public {\r\n        (bool ok, ) = market.delegatecall(\r\n            abi.encodeWithSignature(\"cancelListing(uint256,address,uint256)\", id, seller, amount)\r\n        );\r\n        require(ok);\r\n    }\r\n\r\n    // Tim: \r\n    function determineBuyer(address seller, address buyer, uint256 id) public onlyRole(DEFAULT_ADMIN_ROLE) {\r\n        (bool ok, ) = market.delegatecall(\r\n            abi.encodeWithSignature(\"cancelListing(address,address,uint256)\", seller, buyer, id)\r\n        );\r\n        require(ok);\r\n    }\r\n\r\n    // Tim:  buyers \r\n    function purchaseEBook(uint256 id, address seller) public payable {\r\n        int256 index = checkIsBuyer(id, seller, msg.sender);\r\n        (bool ok, ) = market.delegatecall(\r\n            abi.encodeWithSignature(\"purchaseEBook(uint256,address,int256)\", id, seller, index)\r\n        );\r\n        require(ok);\r\n    }\r\n*/\r\n    //  Tim: ( determineBuyer )\r\n    function _grantApprovalToContract(address seller) private {\r\n        super._setApprovalForAll(seller, address(this), true);\r\n    }\r\n\r\n    // Tim: ( purchaseEBook )\r\n    function _revokeApprovalFromContract(address seller) private {\r\n        super._setApprovalForAll(seller, address(this), false);\r\n    }\r\n\r\n    // Tim: \r\n    function checkIsBuyer(uint256 id, address seller, address buyer) public view returns (int256) {\r\n\r\n        uint256 length = listings[id][seller].buyers.length;\r\n        address[] memory buyers = listings[id][seller].buyers;\r\n        \r\n        for (uint256 i = 0 ; i < length ; ++i) {\r\n            if (buyers[i] == buyer) {\r\n                return int256(i);\r\n            }\r\n        }\r\n\r\n        return -1;\r\n    }\r\n\r\n    // Tim:  ID \r\n    function listedBalanceOf(address account, uint256 id) public view virtual returns(uint256) {\r\n        return listings[id][account].listedBalance;\r\n    }\r\n\r\n    // Tim:  ID \r\n    function getPrice(uint256 id, address seller) public view returns (uint256) {\r\n        return listings[id][seller].price;\r\n    }\r\n\r\n    // Tim: \r\n    function listEBook(uint256 id, address seller, uint256 price, uint256 amount) public virtual whenNotPaused isIdExisted(id) IsPriceOrAmountValid(price) IsPriceOrAmountValid(amount) isAddressValid(seller) isApproved(seller) {\r\n        require(balanceOf(seller, id) - listings[id][seller].listedBalance >= amount, \"Insefficient balance to list\"); //  -  >= \r\n\r\n        if (listings[id][seller].buyerCounts == 0) {\r\n            listings[id][seller].price = price;\r\n        }\r\n\r\n        listings[id][seller].listedBalance += amount;\r\n\r\n        emit EBookListed(id, amount, price, seller);\r\n    }\r\n\r\n    // Tim: \r\n    function modifyPrice(uint256 id, address seller, uint256 price) public virtual whenNotPaused isIdExisted(id) IsPriceOrAmountValid(price) isAddressValid(seller) isApproved(seller) IsEBookAvailableOnOrder(id, seller) {\r\n        require(listings[id][seller].buyerCounts == 0, \"Buyer has determined\"); //  determineBuyer\r\n\r\n        uint256 originalPrice = listings[id][seller].price;\r\n        listings[id][seller].price = price;\r\n\r\n        emit PriceModified (id, originalPrice, price, seller, msg.sender);\r\n    }\r\n\r\n    // Tim: \r\n    function cancelListing(uint256 id, address seller, uint256 amount) public virtual whenNotPaused isIdExisted(id) IsPriceOrAmountValid(amount) isAddressValid(seller) isApproved(seller) IsEBookAvailableOnOrder(id, seller) {\r\n        require(listings[id][seller].listedBalance - listings[id][seller].buyerCounts >= amount, \"Exceeded amount to unlist\"); //  >= \r\n\r\n        unchecked {\r\n            listings[id][seller].listedBalance -= amount;\r\n        }\r\n\r\n        if (listings[id][seller].listedBalance == 0) {\r\n            delete listings[id][seller];\r\n        }\r\n\r\n        emit ListingCancelled(id, seller, amount, msg.sender);\r\n    }\r\n\r\n    // Tim: \r\n    function determineBuyer(address seller, address buyer, uint256 id) public virtual whenNotPaused onlyRole(DEFAULT_ADMIN_ROLE) isIdExisted(id) isAddressValid(seller) isAddressValid(buyer) {\r\n        require(listings[id][seller].listedBalance > listings[id][seller].buyerCounts, \"Order all fulfilled\"); // \r\n\r\n        listings[id][seller].buyers.push(buyer);\r\n        \r\n        if (listings[id][seller].buyerCounts == 0) { // \r\n            _grantApprovalToContract(seller);\r\n        }\r\n\r\n        listings[id][seller].buyerCounts ++;\r\n\r\n        emit BuyerDetermined(id, seller, buyer);\r\n    }\r\n\r\n    // Tim:  buyers \r\n    function purchaseEBook(uint256 id, address payable seller) public payable virtual whenNotPaused isIdExisted(id) isAddressValid(seller) IsEBookAvailableOnOrder(id, seller) {\r\n        \r\n        address payable buyer = payable(msg.sender);\r\n        int256 index = checkIsBuyer(id, seller, buyer);\r\n        require(index != -1, \"not buyer\");\r\n\r\n        uint256 price = listings[id][seller].price;\r\n        uint256 total = price * 1025 / 1000;\r\n        require(msg.value >= total, \"Insufficient Ether\");\r\n\r\n        // uint256 fee = total - price;\r\n\r\n        super._safeTransferFrom(seller, buyer, id, 1, \"\"); // transfer ebook to buyer\r\n\r\n        seller.transfer(price); // transfer ether to seller\r\n\r\n        //(bool suucess, ) = multiSigWallet.call{ value: fee}(\"\");\r\n        //require(success, \"Buying failed\");\r\n\r\n        listings[id][seller].listedBalance --;\r\n        listings[id][seller].buyerCounts --;\r\n        listings[id][seller].buyers[uint256(index)] = address(0);\r\n\r\n        if (msg.value - total > 0) {\r\n            buyer.transfer(msg.value - total);\r\n        }\r\n\r\n        if (listings[id][seller].buyerCounts == 0) { // \r\n            _revokeApprovalFromContract(seller);\r\n        }\r\n\r\n        if (listings[id][seller].listedBalance == 0) { // \r\n            delete listings[id][seller];\r\n        }\r\n\r\n        emit TransactionMade(id, seller, buyer);\r\n    }\r\n\r\n    function supportsInterface(bytes4 interfaceId)\r\n        public\r\n        view\r\n        override(ERC1155, AccessControl)\r\n        returns (bool)\r\n    {\r\n        return super.supportsInterface(interfaceId);\r\n    }\r\n}",
  "sourcePath": "C:\\Users\\TimOu_0911\\Desktop\\The_Ohara_Protocol\\contracts\\The_Ohara_Protocol.sol",
  "compiler": {
    "name": "solc",
    "version": "0.8.19+commit.7dd6d404.Emscripten.clang"
  },
  "schemaVersion": "3.4.13",
  "updatedAt": "2023-06-27T15:29:36.011Z",
  "devdoc": {
    "custom:security-contact": "dodo920306@gmail.com",
    "events": {
      "ApprovalForAll(address,address,bool)": {
        "details": "Emitted when `account` grants or revokes permission to `operator` to transfer their tokens, according to `approved`."
      },
      "Paused(address)": {
        "details": "Emitted when the pause is triggered by `account`."
      },
      "RoleAdminChanged(bytes32,bytes32,bytes32)": {
        "details": "Emitted when `newAdminRole` is set as ``role``'s admin role, replacing `previousAdminRole` `DEFAULT_ADMIN_ROLE` is the starting admin for all roles, despite {RoleAdminChanged} not being emitted signaling this. _Available since v3.1._"
      },
      "RoleGranted(bytes32,address,address)": {
        "details": "Emitted when `account` is granted `role`. `sender` is the account that originated the contract call, an admin role bearer except when using {AccessControl-_setupRole}."
      },
      "RoleRevoked(bytes32,address,address)": {
        "details": "Emitted when `account` is revoked `role`. `sender` is the account that originated the contract call:   - if using `revokeRole`, it is the admin role bearer   - if using `renounceRole`, it is the role bearer (i.e. `account`)"
      },
      "TransferBatch(address,address,address,uint256[],uint256[])": {
        "details": "Equivalent to multiple {TransferSingle} events, where `operator`, `from` and `to` are the same for all transfers."
      },
      "TransferSingle(address,address,address,uint256,uint256)": {
        "details": "Emitted when `value` tokens of token type `id` are transferred from `from` to `to` by `operator`."
      },
      "URI(string,uint256)": {
        "details": "Emitted when the URI for token type `id` changes to `value`, if it is a non-programmatic URI. If an {URI} event was emitted for `id`, the standard https://eips.ethereum.org/EIPS/eip-1155#metadata-extensions[guarantees] that `value` will equal the value returned by {IERC1155MetadataURI-uri}."
      },
      "Unpaused(address)": {
        "details": "Emitted when the pause is lifted by `account`."
      }
    },
    "kind": "dev",
    "methods": {
      "balanceOf(address,uint256)": {
        "details": "See {IERC1155-balanceOf}. Requirements: - `account` cannot be the zero address."
      },
      "balanceOfBatch(address[],uint256[])": {
        "details": "See {IERC1155-balanceOfBatch}. Requirements: - `accounts` and `ids` must have the same length."
      },
      "constructor": {
        "custom:oz-upgrades-unsafe-allow": "constructor"
      },
      "exists(uint256)": {
        "details": "Indicates whether any token exist with a given id, or not."
      },
      "getRoleAdmin(bytes32)": {
        "details": "Returns the admin role that controls `role`. See {grantRole} and {revokeRole}. To change a role's admin, use {_setRoleAdmin}."
      },
      "grantPublisher(string,address)": {
        "details": "The publisher who wants to claim an account belongs to them must use this function with the magic string that represents themselves.  The function will uses keccak256 solidity function to hash this string, but before that, it must be represented as bytes32. The type conversion from \"string memory\" to \"bytes32\" isn't allowed, so we use abi.encode() here. See https://ethereum.stackexchange.com/questions/119583/when-to-use-abi-encode-abi-encodepacked-or-abi-encodewithsignature-in-solidity for the reason of this selection.  After that, we use grantRole() function from AccessControl, the reason we don't directly use _grantRole() here is because the onlyRole(getRoleAdmin(role)) should also be passed in this operation, and since grantRole() has that modifier originally, the current function doesn't require any modifier yet, and there's no need to be afraid that anyone hash others' magic string and directly call grantRole() because there's no way he/she can be the admin.  If it's the first member to be added in the publisher, the msg.sender must be DEFAULT_ADMIN_ROLE to pass onlyRole(getRoleAdmin(role)) for that there's no way to set admin to others. If so, then the function would call _setRoleAdmin() to release the admin power to the publisher itself, indicating that from this point on, only the publisher can manage which accounts can act on its behalf.  The only risk would be that a hacker steal one private key from DEFAULT_ADMIN_ROLE, in that case, the worse he/she can do is grant his/her accounts the publisher role that \"hasn't been registered yet\", for that the admins of the publishers already in the protocol can only be themselves. If so, then the publishers register in the future cannot use the same magic string as the hacker granted himself/herself even if they want. (Basically, it's the same idea as \"This username has already been used. Please try another.\", so the power of DEFAULT_ADMIN_ROLE is basically just register publishers and ids.)"
      },
      "grantRole(bytes32,address)": {
        "details": "Grants `role` to `account`. If `account` had not been already granted `role`, emits a {RoleGranted} event. Requirements: - the caller must have ``role``'s admin role. May emit a {RoleGranted} event."
      },
      "hasRole(bytes32,address)": {
        "details": "Returns `true` if `account` has been granted `role`."
      },
      "isApprovedForAll(address,address)": {
        "details": "See {IERC1155-isApprovedForAll}."
      },
      "paused()": {
        "details": "Returns true if the contract is paused, and false otherwise."
      },
      "renounceRole(bytes32,address)": {
        "details": "Revokes `role` from the calling account. Roles are often managed via {grantRole} and {revokeRole}: this function's purpose is to provide a mechanism for accounts to lose their privileges if they are compromised (such as when a trusted device is misplaced). If the calling account had been revoked `role`, emits a {RoleRevoked} event. Requirements: - the caller must be `account`. May emit a {RoleRevoked} event."
      },
      "revokePublisher(string,address)": {
        "details": "See the comment of grantPublisher() above for more info about the string publisher and the bytes32 role. The reason we don't directly call _revokeRole() and the this function is safe is the same reason grantPublisher() doesn't call _grantRole(). Use this function to kick someone including msg.sender himself/herself out of the publisher. The function also can only be called by the publisher itself."
      },
      "revokeRole(bytes32,address)": {
        "details": "Revokes `role` from `account`. If `account` had been granted `role`, emits a {RoleRevoked} event. Requirements: - the caller must have ``role``'s admin role. May emit a {RoleRevoked} event."
      },
      "safeBatchTransferFrom(address,address,uint256[],uint256[],bytes)": {
        "details": "See {IERC1155-safeBatchTransferFrom}."
      },
      "safeTransferFrom(address,address,uint256,uint256,bytes)": {
        "details": "See {IERC1155-safeTransferFrom}."
      },
      "setApprovalForAll(address,bool)": {
        "details": "See {IERC1155-setApprovalForAll}."
      },
      "setIdToPublisher(uint256,string)": {
        "details": "See the comment of grantPublisher() above for more info about the string publisher and the bytes32 role. Only the old publisher could set the publisher of an id to a new one. Since the default publisher of the id is 0x00, the first publisher of the id must be set by the DEFAULT_ADMIN_ROLE."
      },
      "totalSupply(uint256)": {
        "details": "Total amount of tokens in with a given id."
      },
      "uri(uint256)": {
        "details": "See {IERC1155MetadataURI-uri}. This implementation returns the same URI for *all* token types. It relies on the token type ID substitution mechanism https://eips.ethereum.org/EIPS/eip-1155#metadata[defined in the EIP]. Clients calling this function must replace the `\\{id\\}` substring with the actual token type ID."
      }
    },
    "version": 1
  },
  "userdoc": {
    "kind": "user",
    "methods": {},
    "version": 1
  }
}