{
  "contractName": "The_Ohara_Protocol",
  "abi": [
    {
      "inputs": [],
      "stateMutability": "nonpayable",
      "type": "constructor"
    },
    {
      "anonymous": false,
      "inputs": [
        {
          "indexed": true,
          "internalType": "address",
          "name": "account",
          "type": "address"
        },
        {
          "indexed": true,
          "internalType": "address",
          "name": "operator",
          "type": "address"
        },
        {
          "indexed": false,
          "internalType": "bool",
          "name": "approved",
          "type": "bool"
        }
      ],
      "name": "ApprovalForAll",
      "type": "event"
    },
    {
      "anonymous": false,
      "inputs": [
        {
          "indexed": false,
          "internalType": "uint8",
          "name": "version",
          "type": "uint8"
        }
      ],
      "name": "Initialized",
      "type": "event"
    },
    {
      "anonymous": false,
      "inputs": [
        {
          "indexed": false,
          "internalType": "address",
          "name": "account",
          "type": "address"
        }
      ],
      "name": "Paused",
      "type": "event"
    },
    {
      "anonymous": false,
      "inputs": [
        {
          "indexed": true,
          "internalType": "bytes32",
          "name": "role",
          "type": "bytes32"
        },
        {
          "indexed": true,
          "internalType": "bytes32",
          "name": "previousAdminRole",
          "type": "bytes32"
        },
        {
          "indexed": true,
          "internalType": "bytes32",
          "name": "newAdminRole",
          "type": "bytes32"
        }
      ],
      "name": "RoleAdminChanged",
      "type": "event"
    },
    {
      "anonymous": false,
      "inputs": [
        {
          "indexed": true,
          "internalType": "bytes32",
          "name": "role",
          "type": "bytes32"
        },
        {
          "indexed": true,
          "internalType": "address",
          "name": "account",
          "type": "address"
        },
        {
          "indexed": true,
          "internalType": "address",
          "name": "sender",
          "type": "address"
        }
      ],
      "name": "RoleGranted",
      "type": "event"
    },
    {
      "anonymous": false,
      "inputs": [
        {
          "indexed": true,
          "internalType": "bytes32",
          "name": "role",
          "type": "bytes32"
        },
        {
          "indexed": true,
          "internalType": "address",
          "name": "account",
          "type": "address"
        },
        {
          "indexed": true,
          "internalType": "address",
          "name": "sender",
          "type": "address"
        }
      ],
      "name": "RoleRevoked",
      "type": "event"
    },
    {
      "anonymous": false,
      "inputs": [
        {
          "indexed": true,
          "internalType": "address",
          "name": "operator",
          "type": "address"
        },
        {
          "indexed": true,
          "internalType": "address",
          "name": "from",
          "type": "address"
        },
        {
          "indexed": true,
          "internalType": "address",
          "name": "to",
          "type": "address"
        },
        {
          "indexed": false,
          "internalType": "uint256[]",
          "name": "ids",
          "type": "uint256[]"
        },
        {
          "indexed": false,
          "internalType": "uint256[]",
          "name": "values",
          "type": "uint256[]"
        }
      ],
      "name": "TransferBatch",
      "type": "event"
    },
    {
      "anonymous": false,
      "inputs": [
        {
          "indexed": true,
          "internalType": "address",
          "name": "operator",
          "type": "address"
        },
        {
          "indexed": true,
          "internalType": "address",
          "name": "from",
          "type": "address"
        },
        {
          "indexed": true,
          "internalType": "address",
          "name": "to",
          "type": "address"
        },
        {
          "indexed": false,
          "internalType": "uint256",
          "name": "id",
          "type": "uint256"
        },
        {
          "indexed": false,
          "internalType": "uint256",
          "name": "value",
          "type": "uint256"
        }
      ],
      "name": "TransferSingle",
      "type": "event"
    },
    {
      "anonymous": false,
      "inputs": [
        {
          "indexed": false,
          "internalType": "string",
          "name": "value",
          "type": "string"
        },
        {
          "indexed": true,
          "internalType": "uint256",
          "name": "id",
          "type": "uint256"
        }
      ],
      "name": "URI",
      "type": "event"
    },
    {
      "anonymous": false,
      "inputs": [
        {
          "indexed": false,
          "internalType": "address",
          "name": "account",
          "type": "address"
        }
      ],
      "name": "Unpaused",
      "type": "event"
    },
    {
      "inputs": [],
      "name": "DEFAULT_ADMIN_ROLE",
      "outputs": [
        {
          "internalType": "bytes32",
          "name": "",
          "type": "bytes32"
        }
      ],
      "stateMutability": "view",
      "type": "function"
    },
    {
      "inputs": [
        {
          "internalType": "uint256",
          "name": "id",
          "type": "uint256"
        }
      ],
      "name": "exists",
      "outputs": [
        {
          "internalType": "bool",
          "name": "",
          "type": "bool"
        }
      ],
      "stateMutability": "view",
      "type": "function"
    },
    {
      "inputs": [
        {
          "internalType": "bytes32",
          "name": "role",
          "type": "bytes32"
        },
        {
          "internalType": "address",
          "name": "account",
          "type": "address"
        }
      ],
      "name": "grantRole",
      "outputs": [],
      "stateMutability": "nonpayable",
      "type": "function"
    },
    {
      "inputs": [],
      "name": "paused",
      "outputs": [
        {
          "internalType": "bool",
          "name": "",
          "type": "bool"
        }
      ],
      "stateMutability": "view",
      "type": "function"
    },
    {
      "inputs": [
        {
          "internalType": "bytes32",
          "name": "role",
          "type": "bytes32"
        },
        {
          "internalType": "address",
          "name": "account",
          "type": "address"
        }
      ],
      "name": "renounceRole",
      "outputs": [],
      "stateMutability": "nonpayable",
      "type": "function"
    },
    {
      "inputs": [
        {
          "internalType": "bytes32",
          "name": "role",
          "type": "bytes32"
        },
        {
          "internalType": "address",
          "name": "account",
          "type": "address"
        }
      ],
      "name": "revokeRole",
      "outputs": [],
      "stateMutability": "nonpayable",
      "type": "function"
    },
    {
      "inputs": [
        {
          "internalType": "address",
          "name": "from",
          "type": "address"
        },
        {
          "internalType": "address",
          "name": "to",
          "type": "address"
        },
        {
          "internalType": "uint256[]",
          "name": "ids",
          "type": "uint256[]"
        },
        {
          "internalType": "uint256[]",
          "name": "amounts",
          "type": "uint256[]"
        },
        {
          "internalType": "bytes",
          "name": "data",
          "type": "bytes"
        }
      ],
      "name": "safeBatchTransferFrom",
      "outputs": [],
      "stateMutability": "nonpayable",
      "type": "function"
    },
    {
      "inputs": [
        {
          "internalType": "address",
          "name": "from",
          "type": "address"
        },
        {
          "internalType": "address",
          "name": "to",
          "type": "address"
        },
        {
          "internalType": "uint256",
          "name": "id",
          "type": "uint256"
        },
        {
          "internalType": "uint256",
          "name": "amount",
          "type": "uint256"
        },
        {
          "internalType": "bytes",
          "name": "data",
          "type": "bytes"
        }
      ],
      "name": "safeTransferFrom",
      "outputs": [],
      "stateMutability": "nonpayable",
      "type": "function"
    },
    {
      "inputs": [
        {
          "internalType": "uint256",
          "name": "id",
          "type": "uint256"
        }
      ],
      "name": "totalSupply",
      "outputs": [
        {
          "internalType": "uint256",
          "name": "",
          "type": "uint256"
        }
      ],
      "stateMutability": "view",
      "type": "function"
    },
    {
      "inputs": [
        {
          "internalType": "uint256",
          "name": "",
          "type": "uint256"
        }
      ],
      "name": "uri",
      "outputs": [
        {
          "internalType": "string",
          "name": "",
          "type": "string"
        }
      ],
      "stateMutability": "view",
      "type": "function"
    },
    {
      "inputs": [
        {
          "internalType": "address",
          "name": "seaportAddr",
          "type": "address"
        }
      ],
      "name": "initialize",
      "outputs": [],
      "stateMutability": "nonpayable",
      "type": "function"
    },
    {
      "inputs": [
        {
          "internalType": "string",
          "name": "newuri",
          "type": "string"
        }
      ],
      "name": "setURI",
      "outputs": [],
      "stateMutability": "nonpayable",
      "type": "function"
    },
    {
      "inputs": [
        {
          "internalType": "uint256",
          "name": "id",
          "type": "uint256"
        }
      ],
      "name": "getURIOfId",
      "outputs": [
        {
          "internalType": "string",
          "name": "",
          "type": "string"
        }
      ],
      "stateMutability": "view",
      "type": "function"
    },
    {
      "inputs": [
        {
          "internalType": "string",
          "name": "publisher",
          "type": "string"
        },
        {
          "internalType": "address",
          "name": "account",
          "type": "address"
        }
      ],
      "name": "grantPublisher",
      "outputs": [],
      "stateMutability": "nonpayable",
      "type": "function"
    },
    {
      "inputs": [
        {
          "internalType": "uint256",
          "name": "id",
          "type": "uint256"
        },
        {
          "internalType": "string",
          "name": "publisher",
          "type": "string"
        }
      ],
      "name": "setIdToPublisher",
      "outputs": [],
      "stateMutability": "nonpayable",
      "type": "function"
    },
    {
      "inputs": [
        {
          "internalType": "uint256",
          "name": "id",
          "type": "uint256"
        }
      ],
      "name": "idExists",
      "outputs": [
        {
          "internalType": "bool",
          "name": "",
          "type": "bool"
        }
      ],
      "stateMutability": "view",
      "type": "function"
    },
    {
      "inputs": [
        {
          "internalType": "string",
          "name": "publisher",
          "type": "string"
        },
        {
          "internalType": "address",
          "name": "account",
          "type": "address"
        }
      ],
      "name": "revokePublisher",
      "outputs": [],
      "stateMutability": "nonpayable",
      "type": "function"
    },
    {
      "inputs": [
        {
          "internalType": "string",
          "name": "role",
          "type": "string"
        },
        {
          "internalType": "address",
          "name": "account",
          "type": "address"
        }
      ],
      "name": "hasRole",
      "outputs": [
        {
          "internalType": "bool",
          "name": "",
          "type": "bool"
        }
      ],
      "stateMutability": "view",
      "type": "function"
    },
    {
      "inputs": [
        {
          "internalType": "bytes32",
          "name": "role",
          "type": "bytes32"
        },
        {
          "internalType": "address",
          "name": "account",
          "type": "address"
        }
      ],
      "name": "hasRole",
      "outputs": [
        {
          "internalType": "bool",
          "name": "",
          "type": "bool"
        }
      ],
      "stateMutability": "view",
      "type": "function"
    },
    {
      "inputs": [
        {
          "internalType": "bytes32",
          "name": "role",
          "type": "bytes32"
        }
      ],
      "name": "getRoleAdmin",
      "outputs": [
        {
          "internalType": "bytes32",
          "name": "",
          "type": "bytes32"
        }
      ],
      "stateMutability": "view",
      "type": "function"
    },
    {
      "inputs": [
        {
          "internalType": "string",
          "name": "role",
          "type": "string"
        }
      ],
      "name": "getRoleAdmin",
      "outputs": [
        {
          "internalType": "bytes32",
          "name": "",
          "type": "bytes32"
        }
      ],
      "stateMutability": "view",
      "type": "function"
    },
    {
      "inputs": [],
      "name": "pause",
      "outputs": [],
      "stateMutability": "nonpayable",
      "type": "function"
    },
    {
      "inputs": [],
      "name": "unpause",
      "outputs": [],
      "stateMutability": "nonpayable",
      "type": "function"
    },
    {
      "inputs": [
        {
          "internalType": "address",
          "name": "account",
          "type": "address"
        },
        {
          "internalType": "uint256",
          "name": "id",
          "type": "uint256"
        },
        {
          "internalType": "uint256",
          "name": "amount",
          "type": "uint256"
        },
        {
          "internalType": "bytes",
          "name": "data",
          "type": "bytes"
        }
      ],
      "name": "mint",
      "outputs": [],
      "stateMutability": "nonpayable",
      "type": "function"
    },
    {
      "inputs": [
        {
          "internalType": "address",
          "name": "to",
          "type": "address"
        },
        {
          "internalType": "uint256[]",
          "name": "ids",
          "type": "uint256[]"
        },
        {
          "internalType": "uint256[]",
          "name": "amounts",
          "type": "uint256[]"
        },
        {
          "internalType": "bytes",
          "name": "data",
          "type": "bytes"
        }
      ],
      "name": "mintBatch",
      "outputs": [],
      "stateMutability": "nonpayable",
      "type": "function"
    },
    {
      "inputs": [
        {
          "internalType": "address",
          "name": "from",
          "type": "address"
        },
        {
          "internalType": "uint256",
          "name": "id",
          "type": "uint256"
        },
        {
          "internalType": "uint256",
          "name": "amount",
          "type": "uint256"
        }
      ],
      "name": "burn",
      "outputs": [],
      "stateMutability": "nonpayable",
      "type": "function"
    },
    {
      "inputs": [
        {
          "internalType": "address",
          "name": "account",
          "type": "address"
        },
        {
          "internalType": "uint256[]",
          "name": "ids",
          "type": "uint256[]"
        },
        {
          "internalType": "uint256[]",
          "name": "amounts",
          "type": "uint256[]"
        }
      ],
      "name": "burnBatch",
      "outputs": [],
      "stateMutability": "nonpayable",
      "type": "function"
    },
    {
      "inputs": [
        {
          "internalType": "address",
          "name": "from",
          "type": "address"
        },
        {
          "internalType": "address",
          "name": "to",
          "type": "address"
        },
        {
          "internalType": "uint256",
          "name": "id",
          "type": "uint256"
        },
        {
          "internalType": "uint256",
          "name": "amount",
          "type": "uint256"
        },
        {
          "internalType": "bytes",
          "name": "data",
          "type": "bytes"
        }
      ],
      "name": "transfer",
      "outputs": [],
      "stateMutability": "nonpayable",
      "type": "function"
    },
    {
      "inputs": [
        {
          "internalType": "address",
          "name": "from",
          "type": "address"
        },
        {
          "internalType": "address",
          "name": "to",
          "type": "address"
        },
        {
          "internalType": "uint256[]",
          "name": "ids",
          "type": "uint256[]"
        },
        {
          "internalType": "uint256[]",
          "name": "amounts",
          "type": "uint256[]"
        },
        {
          "internalType": "bytes",
          "name": "data",
          "type": "bytes"
        }
      ],
      "name": "transferBatch",
      "outputs": [],
      "stateMutability": "nonpayable",
      "type": "function"
    },
    {
      "inputs": [
        {
          "internalType": "address",
          "name": "account",
          "type": "address"
        },
        {
          "internalType": "uint256",
          "name": "id",
          "type": "uint256"
        }
      ],
      "name": "balanceOf",
      "outputs": [
        {
          "internalType": "uint256",
          "name": "balance",
          "type": "uint256"
        }
      ],
      "stateMutability": "view",
      "type": "function"
    },
    {
      "inputs": [
        {
          "internalType": "address[]",
          "name": "accounts",
          "type": "address[]"
        },
        {
          "internalType": "uint256[]",
          "name": "ids",
          "type": "uint256[]"
        }
      ],
      "name": "balanceOfBatch",
      "outputs": [
        {
          "internalType": "uint256[]",
          "name": "",
          "type": "uint256[]"
        }
      ],
      "stateMutability": "view",
      "type": "function"
    },
    {
      "inputs": [
        {
          "internalType": "address",
          "name": "operator",
          "type": "address"
        },
        {
          "internalType": "bool",
          "name": "approved",
          "type": "bool"
        }
      ],
      "name": "setApprovalForAll",
      "outputs": [],
      "stateMutability": "nonpayable",
      "type": "function"
    },
    {
      "inputs": [
        {
          "internalType": "address",
          "name": "account",
          "type": "address"
        },
        {
          "internalType": "address",
          "name": "operator",
          "type": "address"
        }
      ],
      "name": "isApprovedForAll",
      "outputs": [
        {
          "internalType": "bool",
          "name": "",
          "type": "bool"
        }
      ],
      "stateMutability": "view",
      "type": "function"
    },
    {
      "inputs": [
        {
          "internalType": "uint256",
          "name": "id",
          "type": "uint256"
        }
      ],
      "name": "getIdSupply",
      "outputs": [
        {
          "internalType": "uint256",
          "name": "",
          "type": "uint256"
        }
      ],
      "stateMutability": "view",
      "type": "function"
    },
    {
      "inputs": [
        {
          "components": [
            {
              "components": [
                {
                  "internalType": "address",
                  "name": "offerer",
                  "type": "address"
                },
                {
                  "internalType": "address",
                  "name": "zone",
                  "type": "address"
                },
                {
                  "components": [
                    {
                      "internalType": "enum ItemType",
                      "name": "itemType",
                      "type": "uint8"
                    },
                    {
                      "internalType": "address",
                      "name": "token",
                      "type": "address"
                    },
                    {
                      "internalType": "uint256",
                      "name": "identifierOrCriteria",
                      "type": "uint256"
                    },
                    {
                      "internalType": "uint256",
                      "name": "startAmount",
                      "type": "uint256"
                    },
                    {
                      "internalType": "uint256",
                      "name": "endAmount",
                      "type": "uint256"
                    }
                  ],
                  "internalType": "struct OfferItem[]",
                  "name": "offer",
                  "type": "tuple[]"
                },
                {
                  "components": [
                    {
                      "internalType": "enum ItemType",
                      "name": "itemType",
                      "type": "uint8"
                    },
                    {
                      "internalType": "address",
                      "name": "token",
                      "type": "address"
                    },
                    {
                      "internalType": "uint256",
                      "name": "identifierOrCriteria",
                      "type": "uint256"
                    },
                    {
                      "internalType": "uint256",
                      "name": "startAmount",
                      "type": "uint256"
                    },
                    {
                      "internalType": "uint256",
                      "name": "endAmount",
                      "type": "uint256"
                    },
                    {
                      "internalType": "address payable",
                      "name": "recipient",
                      "type": "address"
                    }
                  ],
                  "internalType": "struct ConsiderationItem[]",
                  "name": "consideration",
                  "type": "tuple[]"
                },
                {
                  "internalType": "enum OrderType",
                  "name": "orderType",
                  "type": "uint8"
                },
                {
                  "internalType": "uint256",
                  "name": "startTime",
                  "type": "uint256"
                },
                {
                  "internalType": "uint256",
                  "name": "endTime",
                  "type": "uint256"
                },
                {
                  "internalType": "bytes32",
                  "name": "zoneHash",
                  "type": "bytes32"
                },
                {
                  "internalType": "uint256",
                  "name": "salt",
                  "type": "uint256"
                },
                {
                  "internalType": "bytes32",
                  "name": "conduitKey",
                  "type": "bytes32"
                },
                {
                  "internalType": "uint256",
                  "name": "totalOriginalConsiderationItems",
                  "type": "uint256"
                }
              ],
              "internalType": "struct OrderParameters",
              "name": "parameters",
              "type": "tuple"
            },
            {
              "internalType": "bytes",
              "name": "signature",
              "type": "bytes"
            }
          ],
          "internalType": "struct Order",
          "name": "order",
          "type": "tuple"
        },
        {
          "internalType": "bytes32",
          "name": "fulfillerConduitKey",
          "type": "bytes32"
        }
      ],
      "name": "fulfillOrder",
      "outputs": [
        {
          "internalType": "bool",
          "name": "fulfilled",
          "type": "bool"
        }
      ],
      "stateMutability": "payable",
      "type": "function"
    },
    {
      "inputs": [
        {
          "components": [
            {
              "components": [
                {
                  "internalType": "address",
                  "name": "offerer",
                  "type": "address"
                },
                {
                  "internalType": "address",
                  "name": "zone",
                  "type": "address"
                },
                {
                  "components": [
                    {
                      "internalType": "enum ItemType",
                      "name": "itemType",
                      "type": "uint8"
                    },
                    {
                      "internalType": "address",
                      "name": "token",
                      "type": "address"
                    },
                    {
                      "internalType": "uint256",
                      "name": "identifierOrCriteria",
                      "type": "uint256"
                    },
                    {
                      "internalType": "uint256",
                      "name": "startAmount",
                      "type": "uint256"
                    },
                    {
                      "internalType": "uint256",
                      "name": "endAmount",
                      "type": "uint256"
                    }
                  ],
                  "internalType": "struct OfferItem[]",
                  "name": "offer",
                  "type": "tuple[]"
                },
                {
                  "components": [
                    {
                      "internalType": "enum ItemType",
                      "name": "itemType",
                      "type": "uint8"
                    },
                    {
                      "internalType": "address",
                      "name": "token",
                      "type": "address"
                    },
                    {
                      "internalType": "uint256",
                      "name": "identifierOrCriteria",
                      "type": "uint256"
                    },
                    {
                      "internalType": "uint256",
                      "name": "startAmount",
                      "type": "uint256"
                    },
                    {
                      "internalType": "uint256",
                      "name": "endAmount",
                      "type": "uint256"
                    },
                    {
                      "internalType": "address payable",
                      "name": "recipient",
                      "type": "address"
                    }
                  ],
                  "internalType": "struct ConsiderationItem[]",
                  "name": "consideration",
                  "type": "tuple[]"
                },
                {
                  "internalType": "enum OrderType",
                  "name": "orderType",
                  "type": "uint8"
                },
                {
                  "internalType": "uint256",
                  "name": "startTime",
                  "type": "uint256"
                },
                {
                  "internalType": "uint256",
                  "name": "endTime",
                  "type": "uint256"
                },
                {
                  "internalType": "bytes32",
                  "name": "zoneHash",
                  "type": "bytes32"
                },
                {
                  "internalType": "uint256",
                  "name": "salt",
                  "type": "uint256"
                },
                {
                  "internalType": "bytes32",
                  "name": "conduitKey",
                  "type": "bytes32"
                },
                {
                  "internalType": "uint256",
                  "name": "totalOriginalConsiderationItems",
                  "type": "uint256"
                }
              ],
              "internalType": "struct OrderParameters",
              "name": "parameters",
              "type": "tuple"
            },
            {
              "internalType": "uint120",
              "name": "numerator",
              "type": "uint120"
            },
            {
              "internalType": "uint120",
              "name": "denominator",
              "type": "uint120"
            },
            {
              "internalType": "bytes",
              "name": "signature",
              "type": "bytes"
            },
            {
              "internalType": "bytes",
              "name": "extraData",
              "type": "bytes"
            }
          ],
          "internalType": "struct AdvancedOrder",
          "name": "advancedOrder",
          "type": "tuple"
        },
        {
          "components": [
            {
              "internalType": "uint256",
              "name": "orderIndex",
              "type": "uint256"
            },
            {
              "internalType": "enum Side",
              "name": "side",
              "type": "uint8"
            },
            {
              "internalType": "uint256",
              "name": "index",
              "type": "uint256"
            },
            {
              "internalType": "uint256",
              "name": "identifier",
              "type": "uint256"
            },
            {
              "internalType": "bytes32[]",
              "name": "criteriaProof",
              "type": "bytes32[]"
            }
          ],
          "internalType": "struct CriteriaResolver[]",
          "name": "criteriaResolvers",
          "type": "tuple[]"
        },
        {
          "internalType": "bytes32",
          "name": "fulfillerConduitKey",
          "type": "bytes32"
        },
        {
          "internalType": "address",
          "name": "recipient",
          "type": "address"
        }
      ],
      "name": "callFulfillAdvancedOrder",
      "outputs": [
        {
          "internalType": "bool",
          "name": "fulfilled",
          "type": "bool"
        }
      ],
      "stateMutability": "payable",
      "type": "function"
    },
    {
      "inputs": [
        {
          "components": [
            {
              "components": [
                {
                  "internalType": "address",
                  "name": "offerer",
                  "type": "address"
                },
                {
                  "internalType": "address",
                  "name": "zone",
                  "type": "address"
                },
                {
                  "components": [
                    {
                      "internalType": "enum ItemType",
                      "name": "itemType",
                      "type": "uint8"
                    },
                    {
                      "internalType": "address",
                      "name": "token",
                      "type": "address"
                    },
                    {
                      "internalType": "uint256",
                      "name": "identifierOrCriteria",
                      "type": "uint256"
                    },
                    {
                      "internalType": "uint256",
                      "name": "startAmount",
                      "type": "uint256"
                    },
                    {
                      "internalType": "uint256",
                      "name": "endAmount",
                      "type": "uint256"
                    }
                  ],
                  "internalType": "struct OfferItem[]",
                  "name": "offer",
                  "type": "tuple[]"
                },
                {
                  "components": [
                    {
                      "internalType": "enum ItemType",
                      "name": "itemType",
                      "type": "uint8"
                    },
                    {
                      "internalType": "address",
                      "name": "token",
                      "type": "address"
                    },
                    {
                      "internalType": "uint256",
                      "name": "identifierOrCriteria",
                      "type": "uint256"
                    },
                    {
                      "internalType": "uint256",
                      "name": "startAmount",
                      "type": "uint256"
                    },
                    {
                      "internalType": "uint256",
                      "name": "endAmount",
                      "type": "uint256"
                    },
                    {
                      "internalType": "address payable",
                      "name": "recipient",
                      "type": "address"
                    }
                  ],
                  "internalType": "struct ConsiderationItem[]",
                  "name": "consideration",
                  "type": "tuple[]"
                },
                {
                  "internalType": "enum OrderType",
                  "name": "orderType",
                  "type": "uint8"
                },
                {
                  "internalType": "uint256",
                  "name": "startTime",
                  "type": "uint256"
                },
                {
                  "internalType": "uint256",
                  "name": "endTime",
                  "type": "uint256"
                },
                {
                  "internalType": "bytes32",
                  "name": "zoneHash",
                  "type": "bytes32"
                },
                {
                  "internalType": "uint256",
                  "name": "salt",
                  "type": "uint256"
                },
                {
                  "internalType": "bytes32",
                  "name": "conduitKey",
                  "type": "bytes32"
                },
                {
                  "internalType": "uint256",
                  "name": "totalOriginalConsiderationItems",
                  "type": "uint256"
                }
              ],
              "internalType": "struct OrderParameters",
              "name": "parameters",
              "type": "tuple"
            },
            {
              "internalType": "bytes",
              "name": "signature",
              "type": "bytes"
            }
          ],
          "internalType": "struct Order[]",
          "name": "orders",
          "type": "tuple[]"
        },
        {
          "components": [
            {
              "internalType": "uint256",
              "name": "orderIndex",
              "type": "uint256"
            },
            {
              "internalType": "uint256",
              "name": "itemIndex",
              "type": "uint256"
            }
          ],
          "internalType": "struct FulfillmentComponent[][]",
          "name": "offerFulfillments",
          "type": "tuple[][]"
        },
        {
          "components": [
            {
              "internalType": "uint256",
              "name": "orderIndex",
              "type": "uint256"
            },
            {
              "internalType": "uint256",
              "name": "itemIndex",
              "type": "uint256"
            }
          ],
          "internalType": "struct FulfillmentComponent[][]",
          "name": "considerationFulfillments",
          "type": "tuple[][]"
        },
        {
          "internalType": "bytes32",
          "name": "fulfillerConduitKey",
          "type": "bytes32"
        },
        {
          "internalType": "uint256",
          "name": "maximumFulfilled",
          "type": "uint256"
        }
      ],
      "name": "callFulfillAvailableOrders",
      "outputs": [
        {
          "internalType": "bool[]",
          "name": "availableOrders",
          "type": "bool[]"
        },
        {
          "components": [
            {
              "components": [
                {
                  "internalType": "enum ItemType",
                  "name": "itemType",
                  "type": "uint8"
                },
                {
                  "internalType": "address",
                  "name": "token",
                  "type": "address"
                },
                {
                  "internalType": "uint256",
                  "name": "identifier",
                  "type": "uint256"
                },
                {
                  "internalType": "uint256",
                  "name": "amount",
                  "type": "uint256"
                },
                {
                  "internalType": "address payable",
                  "name": "recipient",
                  "type": "address"
                }
              ],
              "internalType": "struct ReceivedItem",
              "name": "item",
              "type": "tuple"
            },
            {
              "internalType": "address",
              "name": "offerer",
              "type": "address"
            },
            {
              "internalType": "bytes32",
              "name": "conduitKey",
              "type": "bytes32"
            }
          ],
          "internalType": "struct Execution[]",
          "name": "executions",
          "type": "tuple[]"
        }
      ],
      "stateMutability": "payable",
      "type": "function"
    },
    {
      "inputs": [
        {
          "components": [
            {
              "components": [
                {
                  "internalType": "address",
                  "name": "offerer",
                  "type": "address"
                },
                {
                  "internalType": "address",
                  "name": "zone",
                  "type": "address"
                },
                {
                  "components": [
                    {
                      "internalType": "enum ItemType",
                      "name": "itemType",
                      "type": "uint8"
                    },
                    {
                      "internalType": "address",
                      "name": "token",
                      "type": "address"
                    },
                    {
                      "internalType": "uint256",
                      "name": "identifierOrCriteria",
                      "type": "uint256"
                    },
                    {
                      "internalType": "uint256",
                      "name": "startAmount",
                      "type": "uint256"
                    },
                    {
                      "internalType": "uint256",
                      "name": "endAmount",
                      "type": "uint256"
                    }
                  ],
                  "internalType": "struct OfferItem[]",
                  "name": "offer",
                  "type": "tuple[]"
                },
                {
                  "components": [
                    {
                      "internalType": "enum ItemType",
                      "name": "itemType",
                      "type": "uint8"
                    },
                    {
                      "internalType": "address",
                      "name": "token",
                      "type": "address"
                    },
                    {
                      "internalType": "uint256",
                      "name": "identifierOrCriteria",
                      "type": "uint256"
                    },
                    {
                      "internalType": "uint256",
                      "name": "startAmount",
                      "type": "uint256"
                    },
                    {
                      "internalType": "uint256",
                      "name": "endAmount",
                      "type": "uint256"
                    },
                    {
                      "internalType": "address payable",
                      "name": "recipient",
                      "type": "address"
                    }
                  ],
                  "internalType": "struct ConsiderationItem[]",
                  "name": "consideration",
                  "type": "tuple[]"
                },
                {
                  "internalType": "enum OrderType",
                  "name": "orderType",
                  "type": "uint8"
                },
                {
                  "internalType": "uint256",
                  "name": "startTime",
                  "type": "uint256"
                },
                {
                  "internalType": "uint256",
                  "name": "endTime",
                  "type": "uint256"
                },
                {
                  "internalType": "bytes32",
                  "name": "zoneHash",
                  "type": "bytes32"
                },
                {
                  "internalType": "uint256",
                  "name": "salt",
                  "type": "uint256"
                },
                {
                  "internalType": "bytes32",
                  "name": "conduitKey",
                  "type": "bytes32"
                },
                {
                  "internalType": "uint256",
                  "name": "totalOriginalConsiderationItems",
                  "type": "uint256"
                }
              ],
              "internalType": "struct OrderParameters",
              "name": "parameters",
              "type": "tuple"
            },
            {
              "internalType": "uint120",
              "name": "numerator",
              "type": "uint120"
            },
            {
              "internalType": "uint120",
              "name": "denominator",
              "type": "uint120"
            },
            {
              "internalType": "bytes",
              "name": "signature",
              "type": "bytes"
            },
            {
              "internalType": "bytes",
              "name": "extraData",
              "type": "bytes"
            }
          ],
          "internalType": "struct AdvancedOrder[]",
          "name": "advancedOrders",
          "type": "tuple[]"
        },
        {
          "components": [
            {
              "internalType": "uint256",
              "name": "orderIndex",
              "type": "uint256"
            },
            {
              "internalType": "enum Side",
              "name": "side",
              "type": "uint8"
            },
            {
              "internalType": "uint256",
              "name": "index",
              "type": "uint256"
            },
            {
              "internalType": "uint256",
              "name": "identifier",
              "type": "uint256"
            },
            {
              "internalType": "bytes32[]",
              "name": "criteriaProof",
              "type": "bytes32[]"
            }
          ],
          "internalType": "struct CriteriaResolver[]",
          "name": "criteriaResolvers",
          "type": "tuple[]"
        },
        {
          "components": [
            {
              "internalType": "uint256",
              "name": "orderIndex",
              "type": "uint256"
            },
            {
              "internalType": "uint256",
              "name": "itemIndex",
              "type": "uint256"
            }
          ],
          "internalType": "struct FulfillmentComponent[][]",
          "name": "offerFulfillments",
          "type": "tuple[][]"
        },
        {
          "components": [
            {
              "internalType": "uint256",
              "name": "orderIndex",
              "type": "uint256"
            },
            {
              "internalType": "uint256",
              "name": "itemIndex",
              "type": "uint256"
            }
          ],
          "internalType": "struct FulfillmentComponent[][]",
          "name": "considerationFulfillments",
          "type": "tuple[][]"
        },
        {
          "internalType": "bytes32",
          "name": "fulfillerConduitKey",
          "type": "bytes32"
        },
        {
          "internalType": "address",
          "name": "recipient",
          "type": "address"
        },
        {
          "internalType": "uint256",
          "name": "maximumFulfilled",
          "type": "uint256"
        }
      ],
      "name": "callFulfillAvailableAdvancedOrders",
      "outputs": [
        {
          "internalType": "bool[]",
          "name": "availableOrders",
          "type": "bool[]"
        },
        {
          "components": [
            {
              "components": [
                {
                  "internalType": "enum ItemType",
                  "name": "itemType",
                  "type": "uint8"
                },
                {
                  "internalType": "address",
                  "name": "token",
                  "type": "address"
                },
                {
                  "internalType": "uint256",
                  "name": "identifier",
                  "type": "uint256"
                },
                {
                  "internalType": "uint256",
                  "name": "amount",
                  "type": "uint256"
                },
                {
                  "internalType": "address payable",
                  "name": "recipient",
                  "type": "address"
                }
              ],
              "internalType": "struct ReceivedItem",
              "name": "item",
              "type": "tuple"
            },
            {
              "internalType": "address",
              "name": "offerer",
              "type": "address"
            },
            {
              "internalType": "bytes32",
              "name": "conduitKey",
              "type": "bytes32"
            }
          ],
          "internalType": "struct Execution[]",
          "name": "executions",
          "type": "tuple[]"
        }
      ],
      "stateMutability": "payable",
      "type": "function"
    },
    {
      "inputs": [
        {
          "components": [
            {
              "components": [
                {
                  "internalType": "address",
                  "name": "offerer",
                  "type": "address"
                },
                {
                  "internalType": "address",
                  "name": "zone",
                  "type": "address"
                },
                {
                  "components": [
                    {
                      "internalType": "enum ItemType",
                      "name": "itemType",
                      "type": "uint8"
                    },
                    {
                      "internalType": "address",
                      "name": "token",
                      "type": "address"
                    },
                    {
                      "internalType": "uint256",
                      "name": "identifierOrCriteria",
                      "type": "uint256"
                    },
                    {
                      "internalType": "uint256",
                      "name": "startAmount",
                      "type": "uint256"
                    },
                    {
                      "internalType": "uint256",
                      "name": "endAmount",
                      "type": "uint256"
                    }
                  ],
                  "internalType": "struct OfferItem[]",
                  "name": "offer",
                  "type": "tuple[]"
                },
                {
                  "components": [
                    {
                      "internalType": "enum ItemType",
                      "name": "itemType",
                      "type": "uint8"
                    },
                    {
                      "internalType": "address",
                      "name": "token",
                      "type": "address"
                    },
                    {
                      "internalType": "uint256",
                      "name": "identifierOrCriteria",
                      "type": "uint256"
                    },
                    {
                      "internalType": "uint256",
                      "name": "startAmount",
                      "type": "uint256"
                    },
                    {
                      "internalType": "uint256",
                      "name": "endAmount",
                      "type": "uint256"
                    },
                    {
                      "internalType": "address payable",
                      "name": "recipient",
                      "type": "address"
                    }
                  ],
                  "internalType": "struct ConsiderationItem[]",
                  "name": "consideration",
                  "type": "tuple[]"
                },
                {
                  "internalType": "enum OrderType",
                  "name": "orderType",
                  "type": "uint8"
                },
                {
                  "internalType": "uint256",
                  "name": "startTime",
                  "type": "uint256"
                },
                {
                  "internalType": "uint256",
                  "name": "endTime",
                  "type": "uint256"
                },
                {
                  "internalType": "bytes32",
                  "name": "zoneHash",
                  "type": "bytes32"
                },
                {
                  "internalType": "uint256",
                  "name": "salt",
                  "type": "uint256"
                },
                {
                  "internalType": "bytes32",
                  "name": "conduitKey",
                  "type": "bytes32"
                },
                {
                  "internalType": "uint256",
                  "name": "totalOriginalConsiderationItems",
                  "type": "uint256"
                }
              ],
              "internalType": "struct OrderParameters",
              "name": "parameters",
              "type": "tuple"
            },
            {
              "internalType": "bytes",
              "name": "signature",
              "type": "bytes"
            }
          ],
          "internalType": "struct Order[]",
          "name": "orders",
          "type": "tuple[]"
        },
        {
          "components": [
            {
              "components": [
                {
                  "internalType": "uint256",
                  "name": "orderIndex",
                  "type": "uint256"
                },
                {
                  "internalType": "uint256",
                  "name": "itemIndex",
                  "type": "uint256"
                }
              ],
              "internalType": "struct FulfillmentComponent[]",
              "name": "offerComponents",
              "type": "tuple[]"
            },
            {
              "components": [
                {
                  "internalType": "uint256",
                  "name": "orderIndex",
                  "type": "uint256"
                },
                {
                  "internalType": "uint256",
                  "name": "itemIndex",
                  "type": "uint256"
                }
              ],
              "internalType": "struct FulfillmentComponent[]",
              "name": "considerationComponents",
              "type": "tuple[]"
            }
          ],
          "internalType": "struct Fulfillment[]",
          "name": "fulfillments",
          "type": "tuple[]"
        }
      ],
      "name": "callMatchOrders",
      "outputs": [
        {
          "components": [
            {
              "components": [
                {
                  "internalType": "enum ItemType",
                  "name": "itemType",
                  "type": "uint8"
                },
                {
                  "internalType": "address",
                  "name": "token",
                  "type": "address"
                },
                {
                  "internalType": "uint256",
                  "name": "identifier",
                  "type": "uint256"
                },
                {
                  "internalType": "uint256",
                  "name": "amount",
                  "type": "uint256"
                },
                {
                  "internalType": "address payable",
                  "name": "recipient",
                  "type": "address"
                }
              ],
              "internalType": "struct ReceivedItem",
              "name": "item",
              "type": "tuple"
            },
            {
              "internalType": "address",
              "name": "offerer",
              "type": "address"
            },
            {
              "internalType": "bytes32",
              "name": "conduitKey",
              "type": "bytes32"
            }
          ],
          "internalType": "struct Execution[]",
          "name": "executions",
          "type": "tuple[]"
        }
      ],
      "stateMutability": "payable",
      "type": "function"
    },
    {
      "inputs": [
        {
          "components": [
            {
              "components": [
                {
                  "internalType": "address",
                  "name": "offerer",
                  "type": "address"
                },
                {
                  "internalType": "address",
                  "name": "zone",
                  "type": "address"
                },
                {
                  "components": [
                    {
                      "internalType": "enum ItemType",
                      "name": "itemType",
                      "type": "uint8"
                    },
                    {
                      "internalType": "address",
                      "name": "token",
                      "type": "address"
                    },
                    {
                      "internalType": "uint256",
                      "name": "identifierOrCriteria",
                      "type": "uint256"
                    },
                    {
                      "internalType": "uint256",
                      "name": "startAmount",
                      "type": "uint256"
                    },
                    {
                      "internalType": "uint256",
                      "name": "endAmount",
                      "type": "uint256"
                    }
                  ],
                  "internalType": "struct OfferItem[]",
                  "name": "offer",
                  "type": "tuple[]"
                },
                {
                  "components": [
                    {
                      "internalType": "enum ItemType",
                      "name": "itemType",
                      "type": "uint8"
                    },
                    {
                      "internalType": "address",
                      "name": "token",
                      "type": "address"
                    },
                    {
                      "internalType": "uint256",
                      "name": "identifierOrCriteria",
                      "type": "uint256"
                    },
                    {
                      "internalType": "uint256",
                      "name": "startAmount",
                      "type": "uint256"
                    },
                    {
                      "internalType": "uint256",
                      "name": "endAmount",
                      "type": "uint256"
                    },
                    {
                      "internalType": "address payable",
                      "name": "recipient",
                      "type": "address"
                    }
                  ],
                  "internalType": "struct ConsiderationItem[]",
                  "name": "consideration",
                  "type": "tuple[]"
                },
                {
                  "internalType": "enum OrderType",
                  "name": "orderType",
                  "type": "uint8"
                },
                {
                  "internalType": "uint256",
                  "name": "startTime",
                  "type": "uint256"
                },
                {
                  "internalType": "uint256",
                  "name": "endTime",
                  "type": "uint256"
                },
                {
                  "internalType": "bytes32",
                  "name": "zoneHash",
                  "type": "bytes32"
                },
                {
                  "internalType": "uint256",
                  "name": "salt",
                  "type": "uint256"
                },
                {
                  "internalType": "bytes32",
                  "name": "conduitKey",
                  "type": "bytes32"
                },
                {
                  "internalType": "uint256",
                  "name": "totalOriginalConsiderationItems",
                  "type": "uint256"
                }
              ],
              "internalType": "struct OrderParameters",
              "name": "parameters",
              "type": "tuple"
            },
            {
              "internalType": "uint120",
              "name": "numerator",
              "type": "uint120"
            },
            {
              "internalType": "uint120",
              "name": "denominator",
              "type": "uint120"
            },
            {
              "internalType": "bytes",
              "name": "signature",
              "type": "bytes"
            },
            {
              "internalType": "bytes",
              "name": "extraData",
              "type": "bytes"
            }
          ],
          "internalType": "struct AdvancedOrder[]",
          "name": "orders",
          "type": "tuple[]"
        },
        {
          "components": [
            {
              "internalType": "uint256",
              "name": "orderIndex",
              "type": "uint256"
            },
            {
              "internalType": "enum Side",
              "name": "side",
              "type": "uint8"
            },
            {
              "internalType": "uint256",
              "name": "index",
              "type": "uint256"
            },
            {
              "internalType": "uint256",
              "name": "identifier",
              "type": "uint256"
            },
            {
              "internalType": "bytes32[]",
              "name": "criteriaProof",
              "type": "bytes32[]"
            }
          ],
          "internalType": "struct CriteriaResolver[]",
          "name": "criteriaResolvers",
          "type": "tuple[]"
        },
        {
          "components": [
            {
              "components": [
                {
                  "internalType": "uint256",
                  "name": "orderIndex",
                  "type": "uint256"
                },
                {
                  "internalType": "uint256",
                  "name": "itemIndex",
                  "type": "uint256"
                }
              ],
              "internalType": "struct FulfillmentComponent[]",
              "name": "offerComponents",
              "type": "tuple[]"
            },
            {
              "components": [
                {
                  "internalType": "uint256",
                  "name": "orderIndex",
                  "type": "uint256"
                },
                {
                  "internalType": "uint256",
                  "name": "itemIndex",
                  "type": "uint256"
                }
              ],
              "internalType": "struct FulfillmentComponent[]",
              "name": "considerationComponents",
              "type": "tuple[]"
            }
          ],
          "internalType": "struct Fulfillment[]",
          "name": "fulfillments",
          "type": "tuple[]"
        },
        {
          "internalType": "address",
          "name": "recipient",
          "type": "address"
        }
      ],
      "name": "callMatchAdvancedOrders",
      "outputs": [
        {
          "components": [
            {
              "components": [
                {
                  "internalType": "enum ItemType",
                  "name": "itemType",
                  "type": "uint8"
                },
                {
                  "internalType": "address",
                  "name": "token",
                  "type": "address"
                },
                {
                  "internalType": "uint256",
                  "name": "identifier",
                  "type": "uint256"
                },
                {
                  "internalType": "uint256",
                  "name": "amount",
                  "type": "uint256"
                },
                {
                  "internalType": "address payable",
                  "name": "recipient",
                  "type": "address"
                }
              ],
              "internalType": "struct ReceivedItem",
              "name": "item",
              "type": "tuple"
            },
            {
              "internalType": "address",
              "name": "offerer",
              "type": "address"
            },
            {
              "internalType": "bytes32",
              "name": "conduitKey",
              "type": "bytes32"
            }
          ],
          "internalType": "struct Execution[]",
          "name": "executions",
          "type": "tuple[]"
        }
      ],
      "stateMutability": "payable",
      "type": "function"
    },
    {
      "inputs": [
        {
          "components": [
            {
              "internalType": "address",
              "name": "offerer",
              "type": "address"
            },
            {
              "internalType": "address",
              "name": "zone",
              "type": "address"
            },
            {
              "components": [
                {
                  "internalType": "enum ItemType",
                  "name": "itemType",
                  "type": "uint8"
                },
                {
                  "internalType": "address",
                  "name": "token",
                  "type": "address"
                },
                {
                  "internalType": "uint256",
                  "name": "identifierOrCriteria",
                  "type": "uint256"
                },
                {
                  "internalType": "uint256",
                  "name": "startAmount",
                  "type": "uint256"
                },
                {
                  "internalType": "uint256",
                  "name": "endAmount",
                  "type": "uint256"
                }
              ],
              "internalType": "struct OfferItem[]",
              "name": "offer",
              "type": "tuple[]"
            },
            {
              "components": [
                {
                  "internalType": "enum ItemType",
                  "name": "itemType",
                  "type": "uint8"
                },
                {
                  "internalType": "address",
                  "name": "token",
                  "type": "address"
                },
                {
                  "internalType": "uint256",
                  "name": "identifierOrCriteria",
                  "type": "uint256"
                },
                {
                  "internalType": "uint256",
                  "name": "startAmount",
                  "type": "uint256"
                },
                {
                  "internalType": "uint256",
                  "name": "endAmount",
                  "type": "uint256"
                },
                {
                  "internalType": "address payable",
                  "name": "recipient",
                  "type": "address"
                }
              ],
              "internalType": "struct ConsiderationItem[]",
              "name": "consideration",
              "type": "tuple[]"
            },
            {
              "internalType": "enum OrderType",
              "name": "orderType",
              "type": "uint8"
            },
            {
              "internalType": "uint256",
              "name": "startTime",
              "type": "uint256"
            },
            {
              "internalType": "uint256",
              "name": "endTime",
              "type": "uint256"
            },
            {
              "internalType": "bytes32",
              "name": "zoneHash",
              "type": "bytes32"
            },
            {
              "internalType": "uint256",
              "name": "salt",
              "type": "uint256"
            },
            {
              "internalType": "bytes32",
              "name": "conduitKey",
              "type": "bytes32"
            },
            {
              "internalType": "uint256",
              "name": "counter",
              "type": "uint256"
            }
          ],
          "internalType": "struct OrderComponents[]",
          "name": "orders",
          "type": "tuple[]"
        }
      ],
      "name": "allCancel",
      "outputs": [
        {
          "internalType": "bool",
          "name": "cancelled",
          "type": "bool"
        }
      ],
      "stateMutability": "nonpayable",
      "type": "function"
    },
    {
      "inputs": [
        {
          "components": [
            {
              "components": [
                {
                  "internalType": "address",
                  "name": "offerer",
                  "type": "address"
                },
                {
                  "internalType": "address",
                  "name": "zone",
                  "type": "address"
                },
                {
                  "components": [
                    {
                      "internalType": "enum ItemType",
                      "name": "itemType",
                      "type": "uint8"
                    },
                    {
                      "internalType": "address",
                      "name": "token",
                      "type": "address"
                    },
                    {
                      "internalType": "uint256",
                      "name": "identifierOrCriteria",
                      "type": "uint256"
                    },
                    {
                      "internalType": "uint256",
                      "name": "startAmount",
                      "type": "uint256"
                    },
                    {
                      "internalType": "uint256",
                      "name": "endAmount",
                      "type": "uint256"
                    }
                  ],
                  "internalType": "struct OfferItem[]",
                  "name": "offer",
                  "type": "tuple[]"
                },
                {
                  "components": [
                    {
                      "internalType": "enum ItemType",
                      "name": "itemType",
                      "type": "uint8"
                    },
                    {
                      "internalType": "address",
                      "name": "token",
                      "type": "address"
                    },
                    {
                      "internalType": "uint256",
                      "name": "identifierOrCriteria",
                      "type": "uint256"
                    },
                    {
                      "internalType": "uint256",
                      "name": "startAmount",
                      "type": "uint256"
                    },
                    {
                      "internalType": "uint256",
                      "name": "endAmount",
                      "type": "uint256"
                    },
                    {
                      "internalType": "address payable",
                      "name": "recipient",
                      "type": "address"
                    }
                  ],
                  "internalType": "struct ConsiderationItem[]",
                  "name": "consideration",
                  "type": "tuple[]"
                },
                {
                  "internalType": "enum OrderType",
                  "name": "orderType",
                  "type": "uint8"
                },
                {
                  "internalType": "uint256",
                  "name": "startTime",
                  "type": "uint256"
                },
                {
                  "internalType": "uint256",
                  "name": "endTime",
                  "type": "uint256"
                },
                {
                  "internalType": "bytes32",
                  "name": "zoneHash",
                  "type": "bytes32"
                },
                {
                  "internalType": "uint256",
                  "name": "salt",
                  "type": "uint256"
                },
                {
                  "internalType": "bytes32",
                  "name": "conduitKey",
                  "type": "bytes32"
                },
                {
                  "internalType": "uint256",
                  "name": "totalOriginalConsiderationItems",
                  "type": "uint256"
                }
              ],
              "internalType": "struct OrderParameters",
              "name": "parameters",
              "type": "tuple"
            },
            {
              "internalType": "bytes",
              "name": "signature",
              "type": "bytes"
            }
          ],
          "internalType": "struct Order[]",
          "name": "orders",
          "type": "tuple[]"
        }
      ],
      "name": "callValidate",
      "outputs": [
        {
          "internalType": "bool",
          "name": "validated",
          "type": "bool"
        }
      ],
      "stateMutability": "nonpayable",
      "type": "function"
    },
    {
      "inputs": [],
      "name": "callIncrementCounter",
      "outputs": [
        {
          "internalType": "uint256",
          "name": "newCounter",
          "type": "uint256"
        }
      ],
      "stateMutability": "nonpayable",
      "type": "function"
    },
    {
      "inputs": [
        {
          "components": [
            {
              "internalType": "address",
              "name": "offerer",
              "type": "address"
            },
            {
              "internalType": "address",
              "name": "zone",
              "type": "address"
            },
            {
              "components": [
                {
                  "internalType": "enum ItemType",
                  "name": "itemType",
                  "type": "uint8"
                },
                {
                  "internalType": "address",
                  "name": "token",
                  "type": "address"
                },
                {
                  "internalType": "uint256",
                  "name": "identifierOrCriteria",
                  "type": "uint256"
                },
                {
                  "internalType": "uint256",
                  "name": "startAmount",
                  "type": "uint256"
                },
                {
                  "internalType": "uint256",
                  "name": "endAmount",
                  "type": "uint256"
                }
              ],
              "internalType": "struct OfferItem[]",
              "name": "offer",
              "type": "tuple[]"
            },
            {
              "components": [
                {
                  "internalType": "enum ItemType",
                  "name": "itemType",
                  "type": "uint8"
                },
                {
                  "internalType": "address",
                  "name": "token",
                  "type": "address"
                },
                {
                  "internalType": "uint256",
                  "name": "identifierOrCriteria",
                  "type": "uint256"
                },
                {
                  "internalType": "uint256",
                  "name": "startAmount",
                  "type": "uint256"
                },
                {
                  "internalType": "uint256",
                  "name": "endAmount",
                  "type": "uint256"
                },
                {
                  "internalType": "address payable",
                  "name": "recipient",
                  "type": "address"
                }
              ],
              "internalType": "struct ConsiderationItem[]",
              "name": "consideration",
              "type": "tuple[]"
            },
            {
              "internalType": "enum OrderType",
              "name": "orderType",
              "type": "uint8"
            },
            {
              "internalType": "uint256",
              "name": "startTime",
              "type": "uint256"
            },
            {
              "internalType": "uint256",
              "name": "endTime",
              "type": "uint256"
            },
            {
              "internalType": "bytes32",
              "name": "zoneHash",
              "type": "bytes32"
            },
            {
              "internalType": "uint256",
              "name": "salt",
              "type": "uint256"
            },
            {
              "internalType": "bytes32",
              "name": "conduitKey",
              "type": "bytes32"
            },
            {
              "internalType": "uint256",
              "name": "counter",
              "type": "uint256"
            }
          ],
          "internalType": "struct OrderComponents",
          "name": "order",
          "type": "tuple"
        }
      ],
      "name": "callGetOrderHash",
      "outputs": [
        {
          "internalType": "bytes32",
          "name": "orderHash",
          "type": "bytes32"
        }
      ],
      "stateMutability": "view",
      "type": "function"
    },
    {
      "inputs": [
        {
          "internalType": "bytes32",
          "name": "orderHash",
          "type": "bytes32"
        }
      ],
      "name": "callGetOrderStatus",
      "outputs": [
        {
          "internalType": "bool",
          "name": "isValidated",
          "type": "bool"
        },
        {
          "internalType": "bool",
          "name": "isCancelled",
          "type": "bool"
        },
        {
          "internalType": "uint256",
          "name": "totalFilled",
          "type": "uint256"
        },
        {
          "internalType": "uint256",
          "name": "totalSize",
          "type": "uint256"
        }
      ],
      "stateMutability": "view",
      "type": "function"
    },
    {
      "inputs": [
        {
          "internalType": "address",
          "name": "offerer",
          "type": "address"
        }
      ],
      "name": "callGetCounter",
      "outputs": [
        {
          "internalType": "uint256",
          "name": "counter",
          "type": "uint256"
        }
      ],
      "stateMutability": "view",
      "type": "function"
    },
    {
      "inputs": [
        {
          "internalType": "bytes4",
          "name": "interfaceId",
          "type": "bytes4"
        }
      ],
      "name": "supportsInterface",
      "outputs": [
        {
          "internalType": "bool",
          "name": "",
          "type": "bool"
        }
      ],
      "stateMutability": "view",
      "type": "function"
    }
  ],
  "bytecode": "0x60806040523480156200001157600080fd5b50620000226200002860201b60201c565b620001d3565b600060019054906101000a900460ff16156200007b576040517f08c379a0000000000000000000000000000000000000000000000000000000008152600401620000729062000176565b60405180910390fd5b60ff801660008054906101000a900460ff1660ff161015620000ed5760ff6000806101000a81548160ff021916908360ff1602179055507f7f26b83ff96e1f2b6a682f133852f6798a09c465da95921460cefb384740249860ff604051620000e49190620001b6565b60405180910390a15b565b600082825260208201905092915050565b7f496e697469616c697a61626c653a20636f6e747261637420697320696e69746960008201527f616c697a696e6700000000000000000000000000000000000000000000000000602082015250565b60006200015e602783620000ef565b91506200016b8262000100565b604082019050919050565b6000602082019050818103600083015262000191816200014f565b9050919050565b600060ff82169050919050565b620001b08162000198565b82525050565b6000602082019050620001cd6000830184620001a5565b92915050565b61936b80620001e36000396000f3fe6080604052600436106102875760003560e01c80636543908f1161015a578063b3a34c4c116100c1578063dfd3cb731161007a578063dfd3cb7314610a6c578063e0e0a2c514610aa9578063e985e9c514610ae6578063ef7992bb14610b23578063f242432a14610b4e578063f5298aca14610b7757610287565b8063b3a34c4c14610940578063bd85b03914610970578063bdc55bc6146109ad578063c4d66de8146109dd578063ca36fc9114610a06578063d547741f14610a4357610287565b80637d551b23116101135780637d551b231461082b5780638456cb59146108685780638c52e8571461087f57806391d14854146108af578063a217fddf146108ec578063a22cb4651461091757610287565b80636543908f146106f6578063672a41a1146107365780636b20c454146107735780636c9cd0971461079c5780636fcfcb66146107d9578063731133e91461080257610287565b8063248a9ca3116101fe5780634e1273f4116101b75780634e1273f4146105ba5780634f558e79146105f757806350863e8a1461063457806352509e97146106655780635a9807be1461068e5780635c975abb146106cb57610287565b8063248a9ca3146104ba5780632eb2c2d6146104f75780632f2ff15d1461052057806336568abe146105495780633c1dadd9146105725780633f4ba83a146105a357610287565b80630b8a295a116102505780630b8a295a146103955780630e89341c146103d2578063127217d61461040f5780631286c46d14610438578063192c9ef2146104615780631f7fdffa1461049157610287565b8062fdd58e1461028c57806301ad63bd146102c957806301ffc9a7146102f257806302fe53051461032f5780630807a3bd14610358575b600080fd5b34801561029857600080fd5b506102b360048036038101906102ae91906144cd565b610ba0565b6040516102c0919061451c565b60405180910390f35b3480156102d557600080fd5b506102f060048036038101906102eb919061467d565b610bb4565b005b3480156102fe57600080fd5b5061031960048036038101906103149190614731565b610c24565b6040516103269190614779565b60405180910390f35b34801561033b57600080fd5b5061035660048036038101906103519190614794565b610c36565b005b34801561036457600080fd5b5061037f600480360381019061037a91906147dd565b610c58565b60405161038c9190614889565b60405180910390f35b3480156103a157600080fd5b506103bc60048036038101906103b791906147dd565b610c93565b6040516103c99190614779565b60405180910390f35b3480156103de57600080fd5b506103f960048036038101906103f491906147dd565b610ca5565b6040516104069190614889565b60405180910390f35b34801561041b57600080fd5b506104366004803603810190610431919061494c565b610d39565b005b34801561044457600080fd5b5061045f600480360381019061045a91906149e3565b610d4d565b005b61047b60048036038101906104769190614af5565b610d8f565b6040516104889190614d9e565b60405180910390f35b34801561049d57600080fd5b506104b860048036038101906104b39190614e83565b610e45565b005b3480156104c657600080fd5b506104e160048036038101906104dc9190614f6a565b610eae565b6040516104ee9190614fa6565b60405180910390f35b34801561050357600080fd5b5061051e60048036038101906105199190614fc1565b610ece565b005b34801561052c57600080fd5b5061054760048036038101906105429190615090565b610f6f565b005b34801561055557600080fd5b50610570600480360381019061056b9190615090565b610f90565b005b61058c60048036038101906105879190615126565b611013565b60405161059a9291906152c0565b60405180910390f35b3480156105af57600080fd5b506105b86110dd565b005b3480156105c657600080fd5b506105e160048036038101906105dc91906153ba565b6110f5565b6040516105ee91906154e1565b60405180910390f35b34801561060357600080fd5b5061061e600480360381019061061991906147dd565b611109565b60405161062b9190614779565b60405180910390f35b61064e600480360381019061064991906155af565b61111d565b60405161065c9291906152c0565b60405180910390f35b34801561067157600080fd5b5061068c600480360381019061068791906149e3565b6111f0565b005b34801561069a57600080fd5b506106b560048036038101906106b091906147dd565b6112a6565b6040516106c2919061451c565b60405180910390f35b3480156106d757600080fd5b506106e06112b8565b6040516106ed9190614779565b60405180910390f35b34801561070257600080fd5b5061071d60048036038101906107189190614f6a565b6112cf565b60405161072d94939291906156d3565b60405180910390f35b34801561074257600080fd5b5061075d60048036038101906107589190614794565b611389565b60405161076a9190614fa6565b60405180910390f35b34801561077f57600080fd5b5061079a60048036038101906107959190615718565b6113c1565b005b3480156107a857600080fd5b506107c360048036038101906107be91906149e3565b6113d1565b6040516107d09190614779565b60405180910390f35b3480156107e557600080fd5b5061080060048036038101906107fb9190614fc1565b61140b565b005b34801561080e57600080fd5b50610829600480360381019061082491906157a3565b61141f565b005b34801561083757600080fd5b50610852600480360381019061084d9190615826565b611450565b60405161085f9190614779565b60405180910390f35b34801561087457600080fd5b5061087d6114fb565b005b61089960048036038101906108949190615897565b611513565b6040516108a69190614779565b60405180910390f35b3480156108bb57600080fd5b506108d660048036038101906108d19190615090565b6115c7565b6040516108e39190614779565b60405180910390f35b3480156108f857600080fd5b50610901611632565b60405161090e9190614fa6565b60405180910390f35b34801561092357600080fd5b5061093e60048036038101906109399190615967565b611639565b005b61095a60048036038101906109559190615ea5565b611647565b6040516109679190614779565b60405180910390f35b34801561097c57600080fd5b50610997600480360381019061099291906147dd565b6116f2565b6040516109a4919061451c565b60405180910390f35b6109c760048036038101906109c29190615f01565b611710565b6040516109d49190614d9e565b60405180910390f35b3480156109e957600080fd5b50610a0460048036038101906109ff9190615fca565b6117cf565b005b348015610a1257600080fd5b50610a2d6004803603810190610a289190616017565b61198d565b604051610a3a9190614fa6565b60405180910390f35b348015610a4f57600080fd5b50610a6a6004803603810190610a659190615090565b611a33565b005b348015610a7857600080fd5b50610a936004803603810190610a8e91906160b6565b611a54565b604051610aa09190614779565b60405180910390f35b348015610ab557600080fd5b50610ad06004803603810190610acb9190615fca565b611aff565b604051610add919061451c565b60405180910390f35b348015610af257600080fd5b50610b0d6004803603810190610b089190616103565b611ba5565b604051610b1a9190614779565b60405180910390f35b348015610b2f57600080fd5b50610b38611bb9565b604051610b45919061451c565b60405180910390f35b348015610b5a57600080fd5b50610b756004803603810190610b70919061494c565b611c54565b005b348015610b8357600080fd5b50610b9e6004803603810190610b999190616143565b611cf5565b005b6000610bac8383611d05565b905092915050565b610bbc611dce565b61015f600083815260200190815260200160002054610bda81611e18565b600082604051602001610bed9190614889565b6040516020818303038152906040528051906020012090508061015f60008681526020019081526020016000208190555050505050565b6000610c2f82611e2c565b9050919050565b610c3e611dce565b6000801b610c4b81611e18565b610c5482611ea6565b5050565b6060610c6382610ca5565b610c6c83611eb9565b604051602001610c7d9291906161f8565b6040516020818303038152906040529050919050565b6000610c9e82611109565b9050919050565b606060678054610cb49061625a565b80601f0160208091040260200160405190810160405280929190818152602001828054610ce09061625a565b8015610d2d5780601f10610d0257610100808354040283529160200191610d2d565b820191906000526020600020905b815481529060010190602001808311610d1057829003601f168201915b50505050509050919050565b610d468585858585611c54565b5050505050565b610d55611dce565b600082604051602001610d689190614889565b604051602081830303815290604052805190602001209050610d8a8183611a33565b505050565b606061016160009054906101000a900473ffffffffffffffffffffffffffffffffffffffff1673ffffffffffffffffffffffffffffffffffffffff1663a8174404868686866040518563ffffffff1660e01b8152600401610df39493929190616c81565b6000604051808303816000875af1158015610e12573d6000803e3d6000fd5b505050506040513d6000823e3d601f19601f82011682018060405250810190610e3b9190616ed8565b9050949350505050565b8260005b8151811015610e9a57610e8961015f6000848481518110610e6d57610e6c616f21565b5b6020026020010151815260200190815260200160002054611e18565b80610e9390616f7f565b9050610e49565b50610ea785858585611f87565b5050505050565b600060976000838152602001908152602001600020600101549050919050565b610ed66121b4565b73ffffffffffffffffffffffffffffffffffffffff168573ffffffffffffffffffffffffffffffffffffffff161480610f1c5750610f1b85610f166121b4565b611ba5565b5b610f5b576040517f08c379a0000000000000000000000000000000000000000000000000000000008152600401610f5290617039565b60405180910390fd5b610f6885858585856121bc565b5050505050565b610f7882610eae565b610f8181611e18565b610f8b83836124e0565b505050565b610f986121b4565b73ffffffffffffffffffffffffffffffffffffffff168173ffffffffffffffffffffffffffffffffffffffff1614611005576040517f08c379a0000000000000000000000000000000000000000000000000000000008152600401610ffc906170cb565b60405180910390fd5b61100f82826125c1565b5050565b60608061016160009054906101000a900473ffffffffffffffffffffffffffffffffffffffff1673ffffffffffffffffffffffffffffffffffffffff1663ed98a5748b8b8b8b8b8b8b8b6040518963ffffffff1660e01b815260040161108098979695949392919061719f565b6000604051808303816000875af115801561109f573d6000803e3d6000fd5b505050506040513d6000823e3d601f19601f820116820180604052508101906110c891906172e5565b80925081935050509850989650505050505050565b6000801b6110ea81611e18565b6110f26126a3565b50565b60606111018383612706565b905092915050565b600080611115836116f2565b119050919050565b60608061016160009054906101000a900473ffffffffffffffffffffffffffffffffffffffff1673ffffffffffffffffffffffffffffffffffffffff166387201b418e8e8e8e8e8e8e8e8e8e8e6040518c63ffffffff1660e01b81526004016111909b9a9998979695949392919061783b565b6000604051808303816000875af11580156111af573d6000803e3d6000fd5b505050506040513d6000823e3d601f19601f820116820180604052508101906111d891906172e5565b80925081935050509b509b9950505050505050505050565b6111f8611dce565b60008260405160200161120b9190614889565b60405160208183030381529060405280519060200120905061122d8183610f6f565b6101608360405161123e91906178ce565b908152602001604051809103902060009054906101000a900460ff166112a15760016101608460405161127191906178ce565b908152602001604051809103902060006101000a81548160ff0219169083151502179055506112a0818261281f565b5b505050565b60006112b1826116f2565b9050919050565b600060c960009054906101000a900460ff16905090565b60008060008061016160009054906101000a900473ffffffffffffffffffffffffffffffffffffffff1673ffffffffffffffffffffffffffffffffffffffff166346423aa7866040518263ffffffff1660e01b81526004016113319190614fa6565b608060405180830381865afa15801561134e573d6000803e3d6000fd5b505050506040513d601f19601f8201168201806040525081019061137291906178e5565b809450819550829650839750505050509193509193565b60006113ba8260405160200161139f9190614889565b60405160208183030381529060405280519060200120610eae565b9050919050565b6113cc83838361287b565b505050565b6000611403836040516020016113e79190614889565b60405160208183030381529060405280519060200120836115c7565b905092915050565b6114188585858585610ece565b5050505050565b61015f60008481526020019081526020016000205461143d81611e18565b61144985858585612918565b5050505050565b600061016160009054906101000a900473ffffffffffffffffffffffffffffffffffffffff1673ffffffffffffffffffffffffffffffffffffffff16638814773284846040518363ffffffff1660e01b81526004016114b092919061794c565b6020604051808303816000875af11580156114cf573d6000803e3d6000fd5b505050506040513d601f19601f820116820180604052508101906114f39190617970565b905092915050565b6000801b61150881611e18565b611510612ac9565b50565b600061016160009054906101000a900473ffffffffffffffffffffffffffffffffffffffff1673ffffffffffffffffffffffffffffffffffffffff1663e7acab2487878787876040518663ffffffff1660e01b8152600401611579959493929190617a4d565b6020604051808303816000875af1158015611598573d6000803e3d6000fd5b505050506040513d601f19601f820116820180604052508101906115bc9190617970565b905095945050505050565b60006097600084815260200190815260200160002060000160008373ffffffffffffffffffffffffffffffffffffffff1673ffffffffffffffffffffffffffffffffffffffff16815260200190815260200160002060009054906101000a900460ff16905092915050565b6000801b81565b6116438282612b2c565b5050565b600061016160009054906101000a900473ffffffffffffffffffffffffffffffffffffffff1673ffffffffffffffffffffffffffffffffffffffff1663b3a34c4c84846040518363ffffffff1660e01b81526004016116a7929190617e3f565b6020604051808303816000875af11580156116c6573d6000803e3d6000fd5b505050506040513d601f19601f820116820180604052508101906116ea9190617970565b905092915050565b600061012d6000838152602001908152602001600020549050919050565b606061016160009054906101000a900473ffffffffffffffffffffffffffffffffffffffff1673ffffffffffffffffffffffffffffffffffffffff1663f2d12b12898989898989896040518863ffffffff1660e01b815260040161177a9796959493929190617e6f565b6000604051808303816000875af1158015611799573d6000803e3d6000fd5b505050506040513d6000823e3d601f19601f820116820180604052508101906117c29190616ed8565b9050979650505050505050565b60008060019054906101000a900460ff161590508080156118005750600160008054906101000a900460ff1660ff16105b8061182d575061180f30612b42565b15801561182c5750600160008054906101000a900460ff1660ff16145b5b61186c576040517f08c379a000000000000000000000000000000000000000000000000000000000815260040161186390617f41565b60405180910390fd5b60016000806101000a81548160ff021916908360ff16021790555080156118a9576001600060016101000a81548160ff0219169083151502179055505b6118c160405180602001604052806000815250612b65565b6118c9612bc0565b6118d1612c11565b6118d9612c6a565b6118e1612cbb565b6118ee6000801b336124e0565b8161016160006101000a81548173ffffffffffffffffffffffffffffffffffffffff021916908373ffffffffffffffffffffffffffffffffffffffff16021790555080156119895760008060016101000a81548160ff0219169083151502179055507f7f26b83ff96e1f2b6a682f133852f6798a09c465da95921460cefb384740249860016040516119809190617fb3565b60405180910390a15b5050565b600061016160009054906101000a900473ffffffffffffffffffffffffffffffffffffffff1673ffffffffffffffffffffffffffffffffffffffff166379df72bd836040518263ffffffff1660e01b81526004016119eb9190618120565b602060405180830381865afa158015611a08573d6000803e3d6000fd5b505050506040513d601f19601f82011682018060405250810190611a2c9190618142565b9050919050565b611a3c82610eae565b611a4581611e18565b611a4f83836125c1565b505050565b600061016160009054906101000a900473ffffffffffffffffffffffffffffffffffffffff1673ffffffffffffffffffffffffffffffffffffffff1663fd9f1e1084846040518363ffffffff1660e01b8152600401611ab492919061839a565b6020604051808303816000875af1158015611ad3573d6000803e3d6000fd5b505050506040513d601f19601f82011682018060405250810190611af79190617970565b905092915050565b600061016160009054906101000a900473ffffffffffffffffffffffffffffffffffffffff1673ffffffffffffffffffffffffffffffffffffffff1663f07ec373836040518263ffffffff1660e01b8152600401611b5d91906183be565b602060405180830381865afa158015611b7a573d6000803e3d6000fd5b505050506040513d601f19601f82011682018060405250810190611b9e91906183d9565b9050919050565b6000611bb18383612d0c565b905092915050565b600061016160009054906101000a900473ffffffffffffffffffffffffffffffffffffffff1673ffffffffffffffffffffffffffffffffffffffff16635b34b9666040518163ffffffff1660e01b81526004016020604051808303816000875af1158015611c2b573d6000803e3d6000fd5b505050506040513d601f19601f82011682018060405250810190611c4f91906183d9565b905090565b611c5c6121b4565b73ffffffffffffffffffffffffffffffffffffffff168573ffffffffffffffffffffffffffffffffffffffff161480611ca25750611ca185611c9c6121b4565b611ba5565b5b611ce1576040517f08c379a0000000000000000000000000000000000000000000000000000000008152600401611cd890617039565b60405180910390fd5b611cee8585858585612da0565b5050505050565b611d0083838361303e565b505050565b60008073ffffffffffffffffffffffffffffffffffffffff168373ffffffffffffffffffffffffffffffffffffffff1603611d75576040517f08c379a0000000000000000000000000000000000000000000000000000000008152600401611d6c90618478565b60405180910390fd5b6065600083815260200190815260200160002060008473ffffffffffffffffffffffffffffffffffffffff1673ffffffffffffffffffffffffffffffffffffffff16815260200190815260200160002054905092915050565b611dd66112b8565b15611e16576040517f08c379a0000000000000000000000000000000000000000000000000000000008152600401611e0d906184e4565b60405180910390fd5b565b611e2981611e246121b4565b6130db565b50565b60007f7965db0b000000000000000000000000000000000000000000000000000000007bffffffffffffffffffffffffffffffffffffffffffffffffffffffff1916827bffffffffffffffffffffffffffffffffffffffffffffffffffffffff19161480611e9f5750611e9e82613160565b5b9050919050565b8060679081611eb591906186a6565b5050565b606060006001611ec884613242565b01905060008167ffffffffffffffff811115611ee757611ee6614552565b5b6040519080825280601f01601f191660200182016040528015611f195781602001600182028036833780820191505090505b509050600082602001820190505b600115611f7c578080600190039150507f3031323334353637383961626364656600000000000000000000000000000000600a86061a8153600a8581611f7057611f6f618778565b5b04945060008503611f27575b819350505050919050565b600073ffffffffffffffffffffffffffffffffffffffff168473ffffffffffffffffffffffffffffffffffffffff1603611ff6576040517f08c379a0000000000000000000000000000000000000000000000000000000008152600401611fed90618819565b60405180910390fd5b815183511461203a576040517f08c379a0000000000000000000000000000000000000000000000000000000008152600401612031906188ab565b60405180910390fd5b60006120446121b4565b905061205581600087878787613395565b60005b845181101561210f5783818151811061207457612073616f21565b5b60200260200101516065600087848151811061209357612092616f21565b5b6020026020010151815260200190815260200160002060008873ffffffffffffffffffffffffffffffffffffffff1673ffffffffffffffffffffffffffffffffffffffff16815260200190815260200160002060008282546120f591906188cb565b92505081905550808061210790616f7f565b915050612058565b508473ffffffffffffffffffffffffffffffffffffffff16600073ffffffffffffffffffffffffffffffffffffffff168273ffffffffffffffffffffffffffffffffffffffff167f4a39dc06d4c0dbc64b70af90fd698a233a518aa5d07e595d983b8c0526c8f7fb87876040516121879291906188ff565b60405180910390a461219e816000878787876133b3565b6121ad816000878787876133bb565b5050505050565b600033905090565b8151835114612200576040517f08c379a00000000000000000000000000000000000000000000000000000000081526004016121f7906188ab565b60405180910390fd5b600073ffffffffffffffffffffffffffffffffffffffff168473ffffffffffffffffffffffffffffffffffffffff160361226f576040517f08c379a0000000000000000000000000000000000000000000000000000000008152600401612266906189a8565b60405180910390fd5b60006122796121b4565b9050612289818787878787613395565b60005b845181101561243d5760008582815181106122aa576122a9616f21565b5b6020026020010151905060008583815181106122c9576122c8616f21565b5b6020026020010151905060006065600084815260200190815260200160002060008b73ffffffffffffffffffffffffffffffffffffffff1673ffffffffffffffffffffffffffffffffffffffff1681526020019081526020016000205490508181101561236b576040517f08c379a000000000000000000000000000000000000000000000000000000000815260040161236290618a3a565b60405180910390fd5b8181036065600085815260200190815260200160002060008c73ffffffffffffffffffffffffffffffffffffffff1673ffffffffffffffffffffffffffffffffffffffff16815260200190815260200160002081905550816065600085815260200190815260200160002060008b73ffffffffffffffffffffffffffffffffffffffff1673ffffffffffffffffffffffffffffffffffffffff168152602001908152602001600020600082825461242291906188cb565b925050819055505050508061243690616f7f565b905061228c565b508473ffffffffffffffffffffffffffffffffffffffff168673ffffffffffffffffffffffffffffffffffffffff168273ffffffffffffffffffffffffffffffffffffffff167f4a39dc06d4c0dbc64b70af90fd698a233a518aa5d07e595d983b8c0526c8f7fb87876040516124b49291906188ff565b60405180910390a46124ca8187878787876133b3565b6124d88187878787876133bb565b505050505050565b6124ea82826115c7565b6125bd5760016097600084815260200190815260200160002060000160008373ffffffffffffffffffffffffffffffffffffffff1673ffffffffffffffffffffffffffffffffffffffff16815260200190815260200160002060006101000a81548160ff0219169083151502179055506125626121b4565b73ffffffffffffffffffffffffffffffffffffffff168173ffffffffffffffffffffffffffffffffffffffff16837f2f8788117e7eff1d82e926ec794901d17c78024a50270940304540a733656f0d60405160405180910390a45b5050565b6125cb82826115c7565b1561269f5760006097600084815260200190815260200160002060000160008373ffffffffffffffffffffffffffffffffffffffff1673ffffffffffffffffffffffffffffffffffffffff16815260200190815260200160002060006101000a81548160ff0219169083151502179055506126446121b4565b73ffffffffffffffffffffffffffffffffffffffff168173ffffffffffffffffffffffffffffffffffffffff16837ff6391f5c32d9c69d2a47ea670b442974b53935d1edc7fd64eb21e047a839171b60405160405180910390a45b5050565b6126ab613592565b600060c960006101000a81548160ff0219169083151502179055507f5db9ee0a495bf2e6ff9c91a7834c1ba4fdd244a5e8aa4e537bd38aeae4b073aa6126ef6121b4565b6040516126fc91906183be565b60405180910390a1565b6060815183511461274c576040517f08c379a000000000000000000000000000000000000000000000000000000000815260040161274390618acc565b60405180910390fd5b6000835167ffffffffffffffff81111561276957612768614552565b5b6040519080825280602002602001820160405280156127975781602001602082028036833780820191505090505b50905060005b8451811015612814576127e48582815181106127bc576127bb616f21565b5b60200260200101518583815181106127d7576127d6616f21565b5b6020026020010151610ba0565b8282815181106127f7576127f6616f21565b5b6020026020010181815250508061280d90616f7f565b905061279d565b508091505092915050565b600061282a83610eae565b90508160976000858152602001908152602001600020600101819055508181847fbd79b86ffe0ab8e8776151514217cd7cacd52c909f66475c3af44e129f0b00ff60405160405180910390a4505050565b6128836121b4565b73ffffffffffffffffffffffffffffffffffffffff168373ffffffffffffffffffffffffffffffffffffffff1614806128c957506128c8836128c36121b4565b611ba5565b5b612908576040517f08c379a00000000000000000000000000000000000000000000000000000000081526004016128ff90617039565b60405180910390fd5b6129138383836135db565b505050565b600073ffffffffffffffffffffffffffffffffffffffff168473ffffffffffffffffffffffffffffffffffffffff1603612987576040517f08c379a000000000000000000000000000000000000000000000000000000000815260040161297e90618819565b60405180910390fd5b60006129916121b4565b9050600061299e856138ab565b905060006129ab856138ab565b90506129bc83600089858589613395565b846065600088815260200190815260200160002060008973ffffffffffffffffffffffffffffffffffffffff1673ffffffffffffffffffffffffffffffffffffffff1681526020019081526020016000206000828254612a1c91906188cb565b925050819055508673ffffffffffffffffffffffffffffffffffffffff16600073ffffffffffffffffffffffffffffffffffffffff168473ffffffffffffffffffffffffffffffffffffffff167fc3d58168c5ae7397731d063d5bbf3d657854427343f4c083240f7aacaa2d0f628989604051612a9a929190618aec565b60405180910390a4612ab1836000898585896133b3565b612ac083600089898989613925565b50505050505050565b612ad1611dce565b600160c960006101000a81548160ff0219169083151502179055507f62e78cea01bee320cd4e420270b5ea74000d11b0c9f74754ebdbfc544b05a258612b156121b4565b604051612b2291906183be565b60405180910390a1565b612b3e612b376121b4565b8383613afc565b5050565b6000808273ffffffffffffffffffffffffffffffffffffffff163b119050919050565b600060019054906101000a900460ff16612bb4576040517f08c379a0000000000000000000000000000000000000000000000000000000008152600401612bab90618b87565b60405180910390fd5b612bbd81613c68565b50565b600060019054906101000a900460ff16612c0f576040517f08c379a0000000000000000000000000000000000000000000000000000000008152600401612c0690618b87565b60405180910390fd5b565b600060019054906101000a900460ff16612c60576040517f08c379a0000000000000000000000000000000000000000000000000000000008152600401612c5790618b87565b60405180910390fd5b612c68613cc3565b565b600060019054906101000a900460ff16612cb9576040517f08c379a0000000000000000000000000000000000000000000000000000000008152600401612cb090618b87565b60405180910390fd5b565b600060019054906101000a900460ff16612d0a576040517f08c379a0000000000000000000000000000000000000000000000000000000008152600401612d0190618b87565b60405180910390fd5b565b6000606660008473ffffffffffffffffffffffffffffffffffffffff1673ffffffffffffffffffffffffffffffffffffffff16815260200190815260200160002060008373ffffffffffffffffffffffffffffffffffffffff1673ffffffffffffffffffffffffffffffffffffffff16815260200190815260200160002060009054906101000a900460ff16905092915050565b600073ffffffffffffffffffffffffffffffffffffffff168473ffffffffffffffffffffffffffffffffffffffff1603612e0f576040517f08c379a0000000000000000000000000000000000000000000000000000000008152600401612e06906189a8565b60405180910390fd5b6000612e196121b4565b90506000612e26856138ab565b90506000612e33856138ab565b9050612e43838989858589613395565b60006065600088815260200190815260200160002060008a73ffffffffffffffffffffffffffffffffffffffff1673ffffffffffffffffffffffffffffffffffffffff16815260200190815260200160002054905085811015612edb576040517f08c379a0000000000000000000000000000000000000000000000000000000008152600401612ed290618a3a565b60405180910390fd5b8581036065600089815260200190815260200160002060008b73ffffffffffffffffffffffffffffffffffffffff1673ffffffffffffffffffffffffffffffffffffffff16815260200190815260200160002081905550856065600089815260200190815260200160002060008a73ffffffffffffffffffffffffffffffffffffffff1673ffffffffffffffffffffffffffffffffffffffff1681526020019081526020016000206000828254612f9291906188cb565b925050819055508773ffffffffffffffffffffffffffffffffffffffff168973ffffffffffffffffffffffffffffffffffffffff168573ffffffffffffffffffffffffffffffffffffffff167fc3d58168c5ae7397731d063d5bbf3d657854427343f4c083240f7aacaa2d0f628a8a60405161300f929190618aec565b60405180910390a4613025848a8a86868a6133b3565b613033848a8a8a8a8a613925565b505050505050505050565b6130466121b4565b73ffffffffffffffffffffffffffffffffffffffff168373ffffffffffffffffffffffffffffffffffffffff16148061308c575061308b836130866121b4565b611ba5565b5b6130cb576040517f08c379a00000000000000000000000000000000000000000000000000000000081526004016130c290617039565b60405180910390fd5b6130d6838383613d2f565b505050565b6130e582826115c7565b61315c576130f281613f77565b6131008360001c6020613fa4565b604051602001613111929190618c3f565b6040516020818303038152906040526040517f08c379a00000000000000000000000000000000000000000000000000000000081526004016131539190614889565b60405180910390fd5b5050565b60007fd9b67a26000000000000000000000000000000000000000000000000000000007bffffffffffffffffffffffffffffffffffffffffffffffffffffffff1916827bffffffffffffffffffffffffffffffffffffffffffffffffffffffff1916148061322b57507f0e89341c000000000000000000000000000000000000000000000000000000007bffffffffffffffffffffffffffffffffffffffffffffffffffffffff1916827bffffffffffffffffffffffffffffffffffffffffffffffffffffffff1916145b8061323b575061323a826141e0565b5b9050919050565b600080600090507a184f03e93ff9f4daa797ed6e38ed64bf6a1f01000000000000000083106132a0577a184f03e93ff9f4daa797ed6e38ed64bf6a1f010000000000000000838161329657613295618778565b5b0492506040810190505b6d04ee2d6d415b85acef810000000083106132dd576d04ee2d6d415b85acef810000000083816132d3576132d2618778565b5b0492506020810190505b662386f26fc10000831061330c57662386f26fc10000838161330257613301618778565b5b0492506010810190505b6305f5e1008310613335576305f5e100838161332b5761332a618778565b5b0492506008810190505b612710831061335a5761271083816133505761334f618778565b5b0492506004810190505b6064831061337d576064838161337357613372618778565b5b0492506002810190505b600a831061338c576001810190505b80915050919050565b61339d611dce565b6133ab86868686868661424a565b505050505050565b505050505050565b6133da8473ffffffffffffffffffffffffffffffffffffffff16612b42565b1561358a578373ffffffffffffffffffffffffffffffffffffffff1663bc197c8187878686866040518663ffffffff1660e01b8152600401613420959493929190618cc3565b6020604051808303816000875af192505050801561345c57506040513d601f19601f820116820180604052508101906134599190618d40565b60015b61350157613468618d7a565b806308c379a0036134c4575061347c618d9c565b8061348757506134c6565b806040517f08c379a00000000000000000000000000000000000000000000000000000000081526004016134bb9190614889565b60405180910390fd5b505b6040517f08c379a00000000000000000000000000000000000000000000000000000000081526004016134f890618e9e565b60405180910390fd5b63bc197c8160e01b7bffffffffffffffffffffffffffffffffffffffffffffffffffffffff1916817bffffffffffffffffffffffffffffffffffffffffffffffffffffffff191614613588576040517f08c379a000000000000000000000000000000000000000000000000000000000815260040161357f90618f30565b60405180910390fd5b505b505050505050565b61359a6112b8565b6135d9576040517f08c379a00000000000000000000000000000000000000000000000000000000081526004016135d090618f9c565b60405180910390fd5b565b600073ffffffffffffffffffffffffffffffffffffffff168373ffffffffffffffffffffffffffffffffffffffff160361364a576040517f08c379a00000000000000000000000000000000000000000000000000000000081526004016136419061902e565b60405180910390fd5b805182511461368e576040517f08c379a0000000000000000000000000000000000000000000000000000000008152600401613685906188ab565b60405180910390fd5b60006136986121b4565b90506136b881856000868660405180602001604052806000815250613395565b60005b83518110156138075760008482815181106136d9576136d8616f21565b5b6020026020010151905060008483815181106136f8576136f7616f21565b5b6020026020010151905060006065600084815260200190815260200160002060008973ffffffffffffffffffffffffffffffffffffffff1673ffffffffffffffffffffffffffffffffffffffff1681526020019081526020016000205490508181101561379a576040517f08c379a0000000000000000000000000000000000000000000000000000000008152600401613791906190c0565b60405180910390fd5b8181036065600085815260200190815260200160002060008a73ffffffffffffffffffffffffffffffffffffffff1673ffffffffffffffffffffffffffffffffffffffff1681526020019081526020016000208190555050505080806137ff90616f7f565b9150506136bb565b50600073ffffffffffffffffffffffffffffffffffffffff168473ffffffffffffffffffffffffffffffffffffffff168273ffffffffffffffffffffffffffffffffffffffff167f4a39dc06d4c0dbc64b70af90fd698a233a518aa5d07e595d983b8c0526c8f7fb868660405161387f9291906188ff565b60405180910390a46138a5818560008686604051806020016040528060008152506133b3565b50505050565b60606000600167ffffffffffffffff8111156138ca576138c9614552565b5b6040519080825280602002602001820160405280156138f85781602001602082028036833780820191505090505b50905082816000815181106139105761390f616f21565b5b60200260200101818152505080915050919050565b6139448473ffffffffffffffffffffffffffffffffffffffff16612b42565b15613af4578373ffffffffffffffffffffffffffffffffffffffff1663f23a6e6187878686866040518663ffffffff1660e01b815260040161398a9594939291906190e0565b6020604051808303816000875af19250505080156139c657506040513d601f19601f820116820180604052508101906139c39190618d40565b60015b613a6b576139d2618d7a565b806308c379a003613a2e57506139e6618d9c565b806139f15750613a30565b806040517f08c379a0000000000000000000000000000000000000000000000000000000008152600401613a259190614889565b60405180910390fd5b505b6040517f08c379a0000000000000000000000000000000000000000000000000000000008152600401613a6290618e9e565b60405180910390fd5b63f23a6e6160e01b7bffffffffffffffffffffffffffffffffffffffffffffffffffffffff1916817bffffffffffffffffffffffffffffffffffffffffffffffffffffffff191614613af2576040517f08c379a0000000000000000000000000000000000000000000000000000000008152600401613ae990618f30565b60405180910390fd5b505b505050505050565b8173ffffffffffffffffffffffffffffffffffffffff168373ffffffffffffffffffffffffffffffffffffffff1603613b6a576040517f08c379a0000000000000000000000000000000000000000000000000000000008152600401613b61906191ac565b60405180910390fd5b80606660008573ffffffffffffffffffffffffffffffffffffffff1673ffffffffffffffffffffffffffffffffffffffff16815260200190815260200160002060008473ffffffffffffffffffffffffffffffffffffffff1673ffffffffffffffffffffffffffffffffffffffff16815260200190815260200160002060006101000a81548160ff0219169083151502179055508173ffffffffffffffffffffffffffffffffffffffff168373ffffffffffffffffffffffffffffffffffffffff167f17307eab39ab6107e8899845ad3d59bd9653f200f220920489ca2b5937696c3183604051613c5b9190614779565b60405180910390a3505050565b600060019054906101000a900460ff16613cb7576040517f08c379a0000000000000000000000000000000000000000000000000000000008152600401613cae90618b87565b60405180910390fd5b613cc081611ea6565b50565b600060019054906101000a900460ff16613d12576040517f08c379a0000000000000000000000000000000000000000000000000000000008152600401613d0990618b87565b60405180910390fd5b600060c960006101000a81548160ff021916908315150217905550565b600073ffffffffffffffffffffffffffffffffffffffff168373ffffffffffffffffffffffffffffffffffffffff1603613d9e576040517f08c379a0000000000000000000000000000000000000000000000000000000008152600401613d959061902e565b60405180910390fd5b6000613da86121b4565b90506000613db5846138ab565b90506000613dc2846138ab565b9050613de283876000858560405180602001604052806000815250613395565b60006065600087815260200190815260200160002060008873ffffffffffffffffffffffffffffffffffffffff1673ffffffffffffffffffffffffffffffffffffffff16815260200190815260200160002054905084811015613e7a576040517f08c379a0000000000000000000000000000000000000000000000000000000008152600401613e71906190c0565b60405180910390fd5b8481036065600088815260200190815260200160002060008973ffffffffffffffffffffffffffffffffffffffff1673ffffffffffffffffffffffffffffffffffffffff16815260200190815260200160002081905550600073ffffffffffffffffffffffffffffffffffffffff168773ffffffffffffffffffffffffffffffffffffffff168573ffffffffffffffffffffffffffffffffffffffff167fc3d58168c5ae7397731d063d5bbf3d657854427343f4c083240f7aacaa2d0f628989604051613f48929190618aec565b60405180910390a4613f6e848860008686604051806020016040528060008152506133b3565b50505050505050565b6060613f9d8273ffffffffffffffffffffffffffffffffffffffff16601460ff16613fa4565b9050919050565b606060006002836002613fb791906191cc565b613fc191906188cb565b67ffffffffffffffff811115613fda57613fd9614552565b5b6040519080825280601f01601f19166020018201604052801561400c5781602001600182028036833780820191505090505b5090507f30000000000000000000000000000000000000000000000000000000000000008160008151811061404457614043616f21565b5b60200101907effffffffffffffffffffffffffffffffffffffffffffffffffffffffffffff1916908160001a9053507f7800000000000000000000000000000000000000000000000000000000000000816001815181106140a8576140a7616f21565b5b60200101907effffffffffffffffffffffffffffffffffffffffffffffffffffffffffffff1916908160001a905350600060018460026140e891906191cc565b6140f291906188cb565b90505b6001811115614192577f3031323334353637383961626364656600000000000000000000000000000000600f86166010811061413457614133616f21565b5b1a60f81b82828151811061414b5761414a616f21565b5b60200101907effffffffffffffffffffffffffffffffffffffffffffffffffffffffffffff1916908160001a905350600485901c94508061418b9061920e565b90506140f5565b50600084146141d6576040517f08c379a00000000000000000000000000000000000000000000000000000000081526004016141cd90619283565b60405180910390fd5b8091505092915050565b60007f01ffc9a7000000000000000000000000000000000000000000000000000000007bffffffffffffffffffffffffffffffffffffffffffffffffffffffff1916827bffffffffffffffffffffffffffffffffffffffffffffffffffffffff1916149050919050565b61425886868686868661441d565b600073ffffffffffffffffffffffffffffffffffffffff168573ffffffffffffffffffffffffffffffffffffffff160361430a5760005b8351811015614308578281815181106142ab576142aa616f21565b5b602002602001015161012d60008684815181106142cb576142ca616f21565b5b6020026020010151815260200190815260200160002060008282546142f091906188cb565b925050819055508061430190616f7f565b905061428f565b505b600073ffffffffffffffffffffffffffffffffffffffff168473ffffffffffffffffffffffffffffffffffffffff16036144155760005b835181101561441357600084828151811061435f5761435e616f21565b5b60200260200101519050600084838151811061437e5761437d616f21565b5b60200260200101519050600061012d6000848152602001908152602001600020549050818110156143e4576040517f08c379a00000000000000000000000000000000000000000000000000000000081526004016143db90619315565b60405180910390fd5b81810361012d6000858152602001908152602001600020819055505050508061440c90616f7f565b9050614341565b505b505050505050565b505050505050565b6000604051905090565b600080fd5b600080fd5b600073ffffffffffffffffffffffffffffffffffffffff82169050919050565b600061446482614439565b9050919050565b61447481614459565b811461447f57600080fd5b50565b6000813590506144918161446b565b92915050565b6000819050919050565b6144aa81614497565b81146144b557600080fd5b50565b6000813590506144c7816144a1565b92915050565b600080604083850312156144e4576144e361442f565b5b60006144f285828601614482565b9250506020614503858286016144b8565b9150509250929050565b61451681614497565b82525050565b6000602082019050614531600083018461450d565b92915050565b600080fd5b600080fd5b6000601f19601f8301169050919050565b7f4e487b7100000000000000000000000000000000000000000000000000000000600052604160045260246000fd5b61458a82614541565b810181811067ffffffffffffffff821117156145a9576145a8614552565b5b80604052505050565b60006145bc614425565b90506145c88282614581565b919050565b600067ffffffffffffffff8211156145e8576145e7614552565b5b6145f182614541565b9050602081019050919050565b82818337600083830152505050565b600061462061461b846145cd565b6145b2565b90508281526020810184848401111561463c5761463b61453c565b5b6146478482856145fe565b509392505050565b600082601f83011261466457614663614537565b5b813561467484826020860161460d565b91505092915050565b600080604083850312156146945761469361442f565b5b60006146a2858286016144b8565b925050602083013567ffffffffffffffff8111156146c3576146c2614434565b5b6146cf8582860161464f565b9150509250929050565b60007fffffffff0000000000000000000000000000000000000000000000000000000082169050919050565b61470e816146d9565b811461471957600080fd5b50565b60008135905061472b81614705565b92915050565b6000602082840312156147475761474661442f565b5b60006147558482850161471c565b91505092915050565b60008115159050919050565b6147738161475e565b82525050565b600060208201905061478e600083018461476a565b92915050565b6000602082840312156147aa576147a961442f565b5b600082013567ffffffffffffffff8111156147c8576147c7614434565b5b6147d48482850161464f565b91505092915050565b6000602082840312156147f3576147f261442f565b5b6000614801848285016144b8565b91505092915050565b600081519050919050565b600082825260208201905092915050565b60005b83811015614844578082015181840152602081019050614829565b60008484015250505050565b600061485b8261480a565b6148658185614815565b9350614875818560208601614826565b61487e81614541565b840191505092915050565b600060208201905081810360008301526148a38184614850565b905092915050565b600067ffffffffffffffff8211156148c6576148c5614552565b5b6148cf82614541565b9050602081019050919050565b60006148ef6148ea846148ab565b6145b2565b90508281526020810184848401111561490b5761490a61453c565b5b6149168482856145fe565b509392505050565b600082601f83011261493357614932614537565b5b81356149438482602086016148dc565b91505092915050565b600080600080600060a086880312156149685761496761442f565b5b600061497688828901614482565b955050602061498788828901614482565b9450506040614998888289016144b8565b93505060606149a9888289016144b8565b925050608086013567ffffffffffffffff8111156149ca576149c9614434565b5b6149d68882890161491e565b9150509295509295909350565b600080604083850312156149fa576149f961442f565b5b600083013567ffffffffffffffff811115614a1857614a17614434565b5b614a248582860161464f565b9250506020614a3585828601614482565b9150509250929050565b600080fd5b600080fd5b60008083601f840112614a5f57614a5e614537565b5b8235905067ffffffffffffffff811115614a7c57614a7b614a3f565b5b602083019150836020820283011115614a9857614a97614a44565b5b9250929050565b60008083601f840112614ab557614ab4614537565b5b8235905067ffffffffffffffff811115614ad257614ad1614a3f565b5b602083019150836020820283011115614aee57614aed614a44565b5b9250929050565b60008060008060408587031215614b0f57614b0e61442f565b5b600085013567ffffffffffffffff811115614b2d57614b2c614434565b5b614b3987828801614a49565b9450945050602085013567ffffffffffffffff811115614b5c57614b5b614434565b5b614b6887828801614a9f565b925092505092959194509250565b600081519050919050565b600082825260208201905092915050565b6000819050602082019050919050565b7f4e487b7100000000000000000000000000000000000000000000000000000000600052602160045260246000fd5b60068110614be257614be1614ba2565b5b50565b6000819050614bf382614bd1565b919050565b6000614c0382614be5565b9050919050565b614c1381614bf8565b82525050565b614c2281614459565b82525050565b614c3181614497565b82525050565b6000614c4282614439565b9050919050565b614c5281614c37565b82525050565b60a082016000820151614c6e6000850182614c0a565b506020820151614c816020850182614c19565b506040820151614c946040850182614c28565b506060820151614ca76060850182614c28565b506080820151614cba6080850182614c49565b50505050565b6000819050919050565b614cd381614cc0565b82525050565b60e082016000820151614cef6000850182614c58565b506020820151614d0260a0850182614c19565b506040820151614d1560c0850182614cca565b50505050565b6000614d278383614cd9565b60e08301905092915050565b6000602082019050919050565b6000614d4b82614b76565b614d558185614b81565b9350614d6083614b92565b8060005b83811015614d91578151614d788882614d1b565b9750614d8383614d33565b925050600181019050614d64565b5085935050505092915050565b60006020820190508181036000830152614db88184614d40565b905092915050565b600067ffffffffffffffff821115614ddb57614dda614552565b5b602082029050602081019050919050565b6000614dff614dfa84614dc0565b6145b2565b90508083825260208201905060208402830185811115614e2257614e21614a44565b5b835b81811015614e4b5780614e3788826144b8565b845260208401935050602081019050614e24565b5050509392505050565b600082601f830112614e6a57614e69614537565b5b8135614e7a848260208601614dec565b91505092915050565b60008060008060808587031215614e9d57614e9c61442f565b5b6000614eab87828801614482565b945050602085013567ffffffffffffffff811115614ecc57614ecb614434565b5b614ed887828801614e55565b935050604085013567ffffffffffffffff811115614ef957614ef8614434565b5b614f0587828801614e55565b925050606085013567ffffffffffffffff811115614f2657614f25614434565b5b614f328782880161491e565b91505092959194509250565b614f4781614cc0565b8114614f5257600080fd5b50565b600081359050614f6481614f3e565b92915050565b600060208284031215614f8057614f7f61442f565b5b6000614f8e84828501614f55565b91505092915050565b614fa081614cc0565b82525050565b6000602082019050614fbb6000830184614f97565b92915050565b600080600080600060a08688031215614fdd57614fdc61442f565b5b6000614feb88828901614482565b9550506020614ffc88828901614482565b945050604086013567ffffffffffffffff81111561501d5761501c614434565b5b61502988828901614e55565b935050606086013567ffffffffffffffff81111561504a57615049614434565b5b61505688828901614e55565b925050608086013567ffffffffffffffff81111561507757615076614434565b5b6150838882890161491e565b9150509295509295909350565b600080604083850312156150a7576150a661442f565b5b60006150b585828601614f55565b92505060206150c685828601614482565b9150509250929050565b60008083601f8401126150e6576150e5614537565b5b8235905067ffffffffffffffff81111561510357615102614a3f565b5b60208301915083602082028301111561511f5761511e614a44565b5b9250929050565b60008060008060008060008060a0898b0312156151465761514561442f565b5b600089013567ffffffffffffffff81111561516457615163614434565b5b6151708b828c01614a49565b9850985050602089013567ffffffffffffffff81111561519357615192614434565b5b61519f8b828c016150d0565b9650965050604089013567ffffffffffffffff8111156151c2576151c1614434565b5b6151ce8b828c016150d0565b945094505060606151e18b828c01614f55565b92505060806151f28b828c016144b8565b9150509295985092959890939650565b600081519050919050565b600082825260208201905092915050565b6000819050602082019050919050565b6152378161475e565b82525050565b6000615249838361522e565b60208301905092915050565b6000602082019050919050565b600061526d82615202565b615277818561520d565b93506152828361521e565b8060005b838110156152b357815161529a888261523d565b97506152a583615255565b925050600181019050615286565b5085935050505092915050565b600060408201905081810360008301526152da8185615262565b905081810360208301526152ee8184614d40565b90509392505050565b600067ffffffffffffffff82111561531257615311614552565b5b602082029050602081019050919050565b6000615336615331846152f7565b6145b2565b9050808382526020820190506020840283018581111561535957615358614a44565b5b835b81811015615382578061536e8882614482565b84526020840193505060208101905061535b565b5050509392505050565b600082601f8301126153a1576153a0614537565b5b81356153b1848260208601615323565b91505092915050565b600080604083850312156153d1576153d061442f565b5b600083013567ffffffffffffffff8111156153ef576153ee614434565b5b6153fb8582860161538c565b925050602083013567ffffffffffffffff81111561541c5761541b614434565b5b61542885828601614e55565b9150509250929050565b600081519050919050565b600082825260208201905092915050565b6000819050602082019050919050565b600061546a8383614c28565b60208301905092915050565b6000602082019050919050565b600061548e82615432565b615498818561543d565b93506154a38361544e565b8060005b838110156154d45781516154bb888261545e565b97506154c683615476565b9250506001810190506154a7565b5085935050505092915050565b600060208201905081810360008301526154fb8184615483565b905092915050565b60008083601f84011261551957615518614537565b5b8235905067ffffffffffffffff81111561553657615535614a3f565b5b60208301915083602082028301111561555257615551614a44565b5b9250929050565b60008083601f84011261556f5761556e614537565b5b8235905067ffffffffffffffff81111561558c5761558b614a3f565b5b6020830191508360208202830111156155a8576155a7614a44565b5b9250929050565b600080600080600080600080600080600060e08c8e0312156155d4576155d361442f565b5b60008c013567ffffffffffffffff8111156155f2576155f1614434565b5b6155fe8e828f01615503565b9b509b505060208c013567ffffffffffffffff81111561562157615620614434565b5b61562d8e828f01615559565b995099505060408c013567ffffffffffffffff8111156156505761564f614434565b5b61565c8e828f016150d0565b975097505060608c013567ffffffffffffffff81111561567f5761567e614434565b5b61568b8e828f016150d0565b9550955050608061569e8e828f01614f55565b93505060a06156af8e828f01614482565b92505060c06156c08e828f016144b8565b9150509295989b509295989b9093969950565b60006080820190506156e8600083018761476a565b6156f5602083018661476a565b615702604083018561450d565b61570f606083018461450d565b95945050505050565b6000806000606084860312156157315761573061442f565b5b600061573f86828701614482565b935050602084013567ffffffffffffffff8111156157605761575f614434565b5b61576c86828701614e55565b925050604084013567ffffffffffffffff81111561578d5761578c614434565b5b61579986828701614e55565b9150509250925092565b600080600080608085870312156157bd576157bc61442f565b5b60006157cb87828801614482565b94505060206157dc878288016144b8565b93505060406157ed878288016144b8565b925050606085013567ffffffffffffffff81111561580e5761580d614434565b5b61581a8782880161491e565b91505092959194509250565b6000806020838503121561583d5761583c61442f565b5b600083013567ffffffffffffffff81111561585b5761585a614434565b5b61586785828601614a49565b92509250509250929050565b600080fd5b600060a0828403121561588e5761588d615873565b5b81905092915050565b6000806000806000608086880312156158b3576158b261442f565b5b600086013567ffffffffffffffff8111156158d1576158d0614434565b5b6158dd88828901615878565b955050602086013567ffffffffffffffff8111156158fe576158fd614434565b5b61590a88828901615559565b9450945050604061591d88828901614f55565b925050606061592e88828901614482565b9150509295509295909350565b6159448161475e565b811461594f57600080fd5b50565b6000813590506159618161593b565b92915050565b6000806040838503121561597e5761597d61442f565b5b600061598c85828601614482565b925050602061599d85828601615952565b9150509250929050565b600080fd5b600080fd5b600067ffffffffffffffff8211156159cc576159cb614552565b5b602082029050602081019050919050565b600681106159ea57600080fd5b50565b6000813590506159fc816159dd565b92915050565b600060a08284031215615a1857615a176159a7565b5b615a2260a06145b2565b90506000615a32848285016159ed565b6000830152506020615a4684828501614482565b6020830152506040615a5a848285016144b8565b6040830152506060615a6e848285016144b8565b6060830152506080615a82848285016144b8565b60808301525092915050565b6000615aa1615a9c846159b1565b6145b2565b90508083825260208201905060a08402830185811115615ac457615ac3614a44565b5b835b81811015615aed5780615ad98882615a02565b84526020840193505060a081019050615ac6565b5050509392505050565b600082601f830112615b0c57615b0b614537565b5b8135615b1c848260208601615a8e565b91505092915050565b600067ffffffffffffffff821115615b4057615b3f614552565b5b602082029050602081019050919050565b615b5a81614c37565b8114615b6557600080fd5b50565b600081359050615b7781615b51565b92915050565b600060c08284031215615b9357615b926159a7565b5b615b9d60c06145b2565b90506000615bad848285016159ed565b6000830152506020615bc184828501614482565b6020830152506040615bd5848285016144b8565b6040830152506060615be9848285016144b8565b6060830152506080615bfd848285016144b8565b60808301525060a0615c1184828501615b68565b60a08301525092915050565b6000615c30615c2b84615b25565b6145b2565b90508083825260208201905060c08402830185811115615c5357615c52614a44565b5b835b81811015615c7c5780615c688882615b7d565b84526020840193505060c081019050615c55565b5050509392505050565b600082601f830112615c9b57615c9a614537565b5b8135615cab848260208601615c1d565b91505092915050565b60058110615cc157600080fd5b50565b600081359050615cd381615cb4565b92915050565b60006101608284031215615cf057615cef6159a7565b5b615cfb6101606145b2565b90506000615d0b84828501614482565b6000830152506020615d1f84828501614482565b602083015250604082013567ffffffffffffffff811115615d4357615d426159ac565b5b615d4f84828501615af7565b604083015250606082013567ffffffffffffffff811115615d7357615d726159ac565b5b615d7f84828501615c86565b6060830152506080615d9384828501615cc4565b60808301525060a0615da7848285016144b8565b60a08301525060c0615dbb848285016144b8565b60c08301525060e0615dcf84828501614f55565b60e083015250610100615de4848285016144b8565b61010083015250610120615dfa84828501614f55565b61012083015250610140615e10848285016144b8565b6101408301525092915050565b600060408284031215615e3357615e326159a7565b5b615e3d60406145b2565b9050600082013567ffffffffffffffff811115615e5d57615e5c6159ac565b5b615e6984828501615cd9565b600083015250602082013567ffffffffffffffff811115615e8d57615e8c6159ac565b5b615e998482850161491e565b60208301525092915050565b60008060408385031215615ebc57615ebb61442f565b5b600083013567ffffffffffffffff811115615eda57615ed9614434565b5b615ee685828601615e1d565b9250506020615ef785828601614f55565b9150509250929050565b60008060008060008060006080888a031215615f2057615f1f61442f565b5b600088013567ffffffffffffffff811115615f3e57615f3d614434565b5b615f4a8a828b01615503565b9750975050602088013567ffffffffffffffff811115615f6d57615f6c614434565b5b615f798a828b01615559565b9550955050604088013567ffffffffffffffff811115615f9c57615f9b614434565b5b615fa88a828b01614a9f565b93509350506060615fbb8a828b01614482565b91505092959891949750929550565b600060208284031215615fe057615fdf61442f565b5b6000615fee84828501614482565b91505092915050565b6000610160828403121561600e5761600d615873565b5b81905092915050565b60006020828403121561602d5761602c61442f565b5b600082013567ffffffffffffffff81111561604b5761604a614434565b5b61605784828501615ff7565b91505092915050565b60008083601f84011261607657616075614537565b5b8235905067ffffffffffffffff81111561609357616092614a3f565b5b6020830191508360208202830111156160af576160ae614a44565b5b9250929050565b600080602083850312156160cd576160cc61442f565b5b600083013567ffffffffffffffff8111156160eb576160ea614434565b5b6160f785828601616060565b92509250509250929050565b6000806040838503121561611a5761611961442f565b5b600061612885828601614482565b925050602061613985828601614482565b9150509250929050565b60008060006060848603121561615c5761615b61442f565b5b600061616a86828701614482565b935050602061617b868287016144b8565b925050604061618c868287016144b8565b9150509250925092565b600081905092915050565b60006161ac8261480a565b6161b68185616196565b93506161c6818560208601614826565b80840191505092915050565b7f2f00000000000000000000000000000000000000000000000000000000000000815250565b600061620482856161a1565b915061620f826161d2565b60018201915061621f82846161a1565b91508190509392505050565b7f4e487b7100000000000000000000000000000000000000000000000000000000600052602260045260246000fd5b6000600282049050600182168061627257607f821691505b6020821081036162855761628461622b565b5b50919050565b600082825260208201905092915050565b6000819050919050565b600080fd5b600082356001610160038336030381126162c8576162c76162a6565b5b82810191505092915050565b60006162e36020840184614482565b905092915050565b600080fd5b600080fd5b60008083356001602003843603038112616312576163116162a6565b5b83810192508235915060208301925067ffffffffffffffff82111561633a576163396162eb565b5b60a0820236038313156163505761634f6162f0565b5b509250929050565b600082825260208201905092915050565b6000819050919050565b600061638260208401846159ed565b905092915050565b600061639960208401846144b8565b905092915050565b60a082016163b26000830183616373565b6163bf6000850182614c0a565b506163cd60208301836162d4565b6163da6020850182614c19565b506163e8604083018361638a565b6163f56040850182614c28565b50616403606083018361638a565b6164106060850182614c28565b5061641e608083018361638a565b61642b6080850182614c28565b50505050565b600061643d83836163a1565b60a08301905092915050565b600082905092915050565b600060a082019050919050565b600061646d8385616358565b935061647882616369565b8060005b858110156164b15761648e8284616449565b6164988882616431565b97506164a383616454565b92505060018101905061647c565b5085925050509392505050565b600080833560016020038436030381126164db576164da6162a6565b5b83810192508235915060208301925067ffffffffffffffff821115616503576165026162eb565b5b60c082023603831315616519576165186162f0565b5b509250929050565b600082825260208201905092915050565b6000819050919050565b600061654b6020840184615b68565b905092915050565b60c082016165646000830183616373565b6165716000850182614c0a565b5061657f60208301836162d4565b61658c6020850182614c19565b5061659a604083018361638a565b6165a76040850182614c28565b506165b5606083018361638a565b6165c26060850182614c28565b506165d0608083018361638a565b6165dd6080850182614c28565b506165eb60a083018361653c565b6165f860a0850182614c49565b50505050565b600061660a8383616553565b60c08301905092915050565b600082905092915050565b600060c082019050919050565b600061663a8385616521565b935061664582616532565b8060005b8581101561667e5761665b8284616616565b61666588826165fe565b975061667083616621565b925050600181019050616649565b5085925050509392505050565b600061669a6020840184615cc4565b905092915050565b600581106166b3576166b2614ba2565b5b50565b60008190506166c4826166a2565b919050565b60006166d4826166b6565b9050919050565b6166e4816166c9565b82525050565b60006166f96020840184614f55565b905092915050565b6000610160830161671560008401846162d4565b6167226000860182614c19565b5061673060208401846162d4565b61673d6020860182614c19565b5061674b60408401846162f5565b858303604087015261675e838284616461565b9250505061676f60608401846164be565b858303606087015261678283828461662e565b92505050616793608084018461668b565b6167a060808601826166db565b506167ae60a084018461638a565b6167bb60a0860182614c28565b506167c960c084018461638a565b6167d660c0860182614c28565b506167e460e08401846166ea565b6167f160e0860182614cca565b5061680061010084018461638a565b61680e610100860182614c28565b5061681d6101208401846166ea565b61682b610120860182614cca565b5061683a61014084018461638a565b616848610140860182614c28565b508091505092915050565b600080833560016020038436030381126168705761686f6162a6565b5b83810192508235915060208301925067ffffffffffffffff821115616898576168976162eb565b5b6001820236038313156168ae576168ad6162f0565b5b509250929050565b600082825260208201905092915050565b60006168d383856168b6565b93506168e08385846145fe565b6168e983614541565b840190509392505050565b60006040830161690760008401846162ab565b84820360008601526169198282616701565b9150506169296020840184616853565b858303602087015261693c8382846168c7565b925050508091505092915050565b600061695683836168f4565b905092915050565b60008235600160400383360303811261697a576169796162a6565b5b82810191505092915050565b6000602082019050919050565b600061699f838561628b565b9350836020840285016169b18461629c565b8060005b878110156169f55784840389526169cc828461695e565b6169d6858261694a565b94506169e183616986565b925060208a019950506001810190506169b5565b50829750879450505050509392505050565b600082825260208201905092915050565b6000819050919050565b60008083356001602003843603038112616a3f57616a3e6162a6565b5b83810192508235915060208301925067ffffffffffffffff821115616a6757616a666162eb565b5b604082023603831315616a7d57616a7c6162f0565b5b509250929050565b600082825260208201905092915050565b6000819050919050565b60408201616ab1600083018361638a565b616abe6000850182614c28565b50616acc602083018361638a565b616ad96020850182614c28565b50505050565b6000616aeb8383616aa0565b60408301905092915050565b600082905092915050565b6000604082019050919050565b6000616b1b8385616a85565b9350616b2682616a96565b8060005b85811015616b5f57616b3c8284616af7565b616b468882616adf565b9750616b5183616b02565b925050600181019050616b2a565b5085925050509392505050565b600060408301616b7f6000840184616a22565b8583036000870152616b92838284616b0f565b92505050616ba36020840184616a22565b8583036020870152616bb6838284616b0f565b925050508091505092915050565b6000616bd08383616b6c565b905092915050565b600082356001604003833603038112616bf457616bf36162a6565b5b82810191505092915050565b6000602082019050919050565b6000616c198385616a07565b935083602084028501616c2b84616a18565b8060005b87811015616c6f578484038952616c468284616bd8565b616c508582616bc4565b9450616c5b83616c00565b925060208a01995050600181019050616c2f565b50829750879450505050509392505050565b60006040820190508181036000830152616c9c818688616993565b90508181036020830152616cb1818486616c0d565b905095945050505050565b600067ffffffffffffffff821115616cd757616cd6614552565b5b602082029050602081019050919050565b600081519050616cf7816159dd565b92915050565b600081519050616d0c8161446b565b92915050565b600081519050616d21816144a1565b92915050565b600081519050616d3681615b51565b92915050565b600060a08284031215616d5257616d516159a7565b5b616d5c60a06145b2565b90506000616d6c84828501616ce8565b6000830152506020616d8084828501616cfd565b6020830152506040616d9484828501616d12565b6040830152506060616da884828501616d12565b6060830152506080616dbc84828501616d27565b60808301525092915050565b600081519050616dd781614f3e565b92915050565b600060e08284031215616df357616df26159a7565b5b616dfd60606145b2565b90506000616e0d84828501616d3c565b60008301525060a0616e2184828501616cfd565b60208301525060c0616e3584828501616dc8565b60408301525092915050565b6000616e54616e4f84616cbc565b6145b2565b90508083825260208201905060e08402830185811115616e7757616e76614a44565b5b835b81811015616ea05780616e8c8882616ddd565b84526020840193505060e081019050616e79565b5050509392505050565b600082601f830112616ebf57616ebe614537565b5b8151616ecf848260208601616e41565b91505092915050565b600060208284031215616eee57616eed61442f565b5b600082015167ffffffffffffffff811115616f0c57616f0b614434565b5b616f1884828501616eaa565b91505092915050565b7f4e487b7100000000000000000000000000000000000000000000000000000000600052603260045260246000fd5b7f4e487b7100000000000000000000000000000000000000000000000000000000600052601160045260246000fd5b6000616f8a82614497565b91507fffffffffffffffffffffffffffffffffffffffffffffffffffffffffffffffff8203616fbc57616fbb616f50565b5b600182019050919050565b7f455243313135353a2063616c6c6572206973206e6f7420746f6b656e206f776e60008201527f6572206f7220617070726f766564000000000000000000000000000000000000602082015250565b6000617023602e83614815565b915061702e82616fc7565b604082019050919050565b6000602082019050818103600083015261705281617016565b9050919050565b7f416363657373436f6e74726f6c3a2063616e206f6e6c792072656e6f756e636560008201527f20726f6c657320666f722073656c660000000000000000000000000000000000602082015250565b60006170b5602f83614815565b91506170c082617059565b604082019050919050565b600060208201905081810360008301526170e4816170a8565b9050919050565b600082825260208201905092915050565b6000819050919050565b6000617113848484616b0f565b90509392505050565b6000602082019050919050565b600061713583856170eb565b935083602084028501617147846170fc565b8060005b8781101561718d5784840389526171628284616a22565b61716d868284617106565b95506171788461711c565b935060208b019a50505060018101905061714b565b50829750879450505050509392505050565b600060a08201905081810360008301526171ba818a8c616993565b905081810360208301526171cf81888a617129565b905081810360408301526171e4818688617129565b90506171f36060830185614f97565b617200608083018461450d565b9998505050505050505050565b600067ffffffffffffffff82111561722857617227614552565b5b602082029050602081019050919050565b6000815190506172488161593b565b92915050565b600061726161725c8461720d565b6145b2565b9050808382526020820190506020840283018581111561728457617283614a44565b5b835b818110156172ad57806172998882617239565b845260208401935050602081019050617286565b5050509392505050565b600082601f8301126172cc576172cb614537565b5b81516172dc84826020860161724e565b91505092915050565b600080604083850312156172fc576172fb61442f565b5b600083015167ffffffffffffffff81111561731a57617319614434565b5b617326858286016172b7565b925050602083015167ffffffffffffffff81111561734757617346614434565b5b61735385828601616eaa565b9150509250929050565b600082825260208201905092915050565b6000819050919050565b60006effffffffffffffffffffffffffffff82169050919050565b61739c81617378565b81146173a757600080fd5b50565b6000813590506173b981617393565b92915050565b60006173ce60208401846173aa565b905092915050565b6173df81617378565b82525050565b600060a083016173f860008401846162ab565b848203600086015261740a8282616701565b91505061741a60208401846173bf565b61742760208601826173d6565b5061743560408401846173bf565b61744260408601826173d6565b506174506060840184616853565b85830360608701526174638382846168c7565b925050506174746080840184616853565b85830360808701526174878382846168c7565b925050508091505092915050565b60006174a183836173e5565b905092915050565b60008235600160a0038336030381126174c5576174c46162a6565b5b82810191505092915050565b6000602082019050919050565b60006174ea838561735d565b9350836020840285016174fc8461736e565b8060005b8781101561754057848403895261751782846174a9565b6175218582617495565b945061752c836174d1565b925060208a01995050600181019050617500565b50829750879450505050509392505050565b600082825260208201905092915050565b6000819050919050565b6002811061757a57600080fd5b50565b60008135905061758c8161756d565b92915050565b60006175a1602084018461757d565b905092915050565b600281106175ba576175b9614ba2565b5b50565b60008190506175cb826175a9565b919050565b60006175db826175bd565b9050919050565b6175eb816175d0565b82525050565b6000808335600160200384360303811261760e5761760d6162a6565b5b83810192508235915060208301925067ffffffffffffffff821115617636576176356162eb565b5b60208202360383131561764c5761764b6162f0565b5b509250929050565b600082825260208201905092915050565b600080fd5b82818337505050565b600061767f8385617654565b93507f07ffffffffffffffffffffffffffffffffffffffffffffffffffffffffffffff8311156176b2576176b1617665565b5b6020830292506176c383858461766a565b82840190509392505050565b600060a083016176e2600084018461638a565b6176ef6000860182614c28565b506176fd6020840184617592565b61770a60208601826175e2565b50617718604084018461638a565b6177256040860182614c28565b50617733606084018461638a565b6177406060860182614c28565b5061774e60808401846175f1565b8583036080870152617761838284617673565b925050508091505092915050565b600061777b83836176cf565b905092915050565b60008235600160a00383360303811261779f5761779e6162a6565b5b82810191505092915050565b6000602082019050919050565b60006177c48385617552565b9350836020840285016177d684617563565b8060005b8781101561781a5784840389526177f18284617783565b6177fb858261776f565b9450617806836177ab565b925060208a019950506001810190506177da565b50829750879450505050509392505050565b61783581614459565b82525050565b600060e0820190508181036000830152617856818d8f6174de565b9050818103602083015261786b818b8d6177b8565b9050818103604083015261788081898b617129565b90508181036060830152617895818789617129565b90506178a46080830186614f97565b6178b160a083018561782c565b6178be60c083018461450d565b9c9b505050505050505050505050565b60006178da82846161a1565b915081905092915050565b600080600080608085870312156178ff576178fe61442f565b5b600061790d87828801617239565b945050602061791e87828801617239565b935050604061792f87828801616d12565b925050606061794087828801616d12565b91505092959194509250565b60006020820190508181036000830152617967818486616993565b90509392505050565b6000602082840312156179865761798561442f565b5b600061799484828501617239565b91505092915050565b600060a083016179b060008401846162ab565b84820360008601526179c28282616701565b9150506179d260208401846173bf565b6179df60208601826173d6565b506179ed60408401846173bf565b6179fa60408601826173d6565b50617a086060840184616853565b8583036060870152617a1b8382846168c7565b92505050617a2c6080840184616853565b8583036080870152617a3f8382846168c7565b925050508091505092915050565b60006080820190508181036000830152617a67818861799d565b90508181036020830152617a7c8186886177b8565b9050617a8b6040830185614f97565b617a98606083018461782c565b9695505050505050565b600081519050919050565b6000819050602082019050919050565b60a082016000820151617ad36000850182614c0a565b506020820151617ae66020850182614c19565b506040820151617af96040850182614c28565b506060820151617b0c6060850182614c28565b506080820151617b1f6080850182614c28565b50505050565b6000617b318383617abd565b60a08301905092915050565b6000602082019050919050565b6000617b5582617aa2565b617b5f8185616358565b9350617b6a83617aad565b8060005b83811015617b9b578151617b828882617b25565b9750617b8d83617b3d565b925050600181019050617b6e565b5085935050505092915050565b600081519050919050565b6000819050602082019050919050565b60c082016000820151617bd96000850182614c0a565b506020820151617bec6020850182614c19565b506040820151617bff6040850182614c28565b506060820151617c126060850182614c28565b506080820151617c256080850182614c28565b5060a0820151617c3860a0850182614c49565b50505050565b6000617c4a8383617bc3565b60c08301905092915050565b6000602082019050919050565b6000617c6e82617ba8565b617c788185616521565b9350617c8383617bb3565b8060005b83811015617cb4578151617c9b8882617c3e565b9750617ca683617c56565b925050600181019050617c87565b5085935050505092915050565b600061016083016000830151617cda6000860182614c19565b506020830151617ced6020860182614c19565b5060408301518482036040860152617d058282617b4a565b91505060608301518482036060860152617d1f8282617c63565b9150506080830151617d3460808601826166db565b5060a0830151617d4760a0860182614c28565b5060c0830151617d5a60c0860182614c28565b5060e0830151617d6d60e0860182614cca565b50610100830151617d82610100860182614c28565b50610120830151617d97610120860182614cca565b50610140830151617dac610140860182614c28565b508091505092915050565b600081519050919050565b6000617dcd82617db7565b617dd781856168b6565b9350617de7818560208601614826565b617df081614541565b840191505092915050565b60006040830160008301518482036000860152617e188282617cc1565b91505060208301518482036020860152617e328282617dc2565b9150508091505092915050565b60006040820190508181036000830152617e598185617dfb565b9050617e686020830184614f97565b9392505050565b60006080820190508181036000830152617e8a81898b6174de565b90508181036020830152617e9f8187896177b8565b90508181036040830152617eb4818587616c0d565b9050617ec3606083018461782c565b98975050505050505050565b7f496e697469616c697a61626c653a20636f6e747261637420697320616c72656160008201527f647920696e697469616c697a6564000000000000000000000000000000000000602082015250565b6000617f2b602e83614815565b9150617f3682617ecf565b604082019050919050565b60006020820190508181036000830152617f5a81617f1e565b9050919050565b6000819050919050565b600060ff82169050919050565b6000819050919050565b6000617f9d617f98617f9384617f61565b617f78565b617f6b565b9050919050565b617fad81617f82565b82525050565b6000602082019050617fc86000830184617fa4565b92915050565b60006101608301617fe260008401846162d4565b617fef6000860182614c19565b50617ffd60208401846162d4565b61800a6020860182614c19565b5061801860408401846162f5565b858303604087015261802b838284616461565b9250505061803c60608401846164be565b858303606087015261804f83828461662e565b92505050618060608084018461668b565b61806d60808601826166db565b5061807b60a084018461638a565b61808860a0860182614c28565b5061809660c084018461638a565b6180a360c0860182614c28565b506180b160e08401846166ea565b6180be60e0860182614cca565b506180cd61010084018461638a565b6180db610100860182614c28565b506180ea6101208401846166ea565b6180f8610120860182614cca565b5061810761014084018461638a565b618115610140860182614c28565b508091505092915050565b6000602082019050818103600083015261813a8184617fce565b905092915050565b6000602082840312156181585761815761442f565b5b600061816684828501616dc8565b91505092915050565b600082825260208201905092915050565b6000819050919050565b6000610160830161819e60008401846162d4565b6181ab6000860182614c19565b506181b960208401846162d4565b6181c66020860182614c19565b506181d460408401846162f5565b85830360408701526181e7838284616461565b925050506181f860608401846164be565b858303606087015261820b83828461662e565b9250505061821c608084018461668b565b61822960808601826166db565b5061823760a084018461638a565b61824460a0860182614c28565b5061825260c084018461638a565b61825f60c0860182614c28565b5061826d60e08401846166ea565b61827a60e0860182614cca565b5061828961010084018461638a565b618297610100860182614c28565b506182a66101208401846166ea565b6182b4610120860182614cca565b506182c361014084018461638a565b6182d1610140860182614c28565b508091505092915050565b60006182e8838361818a565b905092915050565b6000823560016101600383360303811261830d5761830c6162a6565b5b82810191505092915050565b6000602082019050919050565b6000618332838561816f565b93508360208402850161834484618180565b8060005b8781101561838857848403895261835f82846182f0565b61836985826182dc565b945061837483618319565b925060208a01995050600181019050618348565b50829750879450505050509392505050565b600060208201905081810360008301526183b5818486618326565b90509392505050565b60006020820190506183d3600083018461782c565b92915050565b6000602082840312156183ef576183ee61442f565b5b60006183fd84828501616d12565b91505092915050565b7f455243313135353a2061646472657373207a65726f206973206e6f742061207660008201527f616c6964206f776e657200000000000000000000000000000000000000000000602082015250565b6000618462602a83614815565b915061846d82618406565b604082019050919050565b6000602082019050818103600083015261849181618455565b9050919050565b7f5061757361626c653a2070617573656400000000000000000000000000000000600082015250565b60006184ce601083614815565b91506184d982618498565b602082019050919050565b600060208201905081810360008301526184fd816184c1565b9050919050565b60008190508160005260206000209050919050565b60006020601f8301049050919050565b600082821b905092915050565b6000600883026185667fffffffffffffffffffffffffffffffffffffffffffffffffffffffffffffffff82618529565b6185708683618529565b95508019841693508086168417925050509392505050565b60006185a361859e61859984614497565b617f78565b614497565b9050919050565b6000819050919050565b6185bd83618588565b6185d16185c9826185aa565b848454618536565b825550505050565b600090565b6185e66185d9565b6185f18184846185b4565b505050565b5b818110156186155761860a6000826185de565b6001810190506185f7565b5050565b601f82111561865a5761862b81618504565b61863484618519565b81016020851015618643578190505b61865761864f85618519565b8301826185f6565b50505b505050565b600082821c905092915050565b600061867d6000198460080261865f565b1980831691505092915050565b6000618696838361866c565b9150826002028217905092915050565b6186af8261480a565b67ffffffffffffffff8111156186c8576186c7614552565b5b6186d2825461625a565b6186dd828285618619565b600060209050601f83116001811461871057600084156186fe578287015190505b618708858261868a565b865550618770565b601f19841661871e86618504565b60005b8281101561874657848901518255600182019150602085019450602081019050618721565b86831015618763578489015161875f601f89168261866c565b8355505b6001600288020188555050505b505050505050565b7f4e487b7100000000000000000000000000000000000000000000000000000000600052601260045260246000fd5b7f455243313135353a206d696e7420746f20746865207a65726f2061646472657360008201527f7300000000000000000000000000000000000000000000000000000000000000602082015250565b6000618803602183614815565b915061880e826187a7565b604082019050919050565b60006020820190508181036000830152618832816187f6565b9050919050565b7f455243313135353a2069647320616e6420616d6f756e7473206c656e6774682060008201527f6d69736d61746368000000000000000000000000000000000000000000000000602082015250565b6000618895602883614815565b91506188a082618839565b604082019050919050565b600060208201905081810360008301526188c481618888565b9050919050565b60006188d682614497565b91506188e183614497565b92508282019050808211156188f9576188f8616f50565b5b92915050565b600060408201905081810360008301526189198185615483565b9050818103602083015261892d8184615483565b90509392505050565b7f455243313135353a207472616e7366657220746f20746865207a65726f20616460008201527f6472657373000000000000000000000000000000000000000000000000000000602082015250565b6000618992602583614815565b915061899d82618936565b604082019050919050565b600060208201905081810360008301526189c181618985565b9050919050565b7f455243313135353a20696e73756666696369656e742062616c616e636520666f60008201527f72207472616e7366657200000000000000000000000000000000000000000000602082015250565b6000618a24602a83614815565b9150618a2f826189c8565b604082019050919050565b60006020820190508181036000830152618a5381618a17565b9050919050565b7f455243313135353a206163636f756e747320616e6420696473206c656e67746860008201527f206d69736d617463680000000000000000000000000000000000000000000000602082015250565b6000618ab6602983614815565b9150618ac182618a5a565b604082019050919050565b60006020820190508181036000830152618ae581618aa9565b9050919050565b6000604082019050618b01600083018561450d565b618b0e602083018461450d565b9392505050565b7f496e697469616c697a61626c653a20636f6e7472616374206973206e6f74206960008201527f6e697469616c697a696e67000000000000000000000000000000000000000000602082015250565b6000618b71602b83614815565b9150618b7c82618b15565b604082019050919050565b60006020820190508181036000830152618ba081618b64565b9050919050565b7f416363657373436f6e74726f6c3a206163636f756e7420000000000000000000600082015250565b6000618bdd601783616196565b9150618be882618ba7565b601782019050919050565b7f206973206d697373696e6720726f6c6520000000000000000000000000000000600082015250565b6000618c29601183616196565b9150618c3482618bf3565b601182019050919050565b6000618c4a82618bd0565b9150618c5682856161a1565b9150618c6182618c1c565b9150618c6d82846161a1565b91508190509392505050565b600082825260208201905092915050565b6000618c9582617db7565b618c9f8185618c79565b9350618caf818560208601614826565b618cb881614541565b840191505092915050565b600060a082019050618cd8600083018861782c565b618ce5602083018761782c565b8181036040830152618cf78186615483565b90508181036060830152618d0b8185615483565b90508181036080830152618d1f8184618c8a565b90509695505050505050565b600081519050618d3a81614705565b92915050565b600060208284031215618d5657618d5561442f565b5b6000618d6484828501618d2b565b91505092915050565b60008160e01c9050919050565b600060033d1115618d995760046000803e618d96600051618d6d565b90505b90565b600060443d10618e2957618dae614425565b60043d036004823e80513d602482011167ffffffffffffffff82111715618dd6575050618e29565b808201805167ffffffffffffffff811115618df45750505050618e29565b80602083010160043d038501811115618e11575050505050618e29565b618e2082602001850186614581565b82955050505050505b90565b7f455243313135353a207472616e7366657220746f206e6f6e2d4552433131353560008201527f526563656976657220696d706c656d656e746572000000000000000000000000602082015250565b6000618e88603483614815565b9150618e9382618e2c565b604082019050919050565b60006020820190508181036000830152618eb781618e7b565b9050919050565b7f455243313135353a204552433131353552656365697665722072656a6563746560008201527f6420746f6b656e73000000000000000000000000000000000000000000000000602082015250565b6000618f1a602883614815565b9150618f2582618ebe565b604082019050919050565b60006020820190508181036000830152618f4981618f0d565b9050919050565b7f5061757361626c653a206e6f7420706175736564000000000000000000000000600082015250565b6000618f86601483614815565b9150618f9182618f50565b602082019050919050565b60006020820190508181036000830152618fb581618f79565b9050919050565b7f455243313135353a206275726e2066726f6d20746865207a65726f206164647260008201527f6573730000000000000000000000000000000000000000000000000000000000602082015250565b6000619018602383614815565b915061902382618fbc565b604082019050919050565b600060208201905081810360008301526190478161900b565b9050919050565b7f455243313135353a206275726e20616d6f756e7420657863656564732062616c60008201527f616e636500000000000000000000000000000000000000000000000000000000602082015250565b60006190aa602483614815565b91506190b58261904e565b604082019050919050565b600060208201905081810360008301526190d98161909d565b9050919050565b600060a0820190506190f5600083018861782c565b619102602083018761782c565b61910f604083018661450d565b61911c606083018561450d565b818103608083015261912e8184618c8a565b90509695505050505050565b7f455243313135353a2073657474696e6720617070726f76616c2073746174757360008201527f20666f722073656c660000000000000000000000000000000000000000000000602082015250565b6000619196602983614815565b91506191a18261913a565b604082019050919050565b600060208201905081810360008301526191c581619189565b9050919050565b60006191d782614497565b91506191e283614497565b92508282026191f081614497565b9150828204841483151761920757619206616f50565b5b5092915050565b600061921982614497565b91506000820361922c5761922b616f50565b5b600182039050919050565b7f537472696e67733a20686578206c656e67746820696e73756666696369656e74600082015250565b600061926d602083614815565b915061927882619237565b602082019050919050565b6000602082019050818103600083015261929c81619260565b9050919050565b7f455243313135353a206275726e20616d6f756e74206578636565647320746f7460008201527f616c537570706c79000000000000000000000000000000000000000000000000602082015250565b60006192ff602883614815565b915061930a826192a3565b604082019050919050565b6000602082019050818103600083015261932e816192f2565b905091905056fea264697066735822122020c7f809ba7597b037bf44286d4dd2eb5a4b2aa692697e7de923292f9e85d43e64736f6c63430008130033",
  "immutableReferences": {},
  "source": "// SPDX-License-Identifier: MIT\r\npragma solidity ^0.8.7;\r\n\r\nimport \"../node_modules/@openzeppelin/contracts-upgradeable/token/ERC1155/ERC1155Upgradeable.sol\";\r\nimport \"../node_modules/@openzeppelin/contracts-upgradeable/access/AccessControlUpgradeable.sol\";\r\nimport \"../node_modules/@openzeppelin/contracts-upgradeable/security/PausableUpgradeable.sol\";\r\nimport \"../node_modules/@openzeppelin/contracts-upgradeable/token/ERC1155/extensions/ERC1155BurnableUpgradeable.sol\";\r\nimport \"../node_modules/@openzeppelin/contracts-upgradeable/token/ERC1155/extensions/ERC1155SupplyUpgradeable.sol\";\r\nimport \"../node_modules/@openzeppelin/contracts-upgradeable/proxy/utils/Initializable.sol\";\r\nimport \"../node_modules/@openzeppelin/contracts-upgradeable/utils/StringsUpgradeable.sol\";\r\nimport { SeaportInterface } from \"./SeaportInterface.sol\";\r\nimport \"./ConsiderationStructs.sol\";\r\n\r\n/// @custom:security-contact dodo920306@gmail.com\r\ncontract The_Ohara_Protocol is Initializable, ERC1155Upgradeable, AccessControlUpgradeable, PausableUpgradeable, ERC1155BurnableUpgradeable, ERC1155SupplyUpgradeable {\r\n    \r\n    mapping (uint256 => bytes32) idToPublisher; // Anyone can check which publisher an id belongs to.\r\n    mapping (string => bool) publisherHasMember;\r\n    SeaportInterface seaport;\r\n\r\n    /// @custom:oz-upgrades-unsafe-allow constructor\r\n    constructor() {\r\n        _disableInitializers();\r\n    }\r\n\r\n    // There's no onlyPublisherSingle, for that it basically equals to onlyRole modifier from AccessControl. \r\n    modifier onlyPublisherBatch(uint256[] memory ids) {\r\n        for (uint256 i = 0; i < ids.length; ++i) {\r\n            _checkRole(idToPublisher[ids[i]]);\r\n        }\r\n        _;\r\n    }\r\n\r\n    function initialize(address seaportAddr) initializer public {\r\n        __ERC1155_init(\"\");\r\n        __AccessControl_init();\r\n        __Pausable_init();\r\n        __ERC1155Burnable_init();\r\n        __ERC1155Supply_init();\r\n\r\n        _grantRole(DEFAULT_ADMIN_ROLE, msg.sender);\r\n        // Tim: create SeaportInterface instance\r\n        seaport = SeaportInterface(seaportAddr);\r\n    }\r\n\r\n    function setURI(string memory newuri) public whenNotPaused onlyRole(DEFAULT_ADMIN_ROLE) { // Tim: added whenNotPaused\r\n        _setURI(newuri);\r\n    }\r\n\r\n    // Tim: get the actual e-book uri, may require further modifications\r\n    // Tim: using toString() for getURIOfId()\r\n    using StringsUpgradeable for uint256;   \r\n    function getURIOfId(uint256 id) public view returns(string memory) {\r\n        return string.concat(super.uri(id), \"/\", id.toString());\r\n    }\r\n\r\n    /**\r\n     * @dev The publisher who wants to claim an account belongs to them must use this function\r\n     * with the magic string that represents themselves.\r\n     * \r\n     * The function will uses keccak256 solidity function to hash this string, but before that, it must be represented as bytes32.\r\n     * The type conversion from \"string memory\" to \"bytes32\" isn't allowed, so we use abi.encode() here.\r\n     * See https://ethereum.stackexchange.com/questions/119583/when-to-use-abi-encode-abi-encodepacked-or-abi-encodewithsignature-in-solidity\r\n     * for the reason of this selection.\r\n     * \r\n     * After that, we use grantRole() function from AccessControl,\r\n     * the reason we don't directly use _grantRole() here is because the onlyRole(getRoleAdmin(role)) should also be passed in this operation,\r\n     * and since grantRole() has that modifier originally, the current function doesn't require any modifier yet,\r\n     * and there's no need to be afraid that anyone hash others' magic string and directly call grantRole() because there's no way he/she can be the admin.\r\n     * \r\n     * If it's the first member to be added in the publisher,\r\n     * the msg.sender must be DEFAULT_ADMIN_ROLE to pass onlyRole(getRoleAdmin(role)) for that there's no way to set admin to others.\r\n     * If so, then the function would call _setRoleAdmin() to release the admin power to the publisher itself,\r\n     * indicating that from this point on, only the publisher can manage which accounts can act on its behalf.\r\n     * \r\n     * The only risk would be that a hacker steal one private key from DEFAULT_ADMIN_ROLE,\r\n     * in that case, the worse he/she can do is grant his/her accounts the publisher role that \"hasn't been registered yet\",\r\n     * for that the admins of the publishers already in the protocol can only be themselves.\r\n     * If so, then the publishers register in the future cannot use the same magic string as the hacker granted himself/herself even if they want.\r\n     * (Basically, it's the same idea as \"This username has already been used. Please try another.\",\r\n     * so the power of DEFAULT_ADMIN_ROLE is basically just register publishers and ids.)\r\n     */\r\n    function grantPublisher(string memory publisher, address account) public virtual whenNotPaused { // Tim: added whenNotPaused\r\n        bytes32 role = keccak256(abi.encode(publisher));\r\n        grantRole(role, account);\r\n\r\n        if (!publisherHasMember[publisher]) {\r\n            publisherHasMember[publisher] = true;\r\n            _setRoleAdmin(role, role);\r\n        }\r\n    }\r\n\r\n    /**\r\n     * @dev See the comment of grantPublisher() above for more info about the string publisher and the bytes32 role.\r\n     * Only the old publisher could set the publisher of an id to a new one.\r\n     * Since the default publisher of the id is 0x00, the first publisher of the id must be set by the DEFAULT_ADMIN_ROLE.\r\n     */\r\n    function setIdToPublisher(uint256 id, string memory publisher) //Tim: added whenNotPaused\r\n        public\r\n        whenNotPaused\r\n        onlyRole(idToPublisher[id])\r\n    {\r\n        bytes32 role = keccak256(abi.encode(publisher));\r\n        idToPublisher[id] = role;\r\n    }\r\n\r\n    // Tim: added idExists() to check if an id has existed\r\n    function idExists(uint256 id) public view returns (bool) {\r\n        return super.exists(id);\r\n    }\r\n\r\n    /**\r\n     * @dev See the comment of grantPublisher() above for more info about the string publisher and the bytes32 role.\r\n     * The reason we don't directly call _revokeRole() and the this function is safe is the same reason grantPublisher() doesn't call _grantRole().\r\n     * Use this function to kick someone including msg.sender himself/herself out of the publisher.\r\n     * The function also can only be called by the publisher itself.\r\n     */\r\n    function revokePublisher(string memory publisher, address account) public virtual whenNotPaused { // Tim: added whenNotPaused\r\n        bytes32 role = keccak256(abi.encode(publisher));\r\n        revokeRole(role, account);\r\n    }\r\n\r\n    // Tim: added two functions to call hasRole() & getRoleAdmin(), not sure if thye're needed\r\n    function hasRole(string memory role, address account) public view returns(bool) {\r\n        return super.hasRole(keccak256(abi.encode(role)), account);\r\n    }\r\n\r\n    function getRoleAdmin(string memory role) public view returns(bytes32) {\r\n        return super.getRoleAdmin(keccak256(abi.encode(role)));\r\n    }\r\n\r\n    function pause() public onlyRole(DEFAULT_ADMIN_ROLE) {\r\n        _pause();\r\n    }\r\n\r\n    function unpause() public onlyRole(DEFAULT_ADMIN_ROLE) {\r\n        _unpause();\r\n    }\r\n\r\n    // The publisher of the id would have power to mint the id to whoever they want.\r\n    function mint(address account, uint256 id, uint256 amount, bytes memory data)\r\n        public\r\n        onlyRole(idToPublisher[id])\r\n    {\r\n        _mint(account, id, amount, data);\r\n    }\r\n\r\n    function mintBatch(address to, uint256[] memory ids, uint256[] memory amounts, bytes memory data)\r\n        public\r\n        onlyPublisherBatch(ids)\r\n    {\r\n        _mintBatch(to, ids, amounts, data);\r\n    }\r\n\r\n    // Tim: added burn() & burnBatch()\r\n    function burn(address from, uint256 id, uint256 amount) public override(ERC1155BurnableUpgradeable) {\r\n        super.burn(from, id, amount);\r\n    }\r\n\r\n    function burnBatch(address account, uint256[] memory ids, uint256[] memory amounts) public override(ERC1155BurnableUpgradeable) {\r\n        super.burnBatch(account, ids, amounts);\r\n    }\r\n\r\n    function _beforeTokenTransfer(address operator, address from, address to, uint256[] memory ids, uint256[] memory amounts, bytes memory data)\r\n        internal\r\n        whenNotPaused\r\n        override(ERC1155Upgradeable, ERC1155SupplyUpgradeable)\r\n    {\r\n        super._beforeTokenTransfer(operator, from, to, ids, amounts, data);\r\n    }\r\n\r\n    // Tim: added transfer() & transferBatch()\r\n    function transfer(address from, address to, uint256 id, uint256 amount, bytes memory data) public {\r\n        super.safeTransferFrom(from, to, id, amount, data);\r\n    }\r\n\r\n    function transferBatch(address from, address to, uint256[] memory ids, uint256[] memory amounts, bytes memory data) public {\r\n        super.safeBatchTransferFrom(from, to, ids, amounts, data);\r\n    }\r\n\r\n    // Tim: added balanceOf() & balanceOfBatch()\r\n    function balanceOf(address account, uint256 id) \r\n        public\r\n        view\r\n        virtual\r\n        override(ERC1155Upgradeable)\r\n        returns(uint256 balance)\r\n    {\r\n        return super.balanceOf(account, id);\r\n    }\r\n\r\n    function balanceOfBatch(address[] memory accounts, uint256[] memory ids)\r\n        public\r\n        view\r\n        virtual\r\n        override(ERC1155Upgradeable)\r\n        returns (uint256[] memory)\r\n    {\r\n        return super.balanceOfBatch(accounts, ids) ;\r\n    }\r\n\r\n    // Tim: added setApprovalForAll() & isApprovedForAll()\r\n    function setApprovalForAll(address operator, bool approved) public override(ERC1155Upgradeable) {\r\n        super.setApprovalForAll(operator, approved);\r\n    }\r\n\r\n    function isApprovedForAll(address account, address operator) public view override(ERC1155Upgradeable) returns (bool) {\r\n        return super.isApprovedForAll(account, operator);\r\n    }\r\n\r\n    // Tim: added getIdSupply()\r\n    function getIdSupply(uint256 id) public view returns (uint256) {\r\n        return super.totalSupply(id);\r\n    }\r\n\r\n    // Tim: added functions in SeaportInterface.sol, except fulfillBasicOrder(for ERC721), information, & name\r\n    function fulfillOrder(Order memory order, bytes32 fulfillerConduitKey) public payable returns (bool fulfilled) {\r\n        fulfilled = seaport.fulfillOrder(order, fulfillerConduitKey);\r\n    }\r\n\r\n    function callFulfillAdvancedOrder(AdvancedOrder calldata advancedOrder, CriteriaResolver[] calldata criteriaResolvers, bytes32 fulfillerConduitKey, address recipient)\r\n        public\r\n        payable\r\n        returns (bool fulfilled)\r\n    {\r\n        fulfilled = seaport.fulfillAdvancedOrder(advancedOrder, criteriaResolvers, fulfillerConduitKey, recipient);\r\n    }\r\n\r\n    function callFulfillAvailableOrders(\r\n            Order[] calldata orders,\r\n            FulfillmentComponent[][] calldata offerFulfillments,\r\n            FulfillmentComponent[][] calldata considerationFulfillments,\r\n            bytes32 fulfillerConduitKey,\r\n            uint256 maximumFulfilled\r\n        ) \r\n        public\r\n        payable\r\n        returns (bool[] memory availableOrders, Execution[] memory executions)\r\n    {\r\n        (availableOrders, executions) = seaport.fulfillAvailableOrders(orders, offerFulfillments, considerationFulfillments, fulfillerConduitKey, maximumFulfilled);\r\n    }\r\n\r\n    function callFulfillAvailableAdvancedOrders(\r\n            AdvancedOrder[] calldata advancedOrders,\r\n            CriteriaResolver[] calldata criteriaResolvers,\r\n            FulfillmentComponent[][] calldata offerFulfillments,\r\n            FulfillmentComponent[][] calldata considerationFulfillments,\r\n            bytes32 fulfillerConduitKey,\r\n            address recipient,\r\n            uint256 maximumFulfilled\r\n        )\r\n        public\r\n        payable\r\n        returns (bool[] memory availableOrders, Execution[] memory executions)\r\n    {\r\n        (availableOrders, executions) = seaport.fulfillAvailableAdvancedOrders(advancedOrders, criteriaResolvers, offerFulfillments, considerationFulfillments, fulfillerConduitKey, recipient, maximumFulfilled);\r\n    }\r\n\r\n    function callMatchOrders(Order[] calldata orders, Fulfillment[] calldata fulfillments) external payable returns (Execution[] memory executions) {\r\n        executions = seaport.matchOrders(orders, fulfillments);\r\n    }\r\n\r\n    function callMatchAdvancedOrders(AdvancedOrder[] calldata orders, CriteriaResolver[] calldata criteriaResolvers, Fulfillment[] calldata fulfillments, address recipient)\r\n        public\r\n        payable\r\n        returns (Execution[] memory executions)\r\n    {\r\n        executions = seaport.matchAdvancedOrders(orders, criteriaResolvers, fulfillments, recipient);\r\n    }\r\n\r\n    function allCancel(OrderComponents[] calldata orders) public returns (bool cancelled) {\r\n        cancelled = seaport.cancel(orders);\r\n    }\r\n\r\n    function callValidate(Order[] calldata orders) public returns (bool validated) {\r\n        validated = seaport.validate(orders);\r\n    }\r\n\r\n    function callIncrementCounter() public returns (uint256 newCounter) {\r\n        newCounter = seaport.incrementCounter();\r\n    }\r\n\r\n    function callGetOrderHash(OrderComponents calldata order) public view returns (bytes32 orderHash) {\r\n        orderHash = seaport.getOrderHash(order);\r\n    }\r\n\r\n    function callGetOrderStatus(bytes32 orderHash) public view returns (bool isValidated, bool isCancelled, uint256 totalFilled, uint256 totalSize) {\r\n        (isValidated, isCancelled, totalFilled, totalSize) = seaport.getOrderStatus(orderHash);\r\n    }\r\n\r\n    function callGetCounter(address offerer) public view returns (uint256 counter) {\r\n        counter = seaport.getCounter(offerer);\r\n    }\r\n\r\n    // The following functions are overrides required by Solidity.\r\n\r\n    function supportsInterface(bytes4 interfaceId)\r\n        public\r\n        view\r\n        override(ERC1155Upgradeable, AccessControlUpgradeable)\r\n        returns (bool)\r\n    {\r\n        return super.supportsInterface(interfaceId);\r\n    }\r\n}",
  "sourcePath": "C:\\Users\\TimOu_0911\\Desktop\\The_Ohara_Protocol\\contracts\\The_Ohara_Protocol.sol",
  "compiler": {
    "name": "solc",
    "version": "0.8.19+commit.7dd6d404.Emscripten.clang"
  },
  "schemaVersion": "3.4.13",
  "updatedAt": "2023-06-17T05:48:44.880Z",
  "devdoc": {
    "custom:security-contact": "dodo920306@gmail.com",
    "events": {
      "ApprovalForAll(address,address,bool)": {
        "details": "Emitted when `account` grants or revokes permission to `operator` to transfer their tokens, according to `approved`."
      },
      "Initialized(uint8)": {
        "details": "Triggered when the contract has been initialized or reinitialized."
      },
      "Paused(address)": {
        "details": "Emitted when the pause is triggered by `account`."
      },
      "RoleAdminChanged(bytes32,bytes32,bytes32)": {
        "details": "Emitted when `newAdminRole` is set as ``role``'s admin role, replacing `previousAdminRole` `DEFAULT_ADMIN_ROLE` is the starting admin for all roles, despite {RoleAdminChanged} not being emitted signaling this. _Available since v3.1._"
      },
      "RoleGranted(bytes32,address,address)": {
        "details": "Emitted when `account` is granted `role`. `sender` is the account that originated the contract call, an admin role bearer except when using {AccessControl-_setupRole}."
      },
      "RoleRevoked(bytes32,address,address)": {
        "details": "Emitted when `account` is revoked `role`. `sender` is the account that originated the contract call:   - if using `revokeRole`, it is the admin role bearer   - if using `renounceRole`, it is the role bearer (i.e. `account`)"
      },
      "TransferBatch(address,address,address,uint256[],uint256[])": {
        "details": "Equivalent to multiple {TransferSingle} events, where `operator`, `from` and `to` are the same for all transfers."
      },
      "TransferSingle(address,address,address,uint256,uint256)": {
        "details": "Emitted when `value` tokens of token type `id` are transferred from `from` to `to` by `operator`."
      },
      "URI(string,uint256)": {
        "details": "Emitted when the URI for token type `id` changes to `value`, if it is a non-programmatic URI. If an {URI} event was emitted for `id`, the standard https://eips.ethereum.org/EIPS/eip-1155#metadata-extensions[guarantees] that `value` will equal the value returned by {IERC1155MetadataURI-uri}."
      },
      "Unpaused(address)": {
        "details": "Emitted when the pause is lifted by `account`."
      }
    },
    "kind": "dev",
    "methods": {
      "balanceOf(address,uint256)": {
        "details": "See {IERC1155-balanceOf}. Requirements: - `account` cannot be the zero address."
      },
      "balanceOfBatch(address[],uint256[])": {
        "details": "See {IERC1155-balanceOfBatch}. Requirements: - `accounts` and `ids` must have the same length."
      },
      "constructor": {
        "custom:oz-upgrades-unsafe-allow": "constructor"
      },
      "exists(uint256)": {
        "details": "Indicates whether any token exist with a given id, or not."
      },
      "getRoleAdmin(bytes32)": {
        "details": "Returns the admin role that controls `role`. See {grantRole} and {revokeRole}. To change a role's admin, use {_setRoleAdmin}."
      },
      "grantPublisher(string,address)": {
        "details": "The publisher who wants to claim an account belongs to them must use this function with the magic string that represents themselves.  The function will uses keccak256 solidity function to hash this string, but before that, it must be represented as bytes32. The type conversion from \"string memory\" to \"bytes32\" isn't allowed, so we use abi.encode() here. See https://ethereum.stackexchange.com/questions/119583/when-to-use-abi-encode-abi-encodepacked-or-abi-encodewithsignature-in-solidity for the reason of this selection.  After that, we use grantRole() function from AccessControl, the reason we don't directly use _grantRole() here is because the onlyRole(getRoleAdmin(role)) should also be passed in this operation, and since grantRole() has that modifier originally, the current function doesn't require any modifier yet, and there's no need to be afraid that anyone hash others' magic string and directly call grantRole() because there's no way he/she can be the admin.  If it's the first member to be added in the publisher, the msg.sender must be DEFAULT_ADMIN_ROLE to pass onlyRole(getRoleAdmin(role)) for that there's no way to set admin to others. If so, then the function would call _setRoleAdmin() to release the admin power to the publisher itself, indicating that from this point on, only the publisher can manage which accounts can act on its behalf.  The only risk would be that a hacker steal one private key from DEFAULT_ADMIN_ROLE, in that case, the worse he/she can do is grant his/her accounts the publisher role that \"hasn't been registered yet\", for that the admins of the publishers already in the protocol can only be themselves. If so, then the publishers register in the future cannot use the same magic string as the hacker granted himself/herself even if they want. (Basically, it's the same idea as \"This username has already been used. Please try another.\", so the power of DEFAULT_ADMIN_ROLE is basically just register publishers and ids.)"
      },
      "grantRole(bytes32,address)": {
        "details": "Grants `role` to `account`. If `account` had not been already granted `role`, emits a {RoleGranted} event. Requirements: - the caller must have ``role``'s admin role. May emit a {RoleGranted} event."
      },
      "hasRole(bytes32,address)": {
        "details": "Returns `true` if `account` has been granted `role`."
      },
      "isApprovedForAll(address,address)": {
        "details": "See {IERC1155-isApprovedForAll}."
      },
      "paused()": {
        "details": "Returns true if the contract is paused, and false otherwise."
      },
      "renounceRole(bytes32,address)": {
        "details": "Revokes `role` from the calling account. Roles are often managed via {grantRole} and {revokeRole}: this function's purpose is to provide a mechanism for accounts to lose their privileges if they are compromised (such as when a trusted device is misplaced). If the calling account had been revoked `role`, emits a {RoleRevoked} event. Requirements: - the caller must be `account`. May emit a {RoleRevoked} event."
      },
      "revokePublisher(string,address)": {
        "details": "See the comment of grantPublisher() above for more info about the string publisher and the bytes32 role. The reason we don't directly call _revokeRole() and the this function is safe is the same reason grantPublisher() doesn't call _grantRole(). Use this function to kick someone including msg.sender himself/herself out of the publisher. The function also can only be called by the publisher itself."
      },
      "revokeRole(bytes32,address)": {
        "details": "Revokes `role` from `account`. If `account` had been granted `role`, emits a {RoleRevoked} event. Requirements: - the caller must have ``role``'s admin role. May emit a {RoleRevoked} event."
      },
      "safeBatchTransferFrom(address,address,uint256[],uint256[],bytes)": {
        "details": "See {IERC1155-safeBatchTransferFrom}."
      },
      "safeTransferFrom(address,address,uint256,uint256,bytes)": {
        "details": "See {IERC1155-safeTransferFrom}."
      },
      "setApprovalForAll(address,bool)": {
        "details": "See {IERC1155-setApprovalForAll}."
      },
      "setIdToPublisher(uint256,string)": {
        "details": "See the comment of grantPublisher() above for more info about the string publisher and the bytes32 role. Only the old publisher could set the publisher of an id to a new one. Since the default publisher of the id is 0x00, the first publisher of the id must be set by the DEFAULT_ADMIN_ROLE."
      },
      "totalSupply(uint256)": {
        "details": "Total amount of tokens in with a given id."
      },
      "uri(uint256)": {
        "details": "See {IERC1155MetadataURI-uri}. This implementation returns the same URI for *all* token types. It relies on the token type ID substitution mechanism https://eips.ethereum.org/EIPS/eip-1155#metadata[defined in the EIP]. Clients calling this function must replace the `\\{id\\}` substring with the actual token type ID."
      }
    },
    "version": 1
  },
  "userdoc": {
    "kind": "user",
    "methods": {},
    "version": 1
  }
}